{
  "abi": [
    {
      "inputs": [
        {
          "internalType": "contract StakingEscrow",
          "name": "_escrow",
          "type": "address"
        }
      ],
      "stateMutability": "nonpayable",
      "type": "constructor"
    },
    {
      "inputs": [],
      "name": "escrow",
      "outputs": [
        {
          "internalType": "contract StakingEscrow",
          "name": "",
          "type": "address"
        }
      ],
      "stateMutability": "view",
      "type": "function"
    },
    {
      "inputs": [
        {
          "internalType": "address",
          "name": "_staker",
          "type": "address"
        },
        {
          "internalType": "uint256",
          "name": "_penalty",
          "type": "uint256"
        },
        {
          "internalType": "address",
          "name": "_investigator",
          "type": "address"
        },
        {
          "internalType": "uint256",
          "name": "_reward",
          "type": "uint256"
        }
      ],
      "name": "slashStaker",
      "outputs": [],
      "stateMutability": "nonpayable",
      "type": "function"
    }
  ],
  "bytecode": "60a060405234801561001057600080fd5b506040516102003803806102008339818101604052602081101561003357600080fd5b5051606081901b6001600160601b0319166080526001600160a01b031661019561006b6000398060d3528061013d52506101956000f3fe608060405234801561001057600080fd5b50600436106100365760003560e01c806399cc218c1461003b578063e2fdcc1714610077575b600080fd5b6100756004803603608081101561005157600080fd5b506001600160a01b038135811691602081013591604082013516906060013561009b565b005b61007f61013b565b604080516001600160a01b039092168252519081900360200190f35b60408051632673086360e21b81526001600160a01b0386811660048301526024820186905284811660448301526064820184905291517f0000000000000000000000000000000000000000000000000000000000000000909216916399cc218c9160848082019260009290919082900301818387803b15801561011d57600080fd5b505af1158015610131573d6000803e3d6000fd5b5050505050505050565b7f00000000000000000000000000000000000000000000000000000000000000008156fea2646970667358221220eb7b1d8d48534a4d6c7e4473ad907025eacff1e708318f540000bc0573d9da9964736f6c63430006070033",
  "bytecodeSha1": "c41590c5fdffa6a4b4e036ce3ade03c2280fbfb7",
  "compiler": {
    "evm_version": "berlin",
    "optimizer": {
      "enabled": true,
      "runs": 200
    },
    "version": "0.6.7"
  },
  "contractName": "AdjudicatorForStakingEscrowMock",
  "language": "Solidity",
  "natspec": {
    "methods": {},
    "notice": "Contract for testing staking escrow contract"
  },
  "opcodes": "PUSH1 0x80 PUSH1 0x40 MSTORE CALLVALUE DUP1 ISZERO PUSH2 0x10 JUMPI PUSH1 0x0 DUP1 REVERT JUMPDEST POP PUSH1 0x4 CALLDATASIZE LT PUSH2 0x36 JUMPI PUSH1 0x0 CALLDATALOAD PUSH1 0xE0 SHR DUP1 PUSH4 0x99CC218C EQ PUSH2 0x3B JUMPI DUP1 PUSH4 0xE2FDCC17 EQ PUSH2 0x77 JUMPI JUMPDEST PUSH1 0x0 DUP1 REVERT JUMPDEST PUSH2 0x75 PUSH1 0x4 DUP1 CALLDATASIZE SUB PUSH1 0x80 DUP2 LT ISZERO PUSH2 0x51 JUMPI PUSH1 0x0 DUP1 REVERT JUMPDEST POP PUSH1 0x1 PUSH1 0x1 PUSH1 0xA0 SHL SUB DUP2 CALLDATALOAD DUP2 AND SWAP2 PUSH1 0x20 DUP2 ADD CALLDATALOAD SWAP2 PUSH1 0x40 DUP3 ADD CALLDATALOAD AND SWAP1 PUSH1 0x60 ADD CALLDATALOAD PUSH2 0x9B JUMP JUMPDEST STOP JUMPDEST PUSH2 0x7F PUSH2 0x13B JUMP JUMPDEST PUSH1 0x40 DUP1 MLOAD PUSH1 0x1 PUSH1 0x1 PUSH1 0xA0 SHL SUB SWAP1 SWAP3 AND DUP3 MSTORE MLOAD SWAP1 DUP2 SWAP1 SUB PUSH1 0x20 ADD SWAP1 RETURN JUMPDEST PUSH1 0x40 DUP1 MLOAD PUSH4 0x26730863 PUSH1 0xE2 SHL DUP2 MSTORE PUSH1 0x1 PUSH1 0x1 PUSH1 0xA0 SHL SUB DUP7 DUP2 AND PUSH1 0x4 DUP4 ADD MSTORE PUSH1 0x24 DUP3 ADD DUP7 SWAP1 MSTORE DUP5 DUP2 AND PUSH1 0x44 DUP4 ADD MSTORE PUSH1 0x64 DUP3 ADD DUP5 SWAP1 MSTORE SWAP2 MLOAD PUSH32 0x0 SWAP1 SWAP3 AND SWAP2 PUSH4 0x99CC218C SWAP2 PUSH1 0x84 DUP1 DUP3 ADD SWAP3 PUSH1 0x0 SWAP3 SWAP1 SWAP2 SWAP1 DUP3 SWAP1 SUB ADD DUP2 DUP4 DUP8 DUP1 EXTCODESIZE ISZERO DUP1 ISZERO PUSH2 0x11D JUMPI PUSH1 0x0 DUP1 REVERT JUMPDEST POP GAS CALL ISZERO DUP1 ISZERO PUSH2 0x131 JUMPI RETURNDATASIZE PUSH1 0x0 DUP1 RETURNDATACOPY RETURNDATASIZE PUSH1 0x0 REVERT JUMPDEST POP POP POP POP POP POP POP POP JUMP JUMPDEST PUSH32 0x0 DUP2 JUMP INVALID LOG2 PUSH5 0x6970667358 0x22 SLT KECCAK256 0xEB PUSH28 0x1D8D48534A4D6C7E4473AD907025EACFF1E708318F540000BC0573D9 0xDA SWAP10 PUSH5 0x736F6C6343 STOP MOD SMOD STOP CALLER ",
  "sha1": "8a28d9d2c33d3765d9b46b749d3cdafbddbe45cd",
  "source": "pragma solidity ^0.6.5;\n\n\nimport \"contracts/StakingEscrow.sol\";\nimport \"contracts/NuCypherToken.sol\";\n\n\n/**\n* @notice Upgrade to this contract must lead to fail\n*/\ncontract StakingEscrowBad is StakingEscrow {\n\n    constructor(\n        NuCypherToken _token,\n        uint32 _hoursPerPeriod,\n        uint256 _issuanceDecayCoefficient,\n        uint256 _lockDurationCoefficient1,\n        uint256 _lockDurationCoefficient2,\n        uint16 _maximumRewardedPeriods,\n        uint256 _firstPhaseTotalSupply,\n        uint256 _firstPhaseMaxIssuance,\n        uint16 _minLockedPeriods,\n        uint256 _minAllowableLockedTokens,\n        uint256 _maxAllowableLockedTokens,\n        uint16 _minWorkerPeriods,\n        bool _isTestContract\n    )\n        public\n        StakingEscrow(\n            _token,\n            _hoursPerPeriod,\n            _issuanceDecayCoefficient,\n            _lockDurationCoefficient1,\n            _lockDurationCoefficient2,\n            _maximumRewardedPeriods,\n            _firstPhaseTotalSupply,\n            _firstPhaseMaxIssuance,\n            _minLockedPeriods,\n            _minAllowableLockedTokens,\n            _maxAllowableLockedTokens,\n            _minWorkerPeriods,\n            _isTestContract\n        )\n    {\n    }\n\n    function getSubStakeInfo(address, uint256) public view override returns (uint16, uint16, uint16, uint128) {}\n\n}\n\n\n/**\n* @notice Contract for testing upgrading the StakingEscrow contract\n*/\ncontract StakingEscrowV2Mock is StakingEscrow {\n\n    uint256 public valueToCheck;\n\n    constructor(\n        NuCypherToken _token,\n        uint32 _hoursPerPeriod,\n        uint256 _issuanceDecayCoefficient,\n        uint256 _lockDurationCoefficient1,\n        uint256 _lockDurationCoefficient2,\n        uint16 _maximumRewardedPeriods,\n        uint256 _firstPhaseTotalSupply,\n        uint256 _firstPhaseMaxIssuance,\n        uint16 _minLockedPeriods,\n        uint256 _minAllowableLockedTokens,\n        uint256 _maxAllowableLockedTokens,\n        uint16 _minWorkerPeriods,\n        bool _isTestContract,\n        uint256 _valueToCheck\n    )\n        public\n        StakingEscrow(\n            _token,\n            _hoursPerPeriod,\n            _issuanceDecayCoefficient,\n            _lockDurationCoefficient1,\n            _lockDurationCoefficient2,\n            _maximumRewardedPeriods,\n            _firstPhaseTotalSupply,\n            _firstPhaseMaxIssuance,\n            _minLockedPeriods,\n            _minAllowableLockedTokens,\n            _maxAllowableLockedTokens,\n            _minWorkerPeriods,\n            _isTestContract\n        )\n    {\n        valueToCheck = _valueToCheck;\n    }\n\n    function setValueToCheck(uint256 _valueToCheck) public {\n        valueToCheck = _valueToCheck;\n    }\n\n    function verifyState(address _testTarget) public override {\n        super.verifyState(_testTarget);\n        require(delegateGet(_testTarget, this.valueToCheck.selector) == valueToCheck);\n    }\n\n    function finishUpgrade(address _target) public override onlyWhileUpgrading {\n        StakingEscrowV2Mock escrow = StakingEscrowV2Mock(_target);\n        valueToCheck = escrow.valueToCheck();\n        emit UpgradeFinished(_target, msg.sender);\n    }\n}\n\n\n/**\n* @notice Contract for testing staking escrow contract\n*/\ncontract PolicyManagerForStakingEscrowMock {\n\n    StakingEscrow public immutable escrow;\n    mapping (address => uint16[]) public nodes;\n\n    constructor(address, StakingEscrow _escrow) public {\n        escrow = _escrow;\n    }\n\n    function register(address _node, uint16 _period) external {\n        nodes[_node].push(_period);\n    }\n\n    function updateFee(address _node, uint16 _period) external {\n        nodes[_node].push(_period);\n    }\n\n    function setDefaultFeeDelta(address _node, uint16 _period) external {\n        nodes[_node].push(_period);\n    }\n\n    function getPeriodsLength(address _node) public view returns (uint256) {\n        return nodes[_node].length;\n    }\n\n    function getPeriod(address _node, uint256 _index) public view returns (uint16) {\n        return nodes[_node][_index];\n    }\n\n}\n\n\n/**\n* @notice Contract for testing staking escrow contract\n*/\ncontract AdjudicatorForStakingEscrowMock {\n\n    StakingEscrow public immutable escrow;\n\n    constructor(StakingEscrow _escrow) public {\n        escrow = _escrow;\n    }\n\n    function slashStaker(\n        address _staker,\n        uint256 _penalty,\n        address _investigator,\n        uint256 _reward\n    )\n        public\n    {\n        escrow.slashStaker(_staker, _penalty, _investigator, _reward);\n    }\n}\n\n/**\n* @notice Intermediary contract for testing worker\n*/\ncontract Intermediary {\n\n    NuCypherToken immutable token;\n    StakingEscrow immutable escrow;\n\n    constructor(NuCypherToken _token, StakingEscrow _escrow) public {\n        token = _token;\n        escrow = _escrow;\n    }\n\n    function bondWorker(address _worker) external {\n        escrow.bondWorker(_worker);\n    }\n\n    function deposit(uint256 _value, uint16 _periods) external {\n        token.approve(address(escrow), _value);\n        escrow.deposit(_value, _periods);\n    }\n\n    function commitToNextPeriod() external {\n        escrow.commitToNextPeriod();\n    }\n\n}\n\n\n/**\n* @notice Contract for testing staking escrow contract\n*/\ncontract WorkLockForStakingEscrowMock {\n\n    StakingEscrow public immutable escrow;\n\n    constructor(StakingEscrow _escrow) public {\n        escrow = _escrow;\n    }\n\n    function setWorkMeasurement(address _staker, bool _measureWork) external returns (uint256) {\n        return escrow.setWorkMeasurement(_staker, _measureWork);\n    }\n}\n",
  "sourcePath": "contracts/StakingEscrowTestSet.sol",
  "type": "contract"
}