{
  "abi": [
    {
      "inputs": [
        {
          "internalType": "contract StakingEscrow",
          "name": "_escrow",
          "type": "address"
        },
        {
          "internalType": "enum SignatureVerifier.HashAlgorithm",
          "name": "_hashAlgorithm",
          "type": "uint8"
        },
        {
          "internalType": "uint256",
          "name": "_basePenalty",
          "type": "uint256"
        },
        {
          "internalType": "uint256",
          "name": "_percentagePenalty",
          "type": "uint256"
        },
        {
          "internalType": "uint256",
          "name": "_penaltyHistoryCoefficient",
          "type": "uint256"
        },
        {
          "internalType": "uint256",
          "name": "_rewardCoefficient",
          "type": "uint256"
        }
      ],
      "stateMutability": "nonpayable",
      "type": "constructor"
    },
    {
      "anonymous": false,
      "inputs": [
        {
          "indexed": true,
          "internalType": "bytes32",
          "name": "evaluationHash",
          "type": "bytes32"
        },
        {
          "indexed": true,
          "internalType": "address",
          "name": "investigator",
          "type": "address"
        },
        {
          "indexed": false,
          "internalType": "bool",
          "name": "correctness",
          "type": "bool"
        }
      ],
      "name": "CFragEvaluated",
      "type": "event"
    },
    {
      "anonymous": false,
      "inputs": [
        {
          "indexed": true,
          "internalType": "bytes32",
          "name": "evaluationHash",
          "type": "bytes32"
        },
        {
          "indexed": true,
          "internalType": "address",
          "name": "worker",
          "type": "address"
        },
        {
          "indexed": true,
          "internalType": "address",
          "name": "staker",
          "type": "address"
        }
      ],
      "name": "IncorrectCFragVerdict",
      "type": "event"
    },
    {
      "anonymous": false,
      "inputs": [
        {
          "indexed": true,
          "internalType": "address",
          "name": "previousOwner",
          "type": "address"
        },
        {
          "indexed": true,
          "internalType": "address",
          "name": "newOwner",
          "type": "address"
        }
      ],
      "name": "OwnershipTransferred",
      "type": "event"
    },
    {
      "anonymous": false,
      "inputs": [
        {
          "indexed": true,
          "internalType": "address",
          "name": "testTarget",
          "type": "address"
        },
        {
          "indexed": false,
          "internalType": "address",
          "name": "sender",
          "type": "address"
        }
      ],
      "name": "StateVerified",
      "type": "event"
    },
    {
      "anonymous": false,
      "inputs": [
        {
          "indexed": true,
          "internalType": "address",
          "name": "target",
          "type": "address"
        },
        {
          "indexed": false,
          "internalType": "address",
          "name": "sender",
          "type": "address"
        }
      ],
      "name": "UpgradeFinished",
      "type": "event"
    },
    {
      "inputs": [],
      "name": "basePenalty",
      "outputs": [
        {
          "internalType": "uint256",
          "name": "",
          "type": "uint256"
        }
      ],
      "stateMutability": "view",
      "type": "function"
    },
    {
      "inputs": [],
      "name": "escrow",
      "outputs": [
        {
          "internalType": "contract StakingEscrow",
          "name": "",
          "type": "address"
        }
      ],
      "stateMutability": "view",
      "type": "function"
    },
    {
      "inputs": [
        {
          "internalType": "bytes",
          "name": "_capsuleBytes",
          "type": "bytes"
        },
        {
          "internalType": "bytes",
          "name": "_cFragBytes",
          "type": "bytes"
        },
        {
          "internalType": "bytes",
          "name": "_cFragSignature",
          "type": "bytes"
        },
        {
          "internalType": "bytes",
          "name": "_taskSignature",
          "type": "bytes"
        },
        {
          "internalType": "bytes",
          "name": "_requesterPublicKey",
          "type": "bytes"
        },
        {
          "internalType": "bytes",
          "name": "_workerPublicKey",
          "type": "bytes"
        },
        {
          "internalType": "bytes",
          "name": "_workerIdentityEvidence",
          "type": "bytes"
        },
        {
          "internalType": "bytes",
          "name": "_preComputedData",
          "type": "bytes"
        }
      ],
      "name": "evaluateCFrag",
      "outputs": [],
      "stateMutability": "nonpayable",
      "type": "function"
    },
    {
      "inputs": [
        {
          "internalType": "bytes32",
          "name": "",
          "type": "bytes32"
        }
      ],
      "name": "evaluatedCFrags",
      "outputs": [
        {
          "internalType": "bool",
          "name": "",
          "type": "bool"
        }
      ],
      "stateMutability": "view",
      "type": "function"
    },
    {
      "inputs": [
        {
          "internalType": "address",
          "name": "_target",
          "type": "address"
        }
      ],
      "name": "finishUpgrade",
      "outputs": [],
      "stateMutability": "nonpayable",
      "type": "function"
    },
    {
      "inputs": [],
      "name": "hashAlgorithm",
      "outputs": [
        {
          "internalType": "enum SignatureVerifier.HashAlgorithm",
          "name": "",
          "type": "uint8"
        }
      ],
      "stateMutability": "view",
      "type": "function"
    },
    {
      "inputs": [],
      "name": "isOwner",
      "outputs": [
        {
          "internalType": "bool",
          "name": "",
          "type": "bool"
        }
      ],
      "stateMutability": "view",
      "type": "function"
    },
    {
      "inputs": [],
      "name": "isUpgrade",
      "outputs": [
        {
          "internalType": "uint8",
          "name": "",
          "type": "uint8"
        }
      ],
      "stateMutability": "view",
      "type": "function"
    },
    {
      "inputs": [],
      "name": "owner",
      "outputs": [
        {
          "internalType": "address",
          "name": "",
          "type": "address"
        }
      ],
      "stateMutability": "view",
      "type": "function"
    },
    {
      "inputs": [
        {
          "internalType": "address",
          "name": "",
          "type": "address"
        }
      ],
      "name": "penaltyHistory",
      "outputs": [
        {
          "internalType": "uint256",
          "name": "",
          "type": "uint256"
        }
      ],
      "stateMutability": "view",
      "type": "function"
    },
    {
      "inputs": [],
      "name": "penaltyHistoryCoefficient",
      "outputs": [
        {
          "internalType": "uint256",
          "name": "",
          "type": "uint256"
        }
      ],
      "stateMutability": "view",
      "type": "function"
    },
    {
      "inputs": [],
      "name": "percentagePenaltyCoefficient",
      "outputs": [
        {
          "internalType": "uint256",
          "name": "",
          "type": "uint256"
        }
      ],
      "stateMutability": "view",
      "type": "function"
    },
    {
      "inputs": [],
      "name": "previousTarget",
      "outputs": [
        {
          "internalType": "address",
          "name": "",
          "type": "address"
        }
      ],
      "stateMutability": "view",
      "type": "function"
    },
    {
      "inputs": [],
      "name": "renounceOwnership",
      "outputs": [],
      "stateMutability": "nonpayable",
      "type": "function"
    },
    {
      "inputs": [],
      "name": "rewardCoefficient",
      "outputs": [
        {
          "internalType": "uint256",
          "name": "",
          "type": "uint256"
        }
      ],
      "stateMutability": "view",
      "type": "function"
    },
    {
      "inputs": [
        {
          "internalType": "uint256",
          "name": "_valueToCheck",
          "type": "uint256"
        }
      ],
      "name": "setValueToCheck",
      "outputs": [],
      "stateMutability": "nonpayable",
      "type": "function"
    },
    {
      "inputs": [],
      "name": "target",
      "outputs": [
        {
          "internalType": "address",
          "name": "",
          "type": "address"
        }
      ],
      "stateMutability": "view",
      "type": "function"
    },
    {
      "inputs": [
        {
          "internalType": "address",
          "name": "newOwner",
          "type": "address"
        }
      ],
      "name": "transferOwnership",
      "outputs": [],
      "stateMutability": "nonpayable",
      "type": "function"
    },
    {
      "inputs": [],
      "name": "valueToCheck",
      "outputs": [
        {
          "internalType": "uint256",
          "name": "",
          "type": "uint256"
        }
      ],
      "stateMutability": "view",
      "type": "function"
    },
    {
      "inputs": [
        {
          "internalType": "address",
          "name": "_testTarget",
          "type": "address"
        }
      ],
      "name": "verifyState",
      "outputs": [],
      "stateMutability": "nonpayable",
      "type": "function"
    }
  ],
  "bytecode": "6101406040523480156200001257600080fd5b5060405162003c6f38038062003c6f833981810160405260c08110156200003857600080fd5b50805160208201516040808401516060850151608086015160a090960151600080546001600160a01b031916331780825594519697959693959294929391928892889288928892889288926001600160a01b0316917f8be0079c531659141344cd1fd0a4f28419497f9722a3daafe3b4186f6b6457e0908290a36000866001600160a01b031663407f80016040518163ffffffff1660e01b815260040160206040518083038186803b158015620000ee57600080fd5b505afa15801562000103573d6000803e3d6000fd5b505050506040513d60208110156200011a57600080fd5b505163ffffffff161180156200012f57508115155b80156200013b57508015155b6200014557600080fd5b6001600160601b0319606087901b166080528460028111156200016457fe5b60a08160028111156200017357fe5b60f81b90525060c0939093526101005260e05261012052505050505050505060805160601c60a05160f81c60c05160e0516101005161012051613a56620002196000398061137452806126a2525080611277528061266b52508061112a528061260752508061115d52806126345250806107e95280610a0f5280610b3e5280610dca5280611181525080610e485280610f33528061106c52806112aa5250613a566000f3fe608060405234801561001057600080fd5b506004361061012c5760003560e01c80638f32d59b116100ad578063e2fdcc1711610071578063e2fdcc17146106b7578063e38a303b146106bf578063e8dccd06146106dd578063f2fde38b14610703578063fc9daa07146107295761012c565b80638f32d59b14610671578063a3324be914610679578063b9626d2114610681578063bd02b140146106a7578063d4b83992146106af5761012c565b806359a15fa5116100f457806359a15fa5146105de5780635d5b68361461060a5780637053544314610630578063715018a6146106615780638da5cb5b146106695761012c565b80630bea809b1461013157806318cc313c1461057b5780631f96670b146105985780634b2cd118146105b25780635712e98c146105d6575b600080fd5b610579600480360361010081101561014857600080fd5b810190602081018135600160201b81111561016257600080fd5b82018360208201111561017457600080fd5b803590602001918460018302840111600160201b8311171561019557600080fd5b91908080601f0160208091040260200160405190810160405280939291908181526020018383808284376000920191909152509295949360208101935035915050600160201b8111156101e757600080fd5b8201836020820111156101f957600080fd5b803590602001918460018302840111600160201b8311171561021a57600080fd5b91908080601f0160208091040260200160405190810160405280939291908181526020018383808284376000920191909152509295949360208101935035915050600160201b81111561026c57600080fd5b82018360208201111561027e57600080fd5b803590602001918460018302840111600160201b8311171561029f57600080fd5b91908080601f0160208091040260200160405190810160405280939291908181526020018383808284376000920191909152509295949360208101935035915050600160201b8111156102f157600080fd5b82018360208201111561030357600080fd5b803590602001918460018302840111600160201b8311171561032457600080fd5b91908080601f0160208091040260200160405190810160405280939291908181526020018383808284376000920191909152509295949360208101935035915050600160201b81111561037657600080fd5b82018360208201111561038857600080fd5b803590602001918460018302840111600160201b831117156103a957600080fd5b91908080601f0160208091040260200160405190810160405280939291908181526020018383808284376000920191909152509295949360208101935035915050600160201b8111156103fb57600080fd5b82018360208201111561040d57600080fd5b803590602001918460018302840111600160201b8311171561042e57600080fd5b91908080601f0160208091040260200160405190810160405280939291908181526020018383808284376000920191909152509295949360208101935035915050600160201b81111561048057600080fd5b82018360208201111561049257600080fd5b803590602001918460018302840111600160201b831117156104b357600080fd5b91908080601f0160208091040260200160405190810160405280939291908181526020018383808284376000920191909152509295949360208101935035915050600160201b81111561050557600080fd5b82018360208201111561051757600080fd5b803590602001918460018302840111600160201b8311171561053857600080fd5b91908080601f016020809104026020016040519081016040528093929190818152602001838380828437600092019190915250929550610731945050505050565b005b6105796004803603602081101561059157600080fd5b5035611123565b6105a0611128565b60408051918252519081900360200190f35b6105ba61114c565b604080516001600160a01b039092168252519081900360200190f35b6105a061115b565b6105e661117f565b604051808260028111156105f657fe5b60ff16815260200191505060405180910390f35b6105a06004803603602081101561062057600080fd5b50356001600160a01b03166111a3565b61064d6004803603602081101561064657600080fd5b50356111b5565b604080519115158252519081900360200190f35b6105796111ca565b6105ba611225565b61064d611234565b6105a0611245565b6105796004803603602081101561069757600080fd5b50356001600160a01b031661124b565b6105a0611275565b6105ba611299565b6105ba6112a8565b6106c76112cc565b6040805160ff9092168252519081900360200190f35b610579600480360360208110156106f357600080fd5b50356001600160a01b03166112dc565b6105796004803603602081101561071957600080fd5b50356001600160a01b0316611358565b6105a0611372565b600061080d89896040516020018083805190602001908083835b6020831061076a5780518252601f19909201916020918201910161074b565b51815160209384036101000a600019018019909216911617905285519190930192850191508083835b602083106107b25780518252601f199092019160209182019101610793565b6001836020036101000a038019825116818451168082178552505050505050905001925050506040516020818303038152906040527f0000000000000000000000000000000000000000000000000000000000000000611396565b60008181526005602052604090205490915060ff161561085e5760405162461bcd60e51b81526004018080602001828103825260268152602001806136896026913960400191505060405180910390fd5b6000818152600560205260408120805460ff191660011790556108828a8a856114ee565b6040805182151581529051919250339184917f14c7c3aeaed5d9de50669529f936d80ff48af1f52beb8447437689cb298131a8919081900360200190a36108c885611f1b565b610919576040805162461bcd60e51b815260206004820152601e60248201527f5374616b65722773207075626c6963206b657920697320696e76616c69640000604482015290519081900360640190fd5b61092286611f1b565b61095d5760405162461bcd60e51b81526004018080602001828103825260218152602001806139506021913960400191505060405180910390fd5b610965613419565b61096e84611f7b565b9050610a338a8a836102c0015160016005811061098757fe5b1a60f81b6040516020018083805190602001908083835b602083106109bd5780518252601f19909201916020918201910161099e565b6001836020036101000a038019825116818451168082178552505050505050905001826001600160f81b0319166001600160f81b031916815260010192505050604051602081830303815290604052887f0000000000000000000000000000000000000000000000000000000000000000612159565b610a84576040805162461bcd60e51b815260206004820152601a60248201527f4346726167207369676e617475726520697320696e76616c6964000000000000604482015290519081900360640190fd5b610a8c6134dd565b610a958b6121a1565b9050610b6289826080015160c00151846102c00151600260058110610ab657fe5b1a60f81b6040516020018083805190602001908083835b60208310610aec5780518252601f199092019160209182019101610acd565b6001836020036101000a038019825116818451168082178552505050505050905001826001600160f81b0319166001600160f81b031916815260010192505050604051602081830303815290604052897f0000000000000000000000000000000000000000000000000000000000000000612159565b610bb3576040805162461bcd60e51b815260206004820152601960248201527f5461736b207369676e617475726520697320696e76616c696400000000000000604482015290519081900360640190fd5b60208701516102c083015160609060041a60f81b8260405160200180836001600160f81b0319166001600160f81b0319168152600101828152602001925050506040516020818303038152906040529050610dee8e828a876102a001516000801b6040516020018086805190602001908083835b60208310610c465780518252601f199092019160209182019101610c27565b51815160209384036101000a600019018019909216911617905288519190930192880191508083835b60208310610c8e5780518252601f199092019160209182019101610c6f565b51815160209384036101000a600019018019909216911617905287519190930192870191508083835b60208310610cd65780518252601f199092019160209182019101610cb7565b6001836020036101000a038019825116818451168082178552505050505050905001836001600160a01b03166001600160a01b031660601b8152601401828152602001955050505050506040516020818303038152906040528c866102c00151600360058110610d4257fe5b1a60f81b6040516020018083805190602001908083835b60208310610d785780518252601f199092019160209182019101610d59565b6001836020036101000a038019825116818451168082178552505050505050905001826001600160f81b0319166001600160f81b0319168152600101925050506040516020818303038152906040528c7f0000000000000000000000000000000000000000000000000000000000000000612159565b610e295760405162461bcd60e51b81526004018080602001828103825260228152602001806136676022913960400191505060405180910390fd5b6000610e42610e3c83604560f81b612229565b8a612529565b905060007f00000000000000000000000000000000000000000000000000000000000000006001600160a01b031663b2eeb36e836040518263ffffffff1660e01b815260040180826001600160a01b03166001600160a01b0316815260200191505060206040518083038186803b158015610ebc57600080fd5b505afa158015610ed0573d6000803e3d6000fd5b505050506040513d6020811015610ee657600080fd5b505190506001600160a01b038116610f2f5760405162461bcd60e51b815260040180806020018281038252602281526020018061380f6022913960400191505060405180910390fd5b60007f00000000000000000000000000000000000000000000000000000000000000006001600160a01b031663178b6de6836040518263ffffffff1660e01b815260040180826001600160a01b03166001600160a01b0316815260200191505060206040518083038186803b158015610fa757600080fd5b505afa158015610fbb573d6000803e3d6000fd5b505050506040513d6020811015610fd157600080fd5b505190508061101e576040805162461bcd60e51b81526020600482015260146024820152735374616b657220686173206e6f20746f6b656e7360601b604482015290519081900360640190fd5b876111105760008061103084846125e2565b60408051632673086360e21b81526001600160a01b038881166004830152602482018590523360448301526064820184905291519395509193507f000000000000000000000000000000000000000000000000000000000000000016916399cc218c9160848082019260009290919082900301818387803b1580156110b457600080fd5b505af11580156110c8573d6000803e3d6000fd5b50505050836001600160a01b0316856001600160a01b03168c7f860028d7f53afb628cae3582337c99be24159f7ee9d68a96babbc7f054a36caf60405160405180910390a450505b5050505050505050505050505050505050565b600655565b7f000000000000000000000000000000000000000000000000000000000000000081565b6002546001600160a01b031681565b7f000000000000000000000000000000000000000000000000000000000000000081565b7f000000000000000000000000000000000000000000000000000000000000000081565b60046020526000908152604090205481565b60056020526000908152604090205460ff1681565b6111d2611234565b6111db57600080fd5b600080546040516001600160a01b03909116907f8be0079c531659141344cd1fd0a4f28419497f9722a3daafe3b4186f6b6457e0908390a3600080546001600160a01b0319169055565b6000546001600160a01b031690565b6000546001600160a01b0316331490565b60065481565b6112548161271b565b6006546112688263a3324be960e01b6127de565b1461127257600080fd5b50565b7f000000000000000000000000000000000000000000000000000000000000000081565b6001546001600160a01b031681565b7f000000000000000000000000000000000000000000000000000000000000000081565b600254600160a01b900460ff1681565b6112e5816127f7565b60408051600060208083018290528351808403909101815291830190925261130e906001611396565b60009081526005602090815260408220805460ff19166001179055908052600490525050607b7f17ef568e3e12ab5b9c7254a8d58478811de00f9e6eb34345acd53bf8fd09d3ec55565b611360611234565b61136957600080fd5b61127281612851565b7f000000000000000000000000000000000000000000000000000000000000000081565b6000808260028111156113a557fe5b14156113b85750815160208301206114e8565b60018260028111156113c657fe5b141561145b576002836040518082805190602001908083835b602083106113fe5780518252601f1990920191602091820191016113df565b51815160209384036101000a60001901801990921691161790526040519190930194509192505080830381855afa15801561143d573d6000803e3d6000fd5b5050506040513d602081101561145257600080fd5b505190506114e8565b6003836040518082805190602001908083835b6020831061148d5780518252601f19909201916020918201910161146e565b51815160209384036101000a60001901801990921691161790526040519190930194509192505080830381855afa1580156114cc573d6000803e3d6000fd5b5050506040515160601b6bffffffffffffffffffffffff191690505b92915050565b60006114f8613523565b611501856128bf565b905061150b6134dd565b611514856121a1565b905061151e613419565b61152785611f7b565b905060006115d9826102800151846080015160a00151846102c0015160006005811061154f57fe5b1a60f81b6040516020018083805190602001908083835b602083106115855780518252601f199092019160209182019101611566565b6001836020036101000a038019825116818451168082178552505050505050905001826001600160f81b0319166001600160f81b031916815260010192505050604051602081830303815290604052612529565b9050816102a001516001600160a01b0316816001600160a01b03161461163c576040805162461bcd60e51b8152602060048201526013602482015272426164204b46726167207369676e617475726560681b604482015290519081900360640190fd5b60006116488585612916565b85518051602090910151855192935061166092612bb5565b61169b5760405162461bcd60e51b81526004018080602001828103825260468152602001806137836046913960600191505060405180910390fd5b6116ad83602001518460400151612bd2565b6116fe576040805162461bcd60e51b815260206004820181905260248201527f506f696e74207a45206973206e6f7420612076616c696420454320706f696e74604482015290519081900360640190fd5b611727856000015160200151846000015186608001516080015186602001518760400151612c37565b6117625760405162461bcd60e51b81526004018080602001828103825260228152602001806135fd6022913960400191505060405180910390fd5b83518051602090910151606085015161177c929190612bb5565b6117b75760405162461bcd60e51b81526004018080602001828103825260488152602001806138a06048913960600191505060405180910390fd5b6117c983608001518460a00151612bd2565b6118045760405162461bcd60e51b81526004018080602001828103825260228152602001806138e86022913960400191505060405180910390fd5b61182584600001516020015184606001518386608001518760a00151612c37565b6118605760405162461bcd60e51b81526004018080602001828103825260238152602001806139fe6023913960400191505060405180910390fd5b608084015151805160209091015160c085015161187e929190612bb5565b6118b95760405162461bcd60e51b81526004018080602001828103825260488152602001806139b66048913960600191505060405180910390fd5b600061192a604051806040016040528086602001518152602001866040015181525061192560405180604001604052808960800151600001516020015181526020018860c001518152506040518060400160405280896080015181526020018960a00151815250612cfd565b612e25565b9050806119405760009650505050505050611f14565b602080870151805191015160e086015161195b929190612bb5565b6119965760405162461bcd60e51b81526004018080602001828103825260468152602001806137c96046913960600191505060405180910390fd5b6119aa846101000151856101200151612bd2565b6119fb576040805162461bcd60e51b815260206004820181905260248201527f506f696e74207a56206973206e6f7420612076616c696420454320706f696e74604482015290519081900360640190fd5b611a268660200151602001518560e00151876080015160800151876101000151886101200151612c37565b611a615760405162461bcd60e51b81526004018080602001828103825260228152602001806136f76022913960400191505060405180910390fd5b6020808601518051910151610140860151611a7d929190612bb5565b611ab85760405162461bcd60e51b81526004018080602001828103825260488152602001806138316048913960600191505060405180910390fd5b611acc846101600151856101800151612bd2565b611b075760405162461bcd60e51b81526004018080602001828103825260228152602001806139716022913960400191505060405180910390fd5b611b2b85602001516020015185610140015184876101600151886101800151612c37565b611b665760405162461bcd60e51b81526004018080602001828103825260238152602001806139936023913960400191505060405180910390fd5b608085015160209081015180519101516101a0860151611b87929190612bb5565b611bc25760405162461bcd60e51b81526004018080602001828103825260488152602001806137196048913960600191505060405180910390fd5b611c31604051806040016040528086610100015181526020018661012001518152506119256040518060400160405280896080015160200151602001518152602001886101a0015181525060405180604001604052808961016001518152602001896101800151815250612cfd565b905080611c475760009650505050505050611f14565b611c5b846101c00151856101e00151612bd2565b611c965760405162461bcd60e51b815260040180806020018281038252602181526020018061392f6021913960400191505060405180910390fd5b611cf57f03c98795773ff1c241fc0b1cced85e80f8366581dda5c9452175ebd41385fa1f7f7880ed56962d7c0ae44d6f14bb53b5fe64b31ea44a41d0316f3a598778f0f936876080015160800151876101c00151886101e00151612c37565b611d305760405162461bcd60e51b81526004018080602001828103825260228152602001806137616022913960400191505060405180910390fd5b6080850151604001518051602090910151610200860151611d52929190612bb5565b611d8d5760405162461bcd60e51b81526004018080602001828103825260488152602001806136af6048913960600191505060405180910390fd5b611da1846102200151856102400151612bd2565b611ddc5760405162461bcd60e51b81526004018080602001828103825260228152602001806135db6022913960400191505060405180910390fd5b611e048560800151604001516020015185610200015184876102200151886102400151612c37565b611e3f5760405162461bcd60e51b81526004018080602001828103825260238152602001806139936023913960400191505060405180910390fd5b6080850151606001518051602090910151610260860151611e61929190612bb5565b611e9c5760405162461bcd60e51b815260040180806020018281038252604881526020018061361f6048913960600191505060405180910390fd5b611f0b6040518060400160405280866101c001518152602001866101e00151815250611925604051806040016040528089608001516060015160200151815260200188610260015181525060405180604001604052808961022001518152602001896102400151815250612cfd565b96505050505050505b9392505050565b60008151604014611f5d5760405162461bcd60e51b815260040180806020018281038252602581526020018061390a6025913960400191505060405180910390fd5b60208201516040830151611f718282612bd2565b925050505b919050565b611f83613419565b81516102b914611f9257600080fd5b6000611f9d83612e8d565b905080611fa981612e93565b8352602001611fb781612e93565b60208085019190915201611fca81612e93565b6040840152602001611fdb81612e93565b6060840152602001611fec81612e93565b6080840152602001611ffd81612e93565b60a084015260200161200e81612e93565b60c084015260200161201f81612e93565b60e084015260200161203081612e93565b61010084015260200161204281612e93565b61012084015260200161205481612e93565b61014084015260200161206681612e93565b61016084015260200161207881612e93565b61018084015260200161208a81612e93565b6101a084015260200161209c81612e93565b6101c08401526020016120ae81612e93565b6101e08401526020016120c081612e93565b6102008401526020016120d281612e93565b6102208401526020016120e481612e93565b6102408401526020016120f681612e93565b61026084015260200161210881612e93565b61028084015260200161211a81612e93565b60601c6102a084015260140161212f81612e93565b6001600160d81b0319166102c08401526005016102b98201811461215257600080fd5b5050919050565b6000825160401461216957600080fd5b61217c6121768684611396565b85612529565b6001600160a01b031661218e84612e97565b6001600160a01b03161495945050505050565b6121a96134dd565b81516101678110156121ba57600080fd5b60006121c584612e8d565b90506121d5818460000151612ea2565b90506121e5818460200151612ea2565b90506121f081612e93565b604084015260608301516020919091019061220c908290612ea2565b905061221c816082198401612ebd565b6080840152509092915050565b60006001600160f81b031982166122dc57604051601960f81b602080830182815260006021850181905230606081901b602287015288519095919386938a9390926036909101918401908083835b602083106122965780518252601f199092019160209182019101612277565b6001836020036101000a038019825116818451168082178552505050505050905001945050505050604051602081830303815290604052805190602001209150506114e8565b6001600160f81b03198216604560f81b14156124dc578251806123305760405162461bcd60e51b81526004018080602001828103825260278152602001806138796027913960400191505060405180910390fd5b60005b811561234757600101600a82049150612333565b60608167ffffffffffffffff8111801561236057600080fd5b506040519080825280601f01601f19166020018201604052801561238b576020820181803683370190505b5086519350905060001982015b83156123dd57600a840660300160f81b828280600190039350815181106123bb57fe5b60200101906001600160f81b031916908160001a905350600a84049350612398565b604051601960f81b60208083018281527f457468657265756d205369676e6564204d6573736167653a0a000000000000006021850181905286519394909387938d9392603a0191908501908083835b6020831061244b5780518252601f19909201916020918201910161242c565b51815160209384036101000a600019018019909216911617905285519190930192850191508083835b602083106124935780518252601f199092019160209182019101612474565b6001836020036101000a038019825116818451168082178552505050505050905001945050505050604051602081830303815290604052805190602001209450505050506114e8565b6040805162461bcd60e51b815260206004820152601a60248201527f556e737570706f72746564204549503139312076657273696f6e000000000000604482015290519081900360640190fd5b6000815160411461253957600080fd5b60208201516040830151606084015160001a601b81101561255857601b015b8060ff16601b148061256d57508060ff16601c145b61257657600080fd5b6040805160008152602080820180845289905260ff8416828401526060820186905260808201859052915160019260a0808401939192601f1981019281900390910190855afa1580156125cd573d6000803e3d6000fd5b5050604051601f190151979650505050505050565b6001600160a01b038216600090815260046020526040812054819061265f90612632907f00000000000000000000000000000000000000000000000000000000000000009063ffffffff612fc316565b7f00000000000000000000000000000000000000000000000000000000000000009063ffffffff612fea16565b915061269a82612695857f000000000000000000000000000000000000000000000000000000000000000063ffffffff612ffc16565b61301e565b91506126cc827f000000000000000000000000000000000000000000000000000000000000000063ffffffff612ffc16565b6001600160a01b0385166000908152600460205260409020549091506126f990600163ffffffff612fea16565b6001600160a01b03909416600090815260046020526040902093909355929050565b61272481613034565b60408051600060208083018290528351808403909101815291830190925261274d906001611396565b60008181526005602052604090205490915060ff1661276d576000612770565b60015b60ff1661278583637053544360e01b8461308e565b1461278f57600080fd5b600080805260046020527f17ef568e3e12ab5b9c7254a8d58478811de00f9e6eb34345acd53bf8fd09d3ec54906127d0908490632eadb41b60e11b9061308e565b146127da57600080fd5b5050565b6000806127ee84848380806130a9565b51949350505050565b60028054600160a01b900460ff161461280f57600080fd5b6040805133815290516001600160a01b038316917fd55ec27c5c6316913ed8803c18cfd1bfefea953db909dcba6140744a9d8b0d1f919081900360200190a250565b6001600160a01b03811661286457600080fd5b600080546040516001600160a01b03808516939216917f8be0079c531659141344cd1fd0a4f28419497f9722a3daafe3b4186f6b6457e091a3600080546001600160a01b0319166001600160a01b0392909216919091179055565b6128c7613523565b81516062146128d557600080fd5b60006128e083612e8d565b90506128f0818360000151612ea2565b9050612900818360200151612ea2565b905061290b81612e93565b604083015250919050565b81518051602091820151835180519084015160808601805151805190870151604080516001600160f81b031960f8998a1b8116828c0152602182019890985295881b871660418701526042860194909452951b909316606283015260638083019490945280518083039094018452608382019052838601518051908501518686015180519087015194518701518051908801518751600099899896979596949560a3019182918a01908083835b602083106129e25780518252601f1990920191602091820191016129c3565b51815160209384036101000a600019018019909216911617905260f89a8b1b6001600160f81b031990811692909401918252600182019990995296891b8216602188015250602286019490945250941b166042820152604380820193909352604080518083039094018452606382018152608088015190810151805190840151606083015180519086015160c0909401518751979950899850600160f91b977f03c98795773ff1c241fc0b1cced85e80f8366581dda5c9452175ebd41385fa1f97949693959294929391926083909201918291908b01908083835b60208310612adc5780518252601f199092019160209182019101612abd565b51815160209384036101000a60001901801990921691161790526001600160f81b03198c811692909401918252600182018b905260f88a811b85166021840152602283018a905288901b9093166042820152604381018690528451606390910192850191508083835b60208310612b645780518252601f199092019160209182019101612b45565b6001836020036101000a0380198251168184511680821785525050505050509050019850505050505050505060405160208183030381529060405290506000612bac826130f9565b95945050505050565b600060018216600119850160ff1614808015612bac5750612bac84845b60006401000003d0198084101580612bea5750808310155b15612bf95760009150506114e8565b60008180612c0357fe5b848509905060008280612c1257fe5b60078480612c1c57fe5b888680612c2557fe5b8a8b0909089190911495945050505050565b600070014551231950b75fc4402da1732fc9bebe1981600181601b898316018a858c8b09604080516000815260208082018084529690965260ff90941684820152606084019290925260808301525160a08083019392601f198301929081900390910190855afa158015612caf573d6000803e3d6000fd5b505060408051601f1981015160208281018a90528284018990528351808403850181526060909301909352815191909201206001600160a01b03918216911614935050505095945050505050565b612d05613550565b82516020808501518451918501516401000003d0199392908184148015612d2b57508083145b15612d6057612d54604051806060016040528086815260200185815260200160018152506132dd565b955050505050506114e8565b60008580612d6a57fe5b8487038308905060008680612d7b57fe5b8688038508905060008780612d8c57fe5b828309905060008880612d9b57fe5b838309905060008980612daa57fe5b838a0990508980612db757fe5b8a80612dbf57fe5b838c80612dc857fe5b84600209088b038b80612dd757fe5b878809088b528980612de557fe5b8a80612ded57fe5b838a098b038b80612dfa57fe5b8c80612e0257fe5b8e518e03850888090860208c015250505060408801525094979650505050505050565b604081015160009080612e3c5760009150506114e8565b6401000003d01960008183840985519091508280612e5657fe5b8751839009148015612e83575060208501518280612e7057fe5b8380612e7857fe5b858409602089015109145b9695505050505050565b60200190565b5190565b805160209091012090565b8151600183015160009190911a825260209091015260210190565b612ec561356e565b60e4821015612ed357600080fd5b612ee1838260000151612ea2565b9250612ef1838260200151612ea2565b9250612f01838260400151612ea2565b9250612f11838260600151612ea2565b9250612f1c83612e93565b608082015260408051818152606081018252602094909401939060208201818036833750505060a08201819052612f5690849060406133d2565b925060e48211156114e85760e319820167ffffffffffffffff81118015612f7c57600080fd5b506040519080825280601f01601f191660200182016040528015612fa7576020820181803683370190505b5060c082018190528051612fbc9185916133d2565b5092915050565b600082612fd2575060006114e8565b82820282848281612fdf57fe5b0414611f1457600080fd5b600082820183811015611f1457600080fd5b600080821161300a57600080fd5b600082848161301557fe5b04949350505050565b600081831061302d5781611f14565b5090919050565b60028054600160a01b900460ff161461304c57600080fd5b6040805133815290516001600160a01b038316917f1e8d98c1b4a0d9bd2e2371026b632eb2773fcce41742e41f02f574ab69868d4c919081900360200190a250565b60008061309f8585600186856130a9565b5195945050505050565b60405184815283156130bc578260048201525b60018411156130cc578160248201525b6000808560200260040183895af480156130ea573d6000833e6130ef565b600082fd5b5095945050505050565b600080600060606e3430b9b42fba37afb1bab93b32b13760891b6000801b866040516020018084815260200183815260200182805190602001908083835b602083106131565780518252601f199092019160209182019101613137565b6001836020036101000a03801982511681845116808217855250505050505090500193505050506040516020818303038152906040529050600081604051602001808360ff1660ff1660f81b815260010182805190602001908083835b602083106131d25780518252601f1990920191602091820191016131b3565b6001836020036101000a0380198251168184511680821785525050505050509050019250505060405160208183030381529060405280519060200120600182604051602001808360ff1660ff1660f81b815260010182805190602001908083835b602083106132525780518252601f199092019160209182019101613233565b51815160209384036101000a60001901801990921691161790526040805192909401828103601f19018352909352805192019190912094975093955070014551231950b75fc4402da1732fc9bec0935070014551231950b75fc4402da1732fc9bebf19925060009150829050838709905081806132cb57fe5b85820860010198975050505050505050565b6132e5613550565b6040820151806132f55750611f76565b82516401000003d01990600082602087015160020990506000838061331657fe5b82830990506000848061332557fe5b84830990506000858061333457fe5b868061333c57fe5b86870960030990506000868061334e57fe5b878061335657fe5b846401000003d21909888061336757fe5b84850908808a529050868061337857fe5b878061338057fe5b888061338857fe5b86870963800001e9600160ff1b0309888061339f57fe5b89806133a757fe5b848b03870885090860208a015286806133bc57fe5b88860960408a0152509698975050505050505050565b60006020601f830104846020850160005b838110156133ff576020810283810151908301526001016133e3565b505050506000835160200184015281840190509392505050565b604051806102e0016040528060008152602001600081526020016000815260200160008152602001600081526020016000815260200160008152602001600081526020016000815260200160008152602001600081526020016000815260200160008152602001600081526020016000815260200160008152602001600081526020016000815260200160008152602001600081526020016000801916815260200160006001600160a01b0316815260200160006001600160d81b03191681525090565b6040518060a001604052806134f06135c3565b81526020016134fd6135c3565b8152600060208201526040016135116135c3565b815260200161351e61356e565b905290565b60405180606001604052806135366135c3565b81526020016135436135c3565b8152602001600081525090565b60405180606001604052806003906020820280368337509192915050565b6040518060e001604052806135816135c3565b815260200161358e6135c3565b815260200161359b6135c3565b81526020016135a86135c3565b81526020016000815260200160608152602001606081525090565b60408051808201909152600080825260208201529056fe506f696e7420682a5531206973206e6f7420612076616c696420454320706f696e74507265636f6d7075746564207a2a452076616c756520697320696e636f7272656374507265636f6d7075746564205920636f6f7264696e617465206f6620553220646f65736e277420636f72726573706f6e6420746f20636f6d7072657373656420553220706f696e7453706563696669636174696f6e207369676e617475726520697320696e76616c6964546869732043467261672068617320616c7265616479206265656e206576616c75617465642e507265636f6d7075746564205920636f6f7264696e617465206f6620553120646f65736e277420636f72726573706f6e6420746f20636f6d7072657373656420553120706f696e74507265636f6d7075746564207a2a562076616c756520697320696e636f7272656374507265636f6d7075746564205920636f6f7264696e617465206f6620563220646f65736e277420636f72726573706f6e6420746f20636f6d7072657373656420563220706f696e74507265636f6d7075746564207a2a552076616c756520697320696e636f7272656374507265636f6d7075746564205920636f6f7264696e617465206f66204520646f65736e277420636f72726573706f6e6420746f20636f6d70726573736564204520706f696e74507265636f6d7075746564205920636f6f7264696e617465206f66205620646f65736e277420636f72726573706f6e6420746f20636f6d70726573736564205620706f696e74576f726b6572206d7573742062652072656c6174656420746f2061207374616b6572507265636f6d7075746564205920636f6f7264696e617465206f6620563120646f65736e277420636f72726573706f6e6420746f20636f6d7072657373656420563120706f696e74456d707479206d657373616765206e6f7420616c6c6f77656420666f722076657273696f6e2045507265636f6d7075746564205920636f6f7264696e617465206f6620453120646f65736e277420636f72726573706f6e6420746f20636f6d7072657373656420453120706f696e74506f696e7420682a4531206973206e6f7420612076616c696420454320706f696e7453657269616c697a656420636f6f7264696e617465732073686f756c642062652036342042506f696e74207a2a55206973206e6f7420612076616c696420454320706f696e745265717565737465722773207075626c6963206b657920697320696e76616c6964506f696e7420682a5631206973206e6f7420612076616c696420454320706f696e74507265636f6d707574656420682a56312076616c756520697320696e636f7272656374507265636f6d7075746564205920636f6f7264696e617465206f6620453220646f65736e277420636f72726573706f6e6420746f20636f6d7072657373656420453220706f696e74507265636f6d707574656420682a45312076616c756520697320696e636f7272656374a2646970667358221220069efce3f9202d8d195a7bc05df811f989f0d6cf2ddb3049821de9beda4fbe0e64736f6c63430006070033",
  "bytecodeSha1": "0bbcba6add1a79f8ccb17597cae3b36266d9a4aa",
  "compiler": {
    "evm_version": "berlin",
    "optimizer": {
      "enabled": true,
      "runs": 200
    },
    "version": "0.6.7"
  },
  "contractName": "AdjudicatorV2Mock",
  "language": "Solidity",
  "natspec": {
    "methods": {
      "evaluateCFrag(bytes,bytes,bytes,bytes,bytes,bytes,bytes,bytes)": {
        "notice": "Submit proof that a worker created wrong CFrag",
        "params": {
          "_cFragBytes": "Serialized CFrag",
          "_cFragSignature": "Signature of CFrag by worker",
          "_capsuleBytes": "Serialized capsule",
          "_preComputedData": "Additional pre-computed data for CFrag correctness verification",
          "_requesterPublicKey": "Bob's signing public key, also known as \"stamp\"",
          "_taskSignature": "Signature of task specification by Bob",
          "_workerIdentityEvidence": "Signature of worker's public key by worker's eth-key",
          "_workerPublicKey": "Worker's signing public key, also known as \"stamp\""
        }
      },
      "finishUpgrade(address)": {
        "details": "the `onlyWhileUpgrading` modifier works through a call to the parent `finishUpgrade`"
      },
      "renounceOwnership()": {
        "details": "Allows the current owner to relinquish control of the contract.",
        "notice": "Renouncing to ownership will leave the contract without an owner. It will not be possible to call the functions with the `onlyOwner` modifier anymore."
      },
      "transferOwnership(address)": {
        "details": "Allows the current owner to transfer control of the contract to a newOwner.",
        "params": {
          "newOwner": "The address to transfer ownership to."
        }
      }
    },
    "notice": "Contract for testing upgrading the Adjudicator contract"
  },
  "opcodes": "PUSH1 0x80 PUSH1 0x40 MSTORE CALLVALUE DUP1 ISZERO PUSH2 0x10 JUMPI PUSH1 0x0 DUP1 REVERT JUMPDEST POP PUSH1 0x4 CALLDATASIZE LT PUSH2 0x12C JUMPI PUSH1 0x0 CALLDATALOAD PUSH1 0xE0 SHR DUP1 PUSH4 0x8F32D59B GT PUSH2 0xAD JUMPI DUP1 PUSH4 0xE2FDCC17 GT PUSH2 0x71 JUMPI DUP1 PUSH4 0xE2FDCC17 EQ PUSH2 0x6B7 JUMPI DUP1 PUSH4 0xE38A303B EQ PUSH2 0x6BF JUMPI DUP1 PUSH4 0xE8DCCD06 EQ PUSH2 0x6DD JUMPI DUP1 PUSH4 0xF2FDE38B EQ PUSH2 0x703 JUMPI DUP1 PUSH4 0xFC9DAA07 EQ PUSH2 0x729 JUMPI PUSH2 0x12C JUMP JUMPDEST DUP1 PUSH4 0x8F32D59B EQ PUSH2 0x671 JUMPI DUP1 PUSH4 0xA3324BE9 EQ PUSH2 0x679 JUMPI DUP1 PUSH4 0xB9626D21 EQ PUSH2 0x681 JUMPI DUP1 PUSH4 0xBD02B140 EQ PUSH2 0x6A7 JUMPI DUP1 PUSH4 0xD4B83992 EQ PUSH2 0x6AF JUMPI PUSH2 0x12C JUMP JUMPDEST DUP1 PUSH4 0x59A15FA5 GT PUSH2 0xF4 JUMPI DUP1 PUSH4 0x59A15FA5 EQ PUSH2 0x5DE JUMPI DUP1 PUSH4 0x5D5B6836 EQ PUSH2 0x60A JUMPI DUP1 PUSH4 0x70535443 EQ PUSH2 0x630 JUMPI DUP1 PUSH4 0x715018A6 EQ PUSH2 0x661 JUMPI DUP1 PUSH4 0x8DA5CB5B EQ PUSH2 0x669 JUMPI PUSH2 0x12C JUMP JUMPDEST DUP1 PUSH4 0xBEA809B EQ PUSH2 0x131 JUMPI DUP1 PUSH4 0x18CC313C EQ PUSH2 0x57B JUMPI DUP1 PUSH4 0x1F96670B EQ PUSH2 0x598 JUMPI DUP1 PUSH4 0x4B2CD118 EQ PUSH2 0x5B2 JUMPI DUP1 PUSH4 0x5712E98C EQ PUSH2 0x5D6 JUMPI JUMPDEST PUSH1 0x0 DUP1 REVERT JUMPDEST PUSH2 0x579 PUSH1 0x4 DUP1 CALLDATASIZE SUB PUSH2 0x100 DUP2 LT ISZERO PUSH2 0x148 JUMPI PUSH1 0x0 DUP1 REVERT JUMPDEST DUP2 ADD SWAP1 PUSH1 0x20 DUP2 ADD DUP2 CALLDATALOAD PUSH1 0x1 PUSH1 0x20 SHL DUP2 GT ISZERO PUSH2 0x162 JUMPI PUSH1 0x0 DUP1 REVERT JUMPDEST DUP3 ADD DUP4 PUSH1 0x20 DUP3 ADD GT ISZERO PUSH2 0x174 JUMPI PUSH1 0x0 DUP1 REVERT JUMPDEST DUP1 CALLDATALOAD SWAP1 PUSH1 0x20 ADD SWAP2 DUP5 PUSH1 0x1 DUP4 MUL DUP5 ADD GT PUSH1 0x1 PUSH1 0x20 SHL DUP4 GT OR ISZERO PUSH2 0x195 JUMPI PUSH1 0x0 DUP1 REVERT JUMPDEST SWAP2 SWAP1 DUP1 DUP1 PUSH1 0x1F ADD PUSH1 0x20 DUP1 SWAP2 DIV MUL PUSH1 0x20 ADD PUSH1 0x40 MLOAD SWAP1 DUP2 ADD PUSH1 0x40 MSTORE DUP1 SWAP4 SWAP3 SWAP2 SWAP1 DUP2 DUP2 MSTORE PUSH1 0x20 ADD DUP4 DUP4 DUP1 DUP3 DUP5 CALLDATACOPY PUSH1 0x0 SWAP3 ADD SWAP2 SWAP1 SWAP2 MSTORE POP SWAP3 SWAP6 SWAP5 SWAP4 PUSH1 0x20 DUP2 ADD SWAP4 POP CALLDATALOAD SWAP2 POP POP PUSH1 0x1 PUSH1 0x20 SHL DUP2 GT ISZERO PUSH2 0x1E7 JUMPI PUSH1 0x0 DUP1 REVERT JUMPDEST DUP3 ADD DUP4 PUSH1 0x20 DUP3 ADD GT ISZERO PUSH2 0x1F9 JUMPI PUSH1 0x0 DUP1 REVERT JUMPDEST DUP1 CALLDATALOAD SWAP1 PUSH1 0x20 ADD SWAP2 DUP5 PUSH1 0x1 DUP4 MUL DUP5 ADD GT PUSH1 0x1 PUSH1 0x20 SHL DUP4 GT OR ISZERO PUSH2 0x21A JUMPI PUSH1 0x0 DUP1 REVERT JUMPDEST SWAP2 SWAP1 DUP1 DUP1 PUSH1 0x1F ADD PUSH1 0x20 DUP1 SWAP2 DIV MUL PUSH1 0x20 ADD PUSH1 0x40 MLOAD SWAP1 DUP2 ADD PUSH1 0x40 MSTORE DUP1 SWAP4 SWAP3 SWAP2 SWAP1 DUP2 DUP2 MSTORE PUSH1 0x20 ADD DUP4 DUP4 DUP1 DUP3 DUP5 CALLDATACOPY PUSH1 0x0 SWAP3 ADD SWAP2 SWAP1 SWAP2 MSTORE POP SWAP3 SWAP6 SWAP5 SWAP4 PUSH1 0x20 DUP2 ADD SWAP4 POP CALLDATALOAD SWAP2 POP POP PUSH1 0x1 PUSH1 0x20 SHL DUP2 GT ISZERO PUSH2 0x26C JUMPI PUSH1 0x0 DUP1 REVERT JUMPDEST DUP3 ADD DUP4 PUSH1 0x20 DUP3 ADD GT ISZERO PUSH2 0x27E JUMPI PUSH1 0x0 DUP1 REVERT JUMPDEST DUP1 CALLDATALOAD SWAP1 PUSH1 0x20 ADD SWAP2 DUP5 PUSH1 0x1 DUP4 MUL DUP5 ADD GT PUSH1 0x1 PUSH1 0x20 SHL DUP4 GT OR ISZERO PUSH2 0x29F JUMPI PUSH1 0x0 DUP1 REVERT JUMPDEST SWAP2 SWAP1 DUP1 DUP1 PUSH1 0x1F ADD PUSH1 0x20 DUP1 SWAP2 DIV MUL PUSH1 0x20 ADD PUSH1 0x40 MLOAD SWAP1 DUP2 ADD PUSH1 0x40 MSTORE DUP1 SWAP4 SWAP3 SWAP2 SWAP1 DUP2 DUP2 MSTORE PUSH1 0x20 ADD DUP4 DUP4 DUP1 DUP3 DUP5 CALLDATACOPY PUSH1 0x0 SWAP3 ADD SWAP2 SWAP1 SWAP2 MSTORE POP SWAP3 SWAP6 SWAP5 SWAP4 PUSH1 0x20 DUP2 ADD SWAP4 POP CALLDATALOAD SWAP2 POP POP PUSH1 0x1 PUSH1 0x20 SHL DUP2 GT ISZERO PUSH2 0x2F1 JUMPI PUSH1 0x0 DUP1 REVERT JUMPDEST DUP3 ADD DUP4 PUSH1 0x20 DUP3 ADD GT ISZERO PUSH2 0x303 JUMPI PUSH1 0x0 DUP1 REVERT JUMPDEST DUP1 CALLDATALOAD SWAP1 PUSH1 0x20 ADD SWAP2 DUP5 PUSH1 0x1 DUP4 MUL DUP5 ADD GT PUSH1 0x1 PUSH1 0x20 SHL DUP4 GT OR ISZERO PUSH2 0x324 JUMPI PUSH1 0x0 DUP1 REVERT JUMPDEST SWAP2 SWAP1 DUP1 DUP1 PUSH1 0x1F ADD PUSH1 0x20 DUP1 SWAP2 DIV MUL PUSH1 0x20 ADD PUSH1 0x40 MLOAD SWAP1 DUP2 ADD PUSH1 0x40 MSTORE DUP1 SWAP4 SWAP3 SWAP2 SWAP1 DUP2 DUP2 MSTORE PUSH1 0x20 ADD DUP4 DUP4 DUP1 DUP3 DUP5 CALLDATACOPY PUSH1 0x0 SWAP3 ADD SWAP2 SWAP1 SWAP2 MSTORE POP SWAP3 SWAP6 SWAP5 SWAP4 PUSH1 0x20 DUP2 ADD SWAP4 POP CALLDATALOAD SWAP2 POP POP PUSH1 0x1 PUSH1 0x20 SHL DUP2 GT ISZERO PUSH2 0x376 JUMPI PUSH1 0x0 DUP1 REVERT JUMPDEST DUP3 ADD DUP4 PUSH1 0x20 DUP3 ADD GT ISZERO PUSH2 0x388 JUMPI PUSH1 0x0 DUP1 REVERT JUMPDEST DUP1 CALLDATALOAD SWAP1 PUSH1 0x20 ADD SWAP2 DUP5 PUSH1 0x1 DUP4 MUL DUP5 ADD GT PUSH1 0x1 PUSH1 0x20 SHL DUP4 GT OR ISZERO PUSH2 0x3A9 JUMPI PUSH1 0x0 DUP1 REVERT JUMPDEST SWAP2 SWAP1 DUP1 DUP1 PUSH1 0x1F ADD PUSH1 0x20 DUP1 SWAP2 DIV MUL PUSH1 0x20 ADD PUSH1 0x40 MLOAD SWAP1 DUP2 ADD PUSH1 0x40 MSTORE DUP1 SWAP4 SWAP3 SWAP2 SWAP1 DUP2 DUP2 MSTORE PUSH1 0x20 ADD DUP4 DUP4 DUP1 DUP3 DUP5 CALLDATACOPY PUSH1 0x0 SWAP3 ADD SWAP2 SWAP1 SWAP2 MSTORE POP SWAP3 SWAP6 SWAP5 SWAP4 PUSH1 0x20 DUP2 ADD SWAP4 POP CALLDATALOAD SWAP2 POP POP PUSH1 0x1 PUSH1 0x20 SHL DUP2 GT ISZERO PUSH2 0x3FB JUMPI PUSH1 0x0 DUP1 REVERT JUMPDEST DUP3 ADD DUP4 PUSH1 0x20 DUP3 ADD GT ISZERO PUSH2 0x40D JUMPI PUSH1 0x0 DUP1 REVERT JUMPDEST DUP1 CALLDATALOAD SWAP1 PUSH1 0x20 ADD SWAP2 DUP5 PUSH1 0x1 DUP4 MUL DUP5 ADD GT PUSH1 0x1 PUSH1 0x20 SHL DUP4 GT OR ISZERO PUSH2 0x42E JUMPI PUSH1 0x0 DUP1 REVERT JUMPDEST SWAP2 SWAP1 DUP1 DUP1 PUSH1 0x1F ADD PUSH1 0x20 DUP1 SWAP2 DIV MUL PUSH1 0x20 ADD PUSH1 0x40 MLOAD SWAP1 DUP2 ADD PUSH1 0x40 MSTORE DUP1 SWAP4 SWAP3 SWAP2 SWAP1 DUP2 DUP2 MSTORE PUSH1 0x20 ADD DUP4 DUP4 DUP1 DUP3 DUP5 CALLDATACOPY PUSH1 0x0 SWAP3 ADD SWAP2 SWAP1 SWAP2 MSTORE POP SWAP3 SWAP6 SWAP5 SWAP4 PUSH1 0x20 DUP2 ADD SWAP4 POP CALLDATALOAD SWAP2 POP POP PUSH1 0x1 PUSH1 0x20 SHL DUP2 GT ISZERO PUSH2 0x480 JUMPI PUSH1 0x0 DUP1 REVERT JUMPDEST DUP3 ADD DUP4 PUSH1 0x20 DUP3 ADD GT ISZERO PUSH2 0x492 JUMPI PUSH1 0x0 DUP1 REVERT JUMPDEST DUP1 CALLDATALOAD SWAP1 PUSH1 0x20 ADD SWAP2 DUP5 PUSH1 0x1 DUP4 MUL DUP5 ADD GT PUSH1 0x1 PUSH1 0x20 SHL DUP4 GT OR ISZERO PUSH2 0x4B3 JUMPI PUSH1 0x0 DUP1 REVERT JUMPDEST SWAP2 SWAP1 DUP1 DUP1 PUSH1 0x1F ADD PUSH1 0x20 DUP1 SWAP2 DIV MUL PUSH1 0x20 ADD PUSH1 0x40 MLOAD SWAP1 DUP2 ADD PUSH1 0x40 MSTORE DUP1 SWAP4 SWAP3 SWAP2 SWAP1 DUP2 DUP2 MSTORE PUSH1 0x20 ADD DUP4 DUP4 DUP1 DUP3 DUP5 CALLDATACOPY PUSH1 0x0 SWAP3 ADD SWAP2 SWAP1 SWAP2 MSTORE POP SWAP3 SWAP6 SWAP5 SWAP4 PUSH1 0x20 DUP2 ADD SWAP4 POP CALLDATALOAD SWAP2 POP POP PUSH1 0x1 PUSH1 0x20 SHL DUP2 GT ISZERO PUSH2 0x505 JUMPI PUSH1 0x0 DUP1 REVERT JUMPDEST DUP3 ADD DUP4 PUSH1 0x20 DUP3 ADD GT ISZERO PUSH2 0x517 JUMPI PUSH1 0x0 DUP1 REVERT JUMPDEST DUP1 CALLDATALOAD SWAP1 PUSH1 0x20 ADD SWAP2 DUP5 PUSH1 0x1 DUP4 MUL DUP5 ADD GT PUSH1 0x1 PUSH1 0x20 SHL DUP4 GT OR ISZERO PUSH2 0x538 JUMPI PUSH1 0x0 DUP1 REVERT JUMPDEST SWAP2 SWAP1 DUP1 DUP1 PUSH1 0x1F ADD PUSH1 0x20 DUP1 SWAP2 DIV MUL PUSH1 0x20 ADD PUSH1 0x40 MLOAD SWAP1 DUP2 ADD PUSH1 0x40 MSTORE DUP1 SWAP4 SWAP3 SWAP2 SWAP1 DUP2 DUP2 MSTORE PUSH1 0x20 ADD DUP4 DUP4 DUP1 DUP3 DUP5 CALLDATACOPY PUSH1 0x0 SWAP3 ADD SWAP2 SWAP1 SWAP2 MSTORE POP SWAP3 SWAP6 POP PUSH2 0x731 SWAP5 POP POP POP POP POP JUMP JUMPDEST STOP JUMPDEST PUSH2 0x579 PUSH1 0x4 DUP1 CALLDATASIZE SUB PUSH1 0x20 DUP2 LT ISZERO PUSH2 0x591 JUMPI PUSH1 0x0 DUP1 REVERT JUMPDEST POP CALLDATALOAD PUSH2 0x1123 JUMP JUMPDEST PUSH2 0x5A0 PUSH2 0x1128 JUMP JUMPDEST PUSH1 0x40 DUP1 MLOAD SWAP2 DUP3 MSTORE MLOAD SWAP1 DUP2 SWAP1 SUB PUSH1 0x20 ADD SWAP1 RETURN JUMPDEST PUSH2 0x5BA PUSH2 0x114C JUMP JUMPDEST PUSH1 0x40 DUP1 MLOAD PUSH1 0x1 PUSH1 0x1 PUSH1 0xA0 SHL SUB SWAP1 SWAP3 AND DUP3 MSTORE MLOAD SWAP1 DUP2 SWAP1 SUB PUSH1 0x20 ADD SWAP1 RETURN JUMPDEST PUSH2 0x5A0 PUSH2 0x115B JUMP JUMPDEST PUSH2 0x5E6 PUSH2 0x117F JUMP JUMPDEST PUSH1 0x40 MLOAD DUP1 DUP3 PUSH1 0x2 DUP2 GT ISZERO PUSH2 0x5F6 JUMPI INVALID JUMPDEST PUSH1 0xFF AND DUP2 MSTORE PUSH1 0x20 ADD SWAP2 POP POP PUSH1 0x40 MLOAD DUP1 SWAP2 SUB SWAP1 RETURN JUMPDEST PUSH2 0x5A0 PUSH1 0x4 DUP1 CALLDATASIZE SUB PUSH1 0x20 DUP2 LT ISZERO PUSH2 0x620 JUMPI PUSH1 0x0 DUP1 REVERT JUMPDEST POP CALLDATALOAD PUSH1 0x1 PUSH1 0x1 PUSH1 0xA0 SHL SUB AND PUSH2 0x11A3 JUMP JUMPDEST PUSH2 0x64D PUSH1 0x4 DUP1 CALLDATASIZE SUB PUSH1 0x20 DUP2 LT ISZERO PUSH2 0x646 JUMPI PUSH1 0x0 DUP1 REVERT JUMPDEST POP CALLDATALOAD PUSH2 0x11B5 JUMP JUMPDEST PUSH1 0x40 DUP1 MLOAD SWAP2 ISZERO ISZERO DUP3 MSTORE MLOAD SWAP1 DUP2 SWAP1 SUB PUSH1 0x20 ADD SWAP1 RETURN JUMPDEST PUSH2 0x579 PUSH2 0x11CA JUMP JUMPDEST PUSH2 0x5BA PUSH2 0x1225 JUMP JUMPDEST PUSH2 0x64D PUSH2 0x1234 JUMP JUMPDEST PUSH2 0x5A0 PUSH2 0x1245 JUMP JUMPDEST PUSH2 0x579 PUSH1 0x4 DUP1 CALLDATASIZE SUB PUSH1 0x20 DUP2 LT ISZERO PUSH2 0x697 JUMPI PUSH1 0x0 DUP1 REVERT JUMPDEST POP CALLDATALOAD PUSH1 0x1 PUSH1 0x1 PUSH1 0xA0 SHL SUB AND PUSH2 0x124B JUMP JUMPDEST PUSH2 0x5A0 PUSH2 0x1275 JUMP JUMPDEST PUSH2 0x5BA PUSH2 0x1299 JUMP JUMPDEST PUSH2 0x5BA PUSH2 0x12A8 JUMP JUMPDEST PUSH2 0x6C7 PUSH2 0x12CC JUMP JUMPDEST PUSH1 0x40 DUP1 MLOAD PUSH1 0xFF SWAP1 SWAP3 AND DUP3 MSTORE MLOAD SWAP1 DUP2 SWAP1 SUB PUSH1 0x20 ADD SWAP1 RETURN JUMPDEST PUSH2 0x579 PUSH1 0x4 DUP1 CALLDATASIZE SUB PUSH1 0x20 DUP2 LT ISZERO PUSH2 0x6F3 JUMPI PUSH1 0x0 DUP1 REVERT JUMPDEST POP CALLDATALOAD PUSH1 0x1 PUSH1 0x1 PUSH1 0xA0 SHL SUB AND PUSH2 0x12DC JUMP JUMPDEST PUSH2 0x579 PUSH1 0x4 DUP1 CALLDATASIZE SUB PUSH1 0x20 DUP2 LT ISZERO PUSH2 0x719 JUMPI PUSH1 0x0 DUP1 REVERT JUMPDEST POP CALLDATALOAD PUSH1 0x1 PUSH1 0x1 PUSH1 0xA0 SHL SUB AND PUSH2 0x1358 JUMP JUMPDEST PUSH2 0x5A0 PUSH2 0x1372 JUMP JUMPDEST PUSH1 0x0 PUSH2 0x80D DUP10 DUP10 PUSH1 0x40 MLOAD PUSH1 0x20 ADD DUP1 DUP4 DUP1 MLOAD SWAP1 PUSH1 0x20 ADD SWAP1 DUP1 DUP4 DUP4 JUMPDEST PUSH1 0x20 DUP4 LT PUSH2 0x76A JUMPI DUP1 MLOAD DUP3 MSTORE PUSH1 0x1F NOT SWAP1 SWAP3 ADD SWAP2 PUSH1 0x20 SWAP2 DUP3 ADD SWAP2 ADD PUSH2 0x74B JUMP JUMPDEST MLOAD DUP2 MLOAD PUSH1 0x20 SWAP4 DUP5 SUB PUSH2 0x100 EXP PUSH1 0x0 NOT ADD DUP1 NOT SWAP1 SWAP3 AND SWAP2 AND OR SWAP1 MSTORE DUP6 MLOAD SWAP2 SWAP1 SWAP4 ADD SWAP3 DUP6 ADD SWAP2 POP DUP1 DUP4 DUP4 JUMPDEST PUSH1 0x20 DUP4 LT PUSH2 0x7B2 JUMPI DUP1 MLOAD DUP3 MSTORE PUSH1 0x1F NOT SWAP1 SWAP3 ADD SWAP2 PUSH1 0x20 SWAP2 DUP3 ADD SWAP2 ADD PUSH2 0x793 JUMP JUMPDEST PUSH1 0x1 DUP4 PUSH1 0x20 SUB PUSH2 0x100 EXP SUB DUP1 NOT DUP3 MLOAD AND DUP2 DUP5 MLOAD AND DUP1 DUP3 OR DUP6 MSTORE POP POP POP POP POP POP SWAP1 POP ADD SWAP3 POP POP POP PUSH1 0x40 MLOAD PUSH1 0x20 DUP2 DUP4 SUB SUB DUP2 MSTORE SWAP1 PUSH1 0x40 MSTORE PUSH32 0x0 PUSH2 0x1396 JUMP JUMPDEST PUSH1 0x0 DUP2 DUP2 MSTORE PUSH1 0x5 PUSH1 0x20 MSTORE PUSH1 0x40 SWAP1 KECCAK256 SLOAD SWAP1 SWAP2 POP PUSH1 0xFF AND ISZERO PUSH2 0x85E JUMPI PUSH1 0x40 MLOAD PUSH3 0x461BCD PUSH1 0xE5 SHL DUP2 MSTORE PUSH1 0x4 ADD DUP1 DUP1 PUSH1 0x20 ADD DUP3 DUP2 SUB DUP3 MSTORE PUSH1 0x26 DUP2 MSTORE PUSH1 0x20 ADD DUP1 PUSH2 0x3689 PUSH1 0x26 SWAP2 CODECOPY PUSH1 0x40 ADD SWAP2 POP POP PUSH1 0x40 MLOAD DUP1 SWAP2 SUB SWAP1 REVERT JUMPDEST PUSH1 0x0 DUP2 DUP2 MSTORE PUSH1 0x5 PUSH1 0x20 MSTORE PUSH1 0x40 DUP2 KECCAK256 DUP1 SLOAD PUSH1 0xFF NOT AND PUSH1 0x1 OR SWAP1 SSTORE PUSH2 0x882 DUP11 DUP11 DUP6 PUSH2 0x14EE JUMP JUMPDEST PUSH1 0x40 DUP1 MLOAD DUP3 ISZERO ISZERO DUP2 MSTORE SWAP1 MLOAD SWAP2 SWAP3 POP CALLER SWAP2 DUP5 SWAP2 PUSH32 0x14C7C3AEAED5D9DE50669529F936D80FF48AF1F52BEB8447437689CB298131A8 SWAP2 SWAP1 DUP2 SWAP1 SUB PUSH1 0x20 ADD SWAP1 LOG3 PUSH2 0x8C8 DUP6 PUSH2 0x1F1B JUMP JUMPDEST PUSH2 0x919 JUMPI PUSH1 0x40 DUP1 MLOAD PUSH3 0x461BCD PUSH1 0xE5 SHL DUP2 MSTORE PUSH1 0x20 PUSH1 0x4 DUP3 ADD MSTORE PUSH1 0x1E PUSH1 0x24 DUP3 ADD MSTORE PUSH32 0x5374616B65722773207075626C6963206B657920697320696E76616C69640000 PUSH1 0x44 DUP3 ADD MSTORE SWAP1 MLOAD SWAP1 DUP2 SWAP1 SUB PUSH1 0x64 ADD SWAP1 REVERT JUMPDEST PUSH2 0x922 DUP7 PUSH2 0x1F1B JUMP JUMPDEST PUSH2 0x95D JUMPI PUSH1 0x40 MLOAD PUSH3 0x461BCD PUSH1 0xE5 SHL DUP2 MSTORE PUSH1 0x4 ADD DUP1 DUP1 PUSH1 0x20 ADD DUP3 DUP2 SUB DUP3 MSTORE PUSH1 0x21 DUP2 MSTORE PUSH1 0x20 ADD DUP1 PUSH2 0x3950 PUSH1 0x21 SWAP2 CODECOPY PUSH1 0x40 ADD SWAP2 POP POP PUSH1 0x40 MLOAD DUP1 SWAP2 SUB SWAP1 REVERT JUMPDEST PUSH2 0x965 PUSH2 0x3419 JUMP JUMPDEST PUSH2 0x96E DUP5 PUSH2 0x1F7B JUMP JUMPDEST SWAP1 POP PUSH2 0xA33 DUP11 DUP11 DUP4 PUSH2 0x2C0 ADD MLOAD PUSH1 0x1 PUSH1 0x5 DUP2 LT PUSH2 0x987 JUMPI INVALID JUMPDEST BYTE PUSH1 0xF8 SHL PUSH1 0x40 MLOAD PUSH1 0x20 ADD DUP1 DUP4 DUP1 MLOAD SWAP1 PUSH1 0x20 ADD SWAP1 DUP1 DUP4 DUP4 JUMPDEST PUSH1 0x20 DUP4 LT PUSH2 0x9BD JUMPI DUP1 MLOAD DUP3 MSTORE PUSH1 0x1F NOT SWAP1 SWAP3 ADD SWAP2 PUSH1 0x20 SWAP2 DUP3 ADD SWAP2 ADD PUSH2 0x99E JUMP JUMPDEST PUSH1 0x1 DUP4 PUSH1 0x20 SUB PUSH2 0x100 EXP SUB DUP1 NOT DUP3 MLOAD AND DUP2 DUP5 MLOAD AND DUP1 DUP3 OR DUP6 MSTORE POP POP POP POP POP POP SWAP1 POP ADD DUP3 PUSH1 0x1 PUSH1 0x1 PUSH1 0xF8 SHL SUB NOT AND PUSH1 0x1 PUSH1 0x1 PUSH1 0xF8 SHL SUB NOT AND DUP2 MSTORE PUSH1 0x1 ADD SWAP3 POP POP POP PUSH1 0x40 MLOAD PUSH1 0x20 DUP2 DUP4 SUB SUB DUP2 MSTORE SWAP1 PUSH1 0x40 MSTORE DUP9 PUSH32 0x0 PUSH2 0x2159 JUMP JUMPDEST PUSH2 0xA84 JUMPI PUSH1 0x40 DUP1 MLOAD PUSH3 0x461BCD PUSH1 0xE5 SHL DUP2 MSTORE PUSH1 0x20 PUSH1 0x4 DUP3 ADD MSTORE PUSH1 0x1A PUSH1 0x24 DUP3 ADD MSTORE PUSH32 0x4346726167207369676E617475726520697320696E76616C6964000000000000 PUSH1 0x44 DUP3 ADD MSTORE SWAP1 MLOAD SWAP1 DUP2 SWAP1 SUB PUSH1 0x64 ADD SWAP1 REVERT JUMPDEST PUSH2 0xA8C PUSH2 0x34DD JUMP JUMPDEST PUSH2 0xA95 DUP12 PUSH2 0x21A1 JUMP JUMPDEST SWAP1 POP PUSH2 0xB62 DUP10 DUP3 PUSH1 0x80 ADD MLOAD PUSH1 0xC0 ADD MLOAD DUP5 PUSH2 0x2C0 ADD MLOAD PUSH1 0x2 PUSH1 0x5 DUP2 LT PUSH2 0xAB6 JUMPI INVALID JUMPDEST BYTE PUSH1 0xF8 SHL PUSH1 0x40 MLOAD PUSH1 0x20 ADD DUP1 DUP4 DUP1 MLOAD SWAP1 PUSH1 0x20 ADD SWAP1 DUP1 DUP4 DUP4 JUMPDEST PUSH1 0x20 DUP4 LT PUSH2 0xAEC JUMPI DUP1 MLOAD DUP3 MSTORE PUSH1 0x1F NOT SWAP1 SWAP3 ADD SWAP2 PUSH1 0x20 SWAP2 DUP3 ADD SWAP2 ADD PUSH2 0xACD JUMP JUMPDEST PUSH1 0x1 DUP4 PUSH1 0x20 SUB PUSH2 0x100 EXP SUB DUP1 NOT DUP3 MLOAD AND DUP2 DUP5 MLOAD AND DUP1 DUP3 OR DUP6 MSTORE POP POP POP POP POP POP SWAP1 POP ADD DUP3 PUSH1 0x1 PUSH1 0x1 PUSH1 0xF8 SHL SUB NOT AND PUSH1 0x1 PUSH1 0x1 PUSH1 0xF8 SHL SUB NOT AND DUP2 MSTORE PUSH1 0x1 ADD SWAP3 POP POP POP PUSH1 0x40 MLOAD PUSH1 0x20 DUP2 DUP4 SUB SUB DUP2 MSTORE SWAP1 PUSH1 0x40 MSTORE DUP10 PUSH32 0x0 PUSH2 0x2159 JUMP JUMPDEST PUSH2 0xBB3 JUMPI PUSH1 0x40 DUP1 MLOAD PUSH3 0x461BCD PUSH1 0xE5 SHL DUP2 MSTORE PUSH1 0x20 PUSH1 0x4 DUP3 ADD MSTORE PUSH1 0x19 PUSH1 0x24 DUP3 ADD MSTORE PUSH32 0x5461736B207369676E617475726520697320696E76616C696400000000000000 PUSH1 0x44 DUP3 ADD MSTORE SWAP1 MLOAD SWAP1 DUP2 SWAP1 SUB PUSH1 0x64 ADD SWAP1 REVERT JUMPDEST PUSH1 0x20 DUP8 ADD MLOAD PUSH2 0x2C0 DUP4 ADD MLOAD PUSH1 0x60 SWAP1 PUSH1 0x4 BYTE PUSH1 0xF8 SHL DUP3 PUSH1 0x40 MLOAD PUSH1 0x20 ADD DUP1 DUP4 PUSH1 0x1 PUSH1 0x1 PUSH1 0xF8 SHL SUB NOT AND PUSH1 0x1 PUSH1 0x1 PUSH1 0xF8 SHL SUB NOT AND DUP2 MSTORE PUSH1 0x1 ADD DUP3 DUP2 MSTORE PUSH1 0x20 ADD SWAP3 POP POP POP PUSH1 0x40 MLOAD PUSH1 0x20 DUP2 DUP4 SUB SUB DUP2 MSTORE SWAP1 PUSH1 0x40 MSTORE SWAP1 POP PUSH2 0xDEE DUP15 DUP3 DUP11 DUP8 PUSH2 0x2A0 ADD MLOAD PUSH1 0x0 DUP1 SHL PUSH1 0x40 MLOAD PUSH1 0x20 ADD DUP1 DUP7 DUP1 MLOAD SWAP1 PUSH1 0x20 ADD SWAP1 DUP1 DUP4 DUP4 JUMPDEST PUSH1 0x20 DUP4 LT PUSH2 0xC46 JUMPI DUP1 MLOAD DUP3 MSTORE PUSH1 0x1F NOT SWAP1 SWAP3 ADD SWAP2 PUSH1 0x20 SWAP2 DUP3 ADD SWAP2 ADD PUSH2 0xC27 JUMP JUMPDEST MLOAD DUP2 MLOAD PUSH1 0x20 SWAP4 DUP5 SUB PUSH2 0x100 EXP PUSH1 0x0 NOT ADD DUP1 NOT SWAP1 SWAP3 AND SWAP2 AND OR SWAP1 MSTORE DUP9 MLOAD SWAP2 SWAP1 SWAP4 ADD SWAP3 DUP9 ADD SWAP2 POP DUP1 DUP4 DUP4 JUMPDEST PUSH1 0x20 DUP4 LT PUSH2 0xC8E JUMPI DUP1 MLOAD DUP3 MSTORE PUSH1 0x1F NOT SWAP1 SWAP3 ADD SWAP2 PUSH1 0x20 SWAP2 DUP3 ADD SWAP2 ADD PUSH2 0xC6F JUMP JUMPDEST MLOAD DUP2 MLOAD PUSH1 0x20 SWAP4 DUP5 SUB PUSH2 0x100 EXP PUSH1 0x0 NOT ADD DUP1 NOT SWAP1 SWAP3 AND SWAP2 AND OR SWAP1 MSTORE DUP8 MLOAD SWAP2 SWAP1 SWAP4 ADD SWAP3 DUP8 ADD SWAP2 POP DUP1 DUP4 DUP4 JUMPDEST PUSH1 0x20 DUP4 LT PUSH2 0xCD6 JUMPI DUP1 MLOAD DUP3 MSTORE PUSH1 0x1F NOT SWAP1 SWAP3 ADD SWAP2 PUSH1 0x20 SWAP2 DUP3 ADD SWAP2 ADD PUSH2 0xCB7 JUMP JUMPDEST PUSH1 0x1 DUP4 PUSH1 0x20 SUB PUSH2 0x100 EXP SUB DUP1 NOT DUP3 MLOAD AND DUP2 DUP5 MLOAD AND DUP1 DUP3 OR DUP6 MSTORE POP POP POP POP POP POP SWAP1 POP ADD DUP4 PUSH1 0x1 PUSH1 0x1 PUSH1 0xA0 SHL SUB AND PUSH1 0x1 PUSH1 0x1 PUSH1 0xA0 SHL SUB AND PUSH1 0x60 SHL DUP2 MSTORE PUSH1 0x14 ADD DUP3 DUP2 MSTORE PUSH1 0x20 ADD SWAP6 POP POP POP POP POP POP PUSH1 0x40 MLOAD PUSH1 0x20 DUP2 DUP4 SUB SUB DUP2 MSTORE SWAP1 PUSH1 0x40 MSTORE DUP13 DUP7 PUSH2 0x2C0 ADD MLOAD PUSH1 0x3 PUSH1 0x5 DUP2 LT PUSH2 0xD42 JUMPI INVALID JUMPDEST BYTE PUSH1 0xF8 SHL PUSH1 0x40 MLOAD PUSH1 0x20 ADD DUP1 DUP4 DUP1 MLOAD SWAP1 PUSH1 0x20 ADD SWAP1 DUP1 DUP4 DUP4 JUMPDEST PUSH1 0x20 DUP4 LT PUSH2 0xD78 JUMPI DUP1 MLOAD DUP3 MSTORE PUSH1 0x1F NOT SWAP1 SWAP3 ADD SWAP2 PUSH1 0x20 SWAP2 DUP3 ADD SWAP2 ADD PUSH2 0xD59 JUMP JUMPDEST PUSH1 0x1 DUP4 PUSH1 0x20 SUB PUSH2 0x100 EXP SUB DUP1 NOT DUP3 MLOAD AND DUP2 DUP5 MLOAD AND DUP1 DUP3 OR DUP6 MSTORE POP POP POP POP POP POP SWAP1 POP ADD DUP3 PUSH1 0x1 PUSH1 0x1 PUSH1 0xF8 SHL SUB NOT AND PUSH1 0x1 PUSH1 0x1 PUSH1 0xF8 SHL SUB NOT AND DUP2 MSTORE PUSH1 0x1 ADD SWAP3 POP POP POP PUSH1 0x40 MLOAD PUSH1 0x20 DUP2 DUP4 SUB SUB DUP2 MSTORE SWAP1 PUSH1 0x40 MSTORE DUP13 PUSH32 0x0 PUSH2 0x2159 JUMP JUMPDEST PUSH2 0xE29 JUMPI PUSH1 0x40 MLOAD PUSH3 0x461BCD PUSH1 0xE5 SHL DUP2 MSTORE PUSH1 0x4 ADD DUP1 DUP1 PUSH1 0x20 ADD DUP3 DUP2 SUB DUP3 MSTORE PUSH1 0x22 DUP2 MSTORE PUSH1 0x20 ADD DUP1 PUSH2 0x3667 PUSH1 0x22 SWAP2 CODECOPY PUSH1 0x40 ADD SWAP2 POP POP PUSH1 0x40 MLOAD DUP1 SWAP2 SUB SWAP1 REVERT JUMPDEST PUSH1 0x0 PUSH2 0xE42 PUSH2 0xE3C DUP4 PUSH1 0x45 PUSH1 0xF8 SHL PUSH2 0x2229 JUMP JUMPDEST DUP11 PUSH2 0x2529 JUMP JUMPDEST SWAP1 POP PUSH1 0x0 PUSH32 0x0 PUSH1 0x1 PUSH1 0x1 PUSH1 0xA0 SHL SUB AND PUSH4 0xB2EEB36E DUP4 PUSH1 0x40 MLOAD DUP3 PUSH4 0xFFFFFFFF AND PUSH1 0xE0 SHL DUP2 MSTORE PUSH1 0x4 ADD DUP1 DUP3 PUSH1 0x1 PUSH1 0x1 PUSH1 0xA0 SHL SUB AND PUSH1 0x1 PUSH1 0x1 PUSH1 0xA0 SHL SUB AND DUP2 MSTORE PUSH1 0x20 ADD SWAP2 POP POP PUSH1 0x20 PUSH1 0x40 MLOAD DUP1 DUP4 SUB DUP2 DUP7 DUP1 EXTCODESIZE ISZERO DUP1 ISZERO PUSH2 0xEBC JUMPI PUSH1 0x0 DUP1 REVERT JUMPDEST POP GAS STATICCALL ISZERO DUP1 ISZERO PUSH2 0xED0 JUMPI RETURNDATASIZE PUSH1 0x0 DUP1 RETURNDATACOPY RETURNDATASIZE PUSH1 0x0 REVERT JUMPDEST POP POP POP POP PUSH1 0x40 MLOAD RETURNDATASIZE PUSH1 0x20 DUP2 LT ISZERO PUSH2 0xEE6 JUMPI PUSH1 0x0 DUP1 REVERT JUMPDEST POP MLOAD SWAP1 POP PUSH1 0x1 PUSH1 0x1 PUSH1 0xA0 SHL SUB DUP2 AND PUSH2 0xF2F JUMPI PUSH1 0x40 MLOAD PUSH3 0x461BCD PUSH1 0xE5 SHL DUP2 MSTORE PUSH1 0x4 ADD DUP1 DUP1 PUSH1 0x20 ADD DUP3 DUP2 SUB DUP3 MSTORE PUSH1 0x22 DUP2 MSTORE PUSH1 0x20 ADD DUP1 PUSH2 0x380F PUSH1 0x22 SWAP2 CODECOPY PUSH1 0x40 ADD SWAP2 POP POP PUSH1 0x40 MLOAD DUP1 SWAP2 SUB SWAP1 REVERT JUMPDEST PUSH1 0x0 PUSH32 0x0 PUSH1 0x1 PUSH1 0x1 PUSH1 0xA0 SHL SUB AND PUSH4 0x178B6DE6 DUP4 PUSH1 0x40 MLOAD DUP3 PUSH4 0xFFFFFFFF AND PUSH1 0xE0 SHL DUP2 MSTORE PUSH1 0x4 ADD DUP1 DUP3 PUSH1 0x1 PUSH1 0x1 PUSH1 0xA0 SHL SUB AND PUSH1 0x1 PUSH1 0x1 PUSH1 0xA0 SHL SUB AND DUP2 MSTORE PUSH1 0x20 ADD SWAP2 POP POP PUSH1 0x20 PUSH1 0x40 MLOAD DUP1 DUP4 SUB DUP2 DUP7 DUP1 EXTCODESIZE ISZERO DUP1 ISZERO PUSH2 0xFA7 JUMPI PUSH1 0x0 DUP1 REVERT JUMPDEST POP GAS STATICCALL ISZERO DUP1 ISZERO PUSH2 0xFBB JUMPI RETURNDATASIZE PUSH1 0x0 DUP1 RETURNDATACOPY RETURNDATASIZE PUSH1 0x0 REVERT JUMPDEST POP POP POP POP PUSH1 0x40 MLOAD RETURNDATASIZE PUSH1 0x20 DUP2 LT ISZERO PUSH2 0xFD1 JUMPI PUSH1 0x0 DUP1 REVERT JUMPDEST POP MLOAD SWAP1 POP DUP1 PUSH2 0x101E JUMPI PUSH1 0x40 DUP1 MLOAD PUSH3 0x461BCD PUSH1 0xE5 SHL DUP2 MSTORE PUSH1 0x20 PUSH1 0x4 DUP3 ADD MSTORE PUSH1 0x14 PUSH1 0x24 DUP3 ADD MSTORE PUSH20 0x5374616B657220686173206E6F20746F6B656E73 PUSH1 0x60 SHL PUSH1 0x44 DUP3 ADD MSTORE SWAP1 MLOAD SWAP1 DUP2 SWAP1 SUB PUSH1 0x64 ADD SWAP1 REVERT JUMPDEST DUP8 PUSH2 0x1110 JUMPI PUSH1 0x0 DUP1 PUSH2 0x1030 DUP5 DUP5 PUSH2 0x25E2 JUMP JUMPDEST PUSH1 0x40 DUP1 MLOAD PUSH4 0x26730863 PUSH1 0xE2 SHL DUP2 MSTORE PUSH1 0x1 PUSH1 0x1 PUSH1 0xA0 SHL SUB DUP9 DUP2 AND PUSH1 0x4 DUP4 ADD MSTORE PUSH1 0x24 DUP3 ADD DUP6 SWAP1 MSTORE CALLER PUSH1 0x44 DUP4 ADD MSTORE PUSH1 0x64 DUP3 ADD DUP5 SWAP1 MSTORE SWAP2 MLOAD SWAP4 SWAP6 POP SWAP2 SWAP4 POP PUSH32 0x0 AND SWAP2 PUSH4 0x99CC218C SWAP2 PUSH1 0x84 DUP1 DUP3 ADD SWAP3 PUSH1 0x0 SWAP3 SWAP1 SWAP2 SWAP1 DUP3 SWAP1 SUB ADD DUP2 DUP4 DUP8 DUP1 EXTCODESIZE ISZERO DUP1 ISZERO PUSH2 0x10B4 JUMPI PUSH1 0x0 DUP1 REVERT JUMPDEST POP GAS CALL ISZERO DUP1 ISZERO PUSH2 0x10C8 JUMPI RETURNDATASIZE PUSH1 0x0 DUP1 RETURNDATACOPY RETURNDATASIZE PUSH1 0x0 REVERT JUMPDEST POP POP POP POP DUP4 PUSH1 0x1 PUSH1 0x1 PUSH1 0xA0 SHL SUB AND DUP6 PUSH1 0x1 PUSH1 0x1 PUSH1 0xA0 SHL SUB AND DUP13 PUSH32 0x860028D7F53AFB628CAE3582337C99BE24159F7EE9D68A96BABBC7F054A36CAF PUSH1 0x40 MLOAD PUSH1 0x40 MLOAD DUP1 SWAP2 SUB SWAP1 LOG4 POP POP JUMPDEST POP POP POP POP POP POP POP POP POP POP POP POP POP POP POP POP POP JUMP JUMPDEST PUSH1 0x6 SSTORE JUMP JUMPDEST PUSH32 0x0 DUP2 JUMP JUMPDEST PUSH1 0x2 SLOAD PUSH1 0x1 PUSH1 0x1 PUSH1 0xA0 SHL SUB AND DUP2 JUMP JUMPDEST PUSH32 0x0 DUP2 JUMP JUMPDEST PUSH32 0x0 DUP2 JUMP JUMPDEST PUSH1 0x4 PUSH1 0x20 MSTORE PUSH1 0x0 SWAP1 DUP2 MSTORE PUSH1 0x40 SWAP1 KECCAK256 SLOAD DUP2 JUMP JUMPDEST PUSH1 0x5 PUSH1 0x20 MSTORE PUSH1 0x0 SWAP1 DUP2 MSTORE PUSH1 0x40 SWAP1 KECCAK256 SLOAD PUSH1 0xFF AND DUP2 JUMP JUMPDEST PUSH2 0x11D2 PUSH2 0x1234 JUMP JUMPDEST PUSH2 0x11DB JUMPI PUSH1 0x0 DUP1 REVERT JUMPDEST PUSH1 0x0 DUP1 SLOAD PUSH1 0x40 MLOAD PUSH1 0x1 PUSH1 0x1 PUSH1 0xA0 SHL SUB SWAP1 SWAP2 AND SWAP1 PUSH32 0x8BE0079C531659141344CD1FD0A4F28419497F9722A3DAAFE3B4186F6B6457E0 SWAP1 DUP4 SWAP1 LOG3 PUSH1 0x0 DUP1 SLOAD PUSH1 0x1 PUSH1 0x1 PUSH1 0xA0 SHL SUB NOT AND SWAP1 SSTORE JUMP JUMPDEST PUSH1 0x0 SLOAD PUSH1 0x1 PUSH1 0x1 PUSH1 0xA0 SHL SUB AND SWAP1 JUMP JUMPDEST PUSH1 0x0 SLOAD PUSH1 0x1 PUSH1 0x1 PUSH1 0xA0 SHL SUB AND CALLER EQ SWAP1 JUMP JUMPDEST PUSH1 0x6 SLOAD DUP2 JUMP JUMPDEST PUSH2 0x1254 DUP2 PUSH2 0x271B JUMP JUMPDEST PUSH1 0x6 SLOAD PUSH2 0x1268 DUP3 PUSH4 0xA3324BE9 PUSH1 0xE0 SHL PUSH2 0x27DE JUMP JUMPDEST EQ PUSH2 0x1272 JUMPI PUSH1 0x0 DUP1 REVERT JUMPDEST POP JUMP JUMPDEST PUSH32 0x0 DUP2 JUMP JUMPDEST PUSH1 0x1 SLOAD PUSH1 0x1 PUSH1 0x1 PUSH1 0xA0 SHL SUB AND DUP2 JUMP JUMPDEST PUSH32 0x0 DUP2 JUMP JUMPDEST PUSH1 0x2 SLOAD PUSH1 0x1 PUSH1 0xA0 SHL SWAP1 DIV PUSH1 0xFF AND DUP2 JUMP JUMPDEST PUSH2 0x12E5 DUP2 PUSH2 0x27F7 JUMP JUMPDEST PUSH1 0x40 DUP1 MLOAD PUSH1 0x0 PUSH1 0x20 DUP1 DUP4 ADD DUP3 SWAP1 MSTORE DUP4 MLOAD DUP1 DUP5 SUB SWAP1 SWAP2 ADD DUP2 MSTORE SWAP2 DUP4 ADD SWAP1 SWAP3 MSTORE PUSH2 0x130E SWAP1 PUSH1 0x1 PUSH2 0x1396 JUMP JUMPDEST PUSH1 0x0 SWAP1 DUP2 MSTORE PUSH1 0x5 PUSH1 0x20 SWAP1 DUP2 MSTORE PUSH1 0x40 DUP3 KECCAK256 DUP1 SLOAD PUSH1 0xFF NOT AND PUSH1 0x1 OR SWAP1 SSTORE SWAP1 DUP1 MSTORE PUSH1 0x4 SWAP1 MSTORE POP POP PUSH1 0x7B PUSH32 0x17EF568E3E12AB5B9C7254A8D58478811DE00F9E6EB34345ACD53BF8FD09D3EC SSTORE JUMP JUMPDEST PUSH2 0x1360 PUSH2 0x1234 JUMP JUMPDEST PUSH2 0x1369 JUMPI PUSH1 0x0 DUP1 REVERT JUMPDEST PUSH2 0x1272 DUP2 PUSH2 0x2851 JUMP JUMPDEST PUSH32 0x0 DUP2 JUMP JUMPDEST PUSH1 0x0 DUP1 DUP3 PUSH1 0x2 DUP2 GT ISZERO PUSH2 0x13A5 JUMPI INVALID JUMPDEST EQ ISZERO PUSH2 0x13B8 JUMPI POP DUP2 MLOAD PUSH1 0x20 DUP4 ADD KECCAK256 PUSH2 0x14E8 JUMP JUMPDEST PUSH1 0x1 DUP3 PUSH1 0x2 DUP2 GT ISZERO PUSH2 0x13C6 JUMPI INVALID JUMPDEST EQ ISZERO PUSH2 0x145B JUMPI PUSH1 0x2 DUP4 PUSH1 0x40 MLOAD DUP1 DUP3 DUP1 MLOAD SWAP1 PUSH1 0x20 ADD SWAP1 DUP1 DUP4 DUP4 JUMPDEST PUSH1 0x20 DUP4 LT PUSH2 0x13FE JUMPI DUP1 MLOAD DUP3 MSTORE PUSH1 0x1F NOT SWAP1 SWAP3 ADD SWAP2 PUSH1 0x20 SWAP2 DUP3 ADD SWAP2 ADD PUSH2 0x13DF JUMP JUMPDEST MLOAD DUP2 MLOAD PUSH1 0x20 SWAP4 DUP5 SUB PUSH2 0x100 EXP PUSH1 0x0 NOT ADD DUP1 NOT SWAP1 SWAP3 AND SWAP2 AND OR SWAP1 MSTORE PUSH1 0x40 MLOAD SWAP2 SWAP1 SWAP4 ADD SWAP5 POP SWAP2 SWAP3 POP POP DUP1 DUP4 SUB DUP2 DUP6 GAS STATICCALL ISZERO DUP1 ISZERO PUSH2 0x143D JUMPI RETURNDATASIZE PUSH1 0x0 DUP1 RETURNDATACOPY RETURNDATASIZE PUSH1 0x0 REVERT JUMPDEST POP POP POP PUSH1 0x40 MLOAD RETURNDATASIZE PUSH1 0x20 DUP2 LT ISZERO PUSH2 0x1452 JUMPI PUSH1 0x0 DUP1 REVERT JUMPDEST POP MLOAD SWAP1 POP PUSH2 0x14E8 JUMP JUMPDEST PUSH1 0x3 DUP4 PUSH1 0x40 MLOAD DUP1 DUP3 DUP1 MLOAD SWAP1 PUSH1 0x20 ADD SWAP1 DUP1 DUP4 DUP4 JUMPDEST PUSH1 0x20 DUP4 LT PUSH2 0x148D JUMPI DUP1 MLOAD DUP3 MSTORE PUSH1 0x1F NOT SWAP1 SWAP3 ADD SWAP2 PUSH1 0x20 SWAP2 DUP3 ADD SWAP2 ADD PUSH2 0x146E JUMP JUMPDEST MLOAD DUP2 MLOAD PUSH1 0x20 SWAP4 DUP5 SUB PUSH2 0x100 EXP PUSH1 0x0 NOT ADD DUP1 NOT SWAP1 SWAP3 AND SWAP2 AND OR SWAP1 MSTORE PUSH1 0x40 MLOAD SWAP2 SWAP1 SWAP4 ADD SWAP5 POP SWAP2 SWAP3 POP POP DUP1 DUP4 SUB DUP2 DUP6 GAS STATICCALL ISZERO DUP1 ISZERO PUSH2 0x14CC JUMPI RETURNDATASIZE PUSH1 0x0 DUP1 RETURNDATACOPY RETURNDATASIZE PUSH1 0x0 REVERT JUMPDEST POP POP POP PUSH1 0x40 MLOAD MLOAD PUSH1 0x60 SHL PUSH12 0xFFFFFFFFFFFFFFFFFFFFFFFF NOT AND SWAP1 POP JUMPDEST SWAP3 SWAP2 POP POP JUMP JUMPDEST PUSH1 0x0 PUSH2 0x14F8 PUSH2 0x3523 JUMP JUMPDEST PUSH2 0x1501 DUP6 PUSH2 0x28BF JUMP JUMPDEST SWAP1 POP PUSH2 0x150B PUSH2 0x34DD JUMP JUMPDEST PUSH2 0x1514 DUP6 PUSH2 0x21A1 JUMP JUMPDEST SWAP1 POP PUSH2 0x151E PUSH2 0x3419 JUMP JUMPDEST PUSH2 0x1527 DUP6 PUSH2 0x1F7B JUMP JUMPDEST SWAP1 POP PUSH1 0x0 PUSH2 0x15D9 DUP3 PUSH2 0x280 ADD MLOAD DUP5 PUSH1 0x80 ADD MLOAD PUSH1 0xA0 ADD MLOAD DUP5 PUSH2 0x2C0 ADD MLOAD PUSH1 0x0 PUSH1 0x5 DUP2 LT PUSH2 0x154F JUMPI INVALID JUMPDEST BYTE PUSH1 0xF8 SHL PUSH1 0x40 MLOAD PUSH1 0x20 ADD DUP1 DUP4 DUP1 MLOAD SWAP1 PUSH1 0x20 ADD SWAP1 DUP1 DUP4 DUP4 JUMPDEST PUSH1 0x20 DUP4 LT PUSH2 0x1585 JUMPI DUP1 MLOAD DUP3 MSTORE PUSH1 0x1F NOT SWAP1 SWAP3 ADD SWAP2 PUSH1 0x20 SWAP2 DUP3 ADD SWAP2 ADD PUSH2 0x1566 JUMP JUMPDEST PUSH1 0x1 DUP4 PUSH1 0x20 SUB PUSH2 0x100 EXP SUB DUP1 NOT DUP3 MLOAD AND DUP2 DUP5 MLOAD AND DUP1 DUP3 OR DUP6 MSTORE POP POP POP POP POP POP SWAP1 POP ADD DUP3 PUSH1 0x1 PUSH1 0x1 PUSH1 0xF8 SHL SUB NOT AND PUSH1 0x1 PUSH1 0x1 PUSH1 0xF8 SHL SUB NOT AND DUP2 MSTORE PUSH1 0x1 ADD SWAP3 POP POP POP PUSH1 0x40 MLOAD PUSH1 0x20 DUP2 DUP4 SUB SUB DUP2 MSTORE SWAP1 PUSH1 0x40 MSTORE PUSH2 0x2529 JUMP JUMPDEST SWAP1 POP DUP2 PUSH2 0x2A0 ADD MLOAD PUSH1 0x1 PUSH1 0x1 PUSH1 0xA0 SHL SUB AND DUP2 PUSH1 0x1 PUSH1 0x1 PUSH1 0xA0 SHL SUB AND EQ PUSH2 0x163C JUMPI PUSH1 0x40 DUP1 MLOAD PUSH3 0x461BCD PUSH1 0xE5 SHL DUP2 MSTORE PUSH1 0x20 PUSH1 0x4 DUP3 ADD MSTORE PUSH1 0x13 PUSH1 0x24 DUP3 ADD MSTORE PUSH19 0x426164204B46726167207369676E6174757265 PUSH1 0x68 SHL PUSH1 0x44 DUP3 ADD MSTORE SWAP1 MLOAD SWAP1 DUP2 SWAP1 SUB PUSH1 0x64 ADD SWAP1 REVERT JUMPDEST PUSH1 0x0 PUSH2 0x1648 DUP6 DUP6 PUSH2 0x2916 JUMP JUMPDEST DUP6 MLOAD DUP1 MLOAD PUSH1 0x20 SWAP1 SWAP2 ADD MLOAD DUP6 MLOAD SWAP3 SWAP4 POP PUSH2 0x1660 SWAP3 PUSH2 0x2BB5 JUMP JUMPDEST PUSH2 0x169B JUMPI PUSH1 0x40 MLOAD PUSH3 0x461BCD PUSH1 0xE5 SHL DUP2 MSTORE PUSH1 0x4 ADD DUP1 DUP1 PUSH1 0x20 ADD DUP3 DUP2 SUB DUP3 MSTORE PUSH1 0x46 DUP2 MSTORE PUSH1 0x20 ADD DUP1 PUSH2 0x3783 PUSH1 0x46 SWAP2 CODECOPY PUSH1 0x60 ADD SWAP2 POP POP PUSH1 0x40 MLOAD DUP1 SWAP2 SUB SWAP1 REVERT JUMPDEST PUSH2 0x16AD DUP4 PUSH1 0x20 ADD MLOAD DUP5 PUSH1 0x40 ADD MLOAD PUSH2 0x2BD2 JUMP JUMPDEST PUSH2 0x16FE JUMPI PUSH1 0x40 DUP1 MLOAD PUSH3 0x461BCD PUSH1 0xE5 SHL DUP2 MSTORE PUSH1 0x20 PUSH1 0x4 DUP3 ADD DUP2 SWAP1 MSTORE PUSH1 0x24 DUP3 ADD MSTORE PUSH32 0x506F696E74207A45206973206E6F7420612076616C696420454320706F696E74 PUSH1 0x44 DUP3 ADD MSTORE SWAP1 MLOAD SWAP1 DUP2 SWAP1 SUB PUSH1 0x64 ADD SWAP1 REVERT JUMPDEST PUSH2 0x1727 DUP6 PUSH1 0x0 ADD MLOAD PUSH1 0x20 ADD MLOAD DUP5 PUSH1 0x0 ADD MLOAD DUP7 PUSH1 0x80 ADD MLOAD PUSH1 0x80 ADD MLOAD DUP7 PUSH1 0x20 ADD MLOAD DUP8 PUSH1 0x40 ADD MLOAD PUSH2 0x2C37 JUMP JUMPDEST PUSH2 0x1762 JUMPI PUSH1 0x40 MLOAD PUSH3 0x461BCD PUSH1 0xE5 SHL DUP2 MSTORE PUSH1 0x4 ADD DUP1 DUP1 PUSH1 0x20 ADD DUP3 DUP2 SUB DUP3 MSTORE PUSH1 0x22 DUP2 MSTORE PUSH1 0x20 ADD DUP1 PUSH2 0x35FD PUSH1 0x22 SWAP2 CODECOPY PUSH1 0x40 ADD SWAP2 POP POP PUSH1 0x40 MLOAD DUP1 SWAP2 SUB SWAP1 REVERT JUMPDEST DUP4 MLOAD DUP1 MLOAD PUSH1 0x20 SWAP1 SWAP2 ADD MLOAD PUSH1 0x60 DUP6 ADD MLOAD PUSH2 0x177C SWAP3 SWAP2 SWAP1 PUSH2 0x2BB5 JUMP JUMPDEST PUSH2 0x17B7 JUMPI PUSH1 0x40 MLOAD PUSH3 0x461BCD PUSH1 0xE5 SHL DUP2 MSTORE PUSH1 0x4 ADD DUP1 DUP1 PUSH1 0x20 ADD DUP3 DUP2 SUB DUP3 MSTORE PUSH1 0x48 DUP2 MSTORE PUSH1 0x20 ADD DUP1 PUSH2 0x38A0 PUSH1 0x48 SWAP2 CODECOPY PUSH1 0x60 ADD SWAP2 POP POP PUSH1 0x40 MLOAD DUP1 SWAP2 SUB SWAP1 REVERT JUMPDEST PUSH2 0x17C9 DUP4 PUSH1 0x80 ADD MLOAD DUP5 PUSH1 0xA0 ADD MLOAD PUSH2 0x2BD2 JUMP JUMPDEST PUSH2 0x1804 JUMPI PUSH1 0x40 MLOAD PUSH3 0x461BCD PUSH1 0xE5 SHL DUP2 MSTORE PUSH1 0x4 ADD DUP1 DUP1 PUSH1 0x20 ADD DUP3 DUP2 SUB DUP3 MSTORE PUSH1 0x22 DUP2 MSTORE PUSH1 0x20 ADD DUP1 PUSH2 0x38E8 PUSH1 0x22 SWAP2 CODECOPY PUSH1 0x40 ADD SWAP2 POP POP PUSH1 0x40 MLOAD DUP1 SWAP2 SUB SWAP1 REVERT JUMPDEST PUSH2 0x1825 DUP5 PUSH1 0x0 ADD MLOAD PUSH1 0x20 ADD MLOAD DUP5 PUSH1 0x60 ADD MLOAD DUP4 DUP7 PUSH1 0x80 ADD MLOAD DUP8 PUSH1 0xA0 ADD MLOAD PUSH2 0x2C37 JUMP JUMPDEST PUSH2 0x1860 JUMPI PUSH1 0x40 MLOAD PUSH3 0x461BCD PUSH1 0xE5 SHL DUP2 MSTORE PUSH1 0x4 ADD DUP1 DUP1 PUSH1 0x20 ADD DUP3 DUP2 SUB DUP3 MSTORE PUSH1 0x23 DUP2 MSTORE PUSH1 0x20 ADD DUP1 PUSH2 0x39FE PUSH1 0x23 SWAP2 CODECOPY PUSH1 0x40 ADD SWAP2 POP POP PUSH1 0x40 MLOAD DUP1 SWAP2 SUB SWAP1 REVERT JUMPDEST PUSH1 0x80 DUP5 ADD MLOAD MLOAD DUP1 MLOAD PUSH1 0x20 SWAP1 SWAP2 ADD MLOAD PUSH1 0xC0 DUP6 ADD MLOAD PUSH2 0x187E SWAP3 SWAP2 SWAP1 PUSH2 0x2BB5 JUMP JUMPDEST PUSH2 0x18B9 JUMPI PUSH1 0x40 MLOAD PUSH3 0x461BCD PUSH1 0xE5 SHL DUP2 MSTORE PUSH1 0x4 ADD DUP1 DUP1 PUSH1 0x20 ADD DUP3 DUP2 SUB DUP3 MSTORE PUSH1 0x48 DUP2 MSTORE PUSH1 0x20 ADD DUP1 PUSH2 0x39B6 PUSH1 0x48 SWAP2 CODECOPY PUSH1 0x60 ADD SWAP2 POP POP PUSH1 0x40 MLOAD DUP1 SWAP2 SUB SWAP1 REVERT JUMPDEST PUSH1 0x0 PUSH2 0x192A PUSH1 0x40 MLOAD DUP1 PUSH1 0x40 ADD PUSH1 0x40 MSTORE DUP1 DUP7 PUSH1 0x20 ADD MLOAD DUP2 MSTORE PUSH1 0x20 ADD DUP7 PUSH1 0x40 ADD MLOAD DUP2 MSTORE POP PUSH2 0x1925 PUSH1 0x40 MLOAD DUP1 PUSH1 0x40 ADD PUSH1 0x40 MSTORE DUP1 DUP10 PUSH1 0x80 ADD MLOAD PUSH1 0x0 ADD MLOAD PUSH1 0x20 ADD MLOAD DUP2 MSTORE PUSH1 0x20 ADD DUP9 PUSH1 0xC0 ADD MLOAD DUP2 MSTORE POP PUSH1 0x40 MLOAD DUP1 PUSH1 0x40 ADD PUSH1 0x40 MSTORE DUP1 DUP10 PUSH1 0x80 ADD MLOAD DUP2 MSTORE PUSH1 0x20 ADD DUP10 PUSH1 0xA0 ADD MLOAD DUP2 MSTORE POP PUSH2 0x2CFD JUMP JUMPDEST PUSH2 0x2E25 JUMP JUMPDEST SWAP1 POP DUP1 PUSH2 0x1940 JUMPI PUSH1 0x0 SWAP7 POP POP POP POP POP POP POP PUSH2 0x1F14 JUMP JUMPDEST PUSH1 0x20 DUP1 DUP8 ADD MLOAD DUP1 MLOAD SWAP2 ADD MLOAD PUSH1 0xE0 DUP7 ADD MLOAD PUSH2 0x195B SWAP3 SWAP2 SWAP1 PUSH2 0x2BB5 JUMP JUMPDEST PUSH2 0x1996 JUMPI PUSH1 0x40 MLOAD PUSH3 0x461BCD PUSH1 0xE5 SHL DUP2 MSTORE PUSH1 0x4 ADD DUP1 DUP1 PUSH1 0x20 ADD DUP3 DUP2 SUB DUP3 MSTORE PUSH1 0x46 DUP2 MSTORE PUSH1 0x20 ADD DUP1 PUSH2 0x37C9 PUSH1 0x46 SWAP2 CODECOPY PUSH1 0x60 ADD SWAP2 POP POP PUSH1 0x40 MLOAD DUP1 SWAP2 SUB SWAP1 REVERT JUMPDEST PUSH2 0x19AA DUP5 PUSH2 0x100 ADD MLOAD DUP6 PUSH2 0x120 ADD MLOAD PUSH2 0x2BD2 JUMP JUMPDEST PUSH2 0x19FB JUMPI PUSH1 0x40 DUP1 MLOAD PUSH3 0x461BCD PUSH1 0xE5 SHL DUP2 MSTORE PUSH1 0x20 PUSH1 0x4 DUP3 ADD DUP2 SWAP1 MSTORE PUSH1 0x24 DUP3 ADD MSTORE PUSH32 0x506F696E74207A56206973206E6F7420612076616C696420454320706F696E74 PUSH1 0x44 DUP3 ADD MSTORE SWAP1 MLOAD SWAP1 DUP2 SWAP1 SUB PUSH1 0x64 ADD SWAP1 REVERT JUMPDEST PUSH2 0x1A26 DUP7 PUSH1 0x20 ADD MLOAD PUSH1 0x20 ADD MLOAD DUP6 PUSH1 0xE0 ADD MLOAD DUP8 PUSH1 0x80 ADD MLOAD PUSH1 0x80 ADD MLOAD DUP8 PUSH2 0x100 ADD MLOAD DUP9 PUSH2 0x120 ADD MLOAD PUSH2 0x2C37 JUMP JUMPDEST PUSH2 0x1A61 JUMPI PUSH1 0x40 MLOAD PUSH3 0x461BCD PUSH1 0xE5 SHL DUP2 MSTORE PUSH1 0x4 ADD DUP1 DUP1 PUSH1 0x20 ADD DUP3 DUP2 SUB DUP3 MSTORE PUSH1 0x22 DUP2 MSTORE PUSH1 0x20 ADD DUP1 PUSH2 0x36F7 PUSH1 0x22 SWAP2 CODECOPY PUSH1 0x40 ADD SWAP2 POP POP PUSH1 0x40 MLOAD DUP1 SWAP2 SUB SWAP1 REVERT JUMPDEST PUSH1 0x20 DUP1 DUP7 ADD MLOAD DUP1 MLOAD SWAP2 ADD MLOAD PUSH2 0x140 DUP7 ADD MLOAD PUSH2 0x1A7D SWAP3 SWAP2 SWAP1 PUSH2 0x2BB5 JUMP JUMPDEST PUSH2 0x1AB8 JUMPI PUSH1 0x40 MLOAD PUSH3 0x461BCD PUSH1 0xE5 SHL DUP2 MSTORE PUSH1 0x4 ADD DUP1 DUP1 PUSH1 0x20 ADD DUP3 DUP2 SUB DUP3 MSTORE PUSH1 0x48 DUP2 MSTORE PUSH1 0x20 ADD DUP1 PUSH2 0x3831 PUSH1 0x48 SWAP2 CODECOPY PUSH1 0x60 ADD SWAP2 POP POP PUSH1 0x40 MLOAD DUP1 SWAP2 SUB SWAP1 REVERT JUMPDEST PUSH2 0x1ACC DUP5 PUSH2 0x160 ADD MLOAD DUP6 PUSH2 0x180 ADD MLOAD PUSH2 0x2BD2 JUMP JUMPDEST PUSH2 0x1B07 JUMPI PUSH1 0x40 MLOAD PUSH3 0x461BCD PUSH1 0xE5 SHL DUP2 MSTORE PUSH1 0x4 ADD DUP1 DUP1 PUSH1 0x20 ADD DUP3 DUP2 SUB DUP3 MSTORE PUSH1 0x22 DUP2 MSTORE PUSH1 0x20 ADD DUP1 PUSH2 0x3971 PUSH1 0x22 SWAP2 CODECOPY PUSH1 0x40 ADD SWAP2 POP POP PUSH1 0x40 MLOAD DUP1 SWAP2 SUB SWAP1 REVERT JUMPDEST PUSH2 0x1B2B DUP6 PUSH1 0x20 ADD MLOAD PUSH1 0x20 ADD MLOAD DUP6 PUSH2 0x140 ADD MLOAD DUP5 DUP8 PUSH2 0x160 ADD MLOAD DUP9 PUSH2 0x180 ADD MLOAD PUSH2 0x2C37 JUMP JUMPDEST PUSH2 0x1B66 JUMPI PUSH1 0x40 MLOAD PUSH3 0x461BCD PUSH1 0xE5 SHL DUP2 MSTORE PUSH1 0x4 ADD DUP1 DUP1 PUSH1 0x20 ADD DUP3 DUP2 SUB DUP3 MSTORE PUSH1 0x23 DUP2 MSTORE PUSH1 0x20 ADD DUP1 PUSH2 0x3993 PUSH1 0x23 SWAP2 CODECOPY PUSH1 0x40 ADD SWAP2 POP POP PUSH1 0x40 MLOAD DUP1 SWAP2 SUB SWAP1 REVERT JUMPDEST PUSH1 0x80 DUP6 ADD MLOAD PUSH1 0x20 SWAP1 DUP2 ADD MLOAD DUP1 MLOAD SWAP2 ADD MLOAD PUSH2 0x1A0 DUP7 ADD MLOAD PUSH2 0x1B87 SWAP3 SWAP2 SWAP1 PUSH2 0x2BB5 JUMP JUMPDEST PUSH2 0x1BC2 JUMPI PUSH1 0x40 MLOAD PUSH3 0x461BCD PUSH1 0xE5 SHL DUP2 MSTORE PUSH1 0x4 ADD DUP1 DUP1 PUSH1 0x20 ADD DUP3 DUP2 SUB DUP3 MSTORE PUSH1 0x48 DUP2 MSTORE PUSH1 0x20 ADD DUP1 PUSH2 0x3719 PUSH1 0x48 SWAP2 CODECOPY PUSH1 0x60 ADD SWAP2 POP POP PUSH1 0x40 MLOAD DUP1 SWAP2 SUB SWAP1 REVERT JUMPDEST PUSH2 0x1C31 PUSH1 0x40 MLOAD DUP1 PUSH1 0x40 ADD PUSH1 0x40 MSTORE DUP1 DUP7 PUSH2 0x100 ADD MLOAD DUP2 MSTORE PUSH1 0x20 ADD DUP7 PUSH2 0x120 ADD MLOAD DUP2 MSTORE POP PUSH2 0x1925 PUSH1 0x40 MLOAD DUP1 PUSH1 0x40 ADD PUSH1 0x40 MSTORE DUP1 DUP10 PUSH1 0x80 ADD MLOAD PUSH1 0x20 ADD MLOAD PUSH1 0x20 ADD MLOAD DUP2 MSTORE PUSH1 0x20 ADD DUP9 PUSH2 0x1A0 ADD MLOAD DUP2 MSTORE POP PUSH1 0x40 MLOAD DUP1 PUSH1 0x40 ADD PUSH1 0x40 MSTORE DUP1 DUP10 PUSH2 0x160 ADD MLOAD DUP2 MSTORE PUSH1 0x20 ADD DUP10 PUSH2 0x180 ADD MLOAD DUP2 MSTORE POP PUSH2 0x2CFD JUMP JUMPDEST SWAP1 POP DUP1 PUSH2 0x1C47 JUMPI PUSH1 0x0 SWAP7 POP POP POP POP POP POP POP PUSH2 0x1F14 JUMP JUMPDEST PUSH2 0x1C5B DUP5 PUSH2 0x1C0 ADD MLOAD DUP6 PUSH2 0x1E0 ADD MLOAD PUSH2 0x2BD2 JUMP JUMPDEST PUSH2 0x1C96 JUMPI PUSH1 0x40 MLOAD PUSH3 0x461BCD PUSH1 0xE5 SHL DUP2 MSTORE PUSH1 0x4 ADD DUP1 DUP1 PUSH1 0x20 ADD DUP3 DUP2 SUB DUP3 MSTORE PUSH1 0x21 DUP2 MSTORE PUSH1 0x20 ADD DUP1 PUSH2 0x392F PUSH1 0x21 SWAP2 CODECOPY PUSH1 0x40 ADD SWAP2 POP POP PUSH1 0x40 MLOAD DUP1 SWAP2 SUB SWAP1 REVERT JUMPDEST PUSH2 0x1CF5 PUSH32 0x3C98795773FF1C241FC0B1CCED85E80F8366581DDA5C9452175EBD41385FA1F PUSH32 0x7880ED56962D7C0AE44D6F14BB53B5FE64B31EA44A41D0316F3A598778F0F936 DUP8 PUSH1 0x80 ADD MLOAD PUSH1 0x80 ADD MLOAD DUP8 PUSH2 0x1C0 ADD MLOAD DUP9 PUSH2 0x1E0 ADD MLOAD PUSH2 0x2C37 JUMP JUMPDEST PUSH2 0x1D30 JUMPI PUSH1 0x40 MLOAD PUSH3 0x461BCD PUSH1 0xE5 SHL DUP2 MSTORE PUSH1 0x4 ADD DUP1 DUP1 PUSH1 0x20 ADD DUP3 DUP2 SUB DUP3 MSTORE PUSH1 0x22 DUP2 MSTORE PUSH1 0x20 ADD DUP1 PUSH2 0x3761 PUSH1 0x22 SWAP2 CODECOPY PUSH1 0x40 ADD SWAP2 POP POP PUSH1 0x40 MLOAD DUP1 SWAP2 SUB SWAP1 REVERT JUMPDEST PUSH1 0x80 DUP6 ADD MLOAD PUSH1 0x40 ADD MLOAD DUP1 MLOAD PUSH1 0x20 SWAP1 SWAP2 ADD MLOAD PUSH2 0x200 DUP7 ADD MLOAD PUSH2 0x1D52 SWAP3 SWAP2 SWAP1 PUSH2 0x2BB5 JUMP JUMPDEST PUSH2 0x1D8D JUMPI PUSH1 0x40 MLOAD PUSH3 0x461BCD PUSH1 0xE5 SHL DUP2 MSTORE PUSH1 0x4 ADD DUP1 DUP1 PUSH1 0x20 ADD DUP3 DUP2 SUB DUP3 MSTORE PUSH1 0x48 DUP2 MSTORE PUSH1 0x20 ADD DUP1 PUSH2 0x36AF PUSH1 0x48 SWAP2 CODECOPY PUSH1 0x60 ADD SWAP2 POP POP PUSH1 0x40 MLOAD DUP1 SWAP2 SUB SWAP1 REVERT JUMPDEST PUSH2 0x1DA1 DUP5 PUSH2 0x220 ADD MLOAD DUP6 PUSH2 0x240 ADD MLOAD PUSH2 0x2BD2 JUMP JUMPDEST PUSH2 0x1DDC JUMPI PUSH1 0x40 MLOAD PUSH3 0x461BCD PUSH1 0xE5 SHL DUP2 MSTORE PUSH1 0x4 ADD DUP1 DUP1 PUSH1 0x20 ADD DUP3 DUP2 SUB DUP3 MSTORE PUSH1 0x22 DUP2 MSTORE PUSH1 0x20 ADD DUP1 PUSH2 0x35DB PUSH1 0x22 SWAP2 CODECOPY PUSH1 0x40 ADD SWAP2 POP POP PUSH1 0x40 MLOAD DUP1 SWAP2 SUB SWAP1 REVERT JUMPDEST PUSH2 0x1E04 DUP6 PUSH1 0x80 ADD MLOAD PUSH1 0x40 ADD MLOAD PUSH1 0x20 ADD MLOAD DUP6 PUSH2 0x200 ADD MLOAD DUP5 DUP8 PUSH2 0x220 ADD MLOAD DUP9 PUSH2 0x240 ADD MLOAD PUSH2 0x2C37 JUMP JUMPDEST PUSH2 0x1E3F JUMPI PUSH1 0x40 MLOAD PUSH3 0x461BCD PUSH1 0xE5 SHL DUP2 MSTORE PUSH1 0x4 ADD DUP1 DUP1 PUSH1 0x20 ADD DUP3 DUP2 SUB DUP3 MSTORE PUSH1 0x23 DUP2 MSTORE PUSH1 0x20 ADD DUP1 PUSH2 0x3993 PUSH1 0x23 SWAP2 CODECOPY PUSH1 0x40 ADD SWAP2 POP POP PUSH1 0x40 MLOAD DUP1 SWAP2 SUB SWAP1 REVERT JUMPDEST PUSH1 0x80 DUP6 ADD MLOAD PUSH1 0x60 ADD MLOAD DUP1 MLOAD PUSH1 0x20 SWAP1 SWAP2 ADD MLOAD PUSH2 0x260 DUP7 ADD MLOAD PUSH2 0x1E61 SWAP3 SWAP2 SWAP1 PUSH2 0x2BB5 JUMP JUMPDEST PUSH2 0x1E9C JUMPI PUSH1 0x40 MLOAD PUSH3 0x461BCD PUSH1 0xE5 SHL DUP2 MSTORE PUSH1 0x4 ADD DUP1 DUP1 PUSH1 0x20 ADD DUP3 DUP2 SUB DUP3 MSTORE PUSH1 0x48 DUP2 MSTORE PUSH1 0x20 ADD DUP1 PUSH2 0x361F PUSH1 0x48 SWAP2 CODECOPY PUSH1 0x60 ADD SWAP2 POP POP PUSH1 0x40 MLOAD DUP1 SWAP2 SUB SWAP1 REVERT JUMPDEST PUSH2 0x1F0B PUSH1 0x40 MLOAD DUP1 PUSH1 0x40 ADD PUSH1 0x40 MSTORE DUP1 DUP7 PUSH2 0x1C0 ADD MLOAD DUP2 MSTORE PUSH1 0x20 ADD DUP7 PUSH2 0x1E0 ADD MLOAD DUP2 MSTORE POP PUSH2 0x1925 PUSH1 0x40 MLOAD DUP1 PUSH1 0x40 ADD PUSH1 0x40 MSTORE DUP1 DUP10 PUSH1 0x80 ADD MLOAD PUSH1 0x60 ADD MLOAD PUSH1 0x20 ADD MLOAD DUP2 MSTORE PUSH1 0x20 ADD DUP9 PUSH2 0x260 ADD MLOAD DUP2 MSTORE POP PUSH1 0x40 MLOAD DUP1 PUSH1 0x40 ADD PUSH1 0x40 MSTORE DUP1 DUP10 PUSH2 0x220 ADD MLOAD DUP2 MSTORE PUSH1 0x20 ADD DUP10 PUSH2 0x240 ADD MLOAD DUP2 MSTORE POP PUSH2 0x2CFD JUMP JUMPDEST SWAP7 POP POP POP POP POP POP POP JUMPDEST SWAP4 SWAP3 POP POP POP JUMP JUMPDEST PUSH1 0x0 DUP2 MLOAD PUSH1 0x40 EQ PUSH2 0x1F5D JUMPI PUSH1 0x40 MLOAD PUSH3 0x461BCD PUSH1 0xE5 SHL DUP2 MSTORE PUSH1 0x4 ADD DUP1 DUP1 PUSH1 0x20 ADD DUP3 DUP2 SUB DUP3 MSTORE PUSH1 0x25 DUP2 MSTORE PUSH1 0x20 ADD DUP1 PUSH2 0x390A PUSH1 0x25 SWAP2 CODECOPY PUSH1 0x40 ADD SWAP2 POP POP PUSH1 0x40 MLOAD DUP1 SWAP2 SUB SWAP1 REVERT JUMPDEST PUSH1 0x20 DUP3 ADD MLOAD PUSH1 0x40 DUP4 ADD MLOAD PUSH2 0x1F71 DUP3 DUP3 PUSH2 0x2BD2 JUMP JUMPDEST SWAP3 POP POP POP JUMPDEST SWAP2 SWAP1 POP JUMP JUMPDEST PUSH2 0x1F83 PUSH2 0x3419 JUMP JUMPDEST DUP2 MLOAD PUSH2 0x2B9 EQ PUSH2 0x1F92 JUMPI PUSH1 0x0 DUP1 REVERT JUMPDEST PUSH1 0x0 PUSH2 0x1F9D DUP4 PUSH2 0x2E8D JUMP JUMPDEST SWAP1 POP DUP1 PUSH2 0x1FA9 DUP2 PUSH2 0x2E93 JUMP JUMPDEST DUP4 MSTORE PUSH1 0x20 ADD PUSH2 0x1FB7 DUP2 PUSH2 0x2E93 JUMP JUMPDEST PUSH1 0x20 DUP1 DUP6 ADD SWAP2 SWAP1 SWAP2 MSTORE ADD PUSH2 0x1FCA DUP2 PUSH2 0x2E93 JUMP JUMPDEST PUSH1 0x40 DUP5 ADD MSTORE PUSH1 0x20 ADD PUSH2 0x1FDB DUP2 PUSH2 0x2E93 JUMP JUMPDEST PUSH1 0x60 DUP5 ADD MSTORE PUSH1 0x20 ADD PUSH2 0x1FEC DUP2 PUSH2 0x2E93 JUMP JUMPDEST PUSH1 0x80 DUP5 ADD MSTORE PUSH1 0x20 ADD PUSH2 0x1FFD DUP2 PUSH2 0x2E93 JUMP JUMPDEST PUSH1 0xA0 DUP5 ADD MSTORE PUSH1 0x20 ADD PUSH2 0x200E DUP2 PUSH2 0x2E93 JUMP JUMPDEST PUSH1 0xC0 DUP5 ADD MSTORE PUSH1 0x20 ADD PUSH2 0x201F DUP2 PUSH2 0x2E93 JUMP JUMPDEST PUSH1 0xE0 DUP5 ADD MSTORE PUSH1 0x20 ADD PUSH2 0x2030 DUP2 PUSH2 0x2E93 JUMP JUMPDEST PUSH2 0x100 DUP5 ADD MSTORE PUSH1 0x20 ADD PUSH2 0x2042 DUP2 PUSH2 0x2E93 JUMP JUMPDEST PUSH2 0x120 DUP5 ADD MSTORE PUSH1 0x20 ADD PUSH2 0x2054 DUP2 PUSH2 0x2E93 JUMP JUMPDEST PUSH2 0x140 DUP5 ADD MSTORE PUSH1 0x20 ADD PUSH2 0x2066 DUP2 PUSH2 0x2E93 JUMP JUMPDEST PUSH2 0x160 DUP5 ADD MSTORE PUSH1 0x20 ADD PUSH2 0x2078 DUP2 PUSH2 0x2E93 JUMP JUMPDEST PUSH2 0x180 DUP5 ADD MSTORE PUSH1 0x20 ADD PUSH2 0x208A DUP2 PUSH2 0x2E93 JUMP JUMPDEST PUSH2 0x1A0 DUP5 ADD MSTORE PUSH1 0x20 ADD PUSH2 0x209C DUP2 PUSH2 0x2E93 JUMP JUMPDEST PUSH2 0x1C0 DUP5 ADD MSTORE PUSH1 0x20 ADD PUSH2 0x20AE DUP2 PUSH2 0x2E93 JUMP JUMPDEST PUSH2 0x1E0 DUP5 ADD MSTORE PUSH1 0x20 ADD PUSH2 0x20C0 DUP2 PUSH2 0x2E93 JUMP JUMPDEST PUSH2 0x200 DUP5 ADD MSTORE PUSH1 0x20 ADD PUSH2 0x20D2 DUP2 PUSH2 0x2E93 JUMP JUMPDEST PUSH2 0x220 DUP5 ADD MSTORE PUSH1 0x20 ADD PUSH2 0x20E4 DUP2 PUSH2 0x2E93 JUMP JUMPDEST PUSH2 0x240 DUP5 ADD MSTORE PUSH1 0x20 ADD PUSH2 0x20F6 DUP2 PUSH2 0x2E93 JUMP JUMPDEST PUSH2 0x260 DUP5 ADD MSTORE PUSH1 0x20 ADD PUSH2 0x2108 DUP2 PUSH2 0x2E93 JUMP JUMPDEST PUSH2 0x280 DUP5 ADD MSTORE PUSH1 0x20 ADD PUSH2 0x211A DUP2 PUSH2 0x2E93 JUMP JUMPDEST PUSH1 0x60 SHR PUSH2 0x2A0 DUP5 ADD MSTORE PUSH1 0x14 ADD PUSH2 0x212F DUP2 PUSH2 0x2E93 JUMP JUMPDEST PUSH1 0x1 PUSH1 0x1 PUSH1 0xD8 SHL SUB NOT AND PUSH2 0x2C0 DUP5 ADD MSTORE PUSH1 0x5 ADD PUSH2 0x2B9 DUP3 ADD DUP2 EQ PUSH2 0x2152 JUMPI PUSH1 0x0 DUP1 REVERT JUMPDEST POP POP SWAP2 SWAP1 POP JUMP JUMPDEST PUSH1 0x0 DUP3 MLOAD PUSH1 0x40 EQ PUSH2 0x2169 JUMPI PUSH1 0x0 DUP1 REVERT JUMPDEST PUSH2 0x217C PUSH2 0x2176 DUP7 DUP5 PUSH2 0x1396 JUMP JUMPDEST DUP6 PUSH2 0x2529 JUMP JUMPDEST PUSH1 0x1 PUSH1 0x1 PUSH1 0xA0 SHL SUB AND PUSH2 0x218E DUP5 PUSH2 0x2E97 JUMP JUMPDEST PUSH1 0x1 PUSH1 0x1 PUSH1 0xA0 SHL SUB AND EQ SWAP6 SWAP5 POP POP POP POP POP JUMP JUMPDEST PUSH2 0x21A9 PUSH2 0x34DD JUMP JUMPDEST DUP2 MLOAD PUSH2 0x167 DUP2 LT ISZERO PUSH2 0x21BA JUMPI PUSH1 0x0 DUP1 REVERT JUMPDEST PUSH1 0x0 PUSH2 0x21C5 DUP5 PUSH2 0x2E8D JUMP JUMPDEST SWAP1 POP PUSH2 0x21D5 DUP2 DUP5 PUSH1 0x0 ADD MLOAD PUSH2 0x2EA2 JUMP JUMPDEST SWAP1 POP PUSH2 0x21E5 DUP2 DUP5 PUSH1 0x20 ADD MLOAD PUSH2 0x2EA2 JUMP JUMPDEST SWAP1 POP PUSH2 0x21F0 DUP2 PUSH2 0x2E93 JUMP JUMPDEST PUSH1 0x40 DUP5 ADD MSTORE PUSH1 0x60 DUP4 ADD MLOAD PUSH1 0x20 SWAP2 SWAP1 SWAP2 ADD SWAP1 PUSH2 0x220C SWAP1 DUP3 SWAP1 PUSH2 0x2EA2 JUMP JUMPDEST SWAP1 POP PUSH2 0x221C DUP2 PUSH1 0x82 NOT DUP5 ADD PUSH2 0x2EBD JUMP JUMPDEST PUSH1 0x80 DUP5 ADD MSTORE POP SWAP1 SWAP3 SWAP2 POP POP JUMP JUMPDEST PUSH1 0x0 PUSH1 0x1 PUSH1 0x1 PUSH1 0xF8 SHL SUB NOT DUP3 AND PUSH2 0x22DC JUMPI PUSH1 0x40 MLOAD PUSH1 0x19 PUSH1 0xF8 SHL PUSH1 0x20 DUP1 DUP4 ADD DUP3 DUP2 MSTORE PUSH1 0x0 PUSH1 0x21 DUP6 ADD DUP2 SWAP1 MSTORE ADDRESS PUSH1 0x60 DUP2 SWAP1 SHL PUSH1 0x22 DUP8 ADD MSTORE DUP9 MLOAD SWAP1 SWAP6 SWAP2 SWAP4 DUP7 SWAP4 DUP11 SWAP4 SWAP1 SWAP3 PUSH1 0x36 SWAP1 SWAP2 ADD SWAP2 DUP5 ADD SWAP1 DUP1 DUP4 DUP4 JUMPDEST PUSH1 0x20 DUP4 LT PUSH2 0x2296 JUMPI DUP1 MLOAD DUP3 MSTORE PUSH1 0x1F NOT SWAP1 SWAP3 ADD SWAP2 PUSH1 0x20 SWAP2 DUP3 ADD SWAP2 ADD PUSH2 0x2277 JUMP JUMPDEST PUSH1 0x1 DUP4 PUSH1 0x20 SUB PUSH2 0x100 EXP SUB DUP1 NOT DUP3 MLOAD AND DUP2 DUP5 MLOAD AND DUP1 DUP3 OR DUP6 MSTORE POP POP POP POP POP POP SWAP1 POP ADD SWAP5 POP POP POP POP POP PUSH1 0x40 MLOAD PUSH1 0x20 DUP2 DUP4 SUB SUB DUP2 MSTORE SWAP1 PUSH1 0x40 MSTORE DUP1 MLOAD SWAP1 PUSH1 0x20 ADD KECCAK256 SWAP2 POP POP PUSH2 0x14E8 JUMP JUMPDEST PUSH1 0x1 PUSH1 0x1 PUSH1 0xF8 SHL SUB NOT DUP3 AND PUSH1 0x45 PUSH1 0xF8 SHL EQ ISZERO PUSH2 0x24DC JUMPI DUP3 MLOAD DUP1 PUSH2 0x2330 JUMPI PUSH1 0x40 MLOAD PUSH3 0x461BCD PUSH1 0xE5 SHL DUP2 MSTORE PUSH1 0x4 ADD DUP1 DUP1 PUSH1 0x20 ADD DUP3 DUP2 SUB DUP3 MSTORE PUSH1 0x27 DUP2 MSTORE PUSH1 0x20 ADD DUP1 PUSH2 0x3879 PUSH1 0x27 SWAP2 CODECOPY PUSH1 0x40 ADD SWAP2 POP POP PUSH1 0x40 MLOAD DUP1 SWAP2 SUB SWAP1 REVERT JUMPDEST PUSH1 0x0 JUMPDEST DUP2 ISZERO PUSH2 0x2347 JUMPI PUSH1 0x1 ADD PUSH1 0xA DUP3 DIV SWAP2 POP PUSH2 0x2333 JUMP JUMPDEST PUSH1 0x60 DUP2 PUSH8 0xFFFFFFFFFFFFFFFF DUP2 GT DUP1 ISZERO PUSH2 0x2360 JUMPI PUSH1 0x0 DUP1 REVERT JUMPDEST POP PUSH1 0x40 MLOAD SWAP1 DUP1 DUP3 MSTORE DUP1 PUSH1 0x1F ADD PUSH1 0x1F NOT AND PUSH1 0x20 ADD DUP3 ADD PUSH1 0x40 MSTORE DUP1 ISZERO PUSH2 0x238B JUMPI PUSH1 0x20 DUP3 ADD DUP2 DUP1 CALLDATASIZE DUP4 CALLDATACOPY ADD SWAP1 POP JUMPDEST POP DUP7 MLOAD SWAP4 POP SWAP1 POP PUSH1 0x0 NOT DUP3 ADD JUMPDEST DUP4 ISZERO PUSH2 0x23DD JUMPI PUSH1 0xA DUP5 MOD PUSH1 0x30 ADD PUSH1 0xF8 SHL DUP3 DUP3 DUP1 PUSH1 0x1 SWAP1 SUB SWAP4 POP DUP2 MLOAD DUP2 LT PUSH2 0x23BB JUMPI INVALID JUMPDEST PUSH1 0x20 ADD ADD SWAP1 PUSH1 0x1 PUSH1 0x1 PUSH1 0xF8 SHL SUB NOT AND SWAP1 DUP2 PUSH1 0x0 BYTE SWAP1 MSTORE8 POP PUSH1 0xA DUP5 DIV SWAP4 POP PUSH2 0x2398 JUMP JUMPDEST PUSH1 0x40 MLOAD PUSH1 0x19 PUSH1 0xF8 SHL PUSH1 0x20 DUP1 DUP4 ADD DUP3 DUP2 MSTORE PUSH32 0x457468657265756D205369676E6564204D6573736167653A0A00000000000000 PUSH1 0x21 DUP6 ADD DUP2 SWAP1 MSTORE DUP7 MLOAD SWAP4 SWAP5 SWAP1 SWAP4 DUP8 SWAP4 DUP14 SWAP4 SWAP3 PUSH1 0x3A ADD SWAP2 SWAP1 DUP6 ADD SWAP1 DUP1 DUP4 DUP4 JUMPDEST PUSH1 0x20 DUP4 LT PUSH2 0x244B JUMPI DUP1 MLOAD DUP3 MSTORE PUSH1 0x1F NOT SWAP1 SWAP3 ADD SWAP2 PUSH1 0x20 SWAP2 DUP3 ADD SWAP2 ADD PUSH2 0x242C JUMP JUMPDEST MLOAD DUP2 MLOAD PUSH1 0x20 SWAP4 DUP5 SUB PUSH2 0x100 EXP PUSH1 0x0 NOT ADD DUP1 NOT SWAP1 SWAP3 AND SWAP2 AND OR SWAP1 MSTORE DUP6 MLOAD SWAP2 SWAP1 SWAP4 ADD SWAP3 DUP6 ADD SWAP2 POP DUP1 DUP4 DUP4 JUMPDEST PUSH1 0x20 DUP4 LT PUSH2 0x2493 JUMPI DUP1 MLOAD DUP3 MSTORE PUSH1 0x1F NOT SWAP1 SWAP3 ADD SWAP2 PUSH1 0x20 SWAP2 DUP3 ADD SWAP2 ADD PUSH2 0x2474 JUMP JUMPDEST PUSH1 0x1 DUP4 PUSH1 0x20 SUB PUSH2 0x100 EXP SUB DUP1 NOT DUP3 MLOAD AND DUP2 DUP5 MLOAD AND DUP1 DUP3 OR DUP6 MSTORE POP POP POP POP POP POP SWAP1 POP ADD SWAP5 POP POP POP POP POP PUSH1 0x40 MLOAD PUSH1 0x20 DUP2 DUP4 SUB SUB DUP2 MSTORE SWAP1 PUSH1 0x40 MSTORE DUP1 MLOAD SWAP1 PUSH1 0x20 ADD KECCAK256 SWAP5 POP POP POP POP POP PUSH2 0x14E8 JUMP JUMPDEST PUSH1 0x40 DUP1 MLOAD PUSH3 0x461BCD PUSH1 0xE5 SHL DUP2 MSTORE PUSH1 0x20 PUSH1 0x4 DUP3 ADD MSTORE PUSH1 0x1A PUSH1 0x24 DUP3 ADD MSTORE PUSH32 0x556E737570706F72746564204549503139312076657273696F6E000000000000 PUSH1 0x44 DUP3 ADD MSTORE SWAP1 MLOAD SWAP1 DUP2 SWAP1 SUB PUSH1 0x64 ADD SWAP1 REVERT JUMPDEST PUSH1 0x0 DUP2 MLOAD PUSH1 0x41 EQ PUSH2 0x2539 JUMPI PUSH1 0x0 DUP1 REVERT JUMPDEST PUSH1 0x20 DUP3 ADD MLOAD PUSH1 0x40 DUP4 ADD MLOAD PUSH1 0x60 DUP5 ADD MLOAD PUSH1 0x0 BYTE PUSH1 0x1B DUP2 LT ISZERO PUSH2 0x2558 JUMPI PUSH1 0x1B ADD JUMPDEST DUP1 PUSH1 0xFF AND PUSH1 0x1B EQ DUP1 PUSH2 0x256D JUMPI POP DUP1 PUSH1 0xFF AND PUSH1 0x1C EQ JUMPDEST PUSH2 0x2576 JUMPI PUSH1 0x0 DUP1 REVERT JUMPDEST PUSH1 0x40 DUP1 MLOAD PUSH1 0x0 DUP2 MSTORE PUSH1 0x20 DUP1 DUP3 ADD DUP1 DUP5 MSTORE DUP10 SWAP1 MSTORE PUSH1 0xFF DUP5 AND DUP3 DUP5 ADD MSTORE PUSH1 0x60 DUP3 ADD DUP7 SWAP1 MSTORE PUSH1 0x80 DUP3 ADD DUP6 SWAP1 MSTORE SWAP2 MLOAD PUSH1 0x1 SWAP3 PUSH1 0xA0 DUP1 DUP5 ADD SWAP4 SWAP2 SWAP3 PUSH1 0x1F NOT DUP2 ADD SWAP3 DUP2 SWAP1 SUB SWAP1 SWAP2 ADD SWAP1 DUP6 GAS STATICCALL ISZERO DUP1 ISZERO PUSH2 0x25CD JUMPI RETURNDATASIZE PUSH1 0x0 DUP1 RETURNDATACOPY RETURNDATASIZE PUSH1 0x0 REVERT JUMPDEST POP POP PUSH1 0x40 MLOAD PUSH1 0x1F NOT ADD MLOAD SWAP8 SWAP7 POP POP POP POP POP POP POP JUMP JUMPDEST PUSH1 0x1 PUSH1 0x1 PUSH1 0xA0 SHL SUB DUP3 AND PUSH1 0x0 SWAP1 DUP2 MSTORE PUSH1 0x4 PUSH1 0x20 MSTORE PUSH1 0x40 DUP2 KECCAK256 SLOAD DUP2 SWAP1 PUSH2 0x265F SWAP1 PUSH2 0x2632 SWAP1 PUSH32 0x0 SWAP1 PUSH4 0xFFFFFFFF PUSH2 0x2FC3 AND JUMP JUMPDEST PUSH32 0x0 SWAP1 PUSH4 0xFFFFFFFF PUSH2 0x2FEA AND JUMP JUMPDEST SWAP2 POP PUSH2 0x269A DUP3 PUSH2 0x2695 DUP6 PUSH32 0x0 PUSH4 0xFFFFFFFF PUSH2 0x2FFC AND JUMP JUMPDEST PUSH2 0x301E JUMP JUMPDEST SWAP2 POP PUSH2 0x26CC DUP3 PUSH32 0x0 PUSH4 0xFFFFFFFF PUSH2 0x2FFC AND JUMP JUMPDEST PUSH1 0x1 PUSH1 0x1 PUSH1 0xA0 SHL SUB DUP6 AND PUSH1 0x0 SWAP1 DUP2 MSTORE PUSH1 0x4 PUSH1 0x20 MSTORE PUSH1 0x40 SWAP1 KECCAK256 SLOAD SWAP1 SWAP2 POP PUSH2 0x26F9 SWAP1 PUSH1 0x1 PUSH4 0xFFFFFFFF PUSH2 0x2FEA AND JUMP JUMPDEST PUSH1 0x1 PUSH1 0x1 PUSH1 0xA0 SHL SUB SWAP1 SWAP5 AND PUSH1 0x0 SWAP1 DUP2 MSTORE PUSH1 0x4 PUSH1 0x20 MSTORE PUSH1 0x40 SWAP1 KECCAK256 SWAP4 SWAP1 SWAP4 SSTORE SWAP3 SWAP1 POP JUMP JUMPDEST PUSH2 0x2724 DUP2 PUSH2 0x3034 JUMP JUMPDEST PUSH1 0x40 DUP1 MLOAD PUSH1 0x0 PUSH1 0x20 DUP1 DUP4 ADD DUP3 SWAP1 MSTORE DUP4 MLOAD DUP1 DUP5 SUB SWAP1 SWAP2 ADD DUP2 MSTORE SWAP2 DUP4 ADD SWAP1 SWAP3 MSTORE PUSH2 0x274D SWAP1 PUSH1 0x1 PUSH2 0x1396 JUMP JUMPDEST PUSH1 0x0 DUP2 DUP2 MSTORE PUSH1 0x5 PUSH1 0x20 MSTORE PUSH1 0x40 SWAP1 KECCAK256 SLOAD SWAP1 SWAP2 POP PUSH1 0xFF AND PUSH2 0x276D JUMPI PUSH1 0x0 PUSH2 0x2770 JUMP JUMPDEST PUSH1 0x1 JUMPDEST PUSH1 0xFF AND PUSH2 0x2785 DUP4 PUSH4 0x70535443 PUSH1 0xE0 SHL DUP5 PUSH2 0x308E JUMP JUMPDEST EQ PUSH2 0x278F JUMPI PUSH1 0x0 DUP1 REVERT JUMPDEST PUSH1 0x0 DUP1 DUP1 MSTORE PUSH1 0x4 PUSH1 0x20 MSTORE PUSH32 0x17EF568E3E12AB5B9C7254A8D58478811DE00F9E6EB34345ACD53BF8FD09D3EC SLOAD SWAP1 PUSH2 0x27D0 SWAP1 DUP5 SWAP1 PUSH4 0x2EADB41B PUSH1 0xE1 SHL SWAP1 PUSH2 0x308E JUMP JUMPDEST EQ PUSH2 0x27DA JUMPI PUSH1 0x0 DUP1 REVERT JUMPDEST POP POP JUMP JUMPDEST PUSH1 0x0 DUP1 PUSH2 0x27EE DUP5 DUP5 DUP4 DUP1 DUP1 PUSH2 0x30A9 JUMP JUMPDEST MLOAD SWAP5 SWAP4 POP POP POP POP JUMP JUMPDEST PUSH1 0x2 DUP1 SLOAD PUSH1 0x1 PUSH1 0xA0 SHL SWAP1 DIV PUSH1 0xFF AND EQ PUSH2 0x280F JUMPI PUSH1 0x0 DUP1 REVERT JUMPDEST PUSH1 0x40 DUP1 MLOAD CALLER DUP2 MSTORE SWAP1 MLOAD PUSH1 0x1 PUSH1 0x1 PUSH1 0xA0 SHL SUB DUP4 AND SWAP2 PUSH32 0xD55EC27C5C6316913ED8803C18CFD1BFEFEA953DB909DCBA6140744A9D8B0D1F SWAP2 SWAP1 DUP2 SWAP1 SUB PUSH1 0x20 ADD SWAP1 LOG2 POP JUMP JUMPDEST PUSH1 0x1 PUSH1 0x1 PUSH1 0xA0 SHL SUB DUP2 AND PUSH2 0x2864 JUMPI PUSH1 0x0 DUP1 REVERT JUMPDEST PUSH1 0x0 DUP1 SLOAD PUSH1 0x40 MLOAD PUSH1 0x1 PUSH1 0x1 PUSH1 0xA0 SHL SUB DUP1 DUP6 AND SWAP4 SWAP3 AND SWAP2 PUSH32 0x8BE0079C531659141344CD1FD0A4F28419497F9722A3DAAFE3B4186F6B6457E0 SWAP2 LOG3 PUSH1 0x0 DUP1 SLOAD PUSH1 0x1 PUSH1 0x1 PUSH1 0xA0 SHL SUB NOT AND PUSH1 0x1 PUSH1 0x1 PUSH1 0xA0 SHL SUB SWAP3 SWAP1 SWAP3 AND SWAP2 SWAP1 SWAP2 OR SWAP1 SSTORE JUMP JUMPDEST PUSH2 0x28C7 PUSH2 0x3523 JUMP JUMPDEST DUP2 MLOAD PUSH1 0x62 EQ PUSH2 0x28D5 JUMPI PUSH1 0x0 DUP1 REVERT JUMPDEST PUSH1 0x0 PUSH2 0x28E0 DUP4 PUSH2 0x2E8D JUMP JUMPDEST SWAP1 POP PUSH2 0x28F0 DUP2 DUP4 PUSH1 0x0 ADD MLOAD PUSH2 0x2EA2 JUMP JUMPDEST SWAP1 POP PUSH2 0x2900 DUP2 DUP4 PUSH1 0x20 ADD MLOAD PUSH2 0x2EA2 JUMP JUMPDEST SWAP1 POP PUSH2 0x290B DUP2 PUSH2 0x2E93 JUMP JUMPDEST PUSH1 0x40 DUP4 ADD MSTORE POP SWAP2 SWAP1 POP JUMP JUMPDEST DUP2 MLOAD DUP1 MLOAD PUSH1 0x20 SWAP2 DUP3 ADD MLOAD DUP4 MLOAD DUP1 MLOAD SWAP1 DUP5 ADD MLOAD PUSH1 0x80 DUP7 ADD DUP1 MLOAD MLOAD DUP1 MLOAD SWAP1 DUP8 ADD MLOAD PUSH1 0x40 DUP1 MLOAD PUSH1 0x1 PUSH1 0x1 PUSH1 0xF8 SHL SUB NOT PUSH1 0xF8 SWAP10 DUP11 SHL DUP2 AND DUP3 DUP13 ADD MSTORE PUSH1 0x21 DUP3 ADD SWAP9 SWAP1 SWAP9 MSTORE SWAP6 DUP9 SHL DUP8 AND PUSH1 0x41 DUP8 ADD MSTORE PUSH1 0x42 DUP7 ADD SWAP5 SWAP1 SWAP5 MSTORE SWAP6 SHL SWAP1 SWAP4 AND PUSH1 0x62 DUP4 ADD MSTORE PUSH1 0x63 DUP1 DUP4 ADD SWAP5 SWAP1 SWAP5 MSTORE DUP1 MLOAD DUP1 DUP4 SUB SWAP1 SWAP5 ADD DUP5 MSTORE PUSH1 0x83 DUP3 ADD SWAP1 MSTORE DUP4 DUP7 ADD MLOAD DUP1 MLOAD SWAP1 DUP6 ADD MLOAD DUP7 DUP7 ADD MLOAD DUP1 MLOAD SWAP1 DUP8 ADD MLOAD SWAP5 MLOAD DUP8 ADD MLOAD DUP1 MLOAD SWAP1 DUP9 ADD MLOAD DUP8 MLOAD PUSH1 0x0 SWAP10 DUP10 SWAP9 SWAP7 SWAP8 SWAP6 SWAP7 SWAP5 SWAP6 PUSH1 0xA3 ADD SWAP2 DUP3 SWAP2 DUP11 ADD SWAP1 DUP1 DUP4 DUP4 JUMPDEST PUSH1 0x20 DUP4 LT PUSH2 0x29E2 JUMPI DUP1 MLOAD DUP3 MSTORE PUSH1 0x1F NOT SWAP1 SWAP3 ADD SWAP2 PUSH1 0x20 SWAP2 DUP3 ADD SWAP2 ADD PUSH2 0x29C3 JUMP JUMPDEST MLOAD DUP2 MLOAD PUSH1 0x20 SWAP4 DUP5 SUB PUSH2 0x100 EXP PUSH1 0x0 NOT ADD DUP1 NOT SWAP1 SWAP3 AND SWAP2 AND OR SWAP1 MSTORE PUSH1 0xF8 SWAP11 DUP12 SHL PUSH1 0x1 PUSH1 0x1 PUSH1 0xF8 SHL SUB NOT SWAP1 DUP2 AND SWAP3 SWAP1 SWAP5 ADD SWAP2 DUP3 MSTORE PUSH1 0x1 DUP3 ADD SWAP10 SWAP1 SWAP10 MSTORE SWAP7 DUP10 SHL DUP3 AND PUSH1 0x21 DUP9 ADD MSTORE POP PUSH1 0x22 DUP7 ADD SWAP5 SWAP1 SWAP5 MSTORE POP SWAP5 SHL AND PUSH1 0x42 DUP3 ADD MSTORE PUSH1 0x43 DUP1 DUP3 ADD SWAP4 SWAP1 SWAP4 MSTORE PUSH1 0x40 DUP1 MLOAD DUP1 DUP4 SUB SWAP1 SWAP5 ADD DUP5 MSTORE PUSH1 0x63 DUP3 ADD DUP2 MSTORE PUSH1 0x80 DUP9 ADD MLOAD SWAP1 DUP2 ADD MLOAD DUP1 MLOAD SWAP1 DUP5 ADD MLOAD PUSH1 0x60 DUP4 ADD MLOAD DUP1 MLOAD SWAP1 DUP7 ADD MLOAD PUSH1 0xC0 SWAP1 SWAP5 ADD MLOAD DUP8 MLOAD SWAP8 SWAP10 POP DUP10 SWAP9 POP PUSH1 0x1 PUSH1 0xF9 SHL SWAP8 PUSH32 0x3C98795773FF1C241FC0B1CCED85E80F8366581DDA5C9452175EBD41385FA1F SWAP8 SWAP5 SWAP7 SWAP4 SWAP6 SWAP3 SWAP5 SWAP3 SWAP4 SWAP2 SWAP3 PUSH1 0x83 SWAP1 SWAP3 ADD SWAP2 DUP3 SWAP2 SWAP1 DUP12 ADD SWAP1 DUP1 DUP4 DUP4 JUMPDEST PUSH1 0x20 DUP4 LT PUSH2 0x2ADC JUMPI DUP1 MLOAD DUP3 MSTORE PUSH1 0x1F NOT SWAP1 SWAP3 ADD SWAP2 PUSH1 0x20 SWAP2 DUP3 ADD SWAP2 ADD PUSH2 0x2ABD JUMP JUMPDEST MLOAD DUP2 MLOAD PUSH1 0x20 SWAP4 DUP5 SUB PUSH2 0x100 EXP PUSH1 0x0 NOT ADD DUP1 NOT SWAP1 SWAP3 AND SWAP2 AND OR SWAP1 MSTORE PUSH1 0x1 PUSH1 0x1 PUSH1 0xF8 SHL SUB NOT DUP13 DUP2 AND SWAP3 SWAP1 SWAP5 ADD SWAP2 DUP3 MSTORE PUSH1 0x1 DUP3 ADD DUP12 SWAP1 MSTORE PUSH1 0xF8 DUP11 DUP2 SHL DUP6 AND PUSH1 0x21 DUP5 ADD MSTORE PUSH1 0x22 DUP4 ADD DUP11 SWAP1 MSTORE DUP9 SWAP1 SHL SWAP1 SWAP4 AND PUSH1 0x42 DUP3 ADD MSTORE PUSH1 0x43 DUP2 ADD DUP7 SWAP1 MSTORE DUP5 MLOAD PUSH1 0x63 SWAP1 SWAP2 ADD SWAP3 DUP6 ADD SWAP2 POP DUP1 DUP4 DUP4 JUMPDEST PUSH1 0x20 DUP4 LT PUSH2 0x2B64 JUMPI DUP1 MLOAD DUP3 MSTORE PUSH1 0x1F NOT SWAP1 SWAP3 ADD SWAP2 PUSH1 0x20 SWAP2 DUP3 ADD SWAP2 ADD PUSH2 0x2B45 JUMP JUMPDEST PUSH1 0x1 DUP4 PUSH1 0x20 SUB PUSH2 0x100 EXP SUB DUP1 NOT DUP3 MLOAD AND DUP2 DUP5 MLOAD AND DUP1 DUP3 OR DUP6 MSTORE POP POP POP POP POP POP SWAP1 POP ADD SWAP9 POP POP POP POP POP POP POP POP POP PUSH1 0x40 MLOAD PUSH1 0x20 DUP2 DUP4 SUB SUB DUP2 MSTORE SWAP1 PUSH1 0x40 MSTORE SWAP1 POP PUSH1 0x0 PUSH2 0x2BAC DUP3 PUSH2 0x30F9 JUMP JUMPDEST SWAP6 SWAP5 POP POP POP POP POP JUMP JUMPDEST PUSH1 0x0 PUSH1 0x1 DUP3 AND PUSH1 0x1 NOT DUP6 ADD PUSH1 0xFF AND EQ DUP1 DUP1 ISZERO PUSH2 0x2BAC JUMPI POP PUSH2 0x2BAC DUP5 DUP5 JUMPDEST PUSH1 0x0 PUSH5 0x1000003D0 NOT DUP1 DUP5 LT ISZERO DUP1 PUSH2 0x2BEA JUMPI POP DUP1 DUP4 LT ISZERO JUMPDEST ISZERO PUSH2 0x2BF9 JUMPI PUSH1 0x0 SWAP2 POP POP PUSH2 0x14E8 JUMP JUMPDEST PUSH1 0x0 DUP2 DUP1 PUSH2 0x2C03 JUMPI INVALID JUMPDEST DUP5 DUP6 MULMOD SWAP1 POP PUSH1 0x0 DUP3 DUP1 PUSH2 0x2C12 JUMPI INVALID JUMPDEST PUSH1 0x7 DUP5 DUP1 PUSH2 0x2C1C JUMPI INVALID JUMPDEST DUP9 DUP7 DUP1 PUSH2 0x2C25 JUMPI INVALID JUMPDEST DUP11 DUP12 MULMOD MULMOD ADDMOD SWAP2 SWAP1 SWAP2 EQ SWAP6 SWAP5 POP POP POP POP POP JUMP JUMPDEST PUSH1 0x0 PUSH17 0x14551231950B75FC4402DA1732FC9BEBE NOT DUP2 PUSH1 0x1 DUP2 PUSH1 0x1B DUP10 DUP4 AND ADD DUP11 DUP6 DUP13 DUP12 MULMOD PUSH1 0x40 DUP1 MLOAD PUSH1 0x0 DUP2 MSTORE PUSH1 0x20 DUP1 DUP3 ADD DUP1 DUP5 MSTORE SWAP7 SWAP1 SWAP7 MSTORE PUSH1 0xFF SWAP1 SWAP5 AND DUP5 DUP3 ADD MSTORE PUSH1 0x60 DUP5 ADD SWAP3 SWAP1 SWAP3 MSTORE PUSH1 0x80 DUP4 ADD MSTORE MLOAD PUSH1 0xA0 DUP1 DUP4 ADD SWAP4 SWAP3 PUSH1 0x1F NOT DUP4 ADD SWAP3 SWAP1 DUP2 SWAP1 SUB SWAP1 SWAP2 ADD SWAP1 DUP6 GAS STATICCALL ISZERO DUP1 ISZERO PUSH2 0x2CAF JUMPI RETURNDATASIZE PUSH1 0x0 DUP1 RETURNDATACOPY RETURNDATASIZE PUSH1 0x0 REVERT JUMPDEST POP POP PUSH1 0x40 DUP1 MLOAD PUSH1 0x1F NOT DUP2 ADD MLOAD PUSH1 0x20 DUP3 DUP2 ADD DUP11 SWAP1 MSTORE DUP3 DUP5 ADD DUP10 SWAP1 MSTORE DUP4 MLOAD DUP1 DUP5 SUB DUP6 ADD DUP2 MSTORE PUSH1 0x60 SWAP1 SWAP4 ADD SWAP1 SWAP4 MSTORE DUP2 MLOAD SWAP2 SWAP1 SWAP3 ADD KECCAK256 PUSH1 0x1 PUSH1 0x1 PUSH1 0xA0 SHL SUB SWAP2 DUP3 AND SWAP2 AND EQ SWAP4 POP POP POP POP SWAP6 SWAP5 POP POP POP POP POP JUMP JUMPDEST PUSH2 0x2D05 PUSH2 0x3550 JUMP JUMPDEST DUP3 MLOAD PUSH1 0x20 DUP1 DUP6 ADD MLOAD DUP5 MLOAD SWAP2 DUP6 ADD MLOAD PUSH5 0x1000003D0 NOT SWAP4 SWAP3 SWAP1 DUP2 DUP5 EQ DUP1 ISZERO PUSH2 0x2D2B JUMPI POP DUP1 DUP4 EQ JUMPDEST ISZERO PUSH2 0x2D60 JUMPI PUSH2 0x2D54 PUSH1 0x40 MLOAD DUP1 PUSH1 0x60 ADD PUSH1 0x40 MSTORE DUP1 DUP7 DUP2 MSTORE PUSH1 0x20 ADD DUP6 DUP2 MSTORE PUSH1 0x20 ADD PUSH1 0x1 DUP2 MSTORE POP PUSH2 0x32DD JUMP JUMPDEST SWAP6 POP POP POP POP POP POP PUSH2 0x14E8 JUMP JUMPDEST PUSH1 0x0 DUP6 DUP1 PUSH2 0x2D6A JUMPI INVALID JUMPDEST DUP5 DUP8 SUB DUP4 ADDMOD SWAP1 POP PUSH1 0x0 DUP7 DUP1 PUSH2 0x2D7B JUMPI INVALID JUMPDEST DUP7 DUP9 SUB DUP6 ADDMOD SWAP1 POP PUSH1 0x0 DUP8 DUP1 PUSH2 0x2D8C JUMPI INVALID JUMPDEST DUP3 DUP4 MULMOD SWAP1 POP PUSH1 0x0 DUP9 DUP1 PUSH2 0x2D9B JUMPI INVALID JUMPDEST DUP4 DUP4 MULMOD SWAP1 POP PUSH1 0x0 DUP10 DUP1 PUSH2 0x2DAA JUMPI INVALID JUMPDEST DUP4 DUP11 MULMOD SWAP1 POP DUP10 DUP1 PUSH2 0x2DB7 JUMPI INVALID JUMPDEST DUP11 DUP1 PUSH2 0x2DBF JUMPI INVALID JUMPDEST DUP4 DUP13 DUP1 PUSH2 0x2DC8 JUMPI INVALID JUMPDEST DUP5 PUSH1 0x2 MULMOD ADDMOD DUP12 SUB DUP12 DUP1 PUSH2 0x2DD7 JUMPI INVALID JUMPDEST DUP8 DUP9 MULMOD ADDMOD DUP12 MSTORE DUP10 DUP1 PUSH2 0x2DE5 JUMPI INVALID JUMPDEST DUP11 DUP1 PUSH2 0x2DED JUMPI INVALID JUMPDEST DUP4 DUP11 MULMOD DUP12 SUB DUP12 DUP1 PUSH2 0x2DFA JUMPI INVALID JUMPDEST DUP13 DUP1 PUSH2 0x2E02 JUMPI INVALID JUMPDEST DUP15 MLOAD DUP15 SUB DUP6 ADDMOD DUP9 MULMOD ADDMOD PUSH1 0x20 DUP13 ADD MSTORE POP POP POP PUSH1 0x40 DUP9 ADD MSTORE POP SWAP5 SWAP8 SWAP7 POP POP POP POP POP POP POP JUMP JUMPDEST PUSH1 0x40 DUP2 ADD MLOAD PUSH1 0x0 SWAP1 DUP1 PUSH2 0x2E3C JUMPI PUSH1 0x0 SWAP2 POP POP PUSH2 0x14E8 JUMP JUMPDEST PUSH5 0x1000003D0 NOT PUSH1 0x0 DUP2 DUP4 DUP5 MULMOD DUP6 MLOAD SWAP1 SWAP2 POP DUP3 DUP1 PUSH2 0x2E56 JUMPI INVALID JUMPDEST DUP8 MLOAD DUP4 SWAP1 MULMOD EQ DUP1 ISZERO PUSH2 0x2E83 JUMPI POP PUSH1 0x20 DUP6 ADD MLOAD DUP3 DUP1 PUSH2 0x2E70 JUMPI INVALID JUMPDEST DUP4 DUP1 PUSH2 0x2E78 JUMPI INVALID JUMPDEST DUP6 DUP5 MULMOD PUSH1 0x20 DUP10 ADD MLOAD MULMOD EQ JUMPDEST SWAP7 SWAP6 POP POP POP POP POP POP JUMP JUMPDEST PUSH1 0x20 ADD SWAP1 JUMP JUMPDEST MLOAD SWAP1 JUMP JUMPDEST DUP1 MLOAD PUSH1 0x20 SWAP1 SWAP2 ADD KECCAK256 SWAP1 JUMP JUMPDEST DUP2 MLOAD PUSH1 0x1 DUP4 ADD MLOAD PUSH1 0x0 SWAP2 SWAP1 SWAP2 BYTE DUP3 MSTORE PUSH1 0x20 SWAP1 SWAP2 ADD MSTORE PUSH1 0x21 ADD SWAP1 JUMP JUMPDEST PUSH2 0x2EC5 PUSH2 0x356E JUMP JUMPDEST PUSH1 0xE4 DUP3 LT ISZERO PUSH2 0x2ED3 JUMPI PUSH1 0x0 DUP1 REVERT JUMPDEST PUSH2 0x2EE1 DUP4 DUP3 PUSH1 0x0 ADD MLOAD PUSH2 0x2EA2 JUMP JUMPDEST SWAP3 POP PUSH2 0x2EF1 DUP4 DUP3 PUSH1 0x20 ADD MLOAD PUSH2 0x2EA2 JUMP JUMPDEST SWAP3 POP PUSH2 0x2F01 DUP4 DUP3 PUSH1 0x40 ADD MLOAD PUSH2 0x2EA2 JUMP JUMPDEST SWAP3 POP PUSH2 0x2F11 DUP4 DUP3 PUSH1 0x60 ADD MLOAD PUSH2 0x2EA2 JUMP JUMPDEST SWAP3 POP PUSH2 0x2F1C DUP4 PUSH2 0x2E93 JUMP JUMPDEST PUSH1 0x80 DUP3 ADD MSTORE PUSH1 0x40 DUP1 MLOAD DUP2 DUP2 MSTORE PUSH1 0x60 DUP2 ADD DUP3 MSTORE PUSH1 0x20 SWAP5 SWAP1 SWAP5 ADD SWAP4 SWAP1 PUSH1 0x20 DUP3 ADD DUP2 DUP1 CALLDATASIZE DUP4 CALLDATACOPY POP POP POP PUSH1 0xA0 DUP3 ADD DUP2 SWAP1 MSTORE PUSH2 0x2F56 SWAP1 DUP5 SWAP1 PUSH1 0x40 PUSH2 0x33D2 JUMP JUMPDEST SWAP3 POP PUSH1 0xE4 DUP3 GT ISZERO PUSH2 0x14E8 JUMPI PUSH1 0xE3 NOT DUP3 ADD PUSH8 0xFFFFFFFFFFFFFFFF DUP2 GT DUP1 ISZERO PUSH2 0x2F7C JUMPI PUSH1 0x0 DUP1 REVERT JUMPDEST POP PUSH1 0x40 MLOAD SWAP1 DUP1 DUP3 MSTORE DUP1 PUSH1 0x1F ADD PUSH1 0x1F NOT AND PUSH1 0x20 ADD DUP3 ADD PUSH1 0x40 MSTORE DUP1 ISZERO PUSH2 0x2FA7 JUMPI PUSH1 0x20 DUP3 ADD DUP2 DUP1 CALLDATASIZE DUP4 CALLDATACOPY ADD SWAP1 POP JUMPDEST POP PUSH1 0xC0 DUP3 ADD DUP2 SWAP1 MSTORE DUP1 MLOAD PUSH2 0x2FBC SWAP2 DUP6 SWAP2 PUSH2 0x33D2 JUMP JUMPDEST POP SWAP3 SWAP2 POP POP JUMP JUMPDEST PUSH1 0x0 DUP3 PUSH2 0x2FD2 JUMPI POP PUSH1 0x0 PUSH2 0x14E8 JUMP JUMPDEST DUP3 DUP3 MUL DUP3 DUP5 DUP3 DUP2 PUSH2 0x2FDF JUMPI INVALID JUMPDEST DIV EQ PUSH2 0x1F14 JUMPI PUSH1 0x0 DUP1 REVERT JUMPDEST PUSH1 0x0 DUP3 DUP3 ADD DUP4 DUP2 LT ISZERO PUSH2 0x1F14 JUMPI PUSH1 0x0 DUP1 REVERT JUMPDEST PUSH1 0x0 DUP1 DUP3 GT PUSH2 0x300A JUMPI PUSH1 0x0 DUP1 REVERT JUMPDEST PUSH1 0x0 DUP3 DUP5 DUP2 PUSH2 0x3015 JUMPI INVALID JUMPDEST DIV SWAP5 SWAP4 POP POP POP POP JUMP JUMPDEST PUSH1 0x0 DUP2 DUP4 LT PUSH2 0x302D JUMPI DUP2 PUSH2 0x1F14 JUMP JUMPDEST POP SWAP1 SWAP2 SWAP1 POP JUMP JUMPDEST PUSH1 0x2 DUP1 SLOAD PUSH1 0x1 PUSH1 0xA0 SHL SWAP1 DIV PUSH1 0xFF AND EQ PUSH2 0x304C JUMPI PUSH1 0x0 DUP1 REVERT JUMPDEST PUSH1 0x40 DUP1 MLOAD CALLER DUP2 MSTORE SWAP1 MLOAD PUSH1 0x1 PUSH1 0x1 PUSH1 0xA0 SHL SUB DUP4 AND SWAP2 PUSH32 0x1E8D98C1B4A0D9BD2E2371026B632EB2773FCCE41742E41F02F574AB69868D4C SWAP2 SWAP1 DUP2 SWAP1 SUB PUSH1 0x20 ADD SWAP1 LOG2 POP JUMP JUMPDEST PUSH1 0x0 DUP1 PUSH2 0x309F DUP6 DUP6 PUSH1 0x1 DUP7 DUP6 PUSH2 0x30A9 JUMP JUMPDEST MLOAD SWAP6 SWAP5 POP POP POP POP POP JUMP JUMPDEST PUSH1 0x40 MLOAD DUP5 DUP2 MSTORE DUP4 ISZERO PUSH2 0x30BC JUMPI DUP3 PUSH1 0x4 DUP3 ADD MSTORE JUMPDEST PUSH1 0x1 DUP5 GT ISZERO PUSH2 0x30CC JUMPI DUP2 PUSH1 0x24 DUP3 ADD MSTORE JUMPDEST PUSH1 0x0 DUP1 DUP6 PUSH1 0x20 MUL PUSH1 0x4 ADD DUP4 DUP10 GAS DELEGATECALL DUP1 ISZERO PUSH2 0x30EA JUMPI RETURNDATASIZE PUSH1 0x0 DUP4 RETURNDATACOPY PUSH2 0x30EF JUMP JUMPDEST PUSH1 0x0 DUP3 REVERT JUMPDEST POP SWAP6 SWAP5 POP POP POP POP POP JUMP JUMPDEST PUSH1 0x0 DUP1 PUSH1 0x0 PUSH1 0x60 PUSH15 0x3430B9B42FBA37AFB1BAB93B32B137 PUSH1 0x89 SHL PUSH1 0x0 DUP1 SHL DUP7 PUSH1 0x40 MLOAD PUSH1 0x20 ADD DUP1 DUP5 DUP2 MSTORE PUSH1 0x20 ADD DUP4 DUP2 MSTORE PUSH1 0x20 ADD DUP3 DUP1 MLOAD SWAP1 PUSH1 0x20 ADD SWAP1 DUP1 DUP4 DUP4 JUMPDEST PUSH1 0x20 DUP4 LT PUSH2 0x3156 JUMPI DUP1 MLOAD DUP3 MSTORE PUSH1 0x1F NOT SWAP1 SWAP3 ADD SWAP2 PUSH1 0x20 SWAP2 DUP3 ADD SWAP2 ADD PUSH2 0x3137 JUMP JUMPDEST PUSH1 0x1 DUP4 PUSH1 0x20 SUB PUSH2 0x100 EXP SUB DUP1 NOT DUP3 MLOAD AND DUP2 DUP5 MLOAD AND DUP1 DUP3 OR DUP6 MSTORE POP POP POP POP POP POP SWAP1 POP ADD SWAP4 POP POP POP POP PUSH1 0x40 MLOAD PUSH1 0x20 DUP2 DUP4 SUB SUB DUP2 MSTORE SWAP1 PUSH1 0x40 MSTORE SWAP1 POP PUSH1 0x0 DUP2 PUSH1 0x40 MLOAD PUSH1 0x20 ADD DUP1 DUP4 PUSH1 0xFF AND PUSH1 0xFF AND PUSH1 0xF8 SHL DUP2 MSTORE PUSH1 0x1 ADD DUP3 DUP1 MLOAD SWAP1 PUSH1 0x20 ADD SWAP1 DUP1 DUP4 DUP4 JUMPDEST PUSH1 0x20 DUP4 LT PUSH2 0x31D2 JUMPI DUP1 MLOAD DUP3 MSTORE PUSH1 0x1F NOT SWAP1 SWAP3 ADD SWAP2 PUSH1 0x20 SWAP2 DUP3 ADD SWAP2 ADD PUSH2 0x31B3 JUMP JUMPDEST PUSH1 0x1 DUP4 PUSH1 0x20 SUB PUSH2 0x100 EXP SUB DUP1 NOT DUP3 MLOAD AND DUP2 DUP5 MLOAD AND DUP1 DUP3 OR DUP6 MSTORE POP POP POP POP POP POP SWAP1 POP ADD SWAP3 POP POP POP PUSH1 0x40 MLOAD PUSH1 0x20 DUP2 DUP4 SUB SUB DUP2 MSTORE SWAP1 PUSH1 0x40 MSTORE DUP1 MLOAD SWAP1 PUSH1 0x20 ADD KECCAK256 PUSH1 0x1 DUP3 PUSH1 0x40 MLOAD PUSH1 0x20 ADD DUP1 DUP4 PUSH1 0xFF AND PUSH1 0xFF AND PUSH1 0xF8 SHL DUP2 MSTORE PUSH1 0x1 ADD DUP3 DUP1 MLOAD SWAP1 PUSH1 0x20 ADD SWAP1 DUP1 DUP4 DUP4 JUMPDEST PUSH1 0x20 DUP4 LT PUSH2 0x3252 JUMPI DUP1 MLOAD DUP3 MSTORE PUSH1 0x1F NOT SWAP1 SWAP3 ADD SWAP2 PUSH1 0x20 SWAP2 DUP3 ADD SWAP2 ADD PUSH2 0x3233 JUMP JUMPDEST MLOAD DUP2 MLOAD PUSH1 0x20 SWAP4 DUP5 SUB PUSH2 0x100 EXP PUSH1 0x0 NOT ADD DUP1 NOT SWAP1 SWAP3 AND SWAP2 AND OR SWAP1 MSTORE PUSH1 0x40 DUP1 MLOAD SWAP3 SWAP1 SWAP5 ADD DUP3 DUP2 SUB PUSH1 0x1F NOT ADD DUP4 MSTORE SWAP1 SWAP4 MSTORE DUP1 MLOAD SWAP3 ADD SWAP2 SWAP1 SWAP2 KECCAK256 SWAP5 SWAP8 POP SWAP4 SWAP6 POP PUSH17 0x14551231950B75FC4402DA1732FC9BEC0 SWAP4 POP PUSH17 0x14551231950B75FC4402DA1732FC9BEBF NOT SWAP3 POP PUSH1 0x0 SWAP2 POP DUP3 SWAP1 POP DUP4 DUP8 MULMOD SWAP1 POP DUP2 DUP1 PUSH2 0x32CB JUMPI INVALID JUMPDEST DUP6 DUP3 ADDMOD PUSH1 0x1 ADD SWAP9 SWAP8 POP POP POP POP POP POP POP POP JUMP JUMPDEST PUSH2 0x32E5 PUSH2 0x3550 JUMP JUMPDEST PUSH1 0x40 DUP3 ADD MLOAD DUP1 PUSH2 0x32F5 JUMPI POP PUSH2 0x1F76 JUMP JUMPDEST DUP3 MLOAD PUSH5 0x1000003D0 NOT SWAP1 PUSH1 0x0 DUP3 PUSH1 0x20 DUP8 ADD MLOAD PUSH1 0x2 MULMOD SWAP1 POP PUSH1 0x0 DUP4 DUP1 PUSH2 0x3316 JUMPI INVALID JUMPDEST DUP3 DUP4 MULMOD SWAP1 POP PUSH1 0x0 DUP5 DUP1 PUSH2 0x3325 JUMPI INVALID JUMPDEST DUP5 DUP4 MULMOD SWAP1 POP PUSH1 0x0 DUP6 DUP1 PUSH2 0x3334 JUMPI INVALID JUMPDEST DUP7 DUP1 PUSH2 0x333C JUMPI INVALID JUMPDEST DUP7 DUP8 MULMOD PUSH1 0x3 MULMOD SWAP1 POP PUSH1 0x0 DUP7 DUP1 PUSH2 0x334E JUMPI INVALID JUMPDEST DUP8 DUP1 PUSH2 0x3356 JUMPI INVALID JUMPDEST DUP5 PUSH5 0x1000003D2 NOT MULMOD DUP9 DUP1 PUSH2 0x3367 JUMPI INVALID JUMPDEST DUP5 DUP6 MULMOD ADDMOD DUP1 DUP11 MSTORE SWAP1 POP DUP7 DUP1 PUSH2 0x3378 JUMPI INVALID JUMPDEST DUP8 DUP1 PUSH2 0x3380 JUMPI INVALID JUMPDEST DUP9 DUP1 PUSH2 0x3388 JUMPI INVALID JUMPDEST DUP7 DUP8 MULMOD PUSH4 0x800001E9 PUSH1 0x1 PUSH1 0xFF SHL SUB MULMOD DUP9 DUP1 PUSH2 0x339F JUMPI INVALID JUMPDEST DUP10 DUP1 PUSH2 0x33A7 JUMPI INVALID JUMPDEST DUP5 DUP12 SUB DUP8 ADDMOD DUP6 MULMOD ADDMOD PUSH1 0x20 DUP11 ADD MSTORE DUP7 DUP1 PUSH2 0x33BC JUMPI INVALID JUMPDEST DUP9 DUP7 MULMOD PUSH1 0x40 DUP11 ADD MSTORE POP SWAP7 SWAP9 SWAP8 POP POP POP POP POP POP POP POP JUMP JUMPDEST PUSH1 0x0 PUSH1 0x20 PUSH1 0x1F DUP4 ADD DIV DUP5 PUSH1 0x20 DUP6 ADD PUSH1 0x0 JUMPDEST DUP4 DUP2 LT ISZERO PUSH2 0x33FF JUMPI PUSH1 0x20 DUP2 MUL DUP4 DUP2 ADD MLOAD SWAP1 DUP4 ADD MSTORE PUSH1 0x1 ADD PUSH2 0x33E3 JUMP JUMPDEST POP POP POP POP PUSH1 0x0 DUP4 MLOAD PUSH1 0x20 ADD DUP5 ADD MSTORE DUP2 DUP5 ADD SWAP1 POP SWAP4 SWAP3 POP POP POP JUMP JUMPDEST PUSH1 0x40 MLOAD DUP1 PUSH2 0x2E0 ADD PUSH1 0x40 MSTORE DUP1 PUSH1 0x0 DUP2 MSTORE PUSH1 0x20 ADD PUSH1 0x0 DUP2 MSTORE PUSH1 0x20 ADD PUSH1 0x0 DUP2 MSTORE PUSH1 0x20 ADD PUSH1 0x0 DUP2 MSTORE PUSH1 0x20 ADD PUSH1 0x0 DUP2 MSTORE PUSH1 0x20 ADD PUSH1 0x0 DUP2 MSTORE PUSH1 0x20 ADD PUSH1 0x0 DUP2 MSTORE PUSH1 0x20 ADD PUSH1 0x0 DUP2 MSTORE PUSH1 0x20 ADD PUSH1 0x0 DUP2 MSTORE PUSH1 0x20 ADD PUSH1 0x0 DUP2 MSTORE PUSH1 0x20 ADD PUSH1 0x0 DUP2 MSTORE PUSH1 0x20 ADD PUSH1 0x0 DUP2 MSTORE PUSH1 0x20 ADD PUSH1 0x0 DUP2 MSTORE PUSH1 0x20 ADD PUSH1 0x0 DUP2 MSTORE PUSH1 0x20 ADD PUSH1 0x0 DUP2 MSTORE PUSH1 0x20 ADD PUSH1 0x0 DUP2 MSTORE PUSH1 0x20 ADD PUSH1 0x0 DUP2 MSTORE PUSH1 0x20 ADD PUSH1 0x0 DUP2 MSTORE PUSH1 0x20 ADD PUSH1 0x0 DUP2 MSTORE PUSH1 0x20 ADD PUSH1 0x0 DUP2 MSTORE PUSH1 0x20 ADD PUSH1 0x0 DUP1 NOT AND DUP2 MSTORE PUSH1 0x20 ADD PUSH1 0x0 PUSH1 0x1 PUSH1 0x1 PUSH1 0xA0 SHL SUB AND DUP2 MSTORE PUSH1 0x20 ADD PUSH1 0x0 PUSH1 0x1 PUSH1 0x1 PUSH1 0xD8 SHL SUB NOT AND DUP2 MSTORE POP SWAP1 JUMP JUMPDEST PUSH1 0x40 MLOAD DUP1 PUSH1 0xA0 ADD PUSH1 0x40 MSTORE DUP1 PUSH2 0x34F0 PUSH2 0x35C3 JUMP JUMPDEST DUP2 MSTORE PUSH1 0x20 ADD PUSH2 0x34FD PUSH2 0x35C3 JUMP JUMPDEST DUP2 MSTORE PUSH1 0x0 PUSH1 0x20 DUP3 ADD MSTORE PUSH1 0x40 ADD PUSH2 0x3511 PUSH2 0x35C3 JUMP JUMPDEST DUP2 MSTORE PUSH1 0x20 ADD PUSH2 0x351E PUSH2 0x356E JUMP JUMPDEST SWAP1 MSTORE SWAP1 JUMP JUMPDEST PUSH1 0x40 MLOAD DUP1 PUSH1 0x60 ADD PUSH1 0x40 MSTORE DUP1 PUSH2 0x3536 PUSH2 0x35C3 JUMP JUMPDEST DUP2 MSTORE PUSH1 0x20 ADD PUSH2 0x3543 PUSH2 0x35C3 JUMP JUMPDEST DUP2 MSTORE PUSH1 0x20 ADD PUSH1 0x0 DUP2 MSTORE POP SWAP1 JUMP JUMPDEST PUSH1 0x40 MLOAD DUP1 PUSH1 0x60 ADD PUSH1 0x40 MSTORE DUP1 PUSH1 0x3 SWAP1 PUSH1 0x20 DUP3 MUL DUP1 CALLDATASIZE DUP4 CALLDATACOPY POP SWAP2 SWAP3 SWAP2 POP POP JUMP JUMPDEST PUSH1 0x40 MLOAD DUP1 PUSH1 0xE0 ADD PUSH1 0x40 MSTORE DUP1 PUSH2 0x3581 PUSH2 0x35C3 JUMP JUMPDEST DUP2 MSTORE PUSH1 0x20 ADD PUSH2 0x358E PUSH2 0x35C3 JUMP JUMPDEST DUP2 MSTORE PUSH1 0x20 ADD PUSH2 0x359B PUSH2 0x35C3 JUMP JUMPDEST DUP2 MSTORE PUSH1 0x20 ADD PUSH2 0x35A8 PUSH2 0x35C3 JUMP JUMPDEST DUP2 MSTORE PUSH1 0x20 ADD PUSH1 0x0 DUP2 MSTORE PUSH1 0x20 ADD PUSH1 0x60 DUP2 MSTORE PUSH1 0x20 ADD PUSH1 0x60 DUP2 MSTORE POP SWAP1 JUMP JUMPDEST PUSH1 0x40 DUP1 MLOAD DUP1 DUP3 ADD SWAP1 SWAP2 MSTORE PUSH1 0x0 DUP1 DUP3 MSTORE PUSH1 0x20 DUP3 ADD MSTORE SWAP1 JUMP INVALID POP PUSH16 0x696E7420682A5531206973206E6F7420 PUSH2 0x2076 PUSH2 0x6C69 PUSH5 0x2045432070 PUSH16 0x696E74507265636F6D7075746564207A 0x2A GASLIMIT KECCAK256 PUSH23 0x616C756520697320696E636F7272656374507265636F6D PUSH17 0x75746564205920636F6F7264696E617465 KECCAK256 PUSH16 0x6620553220646F65736E277420636F72 PUSH19 0x6573706F6E6420746F20636F6D707265737365 PUSH5 0x2055322070 PUSH16 0x696E7453706563696669636174696F6E KECCAK256 PUSH20 0x69676E617475726520697320696E76616C696454 PUSH9 0x697320434672616720 PUSH9 0x617320616C72656164 PUSH26 0x206265656E206576616C75617465642E507265636F6D70757465 PUSH5 0x205920636F PUSH16 0x7264696E617465206F6620553120646F PUSH6 0x736E27742063 PUSH16 0x72726573706F6E6420746F20636F6D70 PUSH19 0x657373656420553120706F696E74507265636F PUSH14 0x7075746564207A2A562076616C75 PUSH6 0x20697320696E PUSH4 0x6F727265 PUSH4 0x74507265 PUSH4 0x6F6D7075 PUSH21 0x6564205920636F6F7264696E617465206F66205632 KECCAK256 PUSH5 0x6F65736E27 PUSH21 0x20636F72726573706F6E6420746F20636F6D707265 PUSH20 0x73656420563220706F696E74507265636F6D7075 PUSH21 0x6564207A2A552076616C756520697320696E636F72 PUSH19 0x656374507265636F6D7075746564205920636F PUSH16 0x7264696E617465206F66204520646F65 PUSH20 0x6E277420636F72726573706F6E6420746F20636F PUSH14 0x70726573736564204520706F696E PUSH21 0x507265636F6D7075746564205920636F6F7264696E PUSH2 0x7465 KECCAK256 PUSH16 0x66205620646F65736E277420636F7272 PUSH6 0x73706F6E6420 PUSH21 0x6F20636F6D70726573736564205620706F696E7457 PUSH16 0x726B6572206D7573742062652072656C PUSH2 0x7465 PUSH5 0x20746F2061 KECCAK256 PUSH20 0x74616B6572507265636F6D707574656420592063 PUSH16 0x6F7264696E617465206F662056312064 PUSH16 0x65736E277420636F72726573706F6E64 KECCAK256 PUSH21 0x6F20636F6D7072657373656420563120706F696E74 GASLIMIT PUSH14 0x707479206D657373616765206E6F PUSH21 0x20616C6C6F77656420666F722076657273696F6E20 GASLIMIT POP PUSH19 0x65636F6D7075746564205920636F6F7264696E PUSH2 0x7465 KECCAK256 PUSH16 0x6620453120646F65736E277420636F72 PUSH19 0x6573706F6E6420746F20636F6D707265737365 PUSH5 0x2045312070 PUSH16 0x696E74506F696E7420682A4531206973 KECCAK256 PUSH15 0x6F7420612076616C69642045432070 PUSH16 0x696E7453657269616C697A656420636F PUSH16 0x7264696E617465732073686F756C6420 PUSH3 0x652036 CALLVALUE KECCAK256 TIMESTAMP POP PUSH16 0x696E74207A2A55206973206E6F742061 KECCAK256 PUSH23 0x616C696420454320706F696E7452657175657374657227 PUSH20 0x207075626C6963206B657920697320696E76616C PUSH10 0x64506F696E7420682A56 BALANCE KECCAK256 PUSH10 0x73206E6F742061207661 PUSH13 0x696420454320706F696E745072 PUSH6 0x636F6D707574 PUSH6 0x6420682A5631 KECCAK256 PUSH23 0x616C756520697320696E636F7272656374507265636F6D PUSH17 0x75746564205920636F6F7264696E617465 KECCAK256 PUSH16 0x6620453220646F65736E277420636F72 PUSH19 0x6573706F6E6420746F20636F6D707265737365 PUSH5 0x2045322070 PUSH16 0x696E74507265636F6D70757465642068 0x2A GASLIMIT BALANCE KECCAK256 PUSH23 0x616C756520697320696E636F7272656374A26469706673 PC 0x22 SLT KECCAK256 MOD SWAP15 0xFC 0xE3 0xF9 KECCAK256 0x2D DUP14 NOT GAS PUSH28 0xC05DF811F989F0D6CF2DDB3049821DE9BEDA4FBE0E64736F6C634300 MOD SMOD STOP CALLER ",
  "sha1": "2bb6bda66a6d492818c4d87ca09610934f8056d4",
  "source": "pragma solidity ^0.6.5;\n\n\nimport \"contracts/Adjudicator.sol\";\nimport \"contracts/StakingEscrow.sol\";\nimport \"contracts/lib/SignatureVerifier.sol\";\nimport \"contracts/proxy/Upgradeable.sol\";\n\n\n/**\n* @notice Contract for testing the Adjudicator contract\n*/\ncontract StakingEscrowForAdjudicatorMock {\n\n    uint32 public immutable secondsPerPeriod = 1;\n    mapping (address => uint256) public stakerInfo;\n    mapping (address => uint256) public rewardInfo;\n    mapping (address => address) public stakerFromWorker;\n\n    function setStakerInfo(address _staker, uint256 _amount, address _worker) public {\n        stakerInfo[_staker] = _amount;\n        if (_worker == address(0)) {\n            _worker = _staker;\n        }\n        stakerFromWorker[_worker] = _staker;\n    }\n\n    function getAllTokens(address _staker) public view returns (uint256) {\n        return stakerInfo[_staker];\n    }\n\n    function slashStaker(\n        address _staker,\n        uint256 _penalty,\n        address _investigator,\n        uint256 _reward\n    )\n        public\n    {\n        stakerInfo[_staker] -= _penalty;\n        rewardInfo[_investigator] += _reward;\n    }\n\n}\n\n\n/**\n* @notice Upgrade to this contract must lead to fail\n*/\ncontract AdjudicatorBad is Upgradeable {\n\n    mapping (bytes32 => bool) public evaluatedCFrags;\n    mapping (address => uint256) public penaltyHistory;\n\n}\n\n\n/**\n* @notice Contract for testing upgrading the Adjudicator contract\n*/\ncontract AdjudicatorV2Mock is Adjudicator {\n\n    uint256 public valueToCheck;\n\n    constructor(\n        StakingEscrow _escrow,\n        SignatureVerifier.HashAlgorithm _hashAlgorithm,\n        uint256 _basePenalty,\n        uint256 _percentagePenalty,\n        uint256 _penaltyHistoryCoefficient,\n        uint256 _rewardCoefficient\n    )\n        public\n        Adjudicator(\n            _escrow,\n            _hashAlgorithm,\n            _basePenalty,\n            _percentagePenalty,\n            _penaltyHistoryCoefficient,\n            _rewardCoefficient\n        )\n    {\n    }\n\n    function setValueToCheck(uint256 _valueToCheck) public {\n        valueToCheck = _valueToCheck;\n    }\n\n    function verifyState(address _testTarget) override public {\n        super.verifyState(_testTarget);\n        require(uint256(delegateGet(_testTarget, this.valueToCheck.selector)) == valueToCheck);\n    }\n}\n",
  "sourcePath": "contracts/AdjudicatorTestSet.sol",
  "type": "contract"
}