{
  "abi": [
    {
      "inputs": [
        {
          "internalType": "address",
          "name": "_target",
          "type": "address"
        }
      ],
      "name": "finishUpgrade",
      "outputs": [],
      "stateMutability": "nonpayable",
      "type": "function"
    },
    {
      "inputs": [],
      "name": "isUpgrade",
      "outputs": [
        {
          "internalType": "uint8",
          "name": "",
          "type": "uint8"
        }
      ],
      "stateMutability": "view",
      "type": "function"
    },
    {
      "inputs": [],
      "name": "owner",
      "outputs": [
        {
          "internalType": "address",
          "name": "",
          "type": "address"
        }
      ],
      "stateMutability": "view",
      "type": "function"
    },
    {
      "inputs": [],
      "name": "target",
      "outputs": [
        {
          "internalType": "address",
          "name": "",
          "type": "address"
        }
      ],
      "stateMutability": "view",
      "type": "function"
    },
    {
      "inputs": [
        {
          "internalType": "address",
          "name": "_testTarget",
          "type": "address"
        }
      ],
      "name": "verifyState",
      "outputs": [],
      "stateMutability": "nonpayable",
      "type": "function"
    }
  ],
  "bytecode": "608060405234801561001057600080fd5b50610125806100206000396000f3fe6080604052348015600f57600080fd5b506004361060505760003560e01c80638da5cb5b146055578063b9626d21146077578063d4b8399214609c578063e38a303b1460a2578063e8dccd06146077575b600080fd5b605b60be565b604080516001600160a01b039092168252519081900360200190f35b609a60048036036020811015608b57600080fd5b50356001600160a01b031660cd565b005b605b60d0565b60a860df565b6040805160ff9092168252519081900360200190f35b6000546001600160a01b031681565b50565b6001546001600160a01b031681565b600154600160a01b900460ff168156fea26469706673582212206a8c65ddba417a3e70f72ce7a8667a1e67636bdd5154790d6e1a5af5e28a4b0e64736f6c63430006070033",
  "bytecodeSha1": "c0d1df74a3bda7656cbafbd04d334a2240887663",
  "compiler": {
    "evm_version": "berlin",
    "optimizer": {
      "enabled": true,
      "runs": 200
    },
    "version": "0.6.7"
  },
  "contractName": "BadDispatcherStorage",
  "language": "Solidity",
  "natspec": {
    "details": "This contract can't be target for dispatcher because missed `previousTarget`",
    "methods": {}
  },
  "opcodes": "PUSH1 0x80 PUSH1 0x40 MSTORE CALLVALUE DUP1 ISZERO PUSH1 0xF JUMPI PUSH1 0x0 DUP1 REVERT JUMPDEST POP PUSH1 0x4 CALLDATASIZE LT PUSH1 0x50 JUMPI PUSH1 0x0 CALLDATALOAD PUSH1 0xE0 SHR DUP1 PUSH4 0x8DA5CB5B EQ PUSH1 0x55 JUMPI DUP1 PUSH4 0xB9626D21 EQ PUSH1 0x77 JUMPI DUP1 PUSH4 0xD4B83992 EQ PUSH1 0x9C JUMPI DUP1 PUSH4 0xE38A303B EQ PUSH1 0xA2 JUMPI DUP1 PUSH4 0xE8DCCD06 EQ PUSH1 0x77 JUMPI JUMPDEST PUSH1 0x0 DUP1 REVERT JUMPDEST PUSH1 0x5B PUSH1 0xBE JUMP JUMPDEST PUSH1 0x40 DUP1 MLOAD PUSH1 0x1 PUSH1 0x1 PUSH1 0xA0 SHL SUB SWAP1 SWAP3 AND DUP3 MSTORE MLOAD SWAP1 DUP2 SWAP1 SUB PUSH1 0x20 ADD SWAP1 RETURN JUMPDEST PUSH1 0x9A PUSH1 0x4 DUP1 CALLDATASIZE SUB PUSH1 0x20 DUP2 LT ISZERO PUSH1 0x8B JUMPI PUSH1 0x0 DUP1 REVERT JUMPDEST POP CALLDATALOAD PUSH1 0x1 PUSH1 0x1 PUSH1 0xA0 SHL SUB AND PUSH1 0xCD JUMP JUMPDEST STOP JUMPDEST PUSH1 0x5B PUSH1 0xD0 JUMP JUMPDEST PUSH1 0xA8 PUSH1 0xDF JUMP JUMPDEST PUSH1 0x40 DUP1 MLOAD PUSH1 0xFF SWAP1 SWAP3 AND DUP3 MSTORE MLOAD SWAP1 DUP2 SWAP1 SUB PUSH1 0x20 ADD SWAP1 RETURN JUMPDEST PUSH1 0x0 SLOAD PUSH1 0x1 PUSH1 0x1 PUSH1 0xA0 SHL SUB AND DUP2 JUMP JUMPDEST POP JUMP JUMPDEST PUSH1 0x1 SLOAD PUSH1 0x1 PUSH1 0x1 PUSH1 0xA0 SHL SUB AND DUP2 JUMP JUMPDEST PUSH1 0x1 SLOAD PUSH1 0x1 PUSH1 0xA0 SHL SWAP1 DIV PUSH1 0xFF AND DUP2 JUMP INVALID LOG2 PUSH5 0x6970667358 0x22 SLT KECCAK256 PUSH11 0x8C65DDBA417A3E70F72CE7 0xA8 PUSH7 0x7A1E67636BDD51 SLOAD PUSH26 0xD6E1A5AF5E28A4B0E64736F6C63430006070033000000000000 ",
  "sha1": "4e458442edae96b203f5b3a96c5df0680220371e",
  "source": "pragma solidity ^0.6.1;\n\n\nimport \"test_contracts/proxy/ContractV1.sol\";\nimport \"contracts/proxy/Upgradeable.sol\";\n\n\n/**\n* @dev This contract can't be target for dispatcher because missed `previousTarget`\n*/\ncontract BadDispatcherStorage {\n\n    address public owner;\n    address public target;\n//    address public previousTarget;\n    uint8 public isUpgrade;\n\n    function verifyState(address _testTarget) public {}\n    function finishUpgrade(address _target) public {}\n\n}\n\n\n/**\n* @dev Upgrade to this contract will fail because added `fakeValue`\n*/\ncontract ContractV2BadStorage is Upgradeable {\n\n    // TODO can't catch such a violation\n//    uint128 public storageValue;\n    uint256 public storageValue;\n    uint128 public fakeValue;\n    string public dynamicallySizedValue;\n    uint256[] arrayValues;\n    mapping (uint256 => uint256) mappingValues;\n    uint256[] public mappingIndices;\n\n    // Test struct which used in arrays\n    struct Structure1 {\n        uint256 value;\n        uint256[] arrayValues;\n    }\n    Structure1[] public arrayStructures;\n\n    // Test struct which used in mappings\n    struct Structure2 {\n        uint256 value;\n        uint256[] arrayValues;\n    }\n    mapping (uint256 => Structure2) public mappingStructures;\n    uint256 public mappingStructuresLength;\n\n    function verifyState(address) public override {}\n    function finishUpgrade(address) public override {}\n\n}\n\n\n/**\n* @dev Upgrade to this contract will fail because `verifyState` is broken\n*/\ncontract ContractV2BadVerifyState is ContractV1(1) {\n\n    function verifyState(address) public override {\n        revert();\n    }\n\n}\n",
  "sourcePath": "contracts/proxy/BadContracts.sol",
  "type": "contract"
}