{
  "abi": [
    {
      "inputs": [
        {
          "internalType": "uint256",
          "name": "_storageValueToCheck",
          "type": "uint256"
        }
      ],
      "stateMutability": "nonpayable",
      "type": "constructor"
    },
    {
      "anonymous": false,
      "inputs": [
        {
          "indexed": false,
          "internalType": "uint8",
          "name": "value",
          "type": "uint8"
        }
      ],
      "name": "EventV2",
      "type": "event"
    },
    {
      "anonymous": false,
      "inputs": [
        {
          "indexed": true,
          "internalType": "address",
          "name": "previousOwner",
          "type": "address"
        },
        {
          "indexed": true,
          "internalType": "address",
          "name": "newOwner",
          "type": "address"
        }
      ],
      "name": "OwnershipTransferred",
      "type": "event"
    },
    {
      "anonymous": false,
      "inputs": [
        {
          "indexed": true,
          "internalType": "address",
          "name": "testTarget",
          "type": "address"
        },
        {
          "indexed": false,
          "internalType": "address",
          "name": "sender",
          "type": "address"
        }
      ],
      "name": "StateVerified",
      "type": "event"
    },
    {
      "anonymous": false,
      "inputs": [
        {
          "indexed": true,
          "internalType": "address",
          "name": "target",
          "type": "address"
        },
        {
          "indexed": false,
          "internalType": "address",
          "name": "sender",
          "type": "address"
        }
      ],
      "name": "UpgradeFinished",
      "type": "event"
    },
    {
      "inputs": [
        {
          "internalType": "uint256",
          "name": "",
          "type": "uint256"
        }
      ],
      "name": "arrayStructures",
      "outputs": [
        {
          "internalType": "uint256",
          "name": "value",
          "type": "uint256"
        }
      ],
      "stateMutability": "view",
      "type": "function"
    },
    {
      "inputs": [
        {
          "internalType": "uint256",
          "name": "",
          "type": "uint256"
        }
      ],
      "name": "arrayValues",
      "outputs": [
        {
          "internalType": "uint256",
          "name": "",
          "type": "uint256"
        }
      ],
      "stateMutability": "view",
      "type": "function"
    },
    {
      "inputs": [
        {
          "internalType": "uint8",
          "name": "_value",
          "type": "uint8"
        }
      ],
      "name": "createEvent",
      "outputs": [],
      "stateMutability": "nonpayable",
      "type": "function"
    },
    {
      "inputs": [
        {
          "internalType": "address",
          "name": "_target",
          "type": "address"
        },
        {
          "internalType": "bytes4",
          "name": "_selector",
          "type": "bytes4"
        },
        {
          "internalType": "bytes32",
          "name": "_argument",
          "type": "bytes32"
        }
      ],
      "name": "delegateGetArray",
      "outputs": [
        {
          "internalType": "uint256[]",
          "name": "result",
          "type": "uint256[]"
        }
      ],
      "stateMutability": "nonpayable",
      "type": "function"
    },
    {
      "inputs": [],
      "name": "dynamicallySizedValue",
      "outputs": [
        {
          "internalType": "string",
          "name": "",
          "type": "string"
        }
      ],
      "stateMutability": "view",
      "type": "function"
    },
    {
      "inputs": [
        {
          "internalType": "address",
          "name": "_target",
          "type": "address"
        }
      ],
      "name": "finishUpgrade",
      "outputs": [],
      "stateMutability": "nonpayable",
      "type": "function"
    },
    {
      "inputs": [],
      "name": "getArrayValueLength",
      "outputs": [
        {
          "internalType": "uint256",
          "name": "",
          "type": "uint256"
        }
      ],
      "stateMutability": "view",
      "type": "function"
    },
    {
      "inputs": [
        {
          "internalType": "uint256",
          "name": "_index",
          "type": "uint256"
        }
      ],
      "name": "getStructure1ArrayValues",
      "outputs": [
        {
          "internalType": "uint256[]",
          "name": "",
          "type": "uint256[]"
        }
      ],
      "stateMutability": "view",
      "type": "function"
    },
    {
      "inputs": [
        {
          "internalType": "uint256",
          "name": "_index",
          "type": "uint256"
        }
      ],
      "name": "getStructure2ArrayValues",
      "outputs": [
        {
          "internalType": "uint256[]",
          "name": "",
          "type": "uint256[]"
        }
      ],
      "stateMutability": "view",
      "type": "function"
    },
    {
      "inputs": [
        {
          "internalType": "uint256",
          "name": "_index",
          "type": "uint256"
        }
      ],
      "name": "getStructureArrayLength1",
      "outputs": [
        {
          "internalType": "uint256",
          "name": "",
          "type": "uint256"
        }
      ],
      "stateMutability": "view",
      "type": "function"
    },
    {
      "inputs": [
        {
          "internalType": "uint256",
          "name": "_index",
          "type": "uint256"
        }
      ],
      "name": "getStructureArrayLength2",
      "outputs": [
        {
          "internalType": "uint256",
          "name": "",
          "type": "uint256"
        }
      ],
      "stateMutability": "view",
      "type": "function"
    },
    {
      "inputs": [
        {
          "internalType": "uint256",
          "name": "_index",
          "type": "uint256"
        },
        {
          "internalType": "uint256",
          "name": "_arrayIndex",
          "type": "uint256"
        }
      ],
      "name": "getStructureArrayValue1",
      "outputs": [
        {
          "internalType": "uint256",
          "name": "",
          "type": "uint256"
        }
      ],
      "stateMutability": "view",
      "type": "function"
    },
    {
      "inputs": [
        {
          "internalType": "uint256",
          "name": "_index",
          "type": "uint256"
        },
        {
          "internalType": "uint256",
          "name": "_arrayIndex",
          "type": "uint256"
        }
      ],
      "name": "getStructureArrayValue2",
      "outputs": [
        {
          "internalType": "uint256",
          "name": "",
          "type": "uint256"
        }
      ],
      "stateMutability": "view",
      "type": "function"
    },
    {
      "inputs": [],
      "name": "getStructureLength1",
      "outputs": [
        {
          "internalType": "uint256",
          "name": "",
          "type": "uint256"
        }
      ],
      "stateMutability": "view",
      "type": "function"
    },
    {
      "inputs": [],
      "name": "getStructureLength2",
      "outputs": [
        {
          "internalType": "uint256",
          "name": "",
          "type": "uint256"
        }
      ],
      "stateMutability": "view",
      "type": "function"
    },
    {
      "inputs": [],
      "name": "isOwner",
      "outputs": [
        {
          "internalType": "bool",
          "name": "",
          "type": "bool"
        }
      ],
      "stateMutability": "view",
      "type": "function"
    },
    {
      "inputs": [],
      "name": "isUpgrade",
      "outputs": [
        {
          "internalType": "uint8",
          "name": "",
          "type": "uint8"
        }
      ],
      "stateMutability": "view",
      "type": "function"
    },
    {
      "inputs": [
        {
          "internalType": "uint256",
          "name": "",
          "type": "uint256"
        }
      ],
      "name": "mappingIndices",
      "outputs": [
        {
          "internalType": "uint256",
          "name": "",
          "type": "uint256"
        }
      ],
      "stateMutability": "view",
      "type": "function"
    },
    {
      "inputs": [
        {
          "internalType": "uint256",
          "name": "",
          "type": "uint256"
        }
      ],
      "name": "mappingStructures",
      "outputs": [
        {
          "internalType": "uint256",
          "name": "value",
          "type": "uint256"
        },
        {
          "internalType": "uint256",
          "name": "valueToCheck",
          "type": "uint256"
        }
      ],
      "stateMutability": "view",
      "type": "function"
    },
    {
      "inputs": [],
      "name": "mappingStructuresLength",
      "outputs": [
        {
          "internalType": "uint256",
          "name": "",
          "type": "uint256"
        }
      ],
      "stateMutability": "view",
      "type": "function"
    },
    {
      "inputs": [
        {
          "internalType": "uint256",
          "name": "",
          "type": "uint256"
        }
      ],
      "name": "mappingValues",
      "outputs": [
        {
          "internalType": "uint256",
          "name": "",
          "type": "uint256"
        }
      ],
      "stateMutability": "view",
      "type": "function"
    },
    {
      "inputs": [],
      "name": "owner",
      "outputs": [
        {
          "internalType": "address",
          "name": "",
          "type": "address"
        }
      ],
      "stateMutability": "view",
      "type": "function"
    },
    {
      "inputs": [],
      "name": "previousTarget",
      "outputs": [
        {
          "internalType": "address",
          "name": "",
          "type": "address"
        }
      ],
      "stateMutability": "view",
      "type": "function"
    },
    {
      "inputs": [
        {
          "internalType": "uint256",
          "name": "_value",
          "type": "uint256"
        }
      ],
      "name": "pushArrayValue",
      "outputs": [],
      "stateMutability": "nonpayable",
      "type": "function"
    },
    {
      "inputs": [
        {
          "internalType": "uint256",
          "name": "_index",
          "type": "uint256"
        },
        {
          "internalType": "uint256",
          "name": "_value",
          "type": "uint256"
        }
      ],
      "name": "pushStructureArrayValue1",
      "outputs": [],
      "stateMutability": "nonpayable",
      "type": "function"
    },
    {
      "inputs": [
        {
          "internalType": "uint256",
          "name": "_index",
          "type": "uint256"
        },
        {
          "internalType": "uint256",
          "name": "_value",
          "type": "uint256"
        }
      ],
      "name": "pushStructureArrayValue2",
      "outputs": [],
      "stateMutability": "nonpayable",
      "type": "function"
    },
    {
      "inputs": [
        {
          "internalType": "uint256",
          "name": "_value",
          "type": "uint256"
        }
      ],
      "name": "pushStructureValue1",
      "outputs": [],
      "stateMutability": "nonpayable",
      "type": "function"
    },
    {
      "inputs": [
        {
          "internalType": "uint256",
          "name": "_value",
          "type": "uint256"
        }
      ],
      "name": "pushStructureValue2",
      "outputs": [],
      "stateMutability": "nonpayable",
      "type": "function"
    },
    {
      "inputs": [],
      "name": "renounceOwnership",
      "outputs": [],
      "stateMutability": "nonpayable",
      "type": "function"
    },
    {
      "inputs": [],
      "name": "returnValue",
      "outputs": [
        {
          "internalType": "uint256",
          "name": "",
          "type": "uint256"
        }
      ],
      "stateMutability": "pure",
      "type": "function"
    },
    {
      "inputs": [
        {
          "internalType": "string",
          "name": "_dynamicValue",
          "type": "string"
        }
      ],
      "name": "setDynamicallySizedValue",
      "outputs": [],
      "stateMutability": "nonpayable",
      "type": "function"
    },
    {
      "inputs": [
        {
          "internalType": "uint256",
          "name": "_index",
          "type": "uint256"
        },
        {
          "internalType": "uint256",
          "name": "_value",
          "type": "uint256"
        }
      ],
      "name": "setMappingValue",
      "outputs": [],
      "stateMutability": "nonpayable",
      "type": "function"
    },
    {
      "inputs": [
        {
          "internalType": "uint256",
          "name": "_value",
          "type": "uint256"
        }
      ],
      "name": "setStorageValue",
      "outputs": [],
      "stateMutability": "nonpayable",
      "type": "function"
    },
    {
      "inputs": [
        {
          "internalType": "uint256",
          "name": "_index",
          "type": "uint256"
        },
        {
          "internalType": "uint256",
          "name": "_value",
          "type": "uint256"
        }
      ],
      "name": "setStructureValueToCheck2",
      "outputs": [],
      "stateMutability": "nonpayable",
      "type": "function"
    },
    {
      "inputs": [],
      "name": "storageValue",
      "outputs": [
        {
          "internalType": "uint256",
          "name": "",
          "type": "uint256"
        }
      ],
      "stateMutability": "view",
      "type": "function"
    },
    {
      "inputs": [],
      "name": "storageValueToCheck",
      "outputs": [
        {
          "internalType": "uint256",
          "name": "",
          "type": "uint256"
        }
      ],
      "stateMutability": "view",
      "type": "function"
    },
    {
      "inputs": [],
      "name": "target",
      "outputs": [
        {
          "internalType": "address",
          "name": "",
          "type": "address"
        }
      ],
      "stateMutability": "view",
      "type": "function"
    },
    {
      "inputs": [
        {
          "internalType": "address",
          "name": "newOwner",
          "type": "address"
        }
      ],
      "name": "transferOwnership",
      "outputs": [],
      "stateMutability": "nonpayable",
      "type": "function"
    },
    {
      "inputs": [
        {
          "internalType": "address",
          "name": "_testTarget",
          "type": "address"
        }
      ],
      "name": "verifyState",
      "outputs": [],
      "stateMutability": "nonpayable",
      "type": "function"
    }
  ],
  "bytecode": "608060405234801561001057600080fd5b506040516115ea3803806115ea8339818101604052602081101561003357600080fd5b5051600080546001600160a01b03191633178082556040516001600160a01b039190911691907f8be0079c531659141344cd1fd0a4f28419497f9722a3daafe3b4186f6b6457e0908290a3600c5561155a806100906000396000f3fe608060405234801561001057600080fd5b506004361061023d5760003560e01c8063910833d91161013b578063cfb63718116100b8578063e4181c731161007c578063e4181c731461072a578063e8dccd0614610732578063f2fde38b14610758578063f3d93cf11461077e578063f6b9be5b146107865761023d565b8063cfb6371814610647578063d4b839921461066a578063dba72e5814610672578063e38a303b146106ef578063e3ad1d001461070d5761023d565b8063a977a973116100ff578063a977a973146105d7578063a9de99f3146105df578063b9626d21146105fc578063c3e6451214610622578063c68fcdbf1461062a5761023d565b8063910833d91461053c578063990c8f791461055f5780639f42c5b4146105675780639ffa6f2114610584578063a54b7a82146105a15761023d565b80635ffb1578116101c9578063887bf9401161018d578063887bf9401461044d57806388bb34b7146104555780638da5cb5b146104fb5780638e9df67c146105035780638f32d59b146105205761023d565b80635ffb1578146103e3578063649d64bf1461040057806367099abf1461041d578063715018a6146104255780637b8f82d61461042d5761023d565b806321e72e191161021057806321e72e1914610345578063332b4eaf1461036857806342a89d0d146103855780634b2cd118146103a257806352fae8fd146103c65761023d565b806309f2e5b6146102425780630c62c4a61461026757806311b2809114610284578063155a4d3e14610310575b600080fd5b6102656004803603604081101561025857600080fd5b50803590602001356107a9565b005b6102656004803603602081101561027d57600080fd5b50356107db565b6102c06004803603606081101561029a57600080fd5b506001600160a01b03813516906001600160e01b03196020820135169060400135610847565b60408051602080825283518183015283519192839290830191858101910280838360005b838110156102fc5781810151838201526020016102e4565b505050509050019250505060405180910390f35b6103336004803603604081101561032657600080fd5b5080359060200135610865565b60408051918252519081900360200190f35b6103336004803603604081101561035b57600080fd5b50803590602001356108a3565b6103336004803603602081101561037e57600080fd5b50356108c0565b6103336004803603602081101561039b57600080fd5b50356108d2565b6103aa6108f5565b604080516001600160a01b039092168252519081900360200190f35b610333600480360360208110156103dc57600080fd5b5035610904565b610265600480360360208110156103f957600080fd5b5035610919565b6103336004803603602081101561041657600080fd5b5035610955565b610333610973565b61026561097a565b6102656004803603602081101561044357600080fd5b503560ff166109d5565b610333610a0e565b6102656004803603602081101561046b57600080fd5b81019060208101813564010000000081111561048657600080fd5b82018360208201111561049857600080fd5b803590602001918460018302840111640100000000831117156104ba57600080fd5b91908080601f016020809104026020016040519081016040528093929190818152602001838380828437600092019190915250929550610a14945050505050565b6103aa610a2b565b6103336004803603602081101561051957600080fd5b5035610a3a565b610528610a63565b604080519115158252519081900360200190f35b6102656004803603604081101561055257600080fd5b5080359060200135610a74565b610333610a89565b6102656004803603602081101561057d57600080fd5b5035610a8e565b6103336004803603602081101561059a57600080fd5b5035610b3a565b6105be600480360360208110156105b757600080fd5b5035610b47565b6040805192835260208301919091528051918290030190f35b610333610b60565b610265600480360360208110156105f557600080fd5b5035610b66565b6102656004803603602081101561061257600080fd5b50356001600160a01b0316610b6e565b610333610f99565b6102c06004803603602081101561064057600080fd5b5035610f9f565b6102656004803603604081101561065d57600080fd5b5080359060200135611015565b6103aa61103b565b61067a61104a565b6040805160208082528351818301528351919283929083019185019080838360005b838110156106b457818101518382015260200161069c565b50505050905090810190601f1680156106e15780820380516001836020036101000a031916815260200191505b509250505060405180910390f35b6106f76110d8565b6040805160ff9092168252519081900360200190f35b6102c06004803603602081101561072357600080fd5b50356110e8565b61033361114b565b6102656004803603602081101561074857600080fd5b50356001600160a01b0316611151565b6102656004803603602081101561076e57600080fd5b50356001600160a01b03166111c5565b6103336111e2565b6102656004803603604081101561079c57600080fd5b50803590602001356111e8565b600982815481106107b657fe5b6000918252602080832060016002909302018201805492830181558352909120015550565b600b805460010190556107ec611417565b600b54600019016000908152600a60209081526040909120825181558183015180518493610821926001850192910190611438565b50604091820151600290910155600b54600019016000908152600a602052209190915550565b6060600061085985856001868561122a565b80510195945050505050565b60006009838154811061087457fe5b9060005260206000209060020201600101828154811061089057fe5b9060005260206000200154905092915050565b6000828152600a6020526040812060010180548390811061089057fe5b60076020526000908152604090205481565b600981815481106108df57fe5b6000918252602090912060029091020154905081565b6002546001600160a01b031681565b6000908152600a602052604090206001015490565b6006805460018101825560009190915260029091027ff652222313e28459528d920b65115c16c04f3efc82aaedc97be59f3f377c0d3f90910155565b6006818154811061096257fe5b600091825260209091200154905081565b6009545b90565b610982610a63565b61098b57600080fd5b600080546040516001600160a01b03909116907f8be0079c531659141344cd1fd0a4f28419497f9722a3daafe3b4186f6b6457e0908390a3600080546001600160a01b0319169055565b6040805160ff8316815290517faaa2f1a2123f272349bbc5e43dce6ed398bdd6091bb3f9540d7b011cdc2219559181900360200190a150565b600c5481565b8051610a27906005906020840190611483565b5050565b6000546001600160a01b031690565b600060098281548110610a4957fe5b600091825260209091206001600290920201015492915050565b6000546001600160a01b0316331490565b6000918252600a602052604090912060020155565b601490565b610a966114f0565b60098054600181018255600091909152815160029091027f6e1540171b6c0c960b71a7020d9f60077f6af931a8bbf590da0223dacf75c7af81019182556020808401518051859493610b0e937f6e1540171b6c0c960b71a7020d9f60077f6af931a8bbf590da0223dacf75c7b0909101920190611438565b5050600980548492506000198101908110610b2557fe5b60009182526020909120600290910201555050565b6008818154811061096257fe5b600a602052600090815260409020805460029091015482565b60045481565b600202600455565b610b778161127a565b600454610b8b8263a977a97360e01b6112d4565b14610b9557600080fd5b6060610ba882631b74e5cb60e31b6112ed565b600554815191925060026000196101006001841615020190911604148015610c3f575060056040518082805460018160011615610100020316600290048015610c285780601f10610c06576101008083540402835291820191610c28565b820191906000526020600020905b815481529060010190602001808311610c14575b505091505060405180910390208180519060200120145b610c4857600080fd5b600654610c5c836361f3228960e11b6112d4565b14610c6657600080fd5b60005b600654811015610cb05760068181548110610c8057fe5b600091825260209091200154610c9e8463649d64bf60e01b84611309565b14610ca857600080fd5b600101610c69565b5060005b600854811015610d1157600060088281548110610ccd57fe5b60009182526020808320909101548083526007909152604090912054909150610cfe8563332b4eaf60e01b84611309565b14610d0857600080fd5b50600101610cb4565b50600954610d26836367099abf60e01b6112d4565b14610d3057600080fd5b60005b600954811015610e4b5760098181548110610d4a57fe5b6000918252602090912060029091020154610d6d846342a89d0d60e01b84611309565b14610d7757600080fd5b6060610d8b8463c68fcdbf60e01b84610847565b905060098281548110610d9a57fe5b906000526020600020906002020160010180549050815114610dbb57600080fd5b60005b60098381548110610dcb57fe5b906000526020600020906002020160010180549050811015610e415760098381548110610df457fe5b90600052602060002090600202016001018181548110610e1057fe5b9060005260206000200154828281518110610e2757fe5b602002602001015114610e3957600080fd5b600101610dbe565b5050600101610d33565b50600b54610e608363f3d93cf160e01b6112d4565b14610e6a57600080fd5b60005b600b54811015610f7a57610e7f611417565b610e91846352a5bd4160e11b84611324565b6000838152600a6020526040902054815191925014610eaf57600080fd5b6000828152600a602052604090819020600201549082015114610ed157600080fd5b6060610ee48562e3ad1d60e81b85610847565b6000848152600a6020526040902060010154815191925014610f0557600080fd5b60005b6000848152600a6020526040902060010154811015610f6f576000848152600a60205260409020600101805482908110610f3e57fe5b9060005260206000200154828281518110610f5557fe5b602002602001015114610f6757600080fd5b600101610f08565b505050600101610e6d565b50600c54610f8f83630221efe560e61b6112d4565b14610a2757600080fd5b60065490565b606060098281548110610fae57fe5b906000526020600020906002020160010180548060200260200160405190810160405280929190818152602001828054801561100957602002820191906000526020600020905b815481526020019060010190808311610ff5575b50505050509050919050565b6000918252600a6020908152604083206001908101805491820181558452922090910155565b6001546001600160a01b031681565b6005805460408051602060026001851615610100026000190190941693909304601f810184900484028201840190925281815292918301828280156110d05780601f106110a5576101008083540402835291602001916110d0565b820191906000526020600020905b8154815290600101906020018083116110b357829003601f168201915b505050505081565b600254600160a01b900460ff1681565b6000818152600a60209081526040918290206001018054835181840281018401909452808452606093928301828280156110095760200282019190600052602060002090815481526020019060010190808311610ff55750505050509050919050565b600b5481565b61115a8161134f565b806001600160a01b031663887bf9406040518163ffffffff1660e01b815260040160206040518083038186803b15801561119357600080fd5b505afa1580156111a7573d6000803e3d6000fd5b505050506040513d60208110156111bd57600080fd5b5051600c5550565b6111cd610a63565b6111d657600080fd5b6111df816113a9565b50565b600b5490565b60088054600181019091557ff3f7a9fe364faab93b216da50a3214154f22a0a2b415b23a84c8169e8b636ee30182905560009182526007602052604090912055565b604051848152831561123d578260048201525b600184111561124d578160248201525b6000808560200260040183895af4801561126b573d6000833e611270565b600082fd5b5095945050505050565b60028054600160a01b900460ff161461129257600080fd5b6040805133815290516001600160a01b038316917f1e8d98c1b4a0d9bd2e2371026b632eb2773fcce41742e41f02f574ab69868d4c919081900360200190a250565b6000806112e4848483808061122a565b51949350505050565b606060006112fe848483808061122a565b805101949350505050565b60008061131a85856001868561122a565b5195945050505050565b61132c611417565b600061133c85856001868561122a565b6020810151604082015295945050505050565b60028054600160a01b900460ff161461136757600080fd5b6040805133815290516001600160a01b038316917fd55ec27c5c6316913ed8803c18cfd1bfefea953db909dcba6140744a9d8b0d1f919081900360200190a250565b6001600160a01b0381166113bc57600080fd5b600080546040516001600160a01b03808516939216917f8be0079c531659141344cd1fd0a4f28419497f9722a3daafe3b4186f6b6457e091a3600080546001600160a01b0319166001600160a01b0392909216919091179055565b60405180606001604052806000815260200160608152602001600081525090565b828054828255906000526020600020908101928215611473579160200282015b82811115611473578251825591602001919060010190611458565b5061147f92915061150a565b5090565b828054600181600116156101000203166002900490600052602060002090601f016020900481019282601f106114c457805160ff1916838001178555611473565b828001600101855582156114735791820182811115611473578251825591602001919060010190611458565b604051806040016040528060008152602001606081525090565b61097791905b8082111561147f576000815560010161151056fea26469706673582212203ff9cbe843a16d1d671c5aa77af5aca4cb69d38a97a272ba4802db7d51b6da4264736f6c63430006070033",
  "bytecodeSha1": "9b683f65b3874bc469dcd0d00130d33aed09f2a9",
  "compiler": {
    "evm_version": "berlin",
    "optimizer": {
      "enabled": true,
      "runs": 200
    },
    "version": "0.6.7"
  },
  "contractName": "ContractV2",
  "language": "Solidity",
  "natspec": {
    "details": "Extension of the contract using valid storage variables",
    "methods": {
      "delegateGetArray(address,bytes4,bytes32)": {
        "details": "Get array by one parameter."
      },
      "renounceOwnership()": {
        "details": "Allows the current owner to relinquish control of the contract.",
        "notice": "Renouncing to ownership will leave the contract without an owner. It will not be possible to call the functions with the `onlyOwner` modifier anymore."
      },
      "transferOwnership(address)": {
        "details": "Allows the current owner to transfer control of the contract to a newOwner.",
        "params": {
          "newOwner": "The address to transfer ownership to."
        }
      }
    }
  },
  "opcodes": "PUSH1 0x80 PUSH1 0x40 MSTORE CALLVALUE DUP1 ISZERO PUSH2 0x10 JUMPI PUSH1 0x0 DUP1 REVERT JUMPDEST POP PUSH1 0x4 CALLDATASIZE LT PUSH2 0x23D JUMPI PUSH1 0x0 CALLDATALOAD PUSH1 0xE0 SHR DUP1 PUSH4 0x910833D9 GT PUSH2 0x13B JUMPI DUP1 PUSH4 0xCFB63718 GT PUSH2 0xB8 JUMPI DUP1 PUSH4 0xE4181C73 GT PUSH2 0x7C JUMPI DUP1 PUSH4 0xE4181C73 EQ PUSH2 0x72A JUMPI DUP1 PUSH4 0xE8DCCD06 EQ PUSH2 0x732 JUMPI DUP1 PUSH4 0xF2FDE38B EQ PUSH2 0x758 JUMPI DUP1 PUSH4 0xF3D93CF1 EQ PUSH2 0x77E JUMPI DUP1 PUSH4 0xF6B9BE5B EQ PUSH2 0x786 JUMPI PUSH2 0x23D JUMP JUMPDEST DUP1 PUSH4 0xCFB63718 EQ PUSH2 0x647 JUMPI DUP1 PUSH4 0xD4B83992 EQ PUSH2 0x66A JUMPI DUP1 PUSH4 0xDBA72E58 EQ PUSH2 0x672 JUMPI DUP1 PUSH4 0xE38A303B EQ PUSH2 0x6EF JUMPI DUP1 PUSH4 0xE3AD1D00 EQ PUSH2 0x70D JUMPI PUSH2 0x23D JUMP JUMPDEST DUP1 PUSH4 0xA977A973 GT PUSH2 0xFF JUMPI DUP1 PUSH4 0xA977A973 EQ PUSH2 0x5D7 JUMPI DUP1 PUSH4 0xA9DE99F3 EQ PUSH2 0x5DF JUMPI DUP1 PUSH4 0xB9626D21 EQ PUSH2 0x5FC JUMPI DUP1 PUSH4 0xC3E64512 EQ PUSH2 0x622 JUMPI DUP1 PUSH4 0xC68FCDBF EQ PUSH2 0x62A JUMPI PUSH2 0x23D JUMP JUMPDEST DUP1 PUSH4 0x910833D9 EQ PUSH2 0x53C JUMPI DUP1 PUSH4 0x990C8F79 EQ PUSH2 0x55F JUMPI DUP1 PUSH4 0x9F42C5B4 EQ PUSH2 0x567 JUMPI DUP1 PUSH4 0x9FFA6F21 EQ PUSH2 0x584 JUMPI DUP1 PUSH4 0xA54B7A82 EQ PUSH2 0x5A1 JUMPI PUSH2 0x23D JUMP JUMPDEST DUP1 PUSH4 0x5FFB1578 GT PUSH2 0x1C9 JUMPI DUP1 PUSH4 0x887BF940 GT PUSH2 0x18D JUMPI DUP1 PUSH4 0x887BF940 EQ PUSH2 0x44D JUMPI DUP1 PUSH4 0x88BB34B7 EQ PUSH2 0x455 JUMPI DUP1 PUSH4 0x8DA5CB5B EQ PUSH2 0x4FB JUMPI DUP1 PUSH4 0x8E9DF67C EQ PUSH2 0x503 JUMPI DUP1 PUSH4 0x8F32D59B EQ PUSH2 0x520 JUMPI PUSH2 0x23D JUMP JUMPDEST DUP1 PUSH4 0x5FFB1578 EQ PUSH2 0x3E3 JUMPI DUP1 PUSH4 0x649D64BF EQ PUSH2 0x400 JUMPI DUP1 PUSH4 0x67099ABF EQ PUSH2 0x41D JUMPI DUP1 PUSH4 0x715018A6 EQ PUSH2 0x425 JUMPI DUP1 PUSH4 0x7B8F82D6 EQ PUSH2 0x42D JUMPI PUSH2 0x23D JUMP JUMPDEST DUP1 PUSH4 0x21E72E19 GT PUSH2 0x210 JUMPI DUP1 PUSH4 0x21E72E19 EQ PUSH2 0x345 JUMPI DUP1 PUSH4 0x332B4EAF EQ PUSH2 0x368 JUMPI DUP1 PUSH4 0x42A89D0D EQ PUSH2 0x385 JUMPI DUP1 PUSH4 0x4B2CD118 EQ PUSH2 0x3A2 JUMPI DUP1 PUSH4 0x52FAE8FD EQ PUSH2 0x3C6 JUMPI PUSH2 0x23D JUMP JUMPDEST DUP1 PUSH4 0x9F2E5B6 EQ PUSH2 0x242 JUMPI DUP1 PUSH4 0xC62C4A6 EQ PUSH2 0x267 JUMPI DUP1 PUSH4 0x11B28091 EQ PUSH2 0x284 JUMPI DUP1 PUSH4 0x155A4D3E EQ PUSH2 0x310 JUMPI JUMPDEST PUSH1 0x0 DUP1 REVERT JUMPDEST PUSH2 0x265 PUSH1 0x4 DUP1 CALLDATASIZE SUB PUSH1 0x40 DUP2 LT ISZERO PUSH2 0x258 JUMPI PUSH1 0x0 DUP1 REVERT JUMPDEST POP DUP1 CALLDATALOAD SWAP1 PUSH1 0x20 ADD CALLDATALOAD PUSH2 0x7A9 JUMP JUMPDEST STOP JUMPDEST PUSH2 0x265 PUSH1 0x4 DUP1 CALLDATASIZE SUB PUSH1 0x20 DUP2 LT ISZERO PUSH2 0x27D JUMPI PUSH1 0x0 DUP1 REVERT JUMPDEST POP CALLDATALOAD PUSH2 0x7DB JUMP JUMPDEST PUSH2 0x2C0 PUSH1 0x4 DUP1 CALLDATASIZE SUB PUSH1 0x60 DUP2 LT ISZERO PUSH2 0x29A JUMPI PUSH1 0x0 DUP1 REVERT JUMPDEST POP PUSH1 0x1 PUSH1 0x1 PUSH1 0xA0 SHL SUB DUP2 CALLDATALOAD AND SWAP1 PUSH1 0x1 PUSH1 0x1 PUSH1 0xE0 SHL SUB NOT PUSH1 0x20 DUP3 ADD CALLDATALOAD AND SWAP1 PUSH1 0x40 ADD CALLDATALOAD PUSH2 0x847 JUMP JUMPDEST PUSH1 0x40 DUP1 MLOAD PUSH1 0x20 DUP1 DUP3 MSTORE DUP4 MLOAD DUP2 DUP4 ADD MSTORE DUP4 MLOAD SWAP2 SWAP3 DUP4 SWAP3 SWAP1 DUP4 ADD SWAP2 DUP6 DUP2 ADD SWAP2 MUL DUP1 DUP4 DUP4 PUSH1 0x0 JUMPDEST DUP4 DUP2 LT ISZERO PUSH2 0x2FC JUMPI DUP2 DUP2 ADD MLOAD DUP4 DUP3 ADD MSTORE PUSH1 0x20 ADD PUSH2 0x2E4 JUMP JUMPDEST POP POP POP POP SWAP1 POP ADD SWAP3 POP POP POP PUSH1 0x40 MLOAD DUP1 SWAP2 SUB SWAP1 RETURN JUMPDEST PUSH2 0x333 PUSH1 0x4 DUP1 CALLDATASIZE SUB PUSH1 0x40 DUP2 LT ISZERO PUSH2 0x326 JUMPI PUSH1 0x0 DUP1 REVERT JUMPDEST POP DUP1 CALLDATALOAD SWAP1 PUSH1 0x20 ADD CALLDATALOAD PUSH2 0x865 JUMP JUMPDEST PUSH1 0x40 DUP1 MLOAD SWAP2 DUP3 MSTORE MLOAD SWAP1 DUP2 SWAP1 SUB PUSH1 0x20 ADD SWAP1 RETURN JUMPDEST PUSH2 0x333 PUSH1 0x4 DUP1 CALLDATASIZE SUB PUSH1 0x40 DUP2 LT ISZERO PUSH2 0x35B JUMPI PUSH1 0x0 DUP1 REVERT JUMPDEST POP DUP1 CALLDATALOAD SWAP1 PUSH1 0x20 ADD CALLDATALOAD PUSH2 0x8A3 JUMP JUMPDEST PUSH2 0x333 PUSH1 0x4 DUP1 CALLDATASIZE SUB PUSH1 0x20 DUP2 LT ISZERO PUSH2 0x37E JUMPI PUSH1 0x0 DUP1 REVERT JUMPDEST POP CALLDATALOAD PUSH2 0x8C0 JUMP JUMPDEST PUSH2 0x333 PUSH1 0x4 DUP1 CALLDATASIZE SUB PUSH1 0x20 DUP2 LT ISZERO PUSH2 0x39B JUMPI PUSH1 0x0 DUP1 REVERT JUMPDEST POP CALLDATALOAD PUSH2 0x8D2 JUMP JUMPDEST PUSH2 0x3AA PUSH2 0x8F5 JUMP JUMPDEST PUSH1 0x40 DUP1 MLOAD PUSH1 0x1 PUSH1 0x1 PUSH1 0xA0 SHL SUB SWAP1 SWAP3 AND DUP3 MSTORE MLOAD SWAP1 DUP2 SWAP1 SUB PUSH1 0x20 ADD SWAP1 RETURN JUMPDEST PUSH2 0x333 PUSH1 0x4 DUP1 CALLDATASIZE SUB PUSH1 0x20 DUP2 LT ISZERO PUSH2 0x3DC JUMPI PUSH1 0x0 DUP1 REVERT JUMPDEST POP CALLDATALOAD PUSH2 0x904 JUMP JUMPDEST PUSH2 0x265 PUSH1 0x4 DUP1 CALLDATASIZE SUB PUSH1 0x20 DUP2 LT ISZERO PUSH2 0x3F9 JUMPI PUSH1 0x0 DUP1 REVERT JUMPDEST POP CALLDATALOAD PUSH2 0x919 JUMP JUMPDEST PUSH2 0x333 PUSH1 0x4 DUP1 CALLDATASIZE SUB PUSH1 0x20 DUP2 LT ISZERO PUSH2 0x416 JUMPI PUSH1 0x0 DUP1 REVERT JUMPDEST POP CALLDATALOAD PUSH2 0x955 JUMP JUMPDEST PUSH2 0x333 PUSH2 0x973 JUMP JUMPDEST PUSH2 0x265 PUSH2 0x97A JUMP JUMPDEST PUSH2 0x265 PUSH1 0x4 DUP1 CALLDATASIZE SUB PUSH1 0x20 DUP2 LT ISZERO PUSH2 0x443 JUMPI PUSH1 0x0 DUP1 REVERT JUMPDEST POP CALLDATALOAD PUSH1 0xFF AND PUSH2 0x9D5 JUMP JUMPDEST PUSH2 0x333 PUSH2 0xA0E JUMP JUMPDEST PUSH2 0x265 PUSH1 0x4 DUP1 CALLDATASIZE SUB PUSH1 0x20 DUP2 LT ISZERO PUSH2 0x46B JUMPI PUSH1 0x0 DUP1 REVERT JUMPDEST DUP2 ADD SWAP1 PUSH1 0x20 DUP2 ADD DUP2 CALLDATALOAD PUSH5 0x100000000 DUP2 GT ISZERO PUSH2 0x486 JUMPI PUSH1 0x0 DUP1 REVERT JUMPDEST DUP3 ADD DUP4 PUSH1 0x20 DUP3 ADD GT ISZERO PUSH2 0x498 JUMPI PUSH1 0x0 DUP1 REVERT JUMPDEST DUP1 CALLDATALOAD SWAP1 PUSH1 0x20 ADD SWAP2 DUP5 PUSH1 0x1 DUP4 MUL DUP5 ADD GT PUSH5 0x100000000 DUP4 GT OR ISZERO PUSH2 0x4BA JUMPI PUSH1 0x0 DUP1 REVERT JUMPDEST SWAP2 SWAP1 DUP1 DUP1 PUSH1 0x1F ADD PUSH1 0x20 DUP1 SWAP2 DIV MUL PUSH1 0x20 ADD PUSH1 0x40 MLOAD SWAP1 DUP2 ADD PUSH1 0x40 MSTORE DUP1 SWAP4 SWAP3 SWAP2 SWAP1 DUP2 DUP2 MSTORE PUSH1 0x20 ADD DUP4 DUP4 DUP1 DUP3 DUP5 CALLDATACOPY PUSH1 0x0 SWAP3 ADD SWAP2 SWAP1 SWAP2 MSTORE POP SWAP3 SWAP6 POP PUSH2 0xA14 SWAP5 POP POP POP POP POP JUMP JUMPDEST PUSH2 0x3AA PUSH2 0xA2B JUMP JUMPDEST PUSH2 0x333 PUSH1 0x4 DUP1 CALLDATASIZE SUB PUSH1 0x20 DUP2 LT ISZERO PUSH2 0x519 JUMPI PUSH1 0x0 DUP1 REVERT JUMPDEST POP CALLDATALOAD PUSH2 0xA3A JUMP JUMPDEST PUSH2 0x528 PUSH2 0xA63 JUMP JUMPDEST PUSH1 0x40 DUP1 MLOAD SWAP2 ISZERO ISZERO DUP3 MSTORE MLOAD SWAP1 DUP2 SWAP1 SUB PUSH1 0x20 ADD SWAP1 RETURN JUMPDEST PUSH2 0x265 PUSH1 0x4 DUP1 CALLDATASIZE SUB PUSH1 0x40 DUP2 LT ISZERO PUSH2 0x552 JUMPI PUSH1 0x0 DUP1 REVERT JUMPDEST POP DUP1 CALLDATALOAD SWAP1 PUSH1 0x20 ADD CALLDATALOAD PUSH2 0xA74 JUMP JUMPDEST PUSH2 0x333 PUSH2 0xA89 JUMP JUMPDEST PUSH2 0x265 PUSH1 0x4 DUP1 CALLDATASIZE SUB PUSH1 0x20 DUP2 LT ISZERO PUSH2 0x57D JUMPI PUSH1 0x0 DUP1 REVERT JUMPDEST POP CALLDATALOAD PUSH2 0xA8E JUMP JUMPDEST PUSH2 0x333 PUSH1 0x4 DUP1 CALLDATASIZE SUB PUSH1 0x20 DUP2 LT ISZERO PUSH2 0x59A JUMPI PUSH1 0x0 DUP1 REVERT JUMPDEST POP CALLDATALOAD PUSH2 0xB3A JUMP JUMPDEST PUSH2 0x5BE PUSH1 0x4 DUP1 CALLDATASIZE SUB PUSH1 0x20 DUP2 LT ISZERO PUSH2 0x5B7 JUMPI PUSH1 0x0 DUP1 REVERT JUMPDEST POP CALLDATALOAD PUSH2 0xB47 JUMP JUMPDEST PUSH1 0x40 DUP1 MLOAD SWAP3 DUP4 MSTORE PUSH1 0x20 DUP4 ADD SWAP2 SWAP1 SWAP2 MSTORE DUP1 MLOAD SWAP2 DUP3 SWAP1 SUB ADD SWAP1 RETURN JUMPDEST PUSH2 0x333 PUSH2 0xB60 JUMP JUMPDEST PUSH2 0x265 PUSH1 0x4 DUP1 CALLDATASIZE SUB PUSH1 0x20 DUP2 LT ISZERO PUSH2 0x5F5 JUMPI PUSH1 0x0 DUP1 REVERT JUMPDEST POP CALLDATALOAD PUSH2 0xB66 JUMP JUMPDEST PUSH2 0x265 PUSH1 0x4 DUP1 CALLDATASIZE SUB PUSH1 0x20 DUP2 LT ISZERO PUSH2 0x612 JUMPI PUSH1 0x0 DUP1 REVERT JUMPDEST POP CALLDATALOAD PUSH1 0x1 PUSH1 0x1 PUSH1 0xA0 SHL SUB AND PUSH2 0xB6E JUMP JUMPDEST PUSH2 0x333 PUSH2 0xF99 JUMP JUMPDEST PUSH2 0x2C0 PUSH1 0x4 DUP1 CALLDATASIZE SUB PUSH1 0x20 DUP2 LT ISZERO PUSH2 0x640 JUMPI PUSH1 0x0 DUP1 REVERT JUMPDEST POP CALLDATALOAD PUSH2 0xF9F JUMP JUMPDEST PUSH2 0x265 PUSH1 0x4 DUP1 CALLDATASIZE SUB PUSH1 0x40 DUP2 LT ISZERO PUSH2 0x65D JUMPI PUSH1 0x0 DUP1 REVERT JUMPDEST POP DUP1 CALLDATALOAD SWAP1 PUSH1 0x20 ADD CALLDATALOAD PUSH2 0x1015 JUMP JUMPDEST PUSH2 0x3AA PUSH2 0x103B JUMP JUMPDEST PUSH2 0x67A PUSH2 0x104A JUMP JUMPDEST PUSH1 0x40 DUP1 MLOAD PUSH1 0x20 DUP1 DUP3 MSTORE DUP4 MLOAD DUP2 DUP4 ADD MSTORE DUP4 MLOAD SWAP2 SWAP3 DUP4 SWAP3 SWAP1 DUP4 ADD SWAP2 DUP6 ADD SWAP1 DUP1 DUP4 DUP4 PUSH1 0x0 JUMPDEST DUP4 DUP2 LT ISZERO PUSH2 0x6B4 JUMPI DUP2 DUP2 ADD MLOAD DUP4 DUP3 ADD MSTORE PUSH1 0x20 ADD PUSH2 0x69C JUMP JUMPDEST POP POP POP POP SWAP1 POP SWAP1 DUP2 ADD SWAP1 PUSH1 0x1F AND DUP1 ISZERO PUSH2 0x6E1 JUMPI DUP1 DUP3 SUB DUP1 MLOAD PUSH1 0x1 DUP4 PUSH1 0x20 SUB PUSH2 0x100 EXP SUB NOT AND DUP2 MSTORE PUSH1 0x20 ADD SWAP2 POP JUMPDEST POP SWAP3 POP POP POP PUSH1 0x40 MLOAD DUP1 SWAP2 SUB SWAP1 RETURN JUMPDEST PUSH2 0x6F7 PUSH2 0x10D8 JUMP JUMPDEST PUSH1 0x40 DUP1 MLOAD PUSH1 0xFF SWAP1 SWAP3 AND DUP3 MSTORE MLOAD SWAP1 DUP2 SWAP1 SUB PUSH1 0x20 ADD SWAP1 RETURN JUMPDEST PUSH2 0x2C0 PUSH1 0x4 DUP1 CALLDATASIZE SUB PUSH1 0x20 DUP2 LT ISZERO PUSH2 0x723 JUMPI PUSH1 0x0 DUP1 REVERT JUMPDEST POP CALLDATALOAD PUSH2 0x10E8 JUMP JUMPDEST PUSH2 0x333 PUSH2 0x114B JUMP JUMPDEST PUSH2 0x265 PUSH1 0x4 DUP1 CALLDATASIZE SUB PUSH1 0x20 DUP2 LT ISZERO PUSH2 0x748 JUMPI PUSH1 0x0 DUP1 REVERT JUMPDEST POP CALLDATALOAD PUSH1 0x1 PUSH1 0x1 PUSH1 0xA0 SHL SUB AND PUSH2 0x1151 JUMP JUMPDEST PUSH2 0x265 PUSH1 0x4 DUP1 CALLDATASIZE SUB PUSH1 0x20 DUP2 LT ISZERO PUSH2 0x76E JUMPI PUSH1 0x0 DUP1 REVERT JUMPDEST POP CALLDATALOAD PUSH1 0x1 PUSH1 0x1 PUSH1 0xA0 SHL SUB AND PUSH2 0x11C5 JUMP JUMPDEST PUSH2 0x333 PUSH2 0x11E2 JUMP JUMPDEST PUSH2 0x265 PUSH1 0x4 DUP1 CALLDATASIZE SUB PUSH1 0x40 DUP2 LT ISZERO PUSH2 0x79C JUMPI PUSH1 0x0 DUP1 REVERT JUMPDEST POP DUP1 CALLDATALOAD SWAP1 PUSH1 0x20 ADD CALLDATALOAD PUSH2 0x11E8 JUMP JUMPDEST PUSH1 0x9 DUP3 DUP2 SLOAD DUP2 LT PUSH2 0x7B6 JUMPI INVALID JUMPDEST PUSH1 0x0 SWAP2 DUP3 MSTORE PUSH1 0x20 DUP1 DUP4 KECCAK256 PUSH1 0x1 PUSH1 0x2 SWAP1 SWAP4 MUL ADD DUP3 ADD DUP1 SLOAD SWAP3 DUP4 ADD DUP2 SSTORE DUP4 MSTORE SWAP1 SWAP2 KECCAK256 ADD SSTORE POP JUMP JUMPDEST PUSH1 0xB DUP1 SLOAD PUSH1 0x1 ADD SWAP1 SSTORE PUSH2 0x7EC PUSH2 0x1417 JUMP JUMPDEST PUSH1 0xB SLOAD PUSH1 0x0 NOT ADD PUSH1 0x0 SWAP1 DUP2 MSTORE PUSH1 0xA PUSH1 0x20 SWAP1 DUP2 MSTORE PUSH1 0x40 SWAP1 SWAP2 KECCAK256 DUP3 MLOAD DUP2 SSTORE DUP2 DUP4 ADD MLOAD DUP1 MLOAD DUP5 SWAP4 PUSH2 0x821 SWAP3 PUSH1 0x1 DUP6 ADD SWAP3 SWAP2 ADD SWAP1 PUSH2 0x1438 JUMP JUMPDEST POP PUSH1 0x40 SWAP2 DUP3 ADD MLOAD PUSH1 0x2 SWAP1 SWAP2 ADD SSTORE PUSH1 0xB SLOAD PUSH1 0x0 NOT ADD PUSH1 0x0 SWAP1 DUP2 MSTORE PUSH1 0xA PUSH1 0x20 MSTORE KECCAK256 SWAP2 SWAP1 SWAP2 SSTORE POP JUMP JUMPDEST PUSH1 0x60 PUSH1 0x0 PUSH2 0x859 DUP6 DUP6 PUSH1 0x1 DUP7 DUP6 PUSH2 0x122A JUMP JUMPDEST DUP1 MLOAD ADD SWAP6 SWAP5 POP POP POP POP POP JUMP JUMPDEST PUSH1 0x0 PUSH1 0x9 DUP4 DUP2 SLOAD DUP2 LT PUSH2 0x874 JUMPI INVALID JUMPDEST SWAP1 PUSH1 0x0 MSTORE PUSH1 0x20 PUSH1 0x0 KECCAK256 SWAP1 PUSH1 0x2 MUL ADD PUSH1 0x1 ADD DUP3 DUP2 SLOAD DUP2 LT PUSH2 0x890 JUMPI INVALID JUMPDEST SWAP1 PUSH1 0x0 MSTORE PUSH1 0x20 PUSH1 0x0 KECCAK256 ADD SLOAD SWAP1 POP SWAP3 SWAP2 POP POP JUMP JUMPDEST PUSH1 0x0 DUP3 DUP2 MSTORE PUSH1 0xA PUSH1 0x20 MSTORE PUSH1 0x40 DUP2 KECCAK256 PUSH1 0x1 ADD DUP1 SLOAD DUP4 SWAP1 DUP2 LT PUSH2 0x890 JUMPI INVALID JUMPDEST PUSH1 0x7 PUSH1 0x20 MSTORE PUSH1 0x0 SWAP1 DUP2 MSTORE PUSH1 0x40 SWAP1 KECCAK256 SLOAD DUP2 JUMP JUMPDEST PUSH1 0x9 DUP2 DUP2 SLOAD DUP2 LT PUSH2 0x8DF JUMPI INVALID JUMPDEST PUSH1 0x0 SWAP2 DUP3 MSTORE PUSH1 0x20 SWAP1 SWAP2 KECCAK256 PUSH1 0x2 SWAP1 SWAP2 MUL ADD SLOAD SWAP1 POP DUP2 JUMP JUMPDEST PUSH1 0x2 SLOAD PUSH1 0x1 PUSH1 0x1 PUSH1 0xA0 SHL SUB AND DUP2 JUMP JUMPDEST PUSH1 0x0 SWAP1 DUP2 MSTORE PUSH1 0xA PUSH1 0x20 MSTORE PUSH1 0x40 SWAP1 KECCAK256 PUSH1 0x1 ADD SLOAD SWAP1 JUMP JUMPDEST PUSH1 0x6 DUP1 SLOAD PUSH1 0x1 DUP2 ADD DUP3 SSTORE PUSH1 0x0 SWAP2 SWAP1 SWAP2 MSTORE PUSH1 0x2 SWAP1 SWAP2 MUL PUSH32 0xF652222313E28459528D920B65115C16C04F3EFC82AAEDC97BE59F3F377C0D3F SWAP1 SWAP2 ADD SSTORE JUMP JUMPDEST PUSH1 0x6 DUP2 DUP2 SLOAD DUP2 LT PUSH2 0x962 JUMPI INVALID JUMPDEST PUSH1 0x0 SWAP2 DUP3 MSTORE PUSH1 0x20 SWAP1 SWAP2 KECCAK256 ADD SLOAD SWAP1 POP DUP2 JUMP JUMPDEST PUSH1 0x9 SLOAD JUMPDEST SWAP1 JUMP JUMPDEST PUSH2 0x982 PUSH2 0xA63 JUMP JUMPDEST PUSH2 0x98B JUMPI PUSH1 0x0 DUP1 REVERT JUMPDEST PUSH1 0x0 DUP1 SLOAD PUSH1 0x40 MLOAD PUSH1 0x1 PUSH1 0x1 PUSH1 0xA0 SHL SUB SWAP1 SWAP2 AND SWAP1 PUSH32 0x8BE0079C531659141344CD1FD0A4F28419497F9722A3DAAFE3B4186F6B6457E0 SWAP1 DUP4 SWAP1 LOG3 PUSH1 0x0 DUP1 SLOAD PUSH1 0x1 PUSH1 0x1 PUSH1 0xA0 SHL SUB NOT AND SWAP1 SSTORE JUMP JUMPDEST PUSH1 0x40 DUP1 MLOAD PUSH1 0xFF DUP4 AND DUP2 MSTORE SWAP1 MLOAD PUSH32 0xAAA2F1A2123F272349BBC5E43DCE6ED398BDD6091BB3F9540D7B011CDC221955 SWAP2 DUP2 SWAP1 SUB PUSH1 0x20 ADD SWAP1 LOG1 POP JUMP JUMPDEST PUSH1 0xC SLOAD DUP2 JUMP JUMPDEST DUP1 MLOAD PUSH2 0xA27 SWAP1 PUSH1 0x5 SWAP1 PUSH1 0x20 DUP5 ADD SWAP1 PUSH2 0x1483 JUMP JUMPDEST POP POP JUMP JUMPDEST PUSH1 0x0 SLOAD PUSH1 0x1 PUSH1 0x1 PUSH1 0xA0 SHL SUB AND SWAP1 JUMP JUMPDEST PUSH1 0x0 PUSH1 0x9 DUP3 DUP2 SLOAD DUP2 LT PUSH2 0xA49 JUMPI INVALID JUMPDEST PUSH1 0x0 SWAP2 DUP3 MSTORE PUSH1 0x20 SWAP1 SWAP2 KECCAK256 PUSH1 0x1 PUSH1 0x2 SWAP1 SWAP3 MUL ADD ADD SLOAD SWAP3 SWAP2 POP POP JUMP JUMPDEST PUSH1 0x0 SLOAD PUSH1 0x1 PUSH1 0x1 PUSH1 0xA0 SHL SUB AND CALLER EQ SWAP1 JUMP JUMPDEST PUSH1 0x0 SWAP2 DUP3 MSTORE PUSH1 0xA PUSH1 0x20 MSTORE PUSH1 0x40 SWAP1 SWAP2 KECCAK256 PUSH1 0x2 ADD SSTORE JUMP JUMPDEST PUSH1 0x14 SWAP1 JUMP JUMPDEST PUSH2 0xA96 PUSH2 0x14F0 JUMP JUMPDEST PUSH1 0x9 DUP1 SLOAD PUSH1 0x1 DUP2 ADD DUP3 SSTORE PUSH1 0x0 SWAP2 SWAP1 SWAP2 MSTORE DUP2 MLOAD PUSH1 0x2 SWAP1 SWAP2 MUL PUSH32 0x6E1540171B6C0C960B71A7020D9F60077F6AF931A8BBF590DA0223DACF75C7AF DUP2 ADD SWAP2 DUP3 SSTORE PUSH1 0x20 DUP1 DUP5 ADD MLOAD DUP1 MLOAD DUP6 SWAP5 SWAP4 PUSH2 0xB0E SWAP4 PUSH32 0x6E1540171B6C0C960B71A7020D9F60077F6AF931A8BBF590DA0223DACF75C7B0 SWAP1 SWAP2 ADD SWAP3 ADD SWAP1 PUSH2 0x1438 JUMP JUMPDEST POP POP PUSH1 0x9 DUP1 SLOAD DUP5 SWAP3 POP PUSH1 0x0 NOT DUP2 ADD SWAP1 DUP2 LT PUSH2 0xB25 JUMPI INVALID JUMPDEST PUSH1 0x0 SWAP2 DUP3 MSTORE PUSH1 0x20 SWAP1 SWAP2 KECCAK256 PUSH1 0x2 SWAP1 SWAP2 MUL ADD SSTORE POP POP JUMP JUMPDEST PUSH1 0x8 DUP2 DUP2 SLOAD DUP2 LT PUSH2 0x962 JUMPI INVALID JUMPDEST PUSH1 0xA PUSH1 0x20 MSTORE PUSH1 0x0 SWAP1 DUP2 MSTORE PUSH1 0x40 SWAP1 KECCAK256 DUP1 SLOAD PUSH1 0x2 SWAP1 SWAP2 ADD SLOAD DUP3 JUMP JUMPDEST PUSH1 0x4 SLOAD DUP2 JUMP JUMPDEST PUSH1 0x2 MUL PUSH1 0x4 SSTORE JUMP JUMPDEST PUSH2 0xB77 DUP2 PUSH2 0x127A JUMP JUMPDEST PUSH1 0x4 SLOAD PUSH2 0xB8B DUP3 PUSH4 0xA977A973 PUSH1 0xE0 SHL PUSH2 0x12D4 JUMP JUMPDEST EQ PUSH2 0xB95 JUMPI PUSH1 0x0 DUP1 REVERT JUMPDEST PUSH1 0x60 PUSH2 0xBA8 DUP3 PUSH4 0x1B74E5CB PUSH1 0xE3 SHL PUSH2 0x12ED JUMP JUMPDEST PUSH1 0x5 SLOAD DUP2 MLOAD SWAP2 SWAP3 POP PUSH1 0x2 PUSH1 0x0 NOT PUSH2 0x100 PUSH1 0x1 DUP5 AND ISZERO MUL ADD SWAP1 SWAP2 AND DIV EQ DUP1 ISZERO PUSH2 0xC3F JUMPI POP PUSH1 0x5 PUSH1 0x40 MLOAD DUP1 DUP3 DUP1 SLOAD PUSH1 0x1 DUP2 PUSH1 0x1 AND ISZERO PUSH2 0x100 MUL SUB AND PUSH1 0x2 SWAP1 DIV DUP1 ISZERO PUSH2 0xC28 JUMPI DUP1 PUSH1 0x1F LT PUSH2 0xC06 JUMPI PUSH2 0x100 DUP1 DUP4 SLOAD DIV MUL DUP4 MSTORE SWAP2 DUP3 ADD SWAP2 PUSH2 0xC28 JUMP JUMPDEST DUP3 ADD SWAP2 SWAP1 PUSH1 0x0 MSTORE PUSH1 0x20 PUSH1 0x0 KECCAK256 SWAP1 JUMPDEST DUP2 SLOAD DUP2 MSTORE SWAP1 PUSH1 0x1 ADD SWAP1 PUSH1 0x20 ADD DUP1 DUP4 GT PUSH2 0xC14 JUMPI JUMPDEST POP POP SWAP2 POP POP PUSH1 0x40 MLOAD DUP1 SWAP2 SUB SWAP1 KECCAK256 DUP2 DUP1 MLOAD SWAP1 PUSH1 0x20 ADD KECCAK256 EQ JUMPDEST PUSH2 0xC48 JUMPI PUSH1 0x0 DUP1 REVERT JUMPDEST PUSH1 0x6 SLOAD PUSH2 0xC5C DUP4 PUSH4 0x61F32289 PUSH1 0xE1 SHL PUSH2 0x12D4 JUMP JUMPDEST EQ PUSH2 0xC66 JUMPI PUSH1 0x0 DUP1 REVERT JUMPDEST PUSH1 0x0 JUMPDEST PUSH1 0x6 SLOAD DUP2 LT ISZERO PUSH2 0xCB0 JUMPI PUSH1 0x6 DUP2 DUP2 SLOAD DUP2 LT PUSH2 0xC80 JUMPI INVALID JUMPDEST PUSH1 0x0 SWAP2 DUP3 MSTORE PUSH1 0x20 SWAP1 SWAP2 KECCAK256 ADD SLOAD PUSH2 0xC9E DUP5 PUSH4 0x649D64BF PUSH1 0xE0 SHL DUP5 PUSH2 0x1309 JUMP JUMPDEST EQ PUSH2 0xCA8 JUMPI PUSH1 0x0 DUP1 REVERT JUMPDEST PUSH1 0x1 ADD PUSH2 0xC69 JUMP JUMPDEST POP PUSH1 0x0 JUMPDEST PUSH1 0x8 SLOAD DUP2 LT ISZERO PUSH2 0xD11 JUMPI PUSH1 0x0 PUSH1 0x8 DUP3 DUP2 SLOAD DUP2 LT PUSH2 0xCCD JUMPI INVALID JUMPDEST PUSH1 0x0 SWAP2 DUP3 MSTORE PUSH1 0x20 DUP1 DUP4 KECCAK256 SWAP1 SWAP2 ADD SLOAD DUP1 DUP4 MSTORE PUSH1 0x7 SWAP1 SWAP2 MSTORE PUSH1 0x40 SWAP1 SWAP2 KECCAK256 SLOAD SWAP1 SWAP2 POP PUSH2 0xCFE DUP6 PUSH4 0x332B4EAF PUSH1 0xE0 SHL DUP5 PUSH2 0x1309 JUMP JUMPDEST EQ PUSH2 0xD08 JUMPI PUSH1 0x0 DUP1 REVERT JUMPDEST POP PUSH1 0x1 ADD PUSH2 0xCB4 JUMP JUMPDEST POP PUSH1 0x9 SLOAD PUSH2 0xD26 DUP4 PUSH4 0x67099ABF PUSH1 0xE0 SHL PUSH2 0x12D4 JUMP JUMPDEST EQ PUSH2 0xD30 JUMPI PUSH1 0x0 DUP1 REVERT JUMPDEST PUSH1 0x0 JUMPDEST PUSH1 0x9 SLOAD DUP2 LT ISZERO PUSH2 0xE4B JUMPI PUSH1 0x9 DUP2 DUP2 SLOAD DUP2 LT PUSH2 0xD4A JUMPI INVALID JUMPDEST PUSH1 0x0 SWAP2 DUP3 MSTORE PUSH1 0x20 SWAP1 SWAP2 KECCAK256 PUSH1 0x2 SWAP1 SWAP2 MUL ADD SLOAD PUSH2 0xD6D DUP5 PUSH4 0x42A89D0D PUSH1 0xE0 SHL DUP5 PUSH2 0x1309 JUMP JUMPDEST EQ PUSH2 0xD77 JUMPI PUSH1 0x0 DUP1 REVERT JUMPDEST PUSH1 0x60 PUSH2 0xD8B DUP5 PUSH4 0xC68FCDBF PUSH1 0xE0 SHL DUP5 PUSH2 0x847 JUMP JUMPDEST SWAP1 POP PUSH1 0x9 DUP3 DUP2 SLOAD DUP2 LT PUSH2 0xD9A JUMPI INVALID JUMPDEST SWAP1 PUSH1 0x0 MSTORE PUSH1 0x20 PUSH1 0x0 KECCAK256 SWAP1 PUSH1 0x2 MUL ADD PUSH1 0x1 ADD DUP1 SLOAD SWAP1 POP DUP2 MLOAD EQ PUSH2 0xDBB JUMPI PUSH1 0x0 DUP1 REVERT JUMPDEST PUSH1 0x0 JUMPDEST PUSH1 0x9 DUP4 DUP2 SLOAD DUP2 LT PUSH2 0xDCB JUMPI INVALID JUMPDEST SWAP1 PUSH1 0x0 MSTORE PUSH1 0x20 PUSH1 0x0 KECCAK256 SWAP1 PUSH1 0x2 MUL ADD PUSH1 0x1 ADD DUP1 SLOAD SWAP1 POP DUP2 LT ISZERO PUSH2 0xE41 JUMPI PUSH1 0x9 DUP4 DUP2 SLOAD DUP2 LT PUSH2 0xDF4 JUMPI INVALID JUMPDEST SWAP1 PUSH1 0x0 MSTORE PUSH1 0x20 PUSH1 0x0 KECCAK256 SWAP1 PUSH1 0x2 MUL ADD PUSH1 0x1 ADD DUP2 DUP2 SLOAD DUP2 LT PUSH2 0xE10 JUMPI INVALID JUMPDEST SWAP1 PUSH1 0x0 MSTORE PUSH1 0x20 PUSH1 0x0 KECCAK256 ADD SLOAD DUP3 DUP3 DUP2 MLOAD DUP2 LT PUSH2 0xE27 JUMPI INVALID JUMPDEST PUSH1 0x20 MUL PUSH1 0x20 ADD ADD MLOAD EQ PUSH2 0xE39 JUMPI PUSH1 0x0 DUP1 REVERT JUMPDEST PUSH1 0x1 ADD PUSH2 0xDBE JUMP JUMPDEST POP POP PUSH1 0x1 ADD PUSH2 0xD33 JUMP JUMPDEST POP PUSH1 0xB SLOAD PUSH2 0xE60 DUP4 PUSH4 0xF3D93CF1 PUSH1 0xE0 SHL PUSH2 0x12D4 JUMP JUMPDEST EQ PUSH2 0xE6A JUMPI PUSH1 0x0 DUP1 REVERT JUMPDEST PUSH1 0x0 JUMPDEST PUSH1 0xB SLOAD DUP2 LT ISZERO PUSH2 0xF7A JUMPI PUSH2 0xE7F PUSH2 0x1417 JUMP JUMPDEST PUSH2 0xE91 DUP5 PUSH4 0x52A5BD41 PUSH1 0xE1 SHL DUP5 PUSH2 0x1324 JUMP JUMPDEST PUSH1 0x0 DUP4 DUP2 MSTORE PUSH1 0xA PUSH1 0x20 MSTORE PUSH1 0x40 SWAP1 KECCAK256 SLOAD DUP2 MLOAD SWAP2 SWAP3 POP EQ PUSH2 0xEAF JUMPI PUSH1 0x0 DUP1 REVERT JUMPDEST PUSH1 0x0 DUP3 DUP2 MSTORE PUSH1 0xA PUSH1 0x20 MSTORE PUSH1 0x40 SWAP1 DUP2 SWAP1 KECCAK256 PUSH1 0x2 ADD SLOAD SWAP1 DUP3 ADD MLOAD EQ PUSH2 0xED1 JUMPI PUSH1 0x0 DUP1 REVERT JUMPDEST PUSH1 0x60 PUSH2 0xEE4 DUP6 PUSH3 0xE3AD1D PUSH1 0xE8 SHL DUP6 PUSH2 0x847 JUMP JUMPDEST PUSH1 0x0 DUP5 DUP2 MSTORE PUSH1 0xA PUSH1 0x20 MSTORE PUSH1 0x40 SWAP1 KECCAK256 PUSH1 0x1 ADD SLOAD DUP2 MLOAD SWAP2 SWAP3 POP EQ PUSH2 0xF05 JUMPI PUSH1 0x0 DUP1 REVERT JUMPDEST PUSH1 0x0 JUMPDEST PUSH1 0x0 DUP5 DUP2 MSTORE PUSH1 0xA PUSH1 0x20 MSTORE PUSH1 0x40 SWAP1 KECCAK256 PUSH1 0x1 ADD SLOAD DUP2 LT ISZERO PUSH2 0xF6F JUMPI PUSH1 0x0 DUP5 DUP2 MSTORE PUSH1 0xA PUSH1 0x20 MSTORE PUSH1 0x40 SWAP1 KECCAK256 PUSH1 0x1 ADD DUP1 SLOAD DUP3 SWAP1 DUP2 LT PUSH2 0xF3E JUMPI INVALID JUMPDEST SWAP1 PUSH1 0x0 MSTORE PUSH1 0x20 PUSH1 0x0 KECCAK256 ADD SLOAD DUP3 DUP3 DUP2 MLOAD DUP2 LT PUSH2 0xF55 JUMPI INVALID JUMPDEST PUSH1 0x20 MUL PUSH1 0x20 ADD ADD MLOAD EQ PUSH2 0xF67 JUMPI PUSH1 0x0 DUP1 REVERT JUMPDEST PUSH1 0x1 ADD PUSH2 0xF08 JUMP JUMPDEST POP POP POP PUSH1 0x1 ADD PUSH2 0xE6D JUMP JUMPDEST POP PUSH1 0xC SLOAD PUSH2 0xF8F DUP4 PUSH4 0x221EFE5 PUSH1 0xE6 SHL PUSH2 0x12D4 JUMP JUMPDEST EQ PUSH2 0xA27 JUMPI PUSH1 0x0 DUP1 REVERT JUMPDEST PUSH1 0x6 SLOAD SWAP1 JUMP JUMPDEST PUSH1 0x60 PUSH1 0x9 DUP3 DUP2 SLOAD DUP2 LT PUSH2 0xFAE JUMPI INVALID JUMPDEST SWAP1 PUSH1 0x0 MSTORE PUSH1 0x20 PUSH1 0x0 KECCAK256 SWAP1 PUSH1 0x2 MUL ADD PUSH1 0x1 ADD DUP1 SLOAD DUP1 PUSH1 0x20 MUL PUSH1 0x20 ADD PUSH1 0x40 MLOAD SWAP1 DUP2 ADD PUSH1 0x40 MSTORE DUP1 SWAP3 SWAP2 SWAP1 DUP2 DUP2 MSTORE PUSH1 0x20 ADD DUP3 DUP1 SLOAD DUP1 ISZERO PUSH2 0x1009 JUMPI PUSH1 0x20 MUL DUP3 ADD SWAP2 SWAP1 PUSH1 0x0 MSTORE PUSH1 0x20 PUSH1 0x0 KECCAK256 SWAP1 JUMPDEST DUP2 SLOAD DUP2 MSTORE PUSH1 0x20 ADD SWAP1 PUSH1 0x1 ADD SWAP1 DUP1 DUP4 GT PUSH2 0xFF5 JUMPI JUMPDEST POP POP POP POP POP SWAP1 POP SWAP2 SWAP1 POP JUMP JUMPDEST PUSH1 0x0 SWAP2 DUP3 MSTORE PUSH1 0xA PUSH1 0x20 SWAP1 DUP2 MSTORE PUSH1 0x40 DUP4 KECCAK256 PUSH1 0x1 SWAP1 DUP2 ADD DUP1 SLOAD SWAP2 DUP3 ADD DUP2 SSTORE DUP5 MSTORE SWAP3 KECCAK256 SWAP1 SWAP2 ADD SSTORE JUMP JUMPDEST PUSH1 0x1 SLOAD PUSH1 0x1 PUSH1 0x1 PUSH1 0xA0 SHL SUB AND DUP2 JUMP JUMPDEST PUSH1 0x5 DUP1 SLOAD PUSH1 0x40 DUP1 MLOAD PUSH1 0x20 PUSH1 0x2 PUSH1 0x1 DUP6 AND ISZERO PUSH2 0x100 MUL PUSH1 0x0 NOT ADD SWAP1 SWAP5 AND SWAP4 SWAP1 SWAP4 DIV PUSH1 0x1F DUP2 ADD DUP5 SWAP1 DIV DUP5 MUL DUP3 ADD DUP5 ADD SWAP1 SWAP3 MSTORE DUP2 DUP2 MSTORE SWAP3 SWAP2 DUP4 ADD DUP3 DUP3 DUP1 ISZERO PUSH2 0x10D0 JUMPI DUP1 PUSH1 0x1F LT PUSH2 0x10A5 JUMPI PUSH2 0x100 DUP1 DUP4 SLOAD DIV MUL DUP4 MSTORE SWAP2 PUSH1 0x20 ADD SWAP2 PUSH2 0x10D0 JUMP JUMPDEST DUP3 ADD SWAP2 SWAP1 PUSH1 0x0 MSTORE PUSH1 0x20 PUSH1 0x0 KECCAK256 SWAP1 JUMPDEST DUP2 SLOAD DUP2 MSTORE SWAP1 PUSH1 0x1 ADD SWAP1 PUSH1 0x20 ADD DUP1 DUP4 GT PUSH2 0x10B3 JUMPI DUP3 SWAP1 SUB PUSH1 0x1F AND DUP3 ADD SWAP2 JUMPDEST POP POP POP POP POP DUP2 JUMP JUMPDEST PUSH1 0x2 SLOAD PUSH1 0x1 PUSH1 0xA0 SHL SWAP1 DIV PUSH1 0xFF AND DUP2 JUMP JUMPDEST PUSH1 0x0 DUP2 DUP2 MSTORE PUSH1 0xA PUSH1 0x20 SWAP1 DUP2 MSTORE PUSH1 0x40 SWAP2 DUP3 SWAP1 KECCAK256 PUSH1 0x1 ADD DUP1 SLOAD DUP4 MLOAD DUP2 DUP5 MUL DUP2 ADD DUP5 ADD SWAP1 SWAP5 MSTORE DUP1 DUP5 MSTORE PUSH1 0x60 SWAP4 SWAP3 DUP4 ADD DUP3 DUP3 DUP1 ISZERO PUSH2 0x1009 JUMPI PUSH1 0x20 MUL DUP3 ADD SWAP2 SWAP1 PUSH1 0x0 MSTORE PUSH1 0x20 PUSH1 0x0 KECCAK256 SWAP1 DUP2 SLOAD DUP2 MSTORE PUSH1 0x20 ADD SWAP1 PUSH1 0x1 ADD SWAP1 DUP1 DUP4 GT PUSH2 0xFF5 JUMPI POP POP POP POP POP SWAP1 POP SWAP2 SWAP1 POP JUMP JUMPDEST PUSH1 0xB SLOAD DUP2 JUMP JUMPDEST PUSH2 0x115A DUP2 PUSH2 0x134F JUMP JUMPDEST DUP1 PUSH1 0x1 PUSH1 0x1 PUSH1 0xA0 SHL SUB AND PUSH4 0x887BF940 PUSH1 0x40 MLOAD DUP2 PUSH4 0xFFFFFFFF AND PUSH1 0xE0 SHL DUP2 MSTORE PUSH1 0x4 ADD PUSH1 0x20 PUSH1 0x40 MLOAD DUP1 DUP4 SUB DUP2 DUP7 DUP1 EXTCODESIZE ISZERO DUP1 ISZERO PUSH2 0x1193 JUMPI PUSH1 0x0 DUP1 REVERT JUMPDEST POP GAS STATICCALL ISZERO DUP1 ISZERO PUSH2 0x11A7 JUMPI RETURNDATASIZE PUSH1 0x0 DUP1 RETURNDATACOPY RETURNDATASIZE PUSH1 0x0 REVERT JUMPDEST POP POP POP POP PUSH1 0x40 MLOAD RETURNDATASIZE PUSH1 0x20 DUP2 LT ISZERO PUSH2 0x11BD JUMPI PUSH1 0x0 DUP1 REVERT JUMPDEST POP MLOAD PUSH1 0xC SSTORE POP JUMP JUMPDEST PUSH2 0x11CD PUSH2 0xA63 JUMP JUMPDEST PUSH2 0x11D6 JUMPI PUSH1 0x0 DUP1 REVERT JUMPDEST PUSH2 0x11DF DUP2 PUSH2 0x13A9 JUMP JUMPDEST POP JUMP JUMPDEST PUSH1 0xB SLOAD SWAP1 JUMP JUMPDEST PUSH1 0x8 DUP1 SLOAD PUSH1 0x1 DUP2 ADD SWAP1 SWAP2 SSTORE PUSH32 0xF3F7A9FE364FAAB93B216DA50A3214154F22A0A2B415B23A84C8169E8B636EE3 ADD DUP3 SWAP1 SSTORE PUSH1 0x0 SWAP2 DUP3 MSTORE PUSH1 0x7 PUSH1 0x20 MSTORE PUSH1 0x40 SWAP1 SWAP2 KECCAK256 SSTORE JUMP JUMPDEST PUSH1 0x40 MLOAD DUP5 DUP2 MSTORE DUP4 ISZERO PUSH2 0x123D JUMPI DUP3 PUSH1 0x4 DUP3 ADD MSTORE JUMPDEST PUSH1 0x1 DUP5 GT ISZERO PUSH2 0x124D JUMPI DUP2 PUSH1 0x24 DUP3 ADD MSTORE JUMPDEST PUSH1 0x0 DUP1 DUP6 PUSH1 0x20 MUL PUSH1 0x4 ADD DUP4 DUP10 GAS DELEGATECALL DUP1 ISZERO PUSH2 0x126B JUMPI RETURNDATASIZE PUSH1 0x0 DUP4 RETURNDATACOPY PUSH2 0x1270 JUMP JUMPDEST PUSH1 0x0 DUP3 REVERT JUMPDEST POP SWAP6 SWAP5 POP POP POP POP POP JUMP JUMPDEST PUSH1 0x2 DUP1 SLOAD PUSH1 0x1 PUSH1 0xA0 SHL SWAP1 DIV PUSH1 0xFF AND EQ PUSH2 0x1292 JUMPI PUSH1 0x0 DUP1 REVERT JUMPDEST PUSH1 0x40 DUP1 MLOAD CALLER DUP2 MSTORE SWAP1 MLOAD PUSH1 0x1 PUSH1 0x1 PUSH1 0xA0 SHL SUB DUP4 AND SWAP2 PUSH32 0x1E8D98C1B4A0D9BD2E2371026B632EB2773FCCE41742E41F02F574AB69868D4C SWAP2 SWAP1 DUP2 SWAP1 SUB PUSH1 0x20 ADD SWAP1 LOG2 POP JUMP JUMPDEST PUSH1 0x0 DUP1 PUSH2 0x12E4 DUP5 DUP5 DUP4 DUP1 DUP1 PUSH2 0x122A JUMP JUMPDEST MLOAD SWAP5 SWAP4 POP POP POP POP JUMP JUMPDEST PUSH1 0x60 PUSH1 0x0 PUSH2 0x12FE DUP5 DUP5 DUP4 DUP1 DUP1 PUSH2 0x122A JUMP JUMPDEST DUP1 MLOAD ADD SWAP5 SWAP4 POP POP POP POP JUMP JUMPDEST PUSH1 0x0 DUP1 PUSH2 0x131A DUP6 DUP6 PUSH1 0x1 DUP7 DUP6 PUSH2 0x122A JUMP JUMPDEST MLOAD SWAP6 SWAP5 POP POP POP POP POP JUMP JUMPDEST PUSH2 0x132C PUSH2 0x1417 JUMP JUMPDEST PUSH1 0x0 PUSH2 0x133C DUP6 DUP6 PUSH1 0x1 DUP7 DUP6 PUSH2 0x122A JUMP JUMPDEST PUSH1 0x20 DUP2 ADD MLOAD PUSH1 0x40 DUP3 ADD MSTORE SWAP6 SWAP5 POP POP POP POP POP JUMP JUMPDEST PUSH1 0x2 DUP1 SLOAD PUSH1 0x1 PUSH1 0xA0 SHL SWAP1 DIV PUSH1 0xFF AND EQ PUSH2 0x1367 JUMPI PUSH1 0x0 DUP1 REVERT JUMPDEST PUSH1 0x40 DUP1 MLOAD CALLER DUP2 MSTORE SWAP1 MLOAD PUSH1 0x1 PUSH1 0x1 PUSH1 0xA0 SHL SUB DUP4 AND SWAP2 PUSH32 0xD55EC27C5C6316913ED8803C18CFD1BFEFEA953DB909DCBA6140744A9D8B0D1F SWAP2 SWAP1 DUP2 SWAP1 SUB PUSH1 0x20 ADD SWAP1 LOG2 POP JUMP JUMPDEST PUSH1 0x1 PUSH1 0x1 PUSH1 0xA0 SHL SUB DUP2 AND PUSH2 0x13BC JUMPI PUSH1 0x0 DUP1 REVERT JUMPDEST PUSH1 0x0 DUP1 SLOAD PUSH1 0x40 MLOAD PUSH1 0x1 PUSH1 0x1 PUSH1 0xA0 SHL SUB DUP1 DUP6 AND SWAP4 SWAP3 AND SWAP2 PUSH32 0x8BE0079C531659141344CD1FD0A4F28419497F9722A3DAAFE3B4186F6B6457E0 SWAP2 LOG3 PUSH1 0x0 DUP1 SLOAD PUSH1 0x1 PUSH1 0x1 PUSH1 0xA0 SHL SUB NOT AND PUSH1 0x1 PUSH1 0x1 PUSH1 0xA0 SHL SUB SWAP3 SWAP1 SWAP3 AND SWAP2 SWAP1 SWAP2 OR SWAP1 SSTORE JUMP JUMPDEST PUSH1 0x40 MLOAD DUP1 PUSH1 0x60 ADD PUSH1 0x40 MSTORE DUP1 PUSH1 0x0 DUP2 MSTORE PUSH1 0x20 ADD PUSH1 0x60 DUP2 MSTORE PUSH1 0x20 ADD PUSH1 0x0 DUP2 MSTORE POP SWAP1 JUMP JUMPDEST DUP3 DUP1 SLOAD DUP3 DUP3 SSTORE SWAP1 PUSH1 0x0 MSTORE PUSH1 0x20 PUSH1 0x0 KECCAK256 SWAP1 DUP2 ADD SWAP3 DUP3 ISZERO PUSH2 0x1473 JUMPI SWAP2 PUSH1 0x20 MUL DUP3 ADD JUMPDEST DUP3 DUP2 GT ISZERO PUSH2 0x1473 JUMPI DUP3 MLOAD DUP3 SSTORE SWAP2 PUSH1 0x20 ADD SWAP2 SWAP1 PUSH1 0x1 ADD SWAP1 PUSH2 0x1458 JUMP JUMPDEST POP PUSH2 0x147F SWAP3 SWAP2 POP PUSH2 0x150A JUMP JUMPDEST POP SWAP1 JUMP JUMPDEST DUP3 DUP1 SLOAD PUSH1 0x1 DUP2 PUSH1 0x1 AND ISZERO PUSH2 0x100 MUL SUB AND PUSH1 0x2 SWAP1 DIV SWAP1 PUSH1 0x0 MSTORE PUSH1 0x20 PUSH1 0x0 KECCAK256 SWAP1 PUSH1 0x1F ADD PUSH1 0x20 SWAP1 DIV DUP2 ADD SWAP3 DUP3 PUSH1 0x1F LT PUSH2 0x14C4 JUMPI DUP1 MLOAD PUSH1 0xFF NOT AND DUP4 DUP1 ADD OR DUP6 SSTORE PUSH2 0x1473 JUMP JUMPDEST DUP3 DUP1 ADD PUSH1 0x1 ADD DUP6 SSTORE DUP3 ISZERO PUSH2 0x1473 JUMPI SWAP2 DUP3 ADD DUP3 DUP2 GT ISZERO PUSH2 0x1473 JUMPI DUP3 MLOAD DUP3 SSTORE SWAP2 PUSH1 0x20 ADD SWAP2 SWAP1 PUSH1 0x1 ADD SWAP1 PUSH2 0x1458 JUMP JUMPDEST PUSH1 0x40 MLOAD DUP1 PUSH1 0x40 ADD PUSH1 0x40 MSTORE DUP1 PUSH1 0x0 DUP2 MSTORE PUSH1 0x20 ADD PUSH1 0x60 DUP2 MSTORE POP SWAP1 JUMP JUMPDEST PUSH2 0x977 SWAP2 SWAP1 JUMPDEST DUP1 DUP3 GT ISZERO PUSH2 0x147F JUMPI PUSH1 0x0 DUP2 SSTORE PUSH1 0x1 ADD PUSH2 0x1510 JUMP INVALID LOG2 PUSH5 0x6970667358 0x22 SLT KECCAK256 EXTCODEHASH 0xF9 0xCB 0xE8 NUMBER LOG1 PUSH14 0x1D671C5AA77AF5ACA4CB69D38A97 LOG2 PUSH19 0xBA4802DB7D51B6DA4264736F6C634300060700 CALLER ",
  "sha1": "4f26411bc445ffe7d0b99ce1e45c4162385b9fdc",
  "source": "pragma solidity ^0.6.1;\n\n\nimport \"contracts/proxy/Upgradeable.sol\";\n\n\n/**\n* @dev Extension of the contract using valid storage variables\n*/\ncontract ContractV2 is Upgradeable {\n\n    event EventV2(uint8 value);\n\n    uint256 public storageValue;\n    string public dynamicallySizedValue;\n    uint256[] public arrayValues;\n    mapping (uint256 => uint256) public mappingValues;\n    uint256[] public mappingIndices;\n\n    struct Structure1 {\n        uint256 value;\n        uint256[] arrayValues;\n    }\n    Structure1[] public arrayStructures;\n\n    struct Structure2 {\n        uint256 value;\n        uint256[] arrayValues;\n        uint256 valueToCheck;\n    }\n    mapping (uint256 => Structure2) public mappingStructures;\n    uint256 public mappingStructuresLength;\n\n    uint256 public storageValueToCheck;\n\n    constructor(uint256 _storageValueToCheck) public {\n        storageValueToCheck = _storageValueToCheck;\n    }\n\n    function returnValue() public pure returns (uint256) {\n        return 20;\n    }\n\n    function setStorageValue(uint256 _value) public {\n        storageValue = _value * 2;\n    }\n\n    function setDynamicallySizedValue(string memory _dynamicValue) public {\n        dynamicallySizedValue = _dynamicValue;\n    }\n\n    function pushArrayValue(uint256 _value) public {\n        arrayValues.push(2 * _value);\n    }\n    function getArrayValueLength() public view returns (uint256) {\n        return arrayValues.length;\n    }\n\n    function setMappingValue(uint256 _index, uint256 _value) public {\n        mappingIndices.push(_index);\n        mappingValues[_index] = _value;\n    }\n\n    function getStructureLength1() public view returns (uint256) {\n        return arrayStructures.length;\n    }\n    function pushStructureValue1(uint256 _value) public {\n        Structure1 memory structure;\n        arrayStructures.push(structure);\n        arrayStructures[arrayStructures.length - 1].value = _value;\n    }\n    function getStructureArrayLength1(uint256 _index) public view returns (uint256) {\n        return arrayStructures[_index].arrayValues.length;\n    }\n    function pushStructureArrayValue1(uint256 _index, uint256 _value) public {\n        arrayStructures[_index].arrayValues.push(_value);\n    }\n    function getStructureArrayValue1(uint256 _index, uint256 _arrayIndex) public view returns (uint256) {\n        return arrayStructures[_index].arrayValues[_arrayIndex];\n    }\n\n    function getStructureLength2() public view returns (uint256) {\n        return mappingStructuresLength;\n    }\n    function pushStructureValue2(uint256 _value) public {\n        mappingStructuresLength++;\n        Structure2 memory structure;\n        mappingStructures[mappingStructuresLength - 1] = structure;\n        mappingStructures[mappingStructuresLength - 1].value = _value;\n    }\n    function getStructureArrayLength2(uint256 _index) public view returns (uint256) {\n        return mappingStructures[_index].arrayValues.length;\n    }\n    function pushStructureArrayValue2(uint256 _index, uint256 _value) public {\n        mappingStructures[_index].arrayValues.push(_value);\n    }\n    function getStructureArrayValue2(uint256 _index, uint256 _arrayIndex) public view returns (uint256) {\n        return mappingStructures[_index].arrayValues[_arrayIndex];\n    }\n\n    function setStructureValueToCheck2(uint256 _index, uint256 _value) public {\n        mappingStructures[_index].valueToCheck = _value;\n    }\n\n    function getStructure1ArrayValues(uint256 _index) public view returns (uint256[] memory) {\n        return arrayStructures[_index].arrayValues;\n    }\n\n    function getStructure2ArrayValues(uint256 _index) public view returns (uint256[] memory) {\n        return mappingStructures[_index].arrayValues;\n    }\n\n    function verifyState(address _testTarget) public override virtual {\n        super.verifyState(_testTarget);\n        require(delegateGet(_testTarget, this.storageValue.selector) == storageValue);\n        bytes memory value = delegateGetBytes(_testTarget, this.dynamicallySizedValue.selector);\n        require(value.length == bytes(dynamicallySizedValue).length &&\n            keccak256(value) == keccak256(bytes(dynamicallySizedValue)));\n\n        require(delegateGet(_testTarget, this.getArrayValueLength.selector) == arrayValues.length);\n        for (uint256 i = 0; i < arrayValues.length; i++) {\n            require(delegateGet(_testTarget, this.arrayValues.selector, bytes32(i)) == arrayValues[i]);\n        }\n        for (uint256 i = 0; i < mappingIndices.length; i++) {\n            uint256 index = mappingIndices[i];\n            require(delegateGet(_testTarget, this.mappingValues.selector, bytes32(index)) ==\n                mappingValues[index]);\n        }\n\n        require(delegateGet(_testTarget, this.getStructureLength1.selector) == arrayStructures.length);\n        for (uint256 i = 0; i < arrayStructures.length; i++) {\n            require(delegateGet(_testTarget, this.arrayStructures.selector, bytes32(i)) == arrayStructures[i].value);\n\n            uint256[] memory values = delegateGetArray(_testTarget, this.getStructure1ArrayValues.selector, bytes32(i));\n            require(values.length == arrayStructures[i].arrayValues.length);\n            for (uint256 j = 0; j < arrayStructures[i].arrayValues.length; j++) {\n                require(values[j] == arrayStructures[i].arrayValues[j]);\n            }\n        }\n\n        require(delegateGet(_testTarget, this.getStructureLength2.selector) == mappingStructuresLength);\n        for (uint256 i = 0; i < mappingStructuresLength; i++) {\n            Structure2 memory structure2 = delegateGetStructure2(_testTarget, this.mappingStructures.selector, bytes32(i));\n            require(structure2.value == mappingStructures[i].value);\n            require(structure2.valueToCheck == mappingStructures[i].valueToCheck);\n\n            uint256[] memory values = delegateGetArray(_testTarget, this.getStructure2ArrayValues.selector, bytes32(i));\n            require(values.length == mappingStructures[i].arrayValues.length);\n            for (uint256 j = 0; j < mappingStructures[i].arrayValues.length; j++) {\n                require(values[j] == mappingStructures[i].arrayValues[j]);\n            }\n        }\n\n        require(delegateGet(_testTarget, this.storageValueToCheck.selector) == storageValueToCheck);\n    }\n\n    function delegateGetStructure2(address _target, bytes4 _selector, bytes32 _argument)\n        internal returns (Structure2 memory result)\n    {\n        bytes32 memoryAddress = delegateGetData(_target, _selector, 1, _argument, 0);\n        assembly {\n            result := memoryAddress\n            // copy data to the right position because of it is the array pointer place (arrayValues)\n            mstore(add(memoryAddress, 0x40), mload(add(memoryAddress, 0x20)))\n        }\n    }\n\n    function delegateGetBytes(address _target, bytes4 _selector)\n        internal returns (bytes memory result)\n    {\n        bytes32 memoryAddress = delegateGetData(_target, _selector, 0, 0, 0);\n        assembly {\n            result := add(memoryAddress, mload(memoryAddress))\n        }\n    }\n\n    /**\n    * @dev Get array by one parameter.\n    */\n    function delegateGetArray(\n        address _target,\n        bytes4 _selector,\n        bytes32 _argument\n    )\n        public returns (uint256[] memory result)\n    {\n        bytes32 memoryAddress = delegateGetData(_target, _selector, 1, _argument, 0);\n        assembly {\n            result := add(memoryAddress, mload(memoryAddress))\n        }\n    }\n\n    function finishUpgrade(address _target) public override {\n        super.finishUpgrade(_target);\n        storageValueToCheck = ContractV2(_target).storageValueToCheck();\n    }\n\n    function createEvent(uint8 _value) public {\n        emit EventV2(_value);\n    }\n}\n",
  "sourcePath": "contracts/proxy/ContractV2.sol",
  "type": "contract"
}