{
  "abi": [
    {
      "inputs": [
        {
          "internalType": "uint256",
          "name": "_storageValueToCheck",
          "type": "uint256"
        }
      ],
      "stateMutability": "nonpayable",
      "type": "constructor"
    },
    {
      "anonymous": false,
      "inputs": [
        {
          "indexed": true,
          "internalType": "address",
          "name": "previousOwner",
          "type": "address"
        },
        {
          "indexed": true,
          "internalType": "address",
          "name": "newOwner",
          "type": "address"
        }
      ],
      "name": "OwnershipTransferred",
      "type": "event"
    },
    {
      "anonymous": false,
      "inputs": [
        {
          "indexed": true,
          "internalType": "address",
          "name": "testTarget",
          "type": "address"
        },
        {
          "indexed": false,
          "internalType": "address",
          "name": "sender",
          "type": "address"
        }
      ],
      "name": "StateVerified",
      "type": "event"
    },
    {
      "anonymous": false,
      "inputs": [
        {
          "indexed": true,
          "internalType": "address",
          "name": "target",
          "type": "address"
        },
        {
          "indexed": false,
          "internalType": "address",
          "name": "sender",
          "type": "address"
        }
      ],
      "name": "UpgradeFinished",
      "type": "event"
    },
    {
      "inputs": [],
      "name": "anotherStorageValue",
      "outputs": [
        {
          "internalType": "uint256",
          "name": "",
          "type": "uint256"
        }
      ],
      "stateMutability": "view",
      "type": "function"
    },
    {
      "inputs": [
        {
          "internalType": "uint256",
          "name": "_index",
          "type": "uint256"
        }
      ],
      "name": "arrayStructures",
      "outputs": [
        {
          "internalType": "uint256",
          "name": "",
          "type": "uint256"
        }
      ],
      "stateMutability": "view",
      "type": "function"
    },
    {
      "inputs": [
        {
          "internalType": "uint256",
          "name": "_index",
          "type": "uint256"
        }
      ],
      "name": "arrayValues",
      "outputs": [
        {
          "internalType": "uint256",
          "name": "",
          "type": "uint256"
        }
      ],
      "stateMutability": "view",
      "type": "function"
    },
    {
      "inputs": [],
      "name": "dynamicallySizedValue",
      "outputs": [
        {
          "internalType": "string",
          "name": "value",
          "type": "string"
        }
      ],
      "stateMutability": "view",
      "type": "function"
    },
    {
      "inputs": [
        {
          "internalType": "address",
          "name": "_target",
          "type": "address"
        }
      ],
      "name": "finishUpgrade",
      "outputs": [],
      "stateMutability": "nonpayable",
      "type": "function"
    },
    {
      "inputs": [],
      "name": "getArrayValueLength",
      "outputs": [
        {
          "internalType": "uint256",
          "name": "",
          "type": "uint256"
        }
      ],
      "stateMutability": "view",
      "type": "function"
    },
    {
      "inputs": [],
      "name": "getMappingIndicesLength",
      "outputs": [
        {
          "internalType": "uint256",
          "name": "",
          "type": "uint256"
        }
      ],
      "stateMutability": "view",
      "type": "function"
    },
    {
      "inputs": [
        {
          "internalType": "uint256",
          "name": "_index",
          "type": "uint256"
        }
      ],
      "name": "getStructure1ArrayValues",
      "outputs": [
        {
          "internalType": "uint256[]",
          "name": "result",
          "type": "uint256[]"
        }
      ],
      "stateMutability": "view",
      "type": "function"
    },
    {
      "inputs": [
        {
          "internalType": "uint256",
          "name": "_index",
          "type": "uint256"
        }
      ],
      "name": "getStructure2ArrayValues",
      "outputs": [
        {
          "internalType": "uint256[]",
          "name": "result",
          "type": "uint256[]"
        }
      ],
      "stateMutability": "view",
      "type": "function"
    },
    {
      "inputs": [
        {
          "internalType": "uint256",
          "name": "_index",
          "type": "uint256"
        }
      ],
      "name": "getStructureArrayLength1",
      "outputs": [
        {
          "internalType": "uint256",
          "name": "",
          "type": "uint256"
        }
      ],
      "stateMutability": "view",
      "type": "function"
    },
    {
      "inputs": [
        {
          "internalType": "uint256",
          "name": "_index",
          "type": "uint256"
        }
      ],
      "name": "getStructureArrayLength2",
      "outputs": [
        {
          "internalType": "uint256",
          "name": "",
          "type": "uint256"
        }
      ],
      "stateMutability": "view",
      "type": "function"
    },
    {
      "inputs": [
        {
          "internalType": "uint256",
          "name": "_index",
          "type": "uint256"
        },
        {
          "internalType": "uint256",
          "name": "_arrayIndex",
          "type": "uint256"
        }
      ],
      "name": "getStructureArrayValue1",
      "outputs": [
        {
          "internalType": "uint256",
          "name": "",
          "type": "uint256"
        }
      ],
      "stateMutability": "view",
      "type": "function"
    },
    {
      "inputs": [
        {
          "internalType": "uint256",
          "name": "_index",
          "type": "uint256"
        },
        {
          "internalType": "uint256",
          "name": "_arrayIndex",
          "type": "uint256"
        }
      ],
      "name": "getStructureArrayValue2",
      "outputs": [
        {
          "internalType": "uint256",
          "name": "",
          "type": "uint256"
        }
      ],
      "stateMutability": "view",
      "type": "function"
    },
    {
      "inputs": [],
      "name": "getStructureLength1",
      "outputs": [
        {
          "internalType": "uint256",
          "name": "",
          "type": "uint256"
        }
      ],
      "stateMutability": "view",
      "type": "function"
    },
    {
      "inputs": [],
      "name": "getStructureLength2",
      "outputs": [
        {
          "internalType": "uint256",
          "name": "",
          "type": "uint256"
        }
      ],
      "stateMutability": "view",
      "type": "function"
    },
    {
      "inputs": [
        {
          "internalType": "uint256",
          "name": "_slotNumber",
          "type": "uint256"
        }
      ],
      "name": "getValue",
      "outputs": [
        {
          "internalType": "uint256",
          "name": "value",
          "type": "uint256"
        }
      ],
      "stateMutability": "view",
      "type": "function"
    },
    {
      "inputs": [],
      "name": "isOwner",
      "outputs": [
        {
          "internalType": "bool",
          "name": "",
          "type": "bool"
        }
      ],
      "stateMutability": "view",
      "type": "function"
    },
    {
      "inputs": [],
      "name": "isUpgrade",
      "outputs": [
        {
          "internalType": "uint8",
          "name": "",
          "type": "uint8"
        }
      ],
      "stateMutability": "view",
      "type": "function"
    },
    {
      "inputs": [
        {
          "internalType": "uint256",
          "name": "_index",
          "type": "uint256"
        }
      ],
      "name": "mappingIndices",
      "outputs": [
        {
          "internalType": "uint256",
          "name": "",
          "type": "uint256"
        }
      ],
      "stateMutability": "view",
      "type": "function"
    },
    {
      "inputs": [
        {
          "internalType": "uint256",
          "name": "_index",
          "type": "uint256"
        }
      ],
      "name": "mappingStructures",
      "outputs": [
        {
          "internalType": "uint256",
          "name": "value",
          "type": "uint256"
        },
        {
          "internalType": "uint256",
          "name": "valueToCheck",
          "type": "uint256"
        }
      ],
      "stateMutability": "view",
      "type": "function"
    },
    {
      "inputs": [
        {
          "internalType": "uint256",
          "name": "_index",
          "type": "uint256"
        }
      ],
      "name": "mappingValues",
      "outputs": [
        {
          "internalType": "uint256",
          "name": "",
          "type": "uint256"
        }
      ],
      "stateMutability": "view",
      "type": "function"
    },
    {
      "inputs": [],
      "name": "owner",
      "outputs": [
        {
          "internalType": "address",
          "name": "",
          "type": "address"
        }
      ],
      "stateMutability": "view",
      "type": "function"
    },
    {
      "inputs": [],
      "name": "previousTarget",
      "outputs": [
        {
          "internalType": "address",
          "name": "",
          "type": "address"
        }
      ],
      "stateMutability": "view",
      "type": "function"
    },
    {
      "inputs": [],
      "name": "renounceOwnership",
      "outputs": [],
      "stateMutability": "nonpayable",
      "type": "function"
    },
    {
      "inputs": [],
      "name": "returnValue",
      "outputs": [
        {
          "internalType": "uint256",
          "name": "",
          "type": "uint256"
        }
      ],
      "stateMutability": "pure",
      "type": "function"
    },
    {
      "inputs": [
        {
          "internalType": "uint256",
          "name": "_value",
          "type": "uint256"
        }
      ],
      "name": "setStorageValueToCheck",
      "outputs": [],
      "stateMutability": "nonpayable",
      "type": "function"
    },
    {
      "inputs": [],
      "name": "storageValue",
      "outputs": [
        {
          "internalType": "uint256",
          "name": "value",
          "type": "uint256"
        }
      ],
      "stateMutability": "view",
      "type": "function"
    },
    {
      "inputs": [],
      "name": "storageValueToCheck",
      "outputs": [
        {
          "internalType": "uint256",
          "name": "",
          "type": "uint256"
        }
      ],
      "stateMutability": "view",
      "type": "function"
    },
    {
      "inputs": [],
      "name": "target",
      "outputs": [
        {
          "internalType": "address",
          "name": "",
          "type": "address"
        }
      ],
      "stateMutability": "view",
      "type": "function"
    },
    {
      "inputs": [
        {
          "internalType": "address",
          "name": "newOwner",
          "type": "address"
        }
      ],
      "name": "transferOwnership",
      "outputs": [],
      "stateMutability": "nonpayable",
      "type": "function"
    },
    {
      "inputs": [
        {
          "internalType": "address",
          "name": "_testTarget",
          "type": "address"
        }
      ],
      "name": "verifyState",
      "outputs": [],
      "stateMutability": "nonpayable",
      "type": "function"
    }
  ],
  "bytecode": "608060405234801561001057600080fd5b506040516111303803806111308339818101604052602081101561003357600080fd5b5051600080546001600160a01b03191633178082556040516001600160a01b039190911691907f8be0079c531659141344cd1fd0a4f28419497f9722a3daafe3b4186f6b6457e0908290a3610090816001600160e01b0361009616565b5061009b565b600c55565b611086806100aa6000396000f3fe608060405234801561001057600080fd5b50600436106101e55760003560e01c80638f32d59b1161010f578063c68fcdbf116100a2578063e3ad1d0011610071578063e3ad1d0014610520578063e8dccd061461053d578063f2fde38b14610563578063f3d93cf114610589576101e5565b8063c68fcdbf14610410578063d4b839921461047d578063dba72e5814610485578063e38a303b14610502576101e5565b8063a977a973116100de578063a977a973146103d2578063b9626d21146103da578063c3e6451214610400578063c6122fb314610408576101e5565b80638f32d59b1461035b578063990c8f79146103775780639ffa6f211461037f578063a54b7a821461039c576101e5565b8063649d64bf1161018757806382a2b9681161015657806382a2b96814610311578063887bf9401461032e5780638da5cb5b146103365780638e9df67c1461033e576101e5565b8063649d64bf146102da57806364f94dc2146102f757806367099abf146102ff578063715018a614610307576101e5565b8063332b4eaf116101c3578063332b4eaf1461025f57806342a89d0d1461027c5780634b2cd1181461029957806352fae8fd146102bd576101e5565b80630ff4c916146101ea578063155a4d3e1461021957806321e72e191461023c575b600080fd5b6102076004803603602081101561020057600080fd5b5035610591565b60408051918252519081900360200190f35b6102076004803603604081101561022f57600080fd5b5080359060200135610595565b6102076004803603604081101561025257600080fd5b50803590602001356105d2565b6102076004803603602081101561027557600080fd5b5035610604565b6102076004803603602081101561029257600080fd5b5035610617565b6102a161063a565b604080516001600160a01b039092168252519081900360200190f35b610207600480360360208110156102d357600080fd5b5035610649565b610207600480360360208110156102f057600080fd5b5035610661565b610207610681565b610207610692565b61030f61069e565b005b61030f6004803603602081101561032757600080fd5b50356106f9565b6102076106fe565b6102a161070a565b6102076004803603602081101561035457600080fd5b5035610719565b61036361073f565b604080519115158252519081900360200190f35b610207610750565b6102076004803603602081101561039557600080fd5b5035610755565b6103b9600480360360208110156103b257600080fd5b5035610775565b6040805192835260208301919091528051918290030190f35b6102076107a6565b61030f600480360360208110156103f057600080fd5b50356001600160a01b03166107b2565b610207610ad4565b610207610ae0565b61042d6004803603602081101561042657600080fd5b5035610ae6565b60408051602080825283518183015283519192839290830191858101910280838360005b83811015610469578181015183820152602001610451565b505050509050019250505060405180910390f35b6102a1610b85565b61048d610b94565b6040805160208082528351818301528351919283929083019185019080838360005b838110156104c75781810151838201526020016104af565b50505050905090810190601f1680156104f45780820380516001836020036101000a031916815260200191505b509250505060405180910390f35b61050a610c9f565b6040805160ff9092168252519081900360200190f35b61042d6004803603602081101561053657600080fd5b5035610caf565b61030f6004803603602081101561055357600080fd5b50356001600160a01b0316610d44565b61030f6004803603602081101561057957600080fd5b50356001600160a01b0316610dbd565b610207610dd7565b5490565b60006105a083610719565b82106105ab57600080fd5b60006105be600985600202600101610de3565b90506105ca8184610df2565b949350505050565b60006105dd83610649565b82106105e857600080fd5b60006105f5600a85610e0d565b60010190506105ca8184610df2565b6000610611600783610e20565b92915050565b6000610621610692565b821061062c57600080fd5b610611600983600202610df2565b6002546001600160a01b031681565b6000610611610659600a84610e0d565b600101610591565b600061066b610ad4565b821061067657600080fd5b610611600683610df2565b600061068d6008610591565b905090565b600061068d6009610591565b6106a661073f565b6106af57600080fd5b600080546040516001600160a01b03909116907f8be0079c531659141344cd1fd0a4f28419497f9722a3daafe3b4186f6b6457e0908390a3600080546001600160a01b0319169055565b600c55565b600061068d600c610591565b6000546001600160a01b031690565b6000610723610692565b821061072e57600080fd5b610611600983600202600101610df2565b6000546001600160a01b0316331490565b601e90565b600061075f610681565b821061076a57600080fd5b610611600883610df2565b6000806000610785600a85610e0d565b905061079081610591565b925061079e81600201610591565b915050915091565b600061068d6004610591565b6107bb81610e2f565b6107c36107a6565b6107d48263a977a97360e01b610e89565b146107de57600080fd5b60606107f182631b74e5cb60e31b610ea2565b905060606107fd610b94565b90508051825114801561081d575080805190602001208280519060200120145b61082657600080fd5b6000610830610ad4565b905080610844856361f3228960e11b610e89565b1461084e57600080fd5b60005b818110156108865761086281610661565b6108748663649d64bf60e01b84610eb3565b1461087e57600080fd5b600101610851565b5061088f610681565b905060005b818110156108d75760006108a782610755565b90506108b281610604565b6108c48763332b4eaf60e01b84610eb3565b146108ce57600080fd5b50600101610894565b506108e0610692565b9050806108f4856367099abf60e01b610e89565b146108fe57600080fd5b60005b8181101561099c5761091281610617565b610924866342a89d0d60e01b84610eb3565b1461092e57600080fd5b600061093982610719565b90508061094e876323a77d9f60e21b85610eb3565b1461095857600080fd5b60005b818110156109925761096d8382610595565b61098088630aad269f60e11b8685610ece565b1461098a57600080fd5b60010161095b565b5050600101610901565b506109a5610dd7565b9050806109b98563f3d93cf160e01b610e89565b146109c357600080fd5b60005b81811015610a8c576109d661102f565b6109e8866352a5bd4160e11b84610eea565b90506000806109f684610775565b8451919350915082148015610a0e5750826040015181145b610a1757600080fd5b6000610a2285610649565b905080610a378a6352fae8fd60e01b88610eb3565b14610a4157600080fd5b60005b81811015610a7b57610a5686826105d2565b610a698b6321e72e1960e01b8985610ece565b14610a7357600080fd5b600101610a44565b5050600190930192506109c6915050565b50610a956106fe565b610aa685630221efe560e61b610e89565b14610ab057600080fd5b600d54610ac48563c6122fb360e01b610e89565b14610ace57600080fd5b50505050565b600061068d6006610591565b600d5481565b6060610af182610719565b67ffffffffffffffff81118015610b0757600080fd5b50604051908082528060200260200182016040528015610b31578160200160208202803683370190505b5090506000610b47600984600202600101610de3565b905060005b8251811015610b7e57610b5f8282610df2565b838281518110610b6b57fe5b6020908102919091010152600101610b4c565b5050919050565b6001546001600160a01b031681565b60606000610ba26005610591565b90506001811680610c13576000600260ff84160490508060ff1667ffffffffffffffff81118015610bd257600080fd5b506040519080825280601f01601f191660200182016040528015610bfd576020820181803683370190505b5093508260208501526000603f85015350610c9a565b60026000198301048067ffffffffffffffff81118015610c3257600080fd5b506040519080825280601f01601f191660200182016040528015610c5d576020820181803683370190505b509350600160206000198301040160005b81811015610c96576000610c83600483610df2565b6020600190930192830288015250610c6e565b5050505b505090565b600254600160a01b900460ff1681565b6060610cba82610649565b67ffffffffffffffff81118015610cd057600080fd5b50604051908082528060200260200182016040528015610cfa578160200160208202803683370190505b5090506000610d0a600a84610e0d565b600101905060005b8251811015610b7e57610d258282610df2565b838281518110610d3157fe5b6020908102919091010152600101610d12565b610d4d81610f17565b610dba816001600160a01b031663887bf9406040518163ffffffff1660e01b815260040160206040518083038186803b158015610d8957600080fd5b505afa158015610d9d573d6000803e3d6000fd5b505050506040513d6020811015610db357600080fd5b50516106f9565b50565b610dc561073f565b610dce57600080fd5b610dba81610f71565b600061068d600b610591565b60405191825260209091200190565b6000610e06610e018484610de3565b610591565b9392505050565b6040805191825260208201929092522090565b6000610e06610e018484610e0d565b60028054600160a01b900460ff1614610e4757600080fd5b6040805133815290516001600160a01b038316917f1e8d98c1b4a0d9bd2e2371026b632eb2773fcce41742e41f02f574ab69868d4c919081900360200190a250565b600080610e998484838080610fdf565b51949350505050565b606060006105ca8484838080610fdf565b600080610ec4858560018685610fdf565b5195945050505050565b600080610edf868660028787610fdf565b519695505050505050565b610ef261102f565b6000610f02858560018685610fdf565b80518352602001516040830152509392505050565b60028054600160a01b900460ff1614610f2f57600080fd5b6040805133815290516001600160a01b038316917fd55ec27c5c6316913ed8803c18cfd1bfefea953db909dcba6140744a9d8b0d1f919081900360200190a250565b6001600160a01b038116610f8457600080fd5b600080546040516001600160a01b03808516939216917f8be0079c531659141344cd1fd0a4f28419497f9722a3daafe3b4186f6b6457e091a3600080546001600160a01b0319166001600160a01b0392909216919091179055565b6040518481528315610ff2578260048201525b6001841115611002578160248201525b6000808560200260040183895af48015611020573d6000833e611025565b600082fd5b5095945050505050565b6040518060600160405280600081526020016060815260200160008152509056fea26469706673582212209a64ea8aa960f3bee30346f517951df801d3616bc258d8c2f95791c23531104f64736f6c63430006070033",
  "bytecodeSha1": "e180ad581cfd0b56da1a3fcb647b235d1f28b5cc",
  "compiler": {
    "evm_version": "berlin",
    "optimizer": {
      "enabled": true,
      "runs": 200
    },
    "version": "0.6.7"
  },
  "contractName": "ContractV4",
  "language": "Solidity",
  "natspec": {
    "details": "Same test contract with explicit storage slots: The contract uses assembler code to access some storage variables instead of relying on the compiler This demonstrates how to mitigate possible changes in the compiler while using the proxy pattern Many methods are not optimized on purpose to increase readability see https://solidity.readthedocs.io/en/latest/miscellaneous.html#layout-of-state-variables-in-storage",
    "methods": {
      "getStructureArrayValue1(uint256,uint256)": {
        "details": "Array data is in the slot keccak256(keccak256(9) + 2 * _index + 1) + _arrayIndex"
      },
      "getStructureArrayValue2(uint256,uint256)": {
        "details": "Array data is in the slot keccak256(keccak256(concat(_index, 11)) + 1) + _arrayIndex"
      },
      "getValue(uint256)": {
        "details": "Get data from the specified slot"
      },
      "renounceOwnership()": {
        "details": "Allows the current owner to relinquish control of the contract.",
        "notice": "Renouncing to ownership will leave the contract without an owner. It will not be possible to call the functions with the `onlyOwner` modifier anymore."
      },
      "transferOwnership(address)": {
        "details": "Allows the current owner to transfer control of the contract to a newOwner.",
        "params": {
          "newOwner": "The address to transfer ownership to."
        }
      }
    }
  },
  "opcodes": "PUSH1 0x80 PUSH1 0x40 MSTORE CALLVALUE DUP1 ISZERO PUSH2 0x10 JUMPI PUSH1 0x0 DUP1 REVERT JUMPDEST POP PUSH1 0x4 CALLDATASIZE LT PUSH2 0x1E5 JUMPI PUSH1 0x0 CALLDATALOAD PUSH1 0xE0 SHR DUP1 PUSH4 0x8F32D59B GT PUSH2 0x10F JUMPI DUP1 PUSH4 0xC68FCDBF GT PUSH2 0xA2 JUMPI DUP1 PUSH4 0xE3AD1D00 GT PUSH2 0x71 JUMPI DUP1 PUSH4 0xE3AD1D00 EQ PUSH2 0x520 JUMPI DUP1 PUSH4 0xE8DCCD06 EQ PUSH2 0x53D JUMPI DUP1 PUSH4 0xF2FDE38B EQ PUSH2 0x563 JUMPI DUP1 PUSH4 0xF3D93CF1 EQ PUSH2 0x589 JUMPI PUSH2 0x1E5 JUMP JUMPDEST DUP1 PUSH4 0xC68FCDBF EQ PUSH2 0x410 JUMPI DUP1 PUSH4 0xD4B83992 EQ PUSH2 0x47D JUMPI DUP1 PUSH4 0xDBA72E58 EQ PUSH2 0x485 JUMPI DUP1 PUSH4 0xE38A303B EQ PUSH2 0x502 JUMPI PUSH2 0x1E5 JUMP JUMPDEST DUP1 PUSH4 0xA977A973 GT PUSH2 0xDE JUMPI DUP1 PUSH4 0xA977A973 EQ PUSH2 0x3D2 JUMPI DUP1 PUSH4 0xB9626D21 EQ PUSH2 0x3DA JUMPI DUP1 PUSH4 0xC3E64512 EQ PUSH2 0x400 JUMPI DUP1 PUSH4 0xC6122FB3 EQ PUSH2 0x408 JUMPI PUSH2 0x1E5 JUMP JUMPDEST DUP1 PUSH4 0x8F32D59B EQ PUSH2 0x35B JUMPI DUP1 PUSH4 0x990C8F79 EQ PUSH2 0x377 JUMPI DUP1 PUSH4 0x9FFA6F21 EQ PUSH2 0x37F JUMPI DUP1 PUSH4 0xA54B7A82 EQ PUSH2 0x39C JUMPI PUSH2 0x1E5 JUMP JUMPDEST DUP1 PUSH4 0x649D64BF GT PUSH2 0x187 JUMPI DUP1 PUSH4 0x82A2B968 GT PUSH2 0x156 JUMPI DUP1 PUSH4 0x82A2B968 EQ PUSH2 0x311 JUMPI DUP1 PUSH4 0x887BF940 EQ PUSH2 0x32E JUMPI DUP1 PUSH4 0x8DA5CB5B EQ PUSH2 0x336 JUMPI DUP1 PUSH4 0x8E9DF67C EQ PUSH2 0x33E JUMPI PUSH2 0x1E5 JUMP JUMPDEST DUP1 PUSH4 0x649D64BF EQ PUSH2 0x2DA JUMPI DUP1 PUSH4 0x64F94DC2 EQ PUSH2 0x2F7 JUMPI DUP1 PUSH4 0x67099ABF EQ PUSH2 0x2FF JUMPI DUP1 PUSH4 0x715018A6 EQ PUSH2 0x307 JUMPI PUSH2 0x1E5 JUMP JUMPDEST DUP1 PUSH4 0x332B4EAF GT PUSH2 0x1C3 JUMPI DUP1 PUSH4 0x332B4EAF EQ PUSH2 0x25F JUMPI DUP1 PUSH4 0x42A89D0D EQ PUSH2 0x27C JUMPI DUP1 PUSH4 0x4B2CD118 EQ PUSH2 0x299 JUMPI DUP1 PUSH4 0x52FAE8FD EQ PUSH2 0x2BD JUMPI PUSH2 0x1E5 JUMP JUMPDEST DUP1 PUSH4 0xFF4C916 EQ PUSH2 0x1EA JUMPI DUP1 PUSH4 0x155A4D3E EQ PUSH2 0x219 JUMPI DUP1 PUSH4 0x21E72E19 EQ PUSH2 0x23C JUMPI JUMPDEST PUSH1 0x0 DUP1 REVERT JUMPDEST PUSH2 0x207 PUSH1 0x4 DUP1 CALLDATASIZE SUB PUSH1 0x20 DUP2 LT ISZERO PUSH2 0x200 JUMPI PUSH1 0x0 DUP1 REVERT JUMPDEST POP CALLDATALOAD PUSH2 0x591 JUMP JUMPDEST PUSH1 0x40 DUP1 MLOAD SWAP2 DUP3 MSTORE MLOAD SWAP1 DUP2 SWAP1 SUB PUSH1 0x20 ADD SWAP1 RETURN JUMPDEST PUSH2 0x207 PUSH1 0x4 DUP1 CALLDATASIZE SUB PUSH1 0x40 DUP2 LT ISZERO PUSH2 0x22F JUMPI PUSH1 0x0 DUP1 REVERT JUMPDEST POP DUP1 CALLDATALOAD SWAP1 PUSH1 0x20 ADD CALLDATALOAD PUSH2 0x595 JUMP JUMPDEST PUSH2 0x207 PUSH1 0x4 DUP1 CALLDATASIZE SUB PUSH1 0x40 DUP2 LT ISZERO PUSH2 0x252 JUMPI PUSH1 0x0 DUP1 REVERT JUMPDEST POP DUP1 CALLDATALOAD SWAP1 PUSH1 0x20 ADD CALLDATALOAD PUSH2 0x5D2 JUMP JUMPDEST PUSH2 0x207 PUSH1 0x4 DUP1 CALLDATASIZE SUB PUSH1 0x20 DUP2 LT ISZERO PUSH2 0x275 JUMPI PUSH1 0x0 DUP1 REVERT JUMPDEST POP CALLDATALOAD PUSH2 0x604 JUMP JUMPDEST PUSH2 0x207 PUSH1 0x4 DUP1 CALLDATASIZE SUB PUSH1 0x20 DUP2 LT ISZERO PUSH2 0x292 JUMPI PUSH1 0x0 DUP1 REVERT JUMPDEST POP CALLDATALOAD PUSH2 0x617 JUMP JUMPDEST PUSH2 0x2A1 PUSH2 0x63A JUMP JUMPDEST PUSH1 0x40 DUP1 MLOAD PUSH1 0x1 PUSH1 0x1 PUSH1 0xA0 SHL SUB SWAP1 SWAP3 AND DUP3 MSTORE MLOAD SWAP1 DUP2 SWAP1 SUB PUSH1 0x20 ADD SWAP1 RETURN JUMPDEST PUSH2 0x207 PUSH1 0x4 DUP1 CALLDATASIZE SUB PUSH1 0x20 DUP2 LT ISZERO PUSH2 0x2D3 JUMPI PUSH1 0x0 DUP1 REVERT JUMPDEST POP CALLDATALOAD PUSH2 0x649 JUMP JUMPDEST PUSH2 0x207 PUSH1 0x4 DUP1 CALLDATASIZE SUB PUSH1 0x20 DUP2 LT ISZERO PUSH2 0x2F0 JUMPI PUSH1 0x0 DUP1 REVERT JUMPDEST POP CALLDATALOAD PUSH2 0x661 JUMP JUMPDEST PUSH2 0x207 PUSH2 0x681 JUMP JUMPDEST PUSH2 0x207 PUSH2 0x692 JUMP JUMPDEST PUSH2 0x30F PUSH2 0x69E JUMP JUMPDEST STOP JUMPDEST PUSH2 0x30F PUSH1 0x4 DUP1 CALLDATASIZE SUB PUSH1 0x20 DUP2 LT ISZERO PUSH2 0x327 JUMPI PUSH1 0x0 DUP1 REVERT JUMPDEST POP CALLDATALOAD PUSH2 0x6F9 JUMP JUMPDEST PUSH2 0x207 PUSH2 0x6FE JUMP JUMPDEST PUSH2 0x2A1 PUSH2 0x70A JUMP JUMPDEST PUSH2 0x207 PUSH1 0x4 DUP1 CALLDATASIZE SUB PUSH1 0x20 DUP2 LT ISZERO PUSH2 0x354 JUMPI PUSH1 0x0 DUP1 REVERT JUMPDEST POP CALLDATALOAD PUSH2 0x719 JUMP JUMPDEST PUSH2 0x363 PUSH2 0x73F JUMP JUMPDEST PUSH1 0x40 DUP1 MLOAD SWAP2 ISZERO ISZERO DUP3 MSTORE MLOAD SWAP1 DUP2 SWAP1 SUB PUSH1 0x20 ADD SWAP1 RETURN JUMPDEST PUSH2 0x207 PUSH2 0x750 JUMP JUMPDEST PUSH2 0x207 PUSH1 0x4 DUP1 CALLDATASIZE SUB PUSH1 0x20 DUP2 LT ISZERO PUSH2 0x395 JUMPI PUSH1 0x0 DUP1 REVERT JUMPDEST POP CALLDATALOAD PUSH2 0x755 JUMP JUMPDEST PUSH2 0x3B9 PUSH1 0x4 DUP1 CALLDATASIZE SUB PUSH1 0x20 DUP2 LT ISZERO PUSH2 0x3B2 JUMPI PUSH1 0x0 DUP1 REVERT JUMPDEST POP CALLDATALOAD PUSH2 0x775 JUMP JUMPDEST PUSH1 0x40 DUP1 MLOAD SWAP3 DUP4 MSTORE PUSH1 0x20 DUP4 ADD SWAP2 SWAP1 SWAP2 MSTORE DUP1 MLOAD SWAP2 DUP3 SWAP1 SUB ADD SWAP1 RETURN JUMPDEST PUSH2 0x207 PUSH2 0x7A6 JUMP JUMPDEST PUSH2 0x30F PUSH1 0x4 DUP1 CALLDATASIZE SUB PUSH1 0x20 DUP2 LT ISZERO PUSH2 0x3F0 JUMPI PUSH1 0x0 DUP1 REVERT JUMPDEST POP CALLDATALOAD PUSH1 0x1 PUSH1 0x1 PUSH1 0xA0 SHL SUB AND PUSH2 0x7B2 JUMP JUMPDEST PUSH2 0x207 PUSH2 0xAD4 JUMP JUMPDEST PUSH2 0x207 PUSH2 0xAE0 JUMP JUMPDEST PUSH2 0x42D PUSH1 0x4 DUP1 CALLDATASIZE SUB PUSH1 0x20 DUP2 LT ISZERO PUSH2 0x426 JUMPI PUSH1 0x0 DUP1 REVERT JUMPDEST POP CALLDATALOAD PUSH2 0xAE6 JUMP JUMPDEST PUSH1 0x40 DUP1 MLOAD PUSH1 0x20 DUP1 DUP3 MSTORE DUP4 MLOAD DUP2 DUP4 ADD MSTORE DUP4 MLOAD SWAP2 SWAP3 DUP4 SWAP3 SWAP1 DUP4 ADD SWAP2 DUP6 DUP2 ADD SWAP2 MUL DUP1 DUP4 DUP4 PUSH1 0x0 JUMPDEST DUP4 DUP2 LT ISZERO PUSH2 0x469 JUMPI DUP2 DUP2 ADD MLOAD DUP4 DUP3 ADD MSTORE PUSH1 0x20 ADD PUSH2 0x451 JUMP JUMPDEST POP POP POP POP SWAP1 POP ADD SWAP3 POP POP POP PUSH1 0x40 MLOAD DUP1 SWAP2 SUB SWAP1 RETURN JUMPDEST PUSH2 0x2A1 PUSH2 0xB85 JUMP JUMPDEST PUSH2 0x48D PUSH2 0xB94 JUMP JUMPDEST PUSH1 0x40 DUP1 MLOAD PUSH1 0x20 DUP1 DUP3 MSTORE DUP4 MLOAD DUP2 DUP4 ADD MSTORE DUP4 MLOAD SWAP2 SWAP3 DUP4 SWAP3 SWAP1 DUP4 ADD SWAP2 DUP6 ADD SWAP1 DUP1 DUP4 DUP4 PUSH1 0x0 JUMPDEST DUP4 DUP2 LT ISZERO PUSH2 0x4C7 JUMPI DUP2 DUP2 ADD MLOAD DUP4 DUP3 ADD MSTORE PUSH1 0x20 ADD PUSH2 0x4AF JUMP JUMPDEST POP POP POP POP SWAP1 POP SWAP1 DUP2 ADD SWAP1 PUSH1 0x1F AND DUP1 ISZERO PUSH2 0x4F4 JUMPI DUP1 DUP3 SUB DUP1 MLOAD PUSH1 0x1 DUP4 PUSH1 0x20 SUB PUSH2 0x100 EXP SUB NOT AND DUP2 MSTORE PUSH1 0x20 ADD SWAP2 POP JUMPDEST POP SWAP3 POP POP POP PUSH1 0x40 MLOAD DUP1 SWAP2 SUB SWAP1 RETURN JUMPDEST PUSH2 0x50A PUSH2 0xC9F JUMP JUMPDEST PUSH1 0x40 DUP1 MLOAD PUSH1 0xFF SWAP1 SWAP3 AND DUP3 MSTORE MLOAD SWAP1 DUP2 SWAP1 SUB PUSH1 0x20 ADD SWAP1 RETURN JUMPDEST PUSH2 0x42D PUSH1 0x4 DUP1 CALLDATASIZE SUB PUSH1 0x20 DUP2 LT ISZERO PUSH2 0x536 JUMPI PUSH1 0x0 DUP1 REVERT JUMPDEST POP CALLDATALOAD PUSH2 0xCAF JUMP JUMPDEST PUSH2 0x30F PUSH1 0x4 DUP1 CALLDATASIZE SUB PUSH1 0x20 DUP2 LT ISZERO PUSH2 0x553 JUMPI PUSH1 0x0 DUP1 REVERT JUMPDEST POP CALLDATALOAD PUSH1 0x1 PUSH1 0x1 PUSH1 0xA0 SHL SUB AND PUSH2 0xD44 JUMP JUMPDEST PUSH2 0x30F PUSH1 0x4 DUP1 CALLDATASIZE SUB PUSH1 0x20 DUP2 LT ISZERO PUSH2 0x579 JUMPI PUSH1 0x0 DUP1 REVERT JUMPDEST POP CALLDATALOAD PUSH1 0x1 PUSH1 0x1 PUSH1 0xA0 SHL SUB AND PUSH2 0xDBD JUMP JUMPDEST PUSH2 0x207 PUSH2 0xDD7 JUMP JUMPDEST SLOAD SWAP1 JUMP JUMPDEST PUSH1 0x0 PUSH2 0x5A0 DUP4 PUSH2 0x719 JUMP JUMPDEST DUP3 LT PUSH2 0x5AB JUMPI PUSH1 0x0 DUP1 REVERT JUMPDEST PUSH1 0x0 PUSH2 0x5BE PUSH1 0x9 DUP6 PUSH1 0x2 MUL PUSH1 0x1 ADD PUSH2 0xDE3 JUMP JUMPDEST SWAP1 POP PUSH2 0x5CA DUP2 DUP5 PUSH2 0xDF2 JUMP JUMPDEST SWAP5 SWAP4 POP POP POP POP JUMP JUMPDEST PUSH1 0x0 PUSH2 0x5DD DUP4 PUSH2 0x649 JUMP JUMPDEST DUP3 LT PUSH2 0x5E8 JUMPI PUSH1 0x0 DUP1 REVERT JUMPDEST PUSH1 0x0 PUSH2 0x5F5 PUSH1 0xA DUP6 PUSH2 0xE0D JUMP JUMPDEST PUSH1 0x1 ADD SWAP1 POP PUSH2 0x5CA DUP2 DUP5 PUSH2 0xDF2 JUMP JUMPDEST PUSH1 0x0 PUSH2 0x611 PUSH1 0x7 DUP4 PUSH2 0xE20 JUMP JUMPDEST SWAP3 SWAP2 POP POP JUMP JUMPDEST PUSH1 0x0 PUSH2 0x621 PUSH2 0x692 JUMP JUMPDEST DUP3 LT PUSH2 0x62C JUMPI PUSH1 0x0 DUP1 REVERT JUMPDEST PUSH2 0x611 PUSH1 0x9 DUP4 PUSH1 0x2 MUL PUSH2 0xDF2 JUMP JUMPDEST PUSH1 0x2 SLOAD PUSH1 0x1 PUSH1 0x1 PUSH1 0xA0 SHL SUB AND DUP2 JUMP JUMPDEST PUSH1 0x0 PUSH2 0x611 PUSH2 0x659 PUSH1 0xA DUP5 PUSH2 0xE0D JUMP JUMPDEST PUSH1 0x1 ADD PUSH2 0x591 JUMP JUMPDEST PUSH1 0x0 PUSH2 0x66B PUSH2 0xAD4 JUMP JUMPDEST DUP3 LT PUSH2 0x676 JUMPI PUSH1 0x0 DUP1 REVERT JUMPDEST PUSH2 0x611 PUSH1 0x6 DUP4 PUSH2 0xDF2 JUMP JUMPDEST PUSH1 0x0 PUSH2 0x68D PUSH1 0x8 PUSH2 0x591 JUMP JUMPDEST SWAP1 POP SWAP1 JUMP JUMPDEST PUSH1 0x0 PUSH2 0x68D PUSH1 0x9 PUSH2 0x591 JUMP JUMPDEST PUSH2 0x6A6 PUSH2 0x73F JUMP JUMPDEST PUSH2 0x6AF JUMPI PUSH1 0x0 DUP1 REVERT JUMPDEST PUSH1 0x0 DUP1 SLOAD PUSH1 0x40 MLOAD PUSH1 0x1 PUSH1 0x1 PUSH1 0xA0 SHL SUB SWAP1 SWAP2 AND SWAP1 PUSH32 0x8BE0079C531659141344CD1FD0A4F28419497F9722A3DAAFE3B4186F6B6457E0 SWAP1 DUP4 SWAP1 LOG3 PUSH1 0x0 DUP1 SLOAD PUSH1 0x1 PUSH1 0x1 PUSH1 0xA0 SHL SUB NOT AND SWAP1 SSTORE JUMP JUMPDEST PUSH1 0xC SSTORE JUMP JUMPDEST PUSH1 0x0 PUSH2 0x68D PUSH1 0xC PUSH2 0x591 JUMP JUMPDEST PUSH1 0x0 SLOAD PUSH1 0x1 PUSH1 0x1 PUSH1 0xA0 SHL SUB AND SWAP1 JUMP JUMPDEST PUSH1 0x0 PUSH2 0x723 PUSH2 0x692 JUMP JUMPDEST DUP3 LT PUSH2 0x72E JUMPI PUSH1 0x0 DUP1 REVERT JUMPDEST PUSH2 0x611 PUSH1 0x9 DUP4 PUSH1 0x2 MUL PUSH1 0x1 ADD PUSH2 0xDF2 JUMP JUMPDEST PUSH1 0x0 SLOAD PUSH1 0x1 PUSH1 0x1 PUSH1 0xA0 SHL SUB AND CALLER EQ SWAP1 JUMP JUMPDEST PUSH1 0x1E SWAP1 JUMP JUMPDEST PUSH1 0x0 PUSH2 0x75F PUSH2 0x681 JUMP JUMPDEST DUP3 LT PUSH2 0x76A JUMPI PUSH1 0x0 DUP1 REVERT JUMPDEST PUSH2 0x611 PUSH1 0x8 DUP4 PUSH2 0xDF2 JUMP JUMPDEST PUSH1 0x0 DUP1 PUSH1 0x0 PUSH2 0x785 PUSH1 0xA DUP6 PUSH2 0xE0D JUMP JUMPDEST SWAP1 POP PUSH2 0x790 DUP2 PUSH2 0x591 JUMP JUMPDEST SWAP3 POP PUSH2 0x79E DUP2 PUSH1 0x2 ADD PUSH2 0x591 JUMP JUMPDEST SWAP2 POP POP SWAP2 POP SWAP2 JUMP JUMPDEST PUSH1 0x0 PUSH2 0x68D PUSH1 0x4 PUSH2 0x591 JUMP JUMPDEST PUSH2 0x7BB DUP2 PUSH2 0xE2F JUMP JUMPDEST PUSH2 0x7C3 PUSH2 0x7A6 JUMP JUMPDEST PUSH2 0x7D4 DUP3 PUSH4 0xA977A973 PUSH1 0xE0 SHL PUSH2 0xE89 JUMP JUMPDEST EQ PUSH2 0x7DE JUMPI PUSH1 0x0 DUP1 REVERT JUMPDEST PUSH1 0x60 PUSH2 0x7F1 DUP3 PUSH4 0x1B74E5CB PUSH1 0xE3 SHL PUSH2 0xEA2 JUMP JUMPDEST SWAP1 POP PUSH1 0x60 PUSH2 0x7FD PUSH2 0xB94 JUMP JUMPDEST SWAP1 POP DUP1 MLOAD DUP3 MLOAD EQ DUP1 ISZERO PUSH2 0x81D JUMPI POP DUP1 DUP1 MLOAD SWAP1 PUSH1 0x20 ADD KECCAK256 DUP3 DUP1 MLOAD SWAP1 PUSH1 0x20 ADD KECCAK256 EQ JUMPDEST PUSH2 0x826 JUMPI PUSH1 0x0 DUP1 REVERT JUMPDEST PUSH1 0x0 PUSH2 0x830 PUSH2 0xAD4 JUMP JUMPDEST SWAP1 POP DUP1 PUSH2 0x844 DUP6 PUSH4 0x61F32289 PUSH1 0xE1 SHL PUSH2 0xE89 JUMP JUMPDEST EQ PUSH2 0x84E JUMPI PUSH1 0x0 DUP1 REVERT JUMPDEST PUSH1 0x0 JUMPDEST DUP2 DUP2 LT ISZERO PUSH2 0x886 JUMPI PUSH2 0x862 DUP2 PUSH2 0x661 JUMP JUMPDEST PUSH2 0x874 DUP7 PUSH4 0x649D64BF PUSH1 0xE0 SHL DUP5 PUSH2 0xEB3 JUMP JUMPDEST EQ PUSH2 0x87E JUMPI PUSH1 0x0 DUP1 REVERT JUMPDEST PUSH1 0x1 ADD PUSH2 0x851 JUMP JUMPDEST POP PUSH2 0x88F PUSH2 0x681 JUMP JUMPDEST SWAP1 POP PUSH1 0x0 JUMPDEST DUP2 DUP2 LT ISZERO PUSH2 0x8D7 JUMPI PUSH1 0x0 PUSH2 0x8A7 DUP3 PUSH2 0x755 JUMP JUMPDEST SWAP1 POP PUSH2 0x8B2 DUP2 PUSH2 0x604 JUMP JUMPDEST PUSH2 0x8C4 DUP8 PUSH4 0x332B4EAF PUSH1 0xE0 SHL DUP5 PUSH2 0xEB3 JUMP JUMPDEST EQ PUSH2 0x8CE JUMPI PUSH1 0x0 DUP1 REVERT JUMPDEST POP PUSH1 0x1 ADD PUSH2 0x894 JUMP JUMPDEST POP PUSH2 0x8E0 PUSH2 0x692 JUMP JUMPDEST SWAP1 POP DUP1 PUSH2 0x8F4 DUP6 PUSH4 0x67099ABF PUSH1 0xE0 SHL PUSH2 0xE89 JUMP JUMPDEST EQ PUSH2 0x8FE JUMPI PUSH1 0x0 DUP1 REVERT JUMPDEST PUSH1 0x0 JUMPDEST DUP2 DUP2 LT ISZERO PUSH2 0x99C JUMPI PUSH2 0x912 DUP2 PUSH2 0x617 JUMP JUMPDEST PUSH2 0x924 DUP7 PUSH4 0x42A89D0D PUSH1 0xE0 SHL DUP5 PUSH2 0xEB3 JUMP JUMPDEST EQ PUSH2 0x92E JUMPI PUSH1 0x0 DUP1 REVERT JUMPDEST PUSH1 0x0 PUSH2 0x939 DUP3 PUSH2 0x719 JUMP JUMPDEST SWAP1 POP DUP1 PUSH2 0x94E DUP8 PUSH4 0x23A77D9F PUSH1 0xE2 SHL DUP6 PUSH2 0xEB3 JUMP JUMPDEST EQ PUSH2 0x958 JUMPI PUSH1 0x0 DUP1 REVERT JUMPDEST PUSH1 0x0 JUMPDEST DUP2 DUP2 LT ISZERO PUSH2 0x992 JUMPI PUSH2 0x96D DUP4 DUP3 PUSH2 0x595 JUMP JUMPDEST PUSH2 0x980 DUP9 PUSH4 0xAAD269F PUSH1 0xE1 SHL DUP7 DUP6 PUSH2 0xECE JUMP JUMPDEST EQ PUSH2 0x98A JUMPI PUSH1 0x0 DUP1 REVERT JUMPDEST PUSH1 0x1 ADD PUSH2 0x95B JUMP JUMPDEST POP POP PUSH1 0x1 ADD PUSH2 0x901 JUMP JUMPDEST POP PUSH2 0x9A5 PUSH2 0xDD7 JUMP JUMPDEST SWAP1 POP DUP1 PUSH2 0x9B9 DUP6 PUSH4 0xF3D93CF1 PUSH1 0xE0 SHL PUSH2 0xE89 JUMP JUMPDEST EQ PUSH2 0x9C3 JUMPI PUSH1 0x0 DUP1 REVERT JUMPDEST PUSH1 0x0 JUMPDEST DUP2 DUP2 LT ISZERO PUSH2 0xA8C JUMPI PUSH2 0x9D6 PUSH2 0x102F JUMP JUMPDEST PUSH2 0x9E8 DUP7 PUSH4 0x52A5BD41 PUSH1 0xE1 SHL DUP5 PUSH2 0xEEA JUMP JUMPDEST SWAP1 POP PUSH1 0x0 DUP1 PUSH2 0x9F6 DUP5 PUSH2 0x775 JUMP JUMPDEST DUP5 MLOAD SWAP2 SWAP4 POP SWAP2 POP DUP3 EQ DUP1 ISZERO PUSH2 0xA0E JUMPI POP DUP3 PUSH1 0x40 ADD MLOAD DUP2 EQ JUMPDEST PUSH2 0xA17 JUMPI PUSH1 0x0 DUP1 REVERT JUMPDEST PUSH1 0x0 PUSH2 0xA22 DUP6 PUSH2 0x649 JUMP JUMPDEST SWAP1 POP DUP1 PUSH2 0xA37 DUP11 PUSH4 0x52FAE8FD PUSH1 0xE0 SHL DUP9 PUSH2 0xEB3 JUMP JUMPDEST EQ PUSH2 0xA41 JUMPI PUSH1 0x0 DUP1 REVERT JUMPDEST PUSH1 0x0 JUMPDEST DUP2 DUP2 LT ISZERO PUSH2 0xA7B JUMPI PUSH2 0xA56 DUP7 DUP3 PUSH2 0x5D2 JUMP JUMPDEST PUSH2 0xA69 DUP12 PUSH4 0x21E72E19 PUSH1 0xE0 SHL DUP10 DUP6 PUSH2 0xECE JUMP JUMPDEST EQ PUSH2 0xA73 JUMPI PUSH1 0x0 DUP1 REVERT JUMPDEST PUSH1 0x1 ADD PUSH2 0xA44 JUMP JUMPDEST POP POP PUSH1 0x1 SWAP1 SWAP4 ADD SWAP3 POP PUSH2 0x9C6 SWAP2 POP POP JUMP JUMPDEST POP PUSH2 0xA95 PUSH2 0x6FE JUMP JUMPDEST PUSH2 0xAA6 DUP6 PUSH4 0x221EFE5 PUSH1 0xE6 SHL PUSH2 0xE89 JUMP JUMPDEST EQ PUSH2 0xAB0 JUMPI PUSH1 0x0 DUP1 REVERT JUMPDEST PUSH1 0xD SLOAD PUSH2 0xAC4 DUP6 PUSH4 0xC6122FB3 PUSH1 0xE0 SHL PUSH2 0xE89 JUMP JUMPDEST EQ PUSH2 0xACE JUMPI PUSH1 0x0 DUP1 REVERT JUMPDEST POP POP POP POP JUMP JUMPDEST PUSH1 0x0 PUSH2 0x68D PUSH1 0x6 PUSH2 0x591 JUMP JUMPDEST PUSH1 0xD SLOAD DUP2 JUMP JUMPDEST PUSH1 0x60 PUSH2 0xAF1 DUP3 PUSH2 0x719 JUMP JUMPDEST PUSH8 0xFFFFFFFFFFFFFFFF DUP2 GT DUP1 ISZERO PUSH2 0xB07 JUMPI PUSH1 0x0 DUP1 REVERT JUMPDEST POP PUSH1 0x40 MLOAD SWAP1 DUP1 DUP3 MSTORE DUP1 PUSH1 0x20 MUL PUSH1 0x20 ADD DUP3 ADD PUSH1 0x40 MSTORE DUP1 ISZERO PUSH2 0xB31 JUMPI DUP2 PUSH1 0x20 ADD PUSH1 0x20 DUP3 MUL DUP1 CALLDATASIZE DUP4 CALLDATACOPY ADD SWAP1 POP JUMPDEST POP SWAP1 POP PUSH1 0x0 PUSH2 0xB47 PUSH1 0x9 DUP5 PUSH1 0x2 MUL PUSH1 0x1 ADD PUSH2 0xDE3 JUMP JUMPDEST SWAP1 POP PUSH1 0x0 JUMPDEST DUP3 MLOAD DUP2 LT ISZERO PUSH2 0xB7E JUMPI PUSH2 0xB5F DUP3 DUP3 PUSH2 0xDF2 JUMP JUMPDEST DUP4 DUP3 DUP2 MLOAD DUP2 LT PUSH2 0xB6B JUMPI INVALID JUMPDEST PUSH1 0x20 SWAP1 DUP2 MUL SWAP2 SWAP1 SWAP2 ADD ADD MSTORE PUSH1 0x1 ADD PUSH2 0xB4C JUMP JUMPDEST POP POP SWAP2 SWAP1 POP JUMP JUMPDEST PUSH1 0x1 SLOAD PUSH1 0x1 PUSH1 0x1 PUSH1 0xA0 SHL SUB AND DUP2 JUMP JUMPDEST PUSH1 0x60 PUSH1 0x0 PUSH2 0xBA2 PUSH1 0x5 PUSH2 0x591 JUMP JUMPDEST SWAP1 POP PUSH1 0x1 DUP2 AND DUP1 PUSH2 0xC13 JUMPI PUSH1 0x0 PUSH1 0x2 PUSH1 0xFF DUP5 AND DIV SWAP1 POP DUP1 PUSH1 0xFF AND PUSH8 0xFFFFFFFFFFFFFFFF DUP2 GT DUP1 ISZERO PUSH2 0xBD2 JUMPI PUSH1 0x0 DUP1 REVERT JUMPDEST POP PUSH1 0x40 MLOAD SWAP1 DUP1 DUP3 MSTORE DUP1 PUSH1 0x1F ADD PUSH1 0x1F NOT AND PUSH1 0x20 ADD DUP3 ADD PUSH1 0x40 MSTORE DUP1 ISZERO PUSH2 0xBFD JUMPI PUSH1 0x20 DUP3 ADD DUP2 DUP1 CALLDATASIZE DUP4 CALLDATACOPY ADD SWAP1 POP JUMPDEST POP SWAP4 POP DUP3 PUSH1 0x20 DUP6 ADD MSTORE PUSH1 0x0 PUSH1 0x3F DUP6 ADD MSTORE8 POP PUSH2 0xC9A JUMP JUMPDEST PUSH1 0x2 PUSH1 0x0 NOT DUP4 ADD DIV DUP1 PUSH8 0xFFFFFFFFFFFFFFFF DUP2 GT DUP1 ISZERO PUSH2 0xC32 JUMPI PUSH1 0x0 DUP1 REVERT JUMPDEST POP PUSH1 0x40 MLOAD SWAP1 DUP1 DUP3 MSTORE DUP1 PUSH1 0x1F ADD PUSH1 0x1F NOT AND PUSH1 0x20 ADD DUP3 ADD PUSH1 0x40 MSTORE DUP1 ISZERO PUSH2 0xC5D JUMPI PUSH1 0x20 DUP3 ADD DUP2 DUP1 CALLDATASIZE DUP4 CALLDATACOPY ADD SWAP1 POP JUMPDEST POP SWAP4 POP PUSH1 0x1 PUSH1 0x20 PUSH1 0x0 NOT DUP4 ADD DIV ADD PUSH1 0x0 JUMPDEST DUP2 DUP2 LT ISZERO PUSH2 0xC96 JUMPI PUSH1 0x0 PUSH2 0xC83 PUSH1 0x4 DUP4 PUSH2 0xDF2 JUMP JUMPDEST PUSH1 0x20 PUSH1 0x1 SWAP1 SWAP4 ADD SWAP3 DUP4 MUL DUP9 ADD MSTORE POP PUSH2 0xC6E JUMP JUMPDEST POP POP POP JUMPDEST POP POP SWAP1 JUMP JUMPDEST PUSH1 0x2 SLOAD PUSH1 0x1 PUSH1 0xA0 SHL SWAP1 DIV PUSH1 0xFF AND DUP2 JUMP JUMPDEST PUSH1 0x60 PUSH2 0xCBA DUP3 PUSH2 0x649 JUMP JUMPDEST PUSH8 0xFFFFFFFFFFFFFFFF DUP2 GT DUP1 ISZERO PUSH2 0xCD0 JUMPI PUSH1 0x0 DUP1 REVERT JUMPDEST POP PUSH1 0x40 MLOAD SWAP1 DUP1 DUP3 MSTORE DUP1 PUSH1 0x20 MUL PUSH1 0x20 ADD DUP3 ADD PUSH1 0x40 MSTORE DUP1 ISZERO PUSH2 0xCFA JUMPI DUP2 PUSH1 0x20 ADD PUSH1 0x20 DUP3 MUL DUP1 CALLDATASIZE DUP4 CALLDATACOPY ADD SWAP1 POP JUMPDEST POP SWAP1 POP PUSH1 0x0 PUSH2 0xD0A PUSH1 0xA DUP5 PUSH2 0xE0D JUMP JUMPDEST PUSH1 0x1 ADD SWAP1 POP PUSH1 0x0 JUMPDEST DUP3 MLOAD DUP2 LT ISZERO PUSH2 0xB7E JUMPI PUSH2 0xD25 DUP3 DUP3 PUSH2 0xDF2 JUMP JUMPDEST DUP4 DUP3 DUP2 MLOAD DUP2 LT PUSH2 0xD31 JUMPI INVALID JUMPDEST PUSH1 0x20 SWAP1 DUP2 MUL SWAP2 SWAP1 SWAP2 ADD ADD MSTORE PUSH1 0x1 ADD PUSH2 0xD12 JUMP JUMPDEST PUSH2 0xD4D DUP2 PUSH2 0xF17 JUMP JUMPDEST PUSH2 0xDBA DUP2 PUSH1 0x1 PUSH1 0x1 PUSH1 0xA0 SHL SUB AND PUSH4 0x887BF940 PUSH1 0x40 MLOAD DUP2 PUSH4 0xFFFFFFFF AND PUSH1 0xE0 SHL DUP2 MSTORE PUSH1 0x4 ADD PUSH1 0x20 PUSH1 0x40 MLOAD DUP1 DUP4 SUB DUP2 DUP7 DUP1 EXTCODESIZE ISZERO DUP1 ISZERO PUSH2 0xD89 JUMPI PUSH1 0x0 DUP1 REVERT JUMPDEST POP GAS STATICCALL ISZERO DUP1 ISZERO PUSH2 0xD9D JUMPI RETURNDATASIZE PUSH1 0x0 DUP1 RETURNDATACOPY RETURNDATASIZE PUSH1 0x0 REVERT JUMPDEST POP POP POP POP PUSH1 0x40 MLOAD RETURNDATASIZE PUSH1 0x20 DUP2 LT ISZERO PUSH2 0xDB3 JUMPI PUSH1 0x0 DUP1 REVERT JUMPDEST POP MLOAD PUSH2 0x6F9 JUMP JUMPDEST POP JUMP JUMPDEST PUSH2 0xDC5 PUSH2 0x73F JUMP JUMPDEST PUSH2 0xDCE JUMPI PUSH1 0x0 DUP1 REVERT JUMPDEST PUSH2 0xDBA DUP2 PUSH2 0xF71 JUMP JUMPDEST PUSH1 0x0 PUSH2 0x68D PUSH1 0xB PUSH2 0x591 JUMP JUMPDEST PUSH1 0x40 MLOAD SWAP2 DUP3 MSTORE PUSH1 0x20 SWAP1 SWAP2 KECCAK256 ADD SWAP1 JUMP JUMPDEST PUSH1 0x0 PUSH2 0xE06 PUSH2 0xE01 DUP5 DUP5 PUSH2 0xDE3 JUMP JUMPDEST PUSH2 0x591 JUMP JUMPDEST SWAP4 SWAP3 POP POP POP JUMP JUMPDEST PUSH1 0x40 DUP1 MLOAD SWAP2 DUP3 MSTORE PUSH1 0x20 DUP3 ADD SWAP3 SWAP1 SWAP3 MSTORE KECCAK256 SWAP1 JUMP JUMPDEST PUSH1 0x0 PUSH2 0xE06 PUSH2 0xE01 DUP5 DUP5 PUSH2 0xE0D JUMP JUMPDEST PUSH1 0x2 DUP1 SLOAD PUSH1 0x1 PUSH1 0xA0 SHL SWAP1 DIV PUSH1 0xFF AND EQ PUSH2 0xE47 JUMPI PUSH1 0x0 DUP1 REVERT JUMPDEST PUSH1 0x40 DUP1 MLOAD CALLER DUP2 MSTORE SWAP1 MLOAD PUSH1 0x1 PUSH1 0x1 PUSH1 0xA0 SHL SUB DUP4 AND SWAP2 PUSH32 0x1E8D98C1B4A0D9BD2E2371026B632EB2773FCCE41742E41F02F574AB69868D4C SWAP2 SWAP1 DUP2 SWAP1 SUB PUSH1 0x20 ADD SWAP1 LOG2 POP JUMP JUMPDEST PUSH1 0x0 DUP1 PUSH2 0xE99 DUP5 DUP5 DUP4 DUP1 DUP1 PUSH2 0xFDF JUMP JUMPDEST MLOAD SWAP5 SWAP4 POP POP POP POP JUMP JUMPDEST PUSH1 0x60 PUSH1 0x0 PUSH2 0x5CA DUP5 DUP5 DUP4 DUP1 DUP1 PUSH2 0xFDF JUMP JUMPDEST PUSH1 0x0 DUP1 PUSH2 0xEC4 DUP6 DUP6 PUSH1 0x1 DUP7 DUP6 PUSH2 0xFDF JUMP JUMPDEST MLOAD SWAP6 SWAP5 POP POP POP POP POP JUMP JUMPDEST PUSH1 0x0 DUP1 PUSH2 0xEDF DUP7 DUP7 PUSH1 0x2 DUP8 DUP8 PUSH2 0xFDF JUMP JUMPDEST MLOAD SWAP7 SWAP6 POP POP POP POP POP POP JUMP JUMPDEST PUSH2 0xEF2 PUSH2 0x102F JUMP JUMPDEST PUSH1 0x0 PUSH2 0xF02 DUP6 DUP6 PUSH1 0x1 DUP7 DUP6 PUSH2 0xFDF JUMP JUMPDEST DUP1 MLOAD DUP4 MSTORE PUSH1 0x20 ADD MLOAD PUSH1 0x40 DUP4 ADD MSTORE POP SWAP4 SWAP3 POP POP POP JUMP JUMPDEST PUSH1 0x2 DUP1 SLOAD PUSH1 0x1 PUSH1 0xA0 SHL SWAP1 DIV PUSH1 0xFF AND EQ PUSH2 0xF2F JUMPI PUSH1 0x0 DUP1 REVERT JUMPDEST PUSH1 0x40 DUP1 MLOAD CALLER DUP2 MSTORE SWAP1 MLOAD PUSH1 0x1 PUSH1 0x1 PUSH1 0xA0 SHL SUB DUP4 AND SWAP2 PUSH32 0xD55EC27C5C6316913ED8803C18CFD1BFEFEA953DB909DCBA6140744A9D8B0D1F SWAP2 SWAP1 DUP2 SWAP1 SUB PUSH1 0x20 ADD SWAP1 LOG2 POP JUMP JUMPDEST PUSH1 0x1 PUSH1 0x1 PUSH1 0xA0 SHL SUB DUP2 AND PUSH2 0xF84 JUMPI PUSH1 0x0 DUP1 REVERT JUMPDEST PUSH1 0x0 DUP1 SLOAD PUSH1 0x40 MLOAD PUSH1 0x1 PUSH1 0x1 PUSH1 0xA0 SHL SUB DUP1 DUP6 AND SWAP4 SWAP3 AND SWAP2 PUSH32 0x8BE0079C531659141344CD1FD0A4F28419497F9722A3DAAFE3B4186F6B6457E0 SWAP2 LOG3 PUSH1 0x0 DUP1 SLOAD PUSH1 0x1 PUSH1 0x1 PUSH1 0xA0 SHL SUB NOT AND PUSH1 0x1 PUSH1 0x1 PUSH1 0xA0 SHL SUB SWAP3 SWAP1 SWAP3 AND SWAP2 SWAP1 SWAP2 OR SWAP1 SSTORE JUMP JUMPDEST PUSH1 0x40 MLOAD DUP5 DUP2 MSTORE DUP4 ISZERO PUSH2 0xFF2 JUMPI DUP3 PUSH1 0x4 DUP3 ADD MSTORE JUMPDEST PUSH1 0x1 DUP5 GT ISZERO PUSH2 0x1002 JUMPI DUP2 PUSH1 0x24 DUP3 ADD MSTORE JUMPDEST PUSH1 0x0 DUP1 DUP6 PUSH1 0x20 MUL PUSH1 0x4 ADD DUP4 DUP10 GAS DELEGATECALL DUP1 ISZERO PUSH2 0x1020 JUMPI RETURNDATASIZE PUSH1 0x0 DUP4 RETURNDATACOPY PUSH2 0x1025 JUMP JUMPDEST PUSH1 0x0 DUP3 REVERT JUMPDEST POP SWAP6 SWAP5 POP POP POP POP POP JUMP JUMPDEST PUSH1 0x40 MLOAD DUP1 PUSH1 0x60 ADD PUSH1 0x40 MSTORE DUP1 PUSH1 0x0 DUP2 MSTORE PUSH1 0x20 ADD PUSH1 0x60 DUP2 MSTORE PUSH1 0x20 ADD PUSH1 0x0 DUP2 MSTORE POP SWAP1 JUMP INVALID LOG2 PUSH5 0x6970667358 0x22 SLT KECCAK256 SWAP11 PUSH5 0xEA8AA960F3 0xBE 0xE3 SUB CHAINID CREATE2 OR SWAP6 SAR 0xF8 ADD 0xD3 PUSH2 0x6BC2 PC 0xD8 0xC2 0xF9 JUMPI SWAP2 0xC2 CALLDATALOAD BALANCE LT 0x4F PUSH5 0x736F6C6343 STOP MOD SMOD STOP CALLER ",
  "sha1": "e6d031db98227920b3afb32d820916c7a77fec18",
  "source": "pragma solidity ^0.6.1;\n\n\nimport \"contracts/proxy/Upgradeable.sol\";\n\n\n/**\n* @dev Same test contract with explicit storage slots:\n* The contract uses assembler code to access some storage variables instead of relying on the compiler\n* This demonstrates how to mitigate possible changes in the compiler while using the proxy pattern\n* Many methods are not optimized on purpose to increase readability\n* see https://solidity.readthedocs.io/en/latest/miscellaneous.html#layout-of-state-variables-in-storage\n*/\ncontract ContractV4 is Upgradeable {\n\n    // slot allocation costs nothing\n    /// uint256 public storageValue;\n    uint256 reservedSlot4;\n    /// string public dynamicallySizedValue;\n    uint256 reservedSlot5;\n    /// uint256[] public arrayValues;\n    uint256 reservedSlot6;\n    /// mapping (uint256 => uint256) public mappingValues;\n    uint256 reservedSlot7;\n    /// uint256[] public mappingIndices;\n    uint256 reservedSlot8;\n\n    struct Structure1 {\n        uint256 value;\n        uint256[] arrayValues;\n    }\n    /// Structure1[] public arrayStructures;\n    uint256 reservedSlot9;\n\n    struct Structure2 {\n        uint256 value;\n        uint256[] arrayValues;\n        uint256 valueToCheck;\n    }\n    /// mapping (uint256 => Structure2) public mappingStructures;\n    uint256 reservedSlot10;\n    /// uint256 public mappingStructuresLength;\n    uint256 reservedSlot11;\n\n    /// uint256 public storageValueToCheck;\n    uint256 reservedSlot12;\n    uint256 public anotherStorageValue;\n\n    constructor(uint256 _storageValueToCheck) public {\n        setStorageValueToCheck(_storageValueToCheck);\n    }\n\n    function returnValue() public pure returns (uint256) {\n        return 30;\n    }\n\n\n    /// @dev Get data from the specified slot\n    function getValue(uint256 _slotNumber) public view returns (uint256 value) {\n        assembly {\n            value := sload(_slotNumber)\n        }\n    }\n\n    /// @dev Array data is in the slot keccak256(_slotNumber)+_index\n    function getArraySlot(uint256 _slotNumber, uint256 _index) private pure returns (uint256 slot) {\n        assembly {\n            // put data for hash into a free memory\n            let memoryAddress := mload(0x40)\n            mstore(memoryAddress, _slotNumber)\n            let baseSlot := keccak256(memoryAddress, 32)\n            slot := add(baseSlot, _index)\n        }\n    }\n    function getArrayValue(uint256 _slotNumber, uint256 _index) private view returns (uint256 value) {\n        return getValue(getArraySlot(_slotNumber, _index));\n    }\n\n    /// @dev Mapping data is in the slot keccak256(concat(_index, _slotNumber))\n    function getMappingSlot(uint256 _slotNumber, uint256 _index) private pure returns (uint256 slot) {\n        assembly {\n            let memoryAddress := mload(0x40)\n            mstore(memoryAddress, _index)\n            mstore(add(memoryAddress, 32), _slotNumber)\n            slot := keccak256(memoryAddress, 64)\n        }\n    }\n    function getMappingValue(uint256 _slotNumber, uint256 _index) private view returns (uint256 value) {\n        return getValue(getMappingSlot(_slotNumber, _index));\n    }\n\n\n    function storageValue() public view returns (uint256 value) {\n        // storageValue in the slot number 4\n        return getValue(4);\n    }\n\n    function dynamicallySizedValue() public view returns (string memory value) {\n        uint256 slotValue = getValue(5);\n        // https://solidity.readthedocs.io/en/latest/miscellaneous.html#bytes-and-string\n        uint8 lowestBit = uint8(slotValue & 1);\n        if (lowestBit == 0) {\n            uint8 length = uint8(bytes32(slotValue)[31]) / 2;\n            value = new string(length);\n            assembly {\n                mstore(add(value, 32), slotValue)\n                mstore8(add(value, 63), 0)\n            }\n        } else {\n            uint256 length = (slotValue - 1) / 2;\n            value = new string(length);\n            uint256 wordsCount = (length - 1) / 32 + 1;\n            for (uint256 i = 0; i < wordsCount; i++) {\n                uint256 word = getArrayValue(4, i);\n                uint256 offset = 32 * (i + 1);\n                assembly {\n                    mstore(add(value, offset), word)\n                }\n            }\n        }\n    }\n\n    function getArrayValueLength() public view returns (uint256) {\n        // length of the array in the slot number 6\n        return getValue(6);\n    }\n    function arrayValues(uint256 _index) public view returns (uint256) {\n        require(_index < getArrayValueLength());\n        // base slot for this array is 6\n        return getArrayValue(6, _index);\n    }\n\n\n    function mappingValues(uint256 _index) public view returns (uint256) {\n        // base slot for this mapping is 7\n        return getMappingValue(7, _index);\n    }\n    function getMappingIndicesLength() public view returns (uint256) {\n        // length of the array in the slot number\n        return getValue(8);\n    }\n    function mappingIndices(uint256 _index) public view returns (uint256) {\n        require(_index < getMappingIndicesLength());\n        return getArrayValue(8, _index);\n    }\n\n\n    function getStructureLength1() public view returns (uint256) {\n        // length of the array in the slot number 9\n        return getValue(9);\n    }\n    function arrayStructures(uint256 _index) public view returns (uint256) {\n        require(_index < getStructureLength1());\n        // base slot for this array is 9\n        // one value in this array is `value` and the length of the inner `arrayValues`\n        // so each index represents 2 slots\n        return getArrayValue(9, 2 * _index);\n    }\n    function getStructureArrayLength1(uint256 _index) public view returns (uint256) {\n        require(_index < getStructureLength1());\n        // same as above except accessing second part of the value\n        return getArrayValue(9, 2 * _index + 1);\n    }\n    /// @dev Array data is in the slot keccak256(keccak256(9) + 2 * _index + 1) + _arrayIndex\n    function getStructureArrayValue1(uint256 _index, uint256 _arrayIndex) public view returns (uint256) {\n        require(_arrayIndex < getStructureArrayLength1(_index));\n        uint256 baseSlot = getArraySlot(9, 2 * _index + 1);\n        return getArrayValue(baseSlot, _arrayIndex);\n    }\n    function getStructure1ArrayValues(uint256 _index) public view returns (uint256[] memory result) {\n        result = new uint256[](getStructureArrayLength1(_index));\n        uint256 baseSlot = getArraySlot(9, 2 * _index + 1);\n        for (uint256 i = 0; i < result.length; i++) {\n            result[i] = getArrayValue(baseSlot, i);\n        }\n    }\n\n    function getStructureLength2() public view returns (uint256) {\n        return getValue(11);\n    }\n    function mappingStructures(uint256 _index) public view returns (uint256 value, uint256 valueToCheck) {\n        uint256 baseMappingSlot = getMappingSlot(10, _index);\n        // one mapping value is `value`,  the length of the inner `arrayValues` and `valueToCheck`\n        value = getValue(baseMappingSlot);\n        valueToCheck = getValue(baseMappingSlot + 2);\n    }\n    function getStructureArrayLength2(uint256 _index) public view returns (uint256) {\n        return getValue(getMappingSlot(10, _index) + 1);\n    }\n    /// @dev Array data is in the slot keccak256(keccak256(concat(_index, 11)) + 1) + _arrayIndex\n    function getStructureArrayValue2(uint256 _index, uint256 _arrayIndex) public view returns (uint256) {\n        require(_arrayIndex < getStructureArrayLength2(_index));\n        uint256 baseArraySlot = getMappingSlot(10, _index) + 1;\n        return getArrayValue(baseArraySlot, _arrayIndex);\n    }\n    function getStructure2ArrayValues(uint256 _index) public view returns (uint256[] memory result) {\n        result = new uint256[](getStructureArrayLength2(_index));\n        uint256 baseArraySlot = getMappingSlot(10, _index) + 1;\n        for (uint256 i = 0; i < result.length; i++) {\n            result[i] = getArrayValue(baseArraySlot, i);\n        }\n    }\n\n    function storageValueToCheck() public view returns (uint256) {\n        return getValue(12);\n    }\n    function setStorageValueToCheck(uint256 _value) public {\n        assembly {\n            sstore(12, _value)\n        }\n    }\n\n    function verifyState(address _testTarget) public override {\n        super.verifyState(_testTarget);\n        require(delegateGet(_testTarget, this.storageValue.selector) == storageValue());\n        bytes memory value = delegateGetBytes(_testTarget, this.dynamicallySizedValue.selector);\n        bytes memory originalValue = bytes(dynamicallySizedValue());\n        require(value.length == originalValue.length &&\n            keccak256(value) == keccak256(originalValue));\n\n        uint256 length = getArrayValueLength();\n        require(delegateGet(_testTarget, this.getArrayValueLength.selector) == length);\n        for (uint256 i = 0; i < length; i++) {\n            require(delegateGet(_testTarget, this.arrayValues.selector, bytes32(i)) == arrayValues(i));\n        }\n        length = getMappingIndicesLength();\n        for (uint256 i = 0; i < length; i++) {\n            uint256 index = mappingIndices(i);\n            require(delegateGet(_testTarget, this.mappingValues.selector, bytes32(index)) == mappingValues(index));\n        }\n\n        length = getStructureLength1();\n        require(delegateGet(_testTarget, this.getStructureLength1.selector) == length);\n        for (uint256 i = 0; i < length; i++) {\n            require(delegateGet(_testTarget, this.arrayStructures.selector, bytes32(i)) == arrayStructures(i));\n\n            uint256 structuresLength = getStructureArrayLength1(i);\n            require(delegateGet(_testTarget, this.getStructureArrayLength1.selector, bytes32(i)) == structuresLength);\n            for (uint256 j = 0; j < structuresLength; j++) {\n                require(delegateGet(\n                        _testTarget, this.getStructureArrayValue1.selector, bytes32(i), bytes32(j)) ==\n                    getStructureArrayValue1(i, j));\n            }\n        }\n\n        length = getStructureLength2();\n        require(delegateGet(_testTarget, this.getStructureLength2.selector) == length);\n        for (uint256 i = 0; i < length; i++) {\n            Structure2 memory structure2 = delegateGetStructure2(_testTarget, this.mappingStructures.selector, bytes32(i));\n            (uint256 structureValue, uint256 structureValueToCheck) = mappingStructures(i);\n            require(structureValue == structure2.value && structureValueToCheck == structure2.valueToCheck);\n\n            uint256 structuresLength = getStructureArrayLength2(i);\n            require(delegateGet(_testTarget, this.getStructureArrayLength2.selector, bytes32(i)) == structuresLength);\n            for (uint256 j = 0; j < structuresLength; j++) {\n                require(delegateGet(\n                        _testTarget, this.getStructureArrayValue2.selector, bytes32(i), bytes32(j)) ==\n                    getStructureArrayValue2(i, j));\n            }\n        }\n\n        require(delegateGet(_testTarget, this.storageValueToCheck.selector) == storageValueToCheck());\n        require(delegateGet(_testTarget, this.anotherStorageValue.selector) == anotherStorageValue);\n    }\n\n    function delegateGetStructure2(address _target, bytes4 _selector, bytes32 _argument)\n        internal returns (Structure2 memory result)\n    {\n        bytes32 memoryAddress = delegateGetData(_target, _selector, 1, _argument, 0);\n        assembly {\n            mstore(result, mload(memoryAddress))\n            mstore(add(result, 64), mload(add(memoryAddress, 32)))\n        }\n    }\n\n    function delegateGetBytes(address _target, bytes4 _selector)\n        internal returns (bytes memory result)\n    {\n        bytes32 memoryAddress = delegateGetData(_target, _selector, 0, 0, 0);\n        assembly {\n            // weird problems with copying the memory pointer:\n            // result := add(memoryAddress, mload(memoryAddress))\n\n            // and with quick fix for tests - copy the beginning of the array\n            // let start := add(memoryAddress, mload(memoryAddress))\n            // mstore(result, mload(start))\n            // mstore(add(result, 32), mload(add(start, 32)))\n\n            result := memoryAddress\n        }\n    }\n\n    function finishUpgrade(address _target) public override {\n        super.finishUpgrade(_target);\n        setStorageValueToCheck(ContractV4(_target).storageValueToCheck());\n    }\n\n}\n",
  "sourcePath": "contracts/proxy/ContractV4.sol",
  "type": "contract"
}