{
  "abi": [
    {
      "inputs": [
        {
          "internalType": "uint256",
          "name": "_storageValueToCheck",
          "type": "uint256"
        }
      ],
      "stateMutability": "nonpayable",
      "type": "constructor"
    },
    {
      "anonymous": false,
      "inputs": [
        {
          "indexed": false,
          "internalType": "uint8",
          "name": "value",
          "type": "uint8"
        }
      ],
      "name": "EventV2",
      "type": "event"
    },
    {
      "anonymous": false,
      "inputs": [
        {
          "indexed": true,
          "internalType": "address",
          "name": "previousOwner",
          "type": "address"
        },
        {
          "indexed": true,
          "internalType": "address",
          "name": "newOwner",
          "type": "address"
        }
      ],
      "name": "OwnershipTransferred",
      "type": "event"
    },
    {
      "anonymous": false,
      "inputs": [
        {
          "indexed": true,
          "internalType": "address",
          "name": "testTarget",
          "type": "address"
        },
        {
          "indexed": false,
          "internalType": "address",
          "name": "sender",
          "type": "address"
        }
      ],
      "name": "StateVerified",
      "type": "event"
    },
    {
      "anonymous": false,
      "inputs": [
        {
          "indexed": true,
          "internalType": "address",
          "name": "target",
          "type": "address"
        },
        {
          "indexed": false,
          "internalType": "address",
          "name": "sender",
          "type": "address"
        }
      ],
      "name": "UpgradeFinished",
      "type": "event"
    },
    {
      "inputs": [],
      "name": "anotherStorageValue",
      "outputs": [
        {
          "internalType": "uint256",
          "name": "",
          "type": "uint256"
        }
      ],
      "stateMutability": "view",
      "type": "function"
    },
    {
      "inputs": [
        {
          "internalType": "uint256",
          "name": "",
          "type": "uint256"
        }
      ],
      "name": "arrayStructures",
      "outputs": [
        {
          "internalType": "uint256",
          "name": "value",
          "type": "uint256"
        }
      ],
      "stateMutability": "view",
      "type": "function"
    },
    {
      "inputs": [
        {
          "internalType": "uint256",
          "name": "",
          "type": "uint256"
        }
      ],
      "name": "arrayValues",
      "outputs": [
        {
          "internalType": "uint256",
          "name": "",
          "type": "uint256"
        }
      ],
      "stateMutability": "view",
      "type": "function"
    },
    {
      "inputs": [
        {
          "internalType": "uint8",
          "name": "_value",
          "type": "uint8"
        }
      ],
      "name": "createEvent",
      "outputs": [],
      "stateMutability": "nonpayable",
      "type": "function"
    },
    {
      "inputs": [
        {
          "internalType": "address",
          "name": "_target",
          "type": "address"
        },
        {
          "internalType": "bytes4",
          "name": "_selector",
          "type": "bytes4"
        },
        {
          "internalType": "bytes32",
          "name": "_argument",
          "type": "bytes32"
        }
      ],
      "name": "delegateGetArray",
      "outputs": [
        {
          "internalType": "uint256[]",
          "name": "result",
          "type": "uint256[]"
        }
      ],
      "stateMutability": "nonpayable",
      "type": "function"
    },
    {
      "inputs": [],
      "name": "dynamicallySizedValue",
      "outputs": [
        {
          "internalType": "string",
          "name": "",
          "type": "string"
        }
      ],
      "stateMutability": "view",
      "type": "function"
    },
    {
      "inputs": [
        {
          "internalType": "address",
          "name": "_target",
          "type": "address"
        }
      ],
      "name": "finishUpgrade",
      "outputs": [],
      "stateMutability": "nonpayable",
      "type": "function"
    },
    {
      "inputs": [],
      "name": "getArrayValueLength",
      "outputs": [
        {
          "internalType": "uint256",
          "name": "",
          "type": "uint256"
        }
      ],
      "stateMutability": "view",
      "type": "function"
    },
    {
      "inputs": [
        {
          "internalType": "uint256",
          "name": "_index",
          "type": "uint256"
        }
      ],
      "name": "getStructure1ArrayValues",
      "outputs": [
        {
          "internalType": "uint256[]",
          "name": "",
          "type": "uint256[]"
        }
      ],
      "stateMutability": "view",
      "type": "function"
    },
    {
      "inputs": [
        {
          "internalType": "uint256",
          "name": "_index",
          "type": "uint256"
        }
      ],
      "name": "getStructure2ArrayValues",
      "outputs": [
        {
          "internalType": "uint256[]",
          "name": "",
          "type": "uint256[]"
        }
      ],
      "stateMutability": "view",
      "type": "function"
    },
    {
      "inputs": [
        {
          "internalType": "uint256",
          "name": "_index",
          "type": "uint256"
        }
      ],
      "name": "getStructureArrayLength1",
      "outputs": [
        {
          "internalType": "uint256",
          "name": "",
          "type": "uint256"
        }
      ],
      "stateMutability": "view",
      "type": "function"
    },
    {
      "inputs": [
        {
          "internalType": "uint256",
          "name": "_index",
          "type": "uint256"
        }
      ],
      "name": "getStructureArrayLength2",
      "outputs": [
        {
          "internalType": "uint256",
          "name": "",
          "type": "uint256"
        }
      ],
      "stateMutability": "view",
      "type": "function"
    },
    {
      "inputs": [
        {
          "internalType": "uint256",
          "name": "_index",
          "type": "uint256"
        },
        {
          "internalType": "uint256",
          "name": "_arrayIndex",
          "type": "uint256"
        }
      ],
      "name": "getStructureArrayValue1",
      "outputs": [
        {
          "internalType": "uint256",
          "name": "",
          "type": "uint256"
        }
      ],
      "stateMutability": "view",
      "type": "function"
    },
    {
      "inputs": [
        {
          "internalType": "uint256",
          "name": "_index",
          "type": "uint256"
        },
        {
          "internalType": "uint256",
          "name": "_arrayIndex",
          "type": "uint256"
        }
      ],
      "name": "getStructureArrayValue2",
      "outputs": [
        {
          "internalType": "uint256",
          "name": "",
          "type": "uint256"
        }
      ],
      "stateMutability": "view",
      "type": "function"
    },
    {
      "inputs": [],
      "name": "getStructureLength1",
      "outputs": [
        {
          "internalType": "uint256",
          "name": "",
          "type": "uint256"
        }
      ],
      "stateMutability": "view",
      "type": "function"
    },
    {
      "inputs": [],
      "name": "getStructureLength2",
      "outputs": [
        {
          "internalType": "uint256",
          "name": "",
          "type": "uint256"
        }
      ],
      "stateMutability": "view",
      "type": "function"
    },
    {
      "inputs": [],
      "name": "isOwner",
      "outputs": [
        {
          "internalType": "bool",
          "name": "",
          "type": "bool"
        }
      ],
      "stateMutability": "view",
      "type": "function"
    },
    {
      "inputs": [],
      "name": "isUpgrade",
      "outputs": [
        {
          "internalType": "uint8",
          "name": "",
          "type": "uint8"
        }
      ],
      "stateMutability": "view",
      "type": "function"
    },
    {
      "inputs": [
        {
          "internalType": "uint256",
          "name": "",
          "type": "uint256"
        }
      ],
      "name": "mappingIndices",
      "outputs": [
        {
          "internalType": "uint256",
          "name": "",
          "type": "uint256"
        }
      ],
      "stateMutability": "view",
      "type": "function"
    },
    {
      "inputs": [
        {
          "internalType": "uint256",
          "name": "",
          "type": "uint256"
        }
      ],
      "name": "mappingStructures",
      "outputs": [
        {
          "internalType": "uint256",
          "name": "value",
          "type": "uint256"
        },
        {
          "internalType": "uint256",
          "name": "valueToCheck",
          "type": "uint256"
        }
      ],
      "stateMutability": "view",
      "type": "function"
    },
    {
      "inputs": [],
      "name": "mappingStructuresLength",
      "outputs": [
        {
          "internalType": "uint256",
          "name": "",
          "type": "uint256"
        }
      ],
      "stateMutability": "view",
      "type": "function"
    },
    {
      "inputs": [
        {
          "internalType": "uint256",
          "name": "",
          "type": "uint256"
        }
      ],
      "name": "mappingValues",
      "outputs": [
        {
          "internalType": "uint256",
          "name": "",
          "type": "uint256"
        }
      ],
      "stateMutability": "view",
      "type": "function"
    },
    {
      "inputs": [],
      "name": "owner",
      "outputs": [
        {
          "internalType": "address",
          "name": "",
          "type": "address"
        }
      ],
      "stateMutability": "view",
      "type": "function"
    },
    {
      "inputs": [],
      "name": "previousTarget",
      "outputs": [
        {
          "internalType": "address",
          "name": "",
          "type": "address"
        }
      ],
      "stateMutability": "view",
      "type": "function"
    },
    {
      "inputs": [
        {
          "internalType": "uint256",
          "name": "_value",
          "type": "uint256"
        }
      ],
      "name": "pushArrayValue",
      "outputs": [],
      "stateMutability": "nonpayable",
      "type": "function"
    },
    {
      "inputs": [
        {
          "internalType": "uint256",
          "name": "_index",
          "type": "uint256"
        },
        {
          "internalType": "uint256",
          "name": "_value",
          "type": "uint256"
        }
      ],
      "name": "pushStructureArrayValue1",
      "outputs": [],
      "stateMutability": "nonpayable",
      "type": "function"
    },
    {
      "inputs": [
        {
          "internalType": "uint256",
          "name": "_index",
          "type": "uint256"
        },
        {
          "internalType": "uint256",
          "name": "_value",
          "type": "uint256"
        }
      ],
      "name": "pushStructureArrayValue2",
      "outputs": [],
      "stateMutability": "nonpayable",
      "type": "function"
    },
    {
      "inputs": [
        {
          "internalType": "uint256",
          "name": "_value",
          "type": "uint256"
        }
      ],
      "name": "pushStructureValue1",
      "outputs": [],
      "stateMutability": "nonpayable",
      "type": "function"
    },
    {
      "inputs": [
        {
          "internalType": "uint256",
          "name": "_value",
          "type": "uint256"
        }
      ],
      "name": "pushStructureValue2",
      "outputs": [],
      "stateMutability": "nonpayable",
      "type": "function"
    },
    {
      "inputs": [],
      "name": "renounceOwnership",
      "outputs": [],
      "stateMutability": "nonpayable",
      "type": "function"
    },
    {
      "inputs": [],
      "name": "returnValue",
      "outputs": [
        {
          "internalType": "uint256",
          "name": "",
          "type": "uint256"
        }
      ],
      "stateMutability": "pure",
      "type": "function"
    },
    {
      "inputs": [
        {
          "internalType": "uint256",
          "name": "_value",
          "type": "uint256"
        }
      ],
      "name": "setAnotherStorageValue",
      "outputs": [],
      "stateMutability": "nonpayable",
      "type": "function"
    },
    {
      "inputs": [
        {
          "internalType": "string",
          "name": "_dynamicValue",
          "type": "string"
        }
      ],
      "name": "setDynamicallySizedValue",
      "outputs": [],
      "stateMutability": "nonpayable",
      "type": "function"
    },
    {
      "inputs": [
        {
          "internalType": "uint256",
          "name": "_index",
          "type": "uint256"
        },
        {
          "internalType": "uint256",
          "name": "_value",
          "type": "uint256"
        }
      ],
      "name": "setMappingValue",
      "outputs": [],
      "stateMutability": "nonpayable",
      "type": "function"
    },
    {
      "inputs": [
        {
          "internalType": "uint256",
          "name": "_value",
          "type": "uint256"
        }
      ],
      "name": "setStorageValue",
      "outputs": [],
      "stateMutability": "nonpayable",
      "type": "function"
    },
    {
      "inputs": [
        {
          "internalType": "uint256",
          "name": "_index",
          "type": "uint256"
        },
        {
          "internalType": "uint256",
          "name": "_value",
          "type": "uint256"
        }
      ],
      "name": "setStructureValueToCheck2",
      "outputs": [],
      "stateMutability": "nonpayable",
      "type": "function"
    },
    {
      "inputs": [],
      "name": "storageValue",
      "outputs": [
        {
          "internalType": "uint256",
          "name": "",
          "type": "uint256"
        }
      ],
      "stateMutability": "view",
      "type": "function"
    },
    {
      "inputs": [],
      "name": "storageValueToCheck",
      "outputs": [
        {
          "internalType": "uint256",
          "name": "",
          "type": "uint256"
        }
      ],
      "stateMutability": "view",
      "type": "function"
    },
    {
      "inputs": [],
      "name": "target",
      "outputs": [
        {
          "internalType": "address",
          "name": "",
          "type": "address"
        }
      ],
      "stateMutability": "view",
      "type": "function"
    },
    {
      "inputs": [
        {
          "internalType": "address",
          "name": "newOwner",
          "type": "address"
        }
      ],
      "name": "transferOwnership",
      "outputs": [],
      "stateMutability": "nonpayable",
      "type": "function"
    },
    {
      "inputs": [
        {
          "internalType": "address",
          "name": "_testTarget",
          "type": "address"
        }
      ],
      "name": "verifyState",
      "outputs": [],
      "stateMutability": "nonpayable",
      "type": "function"
    }
  ],
  "bytecode": "608060405234801561001057600080fd5b5060405161165a38038061165a8339818101604052602081101561003357600080fd5b5051600080546001600160a01b031916331780825560405183926001600160a01b039290921691907f8be0079c531659141344cd1fd0a4f28419497f9722a3daafe3b4186f6b6457e0908290a3600c55506115c7806100936000396000f3fe608060405234801561001057600080fd5b50600436106102535760003560e01c8063910833d911610146578063c68fcdbf116100c3578063e3ad1d0011610087578063e3ad1d0014610748578063e4181c7314610765578063e8dccd061461076d578063f2fde38b14610793578063f3d93cf1146107b9578063f6b9be5b146107c157610253565b8063c68fcdbf14610665578063cfb6371814610682578063d4b83992146106a5578063dba72e58146106ad578063e38a303b1461072a57610253565b8063a977a9731161010a578063a977a9731461060a578063a9de99f314610612578063b9626d211461062f578063c3e6451214610655578063c6122fb31461065d57610253565b8063910833d91461056f578063990c8f79146105925780639f42c5b41461059a5780639ffa6f21146105b7578063a54b7a82146105d457610253565b80635ffb1578116101d4578063887bf94011610198578063887bf9401461048057806388bb34b7146104885780638da5cb5b1461052e5780638e9df67c146105365780638f32d59b1461055357610253565b80635ffb157814610416578063649d64bf1461043357806367099abf14610450578063715018a6146104585780637b8f82d61461046057610253565b8063332b4eaf1161021b578063332b4eaf1461037e57806342a89d0d1461039b5780634b2cd118146103b857806352fae8fd146103dc5780635b18143e146103f957610253565b806309f2e5b6146102585780630c62c4a61461027d57806311b280911461029a578063155a4d3e1461032657806321e72e191461035b575b600080fd5b61027b6004803603604081101561026e57600080fd5b50803590602001356107e4565b005b61027b6004803603602081101561029357600080fd5b5035610816565b6102d6600480360360608110156102b057600080fd5b506001600160a01b03813516906001600160e01b03196020820135169060400135610882565b60408051602080825283518183015283519192839290830191858101910280838360005b838110156103125781810151838201526020016102fa565b505050509050019250505060405180910390f35b6103496004803603604081101561033c57600080fd5b50803590602001356108a0565b60408051918252519081900360200190f35b6103496004803603604081101561037157600080fd5b50803590602001356108de565b6103496004803603602081101561039457600080fd5b50356108fb565b610349600480360360208110156103b157600080fd5b503561090d565b6103c0610930565b604080516001600160a01b039092168252519081900360200190f35b610349600480360360208110156103f257600080fd5b503561093f565b61027b6004803603602081101561040f57600080fd5b5035610954565b61027b6004803603602081101561042c57600080fd5b5035610959565b6103496004803603602081101561044957600080fd5b5035610995565b6103496109b3565b61027b6109ba565b61027b6004803603602081101561047657600080fd5b503560ff16610a15565b610349610a4e565b61027b6004803603602081101561049e57600080fd5b8101906020810181356401000000008111156104b957600080fd5b8201836020820111156104cb57600080fd5b803590602001918460018302840111640100000000831117156104ed57600080fd5b91908080601f016020809104026020016040519081016040528093929190818152602001838380828437600092019190915250929550610a54945050505050565b6103c0610a6b565b6103496004803603602081101561054c57600080fd5b5035610a7a565b61055b610aa3565b604080519115158252519081900360200190f35b61027b6004803603604081101561058557600080fd5b5080359060200135610ab4565b610349610ac9565b61027b600480360360208110156105b057600080fd5b5035610ace565b610349600480360360208110156105cd57600080fd5b5035610b7a565b6105f1600480360360208110156105ea57600080fd5b5035610b87565b6040805192835260208301919091528051918290030190f35b610349610ba0565b61027b6004803603602081101561062857600080fd5b5035610ba6565b61027b6004803603602081101561064557600080fd5b50356001600160a01b0316610bae565b610349610bd8565b610349610bde565b6102d66004803603602081101561067b57600080fd5b5035610be4565b61027b6004803603604081101561069857600080fd5b5080359060200135610c5a565b6103c0610c80565b6106b5610c8f565b6040805160208082528351818301528351919283929083019185019080838360005b838110156106ef5781810151838201526020016106d7565b50505050905090810190601f16801561071c5780820380516001836020036101000a031916815260200191505b509250505060405180910390f35b610732610d1d565b6040805160ff9092168252519081900360200190f35b6102d66004803603602081101561075e57600080fd5b5035610d2d565b610349610d90565b61027b6004803603602081101561078357600080fd5b50356001600160a01b0316610d96565b61027b600480360360208110156107a957600080fd5b50356001600160a01b0316610e0a565b610349610e24565b61027b600480360360408110156107d757600080fd5b5080359060200135610e2a565b600982815481106107f157fe5b6000918252602080832060016002909302018201805492830181558352909120015550565b600b80546001019055610827611484565b600b54600019016000908152600a6020908152604090912082518155818301518051849361085c9260018501929101906114a5565b50604091820151600290910155600b54600019016000908152600a602052209190915550565b60606000610894858560018685610e6c565b80510195945050505050565b6000600983815481106108af57fe5b906000526020600020906002020160010182815481106108cb57fe5b9060005260206000200154905092915050565b6000828152600a602052604081206001018054839081106108cb57fe5b60076020526000908152604090205481565b6009818154811061091a57fe5b6000918252602090912060029091020154905081565b6002546001600160a01b031681565b6000908152600a602052604090206001015490565b600d55565b6006805460018101825560009190915260029091027ff652222313e28459528d920b65115c16c04f3efc82aaedc97be59f3f377c0d3f90910155565b600681815481106109a257fe5b600091825260209091200154905081565b6009545b90565b6109c2610aa3565b6109cb57600080fd5b600080546040516001600160a01b03909116907f8be0079c531659141344cd1fd0a4f28419497f9722a3daafe3b4186f6b6457e0908390a3600080546001600160a01b0319169055565b6040805160ff8316815290517faaa2f1a2123f272349bbc5e43dce6ed398bdd6091bb3f9540d7b011cdc2219559181900360200190a150565b600c5481565b8051610a679060059060208401906114f0565b5050565b6000546001600160a01b031690565b600060098281548110610a8957fe5b600091825260209091206001600290920201015492915050565b6000546001600160a01b0316331490565b6000918252600a602052604090912060020155565b601490565b610ad661155d565b60098054600181018255600091909152815160029091027f6e1540171b6c0c960b71a7020d9f60077f6af931a8bbf590da0223dacf75c7af81019182556020808401518051859493610b4e937f6e1540171b6c0c960b71a7020d9f60077f6af931a8bbf590da0223dacf75c7b09091019201906114a5565b5050600980548492506000198101908110610b6557fe5b60009182526020909120600290910201555050565b600881815481106109a257fe5b600a602052600090815260409020805460029091015482565b60045481565b600202600455565b610bb781610ebc565b600d54610bcb8263c6122fb360e01b6112e7565b14610bd557600080fd5b50565b60065490565b600d5481565b606060098281548110610bf357fe5b9060005260206000209060020201600101805480602002602001604051908101604052809291908181526020018280548015610c4e57602002820191906000526020600020905b815481526020019060010190808311610c3a575b50505050509050919050565b6000918252600a6020908152604083206001908101805491820181558452922090910155565b6001546001600160a01b031681565b6005805460408051602060026001851615610100026000190190941693909304601f81018490048402820184019092528181529291830182828015610d155780601f10610cea57610100808354040283529160200191610d15565b820191906000526020600020905b815481529060010190602001808311610cf857829003601f168201915b505050505081565b600254600160a01b900460ff1681565b6000818152600a6020908152604091829020600101805483518184028101840190945280845260609392830182828015610c4e5760200282019190600052602060002090815481526020019060010190808311610c3a5750505050509050919050565b600b5481565b610d9f81611300565b806001600160a01b031663887bf9406040518163ffffffff1660e01b815260040160206040518083038186803b158015610dd857600080fd5b505afa158015610dec573d6000803e3d6000fd5b505050506040513d6020811015610e0257600080fd5b5051600c5550565b610e12610aa3565b610e1b57600080fd5b610bd58161135a565b600b5490565b60088054600181019091557ff3f7a9fe364faab93b216da50a3214154f22a0a2b415b23a84c8169e8b636ee30182905560009182526007602052604090912055565b6040518481528315610e7f578260048201525b6001841115610e8f578160248201525b6000808560200260040183895af48015610ead573d6000833e610eb2565b600082fd5b5095945050505050565b610ec5816113c8565b600454610ed98263a977a97360e01b6112e7565b14610ee357600080fd5b6060610ef682631b74e5cb60e31b611422565b600554815191925060026000196101006001841615020190911604148015610f8d575060056040518082805460018160011615610100020316600290048015610f765780601f10610f54576101008083540402835291820191610f76565b820191906000526020600020905b815481529060010190602001808311610f62575b505091505060405180910390208180519060200120145b610f9657600080fd5b600654610faa836361f3228960e11b6112e7565b14610fb457600080fd5b60005b600654811015610ffe5760068181548110610fce57fe5b600091825260209091200154610fec8463649d64bf60e01b8461143e565b14610ff657600080fd5b600101610fb7565b5060005b60085481101561105f5760006008828154811061101b57fe5b6000918252602080832090910154808352600790915260409091205490915061104c8563332b4eaf60e01b8461143e565b1461105657600080fd5b50600101611002565b50600954611074836367099abf60e01b6112e7565b1461107e57600080fd5b60005b600954811015611199576009818154811061109857fe5b60009182526020909120600290910201546110bb846342a89d0d60e01b8461143e565b146110c557600080fd5b60606110d98463c68fcdbf60e01b84610882565b9050600982815481106110e857fe5b90600052602060002090600202016001018054905081511461110957600080fd5b60005b6009838154811061111957fe5b90600052602060002090600202016001018054905081101561118f576009838154811061114257fe5b9060005260206000209060020201600101818154811061115e57fe5b906000526020600020015482828151811061117557fe5b60200260200101511461118757600080fd5b60010161110c565b5050600101611081565b50600b546111ae8363f3d93cf160e01b6112e7565b146111b857600080fd5b60005b600b548110156112c8576111cd611484565b6111df846352a5bd4160e11b84611459565b6000838152600a60205260409020548151919250146111fd57600080fd5b6000828152600a60205260409081902060020154908201511461121f57600080fd5b60606112328562e3ad1d60e81b85610882565b6000848152600a602052604090206001015481519192501461125357600080fd5b60005b6000848152600a60205260409020600101548110156112bd576000848152600a6020526040902060010180548290811061128c57fe5b90600052602060002001548282815181106112a357fe5b6020026020010151146112b557600080fd5b600101611256565b5050506001016111bb565b50600c546112dd83630221efe560e61b6112e7565b14610a6757600080fd5b6000806112f78484838080610e6c565b51949350505050565b60028054600160a01b900460ff161461131857600080fd5b6040805133815290516001600160a01b038316917fd55ec27c5c6316913ed8803c18cfd1bfefea953db909dcba6140744a9d8b0d1f919081900360200190a250565b6001600160a01b03811661136d57600080fd5b600080546040516001600160a01b03808516939216917f8be0079c531659141344cd1fd0a4f28419497f9722a3daafe3b4186f6b6457e091a3600080546001600160a01b0319166001600160a01b0392909216919091179055565b60028054600160a01b900460ff16146113e057600080fd5b6040805133815290516001600160a01b038316917f1e8d98c1b4a0d9bd2e2371026b632eb2773fcce41742e41f02f574ab69868d4c919081900360200190a250565b606060006114338484838080610e6c565b805101949350505050565b60008061144f858560018685610e6c565b5195945050505050565b611461611484565b6000611471858560018685610e6c565b6020810151604082015295945050505050565b60405180606001604052806000815260200160608152602001600081525090565b8280548282559060005260206000209081019282156114e0579160200282015b828111156114e05782518255916020019190600101906114c5565b506114ec929150611577565b5090565b828054600181600116156101000203166002900490600052602060002090601f016020900481019282601f1061153157805160ff19168380011785556114e0565b828001600101855582156114e057918201828111156114e05782518255916020019190600101906114c5565b604051806040016040528060008152602001606081525090565b6109b791905b808211156114ec576000815560010161157d56fea264697066735822122050e190562daff54c802a7de8b5e0a466bd36f1caedbf15639bb9bc512601484464736f6c63430006070033",
  "bytecodeSha1": "c0759971b35c7a5efed8de23d45663d642374feb",
  "compiler": {
    "evm_version": "berlin",
    "optimizer": {
      "enabled": true,
      "runs": 200
    },
    "version": "0.6.7"
  },
  "contractName": "ContractV3",
  "language": "Solidity",
  "natspec": {
    "methods": {
      "delegateGetArray(address,bytes4,bytes32)": {
        "details": "Get array by one parameter."
      },
      "renounceOwnership()": {
        "details": "Allows the current owner to relinquish control of the contract.",
        "notice": "Renouncing to ownership will leave the contract without an owner. It will not be possible to call the functions with the `onlyOwner` modifier anymore."
      },
      "transferOwnership(address)": {
        "details": "Allows the current owner to transfer control of the contract to a newOwner.",
        "params": {
          "newOwner": "The address to transfer ownership to."
        }
      }
    }
  },
  "opcodes": "PUSH1 0x80 PUSH1 0x40 MSTORE CALLVALUE DUP1 ISZERO PUSH2 0x10 JUMPI PUSH1 0x0 DUP1 REVERT JUMPDEST POP PUSH1 0x4 CALLDATASIZE LT PUSH2 0x253 JUMPI PUSH1 0x0 CALLDATALOAD PUSH1 0xE0 SHR DUP1 PUSH4 0x910833D9 GT PUSH2 0x146 JUMPI DUP1 PUSH4 0xC68FCDBF GT PUSH2 0xC3 JUMPI DUP1 PUSH4 0xE3AD1D00 GT PUSH2 0x87 JUMPI DUP1 PUSH4 0xE3AD1D00 EQ PUSH2 0x748 JUMPI DUP1 PUSH4 0xE4181C73 EQ PUSH2 0x765 JUMPI DUP1 PUSH4 0xE8DCCD06 EQ PUSH2 0x76D JUMPI DUP1 PUSH4 0xF2FDE38B EQ PUSH2 0x793 JUMPI DUP1 PUSH4 0xF3D93CF1 EQ PUSH2 0x7B9 JUMPI DUP1 PUSH4 0xF6B9BE5B EQ PUSH2 0x7C1 JUMPI PUSH2 0x253 JUMP JUMPDEST DUP1 PUSH4 0xC68FCDBF EQ PUSH2 0x665 JUMPI DUP1 PUSH4 0xCFB63718 EQ PUSH2 0x682 JUMPI DUP1 PUSH4 0xD4B83992 EQ PUSH2 0x6A5 JUMPI DUP1 PUSH4 0xDBA72E58 EQ PUSH2 0x6AD JUMPI DUP1 PUSH4 0xE38A303B EQ PUSH2 0x72A JUMPI PUSH2 0x253 JUMP JUMPDEST DUP1 PUSH4 0xA977A973 GT PUSH2 0x10A JUMPI DUP1 PUSH4 0xA977A973 EQ PUSH2 0x60A JUMPI DUP1 PUSH4 0xA9DE99F3 EQ PUSH2 0x612 JUMPI DUP1 PUSH4 0xB9626D21 EQ PUSH2 0x62F JUMPI DUP1 PUSH4 0xC3E64512 EQ PUSH2 0x655 JUMPI DUP1 PUSH4 0xC6122FB3 EQ PUSH2 0x65D JUMPI PUSH2 0x253 JUMP JUMPDEST DUP1 PUSH4 0x910833D9 EQ PUSH2 0x56F JUMPI DUP1 PUSH4 0x990C8F79 EQ PUSH2 0x592 JUMPI DUP1 PUSH4 0x9F42C5B4 EQ PUSH2 0x59A JUMPI DUP1 PUSH4 0x9FFA6F21 EQ PUSH2 0x5B7 JUMPI DUP1 PUSH4 0xA54B7A82 EQ PUSH2 0x5D4 JUMPI PUSH2 0x253 JUMP JUMPDEST DUP1 PUSH4 0x5FFB1578 GT PUSH2 0x1D4 JUMPI DUP1 PUSH4 0x887BF940 GT PUSH2 0x198 JUMPI DUP1 PUSH4 0x887BF940 EQ PUSH2 0x480 JUMPI DUP1 PUSH4 0x88BB34B7 EQ PUSH2 0x488 JUMPI DUP1 PUSH4 0x8DA5CB5B EQ PUSH2 0x52E JUMPI DUP1 PUSH4 0x8E9DF67C EQ PUSH2 0x536 JUMPI DUP1 PUSH4 0x8F32D59B EQ PUSH2 0x553 JUMPI PUSH2 0x253 JUMP JUMPDEST DUP1 PUSH4 0x5FFB1578 EQ PUSH2 0x416 JUMPI DUP1 PUSH4 0x649D64BF EQ PUSH2 0x433 JUMPI DUP1 PUSH4 0x67099ABF EQ PUSH2 0x450 JUMPI DUP1 PUSH4 0x715018A6 EQ PUSH2 0x458 JUMPI DUP1 PUSH4 0x7B8F82D6 EQ PUSH2 0x460 JUMPI PUSH2 0x253 JUMP JUMPDEST DUP1 PUSH4 0x332B4EAF GT PUSH2 0x21B JUMPI DUP1 PUSH4 0x332B4EAF EQ PUSH2 0x37E JUMPI DUP1 PUSH4 0x42A89D0D EQ PUSH2 0x39B JUMPI DUP1 PUSH4 0x4B2CD118 EQ PUSH2 0x3B8 JUMPI DUP1 PUSH4 0x52FAE8FD EQ PUSH2 0x3DC JUMPI DUP1 PUSH4 0x5B18143E EQ PUSH2 0x3F9 JUMPI PUSH2 0x253 JUMP JUMPDEST DUP1 PUSH4 0x9F2E5B6 EQ PUSH2 0x258 JUMPI DUP1 PUSH4 0xC62C4A6 EQ PUSH2 0x27D JUMPI DUP1 PUSH4 0x11B28091 EQ PUSH2 0x29A JUMPI DUP1 PUSH4 0x155A4D3E EQ PUSH2 0x326 JUMPI DUP1 PUSH4 0x21E72E19 EQ PUSH2 0x35B JUMPI JUMPDEST PUSH1 0x0 DUP1 REVERT JUMPDEST PUSH2 0x27B PUSH1 0x4 DUP1 CALLDATASIZE SUB PUSH1 0x40 DUP2 LT ISZERO PUSH2 0x26E JUMPI PUSH1 0x0 DUP1 REVERT JUMPDEST POP DUP1 CALLDATALOAD SWAP1 PUSH1 0x20 ADD CALLDATALOAD PUSH2 0x7E4 JUMP JUMPDEST STOP JUMPDEST PUSH2 0x27B PUSH1 0x4 DUP1 CALLDATASIZE SUB PUSH1 0x20 DUP2 LT ISZERO PUSH2 0x293 JUMPI PUSH1 0x0 DUP1 REVERT JUMPDEST POP CALLDATALOAD PUSH2 0x816 JUMP JUMPDEST PUSH2 0x2D6 PUSH1 0x4 DUP1 CALLDATASIZE SUB PUSH1 0x60 DUP2 LT ISZERO PUSH2 0x2B0 JUMPI PUSH1 0x0 DUP1 REVERT JUMPDEST POP PUSH1 0x1 PUSH1 0x1 PUSH1 0xA0 SHL SUB DUP2 CALLDATALOAD AND SWAP1 PUSH1 0x1 PUSH1 0x1 PUSH1 0xE0 SHL SUB NOT PUSH1 0x20 DUP3 ADD CALLDATALOAD AND SWAP1 PUSH1 0x40 ADD CALLDATALOAD PUSH2 0x882 JUMP JUMPDEST PUSH1 0x40 DUP1 MLOAD PUSH1 0x20 DUP1 DUP3 MSTORE DUP4 MLOAD DUP2 DUP4 ADD MSTORE DUP4 MLOAD SWAP2 SWAP3 DUP4 SWAP3 SWAP1 DUP4 ADD SWAP2 DUP6 DUP2 ADD SWAP2 MUL DUP1 DUP4 DUP4 PUSH1 0x0 JUMPDEST DUP4 DUP2 LT ISZERO PUSH2 0x312 JUMPI DUP2 DUP2 ADD MLOAD DUP4 DUP3 ADD MSTORE PUSH1 0x20 ADD PUSH2 0x2FA JUMP JUMPDEST POP POP POP POP SWAP1 POP ADD SWAP3 POP POP POP PUSH1 0x40 MLOAD DUP1 SWAP2 SUB SWAP1 RETURN JUMPDEST PUSH2 0x349 PUSH1 0x4 DUP1 CALLDATASIZE SUB PUSH1 0x40 DUP2 LT ISZERO PUSH2 0x33C JUMPI PUSH1 0x0 DUP1 REVERT JUMPDEST POP DUP1 CALLDATALOAD SWAP1 PUSH1 0x20 ADD CALLDATALOAD PUSH2 0x8A0 JUMP JUMPDEST PUSH1 0x40 DUP1 MLOAD SWAP2 DUP3 MSTORE MLOAD SWAP1 DUP2 SWAP1 SUB PUSH1 0x20 ADD SWAP1 RETURN JUMPDEST PUSH2 0x349 PUSH1 0x4 DUP1 CALLDATASIZE SUB PUSH1 0x40 DUP2 LT ISZERO PUSH2 0x371 JUMPI PUSH1 0x0 DUP1 REVERT JUMPDEST POP DUP1 CALLDATALOAD SWAP1 PUSH1 0x20 ADD CALLDATALOAD PUSH2 0x8DE JUMP JUMPDEST PUSH2 0x349 PUSH1 0x4 DUP1 CALLDATASIZE SUB PUSH1 0x20 DUP2 LT ISZERO PUSH2 0x394 JUMPI PUSH1 0x0 DUP1 REVERT JUMPDEST POP CALLDATALOAD PUSH2 0x8FB JUMP JUMPDEST PUSH2 0x349 PUSH1 0x4 DUP1 CALLDATASIZE SUB PUSH1 0x20 DUP2 LT ISZERO PUSH2 0x3B1 JUMPI PUSH1 0x0 DUP1 REVERT JUMPDEST POP CALLDATALOAD PUSH2 0x90D JUMP JUMPDEST PUSH2 0x3C0 PUSH2 0x930 JUMP JUMPDEST PUSH1 0x40 DUP1 MLOAD PUSH1 0x1 PUSH1 0x1 PUSH1 0xA0 SHL SUB SWAP1 SWAP3 AND DUP3 MSTORE MLOAD SWAP1 DUP2 SWAP1 SUB PUSH1 0x20 ADD SWAP1 RETURN JUMPDEST PUSH2 0x349 PUSH1 0x4 DUP1 CALLDATASIZE SUB PUSH1 0x20 DUP2 LT ISZERO PUSH2 0x3F2 JUMPI PUSH1 0x0 DUP1 REVERT JUMPDEST POP CALLDATALOAD PUSH2 0x93F JUMP JUMPDEST PUSH2 0x27B PUSH1 0x4 DUP1 CALLDATASIZE SUB PUSH1 0x20 DUP2 LT ISZERO PUSH2 0x40F JUMPI PUSH1 0x0 DUP1 REVERT JUMPDEST POP CALLDATALOAD PUSH2 0x954 JUMP JUMPDEST PUSH2 0x27B PUSH1 0x4 DUP1 CALLDATASIZE SUB PUSH1 0x20 DUP2 LT ISZERO PUSH2 0x42C JUMPI PUSH1 0x0 DUP1 REVERT JUMPDEST POP CALLDATALOAD PUSH2 0x959 JUMP JUMPDEST PUSH2 0x349 PUSH1 0x4 DUP1 CALLDATASIZE SUB PUSH1 0x20 DUP2 LT ISZERO PUSH2 0x449 JUMPI PUSH1 0x0 DUP1 REVERT JUMPDEST POP CALLDATALOAD PUSH2 0x995 JUMP JUMPDEST PUSH2 0x349 PUSH2 0x9B3 JUMP JUMPDEST PUSH2 0x27B PUSH2 0x9BA JUMP JUMPDEST PUSH2 0x27B PUSH1 0x4 DUP1 CALLDATASIZE SUB PUSH1 0x20 DUP2 LT ISZERO PUSH2 0x476 JUMPI PUSH1 0x0 DUP1 REVERT JUMPDEST POP CALLDATALOAD PUSH1 0xFF AND PUSH2 0xA15 JUMP JUMPDEST PUSH2 0x349 PUSH2 0xA4E JUMP JUMPDEST PUSH2 0x27B PUSH1 0x4 DUP1 CALLDATASIZE SUB PUSH1 0x20 DUP2 LT ISZERO PUSH2 0x49E JUMPI PUSH1 0x0 DUP1 REVERT JUMPDEST DUP2 ADD SWAP1 PUSH1 0x20 DUP2 ADD DUP2 CALLDATALOAD PUSH5 0x100000000 DUP2 GT ISZERO PUSH2 0x4B9 JUMPI PUSH1 0x0 DUP1 REVERT JUMPDEST DUP3 ADD DUP4 PUSH1 0x20 DUP3 ADD GT ISZERO PUSH2 0x4CB JUMPI PUSH1 0x0 DUP1 REVERT JUMPDEST DUP1 CALLDATALOAD SWAP1 PUSH1 0x20 ADD SWAP2 DUP5 PUSH1 0x1 DUP4 MUL DUP5 ADD GT PUSH5 0x100000000 DUP4 GT OR ISZERO PUSH2 0x4ED JUMPI PUSH1 0x0 DUP1 REVERT JUMPDEST SWAP2 SWAP1 DUP1 DUP1 PUSH1 0x1F ADD PUSH1 0x20 DUP1 SWAP2 DIV MUL PUSH1 0x20 ADD PUSH1 0x40 MLOAD SWAP1 DUP2 ADD PUSH1 0x40 MSTORE DUP1 SWAP4 SWAP3 SWAP2 SWAP1 DUP2 DUP2 MSTORE PUSH1 0x20 ADD DUP4 DUP4 DUP1 DUP3 DUP5 CALLDATACOPY PUSH1 0x0 SWAP3 ADD SWAP2 SWAP1 SWAP2 MSTORE POP SWAP3 SWAP6 POP PUSH2 0xA54 SWAP5 POP POP POP POP POP JUMP JUMPDEST PUSH2 0x3C0 PUSH2 0xA6B JUMP JUMPDEST PUSH2 0x349 PUSH1 0x4 DUP1 CALLDATASIZE SUB PUSH1 0x20 DUP2 LT ISZERO PUSH2 0x54C JUMPI PUSH1 0x0 DUP1 REVERT JUMPDEST POP CALLDATALOAD PUSH2 0xA7A JUMP JUMPDEST PUSH2 0x55B PUSH2 0xAA3 JUMP JUMPDEST PUSH1 0x40 DUP1 MLOAD SWAP2 ISZERO ISZERO DUP3 MSTORE MLOAD SWAP1 DUP2 SWAP1 SUB PUSH1 0x20 ADD SWAP1 RETURN JUMPDEST PUSH2 0x27B PUSH1 0x4 DUP1 CALLDATASIZE SUB PUSH1 0x40 DUP2 LT ISZERO PUSH2 0x585 JUMPI PUSH1 0x0 DUP1 REVERT JUMPDEST POP DUP1 CALLDATALOAD SWAP1 PUSH1 0x20 ADD CALLDATALOAD PUSH2 0xAB4 JUMP JUMPDEST PUSH2 0x349 PUSH2 0xAC9 JUMP JUMPDEST PUSH2 0x27B PUSH1 0x4 DUP1 CALLDATASIZE SUB PUSH1 0x20 DUP2 LT ISZERO PUSH2 0x5B0 JUMPI PUSH1 0x0 DUP1 REVERT JUMPDEST POP CALLDATALOAD PUSH2 0xACE JUMP JUMPDEST PUSH2 0x349 PUSH1 0x4 DUP1 CALLDATASIZE SUB PUSH1 0x20 DUP2 LT ISZERO PUSH2 0x5CD JUMPI PUSH1 0x0 DUP1 REVERT JUMPDEST POP CALLDATALOAD PUSH2 0xB7A JUMP JUMPDEST PUSH2 0x5F1 PUSH1 0x4 DUP1 CALLDATASIZE SUB PUSH1 0x20 DUP2 LT ISZERO PUSH2 0x5EA JUMPI PUSH1 0x0 DUP1 REVERT JUMPDEST POP CALLDATALOAD PUSH2 0xB87 JUMP JUMPDEST PUSH1 0x40 DUP1 MLOAD SWAP3 DUP4 MSTORE PUSH1 0x20 DUP4 ADD SWAP2 SWAP1 SWAP2 MSTORE DUP1 MLOAD SWAP2 DUP3 SWAP1 SUB ADD SWAP1 RETURN JUMPDEST PUSH2 0x349 PUSH2 0xBA0 JUMP JUMPDEST PUSH2 0x27B PUSH1 0x4 DUP1 CALLDATASIZE SUB PUSH1 0x20 DUP2 LT ISZERO PUSH2 0x628 JUMPI PUSH1 0x0 DUP1 REVERT JUMPDEST POP CALLDATALOAD PUSH2 0xBA6 JUMP JUMPDEST PUSH2 0x27B PUSH1 0x4 DUP1 CALLDATASIZE SUB PUSH1 0x20 DUP2 LT ISZERO PUSH2 0x645 JUMPI PUSH1 0x0 DUP1 REVERT JUMPDEST POP CALLDATALOAD PUSH1 0x1 PUSH1 0x1 PUSH1 0xA0 SHL SUB AND PUSH2 0xBAE JUMP JUMPDEST PUSH2 0x349 PUSH2 0xBD8 JUMP JUMPDEST PUSH2 0x349 PUSH2 0xBDE JUMP JUMPDEST PUSH2 0x2D6 PUSH1 0x4 DUP1 CALLDATASIZE SUB PUSH1 0x20 DUP2 LT ISZERO PUSH2 0x67B JUMPI PUSH1 0x0 DUP1 REVERT JUMPDEST POP CALLDATALOAD PUSH2 0xBE4 JUMP JUMPDEST PUSH2 0x27B PUSH1 0x4 DUP1 CALLDATASIZE SUB PUSH1 0x40 DUP2 LT ISZERO PUSH2 0x698 JUMPI PUSH1 0x0 DUP1 REVERT JUMPDEST POP DUP1 CALLDATALOAD SWAP1 PUSH1 0x20 ADD CALLDATALOAD PUSH2 0xC5A JUMP JUMPDEST PUSH2 0x3C0 PUSH2 0xC80 JUMP JUMPDEST PUSH2 0x6B5 PUSH2 0xC8F JUMP JUMPDEST PUSH1 0x40 DUP1 MLOAD PUSH1 0x20 DUP1 DUP3 MSTORE DUP4 MLOAD DUP2 DUP4 ADD MSTORE DUP4 MLOAD SWAP2 SWAP3 DUP4 SWAP3 SWAP1 DUP4 ADD SWAP2 DUP6 ADD SWAP1 DUP1 DUP4 DUP4 PUSH1 0x0 JUMPDEST DUP4 DUP2 LT ISZERO PUSH2 0x6EF JUMPI DUP2 DUP2 ADD MLOAD DUP4 DUP3 ADD MSTORE PUSH1 0x20 ADD PUSH2 0x6D7 JUMP JUMPDEST POP POP POP POP SWAP1 POP SWAP1 DUP2 ADD SWAP1 PUSH1 0x1F AND DUP1 ISZERO PUSH2 0x71C JUMPI DUP1 DUP3 SUB DUP1 MLOAD PUSH1 0x1 DUP4 PUSH1 0x20 SUB PUSH2 0x100 EXP SUB NOT AND DUP2 MSTORE PUSH1 0x20 ADD SWAP2 POP JUMPDEST POP SWAP3 POP POP POP PUSH1 0x40 MLOAD DUP1 SWAP2 SUB SWAP1 RETURN JUMPDEST PUSH2 0x732 PUSH2 0xD1D JUMP JUMPDEST PUSH1 0x40 DUP1 MLOAD PUSH1 0xFF SWAP1 SWAP3 AND DUP3 MSTORE MLOAD SWAP1 DUP2 SWAP1 SUB PUSH1 0x20 ADD SWAP1 RETURN JUMPDEST PUSH2 0x2D6 PUSH1 0x4 DUP1 CALLDATASIZE SUB PUSH1 0x20 DUP2 LT ISZERO PUSH2 0x75E JUMPI PUSH1 0x0 DUP1 REVERT JUMPDEST POP CALLDATALOAD PUSH2 0xD2D JUMP JUMPDEST PUSH2 0x349 PUSH2 0xD90 JUMP JUMPDEST PUSH2 0x27B PUSH1 0x4 DUP1 CALLDATASIZE SUB PUSH1 0x20 DUP2 LT ISZERO PUSH2 0x783 JUMPI PUSH1 0x0 DUP1 REVERT JUMPDEST POP CALLDATALOAD PUSH1 0x1 PUSH1 0x1 PUSH1 0xA0 SHL SUB AND PUSH2 0xD96 JUMP JUMPDEST PUSH2 0x27B PUSH1 0x4 DUP1 CALLDATASIZE SUB PUSH1 0x20 DUP2 LT ISZERO PUSH2 0x7A9 JUMPI PUSH1 0x0 DUP1 REVERT JUMPDEST POP CALLDATALOAD PUSH1 0x1 PUSH1 0x1 PUSH1 0xA0 SHL SUB AND PUSH2 0xE0A JUMP JUMPDEST PUSH2 0x349 PUSH2 0xE24 JUMP JUMPDEST PUSH2 0x27B PUSH1 0x4 DUP1 CALLDATASIZE SUB PUSH1 0x40 DUP2 LT ISZERO PUSH2 0x7D7 JUMPI PUSH1 0x0 DUP1 REVERT JUMPDEST POP DUP1 CALLDATALOAD SWAP1 PUSH1 0x20 ADD CALLDATALOAD PUSH2 0xE2A JUMP JUMPDEST PUSH1 0x9 DUP3 DUP2 SLOAD DUP2 LT PUSH2 0x7F1 JUMPI INVALID JUMPDEST PUSH1 0x0 SWAP2 DUP3 MSTORE PUSH1 0x20 DUP1 DUP4 KECCAK256 PUSH1 0x1 PUSH1 0x2 SWAP1 SWAP4 MUL ADD DUP3 ADD DUP1 SLOAD SWAP3 DUP4 ADD DUP2 SSTORE DUP4 MSTORE SWAP1 SWAP2 KECCAK256 ADD SSTORE POP JUMP JUMPDEST PUSH1 0xB DUP1 SLOAD PUSH1 0x1 ADD SWAP1 SSTORE PUSH2 0x827 PUSH2 0x1484 JUMP JUMPDEST PUSH1 0xB SLOAD PUSH1 0x0 NOT ADD PUSH1 0x0 SWAP1 DUP2 MSTORE PUSH1 0xA PUSH1 0x20 SWAP1 DUP2 MSTORE PUSH1 0x40 SWAP1 SWAP2 KECCAK256 DUP3 MLOAD DUP2 SSTORE DUP2 DUP4 ADD MLOAD DUP1 MLOAD DUP5 SWAP4 PUSH2 0x85C SWAP3 PUSH1 0x1 DUP6 ADD SWAP3 SWAP2 ADD SWAP1 PUSH2 0x14A5 JUMP JUMPDEST POP PUSH1 0x40 SWAP2 DUP3 ADD MLOAD PUSH1 0x2 SWAP1 SWAP2 ADD SSTORE PUSH1 0xB SLOAD PUSH1 0x0 NOT ADD PUSH1 0x0 SWAP1 DUP2 MSTORE PUSH1 0xA PUSH1 0x20 MSTORE KECCAK256 SWAP2 SWAP1 SWAP2 SSTORE POP JUMP JUMPDEST PUSH1 0x60 PUSH1 0x0 PUSH2 0x894 DUP6 DUP6 PUSH1 0x1 DUP7 DUP6 PUSH2 0xE6C JUMP JUMPDEST DUP1 MLOAD ADD SWAP6 SWAP5 POP POP POP POP POP JUMP JUMPDEST PUSH1 0x0 PUSH1 0x9 DUP4 DUP2 SLOAD DUP2 LT PUSH2 0x8AF JUMPI INVALID JUMPDEST SWAP1 PUSH1 0x0 MSTORE PUSH1 0x20 PUSH1 0x0 KECCAK256 SWAP1 PUSH1 0x2 MUL ADD PUSH1 0x1 ADD DUP3 DUP2 SLOAD DUP2 LT PUSH2 0x8CB JUMPI INVALID JUMPDEST SWAP1 PUSH1 0x0 MSTORE PUSH1 0x20 PUSH1 0x0 KECCAK256 ADD SLOAD SWAP1 POP SWAP3 SWAP2 POP POP JUMP JUMPDEST PUSH1 0x0 DUP3 DUP2 MSTORE PUSH1 0xA PUSH1 0x20 MSTORE PUSH1 0x40 DUP2 KECCAK256 PUSH1 0x1 ADD DUP1 SLOAD DUP4 SWAP1 DUP2 LT PUSH2 0x8CB JUMPI INVALID JUMPDEST PUSH1 0x7 PUSH1 0x20 MSTORE PUSH1 0x0 SWAP1 DUP2 MSTORE PUSH1 0x40 SWAP1 KECCAK256 SLOAD DUP2 JUMP JUMPDEST PUSH1 0x9 DUP2 DUP2 SLOAD DUP2 LT PUSH2 0x91A JUMPI INVALID JUMPDEST PUSH1 0x0 SWAP2 DUP3 MSTORE PUSH1 0x20 SWAP1 SWAP2 KECCAK256 PUSH1 0x2 SWAP1 SWAP2 MUL ADD SLOAD SWAP1 POP DUP2 JUMP JUMPDEST PUSH1 0x2 SLOAD PUSH1 0x1 PUSH1 0x1 PUSH1 0xA0 SHL SUB AND DUP2 JUMP JUMPDEST PUSH1 0x0 SWAP1 DUP2 MSTORE PUSH1 0xA PUSH1 0x20 MSTORE PUSH1 0x40 SWAP1 KECCAK256 PUSH1 0x1 ADD SLOAD SWAP1 JUMP JUMPDEST PUSH1 0xD SSTORE JUMP JUMPDEST PUSH1 0x6 DUP1 SLOAD PUSH1 0x1 DUP2 ADD DUP3 SSTORE PUSH1 0x0 SWAP2 SWAP1 SWAP2 MSTORE PUSH1 0x2 SWAP1 SWAP2 MUL PUSH32 0xF652222313E28459528D920B65115C16C04F3EFC82AAEDC97BE59F3F377C0D3F SWAP1 SWAP2 ADD SSTORE JUMP JUMPDEST PUSH1 0x6 DUP2 DUP2 SLOAD DUP2 LT PUSH2 0x9A2 JUMPI INVALID JUMPDEST PUSH1 0x0 SWAP2 DUP3 MSTORE PUSH1 0x20 SWAP1 SWAP2 KECCAK256 ADD SLOAD SWAP1 POP DUP2 JUMP JUMPDEST PUSH1 0x9 SLOAD JUMPDEST SWAP1 JUMP JUMPDEST PUSH2 0x9C2 PUSH2 0xAA3 JUMP JUMPDEST PUSH2 0x9CB JUMPI PUSH1 0x0 DUP1 REVERT JUMPDEST PUSH1 0x0 DUP1 SLOAD PUSH1 0x40 MLOAD PUSH1 0x1 PUSH1 0x1 PUSH1 0xA0 SHL SUB SWAP1 SWAP2 AND SWAP1 PUSH32 0x8BE0079C531659141344CD1FD0A4F28419497F9722A3DAAFE3B4186F6B6457E0 SWAP1 DUP4 SWAP1 LOG3 PUSH1 0x0 DUP1 SLOAD PUSH1 0x1 PUSH1 0x1 PUSH1 0xA0 SHL SUB NOT AND SWAP1 SSTORE JUMP JUMPDEST PUSH1 0x40 DUP1 MLOAD PUSH1 0xFF DUP4 AND DUP2 MSTORE SWAP1 MLOAD PUSH32 0xAAA2F1A2123F272349BBC5E43DCE6ED398BDD6091BB3F9540D7B011CDC221955 SWAP2 DUP2 SWAP1 SUB PUSH1 0x20 ADD SWAP1 LOG1 POP JUMP JUMPDEST PUSH1 0xC SLOAD DUP2 JUMP JUMPDEST DUP1 MLOAD PUSH2 0xA67 SWAP1 PUSH1 0x5 SWAP1 PUSH1 0x20 DUP5 ADD SWAP1 PUSH2 0x14F0 JUMP JUMPDEST POP POP JUMP JUMPDEST PUSH1 0x0 SLOAD PUSH1 0x1 PUSH1 0x1 PUSH1 0xA0 SHL SUB AND SWAP1 JUMP JUMPDEST PUSH1 0x0 PUSH1 0x9 DUP3 DUP2 SLOAD DUP2 LT PUSH2 0xA89 JUMPI INVALID JUMPDEST PUSH1 0x0 SWAP2 DUP3 MSTORE PUSH1 0x20 SWAP1 SWAP2 KECCAK256 PUSH1 0x1 PUSH1 0x2 SWAP1 SWAP3 MUL ADD ADD SLOAD SWAP3 SWAP2 POP POP JUMP JUMPDEST PUSH1 0x0 SLOAD PUSH1 0x1 PUSH1 0x1 PUSH1 0xA0 SHL SUB AND CALLER EQ SWAP1 JUMP JUMPDEST PUSH1 0x0 SWAP2 DUP3 MSTORE PUSH1 0xA PUSH1 0x20 MSTORE PUSH1 0x40 SWAP1 SWAP2 KECCAK256 PUSH1 0x2 ADD SSTORE JUMP JUMPDEST PUSH1 0x14 SWAP1 JUMP JUMPDEST PUSH2 0xAD6 PUSH2 0x155D JUMP JUMPDEST PUSH1 0x9 DUP1 SLOAD PUSH1 0x1 DUP2 ADD DUP3 SSTORE PUSH1 0x0 SWAP2 SWAP1 SWAP2 MSTORE DUP2 MLOAD PUSH1 0x2 SWAP1 SWAP2 MUL PUSH32 0x6E1540171B6C0C960B71A7020D9F60077F6AF931A8BBF590DA0223DACF75C7AF DUP2 ADD SWAP2 DUP3 SSTORE PUSH1 0x20 DUP1 DUP5 ADD MLOAD DUP1 MLOAD DUP6 SWAP5 SWAP4 PUSH2 0xB4E SWAP4 PUSH32 0x6E1540171B6C0C960B71A7020D9F60077F6AF931A8BBF590DA0223DACF75C7B0 SWAP1 SWAP2 ADD SWAP3 ADD SWAP1 PUSH2 0x14A5 JUMP JUMPDEST POP POP PUSH1 0x9 DUP1 SLOAD DUP5 SWAP3 POP PUSH1 0x0 NOT DUP2 ADD SWAP1 DUP2 LT PUSH2 0xB65 JUMPI INVALID JUMPDEST PUSH1 0x0 SWAP2 DUP3 MSTORE PUSH1 0x20 SWAP1 SWAP2 KECCAK256 PUSH1 0x2 SWAP1 SWAP2 MUL ADD SSTORE POP POP JUMP JUMPDEST PUSH1 0x8 DUP2 DUP2 SLOAD DUP2 LT PUSH2 0x9A2 JUMPI INVALID JUMPDEST PUSH1 0xA PUSH1 0x20 MSTORE PUSH1 0x0 SWAP1 DUP2 MSTORE PUSH1 0x40 SWAP1 KECCAK256 DUP1 SLOAD PUSH1 0x2 SWAP1 SWAP2 ADD SLOAD DUP3 JUMP JUMPDEST PUSH1 0x4 SLOAD DUP2 JUMP JUMPDEST PUSH1 0x2 MUL PUSH1 0x4 SSTORE JUMP JUMPDEST PUSH2 0xBB7 DUP2 PUSH2 0xEBC JUMP JUMPDEST PUSH1 0xD SLOAD PUSH2 0xBCB DUP3 PUSH4 0xC6122FB3 PUSH1 0xE0 SHL PUSH2 0x12E7 JUMP JUMPDEST EQ PUSH2 0xBD5 JUMPI PUSH1 0x0 DUP1 REVERT JUMPDEST POP JUMP JUMPDEST PUSH1 0x6 SLOAD SWAP1 JUMP JUMPDEST PUSH1 0xD SLOAD DUP2 JUMP JUMPDEST PUSH1 0x60 PUSH1 0x9 DUP3 DUP2 SLOAD DUP2 LT PUSH2 0xBF3 JUMPI INVALID JUMPDEST SWAP1 PUSH1 0x0 MSTORE PUSH1 0x20 PUSH1 0x0 KECCAK256 SWAP1 PUSH1 0x2 MUL ADD PUSH1 0x1 ADD DUP1 SLOAD DUP1 PUSH1 0x20 MUL PUSH1 0x20 ADD PUSH1 0x40 MLOAD SWAP1 DUP2 ADD PUSH1 0x40 MSTORE DUP1 SWAP3 SWAP2 SWAP1 DUP2 DUP2 MSTORE PUSH1 0x20 ADD DUP3 DUP1 SLOAD DUP1 ISZERO PUSH2 0xC4E JUMPI PUSH1 0x20 MUL DUP3 ADD SWAP2 SWAP1 PUSH1 0x0 MSTORE PUSH1 0x20 PUSH1 0x0 KECCAK256 SWAP1 JUMPDEST DUP2 SLOAD DUP2 MSTORE PUSH1 0x20 ADD SWAP1 PUSH1 0x1 ADD SWAP1 DUP1 DUP4 GT PUSH2 0xC3A JUMPI JUMPDEST POP POP POP POP POP SWAP1 POP SWAP2 SWAP1 POP JUMP JUMPDEST PUSH1 0x0 SWAP2 DUP3 MSTORE PUSH1 0xA PUSH1 0x20 SWAP1 DUP2 MSTORE PUSH1 0x40 DUP4 KECCAK256 PUSH1 0x1 SWAP1 DUP2 ADD DUP1 SLOAD SWAP2 DUP3 ADD DUP2 SSTORE DUP5 MSTORE SWAP3 KECCAK256 SWAP1 SWAP2 ADD SSTORE JUMP JUMPDEST PUSH1 0x1 SLOAD PUSH1 0x1 PUSH1 0x1 PUSH1 0xA0 SHL SUB AND DUP2 JUMP JUMPDEST PUSH1 0x5 DUP1 SLOAD PUSH1 0x40 DUP1 MLOAD PUSH1 0x20 PUSH1 0x2 PUSH1 0x1 DUP6 AND ISZERO PUSH2 0x100 MUL PUSH1 0x0 NOT ADD SWAP1 SWAP5 AND SWAP4 SWAP1 SWAP4 DIV PUSH1 0x1F DUP2 ADD DUP5 SWAP1 DIV DUP5 MUL DUP3 ADD DUP5 ADD SWAP1 SWAP3 MSTORE DUP2 DUP2 MSTORE SWAP3 SWAP2 DUP4 ADD DUP3 DUP3 DUP1 ISZERO PUSH2 0xD15 JUMPI DUP1 PUSH1 0x1F LT PUSH2 0xCEA JUMPI PUSH2 0x100 DUP1 DUP4 SLOAD DIV MUL DUP4 MSTORE SWAP2 PUSH1 0x20 ADD SWAP2 PUSH2 0xD15 JUMP JUMPDEST DUP3 ADD SWAP2 SWAP1 PUSH1 0x0 MSTORE PUSH1 0x20 PUSH1 0x0 KECCAK256 SWAP1 JUMPDEST DUP2 SLOAD DUP2 MSTORE SWAP1 PUSH1 0x1 ADD SWAP1 PUSH1 0x20 ADD DUP1 DUP4 GT PUSH2 0xCF8 JUMPI DUP3 SWAP1 SUB PUSH1 0x1F AND DUP3 ADD SWAP2 JUMPDEST POP POP POP POP POP DUP2 JUMP JUMPDEST PUSH1 0x2 SLOAD PUSH1 0x1 PUSH1 0xA0 SHL SWAP1 DIV PUSH1 0xFF AND DUP2 JUMP JUMPDEST PUSH1 0x0 DUP2 DUP2 MSTORE PUSH1 0xA PUSH1 0x20 SWAP1 DUP2 MSTORE PUSH1 0x40 SWAP2 DUP3 SWAP1 KECCAK256 PUSH1 0x1 ADD DUP1 SLOAD DUP4 MLOAD DUP2 DUP5 MUL DUP2 ADD DUP5 ADD SWAP1 SWAP5 MSTORE DUP1 DUP5 MSTORE PUSH1 0x60 SWAP4 SWAP3 DUP4 ADD DUP3 DUP3 DUP1 ISZERO PUSH2 0xC4E JUMPI PUSH1 0x20 MUL DUP3 ADD SWAP2 SWAP1 PUSH1 0x0 MSTORE PUSH1 0x20 PUSH1 0x0 KECCAK256 SWAP1 DUP2 SLOAD DUP2 MSTORE PUSH1 0x20 ADD SWAP1 PUSH1 0x1 ADD SWAP1 DUP1 DUP4 GT PUSH2 0xC3A JUMPI POP POP POP POP POP SWAP1 POP SWAP2 SWAP1 POP JUMP JUMPDEST PUSH1 0xB SLOAD DUP2 JUMP JUMPDEST PUSH2 0xD9F DUP2 PUSH2 0x1300 JUMP JUMPDEST DUP1 PUSH1 0x1 PUSH1 0x1 PUSH1 0xA0 SHL SUB AND PUSH4 0x887BF940 PUSH1 0x40 MLOAD DUP2 PUSH4 0xFFFFFFFF AND PUSH1 0xE0 SHL DUP2 MSTORE PUSH1 0x4 ADD PUSH1 0x20 PUSH1 0x40 MLOAD DUP1 DUP4 SUB DUP2 DUP7 DUP1 EXTCODESIZE ISZERO DUP1 ISZERO PUSH2 0xDD8 JUMPI PUSH1 0x0 DUP1 REVERT JUMPDEST POP GAS STATICCALL ISZERO DUP1 ISZERO PUSH2 0xDEC JUMPI RETURNDATASIZE PUSH1 0x0 DUP1 RETURNDATACOPY RETURNDATASIZE PUSH1 0x0 REVERT JUMPDEST POP POP POP POP PUSH1 0x40 MLOAD RETURNDATASIZE PUSH1 0x20 DUP2 LT ISZERO PUSH2 0xE02 JUMPI PUSH1 0x0 DUP1 REVERT JUMPDEST POP MLOAD PUSH1 0xC SSTORE POP JUMP JUMPDEST PUSH2 0xE12 PUSH2 0xAA3 JUMP JUMPDEST PUSH2 0xE1B JUMPI PUSH1 0x0 DUP1 REVERT JUMPDEST PUSH2 0xBD5 DUP2 PUSH2 0x135A JUMP JUMPDEST PUSH1 0xB SLOAD SWAP1 JUMP JUMPDEST PUSH1 0x8 DUP1 SLOAD PUSH1 0x1 DUP2 ADD SWAP1 SWAP2 SSTORE PUSH32 0xF3F7A9FE364FAAB93B216DA50A3214154F22A0A2B415B23A84C8169E8B636EE3 ADD DUP3 SWAP1 SSTORE PUSH1 0x0 SWAP2 DUP3 MSTORE PUSH1 0x7 PUSH1 0x20 MSTORE PUSH1 0x40 SWAP1 SWAP2 KECCAK256 SSTORE JUMP JUMPDEST PUSH1 0x40 MLOAD DUP5 DUP2 MSTORE DUP4 ISZERO PUSH2 0xE7F JUMPI DUP3 PUSH1 0x4 DUP3 ADD MSTORE JUMPDEST PUSH1 0x1 DUP5 GT ISZERO PUSH2 0xE8F JUMPI DUP2 PUSH1 0x24 DUP3 ADD MSTORE JUMPDEST PUSH1 0x0 DUP1 DUP6 PUSH1 0x20 MUL PUSH1 0x4 ADD DUP4 DUP10 GAS DELEGATECALL DUP1 ISZERO PUSH2 0xEAD JUMPI RETURNDATASIZE PUSH1 0x0 DUP4 RETURNDATACOPY PUSH2 0xEB2 JUMP JUMPDEST PUSH1 0x0 DUP3 REVERT JUMPDEST POP SWAP6 SWAP5 POP POP POP POP POP JUMP JUMPDEST PUSH2 0xEC5 DUP2 PUSH2 0x13C8 JUMP JUMPDEST PUSH1 0x4 SLOAD PUSH2 0xED9 DUP3 PUSH4 0xA977A973 PUSH1 0xE0 SHL PUSH2 0x12E7 JUMP JUMPDEST EQ PUSH2 0xEE3 JUMPI PUSH1 0x0 DUP1 REVERT JUMPDEST PUSH1 0x60 PUSH2 0xEF6 DUP3 PUSH4 0x1B74E5CB PUSH1 0xE3 SHL PUSH2 0x1422 JUMP JUMPDEST PUSH1 0x5 SLOAD DUP2 MLOAD SWAP2 SWAP3 POP PUSH1 0x2 PUSH1 0x0 NOT PUSH2 0x100 PUSH1 0x1 DUP5 AND ISZERO MUL ADD SWAP1 SWAP2 AND DIV EQ DUP1 ISZERO PUSH2 0xF8D JUMPI POP PUSH1 0x5 PUSH1 0x40 MLOAD DUP1 DUP3 DUP1 SLOAD PUSH1 0x1 DUP2 PUSH1 0x1 AND ISZERO PUSH2 0x100 MUL SUB AND PUSH1 0x2 SWAP1 DIV DUP1 ISZERO PUSH2 0xF76 JUMPI DUP1 PUSH1 0x1F LT PUSH2 0xF54 JUMPI PUSH2 0x100 DUP1 DUP4 SLOAD DIV MUL DUP4 MSTORE SWAP2 DUP3 ADD SWAP2 PUSH2 0xF76 JUMP JUMPDEST DUP3 ADD SWAP2 SWAP1 PUSH1 0x0 MSTORE PUSH1 0x20 PUSH1 0x0 KECCAK256 SWAP1 JUMPDEST DUP2 SLOAD DUP2 MSTORE SWAP1 PUSH1 0x1 ADD SWAP1 PUSH1 0x20 ADD DUP1 DUP4 GT PUSH2 0xF62 JUMPI JUMPDEST POP POP SWAP2 POP POP PUSH1 0x40 MLOAD DUP1 SWAP2 SUB SWAP1 KECCAK256 DUP2 DUP1 MLOAD SWAP1 PUSH1 0x20 ADD KECCAK256 EQ JUMPDEST PUSH2 0xF96 JUMPI PUSH1 0x0 DUP1 REVERT JUMPDEST PUSH1 0x6 SLOAD PUSH2 0xFAA DUP4 PUSH4 0x61F32289 PUSH1 0xE1 SHL PUSH2 0x12E7 JUMP JUMPDEST EQ PUSH2 0xFB4 JUMPI PUSH1 0x0 DUP1 REVERT JUMPDEST PUSH1 0x0 JUMPDEST PUSH1 0x6 SLOAD DUP2 LT ISZERO PUSH2 0xFFE JUMPI PUSH1 0x6 DUP2 DUP2 SLOAD DUP2 LT PUSH2 0xFCE JUMPI INVALID JUMPDEST PUSH1 0x0 SWAP2 DUP3 MSTORE PUSH1 0x20 SWAP1 SWAP2 KECCAK256 ADD SLOAD PUSH2 0xFEC DUP5 PUSH4 0x649D64BF PUSH1 0xE0 SHL DUP5 PUSH2 0x143E JUMP JUMPDEST EQ PUSH2 0xFF6 JUMPI PUSH1 0x0 DUP1 REVERT JUMPDEST PUSH1 0x1 ADD PUSH2 0xFB7 JUMP JUMPDEST POP PUSH1 0x0 JUMPDEST PUSH1 0x8 SLOAD DUP2 LT ISZERO PUSH2 0x105F JUMPI PUSH1 0x0 PUSH1 0x8 DUP3 DUP2 SLOAD DUP2 LT PUSH2 0x101B JUMPI INVALID JUMPDEST PUSH1 0x0 SWAP2 DUP3 MSTORE PUSH1 0x20 DUP1 DUP4 KECCAK256 SWAP1 SWAP2 ADD SLOAD DUP1 DUP4 MSTORE PUSH1 0x7 SWAP1 SWAP2 MSTORE PUSH1 0x40 SWAP1 SWAP2 KECCAK256 SLOAD SWAP1 SWAP2 POP PUSH2 0x104C DUP6 PUSH4 0x332B4EAF PUSH1 0xE0 SHL DUP5 PUSH2 0x143E JUMP JUMPDEST EQ PUSH2 0x1056 JUMPI PUSH1 0x0 DUP1 REVERT JUMPDEST POP PUSH1 0x1 ADD PUSH2 0x1002 JUMP JUMPDEST POP PUSH1 0x9 SLOAD PUSH2 0x1074 DUP4 PUSH4 0x67099ABF PUSH1 0xE0 SHL PUSH2 0x12E7 JUMP JUMPDEST EQ PUSH2 0x107E JUMPI PUSH1 0x0 DUP1 REVERT JUMPDEST PUSH1 0x0 JUMPDEST PUSH1 0x9 SLOAD DUP2 LT ISZERO PUSH2 0x1199 JUMPI PUSH1 0x9 DUP2 DUP2 SLOAD DUP2 LT PUSH2 0x1098 JUMPI INVALID JUMPDEST PUSH1 0x0 SWAP2 DUP3 MSTORE PUSH1 0x20 SWAP1 SWAP2 KECCAK256 PUSH1 0x2 SWAP1 SWAP2 MUL ADD SLOAD PUSH2 0x10BB DUP5 PUSH4 0x42A89D0D PUSH1 0xE0 SHL DUP5 PUSH2 0x143E JUMP JUMPDEST EQ PUSH2 0x10C5 JUMPI PUSH1 0x0 DUP1 REVERT JUMPDEST PUSH1 0x60 PUSH2 0x10D9 DUP5 PUSH4 0xC68FCDBF PUSH1 0xE0 SHL DUP5 PUSH2 0x882 JUMP JUMPDEST SWAP1 POP PUSH1 0x9 DUP3 DUP2 SLOAD DUP2 LT PUSH2 0x10E8 JUMPI INVALID JUMPDEST SWAP1 PUSH1 0x0 MSTORE PUSH1 0x20 PUSH1 0x0 KECCAK256 SWAP1 PUSH1 0x2 MUL ADD PUSH1 0x1 ADD DUP1 SLOAD SWAP1 POP DUP2 MLOAD EQ PUSH2 0x1109 JUMPI PUSH1 0x0 DUP1 REVERT JUMPDEST PUSH1 0x0 JUMPDEST PUSH1 0x9 DUP4 DUP2 SLOAD DUP2 LT PUSH2 0x1119 JUMPI INVALID JUMPDEST SWAP1 PUSH1 0x0 MSTORE PUSH1 0x20 PUSH1 0x0 KECCAK256 SWAP1 PUSH1 0x2 MUL ADD PUSH1 0x1 ADD DUP1 SLOAD SWAP1 POP DUP2 LT ISZERO PUSH2 0x118F JUMPI PUSH1 0x9 DUP4 DUP2 SLOAD DUP2 LT PUSH2 0x1142 JUMPI INVALID JUMPDEST SWAP1 PUSH1 0x0 MSTORE PUSH1 0x20 PUSH1 0x0 KECCAK256 SWAP1 PUSH1 0x2 MUL ADD PUSH1 0x1 ADD DUP2 DUP2 SLOAD DUP2 LT PUSH2 0x115E JUMPI INVALID JUMPDEST SWAP1 PUSH1 0x0 MSTORE PUSH1 0x20 PUSH1 0x0 KECCAK256 ADD SLOAD DUP3 DUP3 DUP2 MLOAD DUP2 LT PUSH2 0x1175 JUMPI INVALID JUMPDEST PUSH1 0x20 MUL PUSH1 0x20 ADD ADD MLOAD EQ PUSH2 0x1187 JUMPI PUSH1 0x0 DUP1 REVERT JUMPDEST PUSH1 0x1 ADD PUSH2 0x110C JUMP JUMPDEST POP POP PUSH1 0x1 ADD PUSH2 0x1081 JUMP JUMPDEST POP PUSH1 0xB SLOAD PUSH2 0x11AE DUP4 PUSH4 0xF3D93CF1 PUSH1 0xE0 SHL PUSH2 0x12E7 JUMP JUMPDEST EQ PUSH2 0x11B8 JUMPI PUSH1 0x0 DUP1 REVERT JUMPDEST PUSH1 0x0 JUMPDEST PUSH1 0xB SLOAD DUP2 LT ISZERO PUSH2 0x12C8 JUMPI PUSH2 0x11CD PUSH2 0x1484 JUMP JUMPDEST PUSH2 0x11DF DUP5 PUSH4 0x52A5BD41 PUSH1 0xE1 SHL DUP5 PUSH2 0x1459 JUMP JUMPDEST PUSH1 0x0 DUP4 DUP2 MSTORE PUSH1 0xA PUSH1 0x20 MSTORE PUSH1 0x40 SWAP1 KECCAK256 SLOAD DUP2 MLOAD SWAP2 SWAP3 POP EQ PUSH2 0x11FD JUMPI PUSH1 0x0 DUP1 REVERT JUMPDEST PUSH1 0x0 DUP3 DUP2 MSTORE PUSH1 0xA PUSH1 0x20 MSTORE PUSH1 0x40 SWAP1 DUP2 SWAP1 KECCAK256 PUSH1 0x2 ADD SLOAD SWAP1 DUP3 ADD MLOAD EQ PUSH2 0x121F JUMPI PUSH1 0x0 DUP1 REVERT JUMPDEST PUSH1 0x60 PUSH2 0x1232 DUP6 PUSH3 0xE3AD1D PUSH1 0xE8 SHL DUP6 PUSH2 0x882 JUMP JUMPDEST PUSH1 0x0 DUP5 DUP2 MSTORE PUSH1 0xA PUSH1 0x20 MSTORE PUSH1 0x40 SWAP1 KECCAK256 PUSH1 0x1 ADD SLOAD DUP2 MLOAD SWAP2 SWAP3 POP EQ PUSH2 0x1253 JUMPI PUSH1 0x0 DUP1 REVERT JUMPDEST PUSH1 0x0 JUMPDEST PUSH1 0x0 DUP5 DUP2 MSTORE PUSH1 0xA PUSH1 0x20 MSTORE PUSH1 0x40 SWAP1 KECCAK256 PUSH1 0x1 ADD SLOAD DUP2 LT ISZERO PUSH2 0x12BD JUMPI PUSH1 0x0 DUP5 DUP2 MSTORE PUSH1 0xA PUSH1 0x20 MSTORE PUSH1 0x40 SWAP1 KECCAK256 PUSH1 0x1 ADD DUP1 SLOAD DUP3 SWAP1 DUP2 LT PUSH2 0x128C JUMPI INVALID JUMPDEST SWAP1 PUSH1 0x0 MSTORE PUSH1 0x20 PUSH1 0x0 KECCAK256 ADD SLOAD DUP3 DUP3 DUP2 MLOAD DUP2 LT PUSH2 0x12A3 JUMPI INVALID JUMPDEST PUSH1 0x20 MUL PUSH1 0x20 ADD ADD MLOAD EQ PUSH2 0x12B5 JUMPI PUSH1 0x0 DUP1 REVERT JUMPDEST PUSH1 0x1 ADD PUSH2 0x1256 JUMP JUMPDEST POP POP POP PUSH1 0x1 ADD PUSH2 0x11BB JUMP JUMPDEST POP PUSH1 0xC SLOAD PUSH2 0x12DD DUP4 PUSH4 0x221EFE5 PUSH1 0xE6 SHL PUSH2 0x12E7 JUMP JUMPDEST EQ PUSH2 0xA67 JUMPI PUSH1 0x0 DUP1 REVERT JUMPDEST PUSH1 0x0 DUP1 PUSH2 0x12F7 DUP5 DUP5 DUP4 DUP1 DUP1 PUSH2 0xE6C JUMP JUMPDEST MLOAD SWAP5 SWAP4 POP POP POP POP JUMP JUMPDEST PUSH1 0x2 DUP1 SLOAD PUSH1 0x1 PUSH1 0xA0 SHL SWAP1 DIV PUSH1 0xFF AND EQ PUSH2 0x1318 JUMPI PUSH1 0x0 DUP1 REVERT JUMPDEST PUSH1 0x40 DUP1 MLOAD CALLER DUP2 MSTORE SWAP1 MLOAD PUSH1 0x1 PUSH1 0x1 PUSH1 0xA0 SHL SUB DUP4 AND SWAP2 PUSH32 0xD55EC27C5C6316913ED8803C18CFD1BFEFEA953DB909DCBA6140744A9D8B0D1F SWAP2 SWAP1 DUP2 SWAP1 SUB PUSH1 0x20 ADD SWAP1 LOG2 POP JUMP JUMPDEST PUSH1 0x1 PUSH1 0x1 PUSH1 0xA0 SHL SUB DUP2 AND PUSH2 0x136D JUMPI PUSH1 0x0 DUP1 REVERT JUMPDEST PUSH1 0x0 DUP1 SLOAD PUSH1 0x40 MLOAD PUSH1 0x1 PUSH1 0x1 PUSH1 0xA0 SHL SUB DUP1 DUP6 AND SWAP4 SWAP3 AND SWAP2 PUSH32 0x8BE0079C531659141344CD1FD0A4F28419497F9722A3DAAFE3B4186F6B6457E0 SWAP2 LOG3 PUSH1 0x0 DUP1 SLOAD PUSH1 0x1 PUSH1 0x1 PUSH1 0xA0 SHL SUB NOT AND PUSH1 0x1 PUSH1 0x1 PUSH1 0xA0 SHL SUB SWAP3 SWAP1 SWAP3 AND SWAP2 SWAP1 SWAP2 OR SWAP1 SSTORE JUMP JUMPDEST PUSH1 0x2 DUP1 SLOAD PUSH1 0x1 PUSH1 0xA0 SHL SWAP1 DIV PUSH1 0xFF AND EQ PUSH2 0x13E0 JUMPI PUSH1 0x0 DUP1 REVERT JUMPDEST PUSH1 0x40 DUP1 MLOAD CALLER DUP2 MSTORE SWAP1 MLOAD PUSH1 0x1 PUSH1 0x1 PUSH1 0xA0 SHL SUB DUP4 AND SWAP2 PUSH32 0x1E8D98C1B4A0D9BD2E2371026B632EB2773FCCE41742E41F02F574AB69868D4C SWAP2 SWAP1 DUP2 SWAP1 SUB PUSH1 0x20 ADD SWAP1 LOG2 POP JUMP JUMPDEST PUSH1 0x60 PUSH1 0x0 PUSH2 0x1433 DUP5 DUP5 DUP4 DUP1 DUP1 PUSH2 0xE6C JUMP JUMPDEST DUP1 MLOAD ADD SWAP5 SWAP4 POP POP POP POP JUMP JUMPDEST PUSH1 0x0 DUP1 PUSH2 0x144F DUP6 DUP6 PUSH1 0x1 DUP7 DUP6 PUSH2 0xE6C JUMP JUMPDEST MLOAD SWAP6 SWAP5 POP POP POP POP POP JUMP JUMPDEST PUSH2 0x1461 PUSH2 0x1484 JUMP JUMPDEST PUSH1 0x0 PUSH2 0x1471 DUP6 DUP6 PUSH1 0x1 DUP7 DUP6 PUSH2 0xE6C JUMP JUMPDEST PUSH1 0x20 DUP2 ADD MLOAD PUSH1 0x40 DUP3 ADD MSTORE SWAP6 SWAP5 POP POP POP POP POP JUMP JUMPDEST PUSH1 0x40 MLOAD DUP1 PUSH1 0x60 ADD PUSH1 0x40 MSTORE DUP1 PUSH1 0x0 DUP2 MSTORE PUSH1 0x20 ADD PUSH1 0x60 DUP2 MSTORE PUSH1 0x20 ADD PUSH1 0x0 DUP2 MSTORE POP SWAP1 JUMP JUMPDEST DUP3 DUP1 SLOAD DUP3 DUP3 SSTORE SWAP1 PUSH1 0x0 MSTORE PUSH1 0x20 PUSH1 0x0 KECCAK256 SWAP1 DUP2 ADD SWAP3 DUP3 ISZERO PUSH2 0x14E0 JUMPI SWAP2 PUSH1 0x20 MUL DUP3 ADD JUMPDEST DUP3 DUP2 GT ISZERO PUSH2 0x14E0 JUMPI DUP3 MLOAD DUP3 SSTORE SWAP2 PUSH1 0x20 ADD SWAP2 SWAP1 PUSH1 0x1 ADD SWAP1 PUSH2 0x14C5 JUMP JUMPDEST POP PUSH2 0x14EC SWAP3 SWAP2 POP PUSH2 0x1577 JUMP JUMPDEST POP SWAP1 JUMP JUMPDEST DUP3 DUP1 SLOAD PUSH1 0x1 DUP2 PUSH1 0x1 AND ISZERO PUSH2 0x100 MUL SUB AND PUSH1 0x2 SWAP1 DIV SWAP1 PUSH1 0x0 MSTORE PUSH1 0x20 PUSH1 0x0 KECCAK256 SWAP1 PUSH1 0x1F ADD PUSH1 0x20 SWAP1 DIV DUP2 ADD SWAP3 DUP3 PUSH1 0x1F LT PUSH2 0x1531 JUMPI DUP1 MLOAD PUSH1 0xFF NOT AND DUP4 DUP1 ADD OR DUP6 SSTORE PUSH2 0x14E0 JUMP JUMPDEST DUP3 DUP1 ADD PUSH1 0x1 ADD DUP6 SSTORE DUP3 ISZERO PUSH2 0x14E0 JUMPI SWAP2 DUP3 ADD DUP3 DUP2 GT ISZERO PUSH2 0x14E0 JUMPI DUP3 MLOAD DUP3 SSTORE SWAP2 PUSH1 0x20 ADD SWAP2 SWAP1 PUSH1 0x1 ADD SWAP1 PUSH2 0x14C5 JUMP JUMPDEST PUSH1 0x40 MLOAD DUP1 PUSH1 0x40 ADD PUSH1 0x40 MSTORE DUP1 PUSH1 0x0 DUP2 MSTORE PUSH1 0x20 ADD PUSH1 0x60 DUP2 MSTORE POP SWAP1 JUMP JUMPDEST PUSH2 0x9B7 SWAP2 SWAP1 JUMPDEST DUP1 DUP3 GT ISZERO PUSH2 0x14EC JUMPI PUSH1 0x0 DUP2 SSTORE PUSH1 0x1 ADD PUSH2 0x157D JUMP INVALID LOG2 PUSH5 0x6970667358 0x22 SLT KECCAK256 POP 0xE1 SWAP1 JUMP 0x2D 0xAF CREATE2 0x4C DUP1 0x2A PUSH30 0xE8B5E0A466BD36F1CAEDBF15639BB9BC512601484464736F6C6343000607 STOP CALLER ",
  "sha1": "17af3a8a5532a5de383aae75cdc6fd9df75d77a0",
  "source": "pragma solidity ^0.6.1;\n\n\nimport \"test_contracts/proxy/ContractV2.sol\";\n\n\ncontract ContractV3 is ContractV2 {\n\n    uint256 public anotherStorageValue;\n\n    constructor(uint256 _storageValueToCheck)\n        public\n        ContractV2(_storageValueToCheck)\n    {\n    }\n\n    function setAnotherStorageValue(uint256 _value) public {\n        anotherStorageValue = _value;\n    }\n\n    function verifyState(address _testTarget) public override {\n        super.verifyState(_testTarget);\n        require(delegateGet(_testTarget, this.anotherStorageValue.selector) == anotherStorageValue);\n    }\n}\n",
  "sourcePath": "contracts/proxy/ContractV3.sol",
  "type": "contract"
}