{
  "abi": [
    {
      "inputs": [
        {
          "internalType": "uint256",
          "name": "_storageValue",
          "type": "uint256"
        }
      ],
      "stateMutability": "nonpayable",
      "type": "constructor"
    },
    {
      "anonymous": false,
      "inputs": [
        {
          "indexed": false,
          "internalType": "uint256",
          "name": "value",
          "type": "uint256"
        }
      ],
      "name": "EventV1",
      "type": "event"
    },
    {
      "anonymous": false,
      "inputs": [
        {
          "indexed": true,
          "internalType": "address",
          "name": "previousOwner",
          "type": "address"
        },
        {
          "indexed": true,
          "internalType": "address",
          "name": "newOwner",
          "type": "address"
        }
      ],
      "name": "OwnershipTransferred",
      "type": "event"
    },
    {
      "anonymous": false,
      "inputs": [
        {
          "indexed": true,
          "internalType": "address",
          "name": "testTarget",
          "type": "address"
        },
        {
          "indexed": false,
          "internalType": "address",
          "name": "sender",
          "type": "address"
        }
      ],
      "name": "StateVerified",
      "type": "event"
    },
    {
      "anonymous": false,
      "inputs": [
        {
          "indexed": true,
          "internalType": "address",
          "name": "target",
          "type": "address"
        },
        {
          "indexed": false,
          "internalType": "address",
          "name": "sender",
          "type": "address"
        }
      ],
      "name": "UpgradeFinished",
      "type": "event"
    },
    {
      "inputs": [
        {
          "internalType": "uint256",
          "name": "",
          "type": "uint256"
        }
      ],
      "name": "arrayStructures",
      "outputs": [
        {
          "internalType": "uint256",
          "name": "value",
          "type": "uint256"
        }
      ],
      "stateMutability": "view",
      "type": "function"
    },
    {
      "inputs": [
        {
          "internalType": "uint256",
          "name": "",
          "type": "uint256"
        }
      ],
      "name": "arrayValues",
      "outputs": [
        {
          "internalType": "uint256",
          "name": "",
          "type": "uint256"
        }
      ],
      "stateMutability": "view",
      "type": "function"
    },
    {
      "inputs": [
        {
          "internalType": "uint256",
          "name": "_value",
          "type": "uint256"
        }
      ],
      "name": "createEvent",
      "outputs": [],
      "stateMutability": "nonpayable",
      "type": "function"
    },
    {
      "inputs": [],
      "name": "dynamicallySizedValue",
      "outputs": [
        {
          "internalType": "string",
          "name": "",
          "type": "string"
        }
      ],
      "stateMutability": "view",
      "type": "function"
    },
    {
      "inputs": [
        {
          "internalType": "address",
          "name": "_target",
          "type": "address"
        }
      ],
      "name": "finishUpgrade",
      "outputs": [],
      "stateMutability": "nonpayable",
      "type": "function"
    },
    {
      "inputs": [],
      "name": "getArrayValueLength",
      "outputs": [
        {
          "internalType": "uint256",
          "name": "",
          "type": "uint256"
        }
      ],
      "stateMutability": "view",
      "type": "function"
    },
    {
      "inputs": [
        {
          "internalType": "uint256",
          "name": "_index",
          "type": "uint256"
        }
      ],
      "name": "getStructureArrayLength1",
      "outputs": [
        {
          "internalType": "uint256",
          "name": "",
          "type": "uint256"
        }
      ],
      "stateMutability": "view",
      "type": "function"
    },
    {
      "inputs": [
        {
          "internalType": "uint256",
          "name": "_index",
          "type": "uint256"
        }
      ],
      "name": "getStructureArrayLength2",
      "outputs": [
        {
          "internalType": "uint256",
          "name": "",
          "type": "uint256"
        }
      ],
      "stateMutability": "view",
      "type": "function"
    },
    {
      "inputs": [
        {
          "internalType": "uint256",
          "name": "_index",
          "type": "uint256"
        },
        {
          "internalType": "uint256",
          "name": "_arrayIndex",
          "type": "uint256"
        }
      ],
      "name": "getStructureArrayValue1",
      "outputs": [
        {
          "internalType": "uint256",
          "name": "",
          "type": "uint256"
        }
      ],
      "stateMutability": "view",
      "type": "function"
    },
    {
      "inputs": [
        {
          "internalType": "uint256",
          "name": "_index",
          "type": "uint256"
        },
        {
          "internalType": "uint256",
          "name": "_arrayIndex",
          "type": "uint256"
        }
      ],
      "name": "getStructureArrayValue2",
      "outputs": [
        {
          "internalType": "uint256",
          "name": "",
          "type": "uint256"
        }
      ],
      "stateMutability": "view",
      "type": "function"
    },
    {
      "inputs": [],
      "name": "getStructureLength1",
      "outputs": [
        {
          "internalType": "uint256",
          "name": "",
          "type": "uint256"
        }
      ],
      "stateMutability": "view",
      "type": "function"
    },
    {
      "inputs": [],
      "name": "getStructureLength2",
      "outputs": [
        {
          "internalType": "uint256",
          "name": "",
          "type": "uint256"
        }
      ],
      "stateMutability": "view",
      "type": "function"
    },
    {
      "inputs": [],
      "name": "isOwner",
      "outputs": [
        {
          "internalType": "bool",
          "name": "",
          "type": "bool"
        }
      ],
      "stateMutability": "view",
      "type": "function"
    },
    {
      "inputs": [],
      "name": "isUpgrade",
      "outputs": [
        {
          "internalType": "uint8",
          "name": "",
          "type": "uint8"
        }
      ],
      "stateMutability": "view",
      "type": "function"
    },
    {
      "inputs": [
        {
          "internalType": "uint256",
          "name": "",
          "type": "uint256"
        }
      ],
      "name": "mappingIndices",
      "outputs": [
        {
          "internalType": "uint256",
          "name": "",
          "type": "uint256"
        }
      ],
      "stateMutability": "view",
      "type": "function"
    },
    {
      "inputs": [
        {
          "internalType": "uint256",
          "name": "",
          "type": "uint256"
        }
      ],
      "name": "mappingStructures",
      "outputs": [
        {
          "internalType": "uint256",
          "name": "value",
          "type": "uint256"
        }
      ],
      "stateMutability": "view",
      "type": "function"
    },
    {
      "inputs": [],
      "name": "mappingStructuresLength",
      "outputs": [
        {
          "internalType": "uint256",
          "name": "",
          "type": "uint256"
        }
      ],
      "stateMutability": "view",
      "type": "function"
    },
    {
      "inputs": [
        {
          "internalType": "uint256",
          "name": "",
          "type": "uint256"
        }
      ],
      "name": "mappingValues",
      "outputs": [
        {
          "internalType": "uint256",
          "name": "",
          "type": "uint256"
        }
      ],
      "stateMutability": "view",
      "type": "function"
    },
    {
      "inputs": [],
      "name": "owner",
      "outputs": [
        {
          "internalType": "address",
          "name": "",
          "type": "address"
        }
      ],
      "stateMutability": "view",
      "type": "function"
    },
    {
      "inputs": [],
      "name": "previousTarget",
      "outputs": [
        {
          "internalType": "address",
          "name": "",
          "type": "address"
        }
      ],
      "stateMutability": "view",
      "type": "function"
    },
    {
      "inputs": [
        {
          "internalType": "uint256",
          "name": "_value",
          "type": "uint256"
        }
      ],
      "name": "pushArrayValue",
      "outputs": [],
      "stateMutability": "nonpayable",
      "type": "function"
    },
    {
      "inputs": [
        {
          "internalType": "uint256",
          "name": "_index",
          "type": "uint256"
        },
        {
          "internalType": "uint256",
          "name": "_value",
          "type": "uint256"
        }
      ],
      "name": "pushStructureArrayValue1",
      "outputs": [],
      "stateMutability": "nonpayable",
      "type": "function"
    },
    {
      "inputs": [
        {
          "internalType": "uint256",
          "name": "_index",
          "type": "uint256"
        },
        {
          "internalType": "uint256",
          "name": "_value",
          "type": "uint256"
        }
      ],
      "name": "pushStructureArrayValue2",
      "outputs": [],
      "stateMutability": "nonpayable",
      "type": "function"
    },
    {
      "inputs": [
        {
          "internalType": "uint256",
          "name": "_value",
          "type": "uint256"
        }
      ],
      "name": "pushStructureValue1",
      "outputs": [],
      "stateMutability": "nonpayable",
      "type": "function"
    },
    {
      "inputs": [
        {
          "internalType": "uint256",
          "name": "_value",
          "type": "uint256"
        }
      ],
      "name": "pushStructureValue2",
      "outputs": [],
      "stateMutability": "nonpayable",
      "type": "function"
    },
    {
      "inputs": [],
      "name": "renounceOwnership",
      "outputs": [],
      "stateMutability": "nonpayable",
      "type": "function"
    },
    {
      "inputs": [],
      "name": "returnValue",
      "outputs": [
        {
          "internalType": "uint256",
          "name": "",
          "type": "uint256"
        }
      ],
      "stateMutability": "pure",
      "type": "function"
    },
    {
      "inputs": [
        {
          "internalType": "string",
          "name": "_dynamicValue",
          "type": "string"
        }
      ],
      "name": "setDynamicallySizedValue",
      "outputs": [],
      "stateMutability": "nonpayable",
      "type": "function"
    },
    {
      "inputs": [
        {
          "internalType": "uint256",
          "name": "_index",
          "type": "uint256"
        },
        {
          "internalType": "uint256",
          "name": "_value",
          "type": "uint256"
        }
      ],
      "name": "setMappingValue",
      "outputs": [],
      "stateMutability": "nonpayable",
      "type": "function"
    },
    {
      "inputs": [
        {
          "internalType": "uint256",
          "name": "_value",
          "type": "uint256"
        }
      ],
      "name": "setStorageValue",
      "outputs": [],
      "stateMutability": "nonpayable",
      "type": "function"
    },
    {
      "inputs": [],
      "name": "storageValue",
      "outputs": [
        {
          "internalType": "uint256",
          "name": "",
          "type": "uint256"
        }
      ],
      "stateMutability": "view",
      "type": "function"
    },
    {
      "inputs": [],
      "name": "target",
      "outputs": [
        {
          "internalType": "address",
          "name": "",
          "type": "address"
        }
      ],
      "stateMutability": "view",
      "type": "function"
    },
    {
      "inputs": [
        {
          "internalType": "address",
          "name": "newOwner",
          "type": "address"
        }
      ],
      "name": "transferOwnership",
      "outputs": [],
      "stateMutability": "nonpayable",
      "type": "function"
    },
    {
      "inputs": [
        {
          "internalType": "address",
          "name": "_testTarget",
          "type": "address"
        }
      ],
      "name": "verifyState",
      "outputs": [],
      "stateMutability": "nonpayable",
      "type": "function"
    }
  ],
  "bytecode": "608060405234801561001057600080fd5b506040516112f03803806112f08339818101604052602081101561003357600080fd5b5051600080546001600160a01b03191633178082556040516001600160a01b039190911691907f8be0079c531659141344cd1fd0a4f28419497f9722a3daafe3b4186f6b6457e0908290a3600455611260806100906000396000f3fe608060405234801561001057600080fd5b50600436106102065760003560e01c8063990c8f791161011a578063cfb63718116100ad578063e4181c731161007c578063e4181c73146105e6578063e8dccd06146105ee578063f2fde38b14610614578063f3d93cf11461063a578063f6b9be5b1461064257610206565b8063cfb6371814610520578063d4b8399214610543578063dba72e581461054b578063e38a303b146105c857610206565b8063a977a973116100e9578063a977a973146104cd578063a9de99f3146104d5578063b9626d21146104f2578063c3e645121461051857610206565b8063990c8f791461046e5780639f42c5b4146104765780639ffa6f2114610493578063a54b7a82146104b057610206565b80635ffb15781161019d57806388bb34b71161016c57806388bb34b71461036a5780638da5cb5b146104105780638e9df67c146104185780638f32d59b14610435578063977d996d1461045157610206565b80635ffb157814610320578063649d64bf1461033d57806367099abf1461035a578063715018a61461036257610206565b8063332b4eaf116101d9578063332b4eaf146102a557806342a89d0d146102c25780634b2cd118146102df57806352fae8fd1461030357610206565b806309f2e5b61461020b5780630c62c4a614610230578063155a4d3e1461024d57806321e72e1914610282575b600080fd5b61022e6004803603604081101561022157600080fd5b5080359060200135610665565b005b61022e6004803603602081101561024657600080fd5b5035610697565b6102706004803603604081101561026357600080fd5b50803590602001356106fc565b60408051918252519081900360200190f35b6102706004803603604081101561029857600080fd5b508035906020013561073a565b610270600480360360208110156102bb57600080fd5b5035610757565b610270600480360360208110156102d857600080fd5b5035610769565b6102e761078c565b604080516001600160a01b039092168252519081900360200190f35b6102706004803603602081101561031957600080fd5b503561079b565b61022e6004803603602081101561033657600080fd5b50356107b0565b6102706004803603602081101561035357600080fd5b50356107e5565b610270610803565b61022e61080a565b61022e6004803603602081101561038057600080fd5b81019060208101813564010000000081111561039b57600080fd5b8201836020820111156103ad57600080fd5b803590602001918460018302840111640100000000831117156103cf57600080fd5b91908080601f016020809104026020016040519081016040528093929190818152602001838380828437600092019190915250929550610865945050505050565b6102e761087c565b6102706004803603602081101561042e57600080fd5b503561088b565b61043d6108b4565b604080519115158252519081900360200190f35b61022e6004803603602081101561046757600080fd5b50356108c5565b6102706108fb565b61022e6004803603602081101561048c57600080fd5b5035610900565b610270600480360360208110156104a957600080fd5b50356109ac565b610270600480360360208110156104c657600080fd5b50356109b9565b6102706109cb565b61022e600480360360208110156104eb57600080fd5b50356109d1565b61022e6004803603602081101561050857600080fd5b50356001600160a01b03166109d6565b610270610da8565b61022e6004803603604081101561053657600080fd5b5080359060200135610dae565b6102e7610dd4565b610553610de3565b6040805160208082528351818301528351919283929083019185019080838360005b8381101561058d578181015183820152602001610575565b50505050905090810190601f1680156105ba5780820380516001836020036101000a031916815260200191505b509250505060405180910390f35b6105d0610e71565b6040805160ff9092168252519081900360200190f35b610270610e81565b61022e6004803603602081101561060457600080fd5b50356001600160a01b0316610e87565b61022e6004803603602081101561062a57600080fd5b50356001600160a01b0316610efb565b610270610f18565b61022e6004803603604081101561065857600080fd5b5080359060200135610f1e565b6009828154811061067257fe5b6000918252602080832060016002909302018201805492830181558352909120015550565b600b805460010190556106a861113e565b600b54600019016000908152600a602090815260409091208251815581830151805184936106dd926001850192910190611158565b5050600b54600019016000908152600a60205260409020929092555050565b60006009838154811061070b57fe5b9060005260206000209060020201600101828154811061072757fe5b9060005260206000200154905092915050565b6000828152600a6020526040812060010180548390811061072757fe5b60076020526000908152604090205481565b6009818154811061077657fe5b6000918252602090912060029091020154905081565b6002546001600160a01b031681565b6000908152600a602052604090206001015490565b600680546001810182556000919091527ff652222313e28459528d920b65115c16c04f3efc82aaedc97be59f3f377c0d3f0155565b600681815481106107f257fe5b600091825260209091200154905081565b6009545b90565b6108126108b4565b61081b57600080fd5b600080546040516001600160a01b03909116907f8be0079c531659141344cd1fd0a4f28419497f9722a3daafe3b4186f6b6457e0908390a3600080546001600160a01b0319169055565b80516108789060059060208401906111a3565b5050565b6000546001600160a01b031690565b60006009828154811061089a57fe5b600091825260209091206001600290920201015492915050565b6000546001600160a01b0316331490565b6040805182815290517fe6e28058944fbc56f49840a0f653691912a91ac8ae16f749e35e4fc6af30412a9181900360200190a150565b600a90565b61090861113e565b60098054600181018255600091909152815160029091027f6e1540171b6c0c960b71a7020d9f60077f6af931a8bbf590da0223dacf75c7af81019182556020808401518051859493610980937f6e1540171b6c0c960b71a7020d9f60077f6af931a8bbf590da0223dacf75c7b0909101920190611158565b505060098054849250600019810190811061099757fe5b60009182526020909120600290910201555050565b600881815481106107f257fe5b600a6020526000908152604090205481565b60045481565b600455565b6109df81610f60565b6004546109f38263a977a97360e01b610fba565b146109fd57600080fd5b6060610a1082631b74e5cb60e31b610fd3565b600554815191925060026000196101006001841615020190911604148015610aa7575060056040518082805460018160011615610100020316600290048015610a905780601f10610a6e576101008083540402835291820191610a90565b820191906000526020600020905b815481529060010190602001808311610a7c575b505091505060405180910390208180519060200120145b610ab057600080fd5b600654610ac4836361f3228960e11b610fba565b14610ace57600080fd5b60005b600654811015610b185760068181548110610ae857fe5b600091825260209091200154610b068463649d64bf60e01b84610fef565b14610b1057600080fd5b600101610ad1565b5060005b600854811015610b7957600060088281548110610b3557fe5b60009182526020808320909101548083526007909152604090912054909150610b668563332b4eaf60e01b84610fef565b14610b7057600080fd5b50600101610b1c565b50600954610b8e836367099abf60e01b610fba565b14610b9857600080fd5b60005b600954811015610cab5760098181548110610bb257fe5b6000918252602090912060029091020154610bd5846342a89d0d60e01b84610fef565b14610bdf57600080fd5b60098181548110610bec57fe5b6000918252602090912060016002909202010154610c12846323a77d9f60e21b84610fef565b14610c1c57600080fd5b60005b60098281548110610c2c57fe5b906000526020600020906002020160010180549050811015610ca25760098281548110610c5557fe5b90600052602060002090600202016001018181548110610c7157fe5b600091825260209091200154610c9085630aad269f60e11b858561100a565b14610c9a57600080fd5b600101610c1f565b50600101610b9b565b50600b54610cc08363f3d93cf160e01b610fba565b14610cca57600080fd5b60005b600b54811015610da3576000818152600a6020526040902054610cf8846352a5bd4160e11b84610fef565b14610d0257600080fd5b6000818152600a6020526040902060010154610d26846352fae8fd60e01b84610fef565b14610d3057600080fd5b60005b6000828152600a6020526040902060010154811015610d9a576000828152600a60205260409020600101805482908110610d6957fe5b600091825260209091200154610d88856321e72e1960e01b858561100a565b14610d9257600080fd5b600101610d33565b50600101610ccd565b505050565b60065490565b6000918252600a6020908152604083206001908101805491820181558452922090910155565b6001546001600160a01b031681565b6005805460408051602060026001851615610100026000190190941693909304601f81018490048402820184019092528181529291830182828015610e695780601f10610e3e57610100808354040283529160200191610e69565b820191906000526020600020905b815481529060010190602001808311610e4c57829003601f168201915b505050505081565b600254600160a01b900460ff1681565b600b5481565b610e9081611026565b806001600160a01b031663a977a9736040518163ffffffff1660e01b815260040160206040518083038186803b158015610ec957600080fd5b505afa158015610edd573d6000803e3d6000fd5b505050506040513d6020811015610ef357600080fd5b505160045550565b610f036108b4565b610f0c57600080fd5b610f1581611080565b50565b600b5490565b60088054600181019091557ff3f7a9fe364faab93b216da50a3214154f22a0a2b415b23a84c8169e8b636ee30182905560009182526007602052604090912055565b60028054600160a01b900460ff1614610f7857600080fd5b6040805133815290516001600160a01b038316917f1e8d98c1b4a0d9bd2e2371026b632eb2773fcce41742e41f02f574ab69868d4c919081900360200190a250565b600080610fca84848380806110ee565b51949350505050565b60606000610fe484848380806110ee565b805101949350505050565b6000806110008585600186856110ee565b5195945050505050565b60008061101b8686600287876110ee565b519695505050505050565b60028054600160a01b900460ff161461103e57600080fd5b6040805133815290516001600160a01b038316917fd55ec27c5c6316913ed8803c18cfd1bfefea953db909dcba6140744a9d8b0d1f919081900360200190a250565b6001600160a01b03811661109357600080fd5b600080546040516001600160a01b03808516939216917f8be0079c531659141344cd1fd0a4f28419497f9722a3daafe3b4186f6b6457e091a3600080546001600160a01b0319166001600160a01b0392909216919091179055565b6040518481528315611101578260048201525b6001841115611111578160248201525b6000808560200260040183895af4801561112f573d6000833e611134565b600082fd5b5095945050505050565b604051806040016040528060008152602001606081525090565b828054828255906000526020600020908101928215611193579160200282015b82811115611193578251825591602001919060010190611178565b5061119f929150611210565b5090565b828054600181600116156101000203166002900490600052602060002090601f016020900481019282601f106111e457805160ff1916838001178555611193565b828001600101855582156111935791820182811115611193578251825591602001919060010190611178565b61080791905b8082111561119f576000815560010161121656fea264697066735822122062daafc1c272d6bec6f369df3b71edd8bf1973936c3b94928d1556a773a5272464736f6c63430006070033",
  "bytecodeSha1": "cc4a395d3de2bd93574b5afeb606d1321de348d2",
  "compiler": {
    "evm_version": "berlin",
    "optimizer": {
      "enabled": true,
      "runs": 200
    },
    "version": "0.6.7"
  },
  "contractName": "ContractV1",
  "language": "Solidity",
  "natspec": {
    "details": "Base contract for testing upgrading using dispatcher",
    "methods": {
      "renounceOwnership()": {
        "details": "Allows the current owner to relinquish control of the contract.",
        "notice": "Renouncing to ownership will leave the contract without an owner. It will not be possible to call the functions with the `onlyOwner` modifier anymore."
      },
      "transferOwnership(address)": {
        "details": "Allows the current owner to transfer control of the contract to a newOwner.",
        "params": {
          "newOwner": "The address to transfer ownership to."
        }
      }
    }
  },
  "opcodes": "PUSH1 0x80 PUSH1 0x40 MSTORE CALLVALUE DUP1 ISZERO PUSH2 0x10 JUMPI PUSH1 0x0 DUP1 REVERT JUMPDEST POP PUSH1 0x4 CALLDATASIZE LT PUSH2 0x206 JUMPI PUSH1 0x0 CALLDATALOAD PUSH1 0xE0 SHR DUP1 PUSH4 0x990C8F79 GT PUSH2 0x11A JUMPI DUP1 PUSH4 0xCFB63718 GT PUSH2 0xAD JUMPI DUP1 PUSH4 0xE4181C73 GT PUSH2 0x7C JUMPI DUP1 PUSH4 0xE4181C73 EQ PUSH2 0x5E6 JUMPI DUP1 PUSH4 0xE8DCCD06 EQ PUSH2 0x5EE JUMPI DUP1 PUSH4 0xF2FDE38B EQ PUSH2 0x614 JUMPI DUP1 PUSH4 0xF3D93CF1 EQ PUSH2 0x63A JUMPI DUP1 PUSH4 0xF6B9BE5B EQ PUSH2 0x642 JUMPI PUSH2 0x206 JUMP JUMPDEST DUP1 PUSH4 0xCFB63718 EQ PUSH2 0x520 JUMPI DUP1 PUSH4 0xD4B83992 EQ PUSH2 0x543 JUMPI DUP1 PUSH4 0xDBA72E58 EQ PUSH2 0x54B JUMPI DUP1 PUSH4 0xE38A303B EQ PUSH2 0x5C8 JUMPI PUSH2 0x206 JUMP JUMPDEST DUP1 PUSH4 0xA977A973 GT PUSH2 0xE9 JUMPI DUP1 PUSH4 0xA977A973 EQ PUSH2 0x4CD JUMPI DUP1 PUSH4 0xA9DE99F3 EQ PUSH2 0x4D5 JUMPI DUP1 PUSH4 0xB9626D21 EQ PUSH2 0x4F2 JUMPI DUP1 PUSH4 0xC3E64512 EQ PUSH2 0x518 JUMPI PUSH2 0x206 JUMP JUMPDEST DUP1 PUSH4 0x990C8F79 EQ PUSH2 0x46E JUMPI DUP1 PUSH4 0x9F42C5B4 EQ PUSH2 0x476 JUMPI DUP1 PUSH4 0x9FFA6F21 EQ PUSH2 0x493 JUMPI DUP1 PUSH4 0xA54B7A82 EQ PUSH2 0x4B0 JUMPI PUSH2 0x206 JUMP JUMPDEST DUP1 PUSH4 0x5FFB1578 GT PUSH2 0x19D JUMPI DUP1 PUSH4 0x88BB34B7 GT PUSH2 0x16C JUMPI DUP1 PUSH4 0x88BB34B7 EQ PUSH2 0x36A JUMPI DUP1 PUSH4 0x8DA5CB5B EQ PUSH2 0x410 JUMPI DUP1 PUSH4 0x8E9DF67C EQ PUSH2 0x418 JUMPI DUP1 PUSH4 0x8F32D59B EQ PUSH2 0x435 JUMPI DUP1 PUSH4 0x977D996D EQ PUSH2 0x451 JUMPI PUSH2 0x206 JUMP JUMPDEST DUP1 PUSH4 0x5FFB1578 EQ PUSH2 0x320 JUMPI DUP1 PUSH4 0x649D64BF EQ PUSH2 0x33D JUMPI DUP1 PUSH4 0x67099ABF EQ PUSH2 0x35A JUMPI DUP1 PUSH4 0x715018A6 EQ PUSH2 0x362 JUMPI PUSH2 0x206 JUMP JUMPDEST DUP1 PUSH4 0x332B4EAF GT PUSH2 0x1D9 JUMPI DUP1 PUSH4 0x332B4EAF EQ PUSH2 0x2A5 JUMPI DUP1 PUSH4 0x42A89D0D EQ PUSH2 0x2C2 JUMPI DUP1 PUSH4 0x4B2CD118 EQ PUSH2 0x2DF JUMPI DUP1 PUSH4 0x52FAE8FD EQ PUSH2 0x303 JUMPI PUSH2 0x206 JUMP JUMPDEST DUP1 PUSH4 0x9F2E5B6 EQ PUSH2 0x20B JUMPI DUP1 PUSH4 0xC62C4A6 EQ PUSH2 0x230 JUMPI DUP1 PUSH4 0x155A4D3E EQ PUSH2 0x24D JUMPI DUP1 PUSH4 0x21E72E19 EQ PUSH2 0x282 JUMPI JUMPDEST PUSH1 0x0 DUP1 REVERT JUMPDEST PUSH2 0x22E PUSH1 0x4 DUP1 CALLDATASIZE SUB PUSH1 0x40 DUP2 LT ISZERO PUSH2 0x221 JUMPI PUSH1 0x0 DUP1 REVERT JUMPDEST POP DUP1 CALLDATALOAD SWAP1 PUSH1 0x20 ADD CALLDATALOAD PUSH2 0x665 JUMP JUMPDEST STOP JUMPDEST PUSH2 0x22E PUSH1 0x4 DUP1 CALLDATASIZE SUB PUSH1 0x20 DUP2 LT ISZERO PUSH2 0x246 JUMPI PUSH1 0x0 DUP1 REVERT JUMPDEST POP CALLDATALOAD PUSH2 0x697 JUMP JUMPDEST PUSH2 0x270 PUSH1 0x4 DUP1 CALLDATASIZE SUB PUSH1 0x40 DUP2 LT ISZERO PUSH2 0x263 JUMPI PUSH1 0x0 DUP1 REVERT JUMPDEST POP DUP1 CALLDATALOAD SWAP1 PUSH1 0x20 ADD CALLDATALOAD PUSH2 0x6FC JUMP JUMPDEST PUSH1 0x40 DUP1 MLOAD SWAP2 DUP3 MSTORE MLOAD SWAP1 DUP2 SWAP1 SUB PUSH1 0x20 ADD SWAP1 RETURN JUMPDEST PUSH2 0x270 PUSH1 0x4 DUP1 CALLDATASIZE SUB PUSH1 0x40 DUP2 LT ISZERO PUSH2 0x298 JUMPI PUSH1 0x0 DUP1 REVERT JUMPDEST POP DUP1 CALLDATALOAD SWAP1 PUSH1 0x20 ADD CALLDATALOAD PUSH2 0x73A JUMP JUMPDEST PUSH2 0x270 PUSH1 0x4 DUP1 CALLDATASIZE SUB PUSH1 0x20 DUP2 LT ISZERO PUSH2 0x2BB JUMPI PUSH1 0x0 DUP1 REVERT JUMPDEST POP CALLDATALOAD PUSH2 0x757 JUMP JUMPDEST PUSH2 0x270 PUSH1 0x4 DUP1 CALLDATASIZE SUB PUSH1 0x20 DUP2 LT ISZERO PUSH2 0x2D8 JUMPI PUSH1 0x0 DUP1 REVERT JUMPDEST POP CALLDATALOAD PUSH2 0x769 JUMP JUMPDEST PUSH2 0x2E7 PUSH2 0x78C JUMP JUMPDEST PUSH1 0x40 DUP1 MLOAD PUSH1 0x1 PUSH1 0x1 PUSH1 0xA0 SHL SUB SWAP1 SWAP3 AND DUP3 MSTORE MLOAD SWAP1 DUP2 SWAP1 SUB PUSH1 0x20 ADD SWAP1 RETURN JUMPDEST PUSH2 0x270 PUSH1 0x4 DUP1 CALLDATASIZE SUB PUSH1 0x20 DUP2 LT ISZERO PUSH2 0x319 JUMPI PUSH1 0x0 DUP1 REVERT JUMPDEST POP CALLDATALOAD PUSH2 0x79B JUMP JUMPDEST PUSH2 0x22E PUSH1 0x4 DUP1 CALLDATASIZE SUB PUSH1 0x20 DUP2 LT ISZERO PUSH2 0x336 JUMPI PUSH1 0x0 DUP1 REVERT JUMPDEST POP CALLDATALOAD PUSH2 0x7B0 JUMP JUMPDEST PUSH2 0x270 PUSH1 0x4 DUP1 CALLDATASIZE SUB PUSH1 0x20 DUP2 LT ISZERO PUSH2 0x353 JUMPI PUSH1 0x0 DUP1 REVERT JUMPDEST POP CALLDATALOAD PUSH2 0x7E5 JUMP JUMPDEST PUSH2 0x270 PUSH2 0x803 JUMP JUMPDEST PUSH2 0x22E PUSH2 0x80A JUMP JUMPDEST PUSH2 0x22E PUSH1 0x4 DUP1 CALLDATASIZE SUB PUSH1 0x20 DUP2 LT ISZERO PUSH2 0x380 JUMPI PUSH1 0x0 DUP1 REVERT JUMPDEST DUP2 ADD SWAP1 PUSH1 0x20 DUP2 ADD DUP2 CALLDATALOAD PUSH5 0x100000000 DUP2 GT ISZERO PUSH2 0x39B JUMPI PUSH1 0x0 DUP1 REVERT JUMPDEST DUP3 ADD DUP4 PUSH1 0x20 DUP3 ADD GT ISZERO PUSH2 0x3AD JUMPI PUSH1 0x0 DUP1 REVERT JUMPDEST DUP1 CALLDATALOAD SWAP1 PUSH1 0x20 ADD SWAP2 DUP5 PUSH1 0x1 DUP4 MUL DUP5 ADD GT PUSH5 0x100000000 DUP4 GT OR ISZERO PUSH2 0x3CF JUMPI PUSH1 0x0 DUP1 REVERT JUMPDEST SWAP2 SWAP1 DUP1 DUP1 PUSH1 0x1F ADD PUSH1 0x20 DUP1 SWAP2 DIV MUL PUSH1 0x20 ADD PUSH1 0x40 MLOAD SWAP1 DUP2 ADD PUSH1 0x40 MSTORE DUP1 SWAP4 SWAP3 SWAP2 SWAP1 DUP2 DUP2 MSTORE PUSH1 0x20 ADD DUP4 DUP4 DUP1 DUP3 DUP5 CALLDATACOPY PUSH1 0x0 SWAP3 ADD SWAP2 SWAP1 SWAP2 MSTORE POP SWAP3 SWAP6 POP PUSH2 0x865 SWAP5 POP POP POP POP POP JUMP JUMPDEST PUSH2 0x2E7 PUSH2 0x87C JUMP JUMPDEST PUSH2 0x270 PUSH1 0x4 DUP1 CALLDATASIZE SUB PUSH1 0x20 DUP2 LT ISZERO PUSH2 0x42E JUMPI PUSH1 0x0 DUP1 REVERT JUMPDEST POP CALLDATALOAD PUSH2 0x88B JUMP JUMPDEST PUSH2 0x43D PUSH2 0x8B4 JUMP JUMPDEST PUSH1 0x40 DUP1 MLOAD SWAP2 ISZERO ISZERO DUP3 MSTORE MLOAD SWAP1 DUP2 SWAP1 SUB PUSH1 0x20 ADD SWAP1 RETURN JUMPDEST PUSH2 0x22E PUSH1 0x4 DUP1 CALLDATASIZE SUB PUSH1 0x20 DUP2 LT ISZERO PUSH2 0x467 JUMPI PUSH1 0x0 DUP1 REVERT JUMPDEST POP CALLDATALOAD PUSH2 0x8C5 JUMP JUMPDEST PUSH2 0x270 PUSH2 0x8FB JUMP JUMPDEST PUSH2 0x22E PUSH1 0x4 DUP1 CALLDATASIZE SUB PUSH1 0x20 DUP2 LT ISZERO PUSH2 0x48C JUMPI PUSH1 0x0 DUP1 REVERT JUMPDEST POP CALLDATALOAD PUSH2 0x900 JUMP JUMPDEST PUSH2 0x270 PUSH1 0x4 DUP1 CALLDATASIZE SUB PUSH1 0x20 DUP2 LT ISZERO PUSH2 0x4A9 JUMPI PUSH1 0x0 DUP1 REVERT JUMPDEST POP CALLDATALOAD PUSH2 0x9AC JUMP JUMPDEST PUSH2 0x270 PUSH1 0x4 DUP1 CALLDATASIZE SUB PUSH1 0x20 DUP2 LT ISZERO PUSH2 0x4C6 JUMPI PUSH1 0x0 DUP1 REVERT JUMPDEST POP CALLDATALOAD PUSH2 0x9B9 JUMP JUMPDEST PUSH2 0x270 PUSH2 0x9CB JUMP JUMPDEST PUSH2 0x22E PUSH1 0x4 DUP1 CALLDATASIZE SUB PUSH1 0x20 DUP2 LT ISZERO PUSH2 0x4EB JUMPI PUSH1 0x0 DUP1 REVERT JUMPDEST POP CALLDATALOAD PUSH2 0x9D1 JUMP JUMPDEST PUSH2 0x22E PUSH1 0x4 DUP1 CALLDATASIZE SUB PUSH1 0x20 DUP2 LT ISZERO PUSH2 0x508 JUMPI PUSH1 0x0 DUP1 REVERT JUMPDEST POP CALLDATALOAD PUSH1 0x1 PUSH1 0x1 PUSH1 0xA0 SHL SUB AND PUSH2 0x9D6 JUMP JUMPDEST PUSH2 0x270 PUSH2 0xDA8 JUMP JUMPDEST PUSH2 0x22E PUSH1 0x4 DUP1 CALLDATASIZE SUB PUSH1 0x40 DUP2 LT ISZERO PUSH2 0x536 JUMPI PUSH1 0x0 DUP1 REVERT JUMPDEST POP DUP1 CALLDATALOAD SWAP1 PUSH1 0x20 ADD CALLDATALOAD PUSH2 0xDAE JUMP JUMPDEST PUSH2 0x2E7 PUSH2 0xDD4 JUMP JUMPDEST PUSH2 0x553 PUSH2 0xDE3 JUMP JUMPDEST PUSH1 0x40 DUP1 MLOAD PUSH1 0x20 DUP1 DUP3 MSTORE DUP4 MLOAD DUP2 DUP4 ADD MSTORE DUP4 MLOAD SWAP2 SWAP3 DUP4 SWAP3 SWAP1 DUP4 ADD SWAP2 DUP6 ADD SWAP1 DUP1 DUP4 DUP4 PUSH1 0x0 JUMPDEST DUP4 DUP2 LT ISZERO PUSH2 0x58D JUMPI DUP2 DUP2 ADD MLOAD DUP4 DUP3 ADD MSTORE PUSH1 0x20 ADD PUSH2 0x575 JUMP JUMPDEST POP POP POP POP SWAP1 POP SWAP1 DUP2 ADD SWAP1 PUSH1 0x1F AND DUP1 ISZERO PUSH2 0x5BA JUMPI DUP1 DUP3 SUB DUP1 MLOAD PUSH1 0x1 DUP4 PUSH1 0x20 SUB PUSH2 0x100 EXP SUB NOT AND DUP2 MSTORE PUSH1 0x20 ADD SWAP2 POP JUMPDEST POP SWAP3 POP POP POP PUSH1 0x40 MLOAD DUP1 SWAP2 SUB SWAP1 RETURN JUMPDEST PUSH2 0x5D0 PUSH2 0xE71 JUMP JUMPDEST PUSH1 0x40 DUP1 MLOAD PUSH1 0xFF SWAP1 SWAP3 AND DUP3 MSTORE MLOAD SWAP1 DUP2 SWAP1 SUB PUSH1 0x20 ADD SWAP1 RETURN JUMPDEST PUSH2 0x270 PUSH2 0xE81 JUMP JUMPDEST PUSH2 0x22E PUSH1 0x4 DUP1 CALLDATASIZE SUB PUSH1 0x20 DUP2 LT ISZERO PUSH2 0x604 JUMPI PUSH1 0x0 DUP1 REVERT JUMPDEST POP CALLDATALOAD PUSH1 0x1 PUSH1 0x1 PUSH1 0xA0 SHL SUB AND PUSH2 0xE87 JUMP JUMPDEST PUSH2 0x22E PUSH1 0x4 DUP1 CALLDATASIZE SUB PUSH1 0x20 DUP2 LT ISZERO PUSH2 0x62A JUMPI PUSH1 0x0 DUP1 REVERT JUMPDEST POP CALLDATALOAD PUSH1 0x1 PUSH1 0x1 PUSH1 0xA0 SHL SUB AND PUSH2 0xEFB JUMP JUMPDEST PUSH2 0x270 PUSH2 0xF18 JUMP JUMPDEST PUSH2 0x22E PUSH1 0x4 DUP1 CALLDATASIZE SUB PUSH1 0x40 DUP2 LT ISZERO PUSH2 0x658 JUMPI PUSH1 0x0 DUP1 REVERT JUMPDEST POP DUP1 CALLDATALOAD SWAP1 PUSH1 0x20 ADD CALLDATALOAD PUSH2 0xF1E JUMP JUMPDEST PUSH1 0x9 DUP3 DUP2 SLOAD DUP2 LT PUSH2 0x672 JUMPI INVALID JUMPDEST PUSH1 0x0 SWAP2 DUP3 MSTORE PUSH1 0x20 DUP1 DUP4 KECCAK256 PUSH1 0x1 PUSH1 0x2 SWAP1 SWAP4 MUL ADD DUP3 ADD DUP1 SLOAD SWAP3 DUP4 ADD DUP2 SSTORE DUP4 MSTORE SWAP1 SWAP2 KECCAK256 ADD SSTORE POP JUMP JUMPDEST PUSH1 0xB DUP1 SLOAD PUSH1 0x1 ADD SWAP1 SSTORE PUSH2 0x6A8 PUSH2 0x113E JUMP JUMPDEST PUSH1 0xB SLOAD PUSH1 0x0 NOT ADD PUSH1 0x0 SWAP1 DUP2 MSTORE PUSH1 0xA PUSH1 0x20 SWAP1 DUP2 MSTORE PUSH1 0x40 SWAP1 SWAP2 KECCAK256 DUP3 MLOAD DUP2 SSTORE DUP2 DUP4 ADD MLOAD DUP1 MLOAD DUP5 SWAP4 PUSH2 0x6DD SWAP3 PUSH1 0x1 DUP6 ADD SWAP3 SWAP2 ADD SWAP1 PUSH2 0x1158 JUMP JUMPDEST POP POP PUSH1 0xB SLOAD PUSH1 0x0 NOT ADD PUSH1 0x0 SWAP1 DUP2 MSTORE PUSH1 0xA PUSH1 0x20 MSTORE PUSH1 0x40 SWAP1 KECCAK256 SWAP3 SWAP1 SWAP3 SSTORE POP POP JUMP JUMPDEST PUSH1 0x0 PUSH1 0x9 DUP4 DUP2 SLOAD DUP2 LT PUSH2 0x70B JUMPI INVALID JUMPDEST SWAP1 PUSH1 0x0 MSTORE PUSH1 0x20 PUSH1 0x0 KECCAK256 SWAP1 PUSH1 0x2 MUL ADD PUSH1 0x1 ADD DUP3 DUP2 SLOAD DUP2 LT PUSH2 0x727 JUMPI INVALID JUMPDEST SWAP1 PUSH1 0x0 MSTORE PUSH1 0x20 PUSH1 0x0 KECCAK256 ADD SLOAD SWAP1 POP SWAP3 SWAP2 POP POP JUMP JUMPDEST PUSH1 0x0 DUP3 DUP2 MSTORE PUSH1 0xA PUSH1 0x20 MSTORE PUSH1 0x40 DUP2 KECCAK256 PUSH1 0x1 ADD DUP1 SLOAD DUP4 SWAP1 DUP2 LT PUSH2 0x727 JUMPI INVALID JUMPDEST PUSH1 0x7 PUSH1 0x20 MSTORE PUSH1 0x0 SWAP1 DUP2 MSTORE PUSH1 0x40 SWAP1 KECCAK256 SLOAD DUP2 JUMP JUMPDEST PUSH1 0x9 DUP2 DUP2 SLOAD DUP2 LT PUSH2 0x776 JUMPI INVALID JUMPDEST PUSH1 0x0 SWAP2 DUP3 MSTORE PUSH1 0x20 SWAP1 SWAP2 KECCAK256 PUSH1 0x2 SWAP1 SWAP2 MUL ADD SLOAD SWAP1 POP DUP2 JUMP JUMPDEST PUSH1 0x2 SLOAD PUSH1 0x1 PUSH1 0x1 PUSH1 0xA0 SHL SUB AND DUP2 JUMP JUMPDEST PUSH1 0x0 SWAP1 DUP2 MSTORE PUSH1 0xA PUSH1 0x20 MSTORE PUSH1 0x40 SWAP1 KECCAK256 PUSH1 0x1 ADD SLOAD SWAP1 JUMP JUMPDEST PUSH1 0x6 DUP1 SLOAD PUSH1 0x1 DUP2 ADD DUP3 SSTORE PUSH1 0x0 SWAP2 SWAP1 SWAP2 MSTORE PUSH32 0xF652222313E28459528D920B65115C16C04F3EFC82AAEDC97BE59F3F377C0D3F ADD SSTORE JUMP JUMPDEST PUSH1 0x6 DUP2 DUP2 SLOAD DUP2 LT PUSH2 0x7F2 JUMPI INVALID JUMPDEST PUSH1 0x0 SWAP2 DUP3 MSTORE PUSH1 0x20 SWAP1 SWAP2 KECCAK256 ADD SLOAD SWAP1 POP DUP2 JUMP JUMPDEST PUSH1 0x9 SLOAD JUMPDEST SWAP1 JUMP JUMPDEST PUSH2 0x812 PUSH2 0x8B4 JUMP JUMPDEST PUSH2 0x81B JUMPI PUSH1 0x0 DUP1 REVERT JUMPDEST PUSH1 0x0 DUP1 SLOAD PUSH1 0x40 MLOAD PUSH1 0x1 PUSH1 0x1 PUSH1 0xA0 SHL SUB SWAP1 SWAP2 AND SWAP1 PUSH32 0x8BE0079C531659141344CD1FD0A4F28419497F9722A3DAAFE3B4186F6B6457E0 SWAP1 DUP4 SWAP1 LOG3 PUSH1 0x0 DUP1 SLOAD PUSH1 0x1 PUSH1 0x1 PUSH1 0xA0 SHL SUB NOT AND SWAP1 SSTORE JUMP JUMPDEST DUP1 MLOAD PUSH2 0x878 SWAP1 PUSH1 0x5 SWAP1 PUSH1 0x20 DUP5 ADD SWAP1 PUSH2 0x11A3 JUMP JUMPDEST POP POP JUMP JUMPDEST PUSH1 0x0 SLOAD PUSH1 0x1 PUSH1 0x1 PUSH1 0xA0 SHL SUB AND SWAP1 JUMP JUMPDEST PUSH1 0x0 PUSH1 0x9 DUP3 DUP2 SLOAD DUP2 LT PUSH2 0x89A JUMPI INVALID JUMPDEST PUSH1 0x0 SWAP2 DUP3 MSTORE PUSH1 0x20 SWAP1 SWAP2 KECCAK256 PUSH1 0x1 PUSH1 0x2 SWAP1 SWAP3 MUL ADD ADD SLOAD SWAP3 SWAP2 POP POP JUMP JUMPDEST PUSH1 0x0 SLOAD PUSH1 0x1 PUSH1 0x1 PUSH1 0xA0 SHL SUB AND CALLER EQ SWAP1 JUMP JUMPDEST PUSH1 0x40 DUP1 MLOAD DUP3 DUP2 MSTORE SWAP1 MLOAD PUSH32 0xE6E28058944FBC56F49840A0F653691912A91AC8AE16F749E35E4FC6AF30412A SWAP2 DUP2 SWAP1 SUB PUSH1 0x20 ADD SWAP1 LOG1 POP JUMP JUMPDEST PUSH1 0xA SWAP1 JUMP JUMPDEST PUSH2 0x908 PUSH2 0x113E JUMP JUMPDEST PUSH1 0x9 DUP1 SLOAD PUSH1 0x1 DUP2 ADD DUP3 SSTORE PUSH1 0x0 SWAP2 SWAP1 SWAP2 MSTORE DUP2 MLOAD PUSH1 0x2 SWAP1 SWAP2 MUL PUSH32 0x6E1540171B6C0C960B71A7020D9F60077F6AF931A8BBF590DA0223DACF75C7AF DUP2 ADD SWAP2 DUP3 SSTORE PUSH1 0x20 DUP1 DUP5 ADD MLOAD DUP1 MLOAD DUP6 SWAP5 SWAP4 PUSH2 0x980 SWAP4 PUSH32 0x6E1540171B6C0C960B71A7020D9F60077F6AF931A8BBF590DA0223DACF75C7B0 SWAP1 SWAP2 ADD SWAP3 ADD SWAP1 PUSH2 0x1158 JUMP JUMPDEST POP POP PUSH1 0x9 DUP1 SLOAD DUP5 SWAP3 POP PUSH1 0x0 NOT DUP2 ADD SWAP1 DUP2 LT PUSH2 0x997 JUMPI INVALID JUMPDEST PUSH1 0x0 SWAP2 DUP3 MSTORE PUSH1 0x20 SWAP1 SWAP2 KECCAK256 PUSH1 0x2 SWAP1 SWAP2 MUL ADD SSTORE POP POP JUMP JUMPDEST PUSH1 0x8 DUP2 DUP2 SLOAD DUP2 LT PUSH2 0x7F2 JUMPI INVALID JUMPDEST PUSH1 0xA PUSH1 0x20 MSTORE PUSH1 0x0 SWAP1 DUP2 MSTORE PUSH1 0x40 SWAP1 KECCAK256 SLOAD DUP2 JUMP JUMPDEST PUSH1 0x4 SLOAD DUP2 JUMP JUMPDEST PUSH1 0x4 SSTORE JUMP JUMPDEST PUSH2 0x9DF DUP2 PUSH2 0xF60 JUMP JUMPDEST PUSH1 0x4 SLOAD PUSH2 0x9F3 DUP3 PUSH4 0xA977A973 PUSH1 0xE0 SHL PUSH2 0xFBA JUMP JUMPDEST EQ PUSH2 0x9FD JUMPI PUSH1 0x0 DUP1 REVERT JUMPDEST PUSH1 0x60 PUSH2 0xA10 DUP3 PUSH4 0x1B74E5CB PUSH1 0xE3 SHL PUSH2 0xFD3 JUMP JUMPDEST PUSH1 0x5 SLOAD DUP2 MLOAD SWAP2 SWAP3 POP PUSH1 0x2 PUSH1 0x0 NOT PUSH2 0x100 PUSH1 0x1 DUP5 AND ISZERO MUL ADD SWAP1 SWAP2 AND DIV EQ DUP1 ISZERO PUSH2 0xAA7 JUMPI POP PUSH1 0x5 PUSH1 0x40 MLOAD DUP1 DUP3 DUP1 SLOAD PUSH1 0x1 DUP2 PUSH1 0x1 AND ISZERO PUSH2 0x100 MUL SUB AND PUSH1 0x2 SWAP1 DIV DUP1 ISZERO PUSH2 0xA90 JUMPI DUP1 PUSH1 0x1F LT PUSH2 0xA6E JUMPI PUSH2 0x100 DUP1 DUP4 SLOAD DIV MUL DUP4 MSTORE SWAP2 DUP3 ADD SWAP2 PUSH2 0xA90 JUMP JUMPDEST DUP3 ADD SWAP2 SWAP1 PUSH1 0x0 MSTORE PUSH1 0x20 PUSH1 0x0 KECCAK256 SWAP1 JUMPDEST DUP2 SLOAD DUP2 MSTORE SWAP1 PUSH1 0x1 ADD SWAP1 PUSH1 0x20 ADD DUP1 DUP4 GT PUSH2 0xA7C JUMPI JUMPDEST POP POP SWAP2 POP POP PUSH1 0x40 MLOAD DUP1 SWAP2 SUB SWAP1 KECCAK256 DUP2 DUP1 MLOAD SWAP1 PUSH1 0x20 ADD KECCAK256 EQ JUMPDEST PUSH2 0xAB0 JUMPI PUSH1 0x0 DUP1 REVERT JUMPDEST PUSH1 0x6 SLOAD PUSH2 0xAC4 DUP4 PUSH4 0x61F32289 PUSH1 0xE1 SHL PUSH2 0xFBA JUMP JUMPDEST EQ PUSH2 0xACE JUMPI PUSH1 0x0 DUP1 REVERT JUMPDEST PUSH1 0x0 JUMPDEST PUSH1 0x6 SLOAD DUP2 LT ISZERO PUSH2 0xB18 JUMPI PUSH1 0x6 DUP2 DUP2 SLOAD DUP2 LT PUSH2 0xAE8 JUMPI INVALID JUMPDEST PUSH1 0x0 SWAP2 DUP3 MSTORE PUSH1 0x20 SWAP1 SWAP2 KECCAK256 ADD SLOAD PUSH2 0xB06 DUP5 PUSH4 0x649D64BF PUSH1 0xE0 SHL DUP5 PUSH2 0xFEF JUMP JUMPDEST EQ PUSH2 0xB10 JUMPI PUSH1 0x0 DUP1 REVERT JUMPDEST PUSH1 0x1 ADD PUSH2 0xAD1 JUMP JUMPDEST POP PUSH1 0x0 JUMPDEST PUSH1 0x8 SLOAD DUP2 LT ISZERO PUSH2 0xB79 JUMPI PUSH1 0x0 PUSH1 0x8 DUP3 DUP2 SLOAD DUP2 LT PUSH2 0xB35 JUMPI INVALID JUMPDEST PUSH1 0x0 SWAP2 DUP3 MSTORE PUSH1 0x20 DUP1 DUP4 KECCAK256 SWAP1 SWAP2 ADD SLOAD DUP1 DUP4 MSTORE PUSH1 0x7 SWAP1 SWAP2 MSTORE PUSH1 0x40 SWAP1 SWAP2 KECCAK256 SLOAD SWAP1 SWAP2 POP PUSH2 0xB66 DUP6 PUSH4 0x332B4EAF PUSH1 0xE0 SHL DUP5 PUSH2 0xFEF JUMP JUMPDEST EQ PUSH2 0xB70 JUMPI PUSH1 0x0 DUP1 REVERT JUMPDEST POP PUSH1 0x1 ADD PUSH2 0xB1C JUMP JUMPDEST POP PUSH1 0x9 SLOAD PUSH2 0xB8E DUP4 PUSH4 0x67099ABF PUSH1 0xE0 SHL PUSH2 0xFBA JUMP JUMPDEST EQ PUSH2 0xB98 JUMPI PUSH1 0x0 DUP1 REVERT JUMPDEST PUSH1 0x0 JUMPDEST PUSH1 0x9 SLOAD DUP2 LT ISZERO PUSH2 0xCAB JUMPI PUSH1 0x9 DUP2 DUP2 SLOAD DUP2 LT PUSH2 0xBB2 JUMPI INVALID JUMPDEST PUSH1 0x0 SWAP2 DUP3 MSTORE PUSH1 0x20 SWAP1 SWAP2 KECCAK256 PUSH1 0x2 SWAP1 SWAP2 MUL ADD SLOAD PUSH2 0xBD5 DUP5 PUSH4 0x42A89D0D PUSH1 0xE0 SHL DUP5 PUSH2 0xFEF JUMP JUMPDEST EQ PUSH2 0xBDF JUMPI PUSH1 0x0 DUP1 REVERT JUMPDEST PUSH1 0x9 DUP2 DUP2 SLOAD DUP2 LT PUSH2 0xBEC JUMPI INVALID JUMPDEST PUSH1 0x0 SWAP2 DUP3 MSTORE PUSH1 0x20 SWAP1 SWAP2 KECCAK256 PUSH1 0x1 PUSH1 0x2 SWAP1 SWAP3 MUL ADD ADD SLOAD PUSH2 0xC12 DUP5 PUSH4 0x23A77D9F PUSH1 0xE2 SHL DUP5 PUSH2 0xFEF JUMP JUMPDEST EQ PUSH2 0xC1C JUMPI PUSH1 0x0 DUP1 REVERT JUMPDEST PUSH1 0x0 JUMPDEST PUSH1 0x9 DUP3 DUP2 SLOAD DUP2 LT PUSH2 0xC2C JUMPI INVALID JUMPDEST SWAP1 PUSH1 0x0 MSTORE PUSH1 0x20 PUSH1 0x0 KECCAK256 SWAP1 PUSH1 0x2 MUL ADD PUSH1 0x1 ADD DUP1 SLOAD SWAP1 POP DUP2 LT ISZERO PUSH2 0xCA2 JUMPI PUSH1 0x9 DUP3 DUP2 SLOAD DUP2 LT PUSH2 0xC55 JUMPI INVALID JUMPDEST SWAP1 PUSH1 0x0 MSTORE PUSH1 0x20 PUSH1 0x0 KECCAK256 SWAP1 PUSH1 0x2 MUL ADD PUSH1 0x1 ADD DUP2 DUP2 SLOAD DUP2 LT PUSH2 0xC71 JUMPI INVALID JUMPDEST PUSH1 0x0 SWAP2 DUP3 MSTORE PUSH1 0x20 SWAP1 SWAP2 KECCAK256 ADD SLOAD PUSH2 0xC90 DUP6 PUSH4 0xAAD269F PUSH1 0xE1 SHL DUP6 DUP6 PUSH2 0x100A JUMP JUMPDEST EQ PUSH2 0xC9A JUMPI PUSH1 0x0 DUP1 REVERT JUMPDEST PUSH1 0x1 ADD PUSH2 0xC1F JUMP JUMPDEST POP PUSH1 0x1 ADD PUSH2 0xB9B JUMP JUMPDEST POP PUSH1 0xB SLOAD PUSH2 0xCC0 DUP4 PUSH4 0xF3D93CF1 PUSH1 0xE0 SHL PUSH2 0xFBA JUMP JUMPDEST EQ PUSH2 0xCCA JUMPI PUSH1 0x0 DUP1 REVERT JUMPDEST PUSH1 0x0 JUMPDEST PUSH1 0xB SLOAD DUP2 LT ISZERO PUSH2 0xDA3 JUMPI PUSH1 0x0 DUP2 DUP2 MSTORE PUSH1 0xA PUSH1 0x20 MSTORE PUSH1 0x40 SWAP1 KECCAK256 SLOAD PUSH2 0xCF8 DUP5 PUSH4 0x52A5BD41 PUSH1 0xE1 SHL DUP5 PUSH2 0xFEF JUMP JUMPDEST EQ PUSH2 0xD02 JUMPI PUSH1 0x0 DUP1 REVERT JUMPDEST PUSH1 0x0 DUP2 DUP2 MSTORE PUSH1 0xA PUSH1 0x20 MSTORE PUSH1 0x40 SWAP1 KECCAK256 PUSH1 0x1 ADD SLOAD PUSH2 0xD26 DUP5 PUSH4 0x52FAE8FD PUSH1 0xE0 SHL DUP5 PUSH2 0xFEF JUMP JUMPDEST EQ PUSH2 0xD30 JUMPI PUSH1 0x0 DUP1 REVERT JUMPDEST PUSH1 0x0 JUMPDEST PUSH1 0x0 DUP3 DUP2 MSTORE PUSH1 0xA PUSH1 0x20 MSTORE PUSH1 0x40 SWAP1 KECCAK256 PUSH1 0x1 ADD SLOAD DUP2 LT ISZERO PUSH2 0xD9A JUMPI PUSH1 0x0 DUP3 DUP2 MSTORE PUSH1 0xA PUSH1 0x20 MSTORE PUSH1 0x40 SWAP1 KECCAK256 PUSH1 0x1 ADD DUP1 SLOAD DUP3 SWAP1 DUP2 LT PUSH2 0xD69 JUMPI INVALID JUMPDEST PUSH1 0x0 SWAP2 DUP3 MSTORE PUSH1 0x20 SWAP1 SWAP2 KECCAK256 ADD SLOAD PUSH2 0xD88 DUP6 PUSH4 0x21E72E19 PUSH1 0xE0 SHL DUP6 DUP6 PUSH2 0x100A JUMP JUMPDEST EQ PUSH2 0xD92 JUMPI PUSH1 0x0 DUP1 REVERT JUMPDEST PUSH1 0x1 ADD PUSH2 0xD33 JUMP JUMPDEST POP PUSH1 0x1 ADD PUSH2 0xCCD JUMP JUMPDEST POP POP POP JUMP JUMPDEST PUSH1 0x6 SLOAD SWAP1 JUMP JUMPDEST PUSH1 0x0 SWAP2 DUP3 MSTORE PUSH1 0xA PUSH1 0x20 SWAP1 DUP2 MSTORE PUSH1 0x40 DUP4 KECCAK256 PUSH1 0x1 SWAP1 DUP2 ADD DUP1 SLOAD SWAP2 DUP3 ADD DUP2 SSTORE DUP5 MSTORE SWAP3 KECCAK256 SWAP1 SWAP2 ADD SSTORE JUMP JUMPDEST PUSH1 0x1 SLOAD PUSH1 0x1 PUSH1 0x1 PUSH1 0xA0 SHL SUB AND DUP2 JUMP JUMPDEST PUSH1 0x5 DUP1 SLOAD PUSH1 0x40 DUP1 MLOAD PUSH1 0x20 PUSH1 0x2 PUSH1 0x1 DUP6 AND ISZERO PUSH2 0x100 MUL PUSH1 0x0 NOT ADD SWAP1 SWAP5 AND SWAP4 SWAP1 SWAP4 DIV PUSH1 0x1F DUP2 ADD DUP5 SWAP1 DIV DUP5 MUL DUP3 ADD DUP5 ADD SWAP1 SWAP3 MSTORE DUP2 DUP2 MSTORE SWAP3 SWAP2 DUP4 ADD DUP3 DUP3 DUP1 ISZERO PUSH2 0xE69 JUMPI DUP1 PUSH1 0x1F LT PUSH2 0xE3E JUMPI PUSH2 0x100 DUP1 DUP4 SLOAD DIV MUL DUP4 MSTORE SWAP2 PUSH1 0x20 ADD SWAP2 PUSH2 0xE69 JUMP JUMPDEST DUP3 ADD SWAP2 SWAP1 PUSH1 0x0 MSTORE PUSH1 0x20 PUSH1 0x0 KECCAK256 SWAP1 JUMPDEST DUP2 SLOAD DUP2 MSTORE SWAP1 PUSH1 0x1 ADD SWAP1 PUSH1 0x20 ADD DUP1 DUP4 GT PUSH2 0xE4C JUMPI DUP3 SWAP1 SUB PUSH1 0x1F AND DUP3 ADD SWAP2 JUMPDEST POP POP POP POP POP DUP2 JUMP JUMPDEST PUSH1 0x2 SLOAD PUSH1 0x1 PUSH1 0xA0 SHL SWAP1 DIV PUSH1 0xFF AND DUP2 JUMP JUMPDEST PUSH1 0xB SLOAD DUP2 JUMP JUMPDEST PUSH2 0xE90 DUP2 PUSH2 0x1026 JUMP JUMPDEST DUP1 PUSH1 0x1 PUSH1 0x1 PUSH1 0xA0 SHL SUB AND PUSH4 0xA977A973 PUSH1 0x40 MLOAD DUP2 PUSH4 0xFFFFFFFF AND PUSH1 0xE0 SHL DUP2 MSTORE PUSH1 0x4 ADD PUSH1 0x20 PUSH1 0x40 MLOAD DUP1 DUP4 SUB DUP2 DUP7 DUP1 EXTCODESIZE ISZERO DUP1 ISZERO PUSH2 0xEC9 JUMPI PUSH1 0x0 DUP1 REVERT JUMPDEST POP GAS STATICCALL ISZERO DUP1 ISZERO PUSH2 0xEDD JUMPI RETURNDATASIZE PUSH1 0x0 DUP1 RETURNDATACOPY RETURNDATASIZE PUSH1 0x0 REVERT JUMPDEST POP POP POP POP PUSH1 0x40 MLOAD RETURNDATASIZE PUSH1 0x20 DUP2 LT ISZERO PUSH2 0xEF3 JUMPI PUSH1 0x0 DUP1 REVERT JUMPDEST POP MLOAD PUSH1 0x4 SSTORE POP JUMP JUMPDEST PUSH2 0xF03 PUSH2 0x8B4 JUMP JUMPDEST PUSH2 0xF0C JUMPI PUSH1 0x0 DUP1 REVERT JUMPDEST PUSH2 0xF15 DUP2 PUSH2 0x1080 JUMP JUMPDEST POP JUMP JUMPDEST PUSH1 0xB SLOAD SWAP1 JUMP JUMPDEST PUSH1 0x8 DUP1 SLOAD PUSH1 0x1 DUP2 ADD SWAP1 SWAP2 SSTORE PUSH32 0xF3F7A9FE364FAAB93B216DA50A3214154F22A0A2B415B23A84C8169E8B636EE3 ADD DUP3 SWAP1 SSTORE PUSH1 0x0 SWAP2 DUP3 MSTORE PUSH1 0x7 PUSH1 0x20 MSTORE PUSH1 0x40 SWAP1 SWAP2 KECCAK256 SSTORE JUMP JUMPDEST PUSH1 0x2 DUP1 SLOAD PUSH1 0x1 PUSH1 0xA0 SHL SWAP1 DIV PUSH1 0xFF AND EQ PUSH2 0xF78 JUMPI PUSH1 0x0 DUP1 REVERT JUMPDEST PUSH1 0x40 DUP1 MLOAD CALLER DUP2 MSTORE SWAP1 MLOAD PUSH1 0x1 PUSH1 0x1 PUSH1 0xA0 SHL SUB DUP4 AND SWAP2 PUSH32 0x1E8D98C1B4A0D9BD2E2371026B632EB2773FCCE41742E41F02F574AB69868D4C SWAP2 SWAP1 DUP2 SWAP1 SUB PUSH1 0x20 ADD SWAP1 LOG2 POP JUMP JUMPDEST PUSH1 0x0 DUP1 PUSH2 0xFCA DUP5 DUP5 DUP4 DUP1 DUP1 PUSH2 0x10EE JUMP JUMPDEST MLOAD SWAP5 SWAP4 POP POP POP POP JUMP JUMPDEST PUSH1 0x60 PUSH1 0x0 PUSH2 0xFE4 DUP5 DUP5 DUP4 DUP1 DUP1 PUSH2 0x10EE JUMP JUMPDEST DUP1 MLOAD ADD SWAP5 SWAP4 POP POP POP POP JUMP JUMPDEST PUSH1 0x0 DUP1 PUSH2 0x1000 DUP6 DUP6 PUSH1 0x1 DUP7 DUP6 PUSH2 0x10EE JUMP JUMPDEST MLOAD SWAP6 SWAP5 POP POP POP POP POP JUMP JUMPDEST PUSH1 0x0 DUP1 PUSH2 0x101B DUP7 DUP7 PUSH1 0x2 DUP8 DUP8 PUSH2 0x10EE JUMP JUMPDEST MLOAD SWAP7 SWAP6 POP POP POP POP POP POP JUMP JUMPDEST PUSH1 0x2 DUP1 SLOAD PUSH1 0x1 PUSH1 0xA0 SHL SWAP1 DIV PUSH1 0xFF AND EQ PUSH2 0x103E JUMPI PUSH1 0x0 DUP1 REVERT JUMPDEST PUSH1 0x40 DUP1 MLOAD CALLER DUP2 MSTORE SWAP1 MLOAD PUSH1 0x1 PUSH1 0x1 PUSH1 0xA0 SHL SUB DUP4 AND SWAP2 PUSH32 0xD55EC27C5C6316913ED8803C18CFD1BFEFEA953DB909DCBA6140744A9D8B0D1F SWAP2 SWAP1 DUP2 SWAP1 SUB PUSH1 0x20 ADD SWAP1 LOG2 POP JUMP JUMPDEST PUSH1 0x1 PUSH1 0x1 PUSH1 0xA0 SHL SUB DUP2 AND PUSH2 0x1093 JUMPI PUSH1 0x0 DUP1 REVERT JUMPDEST PUSH1 0x0 DUP1 SLOAD PUSH1 0x40 MLOAD PUSH1 0x1 PUSH1 0x1 PUSH1 0xA0 SHL SUB DUP1 DUP6 AND SWAP4 SWAP3 AND SWAP2 PUSH32 0x8BE0079C531659141344CD1FD0A4F28419497F9722A3DAAFE3B4186F6B6457E0 SWAP2 LOG3 PUSH1 0x0 DUP1 SLOAD PUSH1 0x1 PUSH1 0x1 PUSH1 0xA0 SHL SUB NOT AND PUSH1 0x1 PUSH1 0x1 PUSH1 0xA0 SHL SUB SWAP3 SWAP1 SWAP3 AND SWAP2 SWAP1 SWAP2 OR SWAP1 SSTORE JUMP JUMPDEST PUSH1 0x40 MLOAD DUP5 DUP2 MSTORE DUP4 ISZERO PUSH2 0x1101 JUMPI DUP3 PUSH1 0x4 DUP3 ADD MSTORE JUMPDEST PUSH1 0x1 DUP5 GT ISZERO PUSH2 0x1111 JUMPI DUP2 PUSH1 0x24 DUP3 ADD MSTORE JUMPDEST PUSH1 0x0 DUP1 DUP6 PUSH1 0x20 MUL PUSH1 0x4 ADD DUP4 DUP10 GAS DELEGATECALL DUP1 ISZERO PUSH2 0x112F JUMPI RETURNDATASIZE PUSH1 0x0 DUP4 RETURNDATACOPY PUSH2 0x1134 JUMP JUMPDEST PUSH1 0x0 DUP3 REVERT JUMPDEST POP SWAP6 SWAP5 POP POP POP POP POP JUMP JUMPDEST PUSH1 0x40 MLOAD DUP1 PUSH1 0x40 ADD PUSH1 0x40 MSTORE DUP1 PUSH1 0x0 DUP2 MSTORE PUSH1 0x20 ADD PUSH1 0x60 DUP2 MSTORE POP SWAP1 JUMP JUMPDEST DUP3 DUP1 SLOAD DUP3 DUP3 SSTORE SWAP1 PUSH1 0x0 MSTORE PUSH1 0x20 PUSH1 0x0 KECCAK256 SWAP1 DUP2 ADD SWAP3 DUP3 ISZERO PUSH2 0x1193 JUMPI SWAP2 PUSH1 0x20 MUL DUP3 ADD JUMPDEST DUP3 DUP2 GT ISZERO PUSH2 0x1193 JUMPI DUP3 MLOAD DUP3 SSTORE SWAP2 PUSH1 0x20 ADD SWAP2 SWAP1 PUSH1 0x1 ADD SWAP1 PUSH2 0x1178 JUMP JUMPDEST POP PUSH2 0x119F SWAP3 SWAP2 POP PUSH2 0x1210 JUMP JUMPDEST POP SWAP1 JUMP JUMPDEST DUP3 DUP1 SLOAD PUSH1 0x1 DUP2 PUSH1 0x1 AND ISZERO PUSH2 0x100 MUL SUB AND PUSH1 0x2 SWAP1 DIV SWAP1 PUSH1 0x0 MSTORE PUSH1 0x20 PUSH1 0x0 KECCAK256 SWAP1 PUSH1 0x1F ADD PUSH1 0x20 SWAP1 DIV DUP2 ADD SWAP3 DUP3 PUSH1 0x1F LT PUSH2 0x11E4 JUMPI DUP1 MLOAD PUSH1 0xFF NOT AND DUP4 DUP1 ADD OR DUP6 SSTORE PUSH2 0x1193 JUMP JUMPDEST DUP3 DUP1 ADD PUSH1 0x1 ADD DUP6 SSTORE DUP3 ISZERO PUSH2 0x1193 JUMPI SWAP2 DUP3 ADD DUP3 DUP2 GT ISZERO PUSH2 0x1193 JUMPI DUP3 MLOAD DUP3 SSTORE SWAP2 PUSH1 0x20 ADD SWAP2 SWAP1 PUSH1 0x1 ADD SWAP1 PUSH2 0x1178 JUMP JUMPDEST PUSH2 0x807 SWAP2 SWAP1 JUMPDEST DUP1 DUP3 GT ISZERO PUSH2 0x119F JUMPI PUSH1 0x0 DUP2 SSTORE PUSH1 0x1 ADD PUSH2 0x1216 JUMP INVALID LOG2 PUSH5 0x6970667358 0x22 SLT KECCAK256 PUSH3 0xDAAFC1 0xC2 PUSH19 0xD6BEC6F369DF3B71EDD8BF1973936C3B94928D ISZERO JUMP 0xA7 PUSH20 0xA5272464736F6C63430006070033000000000000 ",
  "sha1": "339366135518121298427cc24646de0489954c1b",
  "source": "pragma solidity ^0.6.1;\n\n\nimport \"contracts/proxy/Upgradeable.sol\";\n\n\n/**\n* @dev Base contract for testing upgrading using dispatcher\n*/\ncontract ContractV1 is Upgradeable {\n\n    event EventV1(uint256 value);\n\n    // The storage layout must remain the same in all the upgraded contracts, although it can be added to.\n    // Note that besides the potential mess of unnecessary variables this could create over time, there isn't currently\n    // any increase in cost because of this.\n    uint256 public storageValue;\n    // Test dynamically sized values\n    string public dynamicallySizedValue;\n    // Test array values\n    uint256[] public arrayValues;\n    // Test mappings values\n    mapping (uint256 => uint256) public mappingValues;\n    uint256[] public mappingIndices;\n\n    // Test struct which used in arrays\n    struct Structure1 {\n        uint256 value;\n        uint256[] arrayValues;\n    }\n    Structure1[] public arrayStructures;\n\n    // Test struct which used in mappings\n    struct Structure2 {\n        uint256 value;\n        uint256[] arrayValues;\n    }\n    mapping (uint256 => Structure2) public mappingStructures;\n    uint256 public mappingStructuresLength;\n\n    constructor(uint256 _storageValue) public {\n        storageValue = _storageValue;\n    }\n\n    function returnValue() public pure returns (uint256) {\n        return 10;\n    }\n\n    function setStorageValue(uint256 _value) public {\n        storageValue = _value;\n    }\n\n    function setDynamicallySizedValue(string memory _dynamicValue) public {\n        dynamicallySizedValue = _dynamicValue;\n    }\n\n    function pushArrayValue(uint256 _value) public {\n        arrayValues.push(_value);\n    }\n    function getArrayValueLength() public view returns (uint256) {\n        return arrayValues.length;\n    }\n\n    function setMappingValue(uint256 _index, uint256 _value) public {\n        mappingIndices.push(_index);\n        mappingValues[_index] = _value;\n    }\n\n    function getStructureLength1() public view returns (uint256) {\n        return arrayStructures.length;\n    }\n    function pushStructureValue1(uint256 _value) public {\n        Structure1 memory structure;\n        arrayStructures.push(structure);\n        arrayStructures[arrayStructures.length - 1].value = _value;\n    }\n    function getStructureArrayLength1(uint256 _index) public view returns (uint256) {\n        return arrayStructures[_index].arrayValues.length;\n    }\n    function pushStructureArrayValue1(uint256 _index, uint256 _value) public {\n        arrayStructures[_index].arrayValues.push(_value);\n    }\n    function getStructureArrayValue1(uint256 _index, uint256 _arrayIndex) public view returns (uint256) {\n        return arrayStructures[_index].arrayValues[_arrayIndex];\n    }\n\n    function getStructureLength2() public view returns (uint256) {\n        return mappingStructuresLength;\n    }\n    function pushStructureValue2(uint256 _value) public {\n        mappingStructuresLength++;\n        Structure2 memory structure;\n        mappingStructures[mappingStructuresLength - 1] = structure;\n        mappingStructures[mappingStructuresLength - 1].value = _value;\n    }\n    function getStructureArrayLength2(uint256 _index) public view returns (uint256) {\n        return mappingStructures[_index].arrayValues.length;\n    }\n    function pushStructureArrayValue2(uint256 _index, uint256 _value) public {\n        mappingStructures[_index].arrayValues.push(_value);\n    }\n    function getStructureArrayValue2(uint256 _index, uint256 _arrayIndex) public view returns (uint256) {\n        return mappingStructures[_index].arrayValues[_arrayIndex];\n    }\n\n    function verifyState(address _testTarget) public override virtual {\n        super.verifyState(_testTarget);\n        require(delegateGet(_testTarget, this.storageValue.selector) == storageValue);\n        bytes memory value = delegateGetBytes(_testTarget, this.dynamicallySizedValue.selector);\n        // WARNING: sometimes execution of keccak256(string storage) on a long string (more than 31 bytes)\n        // leads to out of gas or exception\n        require(value.length == bytes(dynamicallySizedValue).length &&\n            keccak256(value) == keccak256(bytes(dynamicallySizedValue)));\n\n        require(delegateGet(_testTarget, this.getArrayValueLength.selector) == arrayValues.length);\n        for (uint256 i = 0; i < arrayValues.length; i++) {\n            require(delegateGet(_testTarget, this.arrayValues.selector, bytes32(i)) == arrayValues[i]);\n        }\n        for (uint256 i = 0; i < mappingIndices.length; i++) {\n            uint256 index = mappingIndices[i];\n            require(delegateGet(_testTarget, this.mappingValues.selector, bytes32(index)) == mappingValues[index]);\n        }\n\n        require(delegateGet(_testTarget, this.getStructureLength1.selector) == arrayStructures.length);\n        for (uint256 i = 0; i < arrayStructures.length; i++) {\n            require(delegateGet(_testTarget, this.arrayStructures.selector, bytes32(i)) == arrayStructures[i].value);\n\n            require(delegateGet(_testTarget, this.getStructureArrayLength1.selector, bytes32(i)) ==\n                arrayStructures[i].arrayValues.length);\n            for (uint256 j = 0; j < arrayStructures[i].arrayValues.length; j++) {\n                require(delegateGet(\n                        _testTarget, this.getStructureArrayValue1.selector, bytes32(i), bytes32(j)) ==\n                    arrayStructures[i].arrayValues[j]);\n            }\n        }\n\n        require(delegateGet(_testTarget, this.getStructureLength2.selector) == mappingStructuresLength);\n        for (uint256 i = 0; i < mappingStructuresLength; i++) {\n            require(delegateGet(_testTarget, this.mappingStructures.selector, bytes32(i)) == mappingStructures[i].value);\n\n            require(delegateGet(_testTarget, this.getStructureArrayLength2.selector, bytes32(i)) ==\n                mappingStructures[i].arrayValues.length);\n            for (uint256 j = 0; j < mappingStructures[i].arrayValues.length; j++) {\n                require(delegateGet(\n                        _testTarget, this.getStructureArrayValue2.selector, bytes32(i), bytes32(j)) ==\n                    mappingStructures[i].arrayValues[j]);\n            }\n        }\n    }\n\n    function delegateGetBytes(address _target, bytes4 _selector)\n        internal returns (bytes memory result)\n    {\n        bytes32 memoryAddress = delegateGetData(_target, _selector, 0, 0, 0);\n        assembly {\n            result := add(memoryAddress, mload(memoryAddress))\n        }\n    }\n\n    function finishUpgrade(address _target) public override {\n        super.finishUpgrade(_target);\n        storageValue = ContractV1(_target).storageValue();\n    }\n\n    function createEvent(uint256 _value) public {\n        emit EventV1(_value);\n    }\n}\n",
  "sourcePath": "contracts/proxy/ContractV1.sol",
  "type": "contract"
}