{
  "abi": [
    {
      "inputs": [
        {
          "internalType": "uint256",
          "name": "_constructorValue",
          "type": "uint256"
        }
      ],
      "stateMutability": "nonpayable",
      "type": "constructor"
    },
    {
      "anonymous": false,
      "inputs": [
        {
          "indexed": true,
          "internalType": "address",
          "name": "previousOwner",
          "type": "address"
        },
        {
          "indexed": true,
          "internalType": "address",
          "name": "newOwner",
          "type": "address"
        }
      ],
      "name": "OwnershipTransferred",
      "type": "event"
    },
    {
      "anonymous": false,
      "inputs": [
        {
          "indexed": true,
          "internalType": "address",
          "name": "testTarget",
          "type": "address"
        },
        {
          "indexed": false,
          "internalType": "address",
          "name": "sender",
          "type": "address"
        }
      ],
      "name": "StateVerified",
      "type": "event"
    },
    {
      "anonymous": false,
      "inputs": [
        {
          "indexed": true,
          "internalType": "address",
          "name": "target",
          "type": "address"
        },
        {
          "indexed": false,
          "internalType": "address",
          "name": "sender",
          "type": "address"
        }
      ],
      "name": "UpgradeFinished",
      "type": "event"
    },
    {
      "inputs": [],
      "name": "constructorValue",
      "outputs": [
        {
          "internalType": "uint256",
          "name": "",
          "type": "uint256"
        }
      ],
      "stateMutability": "view",
      "type": "function"
    },
    {
      "inputs": [],
      "name": "destroy",
      "outputs": [],
      "stateMutability": "nonpayable",
      "type": "function"
    },
    {
      "inputs": [
        {
          "internalType": "address",
          "name": "_target",
          "type": "address"
        }
      ],
      "name": "finishUpgrade",
      "outputs": [],
      "stateMutability": "nonpayable",
      "type": "function"
    },
    {
      "inputs": [],
      "name": "functionValue",
      "outputs": [
        {
          "internalType": "uint256",
          "name": "",
          "type": "uint256"
        }
      ],
      "stateMutability": "view",
      "type": "function"
    },
    {
      "inputs": [],
      "name": "isOwner",
      "outputs": [
        {
          "internalType": "bool",
          "name": "",
          "type": "bool"
        }
      ],
      "stateMutability": "view",
      "type": "function"
    },
    {
      "inputs": [],
      "name": "isUpgrade",
      "outputs": [
        {
          "internalType": "uint8",
          "name": "",
          "type": "uint8"
        }
      ],
      "stateMutability": "view",
      "type": "function"
    },
    {
      "inputs": [],
      "name": "owner",
      "outputs": [
        {
          "internalType": "address",
          "name": "",
          "type": "address"
        }
      ],
      "stateMutability": "view",
      "type": "function"
    },
    {
      "inputs": [],
      "name": "previousTarget",
      "outputs": [
        {
          "internalType": "address",
          "name": "",
          "type": "address"
        }
      ],
      "stateMutability": "view",
      "type": "function"
    },
    {
      "inputs": [],
      "name": "renounceOwnership",
      "outputs": [],
      "stateMutability": "nonpayable",
      "type": "function"
    },
    {
      "inputs": [
        {
          "internalType": "uint256",
          "name": "_functionValue",
          "type": "uint256"
        }
      ],
      "name": "setFunctionValue",
      "outputs": [],
      "stateMutability": "nonpayable",
      "type": "function"
    },
    {
      "inputs": [],
      "name": "target",
      "outputs": [
        {
          "internalType": "address",
          "name": "",
          "type": "address"
        }
      ],
      "stateMutability": "view",
      "type": "function"
    },
    {
      "inputs": [
        {
          "internalType": "address",
          "name": "newOwner",
          "type": "address"
        }
      ],
      "name": "transferOwnership",
      "outputs": [],
      "stateMutability": "nonpayable",
      "type": "function"
    },
    {
      "inputs": [
        {
          "internalType": "address",
          "name": "_testTarget",
          "type": "address"
        }
      ],
      "name": "verifyState",
      "outputs": [],
      "stateMutability": "nonpayable",
      "type": "function"
    }
  ],
  "bytecode": "608060405234801561001057600080fd5b506040516105e93803806105e98339818101604052602081101561003357600080fd5b5051600080546001600160a01b03191633178082556040516001600160a01b039190911691907f8be0079c531659141344cd1fd0a4f28419497f9722a3daafe3b4186f6b6457e0908290a3600455610559806100906000396000f3fe608060405234801561001057600080fd5b50600436106100cf5760003560e01c8063b9626d211161008c578063e38a303b11610066578063e38a303b14610193578063e8dccd06146101b1578063f2fde38b146101d7578063f9b436ea146101fd576100cf565b8063b9626d211461014b578063c1058ddd14610171578063d4b839921461018b576100cf565b80634b2cd118146100d4578063715018a6146100f857806383197ef0146101025780638da5cb5b1461010a5780638f32d59b14610112578063a99833fb1461012e575b600080fd5b6100dc610205565b604080516001600160a01b039092168252519081900360200190f35b610100610214565b005b61010061026f565b6100dc610272565b61011a610281565b604080519115158252519081900360200190f35b6101006004803603602081101561014457600080fd5b5035610292565b6101006004803603602081101561016157600080fd5b50356001600160a01b0316610297565b6101796102df565b60408051918252519081900360200190f35b6100dc6102e5565b61019b6102f4565b6040805160ff9092168252519081900360200190f35b610100600480360360208110156101c757600080fd5b50356001600160a01b0316610304565b610100600480360360208110156101ed57600080fd5b50356001600160a01b0316610378565b610179610392565b6002546001600160a01b031681565b61021c610281565b61022557600080fd5b600080546040516001600160a01b03909116907f8be0079c531659141344cd1fd0a4f28419497f9722a3daafe3b4186f6b6457e0908390a3600080546001600160a01b0319169055565b33ff5b6000546001600160a01b031690565b6000546001600160a01b0316331490565b600555565b6102a081610398565b6004546102b48263c1058ddd60e01b6103f2565b146102be57600080fd5b6005546102d282637cda1b7560e11b6103f2565b146102dc57600080fd5b50565b60045481565b6001546001600160a01b031681565b600254600160a01b900460ff1681565b61030d8161040b565b806001600160a01b031663c1058ddd6040518163ffffffff1660e01b815260040160206040518083038186803b15801561034657600080fd5b505afa15801561035a573d6000803e3d6000fd5b505050506040513d602081101561037057600080fd5b505160045550565b610380610281565b61038957600080fd5b6102dc81610465565b60055481565b60028054600160a01b900460ff16146103b057600080fd5b6040805133815290516001600160a01b038316917f1e8d98c1b4a0d9bd2e2371026b632eb2773fcce41742e41f02f574ab69868d4c919081900360200190a250565b60008061040284848380806104d3565b51949350505050565b60028054600160a01b900460ff161461042357600080fd5b6040805133815290516001600160a01b038316917fd55ec27c5c6316913ed8803c18cfd1bfefea953db909dcba6140744a9d8b0d1f919081900360200190a250565b6001600160a01b03811661047857600080fd5b600080546040516001600160a01b03808516939216917f8be0079c531659141344cd1fd0a4f28419497f9722a3daafe3b4186f6b6457e091a3600080546001600160a01b0319166001600160a01b0392909216919091179055565b60405184815283156104e6578260048201525b60018411156104f6578160248201525b6000808560200260040183895af48015610514573d6000833e610519565b600082fd5b509594505050505056fea26469706673582212204c9c9d506a648263d825473cb0c2094799cf22e82fb31db2a2ab7f3b1ee0648664736f6c63430006070033",
  "bytecodeSha1": "97ecb9d70cd69911c08ad3a6e4e72e0d754a6586",
  "compiler": {
    "evm_version": "berlin",
    "optimizer": {
      "enabled": true,
      "runs": 200
    },
    "version": "0.6.7"
  },
  "contractName": "Destroyable",
  "language": "Solidity",
  "natspec": {
    "details": "Contract that could be destroyed by selfdestruct",
    "methods": {
      "renounceOwnership()": {
        "details": "Allows the current owner to relinquish control of the contract.",
        "notice": "Renouncing to ownership will leave the contract without an owner. It will not be possible to call the functions with the `onlyOwner` modifier anymore."
      },
      "transferOwnership(address)": {
        "details": "Allows the current owner to transfer control of the contract to a newOwner.",
        "params": {
          "newOwner": "The address to transfer ownership to."
        }
      }
    }
  },
  "opcodes": "PUSH1 0x80 PUSH1 0x40 MSTORE CALLVALUE DUP1 ISZERO PUSH2 0x10 JUMPI PUSH1 0x0 DUP1 REVERT JUMPDEST POP PUSH1 0x4 CALLDATASIZE LT PUSH2 0xCF JUMPI PUSH1 0x0 CALLDATALOAD PUSH1 0xE0 SHR DUP1 PUSH4 0xB9626D21 GT PUSH2 0x8C JUMPI DUP1 PUSH4 0xE38A303B GT PUSH2 0x66 JUMPI DUP1 PUSH4 0xE38A303B EQ PUSH2 0x193 JUMPI DUP1 PUSH4 0xE8DCCD06 EQ PUSH2 0x1B1 JUMPI DUP1 PUSH4 0xF2FDE38B EQ PUSH2 0x1D7 JUMPI DUP1 PUSH4 0xF9B436EA EQ PUSH2 0x1FD JUMPI PUSH2 0xCF JUMP JUMPDEST DUP1 PUSH4 0xB9626D21 EQ PUSH2 0x14B JUMPI DUP1 PUSH4 0xC1058DDD EQ PUSH2 0x171 JUMPI DUP1 PUSH4 0xD4B83992 EQ PUSH2 0x18B JUMPI PUSH2 0xCF JUMP JUMPDEST DUP1 PUSH4 0x4B2CD118 EQ PUSH2 0xD4 JUMPI DUP1 PUSH4 0x715018A6 EQ PUSH2 0xF8 JUMPI DUP1 PUSH4 0x83197EF0 EQ PUSH2 0x102 JUMPI DUP1 PUSH4 0x8DA5CB5B EQ PUSH2 0x10A JUMPI DUP1 PUSH4 0x8F32D59B EQ PUSH2 0x112 JUMPI DUP1 PUSH4 0xA99833FB EQ PUSH2 0x12E JUMPI JUMPDEST PUSH1 0x0 DUP1 REVERT JUMPDEST PUSH2 0xDC PUSH2 0x205 JUMP JUMPDEST PUSH1 0x40 DUP1 MLOAD PUSH1 0x1 PUSH1 0x1 PUSH1 0xA0 SHL SUB SWAP1 SWAP3 AND DUP3 MSTORE MLOAD SWAP1 DUP2 SWAP1 SUB PUSH1 0x20 ADD SWAP1 RETURN JUMPDEST PUSH2 0x100 PUSH2 0x214 JUMP JUMPDEST STOP JUMPDEST PUSH2 0x100 PUSH2 0x26F JUMP JUMPDEST PUSH2 0xDC PUSH2 0x272 JUMP JUMPDEST PUSH2 0x11A PUSH2 0x281 JUMP JUMPDEST PUSH1 0x40 DUP1 MLOAD SWAP2 ISZERO ISZERO DUP3 MSTORE MLOAD SWAP1 DUP2 SWAP1 SUB PUSH1 0x20 ADD SWAP1 RETURN JUMPDEST PUSH2 0x100 PUSH1 0x4 DUP1 CALLDATASIZE SUB PUSH1 0x20 DUP2 LT ISZERO PUSH2 0x144 JUMPI PUSH1 0x0 DUP1 REVERT JUMPDEST POP CALLDATALOAD PUSH2 0x292 JUMP JUMPDEST PUSH2 0x100 PUSH1 0x4 DUP1 CALLDATASIZE SUB PUSH1 0x20 DUP2 LT ISZERO PUSH2 0x161 JUMPI PUSH1 0x0 DUP1 REVERT JUMPDEST POP CALLDATALOAD PUSH1 0x1 PUSH1 0x1 PUSH1 0xA0 SHL SUB AND PUSH2 0x297 JUMP JUMPDEST PUSH2 0x179 PUSH2 0x2DF JUMP JUMPDEST PUSH1 0x40 DUP1 MLOAD SWAP2 DUP3 MSTORE MLOAD SWAP1 DUP2 SWAP1 SUB PUSH1 0x20 ADD SWAP1 RETURN JUMPDEST PUSH2 0xDC PUSH2 0x2E5 JUMP JUMPDEST PUSH2 0x19B PUSH2 0x2F4 JUMP JUMPDEST PUSH1 0x40 DUP1 MLOAD PUSH1 0xFF SWAP1 SWAP3 AND DUP3 MSTORE MLOAD SWAP1 DUP2 SWAP1 SUB PUSH1 0x20 ADD SWAP1 RETURN JUMPDEST PUSH2 0x100 PUSH1 0x4 DUP1 CALLDATASIZE SUB PUSH1 0x20 DUP2 LT ISZERO PUSH2 0x1C7 JUMPI PUSH1 0x0 DUP1 REVERT JUMPDEST POP CALLDATALOAD PUSH1 0x1 PUSH1 0x1 PUSH1 0xA0 SHL SUB AND PUSH2 0x304 JUMP JUMPDEST PUSH2 0x100 PUSH1 0x4 DUP1 CALLDATASIZE SUB PUSH1 0x20 DUP2 LT ISZERO PUSH2 0x1ED JUMPI PUSH1 0x0 DUP1 REVERT JUMPDEST POP CALLDATALOAD PUSH1 0x1 PUSH1 0x1 PUSH1 0xA0 SHL SUB AND PUSH2 0x378 JUMP JUMPDEST PUSH2 0x179 PUSH2 0x392 JUMP JUMPDEST PUSH1 0x2 SLOAD PUSH1 0x1 PUSH1 0x1 PUSH1 0xA0 SHL SUB AND DUP2 JUMP JUMPDEST PUSH2 0x21C PUSH2 0x281 JUMP JUMPDEST PUSH2 0x225 JUMPI PUSH1 0x0 DUP1 REVERT JUMPDEST PUSH1 0x0 DUP1 SLOAD PUSH1 0x40 MLOAD PUSH1 0x1 PUSH1 0x1 PUSH1 0xA0 SHL SUB SWAP1 SWAP2 AND SWAP1 PUSH32 0x8BE0079C531659141344CD1FD0A4F28419497F9722A3DAAFE3B4186F6B6457E0 SWAP1 DUP4 SWAP1 LOG3 PUSH1 0x0 DUP1 SLOAD PUSH1 0x1 PUSH1 0x1 PUSH1 0xA0 SHL SUB NOT AND SWAP1 SSTORE JUMP JUMPDEST CALLER SELFDESTRUCT JUMPDEST PUSH1 0x0 SLOAD PUSH1 0x1 PUSH1 0x1 PUSH1 0xA0 SHL SUB AND SWAP1 JUMP JUMPDEST PUSH1 0x0 SLOAD PUSH1 0x1 PUSH1 0x1 PUSH1 0xA0 SHL SUB AND CALLER EQ SWAP1 JUMP JUMPDEST PUSH1 0x5 SSTORE JUMP JUMPDEST PUSH2 0x2A0 DUP2 PUSH2 0x398 JUMP JUMPDEST PUSH1 0x4 SLOAD PUSH2 0x2B4 DUP3 PUSH4 0xC1058DDD PUSH1 0xE0 SHL PUSH2 0x3F2 JUMP JUMPDEST EQ PUSH2 0x2BE JUMPI PUSH1 0x0 DUP1 REVERT JUMPDEST PUSH1 0x5 SLOAD PUSH2 0x2D2 DUP3 PUSH4 0x7CDA1B75 PUSH1 0xE1 SHL PUSH2 0x3F2 JUMP JUMPDEST EQ PUSH2 0x2DC JUMPI PUSH1 0x0 DUP1 REVERT JUMPDEST POP JUMP JUMPDEST PUSH1 0x4 SLOAD DUP2 JUMP JUMPDEST PUSH1 0x1 SLOAD PUSH1 0x1 PUSH1 0x1 PUSH1 0xA0 SHL SUB AND DUP2 JUMP JUMPDEST PUSH1 0x2 SLOAD PUSH1 0x1 PUSH1 0xA0 SHL SWAP1 DIV PUSH1 0xFF AND DUP2 JUMP JUMPDEST PUSH2 0x30D DUP2 PUSH2 0x40B JUMP JUMPDEST DUP1 PUSH1 0x1 PUSH1 0x1 PUSH1 0xA0 SHL SUB AND PUSH4 0xC1058DDD PUSH1 0x40 MLOAD DUP2 PUSH4 0xFFFFFFFF AND PUSH1 0xE0 SHL DUP2 MSTORE PUSH1 0x4 ADD PUSH1 0x20 PUSH1 0x40 MLOAD DUP1 DUP4 SUB DUP2 DUP7 DUP1 EXTCODESIZE ISZERO DUP1 ISZERO PUSH2 0x346 JUMPI PUSH1 0x0 DUP1 REVERT JUMPDEST POP GAS STATICCALL ISZERO DUP1 ISZERO PUSH2 0x35A JUMPI RETURNDATASIZE PUSH1 0x0 DUP1 RETURNDATACOPY RETURNDATASIZE PUSH1 0x0 REVERT JUMPDEST POP POP POP POP PUSH1 0x40 MLOAD RETURNDATASIZE PUSH1 0x20 DUP2 LT ISZERO PUSH2 0x370 JUMPI PUSH1 0x0 DUP1 REVERT JUMPDEST POP MLOAD PUSH1 0x4 SSTORE POP JUMP JUMPDEST PUSH2 0x380 PUSH2 0x281 JUMP JUMPDEST PUSH2 0x389 JUMPI PUSH1 0x0 DUP1 REVERT JUMPDEST PUSH2 0x2DC DUP2 PUSH2 0x465 JUMP JUMPDEST PUSH1 0x5 SLOAD DUP2 JUMP JUMPDEST PUSH1 0x2 DUP1 SLOAD PUSH1 0x1 PUSH1 0xA0 SHL SWAP1 DIV PUSH1 0xFF AND EQ PUSH2 0x3B0 JUMPI PUSH1 0x0 DUP1 REVERT JUMPDEST PUSH1 0x40 DUP1 MLOAD CALLER DUP2 MSTORE SWAP1 MLOAD PUSH1 0x1 PUSH1 0x1 PUSH1 0xA0 SHL SUB DUP4 AND SWAP2 PUSH32 0x1E8D98C1B4A0D9BD2E2371026B632EB2773FCCE41742E41F02F574AB69868D4C SWAP2 SWAP1 DUP2 SWAP1 SUB PUSH1 0x20 ADD SWAP1 LOG2 POP JUMP JUMPDEST PUSH1 0x0 DUP1 PUSH2 0x402 DUP5 DUP5 DUP4 DUP1 DUP1 PUSH2 0x4D3 JUMP JUMPDEST MLOAD SWAP5 SWAP4 POP POP POP POP JUMP JUMPDEST PUSH1 0x2 DUP1 SLOAD PUSH1 0x1 PUSH1 0xA0 SHL SWAP1 DIV PUSH1 0xFF AND EQ PUSH2 0x423 JUMPI PUSH1 0x0 DUP1 REVERT JUMPDEST PUSH1 0x40 DUP1 MLOAD CALLER DUP2 MSTORE SWAP1 MLOAD PUSH1 0x1 PUSH1 0x1 PUSH1 0xA0 SHL SUB DUP4 AND SWAP2 PUSH32 0xD55EC27C5C6316913ED8803C18CFD1BFEFEA953DB909DCBA6140744A9D8B0D1F SWAP2 SWAP1 DUP2 SWAP1 SUB PUSH1 0x20 ADD SWAP1 LOG2 POP JUMP JUMPDEST PUSH1 0x1 PUSH1 0x1 PUSH1 0xA0 SHL SUB DUP2 AND PUSH2 0x478 JUMPI PUSH1 0x0 DUP1 REVERT JUMPDEST PUSH1 0x0 DUP1 SLOAD PUSH1 0x40 MLOAD PUSH1 0x1 PUSH1 0x1 PUSH1 0xA0 SHL SUB DUP1 DUP6 AND SWAP4 SWAP3 AND SWAP2 PUSH32 0x8BE0079C531659141344CD1FD0A4F28419497F9722A3DAAFE3B4186F6B6457E0 SWAP2 LOG3 PUSH1 0x0 DUP1 SLOAD PUSH1 0x1 PUSH1 0x1 PUSH1 0xA0 SHL SUB NOT AND PUSH1 0x1 PUSH1 0x1 PUSH1 0xA0 SHL SUB SWAP3 SWAP1 SWAP3 AND SWAP2 SWAP1 SWAP2 OR SWAP1 SSTORE JUMP JUMPDEST PUSH1 0x40 MLOAD DUP5 DUP2 MSTORE DUP4 ISZERO PUSH2 0x4E6 JUMPI DUP3 PUSH1 0x4 DUP3 ADD MSTORE JUMPDEST PUSH1 0x1 DUP5 GT ISZERO PUSH2 0x4F6 JUMPI DUP2 PUSH1 0x24 DUP3 ADD MSTORE JUMPDEST PUSH1 0x0 DUP1 DUP6 PUSH1 0x20 MUL PUSH1 0x4 ADD DUP4 DUP10 GAS DELEGATECALL DUP1 ISZERO PUSH2 0x514 JUMPI RETURNDATASIZE PUSH1 0x0 DUP4 RETURNDATACOPY PUSH2 0x519 JUMP JUMPDEST PUSH1 0x0 DUP3 REVERT JUMPDEST POP SWAP6 SWAP5 POP POP POP POP POP JUMP INVALID LOG2 PUSH5 0x6970667358 0x22 SLT KECCAK256 0x4C SWAP13 SWAP14 POP PUSH11 0x648263D825473CB0C20947 SWAP10 0xCF 0x22 0xE8 0x2F 0xB3 SAR 0xB2 LOG2 0xAB PUSH32 0x3B1EE0648664736F6C6343000607003300000000000000000000000000000000 ",
  "sha1": "0b2fe92df624d06775d80acff42de8cdc65bc487",
  "source": "pragma solidity ^0.6.1;\n\n\nimport \"contracts/proxy/Upgradeable.sol\";\n\n\n/**\n* @dev Contract that could be destroyed by selfdestruct\n*/\ncontract Destroyable is Upgradeable {\n\n    uint256 public constructorValue;\n    uint256 public functionValue;\n\n    constructor(uint256 _constructorValue) public {\n        constructorValue = _constructorValue;\n    }\n\n    function setFunctionValue(uint256 _functionValue) public {\n        functionValue = _functionValue;\n    }\n\n    function verifyState(address _testTarget) public override {\n        super.verifyState(_testTarget);\n        require(delegateGet(_testTarget, this.constructorValue.selector) == constructorValue);\n        require(delegateGet(_testTarget, this.functionValue.selector) == functionValue);\n    }\n\n    function finishUpgrade(address _target) public override {\n        super.finishUpgrade(_target);\n        constructorValue = Destroyable(_target).constructorValue();\n    }\n\n    function destroy() public {\n        selfdestruct(msg.sender);\n    }\n\n}\n",
  "sourcePath": "contracts/proxy/Destroyable.sol",
  "type": "contract"
}