{
  "abi": [
    {
      "inputs": [
        {
          "internalType": "contract NuCypherToken",
          "name": "_token",
          "type": "address"
        },
        {
          "internalType": "contract StakingEscrow",
          "name": "_escrow",
          "type": "address"
        }
      ],
      "stateMutability": "nonpayable",
      "type": "constructor"
    },
    {
      "inputs": [
        {
          "internalType": "address",
          "name": "_worker",
          "type": "address"
        }
      ],
      "name": "bondWorker",
      "outputs": [],
      "stateMutability": "nonpayable",
      "type": "function"
    },
    {
      "inputs": [],
      "name": "commitToNextPeriod",
      "outputs": [],
      "stateMutability": "nonpayable",
      "type": "function"
    },
    {
      "inputs": [
        {
          "internalType": "uint256",
          "name": "_value",
          "type": "uint256"
        },
        {
          "internalType": "uint16",
          "name": "_periods",
          "type": "uint16"
        }
      ],
      "name": "deposit",
      "outputs": [],
      "stateMutability": "nonpayable",
      "type": "function"
    }
  ],
  "bytecode": "60c060405234801561001057600080fd5b506040516103c13803806103c18339818101604052604081101561003357600080fd5b5080516020909101516001600160601b0319606092831b8116608052911b1660a05260805160601c60a05160601c61033561008c60003980609f52806101435280610209528061026e52508061011452506103356000f3fe608060405234801561001057600080fd5b50600436106100415760003560e01c806341fe00a014610046578063845603a614610050578063dad6067614610077575b600080fd5b61004e61009d565b005b61004e6004803603604081101561006657600080fd5b508035906020013561ffff16610112565b61004e6004803603602081101561008d57600080fd5b50356001600160a01b031661026c565b7f00000000000000000000000000000000000000000000000000000000000000006001600160a01b03166341fe00a06040518163ffffffff1660e01b8152600401600060405180830381600087803b1580156100f857600080fd5b505af115801561010c573d6000803e3d6000fd5b50505050565b7f00000000000000000000000000000000000000000000000000000000000000006001600160a01b031663095ea7b37f0000000000000000000000000000000000000000000000000000000000000000846040518363ffffffff1660e01b815260040180836001600160a01b03166001600160a01b0316815260200182815260200192505050602060405180830381600087803b1580156101b257600080fd5b505af11580156101c6573d6000803e3d6000fd5b505050506040513d60208110156101dc57600080fd5b50506040805163422b01d360e11b81526004810184905261ffff8316602482015290516001600160a01b037f0000000000000000000000000000000000000000000000000000000000000000169163845603a691604480830192600092919082900301818387803b15801561025057600080fd5b505af1158015610264573d6000803e3d6000fd5b505050505050565b7f00000000000000000000000000000000000000000000000000000000000000006001600160a01b031663dad60676826040518263ffffffff1660e01b815260040180826001600160a01b03166001600160a01b03168152602001915050600060405180830381600087803b1580156102e457600080fd5b505af11580156102f8573d6000803e3d6000fd5b505050505056fea2646970667358221220d5e4b5e627ead8d1d2086fe444e225828b122b4d167dbadc5433040b558858f464736f6c63430006070033",
  "bytecodeSha1": "efda2b9acefd41238e0a836996a1b609e396cfb3",
  "compiler": {
    "evm_version": "berlin",
    "optimizer": {
      "enabled": true,
      "runs": 200
    },
    "version": "0.6.7"
  },
  "contractName": "Intermediary",
  "language": "Solidity",
  "natspec": {
    "methods": {},
    "notice": "Intermediary contract for testing worker"
  },
  "opcodes": "PUSH1 0x80 PUSH1 0x40 MSTORE CALLVALUE DUP1 ISZERO PUSH2 0x10 JUMPI PUSH1 0x0 DUP1 REVERT JUMPDEST POP PUSH1 0x4 CALLDATASIZE LT PUSH2 0x41 JUMPI PUSH1 0x0 CALLDATALOAD PUSH1 0xE0 SHR DUP1 PUSH4 0x41FE00A0 EQ PUSH2 0x46 JUMPI DUP1 PUSH4 0x845603A6 EQ PUSH2 0x50 JUMPI DUP1 PUSH4 0xDAD60676 EQ PUSH2 0x77 JUMPI JUMPDEST PUSH1 0x0 DUP1 REVERT JUMPDEST PUSH2 0x4E PUSH2 0x9D JUMP JUMPDEST STOP JUMPDEST PUSH2 0x4E PUSH1 0x4 DUP1 CALLDATASIZE SUB PUSH1 0x40 DUP2 LT ISZERO PUSH2 0x66 JUMPI PUSH1 0x0 DUP1 REVERT JUMPDEST POP DUP1 CALLDATALOAD SWAP1 PUSH1 0x20 ADD CALLDATALOAD PUSH2 0xFFFF AND PUSH2 0x112 JUMP JUMPDEST PUSH2 0x4E PUSH1 0x4 DUP1 CALLDATASIZE SUB PUSH1 0x20 DUP2 LT ISZERO PUSH2 0x8D JUMPI PUSH1 0x0 DUP1 REVERT JUMPDEST POP CALLDATALOAD PUSH1 0x1 PUSH1 0x1 PUSH1 0xA0 SHL SUB AND PUSH2 0x26C JUMP JUMPDEST PUSH32 0x0 PUSH1 0x1 PUSH1 0x1 PUSH1 0xA0 SHL SUB AND PUSH4 0x41FE00A0 PUSH1 0x40 MLOAD DUP2 PUSH4 0xFFFFFFFF AND PUSH1 0xE0 SHL DUP2 MSTORE PUSH1 0x4 ADD PUSH1 0x0 PUSH1 0x40 MLOAD DUP1 DUP4 SUB DUP2 PUSH1 0x0 DUP8 DUP1 EXTCODESIZE ISZERO DUP1 ISZERO PUSH2 0xF8 JUMPI PUSH1 0x0 DUP1 REVERT JUMPDEST POP GAS CALL ISZERO DUP1 ISZERO PUSH2 0x10C JUMPI RETURNDATASIZE PUSH1 0x0 DUP1 RETURNDATACOPY RETURNDATASIZE PUSH1 0x0 REVERT JUMPDEST POP POP POP POP JUMP JUMPDEST PUSH32 0x0 PUSH1 0x1 PUSH1 0x1 PUSH1 0xA0 SHL SUB AND PUSH4 0x95EA7B3 PUSH32 0x0 DUP5 PUSH1 0x40 MLOAD DUP4 PUSH4 0xFFFFFFFF AND PUSH1 0xE0 SHL DUP2 MSTORE PUSH1 0x4 ADD DUP1 DUP4 PUSH1 0x1 PUSH1 0x1 PUSH1 0xA0 SHL SUB AND PUSH1 0x1 PUSH1 0x1 PUSH1 0xA0 SHL SUB AND DUP2 MSTORE PUSH1 0x20 ADD DUP3 DUP2 MSTORE PUSH1 0x20 ADD SWAP3 POP POP POP PUSH1 0x20 PUSH1 0x40 MLOAD DUP1 DUP4 SUB DUP2 PUSH1 0x0 DUP8 DUP1 EXTCODESIZE ISZERO DUP1 ISZERO PUSH2 0x1B2 JUMPI PUSH1 0x0 DUP1 REVERT JUMPDEST POP GAS CALL ISZERO DUP1 ISZERO PUSH2 0x1C6 JUMPI RETURNDATASIZE PUSH1 0x0 DUP1 RETURNDATACOPY RETURNDATASIZE PUSH1 0x0 REVERT JUMPDEST POP POP POP POP PUSH1 0x40 MLOAD RETURNDATASIZE PUSH1 0x20 DUP2 LT ISZERO PUSH2 0x1DC JUMPI PUSH1 0x0 DUP1 REVERT JUMPDEST POP POP PUSH1 0x40 DUP1 MLOAD PUSH4 0x422B01D3 PUSH1 0xE1 SHL DUP2 MSTORE PUSH1 0x4 DUP2 ADD DUP5 SWAP1 MSTORE PUSH2 0xFFFF DUP4 AND PUSH1 0x24 DUP3 ADD MSTORE SWAP1 MLOAD PUSH1 0x1 PUSH1 0x1 PUSH1 0xA0 SHL SUB PUSH32 0x0 AND SWAP2 PUSH4 0x845603A6 SWAP2 PUSH1 0x44 DUP1 DUP4 ADD SWAP3 PUSH1 0x0 SWAP3 SWAP2 SWAP1 DUP3 SWAP1 SUB ADD DUP2 DUP4 DUP8 DUP1 EXTCODESIZE ISZERO DUP1 ISZERO PUSH2 0x250 JUMPI PUSH1 0x0 DUP1 REVERT JUMPDEST POP GAS CALL ISZERO DUP1 ISZERO PUSH2 0x264 JUMPI RETURNDATASIZE PUSH1 0x0 DUP1 RETURNDATACOPY RETURNDATASIZE PUSH1 0x0 REVERT JUMPDEST POP POP POP POP POP POP JUMP JUMPDEST PUSH32 0x0 PUSH1 0x1 PUSH1 0x1 PUSH1 0xA0 SHL SUB AND PUSH4 0xDAD60676 DUP3 PUSH1 0x40 MLOAD DUP3 PUSH4 0xFFFFFFFF AND PUSH1 0xE0 SHL DUP2 MSTORE PUSH1 0x4 ADD DUP1 DUP3 PUSH1 0x1 PUSH1 0x1 PUSH1 0xA0 SHL SUB AND PUSH1 0x1 PUSH1 0x1 PUSH1 0xA0 SHL SUB AND DUP2 MSTORE PUSH1 0x20 ADD SWAP2 POP POP PUSH1 0x0 PUSH1 0x40 MLOAD DUP1 DUP4 SUB DUP2 PUSH1 0x0 DUP8 DUP1 EXTCODESIZE ISZERO DUP1 ISZERO PUSH2 0x2E4 JUMPI PUSH1 0x0 DUP1 REVERT JUMPDEST POP GAS CALL ISZERO DUP1 ISZERO PUSH2 0x2F8 JUMPI RETURNDATASIZE PUSH1 0x0 DUP1 RETURNDATACOPY RETURNDATASIZE PUSH1 0x0 REVERT JUMPDEST POP POP POP POP POP JUMP INVALID LOG2 PUSH5 0x6970667358 0x22 SLT KECCAK256 0xD5 0xE4 0xB5 0xE6 0x27 0xEA 0xD8 0xD1 0xD2 ADDMOD PUSH16 0xE444E225828B122B4D167DBADC543304 SIGNEXTEND SSTORE DUP9 PC DELEGATECALL PUSH5 0x736F6C6343 STOP MOD SMOD STOP CALLER ",
  "sha1": "8a28d9d2c33d3765d9b46b749d3cdafbddbe45cd",
  "source": "pragma solidity ^0.6.5;\n\n\nimport \"contracts/StakingEscrow.sol\";\nimport \"contracts/NuCypherToken.sol\";\n\n\n/**\n* @notice Upgrade to this contract must lead to fail\n*/\ncontract StakingEscrowBad is StakingEscrow {\n\n    constructor(\n        NuCypherToken _token,\n        uint32 _hoursPerPeriod,\n        uint256 _issuanceDecayCoefficient,\n        uint256 _lockDurationCoefficient1,\n        uint256 _lockDurationCoefficient2,\n        uint16 _maximumRewardedPeriods,\n        uint256 _firstPhaseTotalSupply,\n        uint256 _firstPhaseMaxIssuance,\n        uint16 _minLockedPeriods,\n        uint256 _minAllowableLockedTokens,\n        uint256 _maxAllowableLockedTokens,\n        uint16 _minWorkerPeriods,\n        bool _isTestContract\n    )\n        public\n        StakingEscrow(\n            _token,\n            _hoursPerPeriod,\n            _issuanceDecayCoefficient,\n            _lockDurationCoefficient1,\n            _lockDurationCoefficient2,\n            _maximumRewardedPeriods,\n            _firstPhaseTotalSupply,\n            _firstPhaseMaxIssuance,\n            _minLockedPeriods,\n            _minAllowableLockedTokens,\n            _maxAllowableLockedTokens,\n            _minWorkerPeriods,\n            _isTestContract\n        )\n    {\n    }\n\n    function getSubStakeInfo(address, uint256) public view override returns (uint16, uint16, uint16, uint128) {}\n\n}\n\n\n/**\n* @notice Contract for testing upgrading the StakingEscrow contract\n*/\ncontract StakingEscrowV2Mock is StakingEscrow {\n\n    uint256 public valueToCheck;\n\n    constructor(\n        NuCypherToken _token,\n        uint32 _hoursPerPeriod,\n        uint256 _issuanceDecayCoefficient,\n        uint256 _lockDurationCoefficient1,\n        uint256 _lockDurationCoefficient2,\n        uint16 _maximumRewardedPeriods,\n        uint256 _firstPhaseTotalSupply,\n        uint256 _firstPhaseMaxIssuance,\n        uint16 _minLockedPeriods,\n        uint256 _minAllowableLockedTokens,\n        uint256 _maxAllowableLockedTokens,\n        uint16 _minWorkerPeriods,\n        bool _isTestContract,\n        uint256 _valueToCheck\n    )\n        public\n        StakingEscrow(\n            _token,\n            _hoursPerPeriod,\n            _issuanceDecayCoefficient,\n            _lockDurationCoefficient1,\n            _lockDurationCoefficient2,\n            _maximumRewardedPeriods,\n            _firstPhaseTotalSupply,\n            _firstPhaseMaxIssuance,\n            _minLockedPeriods,\n            _minAllowableLockedTokens,\n            _maxAllowableLockedTokens,\n            _minWorkerPeriods,\n            _isTestContract\n        )\n    {\n        valueToCheck = _valueToCheck;\n    }\n\n    function setValueToCheck(uint256 _valueToCheck) public {\n        valueToCheck = _valueToCheck;\n    }\n\n    function verifyState(address _testTarget) public override {\n        super.verifyState(_testTarget);\n        require(delegateGet(_testTarget, this.valueToCheck.selector) == valueToCheck);\n    }\n\n    function finishUpgrade(address _target) public override onlyWhileUpgrading {\n        StakingEscrowV2Mock escrow = StakingEscrowV2Mock(_target);\n        valueToCheck = escrow.valueToCheck();\n        emit UpgradeFinished(_target, msg.sender);\n    }\n}\n\n\n/**\n* @notice Contract for testing staking escrow contract\n*/\ncontract PolicyManagerForStakingEscrowMock {\n\n    StakingEscrow public immutable escrow;\n    mapping (address => uint16[]) public nodes;\n\n    constructor(address, StakingEscrow _escrow) public {\n        escrow = _escrow;\n    }\n\n    function register(address _node, uint16 _period) external {\n        nodes[_node].push(_period);\n    }\n\n    function updateFee(address _node, uint16 _period) external {\n        nodes[_node].push(_period);\n    }\n\n    function setDefaultFeeDelta(address _node, uint16 _period) external {\n        nodes[_node].push(_period);\n    }\n\n    function getPeriodsLength(address _node) public view returns (uint256) {\n        return nodes[_node].length;\n    }\n\n    function getPeriod(address _node, uint256 _index) public view returns (uint16) {\n        return nodes[_node][_index];\n    }\n\n}\n\n\n/**\n* @notice Contract for testing staking escrow contract\n*/\ncontract AdjudicatorForStakingEscrowMock {\n\n    StakingEscrow public immutable escrow;\n\n    constructor(StakingEscrow _escrow) public {\n        escrow = _escrow;\n    }\n\n    function slashStaker(\n        address _staker,\n        uint256 _penalty,\n        address _investigator,\n        uint256 _reward\n    )\n        public\n    {\n        escrow.slashStaker(_staker, _penalty, _investigator, _reward);\n    }\n}\n\n/**\n* @notice Intermediary contract for testing worker\n*/\ncontract Intermediary {\n\n    NuCypherToken immutable token;\n    StakingEscrow immutable escrow;\n\n    constructor(NuCypherToken _token, StakingEscrow _escrow) public {\n        token = _token;\n        escrow = _escrow;\n    }\n\n    function bondWorker(address _worker) external {\n        escrow.bondWorker(_worker);\n    }\n\n    function deposit(uint256 _value, uint16 _periods) external {\n        token.approve(address(escrow), _value);\n        escrow.deposit(_value, _periods);\n    }\n\n    function commitToNextPeriod() external {\n        escrow.commitToNextPeriod();\n    }\n\n}\n\n\n/**\n* @notice Contract for testing staking escrow contract\n*/\ncontract WorkLockForStakingEscrowMock {\n\n    StakingEscrow public immutable escrow;\n\n    constructor(StakingEscrow _escrow) public {\n        escrow = _escrow;\n    }\n\n    function setWorkMeasurement(address _staker, bool _measureWork) external returns (uint256) {\n        return escrow.setWorkMeasurement(_staker, _measureWork);\n    }\n}\n",
  "sourcePath": "contracts/StakingEscrowTestSet.sol",
  "type": "contract"
}