{
  "abi": [
    {
      "anonymous": false,
      "inputs": [
        {
          "indexed": true,
          "internalType": "address",
          "name": "previousOwner",
          "type": "address"
        },
        {
          "indexed": true,
          "internalType": "address",
          "name": "newOwner",
          "type": "address"
        }
      ],
      "name": "OwnershipTransferred",
      "type": "event"
    },
    {
      "anonymous": false,
      "inputs": [
        {
          "indexed": true,
          "internalType": "address",
          "name": "testTarget",
          "type": "address"
        },
        {
          "indexed": false,
          "internalType": "address",
          "name": "sender",
          "type": "address"
        }
      ],
      "name": "StateVerified",
      "type": "event"
    },
    {
      "anonymous": false,
      "inputs": [
        {
          "indexed": true,
          "internalType": "address",
          "name": "target",
          "type": "address"
        },
        {
          "indexed": false,
          "internalType": "address",
          "name": "sender",
          "type": "address"
        }
      ],
      "name": "UpgradeFinished",
      "type": "event"
    },
    {
      "inputs": [],
      "name": "currentMintingPeriod",
      "outputs": [
        {
          "internalType": "uint16",
          "name": "",
          "type": "uint16"
        }
      ],
      "stateMutability": "view",
      "type": "function"
    },
    {
      "inputs": [],
      "name": "currentSupply2",
      "outputs": [
        {
          "internalType": "uint256",
          "name": "",
          "type": "uint256"
        }
      ],
      "stateMutability": "view",
      "type": "function"
    },
    {
      "inputs": [
        {
          "internalType": "address",
          "name": "_target",
          "type": "address"
        }
      ],
      "name": "finishUpgrade",
      "outputs": [],
      "stateMutability": "nonpayable",
      "type": "function"
    },
    {
      "inputs": [],
      "name": "isOwner",
      "outputs": [
        {
          "internalType": "bool",
          "name": "",
          "type": "bool"
        }
      ],
      "stateMutability": "view",
      "type": "function"
    },
    {
      "inputs": [],
      "name": "isUpgrade",
      "outputs": [
        {
          "internalType": "uint8",
          "name": "",
          "type": "uint8"
        }
      ],
      "stateMutability": "view",
      "type": "function"
    },
    {
      "inputs": [],
      "name": "owner",
      "outputs": [
        {
          "internalType": "address",
          "name": "",
          "type": "address"
        }
      ],
      "stateMutability": "view",
      "type": "function"
    },
    {
      "inputs": [],
      "name": "previousTarget",
      "outputs": [
        {
          "internalType": "address",
          "name": "",
          "type": "address"
        }
      ],
      "stateMutability": "view",
      "type": "function"
    },
    {
      "inputs": [],
      "name": "renounceOwnership",
      "outputs": [],
      "stateMutability": "nonpayable",
      "type": "function"
    },
    {
      "inputs": [],
      "name": "target",
      "outputs": [
        {
          "internalType": "address",
          "name": "",
          "type": "address"
        }
      ],
      "stateMutability": "view",
      "type": "function"
    },
    {
      "inputs": [
        {
          "internalType": "address",
          "name": "newOwner",
          "type": "address"
        }
      ],
      "name": "transferOwnership",
      "outputs": [],
      "stateMutability": "nonpayable",
      "type": "function"
    },
    {
      "inputs": [
        {
          "internalType": "address",
          "name": "_testTarget",
          "type": "address"
        }
      ],
      "name": "verifyState",
      "outputs": [],
      "stateMutability": "nonpayable",
      "type": "function"
    }
  ],
  "bytecode": "60806040819052600080546001600160a01b03191633178082556001600160a01b0316917f8be0079c531659141344cd1fd0a4f28419497f9722a3daafe3b4186f6b6457e0908290a36103ff806100576000396000f3fe608060405234801561001057600080fd5b50600436106100a95760003560e01c8063b9626d2111610071578063b9626d211461011f578063d4b8399214610145578063e38a303b1461014d578063e8dccd061461016b578063f27806a414610191578063f2fde38b146101ab576100a9565b80630f64ab14146100ae5780634b2cd118146100cd578063715018a6146100f15780638da5cb5b146100fb5780638f32d59b14610103575b600080fd5b6100b66101d1565b6040805161ffff9092168252519081900360200190f35b6100d56101db565b604080516001600160a01b039092168252519081900360200190f35b6100f96101ea565b005b6100d5610245565b61010b610254565b604080519115158252519081900360200190f35b6100f96004803603602081101561013557600080fd5b50356001600160a01b0316610265565b6100d56102bf565b6101556102ce565b6040805160ff9092168252519081900360200190f35b6100f96004803603602081101561018157600080fd5b50356001600160a01b03166102de565b610199610338565b60408051918252519081900360200190f35b6100f9600480360360208110156101c157600080fd5b50356001600160a01b031661033e565b60045461ffff1681565b6002546001600160a01b031681565b6101f2610254565b6101fb57600080fd5b600080546040516001600160a01b03909116907f8be0079c531659141344cd1fd0a4f28419497f9722a3daafe3b4186f6b6457e0908390a3600080546001600160a01b0319169055565b6000546001600160a01b031690565b6000546001600160a01b0316331490565b60028054600160a01b900460ff161461027d57600080fd5b6040805133815290516001600160a01b038316917f1e8d98c1b4a0d9bd2e2371026b632eb2773fcce41742e41f02f574ab69868d4c919081900360200190a250565b6001546001600160a01b031681565b600254600160a01b900460ff1681565b60028054600160a01b900460ff16146102f657600080fd5b6040805133815290516001600160a01b038316917fd55ec27c5c6316913ed8803c18cfd1bfefea953db909dcba6140744a9d8b0d1f919081900360200190a250565b60055481565b610346610254565b61034f57600080fd5b6103588161035b565b50565b6001600160a01b03811661036e57600080fd5b600080546040516001600160a01b03808516939216917f8be0079c531659141344cd1fd0a4f28419497f9722a3daafe3b4186f6b6457e091a3600080546001600160a01b0319166001600160a01b039290921691909117905556fea2646970667358221220fc28c66e26386368b9a97cc460d518fb4eb2a38dbea03380de0b30f8637b44e964736f6c63430006070033",
  "bytecodeSha1": "85a384df41caaa3cb6cd576aec84d82749c56c76",
  "compiler": {
    "evm_version": "berlin",
    "optimizer": {
      "enabled": true,
      "runs": 200
    },
    "version": "0.6.7"
  },
  "contractName": "IssuerBad",
  "language": "Solidity",
  "natspec": {
    "methods": {
      "finishUpgrade(address)": {
        "details": "Copy values from the new target to the current storage",
        "params": {
          "_target": "New target contract address"
        }
      },
      "renounceOwnership()": {
        "details": "Allows the current owner to relinquish control of the contract.",
        "notice": "Renouncing to ownership will leave the contract without an owner. It will not be possible to call the functions with the `onlyOwner` modifier anymore."
      },
      "transferOwnership(address)": {
        "details": "Allows the current owner to transfer control of the contract to a newOwner.",
        "params": {
          "newOwner": "The address to transfer ownership to."
        }
      },
      "verifyState(address)": {
        "details": "Method for verifying storage state. Should check that new target contract returns right storage value"
      }
    },
    "notice": "Upgrade to this contract must lead to fail"
  },
  "opcodes": "PUSH1 0x80 PUSH1 0x40 MSTORE CALLVALUE DUP1 ISZERO PUSH2 0x10 JUMPI PUSH1 0x0 DUP1 REVERT JUMPDEST POP PUSH1 0x4 CALLDATASIZE LT PUSH2 0xA9 JUMPI PUSH1 0x0 CALLDATALOAD PUSH1 0xE0 SHR DUP1 PUSH4 0xB9626D21 GT PUSH2 0x71 JUMPI DUP1 PUSH4 0xB9626D21 EQ PUSH2 0x11F JUMPI DUP1 PUSH4 0xD4B83992 EQ PUSH2 0x145 JUMPI DUP1 PUSH4 0xE38A303B EQ PUSH2 0x14D JUMPI DUP1 PUSH4 0xE8DCCD06 EQ PUSH2 0x16B JUMPI DUP1 PUSH4 0xF27806A4 EQ PUSH2 0x191 JUMPI DUP1 PUSH4 0xF2FDE38B EQ PUSH2 0x1AB JUMPI PUSH2 0xA9 JUMP JUMPDEST DUP1 PUSH4 0xF64AB14 EQ PUSH2 0xAE JUMPI DUP1 PUSH4 0x4B2CD118 EQ PUSH2 0xCD JUMPI DUP1 PUSH4 0x715018A6 EQ PUSH2 0xF1 JUMPI DUP1 PUSH4 0x8DA5CB5B EQ PUSH2 0xFB JUMPI DUP1 PUSH4 0x8F32D59B EQ PUSH2 0x103 JUMPI JUMPDEST PUSH1 0x0 DUP1 REVERT JUMPDEST PUSH2 0xB6 PUSH2 0x1D1 JUMP JUMPDEST PUSH1 0x40 DUP1 MLOAD PUSH2 0xFFFF SWAP1 SWAP3 AND DUP3 MSTORE MLOAD SWAP1 DUP2 SWAP1 SUB PUSH1 0x20 ADD SWAP1 RETURN JUMPDEST PUSH2 0xD5 PUSH2 0x1DB JUMP JUMPDEST PUSH1 0x40 DUP1 MLOAD PUSH1 0x1 PUSH1 0x1 PUSH1 0xA0 SHL SUB SWAP1 SWAP3 AND DUP3 MSTORE MLOAD SWAP1 DUP2 SWAP1 SUB PUSH1 0x20 ADD SWAP1 RETURN JUMPDEST PUSH2 0xF9 PUSH2 0x1EA JUMP JUMPDEST STOP JUMPDEST PUSH2 0xD5 PUSH2 0x245 JUMP JUMPDEST PUSH2 0x10B PUSH2 0x254 JUMP JUMPDEST PUSH1 0x40 DUP1 MLOAD SWAP2 ISZERO ISZERO DUP3 MSTORE MLOAD SWAP1 DUP2 SWAP1 SUB PUSH1 0x20 ADD SWAP1 RETURN JUMPDEST PUSH2 0xF9 PUSH1 0x4 DUP1 CALLDATASIZE SUB PUSH1 0x20 DUP2 LT ISZERO PUSH2 0x135 JUMPI PUSH1 0x0 DUP1 REVERT JUMPDEST POP CALLDATALOAD PUSH1 0x1 PUSH1 0x1 PUSH1 0xA0 SHL SUB AND PUSH2 0x265 JUMP JUMPDEST PUSH2 0xD5 PUSH2 0x2BF JUMP JUMPDEST PUSH2 0x155 PUSH2 0x2CE JUMP JUMPDEST PUSH1 0x40 DUP1 MLOAD PUSH1 0xFF SWAP1 SWAP3 AND DUP3 MSTORE MLOAD SWAP1 DUP2 SWAP1 SUB PUSH1 0x20 ADD SWAP1 RETURN JUMPDEST PUSH2 0xF9 PUSH1 0x4 DUP1 CALLDATASIZE SUB PUSH1 0x20 DUP2 LT ISZERO PUSH2 0x181 JUMPI PUSH1 0x0 DUP1 REVERT JUMPDEST POP CALLDATALOAD PUSH1 0x1 PUSH1 0x1 PUSH1 0xA0 SHL SUB AND PUSH2 0x2DE JUMP JUMPDEST PUSH2 0x199 PUSH2 0x338 JUMP JUMPDEST PUSH1 0x40 DUP1 MLOAD SWAP2 DUP3 MSTORE MLOAD SWAP1 DUP2 SWAP1 SUB PUSH1 0x20 ADD SWAP1 RETURN JUMPDEST PUSH2 0xF9 PUSH1 0x4 DUP1 CALLDATASIZE SUB PUSH1 0x20 DUP2 LT ISZERO PUSH2 0x1C1 JUMPI PUSH1 0x0 DUP1 REVERT JUMPDEST POP CALLDATALOAD PUSH1 0x1 PUSH1 0x1 PUSH1 0xA0 SHL SUB AND PUSH2 0x33E JUMP JUMPDEST PUSH1 0x4 SLOAD PUSH2 0xFFFF AND DUP2 JUMP JUMPDEST PUSH1 0x2 SLOAD PUSH1 0x1 PUSH1 0x1 PUSH1 0xA0 SHL SUB AND DUP2 JUMP JUMPDEST PUSH2 0x1F2 PUSH2 0x254 JUMP JUMPDEST PUSH2 0x1FB JUMPI PUSH1 0x0 DUP1 REVERT JUMPDEST PUSH1 0x0 DUP1 SLOAD PUSH1 0x40 MLOAD PUSH1 0x1 PUSH1 0x1 PUSH1 0xA0 SHL SUB SWAP1 SWAP2 AND SWAP1 PUSH32 0x8BE0079C531659141344CD1FD0A4F28419497F9722A3DAAFE3B4186F6B6457E0 SWAP1 DUP4 SWAP1 LOG3 PUSH1 0x0 DUP1 SLOAD PUSH1 0x1 PUSH1 0x1 PUSH1 0xA0 SHL SUB NOT AND SWAP1 SSTORE JUMP JUMPDEST PUSH1 0x0 SLOAD PUSH1 0x1 PUSH1 0x1 PUSH1 0xA0 SHL SUB AND SWAP1 JUMP JUMPDEST PUSH1 0x0 SLOAD PUSH1 0x1 PUSH1 0x1 PUSH1 0xA0 SHL SUB AND CALLER EQ SWAP1 JUMP JUMPDEST PUSH1 0x2 DUP1 SLOAD PUSH1 0x1 PUSH1 0xA0 SHL SWAP1 DIV PUSH1 0xFF AND EQ PUSH2 0x27D JUMPI PUSH1 0x0 DUP1 REVERT JUMPDEST PUSH1 0x40 DUP1 MLOAD CALLER DUP2 MSTORE SWAP1 MLOAD PUSH1 0x1 PUSH1 0x1 PUSH1 0xA0 SHL SUB DUP4 AND SWAP2 PUSH32 0x1E8D98C1B4A0D9BD2E2371026B632EB2773FCCE41742E41F02F574AB69868D4C SWAP2 SWAP1 DUP2 SWAP1 SUB PUSH1 0x20 ADD SWAP1 LOG2 POP JUMP JUMPDEST PUSH1 0x1 SLOAD PUSH1 0x1 PUSH1 0x1 PUSH1 0xA0 SHL SUB AND DUP2 JUMP JUMPDEST PUSH1 0x2 SLOAD PUSH1 0x1 PUSH1 0xA0 SHL SWAP1 DIV PUSH1 0xFF AND DUP2 JUMP JUMPDEST PUSH1 0x2 DUP1 SLOAD PUSH1 0x1 PUSH1 0xA0 SHL SWAP1 DIV PUSH1 0xFF AND EQ PUSH2 0x2F6 JUMPI PUSH1 0x0 DUP1 REVERT JUMPDEST PUSH1 0x40 DUP1 MLOAD CALLER DUP2 MSTORE SWAP1 MLOAD PUSH1 0x1 PUSH1 0x1 PUSH1 0xA0 SHL SUB DUP4 AND SWAP2 PUSH32 0xD55EC27C5C6316913ED8803C18CFD1BFEFEA953DB909DCBA6140744A9D8B0D1F SWAP2 SWAP1 DUP2 SWAP1 SUB PUSH1 0x20 ADD SWAP1 LOG2 POP JUMP JUMPDEST PUSH1 0x5 SLOAD DUP2 JUMP JUMPDEST PUSH2 0x346 PUSH2 0x254 JUMP JUMPDEST PUSH2 0x34F JUMPI PUSH1 0x0 DUP1 REVERT JUMPDEST PUSH2 0x358 DUP2 PUSH2 0x35B JUMP JUMPDEST POP JUMP JUMPDEST PUSH1 0x1 PUSH1 0x1 PUSH1 0xA0 SHL SUB DUP2 AND PUSH2 0x36E JUMPI PUSH1 0x0 DUP1 REVERT JUMPDEST PUSH1 0x0 DUP1 SLOAD PUSH1 0x40 MLOAD PUSH1 0x1 PUSH1 0x1 PUSH1 0xA0 SHL SUB DUP1 DUP6 AND SWAP4 SWAP3 AND SWAP2 PUSH32 0x8BE0079C531659141344CD1FD0A4F28419497F9722A3DAAFE3B4186F6B6457E0 SWAP2 LOG3 PUSH1 0x0 DUP1 SLOAD PUSH1 0x1 PUSH1 0x1 PUSH1 0xA0 SHL SUB NOT AND PUSH1 0x1 PUSH1 0x1 PUSH1 0xA0 SHL SUB SWAP3 SWAP1 SWAP3 AND SWAP2 SWAP1 SWAP2 OR SWAP1 SSTORE JUMP INVALID LOG2 PUSH5 0x6970667358 0x22 SLT KECCAK256 0xFC 0x28 0xC6 PUSH15 0x26386368B9A97CC460D518FB4EB2A3 DUP14 0xBE LOG0 CALLER DUP1 0xDE SIGNEXTEND ADDRESS 0xF8 PUSH4 0x7B44E964 PUSH20 0x6F6C634300060700330000000000000000000000 ",
  "sha1": "af67854004e6f9742005f9fd37e87853563ebb7d",
  "source": "pragma solidity ^0.6.5;\n\n\nimport \"contracts/Issuer.sol\";\nimport \"contracts/NuCypherToken.sol\";\nimport \"contracts/proxy/Upgradeable.sol\";\n\n\n/**\n* @dev Contract for testing internal methods in the Issuer contract\n*/\ncontract IssuerMock is Issuer {\n\n    constructor(\n        NuCypherToken _token,\n        uint32 _hoursPerPeriod,\n        uint256 _issuanceDecayCoefficient,\n        uint256 _lockDurationCoefficient1,\n        uint256 _lockDurationCoefficient2,\n        uint16 _maximumRewardedPeriods,\n        uint256 _firstPhaseTotalSupply,\n        uint256 _firstPhaseMaxIssuance\n    )\n        public\n        Issuer(\n            _token,\n            _hoursPerPeriod,\n            _issuanceDecayCoefficient,\n            _lockDurationCoefficient1,\n            _lockDurationCoefficient2,\n            _maximumRewardedPeriods,\n            _firstPhaseTotalSupply,\n            _firstPhaseMaxIssuance\n        )\n    {\n    }\n\n    function testMint(\n        uint16 _currentPeriod,\n        uint256 _lockedValue,\n        uint256 _totalLockedValue,\n        uint16 _allLockedPeriods\n    )\n        public returns (uint256 amount)\n    {\n        amount = mint(\n            _currentPeriod,\n            _lockedValue,\n            _totalLockedValue,\n            _allLockedPeriods);\n        token.transfer(msg.sender, amount);\n    }\n\n}\n\n\n/**\n* @notice Upgrade to this contract must lead to fail\n*/\ncontract IssuerBad is Upgradeable {\n\n    uint16 public currentMintingPeriod;\n//    uint256 public currentSupply1;\n    uint256 public currentSupply2;\n\n}\n\n\n/**\n* @notice Contract for testing upgrading the Issuer contract\n*/\ncontract IssuerV2Mock is Issuer {\n\n    uint256 public valueToCheck;\n\n    constructor(\n        NuCypherToken _token,\n        uint32 _hoursPerPeriod,\n        uint256 _issuanceDecayCoefficient,\n        uint256 _lockDurationCoefficient1,\n        uint256 _lockDurationCoefficient2,\n        uint16 _maximumRewardedPeriods,\n        uint256 _firstPhaseTotalSupply,\n        uint256 _firstPhaseMaxIssuance\n    )\n        public\n        Issuer(\n            _token,\n            _hoursPerPeriod,\n            _issuanceDecayCoefficient,\n            _lockDurationCoefficient1,\n            _lockDurationCoefficient2,\n            _maximumRewardedPeriods,\n            _firstPhaseTotalSupply,\n            _firstPhaseMaxIssuance\n        )\n    {\n    }\n\n    function setValueToCheck(uint256 _valueToCheck) public {\n        valueToCheck = _valueToCheck;\n    }\n\n    function verifyState(address _testTarget) public override {\n        super.verifyState(_testTarget);\n        require(delegateGet(_testTarget, this.valueToCheck.selector) == valueToCheck);\n    }\n}\n",
  "sourcePath": "contracts/IssuerTestSet.sol",
  "type": "contract"
}