{
  "abi": [
    {
      "inputs": [
        {
          "internalType": "contract NuCypherToken",
          "name": "_token",
          "type": "address"
        },
        {
          "internalType": "uint32",
          "name": "_hoursPerPeriod",
          "type": "uint32"
        },
        {
          "internalType": "uint256",
          "name": "_issuanceDecayCoefficient",
          "type": "uint256"
        },
        {
          "internalType": "uint256",
          "name": "_lockDurationCoefficient1",
          "type": "uint256"
        },
        {
          "internalType": "uint256",
          "name": "_lockDurationCoefficient2",
          "type": "uint256"
        },
        {
          "internalType": "uint16",
          "name": "_maximumRewardedPeriods",
          "type": "uint16"
        },
        {
          "internalType": "uint256",
          "name": "_firstPhaseTotalSupply",
          "type": "uint256"
        },
        {
          "internalType": "uint256",
          "name": "_firstPhaseMaxIssuance",
          "type": "uint256"
        }
      ],
      "stateMutability": "nonpayable",
      "type": "constructor"
    },
    {
      "anonymous": false,
      "inputs": [
        {
          "indexed": true,
          "internalType": "address",
          "name": "sender",
          "type": "address"
        },
        {
          "indexed": false,
          "internalType": "uint256",
          "name": "value",
          "type": "uint256"
        }
      ],
      "name": "Donated",
      "type": "event"
    },
    {
      "anonymous": false,
      "inputs": [
        {
          "indexed": false,
          "internalType": "uint256",
          "name": "reservedReward",
          "type": "uint256"
        }
      ],
      "name": "Initialized",
      "type": "event"
    },
    {
      "anonymous": false,
      "inputs": [
        {
          "indexed": true,
          "internalType": "address",
          "name": "previousOwner",
          "type": "address"
        },
        {
          "indexed": true,
          "internalType": "address",
          "name": "newOwner",
          "type": "address"
        }
      ],
      "name": "OwnershipTransferred",
      "type": "event"
    },
    {
      "anonymous": false,
      "inputs": [
        {
          "indexed": true,
          "internalType": "address",
          "name": "testTarget",
          "type": "address"
        },
        {
          "indexed": false,
          "internalType": "address",
          "name": "sender",
          "type": "address"
        }
      ],
      "name": "StateVerified",
      "type": "event"
    },
    {
      "anonymous": false,
      "inputs": [
        {
          "indexed": true,
          "internalType": "address",
          "name": "target",
          "type": "address"
        },
        {
          "indexed": false,
          "internalType": "address",
          "name": "sender",
          "type": "address"
        }
      ],
      "name": "UpgradeFinished",
      "type": "event"
    },
    {
      "inputs": [],
      "name": "currentMintingPeriod",
      "outputs": [
        {
          "internalType": "uint16",
          "name": "",
          "type": "uint16"
        }
      ],
      "stateMutability": "view",
      "type": "function"
    },
    {
      "inputs": [],
      "name": "currentPeriodSupply",
      "outputs": [
        {
          "internalType": "uint128",
          "name": "",
          "type": "uint128"
        }
      ],
      "stateMutability": "view",
      "type": "function"
    },
    {
      "inputs": [
        {
          "internalType": "uint256",
          "name": "_value",
          "type": "uint256"
        }
      ],
      "name": "donate",
      "outputs": [],
      "stateMutability": "nonpayable",
      "type": "function"
    },
    {
      "inputs": [
        {
          "internalType": "address",
          "name": "_target",
          "type": "address"
        }
      ],
      "name": "finishUpgrade",
      "outputs": [],
      "stateMutability": "nonpayable",
      "type": "function"
    },
    {
      "inputs": [],
      "name": "firstPhaseMaxIssuance",
      "outputs": [
        {
          "internalType": "uint256",
          "name": "",
          "type": "uint256"
        }
      ],
      "stateMutability": "view",
      "type": "function"
    },
    {
      "inputs": [],
      "name": "firstPhaseTotalSupply",
      "outputs": [
        {
          "internalType": "uint256",
          "name": "",
          "type": "uint256"
        }
      ],
      "stateMutability": "view",
      "type": "function"
    },
    {
      "inputs": [],
      "name": "getCurrentPeriod",
      "outputs": [
        {
          "internalType": "uint16",
          "name": "",
          "type": "uint16"
        }
      ],
      "stateMutability": "view",
      "type": "function"
    },
    {
      "inputs": [],
      "name": "getReservedReward",
      "outputs": [
        {
          "internalType": "uint256",
          "name": "",
          "type": "uint256"
        }
      ],
      "stateMutability": "view",
      "type": "function"
    },
    {
      "inputs": [
        {
          "internalType": "uint256",
          "name": "_reservedReward",
          "type": "uint256"
        }
      ],
      "name": "initialize",
      "outputs": [],
      "stateMutability": "nonpayable",
      "type": "function"
    },
    {
      "inputs": [],
      "name": "isOwner",
      "outputs": [
        {
          "internalType": "bool",
          "name": "",
          "type": "bool"
        }
      ],
      "stateMutability": "view",
      "type": "function"
    },
    {
      "inputs": [],
      "name": "isUpgrade",
      "outputs": [
        {
          "internalType": "uint8",
          "name": "",
          "type": "uint8"
        }
      ],
      "stateMutability": "view",
      "type": "function"
    },
    {
      "inputs": [],
      "name": "lockDurationCoefficient1",
      "outputs": [
        {
          "internalType": "uint256",
          "name": "",
          "type": "uint256"
        }
      ],
      "stateMutability": "view",
      "type": "function"
    },
    {
      "inputs": [],
      "name": "lockDurationCoefficient2",
      "outputs": [
        {
          "internalType": "uint256",
          "name": "",
          "type": "uint256"
        }
      ],
      "stateMutability": "view",
      "type": "function"
    },
    {
      "inputs": [],
      "name": "maximumRewardedPeriods",
      "outputs": [
        {
          "internalType": "uint16",
          "name": "",
          "type": "uint16"
        }
      ],
      "stateMutability": "view",
      "type": "function"
    },
    {
      "inputs": [],
      "name": "mintingCoefficient",
      "outputs": [
        {
          "internalType": "uint256",
          "name": "",
          "type": "uint256"
        }
      ],
      "stateMutability": "view",
      "type": "function"
    },
    {
      "inputs": [],
      "name": "owner",
      "outputs": [
        {
          "internalType": "address",
          "name": "",
          "type": "address"
        }
      ],
      "stateMutability": "view",
      "type": "function"
    },
    {
      "inputs": [],
      "name": "previousPeriodSupply",
      "outputs": [
        {
          "internalType": "uint128",
          "name": "",
          "type": "uint128"
        }
      ],
      "stateMutability": "view",
      "type": "function"
    },
    {
      "inputs": [],
      "name": "previousTarget",
      "outputs": [
        {
          "internalType": "address",
          "name": "",
          "type": "address"
        }
      ],
      "stateMutability": "view",
      "type": "function"
    },
    {
      "inputs": [],
      "name": "renounceOwnership",
      "outputs": [],
      "stateMutability": "nonpayable",
      "type": "function"
    },
    {
      "inputs": [],
      "name": "secondsPerPeriod",
      "outputs": [
        {
          "internalType": "uint32",
          "name": "",
          "type": "uint32"
        }
      ],
      "stateMutability": "view",
      "type": "function"
    },
    {
      "inputs": [
        {
          "internalType": "uint256",
          "name": "_valueToCheck",
          "type": "uint256"
        }
      ],
      "name": "setValueToCheck",
      "outputs": [],
      "stateMutability": "nonpayable",
      "type": "function"
    },
    {
      "inputs": [],
      "name": "target",
      "outputs": [
        {
          "internalType": "address",
          "name": "",
          "type": "address"
        }
      ],
      "stateMutability": "view",
      "type": "function"
    },
    {
      "inputs": [],
      "name": "token",
      "outputs": [
        {
          "internalType": "contract NuCypherToken",
          "name": "",
          "type": "address"
        }
      ],
      "stateMutability": "view",
      "type": "function"
    },
    {
      "inputs": [],
      "name": "totalSupply",
      "outputs": [
        {
          "internalType": "uint128",
          "name": "",
          "type": "uint128"
        }
      ],
      "stateMutability": "view",
      "type": "function"
    },
    {
      "inputs": [
        {
          "internalType": "address",
          "name": "newOwner",
          "type": "address"
        }
      ],
      "name": "transferOwnership",
      "outputs": [],
      "stateMutability": "nonpayable",
      "type": "function"
    },
    {
      "inputs": [],
      "name": "valueToCheck",
      "outputs": [
        {
          "internalType": "uint256",
          "name": "",
          "type": "uint256"
        }
      ],
      "stateMutability": "view",
      "type": "function"
    },
    {
      "inputs": [
        {
          "internalType": "address",
          "name": "_testTarget",
          "type": "address"
        }
      ],
      "name": "verifyState",
      "outputs": [],
      "stateMutability": "nonpayable",
      "type": "function"
    }
  ],
  "bytecode": "6101a06040523480156200001257600080fd5b50604051620011383803806200113883398181016040526101008110156200003957600080fd5b50805160208201516040808401516060850151608086015160a087015160c088015160e090980151600080546001600160a01b031916331780825596519899979895979496939592949391928a928a928a928a928a928a928a928a926001600160a01b0391909116917f8be0079c531659141344cd1fd0a4f28419497f9722a3daafe3b4186f6b6457e0908290a36000886001600160a01b03166318160ddd6040518163ffffffff1660e01b815260040160206040518083038186803b1580156200010357600080fd5b505afa15801562000118573d6000803e3d6000fd5b505050506040513d60208110156200012f57600080fd5b5051905080158015906200014257508615155b801562000154575063ffffffff881615155b80156200016057508515155b80156200016c57508415155b80156200017c575061ffff841615155b6200018657600080fd5b6001600160801b03811115620001ce5760405162461bcd60e51b815260040180806020018281038252602d81526020018062001065602d913960400191505060405180910390fd5b61ffff8416808701908887029082118015620001f3575086898281620001f057fe5b04145b80156200020b57508083828502816200020857fe5b04145b80156200022f57508183848486870202816200022357fe5b04816200022c57fe5b04145b6200026c5760405162461bcd60e51b8152600401808060200182810382526023815260200180620010db6023913960400191505060405180910390fd5b86821115620002ad5760405162461bcd60e51b815260040180806020018281038252603a815260200180620010fe603a913960400191505060405180910390fd5b82851115620002ee5760405162461bcd60e51b8152600401808060200182810382526023815260200180620010926023913960400191505060405180910390fd5b848411156200032f5760405162461bcd60e51b8152600401808060200182810382526026815260200180620010b56026913960400191505060405180910390fd5b60608b901b6001600160601b0319166080526200036163ffffffff8b16610e10620003c1602090811b62000b4e17901c565b60e090811b6001600160e01b0319166101205297909752506101009490945260f09290921b6001600160f01b03191661014052610180526101605260801b6001600160801b03191660a05260c052506200040a9950505050505050505050565b600063ffffffff8316620003d85750600062000404565b82820263ffffffff8084169080861690831681620003f257fe5b0463ffffffff16146200040157fe5b90505b92915050565b60805160601c60a05160801c60c05160e051610100516101205160e01c6101405160f01c6101605161018051610bc96200049c6000398061047a52508061044752806107ae5250806105675250806103c9528061049e5250806107435250806105ff5250806105ab52508061040852806104e6528061080c5250806106b75280610767528061084d5250610bc96000f3fe608060405234801561001057600080fd5b50600436106101a95760003560e01c80638da5cb5b116100f9578063e38a303b11610097578063f2fde38b11610071578063f2fde38b14610372578063f6910cb814610398578063fc0c546a146103a0578063fe4b84df146103a8576101a9565b8063e38a303b14610311578063e8dccd061461032f578063f14faf6f14610355576101a9565b8063a3324be9116100d3578063a3324be9146102d3578063b9626d21146102db578063c83d870814610301578063d4b8399214610309576101a9565b80638da5cb5b146102a75780638f32d59b146102af578063909f7c88146102cb576101a9565b80633250843d116101665780634b2cd118116101405780634b2cd1181461026b5780636784c9171461028f578063715018a6146102975780637b3888ef1461029f576101a9565b80633250843d1461023a5780633ae10a1514610242578063407f80011461024a576101a9565b8063086146d2146101ae5780630f64ab14146101cd57806318160ddd146101d557806318cc313c146101f9578063204612a8146102185780632d62143414610220575b600080fd5b6101b66103c5565b6040805161ffff9092168252519081900360200190f35b6101b66103fc565b6101dd610406565b604080516001600160801b039092168252519081900360200190f35b6102166004803603602081101561020f57600080fd5b503561042a565b005b6101dd61042f565b610228610445565b60408051918252519081900360200190f35b6101dd610469565b610228610478565b61025261049c565b6040805163ffffffff9092168252519081900360200190f35b6102736104c0565b604080516001600160a01b039092168252519081900360200190f35b6102286104cf565b61021661050a565b6101b6610565565b610273610589565b6102b7610598565b604080519115158252519081900360200190f35b6102286105a9565b6102286105cd565b610216600480360360208110156102f157600080fd5b50356001600160a01b03166105d3565b6102286105fd565b610273610621565b610319610630565b6040805160ff9092168252519081900360200190f35b6102166004803603602081101561034557600080fd5b50356001600160a01b0316610640565b6102166004803603602081101561036b57600080fd5b503561069a565b6102166004803603602081101561038857600080fd5b50356001600160a01b0316610727565b610228610741565b610273610765565b610216600480360360208110156103be57600080fd5b5035610789565b60007f000000000000000000000000000000000000000000000000000000000000000063ffffffff1642816103f657fe5b04905090565b60055461ffff1681565b7f000000000000000000000000000000000000000000000000000000000000000081565b600655565b600454600160801b90046001600160801b031681565b7f000000000000000000000000000000000000000000000000000000000000000081565b6004546001600160801b031681565b7f000000000000000000000000000000000000000000000000000000000000000081565b7f000000000000000000000000000000000000000000000000000000000000000081565b6002546001600160a01b031681565b6004546001600160801b03600160801b90910481167f0000000000000000000000000000000000000000000000000000000000000000031690565b610512610598565b61051b57600080fd5b600080546040516001600160a01b03909116907f8be0079c531659141344cd1fd0a4f28419497f9722a3daafe3b4186f6b6457e0908390a3600080546001600160a01b0319169055565b7f000000000000000000000000000000000000000000000000000000000000000081565b6000546001600160a01b031690565b6000546001600160a01b0316331490565b7f000000000000000000000000000000000000000000000000000000000000000081565b60065481565b6105dc816108b3565b6006546105f08263a3324be960e01b610949565b146105fa57600080fd5b50565b7f000000000000000000000000000000000000000000000000000000000000000081565b6001546001600160a01b031681565b600254600160a01b900460ff1681565b60028054600160a01b900460ff161461065857600080fd5b6040805133815290516001600160a01b038316917fd55ec27c5c6316913ed8803c18cfd1bfefea953db909dcba6140744a9d8b0d1f919081900360200190a250565b60055461ffff166106aa57600080fd5b6106e56001600160a01b037f00000000000000000000000000000000000000000000000000000000000000001633308463ffffffff61096216565b6106ee816109f8565b60408051828152905133917f2a01595cddf097c90216094025db714da3f4e5bd8877b56ba86a24ecead8e543919081900360200190a250565b61072f610598565b61073857600080fd5b6105fa81610a36565b7f000000000000000000000000000000000000000000000000000000000000000081565b7f000000000000000000000000000000000000000000000000000000000000000081565b610791610598565b61079a57600080fd5b60055461ffff16156107ab57600080fd5b807f000000000000000000000000000000000000000000000000000000000000000011156107d857600080fd5b6107e06103c5565b6005805461ffff191661ffff9290921691909117905560048054600160801b6001600160801b039182167f000000000000000000000000000000000000000000000000000000000000000085900383168202179081049091166001600160801b031990911617905561087d7f00000000000000000000000000000000000000000000000000000000000000006001600160a01b0316333084610962565b6040805182815290517fbe9b076dc5b65990cca9dd9d7366682482e7817a6f6bc7f4faf4dc32af497f329181900360200190a150565b6108bc81610aa4565b60055461ffff166108d4826303d92ac560e21b610949565b61ffff16146108e257600080fd5b6004546001600160801b03166108ff82633250843d60e01b610949565b6001600160801b03161461091257600080fd5b600454600160801b90046001600160801b031661093682630408c25560e31b610949565b6001600160801b0316146105fa57600080fd5b6000806109598484838080610afe565b51949350505050565b604080516323b872dd60e01b81526001600160a01b0385811660048301528481166024830152604482018490529151918616916323b872dd916064808201926020929091908290030181600087803b1580156109bd57600080fd5b505af11580156109d1573d6000803e3d6000fd5b505050506040513d60208110156109e757600080fd5b50516109f257600080fd5b50505050565b600480546001600160801b031981166001600160801b03918216849003821617808216600160801b9182900483169490940390911602919091179055565b6001600160a01b038116610a4957600080fd5b600080546040516001600160a01b03808516939216917f8be0079c531659141344cd1fd0a4f28419497f9722a3daafe3b4186f6b6457e091a3600080546001600160a01b0319166001600160a01b0392909216919091179055565b60028054600160a01b900460ff1614610abc57600080fd5b6040805133815290516001600160a01b038316917f1e8d98c1b4a0d9bd2e2371026b632eb2773fcce41742e41f02f574ab69868d4c919081900360200190a250565b6040518481528315610b11578260048201525b6001841115610b21578160248201525b6000808560200260040183895af48015610b3f573d6000833e610b44565b600082fd5b5095945050505050565b600063ffffffff8316610b6357506000610b8d565b82820263ffffffff8084169080861690831681610b7c57fe5b0463ffffffff1614610b8a57fe5b90505b9291505056fea2646970667358221220b86dab21a4dce194cda5bb2dfaf5d82174d10a989205a45f1b9f8d53e43fc03964736f6c63430006070033546f6b656e20636f6e74726163742068617320737570706c79206d6f7265207468616e20737570706f72746564546f6f206d616e7920746f6b656e7320666f722074686520666972737420706861736552657761726420666f722074686520666972737420706861736520697320746f6f206869676853706563696669656420706172616d6574657273206361757365206f766572666c6f77526573756c74696e67206c6f636b696e67206475726174696f6e20636f656666696369656e74206d757374206265206c657373207468616e2031",
  "bytecodeSha1": "da39a3ee5e6b4b0d3255bfef95601890afd80709",
  "compiler": {
    "evm_version": "berlin",
    "optimizer": {
      "enabled": true,
      "runs": 200
    },
    "version": "0.6.7"
  },
  "contractName": "IssuerV2Mock",
  "language": "Solidity",
  "natspec": {
    "methods": {
      "donate(uint256)": {
        "notice": "Donate sender's tokens. Amount of tokens will be returned for future minting",
        "params": {
          "_value": "Amount to donate"
        }
      },
      "finishUpgrade(address)": {
        "details": "Copy values from the new target to the current storage",
        "params": {
          "_target": "New target contract address"
        }
      },
      "getReservedReward()": {
        "notice": "Returns the number of tokens that can be minted"
      },
      "initialize(uint256)": {
        "notice": "Initialize reserved tokens for reward"
      },
      "renounceOwnership()": {
        "details": "Allows the current owner to relinquish control of the contract.",
        "notice": "Renouncing to ownership will leave the contract without an owner. It will not be possible to call the functions with the `onlyOwner` modifier anymore."
      },
      "transferOwnership(address)": {
        "details": "Allows the current owner to transfer control of the contract to a newOwner.",
        "params": {
          "newOwner": "The address to transfer ownership to."
        }
      }
    },
    "notice": "Contract for testing upgrading the Issuer contract"
  },
  "opcodes": "PUSH1 0x80 PUSH1 0x40 MSTORE CALLVALUE DUP1 ISZERO PUSH2 0x10 JUMPI PUSH1 0x0 DUP1 REVERT JUMPDEST POP PUSH1 0x4 CALLDATASIZE LT PUSH2 0x1A9 JUMPI PUSH1 0x0 CALLDATALOAD PUSH1 0xE0 SHR DUP1 PUSH4 0x8DA5CB5B GT PUSH2 0xF9 JUMPI DUP1 PUSH4 0xE38A303B GT PUSH2 0x97 JUMPI DUP1 PUSH4 0xF2FDE38B GT PUSH2 0x71 JUMPI DUP1 PUSH4 0xF2FDE38B EQ PUSH2 0x372 JUMPI DUP1 PUSH4 0xF6910CB8 EQ PUSH2 0x398 JUMPI DUP1 PUSH4 0xFC0C546A EQ PUSH2 0x3A0 JUMPI DUP1 PUSH4 0xFE4B84DF EQ PUSH2 0x3A8 JUMPI PUSH2 0x1A9 JUMP JUMPDEST DUP1 PUSH4 0xE38A303B EQ PUSH2 0x311 JUMPI DUP1 PUSH4 0xE8DCCD06 EQ PUSH2 0x32F JUMPI DUP1 PUSH4 0xF14FAF6F EQ PUSH2 0x355 JUMPI PUSH2 0x1A9 JUMP JUMPDEST DUP1 PUSH4 0xA3324BE9 GT PUSH2 0xD3 JUMPI DUP1 PUSH4 0xA3324BE9 EQ PUSH2 0x2D3 JUMPI DUP1 PUSH4 0xB9626D21 EQ PUSH2 0x2DB JUMPI DUP1 PUSH4 0xC83D8708 EQ PUSH2 0x301 JUMPI DUP1 PUSH4 0xD4B83992 EQ PUSH2 0x309 JUMPI PUSH2 0x1A9 JUMP JUMPDEST DUP1 PUSH4 0x8DA5CB5B EQ PUSH2 0x2A7 JUMPI DUP1 PUSH4 0x8F32D59B EQ PUSH2 0x2AF JUMPI DUP1 PUSH4 0x909F7C88 EQ PUSH2 0x2CB JUMPI PUSH2 0x1A9 JUMP JUMPDEST DUP1 PUSH4 0x3250843D GT PUSH2 0x166 JUMPI DUP1 PUSH4 0x4B2CD118 GT PUSH2 0x140 JUMPI DUP1 PUSH4 0x4B2CD118 EQ PUSH2 0x26B JUMPI DUP1 PUSH4 0x6784C917 EQ PUSH2 0x28F JUMPI DUP1 PUSH4 0x715018A6 EQ PUSH2 0x297 JUMPI DUP1 PUSH4 0x7B3888EF EQ PUSH2 0x29F JUMPI PUSH2 0x1A9 JUMP JUMPDEST DUP1 PUSH4 0x3250843D EQ PUSH2 0x23A JUMPI DUP1 PUSH4 0x3AE10A15 EQ PUSH2 0x242 JUMPI DUP1 PUSH4 0x407F8001 EQ PUSH2 0x24A JUMPI PUSH2 0x1A9 JUMP JUMPDEST DUP1 PUSH4 0x86146D2 EQ PUSH2 0x1AE JUMPI DUP1 PUSH4 0xF64AB14 EQ PUSH2 0x1CD JUMPI DUP1 PUSH4 0x18160DDD EQ PUSH2 0x1D5 JUMPI DUP1 PUSH4 0x18CC313C EQ PUSH2 0x1F9 JUMPI DUP1 PUSH4 0x204612A8 EQ PUSH2 0x218 JUMPI DUP1 PUSH4 0x2D621434 EQ PUSH2 0x220 JUMPI JUMPDEST PUSH1 0x0 DUP1 REVERT JUMPDEST PUSH2 0x1B6 PUSH2 0x3C5 JUMP JUMPDEST PUSH1 0x40 DUP1 MLOAD PUSH2 0xFFFF SWAP1 SWAP3 AND DUP3 MSTORE MLOAD SWAP1 DUP2 SWAP1 SUB PUSH1 0x20 ADD SWAP1 RETURN JUMPDEST PUSH2 0x1B6 PUSH2 0x3FC JUMP JUMPDEST PUSH2 0x1DD PUSH2 0x406 JUMP JUMPDEST PUSH1 0x40 DUP1 MLOAD PUSH1 0x1 PUSH1 0x1 PUSH1 0x80 SHL SUB SWAP1 SWAP3 AND DUP3 MSTORE MLOAD SWAP1 DUP2 SWAP1 SUB PUSH1 0x20 ADD SWAP1 RETURN JUMPDEST PUSH2 0x216 PUSH1 0x4 DUP1 CALLDATASIZE SUB PUSH1 0x20 DUP2 LT ISZERO PUSH2 0x20F JUMPI PUSH1 0x0 DUP1 REVERT JUMPDEST POP CALLDATALOAD PUSH2 0x42A JUMP JUMPDEST STOP JUMPDEST PUSH2 0x1DD PUSH2 0x42F JUMP JUMPDEST PUSH2 0x228 PUSH2 0x445 JUMP JUMPDEST PUSH1 0x40 DUP1 MLOAD SWAP2 DUP3 MSTORE MLOAD SWAP1 DUP2 SWAP1 SUB PUSH1 0x20 ADD SWAP1 RETURN JUMPDEST PUSH2 0x1DD PUSH2 0x469 JUMP JUMPDEST PUSH2 0x228 PUSH2 0x478 JUMP JUMPDEST PUSH2 0x252 PUSH2 0x49C JUMP JUMPDEST PUSH1 0x40 DUP1 MLOAD PUSH4 0xFFFFFFFF SWAP1 SWAP3 AND DUP3 MSTORE MLOAD SWAP1 DUP2 SWAP1 SUB PUSH1 0x20 ADD SWAP1 RETURN JUMPDEST PUSH2 0x273 PUSH2 0x4C0 JUMP JUMPDEST PUSH1 0x40 DUP1 MLOAD PUSH1 0x1 PUSH1 0x1 PUSH1 0xA0 SHL SUB SWAP1 SWAP3 AND DUP3 MSTORE MLOAD SWAP1 DUP2 SWAP1 SUB PUSH1 0x20 ADD SWAP1 RETURN JUMPDEST PUSH2 0x228 PUSH2 0x4CF JUMP JUMPDEST PUSH2 0x216 PUSH2 0x50A JUMP JUMPDEST PUSH2 0x1B6 PUSH2 0x565 JUMP JUMPDEST PUSH2 0x273 PUSH2 0x589 JUMP JUMPDEST PUSH2 0x2B7 PUSH2 0x598 JUMP JUMPDEST PUSH1 0x40 DUP1 MLOAD SWAP2 ISZERO ISZERO DUP3 MSTORE MLOAD SWAP1 DUP2 SWAP1 SUB PUSH1 0x20 ADD SWAP1 RETURN JUMPDEST PUSH2 0x228 PUSH2 0x5A9 JUMP JUMPDEST PUSH2 0x228 PUSH2 0x5CD JUMP JUMPDEST PUSH2 0x216 PUSH1 0x4 DUP1 CALLDATASIZE SUB PUSH1 0x20 DUP2 LT ISZERO PUSH2 0x2F1 JUMPI PUSH1 0x0 DUP1 REVERT JUMPDEST POP CALLDATALOAD PUSH1 0x1 PUSH1 0x1 PUSH1 0xA0 SHL SUB AND PUSH2 0x5D3 JUMP JUMPDEST PUSH2 0x228 PUSH2 0x5FD JUMP JUMPDEST PUSH2 0x273 PUSH2 0x621 JUMP JUMPDEST PUSH2 0x319 PUSH2 0x630 JUMP JUMPDEST PUSH1 0x40 DUP1 MLOAD PUSH1 0xFF SWAP1 SWAP3 AND DUP3 MSTORE MLOAD SWAP1 DUP2 SWAP1 SUB PUSH1 0x20 ADD SWAP1 RETURN JUMPDEST PUSH2 0x216 PUSH1 0x4 DUP1 CALLDATASIZE SUB PUSH1 0x20 DUP2 LT ISZERO PUSH2 0x345 JUMPI PUSH1 0x0 DUP1 REVERT JUMPDEST POP CALLDATALOAD PUSH1 0x1 PUSH1 0x1 PUSH1 0xA0 SHL SUB AND PUSH2 0x640 JUMP JUMPDEST PUSH2 0x216 PUSH1 0x4 DUP1 CALLDATASIZE SUB PUSH1 0x20 DUP2 LT ISZERO PUSH2 0x36B JUMPI PUSH1 0x0 DUP1 REVERT JUMPDEST POP CALLDATALOAD PUSH2 0x69A JUMP JUMPDEST PUSH2 0x216 PUSH1 0x4 DUP1 CALLDATASIZE SUB PUSH1 0x20 DUP2 LT ISZERO PUSH2 0x388 JUMPI PUSH1 0x0 DUP1 REVERT JUMPDEST POP CALLDATALOAD PUSH1 0x1 PUSH1 0x1 PUSH1 0xA0 SHL SUB AND PUSH2 0x727 JUMP JUMPDEST PUSH2 0x228 PUSH2 0x741 JUMP JUMPDEST PUSH2 0x273 PUSH2 0x765 JUMP JUMPDEST PUSH2 0x216 PUSH1 0x4 DUP1 CALLDATASIZE SUB PUSH1 0x20 DUP2 LT ISZERO PUSH2 0x3BE JUMPI PUSH1 0x0 DUP1 REVERT JUMPDEST POP CALLDATALOAD PUSH2 0x789 JUMP JUMPDEST PUSH1 0x0 PUSH32 0x0 PUSH4 0xFFFFFFFF AND TIMESTAMP DUP2 PUSH2 0x3F6 JUMPI INVALID JUMPDEST DIV SWAP1 POP SWAP1 JUMP JUMPDEST PUSH1 0x5 SLOAD PUSH2 0xFFFF AND DUP2 JUMP JUMPDEST PUSH32 0x0 DUP2 JUMP JUMPDEST PUSH1 0x6 SSTORE JUMP JUMPDEST PUSH1 0x4 SLOAD PUSH1 0x1 PUSH1 0x80 SHL SWAP1 DIV PUSH1 0x1 PUSH1 0x1 PUSH1 0x80 SHL SUB AND DUP2 JUMP JUMPDEST PUSH32 0x0 DUP2 JUMP JUMPDEST PUSH1 0x4 SLOAD PUSH1 0x1 PUSH1 0x1 PUSH1 0x80 SHL SUB AND DUP2 JUMP JUMPDEST PUSH32 0x0 DUP2 JUMP JUMPDEST PUSH32 0x0 DUP2 JUMP JUMPDEST PUSH1 0x2 SLOAD PUSH1 0x1 PUSH1 0x1 PUSH1 0xA0 SHL SUB AND DUP2 JUMP JUMPDEST PUSH1 0x4 SLOAD PUSH1 0x1 PUSH1 0x1 PUSH1 0x80 SHL SUB PUSH1 0x1 PUSH1 0x80 SHL SWAP1 SWAP2 DIV DUP2 AND PUSH32 0x0 SUB AND SWAP1 JUMP JUMPDEST PUSH2 0x512 PUSH2 0x598 JUMP JUMPDEST PUSH2 0x51B JUMPI PUSH1 0x0 DUP1 REVERT JUMPDEST PUSH1 0x0 DUP1 SLOAD PUSH1 0x40 MLOAD PUSH1 0x1 PUSH1 0x1 PUSH1 0xA0 SHL SUB SWAP1 SWAP2 AND SWAP1 PUSH32 0x8BE0079C531659141344CD1FD0A4F28419497F9722A3DAAFE3B4186F6B6457E0 SWAP1 DUP4 SWAP1 LOG3 PUSH1 0x0 DUP1 SLOAD PUSH1 0x1 PUSH1 0x1 PUSH1 0xA0 SHL SUB NOT AND SWAP1 SSTORE JUMP JUMPDEST PUSH32 0x0 DUP2 JUMP JUMPDEST PUSH1 0x0 SLOAD PUSH1 0x1 PUSH1 0x1 PUSH1 0xA0 SHL SUB AND SWAP1 JUMP JUMPDEST PUSH1 0x0 SLOAD PUSH1 0x1 PUSH1 0x1 PUSH1 0xA0 SHL SUB AND CALLER EQ SWAP1 JUMP JUMPDEST PUSH32 0x0 DUP2 JUMP JUMPDEST PUSH1 0x6 SLOAD DUP2 JUMP JUMPDEST PUSH2 0x5DC DUP2 PUSH2 0x8B3 JUMP JUMPDEST PUSH1 0x6 SLOAD PUSH2 0x5F0 DUP3 PUSH4 0xA3324BE9 PUSH1 0xE0 SHL PUSH2 0x949 JUMP JUMPDEST EQ PUSH2 0x5FA JUMPI PUSH1 0x0 DUP1 REVERT JUMPDEST POP JUMP JUMPDEST PUSH32 0x0 DUP2 JUMP JUMPDEST PUSH1 0x1 SLOAD PUSH1 0x1 PUSH1 0x1 PUSH1 0xA0 SHL SUB AND DUP2 JUMP JUMPDEST PUSH1 0x2 SLOAD PUSH1 0x1 PUSH1 0xA0 SHL SWAP1 DIV PUSH1 0xFF AND DUP2 JUMP JUMPDEST PUSH1 0x2 DUP1 SLOAD PUSH1 0x1 PUSH1 0xA0 SHL SWAP1 DIV PUSH1 0xFF AND EQ PUSH2 0x658 JUMPI PUSH1 0x0 DUP1 REVERT JUMPDEST PUSH1 0x40 DUP1 MLOAD CALLER DUP2 MSTORE SWAP1 MLOAD PUSH1 0x1 PUSH1 0x1 PUSH1 0xA0 SHL SUB DUP4 AND SWAP2 PUSH32 0xD55EC27C5C6316913ED8803C18CFD1BFEFEA953DB909DCBA6140744A9D8B0D1F SWAP2 SWAP1 DUP2 SWAP1 SUB PUSH1 0x20 ADD SWAP1 LOG2 POP JUMP JUMPDEST PUSH1 0x5 SLOAD PUSH2 0xFFFF AND PUSH2 0x6AA JUMPI PUSH1 0x0 DUP1 REVERT JUMPDEST PUSH2 0x6E5 PUSH1 0x1 PUSH1 0x1 PUSH1 0xA0 SHL SUB PUSH32 0x0 AND CALLER ADDRESS DUP5 PUSH4 0xFFFFFFFF PUSH2 0x962 AND JUMP JUMPDEST PUSH2 0x6EE DUP2 PUSH2 0x9F8 JUMP JUMPDEST PUSH1 0x40 DUP1 MLOAD DUP3 DUP2 MSTORE SWAP1 MLOAD CALLER SWAP2 PUSH32 0x2A01595CDDF097C90216094025DB714DA3F4E5BD8877B56BA86A24ECEAD8E543 SWAP2 SWAP1 DUP2 SWAP1 SUB PUSH1 0x20 ADD SWAP1 LOG2 POP JUMP JUMPDEST PUSH2 0x72F PUSH2 0x598 JUMP JUMPDEST PUSH2 0x738 JUMPI PUSH1 0x0 DUP1 REVERT JUMPDEST PUSH2 0x5FA DUP2 PUSH2 0xA36 JUMP JUMPDEST PUSH32 0x0 DUP2 JUMP JUMPDEST PUSH32 0x0 DUP2 JUMP JUMPDEST PUSH2 0x791 PUSH2 0x598 JUMP JUMPDEST PUSH2 0x79A JUMPI PUSH1 0x0 DUP1 REVERT JUMPDEST PUSH1 0x5 SLOAD PUSH2 0xFFFF AND ISZERO PUSH2 0x7AB JUMPI PUSH1 0x0 DUP1 REVERT JUMPDEST DUP1 PUSH32 0x0 GT ISZERO PUSH2 0x7D8 JUMPI PUSH1 0x0 DUP1 REVERT JUMPDEST PUSH2 0x7E0 PUSH2 0x3C5 JUMP JUMPDEST PUSH1 0x5 DUP1 SLOAD PUSH2 0xFFFF NOT AND PUSH2 0xFFFF SWAP3 SWAP1 SWAP3 AND SWAP2 SWAP1 SWAP2 OR SWAP1 SSTORE PUSH1 0x4 DUP1 SLOAD PUSH1 0x1 PUSH1 0x80 SHL PUSH1 0x1 PUSH1 0x1 PUSH1 0x80 SHL SUB SWAP2 DUP3 AND PUSH32 0x0 DUP6 SWAP1 SUB DUP4 AND DUP3 MUL OR SWAP1 DUP2 DIV SWAP1 SWAP2 AND PUSH1 0x1 PUSH1 0x1 PUSH1 0x80 SHL SUB NOT SWAP1 SWAP2 AND OR SWAP1 SSTORE PUSH2 0x87D PUSH32 0x0 PUSH1 0x1 PUSH1 0x1 PUSH1 0xA0 SHL SUB AND CALLER ADDRESS DUP5 PUSH2 0x962 JUMP JUMPDEST PUSH1 0x40 DUP1 MLOAD DUP3 DUP2 MSTORE SWAP1 MLOAD PUSH32 0xBE9B076DC5B65990CCA9DD9D7366682482E7817A6F6BC7F4FAF4DC32AF497F32 SWAP2 DUP2 SWAP1 SUB PUSH1 0x20 ADD SWAP1 LOG1 POP JUMP JUMPDEST PUSH2 0x8BC DUP2 PUSH2 0xAA4 JUMP JUMPDEST PUSH1 0x5 SLOAD PUSH2 0xFFFF AND PUSH2 0x8D4 DUP3 PUSH4 0x3D92AC5 PUSH1 0xE2 SHL PUSH2 0x949 JUMP JUMPDEST PUSH2 0xFFFF AND EQ PUSH2 0x8E2 JUMPI PUSH1 0x0 DUP1 REVERT JUMPDEST PUSH1 0x4 SLOAD PUSH1 0x1 PUSH1 0x1 PUSH1 0x80 SHL SUB AND PUSH2 0x8FF DUP3 PUSH4 0x3250843D PUSH1 0xE0 SHL PUSH2 0x949 JUMP JUMPDEST PUSH1 0x1 PUSH1 0x1 PUSH1 0x80 SHL SUB AND EQ PUSH2 0x912 JUMPI PUSH1 0x0 DUP1 REVERT JUMPDEST PUSH1 0x4 SLOAD PUSH1 0x1 PUSH1 0x80 SHL SWAP1 DIV PUSH1 0x1 PUSH1 0x1 PUSH1 0x80 SHL SUB AND PUSH2 0x936 DUP3 PUSH4 0x408C255 PUSH1 0xE3 SHL PUSH2 0x949 JUMP JUMPDEST PUSH1 0x1 PUSH1 0x1 PUSH1 0x80 SHL SUB AND EQ PUSH2 0x5FA JUMPI PUSH1 0x0 DUP1 REVERT JUMPDEST PUSH1 0x0 DUP1 PUSH2 0x959 DUP5 DUP5 DUP4 DUP1 DUP1 PUSH2 0xAFE JUMP JUMPDEST MLOAD SWAP5 SWAP4 POP POP POP POP JUMP JUMPDEST PUSH1 0x40 DUP1 MLOAD PUSH4 0x23B872DD PUSH1 0xE0 SHL DUP2 MSTORE PUSH1 0x1 PUSH1 0x1 PUSH1 0xA0 SHL SUB DUP6 DUP2 AND PUSH1 0x4 DUP4 ADD MSTORE DUP5 DUP2 AND PUSH1 0x24 DUP4 ADD MSTORE PUSH1 0x44 DUP3 ADD DUP5 SWAP1 MSTORE SWAP2 MLOAD SWAP2 DUP7 AND SWAP2 PUSH4 0x23B872DD SWAP2 PUSH1 0x64 DUP1 DUP3 ADD SWAP3 PUSH1 0x20 SWAP3 SWAP1 SWAP2 SWAP1 DUP3 SWAP1 SUB ADD DUP2 PUSH1 0x0 DUP8 DUP1 EXTCODESIZE ISZERO DUP1 ISZERO PUSH2 0x9BD JUMPI PUSH1 0x0 DUP1 REVERT JUMPDEST POP GAS CALL ISZERO DUP1 ISZERO PUSH2 0x9D1 JUMPI RETURNDATASIZE PUSH1 0x0 DUP1 RETURNDATACOPY RETURNDATASIZE PUSH1 0x0 REVERT JUMPDEST POP POP POP POP PUSH1 0x40 MLOAD RETURNDATASIZE PUSH1 0x20 DUP2 LT ISZERO PUSH2 0x9E7 JUMPI PUSH1 0x0 DUP1 REVERT JUMPDEST POP MLOAD PUSH2 0x9F2 JUMPI PUSH1 0x0 DUP1 REVERT JUMPDEST POP POP POP POP JUMP JUMPDEST PUSH1 0x4 DUP1 SLOAD PUSH1 0x1 PUSH1 0x1 PUSH1 0x80 SHL SUB NOT DUP2 AND PUSH1 0x1 PUSH1 0x1 PUSH1 0x80 SHL SUB SWAP2 DUP3 AND DUP5 SWAP1 SUB DUP3 AND OR DUP1 DUP3 AND PUSH1 0x1 PUSH1 0x80 SHL SWAP2 DUP3 SWAP1 DIV DUP4 AND SWAP5 SWAP1 SWAP5 SUB SWAP1 SWAP2 AND MUL SWAP2 SWAP1 SWAP2 OR SWAP1 SSTORE JUMP JUMPDEST PUSH1 0x1 PUSH1 0x1 PUSH1 0xA0 SHL SUB DUP2 AND PUSH2 0xA49 JUMPI PUSH1 0x0 DUP1 REVERT JUMPDEST PUSH1 0x0 DUP1 SLOAD PUSH1 0x40 MLOAD PUSH1 0x1 PUSH1 0x1 PUSH1 0xA0 SHL SUB DUP1 DUP6 AND SWAP4 SWAP3 AND SWAP2 PUSH32 0x8BE0079C531659141344CD1FD0A4F28419497F9722A3DAAFE3B4186F6B6457E0 SWAP2 LOG3 PUSH1 0x0 DUP1 SLOAD PUSH1 0x1 PUSH1 0x1 PUSH1 0xA0 SHL SUB NOT AND PUSH1 0x1 PUSH1 0x1 PUSH1 0xA0 SHL SUB SWAP3 SWAP1 SWAP3 AND SWAP2 SWAP1 SWAP2 OR SWAP1 SSTORE JUMP JUMPDEST PUSH1 0x2 DUP1 SLOAD PUSH1 0x1 PUSH1 0xA0 SHL SWAP1 DIV PUSH1 0xFF AND EQ PUSH2 0xABC JUMPI PUSH1 0x0 DUP1 REVERT JUMPDEST PUSH1 0x40 DUP1 MLOAD CALLER DUP2 MSTORE SWAP1 MLOAD PUSH1 0x1 PUSH1 0x1 PUSH1 0xA0 SHL SUB DUP4 AND SWAP2 PUSH32 0x1E8D98C1B4A0D9BD2E2371026B632EB2773FCCE41742E41F02F574AB69868D4C SWAP2 SWAP1 DUP2 SWAP1 SUB PUSH1 0x20 ADD SWAP1 LOG2 POP JUMP JUMPDEST PUSH1 0x40 MLOAD DUP5 DUP2 MSTORE DUP4 ISZERO PUSH2 0xB11 JUMPI DUP3 PUSH1 0x4 DUP3 ADD MSTORE JUMPDEST PUSH1 0x1 DUP5 GT ISZERO PUSH2 0xB21 JUMPI DUP2 PUSH1 0x24 DUP3 ADD MSTORE JUMPDEST PUSH1 0x0 DUP1 DUP6 PUSH1 0x20 MUL PUSH1 0x4 ADD DUP4 DUP10 GAS DELEGATECALL DUP1 ISZERO PUSH2 0xB3F JUMPI RETURNDATASIZE PUSH1 0x0 DUP4 RETURNDATACOPY PUSH2 0xB44 JUMP JUMPDEST PUSH1 0x0 DUP3 REVERT JUMPDEST POP SWAP6 SWAP5 POP POP POP POP POP JUMP JUMPDEST PUSH1 0x0 PUSH4 0xFFFFFFFF DUP4 AND PUSH2 0xB63 JUMPI POP PUSH1 0x0 PUSH2 0xB8D JUMP JUMPDEST DUP3 DUP3 MUL PUSH4 0xFFFFFFFF DUP1 DUP5 AND SWAP1 DUP1 DUP7 AND SWAP1 DUP4 AND DUP2 PUSH2 0xB7C JUMPI INVALID JUMPDEST DIV PUSH4 0xFFFFFFFF AND EQ PUSH2 0xB8A JUMPI INVALID JUMPDEST SWAP1 POP JUMPDEST SWAP3 SWAP2 POP POP JUMP INVALID LOG2 PUSH5 0x6970667358 0x22 SLT KECCAK256 0xB8 PUSH14 0xAB21A4DCE194CDA5BB2DFAF5D821 PUSH21 0xD10A989205A45F1B9F8D53E43FC03964736F6C6343 STOP MOD SMOD STOP CALLER ",
  "sha1": "af67854004e6f9742005f9fd37e87853563ebb7d",
  "source": "pragma solidity ^0.6.5;\n\n\nimport \"contracts/Issuer.sol\";\nimport \"contracts/NuCypherToken.sol\";\nimport \"contracts/proxy/Upgradeable.sol\";\n\n\n/**\n* @dev Contract for testing internal methods in the Issuer contract\n*/\ncontract IssuerMock is Issuer {\n\n    constructor(\n        NuCypherToken _token,\n        uint32 _hoursPerPeriod,\n        uint256 _issuanceDecayCoefficient,\n        uint256 _lockDurationCoefficient1,\n        uint256 _lockDurationCoefficient2,\n        uint16 _maximumRewardedPeriods,\n        uint256 _firstPhaseTotalSupply,\n        uint256 _firstPhaseMaxIssuance\n    )\n        public\n        Issuer(\n            _token,\n            _hoursPerPeriod,\n            _issuanceDecayCoefficient,\n            _lockDurationCoefficient1,\n            _lockDurationCoefficient2,\n            _maximumRewardedPeriods,\n            _firstPhaseTotalSupply,\n            _firstPhaseMaxIssuance\n        )\n    {\n    }\n\n    function testMint(\n        uint16 _currentPeriod,\n        uint256 _lockedValue,\n        uint256 _totalLockedValue,\n        uint16 _allLockedPeriods\n    )\n        public returns (uint256 amount)\n    {\n        amount = mint(\n            _currentPeriod,\n            _lockedValue,\n            _totalLockedValue,\n            _allLockedPeriods);\n        token.transfer(msg.sender, amount);\n    }\n\n}\n\n\n/**\n* @notice Upgrade to this contract must lead to fail\n*/\ncontract IssuerBad is Upgradeable {\n\n    uint16 public currentMintingPeriod;\n//    uint256 public currentSupply1;\n    uint256 public currentSupply2;\n\n}\n\n\n/**\n* @notice Contract for testing upgrading the Issuer contract\n*/\ncontract IssuerV2Mock is Issuer {\n\n    uint256 public valueToCheck;\n\n    constructor(\n        NuCypherToken _token,\n        uint32 _hoursPerPeriod,\n        uint256 _issuanceDecayCoefficient,\n        uint256 _lockDurationCoefficient1,\n        uint256 _lockDurationCoefficient2,\n        uint16 _maximumRewardedPeriods,\n        uint256 _firstPhaseTotalSupply,\n        uint256 _firstPhaseMaxIssuance\n    )\n        public\n        Issuer(\n            _token,\n            _hoursPerPeriod,\n            _issuanceDecayCoefficient,\n            _lockDurationCoefficient1,\n            _lockDurationCoefficient2,\n            _maximumRewardedPeriods,\n            _firstPhaseTotalSupply,\n            _firstPhaseMaxIssuance\n        )\n    {\n    }\n\n    function setValueToCheck(uint256 _valueToCheck) public {\n        valueToCheck = _valueToCheck;\n    }\n\n    function verifyState(address _testTarget) public override {\n        super.verifyState(_testTarget);\n        require(delegateGet(_testTarget, this.valueToCheck.selector) == valueToCheck);\n    }\n}\n",
  "sourcePath": "contracts/IssuerTestSet.sol",
  "type": "contract"
}