{
  "abi": [
    {
      "inputs": [
        {
          "internalType": "contract NuCypherToken",
          "name": "_token",
          "type": "address"
        },
        {
          "internalType": "uint32",
          "name": "_hoursPerPeriod",
          "type": "uint32"
        },
        {
          "internalType": "uint256",
          "name": "_issuanceDecayCoefficient",
          "type": "uint256"
        },
        {
          "internalType": "uint256",
          "name": "_lockDurationCoefficient1",
          "type": "uint256"
        },
        {
          "internalType": "uint256",
          "name": "_lockDurationCoefficient2",
          "type": "uint256"
        },
        {
          "internalType": "uint16",
          "name": "_maximumRewardedPeriods",
          "type": "uint16"
        },
        {
          "internalType": "uint256",
          "name": "_firstPhaseTotalSupply",
          "type": "uint256"
        },
        {
          "internalType": "uint256",
          "name": "_firstPhaseMaxIssuance",
          "type": "uint256"
        }
      ],
      "stateMutability": "nonpayable",
      "type": "constructor"
    },
    {
      "anonymous": false,
      "inputs": [
        {
          "indexed": true,
          "internalType": "address",
          "name": "sender",
          "type": "address"
        },
        {
          "indexed": false,
          "internalType": "uint256",
          "name": "value",
          "type": "uint256"
        }
      ],
      "name": "Donated",
      "type": "event"
    },
    {
      "anonymous": false,
      "inputs": [
        {
          "indexed": false,
          "internalType": "uint256",
          "name": "reservedReward",
          "type": "uint256"
        }
      ],
      "name": "Initialized",
      "type": "event"
    },
    {
      "anonymous": false,
      "inputs": [
        {
          "indexed": true,
          "internalType": "address",
          "name": "previousOwner",
          "type": "address"
        },
        {
          "indexed": true,
          "internalType": "address",
          "name": "newOwner",
          "type": "address"
        }
      ],
      "name": "OwnershipTransferred",
      "type": "event"
    },
    {
      "anonymous": false,
      "inputs": [
        {
          "indexed": true,
          "internalType": "address",
          "name": "testTarget",
          "type": "address"
        },
        {
          "indexed": false,
          "internalType": "address",
          "name": "sender",
          "type": "address"
        }
      ],
      "name": "StateVerified",
      "type": "event"
    },
    {
      "anonymous": false,
      "inputs": [
        {
          "indexed": true,
          "internalType": "address",
          "name": "target",
          "type": "address"
        },
        {
          "indexed": false,
          "internalType": "address",
          "name": "sender",
          "type": "address"
        }
      ],
      "name": "UpgradeFinished",
      "type": "event"
    },
    {
      "inputs": [],
      "name": "currentMintingPeriod",
      "outputs": [
        {
          "internalType": "uint16",
          "name": "",
          "type": "uint16"
        }
      ],
      "stateMutability": "view",
      "type": "function"
    },
    {
      "inputs": [],
      "name": "currentPeriodSupply",
      "outputs": [
        {
          "internalType": "uint128",
          "name": "",
          "type": "uint128"
        }
      ],
      "stateMutability": "view",
      "type": "function"
    },
    {
      "inputs": [
        {
          "internalType": "uint256",
          "name": "_value",
          "type": "uint256"
        }
      ],
      "name": "donate",
      "outputs": [],
      "stateMutability": "nonpayable",
      "type": "function"
    },
    {
      "inputs": [
        {
          "internalType": "address",
          "name": "_target",
          "type": "address"
        }
      ],
      "name": "finishUpgrade",
      "outputs": [],
      "stateMutability": "nonpayable",
      "type": "function"
    },
    {
      "inputs": [],
      "name": "firstPhaseMaxIssuance",
      "outputs": [
        {
          "internalType": "uint256",
          "name": "",
          "type": "uint256"
        }
      ],
      "stateMutability": "view",
      "type": "function"
    },
    {
      "inputs": [],
      "name": "firstPhaseTotalSupply",
      "outputs": [
        {
          "internalType": "uint256",
          "name": "",
          "type": "uint256"
        }
      ],
      "stateMutability": "view",
      "type": "function"
    },
    {
      "inputs": [],
      "name": "getCurrentPeriod",
      "outputs": [
        {
          "internalType": "uint16",
          "name": "",
          "type": "uint16"
        }
      ],
      "stateMutability": "view",
      "type": "function"
    },
    {
      "inputs": [],
      "name": "getReservedReward",
      "outputs": [
        {
          "internalType": "uint256",
          "name": "",
          "type": "uint256"
        }
      ],
      "stateMutability": "view",
      "type": "function"
    },
    {
      "inputs": [
        {
          "internalType": "uint256",
          "name": "_reservedReward",
          "type": "uint256"
        }
      ],
      "name": "initialize",
      "outputs": [],
      "stateMutability": "nonpayable",
      "type": "function"
    },
    {
      "inputs": [],
      "name": "isOwner",
      "outputs": [
        {
          "internalType": "bool",
          "name": "",
          "type": "bool"
        }
      ],
      "stateMutability": "view",
      "type": "function"
    },
    {
      "inputs": [],
      "name": "isUpgrade",
      "outputs": [
        {
          "internalType": "uint8",
          "name": "",
          "type": "uint8"
        }
      ],
      "stateMutability": "view",
      "type": "function"
    },
    {
      "inputs": [],
      "name": "lockDurationCoefficient1",
      "outputs": [
        {
          "internalType": "uint256",
          "name": "",
          "type": "uint256"
        }
      ],
      "stateMutability": "view",
      "type": "function"
    },
    {
      "inputs": [],
      "name": "lockDurationCoefficient2",
      "outputs": [
        {
          "internalType": "uint256",
          "name": "",
          "type": "uint256"
        }
      ],
      "stateMutability": "view",
      "type": "function"
    },
    {
      "inputs": [],
      "name": "maximumRewardedPeriods",
      "outputs": [
        {
          "internalType": "uint16",
          "name": "",
          "type": "uint16"
        }
      ],
      "stateMutability": "view",
      "type": "function"
    },
    {
      "inputs": [],
      "name": "mintingCoefficient",
      "outputs": [
        {
          "internalType": "uint256",
          "name": "",
          "type": "uint256"
        }
      ],
      "stateMutability": "view",
      "type": "function"
    },
    {
      "inputs": [],
      "name": "owner",
      "outputs": [
        {
          "internalType": "address",
          "name": "",
          "type": "address"
        }
      ],
      "stateMutability": "view",
      "type": "function"
    },
    {
      "inputs": [],
      "name": "previousPeriodSupply",
      "outputs": [
        {
          "internalType": "uint128",
          "name": "",
          "type": "uint128"
        }
      ],
      "stateMutability": "view",
      "type": "function"
    },
    {
      "inputs": [],
      "name": "previousTarget",
      "outputs": [
        {
          "internalType": "address",
          "name": "",
          "type": "address"
        }
      ],
      "stateMutability": "view",
      "type": "function"
    },
    {
      "inputs": [],
      "name": "renounceOwnership",
      "outputs": [],
      "stateMutability": "nonpayable",
      "type": "function"
    },
    {
      "inputs": [],
      "name": "secondsPerPeriod",
      "outputs": [
        {
          "internalType": "uint32",
          "name": "",
          "type": "uint32"
        }
      ],
      "stateMutability": "view",
      "type": "function"
    },
    {
      "inputs": [],
      "name": "target",
      "outputs": [
        {
          "internalType": "address",
          "name": "",
          "type": "address"
        }
      ],
      "stateMutability": "view",
      "type": "function"
    },
    {
      "inputs": [
        {
          "internalType": "uint16",
          "name": "_currentPeriod",
          "type": "uint16"
        },
        {
          "internalType": "uint256",
          "name": "_lockedValue",
          "type": "uint256"
        },
        {
          "internalType": "uint256",
          "name": "_totalLockedValue",
          "type": "uint256"
        },
        {
          "internalType": "uint16",
          "name": "_allLockedPeriods",
          "type": "uint16"
        }
      ],
      "name": "testMint",
      "outputs": [
        {
          "internalType": "uint256",
          "name": "amount",
          "type": "uint256"
        }
      ],
      "stateMutability": "nonpayable",
      "type": "function"
    },
    {
      "inputs": [],
      "name": "token",
      "outputs": [
        {
          "internalType": "contract NuCypherToken",
          "name": "",
          "type": "address"
        }
      ],
      "stateMutability": "view",
      "type": "function"
    },
    {
      "inputs": [],
      "name": "totalSupply",
      "outputs": [
        {
          "internalType": "uint128",
          "name": "",
          "type": "uint128"
        }
      ],
      "stateMutability": "view",
      "type": "function"
    },
    {
      "inputs": [
        {
          "internalType": "address",
          "name": "newOwner",
          "type": "address"
        }
      ],
      "name": "transferOwnership",
      "outputs": [],
      "stateMutability": "nonpayable",
      "type": "function"
    },
    {
      "inputs": [
        {
          "internalType": "address",
          "name": "_testTarget",
          "type": "address"
        }
      ],
      "name": "verifyState",
      "outputs": [],
      "stateMutability": "nonpayable",
      "type": "function"
    }
  ],
  "bytecode": "6101a06040523480156200001257600080fd5b506040516200143f3803806200143f83398181016040526101008110156200003957600080fd5b50805160208201516040808401516060850151608086015160a087015160c088015160e090980151600080546001600160a01b031916331780825596519899979895979496939592949391928a928a928a928a928a928a928a928a926001600160a01b0391909116917f8be0079c531659141344cd1fd0a4f28419497f9722a3daafe3b4186f6b6457e0908290a36000886001600160a01b03166318160ddd6040518163ffffffff1660e01b815260040160206040518083038186803b1580156200010357600080fd5b505afa15801562000118573d6000803e3d6000fd5b505050506040513d60208110156200012f57600080fd5b5051905080158015906200014257508615155b801562000154575063ffffffff881615155b80156200016057508515155b80156200016c57508415155b80156200017c575061ffff841615155b6200018657600080fd5b6001600160801b03811115620001ce5760405162461bcd60e51b815260040180806020018281038252602d8152602001806200136c602d913960400191505060405180910390fd5b61ffff8416808701908887029082118015620001f3575086898281620001f057fe5b04145b80156200020b57508083828502816200020857fe5b04145b80156200022f57508183848486870202816200022357fe5b04816200022c57fe5b04145b6200026c5760405162461bcd60e51b8152600401808060200182810382526023815260200180620013e26023913960400191505060405180910390fd5b86821115620002ad5760405162461bcd60e51b815260040180806020018281038252603a81526020018062001405603a913960400191505060405180910390fd5b82851115620002ee5760405162461bcd60e51b8152600401808060200182810382526023815260200180620013996023913960400191505060405180910390fd5b848411156200032f5760405162461bcd60e51b8152600401808060200182810382526026815260200180620013bc6026913960400191505060405180910390fd5b60608b901b6001600160601b0319166080526200036163ffffffff8b16610e10620003c1602090811b62000e2c17901c565b60e090811b6001600160e01b0319166101205297909752506101009490945260f09290921b6001600160f01b03191661014052610180526101605260801b6001600160801b03191660a05260c052506200040a9950505050505050505050565b600063ffffffff8316620003d85750600062000404565b82820263ffffffff8084169080861690831681620003f257fe5b0463ffffffff16146200040157fe5b90505b92915050565b60805160601c60a05160801c60c05160e051610100516101205160e01c6101405160f01c6101605161018051610e9e620004ce6000398061046a5280610acf52508061043752806108bd5280610afb5280610b235250806105575280610be85250806103be528061048e5250806108525280610b465250806106585280610bc352508061059b5280610b9f5250806103fd52806104d6528061091b5280610a3d5280610b7c52508061072b52806107c65280610876528061095c5250610e9e6000f3fe608060405234801561001057600080fd5b506004361061018e5760003560e01c80638f32d59b116100de578063e8dccd0611610097578063f2fde38b11610071578063f2fde38b14610367578063f6910cb81461038d578063fc0c546a14610395578063fe4b84df1461039d5761018e565b8063e8dccd06146102ef578063efb5c0d514610315578063f14faf6f1461034a5761018e565b80638f32d59b14610277578063909f7c8814610293578063b9626d211461029b578063c83d8708146102c1578063d4b83992146102c9578063e38a303b146102d15761018e565b80633ae10a151161014b5780636784c917116101255780636784c91714610255578063715018a61461025d5780637b3888ef146102675780638da5cb5b1461026f5761018e565b80633ae10a1514610208578063407f8001146102105780634b2cd118146102315761018e565b8063086146d2146101935780630f64ab14146101b257806318160ddd146101ba578063204612a8146101de5780632d621434146101e65780633250843d14610200575b600080fd5b61019b6103ba565b6040805161ffff9092168252519081900360200190f35b61019b6103f1565b6101c26103fb565b604080516001600160801b039092168252519081900360200190f35b6101c261041f565b6101ee610435565b60408051918252519081900360200190f35b6101c2610459565b6101ee610468565b61021861048c565b6040805163ffffffff9092168252519081900360200190f35b6102396104b0565b604080516001600160a01b039092168252519081900360200190f35b6101ee6104bf565b6102656104fa565b005b61019b610555565b610239610579565b61027f610588565b604080519115158252519081900360200190f35b6101ee610599565b610265600480360360208110156102b157600080fd5b50356001600160a01b03166105bd565b6101ee610656565b61023961067a565b6102d9610689565b6040805160ff9092168252519081900360200190f35b6102656004803603602081101561030557600080fd5b50356001600160a01b0316610699565b6101ee6004803603608081101561032b57600080fd5b5061ffff813581169160208101359160408201359160600135166106f3565b6102656004803603602081101561036057600080fd5b50356107a9565b6102656004803603602081101561037d57600080fd5b50356001600160a01b0316610836565b6101ee610850565b610239610874565b610265600480360360208110156103b357600080fd5b5035610898565b60007f000000000000000000000000000000000000000000000000000000000000000063ffffffff1642816103eb57fe5b04905090565b60055461ffff1681565b7f000000000000000000000000000000000000000000000000000000000000000081565b600454600160801b90046001600160801b031681565b7f000000000000000000000000000000000000000000000000000000000000000081565b6004546001600160801b031681565b7f000000000000000000000000000000000000000000000000000000000000000081565b7f000000000000000000000000000000000000000000000000000000000000000081565b6002546001600160a01b031681565b6004546001600160801b03600160801b90910481167f0000000000000000000000000000000000000000000000000000000000000000031690565b610502610588565b61050b57600080fd5b600080546040516001600160a01b03909116907f8be0079c531659141344cd1fd0a4f28419497f9722a3daafe3b4186f6b6457e0908390a3600080546001600160a01b0319169055565b7f000000000000000000000000000000000000000000000000000000000000000081565b6000546001600160a01b031690565b6000546001600160a01b0316331490565b7f000000000000000000000000000000000000000000000000000000000000000081565b6105c6816109c2565b60055461ffff166105de826303d92ac560e21b610a1c565b61ffff16146105ec57600080fd5b6004546001600160801b031661060982633250843d60e01b610a1c565b6001600160801b03161461061c57600080fd5b600454600160801b90046001600160801b031661064082630408c25560e31b610a1c565b6001600160801b03161461065357600080fd5b50565b7f000000000000000000000000000000000000000000000000000000000000000081565b6001546001600160a01b031681565b600254600160a01b900460ff1681565b60028054600160a01b900460ff16146106b157600080fd5b6040805133815290516001600160a01b038316917fd55ec27c5c6316913ed8803c18cfd1bfefea953db909dcba6140744a9d8b0d1f919081900360200190a250565b600061070185858585610a35565b6040805163a9059cbb60e01b81523360048201526024810183905290519192506001600160a01b037f0000000000000000000000000000000000000000000000000000000000000000169163a9059cbb916044808201926020929091908290030181600087803b15801561077457600080fd5b505af1158015610788573d6000803e3d6000fd5b505050506040513d602081101561079e57600080fd5b509095945050505050565b60055461ffff166107b957600080fd5b6107f46001600160a01b037f00000000000000000000000000000000000000000000000000000000000000001633308463ffffffff610c7816565b6107fd81610d0e565b60408051828152905133917f2a01595cddf097c90216094025db714da3f4e5bd8877b56ba86a24ecead8e543919081900360200190a250565b61083e610588565b61084757600080fd5b61065381610d4c565b7f000000000000000000000000000000000000000000000000000000000000000081565b7f000000000000000000000000000000000000000000000000000000000000000081565b6108a0610588565b6108a957600080fd5b60055461ffff16156108ba57600080fd5b807f000000000000000000000000000000000000000000000000000000000000000011156108e757600080fd5b6108ef6103ba565b6005805461ffff191661ffff9290921691909117905560048054600160801b6001600160801b039182167f000000000000000000000000000000000000000000000000000000000000000085900383168202179081049091166001600160801b031990911617905561098c7f00000000000000000000000000000000000000000000000000000000000000006001600160a01b0316333084610c78565b6040805182815290517fbe9b076dc5b65990cca9dd9d7366682482e7817a6f6bc7f4faf4dc32af497f329181900360200190a150565b60028054600160a01b900460ff16146109da57600080fd5b6040805133815290516001600160a01b038316917f1e8d98c1b4a0d9bd2e2371026b632eb2773fcce41742e41f02f574ab69868d4c919081900360200190a250565b600080610a2c8484838080610dba565b51949350505050565b6004546000907f00000000000000000000000000000000000000000000000000000000000000006001600160801b03908116600160801b909204161415610a7e57506000610c70565b60055461ffff9081169086161115610ac55760048054600160801b81046001600160801b03166001600160801b03199091161790556005805461ffff191661ffff87161790555b60045460009081907f00000000000000000000000000000000000000000000000000000000000000006001600160801b039091167f00000000000000000000000000000000000000000000000000000000000000000111610b6a57507f000000000000000000000000000000000000000000000000000000000000000090507f0000000000000000000000000000000000000000000000000000000000000000610bbf565b50506004546001600160801b039081167f000000000000000000000000000000000000000000000000000000000000000003167f00000000000000000000000000000000000000000000000000000000000000005b60007f0000000000000000000000000000000000000000000000000000000000000000610c0c867f0000000000000000000000000000000000000000000000000000000000000000610e0a565b61ffff16019050818602818885020281610c2257fe5b0493506000610c2f6104bf565b905084610c3f5760019450610c4b565b80851115610c4b578094505b5050600480546001600160801b03600160801b80830482168701821602911617905550505b949350505050565b604080516323b872dd60e01b81526001600160a01b0385811660048301528481166024830152604482018490529151918616916323b872dd916064808201926020929091908290030181600087803b158015610cd357600080fd5b505af1158015610ce7573d6000803e3d6000fd5b505050506040513d6020811015610cfd57600080fd5b5051610d0857600080fd5b50505050565b600480546001600160801b031981166001600160801b03918216849003821617808216600160801b9182900483169490940390911602919091179055565b6001600160a01b038116610d5f57600080fd5b600080546040516001600160a01b03808516939216917f8be0079c531659141344cd1fd0a4f28419497f9722a3daafe3b4186f6b6457e091a3600080546001600160a01b0319166001600160a01b0392909216919091179055565b6040518481528315610dcd578260048201525b6001841115610ddd578160248201525b6000808560200260040183895af48015610dfb573d6000833e610e00565b600082fd5b5095945050505050565b60008161ffff168361ffff1610610e215781610e23565b825b90505b92915050565b600063ffffffff8316610e4157506000610e26565b82820263ffffffff8084169080861690831681610e5a57fe5b0463ffffffff1614610e2357fefea264697066735822122075607e3b86a4f91e4193bdb476d9f4c75bbd20490745edf4d01a3d535c1c46cc64736f6c63430006070033546f6b656e20636f6e74726163742068617320737570706c79206d6f7265207468616e20737570706f72746564546f6f206d616e7920746f6b656e7320666f722074686520666972737420706861736552657761726420666f722074686520666972737420706861736520697320746f6f206869676853706563696669656420706172616d6574657273206361757365206f766572666c6f77526573756c74696e67206c6f636b696e67206475726174696f6e20636f656666696369656e74206d757374206265206c657373207468616e2031",
  "bytecodeSha1": "da39a3ee5e6b4b0d3255bfef95601890afd80709",
  "compiler": {
    "evm_version": "berlin",
    "optimizer": {
      "enabled": true,
      "runs": 200
    },
    "version": "0.6.7"
  },
  "contractName": "IssuerMock",
  "language": "Solidity",
  "natspec": {
    "details": "Contract for testing internal methods in the Issuer contract",
    "methods": {
      "donate(uint256)": {
        "notice": "Donate sender's tokens. Amount of tokens will be returned for future minting",
        "params": {
          "_value": "Amount to donate"
        }
      },
      "finishUpgrade(address)": {
        "details": "Copy values from the new target to the current storage",
        "params": {
          "_target": "New target contract address"
        }
      },
      "getReservedReward()": {
        "notice": "Returns the number of tokens that can be minted"
      },
      "initialize(uint256)": {
        "notice": "Initialize reserved tokens for reward"
      },
      "renounceOwnership()": {
        "details": "Allows the current owner to relinquish control of the contract.",
        "notice": "Renouncing to ownership will leave the contract without an owner. It will not be possible to call the functions with the `onlyOwner` modifier anymore."
      },
      "transferOwnership(address)": {
        "details": "Allows the current owner to transfer control of the contract to a newOwner.",
        "params": {
          "newOwner": "The address to transfer ownership to."
        }
      },
      "verifyState(address)": {
        "details": "the `onlyWhileUpgrading` modifier works through a call to the parent `verifyState`"
      }
    }
  },
  "opcodes": "PUSH1 0x80 PUSH1 0x40 MSTORE CALLVALUE DUP1 ISZERO PUSH2 0x10 JUMPI PUSH1 0x0 DUP1 REVERT JUMPDEST POP PUSH1 0x4 CALLDATASIZE LT PUSH2 0x18E JUMPI PUSH1 0x0 CALLDATALOAD PUSH1 0xE0 SHR DUP1 PUSH4 0x8F32D59B GT PUSH2 0xDE JUMPI DUP1 PUSH4 0xE8DCCD06 GT PUSH2 0x97 JUMPI DUP1 PUSH4 0xF2FDE38B GT PUSH2 0x71 JUMPI DUP1 PUSH4 0xF2FDE38B EQ PUSH2 0x367 JUMPI DUP1 PUSH4 0xF6910CB8 EQ PUSH2 0x38D JUMPI DUP1 PUSH4 0xFC0C546A EQ PUSH2 0x395 JUMPI DUP1 PUSH4 0xFE4B84DF EQ PUSH2 0x39D JUMPI PUSH2 0x18E JUMP JUMPDEST DUP1 PUSH4 0xE8DCCD06 EQ PUSH2 0x2EF JUMPI DUP1 PUSH4 0xEFB5C0D5 EQ PUSH2 0x315 JUMPI DUP1 PUSH4 0xF14FAF6F EQ PUSH2 0x34A JUMPI PUSH2 0x18E JUMP JUMPDEST DUP1 PUSH4 0x8F32D59B EQ PUSH2 0x277 JUMPI DUP1 PUSH4 0x909F7C88 EQ PUSH2 0x293 JUMPI DUP1 PUSH4 0xB9626D21 EQ PUSH2 0x29B JUMPI DUP1 PUSH4 0xC83D8708 EQ PUSH2 0x2C1 JUMPI DUP1 PUSH4 0xD4B83992 EQ PUSH2 0x2C9 JUMPI DUP1 PUSH4 0xE38A303B EQ PUSH2 0x2D1 JUMPI PUSH2 0x18E JUMP JUMPDEST DUP1 PUSH4 0x3AE10A15 GT PUSH2 0x14B JUMPI DUP1 PUSH4 0x6784C917 GT PUSH2 0x125 JUMPI DUP1 PUSH4 0x6784C917 EQ PUSH2 0x255 JUMPI DUP1 PUSH4 0x715018A6 EQ PUSH2 0x25D JUMPI DUP1 PUSH4 0x7B3888EF EQ PUSH2 0x267 JUMPI DUP1 PUSH4 0x8DA5CB5B EQ PUSH2 0x26F JUMPI PUSH2 0x18E JUMP JUMPDEST DUP1 PUSH4 0x3AE10A15 EQ PUSH2 0x208 JUMPI DUP1 PUSH4 0x407F8001 EQ PUSH2 0x210 JUMPI DUP1 PUSH4 0x4B2CD118 EQ PUSH2 0x231 JUMPI PUSH2 0x18E JUMP JUMPDEST DUP1 PUSH4 0x86146D2 EQ PUSH2 0x193 JUMPI DUP1 PUSH4 0xF64AB14 EQ PUSH2 0x1B2 JUMPI DUP1 PUSH4 0x18160DDD EQ PUSH2 0x1BA JUMPI DUP1 PUSH4 0x204612A8 EQ PUSH2 0x1DE JUMPI DUP1 PUSH4 0x2D621434 EQ PUSH2 0x1E6 JUMPI DUP1 PUSH4 0x3250843D EQ PUSH2 0x200 JUMPI JUMPDEST PUSH1 0x0 DUP1 REVERT JUMPDEST PUSH2 0x19B PUSH2 0x3BA JUMP JUMPDEST PUSH1 0x40 DUP1 MLOAD PUSH2 0xFFFF SWAP1 SWAP3 AND DUP3 MSTORE MLOAD SWAP1 DUP2 SWAP1 SUB PUSH1 0x20 ADD SWAP1 RETURN JUMPDEST PUSH2 0x19B PUSH2 0x3F1 JUMP JUMPDEST PUSH2 0x1C2 PUSH2 0x3FB JUMP JUMPDEST PUSH1 0x40 DUP1 MLOAD PUSH1 0x1 PUSH1 0x1 PUSH1 0x80 SHL SUB SWAP1 SWAP3 AND DUP3 MSTORE MLOAD SWAP1 DUP2 SWAP1 SUB PUSH1 0x20 ADD SWAP1 RETURN JUMPDEST PUSH2 0x1C2 PUSH2 0x41F JUMP JUMPDEST PUSH2 0x1EE PUSH2 0x435 JUMP JUMPDEST PUSH1 0x40 DUP1 MLOAD SWAP2 DUP3 MSTORE MLOAD SWAP1 DUP2 SWAP1 SUB PUSH1 0x20 ADD SWAP1 RETURN JUMPDEST PUSH2 0x1C2 PUSH2 0x459 JUMP JUMPDEST PUSH2 0x1EE PUSH2 0x468 JUMP JUMPDEST PUSH2 0x218 PUSH2 0x48C JUMP JUMPDEST PUSH1 0x40 DUP1 MLOAD PUSH4 0xFFFFFFFF SWAP1 SWAP3 AND DUP3 MSTORE MLOAD SWAP1 DUP2 SWAP1 SUB PUSH1 0x20 ADD SWAP1 RETURN JUMPDEST PUSH2 0x239 PUSH2 0x4B0 JUMP JUMPDEST PUSH1 0x40 DUP1 MLOAD PUSH1 0x1 PUSH1 0x1 PUSH1 0xA0 SHL SUB SWAP1 SWAP3 AND DUP3 MSTORE MLOAD SWAP1 DUP2 SWAP1 SUB PUSH1 0x20 ADD SWAP1 RETURN JUMPDEST PUSH2 0x1EE PUSH2 0x4BF JUMP JUMPDEST PUSH2 0x265 PUSH2 0x4FA JUMP JUMPDEST STOP JUMPDEST PUSH2 0x19B PUSH2 0x555 JUMP JUMPDEST PUSH2 0x239 PUSH2 0x579 JUMP JUMPDEST PUSH2 0x27F PUSH2 0x588 JUMP JUMPDEST PUSH1 0x40 DUP1 MLOAD SWAP2 ISZERO ISZERO DUP3 MSTORE MLOAD SWAP1 DUP2 SWAP1 SUB PUSH1 0x20 ADD SWAP1 RETURN JUMPDEST PUSH2 0x1EE PUSH2 0x599 JUMP JUMPDEST PUSH2 0x265 PUSH1 0x4 DUP1 CALLDATASIZE SUB PUSH1 0x20 DUP2 LT ISZERO PUSH2 0x2B1 JUMPI PUSH1 0x0 DUP1 REVERT JUMPDEST POP CALLDATALOAD PUSH1 0x1 PUSH1 0x1 PUSH1 0xA0 SHL SUB AND PUSH2 0x5BD JUMP JUMPDEST PUSH2 0x1EE PUSH2 0x656 JUMP JUMPDEST PUSH2 0x239 PUSH2 0x67A JUMP JUMPDEST PUSH2 0x2D9 PUSH2 0x689 JUMP JUMPDEST PUSH1 0x40 DUP1 MLOAD PUSH1 0xFF SWAP1 SWAP3 AND DUP3 MSTORE MLOAD SWAP1 DUP2 SWAP1 SUB PUSH1 0x20 ADD SWAP1 RETURN JUMPDEST PUSH2 0x265 PUSH1 0x4 DUP1 CALLDATASIZE SUB PUSH1 0x20 DUP2 LT ISZERO PUSH2 0x305 JUMPI PUSH1 0x0 DUP1 REVERT JUMPDEST POP CALLDATALOAD PUSH1 0x1 PUSH1 0x1 PUSH1 0xA0 SHL SUB AND PUSH2 0x699 JUMP JUMPDEST PUSH2 0x1EE PUSH1 0x4 DUP1 CALLDATASIZE SUB PUSH1 0x80 DUP2 LT ISZERO PUSH2 0x32B JUMPI PUSH1 0x0 DUP1 REVERT JUMPDEST POP PUSH2 0xFFFF DUP2 CALLDATALOAD DUP2 AND SWAP2 PUSH1 0x20 DUP2 ADD CALLDATALOAD SWAP2 PUSH1 0x40 DUP3 ADD CALLDATALOAD SWAP2 PUSH1 0x60 ADD CALLDATALOAD AND PUSH2 0x6F3 JUMP JUMPDEST PUSH2 0x265 PUSH1 0x4 DUP1 CALLDATASIZE SUB PUSH1 0x20 DUP2 LT ISZERO PUSH2 0x360 JUMPI PUSH1 0x0 DUP1 REVERT JUMPDEST POP CALLDATALOAD PUSH2 0x7A9 JUMP JUMPDEST PUSH2 0x265 PUSH1 0x4 DUP1 CALLDATASIZE SUB PUSH1 0x20 DUP2 LT ISZERO PUSH2 0x37D JUMPI PUSH1 0x0 DUP1 REVERT JUMPDEST POP CALLDATALOAD PUSH1 0x1 PUSH1 0x1 PUSH1 0xA0 SHL SUB AND PUSH2 0x836 JUMP JUMPDEST PUSH2 0x1EE PUSH2 0x850 JUMP JUMPDEST PUSH2 0x239 PUSH2 0x874 JUMP JUMPDEST PUSH2 0x265 PUSH1 0x4 DUP1 CALLDATASIZE SUB PUSH1 0x20 DUP2 LT ISZERO PUSH2 0x3B3 JUMPI PUSH1 0x0 DUP1 REVERT JUMPDEST POP CALLDATALOAD PUSH2 0x898 JUMP JUMPDEST PUSH1 0x0 PUSH32 0x0 PUSH4 0xFFFFFFFF AND TIMESTAMP DUP2 PUSH2 0x3EB JUMPI INVALID JUMPDEST DIV SWAP1 POP SWAP1 JUMP JUMPDEST PUSH1 0x5 SLOAD PUSH2 0xFFFF AND DUP2 JUMP JUMPDEST PUSH32 0x0 DUP2 JUMP JUMPDEST PUSH1 0x4 SLOAD PUSH1 0x1 PUSH1 0x80 SHL SWAP1 DIV PUSH1 0x1 PUSH1 0x1 PUSH1 0x80 SHL SUB AND DUP2 JUMP JUMPDEST PUSH32 0x0 DUP2 JUMP JUMPDEST PUSH1 0x4 SLOAD PUSH1 0x1 PUSH1 0x1 PUSH1 0x80 SHL SUB AND DUP2 JUMP JUMPDEST PUSH32 0x0 DUP2 JUMP JUMPDEST PUSH32 0x0 DUP2 JUMP JUMPDEST PUSH1 0x2 SLOAD PUSH1 0x1 PUSH1 0x1 PUSH1 0xA0 SHL SUB AND DUP2 JUMP JUMPDEST PUSH1 0x4 SLOAD PUSH1 0x1 PUSH1 0x1 PUSH1 0x80 SHL SUB PUSH1 0x1 PUSH1 0x80 SHL SWAP1 SWAP2 DIV DUP2 AND PUSH32 0x0 SUB AND SWAP1 JUMP JUMPDEST PUSH2 0x502 PUSH2 0x588 JUMP JUMPDEST PUSH2 0x50B JUMPI PUSH1 0x0 DUP1 REVERT JUMPDEST PUSH1 0x0 DUP1 SLOAD PUSH1 0x40 MLOAD PUSH1 0x1 PUSH1 0x1 PUSH1 0xA0 SHL SUB SWAP1 SWAP2 AND SWAP1 PUSH32 0x8BE0079C531659141344CD1FD0A4F28419497F9722A3DAAFE3B4186F6B6457E0 SWAP1 DUP4 SWAP1 LOG3 PUSH1 0x0 DUP1 SLOAD PUSH1 0x1 PUSH1 0x1 PUSH1 0xA0 SHL SUB NOT AND SWAP1 SSTORE JUMP JUMPDEST PUSH32 0x0 DUP2 JUMP JUMPDEST PUSH1 0x0 SLOAD PUSH1 0x1 PUSH1 0x1 PUSH1 0xA0 SHL SUB AND SWAP1 JUMP JUMPDEST PUSH1 0x0 SLOAD PUSH1 0x1 PUSH1 0x1 PUSH1 0xA0 SHL SUB AND CALLER EQ SWAP1 JUMP JUMPDEST PUSH32 0x0 DUP2 JUMP JUMPDEST PUSH2 0x5C6 DUP2 PUSH2 0x9C2 JUMP JUMPDEST PUSH1 0x5 SLOAD PUSH2 0xFFFF AND PUSH2 0x5DE DUP3 PUSH4 0x3D92AC5 PUSH1 0xE2 SHL PUSH2 0xA1C JUMP JUMPDEST PUSH2 0xFFFF AND EQ PUSH2 0x5EC JUMPI PUSH1 0x0 DUP1 REVERT JUMPDEST PUSH1 0x4 SLOAD PUSH1 0x1 PUSH1 0x1 PUSH1 0x80 SHL SUB AND PUSH2 0x609 DUP3 PUSH4 0x3250843D PUSH1 0xE0 SHL PUSH2 0xA1C JUMP JUMPDEST PUSH1 0x1 PUSH1 0x1 PUSH1 0x80 SHL SUB AND EQ PUSH2 0x61C JUMPI PUSH1 0x0 DUP1 REVERT JUMPDEST PUSH1 0x4 SLOAD PUSH1 0x1 PUSH1 0x80 SHL SWAP1 DIV PUSH1 0x1 PUSH1 0x1 PUSH1 0x80 SHL SUB AND PUSH2 0x640 DUP3 PUSH4 0x408C255 PUSH1 0xE3 SHL PUSH2 0xA1C JUMP JUMPDEST PUSH1 0x1 PUSH1 0x1 PUSH1 0x80 SHL SUB AND EQ PUSH2 0x653 JUMPI PUSH1 0x0 DUP1 REVERT JUMPDEST POP JUMP JUMPDEST PUSH32 0x0 DUP2 JUMP JUMPDEST PUSH1 0x1 SLOAD PUSH1 0x1 PUSH1 0x1 PUSH1 0xA0 SHL SUB AND DUP2 JUMP JUMPDEST PUSH1 0x2 SLOAD PUSH1 0x1 PUSH1 0xA0 SHL SWAP1 DIV PUSH1 0xFF AND DUP2 JUMP JUMPDEST PUSH1 0x2 DUP1 SLOAD PUSH1 0x1 PUSH1 0xA0 SHL SWAP1 DIV PUSH1 0xFF AND EQ PUSH2 0x6B1 JUMPI PUSH1 0x0 DUP1 REVERT JUMPDEST PUSH1 0x40 DUP1 MLOAD CALLER DUP2 MSTORE SWAP1 MLOAD PUSH1 0x1 PUSH1 0x1 PUSH1 0xA0 SHL SUB DUP4 AND SWAP2 PUSH32 0xD55EC27C5C6316913ED8803C18CFD1BFEFEA953DB909DCBA6140744A9D8B0D1F SWAP2 SWAP1 DUP2 SWAP1 SUB PUSH1 0x20 ADD SWAP1 LOG2 POP JUMP JUMPDEST PUSH1 0x0 PUSH2 0x701 DUP6 DUP6 DUP6 DUP6 PUSH2 0xA35 JUMP JUMPDEST PUSH1 0x40 DUP1 MLOAD PUSH4 0xA9059CBB PUSH1 0xE0 SHL DUP2 MSTORE CALLER PUSH1 0x4 DUP3 ADD MSTORE PUSH1 0x24 DUP2 ADD DUP4 SWAP1 MSTORE SWAP1 MLOAD SWAP2 SWAP3 POP PUSH1 0x1 PUSH1 0x1 PUSH1 0xA0 SHL SUB PUSH32 0x0 AND SWAP2 PUSH4 0xA9059CBB SWAP2 PUSH1 0x44 DUP1 DUP3 ADD SWAP3 PUSH1 0x20 SWAP3 SWAP1 SWAP2 SWAP1 DUP3 SWAP1 SUB ADD DUP2 PUSH1 0x0 DUP8 DUP1 EXTCODESIZE ISZERO DUP1 ISZERO PUSH2 0x774 JUMPI PUSH1 0x0 DUP1 REVERT JUMPDEST POP GAS CALL ISZERO DUP1 ISZERO PUSH2 0x788 JUMPI RETURNDATASIZE PUSH1 0x0 DUP1 RETURNDATACOPY RETURNDATASIZE PUSH1 0x0 REVERT JUMPDEST POP POP POP POP PUSH1 0x40 MLOAD RETURNDATASIZE PUSH1 0x20 DUP2 LT ISZERO PUSH2 0x79E JUMPI PUSH1 0x0 DUP1 REVERT JUMPDEST POP SWAP1 SWAP6 SWAP5 POP POP POP POP POP JUMP JUMPDEST PUSH1 0x5 SLOAD PUSH2 0xFFFF AND PUSH2 0x7B9 JUMPI PUSH1 0x0 DUP1 REVERT JUMPDEST PUSH2 0x7F4 PUSH1 0x1 PUSH1 0x1 PUSH1 0xA0 SHL SUB PUSH32 0x0 AND CALLER ADDRESS DUP5 PUSH4 0xFFFFFFFF PUSH2 0xC78 AND JUMP JUMPDEST PUSH2 0x7FD DUP2 PUSH2 0xD0E JUMP JUMPDEST PUSH1 0x40 DUP1 MLOAD DUP3 DUP2 MSTORE SWAP1 MLOAD CALLER SWAP2 PUSH32 0x2A01595CDDF097C90216094025DB714DA3F4E5BD8877B56BA86A24ECEAD8E543 SWAP2 SWAP1 DUP2 SWAP1 SUB PUSH1 0x20 ADD SWAP1 LOG2 POP JUMP JUMPDEST PUSH2 0x83E PUSH2 0x588 JUMP JUMPDEST PUSH2 0x847 JUMPI PUSH1 0x0 DUP1 REVERT JUMPDEST PUSH2 0x653 DUP2 PUSH2 0xD4C JUMP JUMPDEST PUSH32 0x0 DUP2 JUMP JUMPDEST PUSH32 0x0 DUP2 JUMP JUMPDEST PUSH2 0x8A0 PUSH2 0x588 JUMP JUMPDEST PUSH2 0x8A9 JUMPI PUSH1 0x0 DUP1 REVERT JUMPDEST PUSH1 0x5 SLOAD PUSH2 0xFFFF AND ISZERO PUSH2 0x8BA JUMPI PUSH1 0x0 DUP1 REVERT JUMPDEST DUP1 PUSH32 0x0 GT ISZERO PUSH2 0x8E7 JUMPI PUSH1 0x0 DUP1 REVERT JUMPDEST PUSH2 0x8EF PUSH2 0x3BA JUMP JUMPDEST PUSH1 0x5 DUP1 SLOAD PUSH2 0xFFFF NOT AND PUSH2 0xFFFF SWAP3 SWAP1 SWAP3 AND SWAP2 SWAP1 SWAP2 OR SWAP1 SSTORE PUSH1 0x4 DUP1 SLOAD PUSH1 0x1 PUSH1 0x80 SHL PUSH1 0x1 PUSH1 0x1 PUSH1 0x80 SHL SUB SWAP2 DUP3 AND PUSH32 0x0 DUP6 SWAP1 SUB DUP4 AND DUP3 MUL OR SWAP1 DUP2 DIV SWAP1 SWAP2 AND PUSH1 0x1 PUSH1 0x1 PUSH1 0x80 SHL SUB NOT SWAP1 SWAP2 AND OR SWAP1 SSTORE PUSH2 0x98C PUSH32 0x0 PUSH1 0x1 PUSH1 0x1 PUSH1 0xA0 SHL SUB AND CALLER ADDRESS DUP5 PUSH2 0xC78 JUMP JUMPDEST PUSH1 0x40 DUP1 MLOAD DUP3 DUP2 MSTORE SWAP1 MLOAD PUSH32 0xBE9B076DC5B65990CCA9DD9D7366682482E7817A6F6BC7F4FAF4DC32AF497F32 SWAP2 DUP2 SWAP1 SUB PUSH1 0x20 ADD SWAP1 LOG1 POP JUMP JUMPDEST PUSH1 0x2 DUP1 SLOAD PUSH1 0x1 PUSH1 0xA0 SHL SWAP1 DIV PUSH1 0xFF AND EQ PUSH2 0x9DA JUMPI PUSH1 0x0 DUP1 REVERT JUMPDEST PUSH1 0x40 DUP1 MLOAD CALLER DUP2 MSTORE SWAP1 MLOAD PUSH1 0x1 PUSH1 0x1 PUSH1 0xA0 SHL SUB DUP4 AND SWAP2 PUSH32 0x1E8D98C1B4A0D9BD2E2371026B632EB2773FCCE41742E41F02F574AB69868D4C SWAP2 SWAP1 DUP2 SWAP1 SUB PUSH1 0x20 ADD SWAP1 LOG2 POP JUMP JUMPDEST PUSH1 0x0 DUP1 PUSH2 0xA2C DUP5 DUP5 DUP4 DUP1 DUP1 PUSH2 0xDBA JUMP JUMPDEST MLOAD SWAP5 SWAP4 POP POP POP POP JUMP JUMPDEST PUSH1 0x4 SLOAD PUSH1 0x0 SWAP1 PUSH32 0x0 PUSH1 0x1 PUSH1 0x1 PUSH1 0x80 SHL SUB SWAP1 DUP2 AND PUSH1 0x1 PUSH1 0x80 SHL SWAP1 SWAP3 DIV AND EQ ISZERO PUSH2 0xA7E JUMPI POP PUSH1 0x0 PUSH2 0xC70 JUMP JUMPDEST PUSH1 0x5 SLOAD PUSH2 0xFFFF SWAP1 DUP2 AND SWAP1 DUP7 AND GT ISZERO PUSH2 0xAC5 JUMPI PUSH1 0x4 DUP1 SLOAD PUSH1 0x1 PUSH1 0x80 SHL DUP2 DIV PUSH1 0x1 PUSH1 0x1 PUSH1 0x80 SHL SUB AND PUSH1 0x1 PUSH1 0x1 PUSH1 0x80 SHL SUB NOT SWAP1 SWAP2 AND OR SWAP1 SSTORE PUSH1 0x5 DUP1 SLOAD PUSH2 0xFFFF NOT AND PUSH2 0xFFFF DUP8 AND OR SWAP1 SSTORE JUMPDEST PUSH1 0x4 SLOAD PUSH1 0x0 SWAP1 DUP2 SWAP1 PUSH32 0x0 PUSH1 0x1 PUSH1 0x1 PUSH1 0x80 SHL SUB SWAP1 SWAP2 AND PUSH32 0x0 ADD GT PUSH2 0xB6A JUMPI POP PUSH32 0x0 SWAP1 POP PUSH32 0x0 PUSH2 0xBBF JUMP JUMPDEST POP POP PUSH1 0x4 SLOAD PUSH1 0x1 PUSH1 0x1 PUSH1 0x80 SHL SUB SWAP1 DUP2 AND PUSH32 0x0 SUB AND PUSH32 0x0 JUMPDEST PUSH1 0x0 PUSH32 0x0 PUSH2 0xC0C DUP7 PUSH32 0x0 PUSH2 0xE0A JUMP JUMPDEST PUSH2 0xFFFF AND ADD SWAP1 POP DUP2 DUP7 MUL DUP2 DUP9 DUP6 MUL MUL DUP2 PUSH2 0xC22 JUMPI INVALID JUMPDEST DIV SWAP4 POP PUSH1 0x0 PUSH2 0xC2F PUSH2 0x4BF JUMP JUMPDEST SWAP1 POP DUP5 PUSH2 0xC3F JUMPI PUSH1 0x1 SWAP5 POP PUSH2 0xC4B JUMP JUMPDEST DUP1 DUP6 GT ISZERO PUSH2 0xC4B JUMPI DUP1 SWAP5 POP JUMPDEST POP POP PUSH1 0x4 DUP1 SLOAD PUSH1 0x1 PUSH1 0x1 PUSH1 0x80 SHL SUB PUSH1 0x1 PUSH1 0x80 SHL DUP1 DUP4 DIV DUP3 AND DUP8 ADD DUP3 AND MUL SWAP2 AND OR SWAP1 SSTORE POP POP JUMPDEST SWAP5 SWAP4 POP POP POP POP JUMP JUMPDEST PUSH1 0x40 DUP1 MLOAD PUSH4 0x23B872DD PUSH1 0xE0 SHL DUP2 MSTORE PUSH1 0x1 PUSH1 0x1 PUSH1 0xA0 SHL SUB DUP6 DUP2 AND PUSH1 0x4 DUP4 ADD MSTORE DUP5 DUP2 AND PUSH1 0x24 DUP4 ADD MSTORE PUSH1 0x44 DUP3 ADD DUP5 SWAP1 MSTORE SWAP2 MLOAD SWAP2 DUP7 AND SWAP2 PUSH4 0x23B872DD SWAP2 PUSH1 0x64 DUP1 DUP3 ADD SWAP3 PUSH1 0x20 SWAP3 SWAP1 SWAP2 SWAP1 DUP3 SWAP1 SUB ADD DUP2 PUSH1 0x0 DUP8 DUP1 EXTCODESIZE ISZERO DUP1 ISZERO PUSH2 0xCD3 JUMPI PUSH1 0x0 DUP1 REVERT JUMPDEST POP GAS CALL ISZERO DUP1 ISZERO PUSH2 0xCE7 JUMPI RETURNDATASIZE PUSH1 0x0 DUP1 RETURNDATACOPY RETURNDATASIZE PUSH1 0x0 REVERT JUMPDEST POP POP POP POP PUSH1 0x40 MLOAD RETURNDATASIZE PUSH1 0x20 DUP2 LT ISZERO PUSH2 0xCFD JUMPI PUSH1 0x0 DUP1 REVERT JUMPDEST POP MLOAD PUSH2 0xD08 JUMPI PUSH1 0x0 DUP1 REVERT JUMPDEST POP POP POP POP JUMP JUMPDEST PUSH1 0x4 DUP1 SLOAD PUSH1 0x1 PUSH1 0x1 PUSH1 0x80 SHL SUB NOT DUP2 AND PUSH1 0x1 PUSH1 0x1 PUSH1 0x80 SHL SUB SWAP2 DUP3 AND DUP5 SWAP1 SUB DUP3 AND OR DUP1 DUP3 AND PUSH1 0x1 PUSH1 0x80 SHL SWAP2 DUP3 SWAP1 DIV DUP4 AND SWAP5 SWAP1 SWAP5 SUB SWAP1 SWAP2 AND MUL SWAP2 SWAP1 SWAP2 OR SWAP1 SSTORE JUMP JUMPDEST PUSH1 0x1 PUSH1 0x1 PUSH1 0xA0 SHL SUB DUP2 AND PUSH2 0xD5F JUMPI PUSH1 0x0 DUP1 REVERT JUMPDEST PUSH1 0x0 DUP1 SLOAD PUSH1 0x40 MLOAD PUSH1 0x1 PUSH1 0x1 PUSH1 0xA0 SHL SUB DUP1 DUP6 AND SWAP4 SWAP3 AND SWAP2 PUSH32 0x8BE0079C531659141344CD1FD0A4F28419497F9722A3DAAFE3B4186F6B6457E0 SWAP2 LOG3 PUSH1 0x0 DUP1 SLOAD PUSH1 0x1 PUSH1 0x1 PUSH1 0xA0 SHL SUB NOT AND PUSH1 0x1 PUSH1 0x1 PUSH1 0xA0 SHL SUB SWAP3 SWAP1 SWAP3 AND SWAP2 SWAP1 SWAP2 OR SWAP1 SSTORE JUMP JUMPDEST PUSH1 0x40 MLOAD DUP5 DUP2 MSTORE DUP4 ISZERO PUSH2 0xDCD JUMPI DUP3 PUSH1 0x4 DUP3 ADD MSTORE JUMPDEST PUSH1 0x1 DUP5 GT ISZERO PUSH2 0xDDD JUMPI DUP2 PUSH1 0x24 DUP3 ADD MSTORE JUMPDEST PUSH1 0x0 DUP1 DUP6 PUSH1 0x20 MUL PUSH1 0x4 ADD DUP4 DUP10 GAS DELEGATECALL DUP1 ISZERO PUSH2 0xDFB JUMPI RETURNDATASIZE PUSH1 0x0 DUP4 RETURNDATACOPY PUSH2 0xE00 JUMP JUMPDEST PUSH1 0x0 DUP3 REVERT JUMPDEST POP SWAP6 SWAP5 POP POP POP POP POP JUMP JUMPDEST PUSH1 0x0 DUP2 PUSH2 0xFFFF AND DUP4 PUSH2 0xFFFF AND LT PUSH2 0xE21 JUMPI DUP2 PUSH2 0xE23 JUMP JUMPDEST DUP3 JUMPDEST SWAP1 POP JUMPDEST SWAP3 SWAP2 POP POP JUMP JUMPDEST PUSH1 0x0 PUSH4 0xFFFFFFFF DUP4 AND PUSH2 0xE41 JUMPI POP PUSH1 0x0 PUSH2 0xE26 JUMP JUMPDEST DUP3 DUP3 MUL PUSH4 0xFFFFFFFF DUP1 DUP5 AND SWAP1 DUP1 DUP7 AND SWAP1 DUP4 AND DUP2 PUSH2 0xE5A JUMPI INVALID JUMPDEST DIV PUSH4 0xFFFFFFFF AND EQ PUSH2 0xE23 JUMPI INVALID INVALID LOG2 PUSH5 0x6970667358 0x22 SLT KECCAK256 PUSH22 0x607E3B86A4F91E4193BDB476D9F4C75BBD20490745ED DELEGATECALL 0xD0 BYTE RETURNDATASIZE MSTORE8 0x5C SHR CHAINID 0xCC PUSH5 0x736F6C6343 STOP MOD SMOD STOP CALLER ",
  "sha1": "af67854004e6f9742005f9fd37e87853563ebb7d",
  "source": "pragma solidity ^0.6.5;\n\n\nimport \"contracts/Issuer.sol\";\nimport \"contracts/NuCypherToken.sol\";\nimport \"contracts/proxy/Upgradeable.sol\";\n\n\n/**\n* @dev Contract for testing internal methods in the Issuer contract\n*/\ncontract IssuerMock is Issuer {\n\n    constructor(\n        NuCypherToken _token,\n        uint32 _hoursPerPeriod,\n        uint256 _issuanceDecayCoefficient,\n        uint256 _lockDurationCoefficient1,\n        uint256 _lockDurationCoefficient2,\n        uint16 _maximumRewardedPeriods,\n        uint256 _firstPhaseTotalSupply,\n        uint256 _firstPhaseMaxIssuance\n    )\n        public\n        Issuer(\n            _token,\n            _hoursPerPeriod,\n            _issuanceDecayCoefficient,\n            _lockDurationCoefficient1,\n            _lockDurationCoefficient2,\n            _maximumRewardedPeriods,\n            _firstPhaseTotalSupply,\n            _firstPhaseMaxIssuance\n        )\n    {\n    }\n\n    function testMint(\n        uint16 _currentPeriod,\n        uint256 _lockedValue,\n        uint256 _totalLockedValue,\n        uint16 _allLockedPeriods\n    )\n        public returns (uint256 amount)\n    {\n        amount = mint(\n            _currentPeriod,\n            _lockedValue,\n            _totalLockedValue,\n            _allLockedPeriods);\n        token.transfer(msg.sender, amount);\n    }\n\n}\n\n\n/**\n* @notice Upgrade to this contract must lead to fail\n*/\ncontract IssuerBad is Upgradeable {\n\n    uint16 public currentMintingPeriod;\n//    uint256 public currentSupply1;\n    uint256 public currentSupply2;\n\n}\n\n\n/**\n* @notice Contract for testing upgrading the Issuer contract\n*/\ncontract IssuerV2Mock is Issuer {\n\n    uint256 public valueToCheck;\n\n    constructor(\n        NuCypherToken _token,\n        uint32 _hoursPerPeriod,\n        uint256 _issuanceDecayCoefficient,\n        uint256 _lockDurationCoefficient1,\n        uint256 _lockDurationCoefficient2,\n        uint16 _maximumRewardedPeriods,\n        uint256 _firstPhaseTotalSupply,\n        uint256 _firstPhaseMaxIssuance\n    )\n        public\n        Issuer(\n            _token,\n            _hoursPerPeriod,\n            _issuanceDecayCoefficient,\n            _lockDurationCoefficient1,\n            _lockDurationCoefficient2,\n            _maximumRewardedPeriods,\n            _firstPhaseTotalSupply,\n            _firstPhaseMaxIssuance\n        )\n    {\n    }\n\n    function setValueToCheck(uint256 _valueToCheck) public {\n        valueToCheck = _valueToCheck;\n    }\n\n    function verifyState(address _testTarget) public override {\n        super.verifyState(_testTarget);\n        require(delegateGet(_testTarget, this.valueToCheck.selector) == valueToCheck);\n    }\n}\n",
  "sourcePath": "contracts/IssuerTestSet.sol",
  "type": "contract"
}