{
  "abi": [
    {
      "inputs": [
        {
          "internalType": "contract StakingEscrow",
          "name": "_escrow",
          "type": "address"
        }
      ],
      "stateMutability": "nonpayable",
      "type": "constructor"
    },
    {
      "anonymous": false,
      "inputs": [
        {
          "indexed": true,
          "internalType": "bytes16",
          "name": "policyId",
          "type": "bytes16"
        },
        {
          "indexed": true,
          "internalType": "address",
          "name": "sender",
          "type": "address"
        },
        {
          "indexed": true,
          "internalType": "address",
          "name": "node",
          "type": "address"
        },
        {
          "indexed": false,
          "internalType": "uint256",
          "name": "value",
          "type": "uint256"
        }
      ],
      "name": "ArrangementRevoked",
      "type": "event"
    },
    {
      "anonymous": false,
      "inputs": [
        {
          "indexed": true,
          "internalType": "address",
          "name": "sender",
          "type": "address"
        },
        {
          "indexed": false,
          "internalType": "uint256",
          "name": "min",
          "type": "uint256"
        },
        {
          "indexed": false,
          "internalType": "uint256",
          "name": "defaultValue",
          "type": "uint256"
        },
        {
          "indexed": false,
          "internalType": "uint256",
          "name": "max",
          "type": "uint256"
        }
      ],
      "name": "FeeRateRangeSet",
      "type": "event"
    },
    {
      "anonymous": false,
      "inputs": [
        {
          "indexed": true,
          "internalType": "address",
          "name": "node",
          "type": "address"
        },
        {
          "indexed": false,
          "internalType": "uint256",
          "name": "value",
          "type": "uint256"
        }
      ],
      "name": "MinFeeRateSet",
      "type": "event"
    },
    {
      "anonymous": false,
      "inputs": [
        {
          "indexed": true,
          "internalType": "address",
          "name": "node",
          "type": "address"
        },
        {
          "indexed": false,
          "internalType": "uint16",
          "name": "period",
          "type": "uint16"
        }
      ],
      "name": "NodeBrokenState",
      "type": "event"
    },
    {
      "anonymous": false,
      "inputs": [
        {
          "indexed": true,
          "internalType": "address",
          "name": "previousOwner",
          "type": "address"
        },
        {
          "indexed": true,
          "internalType": "address",
          "name": "newOwner",
          "type": "address"
        }
      ],
      "name": "OwnershipTransferred",
      "type": "event"
    },
    {
      "anonymous": false,
      "inputs": [
        {
          "indexed": true,
          "internalType": "bytes16",
          "name": "policyId",
          "type": "bytes16"
        },
        {
          "indexed": true,
          "internalType": "address",
          "name": "sponsor",
          "type": "address"
        },
        {
          "indexed": true,
          "internalType": "address",
          "name": "owner",
          "type": "address"
        },
        {
          "indexed": false,
          "internalType": "uint256",
          "name": "feeRate",
          "type": "uint256"
        },
        {
          "indexed": false,
          "internalType": "uint64",
          "name": "startTimestamp",
          "type": "uint64"
        },
        {
          "indexed": false,
          "internalType": "uint64",
          "name": "endTimestamp",
          "type": "uint64"
        },
        {
          "indexed": false,
          "internalType": "uint256",
          "name": "numberOfNodes",
          "type": "uint256"
        }
      ],
      "name": "PolicyCreated",
      "type": "event"
    },
    {
      "anonymous": false,
      "inputs": [
        {
          "indexed": true,
          "internalType": "bytes16",
          "name": "policyId",
          "type": "bytes16"
        },
        {
          "indexed": true,
          "internalType": "address",
          "name": "sender",
          "type": "address"
        },
        {
          "indexed": false,
          "internalType": "uint256",
          "name": "value",
          "type": "uint256"
        }
      ],
      "name": "PolicyRevoked",
      "type": "event"
    },
    {
      "anonymous": false,
      "inputs": [
        {
          "indexed": true,
          "internalType": "bytes16",
          "name": "policyId",
          "type": "bytes16"
        },
        {
          "indexed": true,
          "internalType": "address",
          "name": "sender",
          "type": "address"
        },
        {
          "indexed": true,
          "internalType": "address",
          "name": "node",
          "type": "address"
        },
        {
          "indexed": false,
          "internalType": "uint256",
          "name": "value",
          "type": "uint256"
        }
      ],
      "name": "RefundForArrangement",
      "type": "event"
    },
    {
      "anonymous": false,
      "inputs": [
        {
          "indexed": true,
          "internalType": "bytes16",
          "name": "policyId",
          "type": "bytes16"
        },
        {
          "indexed": true,
          "internalType": "address",
          "name": "sender",
          "type": "address"
        },
        {
          "indexed": false,
          "internalType": "uint256",
          "name": "value",
          "type": "uint256"
        }
      ],
      "name": "RefundForPolicy",
      "type": "event"
    },
    {
      "anonymous": false,
      "inputs": [
        {
          "indexed": true,
          "internalType": "address",
          "name": "testTarget",
          "type": "address"
        },
        {
          "indexed": false,
          "internalType": "address",
          "name": "sender",
          "type": "address"
        }
      ],
      "name": "StateVerified",
      "type": "event"
    },
    {
      "anonymous": false,
      "inputs": [
        {
          "indexed": true,
          "internalType": "address",
          "name": "target",
          "type": "address"
        },
        {
          "indexed": false,
          "internalType": "address",
          "name": "sender",
          "type": "address"
        }
      ],
      "name": "UpgradeFinished",
      "type": "event"
    },
    {
      "anonymous": false,
      "inputs": [
        {
          "indexed": true,
          "internalType": "address",
          "name": "node",
          "type": "address"
        },
        {
          "indexed": true,
          "internalType": "address",
          "name": "recipient",
          "type": "address"
        },
        {
          "indexed": false,
          "internalType": "uint256",
          "name": "value",
          "type": "uint256"
        }
      ],
      "name": "Withdrawn",
      "type": "event"
    },
    {
      "inputs": [],
      "name": "DEFAULT_FEE_DELTA",
      "outputs": [
        {
          "internalType": "int256",
          "name": "",
          "type": "int256"
        }
      ],
      "stateMutability": "view",
      "type": "function"
    },
    {
      "inputs": [
        {
          "internalType": "bytes16",
          "name": "_policyId",
          "type": "bytes16"
        },
        {
          "internalType": "address",
          "name": "_node",
          "type": "address"
        }
      ],
      "name": "calculateRefundValue",
      "outputs": [
        {
          "internalType": "uint256",
          "name": "refundValue",
          "type": "uint256"
        }
      ],
      "stateMutability": "view",
      "type": "function"
    },
    {
      "inputs": [
        {
          "internalType": "bytes16",
          "name": "_policyId",
          "type": "bytes16"
        }
      ],
      "name": "calculateRefundValue",
      "outputs": [
        {
          "internalType": "uint256",
          "name": "refundValue",
          "type": "uint256"
        }
      ],
      "stateMutability": "view",
      "type": "function"
    },
    {
      "inputs": [
        {
          "internalType": "bytes16",
          "name": "_policyId",
          "type": "bytes16"
        },
        {
          "internalType": "address",
          "name": "_policyOwner",
          "type": "address"
        },
        {
          "internalType": "uint64",
          "name": "_endTimestamp",
          "type": "uint64"
        },
        {
          "internalType": "address[]",
          "name": "_nodes",
          "type": "address[]"
        }
      ],
      "name": "createPolicy",
      "outputs": [],
      "stateMutability": "payable",
      "type": "function"
    },
    {
      "inputs": [],
      "name": "escrow",
      "outputs": [
        {
          "internalType": "contract StakingEscrow",
          "name": "",
          "type": "address"
        }
      ],
      "stateMutability": "view",
      "type": "function"
    },
    {
      "inputs": [],
      "name": "feeRateRange",
      "outputs": [
        {
          "internalType": "uint128",
          "name": "min",
          "type": "uint128"
        },
        {
          "internalType": "uint128",
          "name": "defaultValue",
          "type": "uint128"
        },
        {
          "internalType": "uint128",
          "name": "max",
          "type": "uint128"
        }
      ],
      "stateMutability": "view",
      "type": "function"
    },
    {
      "inputs": [
        {
          "internalType": "address",
          "name": "_target",
          "type": "address"
        }
      ],
      "name": "finishUpgrade",
      "outputs": [],
      "stateMutability": "nonpayable",
      "type": "function"
    },
    {
      "inputs": [
        {
          "internalType": "bytes16",
          "name": "_policyId",
          "type": "bytes16"
        },
        {
          "internalType": "uint256",
          "name": "_index",
          "type": "uint256"
        }
      ],
      "name": "getArrangementInfo",
      "outputs": [
        {
          "internalType": "address",
          "name": "node",
          "type": "address"
        },
        {
          "internalType": "uint256",
          "name": "indexOfDowntimePeriods",
          "type": "uint256"
        },
        {
          "internalType": "uint16",
          "name": "lastRefundedPeriod",
          "type": "uint16"
        }
      ],
      "stateMutability": "view",
      "type": "function"
    },
    {
      "inputs": [
        {
          "internalType": "bytes16",
          "name": "_policyId",
          "type": "bytes16"
        }
      ],
      "name": "getArrangementsLength",
      "outputs": [
        {
          "internalType": "uint256",
          "name": "",
          "type": "uint256"
        }
      ],
      "stateMutability": "view",
      "type": "function"
    },
    {
      "inputs": [],
      "name": "getCurrentPeriod",
      "outputs": [
        {
          "internalType": "uint16",
          "name": "",
          "type": "uint16"
        }
      ],
      "stateMutability": "view",
      "type": "function"
    },
    {
      "inputs": [
        {
          "internalType": "address",
          "name": "_node",
          "type": "address"
        }
      ],
      "name": "getMinFeeRate",
      "outputs": [
        {
          "internalType": "uint256",
          "name": "",
          "type": "uint256"
        }
      ],
      "stateMutability": "view",
      "type": "function"
    },
    {
      "inputs": [
        {
          "internalType": "address",
          "name": "",
          "type": "address"
        },
        {
          "internalType": "uint16",
          "name": "",
          "type": "uint16"
        }
      ],
      "name": "getNodeFeeDelta",
      "outputs": [
        {
          "internalType": "int256",
          "name": "",
          "type": "int256"
        }
      ],
      "stateMutability": "view",
      "type": "function"
    },
    {
      "inputs": [
        {
          "internalType": "bytes16",
          "name": "_policyId",
          "type": "bytes16"
        }
      ],
      "name": "getPolicyOwner",
      "outputs": [
        {
          "internalType": "address",
          "name": "",
          "type": "address"
        }
      ],
      "stateMutability": "view",
      "type": "function"
    },
    {
      "inputs": [
        {
          "internalType": "bytes16",
          "name": "_policyId",
          "type": "bytes16"
        },
        {
          "internalType": "address",
          "name": "_node",
          "type": "address"
        }
      ],
      "name": "getRevocationHash",
      "outputs": [
        {
          "internalType": "bytes32",
          "name": "",
          "type": "bytes32"
        }
      ],
      "stateMutability": "view",
      "type": "function"
    },
    {
      "inputs": [],
      "name": "isOwner",
      "outputs": [
        {
          "internalType": "bool",
          "name": "",
          "type": "bool"
        }
      ],
      "stateMutability": "view",
      "type": "function"
    },
    {
      "inputs": [],
      "name": "isUpgrade",
      "outputs": [
        {
          "internalType": "uint8",
          "name": "",
          "type": "uint8"
        }
      ],
      "stateMutability": "view",
      "type": "function"
    },
    {
      "inputs": [
        {
          "internalType": "address",
          "name": "",
          "type": "address"
        }
      ],
      "name": "nodes",
      "outputs": [
        {
          "internalType": "uint128",
          "name": "fee",
          "type": "uint128"
        },
        {
          "internalType": "uint16",
          "name": "previousFeePeriod",
          "type": "uint16"
        },
        {
          "internalType": "uint256",
          "name": "feeRate",
          "type": "uint256"
        },
        {
          "internalType": "uint256",
          "name": "minFeeRate",
          "type": "uint256"
        }
      ],
      "stateMutability": "view",
      "type": "function"
    },
    {
      "inputs": [],
      "name": "owner",
      "outputs": [
        {
          "internalType": "address",
          "name": "",
          "type": "address"
        }
      ],
      "stateMutability": "view",
      "type": "function"
    },
    {
      "inputs": [
        {
          "internalType": "bytes16",
          "name": "",
          "type": "bytes16"
        }
      ],
      "name": "policies",
      "outputs": [
        {
          "internalType": "bool",
          "name": "disabled",
          "type": "bool"
        },
        {
          "internalType": "address payable",
          "name": "sponsor",
          "type": "address"
        },
        {
          "internalType": "address",
          "name": "owner",
          "type": "address"
        },
        {
          "internalType": "uint128",
          "name": "feeRate",
          "type": "uint128"
        },
        {
          "internalType": "uint64",
          "name": "startTimestamp",
          "type": "uint64"
        },
        {
          "internalType": "uint64",
          "name": "endTimestamp",
          "type": "uint64"
        },
        {
          "internalType": "uint256",
          "name": "reservedSlot1",
          "type": "uint256"
        },
        {
          "internalType": "uint256",
          "name": "reservedSlot2",
          "type": "uint256"
        },
        {
          "internalType": "uint256",
          "name": "reservedSlot3",
          "type": "uint256"
        },
        {
          "internalType": "uint256",
          "name": "reservedSlot4",
          "type": "uint256"
        },
        {
          "internalType": "uint256",
          "name": "reservedSlot5",
          "type": "uint256"
        }
      ],
      "stateMutability": "view",
      "type": "function"
    },
    {
      "inputs": [],
      "name": "previousTarget",
      "outputs": [
        {
          "internalType": "address",
          "name": "",
          "type": "address"
        }
      ],
      "stateMutability": "view",
      "type": "function"
    },
    {
      "inputs": [
        {
          "internalType": "bytes16",
          "name": "_policyId",
          "type": "bytes16"
        },
        {
          "internalType": "address",
          "name": "_node",
          "type": "address"
        }
      ],
      "name": "refund",
      "outputs": [
        {
          "internalType": "uint256",
          "name": "refundValue",
          "type": "uint256"
        }
      ],
      "stateMutability": "nonpayable",
      "type": "function"
    },
    {
      "inputs": [
        {
          "internalType": "bytes16",
          "name": "_policyId",
          "type": "bytes16"
        }
      ],
      "name": "refund",
      "outputs": [],
      "stateMutability": "nonpayable",
      "type": "function"
    },
    {
      "inputs": [
        {
          "internalType": "address",
          "name": "_node",
          "type": "address"
        },
        {
          "internalType": "uint16",
          "name": "_period",
          "type": "uint16"
        }
      ],
      "name": "register",
      "outputs": [],
      "stateMutability": "nonpayable",
      "type": "function"
    },
    {
      "inputs": [],
      "name": "renounceOwnership",
      "outputs": [],
      "stateMutability": "nonpayable",
      "type": "function"
    },
    {
      "inputs": [
        {
          "internalType": "bytes16",
          "name": "_policyId",
          "type": "bytes16"
        },
        {
          "internalType": "address",
          "name": "_node",
          "type": "address"
        },
        {
          "internalType": "bytes",
          "name": "_signature",
          "type": "bytes"
        }
      ],
      "name": "revoke",
      "outputs": [
        {
          "internalType": "uint256",
          "name": "refundValue",
          "type": "uint256"
        }
      ],
      "stateMutability": "nonpayable",
      "type": "function"
    },
    {
      "inputs": [
        {
          "internalType": "bytes16",
          "name": "_policyId",
          "type": "bytes16"
        },
        {
          "internalType": "address",
          "name": "_node",
          "type": "address"
        }
      ],
      "name": "revokeArrangement",
      "outputs": [
        {
          "internalType": "uint256",
          "name": "refundValue",
          "type": "uint256"
        }
      ],
      "stateMutability": "nonpayable",
      "type": "function"
    },
    {
      "inputs": [
        {
          "internalType": "bytes16",
          "name": "_policyId",
          "type": "bytes16"
        }
      ],
      "name": "revokePolicy",
      "outputs": [
        {
          "internalType": "uint256",
          "name": "refundValue",
          "type": "uint256"
        }
      ],
      "stateMutability": "nonpayable",
      "type": "function"
    },
    {
      "inputs": [],
      "name": "secondsPerPeriod",
      "outputs": [
        {
          "internalType": "uint32",
          "name": "",
          "type": "uint32"
        }
      ],
      "stateMutability": "view",
      "type": "function"
    },
    {
      "inputs": [
        {
          "internalType": "address",
          "name": "_node",
          "type": "address"
        },
        {
          "internalType": "uint16",
          "name": "_period",
          "type": "uint16"
        }
      ],
      "name": "setDefaultFeeDelta",
      "outputs": [],
      "stateMutability": "nonpayable",
      "type": "function"
    },
    {
      "inputs": [
        {
          "internalType": "uint128",
          "name": "_min",
          "type": "uint128"
        },
        {
          "internalType": "uint128",
          "name": "_default",
          "type": "uint128"
        },
        {
          "internalType": "uint128",
          "name": "_max",
          "type": "uint128"
        }
      ],
      "name": "setFeeRateRange",
      "outputs": [],
      "stateMutability": "nonpayable",
      "type": "function"
    },
    {
      "inputs": [
        {
          "internalType": "uint256",
          "name": "_minFeeRate",
          "type": "uint256"
        }
      ],
      "name": "setMinFeeRate",
      "outputs": [],
      "stateMutability": "nonpayable",
      "type": "function"
    },
    {
      "inputs": [],
      "name": "target",
      "outputs": [
        {
          "internalType": "address",
          "name": "",
          "type": "address"
        }
      ],
      "stateMutability": "view",
      "type": "function"
    },
    {
      "inputs": [
        {
          "internalType": "address",
          "name": "newOwner",
          "type": "address"
        }
      ],
      "name": "transferOwnership",
      "outputs": [],
      "stateMutability": "nonpayable",
      "type": "function"
    },
    {
      "inputs": [
        {
          "internalType": "address",
          "name": "_node",
          "type": "address"
        },
        {
          "internalType": "uint16",
          "name": "_period",
          "type": "uint16"
        }
      ],
      "name": "updateFee",
      "outputs": [],
      "stateMutability": "nonpayable",
      "type": "function"
    },
    {
      "inputs": [
        {
          "internalType": "address",
          "name": "_testTarget",
          "type": "address"
        }
      ],
      "name": "verifyState",
      "outputs": [],
      "stateMutability": "nonpayable",
      "type": "function"
    },
    {
      "inputs": [],
      "name": "withdraw",
      "outputs": [
        {
          "internalType": "uint256",
          "name": "",
          "type": "uint256"
        }
      ],
      "stateMutability": "nonpayable",
      "type": "function"
    },
    {
      "inputs": [
        {
          "internalType": "address payable",
          "name": "_recipient",
          "type": "address"
        }
      ],
      "name": "withdraw",
      "outputs": [
        {
          "internalType": "uint256",
          "name": "",
          "type": "uint256"
        }
      ],
      "stateMutability": "nonpayable",
      "type": "function"
    }
  ],
  "bytecode": "60c06040523480156200001157600080fd5b506040516200368538038062003685833981810160405260208110156200003757600080fd5b5051600080546001600160a01b031916331780825560405183926001600160a01b039290921691907f8be0079c531659141344cd1fd0a4f28419497f9722a3daafe3b4186f6b6457e0908290a36000816001600160a01b031663407f80016040518163ffffffff1660e01b815260040160206040518083038186803b158015620000c057600080fd5b505afa158015620000d5573d6000803e3d6000fd5b505050506040513d6020811015620000ec57600080fd5b5051905063ffffffff81166200010157600080fd5b60e081901b6001600160e01b03191660a052606082901b6001600160601b0319166080526001600160a01b03909116915063ffffffff166134f36200019260003980610b515280610db2528061127e52806120d15280612e245280612e88525080610bd6528061115c52806118b35280611d625280612f115280612fc4528061308352806131a552506134f36000f3fe60806040526004361061021a5760003560e01c8063889ddd1a11610123578063b9626d21116100ab578063e2fdcc171161006f578063e2fdcc1714610a1b578063e38a303b14610a30578063e665830d14610a5b578063e8dccd0614610a8f578063f2fde38b14610ac25761021a565b8063b9626d21146108f6578063cbf12f2a14610929578063d4b839921461096c578063d845f4fb14610981578063dfdecfaf146109e75761021a565b80638e81ca5a116100f25780638e81ca5a146107dc5780638f32d59b14610819578063a2d1d5e214610842578063a87d40d914610876578063b438c4cd146108b95761021a565b8063889ddd1a146107275780638c316b901461075a5780638d7fd2fa146107845780638da5cb5b146107c75761021a565b806358cf15fb116101a65780636bd2af57116101755780636bd2af5714610556578063713c0e571461058a578063715018a61461063657806372be8d8d1461064b57806381e742a1146106885761021a565b806358cf15fb1461045a578063631722f21461048e57806363c509d5146104d357806365af62c3146105165761021a565b80633ea2391f116101ed5780633ea2391f14610374578063407f8001146103b35780634b2cd118146103e15780634b8fed4f1461041257806351cff8d9146104275761021a565b8063076421e81461021f578063086146d2146102cd578063189a5a17146102f95780633ccfd60b1461035f575b600080fd5b34801561022b57600080fd5b506102bb6004803603606081101561024257600080fd5b6001600160801b0319823516916001600160a01b036020820135169181019060608101604082013564010000000081111561027c57600080fd5b82018360208201111561028e57600080fd5b803590602001918460018302840111640100000000831117156102b057600080fd5b509092509050610af5565b60408051918252519081900360200190f35b3480156102d957600080fd5b506102e2610b4d565b6040805161ffff9092168252519081900360200190f35b34801561030557600080fd5b5061032c6004803603602081101561031c57600080fd5b50356001600160a01b0316610b84565b604080516001600160801b03909516855261ffff9093166020850152838301919091526060830152519081900360800190f35b34801561036b57600080fd5b506102bb610bbb565b34801561038057600080fd5b506103b16004803603604081101561039757600080fd5b5080356001600160a01b0316906020013561ffff16610bcb565b005b3480156103bf57600080fd5b506103c8610db0565b6040805163ffffffff9092168252519081900360200190f35b3480156103ed57600080fd5b506103f6610dd4565b604080516001600160a01b039092168252519081900360200190f35b34801561041e57600080fd5b506102bb610de3565b34801561043357600080fd5b506102bb6004803603602081101561044a57600080fd5b50356001600160a01b0316610dee565b34801561046657600080fd5b506103f66004803603602081101561047d57600080fd5b50356001600160801b031916610e82565b34801561049a57600080fd5b506103b1600480360360608110156104b157600080fd5b506001600160801b038135811691602081013582169160409091013516610ed9565b3480156104df57600080fd5b506102bb600480360360408110156104f657600080fd5b5080356001600160801b03191690602001356001600160a01b0316610fc3565b34801561052257600080fd5b5061052b611039565b604080516001600160801b039485168152928416602084015292168183015290519081900360600190f35b34801561056257600080fd5b506102bb6004803603602081101561057957600080fd5b50356001600160801b031916611059565b34801561059657600080fd5b506105be600480360360208110156105ad57600080fd5b50356001600160801b031916611078565b604080519b15158c526001600160a01b039a8b1660208d0152989099168a8901526001600160801b0390961660608a01526001600160401b0394851660808a01529290931660a088015260c087015260e086019190915261010085015261012084015261014083019190915251908190036101600190f35b34801561064257600080fd5b506103b16110f6565b34801561065757600080fd5b506103b16004803603604081101561066e57600080fd5b5080356001600160a01b0316906020013561ffff16611151565b6103b16004803603608081101561069e57600080fd5b6001600160801b0319823516916001600160a01b03602082013516916001600160401b0360408301351691908101906080810160608201356401000000008111156106e857600080fd5b8201836020820111156106fa57600080fd5b8035906020019184602083028401116401000000008311171561071c57600080fd5b5090925090506111f0565b34801561073357600080fd5b506102bb6004803603602081101561074a57600080fd5b50356001600160a01b0316611712565b34801561076657600080fd5b506103b16004803603602081101561077d57600080fd5b5035611733565b34801561079057600080fd5b506102bb600480360360408110156107a757600080fd5b5080356001600160801b03191690602001356001600160a01b03166117f7565b3480156107d357600080fd5b506103f6611835565b3480156107e857600080fd5b506102bb600480360360408110156107ff57600080fd5b5080356001600160a01b0316906020013561ffff16611844565b34801561082557600080fd5b5061082e61184c565b604080519115158252519081900360200190f35b34801561084e57600080fd5b506102bb6004803603602081101561086557600080fd5b50356001600160801b03191661185d565b34801561088257600080fd5b506102bb6004803603604081101561089957600080fd5b5080356001600160801b03191690602001356001600160a01b0316611889565b3480156108c557600080fd5b506103b1600480360360408110156108dc57600080fd5b5080356001600160a01b0316906020013561ffff166118a8565b34801561090257600080fd5b506103b16004803603602081101561091957600080fd5b50356001600160a01b0316611933565b34801561093557600080fd5b506102bb6004803603604081101561094c57600080fd5b5080356001600160801b03191690602001356001600160a01b0316611c42565b34801561097857600080fd5b506103f6611c92565b34801561098d57600080fd5b506109bb600480360360408110156109a457600080fd5b506001600160801b03198135169060200135611ca1565b604080516001600160a01b039094168452602084019290925261ffff1682820152519081900360600190f35b3480156109f357600080fd5b506103b160048036036020811015610a0a57600080fd5b50356001600160801b031916611d09565b348015610a2757600080fd5b506103f6611d60565b348015610a3c57600080fd5b50610a45611d84565b6040805160ff9092168252519081900360200190f35b348015610a6757600080fd5b506102bb60048036036020811015610a7e57600080fd5b50356001600160801b031916611d94565b348015610a9b57600080fd5b506103b160048036036020811015610ab257600080fd5b50356001600160a01b0316611da1565b348015610ace57600080fd5b506103b160048036036020811015610ae557600080fd5b50356001600160a01b031661203c565b6000610b38858585858080601f01602080910402602001604051908101604052809392919081815260200183838082843760009201919091525061205692505050565b610b448585600161209f565b95945050505050565b60007f000000000000000000000000000000000000000000000000000000000000000063ffffffff164281610b7e57fe5b04905090565b6005602052600090815260409020805460018201546002909201546001600160801b03821692600160801b90920461ffff16919084565b6000610bc633610dee565b905090565b336001600160a01b037f00000000000000000000000000000000000000000000000000000000000000001614610c0057600080fd5b6001600160a01b03821660009081526005602052604090208054600160801b900461ffff161580610c415750805461ffff600160801b909104811690831611155b15610c4c5750610dac565b8054600160801b900461ffff166001015b8261ffff168161ffff1611610d6d5761ffff811660009081526003830160205260409020546001600160ff1b03811415610cad575061ffff81166000908152600383016020526040812055610d65565b600081128015610cc35750826001015481600003115b15610d325760018301805461ffff80851660009081526003870160209081526040808320805490950190945593558151908716815290516001600160a01b038816927fd56b4810f75e2913af1cd9e5f0d99d273958c5a67cff5ef0e7f298507b688bb8928290030190a2610d63565b6001830154610d47908263ffffffff61259d16565b600184015561ffff821660009081526003840160205260408120555b505b600101610c5d565b50805460018201546001600160801b031961ffff60801b19909216600160801b61ffff861602179182166001600160801b039283169091019091161790555b5050565b7f000000000000000000000000000000000000000000000000000000000000000081565b6002546001600160a01b031681565b6001600160ff1b0381565b33600090815260056020526040812080546001600160801b031680610e1257600080fd5b81546001600160801b0319168255610e396001600160a01b0385168263ffffffff6125d116565b6040805182815290516001600160a01b0386169133917fd1c19fbcd4551a5edfb66d43d2e337c04837afda3482b42bdf569a8fccdae5fb9181900360200190a39150505b919050565b6001600160801b03198116600090815260046020526040812060018101546001600160a01b031615610ec15760018101546001600160a01b0316610ed2565b805461010090046001600160a01b03165b9392505050565b610ee161184c565b610eea57600080fd5b816001600160801b0316836001600160801b031611158015610f1e5750806001600160801b0316826001600160801b031611155b610f2757600080fd5b60408051606080820183526001600160801b038681168084528682166020808601829052878416958701869052600680546001600160801b03199081168517909516600160801b840217905560078054909416861790935585519182529181019190915280840192909252915133927f3a93fb7c2385d29e9693a6edcd81c4cee090101cb783dc2f17a7814b79a2ecdc928290030190a2505050565b60006001600160a01b038216610fd857600080fd5b6001600160801b03198316600090815260046020526040902060018101546001600160a01b031633148061101a5750805461010090046001600160a01b031633145b61102357600080fd5b61102f8484600061209f565b9150505b92915050565b6006546007546001600160801b0380831692600160801b90048116911683565b6001600160801b03191660009081526004602052604090206008015490565b60046020819052600091825260409091208054600182015460028301546003840154948401546005850154600686015460079096015460ff8616976001600160a01b0361010090970487169795909616956001600160801b038516956001600160401b03600160801b8704811696600160c01b90041694919391928b565b6110fe61184c565b61110757600080fd5b600080546040516001600160a01b03909116907f8be0079c531659141344cd1fd0a4f28419497f9722a3daafe3b4186f6b6457e0908390a3600080546001600160a01b0319169055565b336001600160a01b037f0000000000000000000000000000000000000000000000000000000000000000161461118657600080fd5b6001600160a01b03821660009081526005602052604090208054600160801b900461ffff161580156111c657506111bb610b4d565b61ffff168261ffff16105b6111cf57600080fd5b805461ffff909216600160801b0261ffff60801b1990921691909117905550565b6001600160801b0319851660008181526004602052604090209015801590611223575060028101546001600160801b0316155b80156112315750805460ff16155b8015611245575042846001600160401b0316115b80156112515750600034115b61125a57600080fd5b6001600160801b0347111561126e57600080fd5b6000611278610b4d565b905060007f000000000000000000000000000000000000000000000000000000000000000063ffffffff16866001600160401b0316816112b457fe5b84546101003302610100600160a81b03199091161785556002850180546001600160401b038a8116600160c01b026001600160c01b034292909216600160801b0267ffffffffffffffff60801b199093169290921716179055046001818101925061ffff9184900301168061132934876126b6565b8161133057fe5b6002860180546001600160801b031916929091046001600160801b0390811692909217908190551615801590611376575060028401546001600160801b03168102850234145b61137f57600080fd5b6001600160a01b03881633148015906113a057506001600160a01b03881615155b156113c3576001840180546001600160a01b0319166001600160a01b038a161790555b60005b858110156116685760008787838181106113dc57fe5b905060200201356001600160a01b0316905060006001600160a01b0316816001600160a01b0316141561140e57600080fd5b6001600160a01b03811660009081526005602052604090208054600160801b900461ffff161580159061144f5750805461ffff808816600160801b90920416105b8015611470575061145f816126d8565b60028801546001600160801b031610155b61147957600080fd5b61ffff861660009081526003820160205260409020546001600160ff1b0314156114c957600287015461ffff8716600090815260038301602052604090206001600160801b0390911690556114f6565b600287015461ffff87166000908152600383016020526040902080546001600160801b0390921690910190555b61ffff851660009081526003820160205260409020546001600160ff1b03141561154857600287015461ffff8616600090815260038301602052604081206001600160801b0390921690039055611575565b600287015461ffff86166000908152600383016020526040902080546001600160801b0390921690910390555b61ffff861660009081526003820160205260409020546115af5761ffff8616600090815260038201602052604090206001600160ff1b0390555b61ffff851660009081526003820160205260409020546115e95761ffff8516600090815260038201602052604090206001600160ff1b0390555b50604080516060810182526001600160a01b0392831681526000602080830182815293830182815260088b01805460018082018355918552929093209351600390920290930180546001600160a01b03191691909516178455915183830155516002909201805461ffff191661ffff90931692909217909155016113c6565b506001600160a01b0388161561167e5787611680565b335b6002850154604080516001600160801b03831681526001600160401b03600160801b840481166020830152600160c01b9093049092168282015260608201889052516001600160a01b03929092169133916001600160801b03198d16917f8e609dac02bd39ff24c8ad6bb9a735e739b56708b22159948ec9828ad765b4d19181900360800190a4505050505050505050565b6001600160a01b0381166000908152600560205260408120610ed2816126d8565b6006546001600160801b0316811080159061175957506007546001600160801b03168111155b6117945760405162461bcd60e51b815260040180806020018281038252603f81526020018061341e603f913960400191505060405180910390fd5b33600090815260056020526040902060028101548214156117b557506117f4565b6002810182905560408051838152905133917f6b9024cc1bf5710f290be788dca9886db7a3d9be0df0855bfa991dbf26a256bc919081900360200190a2505b50565b60006001600160a01b03821661180c57600080fd5b3361181684610e82565b6001600160a01b03161461182957600080fd5b610ed28383600161209f565b6000546001600160a01b031690565b600092915050565b6000546001600160a01b0316331490565b60003361186983610e82565b6001600160a01b03161461187c57600080fd5b611033826000600161209f565b60006001600160a01b03821661189e57600080fd5b610ed28383612741565b336001600160a01b037f000000000000000000000000000000000000000000000000000000000000000016146118dd57600080fd5b6001600160a01b038216600090815260056020908152604080832061ffff85168452600381019092529091205461192e5761ffff8216600090815260038201602052604090206001600160ff1b0390555b505050565b61193c8161286b565b611944613338565b61194d826128c5565b80516006549192506001600160801b03918216911614801561198857506020810151600654600160801b90046001600160801b039081169116145b80156119a6575060408101516007546001600160801b039081169116145b6119af57600080fd5b6000805260046020527f17ef568e3e12ab5b9c7254a8d58478811de00f9e6eb34345acd53bf8fd09d3ec6119e1613358565b6119ec8460006128e3565b8254602082015191925061010090046001600160a01b039081169116148015611a295750600182015460408201516001600160a01b039081169116145b8015611a495750600282015460608201516001600160801b039081169116145b8015611a705750600282015460808201516001600160401b03908116600160801b90920416145b8015611a975750600282015460a08201516001600160401b03908116600160c01b90920416145b8015611aad575081548151151560ff9091161515145b611ab657600080fd5b6008820154611ace85636bd2af5760e01b6000612914565b14611ad857600080fd5b600882015415611b6757600082600801600081548110611af457fe5b90600052602060002090600302019050611b0c613338565b611b188660008061292f565b825481519192506001600160a01b039182169116148015611b40575081600101548160200151145b8015611b5b57506002820154604082015161ffff9081169116145b611b6457600080fd5b50505b6000805260056020527f05b8ccbb9d4d8fb16ea74ce3c29a41f1b461fbdaff4714a0d9a8eb05499746bc611b996133e8565b611ba4866000612958565b825481519192506001600160801b039182169116148015611bcc575081600101548160400151145b8015611beb57508154602082015161ffff908116600160801b90920416145b8015611bfe575081600201548160600151145b611c0757600080fd5b600b600081815260038401602052604081205491611c30918991634740e52d60e11b9190612980565b14611c3a57600080fd5b505050505050565b604080516001600160801b0319841660208201526bffffffffffffffffffffffff19606084901b166030820152815160248183030181526044909101909152600090610ed290604560f81b61299c565b6001546001600160a01b031681565b6001600160801b03198216600090815260046020526040812060080180548291829182919086908110611cd057fe5b60009182526020909120600390910201805460018201546002909201546001600160a01b039091169891975061ffff1695509350505050565b6001600160801b03198116600090815260046020526040902060018101546001600160a01b0316331480611d4b5750805461010090046001600160a01b031633145b611d5457600080fd5b61192e8260008061209f565b7f000000000000000000000000000000000000000000000000000000000000000081565b600254600160a01b900460ff1681565b6000611033826000612741565b611daa81612c9b565b50600460209081527f17ef568e3e12ab5b9c7254a8d58478811de00f9e6eb34345acd53bf8fd09d3ec80547f17ef568e3e12ab5b9c7254a8d58478811de00f9e6eb34345acd53bf8fd09d3ed8054306001600160a01b0319918216179091557f17ef568e3e12ab5b9c7254a8d58478811de00f9e6eb34345acd53bf8fd09d3ee805460036001600160801b0319600160801b67ffffffffffffffff60801b19909316929092176001600160c01b0316600160c11b1782168117909255610100600160a81b031990931633610100021760ff19166001908117909455604080516060810182526000808252600b82890181815260169484019485527f17ef568e3e12ab5b9c7254a8d58478811de00f9e6eb34345acd53bf8fd09d3f48054998a018155835292517fdaf6a3df2e7fe032faba7f1c41811297bb73983780e1888a846f8aa1a8324d279890950297880180549096166001600160a01b0390951694909417909455517fdaf6a3df2e7fe032faba7f1c41811297bb73983780e1888a846f8aa1a8324d28860155517fdaf6a3df2e7fe032faba7f1c41811297bb73983780e1888a846f8aa1a8324d29909401805461ffff191661ffff909516949094179093557f05b8ccbb9d4d8fb16ea74ce3c29a41f1b461fbdaff4714a0d9a8eb05499746bc805460217f05b8ccbb9d4d8fb16ea74ce3c29a41f1b461fbdaff4714a0d9a8eb05499746bd55606493169290921761ffff60801b1916600b60821b17909155527f05b8ccbb9d4d8fb16ea74ce3c29a41f1b461fbdaff4714a0d9a8eb05499746bf905260377fe98516eef36ab8324c691eaae918b396562bbff0916fab980ba5f148c2da4dc8556103097f05b8ccbb9d4d8fb16ea74ce3c29a41f1b461fbdaff4714a0d9a8eb05499746be55565b61204461184c565b61204d57600080fd5b6117f481612cf5565b60006120628484611c42565b905060006120708284612d63565b9050806001600160a01b031661208586610e82565b6001600160a01b03161461209857600080fd5b5050505050565b6001600160801b031983166000908152600460205260408120805460ff16156120c757600080fd5b60028101546000907f000000000000000000000000000000000000000000000000000000000000000063ffffffff1690600160c01b90046001600160401b03168161210e57fe5b6008840154919004600101915060005b600884015481101561248657600084600801828154811061213b57fe5b6000918252602090912060039091020180549091506001600160a01b031680158061218b57506001600160a01b0389161580159061218b5750806001600160a01b0316896001600160a01b031614155b1561219e5750506000199091019061247e565b60006121aa8784612e1c565b60028601805461ffff191661ffff92909216919091179055600185015590508815612379576001600160a01b0382166000908152600560209081526040808320600287015461ffff16808552600382019093529220546001600160ff1b03141561223c57600289015461ffff8216600090815260038401602052604081206001600160801b0390921690039055612269565b600289015461ffff82166000908152600384016020526040902080546001600160801b0390921690910390555b61ffff881660009081526003830160205260409020546001600160ff1b0314156122bb57600289015461ffff8916600090815260038401602052604081206001600160801b03909216900390556122e8565b600289015461ffff89166000908152600384016020526040902080546001600160801b0390921690910190555b61ffff811660009081526003830160205260409020546123225761ffff8116600090815260038301602052604090206001600160ff1b0390555b61ffff8816600090815260038301602052604090205461235c5761ffff8816600090815260038301602052604090206001600160ff1b0390555b60028901546001600160801b031690880361ffff16029190910190505b88806123905750600283015461ffff808816911610155b156124115782546001600160a01b03191683556000600184015560028301805461ffff1916905560408051828152905160001996909601956001600160a01b0384169133916001600160801b03198f16917ff3b13df5bdd5efcb090f73617909a6295ee75815920224c512d784b2726812f1919081900360200190a461245f565b6040805182815290516001600160a01b0384169133916001600160801b03198f16917fab654b569128c88ffcd210806a5e48ee14c541e2c76923f143281f20807090c1919081900360200190a45b968701966001600160a01b038a161561247a57505050612486565b5050505b60010161211e565b83546001600160a01b036101009091048116908816612562578261251b578454600160ff199091168117610100600160a81b0319168655850180546001600160a01b03191690556000600286015560408051878152905133916001600160801b03198c16917fd5ea25ba3600c386669c484639012a0ae266ed537f0c4ab71b651024736efff4916020908290030190a361255d565b60408051878152905133916001600160801b03198c16917f51377f313f8c3404e86d38ae907b443ada38578fd6b9589d03f79d03ff9303c79181900360200190a35b612572565b6008850154821061257257600080fd5b8515612591576125916001600160a01b0382168763ffffffff6125d116565b50505050509392505050565b60008082126125bd576125b6838363ffffffff61327716565b9050611033565b6125b683600084900363ffffffff61328916565b80471015612626576040805162461bcd60e51b815260206004820152601d60248201527f416464726573733a20696e73756666696369656e742062616c616e6365000000604482015290519081900360640190fd5b6040516000906001600160a01b0384169083908381818185875af1925050503d8060008114612671576040519150601f19603f3d011682016040523d82523d6000602084013e612676565b606091505b505090508061192e5760405162461bcd60e51b815260040180806020018281038252603a81526020018061345d603a913960400191505060405180910390fd5b60008082116126c457600080fd5b60008284816126cf57fe5b04949350505050565b60008160020154600014806126fd575060065460028301546001600160801b03909116115b80612718575060075460028301546001600160801b03909116105b156127365750600654600160801b90046001600160801b0316610e7d565b506002810154610e7d565b6001600160801b03198216600090815260046020526040812060018101546001600160a01b03163314806127835750805461010090046001600160a01b031633145b80156127915750805460ff16155b61279a57600080fd5b60005b60088201548110156128445760008260080182815481106127ba57fe5b6000918252602090912060039091020180549091506001600160a01b0316158061280457506001600160a01b03851615801590612804575080546001600160a01b03868116911614155b1561280f575061283c565b600061281b8483612e1c565b50509485019490506001600160a01b03861615612839575050612844565b50505b60010161279d565b6001600160a01b03841615612863576008820154811061286357600080fd5b505092915050565b60028054600160a01b900460ff161461288357600080fd5b6040805133815290516001600160a01b038316917f1e8d98c1b4a0d9bd2e2371026b632eb2773fcce41742e41f02f574ab69868d4c919081900360200190a250565b6128cd613338565b6000610ed2836365af62c360e01b83808061329e565b6128eb613358565b600061290c8463713c0e5760e01b60016001600160801b031987168561329e565b949350505050565b60008061292585856001868561329e565b5195945050505050565b612937613338565b6000610b448563d845f4fb60e01b60026001600160801b031988168761329e565b6129606133e8565b600061290c8463189a5a1760e01b60016001600160a01b0387168561329e565b60008061299186866002878761329e565b519695505050505050565b60006001600160f81b03198216612a4f57604051601960f81b602080830182815260006021850181905230606081901b602287015288519095919386938a9390926036909101918401908083835b60208310612a095780518252601f1990920191602091820191016129ea565b6001836020036101000a03801982511681845116808217855250505050505090500194505050505060405160208183030381529060405280519060200120915050611033565b6001600160f81b03198216604560f81b1415612c4e57825180612aa35760405162461bcd60e51b81526004018080602001828103825260278152602001806134976027913960400191505060405180910390fd5b60005b8115612aba57600101600a82049150612aa6565b6060816001600160401b0381118015612ad257600080fd5b506040519080825280601f01601f191660200182016040528015612afd576020820181803683370190505b5086519350905060001982015b8315612b4f57600a840660300160f81b82828060019003935081518110612b2d57fe5b60200101906001600160f81b031916908160001a905350600a84049350612b0a565b604051601960f81b60208083018281527f457468657265756d205369676e6564204d6573736167653a0a000000000000006021850181905286519394909387938d9392603a0191908501908083835b60208310612bbd5780518252601f199092019160209182019101612b9e565b51815160209384036101000a600019018019909216911617905285519190930192850191508083835b60208310612c055780518252601f199092019160209182019101612be6565b6001836020036101000a03801982511681845116808217855250505050505090500194505050505060405160208183030381529060405280519060200120945050505050611033565b6040805162461bcd60e51b815260206004820152601a60248201527f556e737570706f72746564204549503139312076657273696f6e000000000000604482015290519081900360640190fd5b60028054600160a01b900460ff1614612cb357600080fd5b6040805133815290516001600160a01b038316917fd55ec27c5c6316913ed8803c18cfd1bfefea953db909dcba6140744a9d8b0d1f919081900360200190a250565b6001600160a01b038116612d0857600080fd5b600080546040516001600160a01b03808516939216917f8be0079c531659141344cd1fd0a4f28419497f9722a3daafe3b4186f6b6457e091a3600080546001600160a01b0319166001600160a01b0392909216919091179055565b60008151604114612d7357600080fd5b60208201516040830151606084015160001a601b811015612d9257601b015b8060ff16601b1480612da757508060ff16601c145b612db057600080fd5b6040805160008152602080820180845289905260ff8416828401526060820186905260808201859052915160019260a0808401939192601f1981019281900390910190855afa158015612e07573d6000803e3d6000fd5b5050604051601f190151979650505050505050565b6000806000807f000000000000000000000000000000000000000000000000000000000000000063ffffffff168660020160109054906101000a90046001600160401b03166001600160401b031681612e7157fe5b0490506000612ecb612e81610b4d565b60028901547f000000000000000000000000000000000000000000000000000000000000000063ffffffff1690600160c01b90046001600160401b031681612ec557fe5b046132ee565b6002870154909150600090612ee590849061ffff1661330c565b8754604080516390dcb51f60e01b81526001600160a01b039283166004820152905192935060009283927f000000000000000000000000000000000000000000000000000000000000000016916390dcb51f916024808301926020929190829003018186803b158015612f5757600080fd5b505afa158015612f6b573d6000803e3d6000fd5b505050506040513d6020811015612f8157600080fd5b505160028a015490915060009061ffff1661304057895460408051634789d02d60e01b81526001600160a01b03928316600482015261ffff8916602482015290517f000000000000000000000000000000000000000000000000000000000000000090921691634789d02d91604480820192602092909190829003018186803b15801561300d57600080fd5b505afa158015613021573d6000803e3d6000fd5b505050506040513d602081101561303757600080fd5b50519050613047565b5060018901545b8097505b8188101561317e57895460408051638fa95a1560e01b81526001600160a01b039283166004820152602481018b9052815160009384937f000000000000000000000000000000000000000000000000000000000000000090911692638fa95a159260448083019392829003018186803b1580156130c757600080fd5b505afa1580156130db573d6000803e3d6000fd5b505050506040513d60408110156130f157600080fd5b508051602090910151909250905061ffff808816908316111561311557505061317e565b8561ffff168161ffff16101561312c575050613173565b613153613139878461330c565b61314389846132ee565b61ffff169063ffffffff61332416565b600101850194508061ffff168761ffff161161317057505061317e565b50505b60019097019661304b565b8954604080516351f5e0c160e11b81526001600160a01b03928316600482015290516000927f0000000000000000000000000000000000000000000000000000000000000000169163a3ebc182916024808301926020929190829003018186803b1580156131eb57600080fd5b505afa1580156131ff573d6000803e3d6000fd5b505050506040513d602081101561321557600080fd5b50519050888314801561322f57508561ffff168161ffff16105b1561324857613241600186038261330c565b8603840193505b5050506002989098015461ffff9098166001600160801b03988916029097169793965060010194509192505050565b600082820183811015610ed257600080fd5b60008282111561329857600080fd5b50900390565b60405184815283156132b1578260048201525b60018411156132c1578160248201525b6000808560200260040183895af480156132df573d6000833e6132e4565b600082fd5b5095945050505050565b60008161ffff168361ffff16106133055781610ed2565b5090919050565b60008161ffff168361ffff1610156133055781610ed2565b60008261ffff168261ffff16111561329857fe5b604080516060810182526000808252602082018190529181019190915290565b60405180610180016040528060001515815260200160006001600160a01b0316815260200160006001600160a01b0316815260200160006001600160801b0316815260200160006001600160401b0316815260200160006001600160401b031681526020016000815260200160008152602001600081526020016000815260200160008152602001606081525090565b604051806080016040528060006001600160801b03168152602001600061ffff1681526020016000815260200160008152509056fe546865207374616b65722773206d696e206665652072617465206d7573742066616c6c2077697468696e2074686520676c6f62616c206665652072616e6765416464726573733a20756e61626c6520746f2073656e642076616c75652c20726563697069656e74206d61792068617665207265766572746564456d707479206d657373616765206e6f7420616c6c6f77656420666f722076657273696f6e2045a26469706673582212202b2e38a9153a0e253f1f055fb5a8c3140ff475c95cf96eb7fd01500a8847204e64736f6c63430006070033",
  "bytecodeSha1": "96ba8d7321ca5da6a5fdefd36dde1680cb27759f",
  "compiler": {
    "evm_version": "berlin",
    "optimizer": {
      "enabled": true,
      "runs": 200
    },
    "version": "0.6.7"
  },
  "contractName": "PolicyManagerBad",
  "language": "Solidity",
  "natspec": {
    "methods": {
      "calculateRefundValue(bytes16)": {
        "notice": "Calculate amount of refund",
        "params": {
          "_policyId": "Policy id"
        }
      },
      "calculateRefundValue(bytes16,address)": {
        "notice": "Calculate amount of refund",
        "params": {
          "_node": "Node",
          "_policyId": "Policy id"
        }
      },
      "createPolicy(bytes16,address,uint64,address[])": {
        "details": "Generate policy id before creation",
        "notice": "Create policy",
        "params": {
          "_endTimestamp": "End timestamp of the policy in seconds",
          "_nodes": "Nodes that will handle policy",
          "_policyId": "Policy id",
          "_policyOwner": "Policy owner. Zero address means sender is owner"
        }
      },
      "finishUpgrade(address)": {
        "details": "the `onlyWhileUpgrading` modifier works through a call to the parent `finishUpgrade`"
      },
      "getArrangementInfo(bytes16,uint256)": {
        "notice": "Return the information about arrangement"
      },
      "getArrangementsLength(bytes16)": {
        "notice": "Get number of arrangements in the policy",
        "params": {
          "_policyId": "Policy id"
        }
      },
      "getMinFeeRate(address)": {
        "notice": "Get the minimum acceptable fee rate (set by staker for their associated worker)"
      },
      "getPolicyOwner(bytes16)": {
        "notice": "Get policy owner"
      },
      "getRevocationHash(bytes16,address)": {
        "notice": "Get unsigned hash for revocation",
        "params": {
          "_node": "Node that will be excluded",
          "_policyId": "Policy id"
        },
        "returns": {
          "_0": "Revocation hash, EIP191 version 0x45 ('E')"
        }
      },
      "refund(bytes16)": {
        "notice": "Refund part of fee by the sponsor",
        "params": {
          "_policyId": "Policy id"
        }
      },
      "refund(bytes16,address)": {
        "notice": "Refund part of one node's fee by the sponsor",
        "params": {
          "_node": "Node address",
          "_policyId": "Policy id"
        }
      },
      "register(address,uint16)": {
        "notice": "Register a node",
        "params": {
          "_node": "Node address",
          "_period": "Initial period"
        }
      },
      "renounceOwnership()": {
        "details": "Allows the current owner to relinquish control of the contract.",
        "notice": "Renouncing to ownership will leave the contract without an owner. It will not be possible to call the functions with the `onlyOwner` modifier anymore."
      },
      "revoke(bytes16,address,bytes)": {
        "notice": "Revoke policy or arrangement using owner's signature",
        "params": {
          "_node": "Node that will be excluded, zero address if whole policy will be revoked",
          "_policyId": "Policy id",
          "_signature": "Signature of owner, EIP191 version 0x45 ('E')"
        }
      },
      "revokeArrangement(bytes16,address)": {
        "notice": "Revoke arrangement by the sponsor",
        "params": {
          "_node": "Node that will be excluded",
          "_policyId": "Policy id"
        }
      },
      "revokePolicy(bytes16)": {
        "notice": "Revoke policy by the sponsor",
        "params": {
          "_policyId": "Policy id"
        }
      },
      "setDefaultFeeDelta(address,uint16)": {
        "details": "This method increases gas cost for node in trade of decreasing cost for policy sponsor",
        "notice": "Set default `feeDelta` value for specified period",
        "params": {
          "_node": "Node address",
          "_period": "Period to set"
        }
      },
      "setFeeRateRange(uint128,uint128,uint128)": {
        "notice": "Set minimum, default & maximum fee rate for all stakers and all policies ('global fee range')"
      },
      "setMinFeeRate(uint256)": {
        "details": "Input value must fall within `feeRateRange` (global fee range)",
        "notice": "Set the minimum acceptable fee rate (set by staker for their associated worker)"
      },
      "transferOwnership(address)": {
        "details": "Allows the current owner to transfer control of the contract to a newOwner.",
        "params": {
          "newOwner": "The address to transfer ownership to."
        }
      },
      "updateFee(address,uint16)": {
        "notice": "Update node fee",
        "params": {
          "_node": "Node address",
          "_period": "Processed period"
        }
      },
      "verifyState(address)": {
        "details": "the `onlyWhileUpgrading` modifier works through a call to the parent `verifyState`"
      },
      "withdraw()": {
        "notice": "Withdraw fee by node"
      },
      "withdraw(address)": {
        "notice": "Withdraw fee by node",
        "params": {
          "_recipient": "Recipient of the fee"
        }
      }
    },
    "notice": "Upgrade to this contract must lead to fail"
  },
  "opcodes": "PUSH1 0x80 PUSH1 0x40 MSTORE PUSH1 0x4 CALLDATASIZE LT PUSH2 0x21A JUMPI PUSH1 0x0 CALLDATALOAD PUSH1 0xE0 SHR DUP1 PUSH4 0x889DDD1A GT PUSH2 0x123 JUMPI DUP1 PUSH4 0xB9626D21 GT PUSH2 0xAB JUMPI DUP1 PUSH4 0xE2FDCC17 GT PUSH2 0x6F JUMPI DUP1 PUSH4 0xE2FDCC17 EQ PUSH2 0xA1B JUMPI DUP1 PUSH4 0xE38A303B EQ PUSH2 0xA30 JUMPI DUP1 PUSH4 0xE665830D EQ PUSH2 0xA5B JUMPI DUP1 PUSH4 0xE8DCCD06 EQ PUSH2 0xA8F JUMPI DUP1 PUSH4 0xF2FDE38B EQ PUSH2 0xAC2 JUMPI PUSH2 0x21A JUMP JUMPDEST DUP1 PUSH4 0xB9626D21 EQ PUSH2 0x8F6 JUMPI DUP1 PUSH4 0xCBF12F2A EQ PUSH2 0x929 JUMPI DUP1 PUSH4 0xD4B83992 EQ PUSH2 0x96C JUMPI DUP1 PUSH4 0xD845F4FB EQ PUSH2 0x981 JUMPI DUP1 PUSH4 0xDFDECFAF EQ PUSH2 0x9E7 JUMPI PUSH2 0x21A JUMP JUMPDEST DUP1 PUSH4 0x8E81CA5A GT PUSH2 0xF2 JUMPI DUP1 PUSH4 0x8E81CA5A EQ PUSH2 0x7DC JUMPI DUP1 PUSH4 0x8F32D59B EQ PUSH2 0x819 JUMPI DUP1 PUSH4 0xA2D1D5E2 EQ PUSH2 0x842 JUMPI DUP1 PUSH4 0xA87D40D9 EQ PUSH2 0x876 JUMPI DUP1 PUSH4 0xB438C4CD EQ PUSH2 0x8B9 JUMPI PUSH2 0x21A JUMP JUMPDEST DUP1 PUSH4 0x889DDD1A EQ PUSH2 0x727 JUMPI DUP1 PUSH4 0x8C316B90 EQ PUSH2 0x75A JUMPI DUP1 PUSH4 0x8D7FD2FA EQ PUSH2 0x784 JUMPI DUP1 PUSH4 0x8DA5CB5B EQ PUSH2 0x7C7 JUMPI PUSH2 0x21A JUMP JUMPDEST DUP1 PUSH4 0x58CF15FB GT PUSH2 0x1A6 JUMPI DUP1 PUSH4 0x6BD2AF57 GT PUSH2 0x175 JUMPI DUP1 PUSH4 0x6BD2AF57 EQ PUSH2 0x556 JUMPI DUP1 PUSH4 0x713C0E57 EQ PUSH2 0x58A JUMPI DUP1 PUSH4 0x715018A6 EQ PUSH2 0x636 JUMPI DUP1 PUSH4 0x72BE8D8D EQ PUSH2 0x64B JUMPI DUP1 PUSH4 0x81E742A1 EQ PUSH2 0x688 JUMPI PUSH2 0x21A JUMP JUMPDEST DUP1 PUSH4 0x58CF15FB EQ PUSH2 0x45A JUMPI DUP1 PUSH4 0x631722F2 EQ PUSH2 0x48E JUMPI DUP1 PUSH4 0x63C509D5 EQ PUSH2 0x4D3 JUMPI DUP1 PUSH4 0x65AF62C3 EQ PUSH2 0x516 JUMPI PUSH2 0x21A JUMP JUMPDEST DUP1 PUSH4 0x3EA2391F GT PUSH2 0x1ED JUMPI DUP1 PUSH4 0x3EA2391F EQ PUSH2 0x374 JUMPI DUP1 PUSH4 0x407F8001 EQ PUSH2 0x3B3 JUMPI DUP1 PUSH4 0x4B2CD118 EQ PUSH2 0x3E1 JUMPI DUP1 PUSH4 0x4B8FED4F EQ PUSH2 0x412 JUMPI DUP1 PUSH4 0x51CFF8D9 EQ PUSH2 0x427 JUMPI PUSH2 0x21A JUMP JUMPDEST DUP1 PUSH4 0x76421E8 EQ PUSH2 0x21F JUMPI DUP1 PUSH4 0x86146D2 EQ PUSH2 0x2CD JUMPI DUP1 PUSH4 0x189A5A17 EQ PUSH2 0x2F9 JUMPI DUP1 PUSH4 0x3CCFD60B EQ PUSH2 0x35F JUMPI JUMPDEST PUSH1 0x0 DUP1 REVERT JUMPDEST CALLVALUE DUP1 ISZERO PUSH2 0x22B JUMPI PUSH1 0x0 DUP1 REVERT JUMPDEST POP PUSH2 0x2BB PUSH1 0x4 DUP1 CALLDATASIZE SUB PUSH1 0x60 DUP2 LT ISZERO PUSH2 0x242 JUMPI PUSH1 0x0 DUP1 REVERT JUMPDEST PUSH1 0x1 PUSH1 0x1 PUSH1 0x80 SHL SUB NOT DUP3 CALLDATALOAD AND SWAP2 PUSH1 0x1 PUSH1 0x1 PUSH1 0xA0 SHL SUB PUSH1 0x20 DUP3 ADD CALLDATALOAD AND SWAP2 DUP2 ADD SWAP1 PUSH1 0x60 DUP2 ADD PUSH1 0x40 DUP3 ADD CALLDATALOAD PUSH5 0x100000000 DUP2 GT ISZERO PUSH2 0x27C JUMPI PUSH1 0x0 DUP1 REVERT JUMPDEST DUP3 ADD DUP4 PUSH1 0x20 DUP3 ADD GT ISZERO PUSH2 0x28E JUMPI PUSH1 0x0 DUP1 REVERT JUMPDEST DUP1 CALLDATALOAD SWAP1 PUSH1 0x20 ADD SWAP2 DUP5 PUSH1 0x1 DUP4 MUL DUP5 ADD GT PUSH5 0x100000000 DUP4 GT OR ISZERO PUSH2 0x2B0 JUMPI PUSH1 0x0 DUP1 REVERT JUMPDEST POP SWAP1 SWAP3 POP SWAP1 POP PUSH2 0xAF5 JUMP JUMPDEST PUSH1 0x40 DUP1 MLOAD SWAP2 DUP3 MSTORE MLOAD SWAP1 DUP2 SWAP1 SUB PUSH1 0x20 ADD SWAP1 RETURN JUMPDEST CALLVALUE DUP1 ISZERO PUSH2 0x2D9 JUMPI PUSH1 0x0 DUP1 REVERT JUMPDEST POP PUSH2 0x2E2 PUSH2 0xB4D JUMP JUMPDEST PUSH1 0x40 DUP1 MLOAD PUSH2 0xFFFF SWAP1 SWAP3 AND DUP3 MSTORE MLOAD SWAP1 DUP2 SWAP1 SUB PUSH1 0x20 ADD SWAP1 RETURN JUMPDEST CALLVALUE DUP1 ISZERO PUSH2 0x305 JUMPI PUSH1 0x0 DUP1 REVERT JUMPDEST POP PUSH2 0x32C PUSH1 0x4 DUP1 CALLDATASIZE SUB PUSH1 0x20 DUP2 LT ISZERO PUSH2 0x31C JUMPI PUSH1 0x0 DUP1 REVERT JUMPDEST POP CALLDATALOAD PUSH1 0x1 PUSH1 0x1 PUSH1 0xA0 SHL SUB AND PUSH2 0xB84 JUMP JUMPDEST PUSH1 0x40 DUP1 MLOAD PUSH1 0x1 PUSH1 0x1 PUSH1 0x80 SHL SUB SWAP1 SWAP6 AND DUP6 MSTORE PUSH2 0xFFFF SWAP1 SWAP4 AND PUSH1 0x20 DUP6 ADD MSTORE DUP4 DUP4 ADD SWAP2 SWAP1 SWAP2 MSTORE PUSH1 0x60 DUP4 ADD MSTORE MLOAD SWAP1 DUP2 SWAP1 SUB PUSH1 0x80 ADD SWAP1 RETURN JUMPDEST CALLVALUE DUP1 ISZERO PUSH2 0x36B JUMPI PUSH1 0x0 DUP1 REVERT JUMPDEST POP PUSH2 0x2BB PUSH2 0xBBB JUMP JUMPDEST CALLVALUE DUP1 ISZERO PUSH2 0x380 JUMPI PUSH1 0x0 DUP1 REVERT JUMPDEST POP PUSH2 0x3B1 PUSH1 0x4 DUP1 CALLDATASIZE SUB PUSH1 0x40 DUP2 LT ISZERO PUSH2 0x397 JUMPI PUSH1 0x0 DUP1 REVERT JUMPDEST POP DUP1 CALLDATALOAD PUSH1 0x1 PUSH1 0x1 PUSH1 0xA0 SHL SUB AND SWAP1 PUSH1 0x20 ADD CALLDATALOAD PUSH2 0xFFFF AND PUSH2 0xBCB JUMP JUMPDEST STOP JUMPDEST CALLVALUE DUP1 ISZERO PUSH2 0x3BF JUMPI PUSH1 0x0 DUP1 REVERT JUMPDEST POP PUSH2 0x3C8 PUSH2 0xDB0 JUMP JUMPDEST PUSH1 0x40 DUP1 MLOAD PUSH4 0xFFFFFFFF SWAP1 SWAP3 AND DUP3 MSTORE MLOAD SWAP1 DUP2 SWAP1 SUB PUSH1 0x20 ADD SWAP1 RETURN JUMPDEST CALLVALUE DUP1 ISZERO PUSH2 0x3ED JUMPI PUSH1 0x0 DUP1 REVERT JUMPDEST POP PUSH2 0x3F6 PUSH2 0xDD4 JUMP JUMPDEST PUSH1 0x40 DUP1 MLOAD PUSH1 0x1 PUSH1 0x1 PUSH1 0xA0 SHL SUB SWAP1 SWAP3 AND DUP3 MSTORE MLOAD SWAP1 DUP2 SWAP1 SUB PUSH1 0x20 ADD SWAP1 RETURN JUMPDEST CALLVALUE DUP1 ISZERO PUSH2 0x41E JUMPI PUSH1 0x0 DUP1 REVERT JUMPDEST POP PUSH2 0x2BB PUSH2 0xDE3 JUMP JUMPDEST CALLVALUE DUP1 ISZERO PUSH2 0x433 JUMPI PUSH1 0x0 DUP1 REVERT JUMPDEST POP PUSH2 0x2BB PUSH1 0x4 DUP1 CALLDATASIZE SUB PUSH1 0x20 DUP2 LT ISZERO PUSH2 0x44A JUMPI PUSH1 0x0 DUP1 REVERT JUMPDEST POP CALLDATALOAD PUSH1 0x1 PUSH1 0x1 PUSH1 0xA0 SHL SUB AND PUSH2 0xDEE JUMP JUMPDEST CALLVALUE DUP1 ISZERO PUSH2 0x466 JUMPI PUSH1 0x0 DUP1 REVERT JUMPDEST POP PUSH2 0x3F6 PUSH1 0x4 DUP1 CALLDATASIZE SUB PUSH1 0x20 DUP2 LT ISZERO PUSH2 0x47D JUMPI PUSH1 0x0 DUP1 REVERT JUMPDEST POP CALLDATALOAD PUSH1 0x1 PUSH1 0x1 PUSH1 0x80 SHL SUB NOT AND PUSH2 0xE82 JUMP JUMPDEST CALLVALUE DUP1 ISZERO PUSH2 0x49A JUMPI PUSH1 0x0 DUP1 REVERT JUMPDEST POP PUSH2 0x3B1 PUSH1 0x4 DUP1 CALLDATASIZE SUB PUSH1 0x60 DUP2 LT ISZERO PUSH2 0x4B1 JUMPI PUSH1 0x0 DUP1 REVERT JUMPDEST POP PUSH1 0x1 PUSH1 0x1 PUSH1 0x80 SHL SUB DUP2 CALLDATALOAD DUP2 AND SWAP2 PUSH1 0x20 DUP2 ADD CALLDATALOAD DUP3 AND SWAP2 PUSH1 0x40 SWAP1 SWAP2 ADD CALLDATALOAD AND PUSH2 0xED9 JUMP JUMPDEST CALLVALUE DUP1 ISZERO PUSH2 0x4DF JUMPI PUSH1 0x0 DUP1 REVERT JUMPDEST POP PUSH2 0x2BB PUSH1 0x4 DUP1 CALLDATASIZE SUB PUSH1 0x40 DUP2 LT ISZERO PUSH2 0x4F6 JUMPI PUSH1 0x0 DUP1 REVERT JUMPDEST POP DUP1 CALLDATALOAD PUSH1 0x1 PUSH1 0x1 PUSH1 0x80 SHL SUB NOT AND SWAP1 PUSH1 0x20 ADD CALLDATALOAD PUSH1 0x1 PUSH1 0x1 PUSH1 0xA0 SHL SUB AND PUSH2 0xFC3 JUMP JUMPDEST CALLVALUE DUP1 ISZERO PUSH2 0x522 JUMPI PUSH1 0x0 DUP1 REVERT JUMPDEST POP PUSH2 0x52B PUSH2 0x1039 JUMP JUMPDEST PUSH1 0x40 DUP1 MLOAD PUSH1 0x1 PUSH1 0x1 PUSH1 0x80 SHL SUB SWAP5 DUP6 AND DUP2 MSTORE SWAP3 DUP5 AND PUSH1 0x20 DUP5 ADD MSTORE SWAP3 AND DUP2 DUP4 ADD MSTORE SWAP1 MLOAD SWAP1 DUP2 SWAP1 SUB PUSH1 0x60 ADD SWAP1 RETURN JUMPDEST CALLVALUE DUP1 ISZERO PUSH2 0x562 JUMPI PUSH1 0x0 DUP1 REVERT JUMPDEST POP PUSH2 0x2BB PUSH1 0x4 DUP1 CALLDATASIZE SUB PUSH1 0x20 DUP2 LT ISZERO PUSH2 0x579 JUMPI PUSH1 0x0 DUP1 REVERT JUMPDEST POP CALLDATALOAD PUSH1 0x1 PUSH1 0x1 PUSH1 0x80 SHL SUB NOT AND PUSH2 0x1059 JUMP JUMPDEST CALLVALUE DUP1 ISZERO PUSH2 0x596 JUMPI PUSH1 0x0 DUP1 REVERT JUMPDEST POP PUSH2 0x5BE PUSH1 0x4 DUP1 CALLDATASIZE SUB PUSH1 0x20 DUP2 LT ISZERO PUSH2 0x5AD JUMPI PUSH1 0x0 DUP1 REVERT JUMPDEST POP CALLDATALOAD PUSH1 0x1 PUSH1 0x1 PUSH1 0x80 SHL SUB NOT AND PUSH2 0x1078 JUMP JUMPDEST PUSH1 0x40 DUP1 MLOAD SWAP12 ISZERO ISZERO DUP13 MSTORE PUSH1 0x1 PUSH1 0x1 PUSH1 0xA0 SHL SUB SWAP11 DUP12 AND PUSH1 0x20 DUP14 ADD MSTORE SWAP9 SWAP1 SWAP10 AND DUP11 DUP10 ADD MSTORE PUSH1 0x1 PUSH1 0x1 PUSH1 0x80 SHL SUB SWAP1 SWAP7 AND PUSH1 0x60 DUP11 ADD MSTORE PUSH1 0x1 PUSH1 0x1 PUSH1 0x40 SHL SUB SWAP5 DUP6 AND PUSH1 0x80 DUP11 ADD MSTORE SWAP3 SWAP1 SWAP4 AND PUSH1 0xA0 DUP9 ADD MSTORE PUSH1 0xC0 DUP8 ADD MSTORE PUSH1 0xE0 DUP7 ADD SWAP2 SWAP1 SWAP2 MSTORE PUSH2 0x100 DUP6 ADD MSTORE PUSH2 0x120 DUP5 ADD MSTORE PUSH2 0x140 DUP4 ADD SWAP2 SWAP1 SWAP2 MSTORE MLOAD SWAP1 DUP2 SWAP1 SUB PUSH2 0x160 ADD SWAP1 RETURN JUMPDEST CALLVALUE DUP1 ISZERO PUSH2 0x642 JUMPI PUSH1 0x0 DUP1 REVERT JUMPDEST POP PUSH2 0x3B1 PUSH2 0x10F6 JUMP JUMPDEST CALLVALUE DUP1 ISZERO PUSH2 0x657 JUMPI PUSH1 0x0 DUP1 REVERT JUMPDEST POP PUSH2 0x3B1 PUSH1 0x4 DUP1 CALLDATASIZE SUB PUSH1 0x40 DUP2 LT ISZERO PUSH2 0x66E JUMPI PUSH1 0x0 DUP1 REVERT JUMPDEST POP DUP1 CALLDATALOAD PUSH1 0x1 PUSH1 0x1 PUSH1 0xA0 SHL SUB AND SWAP1 PUSH1 0x20 ADD CALLDATALOAD PUSH2 0xFFFF AND PUSH2 0x1151 JUMP JUMPDEST PUSH2 0x3B1 PUSH1 0x4 DUP1 CALLDATASIZE SUB PUSH1 0x80 DUP2 LT ISZERO PUSH2 0x69E JUMPI PUSH1 0x0 DUP1 REVERT JUMPDEST PUSH1 0x1 PUSH1 0x1 PUSH1 0x80 SHL SUB NOT DUP3 CALLDATALOAD AND SWAP2 PUSH1 0x1 PUSH1 0x1 PUSH1 0xA0 SHL SUB PUSH1 0x20 DUP3 ADD CALLDATALOAD AND SWAP2 PUSH1 0x1 PUSH1 0x1 PUSH1 0x40 SHL SUB PUSH1 0x40 DUP4 ADD CALLDATALOAD AND SWAP2 SWAP1 DUP2 ADD SWAP1 PUSH1 0x80 DUP2 ADD PUSH1 0x60 DUP3 ADD CALLDATALOAD PUSH5 0x100000000 DUP2 GT ISZERO PUSH2 0x6E8 JUMPI PUSH1 0x0 DUP1 REVERT JUMPDEST DUP3 ADD DUP4 PUSH1 0x20 DUP3 ADD GT ISZERO PUSH2 0x6FA JUMPI PUSH1 0x0 DUP1 REVERT JUMPDEST DUP1 CALLDATALOAD SWAP1 PUSH1 0x20 ADD SWAP2 DUP5 PUSH1 0x20 DUP4 MUL DUP5 ADD GT PUSH5 0x100000000 DUP4 GT OR ISZERO PUSH2 0x71C JUMPI PUSH1 0x0 DUP1 REVERT JUMPDEST POP SWAP1 SWAP3 POP SWAP1 POP PUSH2 0x11F0 JUMP JUMPDEST CALLVALUE DUP1 ISZERO PUSH2 0x733 JUMPI PUSH1 0x0 DUP1 REVERT JUMPDEST POP PUSH2 0x2BB PUSH1 0x4 DUP1 CALLDATASIZE SUB PUSH1 0x20 DUP2 LT ISZERO PUSH2 0x74A JUMPI PUSH1 0x0 DUP1 REVERT JUMPDEST POP CALLDATALOAD PUSH1 0x1 PUSH1 0x1 PUSH1 0xA0 SHL SUB AND PUSH2 0x1712 JUMP JUMPDEST CALLVALUE DUP1 ISZERO PUSH2 0x766 JUMPI PUSH1 0x0 DUP1 REVERT JUMPDEST POP PUSH2 0x3B1 PUSH1 0x4 DUP1 CALLDATASIZE SUB PUSH1 0x20 DUP2 LT ISZERO PUSH2 0x77D JUMPI PUSH1 0x0 DUP1 REVERT JUMPDEST POP CALLDATALOAD PUSH2 0x1733 JUMP JUMPDEST CALLVALUE DUP1 ISZERO PUSH2 0x790 JUMPI PUSH1 0x0 DUP1 REVERT JUMPDEST POP PUSH2 0x2BB PUSH1 0x4 DUP1 CALLDATASIZE SUB PUSH1 0x40 DUP2 LT ISZERO PUSH2 0x7A7 JUMPI PUSH1 0x0 DUP1 REVERT JUMPDEST POP DUP1 CALLDATALOAD PUSH1 0x1 PUSH1 0x1 PUSH1 0x80 SHL SUB NOT AND SWAP1 PUSH1 0x20 ADD CALLDATALOAD PUSH1 0x1 PUSH1 0x1 PUSH1 0xA0 SHL SUB AND PUSH2 0x17F7 JUMP JUMPDEST CALLVALUE DUP1 ISZERO PUSH2 0x7D3 JUMPI PUSH1 0x0 DUP1 REVERT JUMPDEST POP PUSH2 0x3F6 PUSH2 0x1835 JUMP JUMPDEST CALLVALUE DUP1 ISZERO PUSH2 0x7E8 JUMPI PUSH1 0x0 DUP1 REVERT JUMPDEST POP PUSH2 0x2BB PUSH1 0x4 DUP1 CALLDATASIZE SUB PUSH1 0x40 DUP2 LT ISZERO PUSH2 0x7FF JUMPI PUSH1 0x0 DUP1 REVERT JUMPDEST POP DUP1 CALLDATALOAD PUSH1 0x1 PUSH1 0x1 PUSH1 0xA0 SHL SUB AND SWAP1 PUSH1 0x20 ADD CALLDATALOAD PUSH2 0xFFFF AND PUSH2 0x1844 JUMP JUMPDEST CALLVALUE DUP1 ISZERO PUSH2 0x825 JUMPI PUSH1 0x0 DUP1 REVERT JUMPDEST POP PUSH2 0x82E PUSH2 0x184C JUMP JUMPDEST PUSH1 0x40 DUP1 MLOAD SWAP2 ISZERO ISZERO DUP3 MSTORE MLOAD SWAP1 DUP2 SWAP1 SUB PUSH1 0x20 ADD SWAP1 RETURN JUMPDEST CALLVALUE DUP1 ISZERO PUSH2 0x84E JUMPI PUSH1 0x0 DUP1 REVERT JUMPDEST POP PUSH2 0x2BB PUSH1 0x4 DUP1 CALLDATASIZE SUB PUSH1 0x20 DUP2 LT ISZERO PUSH2 0x865 JUMPI PUSH1 0x0 DUP1 REVERT JUMPDEST POP CALLDATALOAD PUSH1 0x1 PUSH1 0x1 PUSH1 0x80 SHL SUB NOT AND PUSH2 0x185D JUMP JUMPDEST CALLVALUE DUP1 ISZERO PUSH2 0x882 JUMPI PUSH1 0x0 DUP1 REVERT JUMPDEST POP PUSH2 0x2BB PUSH1 0x4 DUP1 CALLDATASIZE SUB PUSH1 0x40 DUP2 LT ISZERO PUSH2 0x899 JUMPI PUSH1 0x0 DUP1 REVERT JUMPDEST POP DUP1 CALLDATALOAD PUSH1 0x1 PUSH1 0x1 PUSH1 0x80 SHL SUB NOT AND SWAP1 PUSH1 0x20 ADD CALLDATALOAD PUSH1 0x1 PUSH1 0x1 PUSH1 0xA0 SHL SUB AND PUSH2 0x1889 JUMP JUMPDEST CALLVALUE DUP1 ISZERO PUSH2 0x8C5 JUMPI PUSH1 0x0 DUP1 REVERT JUMPDEST POP PUSH2 0x3B1 PUSH1 0x4 DUP1 CALLDATASIZE SUB PUSH1 0x40 DUP2 LT ISZERO PUSH2 0x8DC JUMPI PUSH1 0x0 DUP1 REVERT JUMPDEST POP DUP1 CALLDATALOAD PUSH1 0x1 PUSH1 0x1 PUSH1 0xA0 SHL SUB AND SWAP1 PUSH1 0x20 ADD CALLDATALOAD PUSH2 0xFFFF AND PUSH2 0x18A8 JUMP JUMPDEST CALLVALUE DUP1 ISZERO PUSH2 0x902 JUMPI PUSH1 0x0 DUP1 REVERT JUMPDEST POP PUSH2 0x3B1 PUSH1 0x4 DUP1 CALLDATASIZE SUB PUSH1 0x20 DUP2 LT ISZERO PUSH2 0x919 JUMPI PUSH1 0x0 DUP1 REVERT JUMPDEST POP CALLDATALOAD PUSH1 0x1 PUSH1 0x1 PUSH1 0xA0 SHL SUB AND PUSH2 0x1933 JUMP JUMPDEST CALLVALUE DUP1 ISZERO PUSH2 0x935 JUMPI PUSH1 0x0 DUP1 REVERT JUMPDEST POP PUSH2 0x2BB PUSH1 0x4 DUP1 CALLDATASIZE SUB PUSH1 0x40 DUP2 LT ISZERO PUSH2 0x94C JUMPI PUSH1 0x0 DUP1 REVERT JUMPDEST POP DUP1 CALLDATALOAD PUSH1 0x1 PUSH1 0x1 PUSH1 0x80 SHL SUB NOT AND SWAP1 PUSH1 0x20 ADD CALLDATALOAD PUSH1 0x1 PUSH1 0x1 PUSH1 0xA0 SHL SUB AND PUSH2 0x1C42 JUMP JUMPDEST CALLVALUE DUP1 ISZERO PUSH2 0x978 JUMPI PUSH1 0x0 DUP1 REVERT JUMPDEST POP PUSH2 0x3F6 PUSH2 0x1C92 JUMP JUMPDEST CALLVALUE DUP1 ISZERO PUSH2 0x98D JUMPI PUSH1 0x0 DUP1 REVERT JUMPDEST POP PUSH2 0x9BB PUSH1 0x4 DUP1 CALLDATASIZE SUB PUSH1 0x40 DUP2 LT ISZERO PUSH2 0x9A4 JUMPI PUSH1 0x0 DUP1 REVERT JUMPDEST POP PUSH1 0x1 PUSH1 0x1 PUSH1 0x80 SHL SUB NOT DUP2 CALLDATALOAD AND SWAP1 PUSH1 0x20 ADD CALLDATALOAD PUSH2 0x1CA1 JUMP JUMPDEST PUSH1 0x40 DUP1 MLOAD PUSH1 0x1 PUSH1 0x1 PUSH1 0xA0 SHL SUB SWAP1 SWAP5 AND DUP5 MSTORE PUSH1 0x20 DUP5 ADD SWAP3 SWAP1 SWAP3 MSTORE PUSH2 0xFFFF AND DUP3 DUP3 ADD MSTORE MLOAD SWAP1 DUP2 SWAP1 SUB PUSH1 0x60 ADD SWAP1 RETURN JUMPDEST CALLVALUE DUP1 ISZERO PUSH2 0x9F3 JUMPI PUSH1 0x0 DUP1 REVERT JUMPDEST POP PUSH2 0x3B1 PUSH1 0x4 DUP1 CALLDATASIZE SUB PUSH1 0x20 DUP2 LT ISZERO PUSH2 0xA0A JUMPI PUSH1 0x0 DUP1 REVERT JUMPDEST POP CALLDATALOAD PUSH1 0x1 PUSH1 0x1 PUSH1 0x80 SHL SUB NOT AND PUSH2 0x1D09 JUMP JUMPDEST CALLVALUE DUP1 ISZERO PUSH2 0xA27 JUMPI PUSH1 0x0 DUP1 REVERT JUMPDEST POP PUSH2 0x3F6 PUSH2 0x1D60 JUMP JUMPDEST CALLVALUE DUP1 ISZERO PUSH2 0xA3C JUMPI PUSH1 0x0 DUP1 REVERT JUMPDEST POP PUSH2 0xA45 PUSH2 0x1D84 JUMP JUMPDEST PUSH1 0x40 DUP1 MLOAD PUSH1 0xFF SWAP1 SWAP3 AND DUP3 MSTORE MLOAD SWAP1 DUP2 SWAP1 SUB PUSH1 0x20 ADD SWAP1 RETURN JUMPDEST CALLVALUE DUP1 ISZERO PUSH2 0xA67 JUMPI PUSH1 0x0 DUP1 REVERT JUMPDEST POP PUSH2 0x2BB PUSH1 0x4 DUP1 CALLDATASIZE SUB PUSH1 0x20 DUP2 LT ISZERO PUSH2 0xA7E JUMPI PUSH1 0x0 DUP1 REVERT JUMPDEST POP CALLDATALOAD PUSH1 0x1 PUSH1 0x1 PUSH1 0x80 SHL SUB NOT AND PUSH2 0x1D94 JUMP JUMPDEST CALLVALUE DUP1 ISZERO PUSH2 0xA9B JUMPI PUSH1 0x0 DUP1 REVERT JUMPDEST POP PUSH2 0x3B1 PUSH1 0x4 DUP1 CALLDATASIZE SUB PUSH1 0x20 DUP2 LT ISZERO PUSH2 0xAB2 JUMPI PUSH1 0x0 DUP1 REVERT JUMPDEST POP CALLDATALOAD PUSH1 0x1 PUSH1 0x1 PUSH1 0xA0 SHL SUB AND PUSH2 0x1DA1 JUMP JUMPDEST CALLVALUE DUP1 ISZERO PUSH2 0xACE JUMPI PUSH1 0x0 DUP1 REVERT JUMPDEST POP PUSH2 0x3B1 PUSH1 0x4 DUP1 CALLDATASIZE SUB PUSH1 0x20 DUP2 LT ISZERO PUSH2 0xAE5 JUMPI PUSH1 0x0 DUP1 REVERT JUMPDEST POP CALLDATALOAD PUSH1 0x1 PUSH1 0x1 PUSH1 0xA0 SHL SUB AND PUSH2 0x203C JUMP JUMPDEST PUSH1 0x0 PUSH2 0xB38 DUP6 DUP6 DUP6 DUP6 DUP1 DUP1 PUSH1 0x1F ADD PUSH1 0x20 DUP1 SWAP2 DIV MUL PUSH1 0x20 ADD PUSH1 0x40 MLOAD SWAP1 DUP2 ADD PUSH1 0x40 MSTORE DUP1 SWAP4 SWAP3 SWAP2 SWAP1 DUP2 DUP2 MSTORE PUSH1 0x20 ADD DUP4 DUP4 DUP1 DUP3 DUP5 CALLDATACOPY PUSH1 0x0 SWAP3 ADD SWAP2 SWAP1 SWAP2 MSTORE POP PUSH2 0x2056 SWAP3 POP POP POP JUMP JUMPDEST PUSH2 0xB44 DUP6 DUP6 PUSH1 0x1 PUSH2 0x209F JUMP JUMPDEST SWAP6 SWAP5 POP POP POP POP POP JUMP JUMPDEST PUSH1 0x0 PUSH32 0x0 PUSH4 0xFFFFFFFF AND TIMESTAMP DUP2 PUSH2 0xB7E JUMPI INVALID JUMPDEST DIV SWAP1 POP SWAP1 JUMP JUMPDEST PUSH1 0x5 PUSH1 0x20 MSTORE PUSH1 0x0 SWAP1 DUP2 MSTORE PUSH1 0x40 SWAP1 KECCAK256 DUP1 SLOAD PUSH1 0x1 DUP3 ADD SLOAD PUSH1 0x2 SWAP1 SWAP3 ADD SLOAD PUSH1 0x1 PUSH1 0x1 PUSH1 0x80 SHL SUB DUP3 AND SWAP3 PUSH1 0x1 PUSH1 0x80 SHL SWAP1 SWAP3 DIV PUSH2 0xFFFF AND SWAP2 SWAP1 DUP5 JUMP JUMPDEST PUSH1 0x0 PUSH2 0xBC6 CALLER PUSH2 0xDEE JUMP JUMPDEST SWAP1 POP SWAP1 JUMP JUMPDEST CALLER PUSH1 0x1 PUSH1 0x1 PUSH1 0xA0 SHL SUB PUSH32 0x0 AND EQ PUSH2 0xC00 JUMPI PUSH1 0x0 DUP1 REVERT JUMPDEST PUSH1 0x1 PUSH1 0x1 PUSH1 0xA0 SHL SUB DUP3 AND PUSH1 0x0 SWAP1 DUP2 MSTORE PUSH1 0x5 PUSH1 0x20 MSTORE PUSH1 0x40 SWAP1 KECCAK256 DUP1 SLOAD PUSH1 0x1 PUSH1 0x80 SHL SWAP1 DIV PUSH2 0xFFFF AND ISZERO DUP1 PUSH2 0xC41 JUMPI POP DUP1 SLOAD PUSH2 0xFFFF PUSH1 0x1 PUSH1 0x80 SHL SWAP1 SWAP2 DIV DUP2 AND SWAP1 DUP4 AND GT ISZERO JUMPDEST ISZERO PUSH2 0xC4C JUMPI POP PUSH2 0xDAC JUMP JUMPDEST DUP1 SLOAD PUSH1 0x1 PUSH1 0x80 SHL SWAP1 DIV PUSH2 0xFFFF AND PUSH1 0x1 ADD JUMPDEST DUP3 PUSH2 0xFFFF AND DUP2 PUSH2 0xFFFF AND GT PUSH2 0xD6D JUMPI PUSH2 0xFFFF DUP2 AND PUSH1 0x0 SWAP1 DUP2 MSTORE PUSH1 0x3 DUP4 ADD PUSH1 0x20 MSTORE PUSH1 0x40 SWAP1 KECCAK256 SLOAD PUSH1 0x1 PUSH1 0x1 PUSH1 0xFF SHL SUB DUP2 EQ ISZERO PUSH2 0xCAD JUMPI POP PUSH2 0xFFFF DUP2 AND PUSH1 0x0 SWAP1 DUP2 MSTORE PUSH1 0x3 DUP4 ADD PUSH1 0x20 MSTORE PUSH1 0x40 DUP2 KECCAK256 SSTORE PUSH2 0xD65 JUMP JUMPDEST PUSH1 0x0 DUP2 SLT DUP1 ISZERO PUSH2 0xCC3 JUMPI POP DUP3 PUSH1 0x1 ADD SLOAD DUP2 PUSH1 0x0 SUB GT JUMPDEST ISZERO PUSH2 0xD32 JUMPI PUSH1 0x1 DUP4 ADD DUP1 SLOAD PUSH2 0xFFFF DUP1 DUP6 AND PUSH1 0x0 SWAP1 DUP2 MSTORE PUSH1 0x3 DUP8 ADD PUSH1 0x20 SWAP1 DUP2 MSTORE PUSH1 0x40 DUP1 DUP4 KECCAK256 DUP1 SLOAD SWAP1 SWAP6 ADD SWAP1 SWAP5 SSTORE SWAP4 SSTORE DUP2 MLOAD SWAP1 DUP8 AND DUP2 MSTORE SWAP1 MLOAD PUSH1 0x1 PUSH1 0x1 PUSH1 0xA0 SHL SUB DUP9 AND SWAP3 PUSH32 0xD56B4810F75E2913AF1CD9E5F0D99D273958C5A67CFF5EF0E7F298507B688BB8 SWAP3 DUP3 SWAP1 SUB ADD SWAP1 LOG2 PUSH2 0xD63 JUMP JUMPDEST PUSH1 0x1 DUP4 ADD SLOAD PUSH2 0xD47 SWAP1 DUP3 PUSH4 0xFFFFFFFF PUSH2 0x259D AND JUMP JUMPDEST PUSH1 0x1 DUP5 ADD SSTORE PUSH2 0xFFFF DUP3 AND PUSH1 0x0 SWAP1 DUP2 MSTORE PUSH1 0x3 DUP5 ADD PUSH1 0x20 MSTORE PUSH1 0x40 DUP2 KECCAK256 SSTORE JUMPDEST POP JUMPDEST PUSH1 0x1 ADD PUSH2 0xC5D JUMP JUMPDEST POP DUP1 SLOAD PUSH1 0x1 DUP3 ADD SLOAD PUSH1 0x1 PUSH1 0x1 PUSH1 0x80 SHL SUB NOT PUSH2 0xFFFF PUSH1 0x80 SHL NOT SWAP1 SWAP3 AND PUSH1 0x1 PUSH1 0x80 SHL PUSH2 0xFFFF DUP7 AND MUL OR SWAP2 DUP3 AND PUSH1 0x1 PUSH1 0x1 PUSH1 0x80 SHL SUB SWAP3 DUP4 AND SWAP1 SWAP2 ADD SWAP1 SWAP2 AND OR SWAP1 SSTORE JUMPDEST POP POP JUMP JUMPDEST PUSH32 0x0 DUP2 JUMP JUMPDEST PUSH1 0x2 SLOAD PUSH1 0x1 PUSH1 0x1 PUSH1 0xA0 SHL SUB AND DUP2 JUMP JUMPDEST PUSH1 0x1 PUSH1 0x1 PUSH1 0xFF SHL SUB DUP2 JUMP JUMPDEST CALLER PUSH1 0x0 SWAP1 DUP2 MSTORE PUSH1 0x5 PUSH1 0x20 MSTORE PUSH1 0x40 DUP2 KECCAK256 DUP1 SLOAD PUSH1 0x1 PUSH1 0x1 PUSH1 0x80 SHL SUB AND DUP1 PUSH2 0xE12 JUMPI PUSH1 0x0 DUP1 REVERT JUMPDEST DUP2 SLOAD PUSH1 0x1 PUSH1 0x1 PUSH1 0x80 SHL SUB NOT AND DUP3 SSTORE PUSH2 0xE39 PUSH1 0x1 PUSH1 0x1 PUSH1 0xA0 SHL SUB DUP6 AND DUP3 PUSH4 0xFFFFFFFF PUSH2 0x25D1 AND JUMP JUMPDEST PUSH1 0x40 DUP1 MLOAD DUP3 DUP2 MSTORE SWAP1 MLOAD PUSH1 0x1 PUSH1 0x1 PUSH1 0xA0 SHL SUB DUP7 AND SWAP2 CALLER SWAP2 PUSH32 0xD1C19FBCD4551A5EDFB66D43D2E337C04837AFDA3482B42BDF569A8FCCDAE5FB SWAP2 DUP2 SWAP1 SUB PUSH1 0x20 ADD SWAP1 LOG3 SWAP2 POP POP JUMPDEST SWAP2 SWAP1 POP JUMP JUMPDEST PUSH1 0x1 PUSH1 0x1 PUSH1 0x80 SHL SUB NOT DUP2 AND PUSH1 0x0 SWAP1 DUP2 MSTORE PUSH1 0x4 PUSH1 0x20 MSTORE PUSH1 0x40 DUP2 KECCAK256 PUSH1 0x1 DUP2 ADD SLOAD PUSH1 0x1 PUSH1 0x1 PUSH1 0xA0 SHL SUB AND ISZERO PUSH2 0xEC1 JUMPI PUSH1 0x1 DUP2 ADD SLOAD PUSH1 0x1 PUSH1 0x1 PUSH1 0xA0 SHL SUB AND PUSH2 0xED2 JUMP JUMPDEST DUP1 SLOAD PUSH2 0x100 SWAP1 DIV PUSH1 0x1 PUSH1 0x1 PUSH1 0xA0 SHL SUB AND JUMPDEST SWAP4 SWAP3 POP POP POP JUMP JUMPDEST PUSH2 0xEE1 PUSH2 0x184C JUMP JUMPDEST PUSH2 0xEEA JUMPI PUSH1 0x0 DUP1 REVERT JUMPDEST DUP2 PUSH1 0x1 PUSH1 0x1 PUSH1 0x80 SHL SUB AND DUP4 PUSH1 0x1 PUSH1 0x1 PUSH1 0x80 SHL SUB AND GT ISZERO DUP1 ISZERO PUSH2 0xF1E JUMPI POP DUP1 PUSH1 0x1 PUSH1 0x1 PUSH1 0x80 SHL SUB AND DUP3 PUSH1 0x1 PUSH1 0x1 PUSH1 0x80 SHL SUB AND GT ISZERO JUMPDEST PUSH2 0xF27 JUMPI PUSH1 0x0 DUP1 REVERT JUMPDEST PUSH1 0x40 DUP1 MLOAD PUSH1 0x60 DUP1 DUP3 ADD DUP4 MSTORE PUSH1 0x1 PUSH1 0x1 PUSH1 0x80 SHL SUB DUP7 DUP2 AND DUP1 DUP5 MSTORE DUP7 DUP3 AND PUSH1 0x20 DUP1 DUP7 ADD DUP3 SWAP1 MSTORE DUP8 DUP5 AND SWAP6 DUP8 ADD DUP7 SWAP1 MSTORE PUSH1 0x6 DUP1 SLOAD PUSH1 0x1 PUSH1 0x1 PUSH1 0x80 SHL SUB NOT SWAP1 DUP2 AND DUP6 OR SWAP1 SWAP6 AND PUSH1 0x1 PUSH1 0x80 SHL DUP5 MUL OR SWAP1 SSTORE PUSH1 0x7 DUP1 SLOAD SWAP1 SWAP5 AND DUP7 OR SWAP1 SWAP4 SSTORE DUP6 MLOAD SWAP2 DUP3 MSTORE SWAP2 DUP2 ADD SWAP2 SWAP1 SWAP2 MSTORE DUP1 DUP5 ADD SWAP3 SWAP1 SWAP3 MSTORE SWAP2 MLOAD CALLER SWAP3 PUSH32 0x3A93FB7C2385D29E9693A6EDCD81C4CEE090101CB783DC2F17A7814B79A2ECDC SWAP3 DUP3 SWAP1 SUB ADD SWAP1 LOG2 POP POP POP JUMP JUMPDEST PUSH1 0x0 PUSH1 0x1 PUSH1 0x1 PUSH1 0xA0 SHL SUB DUP3 AND PUSH2 0xFD8 JUMPI PUSH1 0x0 DUP1 REVERT JUMPDEST PUSH1 0x1 PUSH1 0x1 PUSH1 0x80 SHL SUB NOT DUP4 AND PUSH1 0x0 SWAP1 DUP2 MSTORE PUSH1 0x4 PUSH1 0x20 MSTORE PUSH1 0x40 SWAP1 KECCAK256 PUSH1 0x1 DUP2 ADD SLOAD PUSH1 0x1 PUSH1 0x1 PUSH1 0xA0 SHL SUB AND CALLER EQ DUP1 PUSH2 0x101A JUMPI POP DUP1 SLOAD PUSH2 0x100 SWAP1 DIV PUSH1 0x1 PUSH1 0x1 PUSH1 0xA0 SHL SUB AND CALLER EQ JUMPDEST PUSH2 0x1023 JUMPI PUSH1 0x0 DUP1 REVERT JUMPDEST PUSH2 0x102F DUP5 DUP5 PUSH1 0x0 PUSH2 0x209F JUMP JUMPDEST SWAP2 POP POP JUMPDEST SWAP3 SWAP2 POP POP JUMP JUMPDEST PUSH1 0x6 SLOAD PUSH1 0x7 SLOAD PUSH1 0x1 PUSH1 0x1 PUSH1 0x80 SHL SUB DUP1 DUP4 AND SWAP3 PUSH1 0x1 PUSH1 0x80 SHL SWAP1 DIV DUP2 AND SWAP2 AND DUP4 JUMP JUMPDEST PUSH1 0x1 PUSH1 0x1 PUSH1 0x80 SHL SUB NOT AND PUSH1 0x0 SWAP1 DUP2 MSTORE PUSH1 0x4 PUSH1 0x20 MSTORE PUSH1 0x40 SWAP1 KECCAK256 PUSH1 0x8 ADD SLOAD SWAP1 JUMP JUMPDEST PUSH1 0x4 PUSH1 0x20 DUP2 SWAP1 MSTORE PUSH1 0x0 SWAP2 DUP3 MSTORE PUSH1 0x40 SWAP1 SWAP2 KECCAK256 DUP1 SLOAD PUSH1 0x1 DUP3 ADD SLOAD PUSH1 0x2 DUP4 ADD SLOAD PUSH1 0x3 DUP5 ADD SLOAD SWAP5 DUP5 ADD SLOAD PUSH1 0x5 DUP6 ADD SLOAD PUSH1 0x6 DUP7 ADD SLOAD PUSH1 0x7 SWAP1 SWAP7 ADD SLOAD PUSH1 0xFF DUP7 AND SWAP8 PUSH1 0x1 PUSH1 0x1 PUSH1 0xA0 SHL SUB PUSH2 0x100 SWAP1 SWAP8 DIV DUP8 AND SWAP8 SWAP6 SWAP1 SWAP7 AND SWAP6 PUSH1 0x1 PUSH1 0x1 PUSH1 0x80 SHL SUB DUP6 AND SWAP6 PUSH1 0x1 PUSH1 0x1 PUSH1 0x40 SHL SUB PUSH1 0x1 PUSH1 0x80 SHL DUP8 DIV DUP2 AND SWAP7 PUSH1 0x1 PUSH1 0xC0 SHL SWAP1 DIV AND SWAP5 SWAP2 SWAP4 SWAP2 SWAP3 DUP12 JUMP JUMPDEST PUSH2 0x10FE PUSH2 0x184C JUMP JUMPDEST PUSH2 0x1107 JUMPI PUSH1 0x0 DUP1 REVERT JUMPDEST PUSH1 0x0 DUP1 SLOAD PUSH1 0x40 MLOAD PUSH1 0x1 PUSH1 0x1 PUSH1 0xA0 SHL SUB SWAP1 SWAP2 AND SWAP1 PUSH32 0x8BE0079C531659141344CD1FD0A4F28419497F9722A3DAAFE3B4186F6B6457E0 SWAP1 DUP4 SWAP1 LOG3 PUSH1 0x0 DUP1 SLOAD PUSH1 0x1 PUSH1 0x1 PUSH1 0xA0 SHL SUB NOT AND SWAP1 SSTORE JUMP JUMPDEST CALLER PUSH1 0x1 PUSH1 0x1 PUSH1 0xA0 SHL SUB PUSH32 0x0 AND EQ PUSH2 0x1186 JUMPI PUSH1 0x0 DUP1 REVERT JUMPDEST PUSH1 0x1 PUSH1 0x1 PUSH1 0xA0 SHL SUB DUP3 AND PUSH1 0x0 SWAP1 DUP2 MSTORE PUSH1 0x5 PUSH1 0x20 MSTORE PUSH1 0x40 SWAP1 KECCAK256 DUP1 SLOAD PUSH1 0x1 PUSH1 0x80 SHL SWAP1 DIV PUSH2 0xFFFF AND ISZERO DUP1 ISZERO PUSH2 0x11C6 JUMPI POP PUSH2 0x11BB PUSH2 0xB4D JUMP JUMPDEST PUSH2 0xFFFF AND DUP3 PUSH2 0xFFFF AND LT JUMPDEST PUSH2 0x11CF JUMPI PUSH1 0x0 DUP1 REVERT JUMPDEST DUP1 SLOAD PUSH2 0xFFFF SWAP1 SWAP3 AND PUSH1 0x1 PUSH1 0x80 SHL MUL PUSH2 0xFFFF PUSH1 0x80 SHL NOT SWAP1 SWAP3 AND SWAP2 SWAP1 SWAP2 OR SWAP1 SSTORE POP JUMP JUMPDEST PUSH1 0x1 PUSH1 0x1 PUSH1 0x80 SHL SUB NOT DUP6 AND PUSH1 0x0 DUP2 DUP2 MSTORE PUSH1 0x4 PUSH1 0x20 MSTORE PUSH1 0x40 SWAP1 KECCAK256 SWAP1 ISZERO DUP1 ISZERO SWAP1 PUSH2 0x1223 JUMPI POP PUSH1 0x2 DUP2 ADD SLOAD PUSH1 0x1 PUSH1 0x1 PUSH1 0x80 SHL SUB AND ISZERO JUMPDEST DUP1 ISZERO PUSH2 0x1231 JUMPI POP DUP1 SLOAD PUSH1 0xFF AND ISZERO JUMPDEST DUP1 ISZERO PUSH2 0x1245 JUMPI POP TIMESTAMP DUP5 PUSH1 0x1 PUSH1 0x1 PUSH1 0x40 SHL SUB AND GT JUMPDEST DUP1 ISZERO PUSH2 0x1251 JUMPI POP PUSH1 0x0 CALLVALUE GT JUMPDEST PUSH2 0x125A JUMPI PUSH1 0x0 DUP1 REVERT JUMPDEST PUSH1 0x1 PUSH1 0x1 PUSH1 0x80 SHL SUB SELFBALANCE GT ISZERO PUSH2 0x126E JUMPI PUSH1 0x0 DUP1 REVERT JUMPDEST PUSH1 0x0 PUSH2 0x1278 PUSH2 0xB4D JUMP JUMPDEST SWAP1 POP PUSH1 0x0 PUSH32 0x0 PUSH4 0xFFFFFFFF AND DUP7 PUSH1 0x1 PUSH1 0x1 PUSH1 0x40 SHL SUB AND DUP2 PUSH2 0x12B4 JUMPI INVALID JUMPDEST DUP5 SLOAD PUSH2 0x100 CALLER MUL PUSH2 0x100 PUSH1 0x1 PUSH1 0xA8 SHL SUB NOT SWAP1 SWAP2 AND OR DUP6 SSTORE PUSH1 0x2 DUP6 ADD DUP1 SLOAD PUSH1 0x1 PUSH1 0x1 PUSH1 0x40 SHL SUB DUP11 DUP2 AND PUSH1 0x1 PUSH1 0xC0 SHL MUL PUSH1 0x1 PUSH1 0x1 PUSH1 0xC0 SHL SUB TIMESTAMP SWAP3 SWAP1 SWAP3 AND PUSH1 0x1 PUSH1 0x80 SHL MUL PUSH8 0xFFFFFFFFFFFFFFFF PUSH1 0x80 SHL NOT SWAP1 SWAP4 AND SWAP3 SWAP1 SWAP3 OR AND OR SWAP1 SSTORE DIV PUSH1 0x1 DUP2 DUP2 ADD SWAP3 POP PUSH2 0xFFFF SWAP2 DUP5 SWAP1 SUB ADD AND DUP1 PUSH2 0x1329 CALLVALUE DUP8 PUSH2 0x26B6 JUMP JUMPDEST DUP2 PUSH2 0x1330 JUMPI INVALID JUMPDEST PUSH1 0x2 DUP7 ADD DUP1 SLOAD PUSH1 0x1 PUSH1 0x1 PUSH1 0x80 SHL SUB NOT AND SWAP3 SWAP1 SWAP2 DIV PUSH1 0x1 PUSH1 0x1 PUSH1 0x80 SHL SUB SWAP1 DUP2 AND SWAP3 SWAP1 SWAP3 OR SWAP1 DUP2 SWAP1 SSTORE AND ISZERO DUP1 ISZERO SWAP1 PUSH2 0x1376 JUMPI POP PUSH1 0x2 DUP5 ADD SLOAD PUSH1 0x1 PUSH1 0x1 PUSH1 0x80 SHL SUB AND DUP2 MUL DUP6 MUL CALLVALUE EQ JUMPDEST PUSH2 0x137F JUMPI PUSH1 0x0 DUP1 REVERT JUMPDEST PUSH1 0x1 PUSH1 0x1 PUSH1 0xA0 SHL SUB DUP9 AND CALLER EQ DUP1 ISZERO SWAP1 PUSH2 0x13A0 JUMPI POP PUSH1 0x1 PUSH1 0x1 PUSH1 0xA0 SHL SUB DUP9 AND ISZERO ISZERO JUMPDEST ISZERO PUSH2 0x13C3 JUMPI PUSH1 0x1 DUP5 ADD DUP1 SLOAD PUSH1 0x1 PUSH1 0x1 PUSH1 0xA0 SHL SUB NOT AND PUSH1 0x1 PUSH1 0x1 PUSH1 0xA0 SHL SUB DUP11 AND OR SWAP1 SSTORE JUMPDEST PUSH1 0x0 JUMPDEST DUP6 DUP2 LT ISZERO PUSH2 0x1668 JUMPI PUSH1 0x0 DUP8 DUP8 DUP4 DUP2 DUP2 LT PUSH2 0x13DC JUMPI INVALID JUMPDEST SWAP1 POP PUSH1 0x20 MUL ADD CALLDATALOAD PUSH1 0x1 PUSH1 0x1 PUSH1 0xA0 SHL SUB AND SWAP1 POP PUSH1 0x0 PUSH1 0x1 PUSH1 0x1 PUSH1 0xA0 SHL SUB AND DUP2 PUSH1 0x1 PUSH1 0x1 PUSH1 0xA0 SHL SUB AND EQ ISZERO PUSH2 0x140E JUMPI PUSH1 0x0 DUP1 REVERT JUMPDEST PUSH1 0x1 PUSH1 0x1 PUSH1 0xA0 SHL SUB DUP2 AND PUSH1 0x0 SWAP1 DUP2 MSTORE PUSH1 0x5 PUSH1 0x20 MSTORE PUSH1 0x40 SWAP1 KECCAK256 DUP1 SLOAD PUSH1 0x1 PUSH1 0x80 SHL SWAP1 DIV PUSH2 0xFFFF AND ISZERO DUP1 ISZERO SWAP1 PUSH2 0x144F JUMPI POP DUP1 SLOAD PUSH2 0xFFFF DUP1 DUP9 AND PUSH1 0x1 PUSH1 0x80 SHL SWAP1 SWAP3 DIV AND LT JUMPDEST DUP1 ISZERO PUSH2 0x1470 JUMPI POP PUSH2 0x145F DUP2 PUSH2 0x26D8 JUMP JUMPDEST PUSH1 0x2 DUP9 ADD SLOAD PUSH1 0x1 PUSH1 0x1 PUSH1 0x80 SHL SUB AND LT ISZERO JUMPDEST PUSH2 0x1479 JUMPI PUSH1 0x0 DUP1 REVERT JUMPDEST PUSH2 0xFFFF DUP7 AND PUSH1 0x0 SWAP1 DUP2 MSTORE PUSH1 0x3 DUP3 ADD PUSH1 0x20 MSTORE PUSH1 0x40 SWAP1 KECCAK256 SLOAD PUSH1 0x1 PUSH1 0x1 PUSH1 0xFF SHL SUB EQ ISZERO PUSH2 0x14C9 JUMPI PUSH1 0x2 DUP8 ADD SLOAD PUSH2 0xFFFF DUP8 AND PUSH1 0x0 SWAP1 DUP2 MSTORE PUSH1 0x3 DUP4 ADD PUSH1 0x20 MSTORE PUSH1 0x40 SWAP1 KECCAK256 PUSH1 0x1 PUSH1 0x1 PUSH1 0x80 SHL SUB SWAP1 SWAP2 AND SWAP1 SSTORE PUSH2 0x14F6 JUMP JUMPDEST PUSH1 0x2 DUP8 ADD SLOAD PUSH2 0xFFFF DUP8 AND PUSH1 0x0 SWAP1 DUP2 MSTORE PUSH1 0x3 DUP4 ADD PUSH1 0x20 MSTORE PUSH1 0x40 SWAP1 KECCAK256 DUP1 SLOAD PUSH1 0x1 PUSH1 0x1 PUSH1 0x80 SHL SUB SWAP1 SWAP3 AND SWAP1 SWAP2 ADD SWAP1 SSTORE JUMPDEST PUSH2 0xFFFF DUP6 AND PUSH1 0x0 SWAP1 DUP2 MSTORE PUSH1 0x3 DUP3 ADD PUSH1 0x20 MSTORE PUSH1 0x40 SWAP1 KECCAK256 SLOAD PUSH1 0x1 PUSH1 0x1 PUSH1 0xFF SHL SUB EQ ISZERO PUSH2 0x1548 JUMPI PUSH1 0x2 DUP8 ADD SLOAD PUSH2 0xFFFF DUP7 AND PUSH1 0x0 SWAP1 DUP2 MSTORE PUSH1 0x3 DUP4 ADD PUSH1 0x20 MSTORE PUSH1 0x40 DUP2 KECCAK256 PUSH1 0x1 PUSH1 0x1 PUSH1 0x80 SHL SUB SWAP1 SWAP3 AND SWAP1 SUB SWAP1 SSTORE PUSH2 0x1575 JUMP JUMPDEST PUSH1 0x2 DUP8 ADD SLOAD PUSH2 0xFFFF DUP7 AND PUSH1 0x0 SWAP1 DUP2 MSTORE PUSH1 0x3 DUP4 ADD PUSH1 0x20 MSTORE PUSH1 0x40 SWAP1 KECCAK256 DUP1 SLOAD PUSH1 0x1 PUSH1 0x1 PUSH1 0x80 SHL SUB SWAP1 SWAP3 AND SWAP1 SWAP2 SUB SWAP1 SSTORE JUMPDEST PUSH2 0xFFFF DUP7 AND PUSH1 0x0 SWAP1 DUP2 MSTORE PUSH1 0x3 DUP3 ADD PUSH1 0x20 MSTORE PUSH1 0x40 SWAP1 KECCAK256 SLOAD PUSH2 0x15AF JUMPI PUSH2 0xFFFF DUP7 AND PUSH1 0x0 SWAP1 DUP2 MSTORE PUSH1 0x3 DUP3 ADD PUSH1 0x20 MSTORE PUSH1 0x40 SWAP1 KECCAK256 PUSH1 0x1 PUSH1 0x1 PUSH1 0xFF SHL SUB SWAP1 SSTORE JUMPDEST PUSH2 0xFFFF DUP6 AND PUSH1 0x0 SWAP1 DUP2 MSTORE PUSH1 0x3 DUP3 ADD PUSH1 0x20 MSTORE PUSH1 0x40 SWAP1 KECCAK256 SLOAD PUSH2 0x15E9 JUMPI PUSH2 0xFFFF DUP6 AND PUSH1 0x0 SWAP1 DUP2 MSTORE PUSH1 0x3 DUP3 ADD PUSH1 0x20 MSTORE PUSH1 0x40 SWAP1 KECCAK256 PUSH1 0x1 PUSH1 0x1 PUSH1 0xFF SHL SUB SWAP1 SSTORE JUMPDEST POP PUSH1 0x40 DUP1 MLOAD PUSH1 0x60 DUP2 ADD DUP3 MSTORE PUSH1 0x1 PUSH1 0x1 PUSH1 0xA0 SHL SUB SWAP3 DUP4 AND DUP2 MSTORE PUSH1 0x0 PUSH1 0x20 DUP1 DUP4 ADD DUP3 DUP2 MSTORE SWAP4 DUP4 ADD DUP3 DUP2 MSTORE PUSH1 0x8 DUP12 ADD DUP1 SLOAD PUSH1 0x1 DUP1 DUP3 ADD DUP4 SSTORE SWAP2 DUP6 MSTORE SWAP3 SWAP1 SWAP4 KECCAK256 SWAP4 MLOAD PUSH1 0x3 SWAP1 SWAP3 MUL SWAP1 SWAP4 ADD DUP1 SLOAD PUSH1 0x1 PUSH1 0x1 PUSH1 0xA0 SHL SUB NOT AND SWAP2 SWAP1 SWAP6 AND OR DUP5 SSTORE SWAP2 MLOAD DUP4 DUP4 ADD SSTORE MLOAD PUSH1 0x2 SWAP1 SWAP3 ADD DUP1 SLOAD PUSH2 0xFFFF NOT AND PUSH2 0xFFFF SWAP1 SWAP4 AND SWAP3 SWAP1 SWAP3 OR SWAP1 SWAP2 SSTORE ADD PUSH2 0x13C6 JUMP JUMPDEST POP PUSH1 0x1 PUSH1 0x1 PUSH1 0xA0 SHL SUB DUP9 AND ISZERO PUSH2 0x167E JUMPI DUP8 PUSH2 0x1680 JUMP JUMPDEST CALLER JUMPDEST PUSH1 0x2 DUP6 ADD SLOAD PUSH1 0x40 DUP1 MLOAD PUSH1 0x1 PUSH1 0x1 PUSH1 0x80 SHL SUB DUP4 AND DUP2 MSTORE PUSH1 0x1 PUSH1 0x1 PUSH1 0x40 SHL SUB PUSH1 0x1 PUSH1 0x80 SHL DUP5 DIV DUP2 AND PUSH1 0x20 DUP4 ADD MSTORE PUSH1 0x1 PUSH1 0xC0 SHL SWAP1 SWAP4 DIV SWAP1 SWAP3 AND DUP3 DUP3 ADD MSTORE PUSH1 0x60 DUP3 ADD DUP9 SWAP1 MSTORE MLOAD PUSH1 0x1 PUSH1 0x1 PUSH1 0xA0 SHL SUB SWAP3 SWAP1 SWAP3 AND SWAP2 CALLER SWAP2 PUSH1 0x1 PUSH1 0x1 PUSH1 0x80 SHL SUB NOT DUP14 AND SWAP2 PUSH32 0x8E609DAC02BD39FF24C8AD6BB9A735E739B56708B22159948EC9828AD765B4D1 SWAP2 DUP2 SWAP1 SUB PUSH1 0x80 ADD SWAP1 LOG4 POP POP POP POP POP POP POP POP POP JUMP JUMPDEST PUSH1 0x1 PUSH1 0x1 PUSH1 0xA0 SHL SUB DUP2 AND PUSH1 0x0 SWAP1 DUP2 MSTORE PUSH1 0x5 PUSH1 0x20 MSTORE PUSH1 0x40 DUP2 KECCAK256 PUSH2 0xED2 DUP2 PUSH2 0x26D8 JUMP JUMPDEST PUSH1 0x6 SLOAD PUSH1 0x1 PUSH1 0x1 PUSH1 0x80 SHL SUB AND DUP2 LT DUP1 ISZERO SWAP1 PUSH2 0x1759 JUMPI POP PUSH1 0x7 SLOAD PUSH1 0x1 PUSH1 0x1 PUSH1 0x80 SHL SUB AND DUP2 GT ISZERO JUMPDEST PUSH2 0x1794 JUMPI PUSH1 0x40 MLOAD PUSH3 0x461BCD PUSH1 0xE5 SHL DUP2 MSTORE PUSH1 0x4 ADD DUP1 DUP1 PUSH1 0x20 ADD DUP3 DUP2 SUB DUP3 MSTORE PUSH1 0x3F DUP2 MSTORE PUSH1 0x20 ADD DUP1 PUSH2 0x341E PUSH1 0x3F SWAP2 CODECOPY PUSH1 0x40 ADD SWAP2 POP POP PUSH1 0x40 MLOAD DUP1 SWAP2 SUB SWAP1 REVERT JUMPDEST CALLER PUSH1 0x0 SWAP1 DUP2 MSTORE PUSH1 0x5 PUSH1 0x20 MSTORE PUSH1 0x40 SWAP1 KECCAK256 PUSH1 0x2 DUP2 ADD SLOAD DUP3 EQ ISZERO PUSH2 0x17B5 JUMPI POP PUSH2 0x17F4 JUMP JUMPDEST PUSH1 0x2 DUP2 ADD DUP3 SWAP1 SSTORE PUSH1 0x40 DUP1 MLOAD DUP4 DUP2 MSTORE SWAP1 MLOAD CALLER SWAP2 PUSH32 0x6B9024CC1BF5710F290BE788DCA9886DB7A3D9BE0DF0855BFA991DBF26A256BC SWAP2 SWAP1 DUP2 SWAP1 SUB PUSH1 0x20 ADD SWAP1 LOG2 POP JUMPDEST POP JUMP JUMPDEST PUSH1 0x0 PUSH1 0x1 PUSH1 0x1 PUSH1 0xA0 SHL SUB DUP3 AND PUSH2 0x180C JUMPI PUSH1 0x0 DUP1 REVERT JUMPDEST CALLER PUSH2 0x1816 DUP5 PUSH2 0xE82 JUMP JUMPDEST PUSH1 0x1 PUSH1 0x1 PUSH1 0xA0 SHL SUB AND EQ PUSH2 0x1829 JUMPI PUSH1 0x0 DUP1 REVERT JUMPDEST PUSH2 0xED2 DUP4 DUP4 PUSH1 0x1 PUSH2 0x209F JUMP JUMPDEST PUSH1 0x0 SLOAD PUSH1 0x1 PUSH1 0x1 PUSH1 0xA0 SHL SUB AND SWAP1 JUMP JUMPDEST PUSH1 0x0 SWAP3 SWAP2 POP POP JUMP JUMPDEST PUSH1 0x0 SLOAD PUSH1 0x1 PUSH1 0x1 PUSH1 0xA0 SHL SUB AND CALLER EQ SWAP1 JUMP JUMPDEST PUSH1 0x0 CALLER PUSH2 0x1869 DUP4 PUSH2 0xE82 JUMP JUMPDEST PUSH1 0x1 PUSH1 0x1 PUSH1 0xA0 SHL SUB AND EQ PUSH2 0x187C JUMPI PUSH1 0x0 DUP1 REVERT JUMPDEST PUSH2 0x1033 DUP3 PUSH1 0x0 PUSH1 0x1 PUSH2 0x209F JUMP JUMPDEST PUSH1 0x0 PUSH1 0x1 PUSH1 0x1 PUSH1 0xA0 SHL SUB DUP3 AND PUSH2 0x189E JUMPI PUSH1 0x0 DUP1 REVERT JUMPDEST PUSH2 0xED2 DUP4 DUP4 PUSH2 0x2741 JUMP JUMPDEST CALLER PUSH1 0x1 PUSH1 0x1 PUSH1 0xA0 SHL SUB PUSH32 0x0 AND EQ PUSH2 0x18DD JUMPI PUSH1 0x0 DUP1 REVERT JUMPDEST PUSH1 0x1 PUSH1 0x1 PUSH1 0xA0 SHL SUB DUP3 AND PUSH1 0x0 SWAP1 DUP2 MSTORE PUSH1 0x5 PUSH1 0x20 SWAP1 DUP2 MSTORE PUSH1 0x40 DUP1 DUP4 KECCAK256 PUSH2 0xFFFF DUP6 AND DUP5 MSTORE PUSH1 0x3 DUP2 ADD SWAP1 SWAP3 MSTORE SWAP1 SWAP2 KECCAK256 SLOAD PUSH2 0x192E JUMPI PUSH2 0xFFFF DUP3 AND PUSH1 0x0 SWAP1 DUP2 MSTORE PUSH1 0x3 DUP3 ADD PUSH1 0x20 MSTORE PUSH1 0x40 SWAP1 KECCAK256 PUSH1 0x1 PUSH1 0x1 PUSH1 0xFF SHL SUB SWAP1 SSTORE JUMPDEST POP POP POP JUMP JUMPDEST PUSH2 0x193C DUP2 PUSH2 0x286B JUMP JUMPDEST PUSH2 0x1944 PUSH2 0x3338 JUMP JUMPDEST PUSH2 0x194D DUP3 PUSH2 0x28C5 JUMP JUMPDEST DUP1 MLOAD PUSH1 0x6 SLOAD SWAP2 SWAP3 POP PUSH1 0x1 PUSH1 0x1 PUSH1 0x80 SHL SUB SWAP2 DUP3 AND SWAP2 AND EQ DUP1 ISZERO PUSH2 0x1988 JUMPI POP PUSH1 0x20 DUP2 ADD MLOAD PUSH1 0x6 SLOAD PUSH1 0x1 PUSH1 0x80 SHL SWAP1 DIV PUSH1 0x1 PUSH1 0x1 PUSH1 0x80 SHL SUB SWAP1 DUP2 AND SWAP2 AND EQ JUMPDEST DUP1 ISZERO PUSH2 0x19A6 JUMPI POP PUSH1 0x40 DUP2 ADD MLOAD PUSH1 0x7 SLOAD PUSH1 0x1 PUSH1 0x1 PUSH1 0x80 SHL SUB SWAP1 DUP2 AND SWAP2 AND EQ JUMPDEST PUSH2 0x19AF JUMPI PUSH1 0x0 DUP1 REVERT JUMPDEST PUSH1 0x0 DUP1 MSTORE PUSH1 0x4 PUSH1 0x20 MSTORE PUSH32 0x17EF568E3E12AB5B9C7254A8D58478811DE00F9E6EB34345ACD53BF8FD09D3EC PUSH2 0x19E1 PUSH2 0x3358 JUMP JUMPDEST PUSH2 0x19EC DUP5 PUSH1 0x0 PUSH2 0x28E3 JUMP JUMPDEST DUP3 SLOAD PUSH1 0x20 DUP3 ADD MLOAD SWAP2 SWAP3 POP PUSH2 0x100 SWAP1 DIV PUSH1 0x1 PUSH1 0x1 PUSH1 0xA0 SHL SUB SWAP1 DUP2 AND SWAP2 AND EQ DUP1 ISZERO PUSH2 0x1A29 JUMPI POP PUSH1 0x1 DUP3 ADD SLOAD PUSH1 0x40 DUP3 ADD MLOAD PUSH1 0x1 PUSH1 0x1 PUSH1 0xA0 SHL SUB SWAP1 DUP2 AND SWAP2 AND EQ JUMPDEST DUP1 ISZERO PUSH2 0x1A49 JUMPI POP PUSH1 0x2 DUP3 ADD SLOAD PUSH1 0x60 DUP3 ADD MLOAD PUSH1 0x1 PUSH1 0x1 PUSH1 0x80 SHL SUB SWAP1 DUP2 AND SWAP2 AND EQ JUMPDEST DUP1 ISZERO PUSH2 0x1A70 JUMPI POP PUSH1 0x2 DUP3 ADD SLOAD PUSH1 0x80 DUP3 ADD MLOAD PUSH1 0x1 PUSH1 0x1 PUSH1 0x40 SHL SUB SWAP1 DUP2 AND PUSH1 0x1 PUSH1 0x80 SHL SWAP1 SWAP3 DIV AND EQ JUMPDEST DUP1 ISZERO PUSH2 0x1A97 JUMPI POP PUSH1 0x2 DUP3 ADD SLOAD PUSH1 0xA0 DUP3 ADD MLOAD PUSH1 0x1 PUSH1 0x1 PUSH1 0x40 SHL SUB SWAP1 DUP2 AND PUSH1 0x1 PUSH1 0xC0 SHL SWAP1 SWAP3 DIV AND EQ JUMPDEST DUP1 ISZERO PUSH2 0x1AAD JUMPI POP DUP2 SLOAD DUP2 MLOAD ISZERO ISZERO PUSH1 0xFF SWAP1 SWAP2 AND ISZERO ISZERO EQ JUMPDEST PUSH2 0x1AB6 JUMPI PUSH1 0x0 DUP1 REVERT JUMPDEST PUSH1 0x8 DUP3 ADD SLOAD PUSH2 0x1ACE DUP6 PUSH4 0x6BD2AF57 PUSH1 0xE0 SHL PUSH1 0x0 PUSH2 0x2914 JUMP JUMPDEST EQ PUSH2 0x1AD8 JUMPI PUSH1 0x0 DUP1 REVERT JUMPDEST PUSH1 0x8 DUP3 ADD SLOAD ISZERO PUSH2 0x1B67 JUMPI PUSH1 0x0 DUP3 PUSH1 0x8 ADD PUSH1 0x0 DUP2 SLOAD DUP2 LT PUSH2 0x1AF4 JUMPI INVALID JUMPDEST SWAP1 PUSH1 0x0 MSTORE PUSH1 0x20 PUSH1 0x0 KECCAK256 SWAP1 PUSH1 0x3 MUL ADD SWAP1 POP PUSH2 0x1B0C PUSH2 0x3338 JUMP JUMPDEST PUSH2 0x1B18 DUP7 PUSH1 0x0 DUP1 PUSH2 0x292F JUMP JUMPDEST DUP3 SLOAD DUP2 MLOAD SWAP2 SWAP3 POP PUSH1 0x1 PUSH1 0x1 PUSH1 0xA0 SHL SUB SWAP2 DUP3 AND SWAP2 AND EQ DUP1 ISZERO PUSH2 0x1B40 JUMPI POP DUP2 PUSH1 0x1 ADD SLOAD DUP2 PUSH1 0x20 ADD MLOAD EQ JUMPDEST DUP1 ISZERO PUSH2 0x1B5B JUMPI POP PUSH1 0x2 DUP3 ADD SLOAD PUSH1 0x40 DUP3 ADD MLOAD PUSH2 0xFFFF SWAP1 DUP2 AND SWAP2 AND EQ JUMPDEST PUSH2 0x1B64 JUMPI PUSH1 0x0 DUP1 REVERT JUMPDEST POP POP JUMPDEST PUSH1 0x0 DUP1 MSTORE PUSH1 0x5 PUSH1 0x20 MSTORE PUSH32 0x5B8CCBB9D4D8FB16EA74CE3C29A41F1B461FBDAFF4714A0D9A8EB05499746BC PUSH2 0x1B99 PUSH2 0x33E8 JUMP JUMPDEST PUSH2 0x1BA4 DUP7 PUSH1 0x0 PUSH2 0x2958 JUMP JUMPDEST DUP3 SLOAD DUP2 MLOAD SWAP2 SWAP3 POP PUSH1 0x1 PUSH1 0x1 PUSH1 0x80 SHL SUB SWAP2 DUP3 AND SWAP2 AND EQ DUP1 ISZERO PUSH2 0x1BCC JUMPI POP DUP2 PUSH1 0x1 ADD SLOAD DUP2 PUSH1 0x40 ADD MLOAD EQ JUMPDEST DUP1 ISZERO PUSH2 0x1BEB JUMPI POP DUP2 SLOAD PUSH1 0x20 DUP3 ADD MLOAD PUSH2 0xFFFF SWAP1 DUP2 AND PUSH1 0x1 PUSH1 0x80 SHL SWAP1 SWAP3 DIV AND EQ JUMPDEST DUP1 ISZERO PUSH2 0x1BFE JUMPI POP DUP2 PUSH1 0x2 ADD SLOAD DUP2 PUSH1 0x60 ADD MLOAD EQ JUMPDEST PUSH2 0x1C07 JUMPI PUSH1 0x0 DUP1 REVERT JUMPDEST PUSH1 0xB PUSH1 0x0 DUP2 DUP2 MSTORE PUSH1 0x3 DUP5 ADD PUSH1 0x20 MSTORE PUSH1 0x40 DUP2 KECCAK256 SLOAD SWAP2 PUSH2 0x1C30 SWAP2 DUP10 SWAP2 PUSH4 0x4740E52D PUSH1 0xE1 SHL SWAP2 SWAP1 PUSH2 0x2980 JUMP JUMPDEST EQ PUSH2 0x1C3A JUMPI PUSH1 0x0 DUP1 REVERT JUMPDEST POP POP POP POP POP POP JUMP JUMPDEST PUSH1 0x40 DUP1 MLOAD PUSH1 0x1 PUSH1 0x1 PUSH1 0x80 SHL SUB NOT DUP5 AND PUSH1 0x20 DUP3 ADD MSTORE PUSH12 0xFFFFFFFFFFFFFFFFFFFFFFFF NOT PUSH1 0x60 DUP5 SWAP1 SHL AND PUSH1 0x30 DUP3 ADD MSTORE DUP2 MLOAD PUSH1 0x24 DUP2 DUP4 SUB ADD DUP2 MSTORE PUSH1 0x44 SWAP1 SWAP2 ADD SWAP1 SWAP2 MSTORE PUSH1 0x0 SWAP1 PUSH2 0xED2 SWAP1 PUSH1 0x45 PUSH1 0xF8 SHL PUSH2 0x299C JUMP JUMPDEST PUSH1 0x1 SLOAD PUSH1 0x1 PUSH1 0x1 PUSH1 0xA0 SHL SUB AND DUP2 JUMP JUMPDEST PUSH1 0x1 PUSH1 0x1 PUSH1 0x80 SHL SUB NOT DUP3 AND PUSH1 0x0 SWAP1 DUP2 MSTORE PUSH1 0x4 PUSH1 0x20 MSTORE PUSH1 0x40 DUP2 KECCAK256 PUSH1 0x8 ADD DUP1 SLOAD DUP3 SWAP2 DUP3 SWAP2 DUP3 SWAP2 SWAP1 DUP7 SWAP1 DUP2 LT PUSH2 0x1CD0 JUMPI INVALID JUMPDEST PUSH1 0x0 SWAP2 DUP3 MSTORE PUSH1 0x20 SWAP1 SWAP2 KECCAK256 PUSH1 0x3 SWAP1 SWAP2 MUL ADD DUP1 SLOAD PUSH1 0x1 DUP3 ADD SLOAD PUSH1 0x2 SWAP1 SWAP3 ADD SLOAD PUSH1 0x1 PUSH1 0x1 PUSH1 0xA0 SHL SUB SWAP1 SWAP2 AND SWAP9 SWAP2 SWAP8 POP PUSH2 0xFFFF AND SWAP6 POP SWAP4 POP POP POP POP JUMP JUMPDEST PUSH1 0x1 PUSH1 0x1 PUSH1 0x80 SHL SUB NOT DUP2 AND PUSH1 0x0 SWAP1 DUP2 MSTORE PUSH1 0x4 PUSH1 0x20 MSTORE PUSH1 0x40 SWAP1 KECCAK256 PUSH1 0x1 DUP2 ADD SLOAD PUSH1 0x1 PUSH1 0x1 PUSH1 0xA0 SHL SUB AND CALLER EQ DUP1 PUSH2 0x1D4B JUMPI POP DUP1 SLOAD PUSH2 0x100 SWAP1 DIV PUSH1 0x1 PUSH1 0x1 PUSH1 0xA0 SHL SUB AND CALLER EQ JUMPDEST PUSH2 0x1D54 JUMPI PUSH1 0x0 DUP1 REVERT JUMPDEST PUSH2 0x192E DUP3 PUSH1 0x0 DUP1 PUSH2 0x209F JUMP JUMPDEST PUSH32 0x0 DUP2 JUMP JUMPDEST PUSH1 0x2 SLOAD PUSH1 0x1 PUSH1 0xA0 SHL SWAP1 DIV PUSH1 0xFF AND DUP2 JUMP JUMPDEST PUSH1 0x0 PUSH2 0x1033 DUP3 PUSH1 0x0 PUSH2 0x2741 JUMP JUMPDEST PUSH2 0x1DAA DUP2 PUSH2 0x2C9B JUMP JUMPDEST POP PUSH1 0x4 PUSH1 0x20 SWAP1 DUP2 MSTORE PUSH32 0x17EF568E3E12AB5B9C7254A8D58478811DE00F9E6EB34345ACD53BF8FD09D3EC DUP1 SLOAD PUSH32 0x17EF568E3E12AB5B9C7254A8D58478811DE00F9E6EB34345ACD53BF8FD09D3ED DUP1 SLOAD ADDRESS PUSH1 0x1 PUSH1 0x1 PUSH1 0xA0 SHL SUB NOT SWAP2 DUP3 AND OR SWAP1 SWAP2 SSTORE PUSH32 0x17EF568E3E12AB5B9C7254A8D58478811DE00F9E6EB34345ACD53BF8FD09D3EE DUP1 SLOAD PUSH1 0x3 PUSH1 0x1 PUSH1 0x1 PUSH1 0x80 SHL SUB NOT PUSH1 0x1 PUSH1 0x80 SHL PUSH8 0xFFFFFFFFFFFFFFFF PUSH1 0x80 SHL NOT SWAP1 SWAP4 AND SWAP3 SWAP1 SWAP3 OR PUSH1 0x1 PUSH1 0x1 PUSH1 0xC0 SHL SUB AND PUSH1 0x1 PUSH1 0xC1 SHL OR DUP3 AND DUP2 OR SWAP1 SWAP3 SSTORE PUSH2 0x100 PUSH1 0x1 PUSH1 0xA8 SHL SUB NOT SWAP1 SWAP4 AND CALLER PUSH2 0x100 MUL OR PUSH1 0xFF NOT AND PUSH1 0x1 SWAP1 DUP2 OR SWAP1 SWAP5 SSTORE PUSH1 0x40 DUP1 MLOAD PUSH1 0x60 DUP2 ADD DUP3 MSTORE PUSH1 0x0 DUP1 DUP3 MSTORE PUSH1 0xB DUP3 DUP10 ADD DUP2 DUP2 MSTORE PUSH1 0x16 SWAP5 DUP5 ADD SWAP5 DUP6 MSTORE PUSH32 0x17EF568E3E12AB5B9C7254A8D58478811DE00F9E6EB34345ACD53BF8FD09D3F4 DUP1 SLOAD SWAP10 DUP11 ADD DUP2 SSTORE DUP4 MSTORE SWAP3 MLOAD PUSH32 0xDAF6A3DF2E7FE032FABA7F1C41811297BB73983780E1888A846F8AA1A8324D27 SWAP9 SWAP1 SWAP6 MUL SWAP8 DUP9 ADD DUP1 SLOAD SWAP1 SWAP7 AND PUSH1 0x1 PUSH1 0x1 PUSH1 0xA0 SHL SUB SWAP1 SWAP6 AND SWAP5 SWAP1 SWAP5 OR SWAP1 SWAP5 SSTORE MLOAD PUSH32 0xDAF6A3DF2E7FE032FABA7F1C41811297BB73983780E1888A846F8AA1A8324D28 DUP7 ADD SSTORE MLOAD PUSH32 0xDAF6A3DF2E7FE032FABA7F1C41811297BB73983780E1888A846F8AA1A8324D29 SWAP1 SWAP5 ADD DUP1 SLOAD PUSH2 0xFFFF NOT AND PUSH2 0xFFFF SWAP1 SWAP6 AND SWAP5 SWAP1 SWAP5 OR SWAP1 SWAP4 SSTORE PUSH32 0x5B8CCBB9D4D8FB16EA74CE3C29A41F1B461FBDAFF4714A0D9A8EB05499746BC DUP1 SLOAD PUSH1 0x21 PUSH32 0x5B8CCBB9D4D8FB16EA74CE3C29A41F1B461FBDAFF4714A0D9A8EB05499746BD SSTORE PUSH1 0x64 SWAP4 AND SWAP3 SWAP1 SWAP3 OR PUSH2 0xFFFF PUSH1 0x80 SHL NOT AND PUSH1 0xB PUSH1 0x82 SHL OR SWAP1 SWAP2 SSTORE MSTORE PUSH32 0x5B8CCBB9D4D8FB16EA74CE3C29A41F1B461FBDAFF4714A0D9A8EB05499746BF SWAP1 MSTORE PUSH1 0x37 PUSH32 0xE98516EEF36AB8324C691EAAE918B396562BBFF0916FAB980BA5F148C2DA4DC8 SSTORE PUSH2 0x309 PUSH32 0x5B8CCBB9D4D8FB16EA74CE3C29A41F1B461FBDAFF4714A0D9A8EB05499746BE SSTORE JUMP JUMPDEST PUSH2 0x2044 PUSH2 0x184C JUMP JUMPDEST PUSH2 0x204D JUMPI PUSH1 0x0 DUP1 REVERT JUMPDEST PUSH2 0x17F4 DUP2 PUSH2 0x2CF5 JUMP JUMPDEST PUSH1 0x0 PUSH2 0x2062 DUP5 DUP5 PUSH2 0x1C42 JUMP JUMPDEST SWAP1 POP PUSH1 0x0 PUSH2 0x2070 DUP3 DUP5 PUSH2 0x2D63 JUMP JUMPDEST SWAP1 POP DUP1 PUSH1 0x1 PUSH1 0x1 PUSH1 0xA0 SHL SUB AND PUSH2 0x2085 DUP7 PUSH2 0xE82 JUMP JUMPDEST PUSH1 0x1 PUSH1 0x1 PUSH1 0xA0 SHL SUB AND EQ PUSH2 0x2098 JUMPI PUSH1 0x0 DUP1 REVERT JUMPDEST POP POP POP POP POP JUMP JUMPDEST PUSH1 0x1 PUSH1 0x1 PUSH1 0x80 SHL SUB NOT DUP4 AND PUSH1 0x0 SWAP1 DUP2 MSTORE PUSH1 0x4 PUSH1 0x20 MSTORE PUSH1 0x40 DUP2 KECCAK256 DUP1 SLOAD PUSH1 0xFF AND ISZERO PUSH2 0x20C7 JUMPI PUSH1 0x0 DUP1 REVERT JUMPDEST PUSH1 0x2 DUP2 ADD SLOAD PUSH1 0x0 SWAP1 PUSH32 0x0 PUSH4 0xFFFFFFFF AND SWAP1 PUSH1 0x1 PUSH1 0xC0 SHL SWAP1 DIV PUSH1 0x1 PUSH1 0x1 PUSH1 0x40 SHL SUB AND DUP2 PUSH2 0x210E JUMPI INVALID JUMPDEST PUSH1 0x8 DUP5 ADD SLOAD SWAP2 SWAP1 DIV PUSH1 0x1 ADD SWAP2 POP PUSH1 0x0 JUMPDEST PUSH1 0x8 DUP5 ADD SLOAD DUP2 LT ISZERO PUSH2 0x2486 JUMPI PUSH1 0x0 DUP5 PUSH1 0x8 ADD DUP3 DUP2 SLOAD DUP2 LT PUSH2 0x213B JUMPI INVALID JUMPDEST PUSH1 0x0 SWAP2 DUP3 MSTORE PUSH1 0x20 SWAP1 SWAP2 KECCAK256 PUSH1 0x3 SWAP1 SWAP2 MUL ADD DUP1 SLOAD SWAP1 SWAP2 POP PUSH1 0x1 PUSH1 0x1 PUSH1 0xA0 SHL SUB AND DUP1 ISZERO DUP1 PUSH2 0x218B JUMPI POP PUSH1 0x1 PUSH1 0x1 PUSH1 0xA0 SHL SUB DUP10 AND ISZERO DUP1 ISZERO SWAP1 PUSH2 0x218B JUMPI POP DUP1 PUSH1 0x1 PUSH1 0x1 PUSH1 0xA0 SHL SUB AND DUP10 PUSH1 0x1 PUSH1 0x1 PUSH1 0xA0 SHL SUB AND EQ ISZERO JUMPDEST ISZERO PUSH2 0x219E JUMPI POP POP PUSH1 0x0 NOT SWAP1 SWAP2 ADD SWAP1 PUSH2 0x247E JUMP JUMPDEST PUSH1 0x0 PUSH2 0x21AA DUP8 DUP5 PUSH2 0x2E1C JUMP JUMPDEST PUSH1 0x2 DUP7 ADD DUP1 SLOAD PUSH2 0xFFFF NOT AND PUSH2 0xFFFF SWAP3 SWAP1 SWAP3 AND SWAP2 SWAP1 SWAP2 OR SWAP1 SSTORE PUSH1 0x1 DUP6 ADD SSTORE SWAP1 POP DUP9 ISZERO PUSH2 0x2379 JUMPI PUSH1 0x1 PUSH1 0x1 PUSH1 0xA0 SHL SUB DUP3 AND PUSH1 0x0 SWAP1 DUP2 MSTORE PUSH1 0x5 PUSH1 0x20 SWAP1 DUP2 MSTORE PUSH1 0x40 DUP1 DUP4 KECCAK256 PUSH1 0x2 DUP8 ADD SLOAD PUSH2 0xFFFF AND DUP1 DUP6 MSTORE PUSH1 0x3 DUP3 ADD SWAP1 SWAP4 MSTORE SWAP3 KECCAK256 SLOAD PUSH1 0x1 PUSH1 0x1 PUSH1 0xFF SHL SUB EQ ISZERO PUSH2 0x223C JUMPI PUSH1 0x2 DUP10 ADD SLOAD PUSH2 0xFFFF DUP3 AND PUSH1 0x0 SWAP1 DUP2 MSTORE PUSH1 0x3 DUP5 ADD PUSH1 0x20 MSTORE PUSH1 0x40 DUP2 KECCAK256 PUSH1 0x1 PUSH1 0x1 PUSH1 0x80 SHL SUB SWAP1 SWAP3 AND SWAP1 SUB SWAP1 SSTORE PUSH2 0x2269 JUMP JUMPDEST PUSH1 0x2 DUP10 ADD SLOAD PUSH2 0xFFFF DUP3 AND PUSH1 0x0 SWAP1 DUP2 MSTORE PUSH1 0x3 DUP5 ADD PUSH1 0x20 MSTORE PUSH1 0x40 SWAP1 KECCAK256 DUP1 SLOAD PUSH1 0x1 PUSH1 0x1 PUSH1 0x80 SHL SUB SWAP1 SWAP3 AND SWAP1 SWAP2 SUB SWAP1 SSTORE JUMPDEST PUSH2 0xFFFF DUP9 AND PUSH1 0x0 SWAP1 DUP2 MSTORE PUSH1 0x3 DUP4 ADD PUSH1 0x20 MSTORE PUSH1 0x40 SWAP1 KECCAK256 SLOAD PUSH1 0x1 PUSH1 0x1 PUSH1 0xFF SHL SUB EQ ISZERO PUSH2 0x22BB JUMPI PUSH1 0x2 DUP10 ADD SLOAD PUSH2 0xFFFF DUP10 AND PUSH1 0x0 SWAP1 DUP2 MSTORE PUSH1 0x3 DUP5 ADD PUSH1 0x20 MSTORE PUSH1 0x40 DUP2 KECCAK256 PUSH1 0x1 PUSH1 0x1 PUSH1 0x80 SHL SUB SWAP1 SWAP3 AND SWAP1 SUB SWAP1 SSTORE PUSH2 0x22E8 JUMP JUMPDEST PUSH1 0x2 DUP10 ADD SLOAD PUSH2 0xFFFF DUP10 AND PUSH1 0x0 SWAP1 DUP2 MSTORE PUSH1 0x3 DUP5 ADD PUSH1 0x20 MSTORE PUSH1 0x40 SWAP1 KECCAK256 DUP1 SLOAD PUSH1 0x1 PUSH1 0x1 PUSH1 0x80 SHL SUB SWAP1 SWAP3 AND SWAP1 SWAP2 ADD SWAP1 SSTORE JUMPDEST PUSH2 0xFFFF DUP2 AND PUSH1 0x0 SWAP1 DUP2 MSTORE PUSH1 0x3 DUP4 ADD PUSH1 0x20 MSTORE PUSH1 0x40 SWAP1 KECCAK256 SLOAD PUSH2 0x2322 JUMPI PUSH2 0xFFFF DUP2 AND PUSH1 0x0 SWAP1 DUP2 MSTORE PUSH1 0x3 DUP4 ADD PUSH1 0x20 MSTORE PUSH1 0x40 SWAP1 KECCAK256 PUSH1 0x1 PUSH1 0x1 PUSH1 0xFF SHL SUB SWAP1 SSTORE JUMPDEST PUSH2 0xFFFF DUP9 AND PUSH1 0x0 SWAP1 DUP2 MSTORE PUSH1 0x3 DUP4 ADD PUSH1 0x20 MSTORE PUSH1 0x40 SWAP1 KECCAK256 SLOAD PUSH2 0x235C JUMPI PUSH2 0xFFFF DUP9 AND PUSH1 0x0 SWAP1 DUP2 MSTORE PUSH1 0x3 DUP4 ADD PUSH1 0x20 MSTORE PUSH1 0x40 SWAP1 KECCAK256 PUSH1 0x1 PUSH1 0x1 PUSH1 0xFF SHL SUB SWAP1 SSTORE JUMPDEST PUSH1 0x2 DUP10 ADD SLOAD PUSH1 0x1 PUSH1 0x1 PUSH1 0x80 SHL SUB AND SWAP1 DUP9 SUB PUSH2 0xFFFF AND MUL SWAP2 SWAP1 SWAP2 ADD SWAP1 POP JUMPDEST DUP9 DUP1 PUSH2 0x2390 JUMPI POP PUSH1 0x2 DUP4 ADD SLOAD PUSH2 0xFFFF DUP1 DUP9 AND SWAP2 AND LT ISZERO JUMPDEST ISZERO PUSH2 0x2411 JUMPI DUP3 SLOAD PUSH1 0x1 PUSH1 0x1 PUSH1 0xA0 SHL SUB NOT AND DUP4 SSTORE PUSH1 0x0 PUSH1 0x1 DUP5 ADD SSTORE PUSH1 0x2 DUP4 ADD DUP1 SLOAD PUSH2 0xFFFF NOT AND SWAP1 SSTORE PUSH1 0x40 DUP1 MLOAD DUP3 DUP2 MSTORE SWAP1 MLOAD PUSH1 0x0 NOT SWAP7 SWAP1 SWAP7 ADD SWAP6 PUSH1 0x1 PUSH1 0x1 PUSH1 0xA0 SHL SUB DUP5 AND SWAP2 CALLER SWAP2 PUSH1 0x1 PUSH1 0x1 PUSH1 0x80 SHL SUB NOT DUP16 AND SWAP2 PUSH32 0xF3B13DF5BDD5EFCB090F73617909A6295EE75815920224C512D784B2726812F1 SWAP2 SWAP1 DUP2 SWAP1 SUB PUSH1 0x20 ADD SWAP1 LOG4 PUSH2 0x245F JUMP JUMPDEST PUSH1 0x40 DUP1 MLOAD DUP3 DUP2 MSTORE SWAP1 MLOAD PUSH1 0x1 PUSH1 0x1 PUSH1 0xA0 SHL SUB DUP5 AND SWAP2 CALLER SWAP2 PUSH1 0x1 PUSH1 0x1 PUSH1 0x80 SHL SUB NOT DUP16 AND SWAP2 PUSH32 0xAB654B569128C88FFCD210806A5E48EE14C541E2C76923F143281F20807090C1 SWAP2 SWAP1 DUP2 SWAP1 SUB PUSH1 0x20 ADD SWAP1 LOG4 JUMPDEST SWAP7 DUP8 ADD SWAP7 PUSH1 0x1 PUSH1 0x1 PUSH1 0xA0 SHL SUB DUP11 AND ISZERO PUSH2 0x247A JUMPI POP POP POP PUSH2 0x2486 JUMP JUMPDEST POP POP POP JUMPDEST PUSH1 0x1 ADD PUSH2 0x211E JUMP JUMPDEST DUP4 SLOAD PUSH1 0x1 PUSH1 0x1 PUSH1 0xA0 SHL SUB PUSH2 0x100 SWAP1 SWAP2 DIV DUP2 AND SWAP1 DUP9 AND PUSH2 0x2562 JUMPI DUP3 PUSH2 0x251B JUMPI DUP5 SLOAD PUSH1 0x1 PUSH1 0xFF NOT SWAP1 SWAP2 AND DUP2 OR PUSH2 0x100 PUSH1 0x1 PUSH1 0xA8 SHL SUB NOT AND DUP7 SSTORE DUP6 ADD DUP1 SLOAD PUSH1 0x1 PUSH1 0x1 PUSH1 0xA0 SHL SUB NOT AND SWAP1 SSTORE PUSH1 0x0 PUSH1 0x2 DUP7 ADD SSTORE PUSH1 0x40 DUP1 MLOAD DUP8 DUP2 MSTORE SWAP1 MLOAD CALLER SWAP2 PUSH1 0x1 PUSH1 0x1 PUSH1 0x80 SHL SUB NOT DUP13 AND SWAP2 PUSH32 0xD5EA25BA3600C386669C484639012A0AE266ED537F0C4AB71B651024736EFFF4 SWAP2 PUSH1 0x20 SWAP1 DUP3 SWAP1 SUB ADD SWAP1 LOG3 PUSH2 0x255D JUMP JUMPDEST PUSH1 0x40 DUP1 MLOAD DUP8 DUP2 MSTORE SWAP1 MLOAD CALLER SWAP2 PUSH1 0x1 PUSH1 0x1 PUSH1 0x80 SHL SUB NOT DUP13 AND SWAP2 PUSH32 0x51377F313F8C3404E86D38AE907B443ADA38578FD6B9589D03F79D03FF9303C7 SWAP2 DUP2 SWAP1 SUB PUSH1 0x20 ADD SWAP1 LOG3 JUMPDEST PUSH2 0x2572 JUMP JUMPDEST PUSH1 0x8 DUP6 ADD SLOAD DUP3 LT PUSH2 0x2572 JUMPI PUSH1 0x0 DUP1 REVERT JUMPDEST DUP6 ISZERO PUSH2 0x2591 JUMPI PUSH2 0x2591 PUSH1 0x1 PUSH1 0x1 PUSH1 0xA0 SHL SUB DUP3 AND DUP8 PUSH4 0xFFFFFFFF PUSH2 0x25D1 AND JUMP JUMPDEST POP POP POP POP POP SWAP4 SWAP3 POP POP POP JUMP JUMPDEST PUSH1 0x0 DUP1 DUP3 SLT PUSH2 0x25BD JUMPI PUSH2 0x25B6 DUP4 DUP4 PUSH4 0xFFFFFFFF PUSH2 0x3277 AND JUMP JUMPDEST SWAP1 POP PUSH2 0x1033 JUMP JUMPDEST PUSH2 0x25B6 DUP4 PUSH1 0x0 DUP5 SWAP1 SUB PUSH4 0xFFFFFFFF PUSH2 0x3289 AND JUMP JUMPDEST DUP1 SELFBALANCE LT ISZERO PUSH2 0x2626 JUMPI PUSH1 0x40 DUP1 MLOAD PUSH3 0x461BCD PUSH1 0xE5 SHL DUP2 MSTORE PUSH1 0x20 PUSH1 0x4 DUP3 ADD MSTORE PUSH1 0x1D PUSH1 0x24 DUP3 ADD MSTORE PUSH32 0x416464726573733A20696E73756666696369656E742062616C616E6365000000 PUSH1 0x44 DUP3 ADD MSTORE SWAP1 MLOAD SWAP1 DUP2 SWAP1 SUB PUSH1 0x64 ADD SWAP1 REVERT JUMPDEST PUSH1 0x40 MLOAD PUSH1 0x0 SWAP1 PUSH1 0x1 PUSH1 0x1 PUSH1 0xA0 SHL SUB DUP5 AND SWAP1 DUP4 SWAP1 DUP4 DUP2 DUP2 DUP2 DUP6 DUP8 GAS CALL SWAP3 POP POP POP RETURNDATASIZE DUP1 PUSH1 0x0 DUP2 EQ PUSH2 0x2671 JUMPI PUSH1 0x40 MLOAD SWAP2 POP PUSH1 0x1F NOT PUSH1 0x3F RETURNDATASIZE ADD AND DUP3 ADD PUSH1 0x40 MSTORE RETURNDATASIZE DUP3 MSTORE RETURNDATASIZE PUSH1 0x0 PUSH1 0x20 DUP5 ADD RETURNDATACOPY PUSH2 0x2676 JUMP JUMPDEST PUSH1 0x60 SWAP2 POP JUMPDEST POP POP SWAP1 POP DUP1 PUSH2 0x192E JUMPI PUSH1 0x40 MLOAD PUSH3 0x461BCD PUSH1 0xE5 SHL DUP2 MSTORE PUSH1 0x4 ADD DUP1 DUP1 PUSH1 0x20 ADD DUP3 DUP2 SUB DUP3 MSTORE PUSH1 0x3A DUP2 MSTORE PUSH1 0x20 ADD DUP1 PUSH2 0x345D PUSH1 0x3A SWAP2 CODECOPY PUSH1 0x40 ADD SWAP2 POP POP PUSH1 0x40 MLOAD DUP1 SWAP2 SUB SWAP1 REVERT JUMPDEST PUSH1 0x0 DUP1 DUP3 GT PUSH2 0x26C4 JUMPI PUSH1 0x0 DUP1 REVERT JUMPDEST PUSH1 0x0 DUP3 DUP5 DUP2 PUSH2 0x26CF JUMPI INVALID JUMPDEST DIV SWAP5 SWAP4 POP POP POP POP JUMP JUMPDEST PUSH1 0x0 DUP2 PUSH1 0x2 ADD SLOAD PUSH1 0x0 EQ DUP1 PUSH2 0x26FD JUMPI POP PUSH1 0x6 SLOAD PUSH1 0x2 DUP4 ADD SLOAD PUSH1 0x1 PUSH1 0x1 PUSH1 0x80 SHL SUB SWAP1 SWAP2 AND GT JUMPDEST DUP1 PUSH2 0x2718 JUMPI POP PUSH1 0x7 SLOAD PUSH1 0x2 DUP4 ADD SLOAD PUSH1 0x1 PUSH1 0x1 PUSH1 0x80 SHL SUB SWAP1 SWAP2 AND LT JUMPDEST ISZERO PUSH2 0x2736 JUMPI POP PUSH1 0x6 SLOAD PUSH1 0x1 PUSH1 0x80 SHL SWAP1 DIV PUSH1 0x1 PUSH1 0x1 PUSH1 0x80 SHL SUB AND PUSH2 0xE7D JUMP JUMPDEST POP PUSH1 0x2 DUP2 ADD SLOAD PUSH2 0xE7D JUMP JUMPDEST PUSH1 0x1 PUSH1 0x1 PUSH1 0x80 SHL SUB NOT DUP3 AND PUSH1 0x0 SWAP1 DUP2 MSTORE PUSH1 0x4 PUSH1 0x20 MSTORE PUSH1 0x40 DUP2 KECCAK256 PUSH1 0x1 DUP2 ADD SLOAD PUSH1 0x1 PUSH1 0x1 PUSH1 0xA0 SHL SUB AND CALLER EQ DUP1 PUSH2 0x2783 JUMPI POP DUP1 SLOAD PUSH2 0x100 SWAP1 DIV PUSH1 0x1 PUSH1 0x1 PUSH1 0xA0 SHL SUB AND CALLER EQ JUMPDEST DUP1 ISZERO PUSH2 0x2791 JUMPI POP DUP1 SLOAD PUSH1 0xFF AND ISZERO JUMPDEST PUSH2 0x279A JUMPI PUSH1 0x0 DUP1 REVERT JUMPDEST PUSH1 0x0 JUMPDEST PUSH1 0x8 DUP3 ADD SLOAD DUP2 LT ISZERO PUSH2 0x2844 JUMPI PUSH1 0x0 DUP3 PUSH1 0x8 ADD DUP3 DUP2 SLOAD DUP2 LT PUSH2 0x27BA JUMPI INVALID JUMPDEST PUSH1 0x0 SWAP2 DUP3 MSTORE PUSH1 0x20 SWAP1 SWAP2 KECCAK256 PUSH1 0x3 SWAP1 SWAP2 MUL ADD DUP1 SLOAD SWAP1 SWAP2 POP PUSH1 0x1 PUSH1 0x1 PUSH1 0xA0 SHL SUB AND ISZERO DUP1 PUSH2 0x2804 JUMPI POP PUSH1 0x1 PUSH1 0x1 PUSH1 0xA0 SHL SUB DUP6 AND ISZERO DUP1 ISZERO SWAP1 PUSH2 0x2804 JUMPI POP DUP1 SLOAD PUSH1 0x1 PUSH1 0x1 PUSH1 0xA0 SHL SUB DUP7 DUP2 AND SWAP2 AND EQ ISZERO JUMPDEST ISZERO PUSH2 0x280F JUMPI POP PUSH2 0x283C JUMP JUMPDEST PUSH1 0x0 PUSH2 0x281B DUP5 DUP4 PUSH2 0x2E1C JUMP JUMPDEST POP POP SWAP5 DUP6 ADD SWAP5 SWAP1 POP PUSH1 0x1 PUSH1 0x1 PUSH1 0xA0 SHL SUB DUP7 AND ISZERO PUSH2 0x2839 JUMPI POP POP PUSH2 0x2844 JUMP JUMPDEST POP POP JUMPDEST PUSH1 0x1 ADD PUSH2 0x279D JUMP JUMPDEST PUSH1 0x1 PUSH1 0x1 PUSH1 0xA0 SHL SUB DUP5 AND ISZERO PUSH2 0x2863 JUMPI PUSH1 0x8 DUP3 ADD SLOAD DUP2 LT PUSH2 0x2863 JUMPI PUSH1 0x0 DUP1 REVERT JUMPDEST POP POP SWAP3 SWAP2 POP POP JUMP JUMPDEST PUSH1 0x2 DUP1 SLOAD PUSH1 0x1 PUSH1 0xA0 SHL SWAP1 DIV PUSH1 0xFF AND EQ PUSH2 0x2883 JUMPI PUSH1 0x0 DUP1 REVERT JUMPDEST PUSH1 0x40 DUP1 MLOAD CALLER DUP2 MSTORE SWAP1 MLOAD PUSH1 0x1 PUSH1 0x1 PUSH1 0xA0 SHL SUB DUP4 AND SWAP2 PUSH32 0x1E8D98C1B4A0D9BD2E2371026B632EB2773FCCE41742E41F02F574AB69868D4C SWAP2 SWAP1 DUP2 SWAP1 SUB PUSH1 0x20 ADD SWAP1 LOG2 POP JUMP JUMPDEST PUSH2 0x28CD PUSH2 0x3338 JUMP JUMPDEST PUSH1 0x0 PUSH2 0xED2 DUP4 PUSH4 0x65AF62C3 PUSH1 0xE0 SHL DUP4 DUP1 DUP1 PUSH2 0x329E JUMP JUMPDEST PUSH2 0x28EB PUSH2 0x3358 JUMP JUMPDEST PUSH1 0x0 PUSH2 0x290C DUP5 PUSH4 0x713C0E57 PUSH1 0xE0 SHL PUSH1 0x1 PUSH1 0x1 PUSH1 0x1 PUSH1 0x80 SHL SUB NOT DUP8 AND DUP6 PUSH2 0x329E JUMP JUMPDEST SWAP5 SWAP4 POP POP POP POP JUMP JUMPDEST PUSH1 0x0 DUP1 PUSH2 0x2925 DUP6 DUP6 PUSH1 0x1 DUP7 DUP6 PUSH2 0x329E JUMP JUMPDEST MLOAD SWAP6 SWAP5 POP POP POP POP POP JUMP JUMPDEST PUSH2 0x2937 PUSH2 0x3338 JUMP JUMPDEST PUSH1 0x0 PUSH2 0xB44 DUP6 PUSH4 0xD845F4FB PUSH1 0xE0 SHL PUSH1 0x2 PUSH1 0x1 PUSH1 0x1 PUSH1 0x80 SHL SUB NOT DUP9 AND DUP8 PUSH2 0x329E JUMP JUMPDEST PUSH2 0x2960 PUSH2 0x33E8 JUMP JUMPDEST PUSH1 0x0 PUSH2 0x290C DUP5 PUSH4 0x189A5A17 PUSH1 0xE0 SHL PUSH1 0x1 PUSH1 0x1 PUSH1 0x1 PUSH1 0xA0 SHL SUB DUP8 AND DUP6 PUSH2 0x329E JUMP JUMPDEST PUSH1 0x0 DUP1 PUSH2 0x2991 DUP7 DUP7 PUSH1 0x2 DUP8 DUP8 PUSH2 0x329E JUMP JUMPDEST MLOAD SWAP7 SWAP6 POP POP POP POP POP POP JUMP JUMPDEST PUSH1 0x0 PUSH1 0x1 PUSH1 0x1 PUSH1 0xF8 SHL SUB NOT DUP3 AND PUSH2 0x2A4F JUMPI PUSH1 0x40 MLOAD PUSH1 0x19 PUSH1 0xF8 SHL PUSH1 0x20 DUP1 DUP4 ADD DUP3 DUP2 MSTORE PUSH1 0x0 PUSH1 0x21 DUP6 ADD DUP2 SWAP1 MSTORE ADDRESS PUSH1 0x60 DUP2 SWAP1 SHL PUSH1 0x22 DUP8 ADD MSTORE DUP9 MLOAD SWAP1 SWAP6 SWAP2 SWAP4 DUP7 SWAP4 DUP11 SWAP4 SWAP1 SWAP3 PUSH1 0x36 SWAP1 SWAP2 ADD SWAP2 DUP5 ADD SWAP1 DUP1 DUP4 DUP4 JUMPDEST PUSH1 0x20 DUP4 LT PUSH2 0x2A09 JUMPI DUP1 MLOAD DUP3 MSTORE PUSH1 0x1F NOT SWAP1 SWAP3 ADD SWAP2 PUSH1 0x20 SWAP2 DUP3 ADD SWAP2 ADD PUSH2 0x29EA JUMP JUMPDEST PUSH1 0x1 DUP4 PUSH1 0x20 SUB PUSH2 0x100 EXP SUB DUP1 NOT DUP3 MLOAD AND DUP2 DUP5 MLOAD AND DUP1 DUP3 OR DUP6 MSTORE POP POP POP POP POP POP SWAP1 POP ADD SWAP5 POP POP POP POP POP PUSH1 0x40 MLOAD PUSH1 0x20 DUP2 DUP4 SUB SUB DUP2 MSTORE SWAP1 PUSH1 0x40 MSTORE DUP1 MLOAD SWAP1 PUSH1 0x20 ADD KECCAK256 SWAP2 POP POP PUSH2 0x1033 JUMP JUMPDEST PUSH1 0x1 PUSH1 0x1 PUSH1 0xF8 SHL SUB NOT DUP3 AND PUSH1 0x45 PUSH1 0xF8 SHL EQ ISZERO PUSH2 0x2C4E JUMPI DUP3 MLOAD DUP1 PUSH2 0x2AA3 JUMPI PUSH1 0x40 MLOAD PUSH3 0x461BCD PUSH1 0xE5 SHL DUP2 MSTORE PUSH1 0x4 ADD DUP1 DUP1 PUSH1 0x20 ADD DUP3 DUP2 SUB DUP3 MSTORE PUSH1 0x27 DUP2 MSTORE PUSH1 0x20 ADD DUP1 PUSH2 0x3497 PUSH1 0x27 SWAP2 CODECOPY PUSH1 0x40 ADD SWAP2 POP POP PUSH1 0x40 MLOAD DUP1 SWAP2 SUB SWAP1 REVERT JUMPDEST PUSH1 0x0 JUMPDEST DUP2 ISZERO PUSH2 0x2ABA JUMPI PUSH1 0x1 ADD PUSH1 0xA DUP3 DIV SWAP2 POP PUSH2 0x2AA6 JUMP JUMPDEST PUSH1 0x60 DUP2 PUSH1 0x1 PUSH1 0x1 PUSH1 0x40 SHL SUB DUP2 GT DUP1 ISZERO PUSH2 0x2AD2 JUMPI PUSH1 0x0 DUP1 REVERT JUMPDEST POP PUSH1 0x40 MLOAD SWAP1 DUP1 DUP3 MSTORE DUP1 PUSH1 0x1F ADD PUSH1 0x1F NOT AND PUSH1 0x20 ADD DUP3 ADD PUSH1 0x40 MSTORE DUP1 ISZERO PUSH2 0x2AFD JUMPI PUSH1 0x20 DUP3 ADD DUP2 DUP1 CALLDATASIZE DUP4 CALLDATACOPY ADD SWAP1 POP JUMPDEST POP DUP7 MLOAD SWAP4 POP SWAP1 POP PUSH1 0x0 NOT DUP3 ADD JUMPDEST DUP4 ISZERO PUSH2 0x2B4F JUMPI PUSH1 0xA DUP5 MOD PUSH1 0x30 ADD PUSH1 0xF8 SHL DUP3 DUP3 DUP1 PUSH1 0x1 SWAP1 SUB SWAP4 POP DUP2 MLOAD DUP2 LT PUSH2 0x2B2D JUMPI INVALID JUMPDEST PUSH1 0x20 ADD ADD SWAP1 PUSH1 0x1 PUSH1 0x1 PUSH1 0xF8 SHL SUB NOT AND SWAP1 DUP2 PUSH1 0x0 BYTE SWAP1 MSTORE8 POP PUSH1 0xA DUP5 DIV SWAP4 POP PUSH2 0x2B0A JUMP JUMPDEST PUSH1 0x40 MLOAD PUSH1 0x19 PUSH1 0xF8 SHL PUSH1 0x20 DUP1 DUP4 ADD DUP3 DUP2 MSTORE PUSH32 0x457468657265756D205369676E6564204D6573736167653A0A00000000000000 PUSH1 0x21 DUP6 ADD DUP2 SWAP1 MSTORE DUP7 MLOAD SWAP4 SWAP5 SWAP1 SWAP4 DUP8 SWAP4 DUP14 SWAP4 SWAP3 PUSH1 0x3A ADD SWAP2 SWAP1 DUP6 ADD SWAP1 DUP1 DUP4 DUP4 JUMPDEST PUSH1 0x20 DUP4 LT PUSH2 0x2BBD JUMPI DUP1 MLOAD DUP3 MSTORE PUSH1 0x1F NOT SWAP1 SWAP3 ADD SWAP2 PUSH1 0x20 SWAP2 DUP3 ADD SWAP2 ADD PUSH2 0x2B9E JUMP JUMPDEST MLOAD DUP2 MLOAD PUSH1 0x20 SWAP4 DUP5 SUB PUSH2 0x100 EXP PUSH1 0x0 NOT ADD DUP1 NOT SWAP1 SWAP3 AND SWAP2 AND OR SWAP1 MSTORE DUP6 MLOAD SWAP2 SWAP1 SWAP4 ADD SWAP3 DUP6 ADD SWAP2 POP DUP1 DUP4 DUP4 JUMPDEST PUSH1 0x20 DUP4 LT PUSH2 0x2C05 JUMPI DUP1 MLOAD DUP3 MSTORE PUSH1 0x1F NOT SWAP1 SWAP3 ADD SWAP2 PUSH1 0x20 SWAP2 DUP3 ADD SWAP2 ADD PUSH2 0x2BE6 JUMP JUMPDEST PUSH1 0x1 DUP4 PUSH1 0x20 SUB PUSH2 0x100 EXP SUB DUP1 NOT DUP3 MLOAD AND DUP2 DUP5 MLOAD AND DUP1 DUP3 OR DUP6 MSTORE POP POP POP POP POP POP SWAP1 POP ADD SWAP5 POP POP POP POP POP PUSH1 0x40 MLOAD PUSH1 0x20 DUP2 DUP4 SUB SUB DUP2 MSTORE SWAP1 PUSH1 0x40 MSTORE DUP1 MLOAD SWAP1 PUSH1 0x20 ADD KECCAK256 SWAP5 POP POP POP POP POP PUSH2 0x1033 JUMP JUMPDEST PUSH1 0x40 DUP1 MLOAD PUSH3 0x461BCD PUSH1 0xE5 SHL DUP2 MSTORE PUSH1 0x20 PUSH1 0x4 DUP3 ADD MSTORE PUSH1 0x1A PUSH1 0x24 DUP3 ADD MSTORE PUSH32 0x556E737570706F72746564204549503139312076657273696F6E000000000000 PUSH1 0x44 DUP3 ADD MSTORE SWAP1 MLOAD SWAP1 DUP2 SWAP1 SUB PUSH1 0x64 ADD SWAP1 REVERT JUMPDEST PUSH1 0x2 DUP1 SLOAD PUSH1 0x1 PUSH1 0xA0 SHL SWAP1 DIV PUSH1 0xFF AND EQ PUSH2 0x2CB3 JUMPI PUSH1 0x0 DUP1 REVERT JUMPDEST PUSH1 0x40 DUP1 MLOAD CALLER DUP2 MSTORE SWAP1 MLOAD PUSH1 0x1 PUSH1 0x1 PUSH1 0xA0 SHL SUB DUP4 AND SWAP2 PUSH32 0xD55EC27C5C6316913ED8803C18CFD1BFEFEA953DB909DCBA6140744A9D8B0D1F SWAP2 SWAP1 DUP2 SWAP1 SUB PUSH1 0x20 ADD SWAP1 LOG2 POP JUMP JUMPDEST PUSH1 0x1 PUSH1 0x1 PUSH1 0xA0 SHL SUB DUP2 AND PUSH2 0x2D08 JUMPI PUSH1 0x0 DUP1 REVERT JUMPDEST PUSH1 0x0 DUP1 SLOAD PUSH1 0x40 MLOAD PUSH1 0x1 PUSH1 0x1 PUSH1 0xA0 SHL SUB DUP1 DUP6 AND SWAP4 SWAP3 AND SWAP2 PUSH32 0x8BE0079C531659141344CD1FD0A4F28419497F9722A3DAAFE3B4186F6B6457E0 SWAP2 LOG3 PUSH1 0x0 DUP1 SLOAD PUSH1 0x1 PUSH1 0x1 PUSH1 0xA0 SHL SUB NOT AND PUSH1 0x1 PUSH1 0x1 PUSH1 0xA0 SHL SUB SWAP3 SWAP1 SWAP3 AND SWAP2 SWAP1 SWAP2 OR SWAP1 SSTORE JUMP JUMPDEST PUSH1 0x0 DUP2 MLOAD PUSH1 0x41 EQ PUSH2 0x2D73 JUMPI PUSH1 0x0 DUP1 REVERT JUMPDEST PUSH1 0x20 DUP3 ADD MLOAD PUSH1 0x40 DUP4 ADD MLOAD PUSH1 0x60 DUP5 ADD MLOAD PUSH1 0x0 BYTE PUSH1 0x1B DUP2 LT ISZERO PUSH2 0x2D92 JUMPI PUSH1 0x1B ADD JUMPDEST DUP1 PUSH1 0xFF AND PUSH1 0x1B EQ DUP1 PUSH2 0x2DA7 JUMPI POP DUP1 PUSH1 0xFF AND PUSH1 0x1C EQ JUMPDEST PUSH2 0x2DB0 JUMPI PUSH1 0x0 DUP1 REVERT JUMPDEST PUSH1 0x40 DUP1 MLOAD PUSH1 0x0 DUP2 MSTORE PUSH1 0x20 DUP1 DUP3 ADD DUP1 DUP5 MSTORE DUP10 SWAP1 MSTORE PUSH1 0xFF DUP5 AND DUP3 DUP5 ADD MSTORE PUSH1 0x60 DUP3 ADD DUP7 SWAP1 MSTORE PUSH1 0x80 DUP3 ADD DUP6 SWAP1 MSTORE SWAP2 MLOAD PUSH1 0x1 SWAP3 PUSH1 0xA0 DUP1 DUP5 ADD SWAP4 SWAP2 SWAP3 PUSH1 0x1F NOT DUP2 ADD SWAP3 DUP2 SWAP1 SUB SWAP1 SWAP2 ADD SWAP1 DUP6 GAS STATICCALL ISZERO DUP1 ISZERO PUSH2 0x2E07 JUMPI RETURNDATASIZE PUSH1 0x0 DUP1 RETURNDATACOPY RETURNDATASIZE PUSH1 0x0 REVERT JUMPDEST POP POP PUSH1 0x40 MLOAD PUSH1 0x1F NOT ADD MLOAD SWAP8 SWAP7 POP POP POP POP POP POP POP JUMP JUMPDEST PUSH1 0x0 DUP1 PUSH1 0x0 DUP1 PUSH32 0x0 PUSH4 0xFFFFFFFF AND DUP7 PUSH1 0x2 ADD PUSH1 0x10 SWAP1 SLOAD SWAP1 PUSH2 0x100 EXP SWAP1 DIV PUSH1 0x1 PUSH1 0x1 PUSH1 0x40 SHL SUB AND PUSH1 0x1 PUSH1 0x1 PUSH1 0x40 SHL SUB AND DUP2 PUSH2 0x2E71 JUMPI INVALID JUMPDEST DIV SWAP1 POP PUSH1 0x0 PUSH2 0x2ECB PUSH2 0x2E81 PUSH2 0xB4D JUMP JUMPDEST PUSH1 0x2 DUP10 ADD SLOAD PUSH32 0x0 PUSH4 0xFFFFFFFF AND SWAP1 PUSH1 0x1 PUSH1 0xC0 SHL SWAP1 DIV PUSH1 0x1 PUSH1 0x1 PUSH1 0x40 SHL SUB AND DUP2 PUSH2 0x2EC5 JUMPI INVALID JUMPDEST DIV PUSH2 0x32EE JUMP JUMPDEST PUSH1 0x2 DUP8 ADD SLOAD SWAP1 SWAP2 POP PUSH1 0x0 SWAP1 PUSH2 0x2EE5 SWAP1 DUP5 SWAP1 PUSH2 0xFFFF AND PUSH2 0x330C JUMP JUMPDEST DUP8 SLOAD PUSH1 0x40 DUP1 MLOAD PUSH4 0x90DCB51F PUSH1 0xE0 SHL DUP2 MSTORE PUSH1 0x1 PUSH1 0x1 PUSH1 0xA0 SHL SUB SWAP3 DUP4 AND PUSH1 0x4 DUP3 ADD MSTORE SWAP1 MLOAD SWAP3 SWAP4 POP PUSH1 0x0 SWAP3 DUP4 SWAP3 PUSH32 0x0 AND SWAP2 PUSH4 0x90DCB51F SWAP2 PUSH1 0x24 DUP1 DUP4 ADD SWAP3 PUSH1 0x20 SWAP3 SWAP2 SWAP1 DUP3 SWAP1 SUB ADD DUP2 DUP7 DUP1 EXTCODESIZE ISZERO DUP1 ISZERO PUSH2 0x2F57 JUMPI PUSH1 0x0 DUP1 REVERT JUMPDEST POP GAS STATICCALL ISZERO DUP1 ISZERO PUSH2 0x2F6B JUMPI RETURNDATASIZE PUSH1 0x0 DUP1 RETURNDATACOPY RETURNDATASIZE PUSH1 0x0 REVERT JUMPDEST POP POP POP POP PUSH1 0x40 MLOAD RETURNDATASIZE PUSH1 0x20 DUP2 LT ISZERO PUSH2 0x2F81 JUMPI PUSH1 0x0 DUP1 REVERT JUMPDEST POP MLOAD PUSH1 0x2 DUP11 ADD SLOAD SWAP1 SWAP2 POP PUSH1 0x0 SWAP1 PUSH2 0xFFFF AND PUSH2 0x3040 JUMPI DUP10 SLOAD PUSH1 0x40 DUP1 MLOAD PUSH4 0x4789D02D PUSH1 0xE0 SHL DUP2 MSTORE PUSH1 0x1 PUSH1 0x1 PUSH1 0xA0 SHL SUB SWAP3 DUP4 AND PUSH1 0x4 DUP3 ADD MSTORE PUSH2 0xFFFF DUP10 AND PUSH1 0x24 DUP3 ADD MSTORE SWAP1 MLOAD PUSH32 0x0 SWAP1 SWAP3 AND SWAP2 PUSH4 0x4789D02D SWAP2 PUSH1 0x44 DUP1 DUP3 ADD SWAP3 PUSH1 0x20 SWAP3 SWAP1 SWAP2 SWAP1 DUP3 SWAP1 SUB ADD DUP2 DUP7 DUP1 EXTCODESIZE ISZERO DUP1 ISZERO PUSH2 0x300D JUMPI PUSH1 0x0 DUP1 REVERT JUMPDEST POP GAS STATICCALL ISZERO DUP1 ISZERO PUSH2 0x3021 JUMPI RETURNDATASIZE PUSH1 0x0 DUP1 RETURNDATACOPY RETURNDATASIZE PUSH1 0x0 REVERT JUMPDEST POP POP POP POP PUSH1 0x40 MLOAD RETURNDATASIZE PUSH1 0x20 DUP2 LT ISZERO PUSH2 0x3037 JUMPI PUSH1 0x0 DUP1 REVERT JUMPDEST POP MLOAD SWAP1 POP PUSH2 0x3047 JUMP JUMPDEST POP PUSH1 0x1 DUP10 ADD SLOAD JUMPDEST DUP1 SWAP8 POP JUMPDEST DUP2 DUP9 LT ISZERO PUSH2 0x317E JUMPI DUP10 SLOAD PUSH1 0x40 DUP1 MLOAD PUSH4 0x8FA95A15 PUSH1 0xE0 SHL DUP2 MSTORE PUSH1 0x1 PUSH1 0x1 PUSH1 0xA0 SHL SUB SWAP3 DUP4 AND PUSH1 0x4 DUP3 ADD MSTORE PUSH1 0x24 DUP2 ADD DUP12 SWAP1 MSTORE DUP2 MLOAD PUSH1 0x0 SWAP4 DUP5 SWAP4 PUSH32 0x0 SWAP1 SWAP2 AND SWAP3 PUSH4 0x8FA95A15 SWAP3 PUSH1 0x44 DUP1 DUP4 ADD SWAP4 SWAP3 DUP3 SWAP1 SUB ADD DUP2 DUP7 DUP1 EXTCODESIZE ISZERO DUP1 ISZERO PUSH2 0x30C7 JUMPI PUSH1 0x0 DUP1 REVERT JUMPDEST POP GAS STATICCALL ISZERO DUP1 ISZERO PUSH2 0x30DB JUMPI RETURNDATASIZE PUSH1 0x0 DUP1 RETURNDATACOPY RETURNDATASIZE PUSH1 0x0 REVERT JUMPDEST POP POP POP POP PUSH1 0x40 MLOAD RETURNDATASIZE PUSH1 0x40 DUP2 LT ISZERO PUSH2 0x30F1 JUMPI PUSH1 0x0 DUP1 REVERT JUMPDEST POP DUP1 MLOAD PUSH1 0x20 SWAP1 SWAP2 ADD MLOAD SWAP1 SWAP3 POP SWAP1 POP PUSH2 0xFFFF DUP1 DUP9 AND SWAP1 DUP4 AND GT ISZERO PUSH2 0x3115 JUMPI POP POP PUSH2 0x317E JUMP JUMPDEST DUP6 PUSH2 0xFFFF AND DUP2 PUSH2 0xFFFF AND LT ISZERO PUSH2 0x312C JUMPI POP POP PUSH2 0x3173 JUMP JUMPDEST PUSH2 0x3153 PUSH2 0x3139 DUP8 DUP5 PUSH2 0x330C JUMP JUMPDEST PUSH2 0x3143 DUP10 DUP5 PUSH2 0x32EE JUMP JUMPDEST PUSH2 0xFFFF AND SWAP1 PUSH4 0xFFFFFFFF PUSH2 0x3324 AND JUMP JUMPDEST PUSH1 0x1 ADD DUP6 ADD SWAP5 POP DUP1 PUSH2 0xFFFF AND DUP8 PUSH2 0xFFFF AND GT PUSH2 0x3170 JUMPI POP POP PUSH2 0x317E JUMP JUMPDEST POP POP JUMPDEST PUSH1 0x1 SWAP1 SWAP8 ADD SWAP7 PUSH2 0x304B JUMP JUMPDEST DUP10 SLOAD PUSH1 0x40 DUP1 MLOAD PUSH4 0x51F5E0C1 PUSH1 0xE1 SHL DUP2 MSTORE PUSH1 0x1 PUSH1 0x1 PUSH1 0xA0 SHL SUB SWAP3 DUP4 AND PUSH1 0x4 DUP3 ADD MSTORE SWAP1 MLOAD PUSH1 0x0 SWAP3 PUSH32 0x0 AND SWAP2 PUSH4 0xA3EBC182 SWAP2 PUSH1 0x24 DUP1 DUP4 ADD SWAP3 PUSH1 0x20 SWAP3 SWAP2 SWAP1 DUP3 SWAP1 SUB ADD DUP2 DUP7 DUP1 EXTCODESIZE ISZERO DUP1 ISZERO PUSH2 0x31EB JUMPI PUSH1 0x0 DUP1 REVERT JUMPDEST POP GAS STATICCALL ISZERO DUP1 ISZERO PUSH2 0x31FF JUMPI RETURNDATASIZE PUSH1 0x0 DUP1 RETURNDATACOPY RETURNDATASIZE PUSH1 0x0 REVERT JUMPDEST POP POP POP POP PUSH1 0x40 MLOAD RETURNDATASIZE PUSH1 0x20 DUP2 LT ISZERO PUSH2 0x3215 JUMPI PUSH1 0x0 DUP1 REVERT JUMPDEST POP MLOAD SWAP1 POP DUP9 DUP4 EQ DUP1 ISZERO PUSH2 0x322F JUMPI POP DUP6 PUSH2 0xFFFF AND DUP2 PUSH2 0xFFFF AND LT JUMPDEST ISZERO PUSH2 0x3248 JUMPI PUSH2 0x3241 PUSH1 0x1 DUP7 SUB DUP3 PUSH2 0x330C JUMP JUMPDEST DUP7 SUB DUP5 ADD SWAP4 POP JUMPDEST POP POP POP PUSH1 0x2 SWAP9 SWAP1 SWAP9 ADD SLOAD PUSH2 0xFFFF SWAP1 SWAP9 AND PUSH1 0x1 PUSH1 0x1 PUSH1 0x80 SHL SUB SWAP9 DUP10 AND MUL SWAP1 SWAP8 AND SWAP8 SWAP4 SWAP7 POP PUSH1 0x1 ADD SWAP5 POP SWAP2 SWAP3 POP POP POP JUMP JUMPDEST PUSH1 0x0 DUP3 DUP3 ADD DUP4 DUP2 LT ISZERO PUSH2 0xED2 JUMPI PUSH1 0x0 DUP1 REVERT JUMPDEST PUSH1 0x0 DUP3 DUP3 GT ISZERO PUSH2 0x3298 JUMPI PUSH1 0x0 DUP1 REVERT JUMPDEST POP SWAP1 SUB SWAP1 JUMP JUMPDEST PUSH1 0x40 MLOAD DUP5 DUP2 MSTORE DUP4 ISZERO PUSH2 0x32B1 JUMPI DUP3 PUSH1 0x4 DUP3 ADD MSTORE JUMPDEST PUSH1 0x1 DUP5 GT ISZERO PUSH2 0x32C1 JUMPI DUP2 PUSH1 0x24 DUP3 ADD MSTORE JUMPDEST PUSH1 0x0 DUP1 DUP6 PUSH1 0x20 MUL PUSH1 0x4 ADD DUP4 DUP10 GAS DELEGATECALL DUP1 ISZERO PUSH2 0x32DF JUMPI RETURNDATASIZE PUSH1 0x0 DUP4 RETURNDATACOPY PUSH2 0x32E4 JUMP JUMPDEST PUSH1 0x0 DUP3 REVERT JUMPDEST POP SWAP6 SWAP5 POP POP POP POP POP JUMP JUMPDEST PUSH1 0x0 DUP2 PUSH2 0xFFFF AND DUP4 PUSH2 0xFFFF AND LT PUSH2 0x3305 JUMPI DUP2 PUSH2 0xED2 JUMP JUMPDEST POP SWAP1 SWAP2 SWAP1 POP JUMP JUMPDEST PUSH1 0x0 DUP2 PUSH2 0xFFFF AND DUP4 PUSH2 0xFFFF AND LT ISZERO PUSH2 0x3305 JUMPI DUP2 PUSH2 0xED2 JUMP JUMPDEST PUSH1 0x0 DUP3 PUSH2 0xFFFF AND DUP3 PUSH2 0xFFFF AND GT ISZERO PUSH2 0x3298 JUMPI INVALID JUMPDEST PUSH1 0x40 DUP1 MLOAD PUSH1 0x60 DUP2 ADD DUP3 MSTORE PUSH1 0x0 DUP1 DUP3 MSTORE PUSH1 0x20 DUP3 ADD DUP2 SWAP1 MSTORE SWAP2 DUP2 ADD SWAP2 SWAP1 SWAP2 MSTORE SWAP1 JUMP JUMPDEST PUSH1 0x40 MLOAD DUP1 PUSH2 0x180 ADD PUSH1 0x40 MSTORE DUP1 PUSH1 0x0 ISZERO ISZERO DUP2 MSTORE PUSH1 0x20 ADD PUSH1 0x0 PUSH1 0x1 PUSH1 0x1 PUSH1 0xA0 SHL SUB AND DUP2 MSTORE PUSH1 0x20 ADD PUSH1 0x0 PUSH1 0x1 PUSH1 0x1 PUSH1 0xA0 SHL SUB AND DUP2 MSTORE PUSH1 0x20 ADD PUSH1 0x0 PUSH1 0x1 PUSH1 0x1 PUSH1 0x80 SHL SUB AND DUP2 MSTORE PUSH1 0x20 ADD PUSH1 0x0 PUSH1 0x1 PUSH1 0x1 PUSH1 0x40 SHL SUB AND DUP2 MSTORE PUSH1 0x20 ADD PUSH1 0x0 PUSH1 0x1 PUSH1 0x1 PUSH1 0x40 SHL SUB AND DUP2 MSTORE PUSH1 0x20 ADD PUSH1 0x0 DUP2 MSTORE PUSH1 0x20 ADD PUSH1 0x0 DUP2 MSTORE PUSH1 0x20 ADD PUSH1 0x0 DUP2 MSTORE PUSH1 0x20 ADD PUSH1 0x0 DUP2 MSTORE PUSH1 0x20 ADD PUSH1 0x0 DUP2 MSTORE PUSH1 0x20 ADD PUSH1 0x60 DUP2 MSTORE POP SWAP1 JUMP JUMPDEST PUSH1 0x40 MLOAD DUP1 PUSH1 0x80 ADD PUSH1 0x40 MSTORE DUP1 PUSH1 0x0 PUSH1 0x1 PUSH1 0x1 PUSH1 0x80 SHL SUB AND DUP2 MSTORE PUSH1 0x20 ADD PUSH1 0x0 PUSH2 0xFFFF AND DUP2 MSTORE PUSH1 0x20 ADD PUSH1 0x0 DUP2 MSTORE PUSH1 0x20 ADD PUSH1 0x0 DUP2 MSTORE POP SWAP1 JUMP INVALID SLOAD PUSH9 0x65207374616B657227 PUSH20 0x206D696E206665652072617465206D7573742066 PUSH2 0x6C6C KECCAK256 PUSH24 0x697468696E2074686520676C6F62616C206665652072616E PUSH8 0x6541646472657373 GASPRICE KECCAK256 PUSH22 0x6E61626C6520746F2073656E642076616C75652C2072 PUSH6 0x63697069656E PUSH21 0x206D61792068617665207265766572746564456D70 PUSH21 0x79206D657373616765206E6F7420616C6C6F776564 KECCAK256 PUSH7 0x6F722076657273 PUSH10 0x6F6E2045A26469706673 PC 0x22 SLT KECCAK256 0x2B 0x2E CODESIZE 0xA9 ISZERO GASPRICE 0xE 0x25 EXTCODEHASH 0x1F SDIV 0x5F 0xB5 0xA8 0xC3 EQ 0xF DELEGATECALL PUSH22 0xC95CF96EB7FD01500A8847204E64736F6C6343000607 STOP CALLER ",
  "sha1": "bd49faddac36a46d42f43d33fd6d5630b367ca80",
  "source": "pragma solidity ^0.6.5;\n\n\nimport \"contracts/PolicyManager.sol\";\nimport \"contracts/StakingEscrow.sol\";\n\n\n/**\n* @notice Upgrade to this contract must lead to fail\n*/\ncontract PolicyManagerBad is PolicyManager {\n\n    constructor(StakingEscrow _escrow) public PolicyManager(_escrow) {\n    }\n\n    function getNodeFeeDelta(address, uint16) public view override returns (int256) {}\n\n}\n\n\n/**\n* @notice Contract for testing upgrading the PolicyManager contract\n*/\ncontract PolicyManagerV2Mock is PolicyManager {\n\n    uint256 public valueToCheck;\n\n    constructor(StakingEscrow _escrow) public PolicyManager(_escrow) {\n    }\n\n    function setValueToCheck(uint256 _valueToCheck) public {\n        valueToCheck = _valueToCheck;\n    }\n\n    function verifyState(address _testTarget) public override {\n        super.verifyState(_testTarget);\n        require(delegateGet(_testTarget, this.valueToCheck.selector) == valueToCheck);\n    }\n}\n\n\n/**\n* @notice Contract for using in PolicyManager tests\n*/\ncontract StakingEscrowForPolicyMock {\n\n    struct Downtime {\n        uint16 startPeriod;\n        uint16 endPeriod;\n    }\n\n    uint32 public immutable secondsPerPeriod;\n\n    PolicyManager public policyManager;\n    uint16 public lastCommittedPeriod;\n    Downtime[] public downtime;\n\n    /**\n    * @param _hoursPerPeriod Size of period in hours\n    */\n    constructor(uint16 _hoursPerPeriod) public {\n        secondsPerPeriod = uint32(_hoursPerPeriod * 1 hours);\n    }\n\n    /**\n    * @return Number of current period\n    */\n    function getCurrentPeriod() public view returns (uint16) {\n        return uint16(block.timestamp / secondsPerPeriod);\n    }\n\n    /**\n    * @notice Set last committed period\n    */\n    function setLastCommittedPeriod(uint16 _lastCommittedPeriod) external {\n        lastCommittedPeriod = _lastCommittedPeriod;\n    }\n\n    /**\n    * @notice Add downtime period\n    */\n    function pushDowntimePeriod(uint16 _startPeriod, uint16 _endPeriod) external {\n        downtime.push(Downtime(_startPeriod, _endPeriod));\n    }\n\n    /**\n    * @notice Emulate mint method\n    * @param _staker Staker on behalf of whom minting will be\n    * @param _startPeriod Start period for minting\n    * @param _numberOfPeriods Number periods for minting\n    */\n    function mint(address _staker, uint16 _startPeriod, uint16 _numberOfPeriods) public {\n        for (uint16 i = 0; i < _numberOfPeriods; i++) {\n            policyManager.updateFee(_staker, i + _startPeriod);\n        }\n    }\n\n    /**\n    * @notice Emulate mint method\n    * @param _startPeriod Start period for minting\n    * @param _numberOfPeriods Number periods for minting\n    */\n    function mint(uint16 _startPeriod, uint16 _numberOfPeriods) external {\n        mint(msg.sender, _startPeriod, _numberOfPeriods);\n    }\n\n    /**\n    * @notice Set policy manager address\n    */\n    function setPolicyManager(PolicyManager _policyManager) external {\n        policyManager = _policyManager;\n    }\n\n    function getPastDowntimeLength(address) public view returns (uint256) {\n        return downtime.length;\n    }\n\n    function getPastDowntime(address, uint256 _index)\n        public view returns (uint16 startPeriod, uint16 endPeriod)\n    {\n        Downtime storage data = downtime[_index];\n        startPeriod = data.startPeriod;\n        endPeriod = data.endPeriod;\n    }\n\n    function getLastCommittedPeriod(address) public view returns (uint256) {\n        return lastCommittedPeriod;\n    }\n\n    function register(address _node, uint16 _period) public {\n        policyManager.register(_node, _period);\n    }\n\n    function register(address _node) external {\n        register(_node, getCurrentPeriod() - 1);\n    }\n\n    function findIndexOfPastDowntime(address, uint16 _period) external view returns (uint256 index) {\n        for (index = 0; index < downtime.length; index++) {\n            if (_period <= downtime[index].endPeriod) {\n                return index;\n            }\n        }\n    }\n\n    function setDefaultFeeDelta(address _node, uint16 _startPeriod, uint16 _numberOfPeriods) public {\n        for (uint16 i = 0; i < _numberOfPeriods; i++) {\n            policyManager.setDefaultFeeDelta(_node, i + _startPeriod);\n        }\n    }\n\n}\n\n\n/**\n* @notice Helper to prepare broken state\n*/\ncontract ExtendedPolicyManager is PolicyManager {\n\n    constructor(StakingEscrow _escrow) public PolicyManager(_escrow) {\n    }\n\n    function setNodeFeeDelta(address _node, uint16 _period, int256 _value) external {\n        NodeInfo storage node = nodes[_node];\n        node.feeDelta[_period] = _value;\n    }\n}\n",
  "sourcePath": "contracts/PolicyManagerTestSet.sol",
  "type": "contract"
}