{
  "abi": [
    {
      "stateMutability": "payable",
      "type": "fallback"
    },
    {
      "inputs": [
        {
          "internalType": "uint256",
          "name": "_maxDepth",
          "type": "uint256"
        },
        {
          "internalType": "address",
          "name": "_target",
          "type": "address"
        },
        {
          "internalType": "uint256",
          "name": "_value",
          "type": "uint256"
        },
        {
          "internalType": "bytes",
          "name": "_data",
          "type": "bytes"
        }
      ],
      "name": "setData",
      "outputs": [],
      "stateMutability": "nonpayable",
      "type": "function"
    }
  ],
  "bytecode": "6080604052600160005534801561001557600080fd5b506102b0806100256000396000f3fe60806040526004361061001e5760003560e01c80639345935f14610112575b6000546001541061002e57610110565b600180548101815560028054600354604051600480546000966001600160a01b03909516959394919383928592600019918116156101000291909101160480156100af5780601f1061008d5761010080835404028352918201916100af565b820191906000526020600020905b81548152906001019060200180831161009b575b505091505060006040518083038185875af1925050503d80600081146100f1576040519150601f19603f3d011682016040523d82523d6000602084013e6100f6565b606091505b505090508061010457600080fd5b50600180546000190190555b005b34801561011e57600080fd5b506101106004803603608081101561013557600080fd5b8135916001600160a01b03602082013516916040820135919081019060808101606082013564010000000081111561016c57600080fd5b82018360208201111561017e57600080fd5b803590602001918460018302840111640100000000831117156101a057600080fd5b5090925090506000859055600280546001600160a01b0319166001600160a01b03861617905560038390556101d7600483836101df565b505050505050565b828054600181600116156101000203166002900490600052602060002090601f016020900481019282601f106102205782800160ff1982351617855561024d565b8280016001018555821561024d579182015b8281111561024d578235825591602001919060010190610232565b5061025992915061025d565b5090565b61027791905b808211156102595760008155600101610263565b9056fea2646970667358221220806b0577205c1e0045e72803d33e7635a848c9c8b2f77f0b351204f5f74b5de664736f6c63430006070033",
  "bytecodeSha1": "af6d5d8e20b538a8dcbd9a9438a2d064e4955f34",
  "compiler": {
    "evm_version": "berlin",
    "optimizer": {
      "enabled": true,
      "runs": 200
    },
    "version": "0.6.7"
  },
  "contractName": "ReentrancyTest",
  "language": "Solidity",
  "natspec": {
    "details": "Contract for reentrancy protection testing*",
    "methods": {}
  },
  "opcodes": "PUSH1 0x80 PUSH1 0x40 MSTORE PUSH1 0x4 CALLDATASIZE LT PUSH2 0x1E JUMPI PUSH1 0x0 CALLDATALOAD PUSH1 0xE0 SHR DUP1 PUSH4 0x9345935F EQ PUSH2 0x112 JUMPI JUMPDEST PUSH1 0x0 SLOAD PUSH1 0x1 SLOAD LT PUSH2 0x2E JUMPI PUSH2 0x110 JUMP JUMPDEST PUSH1 0x1 DUP1 SLOAD DUP2 ADD DUP2 SSTORE PUSH1 0x2 DUP1 SLOAD PUSH1 0x3 SLOAD PUSH1 0x40 MLOAD PUSH1 0x4 DUP1 SLOAD PUSH1 0x0 SWAP7 PUSH1 0x1 PUSH1 0x1 PUSH1 0xA0 SHL SUB SWAP1 SWAP6 AND SWAP6 SWAP4 SWAP5 SWAP2 SWAP4 DUP4 SWAP3 DUP6 SWAP3 PUSH1 0x0 NOT SWAP2 DUP2 AND ISZERO PUSH2 0x100 MUL SWAP2 SWAP1 SWAP2 ADD AND DIV DUP1 ISZERO PUSH2 0xAF JUMPI DUP1 PUSH1 0x1F LT PUSH2 0x8D JUMPI PUSH2 0x100 DUP1 DUP4 SLOAD DIV MUL DUP4 MSTORE SWAP2 DUP3 ADD SWAP2 PUSH2 0xAF JUMP JUMPDEST DUP3 ADD SWAP2 SWAP1 PUSH1 0x0 MSTORE PUSH1 0x20 PUSH1 0x0 KECCAK256 SWAP1 JUMPDEST DUP2 SLOAD DUP2 MSTORE SWAP1 PUSH1 0x1 ADD SWAP1 PUSH1 0x20 ADD DUP1 DUP4 GT PUSH2 0x9B JUMPI JUMPDEST POP POP SWAP2 POP POP PUSH1 0x0 PUSH1 0x40 MLOAD DUP1 DUP4 SUB DUP2 DUP6 DUP8 GAS CALL SWAP3 POP POP POP RETURNDATASIZE DUP1 PUSH1 0x0 DUP2 EQ PUSH2 0xF1 JUMPI PUSH1 0x40 MLOAD SWAP2 POP PUSH1 0x1F NOT PUSH1 0x3F RETURNDATASIZE ADD AND DUP3 ADD PUSH1 0x40 MSTORE RETURNDATASIZE DUP3 MSTORE RETURNDATASIZE PUSH1 0x0 PUSH1 0x20 DUP5 ADD RETURNDATACOPY PUSH2 0xF6 JUMP JUMPDEST PUSH1 0x60 SWAP2 POP JUMPDEST POP POP SWAP1 POP DUP1 PUSH2 0x104 JUMPI PUSH1 0x0 DUP1 REVERT JUMPDEST POP PUSH1 0x1 DUP1 SLOAD PUSH1 0x0 NOT ADD SWAP1 SSTORE JUMPDEST STOP JUMPDEST CALLVALUE DUP1 ISZERO PUSH2 0x11E JUMPI PUSH1 0x0 DUP1 REVERT JUMPDEST POP PUSH2 0x110 PUSH1 0x4 DUP1 CALLDATASIZE SUB PUSH1 0x80 DUP2 LT ISZERO PUSH2 0x135 JUMPI PUSH1 0x0 DUP1 REVERT JUMPDEST DUP2 CALLDATALOAD SWAP2 PUSH1 0x1 PUSH1 0x1 PUSH1 0xA0 SHL SUB PUSH1 0x20 DUP3 ADD CALLDATALOAD AND SWAP2 PUSH1 0x40 DUP3 ADD CALLDATALOAD SWAP2 SWAP1 DUP2 ADD SWAP1 PUSH1 0x80 DUP2 ADD PUSH1 0x60 DUP3 ADD CALLDATALOAD PUSH5 0x100000000 DUP2 GT ISZERO PUSH2 0x16C JUMPI PUSH1 0x0 DUP1 REVERT JUMPDEST DUP3 ADD DUP4 PUSH1 0x20 DUP3 ADD GT ISZERO PUSH2 0x17E JUMPI PUSH1 0x0 DUP1 REVERT JUMPDEST DUP1 CALLDATALOAD SWAP1 PUSH1 0x20 ADD SWAP2 DUP5 PUSH1 0x1 DUP4 MUL DUP5 ADD GT PUSH5 0x100000000 DUP4 GT OR ISZERO PUSH2 0x1A0 JUMPI PUSH1 0x0 DUP1 REVERT JUMPDEST POP SWAP1 SWAP3 POP SWAP1 POP PUSH1 0x0 DUP6 SWAP1 SSTORE PUSH1 0x2 DUP1 SLOAD PUSH1 0x1 PUSH1 0x1 PUSH1 0xA0 SHL SUB NOT AND PUSH1 0x1 PUSH1 0x1 PUSH1 0xA0 SHL SUB DUP7 AND OR SWAP1 SSTORE PUSH1 0x3 DUP4 SWAP1 SSTORE PUSH2 0x1D7 PUSH1 0x4 DUP4 DUP4 PUSH2 0x1DF JUMP JUMPDEST POP POP POP POP POP POP JUMP JUMPDEST DUP3 DUP1 SLOAD PUSH1 0x1 DUP2 PUSH1 0x1 AND ISZERO PUSH2 0x100 MUL SUB AND PUSH1 0x2 SWAP1 DIV SWAP1 PUSH1 0x0 MSTORE PUSH1 0x20 PUSH1 0x0 KECCAK256 SWAP1 PUSH1 0x1F ADD PUSH1 0x20 SWAP1 DIV DUP2 ADD SWAP3 DUP3 PUSH1 0x1F LT PUSH2 0x220 JUMPI DUP3 DUP1 ADD PUSH1 0xFF NOT DUP3 CALLDATALOAD AND OR DUP6 SSTORE PUSH2 0x24D JUMP JUMPDEST DUP3 DUP1 ADD PUSH1 0x1 ADD DUP6 SSTORE DUP3 ISZERO PUSH2 0x24D JUMPI SWAP2 DUP3 ADD JUMPDEST DUP3 DUP2 GT ISZERO PUSH2 0x24D JUMPI DUP3 CALLDATALOAD DUP3 SSTORE SWAP2 PUSH1 0x20 ADD SWAP2 SWAP1 PUSH1 0x1 ADD SWAP1 PUSH2 0x232 JUMP JUMPDEST POP PUSH2 0x259 SWAP3 SWAP2 POP PUSH2 0x25D JUMP JUMPDEST POP SWAP1 JUMP JUMPDEST PUSH2 0x277 SWAP2 SWAP1 JUMPDEST DUP1 DUP3 GT ISZERO PUSH2 0x259 JUMPI PUSH1 0x0 DUP2 SSTORE PUSH1 0x1 ADD PUSH2 0x263 JUMP JUMPDEST SWAP1 JUMP INVALID LOG2 PUSH5 0x6970667358 0x22 SLT KECCAK256 DUP1 PUSH12 0x577205C1E0045E72803D33E PUSH23 0x35A848C9C8B2F77F0B351204F5F74B5DE664736F6C6343 STOP MOD SMOD STOP CALLER ",
  "sha1": "de1fdf45645a02f98a82e6c7ab8e56166bac9956",
  "source": "pragma solidity ^0.6.1;\n\n\n/**\n* @dev Contract for reentrancy protection testing\n**/\ncontract ReentrancyTest {\n\n    uint256 maxDepth = 1;\n    uint256 lockCounter;\n    address target;\n    uint256 value;\n    bytes data;\n\n    function setData(uint256 _maxDepth, address _target, uint256 _value, bytes calldata _data) external {\n        maxDepth = _maxDepth;\n        target = _target;\n        value = _value;\n        data = _data;\n    }\n\n    // TODO #1809\n//    receive() external payable {\n    fallback() external payable {\n        // call no more than maxDepth times\n        if (lockCounter >= maxDepth) {\n            return;\n        }\n        lockCounter++;\n        (bool callSuccess,) = target.call{value: value}(data);\n        require(callSuccess);\n        lockCounter--;\n    }\n\n}\n",
  "sourcePath": "contracts/ReentrancyTest.sol",
  "type": "contract"
}