{
  "abi": [
    {
      "inputs": [],
      "name": "FIELD_ORDER",
      "outputs": [
        {
          "internalType": "uint256",
          "name": "",
          "type": "uint256"
        }
      ],
      "stateMutability": "pure",
      "type": "function"
    },
    {
      "inputs": [],
      "name": "MINUS_2",
      "outputs": [
        {
          "internalType": "uint256",
          "name": "",
          "type": "uint256"
        }
      ],
      "stateMutability": "pure",
      "type": "function"
    },
    {
      "inputs": [],
      "name": "MINUS_ONE_HALF",
      "outputs": [
        {
          "internalType": "uint256",
          "name": "",
          "type": "uint256"
        }
      ],
      "stateMutability": "pure",
      "type": "function"
    },
    {
      "inputs": [],
      "name": "UMBRAL_PARAMETER_U_SIGN",
      "outputs": [
        {
          "internalType": "uint8",
          "name": "",
          "type": "uint8"
        }
      ],
      "stateMutability": "pure",
      "type": "function"
    },
    {
      "inputs": [],
      "name": "UMBRAL_PARAMETER_U_XCOORD",
      "outputs": [
        {
          "internalType": "uint256",
          "name": "",
          "type": "uint256"
        }
      ],
      "stateMutability": "pure",
      "type": "function"
    },
    {
      "inputs": [],
      "name": "UMBRAL_PARAMETER_U_YCOORD",
      "outputs": [
        {
          "internalType": "uint256",
          "name": "",
          "type": "uint256"
        }
      ],
      "stateMutability": "pure",
      "type": "function"
    },
    {
      "inputs": [
        {
          "internalType": "uint256[2]",
          "name": "P",
          "type": "uint256[2]"
        },
        {
          "internalType": "uint256[2]",
          "name": "Q",
          "type": "uint256[2]"
        }
      ],
      "name": "addAffineJacobian",
      "outputs": [
        {
          "internalType": "uint256[3]",
          "name": "",
          "type": "uint256[3]"
        }
      ],
      "stateMutability": "pure",
      "type": "function"
    },
    {
      "inputs": [
        {
          "internalType": "uint8",
          "name": "_pointSign",
          "type": "uint8"
        },
        {
          "internalType": "uint256",
          "name": "_pointX",
          "type": "uint256"
        },
        {
          "internalType": "uint256",
          "name": "_pointY",
          "type": "uint256"
        }
      ],
      "name": "checkCompressedPoint",
      "outputs": [
        {
          "internalType": "bool",
          "name": "",
          "type": "bool"
        }
      ],
      "stateMutability": "pure",
      "type": "function"
    },
    {
      "inputs": [
        {
          "internalType": "bytes",
          "name": "_coords",
          "type": "bytes"
        }
      ],
      "name": "checkSerializedCoordinates",
      "outputs": [
        {
          "internalType": "bool",
          "name": "",
          "type": "bool"
        }
      ],
      "stateMutability": "pure",
      "type": "function"
    },
    {
      "inputs": [
        {
          "internalType": "bytes",
          "name": "_capsuleBytes",
          "type": "bytes"
        },
        {
          "internalType": "bytes",
          "name": "_cFragBytes",
          "type": "bytes"
        }
      ],
      "name": "computeProofChallengeScalar",
      "outputs": [
        {
          "internalType": "uint256",
          "name": "",
          "type": "uint256"
        }
      ],
      "stateMutability": "pure",
      "type": "function"
    },
    {
      "inputs": [
        {
          "internalType": "uint256[3]",
          "name": "P",
          "type": "uint256[3]"
        }
      ],
      "name": "doubleJacobian",
      "outputs": [
        {
          "internalType": "uint256[3]",
          "name": "",
          "type": "uint256[3]"
        }
      ],
      "stateMutability": "pure",
      "type": "function"
    },
    {
      "inputs": [
        {
          "internalType": "uint256",
          "name": "x1",
          "type": "uint256"
        },
        {
          "internalType": "uint256",
          "name": "y1",
          "type": "uint256"
        },
        {
          "internalType": "uint256",
          "name": "scalar",
          "type": "uint256"
        },
        {
          "internalType": "uint256",
          "name": "qx",
          "type": "uint256"
        },
        {
          "internalType": "uint256",
          "name": "qy",
          "type": "uint256"
        }
      ],
      "name": "ecmulVerify",
      "outputs": [
        {
          "internalType": "bool",
          "name": "",
          "type": "bool"
        }
      ],
      "stateMutability": "pure",
      "type": "function"
    },
    {
      "inputs": [
        {
          "internalType": "uint256[2]",
          "name": "P",
          "type": "uint256[2]"
        },
        {
          "internalType": "uint256[3]",
          "name": "Q",
          "type": "uint256[3]"
        }
      ],
      "name": "eqAffineJacobian",
      "outputs": [
        {
          "internalType": "bool",
          "name": "",
          "type": "bool"
        }
      ],
      "stateMutability": "pure",
      "type": "function"
    },
    {
      "inputs": [
        {
          "internalType": "bytes",
          "name": "_data",
          "type": "bytes"
        }
      ],
      "name": "extendedKeccakToBN",
      "outputs": [
        {
          "internalType": "uint256",
          "name": "",
          "type": "uint256"
        }
      ],
      "stateMutability": "pure",
      "type": "function"
    },
    {
      "inputs": [
        {
          "internalType": "uint256",
          "name": "Px",
          "type": "uint256"
        },
        {
          "internalType": "uint256",
          "name": "Py",
          "type": "uint256"
        }
      ],
      "name": "isOnCurve",
      "outputs": [
        {
          "internalType": "bool",
          "name": "",
          "type": "bool"
        }
      ],
      "stateMutability": "pure",
      "type": "function"
    },
    {
      "inputs": [
        {
          "internalType": "bytes",
          "name": "_capsuleBytes",
          "type": "bytes"
        },
        {
          "internalType": "bytes",
          "name": "_cFragBytes",
          "type": "bytes"
        },
        {
          "internalType": "bytes",
          "name": "_precomputedBytes",
          "type": "bytes"
        }
      ],
      "name": "validateCFrag",
      "outputs": [
        {
          "internalType": "bool",
          "name": "",
          "type": "bool"
        }
      ],
      "stateMutability": "pure",
      "type": "function"
    }
  ],
  "bytecode": "608060405234801561001057600080fd5b50612618806100206000396000f3fe608060405234801561001057600080fd5b50600436106101005760003560e01c80634b4b4b1211610097578063c4f81c8311610066578063c4f81c83146103f0578063c5f1f5ca14610519578063cfb2445214610537578063e650faa7146105db57610100565b80634b4b4b12146102a45780635bdc231d146102ac578063aa39354314610350578063b44878731461037c57610100565b80633fa1e903116100d35780633fa1e9031461019357806342be0b321461019b5780634731c8291461022557806349df4def1461029c57610100565b8063022079d914610105578063055a80e71461014e57806307b5bac4146101685780630b0dbcfa14610170575b600080fd5b61013a600480360360a081101561011b57600080fd5b5080359060208101359060408101359060608101359060800135610789565b604080519115158252519081900360200190f35b6101566107a2565b60408051918252519081900360200190f35b6101566107c6565b61013a6004803603604081101561018657600080fd5b50803590602001356107d4565b6101566107e9565b6101ed600480360360608110156101b157600080fd5b81019080806060019060038060200260405190810160405280929190826003602002808284376000920191909152509194506107f39350505050565b6040518082606080838360005b838110156102125781810151838201526020016101fa565b5050505090500191505060405180910390f35b61013a600480360360a081101561023b57600080fd5b60408051808201825291830192918183019183906002908390839080828437600092019190915250506040805160608181019092529295949381810193925090600390839083908082843760009201919091525091945061080c9350505050565b610156610818565b610156610822565b610156600480360360208110156102c257600080fd5b810190602081018135600160201b8111156102dc57600080fd5b8201836020820111156102ee57600080fd5b803590602001918460018302840111600160201b8311171561030f57600080fd5b91908080601f016020809104026020016040519081016040528093929190818152602001838380828437600092019190915250929550610846945050505050565b61013a6004803603606081101561036657600080fd5b5060ff8135169060208101359060400135610851565b6101ed6004803603608081101561039257600080fd5b6040805180820182529183019291818301918390600290839083908082843760009201919091525050604080518082018252929594938181019392509060029083908390808284376000920191909152509194506108689350505050565b6101566004803603604081101561040657600080fd5b810190602081018135600160201b81111561042057600080fd5b82018360208201111561043257600080fd5b803590602001918460018302840111600160201b8311171561045357600080fd5b91908080601f0160208091040260200160405190810160405280939291908181526020018383808284376000920191909152509295949360208101935035915050600160201b8111156104a557600080fd5b8201836020820111156104b757600080fd5b803590602001918460018302840111600160201b831117156104d857600080fd5b91908080601f01602080910402602001604051908101604052809392919081815260200183838082843760009201919091525092955061087a945050505050565b6105216108b5565b6040805160ff9092168252519081900360200190f35b61013a6004803603602081101561054d57600080fd5b810190602081018135600160201b81111561056757600080fd5b82018360208201111561057957600080fd5b803590602001918460018302840111600160201b8311171561059a57600080fd5b91908080601f0160208091040260200160405190810160405280939291908181526020018383808284376000920191909152509295506108ba945050505050565b61013a600480360360608110156105f157600080fd5b810190602081018135600160201b81111561060b57600080fd5b82018360208201111561061d57600080fd5b803590602001918460018302840111600160201b8311171561063e57600080fd5b91908080601f0160208091040260200160405190810160405280939291908181526020018383808284376000920191909152509295949360208101935035915050600160201b81111561069057600080fd5b8201836020820111156106a257600080fd5b803590602001918460018302840111600160201b831117156106c357600080fd5b91908080601f0160208091040260200160405190810160405280939291908181526020018383808284376000920191909152509295949360208101935035915050600160201b81111561071557600080fd5b82018360208201111561072757600080fd5b803590602001918460018302840111600160201b8311171561074857600080fd5b91908080601f0160208091040260200160405190810160405280939291908181526020018383808284376000920191909152509295506108c5945050505050565b600061079886868686866108d2565b9695505050505050565b7f03c98795773ff1c241fc0b1cced85e80f8366581dda5c9452175ebd41385fa1f90565b63800001e9600160ff1b0390565b60006107e08383610998565b90505b92915050565b6401000003d01990565b6107fb61208d565b610804826109fd565b90505b919050565b60006107e08383610af2565b6401000003d21990565b7f7880ed56962d7c0ae44d6f14bb53b5fe64b31ea44a41d0316f3a598778f0f93690565b600061080482610b59565b600061085e848484610d3d565b90505b9392505050565b61087061208d565b6107e08383610d5e565b60006108846120ab565b61088d84610e86565b90506108976120d8565b6108a084610edd565b90506108ac8282610f65565b95945050505050565b600290565b6000610804826111fb565b600061085e848484611259565b600070014551231950b75fc4402da1732fc9bebe1981600181601b898316018a858c8b09604080516000815260208082018084529690965260ff90941684820152606084019290925260808301525160a08083019392601f198301929081900390910190855afa15801561094a573d6000803e3d6000fd5b505060408051601f1981015160208281018a90528284018990528351808403850181526060909301909352815191909201206001600160a01b03918216911614935050505095945050505050565b60006401000003d01980841015806109b05750808310155b156109bf5760009150506107e3565b600081806109c957fe5b8485099050600082806109d857fe5b600784806109e257fe5b8886806109eb57fe5b8a8b0909089190911495945050505050565b610a0561208d565b604082015180610a155750610807565b82516401000003d019906000826020870151600209905060008380610a3657fe5b828309905060008480610a4557fe5b848309905060008580610a5457fe5b8680610a5c57fe5b868709600309905060008680610a6e57fe5b8780610a7657fe5b846401000003d219098880610a8757fe5b84850908808a5290508680610a9857fe5b8780610aa057fe5b8880610aa857fe5b86870963800001e9600160ff1b03098880610abf57fe5b8980610ac757fe5b848b03870885090860208a01528680610adc57fe5b88860960408a0152509698975050505050505050565b604081015160009080610b095760009150506107e3565b6401000003d01960008183840985519091508280610b2357fe5b8751839009148015610798575060208501518280610b3d57fe5b8380610b4557fe5b858409602089015109149695505050505050565b600080600060606e3430b9b42fba37afb1bab93b32b13760891b6000801b866040516020018084815260200183815260200182805190602001908083835b60208310610bb65780518252601f199092019160209182019101610b97565b6001836020036101000a03801982511681845116808217855250505050505090500193505050506040516020818303038152906040529050600081604051602001808360ff1660ff1660f81b815260010182805190602001908083835b60208310610c325780518252601f199092019160209182019101610c13565b6001836020036101000a0380198251168184511680821785525050505050509050019250505060405160208183030381529060405280519060200120600182604051602001808360ff1660ff1660f81b815260010182805190602001908083835b60208310610cb25780518252601f199092019160209182019101610c93565b51815160209384036101000a60001901801990921691161790526040805192909401828103601f19018352909352805192019190912094975093955070014551231950b75fc4402da1732fc9bec0935070014551231950b75fc4402da1732fc9bebf1992506000915082905083870990508180610d2b57fe5b85820860010198975050505050505050565b600060018216600119850160ff16148080156108ac57506108ac8484610998565b610d6661208d565b82516020808501518451918501516401000003d0199392908184148015610d8c57508083145b15610dc157610db5604051806060016040528086815260200185815260200160018152506109fd565b955050505050506107e3565b60008580610dcb57fe5b8487038308905060008680610ddc57fe5b8688038508905060008780610ded57fe5b828309905060008880610dfc57fe5b838309905060008980610e0b57fe5b838a0990508980610e1857fe5b8a80610e2057fe5b838c80610e2957fe5b84600209088b038b80610e3857fe5b878809088b528980610e4657fe5b8a80610e4e57fe5b838a098b038b80610e5b57fe5b8c80610e6357fe5b8e518e03850888090860208c015250505060408801525094979650505050505050565b610e8e6120ab565b8151606214610e9c57600080fd5b6000610ea783611c84565b9050610eb7818360000151611c8a565b9050610ec7818360200151611c8a565b9050610ed281611ca5565b604083015250919050565b610ee56120d8565b8151610167811015610ef657600080fd5b6000610f0184611c84565b9050610f11818460000151611c8a565b9050610f21818460200151611c8a565b9050610f2c81611ca5565b6040840152606083015160209190910190610f48908290611c8a565b9050610f58816082198401611ca9565b6080840152509092915050565b81518051602091820151835180519084015160808601805151805190870151604080516001600160f81b031960f8998a1b8116828c0152602182019890985295881b871660418701526042860194909452951b909316606283015260638083019490945280518083039094018452608382019052838601518051908501518686015180519087015194518701518051908801518751600099899896979596949560a3019182918a01908083835b602083106110315780518252601f199092019160209182019101611012565b51815160209384036101000a600019018019909216911617905260f89a8b1b6001600160f81b031990811692909401918252600182019990995296891b8216602188015250602286019490945250941b166042820152604380820193909352604080518083039094018452606382018152608088015190810151805190840151606083015180519086015160c0909401518751979950899850600160f91b977f03c98795773ff1c241fc0b1cced85e80f8366581dda5c9452175ebd41385fa1f97949693959294929391926083909201918291908b01908083835b6020831061112b5780518252601f19909201916020918201910161110c565b51815160209384036101000a60001901801990921691161790526001600160f81b03198c811692909401918252600182018b905260f88a811b85166021840152602283018a905288901b9093166042820152604381018690528451606390910192850191508083835b602083106111b35780518252601f199092019160209182019101611194565b6001836020036101000a03801982511681845116808217855250505050505090500198505050505050505050604051602081830303815290604052905060006108ac82610b59565b6000815160401461123d5760405162461bcd60e51b81526004018080602001828103825260258152602001806124ed6025913960400191505060405180910390fd5b602082015160408301516112518282610998565b949350505050565b60006112636120ab565b61126c85610e86565b90506112766120d8565b61127f85610edd565b905061128961211e565b61129285611daf565b90506000611344826102800151846080015160a00151846102c001516000600581106112ba57fe5b1a60f81b6040516020018083805190602001908083835b602083106112f05780518252601f1990920191602091820191016112d1565b6001836020036101000a038019825116818451168082178552505050505050905001826001600160f81b0319166001600160f81b031916815260010192505050604051602081830303815290604052611f8d565b9050816102a001516001600160a01b0316816001600160a01b0316146113a7576040805162461bcd60e51b8152602060048201526013602482015272426164204b46726167207369676e617475726560681b604482015290519081900360640190fd5b60006113b38585610f65565b8551805160209091015185519293506113cb92610d3d565b6114065760405162461bcd60e51b81526004018080602001828103825260468152602001806123af6046913960600191505060405180910390fd5b61141883602001518460400151610998565b611469576040805162461bcd60e51b815260206004820181905260248201527f506f696e74207a45206973206e6f7420612076616c696420454320706f696e74604482015290519081900360640190fd5b6114928560000151602001518460000151866080015160800151866020015187604001516108d2565b6114cd5760405162461bcd60e51b81526004018080602001828103825260228152602001806122716022913960400191505060405180910390fd5b8351805160209091015160608501516114e7929190610d3d565b6115225760405162461bcd60e51b81526004018080602001828103825260488152602001806124836048913960600191505060405180910390fd5b61153483608001518460a00151610998565b61156f5760405162461bcd60e51b81526004018080602001828103825260228152602001806124cb6022913960400191505060405180910390fd5b61159084600001516020015184606001518386608001518760a001516108d2565b6115cb5760405162461bcd60e51b81526004018080602001828103825260238152602001806125c06023913960400191505060405180910390fd5b608084015151805160209091015160c08501516115e9929190610d3d565b6116245760405162461bcd60e51b81526004018080602001828103825260488152602001806125786048913960600191505060405180910390fd5b6000611695604051806040016040528086602001518152602001866040015181525061169060405180604001604052808960800151600001516020015181526020018860c001518152506040518060400160405280896080015181526020018960a00151815250610d5e565b610af2565b9050806116ab5760009650505050505050610861565b602080870151805191015160e08601516116c6929190610d3d565b6117015760405162461bcd60e51b81526004018080602001828103825260468152602001806123f56046913960600191505060405180910390fd5b611715846101000151856101200151610998565b611766576040805162461bcd60e51b815260206004820181905260248201527f506f696e74207a56206973206e6f7420612076616c696420454320706f696e74604482015290519081900360640190fd5b6117918660200151602001518560e001518760800151608001518761010001518861012001516108d2565b6117cc5760405162461bcd60e51b81526004018080602001828103825260228152602001806123236022913960400191505060405180910390fd5b60208086015180519101516101408601516117e8929190610d3d565b6118235760405162461bcd60e51b815260040180806020018281038252604881526020018061243b6048913960600191505060405180910390fd5b611837846101600151856101800151610998565b6118725760405162461bcd60e51b81526004018080602001828103825260228152602001806125336022913960400191505060405180910390fd5b611896856020015160200151856101400151848761016001518861018001516108d2565b6118d15760405162461bcd60e51b81526004018080602001828103825260238152602001806125556023913960400191505060405180910390fd5b608085015160209081015180519101516101a08601516118f2929190610d3d565b61192d5760405162461bcd60e51b81526004018080602001828103825260488152602001806123456048913960600191505060405180910390fd5b61199c604051806040016040528086610100015181526020018661012001518152506116906040518060400160405280896080015160200151602001518152602001886101a0015181525060405180604001604052808961016001518152602001896101800151815250610d5e565b9050806119b25760009650505050505050610861565b6119c6846101c00151856101e00151610998565b611a015760405162461bcd60e51b81526004018080602001828103825260218152602001806125126021913960400191505060405180910390fd5b611a607f03c98795773ff1c241fc0b1cced85e80f8366581dda5c9452175ebd41385fa1f7f7880ed56962d7c0ae44d6f14bb53b5fe64b31ea44a41d0316f3a598778f0f936876080015160800151876101c00151886101e001516108d2565b611a9b5760405162461bcd60e51b815260040180806020018281038252602281526020018061238d6022913960400191505060405180910390fd5b6080850151604001518051602090910151610200860151611abd929190610d3d565b611af85760405162461bcd60e51b81526004018080602001828103825260488152602001806122db6048913960600191505060405180910390fd5b611b0c846102200151856102400151610998565b611b475760405162461bcd60e51b815260040180806020018281038252602281526020018061224f6022913960400191505060405180910390fd5b611b6f85608001516040015160200151856102000151848761022001518861024001516108d2565b611baa5760405162461bcd60e51b81526004018080602001828103825260238152602001806125556023913960400191505060405180910390fd5b6080850151606001518051602090910151610260860151611bcc929190610d3d565b611c075760405162461bcd60e51b81526004018080602001828103825260488152602001806122936048913960600191505060405180910390fd5b611c766040518060400160405280866101c001518152602001866101e00151815250611690604051806040016040528089608001516060015160200151815260200188610260015181525060405180604001604052808961022001518152602001896102400151815250610d5e565b9a9950505050505050505050565b60200190565b8151600183015160009190911a825260209091015260210190565b5190565b611cb16121e2565b60e4821015611cbf57600080fd5b611ccd838260000151611c8a565b9250611cdd838260200151611c8a565b9250611ced838260400151611c8a565b9250611cfd838260600151611c8a565b9250611d0883611ca5565b608082015260408051818152606081018252602094909401939060208201818036833750505060a08201819052611d429084906040612046565b925060e48211156107e35760e319820167ffffffffffffffff81118015611d6857600080fd5b506040519080825280601f01601f191660200182016040528015611d93576020820181803683370190505b5060c082018190528051611da8918591612046565b5092915050565b611db761211e565b81516102b914611dc657600080fd5b6000611dd183611c84565b905080611ddd81611ca5565b8352602001611deb81611ca5565b60208085019190915201611dfe81611ca5565b6040840152602001611e0f81611ca5565b6060840152602001611e2081611ca5565b6080840152602001611e3181611ca5565b60a0840152602001611e4281611ca5565b60c0840152602001611e5381611ca5565b60e0840152602001611e6481611ca5565b610100840152602001611e7681611ca5565b610120840152602001611e8881611ca5565b610140840152602001611e9a81611ca5565b610160840152602001611eac81611ca5565b610180840152602001611ebe81611ca5565b6101a0840152602001611ed081611ca5565b6101c0840152602001611ee281611ca5565b6101e0840152602001611ef481611ca5565b610200840152602001611f0681611ca5565b610220840152602001611f1881611ca5565b610240840152602001611f2a81611ca5565b610260840152602001611f3c81611ca5565b610280840152602001611f4e81611ca5565b60601c6102a0840152601401611f6381611ca5565b6001600160d81b0319166102c08401526005016102b982018114611f8657600080fd5b5050919050565b60008151604114611f9d57600080fd5b60208201516040830151606084015160001a601b811015611fbc57601b015b8060ff16601b1480611fd157508060ff16601c145b611fda57600080fd5b6040805160008152602080820180845289905260ff8416828401526060820186905260808201859052915160019260a0808401939192601f1981019281900390910190855afa158015612031573d6000803e3d6000fd5b5050604051601f190151979650505050505050565b60006020601f830104846020850160005b8381101561207357602081028381015190830152600101612057565b505050506000835160200184015281840190509392505050565b60405180606001604052806003906020820280368337509192915050565b60405180606001604052806120be612237565b81526020016120cb612237565b8152602001600081525090565b6040518060a001604052806120eb612237565b81526020016120f8612237565b81526000602082015260400161210c612237565b81526020016121196121e2565b905290565b604051806102e0016040528060008152602001600081526020016000815260200160008152602001600081526020016000815260200160008152602001600081526020016000815260200160008152602001600081526020016000815260200160008152602001600081526020016000815260200160008152602001600081526020016000815260200160008152602001600081526020016000801916815260200160006001600160a01b0316815260200160006001600160d81b03191681525090565b6040518060e001604052806121f5612237565b8152602001612202612237565b815260200161220f612237565b815260200161221c612237565b81526020016000815260200160608152602001606081525090565b60408051808201909152600080825260208201529056fe506f696e7420682a5531206973206e6f7420612076616c696420454320706f696e74507265636f6d7075746564207a2a452076616c756520697320696e636f7272656374507265636f6d7075746564205920636f6f7264696e617465206f6620553220646f65736e277420636f72726573706f6e6420746f20636f6d7072657373656420553220706f696e74507265636f6d7075746564205920636f6f7264696e617465206f6620553120646f65736e277420636f72726573706f6e6420746f20636f6d7072657373656420553120706f696e74507265636f6d7075746564207a2a562076616c756520697320696e636f7272656374507265636f6d7075746564205920636f6f7264696e617465206f6620563220646f65736e277420636f72726573706f6e6420746f20636f6d7072657373656420563220706f696e74507265636f6d7075746564207a2a552076616c756520697320696e636f7272656374507265636f6d7075746564205920636f6f7264696e617465206f66204520646f65736e277420636f72726573706f6e6420746f20636f6d70726573736564204520706f696e74507265636f6d7075746564205920636f6f7264696e617465206f66205620646f65736e277420636f72726573706f6e6420746f20636f6d70726573736564205620706f696e74507265636f6d7075746564205920636f6f7264696e617465206f6620563120646f65736e277420636f72726573706f6e6420746f20636f6d7072657373656420563120706f696e74507265636f6d7075746564205920636f6f7264696e617465206f6620453120646f65736e277420636f72726573706f6e6420746f20636f6d7072657373656420453120706f696e74506f696e7420682a4531206973206e6f7420612076616c696420454320706f696e7453657269616c697a656420636f6f7264696e617465732073686f756c642062652036342042506f696e74207a2a55206973206e6f7420612076616c696420454320706f696e74506f696e7420682a5631206973206e6f7420612076616c696420454320706f696e74507265636f6d707574656420682a56312076616c756520697320696e636f7272656374507265636f6d7075746564205920636f6f7264696e617465206f6620453220646f65736e277420636f72726573706f6e6420746f20636f6d7072657373656420453220706f696e74507265636f6d707574656420682a45312076616c756520697320696e636f7272656374a2646970667358221220eed0824cc6a6cc2c28a1f18a2412ace331fb25264454ab63259e8438a6b3825b64736f6c63430006070033",
  "bytecodeSha1": "aeb0d081a013e436a85178772cbc616f043f0d2d",
  "compiler": {
    "evm_version": "berlin",
    "optimizer": {
      "enabled": true,
      "runs": 200
    },
    "version": "0.6.7"
  },
  "contractName": "ReEncryptionValidatorMock",
  "language": "Solidity",
  "natspec": {
    "methods": {},
    "notice": "Contract for using ReEncryptionValidator library"
  },
  "opcodes": "PUSH1 0x80 PUSH1 0x40 MSTORE CALLVALUE DUP1 ISZERO PUSH2 0x10 JUMPI PUSH1 0x0 DUP1 REVERT JUMPDEST POP PUSH1 0x4 CALLDATASIZE LT PUSH2 0x100 JUMPI PUSH1 0x0 CALLDATALOAD PUSH1 0xE0 SHR DUP1 PUSH4 0x4B4B4B12 GT PUSH2 0x97 JUMPI DUP1 PUSH4 0xC4F81C83 GT PUSH2 0x66 JUMPI DUP1 PUSH4 0xC4F81C83 EQ PUSH2 0x3F0 JUMPI DUP1 PUSH4 0xC5F1F5CA EQ PUSH2 0x519 JUMPI DUP1 PUSH4 0xCFB24452 EQ PUSH2 0x537 JUMPI DUP1 PUSH4 0xE650FAA7 EQ PUSH2 0x5DB JUMPI PUSH2 0x100 JUMP JUMPDEST DUP1 PUSH4 0x4B4B4B12 EQ PUSH2 0x2A4 JUMPI DUP1 PUSH4 0x5BDC231D EQ PUSH2 0x2AC JUMPI DUP1 PUSH4 0xAA393543 EQ PUSH2 0x350 JUMPI DUP1 PUSH4 0xB4487873 EQ PUSH2 0x37C JUMPI PUSH2 0x100 JUMP JUMPDEST DUP1 PUSH4 0x3FA1E903 GT PUSH2 0xD3 JUMPI DUP1 PUSH4 0x3FA1E903 EQ PUSH2 0x193 JUMPI DUP1 PUSH4 0x42BE0B32 EQ PUSH2 0x19B JUMPI DUP1 PUSH4 0x4731C829 EQ PUSH2 0x225 JUMPI DUP1 PUSH4 0x49DF4DEF EQ PUSH2 0x29C JUMPI PUSH2 0x100 JUMP JUMPDEST DUP1 PUSH4 0x22079D9 EQ PUSH2 0x105 JUMPI DUP1 PUSH4 0x55A80E7 EQ PUSH2 0x14E JUMPI DUP1 PUSH4 0x7B5BAC4 EQ PUSH2 0x168 JUMPI DUP1 PUSH4 0xB0DBCFA EQ PUSH2 0x170 JUMPI JUMPDEST PUSH1 0x0 DUP1 REVERT JUMPDEST PUSH2 0x13A PUSH1 0x4 DUP1 CALLDATASIZE SUB PUSH1 0xA0 DUP2 LT ISZERO PUSH2 0x11B JUMPI PUSH1 0x0 DUP1 REVERT JUMPDEST POP DUP1 CALLDATALOAD SWAP1 PUSH1 0x20 DUP2 ADD CALLDATALOAD SWAP1 PUSH1 0x40 DUP2 ADD CALLDATALOAD SWAP1 PUSH1 0x60 DUP2 ADD CALLDATALOAD SWAP1 PUSH1 0x80 ADD CALLDATALOAD PUSH2 0x789 JUMP JUMPDEST PUSH1 0x40 DUP1 MLOAD SWAP2 ISZERO ISZERO DUP3 MSTORE MLOAD SWAP1 DUP2 SWAP1 SUB PUSH1 0x20 ADD SWAP1 RETURN JUMPDEST PUSH2 0x156 PUSH2 0x7A2 JUMP JUMPDEST PUSH1 0x40 DUP1 MLOAD SWAP2 DUP3 MSTORE MLOAD SWAP1 DUP2 SWAP1 SUB PUSH1 0x20 ADD SWAP1 RETURN JUMPDEST PUSH2 0x156 PUSH2 0x7C6 JUMP JUMPDEST PUSH2 0x13A PUSH1 0x4 DUP1 CALLDATASIZE SUB PUSH1 0x40 DUP2 LT ISZERO PUSH2 0x186 JUMPI PUSH1 0x0 DUP1 REVERT JUMPDEST POP DUP1 CALLDATALOAD SWAP1 PUSH1 0x20 ADD CALLDATALOAD PUSH2 0x7D4 JUMP JUMPDEST PUSH2 0x156 PUSH2 0x7E9 JUMP JUMPDEST PUSH2 0x1ED PUSH1 0x4 DUP1 CALLDATASIZE SUB PUSH1 0x60 DUP2 LT ISZERO PUSH2 0x1B1 JUMPI PUSH1 0x0 DUP1 REVERT JUMPDEST DUP2 ADD SWAP1 DUP1 DUP1 PUSH1 0x60 ADD SWAP1 PUSH1 0x3 DUP1 PUSH1 0x20 MUL PUSH1 0x40 MLOAD SWAP1 DUP2 ADD PUSH1 0x40 MSTORE DUP1 SWAP3 SWAP2 SWAP1 DUP3 PUSH1 0x3 PUSH1 0x20 MUL DUP1 DUP3 DUP5 CALLDATACOPY PUSH1 0x0 SWAP3 ADD SWAP2 SWAP1 SWAP2 MSTORE POP SWAP2 SWAP5 POP PUSH2 0x7F3 SWAP4 POP POP POP POP JUMP JUMPDEST PUSH1 0x40 MLOAD DUP1 DUP3 PUSH1 0x60 DUP1 DUP4 DUP4 PUSH1 0x0 JUMPDEST DUP4 DUP2 LT ISZERO PUSH2 0x212 JUMPI DUP2 DUP2 ADD MLOAD DUP4 DUP3 ADD MSTORE PUSH1 0x20 ADD PUSH2 0x1FA JUMP JUMPDEST POP POP POP POP SWAP1 POP ADD SWAP2 POP POP PUSH1 0x40 MLOAD DUP1 SWAP2 SUB SWAP1 RETURN JUMPDEST PUSH2 0x13A PUSH1 0x4 DUP1 CALLDATASIZE SUB PUSH1 0xA0 DUP2 LT ISZERO PUSH2 0x23B JUMPI PUSH1 0x0 DUP1 REVERT JUMPDEST PUSH1 0x40 DUP1 MLOAD DUP1 DUP3 ADD DUP3 MSTORE SWAP2 DUP4 ADD SWAP3 SWAP2 DUP2 DUP4 ADD SWAP2 DUP4 SWAP1 PUSH1 0x2 SWAP1 DUP4 SWAP1 DUP4 SWAP1 DUP1 DUP3 DUP5 CALLDATACOPY PUSH1 0x0 SWAP3 ADD SWAP2 SWAP1 SWAP2 MSTORE POP POP PUSH1 0x40 DUP1 MLOAD PUSH1 0x60 DUP2 DUP2 ADD SWAP1 SWAP3 MSTORE SWAP3 SWAP6 SWAP5 SWAP4 DUP2 DUP2 ADD SWAP4 SWAP3 POP SWAP1 PUSH1 0x3 SWAP1 DUP4 SWAP1 DUP4 SWAP1 DUP1 DUP3 DUP5 CALLDATACOPY PUSH1 0x0 SWAP3 ADD SWAP2 SWAP1 SWAP2 MSTORE POP SWAP2 SWAP5 POP PUSH2 0x80C SWAP4 POP POP POP POP JUMP JUMPDEST PUSH2 0x156 PUSH2 0x818 JUMP JUMPDEST PUSH2 0x156 PUSH2 0x822 JUMP JUMPDEST PUSH2 0x156 PUSH1 0x4 DUP1 CALLDATASIZE SUB PUSH1 0x20 DUP2 LT ISZERO PUSH2 0x2C2 JUMPI PUSH1 0x0 DUP1 REVERT JUMPDEST DUP2 ADD SWAP1 PUSH1 0x20 DUP2 ADD DUP2 CALLDATALOAD PUSH1 0x1 PUSH1 0x20 SHL DUP2 GT ISZERO PUSH2 0x2DC JUMPI PUSH1 0x0 DUP1 REVERT JUMPDEST DUP3 ADD DUP4 PUSH1 0x20 DUP3 ADD GT ISZERO PUSH2 0x2EE JUMPI PUSH1 0x0 DUP1 REVERT JUMPDEST DUP1 CALLDATALOAD SWAP1 PUSH1 0x20 ADD SWAP2 DUP5 PUSH1 0x1 DUP4 MUL DUP5 ADD GT PUSH1 0x1 PUSH1 0x20 SHL DUP4 GT OR ISZERO PUSH2 0x30F JUMPI PUSH1 0x0 DUP1 REVERT JUMPDEST SWAP2 SWAP1 DUP1 DUP1 PUSH1 0x1F ADD PUSH1 0x20 DUP1 SWAP2 DIV MUL PUSH1 0x20 ADD PUSH1 0x40 MLOAD SWAP1 DUP2 ADD PUSH1 0x40 MSTORE DUP1 SWAP4 SWAP3 SWAP2 SWAP1 DUP2 DUP2 MSTORE PUSH1 0x20 ADD DUP4 DUP4 DUP1 DUP3 DUP5 CALLDATACOPY PUSH1 0x0 SWAP3 ADD SWAP2 SWAP1 SWAP2 MSTORE POP SWAP3 SWAP6 POP PUSH2 0x846 SWAP5 POP POP POP POP POP JUMP JUMPDEST PUSH2 0x13A PUSH1 0x4 DUP1 CALLDATASIZE SUB PUSH1 0x60 DUP2 LT ISZERO PUSH2 0x366 JUMPI PUSH1 0x0 DUP1 REVERT JUMPDEST POP PUSH1 0xFF DUP2 CALLDATALOAD AND SWAP1 PUSH1 0x20 DUP2 ADD CALLDATALOAD SWAP1 PUSH1 0x40 ADD CALLDATALOAD PUSH2 0x851 JUMP JUMPDEST PUSH2 0x1ED PUSH1 0x4 DUP1 CALLDATASIZE SUB PUSH1 0x80 DUP2 LT ISZERO PUSH2 0x392 JUMPI PUSH1 0x0 DUP1 REVERT JUMPDEST PUSH1 0x40 DUP1 MLOAD DUP1 DUP3 ADD DUP3 MSTORE SWAP2 DUP4 ADD SWAP3 SWAP2 DUP2 DUP4 ADD SWAP2 DUP4 SWAP1 PUSH1 0x2 SWAP1 DUP4 SWAP1 DUP4 SWAP1 DUP1 DUP3 DUP5 CALLDATACOPY PUSH1 0x0 SWAP3 ADD SWAP2 SWAP1 SWAP2 MSTORE POP POP PUSH1 0x40 DUP1 MLOAD DUP1 DUP3 ADD DUP3 MSTORE SWAP3 SWAP6 SWAP5 SWAP4 DUP2 DUP2 ADD SWAP4 SWAP3 POP SWAP1 PUSH1 0x2 SWAP1 DUP4 SWAP1 DUP4 SWAP1 DUP1 DUP3 DUP5 CALLDATACOPY PUSH1 0x0 SWAP3 ADD SWAP2 SWAP1 SWAP2 MSTORE POP SWAP2 SWAP5 POP PUSH2 0x868 SWAP4 POP POP POP POP JUMP JUMPDEST PUSH2 0x156 PUSH1 0x4 DUP1 CALLDATASIZE SUB PUSH1 0x40 DUP2 LT ISZERO PUSH2 0x406 JUMPI PUSH1 0x0 DUP1 REVERT JUMPDEST DUP2 ADD SWAP1 PUSH1 0x20 DUP2 ADD DUP2 CALLDATALOAD PUSH1 0x1 PUSH1 0x20 SHL DUP2 GT ISZERO PUSH2 0x420 JUMPI PUSH1 0x0 DUP1 REVERT JUMPDEST DUP3 ADD DUP4 PUSH1 0x20 DUP3 ADD GT ISZERO PUSH2 0x432 JUMPI PUSH1 0x0 DUP1 REVERT JUMPDEST DUP1 CALLDATALOAD SWAP1 PUSH1 0x20 ADD SWAP2 DUP5 PUSH1 0x1 DUP4 MUL DUP5 ADD GT PUSH1 0x1 PUSH1 0x20 SHL DUP4 GT OR ISZERO PUSH2 0x453 JUMPI PUSH1 0x0 DUP1 REVERT JUMPDEST SWAP2 SWAP1 DUP1 DUP1 PUSH1 0x1F ADD PUSH1 0x20 DUP1 SWAP2 DIV MUL PUSH1 0x20 ADD PUSH1 0x40 MLOAD SWAP1 DUP2 ADD PUSH1 0x40 MSTORE DUP1 SWAP4 SWAP3 SWAP2 SWAP1 DUP2 DUP2 MSTORE PUSH1 0x20 ADD DUP4 DUP4 DUP1 DUP3 DUP5 CALLDATACOPY PUSH1 0x0 SWAP3 ADD SWAP2 SWAP1 SWAP2 MSTORE POP SWAP3 SWAP6 SWAP5 SWAP4 PUSH1 0x20 DUP2 ADD SWAP4 POP CALLDATALOAD SWAP2 POP POP PUSH1 0x1 PUSH1 0x20 SHL DUP2 GT ISZERO PUSH2 0x4A5 JUMPI PUSH1 0x0 DUP1 REVERT JUMPDEST DUP3 ADD DUP4 PUSH1 0x20 DUP3 ADD GT ISZERO PUSH2 0x4B7 JUMPI PUSH1 0x0 DUP1 REVERT JUMPDEST DUP1 CALLDATALOAD SWAP1 PUSH1 0x20 ADD SWAP2 DUP5 PUSH1 0x1 DUP4 MUL DUP5 ADD GT PUSH1 0x1 PUSH1 0x20 SHL DUP4 GT OR ISZERO PUSH2 0x4D8 JUMPI PUSH1 0x0 DUP1 REVERT JUMPDEST SWAP2 SWAP1 DUP1 DUP1 PUSH1 0x1F ADD PUSH1 0x20 DUP1 SWAP2 DIV MUL PUSH1 0x20 ADD PUSH1 0x40 MLOAD SWAP1 DUP2 ADD PUSH1 0x40 MSTORE DUP1 SWAP4 SWAP3 SWAP2 SWAP1 DUP2 DUP2 MSTORE PUSH1 0x20 ADD DUP4 DUP4 DUP1 DUP3 DUP5 CALLDATACOPY PUSH1 0x0 SWAP3 ADD SWAP2 SWAP1 SWAP2 MSTORE POP SWAP3 SWAP6 POP PUSH2 0x87A SWAP5 POP POP POP POP POP JUMP JUMPDEST PUSH2 0x521 PUSH2 0x8B5 JUMP JUMPDEST PUSH1 0x40 DUP1 MLOAD PUSH1 0xFF SWAP1 SWAP3 AND DUP3 MSTORE MLOAD SWAP1 DUP2 SWAP1 SUB PUSH1 0x20 ADD SWAP1 RETURN JUMPDEST PUSH2 0x13A PUSH1 0x4 DUP1 CALLDATASIZE SUB PUSH1 0x20 DUP2 LT ISZERO PUSH2 0x54D JUMPI PUSH1 0x0 DUP1 REVERT JUMPDEST DUP2 ADD SWAP1 PUSH1 0x20 DUP2 ADD DUP2 CALLDATALOAD PUSH1 0x1 PUSH1 0x20 SHL DUP2 GT ISZERO PUSH2 0x567 JUMPI PUSH1 0x0 DUP1 REVERT JUMPDEST DUP3 ADD DUP4 PUSH1 0x20 DUP3 ADD GT ISZERO PUSH2 0x579 JUMPI PUSH1 0x0 DUP1 REVERT JUMPDEST DUP1 CALLDATALOAD SWAP1 PUSH1 0x20 ADD SWAP2 DUP5 PUSH1 0x1 DUP4 MUL DUP5 ADD GT PUSH1 0x1 PUSH1 0x20 SHL DUP4 GT OR ISZERO PUSH2 0x59A JUMPI PUSH1 0x0 DUP1 REVERT JUMPDEST SWAP2 SWAP1 DUP1 DUP1 PUSH1 0x1F ADD PUSH1 0x20 DUP1 SWAP2 DIV MUL PUSH1 0x20 ADD PUSH1 0x40 MLOAD SWAP1 DUP2 ADD PUSH1 0x40 MSTORE DUP1 SWAP4 SWAP3 SWAP2 SWAP1 DUP2 DUP2 MSTORE PUSH1 0x20 ADD DUP4 DUP4 DUP1 DUP3 DUP5 CALLDATACOPY PUSH1 0x0 SWAP3 ADD SWAP2 SWAP1 SWAP2 MSTORE POP SWAP3 SWAP6 POP PUSH2 0x8BA SWAP5 POP POP POP POP POP JUMP JUMPDEST PUSH2 0x13A PUSH1 0x4 DUP1 CALLDATASIZE SUB PUSH1 0x60 DUP2 LT ISZERO PUSH2 0x5F1 JUMPI PUSH1 0x0 DUP1 REVERT JUMPDEST DUP2 ADD SWAP1 PUSH1 0x20 DUP2 ADD DUP2 CALLDATALOAD PUSH1 0x1 PUSH1 0x20 SHL DUP2 GT ISZERO PUSH2 0x60B JUMPI PUSH1 0x0 DUP1 REVERT JUMPDEST DUP3 ADD DUP4 PUSH1 0x20 DUP3 ADD GT ISZERO PUSH2 0x61D JUMPI PUSH1 0x0 DUP1 REVERT JUMPDEST DUP1 CALLDATALOAD SWAP1 PUSH1 0x20 ADD SWAP2 DUP5 PUSH1 0x1 DUP4 MUL DUP5 ADD GT PUSH1 0x1 PUSH1 0x20 SHL DUP4 GT OR ISZERO PUSH2 0x63E JUMPI PUSH1 0x0 DUP1 REVERT JUMPDEST SWAP2 SWAP1 DUP1 DUP1 PUSH1 0x1F ADD PUSH1 0x20 DUP1 SWAP2 DIV MUL PUSH1 0x20 ADD PUSH1 0x40 MLOAD SWAP1 DUP2 ADD PUSH1 0x40 MSTORE DUP1 SWAP4 SWAP3 SWAP2 SWAP1 DUP2 DUP2 MSTORE PUSH1 0x20 ADD DUP4 DUP4 DUP1 DUP3 DUP5 CALLDATACOPY PUSH1 0x0 SWAP3 ADD SWAP2 SWAP1 SWAP2 MSTORE POP SWAP3 SWAP6 SWAP5 SWAP4 PUSH1 0x20 DUP2 ADD SWAP4 POP CALLDATALOAD SWAP2 POP POP PUSH1 0x1 PUSH1 0x20 SHL DUP2 GT ISZERO PUSH2 0x690 JUMPI PUSH1 0x0 DUP1 REVERT JUMPDEST DUP3 ADD DUP4 PUSH1 0x20 DUP3 ADD GT ISZERO PUSH2 0x6A2 JUMPI PUSH1 0x0 DUP1 REVERT JUMPDEST DUP1 CALLDATALOAD SWAP1 PUSH1 0x20 ADD SWAP2 DUP5 PUSH1 0x1 DUP4 MUL DUP5 ADD GT PUSH1 0x1 PUSH1 0x20 SHL DUP4 GT OR ISZERO PUSH2 0x6C3 JUMPI PUSH1 0x0 DUP1 REVERT JUMPDEST SWAP2 SWAP1 DUP1 DUP1 PUSH1 0x1F ADD PUSH1 0x20 DUP1 SWAP2 DIV MUL PUSH1 0x20 ADD PUSH1 0x40 MLOAD SWAP1 DUP2 ADD PUSH1 0x40 MSTORE DUP1 SWAP4 SWAP3 SWAP2 SWAP1 DUP2 DUP2 MSTORE PUSH1 0x20 ADD DUP4 DUP4 DUP1 DUP3 DUP5 CALLDATACOPY PUSH1 0x0 SWAP3 ADD SWAP2 SWAP1 SWAP2 MSTORE POP SWAP3 SWAP6 SWAP5 SWAP4 PUSH1 0x20 DUP2 ADD SWAP4 POP CALLDATALOAD SWAP2 POP POP PUSH1 0x1 PUSH1 0x20 SHL DUP2 GT ISZERO PUSH2 0x715 JUMPI PUSH1 0x0 DUP1 REVERT JUMPDEST DUP3 ADD DUP4 PUSH1 0x20 DUP3 ADD GT ISZERO PUSH2 0x727 JUMPI PUSH1 0x0 DUP1 REVERT JUMPDEST DUP1 CALLDATALOAD SWAP1 PUSH1 0x20 ADD SWAP2 DUP5 PUSH1 0x1 DUP4 MUL DUP5 ADD GT PUSH1 0x1 PUSH1 0x20 SHL DUP4 GT OR ISZERO PUSH2 0x748 JUMPI PUSH1 0x0 DUP1 REVERT JUMPDEST SWAP2 SWAP1 DUP1 DUP1 PUSH1 0x1F ADD PUSH1 0x20 DUP1 SWAP2 DIV MUL PUSH1 0x20 ADD PUSH1 0x40 MLOAD SWAP1 DUP2 ADD PUSH1 0x40 MSTORE DUP1 SWAP4 SWAP3 SWAP2 SWAP1 DUP2 DUP2 MSTORE PUSH1 0x20 ADD DUP4 DUP4 DUP1 DUP3 DUP5 CALLDATACOPY PUSH1 0x0 SWAP3 ADD SWAP2 SWAP1 SWAP2 MSTORE POP SWAP3 SWAP6 POP PUSH2 0x8C5 SWAP5 POP POP POP POP POP JUMP JUMPDEST PUSH1 0x0 PUSH2 0x798 DUP7 DUP7 DUP7 DUP7 DUP7 PUSH2 0x8D2 JUMP JUMPDEST SWAP7 SWAP6 POP POP POP POP POP POP JUMP JUMPDEST PUSH32 0x3C98795773FF1C241FC0B1CCED85E80F8366581DDA5C9452175EBD41385FA1F SWAP1 JUMP JUMPDEST PUSH4 0x800001E9 PUSH1 0x1 PUSH1 0xFF SHL SUB SWAP1 JUMP JUMPDEST PUSH1 0x0 PUSH2 0x7E0 DUP4 DUP4 PUSH2 0x998 JUMP JUMPDEST SWAP1 POP JUMPDEST SWAP3 SWAP2 POP POP JUMP JUMPDEST PUSH5 0x1000003D0 NOT SWAP1 JUMP JUMPDEST PUSH2 0x7FB PUSH2 0x208D JUMP JUMPDEST PUSH2 0x804 DUP3 PUSH2 0x9FD JUMP JUMPDEST SWAP1 POP JUMPDEST SWAP2 SWAP1 POP JUMP JUMPDEST PUSH1 0x0 PUSH2 0x7E0 DUP4 DUP4 PUSH2 0xAF2 JUMP JUMPDEST PUSH5 0x1000003D2 NOT SWAP1 JUMP JUMPDEST PUSH32 0x7880ED56962D7C0AE44D6F14BB53B5FE64B31EA44A41D0316F3A598778F0F936 SWAP1 JUMP JUMPDEST PUSH1 0x0 PUSH2 0x804 DUP3 PUSH2 0xB59 JUMP JUMPDEST PUSH1 0x0 PUSH2 0x85E DUP5 DUP5 DUP5 PUSH2 0xD3D JUMP JUMPDEST SWAP1 POP JUMPDEST SWAP4 SWAP3 POP POP POP JUMP JUMPDEST PUSH2 0x870 PUSH2 0x208D JUMP JUMPDEST PUSH2 0x7E0 DUP4 DUP4 PUSH2 0xD5E JUMP JUMPDEST PUSH1 0x0 PUSH2 0x884 PUSH2 0x20AB JUMP JUMPDEST PUSH2 0x88D DUP5 PUSH2 0xE86 JUMP JUMPDEST SWAP1 POP PUSH2 0x897 PUSH2 0x20D8 JUMP JUMPDEST PUSH2 0x8A0 DUP5 PUSH2 0xEDD JUMP JUMPDEST SWAP1 POP PUSH2 0x8AC DUP3 DUP3 PUSH2 0xF65 JUMP JUMPDEST SWAP6 SWAP5 POP POP POP POP POP JUMP JUMPDEST PUSH1 0x2 SWAP1 JUMP JUMPDEST PUSH1 0x0 PUSH2 0x804 DUP3 PUSH2 0x11FB JUMP JUMPDEST PUSH1 0x0 PUSH2 0x85E DUP5 DUP5 DUP5 PUSH2 0x1259 JUMP JUMPDEST PUSH1 0x0 PUSH17 0x14551231950B75FC4402DA1732FC9BEBE NOT DUP2 PUSH1 0x1 DUP2 PUSH1 0x1B DUP10 DUP4 AND ADD DUP11 DUP6 DUP13 DUP12 MULMOD PUSH1 0x40 DUP1 MLOAD PUSH1 0x0 DUP2 MSTORE PUSH1 0x20 DUP1 DUP3 ADD DUP1 DUP5 MSTORE SWAP7 SWAP1 SWAP7 MSTORE PUSH1 0xFF SWAP1 SWAP5 AND DUP5 DUP3 ADD MSTORE PUSH1 0x60 DUP5 ADD SWAP3 SWAP1 SWAP3 MSTORE PUSH1 0x80 DUP4 ADD MSTORE MLOAD PUSH1 0xA0 DUP1 DUP4 ADD SWAP4 SWAP3 PUSH1 0x1F NOT DUP4 ADD SWAP3 SWAP1 DUP2 SWAP1 SUB SWAP1 SWAP2 ADD SWAP1 DUP6 GAS STATICCALL ISZERO DUP1 ISZERO PUSH2 0x94A JUMPI RETURNDATASIZE PUSH1 0x0 DUP1 RETURNDATACOPY RETURNDATASIZE PUSH1 0x0 REVERT JUMPDEST POP POP PUSH1 0x40 DUP1 MLOAD PUSH1 0x1F NOT DUP2 ADD MLOAD PUSH1 0x20 DUP3 DUP2 ADD DUP11 SWAP1 MSTORE DUP3 DUP5 ADD DUP10 SWAP1 MSTORE DUP4 MLOAD DUP1 DUP5 SUB DUP6 ADD DUP2 MSTORE PUSH1 0x60 SWAP1 SWAP4 ADD SWAP1 SWAP4 MSTORE DUP2 MLOAD SWAP2 SWAP1 SWAP3 ADD KECCAK256 PUSH1 0x1 PUSH1 0x1 PUSH1 0xA0 SHL SUB SWAP2 DUP3 AND SWAP2 AND EQ SWAP4 POP POP POP POP SWAP6 SWAP5 POP POP POP POP POP JUMP JUMPDEST PUSH1 0x0 PUSH5 0x1000003D0 NOT DUP1 DUP5 LT ISZERO DUP1 PUSH2 0x9B0 JUMPI POP DUP1 DUP4 LT ISZERO JUMPDEST ISZERO PUSH2 0x9BF JUMPI PUSH1 0x0 SWAP2 POP POP PUSH2 0x7E3 JUMP JUMPDEST PUSH1 0x0 DUP2 DUP1 PUSH2 0x9C9 JUMPI INVALID JUMPDEST DUP5 DUP6 MULMOD SWAP1 POP PUSH1 0x0 DUP3 DUP1 PUSH2 0x9D8 JUMPI INVALID JUMPDEST PUSH1 0x7 DUP5 DUP1 PUSH2 0x9E2 JUMPI INVALID JUMPDEST DUP9 DUP7 DUP1 PUSH2 0x9EB JUMPI INVALID JUMPDEST DUP11 DUP12 MULMOD MULMOD ADDMOD SWAP2 SWAP1 SWAP2 EQ SWAP6 SWAP5 POP POP POP POP POP JUMP JUMPDEST PUSH2 0xA05 PUSH2 0x208D JUMP JUMPDEST PUSH1 0x40 DUP3 ADD MLOAD DUP1 PUSH2 0xA15 JUMPI POP PUSH2 0x807 JUMP JUMPDEST DUP3 MLOAD PUSH5 0x1000003D0 NOT SWAP1 PUSH1 0x0 DUP3 PUSH1 0x20 DUP8 ADD MLOAD PUSH1 0x2 MULMOD SWAP1 POP PUSH1 0x0 DUP4 DUP1 PUSH2 0xA36 JUMPI INVALID JUMPDEST DUP3 DUP4 MULMOD SWAP1 POP PUSH1 0x0 DUP5 DUP1 PUSH2 0xA45 JUMPI INVALID JUMPDEST DUP5 DUP4 MULMOD SWAP1 POP PUSH1 0x0 DUP6 DUP1 PUSH2 0xA54 JUMPI INVALID JUMPDEST DUP7 DUP1 PUSH2 0xA5C JUMPI INVALID JUMPDEST DUP7 DUP8 MULMOD PUSH1 0x3 MULMOD SWAP1 POP PUSH1 0x0 DUP7 DUP1 PUSH2 0xA6E JUMPI INVALID JUMPDEST DUP8 DUP1 PUSH2 0xA76 JUMPI INVALID JUMPDEST DUP5 PUSH5 0x1000003D2 NOT MULMOD DUP9 DUP1 PUSH2 0xA87 JUMPI INVALID JUMPDEST DUP5 DUP6 MULMOD ADDMOD DUP1 DUP11 MSTORE SWAP1 POP DUP7 DUP1 PUSH2 0xA98 JUMPI INVALID JUMPDEST DUP8 DUP1 PUSH2 0xAA0 JUMPI INVALID JUMPDEST DUP9 DUP1 PUSH2 0xAA8 JUMPI INVALID JUMPDEST DUP7 DUP8 MULMOD PUSH4 0x800001E9 PUSH1 0x1 PUSH1 0xFF SHL SUB MULMOD DUP9 DUP1 PUSH2 0xABF JUMPI INVALID JUMPDEST DUP10 DUP1 PUSH2 0xAC7 JUMPI INVALID JUMPDEST DUP5 DUP12 SUB DUP8 ADDMOD DUP6 MULMOD ADDMOD PUSH1 0x20 DUP11 ADD MSTORE DUP7 DUP1 PUSH2 0xADC JUMPI INVALID JUMPDEST DUP9 DUP7 MULMOD PUSH1 0x40 DUP11 ADD MSTORE POP SWAP7 SWAP9 SWAP8 POP POP POP POP POP POP POP POP JUMP JUMPDEST PUSH1 0x40 DUP2 ADD MLOAD PUSH1 0x0 SWAP1 DUP1 PUSH2 0xB09 JUMPI PUSH1 0x0 SWAP2 POP POP PUSH2 0x7E3 JUMP JUMPDEST PUSH5 0x1000003D0 NOT PUSH1 0x0 DUP2 DUP4 DUP5 MULMOD DUP6 MLOAD SWAP1 SWAP2 POP DUP3 DUP1 PUSH2 0xB23 JUMPI INVALID JUMPDEST DUP8 MLOAD DUP4 SWAP1 MULMOD EQ DUP1 ISZERO PUSH2 0x798 JUMPI POP PUSH1 0x20 DUP6 ADD MLOAD DUP3 DUP1 PUSH2 0xB3D JUMPI INVALID JUMPDEST DUP4 DUP1 PUSH2 0xB45 JUMPI INVALID JUMPDEST DUP6 DUP5 MULMOD PUSH1 0x20 DUP10 ADD MLOAD MULMOD EQ SWAP7 SWAP6 POP POP POP POP POP POP JUMP JUMPDEST PUSH1 0x0 DUP1 PUSH1 0x0 PUSH1 0x60 PUSH15 0x3430B9B42FBA37AFB1BAB93B32B137 PUSH1 0x89 SHL PUSH1 0x0 DUP1 SHL DUP7 PUSH1 0x40 MLOAD PUSH1 0x20 ADD DUP1 DUP5 DUP2 MSTORE PUSH1 0x20 ADD DUP4 DUP2 MSTORE PUSH1 0x20 ADD DUP3 DUP1 MLOAD SWAP1 PUSH1 0x20 ADD SWAP1 DUP1 DUP4 DUP4 JUMPDEST PUSH1 0x20 DUP4 LT PUSH2 0xBB6 JUMPI DUP1 MLOAD DUP3 MSTORE PUSH1 0x1F NOT SWAP1 SWAP3 ADD SWAP2 PUSH1 0x20 SWAP2 DUP3 ADD SWAP2 ADD PUSH2 0xB97 JUMP JUMPDEST PUSH1 0x1 DUP4 PUSH1 0x20 SUB PUSH2 0x100 EXP SUB DUP1 NOT DUP3 MLOAD AND DUP2 DUP5 MLOAD AND DUP1 DUP3 OR DUP6 MSTORE POP POP POP POP POP POP SWAP1 POP ADD SWAP4 POP POP POP POP PUSH1 0x40 MLOAD PUSH1 0x20 DUP2 DUP4 SUB SUB DUP2 MSTORE SWAP1 PUSH1 0x40 MSTORE SWAP1 POP PUSH1 0x0 DUP2 PUSH1 0x40 MLOAD PUSH1 0x20 ADD DUP1 DUP4 PUSH1 0xFF AND PUSH1 0xFF AND PUSH1 0xF8 SHL DUP2 MSTORE PUSH1 0x1 ADD DUP3 DUP1 MLOAD SWAP1 PUSH1 0x20 ADD SWAP1 DUP1 DUP4 DUP4 JUMPDEST PUSH1 0x20 DUP4 LT PUSH2 0xC32 JUMPI DUP1 MLOAD DUP3 MSTORE PUSH1 0x1F NOT SWAP1 SWAP3 ADD SWAP2 PUSH1 0x20 SWAP2 DUP3 ADD SWAP2 ADD PUSH2 0xC13 JUMP JUMPDEST PUSH1 0x1 DUP4 PUSH1 0x20 SUB PUSH2 0x100 EXP SUB DUP1 NOT DUP3 MLOAD AND DUP2 DUP5 MLOAD AND DUP1 DUP3 OR DUP6 MSTORE POP POP POP POP POP POP SWAP1 POP ADD SWAP3 POP POP POP PUSH1 0x40 MLOAD PUSH1 0x20 DUP2 DUP4 SUB SUB DUP2 MSTORE SWAP1 PUSH1 0x40 MSTORE DUP1 MLOAD SWAP1 PUSH1 0x20 ADD KECCAK256 PUSH1 0x1 DUP3 PUSH1 0x40 MLOAD PUSH1 0x20 ADD DUP1 DUP4 PUSH1 0xFF AND PUSH1 0xFF AND PUSH1 0xF8 SHL DUP2 MSTORE PUSH1 0x1 ADD DUP3 DUP1 MLOAD SWAP1 PUSH1 0x20 ADD SWAP1 DUP1 DUP4 DUP4 JUMPDEST PUSH1 0x20 DUP4 LT PUSH2 0xCB2 JUMPI DUP1 MLOAD DUP3 MSTORE PUSH1 0x1F NOT SWAP1 SWAP3 ADD SWAP2 PUSH1 0x20 SWAP2 DUP3 ADD SWAP2 ADD PUSH2 0xC93 JUMP JUMPDEST MLOAD DUP2 MLOAD PUSH1 0x20 SWAP4 DUP5 SUB PUSH2 0x100 EXP PUSH1 0x0 NOT ADD DUP1 NOT SWAP1 SWAP3 AND SWAP2 AND OR SWAP1 MSTORE PUSH1 0x40 DUP1 MLOAD SWAP3 SWAP1 SWAP5 ADD DUP3 DUP2 SUB PUSH1 0x1F NOT ADD DUP4 MSTORE SWAP1 SWAP4 MSTORE DUP1 MLOAD SWAP3 ADD SWAP2 SWAP1 SWAP2 KECCAK256 SWAP5 SWAP8 POP SWAP4 SWAP6 POP PUSH17 0x14551231950B75FC4402DA1732FC9BEC0 SWAP4 POP PUSH17 0x14551231950B75FC4402DA1732FC9BEBF NOT SWAP3 POP PUSH1 0x0 SWAP2 POP DUP3 SWAP1 POP DUP4 DUP8 MULMOD SWAP1 POP DUP2 DUP1 PUSH2 0xD2B JUMPI INVALID JUMPDEST DUP6 DUP3 ADDMOD PUSH1 0x1 ADD SWAP9 SWAP8 POP POP POP POP POP POP POP POP JUMP JUMPDEST PUSH1 0x0 PUSH1 0x1 DUP3 AND PUSH1 0x1 NOT DUP6 ADD PUSH1 0xFF AND EQ DUP1 DUP1 ISZERO PUSH2 0x8AC JUMPI POP PUSH2 0x8AC DUP5 DUP5 PUSH2 0x998 JUMP JUMPDEST PUSH2 0xD66 PUSH2 0x208D JUMP JUMPDEST DUP3 MLOAD PUSH1 0x20 DUP1 DUP6 ADD MLOAD DUP5 MLOAD SWAP2 DUP6 ADD MLOAD PUSH5 0x1000003D0 NOT SWAP4 SWAP3 SWAP1 DUP2 DUP5 EQ DUP1 ISZERO PUSH2 0xD8C JUMPI POP DUP1 DUP4 EQ JUMPDEST ISZERO PUSH2 0xDC1 JUMPI PUSH2 0xDB5 PUSH1 0x40 MLOAD DUP1 PUSH1 0x60 ADD PUSH1 0x40 MSTORE DUP1 DUP7 DUP2 MSTORE PUSH1 0x20 ADD DUP6 DUP2 MSTORE PUSH1 0x20 ADD PUSH1 0x1 DUP2 MSTORE POP PUSH2 0x9FD JUMP JUMPDEST SWAP6 POP POP POP POP POP POP PUSH2 0x7E3 JUMP JUMPDEST PUSH1 0x0 DUP6 DUP1 PUSH2 0xDCB JUMPI INVALID JUMPDEST DUP5 DUP8 SUB DUP4 ADDMOD SWAP1 POP PUSH1 0x0 DUP7 DUP1 PUSH2 0xDDC JUMPI INVALID JUMPDEST DUP7 DUP9 SUB DUP6 ADDMOD SWAP1 POP PUSH1 0x0 DUP8 DUP1 PUSH2 0xDED JUMPI INVALID JUMPDEST DUP3 DUP4 MULMOD SWAP1 POP PUSH1 0x0 DUP9 DUP1 PUSH2 0xDFC JUMPI INVALID JUMPDEST DUP4 DUP4 MULMOD SWAP1 POP PUSH1 0x0 DUP10 DUP1 PUSH2 0xE0B JUMPI INVALID JUMPDEST DUP4 DUP11 MULMOD SWAP1 POP DUP10 DUP1 PUSH2 0xE18 JUMPI INVALID JUMPDEST DUP11 DUP1 PUSH2 0xE20 JUMPI INVALID JUMPDEST DUP4 DUP13 DUP1 PUSH2 0xE29 JUMPI INVALID JUMPDEST DUP5 PUSH1 0x2 MULMOD ADDMOD DUP12 SUB DUP12 DUP1 PUSH2 0xE38 JUMPI INVALID JUMPDEST DUP8 DUP9 MULMOD ADDMOD DUP12 MSTORE DUP10 DUP1 PUSH2 0xE46 JUMPI INVALID JUMPDEST DUP11 DUP1 PUSH2 0xE4E JUMPI INVALID JUMPDEST DUP4 DUP11 MULMOD DUP12 SUB DUP12 DUP1 PUSH2 0xE5B JUMPI INVALID JUMPDEST DUP13 DUP1 PUSH2 0xE63 JUMPI INVALID JUMPDEST DUP15 MLOAD DUP15 SUB DUP6 ADDMOD DUP9 MULMOD ADDMOD PUSH1 0x20 DUP13 ADD MSTORE POP POP POP PUSH1 0x40 DUP9 ADD MSTORE POP SWAP5 SWAP8 SWAP7 POP POP POP POP POP POP POP JUMP JUMPDEST PUSH2 0xE8E PUSH2 0x20AB JUMP JUMPDEST DUP2 MLOAD PUSH1 0x62 EQ PUSH2 0xE9C JUMPI PUSH1 0x0 DUP1 REVERT JUMPDEST PUSH1 0x0 PUSH2 0xEA7 DUP4 PUSH2 0x1C84 JUMP JUMPDEST SWAP1 POP PUSH2 0xEB7 DUP2 DUP4 PUSH1 0x0 ADD MLOAD PUSH2 0x1C8A JUMP JUMPDEST SWAP1 POP PUSH2 0xEC7 DUP2 DUP4 PUSH1 0x20 ADD MLOAD PUSH2 0x1C8A JUMP JUMPDEST SWAP1 POP PUSH2 0xED2 DUP2 PUSH2 0x1CA5 JUMP JUMPDEST PUSH1 0x40 DUP4 ADD MSTORE POP SWAP2 SWAP1 POP JUMP JUMPDEST PUSH2 0xEE5 PUSH2 0x20D8 JUMP JUMPDEST DUP2 MLOAD PUSH2 0x167 DUP2 LT ISZERO PUSH2 0xEF6 JUMPI PUSH1 0x0 DUP1 REVERT JUMPDEST PUSH1 0x0 PUSH2 0xF01 DUP5 PUSH2 0x1C84 JUMP JUMPDEST SWAP1 POP PUSH2 0xF11 DUP2 DUP5 PUSH1 0x0 ADD MLOAD PUSH2 0x1C8A JUMP JUMPDEST SWAP1 POP PUSH2 0xF21 DUP2 DUP5 PUSH1 0x20 ADD MLOAD PUSH2 0x1C8A JUMP JUMPDEST SWAP1 POP PUSH2 0xF2C DUP2 PUSH2 0x1CA5 JUMP JUMPDEST PUSH1 0x40 DUP5 ADD MSTORE PUSH1 0x60 DUP4 ADD MLOAD PUSH1 0x20 SWAP2 SWAP1 SWAP2 ADD SWAP1 PUSH2 0xF48 SWAP1 DUP3 SWAP1 PUSH2 0x1C8A JUMP JUMPDEST SWAP1 POP PUSH2 0xF58 DUP2 PUSH1 0x82 NOT DUP5 ADD PUSH2 0x1CA9 JUMP JUMPDEST PUSH1 0x80 DUP5 ADD MSTORE POP SWAP1 SWAP3 SWAP2 POP POP JUMP JUMPDEST DUP2 MLOAD DUP1 MLOAD PUSH1 0x20 SWAP2 DUP3 ADD MLOAD DUP4 MLOAD DUP1 MLOAD SWAP1 DUP5 ADD MLOAD PUSH1 0x80 DUP7 ADD DUP1 MLOAD MLOAD DUP1 MLOAD SWAP1 DUP8 ADD MLOAD PUSH1 0x40 DUP1 MLOAD PUSH1 0x1 PUSH1 0x1 PUSH1 0xF8 SHL SUB NOT PUSH1 0xF8 SWAP10 DUP11 SHL DUP2 AND DUP3 DUP13 ADD MSTORE PUSH1 0x21 DUP3 ADD SWAP9 SWAP1 SWAP9 MSTORE SWAP6 DUP9 SHL DUP8 AND PUSH1 0x41 DUP8 ADD MSTORE PUSH1 0x42 DUP7 ADD SWAP5 SWAP1 SWAP5 MSTORE SWAP6 SHL SWAP1 SWAP4 AND PUSH1 0x62 DUP4 ADD MSTORE PUSH1 0x63 DUP1 DUP4 ADD SWAP5 SWAP1 SWAP5 MSTORE DUP1 MLOAD DUP1 DUP4 SUB SWAP1 SWAP5 ADD DUP5 MSTORE PUSH1 0x83 DUP3 ADD SWAP1 MSTORE DUP4 DUP7 ADD MLOAD DUP1 MLOAD SWAP1 DUP6 ADD MLOAD DUP7 DUP7 ADD MLOAD DUP1 MLOAD SWAP1 DUP8 ADD MLOAD SWAP5 MLOAD DUP8 ADD MLOAD DUP1 MLOAD SWAP1 DUP9 ADD MLOAD DUP8 MLOAD PUSH1 0x0 SWAP10 DUP10 SWAP9 SWAP7 SWAP8 SWAP6 SWAP7 SWAP5 SWAP6 PUSH1 0xA3 ADD SWAP2 DUP3 SWAP2 DUP11 ADD SWAP1 DUP1 DUP4 DUP4 JUMPDEST PUSH1 0x20 DUP4 LT PUSH2 0x1031 JUMPI DUP1 MLOAD DUP3 MSTORE PUSH1 0x1F NOT SWAP1 SWAP3 ADD SWAP2 PUSH1 0x20 SWAP2 DUP3 ADD SWAP2 ADD PUSH2 0x1012 JUMP JUMPDEST MLOAD DUP2 MLOAD PUSH1 0x20 SWAP4 DUP5 SUB PUSH2 0x100 EXP PUSH1 0x0 NOT ADD DUP1 NOT SWAP1 SWAP3 AND SWAP2 AND OR SWAP1 MSTORE PUSH1 0xF8 SWAP11 DUP12 SHL PUSH1 0x1 PUSH1 0x1 PUSH1 0xF8 SHL SUB NOT SWAP1 DUP2 AND SWAP3 SWAP1 SWAP5 ADD SWAP2 DUP3 MSTORE PUSH1 0x1 DUP3 ADD SWAP10 SWAP1 SWAP10 MSTORE SWAP7 DUP10 SHL DUP3 AND PUSH1 0x21 DUP9 ADD MSTORE POP PUSH1 0x22 DUP7 ADD SWAP5 SWAP1 SWAP5 MSTORE POP SWAP5 SHL AND PUSH1 0x42 DUP3 ADD MSTORE PUSH1 0x43 DUP1 DUP3 ADD SWAP4 SWAP1 SWAP4 MSTORE PUSH1 0x40 DUP1 MLOAD DUP1 DUP4 SUB SWAP1 SWAP5 ADD DUP5 MSTORE PUSH1 0x63 DUP3 ADD DUP2 MSTORE PUSH1 0x80 DUP9 ADD MLOAD SWAP1 DUP2 ADD MLOAD DUP1 MLOAD SWAP1 DUP5 ADD MLOAD PUSH1 0x60 DUP4 ADD MLOAD DUP1 MLOAD SWAP1 DUP7 ADD MLOAD PUSH1 0xC0 SWAP1 SWAP5 ADD MLOAD DUP8 MLOAD SWAP8 SWAP10 POP DUP10 SWAP9 POP PUSH1 0x1 PUSH1 0xF9 SHL SWAP8 PUSH32 0x3C98795773FF1C241FC0B1CCED85E80F8366581DDA5C9452175EBD41385FA1F SWAP8 SWAP5 SWAP7 SWAP4 SWAP6 SWAP3 SWAP5 SWAP3 SWAP4 SWAP2 SWAP3 PUSH1 0x83 SWAP1 SWAP3 ADD SWAP2 DUP3 SWAP2 SWAP1 DUP12 ADD SWAP1 DUP1 DUP4 DUP4 JUMPDEST PUSH1 0x20 DUP4 LT PUSH2 0x112B JUMPI DUP1 MLOAD DUP3 MSTORE PUSH1 0x1F NOT SWAP1 SWAP3 ADD SWAP2 PUSH1 0x20 SWAP2 DUP3 ADD SWAP2 ADD PUSH2 0x110C JUMP JUMPDEST MLOAD DUP2 MLOAD PUSH1 0x20 SWAP4 DUP5 SUB PUSH2 0x100 EXP PUSH1 0x0 NOT ADD DUP1 NOT SWAP1 SWAP3 AND SWAP2 AND OR SWAP1 MSTORE PUSH1 0x1 PUSH1 0x1 PUSH1 0xF8 SHL SUB NOT DUP13 DUP2 AND SWAP3 SWAP1 SWAP5 ADD SWAP2 DUP3 MSTORE PUSH1 0x1 DUP3 ADD DUP12 SWAP1 MSTORE PUSH1 0xF8 DUP11 DUP2 SHL DUP6 AND PUSH1 0x21 DUP5 ADD MSTORE PUSH1 0x22 DUP4 ADD DUP11 SWAP1 MSTORE DUP9 SWAP1 SHL SWAP1 SWAP4 AND PUSH1 0x42 DUP3 ADD MSTORE PUSH1 0x43 DUP2 ADD DUP7 SWAP1 MSTORE DUP5 MLOAD PUSH1 0x63 SWAP1 SWAP2 ADD SWAP3 DUP6 ADD SWAP2 POP DUP1 DUP4 DUP4 JUMPDEST PUSH1 0x20 DUP4 LT PUSH2 0x11B3 JUMPI DUP1 MLOAD DUP3 MSTORE PUSH1 0x1F NOT SWAP1 SWAP3 ADD SWAP2 PUSH1 0x20 SWAP2 DUP3 ADD SWAP2 ADD PUSH2 0x1194 JUMP JUMPDEST PUSH1 0x1 DUP4 PUSH1 0x20 SUB PUSH2 0x100 EXP SUB DUP1 NOT DUP3 MLOAD AND DUP2 DUP5 MLOAD AND DUP1 DUP3 OR DUP6 MSTORE POP POP POP POP POP POP SWAP1 POP ADD SWAP9 POP POP POP POP POP POP POP POP POP PUSH1 0x40 MLOAD PUSH1 0x20 DUP2 DUP4 SUB SUB DUP2 MSTORE SWAP1 PUSH1 0x40 MSTORE SWAP1 POP PUSH1 0x0 PUSH2 0x8AC DUP3 PUSH2 0xB59 JUMP JUMPDEST PUSH1 0x0 DUP2 MLOAD PUSH1 0x40 EQ PUSH2 0x123D JUMPI PUSH1 0x40 MLOAD PUSH3 0x461BCD PUSH1 0xE5 SHL DUP2 MSTORE PUSH1 0x4 ADD DUP1 DUP1 PUSH1 0x20 ADD DUP3 DUP2 SUB DUP3 MSTORE PUSH1 0x25 DUP2 MSTORE PUSH1 0x20 ADD DUP1 PUSH2 0x24ED PUSH1 0x25 SWAP2 CODECOPY PUSH1 0x40 ADD SWAP2 POP POP PUSH1 0x40 MLOAD DUP1 SWAP2 SUB SWAP1 REVERT JUMPDEST PUSH1 0x20 DUP3 ADD MLOAD PUSH1 0x40 DUP4 ADD MLOAD PUSH2 0x1251 DUP3 DUP3 PUSH2 0x998 JUMP JUMPDEST SWAP5 SWAP4 POP POP POP POP JUMP JUMPDEST PUSH1 0x0 PUSH2 0x1263 PUSH2 0x20AB JUMP JUMPDEST PUSH2 0x126C DUP6 PUSH2 0xE86 JUMP JUMPDEST SWAP1 POP PUSH2 0x1276 PUSH2 0x20D8 JUMP JUMPDEST PUSH2 0x127F DUP6 PUSH2 0xEDD JUMP JUMPDEST SWAP1 POP PUSH2 0x1289 PUSH2 0x211E JUMP JUMPDEST PUSH2 0x1292 DUP6 PUSH2 0x1DAF JUMP JUMPDEST SWAP1 POP PUSH1 0x0 PUSH2 0x1344 DUP3 PUSH2 0x280 ADD MLOAD DUP5 PUSH1 0x80 ADD MLOAD PUSH1 0xA0 ADD MLOAD DUP5 PUSH2 0x2C0 ADD MLOAD PUSH1 0x0 PUSH1 0x5 DUP2 LT PUSH2 0x12BA JUMPI INVALID JUMPDEST BYTE PUSH1 0xF8 SHL PUSH1 0x40 MLOAD PUSH1 0x20 ADD DUP1 DUP4 DUP1 MLOAD SWAP1 PUSH1 0x20 ADD SWAP1 DUP1 DUP4 DUP4 JUMPDEST PUSH1 0x20 DUP4 LT PUSH2 0x12F0 JUMPI DUP1 MLOAD DUP3 MSTORE PUSH1 0x1F NOT SWAP1 SWAP3 ADD SWAP2 PUSH1 0x20 SWAP2 DUP3 ADD SWAP2 ADD PUSH2 0x12D1 JUMP JUMPDEST PUSH1 0x1 DUP4 PUSH1 0x20 SUB PUSH2 0x100 EXP SUB DUP1 NOT DUP3 MLOAD AND DUP2 DUP5 MLOAD AND DUP1 DUP3 OR DUP6 MSTORE POP POP POP POP POP POP SWAP1 POP ADD DUP3 PUSH1 0x1 PUSH1 0x1 PUSH1 0xF8 SHL SUB NOT AND PUSH1 0x1 PUSH1 0x1 PUSH1 0xF8 SHL SUB NOT AND DUP2 MSTORE PUSH1 0x1 ADD SWAP3 POP POP POP PUSH1 0x40 MLOAD PUSH1 0x20 DUP2 DUP4 SUB SUB DUP2 MSTORE SWAP1 PUSH1 0x40 MSTORE PUSH2 0x1F8D JUMP JUMPDEST SWAP1 POP DUP2 PUSH2 0x2A0 ADD MLOAD PUSH1 0x1 PUSH1 0x1 PUSH1 0xA0 SHL SUB AND DUP2 PUSH1 0x1 PUSH1 0x1 PUSH1 0xA0 SHL SUB AND EQ PUSH2 0x13A7 JUMPI PUSH1 0x40 DUP1 MLOAD PUSH3 0x461BCD PUSH1 0xE5 SHL DUP2 MSTORE PUSH1 0x20 PUSH1 0x4 DUP3 ADD MSTORE PUSH1 0x13 PUSH1 0x24 DUP3 ADD MSTORE PUSH19 0x426164204B46726167207369676E6174757265 PUSH1 0x68 SHL PUSH1 0x44 DUP3 ADD MSTORE SWAP1 MLOAD SWAP1 DUP2 SWAP1 SUB PUSH1 0x64 ADD SWAP1 REVERT JUMPDEST PUSH1 0x0 PUSH2 0x13B3 DUP6 DUP6 PUSH2 0xF65 JUMP JUMPDEST DUP6 MLOAD DUP1 MLOAD PUSH1 0x20 SWAP1 SWAP2 ADD MLOAD DUP6 MLOAD SWAP3 SWAP4 POP PUSH2 0x13CB SWAP3 PUSH2 0xD3D JUMP JUMPDEST PUSH2 0x1406 JUMPI PUSH1 0x40 MLOAD PUSH3 0x461BCD PUSH1 0xE5 SHL DUP2 MSTORE PUSH1 0x4 ADD DUP1 DUP1 PUSH1 0x20 ADD DUP3 DUP2 SUB DUP3 MSTORE PUSH1 0x46 DUP2 MSTORE PUSH1 0x20 ADD DUP1 PUSH2 0x23AF PUSH1 0x46 SWAP2 CODECOPY PUSH1 0x60 ADD SWAP2 POP POP PUSH1 0x40 MLOAD DUP1 SWAP2 SUB SWAP1 REVERT JUMPDEST PUSH2 0x1418 DUP4 PUSH1 0x20 ADD MLOAD DUP5 PUSH1 0x40 ADD MLOAD PUSH2 0x998 JUMP JUMPDEST PUSH2 0x1469 JUMPI PUSH1 0x40 DUP1 MLOAD PUSH3 0x461BCD PUSH1 0xE5 SHL DUP2 MSTORE PUSH1 0x20 PUSH1 0x4 DUP3 ADD DUP2 SWAP1 MSTORE PUSH1 0x24 DUP3 ADD MSTORE PUSH32 0x506F696E74207A45206973206E6F7420612076616C696420454320706F696E74 PUSH1 0x44 DUP3 ADD MSTORE SWAP1 MLOAD SWAP1 DUP2 SWAP1 SUB PUSH1 0x64 ADD SWAP1 REVERT JUMPDEST PUSH2 0x1492 DUP6 PUSH1 0x0 ADD MLOAD PUSH1 0x20 ADD MLOAD DUP5 PUSH1 0x0 ADD MLOAD DUP7 PUSH1 0x80 ADD MLOAD PUSH1 0x80 ADD MLOAD DUP7 PUSH1 0x20 ADD MLOAD DUP8 PUSH1 0x40 ADD MLOAD PUSH2 0x8D2 JUMP JUMPDEST PUSH2 0x14CD JUMPI PUSH1 0x40 MLOAD PUSH3 0x461BCD PUSH1 0xE5 SHL DUP2 MSTORE PUSH1 0x4 ADD DUP1 DUP1 PUSH1 0x20 ADD DUP3 DUP2 SUB DUP3 MSTORE PUSH1 0x22 DUP2 MSTORE PUSH1 0x20 ADD DUP1 PUSH2 0x2271 PUSH1 0x22 SWAP2 CODECOPY PUSH1 0x40 ADD SWAP2 POP POP PUSH1 0x40 MLOAD DUP1 SWAP2 SUB SWAP1 REVERT JUMPDEST DUP4 MLOAD DUP1 MLOAD PUSH1 0x20 SWAP1 SWAP2 ADD MLOAD PUSH1 0x60 DUP6 ADD MLOAD PUSH2 0x14E7 SWAP3 SWAP2 SWAP1 PUSH2 0xD3D JUMP JUMPDEST PUSH2 0x1522 JUMPI PUSH1 0x40 MLOAD PUSH3 0x461BCD PUSH1 0xE5 SHL DUP2 MSTORE PUSH1 0x4 ADD DUP1 DUP1 PUSH1 0x20 ADD DUP3 DUP2 SUB DUP3 MSTORE PUSH1 0x48 DUP2 MSTORE PUSH1 0x20 ADD DUP1 PUSH2 0x2483 PUSH1 0x48 SWAP2 CODECOPY PUSH1 0x60 ADD SWAP2 POP POP PUSH1 0x40 MLOAD DUP1 SWAP2 SUB SWAP1 REVERT JUMPDEST PUSH2 0x1534 DUP4 PUSH1 0x80 ADD MLOAD DUP5 PUSH1 0xA0 ADD MLOAD PUSH2 0x998 JUMP JUMPDEST PUSH2 0x156F JUMPI PUSH1 0x40 MLOAD PUSH3 0x461BCD PUSH1 0xE5 SHL DUP2 MSTORE PUSH1 0x4 ADD DUP1 DUP1 PUSH1 0x20 ADD DUP3 DUP2 SUB DUP3 MSTORE PUSH1 0x22 DUP2 MSTORE PUSH1 0x20 ADD DUP1 PUSH2 0x24CB PUSH1 0x22 SWAP2 CODECOPY PUSH1 0x40 ADD SWAP2 POP POP PUSH1 0x40 MLOAD DUP1 SWAP2 SUB SWAP1 REVERT JUMPDEST PUSH2 0x1590 DUP5 PUSH1 0x0 ADD MLOAD PUSH1 0x20 ADD MLOAD DUP5 PUSH1 0x60 ADD MLOAD DUP4 DUP7 PUSH1 0x80 ADD MLOAD DUP8 PUSH1 0xA0 ADD MLOAD PUSH2 0x8D2 JUMP JUMPDEST PUSH2 0x15CB JUMPI PUSH1 0x40 MLOAD PUSH3 0x461BCD PUSH1 0xE5 SHL DUP2 MSTORE PUSH1 0x4 ADD DUP1 DUP1 PUSH1 0x20 ADD DUP3 DUP2 SUB DUP3 MSTORE PUSH1 0x23 DUP2 MSTORE PUSH1 0x20 ADD DUP1 PUSH2 0x25C0 PUSH1 0x23 SWAP2 CODECOPY PUSH1 0x40 ADD SWAP2 POP POP PUSH1 0x40 MLOAD DUP1 SWAP2 SUB SWAP1 REVERT JUMPDEST PUSH1 0x80 DUP5 ADD MLOAD MLOAD DUP1 MLOAD PUSH1 0x20 SWAP1 SWAP2 ADD MLOAD PUSH1 0xC0 DUP6 ADD MLOAD PUSH2 0x15E9 SWAP3 SWAP2 SWAP1 PUSH2 0xD3D JUMP JUMPDEST PUSH2 0x1624 JUMPI PUSH1 0x40 MLOAD PUSH3 0x461BCD PUSH1 0xE5 SHL DUP2 MSTORE PUSH1 0x4 ADD DUP1 DUP1 PUSH1 0x20 ADD DUP3 DUP2 SUB DUP3 MSTORE PUSH1 0x48 DUP2 MSTORE PUSH1 0x20 ADD DUP1 PUSH2 0x2578 PUSH1 0x48 SWAP2 CODECOPY PUSH1 0x60 ADD SWAP2 POP POP PUSH1 0x40 MLOAD DUP1 SWAP2 SUB SWAP1 REVERT JUMPDEST PUSH1 0x0 PUSH2 0x1695 PUSH1 0x40 MLOAD DUP1 PUSH1 0x40 ADD PUSH1 0x40 MSTORE DUP1 DUP7 PUSH1 0x20 ADD MLOAD DUP2 MSTORE PUSH1 0x20 ADD DUP7 PUSH1 0x40 ADD MLOAD DUP2 MSTORE POP PUSH2 0x1690 PUSH1 0x40 MLOAD DUP1 PUSH1 0x40 ADD PUSH1 0x40 MSTORE DUP1 DUP10 PUSH1 0x80 ADD MLOAD PUSH1 0x0 ADD MLOAD PUSH1 0x20 ADD MLOAD DUP2 MSTORE PUSH1 0x20 ADD DUP9 PUSH1 0xC0 ADD MLOAD DUP2 MSTORE POP PUSH1 0x40 MLOAD DUP1 PUSH1 0x40 ADD PUSH1 0x40 MSTORE DUP1 DUP10 PUSH1 0x80 ADD MLOAD DUP2 MSTORE PUSH1 0x20 ADD DUP10 PUSH1 0xA0 ADD MLOAD DUP2 MSTORE POP PUSH2 0xD5E JUMP JUMPDEST PUSH2 0xAF2 JUMP JUMPDEST SWAP1 POP DUP1 PUSH2 0x16AB JUMPI PUSH1 0x0 SWAP7 POP POP POP POP POP POP POP PUSH2 0x861 JUMP JUMPDEST PUSH1 0x20 DUP1 DUP8 ADD MLOAD DUP1 MLOAD SWAP2 ADD MLOAD PUSH1 0xE0 DUP7 ADD MLOAD PUSH2 0x16C6 SWAP3 SWAP2 SWAP1 PUSH2 0xD3D JUMP JUMPDEST PUSH2 0x1701 JUMPI PUSH1 0x40 MLOAD PUSH3 0x461BCD PUSH1 0xE5 SHL DUP2 MSTORE PUSH1 0x4 ADD DUP1 DUP1 PUSH1 0x20 ADD DUP3 DUP2 SUB DUP3 MSTORE PUSH1 0x46 DUP2 MSTORE PUSH1 0x20 ADD DUP1 PUSH2 0x23F5 PUSH1 0x46 SWAP2 CODECOPY PUSH1 0x60 ADD SWAP2 POP POP PUSH1 0x40 MLOAD DUP1 SWAP2 SUB SWAP1 REVERT JUMPDEST PUSH2 0x1715 DUP5 PUSH2 0x100 ADD MLOAD DUP6 PUSH2 0x120 ADD MLOAD PUSH2 0x998 JUMP JUMPDEST PUSH2 0x1766 JUMPI PUSH1 0x40 DUP1 MLOAD PUSH3 0x461BCD PUSH1 0xE5 SHL DUP2 MSTORE PUSH1 0x20 PUSH1 0x4 DUP3 ADD DUP2 SWAP1 MSTORE PUSH1 0x24 DUP3 ADD MSTORE PUSH32 0x506F696E74207A56206973206E6F7420612076616C696420454320706F696E74 PUSH1 0x44 DUP3 ADD MSTORE SWAP1 MLOAD SWAP1 DUP2 SWAP1 SUB PUSH1 0x64 ADD SWAP1 REVERT JUMPDEST PUSH2 0x1791 DUP7 PUSH1 0x20 ADD MLOAD PUSH1 0x20 ADD MLOAD DUP6 PUSH1 0xE0 ADD MLOAD DUP8 PUSH1 0x80 ADD MLOAD PUSH1 0x80 ADD MLOAD DUP8 PUSH2 0x100 ADD MLOAD DUP9 PUSH2 0x120 ADD MLOAD PUSH2 0x8D2 JUMP JUMPDEST PUSH2 0x17CC JUMPI PUSH1 0x40 MLOAD PUSH3 0x461BCD PUSH1 0xE5 SHL DUP2 MSTORE PUSH1 0x4 ADD DUP1 DUP1 PUSH1 0x20 ADD DUP3 DUP2 SUB DUP3 MSTORE PUSH1 0x22 DUP2 MSTORE PUSH1 0x20 ADD DUP1 PUSH2 0x2323 PUSH1 0x22 SWAP2 CODECOPY PUSH1 0x40 ADD SWAP2 POP POP PUSH1 0x40 MLOAD DUP1 SWAP2 SUB SWAP1 REVERT JUMPDEST PUSH1 0x20 DUP1 DUP7 ADD MLOAD DUP1 MLOAD SWAP2 ADD MLOAD PUSH2 0x140 DUP7 ADD MLOAD PUSH2 0x17E8 SWAP3 SWAP2 SWAP1 PUSH2 0xD3D JUMP JUMPDEST PUSH2 0x1823 JUMPI PUSH1 0x40 MLOAD PUSH3 0x461BCD PUSH1 0xE5 SHL DUP2 MSTORE PUSH1 0x4 ADD DUP1 DUP1 PUSH1 0x20 ADD DUP3 DUP2 SUB DUP3 MSTORE PUSH1 0x48 DUP2 MSTORE PUSH1 0x20 ADD DUP1 PUSH2 0x243B PUSH1 0x48 SWAP2 CODECOPY PUSH1 0x60 ADD SWAP2 POP POP PUSH1 0x40 MLOAD DUP1 SWAP2 SUB SWAP1 REVERT JUMPDEST PUSH2 0x1837 DUP5 PUSH2 0x160 ADD MLOAD DUP6 PUSH2 0x180 ADD MLOAD PUSH2 0x998 JUMP JUMPDEST PUSH2 0x1872 JUMPI PUSH1 0x40 MLOAD PUSH3 0x461BCD PUSH1 0xE5 SHL DUP2 MSTORE PUSH1 0x4 ADD DUP1 DUP1 PUSH1 0x20 ADD DUP3 DUP2 SUB DUP3 MSTORE PUSH1 0x22 DUP2 MSTORE PUSH1 0x20 ADD DUP1 PUSH2 0x2533 PUSH1 0x22 SWAP2 CODECOPY PUSH1 0x40 ADD SWAP2 POP POP PUSH1 0x40 MLOAD DUP1 SWAP2 SUB SWAP1 REVERT JUMPDEST PUSH2 0x1896 DUP6 PUSH1 0x20 ADD MLOAD PUSH1 0x20 ADD MLOAD DUP6 PUSH2 0x140 ADD MLOAD DUP5 DUP8 PUSH2 0x160 ADD MLOAD DUP9 PUSH2 0x180 ADD MLOAD PUSH2 0x8D2 JUMP JUMPDEST PUSH2 0x18D1 JUMPI PUSH1 0x40 MLOAD PUSH3 0x461BCD PUSH1 0xE5 SHL DUP2 MSTORE PUSH1 0x4 ADD DUP1 DUP1 PUSH1 0x20 ADD DUP3 DUP2 SUB DUP3 MSTORE PUSH1 0x23 DUP2 MSTORE PUSH1 0x20 ADD DUP1 PUSH2 0x2555 PUSH1 0x23 SWAP2 CODECOPY PUSH1 0x40 ADD SWAP2 POP POP PUSH1 0x40 MLOAD DUP1 SWAP2 SUB SWAP1 REVERT JUMPDEST PUSH1 0x80 DUP6 ADD MLOAD PUSH1 0x20 SWAP1 DUP2 ADD MLOAD DUP1 MLOAD SWAP2 ADD MLOAD PUSH2 0x1A0 DUP7 ADD MLOAD PUSH2 0x18F2 SWAP3 SWAP2 SWAP1 PUSH2 0xD3D JUMP JUMPDEST PUSH2 0x192D JUMPI PUSH1 0x40 MLOAD PUSH3 0x461BCD PUSH1 0xE5 SHL DUP2 MSTORE PUSH1 0x4 ADD DUP1 DUP1 PUSH1 0x20 ADD DUP3 DUP2 SUB DUP3 MSTORE PUSH1 0x48 DUP2 MSTORE PUSH1 0x20 ADD DUP1 PUSH2 0x2345 PUSH1 0x48 SWAP2 CODECOPY PUSH1 0x60 ADD SWAP2 POP POP PUSH1 0x40 MLOAD DUP1 SWAP2 SUB SWAP1 REVERT JUMPDEST PUSH2 0x199C PUSH1 0x40 MLOAD DUP1 PUSH1 0x40 ADD PUSH1 0x40 MSTORE DUP1 DUP7 PUSH2 0x100 ADD MLOAD DUP2 MSTORE PUSH1 0x20 ADD DUP7 PUSH2 0x120 ADD MLOAD DUP2 MSTORE POP PUSH2 0x1690 PUSH1 0x40 MLOAD DUP1 PUSH1 0x40 ADD PUSH1 0x40 MSTORE DUP1 DUP10 PUSH1 0x80 ADD MLOAD PUSH1 0x20 ADD MLOAD PUSH1 0x20 ADD MLOAD DUP2 MSTORE PUSH1 0x20 ADD DUP9 PUSH2 0x1A0 ADD MLOAD DUP2 MSTORE POP PUSH1 0x40 MLOAD DUP1 PUSH1 0x40 ADD PUSH1 0x40 MSTORE DUP1 DUP10 PUSH2 0x160 ADD MLOAD DUP2 MSTORE PUSH1 0x20 ADD DUP10 PUSH2 0x180 ADD MLOAD DUP2 MSTORE POP PUSH2 0xD5E JUMP JUMPDEST SWAP1 POP DUP1 PUSH2 0x19B2 JUMPI PUSH1 0x0 SWAP7 POP POP POP POP POP POP POP PUSH2 0x861 JUMP JUMPDEST PUSH2 0x19C6 DUP5 PUSH2 0x1C0 ADD MLOAD DUP6 PUSH2 0x1E0 ADD MLOAD PUSH2 0x998 JUMP JUMPDEST PUSH2 0x1A01 JUMPI PUSH1 0x40 MLOAD PUSH3 0x461BCD PUSH1 0xE5 SHL DUP2 MSTORE PUSH1 0x4 ADD DUP1 DUP1 PUSH1 0x20 ADD DUP3 DUP2 SUB DUP3 MSTORE PUSH1 0x21 DUP2 MSTORE PUSH1 0x20 ADD DUP1 PUSH2 0x2512 PUSH1 0x21 SWAP2 CODECOPY PUSH1 0x40 ADD SWAP2 POP POP PUSH1 0x40 MLOAD DUP1 SWAP2 SUB SWAP1 REVERT JUMPDEST PUSH2 0x1A60 PUSH32 0x3C98795773FF1C241FC0B1CCED85E80F8366581DDA5C9452175EBD41385FA1F PUSH32 0x7880ED56962D7C0AE44D6F14BB53B5FE64B31EA44A41D0316F3A598778F0F936 DUP8 PUSH1 0x80 ADD MLOAD PUSH1 0x80 ADD MLOAD DUP8 PUSH2 0x1C0 ADD MLOAD DUP9 PUSH2 0x1E0 ADD MLOAD PUSH2 0x8D2 JUMP JUMPDEST PUSH2 0x1A9B JUMPI PUSH1 0x40 MLOAD PUSH3 0x461BCD PUSH1 0xE5 SHL DUP2 MSTORE PUSH1 0x4 ADD DUP1 DUP1 PUSH1 0x20 ADD DUP3 DUP2 SUB DUP3 MSTORE PUSH1 0x22 DUP2 MSTORE PUSH1 0x20 ADD DUP1 PUSH2 0x238D PUSH1 0x22 SWAP2 CODECOPY PUSH1 0x40 ADD SWAP2 POP POP PUSH1 0x40 MLOAD DUP1 SWAP2 SUB SWAP1 REVERT JUMPDEST PUSH1 0x80 DUP6 ADD MLOAD PUSH1 0x40 ADD MLOAD DUP1 MLOAD PUSH1 0x20 SWAP1 SWAP2 ADD MLOAD PUSH2 0x200 DUP7 ADD MLOAD PUSH2 0x1ABD SWAP3 SWAP2 SWAP1 PUSH2 0xD3D JUMP JUMPDEST PUSH2 0x1AF8 JUMPI PUSH1 0x40 MLOAD PUSH3 0x461BCD PUSH1 0xE5 SHL DUP2 MSTORE PUSH1 0x4 ADD DUP1 DUP1 PUSH1 0x20 ADD DUP3 DUP2 SUB DUP3 MSTORE PUSH1 0x48 DUP2 MSTORE PUSH1 0x20 ADD DUP1 PUSH2 0x22DB PUSH1 0x48 SWAP2 CODECOPY PUSH1 0x60 ADD SWAP2 POP POP PUSH1 0x40 MLOAD DUP1 SWAP2 SUB SWAP1 REVERT JUMPDEST PUSH2 0x1B0C DUP5 PUSH2 0x220 ADD MLOAD DUP6 PUSH2 0x240 ADD MLOAD PUSH2 0x998 JUMP JUMPDEST PUSH2 0x1B47 JUMPI PUSH1 0x40 MLOAD PUSH3 0x461BCD PUSH1 0xE5 SHL DUP2 MSTORE PUSH1 0x4 ADD DUP1 DUP1 PUSH1 0x20 ADD DUP3 DUP2 SUB DUP3 MSTORE PUSH1 0x22 DUP2 MSTORE PUSH1 0x20 ADD DUP1 PUSH2 0x224F PUSH1 0x22 SWAP2 CODECOPY PUSH1 0x40 ADD SWAP2 POP POP PUSH1 0x40 MLOAD DUP1 SWAP2 SUB SWAP1 REVERT JUMPDEST PUSH2 0x1B6F DUP6 PUSH1 0x80 ADD MLOAD PUSH1 0x40 ADD MLOAD PUSH1 0x20 ADD MLOAD DUP6 PUSH2 0x200 ADD MLOAD DUP5 DUP8 PUSH2 0x220 ADD MLOAD DUP9 PUSH2 0x240 ADD MLOAD PUSH2 0x8D2 JUMP JUMPDEST PUSH2 0x1BAA JUMPI PUSH1 0x40 MLOAD PUSH3 0x461BCD PUSH1 0xE5 SHL DUP2 MSTORE PUSH1 0x4 ADD DUP1 DUP1 PUSH1 0x20 ADD DUP3 DUP2 SUB DUP3 MSTORE PUSH1 0x23 DUP2 MSTORE PUSH1 0x20 ADD DUP1 PUSH2 0x2555 PUSH1 0x23 SWAP2 CODECOPY PUSH1 0x40 ADD SWAP2 POP POP PUSH1 0x40 MLOAD DUP1 SWAP2 SUB SWAP1 REVERT JUMPDEST PUSH1 0x80 DUP6 ADD MLOAD PUSH1 0x60 ADD MLOAD DUP1 MLOAD PUSH1 0x20 SWAP1 SWAP2 ADD MLOAD PUSH2 0x260 DUP7 ADD MLOAD PUSH2 0x1BCC SWAP3 SWAP2 SWAP1 PUSH2 0xD3D JUMP JUMPDEST PUSH2 0x1C07 JUMPI PUSH1 0x40 MLOAD PUSH3 0x461BCD PUSH1 0xE5 SHL DUP2 MSTORE PUSH1 0x4 ADD DUP1 DUP1 PUSH1 0x20 ADD DUP3 DUP2 SUB DUP3 MSTORE PUSH1 0x48 DUP2 MSTORE PUSH1 0x20 ADD DUP1 PUSH2 0x2293 PUSH1 0x48 SWAP2 CODECOPY PUSH1 0x60 ADD SWAP2 POP POP PUSH1 0x40 MLOAD DUP1 SWAP2 SUB SWAP1 REVERT JUMPDEST PUSH2 0x1C76 PUSH1 0x40 MLOAD DUP1 PUSH1 0x40 ADD PUSH1 0x40 MSTORE DUP1 DUP7 PUSH2 0x1C0 ADD MLOAD DUP2 MSTORE PUSH1 0x20 ADD DUP7 PUSH2 0x1E0 ADD MLOAD DUP2 MSTORE POP PUSH2 0x1690 PUSH1 0x40 MLOAD DUP1 PUSH1 0x40 ADD PUSH1 0x40 MSTORE DUP1 DUP10 PUSH1 0x80 ADD MLOAD PUSH1 0x60 ADD MLOAD PUSH1 0x20 ADD MLOAD DUP2 MSTORE PUSH1 0x20 ADD DUP9 PUSH2 0x260 ADD MLOAD DUP2 MSTORE POP PUSH1 0x40 MLOAD DUP1 PUSH1 0x40 ADD PUSH1 0x40 MSTORE DUP1 DUP10 PUSH2 0x220 ADD MLOAD DUP2 MSTORE PUSH1 0x20 ADD DUP10 PUSH2 0x240 ADD MLOAD DUP2 MSTORE POP PUSH2 0xD5E JUMP JUMPDEST SWAP11 SWAP10 POP POP POP POP POP POP POP POP POP POP JUMP JUMPDEST PUSH1 0x20 ADD SWAP1 JUMP JUMPDEST DUP2 MLOAD PUSH1 0x1 DUP4 ADD MLOAD PUSH1 0x0 SWAP2 SWAP1 SWAP2 BYTE DUP3 MSTORE PUSH1 0x20 SWAP1 SWAP2 ADD MSTORE PUSH1 0x21 ADD SWAP1 JUMP JUMPDEST MLOAD SWAP1 JUMP JUMPDEST PUSH2 0x1CB1 PUSH2 0x21E2 JUMP JUMPDEST PUSH1 0xE4 DUP3 LT ISZERO PUSH2 0x1CBF JUMPI PUSH1 0x0 DUP1 REVERT JUMPDEST PUSH2 0x1CCD DUP4 DUP3 PUSH1 0x0 ADD MLOAD PUSH2 0x1C8A JUMP JUMPDEST SWAP3 POP PUSH2 0x1CDD DUP4 DUP3 PUSH1 0x20 ADD MLOAD PUSH2 0x1C8A JUMP JUMPDEST SWAP3 POP PUSH2 0x1CED DUP4 DUP3 PUSH1 0x40 ADD MLOAD PUSH2 0x1C8A JUMP JUMPDEST SWAP3 POP PUSH2 0x1CFD DUP4 DUP3 PUSH1 0x60 ADD MLOAD PUSH2 0x1C8A JUMP JUMPDEST SWAP3 POP PUSH2 0x1D08 DUP4 PUSH2 0x1CA5 JUMP JUMPDEST PUSH1 0x80 DUP3 ADD MSTORE PUSH1 0x40 DUP1 MLOAD DUP2 DUP2 MSTORE PUSH1 0x60 DUP2 ADD DUP3 MSTORE PUSH1 0x20 SWAP5 SWAP1 SWAP5 ADD SWAP4 SWAP1 PUSH1 0x20 DUP3 ADD DUP2 DUP1 CALLDATASIZE DUP4 CALLDATACOPY POP POP POP PUSH1 0xA0 DUP3 ADD DUP2 SWAP1 MSTORE PUSH2 0x1D42 SWAP1 DUP5 SWAP1 PUSH1 0x40 PUSH2 0x2046 JUMP JUMPDEST SWAP3 POP PUSH1 0xE4 DUP3 GT ISZERO PUSH2 0x7E3 JUMPI PUSH1 0xE3 NOT DUP3 ADD PUSH8 0xFFFFFFFFFFFFFFFF DUP2 GT DUP1 ISZERO PUSH2 0x1D68 JUMPI PUSH1 0x0 DUP1 REVERT JUMPDEST POP PUSH1 0x40 MLOAD SWAP1 DUP1 DUP3 MSTORE DUP1 PUSH1 0x1F ADD PUSH1 0x1F NOT AND PUSH1 0x20 ADD DUP3 ADD PUSH1 0x40 MSTORE DUP1 ISZERO PUSH2 0x1D93 JUMPI PUSH1 0x20 DUP3 ADD DUP2 DUP1 CALLDATASIZE DUP4 CALLDATACOPY ADD SWAP1 POP JUMPDEST POP PUSH1 0xC0 DUP3 ADD DUP2 SWAP1 MSTORE DUP1 MLOAD PUSH2 0x1DA8 SWAP2 DUP6 SWAP2 PUSH2 0x2046 JUMP JUMPDEST POP SWAP3 SWAP2 POP POP JUMP JUMPDEST PUSH2 0x1DB7 PUSH2 0x211E JUMP JUMPDEST DUP2 MLOAD PUSH2 0x2B9 EQ PUSH2 0x1DC6 JUMPI PUSH1 0x0 DUP1 REVERT JUMPDEST PUSH1 0x0 PUSH2 0x1DD1 DUP4 PUSH2 0x1C84 JUMP JUMPDEST SWAP1 POP DUP1 PUSH2 0x1DDD DUP2 PUSH2 0x1CA5 JUMP JUMPDEST DUP4 MSTORE PUSH1 0x20 ADD PUSH2 0x1DEB DUP2 PUSH2 0x1CA5 JUMP JUMPDEST PUSH1 0x20 DUP1 DUP6 ADD SWAP2 SWAP1 SWAP2 MSTORE ADD PUSH2 0x1DFE DUP2 PUSH2 0x1CA5 JUMP JUMPDEST PUSH1 0x40 DUP5 ADD MSTORE PUSH1 0x20 ADD PUSH2 0x1E0F DUP2 PUSH2 0x1CA5 JUMP JUMPDEST PUSH1 0x60 DUP5 ADD MSTORE PUSH1 0x20 ADD PUSH2 0x1E20 DUP2 PUSH2 0x1CA5 JUMP JUMPDEST PUSH1 0x80 DUP5 ADD MSTORE PUSH1 0x20 ADD PUSH2 0x1E31 DUP2 PUSH2 0x1CA5 JUMP JUMPDEST PUSH1 0xA0 DUP5 ADD MSTORE PUSH1 0x20 ADD PUSH2 0x1E42 DUP2 PUSH2 0x1CA5 JUMP JUMPDEST PUSH1 0xC0 DUP5 ADD MSTORE PUSH1 0x20 ADD PUSH2 0x1E53 DUP2 PUSH2 0x1CA5 JUMP JUMPDEST PUSH1 0xE0 DUP5 ADD MSTORE PUSH1 0x20 ADD PUSH2 0x1E64 DUP2 PUSH2 0x1CA5 JUMP JUMPDEST PUSH2 0x100 DUP5 ADD MSTORE PUSH1 0x20 ADD PUSH2 0x1E76 DUP2 PUSH2 0x1CA5 JUMP JUMPDEST PUSH2 0x120 DUP5 ADD MSTORE PUSH1 0x20 ADD PUSH2 0x1E88 DUP2 PUSH2 0x1CA5 JUMP JUMPDEST PUSH2 0x140 DUP5 ADD MSTORE PUSH1 0x20 ADD PUSH2 0x1E9A DUP2 PUSH2 0x1CA5 JUMP JUMPDEST PUSH2 0x160 DUP5 ADD MSTORE PUSH1 0x20 ADD PUSH2 0x1EAC DUP2 PUSH2 0x1CA5 JUMP JUMPDEST PUSH2 0x180 DUP5 ADD MSTORE PUSH1 0x20 ADD PUSH2 0x1EBE DUP2 PUSH2 0x1CA5 JUMP JUMPDEST PUSH2 0x1A0 DUP5 ADD MSTORE PUSH1 0x20 ADD PUSH2 0x1ED0 DUP2 PUSH2 0x1CA5 JUMP JUMPDEST PUSH2 0x1C0 DUP5 ADD MSTORE PUSH1 0x20 ADD PUSH2 0x1EE2 DUP2 PUSH2 0x1CA5 JUMP JUMPDEST PUSH2 0x1E0 DUP5 ADD MSTORE PUSH1 0x20 ADD PUSH2 0x1EF4 DUP2 PUSH2 0x1CA5 JUMP JUMPDEST PUSH2 0x200 DUP5 ADD MSTORE PUSH1 0x20 ADD PUSH2 0x1F06 DUP2 PUSH2 0x1CA5 JUMP JUMPDEST PUSH2 0x220 DUP5 ADD MSTORE PUSH1 0x20 ADD PUSH2 0x1F18 DUP2 PUSH2 0x1CA5 JUMP JUMPDEST PUSH2 0x240 DUP5 ADD MSTORE PUSH1 0x20 ADD PUSH2 0x1F2A DUP2 PUSH2 0x1CA5 JUMP JUMPDEST PUSH2 0x260 DUP5 ADD MSTORE PUSH1 0x20 ADD PUSH2 0x1F3C DUP2 PUSH2 0x1CA5 JUMP JUMPDEST PUSH2 0x280 DUP5 ADD MSTORE PUSH1 0x20 ADD PUSH2 0x1F4E DUP2 PUSH2 0x1CA5 JUMP JUMPDEST PUSH1 0x60 SHR PUSH2 0x2A0 DUP5 ADD MSTORE PUSH1 0x14 ADD PUSH2 0x1F63 DUP2 PUSH2 0x1CA5 JUMP JUMPDEST PUSH1 0x1 PUSH1 0x1 PUSH1 0xD8 SHL SUB NOT AND PUSH2 0x2C0 DUP5 ADD MSTORE PUSH1 0x5 ADD PUSH2 0x2B9 DUP3 ADD DUP2 EQ PUSH2 0x1F86 JUMPI PUSH1 0x0 DUP1 REVERT JUMPDEST POP POP SWAP2 SWAP1 POP JUMP JUMPDEST PUSH1 0x0 DUP2 MLOAD PUSH1 0x41 EQ PUSH2 0x1F9D JUMPI PUSH1 0x0 DUP1 REVERT JUMPDEST PUSH1 0x20 DUP3 ADD MLOAD PUSH1 0x40 DUP4 ADD MLOAD PUSH1 0x60 DUP5 ADD MLOAD PUSH1 0x0 BYTE PUSH1 0x1B DUP2 LT ISZERO PUSH2 0x1FBC JUMPI PUSH1 0x1B ADD JUMPDEST DUP1 PUSH1 0xFF AND PUSH1 0x1B EQ DUP1 PUSH2 0x1FD1 JUMPI POP DUP1 PUSH1 0xFF AND PUSH1 0x1C EQ JUMPDEST PUSH2 0x1FDA JUMPI PUSH1 0x0 DUP1 REVERT JUMPDEST PUSH1 0x40 DUP1 MLOAD PUSH1 0x0 DUP2 MSTORE PUSH1 0x20 DUP1 DUP3 ADD DUP1 DUP5 MSTORE DUP10 SWAP1 MSTORE PUSH1 0xFF DUP5 AND DUP3 DUP5 ADD MSTORE PUSH1 0x60 DUP3 ADD DUP7 SWAP1 MSTORE PUSH1 0x80 DUP3 ADD DUP6 SWAP1 MSTORE SWAP2 MLOAD PUSH1 0x1 SWAP3 PUSH1 0xA0 DUP1 DUP5 ADD SWAP4 SWAP2 SWAP3 PUSH1 0x1F NOT DUP2 ADD SWAP3 DUP2 SWAP1 SUB SWAP1 SWAP2 ADD SWAP1 DUP6 GAS STATICCALL ISZERO DUP1 ISZERO PUSH2 0x2031 JUMPI RETURNDATASIZE PUSH1 0x0 DUP1 RETURNDATACOPY RETURNDATASIZE PUSH1 0x0 REVERT JUMPDEST POP POP PUSH1 0x40 MLOAD PUSH1 0x1F NOT ADD MLOAD SWAP8 SWAP7 POP POP POP POP POP POP POP JUMP JUMPDEST PUSH1 0x0 PUSH1 0x20 PUSH1 0x1F DUP4 ADD DIV DUP5 PUSH1 0x20 DUP6 ADD PUSH1 0x0 JUMPDEST DUP4 DUP2 LT ISZERO PUSH2 0x2073 JUMPI PUSH1 0x20 DUP2 MUL DUP4 DUP2 ADD MLOAD SWAP1 DUP4 ADD MSTORE PUSH1 0x1 ADD PUSH2 0x2057 JUMP JUMPDEST POP POP POP POP PUSH1 0x0 DUP4 MLOAD PUSH1 0x20 ADD DUP5 ADD MSTORE DUP2 DUP5 ADD SWAP1 POP SWAP4 SWAP3 POP POP POP JUMP JUMPDEST PUSH1 0x40 MLOAD DUP1 PUSH1 0x60 ADD PUSH1 0x40 MSTORE DUP1 PUSH1 0x3 SWAP1 PUSH1 0x20 DUP3 MUL DUP1 CALLDATASIZE DUP4 CALLDATACOPY POP SWAP2 SWAP3 SWAP2 POP POP JUMP JUMPDEST PUSH1 0x40 MLOAD DUP1 PUSH1 0x60 ADD PUSH1 0x40 MSTORE DUP1 PUSH2 0x20BE PUSH2 0x2237 JUMP JUMPDEST DUP2 MSTORE PUSH1 0x20 ADD PUSH2 0x20CB PUSH2 0x2237 JUMP JUMPDEST DUP2 MSTORE PUSH1 0x20 ADD PUSH1 0x0 DUP2 MSTORE POP SWAP1 JUMP JUMPDEST PUSH1 0x40 MLOAD DUP1 PUSH1 0xA0 ADD PUSH1 0x40 MSTORE DUP1 PUSH2 0x20EB PUSH2 0x2237 JUMP JUMPDEST DUP2 MSTORE PUSH1 0x20 ADD PUSH2 0x20F8 PUSH2 0x2237 JUMP JUMPDEST DUP2 MSTORE PUSH1 0x0 PUSH1 0x20 DUP3 ADD MSTORE PUSH1 0x40 ADD PUSH2 0x210C PUSH2 0x2237 JUMP JUMPDEST DUP2 MSTORE PUSH1 0x20 ADD PUSH2 0x2119 PUSH2 0x21E2 JUMP JUMPDEST SWAP1 MSTORE SWAP1 JUMP JUMPDEST PUSH1 0x40 MLOAD DUP1 PUSH2 0x2E0 ADD PUSH1 0x40 MSTORE DUP1 PUSH1 0x0 DUP2 MSTORE PUSH1 0x20 ADD PUSH1 0x0 DUP2 MSTORE PUSH1 0x20 ADD PUSH1 0x0 DUP2 MSTORE PUSH1 0x20 ADD PUSH1 0x0 DUP2 MSTORE PUSH1 0x20 ADD PUSH1 0x0 DUP2 MSTORE PUSH1 0x20 ADD PUSH1 0x0 DUP2 MSTORE PUSH1 0x20 ADD PUSH1 0x0 DUP2 MSTORE PUSH1 0x20 ADD PUSH1 0x0 DUP2 MSTORE PUSH1 0x20 ADD PUSH1 0x0 DUP2 MSTORE PUSH1 0x20 ADD PUSH1 0x0 DUP2 MSTORE PUSH1 0x20 ADD PUSH1 0x0 DUP2 MSTORE PUSH1 0x20 ADD PUSH1 0x0 DUP2 MSTORE PUSH1 0x20 ADD PUSH1 0x0 DUP2 MSTORE PUSH1 0x20 ADD PUSH1 0x0 DUP2 MSTORE PUSH1 0x20 ADD PUSH1 0x0 DUP2 MSTORE PUSH1 0x20 ADD PUSH1 0x0 DUP2 MSTORE PUSH1 0x20 ADD PUSH1 0x0 DUP2 MSTORE PUSH1 0x20 ADD PUSH1 0x0 DUP2 MSTORE PUSH1 0x20 ADD PUSH1 0x0 DUP2 MSTORE PUSH1 0x20 ADD PUSH1 0x0 DUP2 MSTORE PUSH1 0x20 ADD PUSH1 0x0 DUP1 NOT AND DUP2 MSTORE PUSH1 0x20 ADD PUSH1 0x0 PUSH1 0x1 PUSH1 0x1 PUSH1 0xA0 SHL SUB AND DUP2 MSTORE PUSH1 0x20 ADD PUSH1 0x0 PUSH1 0x1 PUSH1 0x1 PUSH1 0xD8 SHL SUB NOT AND DUP2 MSTORE POP SWAP1 JUMP JUMPDEST PUSH1 0x40 MLOAD DUP1 PUSH1 0xE0 ADD PUSH1 0x40 MSTORE DUP1 PUSH2 0x21F5 PUSH2 0x2237 JUMP JUMPDEST DUP2 MSTORE PUSH1 0x20 ADD PUSH2 0x2202 PUSH2 0x2237 JUMP JUMPDEST DUP2 MSTORE PUSH1 0x20 ADD PUSH2 0x220F PUSH2 0x2237 JUMP JUMPDEST DUP2 MSTORE PUSH1 0x20 ADD PUSH2 0x221C PUSH2 0x2237 JUMP JUMPDEST DUP2 MSTORE PUSH1 0x20 ADD PUSH1 0x0 DUP2 MSTORE PUSH1 0x20 ADD PUSH1 0x60 DUP2 MSTORE PUSH1 0x20 ADD PUSH1 0x60 DUP2 MSTORE POP SWAP1 JUMP JUMPDEST PUSH1 0x40 DUP1 MLOAD DUP1 DUP3 ADD SWAP1 SWAP2 MSTORE PUSH1 0x0 DUP1 DUP3 MSTORE PUSH1 0x20 DUP3 ADD MSTORE SWAP1 JUMP INVALID POP PUSH16 0x696E7420682A5531206973206E6F7420 PUSH2 0x2076 PUSH2 0x6C69 PUSH5 0x2045432070 PUSH16 0x696E74507265636F6D7075746564207A 0x2A GASLIMIT KECCAK256 PUSH23 0x616C756520697320696E636F7272656374507265636F6D PUSH17 0x75746564205920636F6F7264696E617465 KECCAK256 PUSH16 0x6620553220646F65736E277420636F72 PUSH19 0x6573706F6E6420746F20636F6D707265737365 PUSH5 0x2055322070 PUSH16 0x696E74507265636F6D70757465642059 KECCAK256 PUSH4 0x6F6F7264 PUSH10 0x6E617465206F66205531 KECCAK256 PUSH5 0x6F65736E27 PUSH21 0x20636F72726573706F6E6420746F20636F6D707265 PUSH20 0x73656420553120706F696E74507265636F6D7075 PUSH21 0x6564207A2A562076616C756520697320696E636F72 PUSH19 0x656374507265636F6D7075746564205920636F PUSH16 0x7264696E617465206F6620563220646F PUSH6 0x736E27742063 PUSH16 0x72726573706F6E6420746F20636F6D70 PUSH19 0x657373656420563220706F696E74507265636F PUSH14 0x7075746564207A2A552076616C75 PUSH6 0x20697320696E PUSH4 0x6F727265 PUSH4 0x74507265 PUSH4 0x6F6D7075 PUSH21 0x6564205920636F6F7264696E617465206F66204520 PUSH5 0x6F65736E27 PUSH21 0x20636F72726573706F6E6420746F20636F6D707265 PUSH20 0x736564204520706F696E74507265636F6D707574 PUSH6 0x64205920636F PUSH16 0x7264696E617465206F66205620646F65 PUSH20 0x6E277420636F72726573706F6E6420746F20636F PUSH14 0x70726573736564205620706F696E PUSH21 0x507265636F6D7075746564205920636F6F7264696E PUSH2 0x7465 KECCAK256 PUSH16 0x6620563120646F65736E277420636F72 PUSH19 0x6573706F6E6420746F20636F6D707265737365 PUSH5 0x2056312070 PUSH16 0x696E74507265636F6D70757465642059 KECCAK256 PUSH4 0x6F6F7264 PUSH10 0x6E617465206F66204531 KECCAK256 PUSH5 0x6F65736E27 PUSH21 0x20636F72726573706F6E6420746F20636F6D707265 PUSH20 0x73656420453120706F696E74506F696E7420682A GASLIMIT BALANCE KECCAK256 PUSH10 0x73206E6F742061207661 PUSH13 0x696420454320706F696E745365 PUSH19 0x69616C697A656420636F6F7264696E61746573 KECCAK256 PUSH20 0x686F756C642062652036342042506F696E74207A 0x2A SSTORE KECCAK256 PUSH10 0x73206E6F742061207661 PUSH13 0x696420454320706F696E74506F PUSH10 0x6E7420682A5631206973 KECCAK256 PUSH15 0x6F7420612076616C69642045432070 PUSH16 0x696E74507265636F6D70757465642068 0x2A JUMP BALANCE KECCAK256 PUSH23 0x616C756520697320696E636F7272656374507265636F6D PUSH17 0x75746564205920636F6F7264696E617465 KECCAK256 PUSH16 0x6620453220646F65736E277420636F72 PUSH19 0x6573706F6E6420746F20636F6D707265737365 PUSH5 0x2045322070 PUSH16 0x696E74507265636F6D70757465642068 0x2A GASLIMIT BALANCE KECCAK256 PUSH23 0x616C756520697320696E636F7272656374A26469706673 PC 0x22 SLT KECCAK256 0xEE 0xD0 DUP3 0x4C 0xC6 0xA6 0xCC 0x2C 0x28 LOG1 CALL DUP11 0x24 SLT 0xAC 0xE3 BALANCE 0xFB 0x25 0x26 DIFFICULTY SLOAD 0xAB PUSH4 0x259E8438 0xA6 0xB3 DUP3 JUMPDEST PUSH5 0x736F6C6343 STOP MOD SMOD STOP CALLER ",
  "sha1": "bd2ed14b64f0f8e7ed3de2611feec520efd7759c",
  "source": "pragma solidity ^0.6.1;\n\n\nimport \"contracts/lib/SignatureVerifier.sol\";\nimport \"contracts/lib/Snapshot.sol\";\nimport \"contracts/lib/UmbralDeserializer.sol\";\nimport \"contracts/lib/ReEncryptionValidator.sol\";\n\n/**\n* @notice Contract for using SignatureVerifier library\n*/\ncontract SignatureVerifierMock {\n\n    function recover(bytes32 _hash, bytes memory _signature)\n        public\n        pure\n        returns (address)\n    {\n        return SignatureVerifier.recover(_hash, _signature);\n    }\n\n    function toAddress(bytes memory _publicKey) public pure returns (address) {\n        return SignatureVerifier.toAddress(_publicKey);\n    }\n\n    function hash(bytes memory _message, SignatureVerifier.HashAlgorithm _algorithm)\n        public\n        pure\n        returns (bytes32 result)\n    {\n        return SignatureVerifier.hash(_message, _algorithm);\n    }\n\n    function verify(\n        bytes memory _message,\n        bytes memory _signature,\n        bytes memory _publicKey,\n        SignatureVerifier.HashAlgorithm _algorithm\n    )\n        public\n        pure\n        returns (bool)\n    {\n        return SignatureVerifier.verify(_message, _signature, _publicKey, _algorithm);\n    }\n\n    function verifyEIP191(\n        bytes memory _message,\n        bytes memory _signature,\n        bytes memory _publicKey,\n        byte _version\n    )\n        public\n        view\n        returns (bool)\n    {\n        return SignatureVerifier.verifyEIP191(_message, _signature, _publicKey, _version);\n    }\n\n    function hashEIP191(\n        bytes memory _message,\n        byte _version\n    )\n        public\n        view\n        returns (bytes32)\n    {\n        return SignatureVerifier.hashEIP191(_message, _version);\n    }\n\n}\n\n\n/**\n* @dev Contract for testing UmbralDeserializer library\n*/\ncontract UmbralDeserializerMock {\n    using UmbralDeserializer for bytes;\n\n    function toCapsule(bytes memory _capsuleBytes)\n        public pure returns (\n            byte pointESign,\n            bytes32 pointEXCoord,\n            byte pointVSign,\n            bytes32 pointVXCoord,\n            bytes32 bnSig\n        )\n    {\n        UmbralDeserializer.Capsule memory capsule = _capsuleBytes.toCapsule();\n        pointESign = byte(capsule.pointE.sign);\n        pointEXCoord = bytes32(capsule.pointE.xCoord);\n        pointVSign = byte(capsule.pointV.sign);\n        pointVXCoord = bytes32(capsule.pointV.xCoord);\n        bnSig = bytes32(capsule.bnSig);\n    }\n\n    function toCorrectnessProof(bytes memory _proofBytes)\n        public pure returns (\n            byte pointE2Sign,\n            bytes32 pointE2XCoord,\n            byte pointV2Sign,\n            bytes32 pointV2XCoord,\n            byte pointKFragCommitmentSign,\n            bytes32 pointKFragCommitmentXCoord,\n            byte pointKFragPokSign,\n            bytes32 pointKFragPokXCoord,\n            bytes32 bnSig,\n            bytes memory kFragSignature,\n            bytes memory metadata\n        )\n    {\n        UmbralDeserializer.CorrectnessProof memory proof = _proofBytes.toCorrectnessProof();\n        pointE2Sign = byte(proof.pointE2.sign);\n        pointE2XCoord = bytes32(proof.pointE2.xCoord);\n        pointV2Sign = byte(proof.pointV2.sign);\n        pointV2XCoord = bytes32(proof.pointV2.xCoord);\n        pointKFragCommitmentSign = byte(proof.pointKFragCommitment.sign);\n        pointKFragCommitmentXCoord = bytes32(proof.pointKFragCommitment.xCoord);\n        pointKFragPokSign = byte(proof.pointKFragPok.sign);\n        pointKFragPokXCoord = bytes32(proof.pointKFragPok.xCoord);\n        bnSig = bytes32(proof.bnSig);\n        kFragSignature = proof.kFragSignature;\n        metadata = proof.metadata;\n    }\n\n    // `toCapsuleFrag` is split into two methods because of EVM stack problems with many variables\n    function toCorrectnessProofFromCapsuleFrag(bytes memory _cFragBytes)\n        public pure returns (\n            byte pointE2Sign,\n            bytes32 pointE2XCoord,\n            byte pointV2Sign,\n            bytes32 pointV2XCoord,\n            byte pointKFragCommitmentSign,\n            bytes32 pointKFragCommitmentXCoord,\n            byte pointKFragPokSign,\n            bytes32 pointKFragPokXCoord,\n            bytes32 bnSig,\n            bytes memory kFragSignature,\n            bytes memory metadata\n        )\n    {\n        UmbralDeserializer.CapsuleFrag memory cFrag = _cFragBytes.toCapsuleFrag();\n        UmbralDeserializer.CorrectnessProof memory proof = cFrag.proof;\n        pointE2Sign = byte(proof.pointE2.sign);\n        pointE2XCoord = bytes32(proof.pointE2.xCoord);\n        pointV2Sign = byte(proof.pointV2.sign);\n        pointV2XCoord = bytes32(proof.pointV2.xCoord);\n        pointKFragCommitmentSign = byte(proof.pointKFragCommitment.sign);\n        pointKFragCommitmentXCoord = bytes32(proof.pointKFragCommitment.xCoord);\n        pointKFragPokSign = byte(proof.pointKFragPok.sign);\n        pointKFragPokXCoord = bytes32(proof.pointKFragPok.xCoord);\n        bnSig = bytes32(proof.bnSig);\n        kFragSignature = proof.kFragSignature;\n        metadata = proof.metadata;\n    }\n\n    function toCapsuleFrag(bytes memory _cFragBytes)\n        public pure returns (\n            byte pointE1Sign,\n            bytes32 pointE1XCoord,\n            byte pointV1Sign,\n            bytes32 pointV1XCoord,\n            bytes32 kFragId,\n            byte pointPrecursorSign,\n            bytes32 pointPrecursorXCoord\n        )\n    {\n        UmbralDeserializer.CapsuleFrag memory cFrag = _cFragBytes.toCapsuleFrag();\n        pointE1Sign = byte(cFrag.pointE1.sign);\n        pointE1XCoord = bytes32(cFrag.pointE1.xCoord);\n        pointV1Sign = byte(cFrag.pointV1.sign);\n        pointV1XCoord = bytes32(cFrag.pointV1.xCoord);\n        kFragId = cFrag.kFragId;\n        pointPrecursorSign = byte(cFrag.pointPrecursor.sign);\n        pointPrecursorXCoord = bytes32(cFrag.pointPrecursor.xCoord);\n    }\n}\n\n\n/**\n* @notice Contract for using ReEncryptionValidator library\n*/\ncontract ReEncryptionValidatorMock {\n\n    using UmbralDeserializer for bytes;\n\n    function UMBRAL_PARAMETER_U_SIGN() public pure returns (uint8) {\n        return ReEncryptionValidator.UMBRAL_PARAMETER_U_SIGN;\n    }\n\n    function UMBRAL_PARAMETER_U_XCOORD() public pure returns (uint256) {\n        return ReEncryptionValidator.UMBRAL_PARAMETER_U_XCOORD;\n    }\n\n    function UMBRAL_PARAMETER_U_YCOORD() public pure returns (uint256) {\n        return ReEncryptionValidator.UMBRAL_PARAMETER_U_YCOORD;\n    }\n\n    function FIELD_ORDER() public pure returns (uint256) {\n        return ReEncryptionValidator.FIELD_ORDER;\n    }\n\n    function MINUS_2() public pure returns (uint256) {\n        return ReEncryptionValidator.MINUS_2;\n    }\n\n    function MINUS_ONE_HALF() public pure returns (uint256) {\n        return ReEncryptionValidator.MINUS_ONE_HALF;\n    }\n\n    function validateCFrag(\n        bytes memory _capsuleBytes,\n        bytes memory _cFragBytes,\n        bytes memory _precomputedBytes\n    )\n        public pure returns (bool)\n    {\n        return ReEncryptionValidator.validateCFrag(_capsuleBytes, _cFragBytes, _precomputedBytes);\n    }\n\n    function computeProofChallengeScalar(\n        bytes memory _capsuleBytes,\n        bytes memory _cFragBytes\n    )\n        public pure returns (uint256)\n    {\n        UmbralDeserializer.Capsule memory _capsule = _capsuleBytes.toCapsule();\n        UmbralDeserializer.CapsuleFrag memory _cFrag = _cFragBytes.toCapsuleFrag();\n        return ReEncryptionValidator.computeProofChallengeScalar(_capsule, _cFrag);\n    }\n\n    function extendedKeccakToBN (bytes memory _data) public pure returns (uint256) {\n        return ReEncryptionValidator.extendedKeccakToBN(_data);\n    }\n\n\tfunction checkCompressedPoint(\n\t\tuint8 _pointSign,\n\t\tuint256 _pointX,\n\t\tuint256 _pointY\n\t) public pure returns(bool) {\n        return ReEncryptionValidator.checkCompressedPoint(_pointSign, _pointX, _pointY);\n\t}\n\n    function checkSerializedCoordinates(bytes memory _coords) public pure returns(bool) {\n\t\treturn ReEncryptionValidator.checkSerializedCoordinates(_coords);\n\t}\n\n    function isOnCurve(uint256 Px, uint256 Py) public pure returns (bool) {\n        return ReEncryptionValidator.isOnCurve(Px, Py);\n    }\n\n    function ecmulVerify(\n    \tuint256 x1,\n    \tuint256 y1,\n    \tuint256 scalar,\n    \tuint256 qx,\n    \tuint256 qy\n    ) public pure returns(bool) {\n        return ReEncryptionValidator.ecmulVerify(x1, y1, scalar, qx, qy);\n\t}\n\n    function eqAffineJacobian(\n    \tuint256[2] memory P,\n    \tuint256[3] memory Q\n    ) public pure returns(bool){\n        return ReEncryptionValidator.eqAffineJacobian(P, Q);\n    }\n\n    function addAffineJacobian(\n    \tuint[2] memory P,\n    \tuint[2] memory Q\n    ) public pure returns (uint[3] memory) {\n        return ReEncryptionValidator.addAffineJacobian(P, Q);\n    }\n\n    function doubleJacobian(uint[3] memory P) public pure returns (uint[3] memory) {\n        return ReEncryptionValidator.doubleJacobian(P);\n    }\n}\n\n/**\n* @notice Contract for using Snapshot library\n*/\ncontract SnapshotMock {\n\n    // Helpers\n    uint128[] public history;\n\n    function length() public view returns(uint256){\n        return history.length;\n    }\n\n    function deleteHistory() public {\n        delete history;\n    }\n\n    // Mock functions\n    function encodeSnapshot(uint32 _time, uint96 _value) public pure returns(uint128) {\n        return Snapshot.encodeSnapshot(_time, _value);\n    }\n\n    function decodeSnapshot(uint128 _snapshot) public pure returns(uint32, uint96){\n        return Snapshot.decodeSnapshot(_snapshot);\n    }\n\n    function addSnapshot(uint256 _time, uint256 _value) public {\n        Snapshot.addSnapshot(history, _time, _value);\n    }\n\n    function getValueAt(uint256 _time) public view returns (uint96) {\n        return Snapshot.getValueAt(history, _time);\n    }\n\n    function lastSnapshot() public view returns (uint32, uint96) {\n        return Snapshot.lastSnapshot(history);\n    }\n\n    function lastValue() public view returns (uint96) {\n        return Snapshot.lastValue(history);\n    }\n\n\n}\n",
  "sourcePath": "contracts/LibTestSet.sol",
  "type": "contract"
}