{
  "abi": [
    {
      "inputs": [
        {
          "internalType": "bytes",
          "name": "_message",
          "type": "bytes"
        },
        {
          "internalType": "enum SignatureVerifier.HashAlgorithm",
          "name": "_algorithm",
          "type": "uint8"
        }
      ],
      "name": "hash",
      "outputs": [
        {
          "internalType": "bytes32",
          "name": "result",
          "type": "bytes32"
        }
      ],
      "stateMutability": "pure",
      "type": "function"
    },
    {
      "inputs": [
        {
          "internalType": "bytes",
          "name": "_message",
          "type": "bytes"
        },
        {
          "internalType": "bytes1",
          "name": "_version",
          "type": "bytes1"
        }
      ],
      "name": "hashEIP191",
      "outputs": [
        {
          "internalType": "bytes32",
          "name": "",
          "type": "bytes32"
        }
      ],
      "stateMutability": "view",
      "type": "function"
    },
    {
      "inputs": [
        {
          "internalType": "bytes32",
          "name": "_hash",
          "type": "bytes32"
        },
        {
          "internalType": "bytes",
          "name": "_signature",
          "type": "bytes"
        }
      ],
      "name": "recover",
      "outputs": [
        {
          "internalType": "address",
          "name": "",
          "type": "address"
        }
      ],
      "stateMutability": "pure",
      "type": "function"
    },
    {
      "inputs": [
        {
          "internalType": "bytes",
          "name": "_publicKey",
          "type": "bytes"
        }
      ],
      "name": "toAddress",
      "outputs": [
        {
          "internalType": "address",
          "name": "",
          "type": "address"
        }
      ],
      "stateMutability": "pure",
      "type": "function"
    },
    {
      "inputs": [
        {
          "internalType": "bytes",
          "name": "_message",
          "type": "bytes"
        },
        {
          "internalType": "bytes",
          "name": "_signature",
          "type": "bytes"
        },
        {
          "internalType": "bytes",
          "name": "_publicKey",
          "type": "bytes"
        },
        {
          "internalType": "enum SignatureVerifier.HashAlgorithm",
          "name": "_algorithm",
          "type": "uint8"
        }
      ],
      "name": "verify",
      "outputs": [
        {
          "internalType": "bool",
          "name": "",
          "type": "bool"
        }
      ],
      "stateMutability": "pure",
      "type": "function"
    },
    {
      "inputs": [
        {
          "internalType": "bytes",
          "name": "_message",
          "type": "bytes"
        },
        {
          "internalType": "bytes",
          "name": "_signature",
          "type": "bytes"
        },
        {
          "internalType": "bytes",
          "name": "_publicKey",
          "type": "bytes"
        },
        {
          "internalType": "bytes1",
          "name": "_version",
          "type": "bytes1"
        }
      ],
      "name": "verifyEIP191",
      "outputs": [
        {
          "internalType": "bool",
          "name": "",
          "type": "bool"
        }
      ],
      "stateMutability": "view",
      "type": "function"
    }
  ],
  "bytecode": "608060405234801561001057600080fd5b50610cf8806100206000396000f3fe608060405234801561001057600080fd5b50600436106100625760003560e01c80630c3ff1c51461006757806319045a25146102355780631c932c58146102fc5780632d888869146103b757806353cb0f371461045b578063715873ba1461050b575b600080fd5b6102216004803603608081101561007d57600080fd5b810190602081018135600160201b81111561009757600080fd5b8201836020820111156100a957600080fd5b803590602001918460018302840111600160201b831117156100ca57600080fd5b91908080601f0160208091040260200160405190810160405280939291908181526020018383808284376000920191909152509295949360208101935035915050600160201b81111561011c57600080fd5b82018360208201111561012e57600080fd5b803590602001918460018302840111600160201b8311171561014f57600080fd5b91908080601f0160208091040260200160405190810160405280939291908181526020018383808284376000920191909152509295949360208101935035915050600160201b8111156101a157600080fd5b8201836020820111156101b357600080fd5b803590602001918460018302840111600160201b831117156101d457600080fd5b91908080601f016020809104026020016040519081016040528093929190818152602001838380828437600092019190915250929550505090356001600160f81b03191691506106be9050565b604080519115158252519081900360200190f35b6102e06004803603604081101561024b57600080fd5b81359190810190604081016020820135600160201b81111561026c57600080fd5b82018360208201111561027e57600080fd5b803590602001918460018302840111600160201b8311171561029f57600080fd5b91908080601f0160208091040260200160405190810160405280939291908181526020018383808284376000920191909152509295506106d5945050505050565b604080516001600160a01b039092168252519081900360200190f35b6103a56004803603604081101561031257600080fd5b810190602081018135600160201b81111561032c57600080fd5b82018360208201111561033e57600080fd5b803590602001918460018302840111600160201b8311171561035f57600080fd5b91908080601f0160208091040260200160405190810160405280939291908181526020018383808284376000920191909152509295505050903560ff1691506106ea9050565b60408051918252519081900360200190f35b6102e0600480360360208110156103cd57600080fd5b810190602081018135600160201b8111156103e757600080fd5b8201836020820111156103f957600080fd5b803590602001918460018302840111600160201b8311171561041a57600080fd5b91908080601f0160208091040260200160405190810160405280939291908181526020018383808284376000920191909152509295506106f6945050505050565b6103a56004803603604081101561047157600080fd5b810190602081018135600160201b81111561048b57600080fd5b82018360208201111561049d57600080fd5b803590602001918460018302840111600160201b831117156104be57600080fd5b91908080601f016020809104026020016040519081016040528093929190818152602001838380828437600092019190915250929550505090356001600160f81b03191691506107019050565b6102216004803603608081101561052157600080fd5b810190602081018135600160201b81111561053b57600080fd5b82018360208201111561054d57600080fd5b803590602001918460018302840111600160201b8311171561056e57600080fd5b91908080601f0160208091040260200160405190810160405280939291908181526020018383808284376000920191909152509295949360208101935035915050600160201b8111156105c057600080fd5b8201836020820111156105d257600080fd5b803590602001918460018302840111600160201b831117156105f357600080fd5b91908080601f0160208091040260200160405190810160405280939291908181526020018383808284376000920191909152509295949360208101935035915050600160201b81111561064557600080fd5b82018360208201111561065757600080fd5b803590602001918460018302840111600160201b8311171561067857600080fd5b91908080601f0160208091040260200160405190810160405280939291908181526020018383808284376000920191909152509295505050903560ff16915061070d9050565b60006106cc8585858561071b565b95945050505050565b60006106e18383610763565b90505b92915050565b60006106e1838361081c565b60006106e482610973565b60006106e1838361097e565b60006106cc85858585610c7e565b6000825160401461072b57600080fd5b61073e610738868461097e565b85610763565b6001600160a01b031661075084610973565b6001600160a01b03161495945050505050565b6000815160411461077357600080fd5b60208201516040830151606084015160001a601b81101561079257601b015b8060ff16601b14806107a757508060ff16601c145b6107b057600080fd5b6040805160008152602080820180845289905260ff8416828401526060820186905260808201859052915160019260a0808401939192601f1981019281900390910190855afa158015610807573d6000803e3d6000fd5b5050604051601f190151979650505050505050565b60008082600281111561082b57fe5b141561083e5750815160208301206106e4565b600182600281111561084c57fe5b14156108e1576002836040518082805190602001908083835b602083106108845780518252601f199092019160209182019101610865565b51815160209384036101000a60001901801990921691161790526040519190930194509192505080830381855afa1580156108c3573d6000803e3d6000fd5b5050506040513d60208110156108d857600080fd5b505190506106e4565b6003836040518082805190602001908083835b602083106109135780518252601f1990920191602091820191016108f4565b51815160209384036101000a60001901801990921691161790526040519190930194509192505080830381855afa158015610952573d6000803e3d6000fd5b5050506040515160601b6bffffffffffffffffffffffff1916905092915050565b805160209091012090565b60006001600160f81b03198216610a3157604051601960f81b602080830182815260006021850181905230606081901b602287015288519095919386938a9390926036909101918401908083835b602083106109eb5780518252601f1990920191602091820191016109cc565b6001836020036101000a038019825116818451168082178552505050505050905001945050505050604051602081830303815290604052805190602001209150506106e4565b6001600160f81b03198216604560f81b1415610c3157825180610a855760405162461bcd60e51b8152600401808060200182810382526027815260200180610c9c6027913960400191505060405180910390fd5b60005b8115610a9c57600101600a82049150610a88565b60608167ffffffffffffffff81118015610ab557600080fd5b506040519080825280601f01601f191660200182016040528015610ae0576020820181803683370190505b5086519350905060001982015b8315610b3257600a840660300160f81b82828060019003935081518110610b1057fe5b60200101906001600160f81b031916908160001a905350600a84049350610aed565b604051601960f81b60208083018281527f457468657265756d205369676e6564204d6573736167653a0a000000000000006021850181905286519394909387938d9392603a0191908501908083835b60208310610ba05780518252601f199092019160209182019101610b81565b51815160209384036101000a600019018019909216911617905285519190930192850191508083835b60208310610be85780518252601f199092019160209182019101610bc9565b6001836020036101000a038019825116818451168082178552505050505050905001945050505050604051602081830303815290604052805190602001209450505050506106e4565b6040805162461bcd60e51b815260206004820152601a60248201527f556e737570706f72746564204549503139312076657273696f6e000000000000604482015290519081900360640190fd5b60008251604014610c8e57600080fd5b61073e610738868461081c56fe456d707479206d657373616765206e6f7420616c6c6f77656420666f722076657273696f6e2045a2646970667358221220f8064f163a44ae3f4a9227825ac6c6b5265c435ed98191b1dedb24be83899c9f64736f6c63430006070033",
  "bytecodeSha1": "40d3585ab2febd09d2634e9d0635bcd03391410b",
  "compiler": {
    "evm_version": "berlin",
    "optimizer": {
      "enabled": true,
      "runs": 200
    },
    "version": "0.6.7"
  },
  "contractName": "SignatureVerifierMock",
  "language": "Solidity",
  "natspec": {
    "methods": {},
    "notice": "Contract for using SignatureVerifier library"
  },
  "opcodes": "PUSH1 0x80 PUSH1 0x40 MSTORE CALLVALUE DUP1 ISZERO PUSH2 0x10 JUMPI PUSH1 0x0 DUP1 REVERT JUMPDEST POP PUSH1 0x4 CALLDATASIZE LT PUSH2 0x62 JUMPI PUSH1 0x0 CALLDATALOAD PUSH1 0xE0 SHR DUP1 PUSH4 0xC3FF1C5 EQ PUSH2 0x67 JUMPI DUP1 PUSH4 0x19045A25 EQ PUSH2 0x235 JUMPI DUP1 PUSH4 0x1C932C58 EQ PUSH2 0x2FC JUMPI DUP1 PUSH4 0x2D888869 EQ PUSH2 0x3B7 JUMPI DUP1 PUSH4 0x53CB0F37 EQ PUSH2 0x45B JUMPI DUP1 PUSH4 0x715873BA EQ PUSH2 0x50B JUMPI JUMPDEST PUSH1 0x0 DUP1 REVERT JUMPDEST PUSH2 0x221 PUSH1 0x4 DUP1 CALLDATASIZE SUB PUSH1 0x80 DUP2 LT ISZERO PUSH2 0x7D JUMPI PUSH1 0x0 DUP1 REVERT JUMPDEST DUP2 ADD SWAP1 PUSH1 0x20 DUP2 ADD DUP2 CALLDATALOAD PUSH1 0x1 PUSH1 0x20 SHL DUP2 GT ISZERO PUSH2 0x97 JUMPI PUSH1 0x0 DUP1 REVERT JUMPDEST DUP3 ADD DUP4 PUSH1 0x20 DUP3 ADD GT ISZERO PUSH2 0xA9 JUMPI PUSH1 0x0 DUP1 REVERT JUMPDEST DUP1 CALLDATALOAD SWAP1 PUSH1 0x20 ADD SWAP2 DUP5 PUSH1 0x1 DUP4 MUL DUP5 ADD GT PUSH1 0x1 PUSH1 0x20 SHL DUP4 GT OR ISZERO PUSH2 0xCA JUMPI PUSH1 0x0 DUP1 REVERT JUMPDEST SWAP2 SWAP1 DUP1 DUP1 PUSH1 0x1F ADD PUSH1 0x20 DUP1 SWAP2 DIV MUL PUSH1 0x20 ADD PUSH1 0x40 MLOAD SWAP1 DUP2 ADD PUSH1 0x40 MSTORE DUP1 SWAP4 SWAP3 SWAP2 SWAP1 DUP2 DUP2 MSTORE PUSH1 0x20 ADD DUP4 DUP4 DUP1 DUP3 DUP5 CALLDATACOPY PUSH1 0x0 SWAP3 ADD SWAP2 SWAP1 SWAP2 MSTORE POP SWAP3 SWAP6 SWAP5 SWAP4 PUSH1 0x20 DUP2 ADD SWAP4 POP CALLDATALOAD SWAP2 POP POP PUSH1 0x1 PUSH1 0x20 SHL DUP2 GT ISZERO PUSH2 0x11C JUMPI PUSH1 0x0 DUP1 REVERT JUMPDEST DUP3 ADD DUP4 PUSH1 0x20 DUP3 ADD GT ISZERO PUSH2 0x12E JUMPI PUSH1 0x0 DUP1 REVERT JUMPDEST DUP1 CALLDATALOAD SWAP1 PUSH1 0x20 ADD SWAP2 DUP5 PUSH1 0x1 DUP4 MUL DUP5 ADD GT PUSH1 0x1 PUSH1 0x20 SHL DUP4 GT OR ISZERO PUSH2 0x14F JUMPI PUSH1 0x0 DUP1 REVERT JUMPDEST SWAP2 SWAP1 DUP1 DUP1 PUSH1 0x1F ADD PUSH1 0x20 DUP1 SWAP2 DIV MUL PUSH1 0x20 ADD PUSH1 0x40 MLOAD SWAP1 DUP2 ADD PUSH1 0x40 MSTORE DUP1 SWAP4 SWAP3 SWAP2 SWAP1 DUP2 DUP2 MSTORE PUSH1 0x20 ADD DUP4 DUP4 DUP1 DUP3 DUP5 CALLDATACOPY PUSH1 0x0 SWAP3 ADD SWAP2 SWAP1 SWAP2 MSTORE POP SWAP3 SWAP6 SWAP5 SWAP4 PUSH1 0x20 DUP2 ADD SWAP4 POP CALLDATALOAD SWAP2 POP POP PUSH1 0x1 PUSH1 0x20 SHL DUP2 GT ISZERO PUSH2 0x1A1 JUMPI PUSH1 0x0 DUP1 REVERT JUMPDEST DUP3 ADD DUP4 PUSH1 0x20 DUP3 ADD GT ISZERO PUSH2 0x1B3 JUMPI PUSH1 0x0 DUP1 REVERT JUMPDEST DUP1 CALLDATALOAD SWAP1 PUSH1 0x20 ADD SWAP2 DUP5 PUSH1 0x1 DUP4 MUL DUP5 ADD GT PUSH1 0x1 PUSH1 0x20 SHL DUP4 GT OR ISZERO PUSH2 0x1D4 JUMPI PUSH1 0x0 DUP1 REVERT JUMPDEST SWAP2 SWAP1 DUP1 DUP1 PUSH1 0x1F ADD PUSH1 0x20 DUP1 SWAP2 DIV MUL PUSH1 0x20 ADD PUSH1 0x40 MLOAD SWAP1 DUP2 ADD PUSH1 0x40 MSTORE DUP1 SWAP4 SWAP3 SWAP2 SWAP1 DUP2 DUP2 MSTORE PUSH1 0x20 ADD DUP4 DUP4 DUP1 DUP3 DUP5 CALLDATACOPY PUSH1 0x0 SWAP3 ADD SWAP2 SWAP1 SWAP2 MSTORE POP SWAP3 SWAP6 POP POP POP SWAP1 CALLDATALOAD PUSH1 0x1 PUSH1 0x1 PUSH1 0xF8 SHL SUB NOT AND SWAP2 POP PUSH2 0x6BE SWAP1 POP JUMP JUMPDEST PUSH1 0x40 DUP1 MLOAD SWAP2 ISZERO ISZERO DUP3 MSTORE MLOAD SWAP1 DUP2 SWAP1 SUB PUSH1 0x20 ADD SWAP1 RETURN JUMPDEST PUSH2 0x2E0 PUSH1 0x4 DUP1 CALLDATASIZE SUB PUSH1 0x40 DUP2 LT ISZERO PUSH2 0x24B JUMPI PUSH1 0x0 DUP1 REVERT JUMPDEST DUP2 CALLDATALOAD SWAP2 SWAP1 DUP2 ADD SWAP1 PUSH1 0x40 DUP2 ADD PUSH1 0x20 DUP3 ADD CALLDATALOAD PUSH1 0x1 PUSH1 0x20 SHL DUP2 GT ISZERO PUSH2 0x26C JUMPI PUSH1 0x0 DUP1 REVERT JUMPDEST DUP3 ADD DUP4 PUSH1 0x20 DUP3 ADD GT ISZERO PUSH2 0x27E JUMPI PUSH1 0x0 DUP1 REVERT JUMPDEST DUP1 CALLDATALOAD SWAP1 PUSH1 0x20 ADD SWAP2 DUP5 PUSH1 0x1 DUP4 MUL DUP5 ADD GT PUSH1 0x1 PUSH1 0x20 SHL DUP4 GT OR ISZERO PUSH2 0x29F JUMPI PUSH1 0x0 DUP1 REVERT JUMPDEST SWAP2 SWAP1 DUP1 DUP1 PUSH1 0x1F ADD PUSH1 0x20 DUP1 SWAP2 DIV MUL PUSH1 0x20 ADD PUSH1 0x40 MLOAD SWAP1 DUP2 ADD PUSH1 0x40 MSTORE DUP1 SWAP4 SWAP3 SWAP2 SWAP1 DUP2 DUP2 MSTORE PUSH1 0x20 ADD DUP4 DUP4 DUP1 DUP3 DUP5 CALLDATACOPY PUSH1 0x0 SWAP3 ADD SWAP2 SWAP1 SWAP2 MSTORE POP SWAP3 SWAP6 POP PUSH2 0x6D5 SWAP5 POP POP POP POP POP JUMP JUMPDEST PUSH1 0x40 DUP1 MLOAD PUSH1 0x1 PUSH1 0x1 PUSH1 0xA0 SHL SUB SWAP1 SWAP3 AND DUP3 MSTORE MLOAD SWAP1 DUP2 SWAP1 SUB PUSH1 0x20 ADD SWAP1 RETURN JUMPDEST PUSH2 0x3A5 PUSH1 0x4 DUP1 CALLDATASIZE SUB PUSH1 0x40 DUP2 LT ISZERO PUSH2 0x312 JUMPI PUSH1 0x0 DUP1 REVERT JUMPDEST DUP2 ADD SWAP1 PUSH1 0x20 DUP2 ADD DUP2 CALLDATALOAD PUSH1 0x1 PUSH1 0x20 SHL DUP2 GT ISZERO PUSH2 0x32C JUMPI PUSH1 0x0 DUP1 REVERT JUMPDEST DUP3 ADD DUP4 PUSH1 0x20 DUP3 ADD GT ISZERO PUSH2 0x33E JUMPI PUSH1 0x0 DUP1 REVERT JUMPDEST DUP1 CALLDATALOAD SWAP1 PUSH1 0x20 ADD SWAP2 DUP5 PUSH1 0x1 DUP4 MUL DUP5 ADD GT PUSH1 0x1 PUSH1 0x20 SHL DUP4 GT OR ISZERO PUSH2 0x35F JUMPI PUSH1 0x0 DUP1 REVERT JUMPDEST SWAP2 SWAP1 DUP1 DUP1 PUSH1 0x1F ADD PUSH1 0x20 DUP1 SWAP2 DIV MUL PUSH1 0x20 ADD PUSH1 0x40 MLOAD SWAP1 DUP2 ADD PUSH1 0x40 MSTORE DUP1 SWAP4 SWAP3 SWAP2 SWAP1 DUP2 DUP2 MSTORE PUSH1 0x20 ADD DUP4 DUP4 DUP1 DUP3 DUP5 CALLDATACOPY PUSH1 0x0 SWAP3 ADD SWAP2 SWAP1 SWAP2 MSTORE POP SWAP3 SWAP6 POP POP POP SWAP1 CALLDATALOAD PUSH1 0xFF AND SWAP2 POP PUSH2 0x6EA SWAP1 POP JUMP JUMPDEST PUSH1 0x40 DUP1 MLOAD SWAP2 DUP3 MSTORE MLOAD SWAP1 DUP2 SWAP1 SUB PUSH1 0x20 ADD SWAP1 RETURN JUMPDEST PUSH2 0x2E0 PUSH1 0x4 DUP1 CALLDATASIZE SUB PUSH1 0x20 DUP2 LT ISZERO PUSH2 0x3CD JUMPI PUSH1 0x0 DUP1 REVERT JUMPDEST DUP2 ADD SWAP1 PUSH1 0x20 DUP2 ADD DUP2 CALLDATALOAD PUSH1 0x1 PUSH1 0x20 SHL DUP2 GT ISZERO PUSH2 0x3E7 JUMPI PUSH1 0x0 DUP1 REVERT JUMPDEST DUP3 ADD DUP4 PUSH1 0x20 DUP3 ADD GT ISZERO PUSH2 0x3F9 JUMPI PUSH1 0x0 DUP1 REVERT JUMPDEST DUP1 CALLDATALOAD SWAP1 PUSH1 0x20 ADD SWAP2 DUP5 PUSH1 0x1 DUP4 MUL DUP5 ADD GT PUSH1 0x1 PUSH1 0x20 SHL DUP4 GT OR ISZERO PUSH2 0x41A JUMPI PUSH1 0x0 DUP1 REVERT JUMPDEST SWAP2 SWAP1 DUP1 DUP1 PUSH1 0x1F ADD PUSH1 0x20 DUP1 SWAP2 DIV MUL PUSH1 0x20 ADD PUSH1 0x40 MLOAD SWAP1 DUP2 ADD PUSH1 0x40 MSTORE DUP1 SWAP4 SWAP3 SWAP2 SWAP1 DUP2 DUP2 MSTORE PUSH1 0x20 ADD DUP4 DUP4 DUP1 DUP3 DUP5 CALLDATACOPY PUSH1 0x0 SWAP3 ADD SWAP2 SWAP1 SWAP2 MSTORE POP SWAP3 SWAP6 POP PUSH2 0x6F6 SWAP5 POP POP POP POP POP JUMP JUMPDEST PUSH2 0x3A5 PUSH1 0x4 DUP1 CALLDATASIZE SUB PUSH1 0x40 DUP2 LT ISZERO PUSH2 0x471 JUMPI PUSH1 0x0 DUP1 REVERT JUMPDEST DUP2 ADD SWAP1 PUSH1 0x20 DUP2 ADD DUP2 CALLDATALOAD PUSH1 0x1 PUSH1 0x20 SHL DUP2 GT ISZERO PUSH2 0x48B JUMPI PUSH1 0x0 DUP1 REVERT JUMPDEST DUP3 ADD DUP4 PUSH1 0x20 DUP3 ADD GT ISZERO PUSH2 0x49D JUMPI PUSH1 0x0 DUP1 REVERT JUMPDEST DUP1 CALLDATALOAD SWAP1 PUSH1 0x20 ADD SWAP2 DUP5 PUSH1 0x1 DUP4 MUL DUP5 ADD GT PUSH1 0x1 PUSH1 0x20 SHL DUP4 GT OR ISZERO PUSH2 0x4BE JUMPI PUSH1 0x0 DUP1 REVERT JUMPDEST SWAP2 SWAP1 DUP1 DUP1 PUSH1 0x1F ADD PUSH1 0x20 DUP1 SWAP2 DIV MUL PUSH1 0x20 ADD PUSH1 0x40 MLOAD SWAP1 DUP2 ADD PUSH1 0x40 MSTORE DUP1 SWAP4 SWAP3 SWAP2 SWAP1 DUP2 DUP2 MSTORE PUSH1 0x20 ADD DUP4 DUP4 DUP1 DUP3 DUP5 CALLDATACOPY PUSH1 0x0 SWAP3 ADD SWAP2 SWAP1 SWAP2 MSTORE POP SWAP3 SWAP6 POP POP POP SWAP1 CALLDATALOAD PUSH1 0x1 PUSH1 0x1 PUSH1 0xF8 SHL SUB NOT AND SWAP2 POP PUSH2 0x701 SWAP1 POP JUMP JUMPDEST PUSH2 0x221 PUSH1 0x4 DUP1 CALLDATASIZE SUB PUSH1 0x80 DUP2 LT ISZERO PUSH2 0x521 JUMPI PUSH1 0x0 DUP1 REVERT JUMPDEST DUP2 ADD SWAP1 PUSH1 0x20 DUP2 ADD DUP2 CALLDATALOAD PUSH1 0x1 PUSH1 0x20 SHL DUP2 GT ISZERO PUSH2 0x53B JUMPI PUSH1 0x0 DUP1 REVERT JUMPDEST DUP3 ADD DUP4 PUSH1 0x20 DUP3 ADD GT ISZERO PUSH2 0x54D JUMPI PUSH1 0x0 DUP1 REVERT JUMPDEST DUP1 CALLDATALOAD SWAP1 PUSH1 0x20 ADD SWAP2 DUP5 PUSH1 0x1 DUP4 MUL DUP5 ADD GT PUSH1 0x1 PUSH1 0x20 SHL DUP4 GT OR ISZERO PUSH2 0x56E JUMPI PUSH1 0x0 DUP1 REVERT JUMPDEST SWAP2 SWAP1 DUP1 DUP1 PUSH1 0x1F ADD PUSH1 0x20 DUP1 SWAP2 DIV MUL PUSH1 0x20 ADD PUSH1 0x40 MLOAD SWAP1 DUP2 ADD PUSH1 0x40 MSTORE DUP1 SWAP4 SWAP3 SWAP2 SWAP1 DUP2 DUP2 MSTORE PUSH1 0x20 ADD DUP4 DUP4 DUP1 DUP3 DUP5 CALLDATACOPY PUSH1 0x0 SWAP3 ADD SWAP2 SWAP1 SWAP2 MSTORE POP SWAP3 SWAP6 SWAP5 SWAP4 PUSH1 0x20 DUP2 ADD SWAP4 POP CALLDATALOAD SWAP2 POP POP PUSH1 0x1 PUSH1 0x20 SHL DUP2 GT ISZERO PUSH2 0x5C0 JUMPI PUSH1 0x0 DUP1 REVERT JUMPDEST DUP3 ADD DUP4 PUSH1 0x20 DUP3 ADD GT ISZERO PUSH2 0x5D2 JUMPI PUSH1 0x0 DUP1 REVERT JUMPDEST DUP1 CALLDATALOAD SWAP1 PUSH1 0x20 ADD SWAP2 DUP5 PUSH1 0x1 DUP4 MUL DUP5 ADD GT PUSH1 0x1 PUSH1 0x20 SHL DUP4 GT OR ISZERO PUSH2 0x5F3 JUMPI PUSH1 0x0 DUP1 REVERT JUMPDEST SWAP2 SWAP1 DUP1 DUP1 PUSH1 0x1F ADD PUSH1 0x20 DUP1 SWAP2 DIV MUL PUSH1 0x20 ADD PUSH1 0x40 MLOAD SWAP1 DUP2 ADD PUSH1 0x40 MSTORE DUP1 SWAP4 SWAP3 SWAP2 SWAP1 DUP2 DUP2 MSTORE PUSH1 0x20 ADD DUP4 DUP4 DUP1 DUP3 DUP5 CALLDATACOPY PUSH1 0x0 SWAP3 ADD SWAP2 SWAP1 SWAP2 MSTORE POP SWAP3 SWAP6 SWAP5 SWAP4 PUSH1 0x20 DUP2 ADD SWAP4 POP CALLDATALOAD SWAP2 POP POP PUSH1 0x1 PUSH1 0x20 SHL DUP2 GT ISZERO PUSH2 0x645 JUMPI PUSH1 0x0 DUP1 REVERT JUMPDEST DUP3 ADD DUP4 PUSH1 0x20 DUP3 ADD GT ISZERO PUSH2 0x657 JUMPI PUSH1 0x0 DUP1 REVERT JUMPDEST DUP1 CALLDATALOAD SWAP1 PUSH1 0x20 ADD SWAP2 DUP5 PUSH1 0x1 DUP4 MUL DUP5 ADD GT PUSH1 0x1 PUSH1 0x20 SHL DUP4 GT OR ISZERO PUSH2 0x678 JUMPI PUSH1 0x0 DUP1 REVERT JUMPDEST SWAP2 SWAP1 DUP1 DUP1 PUSH1 0x1F ADD PUSH1 0x20 DUP1 SWAP2 DIV MUL PUSH1 0x20 ADD PUSH1 0x40 MLOAD SWAP1 DUP2 ADD PUSH1 0x40 MSTORE DUP1 SWAP4 SWAP3 SWAP2 SWAP1 DUP2 DUP2 MSTORE PUSH1 0x20 ADD DUP4 DUP4 DUP1 DUP3 DUP5 CALLDATACOPY PUSH1 0x0 SWAP3 ADD SWAP2 SWAP1 SWAP2 MSTORE POP SWAP3 SWAP6 POP POP POP SWAP1 CALLDATALOAD PUSH1 0xFF AND SWAP2 POP PUSH2 0x70D SWAP1 POP JUMP JUMPDEST PUSH1 0x0 PUSH2 0x6CC DUP6 DUP6 DUP6 DUP6 PUSH2 0x71B JUMP JUMPDEST SWAP6 SWAP5 POP POP POP POP POP JUMP JUMPDEST PUSH1 0x0 PUSH2 0x6E1 DUP4 DUP4 PUSH2 0x763 JUMP JUMPDEST SWAP1 POP JUMPDEST SWAP3 SWAP2 POP POP JUMP JUMPDEST PUSH1 0x0 PUSH2 0x6E1 DUP4 DUP4 PUSH2 0x81C JUMP JUMPDEST PUSH1 0x0 PUSH2 0x6E4 DUP3 PUSH2 0x973 JUMP JUMPDEST PUSH1 0x0 PUSH2 0x6E1 DUP4 DUP4 PUSH2 0x97E JUMP JUMPDEST PUSH1 0x0 PUSH2 0x6CC DUP6 DUP6 DUP6 DUP6 PUSH2 0xC7E JUMP JUMPDEST PUSH1 0x0 DUP3 MLOAD PUSH1 0x40 EQ PUSH2 0x72B JUMPI PUSH1 0x0 DUP1 REVERT JUMPDEST PUSH2 0x73E PUSH2 0x738 DUP7 DUP5 PUSH2 0x97E JUMP JUMPDEST DUP6 PUSH2 0x763 JUMP JUMPDEST PUSH1 0x1 PUSH1 0x1 PUSH1 0xA0 SHL SUB AND PUSH2 0x750 DUP5 PUSH2 0x973 JUMP JUMPDEST PUSH1 0x1 PUSH1 0x1 PUSH1 0xA0 SHL SUB AND EQ SWAP6 SWAP5 POP POP POP POP POP JUMP JUMPDEST PUSH1 0x0 DUP2 MLOAD PUSH1 0x41 EQ PUSH2 0x773 JUMPI PUSH1 0x0 DUP1 REVERT JUMPDEST PUSH1 0x20 DUP3 ADD MLOAD PUSH1 0x40 DUP4 ADD MLOAD PUSH1 0x60 DUP5 ADD MLOAD PUSH1 0x0 BYTE PUSH1 0x1B DUP2 LT ISZERO PUSH2 0x792 JUMPI PUSH1 0x1B ADD JUMPDEST DUP1 PUSH1 0xFF AND PUSH1 0x1B EQ DUP1 PUSH2 0x7A7 JUMPI POP DUP1 PUSH1 0xFF AND PUSH1 0x1C EQ JUMPDEST PUSH2 0x7B0 JUMPI PUSH1 0x0 DUP1 REVERT JUMPDEST PUSH1 0x40 DUP1 MLOAD PUSH1 0x0 DUP2 MSTORE PUSH1 0x20 DUP1 DUP3 ADD DUP1 DUP5 MSTORE DUP10 SWAP1 MSTORE PUSH1 0xFF DUP5 AND DUP3 DUP5 ADD MSTORE PUSH1 0x60 DUP3 ADD DUP7 SWAP1 MSTORE PUSH1 0x80 DUP3 ADD DUP6 SWAP1 MSTORE SWAP2 MLOAD PUSH1 0x1 SWAP3 PUSH1 0xA0 DUP1 DUP5 ADD SWAP4 SWAP2 SWAP3 PUSH1 0x1F NOT DUP2 ADD SWAP3 DUP2 SWAP1 SUB SWAP1 SWAP2 ADD SWAP1 DUP6 GAS STATICCALL ISZERO DUP1 ISZERO PUSH2 0x807 JUMPI RETURNDATASIZE PUSH1 0x0 DUP1 RETURNDATACOPY RETURNDATASIZE PUSH1 0x0 REVERT JUMPDEST POP POP PUSH1 0x40 MLOAD PUSH1 0x1F NOT ADD MLOAD SWAP8 SWAP7 POP POP POP POP POP POP POP JUMP JUMPDEST PUSH1 0x0 DUP1 DUP3 PUSH1 0x2 DUP2 GT ISZERO PUSH2 0x82B JUMPI INVALID JUMPDEST EQ ISZERO PUSH2 0x83E JUMPI POP DUP2 MLOAD PUSH1 0x20 DUP4 ADD KECCAK256 PUSH2 0x6E4 JUMP JUMPDEST PUSH1 0x1 DUP3 PUSH1 0x2 DUP2 GT ISZERO PUSH2 0x84C JUMPI INVALID JUMPDEST EQ ISZERO PUSH2 0x8E1 JUMPI PUSH1 0x2 DUP4 PUSH1 0x40 MLOAD DUP1 DUP3 DUP1 MLOAD SWAP1 PUSH1 0x20 ADD SWAP1 DUP1 DUP4 DUP4 JUMPDEST PUSH1 0x20 DUP4 LT PUSH2 0x884 JUMPI DUP1 MLOAD DUP3 MSTORE PUSH1 0x1F NOT SWAP1 SWAP3 ADD SWAP2 PUSH1 0x20 SWAP2 DUP3 ADD SWAP2 ADD PUSH2 0x865 JUMP JUMPDEST MLOAD DUP2 MLOAD PUSH1 0x20 SWAP4 DUP5 SUB PUSH2 0x100 EXP PUSH1 0x0 NOT ADD DUP1 NOT SWAP1 SWAP3 AND SWAP2 AND OR SWAP1 MSTORE PUSH1 0x40 MLOAD SWAP2 SWAP1 SWAP4 ADD SWAP5 POP SWAP2 SWAP3 POP POP DUP1 DUP4 SUB DUP2 DUP6 GAS STATICCALL ISZERO DUP1 ISZERO PUSH2 0x8C3 JUMPI RETURNDATASIZE PUSH1 0x0 DUP1 RETURNDATACOPY RETURNDATASIZE PUSH1 0x0 REVERT JUMPDEST POP POP POP PUSH1 0x40 MLOAD RETURNDATASIZE PUSH1 0x20 DUP2 LT ISZERO PUSH2 0x8D8 JUMPI PUSH1 0x0 DUP1 REVERT JUMPDEST POP MLOAD SWAP1 POP PUSH2 0x6E4 JUMP JUMPDEST PUSH1 0x3 DUP4 PUSH1 0x40 MLOAD DUP1 DUP3 DUP1 MLOAD SWAP1 PUSH1 0x20 ADD SWAP1 DUP1 DUP4 DUP4 JUMPDEST PUSH1 0x20 DUP4 LT PUSH2 0x913 JUMPI DUP1 MLOAD DUP3 MSTORE PUSH1 0x1F NOT SWAP1 SWAP3 ADD SWAP2 PUSH1 0x20 SWAP2 DUP3 ADD SWAP2 ADD PUSH2 0x8F4 JUMP JUMPDEST MLOAD DUP2 MLOAD PUSH1 0x20 SWAP4 DUP5 SUB PUSH2 0x100 EXP PUSH1 0x0 NOT ADD DUP1 NOT SWAP1 SWAP3 AND SWAP2 AND OR SWAP1 MSTORE PUSH1 0x40 MLOAD SWAP2 SWAP1 SWAP4 ADD SWAP5 POP SWAP2 SWAP3 POP POP DUP1 DUP4 SUB DUP2 DUP6 GAS STATICCALL ISZERO DUP1 ISZERO PUSH2 0x952 JUMPI RETURNDATASIZE PUSH1 0x0 DUP1 RETURNDATACOPY RETURNDATASIZE PUSH1 0x0 REVERT JUMPDEST POP POP POP PUSH1 0x40 MLOAD MLOAD PUSH1 0x60 SHL PUSH12 0xFFFFFFFFFFFFFFFFFFFFFFFF NOT AND SWAP1 POP SWAP3 SWAP2 POP POP JUMP JUMPDEST DUP1 MLOAD PUSH1 0x20 SWAP1 SWAP2 ADD KECCAK256 SWAP1 JUMP JUMPDEST PUSH1 0x0 PUSH1 0x1 PUSH1 0x1 PUSH1 0xF8 SHL SUB NOT DUP3 AND PUSH2 0xA31 JUMPI PUSH1 0x40 MLOAD PUSH1 0x19 PUSH1 0xF8 SHL PUSH1 0x20 DUP1 DUP4 ADD DUP3 DUP2 MSTORE PUSH1 0x0 PUSH1 0x21 DUP6 ADD DUP2 SWAP1 MSTORE ADDRESS PUSH1 0x60 DUP2 SWAP1 SHL PUSH1 0x22 DUP8 ADD MSTORE DUP9 MLOAD SWAP1 SWAP6 SWAP2 SWAP4 DUP7 SWAP4 DUP11 SWAP4 SWAP1 SWAP3 PUSH1 0x36 SWAP1 SWAP2 ADD SWAP2 DUP5 ADD SWAP1 DUP1 DUP4 DUP4 JUMPDEST PUSH1 0x20 DUP4 LT PUSH2 0x9EB JUMPI DUP1 MLOAD DUP3 MSTORE PUSH1 0x1F NOT SWAP1 SWAP3 ADD SWAP2 PUSH1 0x20 SWAP2 DUP3 ADD SWAP2 ADD PUSH2 0x9CC JUMP JUMPDEST PUSH1 0x1 DUP4 PUSH1 0x20 SUB PUSH2 0x100 EXP SUB DUP1 NOT DUP3 MLOAD AND DUP2 DUP5 MLOAD AND DUP1 DUP3 OR DUP6 MSTORE POP POP POP POP POP POP SWAP1 POP ADD SWAP5 POP POP POP POP POP PUSH1 0x40 MLOAD PUSH1 0x20 DUP2 DUP4 SUB SUB DUP2 MSTORE SWAP1 PUSH1 0x40 MSTORE DUP1 MLOAD SWAP1 PUSH1 0x20 ADD KECCAK256 SWAP2 POP POP PUSH2 0x6E4 JUMP JUMPDEST PUSH1 0x1 PUSH1 0x1 PUSH1 0xF8 SHL SUB NOT DUP3 AND PUSH1 0x45 PUSH1 0xF8 SHL EQ ISZERO PUSH2 0xC31 JUMPI DUP3 MLOAD DUP1 PUSH2 0xA85 JUMPI PUSH1 0x40 MLOAD PUSH3 0x461BCD PUSH1 0xE5 SHL DUP2 MSTORE PUSH1 0x4 ADD DUP1 DUP1 PUSH1 0x20 ADD DUP3 DUP2 SUB DUP3 MSTORE PUSH1 0x27 DUP2 MSTORE PUSH1 0x20 ADD DUP1 PUSH2 0xC9C PUSH1 0x27 SWAP2 CODECOPY PUSH1 0x40 ADD SWAP2 POP POP PUSH1 0x40 MLOAD DUP1 SWAP2 SUB SWAP1 REVERT JUMPDEST PUSH1 0x0 JUMPDEST DUP2 ISZERO PUSH2 0xA9C JUMPI PUSH1 0x1 ADD PUSH1 0xA DUP3 DIV SWAP2 POP PUSH2 0xA88 JUMP JUMPDEST PUSH1 0x60 DUP2 PUSH8 0xFFFFFFFFFFFFFFFF DUP2 GT DUP1 ISZERO PUSH2 0xAB5 JUMPI PUSH1 0x0 DUP1 REVERT JUMPDEST POP PUSH1 0x40 MLOAD SWAP1 DUP1 DUP3 MSTORE DUP1 PUSH1 0x1F ADD PUSH1 0x1F NOT AND PUSH1 0x20 ADD DUP3 ADD PUSH1 0x40 MSTORE DUP1 ISZERO PUSH2 0xAE0 JUMPI PUSH1 0x20 DUP3 ADD DUP2 DUP1 CALLDATASIZE DUP4 CALLDATACOPY ADD SWAP1 POP JUMPDEST POP DUP7 MLOAD SWAP4 POP SWAP1 POP PUSH1 0x0 NOT DUP3 ADD JUMPDEST DUP4 ISZERO PUSH2 0xB32 JUMPI PUSH1 0xA DUP5 MOD PUSH1 0x30 ADD PUSH1 0xF8 SHL DUP3 DUP3 DUP1 PUSH1 0x1 SWAP1 SUB SWAP4 POP DUP2 MLOAD DUP2 LT PUSH2 0xB10 JUMPI INVALID JUMPDEST PUSH1 0x20 ADD ADD SWAP1 PUSH1 0x1 PUSH1 0x1 PUSH1 0xF8 SHL SUB NOT AND SWAP1 DUP2 PUSH1 0x0 BYTE SWAP1 MSTORE8 POP PUSH1 0xA DUP5 DIV SWAP4 POP PUSH2 0xAED JUMP JUMPDEST PUSH1 0x40 MLOAD PUSH1 0x19 PUSH1 0xF8 SHL PUSH1 0x20 DUP1 DUP4 ADD DUP3 DUP2 MSTORE PUSH32 0x457468657265756D205369676E6564204D6573736167653A0A00000000000000 PUSH1 0x21 DUP6 ADD DUP2 SWAP1 MSTORE DUP7 MLOAD SWAP4 SWAP5 SWAP1 SWAP4 DUP8 SWAP4 DUP14 SWAP4 SWAP3 PUSH1 0x3A ADD SWAP2 SWAP1 DUP6 ADD SWAP1 DUP1 DUP4 DUP4 JUMPDEST PUSH1 0x20 DUP4 LT PUSH2 0xBA0 JUMPI DUP1 MLOAD DUP3 MSTORE PUSH1 0x1F NOT SWAP1 SWAP3 ADD SWAP2 PUSH1 0x20 SWAP2 DUP3 ADD SWAP2 ADD PUSH2 0xB81 JUMP JUMPDEST MLOAD DUP2 MLOAD PUSH1 0x20 SWAP4 DUP5 SUB PUSH2 0x100 EXP PUSH1 0x0 NOT ADD DUP1 NOT SWAP1 SWAP3 AND SWAP2 AND OR SWAP1 MSTORE DUP6 MLOAD SWAP2 SWAP1 SWAP4 ADD SWAP3 DUP6 ADD SWAP2 POP DUP1 DUP4 DUP4 JUMPDEST PUSH1 0x20 DUP4 LT PUSH2 0xBE8 JUMPI DUP1 MLOAD DUP3 MSTORE PUSH1 0x1F NOT SWAP1 SWAP3 ADD SWAP2 PUSH1 0x20 SWAP2 DUP3 ADD SWAP2 ADD PUSH2 0xBC9 JUMP JUMPDEST PUSH1 0x1 DUP4 PUSH1 0x20 SUB PUSH2 0x100 EXP SUB DUP1 NOT DUP3 MLOAD AND DUP2 DUP5 MLOAD AND DUP1 DUP3 OR DUP6 MSTORE POP POP POP POP POP POP SWAP1 POP ADD SWAP5 POP POP POP POP POP PUSH1 0x40 MLOAD PUSH1 0x20 DUP2 DUP4 SUB SUB DUP2 MSTORE SWAP1 PUSH1 0x40 MSTORE DUP1 MLOAD SWAP1 PUSH1 0x20 ADD KECCAK256 SWAP5 POP POP POP POP POP PUSH2 0x6E4 JUMP JUMPDEST PUSH1 0x40 DUP1 MLOAD PUSH3 0x461BCD PUSH1 0xE5 SHL DUP2 MSTORE PUSH1 0x20 PUSH1 0x4 DUP3 ADD MSTORE PUSH1 0x1A PUSH1 0x24 DUP3 ADD MSTORE PUSH32 0x556E737570706F72746564204549503139312076657273696F6E000000000000 PUSH1 0x44 DUP3 ADD MSTORE SWAP1 MLOAD SWAP1 DUP2 SWAP1 SUB PUSH1 0x64 ADD SWAP1 REVERT JUMPDEST PUSH1 0x0 DUP3 MLOAD PUSH1 0x40 EQ PUSH2 0xC8E JUMPI PUSH1 0x0 DUP1 REVERT JUMPDEST PUSH2 0x73E PUSH2 0x738 DUP7 DUP5 PUSH2 0x81C JUMP INVALID GASLIMIT PUSH14 0x707479206D657373616765206E6F PUSH21 0x20616C6C6F77656420666F722076657273696F6E20 GASLIMIT LOG2 PUSH5 0x6970667358 0x22 SLT KECCAK256 0xF8 MOD 0x4F AND GASPRICE DIFFICULTY 0xAE EXTCODEHASH 0x4A SWAP3 0x27 DUP3 GAS 0xC6 0xC6 0xB5 0x26 0x5C NUMBER 0x5E 0xD9 DUP2 SWAP2 0xB1 0xDE 0xDB 0x24 0xBE DUP4 DUP10 SWAP13 SWAP16 PUSH5 0x736F6C6343 STOP MOD SMOD STOP CALLER ",
  "sha1": "bd2ed14b64f0f8e7ed3de2611feec520efd7759c",
  "source": "pragma solidity ^0.6.1;\n\n\nimport \"contracts/lib/SignatureVerifier.sol\";\nimport \"contracts/lib/Snapshot.sol\";\nimport \"contracts/lib/UmbralDeserializer.sol\";\nimport \"contracts/lib/ReEncryptionValidator.sol\";\n\n/**\n* @notice Contract for using SignatureVerifier library\n*/\ncontract SignatureVerifierMock {\n\n    function recover(bytes32 _hash, bytes memory _signature)\n        public\n        pure\n        returns (address)\n    {\n        return SignatureVerifier.recover(_hash, _signature);\n    }\n\n    function toAddress(bytes memory _publicKey) public pure returns (address) {\n        return SignatureVerifier.toAddress(_publicKey);\n    }\n\n    function hash(bytes memory _message, SignatureVerifier.HashAlgorithm _algorithm)\n        public\n        pure\n        returns (bytes32 result)\n    {\n        return SignatureVerifier.hash(_message, _algorithm);\n    }\n\n    function verify(\n        bytes memory _message,\n        bytes memory _signature,\n        bytes memory _publicKey,\n        SignatureVerifier.HashAlgorithm _algorithm\n    )\n        public\n        pure\n        returns (bool)\n    {\n        return SignatureVerifier.verify(_message, _signature, _publicKey, _algorithm);\n    }\n\n    function verifyEIP191(\n        bytes memory _message,\n        bytes memory _signature,\n        bytes memory _publicKey,\n        byte _version\n    )\n        public\n        view\n        returns (bool)\n    {\n        return SignatureVerifier.verifyEIP191(_message, _signature, _publicKey, _version);\n    }\n\n    function hashEIP191(\n        bytes memory _message,\n        byte _version\n    )\n        public\n        view\n        returns (bytes32)\n    {\n        return SignatureVerifier.hashEIP191(_message, _version);\n    }\n\n}\n\n\n/**\n* @dev Contract for testing UmbralDeserializer library\n*/\ncontract UmbralDeserializerMock {\n    using UmbralDeserializer for bytes;\n\n    function toCapsule(bytes memory _capsuleBytes)\n        public pure returns (\n            byte pointESign,\n            bytes32 pointEXCoord,\n            byte pointVSign,\n            bytes32 pointVXCoord,\n            bytes32 bnSig\n        )\n    {\n        UmbralDeserializer.Capsule memory capsule = _capsuleBytes.toCapsule();\n        pointESign = byte(capsule.pointE.sign);\n        pointEXCoord = bytes32(capsule.pointE.xCoord);\n        pointVSign = byte(capsule.pointV.sign);\n        pointVXCoord = bytes32(capsule.pointV.xCoord);\n        bnSig = bytes32(capsule.bnSig);\n    }\n\n    function toCorrectnessProof(bytes memory _proofBytes)\n        public pure returns (\n            byte pointE2Sign,\n            bytes32 pointE2XCoord,\n            byte pointV2Sign,\n            bytes32 pointV2XCoord,\n            byte pointKFragCommitmentSign,\n            bytes32 pointKFragCommitmentXCoord,\n            byte pointKFragPokSign,\n            bytes32 pointKFragPokXCoord,\n            bytes32 bnSig,\n            bytes memory kFragSignature,\n            bytes memory metadata\n        )\n    {\n        UmbralDeserializer.CorrectnessProof memory proof = _proofBytes.toCorrectnessProof();\n        pointE2Sign = byte(proof.pointE2.sign);\n        pointE2XCoord = bytes32(proof.pointE2.xCoord);\n        pointV2Sign = byte(proof.pointV2.sign);\n        pointV2XCoord = bytes32(proof.pointV2.xCoord);\n        pointKFragCommitmentSign = byte(proof.pointKFragCommitment.sign);\n        pointKFragCommitmentXCoord = bytes32(proof.pointKFragCommitment.xCoord);\n        pointKFragPokSign = byte(proof.pointKFragPok.sign);\n        pointKFragPokXCoord = bytes32(proof.pointKFragPok.xCoord);\n        bnSig = bytes32(proof.bnSig);\n        kFragSignature = proof.kFragSignature;\n        metadata = proof.metadata;\n    }\n\n    // `toCapsuleFrag` is split into two methods because of EVM stack problems with many variables\n    function toCorrectnessProofFromCapsuleFrag(bytes memory _cFragBytes)\n        public pure returns (\n            byte pointE2Sign,\n            bytes32 pointE2XCoord,\n            byte pointV2Sign,\n            bytes32 pointV2XCoord,\n            byte pointKFragCommitmentSign,\n            bytes32 pointKFragCommitmentXCoord,\n            byte pointKFragPokSign,\n            bytes32 pointKFragPokXCoord,\n            bytes32 bnSig,\n            bytes memory kFragSignature,\n            bytes memory metadata\n        )\n    {\n        UmbralDeserializer.CapsuleFrag memory cFrag = _cFragBytes.toCapsuleFrag();\n        UmbralDeserializer.CorrectnessProof memory proof = cFrag.proof;\n        pointE2Sign = byte(proof.pointE2.sign);\n        pointE2XCoord = bytes32(proof.pointE2.xCoord);\n        pointV2Sign = byte(proof.pointV2.sign);\n        pointV2XCoord = bytes32(proof.pointV2.xCoord);\n        pointKFragCommitmentSign = byte(proof.pointKFragCommitment.sign);\n        pointKFragCommitmentXCoord = bytes32(proof.pointKFragCommitment.xCoord);\n        pointKFragPokSign = byte(proof.pointKFragPok.sign);\n        pointKFragPokXCoord = bytes32(proof.pointKFragPok.xCoord);\n        bnSig = bytes32(proof.bnSig);\n        kFragSignature = proof.kFragSignature;\n        metadata = proof.metadata;\n    }\n\n    function toCapsuleFrag(bytes memory _cFragBytes)\n        public pure returns (\n            byte pointE1Sign,\n            bytes32 pointE1XCoord,\n            byte pointV1Sign,\n            bytes32 pointV1XCoord,\n            bytes32 kFragId,\n            byte pointPrecursorSign,\n            bytes32 pointPrecursorXCoord\n        )\n    {\n        UmbralDeserializer.CapsuleFrag memory cFrag = _cFragBytes.toCapsuleFrag();\n        pointE1Sign = byte(cFrag.pointE1.sign);\n        pointE1XCoord = bytes32(cFrag.pointE1.xCoord);\n        pointV1Sign = byte(cFrag.pointV1.sign);\n        pointV1XCoord = bytes32(cFrag.pointV1.xCoord);\n        kFragId = cFrag.kFragId;\n        pointPrecursorSign = byte(cFrag.pointPrecursor.sign);\n        pointPrecursorXCoord = bytes32(cFrag.pointPrecursor.xCoord);\n    }\n}\n\n\n/**\n* @notice Contract for using ReEncryptionValidator library\n*/\ncontract ReEncryptionValidatorMock {\n\n    using UmbralDeserializer for bytes;\n\n    function UMBRAL_PARAMETER_U_SIGN() public pure returns (uint8) {\n        return ReEncryptionValidator.UMBRAL_PARAMETER_U_SIGN;\n    }\n\n    function UMBRAL_PARAMETER_U_XCOORD() public pure returns (uint256) {\n        return ReEncryptionValidator.UMBRAL_PARAMETER_U_XCOORD;\n    }\n\n    function UMBRAL_PARAMETER_U_YCOORD() public pure returns (uint256) {\n        return ReEncryptionValidator.UMBRAL_PARAMETER_U_YCOORD;\n    }\n\n    function FIELD_ORDER() public pure returns (uint256) {\n        return ReEncryptionValidator.FIELD_ORDER;\n    }\n\n    function MINUS_2() public pure returns (uint256) {\n        return ReEncryptionValidator.MINUS_2;\n    }\n\n    function MINUS_ONE_HALF() public pure returns (uint256) {\n        return ReEncryptionValidator.MINUS_ONE_HALF;\n    }\n\n    function validateCFrag(\n        bytes memory _capsuleBytes,\n        bytes memory _cFragBytes,\n        bytes memory _precomputedBytes\n    )\n        public pure returns (bool)\n    {\n        return ReEncryptionValidator.validateCFrag(_capsuleBytes, _cFragBytes, _precomputedBytes);\n    }\n\n    function computeProofChallengeScalar(\n        bytes memory _capsuleBytes,\n        bytes memory _cFragBytes\n    )\n        public pure returns (uint256)\n    {\n        UmbralDeserializer.Capsule memory _capsule = _capsuleBytes.toCapsule();\n        UmbralDeserializer.CapsuleFrag memory _cFrag = _cFragBytes.toCapsuleFrag();\n        return ReEncryptionValidator.computeProofChallengeScalar(_capsule, _cFrag);\n    }\n\n    function extendedKeccakToBN (bytes memory _data) public pure returns (uint256) {\n        return ReEncryptionValidator.extendedKeccakToBN(_data);\n    }\n\n\tfunction checkCompressedPoint(\n\t\tuint8 _pointSign,\n\t\tuint256 _pointX,\n\t\tuint256 _pointY\n\t) public pure returns(bool) {\n        return ReEncryptionValidator.checkCompressedPoint(_pointSign, _pointX, _pointY);\n\t}\n\n    function checkSerializedCoordinates(bytes memory _coords) public pure returns(bool) {\n\t\treturn ReEncryptionValidator.checkSerializedCoordinates(_coords);\n\t}\n\n    function isOnCurve(uint256 Px, uint256 Py) public pure returns (bool) {\n        return ReEncryptionValidator.isOnCurve(Px, Py);\n    }\n\n    function ecmulVerify(\n    \tuint256 x1,\n    \tuint256 y1,\n    \tuint256 scalar,\n    \tuint256 qx,\n    \tuint256 qy\n    ) public pure returns(bool) {\n        return ReEncryptionValidator.ecmulVerify(x1, y1, scalar, qx, qy);\n\t}\n\n    function eqAffineJacobian(\n    \tuint256[2] memory P,\n    \tuint256[3] memory Q\n    ) public pure returns(bool){\n        return ReEncryptionValidator.eqAffineJacobian(P, Q);\n    }\n\n    function addAffineJacobian(\n    \tuint[2] memory P,\n    \tuint[2] memory Q\n    ) public pure returns (uint[3] memory) {\n        return ReEncryptionValidator.addAffineJacobian(P, Q);\n    }\n\n    function doubleJacobian(uint[3] memory P) public pure returns (uint[3] memory) {\n        return ReEncryptionValidator.doubleJacobian(P);\n    }\n}\n\n/**\n* @notice Contract for using Snapshot library\n*/\ncontract SnapshotMock {\n\n    // Helpers\n    uint128[] public history;\n\n    function length() public view returns(uint256){\n        return history.length;\n    }\n\n    function deleteHistory() public {\n        delete history;\n    }\n\n    // Mock functions\n    function encodeSnapshot(uint32 _time, uint96 _value) public pure returns(uint128) {\n        return Snapshot.encodeSnapshot(_time, _value);\n    }\n\n    function decodeSnapshot(uint128 _snapshot) public pure returns(uint32, uint96){\n        return Snapshot.decodeSnapshot(_snapshot);\n    }\n\n    function addSnapshot(uint256 _time, uint256 _value) public {\n        Snapshot.addSnapshot(history, _time, _value);\n    }\n\n    function getValueAt(uint256 _time) public view returns (uint96) {\n        return Snapshot.getValueAt(history, _time);\n    }\n\n    function lastSnapshot() public view returns (uint32, uint96) {\n        return Snapshot.lastSnapshot(history);\n    }\n\n    function lastValue() public view returns (uint96) {\n        return Snapshot.lastValue(history);\n    }\n\n\n}\n",
  "sourcePath": "contracts/LibTestSet.sol",
  "type": "contract"
}