{
  "abi": [
    {
      "inputs": [
        {
          "internalType": "contract StakingInterfaceRouter",
          "name": "_router",
          "type": "address"
        }
      ],
      "stateMutability": "nonpayable",
      "type": "constructor"
    },
    {
      "anonymous": false,
      "inputs": [
        {
          "indexed": true,
          "internalType": "address",
          "name": "previousOwner",
          "type": "address"
        },
        {
          "indexed": true,
          "internalType": "address",
          "name": "newOwner",
          "type": "address"
        }
      ],
      "name": "OwnershipTransferred",
      "type": "event"
    },
    {
      "stateMutability": "payable",
      "type": "fallback"
    },
    {
      "inputs": [],
      "name": "isFallbackAllowed",
      "outputs": [
        {
          "internalType": "bool",
          "name": "",
          "type": "bool"
        }
      ],
      "stateMutability": "nonpayable",
      "type": "function"
    },
    {
      "inputs": [],
      "name": "isOwner",
      "outputs": [
        {
          "internalType": "bool",
          "name": "",
          "type": "bool"
        }
      ],
      "stateMutability": "view",
      "type": "function"
    },
    {
      "inputs": [],
      "name": "owner",
      "outputs": [
        {
          "internalType": "address",
          "name": "",
          "type": "address"
        }
      ],
      "stateMutability": "view",
      "type": "function"
    },
    {
      "inputs": [],
      "name": "renounceOwnership",
      "outputs": [],
      "stateMutability": "nonpayable",
      "type": "function"
    },
    {
      "inputs": [],
      "name": "router",
      "outputs": [
        {
          "internalType": "contract StakingInterfaceRouter",
          "name": "",
          "type": "address"
        }
      ],
      "stateMutability": "view",
      "type": "function"
    },
    {
      "inputs": [],
      "name": "token",
      "outputs": [
        {
          "internalType": "contract NuCypherToken",
          "name": "",
          "type": "address"
        }
      ],
      "stateMutability": "view",
      "type": "function"
    },
    {
      "inputs": [
        {
          "internalType": "address",
          "name": "newOwner",
          "type": "address"
        }
      ],
      "name": "transferOwnership",
      "outputs": [],
      "stateMutability": "nonpayable",
      "type": "function"
    },
    {
      "inputs": [],
      "name": "withdrawETH",
      "outputs": [],
      "stateMutability": "nonpayable",
      "type": "function"
    },
    {
      "inputs": [
        {
          "internalType": "uint256",
          "name": "_value",
          "type": "uint256"
        }
      ],
      "name": "withdrawTokens",
      "outputs": [],
      "stateMutability": "nonpayable",
      "type": "function"
    }
  ],
  "bytecode": "60c060405234801561001057600080fd5b506040516108bf3803806108bf8339818101604052602081101561003357600080fd5b50516001600160601b0319606082901b1660805260408051636a5c1cc960e11b8152905182916000916001600160a01b0384169163d4b83992916004808301926020929190829003018186803b15801561008c57600080fd5b505afa1580156100a0573d6000803e3d6000fd5b505050506040513d60208110156100b657600080fd5b505160408051637e062a3560e11b815290516001600160a01b039092169163fc0c546a91600480820192602092909190829003018186803b1580156100fa57600080fd5b505afa15801561010e573d6000803e3d6000fd5b505050506040513d602081101561012457600080fd5b505190506001600160a01b03811661013b57600080fd5b60601b6001600160601b03191660a0525060008054336001600160a01b0319909116178082556040516001600160a01b0390911691907f8be0079c531659141344cd1fd0a4f28419497f9722a3daafe3b4186f6b6457e0908290a35060805160601c60a05160601c6106f66101c960003980610360528061047752508060a5528061045352506106f66000f3fe6080604052600436106100865760003560e01c8063bd4bd9ce11610059578063bd4bd9ce1461025c578063e086e5ec14610271578063f2fde38b14610286578063f887ea40146102b9578063fc0c546a146102ce57610086565b8063315a095d146101c3578063715018a6146101ed5780638da5cb5b146102025780638f32d59b14610233575b36610090576101c1565b6100986102e3565b6100a157600080fd5b60007f00000000000000000000000000000000000000000000000000000000000000006001600160a01b031663d4b839926040518163ffffffff1660e01b815260040160206040518083038186803b1580156100fc57600080fd5b505afa158015610110573d6000803e3d6000fd5b505050506040513d602081101561012657600080fd5b5051905061013c6001600160a01b038216610306565b61014557600080fd5b6000816001600160a01b03166000366040518083838082843760405192019450600093509091505080830381855af49150503d80600081146101a3576040519150601f19603f3d011682016040523d82523d6000602084013e6101a8565b606091505b5050905080156101bc573d6000803e3d6000f35b600080fd5b005b3480156101cf57600080fd5b506101c1600480360360208110156101e657600080fd5b5035610342565b3480156101f957600080fd5b506101c1610390565b34801561020e57600080fd5b506102176103eb565b604080516001600160a01b039092168252519081900360200190f35b34801561023f57600080fd5b506102486103fa565b604080519115158252519081900360200190f35b34801561026857600080fd5b506102486102e3565b34801561027d57600080fd5b506101c161040b565b34801561029257600080fd5b506101c1600480360360208110156102a957600080fd5b50356001600160a01b0316610437565b3480156102c557600080fd5b50610217610451565b3480156102da57600080fd5b50610217610475565b60006102ed6103eb565b6001600160a01b0316336001600160a01b031614905090565b6000813f7fc5d2460186f7233c927e7db2dcc703c0e500b653ca82273b7bfad8045d85a47081811480159061033a57508115155b949350505050565b61034a6103fa565b61035357600080fd5b61038d6001600160a01b037f000000000000000000000000000000000000000000000000000000000000000016338363ffffffff61049916565b50565b6103986103fa565b6103a157600080fd5b600080546040516001600160a01b03909116907f8be0079c531659141344cd1fd0a4f28419497f9722a3daafe3b4186f6b6457e0908390a3600080546001600160a01b0319169055565b6000546001600160a01b031690565b6000546001600160a01b0316331490565b6104136103fa565b61041c57600080fd5b478061042757600080fd5b61038d338263ffffffff61053316565b61043f6103fa565b61044857600080fd5b61038d81610618565b7f000000000000000000000000000000000000000000000000000000000000000081565b7f000000000000000000000000000000000000000000000000000000000000000081565b826001600160a01b031663a9059cbb83836040518363ffffffff1660e01b815260040180836001600160a01b03166001600160a01b0316815260200182815260200192505050602060405180830381600087803b1580156104f957600080fd5b505af115801561050d573d6000803e3d6000fd5b505050506040513d602081101561052357600080fd5b505161052e57600080fd5b505050565b80471015610588576040805162461bcd60e51b815260206004820152601d60248201527f416464726573733a20696e73756666696369656e742062616c616e6365000000604482015290519081900360640190fd5b6040516000906001600160a01b0384169083908381818185875af1925050503d80600081146105d3576040519150601f19603f3d011682016040523d82523d6000602084013e6105d8565b606091505b505090508061052e5760405162461bcd60e51b815260040180806020018281038252603a815260200180610687603a913960400191505060405180910390fd5b6001600160a01b03811661062b57600080fd5b600080546040516001600160a01b03808516939216917f8be0079c531659141344cd1fd0a4f28419497f9722a3daafe3b4186f6b6457e091a3600080546001600160a01b0319166001600160a01b039290921691909117905556fe416464726573733a20756e61626c6520746f2073656e642076616c75652c20726563697069656e74206d61792068617665207265766572746564a26469706673582212202daf65cc57702cb877d25ec2a479e8aad8c031728f9e5b285eb56737f1bff08164736f6c63430006070033",
  "bytecodeSha1": "bbf4c9ffb40eb4327c4145a0ebc1e9c9c029f806",
  "compiler": {
    "evm_version": "berlin",
    "optimizer": {
      "enabled": true,
      "runs": 200
    },
    "version": "0.6.7"
  },
  "contractName": "SimpleStakingContract",
  "language": "Solidity",
  "natspec": {
    "methods": {
      "constructor": {
        "params": {
          "_router": "Address of the StakingInterfaceRouter contract"
        }
      },
      "isFallbackAllowed()": {
        "notice": "Calling fallback function is allowed only for the owner"
      },
      "renounceOwnership()": {
        "details": "Allows the current owner to relinquish control of the contract.",
        "notice": "Renouncing to ownership will leave the contract without an owner. It will not be possible to call the functions with the `onlyOwner` modifier anymore."
      },
      "transferOwnership(address)": {
        "details": "Allows the current owner to transfer control of the contract to a newOwner.",
        "params": {
          "newOwner": "The address to transfer ownership to."
        }
      },
      "withdrawETH()": {
        "notice": "Withdraw available ETH to the owner"
      },
      "withdrawTokens(uint256)": {
        "notice": "Withdraw available amount of tokens to owner",
        "params": {
          "_value": "Amount of token to withdraw"
        }
      }
    },
    "notice": "Simple implementation of AbstractStakingContract"
  },
  "opcodes": "PUSH1 0x80 PUSH1 0x40 MSTORE PUSH1 0x4 CALLDATASIZE LT PUSH2 0x86 JUMPI PUSH1 0x0 CALLDATALOAD PUSH1 0xE0 SHR DUP1 PUSH4 0xBD4BD9CE GT PUSH2 0x59 JUMPI DUP1 PUSH4 0xBD4BD9CE EQ PUSH2 0x25C JUMPI DUP1 PUSH4 0xE086E5EC EQ PUSH2 0x271 JUMPI DUP1 PUSH4 0xF2FDE38B EQ PUSH2 0x286 JUMPI DUP1 PUSH4 0xF887EA40 EQ PUSH2 0x2B9 JUMPI DUP1 PUSH4 0xFC0C546A EQ PUSH2 0x2CE JUMPI PUSH2 0x86 JUMP JUMPDEST DUP1 PUSH4 0x315A095D EQ PUSH2 0x1C3 JUMPI DUP1 PUSH4 0x715018A6 EQ PUSH2 0x1ED JUMPI DUP1 PUSH4 0x8DA5CB5B EQ PUSH2 0x202 JUMPI DUP1 PUSH4 0x8F32D59B EQ PUSH2 0x233 JUMPI JUMPDEST CALLDATASIZE PUSH2 0x90 JUMPI PUSH2 0x1C1 JUMP JUMPDEST PUSH2 0x98 PUSH2 0x2E3 JUMP JUMPDEST PUSH2 0xA1 JUMPI PUSH1 0x0 DUP1 REVERT JUMPDEST PUSH1 0x0 PUSH32 0x0 PUSH1 0x1 PUSH1 0x1 PUSH1 0xA0 SHL SUB AND PUSH4 0xD4B83992 PUSH1 0x40 MLOAD DUP2 PUSH4 0xFFFFFFFF AND PUSH1 0xE0 SHL DUP2 MSTORE PUSH1 0x4 ADD PUSH1 0x20 PUSH1 0x40 MLOAD DUP1 DUP4 SUB DUP2 DUP7 DUP1 EXTCODESIZE ISZERO DUP1 ISZERO PUSH2 0xFC JUMPI PUSH1 0x0 DUP1 REVERT JUMPDEST POP GAS STATICCALL ISZERO DUP1 ISZERO PUSH2 0x110 JUMPI RETURNDATASIZE PUSH1 0x0 DUP1 RETURNDATACOPY RETURNDATASIZE PUSH1 0x0 REVERT JUMPDEST POP POP POP POP PUSH1 0x40 MLOAD RETURNDATASIZE PUSH1 0x20 DUP2 LT ISZERO PUSH2 0x126 JUMPI PUSH1 0x0 DUP1 REVERT JUMPDEST POP MLOAD SWAP1 POP PUSH2 0x13C PUSH1 0x1 PUSH1 0x1 PUSH1 0xA0 SHL SUB DUP3 AND PUSH2 0x306 JUMP JUMPDEST PUSH2 0x145 JUMPI PUSH1 0x0 DUP1 REVERT JUMPDEST PUSH1 0x0 DUP2 PUSH1 0x1 PUSH1 0x1 PUSH1 0xA0 SHL SUB AND PUSH1 0x0 CALLDATASIZE PUSH1 0x40 MLOAD DUP1 DUP4 DUP4 DUP1 DUP3 DUP5 CALLDATACOPY PUSH1 0x40 MLOAD SWAP3 ADD SWAP5 POP PUSH1 0x0 SWAP4 POP SWAP1 SWAP2 POP POP DUP1 DUP4 SUB DUP2 DUP6 GAS DELEGATECALL SWAP2 POP POP RETURNDATASIZE DUP1 PUSH1 0x0 DUP2 EQ PUSH2 0x1A3 JUMPI PUSH1 0x40 MLOAD SWAP2 POP PUSH1 0x1F NOT PUSH1 0x3F RETURNDATASIZE ADD AND DUP3 ADD PUSH1 0x40 MSTORE RETURNDATASIZE DUP3 MSTORE RETURNDATASIZE PUSH1 0x0 PUSH1 0x20 DUP5 ADD RETURNDATACOPY PUSH2 0x1A8 JUMP JUMPDEST PUSH1 0x60 SWAP2 POP JUMPDEST POP POP SWAP1 POP DUP1 ISZERO PUSH2 0x1BC JUMPI RETURNDATASIZE PUSH1 0x0 DUP1 RETURNDATACOPY RETURNDATASIZE PUSH1 0x0 RETURN JUMPDEST PUSH1 0x0 DUP1 REVERT JUMPDEST STOP JUMPDEST CALLVALUE DUP1 ISZERO PUSH2 0x1CF JUMPI PUSH1 0x0 DUP1 REVERT JUMPDEST POP PUSH2 0x1C1 PUSH1 0x4 DUP1 CALLDATASIZE SUB PUSH1 0x20 DUP2 LT ISZERO PUSH2 0x1E6 JUMPI PUSH1 0x0 DUP1 REVERT JUMPDEST POP CALLDATALOAD PUSH2 0x342 JUMP JUMPDEST CALLVALUE DUP1 ISZERO PUSH2 0x1F9 JUMPI PUSH1 0x0 DUP1 REVERT JUMPDEST POP PUSH2 0x1C1 PUSH2 0x390 JUMP JUMPDEST CALLVALUE DUP1 ISZERO PUSH2 0x20E JUMPI PUSH1 0x0 DUP1 REVERT JUMPDEST POP PUSH2 0x217 PUSH2 0x3EB JUMP JUMPDEST PUSH1 0x40 DUP1 MLOAD PUSH1 0x1 PUSH1 0x1 PUSH1 0xA0 SHL SUB SWAP1 SWAP3 AND DUP3 MSTORE MLOAD SWAP1 DUP2 SWAP1 SUB PUSH1 0x20 ADD SWAP1 RETURN JUMPDEST CALLVALUE DUP1 ISZERO PUSH2 0x23F JUMPI PUSH1 0x0 DUP1 REVERT JUMPDEST POP PUSH2 0x248 PUSH2 0x3FA JUMP JUMPDEST PUSH1 0x40 DUP1 MLOAD SWAP2 ISZERO ISZERO DUP3 MSTORE MLOAD SWAP1 DUP2 SWAP1 SUB PUSH1 0x20 ADD SWAP1 RETURN JUMPDEST CALLVALUE DUP1 ISZERO PUSH2 0x268 JUMPI PUSH1 0x0 DUP1 REVERT JUMPDEST POP PUSH2 0x248 PUSH2 0x2E3 JUMP JUMPDEST CALLVALUE DUP1 ISZERO PUSH2 0x27D JUMPI PUSH1 0x0 DUP1 REVERT JUMPDEST POP PUSH2 0x1C1 PUSH2 0x40B JUMP JUMPDEST CALLVALUE DUP1 ISZERO PUSH2 0x292 JUMPI PUSH1 0x0 DUP1 REVERT JUMPDEST POP PUSH2 0x1C1 PUSH1 0x4 DUP1 CALLDATASIZE SUB PUSH1 0x20 DUP2 LT ISZERO PUSH2 0x2A9 JUMPI PUSH1 0x0 DUP1 REVERT JUMPDEST POP CALLDATALOAD PUSH1 0x1 PUSH1 0x1 PUSH1 0xA0 SHL SUB AND PUSH2 0x437 JUMP JUMPDEST CALLVALUE DUP1 ISZERO PUSH2 0x2C5 JUMPI PUSH1 0x0 DUP1 REVERT JUMPDEST POP PUSH2 0x217 PUSH2 0x451 JUMP JUMPDEST CALLVALUE DUP1 ISZERO PUSH2 0x2DA JUMPI PUSH1 0x0 DUP1 REVERT JUMPDEST POP PUSH2 0x217 PUSH2 0x475 JUMP JUMPDEST PUSH1 0x0 PUSH2 0x2ED PUSH2 0x3EB JUMP JUMPDEST PUSH1 0x1 PUSH1 0x1 PUSH1 0xA0 SHL SUB AND CALLER PUSH1 0x1 PUSH1 0x1 PUSH1 0xA0 SHL SUB AND EQ SWAP1 POP SWAP1 JUMP JUMPDEST PUSH1 0x0 DUP2 EXTCODEHASH PUSH32 0xC5D2460186F7233C927E7DB2DCC703C0E500B653CA82273B7BFAD8045D85A470 DUP2 DUP2 EQ DUP1 ISZERO SWAP1 PUSH2 0x33A JUMPI POP DUP2 ISZERO ISZERO JUMPDEST SWAP5 SWAP4 POP POP POP POP JUMP JUMPDEST PUSH2 0x34A PUSH2 0x3FA JUMP JUMPDEST PUSH2 0x353 JUMPI PUSH1 0x0 DUP1 REVERT JUMPDEST PUSH2 0x38D PUSH1 0x1 PUSH1 0x1 PUSH1 0xA0 SHL SUB PUSH32 0x0 AND CALLER DUP4 PUSH4 0xFFFFFFFF PUSH2 0x499 AND JUMP JUMPDEST POP JUMP JUMPDEST PUSH2 0x398 PUSH2 0x3FA JUMP JUMPDEST PUSH2 0x3A1 JUMPI PUSH1 0x0 DUP1 REVERT JUMPDEST PUSH1 0x0 DUP1 SLOAD PUSH1 0x40 MLOAD PUSH1 0x1 PUSH1 0x1 PUSH1 0xA0 SHL SUB SWAP1 SWAP2 AND SWAP1 PUSH32 0x8BE0079C531659141344CD1FD0A4F28419497F9722A3DAAFE3B4186F6B6457E0 SWAP1 DUP4 SWAP1 LOG3 PUSH1 0x0 DUP1 SLOAD PUSH1 0x1 PUSH1 0x1 PUSH1 0xA0 SHL SUB NOT AND SWAP1 SSTORE JUMP JUMPDEST PUSH1 0x0 SLOAD PUSH1 0x1 PUSH1 0x1 PUSH1 0xA0 SHL SUB AND SWAP1 JUMP JUMPDEST PUSH1 0x0 SLOAD PUSH1 0x1 PUSH1 0x1 PUSH1 0xA0 SHL SUB AND CALLER EQ SWAP1 JUMP JUMPDEST PUSH2 0x413 PUSH2 0x3FA JUMP JUMPDEST PUSH2 0x41C JUMPI PUSH1 0x0 DUP1 REVERT JUMPDEST SELFBALANCE DUP1 PUSH2 0x427 JUMPI PUSH1 0x0 DUP1 REVERT JUMPDEST PUSH2 0x38D CALLER DUP3 PUSH4 0xFFFFFFFF PUSH2 0x533 AND JUMP JUMPDEST PUSH2 0x43F PUSH2 0x3FA JUMP JUMPDEST PUSH2 0x448 JUMPI PUSH1 0x0 DUP1 REVERT JUMPDEST PUSH2 0x38D DUP2 PUSH2 0x618 JUMP JUMPDEST PUSH32 0x0 DUP2 JUMP JUMPDEST PUSH32 0x0 DUP2 JUMP JUMPDEST DUP3 PUSH1 0x1 PUSH1 0x1 PUSH1 0xA0 SHL SUB AND PUSH4 0xA9059CBB DUP4 DUP4 PUSH1 0x40 MLOAD DUP4 PUSH4 0xFFFFFFFF AND PUSH1 0xE0 SHL DUP2 MSTORE PUSH1 0x4 ADD DUP1 DUP4 PUSH1 0x1 PUSH1 0x1 PUSH1 0xA0 SHL SUB AND PUSH1 0x1 PUSH1 0x1 PUSH1 0xA0 SHL SUB AND DUP2 MSTORE PUSH1 0x20 ADD DUP3 DUP2 MSTORE PUSH1 0x20 ADD SWAP3 POP POP POP PUSH1 0x20 PUSH1 0x40 MLOAD DUP1 DUP4 SUB DUP2 PUSH1 0x0 DUP8 DUP1 EXTCODESIZE ISZERO DUP1 ISZERO PUSH2 0x4F9 JUMPI PUSH1 0x0 DUP1 REVERT JUMPDEST POP GAS CALL ISZERO DUP1 ISZERO PUSH2 0x50D JUMPI RETURNDATASIZE PUSH1 0x0 DUP1 RETURNDATACOPY RETURNDATASIZE PUSH1 0x0 REVERT JUMPDEST POP POP POP POP PUSH1 0x40 MLOAD RETURNDATASIZE PUSH1 0x20 DUP2 LT ISZERO PUSH2 0x523 JUMPI PUSH1 0x0 DUP1 REVERT JUMPDEST POP MLOAD PUSH2 0x52E JUMPI PUSH1 0x0 DUP1 REVERT JUMPDEST POP POP POP JUMP JUMPDEST DUP1 SELFBALANCE LT ISZERO PUSH2 0x588 JUMPI PUSH1 0x40 DUP1 MLOAD PUSH3 0x461BCD PUSH1 0xE5 SHL DUP2 MSTORE PUSH1 0x20 PUSH1 0x4 DUP3 ADD MSTORE PUSH1 0x1D PUSH1 0x24 DUP3 ADD MSTORE PUSH32 0x416464726573733A20696E73756666696369656E742062616C616E6365000000 PUSH1 0x44 DUP3 ADD MSTORE SWAP1 MLOAD SWAP1 DUP2 SWAP1 SUB PUSH1 0x64 ADD SWAP1 REVERT JUMPDEST PUSH1 0x40 MLOAD PUSH1 0x0 SWAP1 PUSH1 0x1 PUSH1 0x1 PUSH1 0xA0 SHL SUB DUP5 AND SWAP1 DUP4 SWAP1 DUP4 DUP2 DUP2 DUP2 DUP6 DUP8 GAS CALL SWAP3 POP POP POP RETURNDATASIZE DUP1 PUSH1 0x0 DUP2 EQ PUSH2 0x5D3 JUMPI PUSH1 0x40 MLOAD SWAP2 POP PUSH1 0x1F NOT PUSH1 0x3F RETURNDATASIZE ADD AND DUP3 ADD PUSH1 0x40 MSTORE RETURNDATASIZE DUP3 MSTORE RETURNDATASIZE PUSH1 0x0 PUSH1 0x20 DUP5 ADD RETURNDATACOPY PUSH2 0x5D8 JUMP JUMPDEST PUSH1 0x60 SWAP2 POP JUMPDEST POP POP SWAP1 POP DUP1 PUSH2 0x52E JUMPI PUSH1 0x40 MLOAD PUSH3 0x461BCD PUSH1 0xE5 SHL DUP2 MSTORE PUSH1 0x4 ADD DUP1 DUP1 PUSH1 0x20 ADD DUP3 DUP2 SUB DUP3 MSTORE PUSH1 0x3A DUP2 MSTORE PUSH1 0x20 ADD DUP1 PUSH2 0x687 PUSH1 0x3A SWAP2 CODECOPY PUSH1 0x40 ADD SWAP2 POP POP PUSH1 0x40 MLOAD DUP1 SWAP2 SUB SWAP1 REVERT JUMPDEST PUSH1 0x1 PUSH1 0x1 PUSH1 0xA0 SHL SUB DUP2 AND PUSH2 0x62B JUMPI PUSH1 0x0 DUP1 REVERT JUMPDEST PUSH1 0x0 DUP1 SLOAD PUSH1 0x40 MLOAD PUSH1 0x1 PUSH1 0x1 PUSH1 0xA0 SHL SUB DUP1 DUP6 AND SWAP4 SWAP3 AND SWAP2 PUSH32 0x8BE0079C531659141344CD1FD0A4F28419497F9722A3DAAFE3B4186F6B6457E0 SWAP2 LOG3 PUSH1 0x0 DUP1 SLOAD PUSH1 0x1 PUSH1 0x1 PUSH1 0xA0 SHL SUB NOT AND PUSH1 0x1 PUSH1 0x1 PUSH1 0xA0 SHL SUB SWAP3 SWAP1 SWAP3 AND SWAP2 SWAP1 SWAP2 OR SWAP1 SSTORE JUMP INVALID COINBASE PUSH5 0x6472657373 GASPRICE KECCAK256 PUSH22 0x6E61626C6520746F2073656E642076616C75652C2072 PUSH6 0x63697069656E PUSH21 0x206D61792068617665207265766572746564A26469 PUSH17 0x6673582212202DAF65CC57702CB877D25E 0xC2 LOG4 PUSH26 0xE8AAD8C031728F9E5B285EB56737F1BFF08164736F6C63430006 SMOD STOP CALLER ",
  "sha1": "34ecfb28f9ef3da50fadd2e988a617b577f24235",
  "source": "pragma solidity ^0.6.5;\n\n\nimport \"contracts/NuCypherToken.sol\";\nimport \"contracts/staking_contracts/AbstractStakingContract.sol\";\n\n\n/**\n* @notice Contract for using in staking contracts tests\n*/\ncontract StakingEscrowForStakingContractMock {\n\n    NuCypherToken immutable token;\n    uint32 public secondsPerPeriod = 1;\n    address public node;\n    uint256 public value;\n    uint256 public lockedValue;\n    uint16 public periods;\n    uint256 public index;\n    bool public reStake;\n    uint16 public lockReStakeUntilPeriod;\n    address public worker;\n    bool public windDown;\n\n    constructor(NuCypherToken _token) public {\n        token = _token;\n    }\n\n    function deposit(uint256 _value, uint16 _periods) external {\n        deposit(msg.sender, _value, _periods);\n    }\n\n    function deposit(address _node, uint256 _value, uint16 _periods) public {\n        node = _node;\n        value += _value;\n        lockedValue += _value;\n        periods += _periods;\n        token.transferFrom(msg.sender, address(this), _value);\n    }\n\n    function lock(uint256 _value, uint16 _periods) external {\n        lockedValue += _value;\n        periods += _periods;\n    }\n\n    function divideStake(uint256 _index, uint256 _newValue, uint16 _periods) external {\n        index = _index;\n        lockedValue += _newValue;\n        periods += _periods;\n    }\n\n    function withdraw(uint256 _value) public {\n        value -= _value;\n        token.transfer(msg.sender, _value);\n    }\n\n    function withdrawAll() external {\n        withdraw(value);\n    }\n\n    function mint() external {\n        value += 1000;\n    }\n\n    function setReStake(bool _reStake) external {\n        reStake = _reStake;\n    }\n\n    function lockReStake(uint16 _lockReStakeUntilPeriod) external {\n        lockReStakeUntilPeriod = _lockReStakeUntilPeriod;\n    }\n\n    function bondWorker(address _worker) external {\n        worker = _worker;\n    }\n\n    function prolongStake(uint256 _index, uint16 _periods) external {\n        index = _index;\n        periods += _periods;\n    }\n\n    function getAllTokens(address) external view returns (uint256) {\n        return value;\n    }\n\n    function setWindDown(bool _windDown) external {\n        windDown = _windDown;\n    }\n}\n\n\n/**\n* @notice Contract for staking contract tests\n*/\ncontract PolicyManagerForStakingContractMock {\n\n    uint32 public immutable secondsPerPeriod = 1;\n    uint256 public minFeeRate;\n\n    function withdraw() public returns (uint256) {\n        uint256 value = address(this).balance;\n        require(value > 0);\n        msg.sender.transfer(value);\n        return value;\n    }\n\n    function setMinFeeRate(uint256 _minFeeRate) public {\n        minFeeRate = _minFeeRate;\n    }\n\n    function additionalMethod(uint256 _minFeeRate) public {\n        minFeeRate = _minFeeRate;\n    }\n\n    // TODO #1809\n//    receive() external payable {}\n    fallback() external payable {}\n}\n\n\n/**\n* @notice Contract for staking contract tests\n*/\ncontract WorkLockForStakingContractMock {\n\n    uint256 public immutable boostingRefund = 1;\n    uint256 public claimed;\n    uint256 public depositedETH;\n    uint256 public compensation;\n    uint256 public refundETH;\n\n    function bid() external payable {\n        depositedETH = msg.value;\n    }\n\n    function cancelBid() external {\n        uint256 value = depositedETH;\n        depositedETH = 0;\n        msg.sender.transfer(value);\n    }\n\n    function sendCompensation() external payable {\n        compensation = msg.value;\n    }\n\n    function withdrawCompensation() external {\n        uint256 value = compensation;\n        compensation = 0;\n        msg.sender.transfer(value);\n    }\n\n    function claim() external returns (uint256) {\n        claimed += 1;\n        return claimed;\n    }\n\n    function sendRefund() external payable {\n        refundETH = msg.value;\n    }\n\n    function refund() external returns (uint256) {\n        uint256 value = refundETH;\n        refundETH = 0;\n        msg.sender.transfer(value);\n        return value;\n    }\n\n}\n\n\n/**\n* @notice Contract for staking contract tests\n*/\ncontract StakingInterfaceMockV1 {\n\n    address public immutable token = address(1);\n    address public immutable escrow = address(1);\n\n    function firstMethod() public pure {}\n\n    function secondMethod() public pure returns (uint256) {\n        return 20;\n    }\n\n}\n\n\n/**\n* @notice Contract for staking contract tests\n*/\ncontract StakingInterfaceMockV2 {\n\n    address public immutable token = address(1);\n    address public immutable escrow = address(1);\n\n    // TODO #1809\n//    receive() external payable {}\n    fallback() external payable {\n        // can only use with ETH\n        require(msg.value > 0);\n    }\n\n    function firstMethod(uint256) public pure {}\n\n    function secondMethod() public pure returns (uint256) {\n        return 15;\n    }\n\n    function thirdMethod() public pure {}\n\n}\n\n\n/**\n* @dev Interface that could be destroyed by selfdestruct\n*/\ncontract DestroyableStakingInterface {\n\n    address public immutable token = address(1);\n    address public immutable escrow = address(1);\n\n    function method() public pure returns (uint256) {\n        return 15;\n    }\n\n    function destroy() public {\n        selfdestruct(msg.sender);\n    }\n\n}\n\n\n/**\n* @notice Simple implementation of AbstractStakingContract\n*/\ncontract SimpleStakingContract is AbstractStakingContract, Ownable {\n\n    /**\n    * @param _router Address of the StakingInterfaceRouter contract\n    */\n    constructor(StakingInterfaceRouter _router) public AbstractStakingContract(_router) {}\n\n    /**\n    * @notice Withdraw available amount of tokens to owner\n    * @param _value Amount of token to withdraw\n    */\n    function withdrawTokens(uint256 _value) public override onlyOwner {\n        token.safeTransfer(msg.sender, _value);\n    }\n\n    /**\n    * @notice Withdraw available ETH to the owner\n    */\n    function withdrawETH() public override onlyOwner {\n        uint256 balance = address(this).balance;\n        require(balance != 0);\n        msg.sender.sendValue(balance);\n    }\n\n    /**\n    * @notice Calling fallback function is allowed only for the owner\n    */\n    function isFallbackAllowed() public override returns (bool) {\n        return msg.sender == owner();\n    }\n\n}\n",
  "sourcePath": "contracts/StakingContractsTestSet.sol",
  "type": "contract"
}