{
  "abi": [
    {
      "inputs": [
        {
          "internalType": "uint256",
          "name": "_time",
          "type": "uint256"
        },
        {
          "internalType": "uint256",
          "name": "_value",
          "type": "uint256"
        }
      ],
      "name": "addSnapshot",
      "outputs": [],
      "stateMutability": "nonpayable",
      "type": "function"
    },
    {
      "inputs": [
        {
          "internalType": "uint128",
          "name": "_snapshot",
          "type": "uint128"
        }
      ],
      "name": "decodeSnapshot",
      "outputs": [
        {
          "internalType": "uint32",
          "name": "",
          "type": "uint32"
        },
        {
          "internalType": "uint96",
          "name": "",
          "type": "uint96"
        }
      ],
      "stateMutability": "pure",
      "type": "function"
    },
    {
      "inputs": [],
      "name": "deleteHistory",
      "outputs": [],
      "stateMutability": "nonpayable",
      "type": "function"
    },
    {
      "inputs": [
        {
          "internalType": "uint32",
          "name": "_time",
          "type": "uint32"
        },
        {
          "internalType": "uint96",
          "name": "_value",
          "type": "uint96"
        }
      ],
      "name": "encodeSnapshot",
      "outputs": [
        {
          "internalType": "uint128",
          "name": "",
          "type": "uint128"
        }
      ],
      "stateMutability": "pure",
      "type": "function"
    },
    {
      "inputs": [
        {
          "internalType": "uint256",
          "name": "_time",
          "type": "uint256"
        }
      ],
      "name": "getValueAt",
      "outputs": [
        {
          "internalType": "uint96",
          "name": "",
          "type": "uint96"
        }
      ],
      "stateMutability": "view",
      "type": "function"
    },
    {
      "inputs": [
        {
          "internalType": "uint256",
          "name": "",
          "type": "uint256"
        }
      ],
      "name": "history",
      "outputs": [
        {
          "internalType": "uint128",
          "name": "",
          "type": "uint128"
        }
      ],
      "stateMutability": "view",
      "type": "function"
    },
    {
      "inputs": [],
      "name": "lastSnapshot",
      "outputs": [
        {
          "internalType": "uint32",
          "name": "",
          "type": "uint32"
        },
        {
          "internalType": "uint96",
          "name": "",
          "type": "uint96"
        }
      ],
      "stateMutability": "view",
      "type": "function"
    },
    {
      "inputs": [],
      "name": "lastValue",
      "outputs": [
        {
          "internalType": "uint96",
          "name": "",
          "type": "uint96"
        }
      ],
      "stateMutability": "view",
      "type": "function"
    },
    {
      "inputs": [],
      "name": "length",
      "outputs": [
        {
          "internalType": "uint256",
          "name": "",
          "type": "uint256"
        }
      ],
      "stateMutability": "view",
      "type": "function"
    }
  ],
  "bytecode": "608060405234801561001057600080fd5b506105f1806100206000396000f3fe608060405234801561001057600080fd5b50600436106100935760003560e01c8063bc6b888b11610066578063bc6b888b14610119578063c2dbc37714610136578063f2986e6f14610168578063fb861ac11461018b578063fd5120ef146101bb57610093565b80631f7b6d321461009857806343183834146100b25780636b0994e2146100d6578063a7a38f0b146100e0575b600080fd5b6100a06101e1565b60408051918252519081900360200190f35b6100ba6101e8565b604080516001600160601b039092168252519081900360200190f35b6100de6101f9565b005b6100fd600480360360208110156100f657600080fd5b5035610206565b604080516001600160801b039092168252519081900360200190f35b6100ba6004803603602081101561012f57600080fd5b5035610240565b6100fd6004803603604081101561014c57600080fd5b50803563ffffffff1690602001356001600160601b0316610253565b6100de6004803603604081101561017e57600080fd5b5080359060200135610266565b610193610276565b6040805163ffffffff90931683526001600160601b0390911660208301528051918290030190f35b610193600480360360208110156101d157600080fd5b50356001600160801b031661028b565b6000545b90565b60006101f460006102a1565b905090565b610204600080610575565b565b6000818154811061021357fe5b9060005260206000209060029182820401919006601002915054906101000a90046001600160801b031681565b600061024d6000836102b5565b92915050565b600061025f838361041e565b9392505050565b6102726000838361043a565b5050565b6000806102836000610532565b915091509091565b60008061029783610567565b915091505b915091565b6000806102ad83610532565b949350505050565b81546000908290806102cc5760009250505061024d565b60006001820390506000806103178860018603815481106102e957fe5b90600052602060002090600291828204019190066010029054906101000a90046001600160801b0316610567565b915091508163ffffffff168563ffffffff161061033a57945061024d9350505050565b61034a886000815481106102e957fe5b9092509050600184148061036957508163ffffffff168563ffffffff16105b1561037c5760009550505050505061024d565b6000600019840181805b838311156103fe57600060026001858701010490506103aa8d82815481106102e957fe5b909350915063ffffffff808416908b1611156103c8578094506103f8565b8263ffffffff168a63ffffffff1610156103e7576001810393506103f8565b50985061024d975050505050505050565b50610386565b61040d8c85815481106102e957fe5b9d9c50505050505050505050505050565b6001600160601b031660609190911b63ffffffff60601b161790565b825480156104e15760006104568560018403815481106102e957fe5b5090508063ffffffff168463ffffffff1614156104c657610477848461041e565b85600184038154811061048657fe5b90600052602060002090600291828204019190066010026101000a8154816001600160801b0302191690836001600160801b03160217905550505061052d565b8063ffffffff168463ffffffff1610156104df57600080fd5b505b836104ec848461041e565b81546001818101845560009384526020909320600282040180546001600160801b03938416601093909516929092026101000a938402929093021916179055505b505050565b80546000908190801561055b576105518460018303815481106102e957fe5b925092505061029c565b50600093849350915050565b63ffffffff606082901c1691565b50805460008255600101600290049060005260206000209081019061059a919061059d565b50565b6101e591905b808211156105b757600081556001016105a3565b509056fea2646970667358221220e7bc3a3d5a5187cd05297423735d2e3b76aa44714e0f8b6e33a4e067def2fc2d64736f6c63430006070033",
  "bytecodeSha1": "57a0bbd6b736e8542e5ceff14f4dfcd4dd98e286",
  "compiler": {
    "evm_version": "berlin",
    "optimizer": {
      "enabled": true,
      "runs": 200
    },
    "version": "0.6.7"
  },
  "contractName": "SnapshotMock",
  "language": "Solidity",
  "natspec": {
    "methods": {},
    "notice": "Contract for using Snapshot library"
  },
  "opcodes": "PUSH1 0x80 PUSH1 0x40 MSTORE CALLVALUE DUP1 ISZERO PUSH2 0x10 JUMPI PUSH1 0x0 DUP1 REVERT JUMPDEST POP PUSH1 0x4 CALLDATASIZE LT PUSH2 0x93 JUMPI PUSH1 0x0 CALLDATALOAD PUSH1 0xE0 SHR DUP1 PUSH4 0xBC6B888B GT PUSH2 0x66 JUMPI DUP1 PUSH4 0xBC6B888B EQ PUSH2 0x119 JUMPI DUP1 PUSH4 0xC2DBC377 EQ PUSH2 0x136 JUMPI DUP1 PUSH4 0xF2986E6F EQ PUSH2 0x168 JUMPI DUP1 PUSH4 0xFB861AC1 EQ PUSH2 0x18B JUMPI DUP1 PUSH4 0xFD5120EF EQ PUSH2 0x1BB JUMPI PUSH2 0x93 JUMP JUMPDEST DUP1 PUSH4 0x1F7B6D32 EQ PUSH2 0x98 JUMPI DUP1 PUSH4 0x43183834 EQ PUSH2 0xB2 JUMPI DUP1 PUSH4 0x6B0994E2 EQ PUSH2 0xD6 JUMPI DUP1 PUSH4 0xA7A38F0B EQ PUSH2 0xE0 JUMPI JUMPDEST PUSH1 0x0 DUP1 REVERT JUMPDEST PUSH2 0xA0 PUSH2 0x1E1 JUMP JUMPDEST PUSH1 0x40 DUP1 MLOAD SWAP2 DUP3 MSTORE MLOAD SWAP1 DUP2 SWAP1 SUB PUSH1 0x20 ADD SWAP1 RETURN JUMPDEST PUSH2 0xBA PUSH2 0x1E8 JUMP JUMPDEST PUSH1 0x40 DUP1 MLOAD PUSH1 0x1 PUSH1 0x1 PUSH1 0x60 SHL SUB SWAP1 SWAP3 AND DUP3 MSTORE MLOAD SWAP1 DUP2 SWAP1 SUB PUSH1 0x20 ADD SWAP1 RETURN JUMPDEST PUSH2 0xDE PUSH2 0x1F9 JUMP JUMPDEST STOP JUMPDEST PUSH2 0xFD PUSH1 0x4 DUP1 CALLDATASIZE SUB PUSH1 0x20 DUP2 LT ISZERO PUSH2 0xF6 JUMPI PUSH1 0x0 DUP1 REVERT JUMPDEST POP CALLDATALOAD PUSH2 0x206 JUMP JUMPDEST PUSH1 0x40 DUP1 MLOAD PUSH1 0x1 PUSH1 0x1 PUSH1 0x80 SHL SUB SWAP1 SWAP3 AND DUP3 MSTORE MLOAD SWAP1 DUP2 SWAP1 SUB PUSH1 0x20 ADD SWAP1 RETURN JUMPDEST PUSH2 0xBA PUSH1 0x4 DUP1 CALLDATASIZE SUB PUSH1 0x20 DUP2 LT ISZERO PUSH2 0x12F JUMPI PUSH1 0x0 DUP1 REVERT JUMPDEST POP CALLDATALOAD PUSH2 0x240 JUMP JUMPDEST PUSH2 0xFD PUSH1 0x4 DUP1 CALLDATASIZE SUB PUSH1 0x40 DUP2 LT ISZERO PUSH2 0x14C JUMPI PUSH1 0x0 DUP1 REVERT JUMPDEST POP DUP1 CALLDATALOAD PUSH4 0xFFFFFFFF AND SWAP1 PUSH1 0x20 ADD CALLDATALOAD PUSH1 0x1 PUSH1 0x1 PUSH1 0x60 SHL SUB AND PUSH2 0x253 JUMP JUMPDEST PUSH2 0xDE PUSH1 0x4 DUP1 CALLDATASIZE SUB PUSH1 0x40 DUP2 LT ISZERO PUSH2 0x17E JUMPI PUSH1 0x0 DUP1 REVERT JUMPDEST POP DUP1 CALLDATALOAD SWAP1 PUSH1 0x20 ADD CALLDATALOAD PUSH2 0x266 JUMP JUMPDEST PUSH2 0x193 PUSH2 0x276 JUMP JUMPDEST PUSH1 0x40 DUP1 MLOAD PUSH4 0xFFFFFFFF SWAP1 SWAP4 AND DUP4 MSTORE PUSH1 0x1 PUSH1 0x1 PUSH1 0x60 SHL SUB SWAP1 SWAP2 AND PUSH1 0x20 DUP4 ADD MSTORE DUP1 MLOAD SWAP2 DUP3 SWAP1 SUB ADD SWAP1 RETURN JUMPDEST PUSH2 0x193 PUSH1 0x4 DUP1 CALLDATASIZE SUB PUSH1 0x20 DUP2 LT ISZERO PUSH2 0x1D1 JUMPI PUSH1 0x0 DUP1 REVERT JUMPDEST POP CALLDATALOAD PUSH1 0x1 PUSH1 0x1 PUSH1 0x80 SHL SUB AND PUSH2 0x28B JUMP JUMPDEST PUSH1 0x0 SLOAD JUMPDEST SWAP1 JUMP JUMPDEST PUSH1 0x0 PUSH2 0x1F4 PUSH1 0x0 PUSH2 0x2A1 JUMP JUMPDEST SWAP1 POP SWAP1 JUMP JUMPDEST PUSH2 0x204 PUSH1 0x0 DUP1 PUSH2 0x575 JUMP JUMPDEST JUMP JUMPDEST PUSH1 0x0 DUP2 DUP2 SLOAD DUP2 LT PUSH2 0x213 JUMPI INVALID JUMPDEST SWAP1 PUSH1 0x0 MSTORE PUSH1 0x20 PUSH1 0x0 KECCAK256 SWAP1 PUSH1 0x2 SWAP2 DUP3 DUP3 DIV ADD SWAP2 SWAP1 MOD PUSH1 0x10 MUL SWAP2 POP SLOAD SWAP1 PUSH2 0x100 EXP SWAP1 DIV PUSH1 0x1 PUSH1 0x1 PUSH1 0x80 SHL SUB AND DUP2 JUMP JUMPDEST PUSH1 0x0 PUSH2 0x24D PUSH1 0x0 DUP4 PUSH2 0x2B5 JUMP JUMPDEST SWAP3 SWAP2 POP POP JUMP JUMPDEST PUSH1 0x0 PUSH2 0x25F DUP4 DUP4 PUSH2 0x41E JUMP JUMPDEST SWAP4 SWAP3 POP POP POP JUMP JUMPDEST PUSH2 0x272 PUSH1 0x0 DUP4 DUP4 PUSH2 0x43A JUMP JUMPDEST POP POP JUMP JUMPDEST PUSH1 0x0 DUP1 PUSH2 0x283 PUSH1 0x0 PUSH2 0x532 JUMP JUMPDEST SWAP2 POP SWAP2 POP SWAP1 SWAP2 JUMP JUMPDEST PUSH1 0x0 DUP1 PUSH2 0x297 DUP4 PUSH2 0x567 JUMP JUMPDEST SWAP2 POP SWAP2 POP JUMPDEST SWAP2 POP SWAP2 JUMP JUMPDEST PUSH1 0x0 DUP1 PUSH2 0x2AD DUP4 PUSH2 0x532 JUMP JUMPDEST SWAP5 SWAP4 POP POP POP POP JUMP JUMPDEST DUP2 SLOAD PUSH1 0x0 SWAP1 DUP3 SWAP1 DUP1 PUSH2 0x2CC JUMPI PUSH1 0x0 SWAP3 POP POP POP PUSH2 0x24D JUMP JUMPDEST PUSH1 0x0 PUSH1 0x1 DUP3 SUB SWAP1 POP PUSH1 0x0 DUP1 PUSH2 0x317 DUP9 PUSH1 0x1 DUP7 SUB DUP2 SLOAD DUP2 LT PUSH2 0x2E9 JUMPI INVALID JUMPDEST SWAP1 PUSH1 0x0 MSTORE PUSH1 0x20 PUSH1 0x0 KECCAK256 SWAP1 PUSH1 0x2 SWAP2 DUP3 DUP3 DIV ADD SWAP2 SWAP1 MOD PUSH1 0x10 MUL SWAP1 SLOAD SWAP1 PUSH2 0x100 EXP SWAP1 DIV PUSH1 0x1 PUSH1 0x1 PUSH1 0x80 SHL SUB AND PUSH2 0x567 JUMP JUMPDEST SWAP2 POP SWAP2 POP DUP2 PUSH4 0xFFFFFFFF AND DUP6 PUSH4 0xFFFFFFFF AND LT PUSH2 0x33A JUMPI SWAP5 POP PUSH2 0x24D SWAP4 POP POP POP POP JUMP JUMPDEST PUSH2 0x34A DUP9 PUSH1 0x0 DUP2 SLOAD DUP2 LT PUSH2 0x2E9 JUMPI INVALID JUMPDEST SWAP1 SWAP3 POP SWAP1 POP PUSH1 0x1 DUP5 EQ DUP1 PUSH2 0x369 JUMPI POP DUP2 PUSH4 0xFFFFFFFF AND DUP6 PUSH4 0xFFFFFFFF AND LT JUMPDEST ISZERO PUSH2 0x37C JUMPI PUSH1 0x0 SWAP6 POP POP POP POP POP POP PUSH2 0x24D JUMP JUMPDEST PUSH1 0x0 PUSH1 0x0 NOT DUP5 ADD DUP2 DUP1 JUMPDEST DUP4 DUP4 GT ISZERO PUSH2 0x3FE JUMPI PUSH1 0x0 PUSH1 0x2 PUSH1 0x1 DUP6 DUP8 ADD ADD DIV SWAP1 POP PUSH2 0x3AA DUP14 DUP3 DUP2 SLOAD DUP2 LT PUSH2 0x2E9 JUMPI INVALID JUMPDEST SWAP1 SWAP4 POP SWAP2 POP PUSH4 0xFFFFFFFF DUP1 DUP5 AND SWAP1 DUP12 AND GT ISZERO PUSH2 0x3C8 JUMPI DUP1 SWAP5 POP PUSH2 0x3F8 JUMP JUMPDEST DUP3 PUSH4 0xFFFFFFFF AND DUP11 PUSH4 0xFFFFFFFF AND LT ISZERO PUSH2 0x3E7 JUMPI PUSH1 0x1 DUP2 SUB SWAP4 POP PUSH2 0x3F8 JUMP JUMPDEST POP SWAP9 POP PUSH2 0x24D SWAP8 POP POP POP POP POP POP POP POP JUMP JUMPDEST POP PUSH2 0x386 JUMP JUMPDEST PUSH2 0x40D DUP13 DUP6 DUP2 SLOAD DUP2 LT PUSH2 0x2E9 JUMPI INVALID JUMPDEST SWAP14 SWAP13 POP POP POP POP POP POP POP POP POP POP POP POP POP JUMP JUMPDEST PUSH1 0x1 PUSH1 0x1 PUSH1 0x60 SHL SUB AND PUSH1 0x60 SWAP2 SWAP1 SWAP2 SHL PUSH4 0xFFFFFFFF PUSH1 0x60 SHL AND OR SWAP1 JUMP JUMPDEST DUP3 SLOAD DUP1 ISZERO PUSH2 0x4E1 JUMPI PUSH1 0x0 PUSH2 0x456 DUP6 PUSH1 0x1 DUP5 SUB DUP2 SLOAD DUP2 LT PUSH2 0x2E9 JUMPI INVALID JUMPDEST POP SWAP1 POP DUP1 PUSH4 0xFFFFFFFF AND DUP5 PUSH4 0xFFFFFFFF AND EQ ISZERO PUSH2 0x4C6 JUMPI PUSH2 0x477 DUP5 DUP5 PUSH2 0x41E JUMP JUMPDEST DUP6 PUSH1 0x1 DUP5 SUB DUP2 SLOAD DUP2 LT PUSH2 0x486 JUMPI INVALID JUMPDEST SWAP1 PUSH1 0x0 MSTORE PUSH1 0x20 PUSH1 0x0 KECCAK256 SWAP1 PUSH1 0x2 SWAP2 DUP3 DUP3 DIV ADD SWAP2 SWAP1 MOD PUSH1 0x10 MUL PUSH2 0x100 EXP DUP2 SLOAD DUP2 PUSH1 0x1 PUSH1 0x1 PUSH1 0x80 SHL SUB MUL NOT AND SWAP1 DUP4 PUSH1 0x1 PUSH1 0x1 PUSH1 0x80 SHL SUB AND MUL OR SWAP1 SSTORE POP POP POP PUSH2 0x52D JUMP JUMPDEST DUP1 PUSH4 0xFFFFFFFF AND DUP5 PUSH4 0xFFFFFFFF AND LT ISZERO PUSH2 0x4DF JUMPI PUSH1 0x0 DUP1 REVERT JUMPDEST POP JUMPDEST DUP4 PUSH2 0x4EC DUP5 DUP5 PUSH2 0x41E JUMP JUMPDEST DUP2 SLOAD PUSH1 0x1 DUP2 DUP2 ADD DUP5 SSTORE PUSH1 0x0 SWAP4 DUP5 MSTORE PUSH1 0x20 SWAP1 SWAP4 KECCAK256 PUSH1 0x2 DUP3 DIV ADD DUP1 SLOAD PUSH1 0x1 PUSH1 0x1 PUSH1 0x80 SHL SUB SWAP4 DUP5 AND PUSH1 0x10 SWAP4 SWAP1 SWAP6 AND SWAP3 SWAP1 SWAP3 MUL PUSH2 0x100 EXP SWAP4 DUP5 MUL SWAP3 SWAP1 SWAP4 MUL NOT AND OR SWAP1 SSTORE POP JUMPDEST POP POP POP JUMP JUMPDEST DUP1 SLOAD PUSH1 0x0 SWAP1 DUP2 SWAP1 DUP1 ISZERO PUSH2 0x55B JUMPI PUSH2 0x551 DUP5 PUSH1 0x1 DUP4 SUB DUP2 SLOAD DUP2 LT PUSH2 0x2E9 JUMPI INVALID JUMPDEST SWAP3 POP SWAP3 POP POP PUSH2 0x29C JUMP JUMPDEST POP PUSH1 0x0 SWAP4 DUP5 SWAP4 POP SWAP2 POP POP JUMP JUMPDEST PUSH4 0xFFFFFFFF PUSH1 0x60 DUP3 SWAP1 SHR AND SWAP2 JUMP JUMPDEST POP DUP1 SLOAD PUSH1 0x0 DUP3 SSTORE PUSH1 0x1 ADD PUSH1 0x2 SWAP1 DIV SWAP1 PUSH1 0x0 MSTORE PUSH1 0x20 PUSH1 0x0 KECCAK256 SWAP1 DUP2 ADD SWAP1 PUSH2 0x59A SWAP2 SWAP1 PUSH2 0x59D JUMP JUMPDEST POP JUMP JUMPDEST PUSH2 0x1E5 SWAP2 SWAP1 JUMPDEST DUP1 DUP3 GT ISZERO PUSH2 0x5B7 JUMPI PUSH1 0x0 DUP2 SSTORE PUSH1 0x1 ADD PUSH2 0x5A3 JUMP JUMPDEST POP SWAP1 JUMP INVALID LOG2 PUSH5 0x6970667358 0x22 SLT KECCAK256 0xE7 0xBC GASPRICE RETURNDATASIZE GAS MLOAD DUP8 0xCD SDIV 0x29 PUSH21 0x23735D2E3B76AA44714E0F8B6E33A4E067DEF2FC2D PUSH5 0x736F6C6343 STOP MOD SMOD STOP CALLER ",
  "sha1": "bd2ed14b64f0f8e7ed3de2611feec520efd7759c",
  "source": "pragma solidity ^0.6.1;\n\n\nimport \"contracts/lib/SignatureVerifier.sol\";\nimport \"contracts/lib/Snapshot.sol\";\nimport \"contracts/lib/UmbralDeserializer.sol\";\nimport \"contracts/lib/ReEncryptionValidator.sol\";\n\n/**\n* @notice Contract for using SignatureVerifier library\n*/\ncontract SignatureVerifierMock {\n\n    function recover(bytes32 _hash, bytes memory _signature)\n        public\n        pure\n        returns (address)\n    {\n        return SignatureVerifier.recover(_hash, _signature);\n    }\n\n    function toAddress(bytes memory _publicKey) public pure returns (address) {\n        return SignatureVerifier.toAddress(_publicKey);\n    }\n\n    function hash(bytes memory _message, SignatureVerifier.HashAlgorithm _algorithm)\n        public\n        pure\n        returns (bytes32 result)\n    {\n        return SignatureVerifier.hash(_message, _algorithm);\n    }\n\n    function verify(\n        bytes memory _message,\n        bytes memory _signature,\n        bytes memory _publicKey,\n        SignatureVerifier.HashAlgorithm _algorithm\n    )\n        public\n        pure\n        returns (bool)\n    {\n        return SignatureVerifier.verify(_message, _signature, _publicKey, _algorithm);\n    }\n\n    function verifyEIP191(\n        bytes memory _message,\n        bytes memory _signature,\n        bytes memory _publicKey,\n        byte _version\n    )\n        public\n        view\n        returns (bool)\n    {\n        return SignatureVerifier.verifyEIP191(_message, _signature, _publicKey, _version);\n    }\n\n    function hashEIP191(\n        bytes memory _message,\n        byte _version\n    )\n        public\n        view\n        returns (bytes32)\n    {\n        return SignatureVerifier.hashEIP191(_message, _version);\n    }\n\n}\n\n\n/**\n* @dev Contract for testing UmbralDeserializer library\n*/\ncontract UmbralDeserializerMock {\n    using UmbralDeserializer for bytes;\n\n    function toCapsule(bytes memory _capsuleBytes)\n        public pure returns (\n            byte pointESign,\n            bytes32 pointEXCoord,\n            byte pointVSign,\n            bytes32 pointVXCoord,\n            bytes32 bnSig\n        )\n    {\n        UmbralDeserializer.Capsule memory capsule = _capsuleBytes.toCapsule();\n        pointESign = byte(capsule.pointE.sign);\n        pointEXCoord = bytes32(capsule.pointE.xCoord);\n        pointVSign = byte(capsule.pointV.sign);\n        pointVXCoord = bytes32(capsule.pointV.xCoord);\n        bnSig = bytes32(capsule.bnSig);\n    }\n\n    function toCorrectnessProof(bytes memory _proofBytes)\n        public pure returns (\n            byte pointE2Sign,\n            bytes32 pointE2XCoord,\n            byte pointV2Sign,\n            bytes32 pointV2XCoord,\n            byte pointKFragCommitmentSign,\n            bytes32 pointKFragCommitmentXCoord,\n            byte pointKFragPokSign,\n            bytes32 pointKFragPokXCoord,\n            bytes32 bnSig,\n            bytes memory kFragSignature,\n            bytes memory metadata\n        )\n    {\n        UmbralDeserializer.CorrectnessProof memory proof = _proofBytes.toCorrectnessProof();\n        pointE2Sign = byte(proof.pointE2.sign);\n        pointE2XCoord = bytes32(proof.pointE2.xCoord);\n        pointV2Sign = byte(proof.pointV2.sign);\n        pointV2XCoord = bytes32(proof.pointV2.xCoord);\n        pointKFragCommitmentSign = byte(proof.pointKFragCommitment.sign);\n        pointKFragCommitmentXCoord = bytes32(proof.pointKFragCommitment.xCoord);\n        pointKFragPokSign = byte(proof.pointKFragPok.sign);\n        pointKFragPokXCoord = bytes32(proof.pointKFragPok.xCoord);\n        bnSig = bytes32(proof.bnSig);\n        kFragSignature = proof.kFragSignature;\n        metadata = proof.metadata;\n    }\n\n    // `toCapsuleFrag` is split into two methods because of EVM stack problems with many variables\n    function toCorrectnessProofFromCapsuleFrag(bytes memory _cFragBytes)\n        public pure returns (\n            byte pointE2Sign,\n            bytes32 pointE2XCoord,\n            byte pointV2Sign,\n            bytes32 pointV2XCoord,\n            byte pointKFragCommitmentSign,\n            bytes32 pointKFragCommitmentXCoord,\n            byte pointKFragPokSign,\n            bytes32 pointKFragPokXCoord,\n            bytes32 bnSig,\n            bytes memory kFragSignature,\n            bytes memory metadata\n        )\n    {\n        UmbralDeserializer.CapsuleFrag memory cFrag = _cFragBytes.toCapsuleFrag();\n        UmbralDeserializer.CorrectnessProof memory proof = cFrag.proof;\n        pointE2Sign = byte(proof.pointE2.sign);\n        pointE2XCoord = bytes32(proof.pointE2.xCoord);\n        pointV2Sign = byte(proof.pointV2.sign);\n        pointV2XCoord = bytes32(proof.pointV2.xCoord);\n        pointKFragCommitmentSign = byte(proof.pointKFragCommitment.sign);\n        pointKFragCommitmentXCoord = bytes32(proof.pointKFragCommitment.xCoord);\n        pointKFragPokSign = byte(proof.pointKFragPok.sign);\n        pointKFragPokXCoord = bytes32(proof.pointKFragPok.xCoord);\n        bnSig = bytes32(proof.bnSig);\n        kFragSignature = proof.kFragSignature;\n        metadata = proof.metadata;\n    }\n\n    function toCapsuleFrag(bytes memory _cFragBytes)\n        public pure returns (\n            byte pointE1Sign,\n            bytes32 pointE1XCoord,\n            byte pointV1Sign,\n            bytes32 pointV1XCoord,\n            bytes32 kFragId,\n            byte pointPrecursorSign,\n            bytes32 pointPrecursorXCoord\n        )\n    {\n        UmbralDeserializer.CapsuleFrag memory cFrag = _cFragBytes.toCapsuleFrag();\n        pointE1Sign = byte(cFrag.pointE1.sign);\n        pointE1XCoord = bytes32(cFrag.pointE1.xCoord);\n        pointV1Sign = byte(cFrag.pointV1.sign);\n        pointV1XCoord = bytes32(cFrag.pointV1.xCoord);\n        kFragId = cFrag.kFragId;\n        pointPrecursorSign = byte(cFrag.pointPrecursor.sign);\n        pointPrecursorXCoord = bytes32(cFrag.pointPrecursor.xCoord);\n    }\n}\n\n\n/**\n* @notice Contract for using ReEncryptionValidator library\n*/\ncontract ReEncryptionValidatorMock {\n\n    using UmbralDeserializer for bytes;\n\n    function UMBRAL_PARAMETER_U_SIGN() public pure returns (uint8) {\n        return ReEncryptionValidator.UMBRAL_PARAMETER_U_SIGN;\n    }\n\n    function UMBRAL_PARAMETER_U_XCOORD() public pure returns (uint256) {\n        return ReEncryptionValidator.UMBRAL_PARAMETER_U_XCOORD;\n    }\n\n    function UMBRAL_PARAMETER_U_YCOORD() public pure returns (uint256) {\n        return ReEncryptionValidator.UMBRAL_PARAMETER_U_YCOORD;\n    }\n\n    function FIELD_ORDER() public pure returns (uint256) {\n        return ReEncryptionValidator.FIELD_ORDER;\n    }\n\n    function MINUS_2() public pure returns (uint256) {\n        return ReEncryptionValidator.MINUS_2;\n    }\n\n    function MINUS_ONE_HALF() public pure returns (uint256) {\n        return ReEncryptionValidator.MINUS_ONE_HALF;\n    }\n\n    function validateCFrag(\n        bytes memory _capsuleBytes,\n        bytes memory _cFragBytes,\n        bytes memory _precomputedBytes\n    )\n        public pure returns (bool)\n    {\n        return ReEncryptionValidator.validateCFrag(_capsuleBytes, _cFragBytes, _precomputedBytes);\n    }\n\n    function computeProofChallengeScalar(\n        bytes memory _capsuleBytes,\n        bytes memory _cFragBytes\n    )\n        public pure returns (uint256)\n    {\n        UmbralDeserializer.Capsule memory _capsule = _capsuleBytes.toCapsule();\n        UmbralDeserializer.CapsuleFrag memory _cFrag = _cFragBytes.toCapsuleFrag();\n        return ReEncryptionValidator.computeProofChallengeScalar(_capsule, _cFrag);\n    }\n\n    function extendedKeccakToBN (bytes memory _data) public pure returns (uint256) {\n        return ReEncryptionValidator.extendedKeccakToBN(_data);\n    }\n\n\tfunction checkCompressedPoint(\n\t\tuint8 _pointSign,\n\t\tuint256 _pointX,\n\t\tuint256 _pointY\n\t) public pure returns(bool) {\n        return ReEncryptionValidator.checkCompressedPoint(_pointSign, _pointX, _pointY);\n\t}\n\n    function checkSerializedCoordinates(bytes memory _coords) public pure returns(bool) {\n\t\treturn ReEncryptionValidator.checkSerializedCoordinates(_coords);\n\t}\n\n    function isOnCurve(uint256 Px, uint256 Py) public pure returns (bool) {\n        return ReEncryptionValidator.isOnCurve(Px, Py);\n    }\n\n    function ecmulVerify(\n    \tuint256 x1,\n    \tuint256 y1,\n    \tuint256 scalar,\n    \tuint256 qx,\n    \tuint256 qy\n    ) public pure returns(bool) {\n        return ReEncryptionValidator.ecmulVerify(x1, y1, scalar, qx, qy);\n\t}\n\n    function eqAffineJacobian(\n    \tuint256[2] memory P,\n    \tuint256[3] memory Q\n    ) public pure returns(bool){\n        return ReEncryptionValidator.eqAffineJacobian(P, Q);\n    }\n\n    function addAffineJacobian(\n    \tuint[2] memory P,\n    \tuint[2] memory Q\n    ) public pure returns (uint[3] memory) {\n        return ReEncryptionValidator.addAffineJacobian(P, Q);\n    }\n\n    function doubleJacobian(uint[3] memory P) public pure returns (uint[3] memory) {\n        return ReEncryptionValidator.doubleJacobian(P);\n    }\n}\n\n/**\n* @notice Contract for using Snapshot library\n*/\ncontract SnapshotMock {\n\n    // Helpers\n    uint128[] public history;\n\n    function length() public view returns(uint256){\n        return history.length;\n    }\n\n    function deleteHistory() public {\n        delete history;\n    }\n\n    // Mock functions\n    function encodeSnapshot(uint32 _time, uint96 _value) public pure returns(uint128) {\n        return Snapshot.encodeSnapshot(_time, _value);\n    }\n\n    function decodeSnapshot(uint128 _snapshot) public pure returns(uint32, uint96){\n        return Snapshot.decodeSnapshot(_snapshot);\n    }\n\n    function addSnapshot(uint256 _time, uint256 _value) public {\n        Snapshot.addSnapshot(history, _time, _value);\n    }\n\n    function getValueAt(uint256 _time) public view returns (uint96) {\n        return Snapshot.getValueAt(history, _time);\n    }\n\n    function lastSnapshot() public view returns (uint32, uint96) {\n        return Snapshot.lastSnapshot(history);\n    }\n\n    function lastValue() public view returns (uint96) {\n        return Snapshot.lastValue(history);\n    }\n\n\n}\n",
  "sourcePath": "contracts/LibTestSet.sol",
  "type": "contract"
}