{
  "abi": [
    {
      "stateMutability": "payable",
      "type": "fallback"
    },
    {
      "inputs": [],
      "name": "escrow",
      "outputs": [
        {
          "internalType": "address",
          "name": "",
          "type": "address"
        }
      ],
      "stateMutability": "view",
      "type": "function"
    },
    {
      "inputs": [
        {
          "internalType": "uint256",
          "name": "",
          "type": "uint256"
        }
      ],
      "name": "firstMethod",
      "outputs": [],
      "stateMutability": "pure",
      "type": "function"
    },
    {
      "inputs": [],
      "name": "secondMethod",
      "outputs": [
        {
          "internalType": "uint256",
          "name": "",
          "type": "uint256"
        }
      ],
      "stateMutability": "pure",
      "type": "function"
    },
    {
      "inputs": [],
      "name": "thirdMethod",
      "outputs": [],
      "stateMutability": "pure",
      "type": "function"
    },
    {
      "inputs": [],
      "name": "token",
      "outputs": [
        {
          "internalType": "address",
          "name": "",
          "type": "address"
        }
      ],
      "stateMutability": "view",
      "type": "function"
    }
  ],
  "bytecode": "60c06040526c01000000000000000000000000608081905260a05234801561002657600080fd5b5060805160601c60a05160601c61018d6100506000398061010a525080610133525061018d6000f3fe60806040526004361061004a5760003560e01c80637b9912f914610059578063e2fdcc1714610083578063e46bc602146100b4578063fc0c546a146100db578063fd81cd4c146100f0575b6000341161005757600080fd5b005b34801561006557600080fd5b506100576004803603602081101561007c57600080fd5b5035610105565b34801561008f57600080fd5b50610098610108565b604080516001600160a01b039092168252519081900360200190f35b3480156100c057600080fd5b506100c961012c565b60408051918252519081900360200190f35b3480156100e757600080fd5b50610098610131565b3480156100fc57600080fd5b50610057610155565b50565b7f000000000000000000000000000000000000000000000000000000000000000081565b600f90565b7f000000000000000000000000000000000000000000000000000000000000000081565b56fea26469706673582212200a3bafc04ad2e702b514ed45a7778b6247a2c8cfd8fef2e849f741f84d1e781a64736f6c63430006070033",
  "bytecodeSha1": "f01dbcedfcce934a57c56b7de299bcf0e1bc0f6a",
  "compiler": {
    "evm_version": "berlin",
    "optimizer": {
      "enabled": true,
      "runs": 200
    },
    "version": "0.6.7"
  },
  "contractName": "StakingInterfaceMockV2",
  "language": "Solidity",
  "natspec": {
    "methods": {},
    "notice": "Contract for staking contract tests"
  },
  "opcodes": "PUSH1 0x80 PUSH1 0x40 MSTORE PUSH1 0x4 CALLDATASIZE LT PUSH2 0x4A JUMPI PUSH1 0x0 CALLDATALOAD PUSH1 0xE0 SHR DUP1 PUSH4 0x7B9912F9 EQ PUSH2 0x59 JUMPI DUP1 PUSH4 0xE2FDCC17 EQ PUSH2 0x83 JUMPI DUP1 PUSH4 0xE46BC602 EQ PUSH2 0xB4 JUMPI DUP1 PUSH4 0xFC0C546A EQ PUSH2 0xDB JUMPI DUP1 PUSH4 0xFD81CD4C EQ PUSH2 0xF0 JUMPI JUMPDEST PUSH1 0x0 CALLVALUE GT PUSH2 0x57 JUMPI PUSH1 0x0 DUP1 REVERT JUMPDEST STOP JUMPDEST CALLVALUE DUP1 ISZERO PUSH2 0x65 JUMPI PUSH1 0x0 DUP1 REVERT JUMPDEST POP PUSH2 0x57 PUSH1 0x4 DUP1 CALLDATASIZE SUB PUSH1 0x20 DUP2 LT ISZERO PUSH2 0x7C JUMPI PUSH1 0x0 DUP1 REVERT JUMPDEST POP CALLDATALOAD PUSH2 0x105 JUMP JUMPDEST CALLVALUE DUP1 ISZERO PUSH2 0x8F JUMPI PUSH1 0x0 DUP1 REVERT JUMPDEST POP PUSH2 0x98 PUSH2 0x108 JUMP JUMPDEST PUSH1 0x40 DUP1 MLOAD PUSH1 0x1 PUSH1 0x1 PUSH1 0xA0 SHL SUB SWAP1 SWAP3 AND DUP3 MSTORE MLOAD SWAP1 DUP2 SWAP1 SUB PUSH1 0x20 ADD SWAP1 RETURN JUMPDEST CALLVALUE DUP1 ISZERO PUSH2 0xC0 JUMPI PUSH1 0x0 DUP1 REVERT JUMPDEST POP PUSH2 0xC9 PUSH2 0x12C JUMP JUMPDEST PUSH1 0x40 DUP1 MLOAD SWAP2 DUP3 MSTORE MLOAD SWAP1 DUP2 SWAP1 SUB PUSH1 0x20 ADD SWAP1 RETURN JUMPDEST CALLVALUE DUP1 ISZERO PUSH2 0xE7 JUMPI PUSH1 0x0 DUP1 REVERT JUMPDEST POP PUSH2 0x98 PUSH2 0x131 JUMP JUMPDEST CALLVALUE DUP1 ISZERO PUSH2 0xFC JUMPI PUSH1 0x0 DUP1 REVERT JUMPDEST POP PUSH2 0x57 PUSH2 0x155 JUMP JUMPDEST POP JUMP JUMPDEST PUSH32 0x0 DUP2 JUMP JUMPDEST PUSH1 0xF SWAP1 JUMP JUMPDEST PUSH32 0x0 DUP2 JUMP JUMPDEST JUMP INVALID LOG2 PUSH5 0x6970667358 0x22 SLT KECCAK256 EXP EXTCODESIZE 0xAF 0xC0 0x4A 0xD2 0xE7 MUL 0xB5 EQ 0xED GASLIMIT 0xA7 PUSH24 0x8B6247A2C8CFD8FEF2E849F741F84D1E781A64736F6C6343 STOP MOD SMOD STOP CALLER ",
  "sha1": "34ecfb28f9ef3da50fadd2e988a617b577f24235",
  "source": "pragma solidity ^0.6.5;\n\n\nimport \"contracts/NuCypherToken.sol\";\nimport \"contracts/staking_contracts/AbstractStakingContract.sol\";\n\n\n/**\n* @notice Contract for using in staking contracts tests\n*/\ncontract StakingEscrowForStakingContractMock {\n\n    NuCypherToken immutable token;\n    uint32 public secondsPerPeriod = 1;\n    address public node;\n    uint256 public value;\n    uint256 public lockedValue;\n    uint16 public periods;\n    uint256 public index;\n    bool public reStake;\n    uint16 public lockReStakeUntilPeriod;\n    address public worker;\n    bool public windDown;\n\n    constructor(NuCypherToken _token) public {\n        token = _token;\n    }\n\n    function deposit(uint256 _value, uint16 _periods) external {\n        deposit(msg.sender, _value, _periods);\n    }\n\n    function deposit(address _node, uint256 _value, uint16 _periods) public {\n        node = _node;\n        value += _value;\n        lockedValue += _value;\n        periods += _periods;\n        token.transferFrom(msg.sender, address(this), _value);\n    }\n\n    function lock(uint256 _value, uint16 _periods) external {\n        lockedValue += _value;\n        periods += _periods;\n    }\n\n    function divideStake(uint256 _index, uint256 _newValue, uint16 _periods) external {\n        index = _index;\n        lockedValue += _newValue;\n        periods += _periods;\n    }\n\n    function withdraw(uint256 _value) public {\n        value -= _value;\n        token.transfer(msg.sender, _value);\n    }\n\n    function withdrawAll() external {\n        withdraw(value);\n    }\n\n    function mint() external {\n        value += 1000;\n    }\n\n    function setReStake(bool _reStake) external {\n        reStake = _reStake;\n    }\n\n    function lockReStake(uint16 _lockReStakeUntilPeriod) external {\n        lockReStakeUntilPeriod = _lockReStakeUntilPeriod;\n    }\n\n    function bondWorker(address _worker) external {\n        worker = _worker;\n    }\n\n    function prolongStake(uint256 _index, uint16 _periods) external {\n        index = _index;\n        periods += _periods;\n    }\n\n    function getAllTokens(address) external view returns (uint256) {\n        return value;\n    }\n\n    function setWindDown(bool _windDown) external {\n        windDown = _windDown;\n    }\n}\n\n\n/**\n* @notice Contract for staking contract tests\n*/\ncontract PolicyManagerForStakingContractMock {\n\n    uint32 public immutable secondsPerPeriod = 1;\n    uint256 public minFeeRate;\n\n    function withdraw() public returns (uint256) {\n        uint256 value = address(this).balance;\n        require(value > 0);\n        msg.sender.transfer(value);\n        return value;\n    }\n\n    function setMinFeeRate(uint256 _minFeeRate) public {\n        minFeeRate = _minFeeRate;\n    }\n\n    function additionalMethod(uint256 _minFeeRate) public {\n        minFeeRate = _minFeeRate;\n    }\n\n    // TODO #1809\n//    receive() external payable {}\n    fallback() external payable {}\n}\n\n\n/**\n* @notice Contract for staking contract tests\n*/\ncontract WorkLockForStakingContractMock {\n\n    uint256 public immutable boostingRefund = 1;\n    uint256 public claimed;\n    uint256 public depositedETH;\n    uint256 public compensation;\n    uint256 public refundETH;\n\n    function bid() external payable {\n        depositedETH = msg.value;\n    }\n\n    function cancelBid() external {\n        uint256 value = depositedETH;\n        depositedETH = 0;\n        msg.sender.transfer(value);\n    }\n\n    function sendCompensation() external payable {\n        compensation = msg.value;\n    }\n\n    function withdrawCompensation() external {\n        uint256 value = compensation;\n        compensation = 0;\n        msg.sender.transfer(value);\n    }\n\n    function claim() external returns (uint256) {\n        claimed += 1;\n        return claimed;\n    }\n\n    function sendRefund() external payable {\n        refundETH = msg.value;\n    }\n\n    function refund() external returns (uint256) {\n        uint256 value = refundETH;\n        refundETH = 0;\n        msg.sender.transfer(value);\n        return value;\n    }\n\n}\n\n\n/**\n* @notice Contract for staking contract tests\n*/\ncontract StakingInterfaceMockV1 {\n\n    address public immutable token = address(1);\n    address public immutable escrow = address(1);\n\n    function firstMethod() public pure {}\n\n    function secondMethod() public pure returns (uint256) {\n        return 20;\n    }\n\n}\n\n\n/**\n* @notice Contract for staking contract tests\n*/\ncontract StakingInterfaceMockV2 {\n\n    address public immutable token = address(1);\n    address public immutable escrow = address(1);\n\n    // TODO #1809\n//    receive() external payable {}\n    fallback() external payable {\n        // can only use with ETH\n        require(msg.value > 0);\n    }\n\n    function firstMethod(uint256) public pure {}\n\n    function secondMethod() public pure returns (uint256) {\n        return 15;\n    }\n\n    function thirdMethod() public pure {}\n\n}\n\n\n/**\n* @dev Interface that could be destroyed by selfdestruct\n*/\ncontract DestroyableStakingInterface {\n\n    address public immutable token = address(1);\n    address public immutable escrow = address(1);\n\n    function method() public pure returns (uint256) {\n        return 15;\n    }\n\n    function destroy() public {\n        selfdestruct(msg.sender);\n    }\n\n}\n\n\n/**\n* @notice Simple implementation of AbstractStakingContract\n*/\ncontract SimpleStakingContract is AbstractStakingContract, Ownable {\n\n    /**\n    * @param _router Address of the StakingInterfaceRouter contract\n    */\n    constructor(StakingInterfaceRouter _router) public AbstractStakingContract(_router) {}\n\n    /**\n    * @notice Withdraw available amount of tokens to owner\n    * @param _value Amount of token to withdraw\n    */\n    function withdrawTokens(uint256 _value) public override onlyOwner {\n        token.safeTransfer(msg.sender, _value);\n    }\n\n    /**\n    * @notice Withdraw available ETH to the owner\n    */\n    function withdrawETH() public override onlyOwner {\n        uint256 balance = address(this).balance;\n        require(balance != 0);\n        msg.sender.sendValue(balance);\n    }\n\n    /**\n    * @notice Calling fallback function is allowed only for the owner\n    */\n    function isFallbackAllowed() public override returns (bool) {\n        return msg.sender == owner();\n    }\n\n}\n",
  "sourcePath": "contracts/StakingContractsTestSet.sol",
  "type": "contract"
}