{
  "abi": [
    {
      "inputs": [
        {
          "internalType": "contract NuCypherToken",
          "name": "_token",
          "type": "address"
        }
      ],
      "stateMutability": "nonpayable",
      "type": "constructor"
    },
    {
      "inputs": [
        {
          "internalType": "address",
          "name": "_worker",
          "type": "address"
        }
      ],
      "name": "bondWorker",
      "outputs": [],
      "stateMutability": "nonpayable",
      "type": "function"
    },
    {
      "inputs": [
        {
          "internalType": "uint256",
          "name": "_value",
          "type": "uint256"
        },
        {
          "internalType": "uint16",
          "name": "_periods",
          "type": "uint16"
        }
      ],
      "name": "deposit",
      "outputs": [],
      "stateMutability": "nonpayable",
      "type": "function"
    },
    {
      "inputs": [
        {
          "internalType": "address",
          "name": "_node",
          "type": "address"
        },
        {
          "internalType": "uint256",
          "name": "_value",
          "type": "uint256"
        },
        {
          "internalType": "uint16",
          "name": "_periods",
          "type": "uint16"
        }
      ],
      "name": "deposit",
      "outputs": [],
      "stateMutability": "nonpayable",
      "type": "function"
    },
    {
      "inputs": [
        {
          "internalType": "uint256",
          "name": "_index",
          "type": "uint256"
        },
        {
          "internalType": "uint256",
          "name": "_newValue",
          "type": "uint256"
        },
        {
          "internalType": "uint16",
          "name": "_periods",
          "type": "uint16"
        }
      ],
      "name": "divideStake",
      "outputs": [],
      "stateMutability": "nonpayable",
      "type": "function"
    },
    {
      "inputs": [
        {
          "internalType": "address",
          "name": "",
          "type": "address"
        }
      ],
      "name": "getAllTokens",
      "outputs": [
        {
          "internalType": "uint256",
          "name": "",
          "type": "uint256"
        }
      ],
      "stateMutability": "view",
      "type": "function"
    },
    {
      "inputs": [],
      "name": "index",
      "outputs": [
        {
          "internalType": "uint256",
          "name": "",
          "type": "uint256"
        }
      ],
      "stateMutability": "view",
      "type": "function"
    },
    {
      "inputs": [
        {
          "internalType": "uint256",
          "name": "_value",
          "type": "uint256"
        },
        {
          "internalType": "uint16",
          "name": "_periods",
          "type": "uint16"
        }
      ],
      "name": "lock",
      "outputs": [],
      "stateMutability": "nonpayable",
      "type": "function"
    },
    {
      "inputs": [
        {
          "internalType": "uint16",
          "name": "_lockReStakeUntilPeriod",
          "type": "uint16"
        }
      ],
      "name": "lockReStake",
      "outputs": [],
      "stateMutability": "nonpayable",
      "type": "function"
    },
    {
      "inputs": [],
      "name": "lockReStakeUntilPeriod",
      "outputs": [
        {
          "internalType": "uint16",
          "name": "",
          "type": "uint16"
        }
      ],
      "stateMutability": "view",
      "type": "function"
    },
    {
      "inputs": [],
      "name": "lockedValue",
      "outputs": [
        {
          "internalType": "uint256",
          "name": "",
          "type": "uint256"
        }
      ],
      "stateMutability": "view",
      "type": "function"
    },
    {
      "inputs": [],
      "name": "mint",
      "outputs": [],
      "stateMutability": "nonpayable",
      "type": "function"
    },
    {
      "inputs": [],
      "name": "node",
      "outputs": [
        {
          "internalType": "address",
          "name": "",
          "type": "address"
        }
      ],
      "stateMutability": "view",
      "type": "function"
    },
    {
      "inputs": [],
      "name": "periods",
      "outputs": [
        {
          "internalType": "uint16",
          "name": "",
          "type": "uint16"
        }
      ],
      "stateMutability": "view",
      "type": "function"
    },
    {
      "inputs": [
        {
          "internalType": "uint256",
          "name": "_index",
          "type": "uint256"
        },
        {
          "internalType": "uint16",
          "name": "_periods",
          "type": "uint16"
        }
      ],
      "name": "prolongStake",
      "outputs": [],
      "stateMutability": "nonpayable",
      "type": "function"
    },
    {
      "inputs": [],
      "name": "reStake",
      "outputs": [
        {
          "internalType": "bool",
          "name": "",
          "type": "bool"
        }
      ],
      "stateMutability": "view",
      "type": "function"
    },
    {
      "inputs": [],
      "name": "secondsPerPeriod",
      "outputs": [
        {
          "internalType": "uint32",
          "name": "",
          "type": "uint32"
        }
      ],
      "stateMutability": "view",
      "type": "function"
    },
    {
      "inputs": [
        {
          "internalType": "bool",
          "name": "_reStake",
          "type": "bool"
        }
      ],
      "name": "setReStake",
      "outputs": [],
      "stateMutability": "nonpayable",
      "type": "function"
    },
    {
      "inputs": [
        {
          "internalType": "bool",
          "name": "_windDown",
          "type": "bool"
        }
      ],
      "name": "setWindDown",
      "outputs": [],
      "stateMutability": "nonpayable",
      "type": "function"
    },
    {
      "inputs": [],
      "name": "value",
      "outputs": [
        {
          "internalType": "uint256",
          "name": "",
          "type": "uint256"
        }
      ],
      "stateMutability": "view",
      "type": "function"
    },
    {
      "inputs": [],
      "name": "windDown",
      "outputs": [
        {
          "internalType": "bool",
          "name": "",
          "type": "bool"
        }
      ],
      "stateMutability": "view",
      "type": "function"
    },
    {
      "inputs": [
        {
          "internalType": "uint256",
          "name": "_value",
          "type": "uint256"
        }
      ],
      "name": "withdraw",
      "outputs": [],
      "stateMutability": "nonpayable",
      "type": "function"
    },
    {
      "inputs": [],
      "name": "withdrawAll",
      "outputs": [],
      "stateMutability": "nonpayable",
      "type": "function"
    },
    {
      "inputs": [],
      "name": "worker",
      "outputs": [
        {
          "internalType": "address",
          "name": "",
          "type": "address"
        }
      ],
      "stateMutability": "view",
      "type": "function"
    }
  ],
  "bytecode": "60a06040526000805463ffffffff1916600117905534801561002057600080fd5b506040516107af3803806107af8339818101604052602081101561004357600080fd5b5051606081901b6001600160601b0319166080526001600160a01b031661073361007c60003980610422528061061752506107336000f3fe608060405234801561001057600080fd5b506004361061014d5760003560e01c806394bab1d2116100c3578063d2c469321161007c578063d2c4693214610331578063d2d0e06614610339578063d70754ec1461036f578063dad6067614610377578063eba8a2661461039d578063ee53c8fd146103a55761014d565b806394bab1d21461027b5780639d6f2a091461029a578063a4caeb42146102b9578063b85c5145146102c1578063b89f66ed146102dd578063d122b794146103045761014d565b80633fa4f245116101155780633fa4f245146101d8578063407f8001146101e05780634d547ada14610201578063845603a614610225578063853828b61461024c57806386f86dde146102545761014d565b806303a94485146101525780631249c58b14610173578063178b6de61461017b5780632986c0e5146101b35780632e1a7d4d146101bb575b600080fd5b6101716004803603602081101561016857600080fd5b503515156103c6565b005b6101716103d9565b6101a16004803603602081101561019157600080fd5b50356001600160a01b03166103e5565b60408051918252519081900360200190f35b6101a16103ec565b610171600480360360208110156101d157600080fd5b50356103f2565b6101a1610499565b6101e861049f565b6040805163ffffffff9092168252519081900360200190f35b6102096104ab565b604080516001600160a01b039092168252519081900360200190f35b6101716004803603604081101561023b57600080fd5b508035906020013561ffff166104c1565b6101716104d0565b6101716004803603604081101561026a57600080fd5b508035906020013561ffff166104dd565b610283610504565b6040805161ffff9092168252519081900360200190f35b610171600480360360208110156102b057600080fd5b50351515610513565b610283610531565b6102c961053b565b604080519115158252519081900360200190f35b610171600480360360408110156102f357600080fd5b508035906020013561ffff1661054b565b6101716004803603606081101561031a57600080fd5b508035906020810135906040013561ffff1661056d565b6101a1610599565b6101716004803603606081101561034f57600080fd5b5080356001600160a01b0316906020810135906040013561ffff1661059f565b610209610693565b6101716004803603602081101561038d57600080fd5b50356001600160a01b03166106aa565b6102c96106d6565b610171600480360360208110156103bb57600080fd5b503561ffff166106df565b6005805460ff1916911515919091179055565b600180546103e8019055565b5060015490565b60045481565b6001805482900390556040805163a9059cbb60e01b81523360048201526024810183905290516001600160a01b037f0000000000000000000000000000000000000000000000000000000000000000169163a9059cbb9160448083019260209291908290030181600087803b15801561046a57600080fd5b505af115801561047e573d6000803e3d6000fd5b505050506040513d602081101561049457600080fd5b505050565b60015481565b60005463ffffffff1681565b600554630100000090046001600160a01b031681565b6104cc33838361059f565b5050565b6104db6001546103f2565b565b60028054929092019091556003805461ffff19811661ffff91821690930116919091179055565b600554610100900461ffff1681565b60058054911515600160b81b0260ff60b81b19909216919091179055565b60035461ffff1681565b600554600160b81b900460ff1681565b6004919091556003805461ffff19811661ffff91821690930116919091179055565b600492909255600280549190910190556003805461ffff19811661ffff91821690930116919091179055565b60025481565b600080546001600160a01b0380861664010000000002640100000000600160c01b0319909216919091178255600180548501905560028054850190556003805461ffff80821686011661ffff19909116179055604080516323b872dd60e01b81523360048201523060248201526044810186905290517f0000000000000000000000000000000000000000000000000000000000000000909216926323b872dd926064808401936020939083900390910190829087803b15801561066257600080fd5b505af1158015610676573d6000803e3d6000fd5b505050506040513d602081101561068c57600080fd5b5050505050565b60005464010000000090046001600160a01b031681565b600580546001600160a01b039092166301000000026301000000600160b81b0319909216919091179055565b60055460ff1681565b6005805461ffff9092166101000262ffff001990921691909117905556fea264697066735822122069a358c0064c8a19cc185bbfd016f7128deef21b09b55dd00e4658ce6cb5678f64736f6c63430006070033",
  "bytecodeSha1": "7bd6ea9c00f5be1e201f1704099ea23805796195",
  "compiler": {
    "evm_version": "berlin",
    "optimizer": {
      "enabled": true,
      "runs": 200
    },
    "version": "0.6.7"
  },
  "contractName": "StakingEscrowForStakingContractMock",
  "language": "Solidity",
  "natspec": {
    "methods": {},
    "notice": "Contract for using in staking contracts tests"
  },
  "opcodes": "PUSH1 0x80 PUSH1 0x40 MSTORE CALLVALUE DUP1 ISZERO PUSH2 0x10 JUMPI PUSH1 0x0 DUP1 REVERT JUMPDEST POP PUSH1 0x4 CALLDATASIZE LT PUSH2 0x14D JUMPI PUSH1 0x0 CALLDATALOAD PUSH1 0xE0 SHR DUP1 PUSH4 0x94BAB1D2 GT PUSH2 0xC3 JUMPI DUP1 PUSH4 0xD2C46932 GT PUSH2 0x7C JUMPI DUP1 PUSH4 0xD2C46932 EQ PUSH2 0x331 JUMPI DUP1 PUSH4 0xD2D0E066 EQ PUSH2 0x339 JUMPI DUP1 PUSH4 0xD70754EC EQ PUSH2 0x36F JUMPI DUP1 PUSH4 0xDAD60676 EQ PUSH2 0x377 JUMPI DUP1 PUSH4 0xEBA8A266 EQ PUSH2 0x39D JUMPI DUP1 PUSH4 0xEE53C8FD EQ PUSH2 0x3A5 JUMPI PUSH2 0x14D JUMP JUMPDEST DUP1 PUSH4 0x94BAB1D2 EQ PUSH2 0x27B JUMPI DUP1 PUSH4 0x9D6F2A09 EQ PUSH2 0x29A JUMPI DUP1 PUSH4 0xA4CAEB42 EQ PUSH2 0x2B9 JUMPI DUP1 PUSH4 0xB85C5145 EQ PUSH2 0x2C1 JUMPI DUP1 PUSH4 0xB89F66ED EQ PUSH2 0x2DD JUMPI DUP1 PUSH4 0xD122B794 EQ PUSH2 0x304 JUMPI PUSH2 0x14D JUMP JUMPDEST DUP1 PUSH4 0x3FA4F245 GT PUSH2 0x115 JUMPI DUP1 PUSH4 0x3FA4F245 EQ PUSH2 0x1D8 JUMPI DUP1 PUSH4 0x407F8001 EQ PUSH2 0x1E0 JUMPI DUP1 PUSH4 0x4D547ADA EQ PUSH2 0x201 JUMPI DUP1 PUSH4 0x845603A6 EQ PUSH2 0x225 JUMPI DUP1 PUSH4 0x853828B6 EQ PUSH2 0x24C JUMPI DUP1 PUSH4 0x86F86DDE EQ PUSH2 0x254 JUMPI PUSH2 0x14D JUMP JUMPDEST DUP1 PUSH4 0x3A94485 EQ PUSH2 0x152 JUMPI DUP1 PUSH4 0x1249C58B EQ PUSH2 0x173 JUMPI DUP1 PUSH4 0x178B6DE6 EQ PUSH2 0x17B JUMPI DUP1 PUSH4 0x2986C0E5 EQ PUSH2 0x1B3 JUMPI DUP1 PUSH4 0x2E1A7D4D EQ PUSH2 0x1BB JUMPI JUMPDEST PUSH1 0x0 DUP1 REVERT JUMPDEST PUSH2 0x171 PUSH1 0x4 DUP1 CALLDATASIZE SUB PUSH1 0x20 DUP2 LT ISZERO PUSH2 0x168 JUMPI PUSH1 0x0 DUP1 REVERT JUMPDEST POP CALLDATALOAD ISZERO ISZERO PUSH2 0x3C6 JUMP JUMPDEST STOP JUMPDEST PUSH2 0x171 PUSH2 0x3D9 JUMP JUMPDEST PUSH2 0x1A1 PUSH1 0x4 DUP1 CALLDATASIZE SUB PUSH1 0x20 DUP2 LT ISZERO PUSH2 0x191 JUMPI PUSH1 0x0 DUP1 REVERT JUMPDEST POP CALLDATALOAD PUSH1 0x1 PUSH1 0x1 PUSH1 0xA0 SHL SUB AND PUSH2 0x3E5 JUMP JUMPDEST PUSH1 0x40 DUP1 MLOAD SWAP2 DUP3 MSTORE MLOAD SWAP1 DUP2 SWAP1 SUB PUSH1 0x20 ADD SWAP1 RETURN JUMPDEST PUSH2 0x1A1 PUSH2 0x3EC JUMP JUMPDEST PUSH2 0x171 PUSH1 0x4 DUP1 CALLDATASIZE SUB PUSH1 0x20 DUP2 LT ISZERO PUSH2 0x1D1 JUMPI PUSH1 0x0 DUP1 REVERT JUMPDEST POP CALLDATALOAD PUSH2 0x3F2 JUMP JUMPDEST PUSH2 0x1A1 PUSH2 0x499 JUMP JUMPDEST PUSH2 0x1E8 PUSH2 0x49F JUMP JUMPDEST PUSH1 0x40 DUP1 MLOAD PUSH4 0xFFFFFFFF SWAP1 SWAP3 AND DUP3 MSTORE MLOAD SWAP1 DUP2 SWAP1 SUB PUSH1 0x20 ADD SWAP1 RETURN JUMPDEST PUSH2 0x209 PUSH2 0x4AB JUMP JUMPDEST PUSH1 0x40 DUP1 MLOAD PUSH1 0x1 PUSH1 0x1 PUSH1 0xA0 SHL SUB SWAP1 SWAP3 AND DUP3 MSTORE MLOAD SWAP1 DUP2 SWAP1 SUB PUSH1 0x20 ADD SWAP1 RETURN JUMPDEST PUSH2 0x171 PUSH1 0x4 DUP1 CALLDATASIZE SUB PUSH1 0x40 DUP2 LT ISZERO PUSH2 0x23B JUMPI PUSH1 0x0 DUP1 REVERT JUMPDEST POP DUP1 CALLDATALOAD SWAP1 PUSH1 0x20 ADD CALLDATALOAD PUSH2 0xFFFF AND PUSH2 0x4C1 JUMP JUMPDEST PUSH2 0x171 PUSH2 0x4D0 JUMP JUMPDEST PUSH2 0x171 PUSH1 0x4 DUP1 CALLDATASIZE SUB PUSH1 0x40 DUP2 LT ISZERO PUSH2 0x26A JUMPI PUSH1 0x0 DUP1 REVERT JUMPDEST POP DUP1 CALLDATALOAD SWAP1 PUSH1 0x20 ADD CALLDATALOAD PUSH2 0xFFFF AND PUSH2 0x4DD JUMP JUMPDEST PUSH2 0x283 PUSH2 0x504 JUMP JUMPDEST PUSH1 0x40 DUP1 MLOAD PUSH2 0xFFFF SWAP1 SWAP3 AND DUP3 MSTORE MLOAD SWAP1 DUP2 SWAP1 SUB PUSH1 0x20 ADD SWAP1 RETURN JUMPDEST PUSH2 0x171 PUSH1 0x4 DUP1 CALLDATASIZE SUB PUSH1 0x20 DUP2 LT ISZERO PUSH2 0x2B0 JUMPI PUSH1 0x0 DUP1 REVERT JUMPDEST POP CALLDATALOAD ISZERO ISZERO PUSH2 0x513 JUMP JUMPDEST PUSH2 0x283 PUSH2 0x531 JUMP JUMPDEST PUSH2 0x2C9 PUSH2 0x53B JUMP JUMPDEST PUSH1 0x40 DUP1 MLOAD SWAP2 ISZERO ISZERO DUP3 MSTORE MLOAD SWAP1 DUP2 SWAP1 SUB PUSH1 0x20 ADD SWAP1 RETURN JUMPDEST PUSH2 0x171 PUSH1 0x4 DUP1 CALLDATASIZE SUB PUSH1 0x40 DUP2 LT ISZERO PUSH2 0x2F3 JUMPI PUSH1 0x0 DUP1 REVERT JUMPDEST POP DUP1 CALLDATALOAD SWAP1 PUSH1 0x20 ADD CALLDATALOAD PUSH2 0xFFFF AND PUSH2 0x54B JUMP JUMPDEST PUSH2 0x171 PUSH1 0x4 DUP1 CALLDATASIZE SUB PUSH1 0x60 DUP2 LT ISZERO PUSH2 0x31A JUMPI PUSH1 0x0 DUP1 REVERT JUMPDEST POP DUP1 CALLDATALOAD SWAP1 PUSH1 0x20 DUP2 ADD CALLDATALOAD SWAP1 PUSH1 0x40 ADD CALLDATALOAD PUSH2 0xFFFF AND PUSH2 0x56D JUMP JUMPDEST PUSH2 0x1A1 PUSH2 0x599 JUMP JUMPDEST PUSH2 0x171 PUSH1 0x4 DUP1 CALLDATASIZE SUB PUSH1 0x60 DUP2 LT ISZERO PUSH2 0x34F JUMPI PUSH1 0x0 DUP1 REVERT JUMPDEST POP DUP1 CALLDATALOAD PUSH1 0x1 PUSH1 0x1 PUSH1 0xA0 SHL SUB AND SWAP1 PUSH1 0x20 DUP2 ADD CALLDATALOAD SWAP1 PUSH1 0x40 ADD CALLDATALOAD PUSH2 0xFFFF AND PUSH2 0x59F JUMP JUMPDEST PUSH2 0x209 PUSH2 0x693 JUMP JUMPDEST PUSH2 0x171 PUSH1 0x4 DUP1 CALLDATASIZE SUB PUSH1 0x20 DUP2 LT ISZERO PUSH2 0x38D JUMPI PUSH1 0x0 DUP1 REVERT JUMPDEST POP CALLDATALOAD PUSH1 0x1 PUSH1 0x1 PUSH1 0xA0 SHL SUB AND PUSH2 0x6AA JUMP JUMPDEST PUSH2 0x2C9 PUSH2 0x6D6 JUMP JUMPDEST PUSH2 0x171 PUSH1 0x4 DUP1 CALLDATASIZE SUB PUSH1 0x20 DUP2 LT ISZERO PUSH2 0x3BB JUMPI PUSH1 0x0 DUP1 REVERT JUMPDEST POP CALLDATALOAD PUSH2 0xFFFF AND PUSH2 0x6DF JUMP JUMPDEST PUSH1 0x5 DUP1 SLOAD PUSH1 0xFF NOT AND SWAP2 ISZERO ISZERO SWAP2 SWAP1 SWAP2 OR SWAP1 SSTORE JUMP JUMPDEST PUSH1 0x1 DUP1 SLOAD PUSH2 0x3E8 ADD SWAP1 SSTORE JUMP JUMPDEST POP PUSH1 0x1 SLOAD SWAP1 JUMP JUMPDEST PUSH1 0x4 SLOAD DUP2 JUMP JUMPDEST PUSH1 0x1 DUP1 SLOAD DUP3 SWAP1 SUB SWAP1 SSTORE PUSH1 0x40 DUP1 MLOAD PUSH4 0xA9059CBB PUSH1 0xE0 SHL DUP2 MSTORE CALLER PUSH1 0x4 DUP3 ADD MSTORE PUSH1 0x24 DUP2 ADD DUP4 SWAP1 MSTORE SWAP1 MLOAD PUSH1 0x1 PUSH1 0x1 PUSH1 0xA0 SHL SUB PUSH32 0x0 AND SWAP2 PUSH4 0xA9059CBB SWAP2 PUSH1 0x44 DUP1 DUP4 ADD SWAP3 PUSH1 0x20 SWAP3 SWAP2 SWAP1 DUP3 SWAP1 SUB ADD DUP2 PUSH1 0x0 DUP8 DUP1 EXTCODESIZE ISZERO DUP1 ISZERO PUSH2 0x46A JUMPI PUSH1 0x0 DUP1 REVERT JUMPDEST POP GAS CALL ISZERO DUP1 ISZERO PUSH2 0x47E JUMPI RETURNDATASIZE PUSH1 0x0 DUP1 RETURNDATACOPY RETURNDATASIZE PUSH1 0x0 REVERT JUMPDEST POP POP POP POP PUSH1 0x40 MLOAD RETURNDATASIZE PUSH1 0x20 DUP2 LT ISZERO PUSH2 0x494 JUMPI PUSH1 0x0 DUP1 REVERT JUMPDEST POP POP POP JUMP JUMPDEST PUSH1 0x1 SLOAD DUP2 JUMP JUMPDEST PUSH1 0x0 SLOAD PUSH4 0xFFFFFFFF AND DUP2 JUMP JUMPDEST PUSH1 0x5 SLOAD PUSH4 0x1000000 SWAP1 DIV PUSH1 0x1 PUSH1 0x1 PUSH1 0xA0 SHL SUB AND DUP2 JUMP JUMPDEST PUSH2 0x4CC CALLER DUP4 DUP4 PUSH2 0x59F JUMP JUMPDEST POP POP JUMP JUMPDEST PUSH2 0x4DB PUSH1 0x1 SLOAD PUSH2 0x3F2 JUMP JUMPDEST JUMP JUMPDEST PUSH1 0x2 DUP1 SLOAD SWAP3 SWAP1 SWAP3 ADD SWAP1 SWAP2 SSTORE PUSH1 0x3 DUP1 SLOAD PUSH2 0xFFFF NOT DUP2 AND PUSH2 0xFFFF SWAP2 DUP3 AND SWAP1 SWAP4 ADD AND SWAP2 SWAP1 SWAP2 OR SWAP1 SSTORE JUMP JUMPDEST PUSH1 0x5 SLOAD PUSH2 0x100 SWAP1 DIV PUSH2 0xFFFF AND DUP2 JUMP JUMPDEST PUSH1 0x5 DUP1 SLOAD SWAP2 ISZERO ISZERO PUSH1 0x1 PUSH1 0xB8 SHL MUL PUSH1 0xFF PUSH1 0xB8 SHL NOT SWAP1 SWAP3 AND SWAP2 SWAP1 SWAP2 OR SWAP1 SSTORE JUMP JUMPDEST PUSH1 0x3 SLOAD PUSH2 0xFFFF AND DUP2 JUMP JUMPDEST PUSH1 0x5 SLOAD PUSH1 0x1 PUSH1 0xB8 SHL SWAP1 DIV PUSH1 0xFF AND DUP2 JUMP JUMPDEST PUSH1 0x4 SWAP2 SWAP1 SWAP2 SSTORE PUSH1 0x3 DUP1 SLOAD PUSH2 0xFFFF NOT DUP2 AND PUSH2 0xFFFF SWAP2 DUP3 AND SWAP1 SWAP4 ADD AND SWAP2 SWAP1 SWAP2 OR SWAP1 SSTORE JUMP JUMPDEST PUSH1 0x4 SWAP3 SWAP1 SWAP3 SSTORE PUSH1 0x2 DUP1 SLOAD SWAP2 SWAP1 SWAP2 ADD SWAP1 SSTORE PUSH1 0x3 DUP1 SLOAD PUSH2 0xFFFF NOT DUP2 AND PUSH2 0xFFFF SWAP2 DUP3 AND SWAP1 SWAP4 ADD AND SWAP2 SWAP1 SWAP2 OR SWAP1 SSTORE JUMP JUMPDEST PUSH1 0x2 SLOAD DUP2 JUMP JUMPDEST PUSH1 0x0 DUP1 SLOAD PUSH1 0x1 PUSH1 0x1 PUSH1 0xA0 SHL SUB DUP1 DUP7 AND PUSH5 0x100000000 MUL PUSH5 0x100000000 PUSH1 0x1 PUSH1 0xC0 SHL SUB NOT SWAP1 SWAP3 AND SWAP2 SWAP1 SWAP2 OR DUP3 SSTORE PUSH1 0x1 DUP1 SLOAD DUP6 ADD SWAP1 SSTORE PUSH1 0x2 DUP1 SLOAD DUP6 ADD SWAP1 SSTORE PUSH1 0x3 DUP1 SLOAD PUSH2 0xFFFF DUP1 DUP3 AND DUP7 ADD AND PUSH2 0xFFFF NOT SWAP1 SWAP2 AND OR SWAP1 SSTORE PUSH1 0x40 DUP1 MLOAD PUSH4 0x23B872DD PUSH1 0xE0 SHL DUP2 MSTORE CALLER PUSH1 0x4 DUP3 ADD MSTORE ADDRESS PUSH1 0x24 DUP3 ADD MSTORE PUSH1 0x44 DUP2 ADD DUP7 SWAP1 MSTORE SWAP1 MLOAD PUSH32 0x0 SWAP1 SWAP3 AND SWAP3 PUSH4 0x23B872DD SWAP3 PUSH1 0x64 DUP1 DUP5 ADD SWAP4 PUSH1 0x20 SWAP4 SWAP1 DUP4 SWAP1 SUB SWAP1 SWAP2 ADD SWAP1 DUP3 SWAP1 DUP8 DUP1 EXTCODESIZE ISZERO DUP1 ISZERO PUSH2 0x662 JUMPI PUSH1 0x0 DUP1 REVERT JUMPDEST POP GAS CALL ISZERO DUP1 ISZERO PUSH2 0x676 JUMPI RETURNDATASIZE PUSH1 0x0 DUP1 RETURNDATACOPY RETURNDATASIZE PUSH1 0x0 REVERT JUMPDEST POP POP POP POP PUSH1 0x40 MLOAD RETURNDATASIZE PUSH1 0x20 DUP2 LT ISZERO PUSH2 0x68C JUMPI PUSH1 0x0 DUP1 REVERT JUMPDEST POP POP POP POP POP JUMP JUMPDEST PUSH1 0x0 SLOAD PUSH5 0x100000000 SWAP1 DIV PUSH1 0x1 PUSH1 0x1 PUSH1 0xA0 SHL SUB AND DUP2 JUMP JUMPDEST PUSH1 0x5 DUP1 SLOAD PUSH1 0x1 PUSH1 0x1 PUSH1 0xA0 SHL SUB SWAP1 SWAP3 AND PUSH4 0x1000000 MUL PUSH4 0x1000000 PUSH1 0x1 PUSH1 0xB8 SHL SUB NOT SWAP1 SWAP3 AND SWAP2 SWAP1 SWAP2 OR SWAP1 SSTORE JUMP JUMPDEST PUSH1 0x5 SLOAD PUSH1 0xFF AND DUP2 JUMP JUMPDEST PUSH1 0x5 DUP1 SLOAD PUSH2 0xFFFF SWAP1 SWAP3 AND PUSH2 0x100 MUL PUSH3 0xFFFF00 NOT SWAP1 SWAP3 AND SWAP2 SWAP1 SWAP2 OR SWAP1 SSTORE JUMP INVALID LOG2 PUSH5 0x6970667358 0x22 SLT KECCAK256 PUSH10 0xA358C0064C8A19CC185B 0xBF 0xD0 AND 0xF7 SLT DUP14 0xEE CALLCODE SHL MULMOD 0xB5 0x5D 0xD0 0xE CHAINID PC 0xCE PUSH13 0xB5678F64736F6C634300060700 CALLER ",
  "sha1": "34ecfb28f9ef3da50fadd2e988a617b577f24235",
  "source": "pragma solidity ^0.6.5;\n\n\nimport \"contracts/NuCypherToken.sol\";\nimport \"contracts/staking_contracts/AbstractStakingContract.sol\";\n\n\n/**\n* @notice Contract for using in staking contracts tests\n*/\ncontract StakingEscrowForStakingContractMock {\n\n    NuCypherToken immutable token;\n    uint32 public secondsPerPeriod = 1;\n    address public node;\n    uint256 public value;\n    uint256 public lockedValue;\n    uint16 public periods;\n    uint256 public index;\n    bool public reStake;\n    uint16 public lockReStakeUntilPeriod;\n    address public worker;\n    bool public windDown;\n\n    constructor(NuCypherToken _token) public {\n        token = _token;\n    }\n\n    function deposit(uint256 _value, uint16 _periods) external {\n        deposit(msg.sender, _value, _periods);\n    }\n\n    function deposit(address _node, uint256 _value, uint16 _periods) public {\n        node = _node;\n        value += _value;\n        lockedValue += _value;\n        periods += _periods;\n        token.transferFrom(msg.sender, address(this), _value);\n    }\n\n    function lock(uint256 _value, uint16 _periods) external {\n        lockedValue += _value;\n        periods += _periods;\n    }\n\n    function divideStake(uint256 _index, uint256 _newValue, uint16 _periods) external {\n        index = _index;\n        lockedValue += _newValue;\n        periods += _periods;\n    }\n\n    function withdraw(uint256 _value) public {\n        value -= _value;\n        token.transfer(msg.sender, _value);\n    }\n\n    function withdrawAll() external {\n        withdraw(value);\n    }\n\n    function mint() external {\n        value += 1000;\n    }\n\n    function setReStake(bool _reStake) external {\n        reStake = _reStake;\n    }\n\n    function lockReStake(uint16 _lockReStakeUntilPeriod) external {\n        lockReStakeUntilPeriod = _lockReStakeUntilPeriod;\n    }\n\n    function bondWorker(address _worker) external {\n        worker = _worker;\n    }\n\n    function prolongStake(uint256 _index, uint16 _periods) external {\n        index = _index;\n        periods += _periods;\n    }\n\n    function getAllTokens(address) external view returns (uint256) {\n        return value;\n    }\n\n    function setWindDown(bool _windDown) external {\n        windDown = _windDown;\n    }\n}\n\n\n/**\n* @notice Contract for staking contract tests\n*/\ncontract PolicyManagerForStakingContractMock {\n\n    uint32 public immutable secondsPerPeriod = 1;\n    uint256 public minFeeRate;\n\n    function withdraw() public returns (uint256) {\n        uint256 value = address(this).balance;\n        require(value > 0);\n        msg.sender.transfer(value);\n        return value;\n    }\n\n    function setMinFeeRate(uint256 _minFeeRate) public {\n        minFeeRate = _minFeeRate;\n    }\n\n    function additionalMethod(uint256 _minFeeRate) public {\n        minFeeRate = _minFeeRate;\n    }\n\n    // TODO #1809\n//    receive() external payable {}\n    fallback() external payable {}\n}\n\n\n/**\n* @notice Contract for staking contract tests\n*/\ncontract WorkLockForStakingContractMock {\n\n    uint256 public immutable boostingRefund = 1;\n    uint256 public claimed;\n    uint256 public depositedETH;\n    uint256 public compensation;\n    uint256 public refundETH;\n\n    function bid() external payable {\n        depositedETH = msg.value;\n    }\n\n    function cancelBid() external {\n        uint256 value = depositedETH;\n        depositedETH = 0;\n        msg.sender.transfer(value);\n    }\n\n    function sendCompensation() external payable {\n        compensation = msg.value;\n    }\n\n    function withdrawCompensation() external {\n        uint256 value = compensation;\n        compensation = 0;\n        msg.sender.transfer(value);\n    }\n\n    function claim() external returns (uint256) {\n        claimed += 1;\n        return claimed;\n    }\n\n    function sendRefund() external payable {\n        refundETH = msg.value;\n    }\n\n    function refund() external returns (uint256) {\n        uint256 value = refundETH;\n        refundETH = 0;\n        msg.sender.transfer(value);\n        return value;\n    }\n\n}\n\n\n/**\n* @notice Contract for staking contract tests\n*/\ncontract StakingInterfaceMockV1 {\n\n    address public immutable token = address(1);\n    address public immutable escrow = address(1);\n\n    function firstMethod() public pure {}\n\n    function secondMethod() public pure returns (uint256) {\n        return 20;\n    }\n\n}\n\n\n/**\n* @notice Contract for staking contract tests\n*/\ncontract StakingInterfaceMockV2 {\n\n    address public immutable token = address(1);\n    address public immutable escrow = address(1);\n\n    // TODO #1809\n//    receive() external payable {}\n    fallback() external payable {\n        // can only use with ETH\n        require(msg.value > 0);\n    }\n\n    function firstMethod(uint256) public pure {}\n\n    function secondMethod() public pure returns (uint256) {\n        return 15;\n    }\n\n    function thirdMethod() public pure {}\n\n}\n\n\n/**\n* @dev Interface that could be destroyed by selfdestruct\n*/\ncontract DestroyableStakingInterface {\n\n    address public immutable token = address(1);\n    address public immutable escrow = address(1);\n\n    function method() public pure returns (uint256) {\n        return 15;\n    }\n\n    function destroy() public {\n        selfdestruct(msg.sender);\n    }\n\n}\n\n\n/**\n* @notice Simple implementation of AbstractStakingContract\n*/\ncontract SimpleStakingContract is AbstractStakingContract, Ownable {\n\n    /**\n    * @param _router Address of the StakingInterfaceRouter contract\n    */\n    constructor(StakingInterfaceRouter _router) public AbstractStakingContract(_router) {}\n\n    /**\n    * @notice Withdraw available amount of tokens to owner\n    * @param _value Amount of token to withdraw\n    */\n    function withdrawTokens(uint256 _value) public override onlyOwner {\n        token.safeTransfer(msg.sender, _value);\n    }\n\n    /**\n    * @notice Withdraw available ETH to the owner\n    */\n    function withdrawETH() public override onlyOwner {\n        uint256 balance = address(this).balance;\n        require(balance != 0);\n        msg.sender.sendValue(balance);\n    }\n\n    /**\n    * @notice Calling fallback function is allowed only for the owner\n    */\n    function isFallbackAllowed() public override returns (bool) {\n        return msg.sender == owner();\n    }\n\n}\n",
  "sourcePath": "contracts/StakingContractsTestSet.sol",
  "type": "contract"
}