{
  "abi": [
    {
      "inputs": [
        {
          "internalType": "contract NuCypherToken",
          "name": "_token",
          "type": "address"
        },
        {
          "internalType": "uint32",
          "name": "_hoursPerPeriod",
          "type": "uint32"
        },
        {
          "internalType": "uint256",
          "name": "_issuanceDecayCoefficient",
          "type": "uint256"
        },
        {
          "internalType": "uint256",
          "name": "_lockDurationCoefficient1",
          "type": "uint256"
        },
        {
          "internalType": "uint256",
          "name": "_lockDurationCoefficient2",
          "type": "uint256"
        },
        {
          "internalType": "uint16",
          "name": "_maximumRewardedPeriods",
          "type": "uint16"
        },
        {
          "internalType": "uint256",
          "name": "_firstPhaseTotalSupply",
          "type": "uint256"
        },
        {
          "internalType": "uint256",
          "name": "_firstPhaseMaxIssuance",
          "type": "uint256"
        },
        {
          "internalType": "uint16",
          "name": "_minLockedPeriods",
          "type": "uint16"
        },
        {
          "internalType": "uint256",
          "name": "_minAllowableLockedTokens",
          "type": "uint256"
        },
        {
          "internalType": "uint256",
          "name": "_maxAllowableLockedTokens",
          "type": "uint256"
        },
        {
          "internalType": "uint16",
          "name": "_minWorkerPeriods",
          "type": "uint16"
        },
        {
          "internalType": "bool",
          "name": "_isTestContract",
          "type": "bool"
        },
        {
          "internalType": "uint256",
          "name": "_valueToCheck",
          "type": "uint256"
        }
      ],
      "stateMutability": "nonpayable",
      "type": "constructor"
    },
    {
      "anonymous": false,
      "inputs": [
        {
          "indexed": true,
          "internalType": "address",
          "name": "staker",
          "type": "address"
        },
        {
          "indexed": true,
          "internalType": "uint16",
          "name": "period",
          "type": "uint16"
        },
        {
          "indexed": false,
          "internalType": "uint256",
          "name": "value",
          "type": "uint256"
        }
      ],
      "name": "CommitmentMade",
      "type": "event"
    },
    {
      "anonymous": false,
      "inputs": [
        {
          "indexed": true,
          "internalType": "address",
          "name": "staker",
          "type": "address"
        },
        {
          "indexed": false,
          "internalType": "uint256",
          "name": "value",
          "type": "uint256"
        },
        {
          "indexed": false,
          "internalType": "uint16",
          "name": "periods",
          "type": "uint16"
        }
      ],
      "name": "Deposited",
      "type": "event"
    },
    {
      "anonymous": false,
      "inputs": [
        {
          "indexed": true,
          "internalType": "address",
          "name": "staker",
          "type": "address"
        },
        {
          "indexed": false,
          "internalType": "uint256",
          "name": "oldValue",
          "type": "uint256"
        },
        {
          "indexed": false,
          "internalType": "uint16",
          "name": "lastPeriod",
          "type": "uint16"
        },
        {
          "indexed": false,
          "internalType": "uint256",
          "name": "newValue",
          "type": "uint256"
        },
        {
          "indexed": false,
          "internalType": "uint16",
          "name": "periods",
          "type": "uint16"
        }
      ],
      "name": "Divided",
      "type": "event"
    },
    {
      "anonymous": false,
      "inputs": [
        {
          "indexed": true,
          "internalType": "address",
          "name": "sender",
          "type": "address"
        },
        {
          "indexed": false,
          "internalType": "uint256",
          "name": "value",
          "type": "uint256"
        }
      ],
      "name": "Donated",
      "type": "event"
    },
    {
      "anonymous": false,
      "inputs": [
        {
          "indexed": false,
          "internalType": "uint256",
          "name": "reservedReward",
          "type": "uint256"
        }
      ],
      "name": "Initialized",
      "type": "event"
    },
    {
      "anonymous": false,
      "inputs": [
        {
          "indexed": true,
          "internalType": "address",
          "name": "staker",
          "type": "address"
        },
        {
          "indexed": false,
          "internalType": "uint256",
          "name": "value",
          "type": "uint256"
        },
        {
          "indexed": false,
          "internalType": "uint16",
          "name": "firstPeriod",
          "type": "uint16"
        },
        {
          "indexed": false,
          "internalType": "uint16",
          "name": "periods",
          "type": "uint16"
        }
      ],
      "name": "Locked",
      "type": "event"
    },
    {
      "anonymous": false,
      "inputs": [
        {
          "indexed": true,
          "internalType": "address",
          "name": "staker",
          "type": "address"
        },
        {
          "indexed": true,
          "internalType": "uint16",
          "name": "period",
          "type": "uint16"
        },
        {
          "indexed": false,
          "internalType": "uint256",
          "name": "value",
          "type": "uint256"
        }
      ],
      "name": "Minted",
      "type": "event"
    },
    {
      "anonymous": false,
      "inputs": [
        {
          "indexed": true,
          "internalType": "address",
          "name": "previousOwner",
          "type": "address"
        },
        {
          "indexed": true,
          "internalType": "address",
          "name": "newOwner",
          "type": "address"
        }
      ],
      "name": "OwnershipTransferred",
      "type": "event"
    },
    {
      "anonymous": false,
      "inputs": [
        {
          "indexed": true,
          "internalType": "address",
          "name": "staker",
          "type": "address"
        },
        {
          "indexed": false,
          "internalType": "uint256",
          "name": "value",
          "type": "uint256"
        },
        {
          "indexed": false,
          "internalType": "uint16",
          "name": "lastPeriod",
          "type": "uint16"
        },
        {
          "indexed": false,
          "internalType": "uint16",
          "name": "periods",
          "type": "uint16"
        }
      ],
      "name": "Prolonged",
      "type": "event"
    },
    {
      "anonymous": false,
      "inputs": [
        {
          "indexed": true,
          "internalType": "address",
          "name": "staker",
          "type": "address"
        },
        {
          "indexed": false,
          "internalType": "uint16",
          "name": "lockUntilPeriod",
          "type": "uint16"
        }
      ],
      "name": "ReStakeLocked",
      "type": "event"
    },
    {
      "anonymous": false,
      "inputs": [
        {
          "indexed": true,
          "internalType": "address",
          "name": "staker",
          "type": "address"
        },
        {
          "indexed": false,
          "internalType": "bool",
          "name": "reStake",
          "type": "bool"
        }
      ],
      "name": "ReStakeSet",
      "type": "event"
    },
    {
      "anonymous": false,
      "inputs": [
        {
          "indexed": true,
          "internalType": "address",
          "name": "staker",
          "type": "address"
        },
        {
          "indexed": false,
          "internalType": "uint256",
          "name": "penalty",
          "type": "uint256"
        },
        {
          "indexed": true,
          "internalType": "address",
          "name": "investigator",
          "type": "address"
        },
        {
          "indexed": false,
          "internalType": "uint256",
          "name": "reward",
          "type": "uint256"
        }
      ],
      "name": "Slashed",
      "type": "event"
    },
    {
      "anonymous": false,
      "inputs": [
        {
          "indexed": true,
          "internalType": "address",
          "name": "staker",
          "type": "address"
        },
        {
          "indexed": false,
          "internalType": "bool",
          "name": "snapshotsEnabled",
          "type": "bool"
        }
      ],
      "name": "SnapshotSet",
      "type": "event"
    },
    {
      "anonymous": false,
      "inputs": [
        {
          "indexed": true,
          "internalType": "address",
          "name": "testTarget",
          "type": "address"
        },
        {
          "indexed": false,
          "internalType": "address",
          "name": "sender",
          "type": "address"
        }
      ],
      "name": "StateVerified",
      "type": "event"
    },
    {
      "anonymous": false,
      "inputs": [
        {
          "indexed": true,
          "internalType": "address",
          "name": "target",
          "type": "address"
        },
        {
          "indexed": false,
          "internalType": "address",
          "name": "sender",
          "type": "address"
        }
      ],
      "name": "UpgradeFinished",
      "type": "event"
    },
    {
      "anonymous": false,
      "inputs": [
        {
          "indexed": true,
          "internalType": "address",
          "name": "staker",
          "type": "address"
        },
        {
          "indexed": false,
          "internalType": "bool",
          "name": "windDown",
          "type": "bool"
        }
      ],
      "name": "WindDownSet",
      "type": "event"
    },
    {
      "anonymous": false,
      "inputs": [
        {
          "indexed": true,
          "internalType": "address",
          "name": "staker",
          "type": "address"
        },
        {
          "indexed": false,
          "internalType": "uint256",
          "name": "value",
          "type": "uint256"
        }
      ],
      "name": "Withdrawn",
      "type": "event"
    },
    {
      "anonymous": false,
      "inputs": [
        {
          "indexed": true,
          "internalType": "address",
          "name": "staker",
          "type": "address"
        },
        {
          "indexed": false,
          "internalType": "bool",
          "name": "measureWork",
          "type": "bool"
        }
      ],
      "name": "WorkMeasurementSet",
      "type": "event"
    },
    {
      "anonymous": false,
      "inputs": [
        {
          "indexed": true,
          "internalType": "address",
          "name": "staker",
          "type": "address"
        },
        {
          "indexed": true,
          "internalType": "address",
          "name": "worker",
          "type": "address"
        },
        {
          "indexed": true,
          "internalType": "uint16",
          "name": "startPeriod",
          "type": "uint16"
        }
      ],
      "name": "WorkerBonded",
      "type": "event"
    },
    {
      "inputs": [],
      "name": "MAX_SUB_STAKES",
      "outputs": [
        {
          "internalType": "uint16",
          "name": "",
          "type": "uint16"
        }
      ],
      "stateMutability": "view",
      "type": "function"
    },
    {
      "inputs": [],
      "name": "adjudicator",
      "outputs": [
        {
          "internalType": "contract AdjudicatorInterface",
          "name": "",
          "type": "address"
        }
      ],
      "stateMutability": "view",
      "type": "function"
    },
    {
      "inputs": [
        {
          "internalType": "uint256",
          "name": "",
          "type": "uint256"
        }
      ],
      "name": "balanceHistory",
      "outputs": [
        {
          "internalType": "uint128",
          "name": "",
          "type": "uint128"
        }
      ],
      "stateMutability": "view",
      "type": "function"
    },
    {
      "inputs": [
        {
          "internalType": "address[]",
          "name": "_stakers",
          "type": "address[]"
        },
        {
          "internalType": "uint256[]",
          "name": "_numberOfSubStakes",
          "type": "uint256[]"
        },
        {
          "internalType": "uint256[]",
          "name": "_values",
          "type": "uint256[]"
        },
        {
          "internalType": "uint16[]",
          "name": "_periods",
          "type": "uint16[]"
        }
      ],
      "name": "batchDeposit",
      "outputs": [],
      "stateMutability": "nonpayable",
      "type": "function"
    },
    {
      "inputs": [
        {
          "internalType": "address",
          "name": "_worker",
          "type": "address"
        }
      ],
      "name": "bondWorker",
      "outputs": [],
      "stateMutability": "nonpayable",
      "type": "function"
    },
    {
      "inputs": [],
      "name": "commitToNextPeriod",
      "outputs": [],
      "stateMutability": "nonpayable",
      "type": "function"
    },
    {
      "inputs": [],
      "name": "currentMintingPeriod",
      "outputs": [
        {
          "internalType": "uint16",
          "name": "",
          "type": "uint16"
        }
      ],
      "stateMutability": "view",
      "type": "function"
    },
    {
      "inputs": [],
      "name": "currentPeriodSupply",
      "outputs": [
        {
          "internalType": "uint128",
          "name": "",
          "type": "uint128"
        }
      ],
      "stateMutability": "view",
      "type": "function"
    },
    {
      "inputs": [
        {
          "internalType": "uint256",
          "name": "_value",
          "type": "uint256"
        },
        {
          "internalType": "uint16",
          "name": "_periods",
          "type": "uint16"
        }
      ],
      "name": "deposit",
      "outputs": [],
      "stateMutability": "nonpayable",
      "type": "function"
    },
    {
      "inputs": [
        {
          "internalType": "address",
          "name": "_staker",
          "type": "address"
        },
        {
          "internalType": "uint256",
          "name": "_value",
          "type": "uint256"
        },
        {
          "internalType": "uint16",
          "name": "_periods",
          "type": "uint16"
        }
      ],
      "name": "deposit",
      "outputs": [],
      "stateMutability": "nonpayable",
      "type": "function"
    },
    {
      "inputs": [
        {
          "internalType": "uint256",
          "name": "_index",
          "type": "uint256"
        },
        {
          "internalType": "uint256",
          "name": "_newValue",
          "type": "uint256"
        },
        {
          "internalType": "uint16",
          "name": "_periods",
          "type": "uint16"
        }
      ],
      "name": "divideStake",
      "outputs": [],
      "stateMutability": "nonpayable",
      "type": "function"
    },
    {
      "inputs": [
        {
          "internalType": "uint256",
          "name": "_value",
          "type": "uint256"
        }
      ],
      "name": "donate",
      "outputs": [],
      "stateMutability": "nonpayable",
      "type": "function"
    },
    {
      "inputs": [
        {
          "internalType": "address",
          "name": "_staker",
          "type": "address"
        },
        {
          "internalType": "uint16",
          "name": "_period",
          "type": "uint16"
        }
      ],
      "name": "findIndexOfPastDowntime",
      "outputs": [
        {
          "internalType": "uint256",
          "name": "index",
          "type": "uint256"
        }
      ],
      "stateMutability": "view",
      "type": "function"
    },
    {
      "inputs": [
        {
          "internalType": "address",
          "name": "_target",
          "type": "address"
        }
      ],
      "name": "finishUpgrade",
      "outputs": [],
      "stateMutability": "nonpayable",
      "type": "function"
    },
    {
      "inputs": [],
      "name": "firstPhaseMaxIssuance",
      "outputs": [
        {
          "internalType": "uint256",
          "name": "",
          "type": "uint256"
        }
      ],
      "stateMutability": "view",
      "type": "function"
    },
    {
      "inputs": [],
      "name": "firstPhaseTotalSupply",
      "outputs": [
        {
          "internalType": "uint256",
          "name": "",
          "type": "uint256"
        }
      ],
      "stateMutability": "view",
      "type": "function"
    },
    {
      "inputs": [
        {
          "internalType": "uint16",
          "name": "_periods",
          "type": "uint16"
        },
        {
          "internalType": "uint256",
          "name": "_startIndex",
          "type": "uint256"
        },
        {
          "internalType": "uint256",
          "name": "_maxStakers",
          "type": "uint256"
        }
      ],
      "name": "getActiveStakers",
      "outputs": [
        {
          "internalType": "uint256",
          "name": "allLockedTokens",
          "type": "uint256"
        },
        {
          "internalType": "uint256[2][]",
          "name": "activeStakers",
          "type": "uint256[2][]"
        }
      ],
      "stateMutability": "view",
      "type": "function"
    },
    {
      "inputs": [
        {
          "internalType": "address",
          "name": "_staker",
          "type": "address"
        }
      ],
      "name": "getAllTokens",
      "outputs": [
        {
          "internalType": "uint256",
          "name": "",
          "type": "uint256"
        }
      ],
      "stateMutability": "view",
      "type": "function"
    },
    {
      "inputs": [
        {
          "internalType": "address",
          "name": "_staker",
          "type": "address"
        }
      ],
      "name": "getCompletedWork",
      "outputs": [
        {
          "internalType": "uint256",
          "name": "",
          "type": "uint256"
        }
      ],
      "stateMutability": "view",
      "type": "function"
    },
    {
      "inputs": [],
      "name": "getCurrentPeriod",
      "outputs": [
        {
          "internalType": "uint16",
          "name": "",
          "type": "uint16"
        }
      ],
      "stateMutability": "view",
      "type": "function"
    },
    {
      "inputs": [
        {
          "internalType": "address",
          "name": "_staker",
          "type": "address"
        }
      ],
      "name": "getFlags",
      "outputs": [
        {
          "internalType": "bool",
          "name": "windDown",
          "type": "bool"
        },
        {
          "internalType": "bool",
          "name": "reStake",
          "type": "bool"
        },
        {
          "internalType": "bool",
          "name": "measureWork",
          "type": "bool"
        },
        {
          "internalType": "bool",
          "name": "snapshots",
          "type": "bool"
        }
      ],
      "stateMutability": "view",
      "type": "function"
    },
    {
      "inputs": [
        {
          "internalType": "address",
          "name": "_staker",
          "type": "address"
        }
      ],
      "name": "getLastCommittedPeriod",
      "outputs": [
        {
          "internalType": "uint16",
          "name": "",
          "type": "uint16"
        }
      ],
      "stateMutability": "view",
      "type": "function"
    },
    {
      "inputs": [
        {
          "internalType": "address",
          "name": "_staker",
          "type": "address"
        },
        {
          "internalType": "uint256",
          "name": "_index",
          "type": "uint256"
        }
      ],
      "name": "getLastPeriodOfSubStake",
      "outputs": [
        {
          "internalType": "uint16",
          "name": "",
          "type": "uint16"
        }
      ],
      "stateMutability": "view",
      "type": "function"
    },
    {
      "inputs": [
        {
          "internalType": "address",
          "name": "_staker",
          "type": "address"
        },
        {
          "internalType": "uint16",
          "name": "_periods",
          "type": "uint16"
        }
      ],
      "name": "getLockedTokens",
      "outputs": [
        {
          "internalType": "uint256",
          "name": "lockedValue",
          "type": "uint256"
        }
      ],
      "stateMutability": "view",
      "type": "function"
    },
    {
      "inputs": [
        {
          "internalType": "address",
          "name": "_staker",
          "type": "address"
        },
        {
          "internalType": "uint16",
          "name": "_periods",
          "type": "uint16"
        }
      ],
      "name": "getLockedTokensInPast",
      "outputs": [
        {
          "internalType": "uint256",
          "name": "lockedValue",
          "type": "uint256"
        }
      ],
      "stateMutability": "view",
      "type": "function"
    },
    {
      "inputs": [
        {
          "internalType": "address",
          "name": "_staker",
          "type": "address"
        },
        {
          "internalType": "uint256",
          "name": "_index",
          "type": "uint256"
        }
      ],
      "name": "getPastDowntime",
      "outputs": [
        {
          "internalType": "uint16",
          "name": "startPeriod",
          "type": "uint16"
        },
        {
          "internalType": "uint16",
          "name": "endPeriod",
          "type": "uint16"
        }
      ],
      "stateMutability": "view",
      "type": "function"
    },
    {
      "inputs": [
        {
          "internalType": "address",
          "name": "_staker",
          "type": "address"
        }
      ],
      "name": "getPastDowntimeLength",
      "outputs": [
        {
          "internalType": "uint256",
          "name": "",
          "type": "uint256"
        }
      ],
      "stateMutability": "view",
      "type": "function"
    },
    {
      "inputs": [],
      "name": "getReservedReward",
      "outputs": [
        {
          "internalType": "uint256",
          "name": "",
          "type": "uint256"
        }
      ],
      "stateMutability": "view",
      "type": "function"
    },
    {
      "inputs": [],
      "name": "getStakersLength",
      "outputs": [
        {
          "internalType": "uint256",
          "name": "",
          "type": "uint256"
        }
      ],
      "stateMutability": "view",
      "type": "function"
    },
    {
      "inputs": [
        {
          "internalType": "address",
          "name": "_staker",
          "type": "address"
        },
        {
          "internalType": "uint256",
          "name": "_index",
          "type": "uint256"
        }
      ],
      "name": "getSubStakeInfo",
      "outputs": [
        {
          "internalType": "uint16",
          "name": "firstPeriod",
          "type": "uint16"
        },
        {
          "internalType": "uint16",
          "name": "lastPeriod",
          "type": "uint16"
        },
        {
          "internalType": "uint16",
          "name": "periods",
          "type": "uint16"
        },
        {
          "internalType": "uint128",
          "name": "lockedValue",
          "type": "uint128"
        }
      ],
      "stateMutability": "view",
      "type": "function"
    },
    {
      "inputs": [
        {
          "internalType": "address",
          "name": "_staker",
          "type": "address"
        }
      ],
      "name": "getSubStakesLength",
      "outputs": [
        {
          "internalType": "uint256",
          "name": "",
          "type": "uint256"
        }
      ],
      "stateMutability": "view",
      "type": "function"
    },
    {
      "inputs": [
        {
          "internalType": "address",
          "name": "_staker",
          "type": "address"
        }
      ],
      "name": "getWorkerFromStaker",
      "outputs": [
        {
          "internalType": "address",
          "name": "",
          "type": "address"
        }
      ],
      "stateMutability": "view",
      "type": "function"
    },
    {
      "inputs": [
        {
          "internalType": "uint256",
          "name": "_reservedReward",
          "type": "uint256"
        }
      ],
      "name": "initialize",
      "outputs": [],
      "stateMutability": "nonpayable",
      "type": "function"
    },
    {
      "inputs": [],
      "name": "isOwner",
      "outputs": [
        {
          "internalType": "bool",
          "name": "",
          "type": "bool"
        }
      ],
      "stateMutability": "view",
      "type": "function"
    },
    {
      "inputs": [
        {
          "internalType": "address",
          "name": "_staker",
          "type": "address"
        }
      ],
      "name": "isReStakeLocked",
      "outputs": [
        {
          "internalType": "bool",
          "name": "",
          "type": "bool"
        }
      ],
      "stateMutability": "view",
      "type": "function"
    },
    {
      "inputs": [],
      "name": "isTestContract",
      "outputs": [
        {
          "internalType": "bool",
          "name": "",
          "type": "bool"
        }
      ],
      "stateMutability": "view",
      "type": "function"
    },
    {
      "inputs": [],
      "name": "isUpgrade",
      "outputs": [
        {
          "internalType": "uint8",
          "name": "",
          "type": "uint8"
        }
      ],
      "stateMutability": "view",
      "type": "function"
    },
    {
      "inputs": [
        {
          "internalType": "uint256",
          "name": "_value",
          "type": "uint256"
        },
        {
          "internalType": "uint16",
          "name": "_periods",
          "type": "uint16"
        }
      ],
      "name": "lock",
      "outputs": [],
      "stateMutability": "nonpayable",
      "type": "function"
    },
    {
      "inputs": [],
      "name": "lockDurationCoefficient1",
      "outputs": [
        {
          "internalType": "uint256",
          "name": "",
          "type": "uint256"
        }
      ],
      "stateMutability": "view",
      "type": "function"
    },
    {
      "inputs": [],
      "name": "lockDurationCoefficient2",
      "outputs": [
        {
          "internalType": "uint256",
          "name": "",
          "type": "uint256"
        }
      ],
      "stateMutability": "view",
      "type": "function"
    },
    {
      "inputs": [
        {
          "internalType": "uint16",
          "name": "_lockReStakeUntilPeriod",
          "type": "uint16"
        }
      ],
      "name": "lockReStake",
      "outputs": [],
      "stateMutability": "nonpayable",
      "type": "function"
    },
    {
      "inputs": [
        {
          "internalType": "uint16",
          "name": "",
          "type": "uint16"
        }
      ],
      "name": "lockedPerPeriod",
      "outputs": [
        {
          "internalType": "uint256",
          "name": "",
          "type": "uint256"
        }
      ],
      "stateMutability": "view",
      "type": "function"
    },
    {
      "inputs": [],
      "name": "maxAllowableLockedTokens",
      "outputs": [
        {
          "internalType": "uint256",
          "name": "",
          "type": "uint256"
        }
      ],
      "stateMutability": "view",
      "type": "function"
    },
    {
      "inputs": [],
      "name": "maximumRewardedPeriods",
      "outputs": [
        {
          "internalType": "uint16",
          "name": "",
          "type": "uint16"
        }
      ],
      "stateMutability": "view",
      "type": "function"
    },
    {
      "inputs": [],
      "name": "minAllowableLockedTokens",
      "outputs": [
        {
          "internalType": "uint256",
          "name": "",
          "type": "uint256"
        }
      ],
      "stateMutability": "view",
      "type": "function"
    },
    {
      "inputs": [],
      "name": "minLockedPeriods",
      "outputs": [
        {
          "internalType": "uint16",
          "name": "",
          "type": "uint16"
        }
      ],
      "stateMutability": "view",
      "type": "function"
    },
    {
      "inputs": [],
      "name": "minWorkerPeriods",
      "outputs": [
        {
          "internalType": "uint16",
          "name": "",
          "type": "uint16"
        }
      ],
      "stateMutability": "view",
      "type": "function"
    },
    {
      "inputs": [],
      "name": "mint",
      "outputs": [],
      "stateMutability": "nonpayable",
      "type": "function"
    },
    {
      "inputs": [],
      "name": "mintingCoefficient",
      "outputs": [
        {
          "internalType": "uint256",
          "name": "",
          "type": "uint256"
        }
      ],
      "stateMutability": "view",
      "type": "function"
    },
    {
      "inputs": [],
      "name": "owner",
      "outputs": [
        {
          "internalType": "address",
          "name": "",
          "type": "address"
        }
      ],
      "stateMutability": "view",
      "type": "function"
    },
    {
      "inputs": [],
      "name": "policyManager",
      "outputs": [
        {
          "internalType": "contract PolicyManagerInterface",
          "name": "",
          "type": "address"
        }
      ],
      "stateMutability": "view",
      "type": "function"
    },
    {
      "inputs": [],
      "name": "previousPeriodSupply",
      "outputs": [
        {
          "internalType": "uint128",
          "name": "",
          "type": "uint128"
        }
      ],
      "stateMutability": "view",
      "type": "function"
    },
    {
      "inputs": [],
      "name": "previousTarget",
      "outputs": [
        {
          "internalType": "address",
          "name": "",
          "type": "address"
        }
      ],
      "stateMutability": "view",
      "type": "function"
    },
    {
      "inputs": [
        {
          "internalType": "uint256",
          "name": "_index",
          "type": "uint256"
        },
        {
          "internalType": "uint16",
          "name": "_periods",
          "type": "uint16"
        }
      ],
      "name": "prolongStake",
      "outputs": [],
      "stateMutability": "nonpayable",
      "type": "function"
    },
    {
      "inputs": [
        {
          "internalType": "address",
          "name": "_from",
          "type": "address"
        },
        {
          "internalType": "uint256",
          "name": "_value",
          "type": "uint256"
        },
        {
          "internalType": "address",
          "name": "_tokenContract",
          "type": "address"
        },
        {
          "internalType": "bytes",
          "name": "",
          "type": "bytes"
        }
      ],
      "name": "receiveApproval",
      "outputs": [],
      "stateMutability": "nonpayable",
      "type": "function"
    },
    {
      "inputs": [],
      "name": "renounceOwnership",
      "outputs": [],
      "stateMutability": "nonpayable",
      "type": "function"
    },
    {
      "inputs": [],
      "name": "secondsPerPeriod",
      "outputs": [
        {
          "internalType": "uint32",
          "name": "",
          "type": "uint32"
        }
      ],
      "stateMutability": "view",
      "type": "function"
    },
    {
      "inputs": [
        {
          "internalType": "contract AdjudicatorInterface",
          "name": "_adjudicator",
          "type": "address"
        }
      ],
      "name": "setAdjudicator",
      "outputs": [],
      "stateMutability": "nonpayable",
      "type": "function"
    },
    {
      "inputs": [
        {
          "internalType": "contract PolicyManagerInterface",
          "name": "_policyManager",
          "type": "address"
        }
      ],
      "name": "setPolicyManager",
      "outputs": [],
      "stateMutability": "nonpayable",
      "type": "function"
    },
    {
      "inputs": [
        {
          "internalType": "bool",
          "name": "_reStake",
          "type": "bool"
        }
      ],
      "name": "setReStake",
      "outputs": [],
      "stateMutability": "nonpayable",
      "type": "function"
    },
    {
      "inputs": [
        {
          "internalType": "bool",
          "name": "_enableSnapshots",
          "type": "bool"
        }
      ],
      "name": "setSnapshots",
      "outputs": [],
      "stateMutability": "nonpayable",
      "type": "function"
    },
    {
      "inputs": [
        {
          "internalType": "uint256",
          "name": "_valueToCheck",
          "type": "uint256"
        }
      ],
      "name": "setValueToCheck",
      "outputs": [],
      "stateMutability": "nonpayable",
      "type": "function"
    },
    {
      "inputs": [
        {
          "internalType": "bool",
          "name": "_windDown",
          "type": "bool"
        }
      ],
      "name": "setWindDown",
      "outputs": [],
      "stateMutability": "nonpayable",
      "type": "function"
    },
    {
      "inputs": [
        {
          "internalType": "contract WorkLockInterface",
          "name": "_workLock",
          "type": "address"
        }
      ],
      "name": "setWorkLock",
      "outputs": [],
      "stateMutability": "nonpayable",
      "type": "function"
    },
    {
      "inputs": [
        {
          "internalType": "address",
          "name": "_staker",
          "type": "address"
        },
        {
          "internalType": "bool",
          "name": "_measureWork",
          "type": "bool"
        }
      ],
      "name": "setWorkMeasurement",
      "outputs": [
        {
          "internalType": "uint256",
          "name": "",
          "type": "uint256"
        }
      ],
      "stateMutability": "nonpayable",
      "type": "function"
    },
    {
      "inputs": [
        {
          "internalType": "address",
          "name": "_staker",
          "type": "address"
        },
        {
          "internalType": "uint256",
          "name": "_penalty",
          "type": "uint256"
        },
        {
          "internalType": "address",
          "name": "_investigator",
          "type": "address"
        },
        {
          "internalType": "uint256",
          "name": "_reward",
          "type": "uint256"
        }
      ],
      "name": "slashStaker",
      "outputs": [],
      "stateMutability": "nonpayable",
      "type": "function"
    },
    {
      "inputs": [
        {
          "internalType": "address",
          "name": "",
          "type": "address"
        }
      ],
      "name": "stakerFromWorker",
      "outputs": [
        {
          "internalType": "address",
          "name": "",
          "type": "address"
        }
      ],
      "stateMutability": "view",
      "type": "function"
    },
    {
      "inputs": [
        {
          "internalType": "address",
          "name": "",
          "type": "address"
        }
      ],
      "name": "stakerInfo",
      "outputs": [
        {
          "internalType": "uint256",
          "name": "value",
          "type": "uint256"
        },
        {
          "internalType": "uint16",
          "name": "currentCommittedPeriod",
          "type": "uint16"
        },
        {
          "internalType": "uint16",
          "name": "nextCommittedPeriod",
          "type": "uint16"
        },
        {
          "internalType": "uint16",
          "name": "lastCommittedPeriod",
          "type": "uint16"
        },
        {
          "internalType": "uint16",
          "name": "lockReStakeUntilPeriod",
          "type": "uint16"
        },
        {
          "internalType": "uint256",
          "name": "completedWork",
          "type": "uint256"
        },
        {
          "internalType": "uint16",
          "name": "workerStartPeriod",
          "type": "uint16"
        },
        {
          "internalType": "address",
          "name": "worker",
          "type": "address"
        },
        {
          "internalType": "uint256",
          "name": "flags",
          "type": "uint256"
        },
        {
          "internalType": "uint256",
          "name": "reservedSlot1",
          "type": "uint256"
        },
        {
          "internalType": "uint256",
          "name": "reservedSlot2",
          "type": "uint256"
        },
        {
          "internalType": "uint256",
          "name": "reservedSlot3",
          "type": "uint256"
        },
        {
          "internalType": "uint256",
          "name": "reservedSlot4",
          "type": "uint256"
        },
        {
          "internalType": "uint256",
          "name": "reservedSlot5",
          "type": "uint256"
        }
      ],
      "stateMutability": "view",
      "type": "function"
    },
    {
      "inputs": [
        {
          "internalType": "uint256",
          "name": "",
          "type": "uint256"
        }
      ],
      "name": "stakers",
      "outputs": [
        {
          "internalType": "address",
          "name": "",
          "type": "address"
        }
      ],
      "stateMutability": "view",
      "type": "function"
    },
    {
      "inputs": [],
      "name": "supportsHistory",
      "outputs": [
        {
          "internalType": "bool",
          "name": "",
          "type": "bool"
        }
      ],
      "stateMutability": "pure",
      "type": "function"
    },
    {
      "inputs": [],
      "name": "target",
      "outputs": [
        {
          "internalType": "address",
          "name": "",
          "type": "address"
        }
      ],
      "stateMutability": "view",
      "type": "function"
    },
    {
      "inputs": [],
      "name": "token",
      "outputs": [
        {
          "internalType": "contract NuCypherToken",
          "name": "",
          "type": "address"
        }
      ],
      "stateMutability": "view",
      "type": "function"
    },
    {
      "inputs": [
        {
          "internalType": "uint256",
          "name": "_blockNumber",
          "type": "uint256"
        }
      ],
      "name": "totalStakedAt",
      "outputs": [
        {
          "internalType": "uint256",
          "name": "",
          "type": "uint256"
        }
      ],
      "stateMutability": "view",
      "type": "function"
    },
    {
      "inputs": [
        {
          "internalType": "address",
          "name": "_owner",
          "type": "address"
        },
        {
          "internalType": "uint256",
          "name": "_blockNumber",
          "type": "uint256"
        }
      ],
      "name": "totalStakedForAt",
      "outputs": [
        {
          "internalType": "uint256",
          "name": "",
          "type": "uint256"
        }
      ],
      "stateMutability": "view",
      "type": "function"
    },
    {
      "inputs": [],
      "name": "totalSupply",
      "outputs": [
        {
          "internalType": "uint128",
          "name": "",
          "type": "uint128"
        }
      ],
      "stateMutability": "view",
      "type": "function"
    },
    {
      "inputs": [
        {
          "internalType": "address",
          "name": "newOwner",
          "type": "address"
        }
      ],
      "name": "transferOwnership",
      "outputs": [],
      "stateMutability": "nonpayable",
      "type": "function"
    },
    {
      "inputs": [],
      "name": "valueToCheck",
      "outputs": [
        {
          "internalType": "uint256",
          "name": "",
          "type": "uint256"
        }
      ],
      "stateMutability": "view",
      "type": "function"
    },
    {
      "inputs": [
        {
          "internalType": "address",
          "name": "_testTarget",
          "type": "address"
        }
      ],
      "name": "verifyState",
      "outputs": [],
      "stateMutability": "nonpayable",
      "type": "function"
    },
    {
      "inputs": [
        {
          "internalType": "uint256",
          "name": "_value",
          "type": "uint256"
        }
      ],
      "name": "withdraw",
      "outputs": [],
      "stateMutability": "nonpayable",
      "type": "function"
    },
    {
      "inputs": [],
      "name": "workLock",
      "outputs": [
        {
          "internalType": "contract WorkLockInterface",
          "name": "",
          "type": "address"
        }
      ],
      "stateMutability": "view",
      "type": "function"
    }
  ],
  "bytecode": "6102406040523480156200001257600080fd5b50604051620062e4380380620062e483398181016040526101c08110156200003957600080fd5b8101908080519060200190929190805190602001909291908051906020019092919080519060200190929190805190602001909291908051906020019092919080519060200190929190805190602001909291908051906020019092919080519060200190929190805190602001909291908051906020019092919080519060200190929190805190602001909291905050508d8d8d8d8d8d8d8d8d8d8d8d8d8c8c8c8c8c8c8c8c336000806101000a8154816001600160a01b0302191690836001600160a01b031602179055506000809054906101000a90046001600160a01b03166001600160a01b031660006001600160a01b03167f8be0079c531659141344cd1fd0a4f28419497f9722a3daafe3b4186f6b6457e060405160405180910390a36000886001600160a01b03166318160ddd6040518163ffffffff1660e01b815260040160206040518083038186803b1580156200019857600080fd5b505afa158015620001ad573d6000803e3d6000fd5b505050506040513d6020811015620001c457600080fd5b505190508015801590620001d757508615155b8015620001e9575063ffffffff881615155b8015620001f557508515155b80156200020157508415155b801562000211575061ffff841615155b6200021b57600080fd5b6001600160801b03811115620002635760405162461bcd60e51b815260040180806020018281038252602d81526020018062006211602d913960400191505060405180910390fd5b61ffff8416808701908887029082118015620002885750868982816200028557fe5b04145b8015620002a057508083828502816200029d57fe5b04145b8015620002c45750818384848687020281620002b857fe5b0481620002c157fe5b04145b620003015760405162461bcd60e51b8152600401808060200182810382526023815260200180620062876023913960400191505060405180910390fd5b86821115620003425760405162461bcd60e51b815260040180806020018281038252603a815260200180620062aa603a913960400191505060405180910390fd5b82851115620003835760405162461bcd60e51b81526004018080602001828103825260238152602001806200623e6023913960400191505060405180910390fd5b84841115620003c45760405162461bcd60e51b8152600401808060200182810382526026815260200180620062616026913960400191505060405180910390fd5b60608b901b6001600160601b031916608052620003f663ffffffff8b16610e10620004d8602090811b6200597e17901c565b60e090811b6001600160e01b0319166101205297909752506101009490945260f09290921b6001600160f01b03191661014052610180526101605260801b6001600160801b03191660a05260c0525050600161ffff871611905080156200045c57508215155b6200046657600080fd5b8461ffff166101a08161ffff1660f01b81525050836101e081815250508261020081815250508161ffff166101c08161ffff1660f01b8152505080151561022081151560f81b815250505050505050505050505050505080600e81905550505050505050505050505050505062000521565b600063ffffffff8316620004ef575060006200051b565b82820263ffffffff80841690808616908316816200050957fe5b0463ffffffff16146200051857fe5b90505b92915050565b60805160601c60a05160801c60c05160e051610100516101205160e01c6101405160f01c61016051610180516101a05160f01c6101c05160f01c6101e051610200516102205160f81c615ba162000670600039806114e952806130f75250806121345280612208528061410f525080611f6852806123a55280612ed65280612fe25280614055525080612e6c52806131cb52508061147d5280611f935280612ca052806140805250806114a1528061564c5250806112745280613715528061567852806156a052508061228c528061576552508061113052806115b852508061368352806156c3525080612e2652806157405250806124ce528061571c5250806112265280611d38528061377352806155ba52806156f952508061133752806121c852806123e9528061242e52806127d652806135f752806136a752806137b45280613fbd5250615ba16000f3fe608060405234801561001057600080fd5b50600436106104805760003560e01c80638da5cb5b11610257578063c9c5323211610146578063e8dccd06116100c3578063f2fde38b11610087578063f2fde38b14610ff9578063f6910cb81461101f578063fc0c546a14611027578063fd5e6dd11461102f578063fe4b84df1461104c57610480565b8063e8dccd0614610f48578063ede3842114610f6e578063ee53c8fd14610f9a578063ef95e0ba14610fbb578063f14faf6f14610fdc57610480565b8063d4b839921161010a578063d4b8399214610ed7578063d6ad945714610edf578063dad6067614610ee7578063dfee9e0d14610f0d578063e38a303b14610f2a57610480565b8063c9c5323214610e29578063cd50f60114610e46578063d094adbf14610e4e578063d122b79414610e74578063d2d0e06614610ea157610480565b80639fabeb00116101d4578063b2eeb36e11610198578063b2eeb36e14610d88578063b89f66ed14610dae578063b9626d2114610dd5578063c2bc0ee614610dfb578063c83d870814610e2157610480565b80639fabeb0014610d24578063a3324be914610d2c578063a3ebc18214610d34578063ab3dbf3b14610d5a578063adde41e114610d6257610480565b806390dcb51f1161021b57806390dcb51f14610c605780639541c59814610c86578063959f2bf214610ca557806399cc218c14610ccb5780639d6f2a0914610d0557610480565b80638da5cb5b14610b6e5780638f32d59b14610b765780638f4ffcb114610b7e5780638fa95a1514610c0b578063909f7c8814610c5857610480565b80634789d02d116103735780636b5bbc97116102f0578063817ad5d3116102b4578063817ad5d314610a98578063845603a614610ae857806384bed44c14610b0f57806386f86dde14610b3f5780638cab6c4f14610b6657610480565b80636b5bbc97146109065780636fb653a214610a645780637033e4a614610a6c578063715018a614610a885780637b3888ef14610a9057610480565b80634e745f1f116103375780634e745f1f14610791578063521ca4da1461086257806353c2ed8e146108c657806366013dd3146108ce5780636784c917146108fe57610480565b80634789d02d1461065a578063494f994f1461068a57806349e5add41461072f5780634b2cd1181461075d5780634ce4dbba1461076557610480565b80632d621434116104015780633ac5743d116103c55780633ac5743d146105fb5780633ae10a1514610603578063405d220b1461060b578063407f80011461063157806341fe00a01461065257610480565b80632d621434146105a05780632e0abde3146105a85780632e1a7d4d146105b05780633250843d146105cd578063334987ab146105d557610480565b8063178b6de611610448578063178b6de61461050d57806318160ddd1461053357806318cc313c146105575780631c7fd53214610574578063204612a81461059857610480565b806303a944851461048557806304bcafe5146104a6578063086146d2146104de5780630f64ab14146104fd5780631249c58b14610505575b600080fd5b6104a46004803603602081101561049b57600080fd5b50351515611069565b005b6104cc600480360360208110156104bc57600080fd5b50356001600160a01b031661110a565b60408051918252519081900360200190f35b6104e661112c565b6040805161ffff9092168252519081900360200190f35b6104e6611163565b6104a461116d565b6104cc6004803603602081101561052357600080fd5b50356001600160a01b0316611209565b61053b611224565b604080516001600160801b039092168252519081900360200190f35b6104a46004803603602081101561056d57600080fd5b5035611248565b61057c61124d565b604080516001600160a01b039092168252519081900360200190f35b61053b61125c565b6104cc611272565b6104e6611296565b6104a4600480360360208110156105c657600080fd5b503561129b565b61053b6113a1565b6104a4600480360360208110156105eb57600080fd5b50356001600160a01b03166113b0565b6104e661147b565b6104cc61149f565b6104a46004803603602081101561062157600080fd5b50356001600160a01b03166114c3565b6106396115b6565b6040805163ffffffff9092168252519081900360200190f35b6104a46115da565b6104cc6004803603604081101561067057600080fd5b5080356001600160a01b0316906020013561ffff1661186c565b6106b7600480360360608110156106a057600080fd5b5061ffff81351690602081013590604001356118d9565b60405180838152602001806020018281038252838181518152602001915080516000925b8184101561071d57602080850284010151604080838360005b8381101561070c5781810151838201526020016106f4565b5050505090500192600101926106db565b92505050935050505060405180910390f35b6104cc6004803603604081101561074557600080fd5b506001600160a01b0381351690602001351515611aa1565b61057c611b67565b6104e66004803603604081101561077b57600080fd5b506001600160a01b038135169060200135611b76565b6107b7600480360360208110156107a757600080fd5b50356001600160a01b0316611bd6565b604051808f81526020018e61ffff1661ffff1681526020018d61ffff1661ffff1681526020018c61ffff1661ffff1681526020018b61ffff1661ffff1681526020018a81526020018961ffff1661ffff168152602001886001600160a01b03166001600160a01b031681526020018781526020018681526020018581526020018481526020018381526020018281526020019e50505050505050505050505050505060405180910390f35b61088e6004803603604081101561087857600080fd5b506001600160a01b038135169060200135611c5a565b6040805161ffff9586168152938516602085015291909316828201526001600160801b03909216606082015290519081900360800190f35b61057c611ccc565b6104cc600480360360408110156108e457600080fd5b5080356001600160a01b0316906020013561ffff16611cdb565b6104cc611d21565b6104a46004803603608081101561091c57600080fd5b810190602081018135600160201b81111561093657600080fd5b82018360208201111561094857600080fd5b803590602001918460208302840111600160201b8311171561096957600080fd5b919390929091602081019035600160201b81111561098657600080fd5b82018360208201111561099857600080fd5b803590602001918460208302840111600160201b831117156109b957600080fd5b919390929091602081019035600160201b8111156109d657600080fd5b8201836020820111156109e857600080fd5b803590602001918460208302840111600160201b83111715610a0957600080fd5b919390929091602081019035600160201b811115610a2657600080fd5b820183602082011115610a3857600080fd5b803590602001918460208302840111600160201b83111715610a5957600080fd5b509092509050611d5c565b6104cc612206565b610a7461222a565b604080519115158252519081900360200190f35b6104a461222f565b6104e661228a565b610abe60048036036020811015610aae57600080fd5b50356001600160a01b03166122ae565b60408051941515855292151560208501529015158383015215156060830152519081900360800190f35b6104a460048036036040811015610afe57600080fd5b508035906020013561ffff1661233a565b6104cc60048036036040811015610b2557600080fd5b5080356001600160a01b0316906020013561ffff16612346565b6104a460048036036040811015610b5557600080fd5b508035906020013561ffff1661237f565b6104cc6123a3565b61057c6123c7565b610a746123d6565b6104a460048036036080811015610b9457600080fd5b6001600160a01b038235811692602081013592604082013590921691810190608081016060820135600160201b811115610bcd57600080fd5b820183602082011115610bdf57600080fd5b803590602001918460018302840111600160201b83111715610c0057600080fd5b5090925090506123e7565b610c3760048036036040811015610c2157600080fd5b506001600160a01b03813516906020013561247d565b6040805161ffff938416815291909216602082015281519081900390910190f35b6104cc6124cc565b6104cc60048036036020811015610c7657600080fd5b50356001600160a01b03166124f0565b6104a460048036036020811015610c9c57600080fd5b5035151561250e565b61057c60048036036020811015610cbb57600080fd5b50356001600160a01b0316612614565b6104a460048036036080811015610ce157600080fd5b506001600160a01b0381358116916020810135916040820135169060600135612658565b6104a460048036036020811015610d1b57600080fd5b5035151561281f565b6104cc6129fe565b6104cc612a04565b6104e660048036036020811015610d4a57600080fd5b50356001600160a01b0316612a0a565b61057c612a61565b6104a460048036036020811015610d7857600080fd5b50356001600160a01b0316612a70565b61057c60048036036020811015610d9e57600080fd5b50356001600160a01b0316612b3b565b6104a460048036036040811015610dc457600080fd5b508035906020013561ffff16612b56565b6104a460048036036020811015610deb57600080fd5b50356001600160a01b0316612dc3565b610a7460048036036020811015610e1157600080fd5b50356001600160a01b0316612dea565b6104cc612e24565b6104cc60048036036020811015610e3f57600080fd5b5035612e48565b6104e6612e6a565b6104cc60048036036020811015610e6457600080fd5b50356001600160a01b0316612e8e565b6104a460048036036060811015610e8a57600080fd5b508035906020810135906040013561ffff16612eac565b6104a460048036036060811015610eb757600080fd5b5080356001600160a01b0316906020810135906040013561ffff166130d5565b61057c6130e6565b610a746130f5565b6104a460048036036020811015610efd57600080fd5b50356001600160a01b0316613119565b61053b60048036036020811015610f2357600080fd5b50356133e3565b610f3261341d565b6040805160ff9092168252519081900360200190f35b6104a460048036036020811015610f5e57600080fd5b50356001600160a01b031661342d565b6104cc60048036036040811015610f8457600080fd5b506001600160a01b0381351690602001356134f5565b6104a460048036036020811015610fb057600080fd5b503561ffff16613530565b6104cc60048036036020811015610fd157600080fd5b503561ffff166135c8565b6104a460048036036020811015610ff257600080fd5b50356135da565b6104a46004803603602081101561100f57600080fd5b50356001600160a01b0316613667565b6104cc613681565b61057c6136a5565b61057c6004803603602081101561104557600080fd5b50356136c9565b6104a46004803603602081101561106257600080fd5b50356136f0565b61107233612dea565b1561107c57600080fd5b336000908152600660205260408120600481015490918315916110a49163ffffffff61381a16565b151514156110b25750611107565b60048101546110c890600063ffffffff61382716565b6004820155604080518315158152905133917fcb9d7989e6d845ab7f3f16f57405fb85976d320aa7c3ba2705eddd52ca09154e919081900360200190a2505b50565b6001600160a01b0381166000908152600660205260409020600b01545b919050565b60007f000000000000000000000000000000000000000000000000000000000000000063ffffffff16428161115d57fe5b04905090565b60055461ffff1681565b3360009081526006602052604090205461118657600080fd5b3360009081526006602052604081209060016111a061112c565b6001840154919003915061ffff8083166201000090920416118015906111d35750600182015462010000900461ffff1615155b156111fc57600182018054600160201b61ffff620100008304160261ffff60201b199091161790555b61120533613834565b5050565b6001600160a01b031660009081526006602052604090205490565b7f000000000000000000000000000000000000000000000000000000000000000081565b600e55565b600d546001600160a01b031681565b600454600160801b90046001600160801b031681565b7f000000000000000000000000000000000000000000000000000000000000000081565b601e81565b336000908152600660205260409020546112b457600080fd5b60006112be61112c565b3360009081526006602052604081209192506001830191906112f46112e4838686613a19565b6112ef848788613a19565b613aae565b8254909150611309908263ffffffff613ac516565b85111561131557600080fd5b8154859003825561132a826000879003613ada565b6113646001600160a01b037f000000000000000000000000000000000000000000000000000000000000000016338763ffffffff613b4216565b60408051868152905133917f7084f5476618d8e60b11ef0d7d3f06914655adb8793e28ff7f018d4c76d505d5919081900360200190a25050505050565b6004546001600160801b031681565b6113b86123d6565b6113c157600080fd5b600c546001600160a01b0316156113d757600080fd5b306001600160a01b0316816001600160a01b031663e2fdcc176040518163ffffffff1660e01b815260040160206040518083038186803b15801561141a57600080fd5b505afa15801561142e573d6000803e3d6000fd5b505050506040513d602081101561144457600080fd5b50516001600160a01b03161461145957600080fd5b600c80546001600160a01b0319166001600160a01b0392909216919091179055565b7f000000000000000000000000000000000000000000000000000000000000000081565b7f000000000000000000000000000000000000000000000000000000000000000081565b6114cb6123d6565b6114d457600080fd5b600d546001600160a01b0316158061150957507f00000000000000000000000000000000000000000000000000000000000000005b61151257600080fd5b306001600160a01b0316816001600160a01b031663e2fdcc176040518163ffffffff1660e01b815260040160206040518083038186803b15801561155557600080fd5b505afa158015611569573d6000803e3d6000fd5b505050506040513d602081101561157f57600080fd5b50516001600160a01b03161461159457600080fd5b600d80546001600160a01b0319166001600160a01b0392909216919091179055565b7f000000000000000000000000000000000000000000000000000000000000000081565b60055461ffff166115ea57600080fd5b336000908152600860209081526040808320546001600160a01b03168084526006909252909120805461164e5760405162461bcd60e51b815260040180806020018281038252602d8152602001806159bb602d913960400191505060405180910390fd5b33321461168c5760405162461bcd60e51b8152600401808060200182810382526033815260200180615a5f6033913960400191505060405180910390fd5b600061169783612a0a565b90506116a283613834565b60006116ac61112c565b60018481015491925082019061ffff808316620100009092041614156116d657505050505061186a565b60006116e3858484613a19565b9050600081116116f257600080fd5b61ffff82811660008181526009602052604090208054840190556001870180546201000080820490941661ffff199091161763ffff000019169290910291909117905561173f8583613bd7565b8261ffff168461ffff1610156117af576040805180820190915261ffff6001808701821683528582166020808501918252600a8a0180549384018155600090815220935193909101805491518316620100000263ffff0000199490931661ffff1990921691909117929092161790555b600b546040805163b438c4cd60e01b81526001600160a01b03898116600483015261ffff861660248301529151919092169163b438c4cd91604480830192600092919082900301818387803b15801561180757600080fd5b505af115801561181b573d6000803e3d6000fd5b505060408051848152905161ffff861693506001600160a01b038a1692507f6e826cfd4b2f0d3e70085110ff45fc6023aaa1ef2cd87f58f574aee310489ebc9181900360200190a35050505050505b565b6001600160a01b03821660009081526006602052604081205b600a8101548210156118d15780600a0182815481106118a057fe5b60009182526020909120015461ffff620100009091048116908416116118c657506118d3565b600190910190611885565b505b92915050565b6000606060008561ffff16116118ee57600080fd5b6007548085106118fd57600080fd5b831580159061190d575080848601105b1561191757508383015b84810367ffffffffffffffff8111801561193057600080fd5b5060405190808252806020026020018201604052801561196a57816020015b611957615881565b81526020019060019003908161194f5790505b50600093509150828061197b61112c565b9050600061199361ffff83168a63ffffffff613ca416565b9050875b84811015611a91576000600782815481106119ae57fe5b60009182526020808320909101546001600160a01b03168083526006909152604090912060018101549192509061ffff90811690861614801590611a035750600181015461ffff868116620100009092041614155b15611a0f575050611a89565b6000611a1c828787613a19565b90508015611a8557826001600160a01b0316898881518110611a3a57fe5b6020026020010151600060028110611a4e57fe5b60200201528851600188019782918b91908110611a6757fe5b6020026020010151600160028110611a7b57fe5b6020020152988901985b5050505b600101611997565b5082855250505050935093915050565b600d546000906001600160a01b03163314611abb57600080fd5b6001600160a01b0383166000908152600660205260409020600481015483151590611aed90600263ffffffff61381a16565b15151415611b00576002015490506118d3565b6004810154611b1690600263ffffffff61382716565b600482015560408051841515815290516001600160a01b038616917fdc3bbcef212790ff00528dc9ef9c9b7638f290efd77f50f50c067bb14d7f9c11919081900360200190a2600201549392505050565b6002546001600160a01b031681565b6001600160a01b0382166000908152600660205260408120600b8101805483919085908110611ba157fe5b9060005260206000200190506000611bc083611bbb61112c565b613cba565b9050611bcc8282613d04565b9695505050505050565b60066020819052600091825260409091208054600182015460028301546003840154600485015460058601549686015460078701546008880154600990980154969861ffff8088169962010000808a0483169a600160201b8b0484169a600160301b900484169998938416976001600160a01b03929094049190911695929491908e565b6001600160a01b0382166000908152600660205260408120600b018054829182918291829187908110611c8957fe5b60009182526020909120015461ffff8082169962010000830482169950600160201b83049091169750600160301b9091046001600160801b031695509350505050565b600c546001600160a01b031681565b6001600160a01b038216600090815260066020526040812081611cfc61112c565b90506000611d1461ffff83168663ffffffff613d5616565b9050611bcc838383613a19565b6004546001600160801b03600160801b90910481167f0000000000000000000000000000000000000000000000000000000000000000031690565b828715801590611d6b57508786145b8015611d775750878110155b8015611d8257508181145b611d8b57600080fd5b60006001611d9761112c565b03905060028101600080805b8c8110156121845760008e8e83818110611db957fe5b905060200201356001600160a01b0316905060008d8d84818110611dd957fe5b60200291909101359150508381018115801590611df65750808910155b611dff57600080fd5b6001600160a01b0383166000908152600660205260409020600b81015415611e2657600080fd5b6001600160a01b038481166000908152600860205260409020541615611e7d5760405162461bcd60e51b815260040180806020018281038252602d815260200180615b0c602d913960400191505060405180910390fd5b6007805460018101825560009182527fa66cc928b5edb82af9bd49922954155ab7b0942694bea4ce44661d9a8736c6880180546001600160a01b0319166001600160a01b03878116918217909255600b54604080516372be8d8d60e01b8152600481019390935261ffff8e166024840152519216926372be8d8d9260448084019382900301818387803b158015611f1357600080fd5b505af1158015611f27573d6000803e3d6000fd5b505050505b818610156121305760008e8e88818110611f4257fe5b90506020020135905060008d8d89818110611f5957fe5b9050602002013561ffff1690507f00000000000000000000000000000000000000000000000000000000000000008210158015611fbe57507f000000000000000000000000000000000000000000000000000000000000000061ffff168161ffff1610155b611fc757600080fd5b8254611fd9908363ffffffff613d6a16565b83556040805160808101825261ffff808d168252600060208084018281528684169585019586526001600160801b0380891660608701908152600b8b018054600181018255908652939094209551959092018054915196519351909216600160301b02600160301b600160b01b0319938516600160201b0261ffff60201b19978616620100000263ffff0000199790961661ffff19909316929092179590951693909317949094169190911716179055612099898363ffffffff613d6a16565b6040805184815261ffff841660208201528151929b506001600160a01b038916927feef72c2775e4e59d04b76fe99649c70b0101dbc951ce46a5a6262a6cbc138e90929181900390910190a26040805183815261ffff808d16602083015283168183015290516001600160a01b03881691600080516020615a3f833981519152919081900360600190a25050600190950194611f2c565b80547f0000000000000000000000000000000000000000000000000000000000000000101561215e57600080fd5b805461217490600c83019063ffffffff613d7c16565b505060019092019150611da39050565b5084811461219157600080fd5b600061219d600a613d87565b6001600160601b031690506121bb600a84830163ffffffff613d7c16565b6121f66001600160a01b037f00000000000000000000000000000000000000000000000000000000000000001633308663ffffffff613d9b16565b5050505050505050505050505050565b7f000000000000000000000000000000000000000000000000000000000000000081565b600190565b6122376123d6565b61224057600080fd5b600080546040516001600160a01b03909116907f8be0079c531659141344cd1fd0a4f28419497f9722a3daafe3b4186f6b6457e0908390a3600080546001600160a01b0319169055565b7f000000000000000000000000000000000000000000000000000000000000000081565b6001600160a01b03811660009081526006602052604081206004810154829182918291906122e390600163ffffffff61381a16565b60048201549095506122fc90600063ffffffff61381a16565b60048201549015945061231690600263ffffffff61381a16565b600482015490935061232f90600363ffffffff61381a16565b159150509193509193565b61120533338484613e31565b6001600160a01b03821660009081526006602052604081208161236761112c565b90506000611d1461ffff83168663ffffffff613ca416565b3360009081526006602052604090205461239857600080fd5b611205338383614053565b7f000000000000000000000000000000000000000000000000000000000000000081565b6000546001600160a01b031690565b6000546001600160a01b0316331490565b7f00000000000000000000000000000000000000000000000000000000000000006001600160a01b0316836001600160a01b03161480156124505750336001600160a01b037f000000000000000000000000000000000000000000000000000000000000000016145b61245957600080fd5b60843560a43560086020839003021c61247487808884613e31565b50505050505050565b6001600160a01b0382166000908152600660205260408120600a01805482918291859081106124a857fe5b60009182526020909120015461ffff80821697620100009092041695509350505050565b7f000000000000000000000000000000000000000000000000000000000000000081565b6001600160a01b03166000908152600660205260409020600a015490565b336000908152600660205260409020600481015482159061253690600363ffffffff61381a16565b151514156125445750611107565b6000612550600a613d87565b6001600160601b03169050821561259257815461257790600c84019063ffffffff613d7c16565b815461258d90600a90830163ffffffff613d7c16565b6125bc565b6125a6600c8301600063ffffffff613d7c16565b81546125bc90600a90830363ffffffff613d7c16565b60048201546125d290600363ffffffff61382716565b6004830155604080518415158152905133917f99113baa33c79a0d2753e314c495bcb33035f538edc07d4058823f431514cdae919081900360200190a2505050565b6001600160a01b0381166000908152600660205260408120600b81015461263f576000915050611127565b600301546201000090046001600160a01b031692915050565b60055461ffff1661266857600080fd5b600c546001600160a01b0316331461267f57600080fd5b6000831161268c57600080fd5b6001600160a01b0384166000908152600660205260409020805484106126b157805493505b80548490038155838211156126c4578391505b60006126ce61112c565b90506001810160006126e08484613cba565b90506000806000806126f488888888614226565b8b54939750919550935091508483019081111561271e5761271e898a6000015483038a89866143c4565b831561275d5788548311612733576000612738565b885483035b838501039050808960000154101561275d57885461275d908a9083038989601e6143c4565b8a6001600160a01b03168d6001600160a01b03167f34040fa1c0549c8572589c39cb87ff7638286467446a4790971d58d931c654bb8e8d604051808381526020018281526020019250505060405180910390a3898c11156127c3576127c38a8d036145a2565b8915612803576128036001600160a01b037f0000000000000000000000000000000000000000000000000000000000000000168c8c63ffffffff613b4216565b612810898d600003613ada565b50505050505050505050505050565b3360009081526006602052604090205461283857600080fd5b33600090815260066020526040902060048101548215159061286190600163ffffffff61381a16565b1515141561286f5750611107565b600481015461288590600163ffffffff61382716565b6004820155600061289461112c565b6040805185151581529051919250600183019133917f8e551784567ec4bbce5943250eaacd5afe82aef7a9b1dab3f899881f4eae93f0919081900360200190a2600183015461ffff8281166201000090920416146128f457505050611107565b60005b600b8401548110156129f757600084600b01828154811061291457fe5b9060005260206000200190508515801561293b5750805461ffff8481166201000090920416145b1561295857805465ffffffff00001916600160201b1790556129ef565b805462010000900461ffff1615158061297b57508054600160201b900461ffff16155b1561298657506129ef565b856129a0578054600160201b900461ffff166001016129b2565b8054600160201b900461ffff16600019015b815461ffff60201b1916600160201b61ffff92831681029190911780845504166129ed57805463ffff000019166201000061ffff8516021781555b505b6001016128f7565b5050505050565b60075490565b600e5481565b6001600160a01b0381166000908152600660205260408120600181015462010000900461ffff16612a4a576001810154600160201b900461ffff16612a5a565b600181015462010000900461ffff165b9392505050565b600b546001600160a01b031681565b612a786123d6565b612a8157600080fd5b600b546001600160a01b031615612a9757600080fd5b306001600160a01b0316816001600160a01b031663e2fdcc176040518163ffffffff1660e01b815260040160206040518083038186803b158015612ada57600080fd5b505afa158015612aee573d6000803e3d6000fd5b505050506040513d6020811015612b0457600080fd5b50516001600160a01b031614612b1957600080fd5b600b80546001600160a01b0319166001600160a01b0392909216919091179055565b6008602052600090815260409020546001600160a01b031681565b33600090815260066020526040902054612b6f57600080fd5b33600090815260066020526040902061ffff8216612bcb576040805162461bcd60e51b8152602060048201526014602482015273496e636f727265637420706172616d657465727360601b604482015290519081900360640190fd5b600081600b018481548110612bdc57fe5b9060005260206000200190506000612bf261112c565b90506000612c008483613cba565b90506000612c0e8483613d04565b90508261ffff168161ffff1611612c565760405162461bcd60e51b81526004018080602001828103825260358152602001806159e86035913960400191505060405180910390fd5b8354612c6d90600160201b900461ffff1687613ca4565b845461ffff60201b1916600160201b61ffff928316021785558281169082161415612c9e57835463ffff0000191684555b7f000000000000000000000000000000000000000000000000000000000000000061ffff168661ffff1684830361ffff160163ffffffff161015612d135760405162461bcd60e51b815260040180806020018281038252603e815260200180615ace603e913960400191505060405180910390fd5b8354604080516001600160801b03600160301b90930492909216825261ffff6001840181166020840152881682820152513391600080516020615a3f833981519152919081900360600190a28354604080516001600160801b03600160301b90930492909216825261ffff80841660208401528816828201525133917f4a8002cb7d215ff46c882055a756942e088f67744d92308f58cd701109e9273b919081900360600190a250505050505050565b612dcc816145e0565b600e54612de08263a3324be960e01b614b11565b1461110757600080fd5b6001600160a01b038116600090815260066020526040812060010154600160301b900461ffff16612e1961112c565b61ffff161092915050565b7f000000000000000000000000000000000000000000000000000000000000000081565b6000612e5b600a8363ffffffff614b2a16565b6001600160601b031692915050565b7f000000000000000000000000000000000000000000000000000000000000000081565b6001600160a01b031660009081526006602052604090206002015490565b33600090815260066020526040902054612ec557600080fd5b3360009081526006602052604090207f00000000000000000000000000000000000000000000000000000000000000008310801590612f08575060008261ffff16115b612f1157600080fd5b600081600b018581548110612f2257fe5b9060005260206000200190506000612f3861112c565b90506000612f468483613cba565b90506000612f548483613d04565b90508261ffff168161ffff1611612f9c5760405162461bcd60e51b81526004018080602001828103825260358152602001806159e86035913960400191505060405180910390fd5b8354600160301b90046001600160801b0316612fb88189613ac5565b8554600160301b600160b01b031916600160301b6001600160801b039283168102919091178088557f0000000000000000000000000000000000000000000000000000000000000000919004909116101561301257600080fd5b845460009061302c90600160201b900461ffff1689613ca4565b865490915061304490889061ffff166000848d614c93565b6040805183815261ffff80861660208301528183018c90528a166060820152905133917f3a1fb040a51f7112d001cd86cbb247fc8b9694d0ad1c5d3583b76cd7a9c43f75919081900360800190a28554604080518b815261ffff928316602082015291831682820152513391600080516020615a3f833981519152919081900360600190a250505050505050505050565b6130e183338484613e31565b505050565b6001546001600160a01b031681565b7f000000000000000000000000000000000000000000000000000000000000000081565b3360009081526006602052604090205461313257600080fd5b33600090815260066020526040902060038101546001600160a01b03838116620100009092041614156131965760405162461bcd60e51b8152600401808060200182810382526033815260200180615b396033913960400191505060405180910390fd5b60006131a061112c565b60038301549091506201000090046001600160a01b03161561326c5760038201546131f59061ffff167f000000000000000000000000000000000000000000000000000000000000000063ffffffff613ca416565b61ffff168161ffff16101561323b5760405162461bcd60e51b815260040180806020018281038252603c815260200180615a92603c913960400191505060405180910390fd5b60038201546201000090046001600160a01b0316600090815260086020526040902080546001600160a01b03191690555b6001600160a01b0383161561337c576001600160a01b0383811660009081526008602052604090205416156132d25760405162461bcd60e51b8152600401808060200182810382526022815260200180615a1d6022913960400191505060405180910390fd5b6001600160a01b0383166000908152600660205260409020600b0154158061330257506001600160a01b03831633145b613353576040805162461bcd60e51b815260206004820152601c60248201527f53706563696669656420776f726b65722069732061207374616b657200000000604482015290519081900360640190fd5b6001600160a01b038316600090815260086020526040902080546001600160a01b031916331790555b60038201805461ffff831661ffff196001600160a01b03871662010000810262010000600160b01b03199094169390931716811790925560405133907ff8090974dcc1dfc27f6b0617a0938ed403577a94639791db59cdcc9b52b8ea1f90600090a4505050565b600a81815481106133f057fe5b9060005260206000209060029182820401919006601002915054906101000a90046001600160801b031681565b600254600160a01b900460ff1681565b60028054600160a01b900460ff161461344557600080fd5b6000819050806001600160a01b031663a3324be96040518163ffffffff1660e01b815260040160206040518083038186803b15801561348357600080fd5b505afa158015613497573d6000803e3d6000fd5b505050506040513d60208110156134ad57600080fd5b5051600e556040805133815290516001600160a01b038416917fd55ec27c5c6316913ed8803c18cfd1bfefea953db909dcba6140744a9d8b0d1f919081900360200190a25050565b6001600160a01b038216600090815260066020526040812061352090600c018363ffffffff614b2a16565b6001600160601b03169392505050565b61353933612dea565b158015613554575061354961112c565b61ffff168161ffff16115b61355d57600080fd5b33600081815260066020908152604091829020600101805467ffff0000000000001916600160301b61ffff871690810291909117909155825190815291517f290a5b657c05aec4c02fb52b21644f6470bb4c6d37831f2295c247452a2074899281900390910190a250565b60096020526000908152604090205481565b60055461ffff166135ea57600080fd5b6136256001600160a01b037f00000000000000000000000000000000000000000000000000000000000000001633308463ffffffff613d9b16565b61362e816145a2565b60408051828152905133917f2a01595cddf097c90216094025db714da3f4e5bd8877b56ba86a24ecead8e543919081900360200190a250565b61366f6123d6565b61367857600080fd5b61110781614e6a565b7f000000000000000000000000000000000000000000000000000000000000000081565b7f000000000000000000000000000000000000000000000000000000000000000081565b600781815481106136d657fe5b6000918252602090912001546001600160a01b0316905081565b6136f86123d6565b61370157600080fd5b60055461ffff161561371257600080fd5b807f0000000000000000000000000000000000000000000000000000000000000000111561373f57600080fd5b61374761112c565b6005805461ffff191661ffff9290921691909117905560048054600160801b6001600160801b039182167f000000000000000000000000000000000000000000000000000000000000000085900383168202179081049091166001600160801b03199091161790556137e47f00000000000000000000000000000000000000000000000000000000000000006001600160a01b0316333084613d9b565b6040805182815290517fbe9b076dc5b65990cca9dd9d7366682482e7817a6f6bc7f4faf4dc32af497f329181900360200190a150565b60ff161c60019081161490565b600160ff919091161b1890565b600061383e61112c565b6001600160a01b0383166000908152600660205260409020600181015491925060001983019162010000900461ffff16158061389b5750600181015461ffff1615801561389b5750600181015461ffff8084166201000090920416115b806138b05750600181015461ffff8084169116115b156138bd57505050611107565b60006138c98285613cba565b600483015490915060009081906138e6908263ffffffff61381a16565b60018501549015915061ffff161561394a576001840154613911908890869061ffff16898786614ed8565b60018501805461ffff191690559150801561394a57600184015462010000900461ffff1660009081526009602052604090208054830190555b600184015461ffff8087166201000090920416116139965761398287858660010160029054906101000a900461ffff16898786614ed8565b60018501805463ffff000019169055909101905b83548201845560048401546139b290600263ffffffff61381a16565b156139c257600284018054830190555b6139cc8483613ada565b60408051838152905161ffff8716916001600160a01b038a16917f262ab020cb638b76c90ba54ebb8ec0a4ff4412b8d6777f1edc4c23d6644a88cd9181900360200190a350505050505050565b600080613a268585613cba565b905060005b600b860154811015613aa557600086600b018281548110613a4857fe5b6000918252602090912001805490915061ffff808716911611801590613a7f57508461ffff16613a788285613d04565b61ffff1610155b15613a9c578054600160301b90046001600160801b031693909301925b50600101613a2b565b50509392505050565b600081831015613abe5781612a5a565b5090919050565b600082821115613ad457600080fd5b50900390565b6004820154613af090600363ffffffff61381a16565b611205578154613b0a90600c84019063ffffffff613d7c16565b6000613b16600a613d87565b6001600160601b031690506130e1613b34828463ffffffff61503c16565b600a9063ffffffff613d7c16565b826001600160a01b031663a9059cbb83836040518363ffffffff1660e01b815260040180836001600160a01b03166001600160a01b0316815260200182815260200192505050602060405180830381600087803b158015613ba257600080fd5b505af1158015613bb6573d6000803e3d6000fd5b505050506040513d6020811015613bcc57600080fd5b50516130e157600080fd5b6004820154613bed90600163ffffffff61381a16565b613bf657611205565b60005b600b8301548110156130e157600083600b018281548110613c1657fe5b6000918252602090912001805490915062010000900461ffff16151580613c4757508054600160201b900461ffff16155b15613c525750613c9c565b805460001961ffff600160201b8084048216929092018116820261ffff60201b19909316929092178084550416613c9a57805463ffff000019166201000061ffff8516021781555b505b600101613bf9565b600082820161ffff8085169082161015612a5a57fe5b6004820154600090613cd390600163ffffffff61381a16565b8015613cef5750600183015461ffff8084166201000090920416115b15613cfe5750600181016118d3565b50919050565b815460009062010000900461ffff1615613d2a5750815462010000900461ffff166118d3565b8254600160201b900461ffff908116838216019063ffffffff82161115612a5a5761ffff9150506118d3565b60008261ffff168261ffff161115613ad457fe5b600082820183811015612a5a57600080fd5b611205824383615070565b600080613d9383615167565b949350505050565b604080516323b872dd60e01b81526001600160a01b0385811660048301528481166024830152604482018490529151918616916323b872dd916064808201926020929091908290030181600087803b158015613df657600080fd5b505af1158015613e0a573d6000803e3d6000fd5b505050506040513d6020811015613e2057600080fd5b5051613e2b57600080fd5b50505050565b81613e3b57600080fd5b6001600160a01b0380851660009081526006602090815260408083206008909252909120549091161580613e95575060038101546001600160a01b0386811660009081526008602052604090205481166201000090920416145b613ed05760405162461bcd60e51b815260040180806020018281038252602d815260200180615b0c602d913960400191505060405180910390fd5b600b810154613fb05760078054600180820183556000929092527fa66cc928b5edb82af9bd49922954155ab7b0942694bea4ce44661d9a8736c6880180546001600160a01b0319166001600160a01b0388811691909117909155600b5416906372be8d8d908790613f3f61112c565b036040518363ffffffff1660e01b815260040180836001600160a01b03166001600160a01b031681526020018261ffff1661ffff16815260200192505050600060405180830381600087803b158015613f9757600080fd5b505af1158015613fab573d6000803e3d6000fd5b505050505b613feb6001600160a01b037f00000000000000000000000000000000000000000000000000000000000000001685308663ffffffff613d9b16565b805483018155613ffc858484614053565b6140068184613ada565b6040805184815261ffff8416602082015281516001600160a01b038816927feef72c2775e4e59d04b76fe99649c70b0101dbc951ce46a5a6262a6cbc138e90928290030190a25050505050565b7f000000000000000000000000000000000000000000000000000000000000000082101580156140ab57507f000000000000000000000000000000000000000000000000000000000000000061ffff168161ffff1610155b6140b457600080fd5b60006140be61112c565b6001600160a01b03851660009081526006602052604081209192506001830191906140ea828585613a19565b905060006140fe878363ffffffff613d6a16565b8354909150811180159061413257507f00000000000000000000000000000000000000000000000000000000000000008111155b61413b57600080fd5b6001830154869061ffff868116620100009092041614156141cf57600484015461416c90600163ffffffff61381a16565b1561417657600019015b61ffff851660008181526009602090815260409182902080548c01905581518b815291516001600160a01b038d16927f6e826cfd4b2f0d3e70085110ff45fc6023aaa1ef2cd87f58f574aee310489ebc92908290030190a35b6141dd84866000848c614c93565b6040805189815261ffff808816602083015289168183015290516001600160a01b038b1691600080516020615a3f833981519152919081900360600190a2505050505050505050565b60008080601e61ffff80835b600b8b01548110156143b65760008b600b01828154811061424f57fe5b9060005260206000200190506000614267828b613d04565b825490915061ffff90811690821610156142825750506143ae565b815461ffff808e169116118015906142a257508a61ffff168161ffff1610155b156142c3578154600160301b90046001600160801b03169690960195614341565b815461ffff808e169116118015906142e357508b61ffff168161ffff1610155b15614304578154600160301b90046001600160801b03169890980197614341565b815461ffff808d1691161180159061432457508a61ffff168161ffff1610155b15614341578154600160301b90046001600160801b031697909701965b815461ffff908116808303918e161080159061436557508c61ffff168261ffff1610155b801561439b57508461ffff168261ffff16108061439b57508461ffff168261ffff1614801561439b57508561ffff168161ffff16105b156143aa578396508095508194505b5050505b600101614232565b505050945094509450949050565b600085600b016000815481106143d657fe5b6000918252602090912001905061ffff805b861561459857601e8410156144325787600b01848154811061440657fe5b90600052602060002001925061441c8386613d04565b8354601e955090925061ffff1682039050614446565b61443d88878761519e565b91945090925090505b61ffff818116141561445757614598565b82548790600160301b90046001600160801b03168110156144ba5783546001600160801b03600160301b80830482168b900390911602600160301b600160b01b0319909116178085556144b1908a9061ffff168a8a615275565b600097506144ec565b50825463ffff0000191662010000600019880161ffff160217808455600160301b90046001600160801b031696879003965b600189015461ffff8089169116108015906145125750600189015461ffff808516911611155b1561453657600189015461ffff166000908152600960205260409020805482900390555b600189015461ffff8089166201000090920416108015906145685750600189015461ffff808516620100009092041611155b1561459257600189015462010000900461ffff166000908152600960205260409020805482900390555b506143e8565b5050505050505050565b600480546001600160801b031981166001600160801b03918216849003821617808216600160801b9182900483169490940390911602919091179055565b6145e981615421565b600b546001600160a01b03166146068263ab3dbf3b60e01b614b11565b6001600160a01b03161461461957600080fd5b600c546001600160a01b0316614636826329e176c760e11b614b11565b6001600160a01b03161461464957600080fd5b600d546001600160a01b031661466682630e3fea9960e11b614b11565b6001600160a01b03161461467957600080fd5b600080805260096020527fec8156718a8372b1db44bb411437d0870f3e3790d4a08526d024ce1b0b668f6b54906146ba9083906377caf05d60e11b906154b7565b146146c457600080fd5b600080805260086020527f5eff886ea0ce6ca488a3d6e336d6c0f75f46d19b42c06ce5ee98e42c96d256c7546001600160a01b03169061470e90839063597759b760e11b906154b7565b6001600160a01b03161461472157600080fd5b60075461473482629fabeb60e81b614b11565b1461473e57600080fd5b60075461474a57611107565b6000600760008154811061475a57fe5b60009182526020822001546001600160a01b03169150819061478690849063fd5e6dd160e01b906154b7565b6001600160a01b03161461479957600080fd5b6001600160a01b0381166000818152600660205260409020906147ba61589f565b6147c485836154d2565b835481519192501480156147e757506001830154602082015161ffff9081169116145b801561480857506001830154604082015161ffff9081166201000090920416145b801561481c57508260040154816101000151145b801561483e57506001830154608082015161ffff908116600160301b90920416145b801561486057506001830154606082015161ffff908116600160201b90920416145b8015614873575082600201548160a00151145b80156148995750600383015460e08201516001600160a01b039081166201000090920416145b80156148b45750600383015460c082015161ffff9081169116145b6148bd57600080fd5b600a8301546148d4866390dcb51f60e01b856154b7565b146148de57600080fd5b60005b600a840154811080156148f45750600581105b1561496a57600084600a01828154811061490a57fe5b90600052602060002001905061491e615940565b6149298886856154f1565b8254815191925061ffff918216911614801561495757508154602082015161ffff9081166201000090920416145b61496057600080fd5b50506001016148e1565b50600b830154614982866304bcafe560e01b856154b7565b1461498c57600080fd5b60005b600b840154811080156149a25750600581105b15614a5b57600084600b0182815481106149b857fe5b9060005260206000200190506149cc615957565b6149d7888685615519565b8254815191925061ffff9182169116148015614a0557508154602082015161ffff9081166201000090920416145b8015614a2457508154604082015161ffff908116600160201b90920416145b8015614a485750815460608201516001600160801b03908116600160301b90920416145b614a5157600080fd5b505060010161498f565b50614a6684436134f5565b614a798663ede3842160e01b8543615538565b14614a8357600080fd5b614a8c43612e48565b614a9e866364e2991960e11b436154b7565b14614aa857600080fd5b60038301546201000090046001600160a01b0316156129f75760038301546001600160a01b0362010000909104811660008181526008602052604090205490911690614afe90879063597759b760e11b906154b7565b6001600160a01b0316146129f757600080fd5b600080614b218484838080615554565b51949350505050565b8154600090829080614b41576000925050506118d3565b6000600182039050600080614b8c886001860381548110614b5e57fe5b90600052602060002090600291828204019190066010029054906101000a90046001600160801b03166155a4565b915091508163ffffffff168563ffffffff1610614baf5794506118d39350505050565b614bbf88600081548110614b5e57fe5b90925090506001841480614bde57508163ffffffff168563ffffffff16105b15614bf1576000955050505050506118d3565b6000600019840181805b83831115614c735760006002600185870101049050614c1f8d8281548110614b5e57fe5b909350915063ffffffff808416908b161115614c3d57809450614c6d565b8263ffffffff168a63ffffffff161015614c5c57600181039350614c6d565b5098506118d3975050505050505050565b50614bfb565b614c828c8581548110614b5e57fe5b9d9c50505050505050505050505050565b60005b600b860154811015614da157600086600b018281548110614cb357fe5b6000918252602090912001805490915062010000900461ffff1615801590614cff5750600187015461ffff161580614cff57506001870154815461ffff91821662010000909104909116105b8015614d375750600187015462010000900461ffff161580614d3757506001870154815461ffff620100009283900481169290910416105b15614d9857805461ffff191661ffff8781169190911763ffff0000191662010000878316021761ffff60201b1916600160201b9186169190910217600160301b600160b01b031916600160301b6001600160801b03851602179055506129f7565b50600101614c96565b50600b850154601e11614db357600080fd5b6040805160808101825261ffff808716825285811660208084019182528683169484019485526001600160801b0380871660608601908152600b8c01805460018101825560009182529390209551959092018054935196519251909116600160301b02600160301b600160b01b0319928516600160201b0261ffff60201b19978616620100000263ffff0000199790961661ffff199095169490941795909516939093179490941617929092161790555050505050565b6001600160a01b038116614e7d57600080fd5b600080546040516001600160a01b03808516939216917f8be0079c531659141344cd1fd0a4f28419497f9722a3daafe3b4186f6b6457e091a3600080546001600160a01b0319166001600160a01b0392909216919091179055565b6000805b600b870154811015614fc157600087600b018281548110614ef957fe5b9060005260206000200190506000614f118287613d04565b825490915061ffff808a16911611801590614f3457508761ffff168161ffff1610155b15614fb757815461ffff8981166000908152600960205260408120549092614f7c928b92600160301b9092046001600160801b03169190614f779087168e613d56565b6155b2565b9485019490508515614fb55782546001600160801b03600160301b8083048216840190911602600160301b600160b01b03199091161783555b505b5050600101614edc565b50600b5460408051633ea2391f60e01b81526001600160a01b038a8116600483015261ffff8916602483015291519190921691633ea2391f91604480830192600092919082900301818387803b15801561501a57600080fd5b505af115801561502e573d6000803e3d6000fd5b505050509695505050505050565b600080821261505c57615055838363ffffffff613d6a16565b90506118d3565b61505583600084900363ffffffff613ac516565b8254801561511757600061508c856001840381548110614b5e57fe5b5090508063ffffffff168463ffffffff1614156150fc576150ad84846157f4565b8560018403815481106150bc57fe5b90600052602060002090600291828204019190066010026101000a8154816001600160801b0302191690836001600160801b0316021790555050506130e1565b8063ffffffff168463ffffffff16101561511557600080fd5b505b8361512284846157f4565b81546001818101845560009384526020909320600282040180546001600160801b03938416601093909516929092026101000a93840292909302191617905550505050565b80546000908190801561519057615186846001830381548110614b5e57fe5b9250925050615199565b50600091508190505b915091565b600061ffff80825b600b87015481101561526b57600087600b0182815481106151c357fe5b90600052602060002001905060006151db8288613d04565b825490915061ffff90811690821610156151f6575050615263565b815461ffff908116808303918a161080159061521a57508861ffff168261ffff1610155b801561525057508461ffff168261ffff16108061525057508461ffff168261ffff1614801561525057508561ffff168161ffff16105b1561525f578296508095508194505b5050505b6001016151a6565b5093509350939050565b600184015460009061ffff16158015906152995750600185015461ffff8084169116105b600186015490915060009062010000900461ffff16158015906152cc5750600186015461ffff8085166201000090920416105b905060008280156152e85750600187015461ffff808816911610155b9050600082801561530a5750600188015461ffff808916620100009092041610155b905081158015615318575080155b156153265750505050613e2b565b600019850160005b600b8a01548110156154075760008a600b01828154811061534b57fe5b6000918252602090912001805490915061ffff84811662010000909204161480156153c1575086801561538b5750805460018c015461ffff918216911610155b15158515151480156153c157508580156153ba5750805460018c015461ffff9182166201000090910490911610155b1515841515145b156153fe5780546001600160801b03600160301b80830482168c0190911602600160301b600160b01b031990911617905550613e2b945050505050565b5060010161532e565b5061541689898360008b614c93565b505050505050505050565b61542a81615810565b60055461ffff16615442826303d92ac560e21b614b11565b61ffff161461545057600080fd5b6004546001600160801b031661546d82633250843d60e01b614b11565b6001600160801b03161461548057600080fd5b600454600160801b90046001600160801b03166154a482630408c25560e31b614b11565b6001600160801b03161461110757600080fd5b6000806154c8858560018685615554565b5195945050505050565b6154da61589f565b6000613d9384634e745f1f60e01b60018685615554565b6154f9615940565b600061551085638fa95a1560e01b60028787615554565b95945050505050565b615521615957565b60006155108563290e526d60e11b60028787615554565b600080615549868660028787615554565b519695505050505050565b6040518481528315615567578260048201525b6001841115615577578160248201525b6000808560200260040183895af48015615595573d6000833e61559a565b600082fd5b5095945050505050565b63ffffffff606082901c1691565b6004546000907f00000000000000000000000000000000000000000000000000000000000000006001600160801b03908116600160801b9092041614156155fb57506000613d93565b60055461ffff90811690861611156156425760048054600160801b81046001600160801b03166001600160801b03199091161790556005805461ffff191661ffff87161790555b60045460009081907f00000000000000000000000000000000000000000000000000000000000000006001600160801b039091167f000000000000000000000000000000000000000000000000000000000000000001116156e757507f000000000000000000000000000000000000000000000000000000000000000090507f000000000000000000000000000000000000000000000000000000000000000061573c565b50506004546001600160801b039081167f000000000000000000000000000000000000000000000000000000000000000003167f00000000000000000000000000000000000000000000000000000000000000005b60007f0000000000000000000000000000000000000000000000000000000000000000615789867f000000000000000000000000000000000000000000000000000000000000000061586a565b61ffff1601905081860281888502028161579f57fe5b04935060006157ac611d21565b9050846157bc57600194506157c8565b808511156157c8578094505b5050600480546001600160801b03600160801b8083048216870182160291161790555050949350505050565b6001600160601b031660609190911b63ffffffff60601b161790565b60028054600160a01b900460ff161461582857600080fd5b6040805133815290516001600160a01b038316917f1e8d98c1b4a0d9bd2e2371026b632eb2773fcce41742e41f02f574ab69868d4c919081900360200190a250565b60008161ffff168361ffff1610613abe5781612a5a565b60405180604001604052806002906020820280368337509192915050565b60405180610220016040528060008152602001600061ffff168152602001600061ffff168152602001600061ffff168152602001600061ffff16815260200160008152602001600061ffff16815260200160006001600160a01b031681526020016000815260200160008152602001600081526020016000815260200160008152602001600081526020016060815260200160608152602001606081525090565b604080518082019091526000808252602082015290565b60408051608081018252600080825260208201819052918101829052606081019190915290565b600063ffffffff8316615993575060006118d3565b82820263ffffffff80841690808616908316816159ac57fe5b0463ffffffff1614612a5a57fefe5374616b6572206d75737420686176652061207374616b6520746f206d616b65206120636f6d6d69746d656e7454686520737562207374616b65206d75737420616374697665206174206c6561737420696e20746865206e65787420706572696f6453706563696669656420776f726b657220697320616c726561647920696e207573655c82b27ca454d536b55df10a5a7cbf8ceab76ccf7d614a04668ee4990c8726384f6e6c7920776f726b65722077697468207265616c20616464726573732063616e206d616b65206120636f6d6d69746d656e744e6f7420656e6f7567682074696d6520686173207061737365642073696e6365207468652070726576696f757320626f6e64696e6720776f726b657254686520657874656e64656420737562207374616b65206d757374206e6f74206265206c657373207468616e20746865206d696e696d756d2076616c756541207374616b65722063616e2774206265206120776f726b657220666f7220616e6f74686572207374616b657253706563696669656420776f726b657220697320616c726561647920626f6e64656420776974682074686973207374616b6572a26469706673582212209343faa7fdb018d378a7325d5e2aa575b87d77a18947481ea6bf93c01ff3356464736f6c63430006070033546f6b656e20636f6e74726163742068617320737570706c79206d6f7265207468616e20737570706f72746564546f6f206d616e7920746f6b656e7320666f722074686520666972737420706861736552657761726420666f722074686520666972737420706861736520697320746f6f206869676853706563696669656420706172616d6574657273206361757365206f766572666c6f77526573756c74696e67206c6f636b696e67206475726174696f6e20636f656666696369656e74206d757374206265206c657373207468616e2031",
  "bytecodeSha1": "9cbc8b33615478186bf1d503895bec95364a8bdc",
  "compiler": {
    "evm_version": "berlin",
    "optimizer": {
      "enabled": true,
      "runs": 200
    },
    "version": "0.6.7"
  },
  "contractName": "StakingEscrowV2Mock",
  "language": "Solidity",
  "natspec": {
    "methods": {
      "batchDeposit(address[],uint256[],uint256[],uint16[])": {
        "notice": "Batch deposit. Allowed only initial deposit for each staker",
        "params": {
          "_numberOfSubStakes": "Number of sub-stakes which belong to staker in _values and _periods arrays",
          "_periods": "Amount of periods during which tokens will be locked for each staker",
          "_stakers": "Stakers",
          "_values": "Amount of tokens to deposit for each staker"
        }
      },
      "bondWorker(address)": {
        "notice": "Bond worker",
        "params": {
          "_worker": "Worker address. Must be a real address, not a contract"
        }
      },
      "commitToNextPeriod()": {
        "notice": "Make a commitment to the next period and mint for the previous period"
      },
      "deposit(address,uint256,uint16)": {
        "notice": "Deposit tokens",
        "params": {
          "_periods": "Amount of periods during which tokens will be locked",
          "_staker": "Staker",
          "_value": "Amount of tokens to deposit"
        }
      },
      "deposit(uint256,uint16)": {
        "notice": "Deposit tokens",
        "params": {
          "_periods": "Amount of periods during which tokens will be locked",
          "_value": "Amount of tokens to deposit"
        }
      },
      "divideStake(uint256,uint256,uint16)": {
        "notice": "Divide sub stake into two parts",
        "params": {
          "_index": "Index of the sub stake",
          "_newValue": "New sub stake value",
          "_periods": "Amount of periods for extending sub stake"
        }
      },
      "donate(uint256)": {
        "notice": "Donate sender's tokens. Amount of tokens will be returned for future minting",
        "params": {
          "_value": "Amount to donate"
        }
      },
      "findIndexOfPastDowntime(address,uint16)": {
        "details": "If specified period is outside all downtime periods, the length of the array will be returned",
        "notice": "Find index of downtime structure that includes specified period",
        "params": {
          "_period": "Specified period number",
          "_staker": "Staker"
        }
      },
      "getActiveStakers(uint16,uint256,uint256)": {
        "details": "Note that activeStakers[0] in an array of uint256, but you want addresses. Careful when used directly!",
        "notice": "Get the value of locked tokens for active stakers in (getCurrentPeriod() + _periods) period as well as stakers and their locked tokens",
        "params": {
          "_maxStakers": "Max stakers for looking, if set 0 then all will be used",
          "_periods": "Amount of periods for locked tokens calculation",
          "_startIndex": "Start index for looking in stakers array"
        },
        "returns": {
          "activeStakers": "Array of stakers and their locked tokens. Stakers addresses stored as uint256",
          "allLockedTokens": "Sum of locked tokens for active stakers"
        }
      },
      "getAllTokens(address)": {
        "notice": "Get all tokens belonging to the staker"
      },
      "getCompletedWork(address)": {
        "notice": "Get work that completed by the staker"
      },
      "getFlags(address)": {
        "notice": "Get all flags for the staker"
      },
      "getLastCommittedPeriod(address)": {
        "notice": "Get the last committed staker's period",
        "params": {
          "_staker": "Staker"
        }
      },
      "getLastPeriodOfSubStake(address,uint256)": {
        "notice": "Get the last period of the sub stake",
        "params": {
          "_index": "Stake index",
          "_staker": "Staker"
        }
      },
      "getLockedTokens(address,uint16)": {
        "details": "This function is used by PreallocationEscrow so its signature can't be updated.",
        "notice": "Get the value of locked tokens for a staker in a future period",
        "params": {
          "_periods": "Amount of periods that will be added to the current period",
          "_staker": "Staker"
        }
      },
      "getLockedTokensInPast(address,uint16)": {
        "details": "Information may be incorrect for rewarded or not committed surpassed period",
        "notice": "Get the value of locked tokens for a staker in a previous period",
        "params": {
          "_periods": "Amount of periods that will be subtracted from the current period",
          "_staker": "Staker"
        }
      },
      "getPastDowntime(address,uint256)": {
        "notice": "Return the information about past downtime"
      },
      "getPastDowntimeLength(address)": {
        "notice": "Return the length of the array of past downtime"
      },
      "getReservedReward()": {
        "notice": "Returns the number of tokens that can be minted"
      },
      "getStakersLength()": {
        "notice": "Return the length of the array of stakers"
      },
      "getSubStakeInfo(address,uint256)": {
        "notice": "Return the information about sub stake"
      },
      "getSubStakesLength(address)": {
        "notice": "Return the length of the array of sub stakes"
      },
      "getWorkerFromStaker(address)": {
        "notice": "Get worker using staker's address"
      },
      "initialize(uint256)": {
        "notice": "Initialize reserved tokens for reward"
      },
      "isReStakeLocked(address)": {
        "notice": "Checks if `reStake` parameter is available for changing",
        "params": {
          "_staker": "Staker"
        }
      },
      "lock(uint256,uint16)": {
        "notice": "Lock some tokens as a stake",
        "params": {
          "_periods": "Amount of periods during which tokens will be locked",
          "_value": "Amount of tokens which will be locked"
        }
      },
      "lockReStake(uint16)": {
        "notice": "Lock `reStake` parameter. Only if this parameter is not locked",
        "params": {
          "_lockReStakeUntilPeriod": "Can't change `reStake` value until this period"
        }
      },
      "mint()": {
        "notice": "Mint tokens for previous periods if staker locked their tokens and made a commitment"
      },
      "prolongStake(uint256,uint16)": {
        "notice": "Prolong active sub stake",
        "params": {
          "_index": "Index of the sub stake",
          "_periods": "Amount of periods for extending sub stake"
        }
      },
      "receiveApproval(address,uint256,address,bytes)": {
        "notice": "Implementation of the receiveApproval(address,uint256,address,bytes) method (see NuCypherToken contract). Deposit all tokens that were approved to transfer(param _extraData) Amount of periods during which tokens will be locked",
        "params": {
          "_from": "Staker",
          "_tokenContract": "Token contract address",
          "_value": "Amount of tokens to deposit"
        }
      },
      "renounceOwnership()": {
        "details": "Allows the current owner to relinquish control of the contract.",
        "notice": "Renouncing to ownership will leave the contract without an owner. It will not be possible to call the functions with the `onlyOwner` modifier anymore."
      },
      "setAdjudicator(address)": {
        "notice": "Set adjudicator address"
      },
      "setPolicyManager(address)": {
        "notice": "Set policy manager address"
      },
      "setReStake(bool)": {
        "notice": "Set `reStake` parameter. If true then all staking rewards will be added to locked stake Only if this parameter is not locked",
        "params": {
          "_reStake": "Value for parameter"
        }
      },
      "setSnapshots(bool)": {
        "notice": "Activate/deactivate taking snapshots of balances",
        "params": {
          "_enableSnapshots": "True to activate snapshots, False to deactivate"
        }
      },
      "setWindDown(bool)": {
        "notice": "Set `windDown` parameter. If true then stake's duration will be decreasing in each period with `commitToNextPeriod()`",
        "params": {
          "_windDown": "Value for parameter"
        }
      },
      "setWorkLock(address)": {
        "notice": "Set worklock address"
      },
      "setWorkMeasurement(address,bool)": {
        "notice": "Start or stop measuring the work of a staker",
        "params": {
          "_measureWork": "Value for `measureWork` parameter",
          "_staker": "Staker"
        },
        "returns": {
          "_0": "Work that was previously done"
        }
      },
      "slashStaker(address,uint256,address,uint256)": {
        "notice": "Slash the staker's stake and reward the investigator",
        "params": {
          "_investigator": "Investigator",
          "_penalty": "Penalty",
          "_reward": "Reward for the investigator",
          "_staker": "Staker's address"
        }
      },
      "transferOwnership(address)": {
        "details": "Allows the current owner to transfer control of the contract to a newOwner.",
        "params": {
          "newOwner": "The address to transfer ownership to."
        }
      },
      "withdraw(uint256)": {
        "notice": "Withdraw available amount of tokens to staker",
        "params": {
          "_value": "Amount of tokens to withdraw"
        }
      }
    },
    "notice": "Contract for testing upgrading the StakingEscrow contract"
  },
  "opcodes": "PUSH1 0x80 PUSH1 0x40 MSTORE CALLVALUE DUP1 ISZERO PUSH2 0x10 JUMPI PUSH1 0x0 DUP1 REVERT JUMPDEST POP PUSH1 0x4 CALLDATASIZE LT PUSH2 0x480 JUMPI PUSH1 0x0 CALLDATALOAD PUSH1 0xE0 SHR DUP1 PUSH4 0x8DA5CB5B GT PUSH2 0x257 JUMPI DUP1 PUSH4 0xC9C53232 GT PUSH2 0x146 JUMPI DUP1 PUSH4 0xE8DCCD06 GT PUSH2 0xC3 JUMPI DUP1 PUSH4 0xF2FDE38B GT PUSH2 0x87 JUMPI DUP1 PUSH4 0xF2FDE38B EQ PUSH2 0xFF9 JUMPI DUP1 PUSH4 0xF6910CB8 EQ PUSH2 0x101F JUMPI DUP1 PUSH4 0xFC0C546A EQ PUSH2 0x1027 JUMPI DUP1 PUSH4 0xFD5E6DD1 EQ PUSH2 0x102F JUMPI DUP1 PUSH4 0xFE4B84DF EQ PUSH2 0x104C JUMPI PUSH2 0x480 JUMP JUMPDEST DUP1 PUSH4 0xE8DCCD06 EQ PUSH2 0xF48 JUMPI DUP1 PUSH4 0xEDE38421 EQ PUSH2 0xF6E JUMPI DUP1 PUSH4 0xEE53C8FD EQ PUSH2 0xF9A JUMPI DUP1 PUSH4 0xEF95E0BA EQ PUSH2 0xFBB JUMPI DUP1 PUSH4 0xF14FAF6F EQ PUSH2 0xFDC JUMPI PUSH2 0x480 JUMP JUMPDEST DUP1 PUSH4 0xD4B83992 GT PUSH2 0x10A JUMPI DUP1 PUSH4 0xD4B83992 EQ PUSH2 0xED7 JUMPI DUP1 PUSH4 0xD6AD9457 EQ PUSH2 0xEDF JUMPI DUP1 PUSH4 0xDAD60676 EQ PUSH2 0xEE7 JUMPI DUP1 PUSH4 0xDFEE9E0D EQ PUSH2 0xF0D JUMPI DUP1 PUSH4 0xE38A303B EQ PUSH2 0xF2A JUMPI PUSH2 0x480 JUMP JUMPDEST DUP1 PUSH4 0xC9C53232 EQ PUSH2 0xE29 JUMPI DUP1 PUSH4 0xCD50F601 EQ PUSH2 0xE46 JUMPI DUP1 PUSH4 0xD094ADBF EQ PUSH2 0xE4E JUMPI DUP1 PUSH4 0xD122B794 EQ PUSH2 0xE74 JUMPI DUP1 PUSH4 0xD2D0E066 EQ PUSH2 0xEA1 JUMPI PUSH2 0x480 JUMP JUMPDEST DUP1 PUSH4 0x9FABEB00 GT PUSH2 0x1D4 JUMPI DUP1 PUSH4 0xB2EEB36E GT PUSH2 0x198 JUMPI DUP1 PUSH4 0xB2EEB36E EQ PUSH2 0xD88 JUMPI DUP1 PUSH4 0xB89F66ED EQ PUSH2 0xDAE JUMPI DUP1 PUSH4 0xB9626D21 EQ PUSH2 0xDD5 JUMPI DUP1 PUSH4 0xC2BC0EE6 EQ PUSH2 0xDFB JUMPI DUP1 PUSH4 0xC83D8708 EQ PUSH2 0xE21 JUMPI PUSH2 0x480 JUMP JUMPDEST DUP1 PUSH4 0x9FABEB00 EQ PUSH2 0xD24 JUMPI DUP1 PUSH4 0xA3324BE9 EQ PUSH2 0xD2C JUMPI DUP1 PUSH4 0xA3EBC182 EQ PUSH2 0xD34 JUMPI DUP1 PUSH4 0xAB3DBF3B EQ PUSH2 0xD5A JUMPI DUP1 PUSH4 0xADDE41E1 EQ PUSH2 0xD62 JUMPI PUSH2 0x480 JUMP JUMPDEST DUP1 PUSH4 0x90DCB51F GT PUSH2 0x21B JUMPI DUP1 PUSH4 0x90DCB51F EQ PUSH2 0xC60 JUMPI DUP1 PUSH4 0x9541C598 EQ PUSH2 0xC86 JUMPI DUP1 PUSH4 0x959F2BF2 EQ PUSH2 0xCA5 JUMPI DUP1 PUSH4 0x99CC218C EQ PUSH2 0xCCB JUMPI DUP1 PUSH4 0x9D6F2A09 EQ PUSH2 0xD05 JUMPI PUSH2 0x480 JUMP JUMPDEST DUP1 PUSH4 0x8DA5CB5B EQ PUSH2 0xB6E JUMPI DUP1 PUSH4 0x8F32D59B EQ PUSH2 0xB76 JUMPI DUP1 PUSH4 0x8F4FFCB1 EQ PUSH2 0xB7E JUMPI DUP1 PUSH4 0x8FA95A15 EQ PUSH2 0xC0B JUMPI DUP1 PUSH4 0x909F7C88 EQ PUSH2 0xC58 JUMPI PUSH2 0x480 JUMP JUMPDEST DUP1 PUSH4 0x4789D02D GT PUSH2 0x373 JUMPI DUP1 PUSH4 0x6B5BBC97 GT PUSH2 0x2F0 JUMPI DUP1 PUSH4 0x817AD5D3 GT PUSH2 0x2B4 JUMPI DUP1 PUSH4 0x817AD5D3 EQ PUSH2 0xA98 JUMPI DUP1 PUSH4 0x845603A6 EQ PUSH2 0xAE8 JUMPI DUP1 PUSH4 0x84BED44C EQ PUSH2 0xB0F JUMPI DUP1 PUSH4 0x86F86DDE EQ PUSH2 0xB3F JUMPI DUP1 PUSH4 0x8CAB6C4F EQ PUSH2 0xB66 JUMPI PUSH2 0x480 JUMP JUMPDEST DUP1 PUSH4 0x6B5BBC97 EQ PUSH2 0x906 JUMPI DUP1 PUSH4 0x6FB653A2 EQ PUSH2 0xA64 JUMPI DUP1 PUSH4 0x7033E4A6 EQ PUSH2 0xA6C JUMPI DUP1 PUSH4 0x715018A6 EQ PUSH2 0xA88 JUMPI DUP1 PUSH4 0x7B3888EF EQ PUSH2 0xA90 JUMPI PUSH2 0x480 JUMP JUMPDEST DUP1 PUSH4 0x4E745F1F GT PUSH2 0x337 JUMPI DUP1 PUSH4 0x4E745F1F EQ PUSH2 0x791 JUMPI DUP1 PUSH4 0x521CA4DA EQ PUSH2 0x862 JUMPI DUP1 PUSH4 0x53C2ED8E EQ PUSH2 0x8C6 JUMPI DUP1 PUSH4 0x66013DD3 EQ PUSH2 0x8CE JUMPI DUP1 PUSH4 0x6784C917 EQ PUSH2 0x8FE JUMPI PUSH2 0x480 JUMP JUMPDEST DUP1 PUSH4 0x4789D02D EQ PUSH2 0x65A JUMPI DUP1 PUSH4 0x494F994F EQ PUSH2 0x68A JUMPI DUP1 PUSH4 0x49E5ADD4 EQ PUSH2 0x72F JUMPI DUP1 PUSH4 0x4B2CD118 EQ PUSH2 0x75D JUMPI DUP1 PUSH4 0x4CE4DBBA EQ PUSH2 0x765 JUMPI PUSH2 0x480 JUMP JUMPDEST DUP1 PUSH4 0x2D621434 GT PUSH2 0x401 JUMPI DUP1 PUSH4 0x3AC5743D GT PUSH2 0x3C5 JUMPI DUP1 PUSH4 0x3AC5743D EQ PUSH2 0x5FB JUMPI DUP1 PUSH4 0x3AE10A15 EQ PUSH2 0x603 JUMPI DUP1 PUSH4 0x405D220B EQ PUSH2 0x60B JUMPI DUP1 PUSH4 0x407F8001 EQ PUSH2 0x631 JUMPI DUP1 PUSH4 0x41FE00A0 EQ PUSH2 0x652 JUMPI PUSH2 0x480 JUMP JUMPDEST DUP1 PUSH4 0x2D621434 EQ PUSH2 0x5A0 JUMPI DUP1 PUSH4 0x2E0ABDE3 EQ PUSH2 0x5A8 JUMPI DUP1 PUSH4 0x2E1A7D4D EQ PUSH2 0x5B0 JUMPI DUP1 PUSH4 0x3250843D EQ PUSH2 0x5CD JUMPI DUP1 PUSH4 0x334987AB EQ PUSH2 0x5D5 JUMPI PUSH2 0x480 JUMP JUMPDEST DUP1 PUSH4 0x178B6DE6 GT PUSH2 0x448 JUMPI DUP1 PUSH4 0x178B6DE6 EQ PUSH2 0x50D JUMPI DUP1 PUSH4 0x18160DDD EQ PUSH2 0x533 JUMPI DUP1 PUSH4 0x18CC313C EQ PUSH2 0x557 JUMPI DUP1 PUSH4 0x1C7FD532 EQ PUSH2 0x574 JUMPI DUP1 PUSH4 0x204612A8 EQ PUSH2 0x598 JUMPI PUSH2 0x480 JUMP JUMPDEST DUP1 PUSH4 0x3A94485 EQ PUSH2 0x485 JUMPI DUP1 PUSH4 0x4BCAFE5 EQ PUSH2 0x4A6 JUMPI DUP1 PUSH4 0x86146D2 EQ PUSH2 0x4DE JUMPI DUP1 PUSH4 0xF64AB14 EQ PUSH2 0x4FD JUMPI DUP1 PUSH4 0x1249C58B EQ PUSH2 0x505 JUMPI JUMPDEST PUSH1 0x0 DUP1 REVERT JUMPDEST PUSH2 0x4A4 PUSH1 0x4 DUP1 CALLDATASIZE SUB PUSH1 0x20 DUP2 LT ISZERO PUSH2 0x49B JUMPI PUSH1 0x0 DUP1 REVERT JUMPDEST POP CALLDATALOAD ISZERO ISZERO PUSH2 0x1069 JUMP JUMPDEST STOP JUMPDEST PUSH2 0x4CC PUSH1 0x4 DUP1 CALLDATASIZE SUB PUSH1 0x20 DUP2 LT ISZERO PUSH2 0x4BC JUMPI PUSH1 0x0 DUP1 REVERT JUMPDEST POP CALLDATALOAD PUSH1 0x1 PUSH1 0x1 PUSH1 0xA0 SHL SUB AND PUSH2 0x110A JUMP JUMPDEST PUSH1 0x40 DUP1 MLOAD SWAP2 DUP3 MSTORE MLOAD SWAP1 DUP2 SWAP1 SUB PUSH1 0x20 ADD SWAP1 RETURN JUMPDEST PUSH2 0x4E6 PUSH2 0x112C JUMP JUMPDEST PUSH1 0x40 DUP1 MLOAD PUSH2 0xFFFF SWAP1 SWAP3 AND DUP3 MSTORE MLOAD SWAP1 DUP2 SWAP1 SUB PUSH1 0x20 ADD SWAP1 RETURN JUMPDEST PUSH2 0x4E6 PUSH2 0x1163 JUMP JUMPDEST PUSH2 0x4A4 PUSH2 0x116D JUMP JUMPDEST PUSH2 0x4CC PUSH1 0x4 DUP1 CALLDATASIZE SUB PUSH1 0x20 DUP2 LT ISZERO PUSH2 0x523 JUMPI PUSH1 0x0 DUP1 REVERT JUMPDEST POP CALLDATALOAD PUSH1 0x1 PUSH1 0x1 PUSH1 0xA0 SHL SUB AND PUSH2 0x1209 JUMP JUMPDEST PUSH2 0x53B PUSH2 0x1224 JUMP JUMPDEST PUSH1 0x40 DUP1 MLOAD PUSH1 0x1 PUSH1 0x1 PUSH1 0x80 SHL SUB SWAP1 SWAP3 AND DUP3 MSTORE MLOAD SWAP1 DUP2 SWAP1 SUB PUSH1 0x20 ADD SWAP1 RETURN JUMPDEST PUSH2 0x4A4 PUSH1 0x4 DUP1 CALLDATASIZE SUB PUSH1 0x20 DUP2 LT ISZERO PUSH2 0x56D JUMPI PUSH1 0x0 DUP1 REVERT JUMPDEST POP CALLDATALOAD PUSH2 0x1248 JUMP JUMPDEST PUSH2 0x57C PUSH2 0x124D JUMP JUMPDEST PUSH1 0x40 DUP1 MLOAD PUSH1 0x1 PUSH1 0x1 PUSH1 0xA0 SHL SUB SWAP1 SWAP3 AND DUP3 MSTORE MLOAD SWAP1 DUP2 SWAP1 SUB PUSH1 0x20 ADD SWAP1 RETURN JUMPDEST PUSH2 0x53B PUSH2 0x125C JUMP JUMPDEST PUSH2 0x4CC PUSH2 0x1272 JUMP JUMPDEST PUSH2 0x4E6 PUSH2 0x1296 JUMP JUMPDEST PUSH2 0x4A4 PUSH1 0x4 DUP1 CALLDATASIZE SUB PUSH1 0x20 DUP2 LT ISZERO PUSH2 0x5C6 JUMPI PUSH1 0x0 DUP1 REVERT JUMPDEST POP CALLDATALOAD PUSH2 0x129B JUMP JUMPDEST PUSH2 0x53B PUSH2 0x13A1 JUMP JUMPDEST PUSH2 0x4A4 PUSH1 0x4 DUP1 CALLDATASIZE SUB PUSH1 0x20 DUP2 LT ISZERO PUSH2 0x5EB JUMPI PUSH1 0x0 DUP1 REVERT JUMPDEST POP CALLDATALOAD PUSH1 0x1 PUSH1 0x1 PUSH1 0xA0 SHL SUB AND PUSH2 0x13B0 JUMP JUMPDEST PUSH2 0x4E6 PUSH2 0x147B JUMP JUMPDEST PUSH2 0x4CC PUSH2 0x149F JUMP JUMPDEST PUSH2 0x4A4 PUSH1 0x4 DUP1 CALLDATASIZE SUB PUSH1 0x20 DUP2 LT ISZERO PUSH2 0x621 JUMPI PUSH1 0x0 DUP1 REVERT JUMPDEST POP CALLDATALOAD PUSH1 0x1 PUSH1 0x1 PUSH1 0xA0 SHL SUB AND PUSH2 0x14C3 JUMP JUMPDEST PUSH2 0x639 PUSH2 0x15B6 JUMP JUMPDEST PUSH1 0x40 DUP1 MLOAD PUSH4 0xFFFFFFFF SWAP1 SWAP3 AND DUP3 MSTORE MLOAD SWAP1 DUP2 SWAP1 SUB PUSH1 0x20 ADD SWAP1 RETURN JUMPDEST PUSH2 0x4A4 PUSH2 0x15DA JUMP JUMPDEST PUSH2 0x4CC PUSH1 0x4 DUP1 CALLDATASIZE SUB PUSH1 0x40 DUP2 LT ISZERO PUSH2 0x670 JUMPI PUSH1 0x0 DUP1 REVERT JUMPDEST POP DUP1 CALLDATALOAD PUSH1 0x1 PUSH1 0x1 PUSH1 0xA0 SHL SUB AND SWAP1 PUSH1 0x20 ADD CALLDATALOAD PUSH2 0xFFFF AND PUSH2 0x186C JUMP JUMPDEST PUSH2 0x6B7 PUSH1 0x4 DUP1 CALLDATASIZE SUB PUSH1 0x60 DUP2 LT ISZERO PUSH2 0x6A0 JUMPI PUSH1 0x0 DUP1 REVERT JUMPDEST POP PUSH2 0xFFFF DUP2 CALLDATALOAD AND SWAP1 PUSH1 0x20 DUP2 ADD CALLDATALOAD SWAP1 PUSH1 0x40 ADD CALLDATALOAD PUSH2 0x18D9 JUMP JUMPDEST PUSH1 0x40 MLOAD DUP1 DUP4 DUP2 MSTORE PUSH1 0x20 ADD DUP1 PUSH1 0x20 ADD DUP3 DUP2 SUB DUP3 MSTORE DUP4 DUP2 DUP2 MLOAD DUP2 MSTORE PUSH1 0x20 ADD SWAP2 POP DUP1 MLOAD PUSH1 0x0 SWAP3 JUMPDEST DUP2 DUP5 LT ISZERO PUSH2 0x71D JUMPI PUSH1 0x20 DUP1 DUP6 MUL DUP5 ADD ADD MLOAD PUSH1 0x40 DUP1 DUP4 DUP4 PUSH1 0x0 JUMPDEST DUP4 DUP2 LT ISZERO PUSH2 0x70C JUMPI DUP2 DUP2 ADD MLOAD DUP4 DUP3 ADD MSTORE PUSH1 0x20 ADD PUSH2 0x6F4 JUMP JUMPDEST POP POP POP POP SWAP1 POP ADD SWAP3 PUSH1 0x1 ADD SWAP3 PUSH2 0x6DB JUMP JUMPDEST SWAP3 POP POP POP SWAP4 POP POP POP POP PUSH1 0x40 MLOAD DUP1 SWAP2 SUB SWAP1 RETURN JUMPDEST PUSH2 0x4CC PUSH1 0x4 DUP1 CALLDATASIZE SUB PUSH1 0x40 DUP2 LT ISZERO PUSH2 0x745 JUMPI PUSH1 0x0 DUP1 REVERT JUMPDEST POP PUSH1 0x1 PUSH1 0x1 PUSH1 0xA0 SHL SUB DUP2 CALLDATALOAD AND SWAP1 PUSH1 0x20 ADD CALLDATALOAD ISZERO ISZERO PUSH2 0x1AA1 JUMP JUMPDEST PUSH2 0x57C PUSH2 0x1B67 JUMP JUMPDEST PUSH2 0x4E6 PUSH1 0x4 DUP1 CALLDATASIZE SUB PUSH1 0x40 DUP2 LT ISZERO PUSH2 0x77B JUMPI PUSH1 0x0 DUP1 REVERT JUMPDEST POP PUSH1 0x1 PUSH1 0x1 PUSH1 0xA0 SHL SUB DUP2 CALLDATALOAD AND SWAP1 PUSH1 0x20 ADD CALLDATALOAD PUSH2 0x1B76 JUMP JUMPDEST PUSH2 0x7B7 PUSH1 0x4 DUP1 CALLDATASIZE SUB PUSH1 0x20 DUP2 LT ISZERO PUSH2 0x7A7 JUMPI PUSH1 0x0 DUP1 REVERT JUMPDEST POP CALLDATALOAD PUSH1 0x1 PUSH1 0x1 PUSH1 0xA0 SHL SUB AND PUSH2 0x1BD6 JUMP JUMPDEST PUSH1 0x40 MLOAD DUP1 DUP16 DUP2 MSTORE PUSH1 0x20 ADD DUP15 PUSH2 0xFFFF AND PUSH2 0xFFFF AND DUP2 MSTORE PUSH1 0x20 ADD DUP14 PUSH2 0xFFFF AND PUSH2 0xFFFF AND DUP2 MSTORE PUSH1 0x20 ADD DUP13 PUSH2 0xFFFF AND PUSH2 0xFFFF AND DUP2 MSTORE PUSH1 0x20 ADD DUP12 PUSH2 0xFFFF AND PUSH2 0xFFFF AND DUP2 MSTORE PUSH1 0x20 ADD DUP11 DUP2 MSTORE PUSH1 0x20 ADD DUP10 PUSH2 0xFFFF AND PUSH2 0xFFFF AND DUP2 MSTORE PUSH1 0x20 ADD DUP9 PUSH1 0x1 PUSH1 0x1 PUSH1 0xA0 SHL SUB AND PUSH1 0x1 PUSH1 0x1 PUSH1 0xA0 SHL SUB AND DUP2 MSTORE PUSH1 0x20 ADD DUP8 DUP2 MSTORE PUSH1 0x20 ADD DUP7 DUP2 MSTORE PUSH1 0x20 ADD DUP6 DUP2 MSTORE PUSH1 0x20 ADD DUP5 DUP2 MSTORE PUSH1 0x20 ADD DUP4 DUP2 MSTORE PUSH1 0x20 ADD DUP3 DUP2 MSTORE PUSH1 0x20 ADD SWAP15 POP POP POP POP POP POP POP POP POP POP POP POP POP POP POP PUSH1 0x40 MLOAD DUP1 SWAP2 SUB SWAP1 RETURN JUMPDEST PUSH2 0x88E PUSH1 0x4 DUP1 CALLDATASIZE SUB PUSH1 0x40 DUP2 LT ISZERO PUSH2 0x878 JUMPI PUSH1 0x0 DUP1 REVERT JUMPDEST POP PUSH1 0x1 PUSH1 0x1 PUSH1 0xA0 SHL SUB DUP2 CALLDATALOAD AND SWAP1 PUSH1 0x20 ADD CALLDATALOAD PUSH2 0x1C5A JUMP JUMPDEST PUSH1 0x40 DUP1 MLOAD PUSH2 0xFFFF SWAP6 DUP7 AND DUP2 MSTORE SWAP4 DUP6 AND PUSH1 0x20 DUP6 ADD MSTORE SWAP2 SWAP1 SWAP4 AND DUP3 DUP3 ADD MSTORE PUSH1 0x1 PUSH1 0x1 PUSH1 0x80 SHL SUB SWAP1 SWAP3 AND PUSH1 0x60 DUP3 ADD MSTORE SWAP1 MLOAD SWAP1 DUP2 SWAP1 SUB PUSH1 0x80 ADD SWAP1 RETURN JUMPDEST PUSH2 0x57C PUSH2 0x1CCC JUMP JUMPDEST PUSH2 0x4CC PUSH1 0x4 DUP1 CALLDATASIZE SUB PUSH1 0x40 DUP2 LT ISZERO PUSH2 0x8E4 JUMPI PUSH1 0x0 DUP1 REVERT JUMPDEST POP DUP1 CALLDATALOAD PUSH1 0x1 PUSH1 0x1 PUSH1 0xA0 SHL SUB AND SWAP1 PUSH1 0x20 ADD CALLDATALOAD PUSH2 0xFFFF AND PUSH2 0x1CDB JUMP JUMPDEST PUSH2 0x4CC PUSH2 0x1D21 JUMP JUMPDEST PUSH2 0x4A4 PUSH1 0x4 DUP1 CALLDATASIZE SUB PUSH1 0x80 DUP2 LT ISZERO PUSH2 0x91C JUMPI PUSH1 0x0 DUP1 REVERT JUMPDEST DUP2 ADD SWAP1 PUSH1 0x20 DUP2 ADD DUP2 CALLDATALOAD PUSH1 0x1 PUSH1 0x20 SHL DUP2 GT ISZERO PUSH2 0x936 JUMPI PUSH1 0x0 DUP1 REVERT JUMPDEST DUP3 ADD DUP4 PUSH1 0x20 DUP3 ADD GT ISZERO PUSH2 0x948 JUMPI PUSH1 0x0 DUP1 REVERT JUMPDEST DUP1 CALLDATALOAD SWAP1 PUSH1 0x20 ADD SWAP2 DUP5 PUSH1 0x20 DUP4 MUL DUP5 ADD GT PUSH1 0x1 PUSH1 0x20 SHL DUP4 GT OR ISZERO PUSH2 0x969 JUMPI PUSH1 0x0 DUP1 REVERT JUMPDEST SWAP2 SWAP4 SWAP1 SWAP3 SWAP1 SWAP2 PUSH1 0x20 DUP2 ADD SWAP1 CALLDATALOAD PUSH1 0x1 PUSH1 0x20 SHL DUP2 GT ISZERO PUSH2 0x986 JUMPI PUSH1 0x0 DUP1 REVERT JUMPDEST DUP3 ADD DUP4 PUSH1 0x20 DUP3 ADD GT ISZERO PUSH2 0x998 JUMPI PUSH1 0x0 DUP1 REVERT JUMPDEST DUP1 CALLDATALOAD SWAP1 PUSH1 0x20 ADD SWAP2 DUP5 PUSH1 0x20 DUP4 MUL DUP5 ADD GT PUSH1 0x1 PUSH1 0x20 SHL DUP4 GT OR ISZERO PUSH2 0x9B9 JUMPI PUSH1 0x0 DUP1 REVERT JUMPDEST SWAP2 SWAP4 SWAP1 SWAP3 SWAP1 SWAP2 PUSH1 0x20 DUP2 ADD SWAP1 CALLDATALOAD PUSH1 0x1 PUSH1 0x20 SHL DUP2 GT ISZERO PUSH2 0x9D6 JUMPI PUSH1 0x0 DUP1 REVERT JUMPDEST DUP3 ADD DUP4 PUSH1 0x20 DUP3 ADD GT ISZERO PUSH2 0x9E8 JUMPI PUSH1 0x0 DUP1 REVERT JUMPDEST DUP1 CALLDATALOAD SWAP1 PUSH1 0x20 ADD SWAP2 DUP5 PUSH1 0x20 DUP4 MUL DUP5 ADD GT PUSH1 0x1 PUSH1 0x20 SHL DUP4 GT OR ISZERO PUSH2 0xA09 JUMPI PUSH1 0x0 DUP1 REVERT JUMPDEST SWAP2 SWAP4 SWAP1 SWAP3 SWAP1 SWAP2 PUSH1 0x20 DUP2 ADD SWAP1 CALLDATALOAD PUSH1 0x1 PUSH1 0x20 SHL DUP2 GT ISZERO PUSH2 0xA26 JUMPI PUSH1 0x0 DUP1 REVERT JUMPDEST DUP3 ADD DUP4 PUSH1 0x20 DUP3 ADD GT ISZERO PUSH2 0xA38 JUMPI PUSH1 0x0 DUP1 REVERT JUMPDEST DUP1 CALLDATALOAD SWAP1 PUSH1 0x20 ADD SWAP2 DUP5 PUSH1 0x20 DUP4 MUL DUP5 ADD GT PUSH1 0x1 PUSH1 0x20 SHL DUP4 GT OR ISZERO PUSH2 0xA59 JUMPI PUSH1 0x0 DUP1 REVERT JUMPDEST POP SWAP1 SWAP3 POP SWAP1 POP PUSH2 0x1D5C JUMP JUMPDEST PUSH2 0x4CC PUSH2 0x2206 JUMP JUMPDEST PUSH2 0xA74 PUSH2 0x222A JUMP JUMPDEST PUSH1 0x40 DUP1 MLOAD SWAP2 ISZERO ISZERO DUP3 MSTORE MLOAD SWAP1 DUP2 SWAP1 SUB PUSH1 0x20 ADD SWAP1 RETURN JUMPDEST PUSH2 0x4A4 PUSH2 0x222F JUMP JUMPDEST PUSH2 0x4E6 PUSH2 0x228A JUMP JUMPDEST PUSH2 0xABE PUSH1 0x4 DUP1 CALLDATASIZE SUB PUSH1 0x20 DUP2 LT ISZERO PUSH2 0xAAE JUMPI PUSH1 0x0 DUP1 REVERT JUMPDEST POP CALLDATALOAD PUSH1 0x1 PUSH1 0x1 PUSH1 0xA0 SHL SUB AND PUSH2 0x22AE JUMP JUMPDEST PUSH1 0x40 DUP1 MLOAD SWAP5 ISZERO ISZERO DUP6 MSTORE SWAP3 ISZERO ISZERO PUSH1 0x20 DUP6 ADD MSTORE SWAP1 ISZERO ISZERO DUP4 DUP4 ADD MSTORE ISZERO ISZERO PUSH1 0x60 DUP4 ADD MSTORE MLOAD SWAP1 DUP2 SWAP1 SUB PUSH1 0x80 ADD SWAP1 RETURN JUMPDEST PUSH2 0x4A4 PUSH1 0x4 DUP1 CALLDATASIZE SUB PUSH1 0x40 DUP2 LT ISZERO PUSH2 0xAFE JUMPI PUSH1 0x0 DUP1 REVERT JUMPDEST POP DUP1 CALLDATALOAD SWAP1 PUSH1 0x20 ADD CALLDATALOAD PUSH2 0xFFFF AND PUSH2 0x233A JUMP JUMPDEST PUSH2 0x4CC PUSH1 0x4 DUP1 CALLDATASIZE SUB PUSH1 0x40 DUP2 LT ISZERO PUSH2 0xB25 JUMPI PUSH1 0x0 DUP1 REVERT JUMPDEST POP DUP1 CALLDATALOAD PUSH1 0x1 PUSH1 0x1 PUSH1 0xA0 SHL SUB AND SWAP1 PUSH1 0x20 ADD CALLDATALOAD PUSH2 0xFFFF AND PUSH2 0x2346 JUMP JUMPDEST PUSH2 0x4A4 PUSH1 0x4 DUP1 CALLDATASIZE SUB PUSH1 0x40 DUP2 LT ISZERO PUSH2 0xB55 JUMPI PUSH1 0x0 DUP1 REVERT JUMPDEST POP DUP1 CALLDATALOAD SWAP1 PUSH1 0x20 ADD CALLDATALOAD PUSH2 0xFFFF AND PUSH2 0x237F JUMP JUMPDEST PUSH2 0x4CC PUSH2 0x23A3 JUMP JUMPDEST PUSH2 0x57C PUSH2 0x23C7 JUMP JUMPDEST PUSH2 0xA74 PUSH2 0x23D6 JUMP JUMPDEST PUSH2 0x4A4 PUSH1 0x4 DUP1 CALLDATASIZE SUB PUSH1 0x80 DUP2 LT ISZERO PUSH2 0xB94 JUMPI PUSH1 0x0 DUP1 REVERT JUMPDEST PUSH1 0x1 PUSH1 0x1 PUSH1 0xA0 SHL SUB DUP3 CALLDATALOAD DUP2 AND SWAP3 PUSH1 0x20 DUP2 ADD CALLDATALOAD SWAP3 PUSH1 0x40 DUP3 ADD CALLDATALOAD SWAP1 SWAP3 AND SWAP2 DUP2 ADD SWAP1 PUSH1 0x80 DUP2 ADD PUSH1 0x60 DUP3 ADD CALLDATALOAD PUSH1 0x1 PUSH1 0x20 SHL DUP2 GT ISZERO PUSH2 0xBCD JUMPI PUSH1 0x0 DUP1 REVERT JUMPDEST DUP3 ADD DUP4 PUSH1 0x20 DUP3 ADD GT ISZERO PUSH2 0xBDF JUMPI PUSH1 0x0 DUP1 REVERT JUMPDEST DUP1 CALLDATALOAD SWAP1 PUSH1 0x20 ADD SWAP2 DUP5 PUSH1 0x1 DUP4 MUL DUP5 ADD GT PUSH1 0x1 PUSH1 0x20 SHL DUP4 GT OR ISZERO PUSH2 0xC00 JUMPI PUSH1 0x0 DUP1 REVERT JUMPDEST POP SWAP1 SWAP3 POP SWAP1 POP PUSH2 0x23E7 JUMP JUMPDEST PUSH2 0xC37 PUSH1 0x4 DUP1 CALLDATASIZE SUB PUSH1 0x40 DUP2 LT ISZERO PUSH2 0xC21 JUMPI PUSH1 0x0 DUP1 REVERT JUMPDEST POP PUSH1 0x1 PUSH1 0x1 PUSH1 0xA0 SHL SUB DUP2 CALLDATALOAD AND SWAP1 PUSH1 0x20 ADD CALLDATALOAD PUSH2 0x247D JUMP JUMPDEST PUSH1 0x40 DUP1 MLOAD PUSH2 0xFFFF SWAP4 DUP5 AND DUP2 MSTORE SWAP2 SWAP1 SWAP3 AND PUSH1 0x20 DUP3 ADD MSTORE DUP2 MLOAD SWAP1 DUP2 SWAP1 SUB SWAP1 SWAP2 ADD SWAP1 RETURN JUMPDEST PUSH2 0x4CC PUSH2 0x24CC JUMP JUMPDEST PUSH2 0x4CC PUSH1 0x4 DUP1 CALLDATASIZE SUB PUSH1 0x20 DUP2 LT ISZERO PUSH2 0xC76 JUMPI PUSH1 0x0 DUP1 REVERT JUMPDEST POP CALLDATALOAD PUSH1 0x1 PUSH1 0x1 PUSH1 0xA0 SHL SUB AND PUSH2 0x24F0 JUMP JUMPDEST PUSH2 0x4A4 PUSH1 0x4 DUP1 CALLDATASIZE SUB PUSH1 0x20 DUP2 LT ISZERO PUSH2 0xC9C JUMPI PUSH1 0x0 DUP1 REVERT JUMPDEST POP CALLDATALOAD ISZERO ISZERO PUSH2 0x250E JUMP JUMPDEST PUSH2 0x57C PUSH1 0x4 DUP1 CALLDATASIZE SUB PUSH1 0x20 DUP2 LT ISZERO PUSH2 0xCBB JUMPI PUSH1 0x0 DUP1 REVERT JUMPDEST POP CALLDATALOAD PUSH1 0x1 PUSH1 0x1 PUSH1 0xA0 SHL SUB AND PUSH2 0x2614 JUMP JUMPDEST PUSH2 0x4A4 PUSH1 0x4 DUP1 CALLDATASIZE SUB PUSH1 0x80 DUP2 LT ISZERO PUSH2 0xCE1 JUMPI PUSH1 0x0 DUP1 REVERT JUMPDEST POP PUSH1 0x1 PUSH1 0x1 PUSH1 0xA0 SHL SUB DUP2 CALLDATALOAD DUP2 AND SWAP2 PUSH1 0x20 DUP2 ADD CALLDATALOAD SWAP2 PUSH1 0x40 DUP3 ADD CALLDATALOAD AND SWAP1 PUSH1 0x60 ADD CALLDATALOAD PUSH2 0x2658 JUMP JUMPDEST PUSH2 0x4A4 PUSH1 0x4 DUP1 CALLDATASIZE SUB PUSH1 0x20 DUP2 LT ISZERO PUSH2 0xD1B JUMPI PUSH1 0x0 DUP1 REVERT JUMPDEST POP CALLDATALOAD ISZERO ISZERO PUSH2 0x281F JUMP JUMPDEST PUSH2 0x4CC PUSH2 0x29FE JUMP JUMPDEST PUSH2 0x4CC PUSH2 0x2A04 JUMP JUMPDEST PUSH2 0x4E6 PUSH1 0x4 DUP1 CALLDATASIZE SUB PUSH1 0x20 DUP2 LT ISZERO PUSH2 0xD4A JUMPI PUSH1 0x0 DUP1 REVERT JUMPDEST POP CALLDATALOAD PUSH1 0x1 PUSH1 0x1 PUSH1 0xA0 SHL SUB AND PUSH2 0x2A0A JUMP JUMPDEST PUSH2 0x57C PUSH2 0x2A61 JUMP JUMPDEST PUSH2 0x4A4 PUSH1 0x4 DUP1 CALLDATASIZE SUB PUSH1 0x20 DUP2 LT ISZERO PUSH2 0xD78 JUMPI PUSH1 0x0 DUP1 REVERT JUMPDEST POP CALLDATALOAD PUSH1 0x1 PUSH1 0x1 PUSH1 0xA0 SHL SUB AND PUSH2 0x2A70 JUMP JUMPDEST PUSH2 0x57C PUSH1 0x4 DUP1 CALLDATASIZE SUB PUSH1 0x20 DUP2 LT ISZERO PUSH2 0xD9E JUMPI PUSH1 0x0 DUP1 REVERT JUMPDEST POP CALLDATALOAD PUSH1 0x1 PUSH1 0x1 PUSH1 0xA0 SHL SUB AND PUSH2 0x2B3B JUMP JUMPDEST PUSH2 0x4A4 PUSH1 0x4 DUP1 CALLDATASIZE SUB PUSH1 0x40 DUP2 LT ISZERO PUSH2 0xDC4 JUMPI PUSH1 0x0 DUP1 REVERT JUMPDEST POP DUP1 CALLDATALOAD SWAP1 PUSH1 0x20 ADD CALLDATALOAD PUSH2 0xFFFF AND PUSH2 0x2B56 JUMP JUMPDEST PUSH2 0x4A4 PUSH1 0x4 DUP1 CALLDATASIZE SUB PUSH1 0x20 DUP2 LT ISZERO PUSH2 0xDEB JUMPI PUSH1 0x0 DUP1 REVERT JUMPDEST POP CALLDATALOAD PUSH1 0x1 PUSH1 0x1 PUSH1 0xA0 SHL SUB AND PUSH2 0x2DC3 JUMP JUMPDEST PUSH2 0xA74 PUSH1 0x4 DUP1 CALLDATASIZE SUB PUSH1 0x20 DUP2 LT ISZERO PUSH2 0xE11 JUMPI PUSH1 0x0 DUP1 REVERT JUMPDEST POP CALLDATALOAD PUSH1 0x1 PUSH1 0x1 PUSH1 0xA0 SHL SUB AND PUSH2 0x2DEA JUMP JUMPDEST PUSH2 0x4CC PUSH2 0x2E24 JUMP JUMPDEST PUSH2 0x4CC PUSH1 0x4 DUP1 CALLDATASIZE SUB PUSH1 0x20 DUP2 LT ISZERO PUSH2 0xE3F JUMPI PUSH1 0x0 DUP1 REVERT JUMPDEST POP CALLDATALOAD PUSH2 0x2E48 JUMP JUMPDEST PUSH2 0x4E6 PUSH2 0x2E6A JUMP JUMPDEST PUSH2 0x4CC PUSH1 0x4 DUP1 CALLDATASIZE SUB PUSH1 0x20 DUP2 LT ISZERO PUSH2 0xE64 JUMPI PUSH1 0x0 DUP1 REVERT JUMPDEST POP CALLDATALOAD PUSH1 0x1 PUSH1 0x1 PUSH1 0xA0 SHL SUB AND PUSH2 0x2E8E JUMP JUMPDEST PUSH2 0x4A4 PUSH1 0x4 DUP1 CALLDATASIZE SUB PUSH1 0x60 DUP2 LT ISZERO PUSH2 0xE8A JUMPI PUSH1 0x0 DUP1 REVERT JUMPDEST POP DUP1 CALLDATALOAD SWAP1 PUSH1 0x20 DUP2 ADD CALLDATALOAD SWAP1 PUSH1 0x40 ADD CALLDATALOAD PUSH2 0xFFFF AND PUSH2 0x2EAC JUMP JUMPDEST PUSH2 0x4A4 PUSH1 0x4 DUP1 CALLDATASIZE SUB PUSH1 0x60 DUP2 LT ISZERO PUSH2 0xEB7 JUMPI PUSH1 0x0 DUP1 REVERT JUMPDEST POP DUP1 CALLDATALOAD PUSH1 0x1 PUSH1 0x1 PUSH1 0xA0 SHL SUB AND SWAP1 PUSH1 0x20 DUP2 ADD CALLDATALOAD SWAP1 PUSH1 0x40 ADD CALLDATALOAD PUSH2 0xFFFF AND PUSH2 0x30D5 JUMP JUMPDEST PUSH2 0x57C PUSH2 0x30E6 JUMP JUMPDEST PUSH2 0xA74 PUSH2 0x30F5 JUMP JUMPDEST PUSH2 0x4A4 PUSH1 0x4 DUP1 CALLDATASIZE SUB PUSH1 0x20 DUP2 LT ISZERO PUSH2 0xEFD JUMPI PUSH1 0x0 DUP1 REVERT JUMPDEST POP CALLDATALOAD PUSH1 0x1 PUSH1 0x1 PUSH1 0xA0 SHL SUB AND PUSH2 0x3119 JUMP JUMPDEST PUSH2 0x53B PUSH1 0x4 DUP1 CALLDATASIZE SUB PUSH1 0x20 DUP2 LT ISZERO PUSH2 0xF23 JUMPI PUSH1 0x0 DUP1 REVERT JUMPDEST POP CALLDATALOAD PUSH2 0x33E3 JUMP JUMPDEST PUSH2 0xF32 PUSH2 0x341D JUMP JUMPDEST PUSH1 0x40 DUP1 MLOAD PUSH1 0xFF SWAP1 SWAP3 AND DUP3 MSTORE MLOAD SWAP1 DUP2 SWAP1 SUB PUSH1 0x20 ADD SWAP1 RETURN JUMPDEST PUSH2 0x4A4 PUSH1 0x4 DUP1 CALLDATASIZE SUB PUSH1 0x20 DUP2 LT ISZERO PUSH2 0xF5E JUMPI PUSH1 0x0 DUP1 REVERT JUMPDEST POP CALLDATALOAD PUSH1 0x1 PUSH1 0x1 PUSH1 0xA0 SHL SUB AND PUSH2 0x342D JUMP JUMPDEST PUSH2 0x4CC PUSH1 0x4 DUP1 CALLDATASIZE SUB PUSH1 0x40 DUP2 LT ISZERO PUSH2 0xF84 JUMPI PUSH1 0x0 DUP1 REVERT JUMPDEST POP PUSH1 0x1 PUSH1 0x1 PUSH1 0xA0 SHL SUB DUP2 CALLDATALOAD AND SWAP1 PUSH1 0x20 ADD CALLDATALOAD PUSH2 0x34F5 JUMP JUMPDEST PUSH2 0x4A4 PUSH1 0x4 DUP1 CALLDATASIZE SUB PUSH1 0x20 DUP2 LT ISZERO PUSH2 0xFB0 JUMPI PUSH1 0x0 DUP1 REVERT JUMPDEST POP CALLDATALOAD PUSH2 0xFFFF AND PUSH2 0x3530 JUMP JUMPDEST PUSH2 0x4CC PUSH1 0x4 DUP1 CALLDATASIZE SUB PUSH1 0x20 DUP2 LT ISZERO PUSH2 0xFD1 JUMPI PUSH1 0x0 DUP1 REVERT JUMPDEST POP CALLDATALOAD PUSH2 0xFFFF AND PUSH2 0x35C8 JUMP JUMPDEST PUSH2 0x4A4 PUSH1 0x4 DUP1 CALLDATASIZE SUB PUSH1 0x20 DUP2 LT ISZERO PUSH2 0xFF2 JUMPI PUSH1 0x0 DUP1 REVERT JUMPDEST POP CALLDATALOAD PUSH2 0x35DA JUMP JUMPDEST PUSH2 0x4A4 PUSH1 0x4 DUP1 CALLDATASIZE SUB PUSH1 0x20 DUP2 LT ISZERO PUSH2 0x100F JUMPI PUSH1 0x0 DUP1 REVERT JUMPDEST POP CALLDATALOAD PUSH1 0x1 PUSH1 0x1 PUSH1 0xA0 SHL SUB AND PUSH2 0x3667 JUMP JUMPDEST PUSH2 0x4CC PUSH2 0x3681 JUMP JUMPDEST PUSH2 0x57C PUSH2 0x36A5 JUMP JUMPDEST PUSH2 0x57C PUSH1 0x4 DUP1 CALLDATASIZE SUB PUSH1 0x20 DUP2 LT ISZERO PUSH2 0x1045 JUMPI PUSH1 0x0 DUP1 REVERT JUMPDEST POP CALLDATALOAD PUSH2 0x36C9 JUMP JUMPDEST PUSH2 0x4A4 PUSH1 0x4 DUP1 CALLDATASIZE SUB PUSH1 0x20 DUP2 LT ISZERO PUSH2 0x1062 JUMPI PUSH1 0x0 DUP1 REVERT JUMPDEST POP CALLDATALOAD PUSH2 0x36F0 JUMP JUMPDEST PUSH2 0x1072 CALLER PUSH2 0x2DEA JUMP JUMPDEST ISZERO PUSH2 0x107C JUMPI PUSH1 0x0 DUP1 REVERT JUMPDEST CALLER PUSH1 0x0 SWAP1 DUP2 MSTORE PUSH1 0x6 PUSH1 0x20 MSTORE PUSH1 0x40 DUP2 KECCAK256 PUSH1 0x4 DUP2 ADD SLOAD SWAP1 SWAP2 DUP4 ISZERO SWAP2 PUSH2 0x10A4 SWAP2 PUSH4 0xFFFFFFFF PUSH2 0x381A AND JUMP JUMPDEST ISZERO ISZERO EQ ISZERO PUSH2 0x10B2 JUMPI POP PUSH2 0x1107 JUMP JUMPDEST PUSH1 0x4 DUP2 ADD SLOAD PUSH2 0x10C8 SWAP1 PUSH1 0x0 PUSH4 0xFFFFFFFF PUSH2 0x3827 AND JUMP JUMPDEST PUSH1 0x4 DUP3 ADD SSTORE PUSH1 0x40 DUP1 MLOAD DUP4 ISZERO ISZERO DUP2 MSTORE SWAP1 MLOAD CALLER SWAP2 PUSH32 0xCB9D7989E6D845AB7F3F16F57405FB85976D320AA7C3BA2705EDDD52CA09154E SWAP2 SWAP1 DUP2 SWAP1 SUB PUSH1 0x20 ADD SWAP1 LOG2 POP JUMPDEST POP JUMP JUMPDEST PUSH1 0x1 PUSH1 0x1 PUSH1 0xA0 SHL SUB DUP2 AND PUSH1 0x0 SWAP1 DUP2 MSTORE PUSH1 0x6 PUSH1 0x20 MSTORE PUSH1 0x40 SWAP1 KECCAK256 PUSH1 0xB ADD SLOAD JUMPDEST SWAP2 SWAP1 POP JUMP JUMPDEST PUSH1 0x0 PUSH32 0x0 PUSH4 0xFFFFFFFF AND TIMESTAMP DUP2 PUSH2 0x115D JUMPI INVALID JUMPDEST DIV SWAP1 POP SWAP1 JUMP JUMPDEST PUSH1 0x5 SLOAD PUSH2 0xFFFF AND DUP2 JUMP JUMPDEST CALLER PUSH1 0x0 SWAP1 DUP2 MSTORE PUSH1 0x6 PUSH1 0x20 MSTORE PUSH1 0x40 SWAP1 KECCAK256 SLOAD PUSH2 0x1186 JUMPI PUSH1 0x0 DUP1 REVERT JUMPDEST CALLER PUSH1 0x0 SWAP1 DUP2 MSTORE PUSH1 0x6 PUSH1 0x20 MSTORE PUSH1 0x40 DUP2 KECCAK256 SWAP1 PUSH1 0x1 PUSH2 0x11A0 PUSH2 0x112C JUMP JUMPDEST PUSH1 0x1 DUP5 ADD SLOAD SWAP2 SWAP1 SUB SWAP2 POP PUSH2 0xFFFF DUP1 DUP4 AND PUSH3 0x10000 SWAP1 SWAP3 DIV AND GT DUP1 ISZERO SWAP1 PUSH2 0x11D3 JUMPI POP PUSH1 0x1 DUP3 ADD SLOAD PUSH3 0x10000 SWAP1 DIV PUSH2 0xFFFF AND ISZERO ISZERO JUMPDEST ISZERO PUSH2 0x11FC JUMPI PUSH1 0x1 DUP3 ADD DUP1 SLOAD PUSH1 0x1 PUSH1 0x20 SHL PUSH2 0xFFFF PUSH3 0x10000 DUP4 DIV AND MUL PUSH2 0xFFFF PUSH1 0x20 SHL NOT SWAP1 SWAP2 AND OR SWAP1 SSTORE JUMPDEST PUSH2 0x1205 CALLER PUSH2 0x3834 JUMP JUMPDEST POP POP JUMP JUMPDEST PUSH1 0x1 PUSH1 0x1 PUSH1 0xA0 SHL SUB AND PUSH1 0x0 SWAP1 DUP2 MSTORE PUSH1 0x6 PUSH1 0x20 MSTORE PUSH1 0x40 SWAP1 KECCAK256 SLOAD SWAP1 JUMP JUMPDEST PUSH32 0x0 DUP2 JUMP JUMPDEST PUSH1 0xE SSTORE JUMP JUMPDEST PUSH1 0xD SLOAD PUSH1 0x1 PUSH1 0x1 PUSH1 0xA0 SHL SUB AND DUP2 JUMP JUMPDEST PUSH1 0x4 SLOAD PUSH1 0x1 PUSH1 0x80 SHL SWAP1 DIV PUSH1 0x1 PUSH1 0x1 PUSH1 0x80 SHL SUB AND DUP2 JUMP JUMPDEST PUSH32 0x0 DUP2 JUMP JUMPDEST PUSH1 0x1E DUP2 JUMP JUMPDEST CALLER PUSH1 0x0 SWAP1 DUP2 MSTORE PUSH1 0x6 PUSH1 0x20 MSTORE PUSH1 0x40 SWAP1 KECCAK256 SLOAD PUSH2 0x12B4 JUMPI PUSH1 0x0 DUP1 REVERT JUMPDEST PUSH1 0x0 PUSH2 0x12BE PUSH2 0x112C JUMP JUMPDEST CALLER PUSH1 0x0 SWAP1 DUP2 MSTORE PUSH1 0x6 PUSH1 0x20 MSTORE PUSH1 0x40 DUP2 KECCAK256 SWAP2 SWAP3 POP PUSH1 0x1 DUP4 ADD SWAP2 SWAP1 PUSH2 0x12F4 PUSH2 0x12E4 DUP4 DUP7 DUP7 PUSH2 0x3A19 JUMP JUMPDEST PUSH2 0x12EF DUP5 DUP8 DUP9 PUSH2 0x3A19 JUMP JUMPDEST PUSH2 0x3AAE JUMP JUMPDEST DUP3 SLOAD SWAP1 SWAP2 POP PUSH2 0x1309 SWAP1 DUP3 PUSH4 0xFFFFFFFF PUSH2 0x3AC5 AND JUMP JUMPDEST DUP6 GT ISZERO PUSH2 0x1315 JUMPI PUSH1 0x0 DUP1 REVERT JUMPDEST DUP2 SLOAD DUP6 SWAP1 SUB DUP3 SSTORE PUSH2 0x132A DUP3 PUSH1 0x0 DUP8 SWAP1 SUB PUSH2 0x3ADA JUMP JUMPDEST PUSH2 0x1364 PUSH1 0x1 PUSH1 0x1 PUSH1 0xA0 SHL SUB PUSH32 0x0 AND CALLER DUP8 PUSH4 0xFFFFFFFF PUSH2 0x3B42 AND JUMP JUMPDEST PUSH1 0x40 DUP1 MLOAD DUP7 DUP2 MSTORE SWAP1 MLOAD CALLER SWAP2 PUSH32 0x7084F5476618D8E60B11EF0D7D3F06914655ADB8793E28FF7F018D4C76D505D5 SWAP2 SWAP1 DUP2 SWAP1 SUB PUSH1 0x20 ADD SWAP1 LOG2 POP POP POP POP POP JUMP JUMPDEST PUSH1 0x4 SLOAD PUSH1 0x1 PUSH1 0x1 PUSH1 0x80 SHL SUB AND DUP2 JUMP JUMPDEST PUSH2 0x13B8 PUSH2 0x23D6 JUMP JUMPDEST PUSH2 0x13C1 JUMPI PUSH1 0x0 DUP1 REVERT JUMPDEST PUSH1 0xC SLOAD PUSH1 0x1 PUSH1 0x1 PUSH1 0xA0 SHL SUB AND ISZERO PUSH2 0x13D7 JUMPI PUSH1 0x0 DUP1 REVERT JUMPDEST ADDRESS PUSH1 0x1 PUSH1 0x1 PUSH1 0xA0 SHL SUB AND DUP2 PUSH1 0x1 PUSH1 0x1 PUSH1 0xA0 SHL SUB AND PUSH4 0xE2FDCC17 PUSH1 0x40 MLOAD DUP2 PUSH4 0xFFFFFFFF AND PUSH1 0xE0 SHL DUP2 MSTORE PUSH1 0x4 ADD PUSH1 0x20 PUSH1 0x40 MLOAD DUP1 DUP4 SUB DUP2 DUP7 DUP1 EXTCODESIZE ISZERO DUP1 ISZERO PUSH2 0x141A JUMPI PUSH1 0x0 DUP1 REVERT JUMPDEST POP GAS STATICCALL ISZERO DUP1 ISZERO PUSH2 0x142E JUMPI RETURNDATASIZE PUSH1 0x0 DUP1 RETURNDATACOPY RETURNDATASIZE PUSH1 0x0 REVERT JUMPDEST POP POP POP POP PUSH1 0x40 MLOAD RETURNDATASIZE PUSH1 0x20 DUP2 LT ISZERO PUSH2 0x1444 JUMPI PUSH1 0x0 DUP1 REVERT JUMPDEST POP MLOAD PUSH1 0x1 PUSH1 0x1 PUSH1 0xA0 SHL SUB AND EQ PUSH2 0x1459 JUMPI PUSH1 0x0 DUP1 REVERT JUMPDEST PUSH1 0xC DUP1 SLOAD PUSH1 0x1 PUSH1 0x1 PUSH1 0xA0 SHL SUB NOT AND PUSH1 0x1 PUSH1 0x1 PUSH1 0xA0 SHL SUB SWAP3 SWAP1 SWAP3 AND SWAP2 SWAP1 SWAP2 OR SWAP1 SSTORE JUMP JUMPDEST PUSH32 0x0 DUP2 JUMP JUMPDEST PUSH32 0x0 DUP2 JUMP JUMPDEST PUSH2 0x14CB PUSH2 0x23D6 JUMP JUMPDEST PUSH2 0x14D4 JUMPI PUSH1 0x0 DUP1 REVERT JUMPDEST PUSH1 0xD SLOAD PUSH1 0x1 PUSH1 0x1 PUSH1 0xA0 SHL SUB AND ISZERO DUP1 PUSH2 0x1509 JUMPI POP PUSH32 0x0 JUMPDEST PUSH2 0x1512 JUMPI PUSH1 0x0 DUP1 REVERT JUMPDEST ADDRESS PUSH1 0x1 PUSH1 0x1 PUSH1 0xA0 SHL SUB AND DUP2 PUSH1 0x1 PUSH1 0x1 PUSH1 0xA0 SHL SUB AND PUSH4 0xE2FDCC17 PUSH1 0x40 MLOAD DUP2 PUSH4 0xFFFFFFFF AND PUSH1 0xE0 SHL DUP2 MSTORE PUSH1 0x4 ADD PUSH1 0x20 PUSH1 0x40 MLOAD DUP1 DUP4 SUB DUP2 DUP7 DUP1 EXTCODESIZE ISZERO DUP1 ISZERO PUSH2 0x1555 JUMPI PUSH1 0x0 DUP1 REVERT JUMPDEST POP GAS STATICCALL ISZERO DUP1 ISZERO PUSH2 0x1569 JUMPI RETURNDATASIZE PUSH1 0x0 DUP1 RETURNDATACOPY RETURNDATASIZE PUSH1 0x0 REVERT JUMPDEST POP POP POP POP PUSH1 0x40 MLOAD RETURNDATASIZE PUSH1 0x20 DUP2 LT ISZERO PUSH2 0x157F JUMPI PUSH1 0x0 DUP1 REVERT JUMPDEST POP MLOAD PUSH1 0x1 PUSH1 0x1 PUSH1 0xA0 SHL SUB AND EQ PUSH2 0x1594 JUMPI PUSH1 0x0 DUP1 REVERT JUMPDEST PUSH1 0xD DUP1 SLOAD PUSH1 0x1 PUSH1 0x1 PUSH1 0xA0 SHL SUB NOT AND PUSH1 0x1 PUSH1 0x1 PUSH1 0xA0 SHL SUB SWAP3 SWAP1 SWAP3 AND SWAP2 SWAP1 SWAP2 OR SWAP1 SSTORE JUMP JUMPDEST PUSH32 0x0 DUP2 JUMP JUMPDEST PUSH1 0x5 SLOAD PUSH2 0xFFFF AND PUSH2 0x15EA JUMPI PUSH1 0x0 DUP1 REVERT JUMPDEST CALLER PUSH1 0x0 SWAP1 DUP2 MSTORE PUSH1 0x8 PUSH1 0x20 SWAP1 DUP2 MSTORE PUSH1 0x40 DUP1 DUP4 KECCAK256 SLOAD PUSH1 0x1 PUSH1 0x1 PUSH1 0xA0 SHL SUB AND DUP1 DUP5 MSTORE PUSH1 0x6 SWAP1 SWAP3 MSTORE SWAP1 SWAP2 KECCAK256 DUP1 SLOAD PUSH2 0x164E JUMPI PUSH1 0x40 MLOAD PUSH3 0x461BCD PUSH1 0xE5 SHL DUP2 MSTORE PUSH1 0x4 ADD DUP1 DUP1 PUSH1 0x20 ADD DUP3 DUP2 SUB DUP3 MSTORE PUSH1 0x2D DUP2 MSTORE PUSH1 0x20 ADD DUP1 PUSH2 0x59BB PUSH1 0x2D SWAP2 CODECOPY PUSH1 0x40 ADD SWAP2 POP POP PUSH1 0x40 MLOAD DUP1 SWAP2 SUB SWAP1 REVERT JUMPDEST CALLER ORIGIN EQ PUSH2 0x168C JUMPI PUSH1 0x40 MLOAD PUSH3 0x461BCD PUSH1 0xE5 SHL DUP2 MSTORE PUSH1 0x4 ADD DUP1 DUP1 PUSH1 0x20 ADD DUP3 DUP2 SUB DUP3 MSTORE PUSH1 0x33 DUP2 MSTORE PUSH1 0x20 ADD DUP1 PUSH2 0x5A5F PUSH1 0x33 SWAP2 CODECOPY PUSH1 0x40 ADD SWAP2 POP POP PUSH1 0x40 MLOAD DUP1 SWAP2 SUB SWAP1 REVERT JUMPDEST PUSH1 0x0 PUSH2 0x1697 DUP4 PUSH2 0x2A0A JUMP JUMPDEST SWAP1 POP PUSH2 0x16A2 DUP4 PUSH2 0x3834 JUMP JUMPDEST PUSH1 0x0 PUSH2 0x16AC PUSH2 0x112C JUMP JUMPDEST PUSH1 0x1 DUP5 DUP2 ADD SLOAD SWAP2 SWAP3 POP DUP3 ADD SWAP1 PUSH2 0xFFFF DUP1 DUP4 AND PUSH3 0x10000 SWAP1 SWAP3 DIV AND EQ ISZERO PUSH2 0x16D6 JUMPI POP POP POP POP POP PUSH2 0x186A JUMP JUMPDEST PUSH1 0x0 PUSH2 0x16E3 DUP6 DUP5 DUP5 PUSH2 0x3A19 JUMP JUMPDEST SWAP1 POP PUSH1 0x0 DUP2 GT PUSH2 0x16F2 JUMPI PUSH1 0x0 DUP1 REVERT JUMPDEST PUSH2 0xFFFF DUP3 DUP2 AND PUSH1 0x0 DUP2 DUP2 MSTORE PUSH1 0x9 PUSH1 0x20 MSTORE PUSH1 0x40 SWAP1 KECCAK256 DUP1 SLOAD DUP5 ADD SWAP1 SSTORE PUSH1 0x1 DUP8 ADD DUP1 SLOAD PUSH3 0x10000 DUP1 DUP3 DIV SWAP1 SWAP5 AND PUSH2 0xFFFF NOT SWAP1 SWAP2 AND OR PUSH4 0xFFFF0000 NOT AND SWAP3 SWAP1 SWAP2 MUL SWAP2 SWAP1 SWAP2 OR SWAP1 SSTORE PUSH2 0x173F DUP6 DUP4 PUSH2 0x3BD7 JUMP JUMPDEST DUP3 PUSH2 0xFFFF AND DUP5 PUSH2 0xFFFF AND LT ISZERO PUSH2 0x17AF JUMPI PUSH1 0x40 DUP1 MLOAD DUP1 DUP3 ADD SWAP1 SWAP2 MSTORE PUSH2 0xFFFF PUSH1 0x1 DUP1 DUP8 ADD DUP3 AND DUP4 MSTORE DUP6 DUP3 AND PUSH1 0x20 DUP1 DUP6 ADD SWAP2 DUP3 MSTORE PUSH1 0xA DUP11 ADD DUP1 SLOAD SWAP4 DUP5 ADD DUP2 SSTORE PUSH1 0x0 SWAP1 DUP2 MSTORE KECCAK256 SWAP4 MLOAD SWAP4 SWAP1 SWAP2 ADD DUP1 SLOAD SWAP2 MLOAD DUP4 AND PUSH3 0x10000 MUL PUSH4 0xFFFF0000 NOT SWAP5 SWAP1 SWAP4 AND PUSH2 0xFFFF NOT SWAP1 SWAP3 AND SWAP2 SWAP1 SWAP2 OR SWAP3 SWAP1 SWAP3 AND OR SWAP1 SSTORE JUMPDEST PUSH1 0xB SLOAD PUSH1 0x40 DUP1 MLOAD PUSH4 0xB438C4CD PUSH1 0xE0 SHL DUP2 MSTORE PUSH1 0x1 PUSH1 0x1 PUSH1 0xA0 SHL SUB DUP10 DUP2 AND PUSH1 0x4 DUP4 ADD MSTORE PUSH2 0xFFFF DUP7 AND PUSH1 0x24 DUP4 ADD MSTORE SWAP2 MLOAD SWAP2 SWAP1 SWAP3 AND SWAP2 PUSH4 0xB438C4CD SWAP2 PUSH1 0x44 DUP1 DUP4 ADD SWAP3 PUSH1 0x0 SWAP3 SWAP2 SWAP1 DUP3 SWAP1 SUB ADD DUP2 DUP4 DUP8 DUP1 EXTCODESIZE ISZERO DUP1 ISZERO PUSH2 0x1807 JUMPI PUSH1 0x0 DUP1 REVERT JUMPDEST POP GAS CALL ISZERO DUP1 ISZERO PUSH2 0x181B JUMPI RETURNDATASIZE PUSH1 0x0 DUP1 RETURNDATACOPY RETURNDATASIZE PUSH1 0x0 REVERT JUMPDEST POP POP PUSH1 0x40 DUP1 MLOAD DUP5 DUP2 MSTORE SWAP1 MLOAD PUSH2 0xFFFF DUP7 AND SWAP4 POP PUSH1 0x1 PUSH1 0x1 PUSH1 0xA0 SHL SUB DUP11 AND SWAP3 POP PUSH32 0x6E826CFD4B2F0D3E70085110FF45FC6023AAA1EF2CD87F58F574AEE310489EBC SWAP2 DUP2 SWAP1 SUB PUSH1 0x20 ADD SWAP1 LOG3 POP POP POP POP POP POP JUMPDEST JUMP JUMPDEST PUSH1 0x1 PUSH1 0x1 PUSH1 0xA0 SHL SUB DUP3 AND PUSH1 0x0 SWAP1 DUP2 MSTORE PUSH1 0x6 PUSH1 0x20 MSTORE PUSH1 0x40 DUP2 KECCAK256 JUMPDEST PUSH1 0xA DUP2 ADD SLOAD DUP3 LT ISZERO PUSH2 0x18D1 JUMPI DUP1 PUSH1 0xA ADD DUP3 DUP2 SLOAD DUP2 LT PUSH2 0x18A0 JUMPI INVALID JUMPDEST PUSH1 0x0 SWAP2 DUP3 MSTORE PUSH1 0x20 SWAP1 SWAP2 KECCAK256 ADD SLOAD PUSH2 0xFFFF PUSH3 0x10000 SWAP1 SWAP2 DIV DUP2 AND SWAP1 DUP5 AND GT PUSH2 0x18C6 JUMPI POP PUSH2 0x18D3 JUMP JUMPDEST PUSH1 0x1 SWAP1 SWAP2 ADD SWAP1 PUSH2 0x1885 JUMP JUMPDEST POP JUMPDEST SWAP3 SWAP2 POP POP JUMP JUMPDEST PUSH1 0x0 PUSH1 0x60 PUSH1 0x0 DUP6 PUSH2 0xFFFF AND GT PUSH2 0x18EE JUMPI PUSH1 0x0 DUP1 REVERT JUMPDEST PUSH1 0x7 SLOAD DUP1 DUP6 LT PUSH2 0x18FD JUMPI PUSH1 0x0 DUP1 REVERT JUMPDEST DUP4 ISZERO DUP1 ISZERO SWAP1 PUSH2 0x190D JUMPI POP DUP1 DUP5 DUP7 ADD LT JUMPDEST ISZERO PUSH2 0x1917 JUMPI POP DUP4 DUP4 ADD JUMPDEST DUP5 DUP2 SUB PUSH8 0xFFFFFFFFFFFFFFFF DUP2 GT DUP1 ISZERO PUSH2 0x1930 JUMPI PUSH1 0x0 DUP1 REVERT JUMPDEST POP PUSH1 0x40 MLOAD SWAP1 DUP1 DUP3 MSTORE DUP1 PUSH1 0x20 MUL PUSH1 0x20 ADD DUP3 ADD PUSH1 0x40 MSTORE DUP1 ISZERO PUSH2 0x196A JUMPI DUP2 PUSH1 0x20 ADD JUMPDEST PUSH2 0x1957 PUSH2 0x5881 JUMP JUMPDEST DUP2 MSTORE PUSH1 0x20 ADD SWAP1 PUSH1 0x1 SWAP1 SUB SWAP1 DUP2 PUSH2 0x194F JUMPI SWAP1 POP JUMPDEST POP PUSH1 0x0 SWAP4 POP SWAP2 POP DUP3 DUP1 PUSH2 0x197B PUSH2 0x112C JUMP JUMPDEST SWAP1 POP PUSH1 0x0 PUSH2 0x1993 PUSH2 0xFFFF DUP4 AND DUP11 PUSH4 0xFFFFFFFF PUSH2 0x3CA4 AND JUMP JUMPDEST SWAP1 POP DUP8 JUMPDEST DUP5 DUP2 LT ISZERO PUSH2 0x1A91 JUMPI PUSH1 0x0 PUSH1 0x7 DUP3 DUP2 SLOAD DUP2 LT PUSH2 0x19AE JUMPI INVALID JUMPDEST PUSH1 0x0 SWAP2 DUP3 MSTORE PUSH1 0x20 DUP1 DUP4 KECCAK256 SWAP1 SWAP2 ADD SLOAD PUSH1 0x1 PUSH1 0x1 PUSH1 0xA0 SHL SUB AND DUP1 DUP4 MSTORE PUSH1 0x6 SWAP1 SWAP2 MSTORE PUSH1 0x40 SWAP1 SWAP2 KECCAK256 PUSH1 0x1 DUP2 ADD SLOAD SWAP2 SWAP3 POP SWAP1 PUSH2 0xFFFF SWAP1 DUP2 AND SWAP1 DUP7 AND EQ DUP1 ISZERO SWAP1 PUSH2 0x1A03 JUMPI POP PUSH1 0x1 DUP2 ADD SLOAD PUSH2 0xFFFF DUP7 DUP2 AND PUSH3 0x10000 SWAP1 SWAP3 DIV AND EQ ISZERO JUMPDEST ISZERO PUSH2 0x1A0F JUMPI POP POP PUSH2 0x1A89 JUMP JUMPDEST PUSH1 0x0 PUSH2 0x1A1C DUP3 DUP8 DUP8 PUSH2 0x3A19 JUMP JUMPDEST SWAP1 POP DUP1 ISZERO PUSH2 0x1A85 JUMPI DUP3 PUSH1 0x1 PUSH1 0x1 PUSH1 0xA0 SHL SUB AND DUP10 DUP9 DUP2 MLOAD DUP2 LT PUSH2 0x1A3A JUMPI INVALID JUMPDEST PUSH1 0x20 MUL PUSH1 0x20 ADD ADD MLOAD PUSH1 0x0 PUSH1 0x2 DUP2 LT PUSH2 0x1A4E JUMPI INVALID JUMPDEST PUSH1 0x20 MUL ADD MSTORE DUP9 MLOAD PUSH1 0x1 DUP9 ADD SWAP8 DUP3 SWAP2 DUP12 SWAP2 SWAP1 DUP2 LT PUSH2 0x1A67 JUMPI INVALID JUMPDEST PUSH1 0x20 MUL PUSH1 0x20 ADD ADD MLOAD PUSH1 0x1 PUSH1 0x2 DUP2 LT PUSH2 0x1A7B JUMPI INVALID JUMPDEST PUSH1 0x20 MUL ADD MSTORE SWAP9 DUP10 ADD SWAP9 JUMPDEST POP POP POP JUMPDEST PUSH1 0x1 ADD PUSH2 0x1997 JUMP JUMPDEST POP DUP3 DUP6 MSTORE POP POP POP POP SWAP4 POP SWAP4 SWAP2 POP POP JUMP JUMPDEST PUSH1 0xD SLOAD PUSH1 0x0 SWAP1 PUSH1 0x1 PUSH1 0x1 PUSH1 0xA0 SHL SUB AND CALLER EQ PUSH2 0x1ABB JUMPI PUSH1 0x0 DUP1 REVERT JUMPDEST PUSH1 0x1 PUSH1 0x1 PUSH1 0xA0 SHL SUB DUP4 AND PUSH1 0x0 SWAP1 DUP2 MSTORE PUSH1 0x6 PUSH1 0x20 MSTORE PUSH1 0x40 SWAP1 KECCAK256 PUSH1 0x4 DUP2 ADD SLOAD DUP4 ISZERO ISZERO SWAP1 PUSH2 0x1AED SWAP1 PUSH1 0x2 PUSH4 0xFFFFFFFF PUSH2 0x381A AND JUMP JUMPDEST ISZERO ISZERO EQ ISZERO PUSH2 0x1B00 JUMPI PUSH1 0x2 ADD SLOAD SWAP1 POP PUSH2 0x18D3 JUMP JUMPDEST PUSH1 0x4 DUP2 ADD SLOAD PUSH2 0x1B16 SWAP1 PUSH1 0x2 PUSH4 0xFFFFFFFF PUSH2 0x3827 AND JUMP JUMPDEST PUSH1 0x4 DUP3 ADD SSTORE PUSH1 0x40 DUP1 MLOAD DUP5 ISZERO ISZERO DUP2 MSTORE SWAP1 MLOAD PUSH1 0x1 PUSH1 0x1 PUSH1 0xA0 SHL SUB DUP7 AND SWAP2 PUSH32 0xDC3BBCEF212790FF00528DC9EF9C9B7638F290EFD77F50F50C067BB14D7F9C11 SWAP2 SWAP1 DUP2 SWAP1 SUB PUSH1 0x20 ADD SWAP1 LOG2 PUSH1 0x2 ADD SLOAD SWAP4 SWAP3 POP POP POP JUMP JUMPDEST PUSH1 0x2 SLOAD PUSH1 0x1 PUSH1 0x1 PUSH1 0xA0 SHL SUB AND DUP2 JUMP JUMPDEST PUSH1 0x1 PUSH1 0x1 PUSH1 0xA0 SHL SUB DUP3 AND PUSH1 0x0 SWAP1 DUP2 MSTORE PUSH1 0x6 PUSH1 0x20 MSTORE PUSH1 0x40 DUP2 KECCAK256 PUSH1 0xB DUP2 ADD DUP1 SLOAD DUP4 SWAP2 SWAP1 DUP6 SWAP1 DUP2 LT PUSH2 0x1BA1 JUMPI INVALID JUMPDEST SWAP1 PUSH1 0x0 MSTORE PUSH1 0x20 PUSH1 0x0 KECCAK256 ADD SWAP1 POP PUSH1 0x0 PUSH2 0x1BC0 DUP4 PUSH2 0x1BBB PUSH2 0x112C JUMP JUMPDEST PUSH2 0x3CBA JUMP JUMPDEST SWAP1 POP PUSH2 0x1BCC DUP3 DUP3 PUSH2 0x3D04 JUMP JUMPDEST SWAP7 SWAP6 POP POP POP POP POP POP JUMP JUMPDEST PUSH1 0x6 PUSH1 0x20 DUP2 SWAP1 MSTORE PUSH1 0x0 SWAP2 DUP3 MSTORE PUSH1 0x40 SWAP1 SWAP2 KECCAK256 DUP1 SLOAD PUSH1 0x1 DUP3 ADD SLOAD PUSH1 0x2 DUP4 ADD SLOAD PUSH1 0x3 DUP5 ADD SLOAD PUSH1 0x4 DUP6 ADD SLOAD PUSH1 0x5 DUP7 ADD SLOAD SWAP7 DUP7 ADD SLOAD PUSH1 0x7 DUP8 ADD SLOAD PUSH1 0x8 DUP9 ADD SLOAD PUSH1 0x9 SWAP1 SWAP9 ADD SLOAD SWAP7 SWAP9 PUSH2 0xFFFF DUP1 DUP9 AND SWAP10 PUSH3 0x10000 DUP1 DUP11 DIV DUP4 AND SWAP11 PUSH1 0x1 PUSH1 0x20 SHL DUP12 DIV DUP5 AND SWAP11 PUSH1 0x1 PUSH1 0x30 SHL SWAP1 DIV DUP5 AND SWAP10 SWAP9 SWAP4 DUP5 AND SWAP8 PUSH1 0x1 PUSH1 0x1 PUSH1 0xA0 SHL SUB SWAP3 SWAP1 SWAP5 DIV SWAP2 SWAP1 SWAP2 AND SWAP6 SWAP3 SWAP5 SWAP2 SWAP1 DUP15 JUMP JUMPDEST PUSH1 0x1 PUSH1 0x1 PUSH1 0xA0 SHL SUB DUP3 AND PUSH1 0x0 SWAP1 DUP2 MSTORE PUSH1 0x6 PUSH1 0x20 MSTORE PUSH1 0x40 DUP2 KECCAK256 PUSH1 0xB ADD DUP1 SLOAD DUP3 SWAP2 DUP3 SWAP2 DUP3 SWAP2 DUP3 SWAP2 DUP8 SWAP1 DUP2 LT PUSH2 0x1C89 JUMPI INVALID JUMPDEST PUSH1 0x0 SWAP2 DUP3 MSTORE PUSH1 0x20 SWAP1 SWAP2 KECCAK256 ADD SLOAD PUSH2 0xFFFF DUP1 DUP3 AND SWAP10 PUSH3 0x10000 DUP4 DIV DUP3 AND SWAP10 POP PUSH1 0x1 PUSH1 0x20 SHL DUP4 DIV SWAP1 SWAP2 AND SWAP8 POP PUSH1 0x1 PUSH1 0x30 SHL SWAP1 SWAP2 DIV PUSH1 0x1 PUSH1 0x1 PUSH1 0x80 SHL SUB AND SWAP6 POP SWAP4 POP POP POP POP JUMP JUMPDEST PUSH1 0xC SLOAD PUSH1 0x1 PUSH1 0x1 PUSH1 0xA0 SHL SUB AND DUP2 JUMP JUMPDEST PUSH1 0x1 PUSH1 0x1 PUSH1 0xA0 SHL SUB DUP3 AND PUSH1 0x0 SWAP1 DUP2 MSTORE PUSH1 0x6 PUSH1 0x20 MSTORE PUSH1 0x40 DUP2 KECCAK256 DUP2 PUSH2 0x1CFC PUSH2 0x112C JUMP JUMPDEST SWAP1 POP PUSH1 0x0 PUSH2 0x1D14 PUSH2 0xFFFF DUP4 AND DUP7 PUSH4 0xFFFFFFFF PUSH2 0x3D56 AND JUMP JUMPDEST SWAP1 POP PUSH2 0x1BCC DUP4 DUP4 DUP4 PUSH2 0x3A19 JUMP JUMPDEST PUSH1 0x4 SLOAD PUSH1 0x1 PUSH1 0x1 PUSH1 0x80 SHL SUB PUSH1 0x1 PUSH1 0x80 SHL SWAP1 SWAP2 DIV DUP2 AND PUSH32 0x0 SUB AND SWAP1 JUMP JUMPDEST DUP3 DUP8 ISZERO DUP1 ISZERO SWAP1 PUSH2 0x1D6B JUMPI POP DUP8 DUP7 EQ JUMPDEST DUP1 ISZERO PUSH2 0x1D77 JUMPI POP DUP8 DUP2 LT ISZERO JUMPDEST DUP1 ISZERO PUSH2 0x1D82 JUMPI POP DUP2 DUP2 EQ JUMPDEST PUSH2 0x1D8B JUMPI PUSH1 0x0 DUP1 REVERT JUMPDEST PUSH1 0x0 PUSH1 0x1 PUSH2 0x1D97 PUSH2 0x112C JUMP JUMPDEST SUB SWAP1 POP PUSH1 0x2 DUP2 ADD PUSH1 0x0 DUP1 DUP1 JUMPDEST DUP13 DUP2 LT ISZERO PUSH2 0x2184 JUMPI PUSH1 0x0 DUP15 DUP15 DUP4 DUP2 DUP2 LT PUSH2 0x1DB9 JUMPI INVALID JUMPDEST SWAP1 POP PUSH1 0x20 MUL ADD CALLDATALOAD PUSH1 0x1 PUSH1 0x1 PUSH1 0xA0 SHL SUB AND SWAP1 POP PUSH1 0x0 DUP14 DUP14 DUP5 DUP2 DUP2 LT PUSH2 0x1DD9 JUMPI INVALID JUMPDEST PUSH1 0x20 MUL SWAP2 SWAP1 SWAP2 ADD CALLDATALOAD SWAP2 POP POP DUP4 DUP2 ADD DUP2 ISZERO DUP1 ISZERO SWAP1 PUSH2 0x1DF6 JUMPI POP DUP1 DUP10 LT ISZERO JUMPDEST PUSH2 0x1DFF JUMPI PUSH1 0x0 DUP1 REVERT JUMPDEST PUSH1 0x1 PUSH1 0x1 PUSH1 0xA0 SHL SUB DUP4 AND PUSH1 0x0 SWAP1 DUP2 MSTORE PUSH1 0x6 PUSH1 0x20 MSTORE PUSH1 0x40 SWAP1 KECCAK256 PUSH1 0xB DUP2 ADD SLOAD ISZERO PUSH2 0x1E26 JUMPI PUSH1 0x0 DUP1 REVERT JUMPDEST PUSH1 0x1 PUSH1 0x1 PUSH1 0xA0 SHL SUB DUP5 DUP2 AND PUSH1 0x0 SWAP1 DUP2 MSTORE PUSH1 0x8 PUSH1 0x20 MSTORE PUSH1 0x40 SWAP1 KECCAK256 SLOAD AND ISZERO PUSH2 0x1E7D JUMPI PUSH1 0x40 MLOAD PUSH3 0x461BCD PUSH1 0xE5 SHL DUP2 MSTORE PUSH1 0x4 ADD DUP1 DUP1 PUSH1 0x20 ADD DUP3 DUP2 SUB DUP3 MSTORE PUSH1 0x2D DUP2 MSTORE PUSH1 0x20 ADD DUP1 PUSH2 0x5B0C PUSH1 0x2D SWAP2 CODECOPY PUSH1 0x40 ADD SWAP2 POP POP PUSH1 0x40 MLOAD DUP1 SWAP2 SUB SWAP1 REVERT JUMPDEST PUSH1 0x7 DUP1 SLOAD PUSH1 0x1 DUP2 ADD DUP3 SSTORE PUSH1 0x0 SWAP2 DUP3 MSTORE PUSH32 0xA66CC928B5EDB82AF9BD49922954155AB7B0942694BEA4CE44661D9A8736C688 ADD DUP1 SLOAD PUSH1 0x1 PUSH1 0x1 PUSH1 0xA0 SHL SUB NOT AND PUSH1 0x1 PUSH1 0x1 PUSH1 0xA0 SHL SUB DUP8 DUP2 AND SWAP2 DUP3 OR SWAP1 SWAP3 SSTORE PUSH1 0xB SLOAD PUSH1 0x40 DUP1 MLOAD PUSH4 0x72BE8D8D PUSH1 0xE0 SHL DUP2 MSTORE PUSH1 0x4 DUP2 ADD SWAP4 SWAP1 SWAP4 MSTORE PUSH2 0xFFFF DUP15 AND PUSH1 0x24 DUP5 ADD MSTORE MLOAD SWAP3 AND SWAP3 PUSH4 0x72BE8D8D SWAP3 PUSH1 0x44 DUP1 DUP5 ADD SWAP4 DUP3 SWAP1 SUB ADD DUP2 DUP4 DUP8 DUP1 EXTCODESIZE ISZERO DUP1 ISZERO PUSH2 0x1F13 JUMPI PUSH1 0x0 DUP1 REVERT JUMPDEST POP GAS CALL ISZERO DUP1 ISZERO PUSH2 0x1F27 JUMPI RETURNDATASIZE PUSH1 0x0 DUP1 RETURNDATACOPY RETURNDATASIZE PUSH1 0x0 REVERT JUMPDEST POP POP POP POP JUMPDEST DUP2 DUP7 LT ISZERO PUSH2 0x2130 JUMPI PUSH1 0x0 DUP15 DUP15 DUP9 DUP2 DUP2 LT PUSH2 0x1F42 JUMPI INVALID JUMPDEST SWAP1 POP PUSH1 0x20 MUL ADD CALLDATALOAD SWAP1 POP PUSH1 0x0 DUP14 DUP14 DUP10 DUP2 DUP2 LT PUSH2 0x1F59 JUMPI INVALID JUMPDEST SWAP1 POP PUSH1 0x20 MUL ADD CALLDATALOAD PUSH2 0xFFFF AND SWAP1 POP PUSH32 0x0 DUP3 LT ISZERO DUP1 ISZERO PUSH2 0x1FBE JUMPI POP PUSH32 0x0 PUSH2 0xFFFF AND DUP2 PUSH2 0xFFFF AND LT ISZERO JUMPDEST PUSH2 0x1FC7 JUMPI PUSH1 0x0 DUP1 REVERT JUMPDEST DUP3 SLOAD PUSH2 0x1FD9 SWAP1 DUP4 PUSH4 0xFFFFFFFF PUSH2 0x3D6A AND JUMP JUMPDEST DUP4 SSTORE PUSH1 0x40 DUP1 MLOAD PUSH1 0x80 DUP2 ADD DUP3 MSTORE PUSH2 0xFFFF DUP1 DUP14 AND DUP3 MSTORE PUSH1 0x0 PUSH1 0x20 DUP1 DUP5 ADD DUP3 DUP2 MSTORE DUP7 DUP5 AND SWAP6 DUP6 ADD SWAP6 DUP7 MSTORE PUSH1 0x1 PUSH1 0x1 PUSH1 0x80 SHL SUB DUP1 DUP10 AND PUSH1 0x60 DUP8 ADD SWAP1 DUP2 MSTORE PUSH1 0xB DUP12 ADD DUP1 SLOAD PUSH1 0x1 DUP2 ADD DUP3 SSTORE SWAP1 DUP7 MSTORE SWAP4 SWAP1 SWAP5 KECCAK256 SWAP6 MLOAD SWAP6 SWAP1 SWAP3 ADD DUP1 SLOAD SWAP2 MLOAD SWAP7 MLOAD SWAP4 MLOAD SWAP1 SWAP3 AND PUSH1 0x1 PUSH1 0x30 SHL MUL PUSH1 0x1 PUSH1 0x30 SHL PUSH1 0x1 PUSH1 0xB0 SHL SUB NOT SWAP4 DUP6 AND PUSH1 0x1 PUSH1 0x20 SHL MUL PUSH2 0xFFFF PUSH1 0x20 SHL NOT SWAP8 DUP7 AND PUSH3 0x10000 MUL PUSH4 0xFFFF0000 NOT SWAP8 SWAP1 SWAP7 AND PUSH2 0xFFFF NOT SWAP1 SWAP4 AND SWAP3 SWAP1 SWAP3 OR SWAP6 SWAP1 SWAP6 AND SWAP4 SWAP1 SWAP4 OR SWAP5 SWAP1 SWAP5 AND SWAP2 SWAP1 SWAP2 OR AND OR SWAP1 SSTORE PUSH2 0x2099 DUP10 DUP4 PUSH4 0xFFFFFFFF PUSH2 0x3D6A AND JUMP JUMPDEST PUSH1 0x40 DUP1 MLOAD DUP5 DUP2 MSTORE PUSH2 0xFFFF DUP5 AND PUSH1 0x20 DUP3 ADD MSTORE DUP2 MLOAD SWAP3 SWAP12 POP PUSH1 0x1 PUSH1 0x1 PUSH1 0xA0 SHL SUB DUP10 AND SWAP3 PUSH32 0xEEF72C2775E4E59D04B76FE99649C70B0101DBC951CE46A5A6262A6CBC138E90 SWAP3 SWAP2 DUP2 SWAP1 SUB SWAP1 SWAP2 ADD SWAP1 LOG2 PUSH1 0x40 DUP1 MLOAD DUP4 DUP2 MSTORE PUSH2 0xFFFF DUP1 DUP14 AND PUSH1 0x20 DUP4 ADD MSTORE DUP4 AND DUP2 DUP4 ADD MSTORE SWAP1 MLOAD PUSH1 0x1 PUSH1 0x1 PUSH1 0xA0 SHL SUB DUP9 AND SWAP2 PUSH1 0x0 DUP1 MLOAD PUSH1 0x20 PUSH2 0x5A3F DUP4 CODECOPY DUP2 MLOAD SWAP2 MSTORE SWAP2 SWAP1 DUP2 SWAP1 SUB PUSH1 0x60 ADD SWAP1 LOG2 POP POP PUSH1 0x1 SWAP1 SWAP6 ADD SWAP5 PUSH2 0x1F2C JUMP JUMPDEST DUP1 SLOAD PUSH32 0x0 LT ISZERO PUSH2 0x215E JUMPI PUSH1 0x0 DUP1 REVERT JUMPDEST DUP1 SLOAD PUSH2 0x2174 SWAP1 PUSH1 0xC DUP4 ADD SWAP1 PUSH4 0xFFFFFFFF PUSH2 0x3D7C AND JUMP JUMPDEST POP POP PUSH1 0x1 SWAP1 SWAP3 ADD SWAP2 POP PUSH2 0x1DA3 SWAP1 POP JUMP JUMPDEST POP DUP5 DUP2 EQ PUSH2 0x2191 JUMPI PUSH1 0x0 DUP1 REVERT JUMPDEST PUSH1 0x0 PUSH2 0x219D PUSH1 0xA PUSH2 0x3D87 JUMP JUMPDEST PUSH1 0x1 PUSH1 0x1 PUSH1 0x60 SHL SUB AND SWAP1 POP PUSH2 0x21BB PUSH1 0xA DUP5 DUP4 ADD PUSH4 0xFFFFFFFF PUSH2 0x3D7C AND JUMP JUMPDEST PUSH2 0x21F6 PUSH1 0x1 PUSH1 0x1 PUSH1 0xA0 SHL SUB PUSH32 0x0 AND CALLER ADDRESS DUP7 PUSH4 0xFFFFFFFF PUSH2 0x3D9B AND JUMP JUMPDEST POP POP POP POP POP POP POP POP POP POP POP POP POP POP JUMP JUMPDEST PUSH32 0x0 DUP2 JUMP JUMPDEST PUSH1 0x1 SWAP1 JUMP JUMPDEST PUSH2 0x2237 PUSH2 0x23D6 JUMP JUMPDEST PUSH2 0x2240 JUMPI PUSH1 0x0 DUP1 REVERT JUMPDEST PUSH1 0x0 DUP1 SLOAD PUSH1 0x40 MLOAD PUSH1 0x1 PUSH1 0x1 PUSH1 0xA0 SHL SUB SWAP1 SWAP2 AND SWAP1 PUSH32 0x8BE0079C531659141344CD1FD0A4F28419497F9722A3DAAFE3B4186F6B6457E0 SWAP1 DUP4 SWAP1 LOG3 PUSH1 0x0 DUP1 SLOAD PUSH1 0x1 PUSH1 0x1 PUSH1 0xA0 SHL SUB NOT AND SWAP1 SSTORE JUMP JUMPDEST PUSH32 0x0 DUP2 JUMP JUMPDEST PUSH1 0x1 PUSH1 0x1 PUSH1 0xA0 SHL SUB DUP2 AND PUSH1 0x0 SWAP1 DUP2 MSTORE PUSH1 0x6 PUSH1 0x20 MSTORE PUSH1 0x40 DUP2 KECCAK256 PUSH1 0x4 DUP2 ADD SLOAD DUP3 SWAP2 DUP3 SWAP2 DUP3 SWAP2 SWAP1 PUSH2 0x22E3 SWAP1 PUSH1 0x1 PUSH4 0xFFFFFFFF PUSH2 0x381A AND JUMP JUMPDEST PUSH1 0x4 DUP3 ADD SLOAD SWAP1 SWAP6 POP PUSH2 0x22FC SWAP1 PUSH1 0x0 PUSH4 0xFFFFFFFF PUSH2 0x381A AND JUMP JUMPDEST PUSH1 0x4 DUP3 ADD SLOAD SWAP1 ISZERO SWAP5 POP PUSH2 0x2316 SWAP1 PUSH1 0x2 PUSH4 0xFFFFFFFF PUSH2 0x381A AND JUMP JUMPDEST PUSH1 0x4 DUP3 ADD SLOAD SWAP1 SWAP4 POP PUSH2 0x232F SWAP1 PUSH1 0x3 PUSH4 0xFFFFFFFF PUSH2 0x381A AND JUMP JUMPDEST ISZERO SWAP2 POP POP SWAP2 SWAP4 POP SWAP2 SWAP4 JUMP JUMPDEST PUSH2 0x1205 CALLER CALLER DUP5 DUP5 PUSH2 0x3E31 JUMP JUMPDEST PUSH1 0x1 PUSH1 0x1 PUSH1 0xA0 SHL SUB DUP3 AND PUSH1 0x0 SWAP1 DUP2 MSTORE PUSH1 0x6 PUSH1 0x20 MSTORE PUSH1 0x40 DUP2 KECCAK256 DUP2 PUSH2 0x2367 PUSH2 0x112C JUMP JUMPDEST SWAP1 POP PUSH1 0x0 PUSH2 0x1D14 PUSH2 0xFFFF DUP4 AND DUP7 PUSH4 0xFFFFFFFF PUSH2 0x3CA4 AND JUMP JUMPDEST CALLER PUSH1 0x0 SWAP1 DUP2 MSTORE PUSH1 0x6 PUSH1 0x20 MSTORE PUSH1 0x40 SWAP1 KECCAK256 SLOAD PUSH2 0x2398 JUMPI PUSH1 0x0 DUP1 REVERT JUMPDEST PUSH2 0x1205 CALLER DUP4 DUP4 PUSH2 0x4053 JUMP JUMPDEST PUSH32 0x0 DUP2 JUMP JUMPDEST PUSH1 0x0 SLOAD PUSH1 0x1 PUSH1 0x1 PUSH1 0xA0 SHL SUB AND SWAP1 JUMP JUMPDEST PUSH1 0x0 SLOAD PUSH1 0x1 PUSH1 0x1 PUSH1 0xA0 SHL SUB AND CALLER EQ SWAP1 JUMP JUMPDEST PUSH32 0x0 PUSH1 0x1 PUSH1 0x1 PUSH1 0xA0 SHL SUB AND DUP4 PUSH1 0x1 PUSH1 0x1 PUSH1 0xA0 SHL SUB AND EQ DUP1 ISZERO PUSH2 0x2450 JUMPI POP CALLER PUSH1 0x1 PUSH1 0x1 PUSH1 0xA0 SHL SUB PUSH32 0x0 AND EQ JUMPDEST PUSH2 0x2459 JUMPI PUSH1 0x0 DUP1 REVERT JUMPDEST PUSH1 0x84 CALLDATALOAD PUSH1 0xA4 CALLDATALOAD PUSH1 0x8 PUSH1 0x20 DUP4 SWAP1 SUB MUL SHR PUSH2 0x2474 DUP8 DUP1 DUP9 DUP5 PUSH2 0x3E31 JUMP JUMPDEST POP POP POP POP POP POP POP JUMP JUMPDEST PUSH1 0x1 PUSH1 0x1 PUSH1 0xA0 SHL SUB DUP3 AND PUSH1 0x0 SWAP1 DUP2 MSTORE PUSH1 0x6 PUSH1 0x20 MSTORE PUSH1 0x40 DUP2 KECCAK256 PUSH1 0xA ADD DUP1 SLOAD DUP3 SWAP2 DUP3 SWAP2 DUP6 SWAP1 DUP2 LT PUSH2 0x24A8 JUMPI INVALID JUMPDEST PUSH1 0x0 SWAP2 DUP3 MSTORE PUSH1 0x20 SWAP1 SWAP2 KECCAK256 ADD SLOAD PUSH2 0xFFFF DUP1 DUP3 AND SWAP8 PUSH3 0x10000 SWAP1 SWAP3 DIV AND SWAP6 POP SWAP4 POP POP POP POP JUMP JUMPDEST PUSH32 0x0 DUP2 JUMP JUMPDEST PUSH1 0x1 PUSH1 0x1 PUSH1 0xA0 SHL SUB AND PUSH1 0x0 SWAP1 DUP2 MSTORE PUSH1 0x6 PUSH1 0x20 MSTORE PUSH1 0x40 SWAP1 KECCAK256 PUSH1 0xA ADD SLOAD SWAP1 JUMP JUMPDEST CALLER PUSH1 0x0 SWAP1 DUP2 MSTORE PUSH1 0x6 PUSH1 0x20 MSTORE PUSH1 0x40 SWAP1 KECCAK256 PUSH1 0x4 DUP2 ADD SLOAD DUP3 ISZERO SWAP1 PUSH2 0x2536 SWAP1 PUSH1 0x3 PUSH4 0xFFFFFFFF PUSH2 0x381A AND JUMP JUMPDEST ISZERO ISZERO EQ ISZERO PUSH2 0x2544 JUMPI POP PUSH2 0x1107 JUMP JUMPDEST PUSH1 0x0 PUSH2 0x2550 PUSH1 0xA PUSH2 0x3D87 JUMP JUMPDEST PUSH1 0x1 PUSH1 0x1 PUSH1 0x60 SHL SUB AND SWAP1 POP DUP3 ISZERO PUSH2 0x2592 JUMPI DUP2 SLOAD PUSH2 0x2577 SWAP1 PUSH1 0xC DUP5 ADD SWAP1 PUSH4 0xFFFFFFFF PUSH2 0x3D7C AND JUMP JUMPDEST DUP2 SLOAD PUSH2 0x258D SWAP1 PUSH1 0xA SWAP1 DUP4 ADD PUSH4 0xFFFFFFFF PUSH2 0x3D7C AND JUMP JUMPDEST PUSH2 0x25BC JUMP JUMPDEST PUSH2 0x25A6 PUSH1 0xC DUP4 ADD PUSH1 0x0 PUSH4 0xFFFFFFFF PUSH2 0x3D7C AND JUMP JUMPDEST DUP2 SLOAD PUSH2 0x25BC SWAP1 PUSH1 0xA SWAP1 DUP4 SUB PUSH4 0xFFFFFFFF PUSH2 0x3D7C AND JUMP JUMPDEST PUSH1 0x4 DUP3 ADD SLOAD PUSH2 0x25D2 SWAP1 PUSH1 0x3 PUSH4 0xFFFFFFFF PUSH2 0x3827 AND JUMP JUMPDEST PUSH1 0x4 DUP4 ADD SSTORE PUSH1 0x40 DUP1 MLOAD DUP5 ISZERO ISZERO DUP2 MSTORE SWAP1 MLOAD CALLER SWAP2 PUSH32 0x99113BAA33C79A0D2753E314C495BCB33035F538EDC07D4058823F431514CDAE SWAP2 SWAP1 DUP2 SWAP1 SUB PUSH1 0x20 ADD SWAP1 LOG2 POP POP POP JUMP JUMPDEST PUSH1 0x1 PUSH1 0x1 PUSH1 0xA0 SHL SUB DUP2 AND PUSH1 0x0 SWAP1 DUP2 MSTORE PUSH1 0x6 PUSH1 0x20 MSTORE PUSH1 0x40 DUP2 KECCAK256 PUSH1 0xB DUP2 ADD SLOAD PUSH2 0x263F JUMPI PUSH1 0x0 SWAP2 POP POP PUSH2 0x1127 JUMP JUMPDEST PUSH1 0x3 ADD SLOAD PUSH3 0x10000 SWAP1 DIV PUSH1 0x1 PUSH1 0x1 PUSH1 0xA0 SHL SUB AND SWAP3 SWAP2 POP POP JUMP JUMPDEST PUSH1 0x5 SLOAD PUSH2 0xFFFF AND PUSH2 0x2668 JUMPI PUSH1 0x0 DUP1 REVERT JUMPDEST PUSH1 0xC SLOAD PUSH1 0x1 PUSH1 0x1 PUSH1 0xA0 SHL SUB AND CALLER EQ PUSH2 0x267F JUMPI PUSH1 0x0 DUP1 REVERT JUMPDEST PUSH1 0x0 DUP4 GT PUSH2 0x268C JUMPI PUSH1 0x0 DUP1 REVERT JUMPDEST PUSH1 0x1 PUSH1 0x1 PUSH1 0xA0 SHL SUB DUP5 AND PUSH1 0x0 SWAP1 DUP2 MSTORE PUSH1 0x6 PUSH1 0x20 MSTORE PUSH1 0x40 SWAP1 KECCAK256 DUP1 SLOAD DUP5 LT PUSH2 0x26B1 JUMPI DUP1 SLOAD SWAP4 POP JUMPDEST DUP1 SLOAD DUP5 SWAP1 SUB DUP2 SSTORE DUP4 DUP3 GT ISZERO PUSH2 0x26C4 JUMPI DUP4 SWAP2 POP JUMPDEST PUSH1 0x0 PUSH2 0x26CE PUSH2 0x112C JUMP JUMPDEST SWAP1 POP PUSH1 0x1 DUP2 ADD PUSH1 0x0 PUSH2 0x26E0 DUP5 DUP5 PUSH2 0x3CBA JUMP JUMPDEST SWAP1 POP PUSH1 0x0 DUP1 PUSH1 0x0 DUP1 PUSH2 0x26F4 DUP9 DUP9 DUP9 DUP9 PUSH2 0x4226 JUMP JUMPDEST DUP12 SLOAD SWAP4 SWAP8 POP SWAP2 SWAP6 POP SWAP4 POP SWAP2 POP DUP5 DUP4 ADD SWAP1 DUP2 GT ISZERO PUSH2 0x271E JUMPI PUSH2 0x271E DUP10 DUP11 PUSH1 0x0 ADD SLOAD DUP4 SUB DUP11 DUP10 DUP7 PUSH2 0x43C4 JUMP JUMPDEST DUP4 ISZERO PUSH2 0x275D JUMPI DUP9 SLOAD DUP4 GT PUSH2 0x2733 JUMPI PUSH1 0x0 PUSH2 0x2738 JUMP JUMPDEST DUP9 SLOAD DUP4 SUB JUMPDEST DUP4 DUP6 ADD SUB SWAP1 POP DUP1 DUP10 PUSH1 0x0 ADD SLOAD LT ISZERO PUSH2 0x275D JUMPI DUP9 SLOAD PUSH2 0x275D SWAP1 DUP11 SWAP1 DUP4 SUB DUP10 DUP10 PUSH1 0x1E PUSH2 0x43C4 JUMP JUMPDEST DUP11 PUSH1 0x1 PUSH1 0x1 PUSH1 0xA0 SHL SUB AND DUP14 PUSH1 0x1 PUSH1 0x1 PUSH1 0xA0 SHL SUB AND PUSH32 0x34040FA1C0549C8572589C39CB87FF7638286467446A4790971D58D931C654BB DUP15 DUP14 PUSH1 0x40 MLOAD DUP1 DUP4 DUP2 MSTORE PUSH1 0x20 ADD DUP3 DUP2 MSTORE PUSH1 0x20 ADD SWAP3 POP POP POP PUSH1 0x40 MLOAD DUP1 SWAP2 SUB SWAP1 LOG3 DUP10 DUP13 GT ISZERO PUSH2 0x27C3 JUMPI PUSH2 0x27C3 DUP11 DUP14 SUB PUSH2 0x45A2 JUMP JUMPDEST DUP10 ISZERO PUSH2 0x2803 JUMPI PUSH2 0x2803 PUSH1 0x1 PUSH1 0x1 PUSH1 0xA0 SHL SUB PUSH32 0x0 AND DUP13 DUP13 PUSH4 0xFFFFFFFF PUSH2 0x3B42 AND JUMP JUMPDEST PUSH2 0x2810 DUP10 DUP14 PUSH1 0x0 SUB PUSH2 0x3ADA JUMP JUMPDEST POP POP POP POP POP POP POP POP POP POP POP POP POP JUMP JUMPDEST CALLER PUSH1 0x0 SWAP1 DUP2 MSTORE PUSH1 0x6 PUSH1 0x20 MSTORE PUSH1 0x40 SWAP1 KECCAK256 SLOAD PUSH2 0x2838 JUMPI PUSH1 0x0 DUP1 REVERT JUMPDEST CALLER PUSH1 0x0 SWAP1 DUP2 MSTORE PUSH1 0x6 PUSH1 0x20 MSTORE PUSH1 0x40 SWAP1 KECCAK256 PUSH1 0x4 DUP2 ADD SLOAD DUP3 ISZERO ISZERO SWAP1 PUSH2 0x2861 SWAP1 PUSH1 0x1 PUSH4 0xFFFFFFFF PUSH2 0x381A AND JUMP JUMPDEST ISZERO ISZERO EQ ISZERO PUSH2 0x286F JUMPI POP PUSH2 0x1107 JUMP JUMPDEST PUSH1 0x4 DUP2 ADD SLOAD PUSH2 0x2885 SWAP1 PUSH1 0x1 PUSH4 0xFFFFFFFF PUSH2 0x3827 AND JUMP JUMPDEST PUSH1 0x4 DUP3 ADD SSTORE PUSH1 0x0 PUSH2 0x2894 PUSH2 0x112C JUMP JUMPDEST PUSH1 0x40 DUP1 MLOAD DUP6 ISZERO ISZERO DUP2 MSTORE SWAP1 MLOAD SWAP2 SWAP3 POP PUSH1 0x1 DUP4 ADD SWAP2 CALLER SWAP2 PUSH32 0x8E551784567EC4BBCE5943250EAACD5AFE82AEF7A9B1DAB3F899881F4EAE93F0 SWAP2 SWAP1 DUP2 SWAP1 SUB PUSH1 0x20 ADD SWAP1 LOG2 PUSH1 0x1 DUP4 ADD SLOAD PUSH2 0xFFFF DUP3 DUP2 AND PUSH3 0x10000 SWAP1 SWAP3 DIV AND EQ PUSH2 0x28F4 JUMPI POP POP POP PUSH2 0x1107 JUMP JUMPDEST PUSH1 0x0 JUMPDEST PUSH1 0xB DUP5 ADD SLOAD DUP2 LT ISZERO PUSH2 0x29F7 JUMPI PUSH1 0x0 DUP5 PUSH1 0xB ADD DUP3 DUP2 SLOAD DUP2 LT PUSH2 0x2914 JUMPI INVALID JUMPDEST SWAP1 PUSH1 0x0 MSTORE PUSH1 0x20 PUSH1 0x0 KECCAK256 ADD SWAP1 POP DUP6 ISZERO DUP1 ISZERO PUSH2 0x293B JUMPI POP DUP1 SLOAD PUSH2 0xFFFF DUP5 DUP2 AND PUSH3 0x10000 SWAP1 SWAP3 DIV AND EQ JUMPDEST ISZERO PUSH2 0x2958 JUMPI DUP1 SLOAD PUSH6 0xFFFFFFFF0000 NOT AND PUSH1 0x1 PUSH1 0x20 SHL OR SWAP1 SSTORE PUSH2 0x29EF JUMP JUMPDEST DUP1 SLOAD PUSH3 0x10000 SWAP1 DIV PUSH2 0xFFFF AND ISZERO ISZERO DUP1 PUSH2 0x297B JUMPI POP DUP1 SLOAD PUSH1 0x1 PUSH1 0x20 SHL SWAP1 DIV PUSH2 0xFFFF AND ISZERO JUMPDEST ISZERO PUSH2 0x2986 JUMPI POP PUSH2 0x29EF JUMP JUMPDEST DUP6 PUSH2 0x29A0 JUMPI DUP1 SLOAD PUSH1 0x1 PUSH1 0x20 SHL SWAP1 DIV PUSH2 0xFFFF AND PUSH1 0x1 ADD PUSH2 0x29B2 JUMP JUMPDEST DUP1 SLOAD PUSH1 0x1 PUSH1 0x20 SHL SWAP1 DIV PUSH2 0xFFFF AND PUSH1 0x0 NOT ADD JUMPDEST DUP2 SLOAD PUSH2 0xFFFF PUSH1 0x20 SHL NOT AND PUSH1 0x1 PUSH1 0x20 SHL PUSH2 0xFFFF SWAP3 DUP4 AND DUP2 MUL SWAP2 SWAP1 SWAP2 OR DUP1 DUP5 SSTORE DIV AND PUSH2 0x29ED JUMPI DUP1 SLOAD PUSH4 0xFFFF0000 NOT AND PUSH3 0x10000 PUSH2 0xFFFF DUP6 AND MUL OR DUP2 SSTORE JUMPDEST POP JUMPDEST PUSH1 0x1 ADD PUSH2 0x28F7 JUMP JUMPDEST POP POP POP POP POP JUMP JUMPDEST PUSH1 0x7 SLOAD SWAP1 JUMP JUMPDEST PUSH1 0xE SLOAD DUP2 JUMP JUMPDEST PUSH1 0x1 PUSH1 0x1 PUSH1 0xA0 SHL SUB DUP2 AND PUSH1 0x0 SWAP1 DUP2 MSTORE PUSH1 0x6 PUSH1 0x20 MSTORE PUSH1 0x40 DUP2 KECCAK256 PUSH1 0x1 DUP2 ADD SLOAD PUSH3 0x10000 SWAP1 DIV PUSH2 0xFFFF AND PUSH2 0x2A4A JUMPI PUSH1 0x1 DUP2 ADD SLOAD PUSH1 0x1 PUSH1 0x20 SHL SWAP1 DIV PUSH2 0xFFFF AND PUSH2 0x2A5A JUMP JUMPDEST PUSH1 0x1 DUP2 ADD SLOAD PUSH3 0x10000 SWAP1 DIV PUSH2 0xFFFF AND JUMPDEST SWAP4 SWAP3 POP POP POP JUMP JUMPDEST PUSH1 0xB SLOAD PUSH1 0x1 PUSH1 0x1 PUSH1 0xA0 SHL SUB AND DUP2 JUMP JUMPDEST PUSH2 0x2A78 PUSH2 0x23D6 JUMP JUMPDEST PUSH2 0x2A81 JUMPI PUSH1 0x0 DUP1 REVERT JUMPDEST PUSH1 0xB SLOAD PUSH1 0x1 PUSH1 0x1 PUSH1 0xA0 SHL SUB AND ISZERO PUSH2 0x2A97 JUMPI PUSH1 0x0 DUP1 REVERT JUMPDEST ADDRESS PUSH1 0x1 PUSH1 0x1 PUSH1 0xA0 SHL SUB AND DUP2 PUSH1 0x1 PUSH1 0x1 PUSH1 0xA0 SHL SUB AND PUSH4 0xE2FDCC17 PUSH1 0x40 MLOAD DUP2 PUSH4 0xFFFFFFFF AND PUSH1 0xE0 SHL DUP2 MSTORE PUSH1 0x4 ADD PUSH1 0x20 PUSH1 0x40 MLOAD DUP1 DUP4 SUB DUP2 DUP7 DUP1 EXTCODESIZE ISZERO DUP1 ISZERO PUSH2 0x2ADA JUMPI PUSH1 0x0 DUP1 REVERT JUMPDEST POP GAS STATICCALL ISZERO DUP1 ISZERO PUSH2 0x2AEE JUMPI RETURNDATASIZE PUSH1 0x0 DUP1 RETURNDATACOPY RETURNDATASIZE PUSH1 0x0 REVERT JUMPDEST POP POP POP POP PUSH1 0x40 MLOAD RETURNDATASIZE PUSH1 0x20 DUP2 LT ISZERO PUSH2 0x2B04 JUMPI PUSH1 0x0 DUP1 REVERT JUMPDEST POP MLOAD PUSH1 0x1 PUSH1 0x1 PUSH1 0xA0 SHL SUB AND EQ PUSH2 0x2B19 JUMPI PUSH1 0x0 DUP1 REVERT JUMPDEST PUSH1 0xB DUP1 SLOAD PUSH1 0x1 PUSH1 0x1 PUSH1 0xA0 SHL SUB NOT AND PUSH1 0x1 PUSH1 0x1 PUSH1 0xA0 SHL SUB SWAP3 SWAP1 SWAP3 AND SWAP2 SWAP1 SWAP2 OR SWAP1 SSTORE JUMP JUMPDEST PUSH1 0x8 PUSH1 0x20 MSTORE PUSH1 0x0 SWAP1 DUP2 MSTORE PUSH1 0x40 SWAP1 KECCAK256 SLOAD PUSH1 0x1 PUSH1 0x1 PUSH1 0xA0 SHL SUB AND DUP2 JUMP JUMPDEST CALLER PUSH1 0x0 SWAP1 DUP2 MSTORE PUSH1 0x6 PUSH1 0x20 MSTORE PUSH1 0x40 SWAP1 KECCAK256 SLOAD PUSH2 0x2B6F JUMPI PUSH1 0x0 DUP1 REVERT JUMPDEST CALLER PUSH1 0x0 SWAP1 DUP2 MSTORE PUSH1 0x6 PUSH1 0x20 MSTORE PUSH1 0x40 SWAP1 KECCAK256 PUSH2 0xFFFF DUP3 AND PUSH2 0x2BCB JUMPI PUSH1 0x40 DUP1 MLOAD PUSH3 0x461BCD PUSH1 0xE5 SHL DUP2 MSTORE PUSH1 0x20 PUSH1 0x4 DUP3 ADD MSTORE PUSH1 0x14 PUSH1 0x24 DUP3 ADD MSTORE PUSH20 0x496E636F727265637420706172616D6574657273 PUSH1 0x60 SHL PUSH1 0x44 DUP3 ADD MSTORE SWAP1 MLOAD SWAP1 DUP2 SWAP1 SUB PUSH1 0x64 ADD SWAP1 REVERT JUMPDEST PUSH1 0x0 DUP2 PUSH1 0xB ADD DUP5 DUP2 SLOAD DUP2 LT PUSH2 0x2BDC JUMPI INVALID JUMPDEST SWAP1 PUSH1 0x0 MSTORE PUSH1 0x20 PUSH1 0x0 KECCAK256 ADD SWAP1 POP PUSH1 0x0 PUSH2 0x2BF2 PUSH2 0x112C JUMP JUMPDEST SWAP1 POP PUSH1 0x0 PUSH2 0x2C00 DUP5 DUP4 PUSH2 0x3CBA JUMP JUMPDEST SWAP1 POP PUSH1 0x0 PUSH2 0x2C0E DUP5 DUP4 PUSH2 0x3D04 JUMP JUMPDEST SWAP1 POP DUP3 PUSH2 0xFFFF AND DUP2 PUSH2 0xFFFF AND GT PUSH2 0x2C56 JUMPI PUSH1 0x40 MLOAD PUSH3 0x461BCD PUSH1 0xE5 SHL DUP2 MSTORE PUSH1 0x4 ADD DUP1 DUP1 PUSH1 0x20 ADD DUP3 DUP2 SUB DUP3 MSTORE PUSH1 0x35 DUP2 MSTORE PUSH1 0x20 ADD DUP1 PUSH2 0x59E8 PUSH1 0x35 SWAP2 CODECOPY PUSH1 0x40 ADD SWAP2 POP POP PUSH1 0x40 MLOAD DUP1 SWAP2 SUB SWAP1 REVERT JUMPDEST DUP4 SLOAD PUSH2 0x2C6D SWAP1 PUSH1 0x1 PUSH1 0x20 SHL SWAP1 DIV PUSH2 0xFFFF AND DUP8 PUSH2 0x3CA4 JUMP JUMPDEST DUP5 SLOAD PUSH2 0xFFFF PUSH1 0x20 SHL NOT AND PUSH1 0x1 PUSH1 0x20 SHL PUSH2 0xFFFF SWAP3 DUP4 AND MUL OR DUP6 SSTORE DUP3 DUP2 AND SWAP1 DUP3 AND EQ ISZERO PUSH2 0x2C9E JUMPI DUP4 SLOAD PUSH4 0xFFFF0000 NOT AND DUP5 SSTORE JUMPDEST PUSH32 0x0 PUSH2 0xFFFF AND DUP7 PUSH2 0xFFFF AND DUP5 DUP4 SUB PUSH2 0xFFFF AND ADD PUSH4 0xFFFFFFFF AND LT ISZERO PUSH2 0x2D13 JUMPI PUSH1 0x40 MLOAD PUSH3 0x461BCD PUSH1 0xE5 SHL DUP2 MSTORE PUSH1 0x4 ADD DUP1 DUP1 PUSH1 0x20 ADD DUP3 DUP2 SUB DUP3 MSTORE PUSH1 0x3E DUP2 MSTORE PUSH1 0x20 ADD DUP1 PUSH2 0x5ACE PUSH1 0x3E SWAP2 CODECOPY PUSH1 0x40 ADD SWAP2 POP POP PUSH1 0x40 MLOAD DUP1 SWAP2 SUB SWAP1 REVERT JUMPDEST DUP4 SLOAD PUSH1 0x40 DUP1 MLOAD PUSH1 0x1 PUSH1 0x1 PUSH1 0x80 SHL SUB PUSH1 0x1 PUSH1 0x30 SHL SWAP1 SWAP4 DIV SWAP3 SWAP1 SWAP3 AND DUP3 MSTORE PUSH2 0xFFFF PUSH1 0x1 DUP5 ADD DUP2 AND PUSH1 0x20 DUP5 ADD MSTORE DUP9 AND DUP3 DUP3 ADD MSTORE MLOAD CALLER SWAP2 PUSH1 0x0 DUP1 MLOAD PUSH1 0x20 PUSH2 0x5A3F DUP4 CODECOPY DUP2 MLOAD SWAP2 MSTORE SWAP2 SWAP1 DUP2 SWAP1 SUB PUSH1 0x60 ADD SWAP1 LOG2 DUP4 SLOAD PUSH1 0x40 DUP1 MLOAD PUSH1 0x1 PUSH1 0x1 PUSH1 0x80 SHL SUB PUSH1 0x1 PUSH1 0x30 SHL SWAP1 SWAP4 DIV SWAP3 SWAP1 SWAP3 AND DUP3 MSTORE PUSH2 0xFFFF DUP1 DUP5 AND PUSH1 0x20 DUP5 ADD MSTORE DUP9 AND DUP3 DUP3 ADD MSTORE MLOAD CALLER SWAP2 PUSH32 0x4A8002CB7D215FF46C882055A756942E088F67744D92308F58CD701109E9273B SWAP2 SWAP1 DUP2 SWAP1 SUB PUSH1 0x60 ADD SWAP1 LOG2 POP POP POP POP POP POP POP JUMP JUMPDEST PUSH2 0x2DCC DUP2 PUSH2 0x45E0 JUMP JUMPDEST PUSH1 0xE SLOAD PUSH2 0x2DE0 DUP3 PUSH4 0xA3324BE9 PUSH1 0xE0 SHL PUSH2 0x4B11 JUMP JUMPDEST EQ PUSH2 0x1107 JUMPI PUSH1 0x0 DUP1 REVERT JUMPDEST PUSH1 0x1 PUSH1 0x1 PUSH1 0xA0 SHL SUB DUP2 AND PUSH1 0x0 SWAP1 DUP2 MSTORE PUSH1 0x6 PUSH1 0x20 MSTORE PUSH1 0x40 DUP2 KECCAK256 PUSH1 0x1 ADD SLOAD PUSH1 0x1 PUSH1 0x30 SHL SWAP1 DIV PUSH2 0xFFFF AND PUSH2 0x2E19 PUSH2 0x112C JUMP JUMPDEST PUSH2 0xFFFF AND LT SWAP3 SWAP2 POP POP JUMP JUMPDEST PUSH32 0x0 DUP2 JUMP JUMPDEST PUSH1 0x0 PUSH2 0x2E5B PUSH1 0xA DUP4 PUSH4 0xFFFFFFFF PUSH2 0x4B2A AND JUMP JUMPDEST PUSH1 0x1 PUSH1 0x1 PUSH1 0x60 SHL SUB AND SWAP3 SWAP2 POP POP JUMP JUMPDEST PUSH32 0x0 DUP2 JUMP JUMPDEST PUSH1 0x1 PUSH1 0x1 PUSH1 0xA0 SHL SUB AND PUSH1 0x0 SWAP1 DUP2 MSTORE PUSH1 0x6 PUSH1 0x20 MSTORE PUSH1 0x40 SWAP1 KECCAK256 PUSH1 0x2 ADD SLOAD SWAP1 JUMP JUMPDEST CALLER PUSH1 0x0 SWAP1 DUP2 MSTORE PUSH1 0x6 PUSH1 0x20 MSTORE PUSH1 0x40 SWAP1 KECCAK256 SLOAD PUSH2 0x2EC5 JUMPI PUSH1 0x0 DUP1 REVERT JUMPDEST CALLER PUSH1 0x0 SWAP1 DUP2 MSTORE PUSH1 0x6 PUSH1 0x20 MSTORE PUSH1 0x40 SWAP1 KECCAK256 PUSH32 0x0 DUP4 LT DUP1 ISZERO SWAP1 PUSH2 0x2F08 JUMPI POP PUSH1 0x0 DUP3 PUSH2 0xFFFF AND GT JUMPDEST PUSH2 0x2F11 JUMPI PUSH1 0x0 DUP1 REVERT JUMPDEST PUSH1 0x0 DUP2 PUSH1 0xB ADD DUP6 DUP2 SLOAD DUP2 LT PUSH2 0x2F22 JUMPI INVALID JUMPDEST SWAP1 PUSH1 0x0 MSTORE PUSH1 0x20 PUSH1 0x0 KECCAK256 ADD SWAP1 POP PUSH1 0x0 PUSH2 0x2F38 PUSH2 0x112C JUMP JUMPDEST SWAP1 POP PUSH1 0x0 PUSH2 0x2F46 DUP5 DUP4 PUSH2 0x3CBA JUMP JUMPDEST SWAP1 POP PUSH1 0x0 PUSH2 0x2F54 DUP5 DUP4 PUSH2 0x3D04 JUMP JUMPDEST SWAP1 POP DUP3 PUSH2 0xFFFF AND DUP2 PUSH2 0xFFFF AND GT PUSH2 0x2F9C JUMPI PUSH1 0x40 MLOAD PUSH3 0x461BCD PUSH1 0xE5 SHL DUP2 MSTORE PUSH1 0x4 ADD DUP1 DUP1 PUSH1 0x20 ADD DUP3 DUP2 SUB DUP3 MSTORE PUSH1 0x35 DUP2 MSTORE PUSH1 0x20 ADD DUP1 PUSH2 0x59E8 PUSH1 0x35 SWAP2 CODECOPY PUSH1 0x40 ADD SWAP2 POP POP PUSH1 0x40 MLOAD DUP1 SWAP2 SUB SWAP1 REVERT JUMPDEST DUP4 SLOAD PUSH1 0x1 PUSH1 0x30 SHL SWAP1 DIV PUSH1 0x1 PUSH1 0x1 PUSH1 0x80 SHL SUB AND PUSH2 0x2FB8 DUP2 DUP10 PUSH2 0x3AC5 JUMP JUMPDEST DUP6 SLOAD PUSH1 0x1 PUSH1 0x30 SHL PUSH1 0x1 PUSH1 0xB0 SHL SUB NOT AND PUSH1 0x1 PUSH1 0x30 SHL PUSH1 0x1 PUSH1 0x1 PUSH1 0x80 SHL SUB SWAP3 DUP4 AND DUP2 MUL SWAP2 SWAP1 SWAP2 OR DUP1 DUP9 SSTORE PUSH32 0x0 SWAP2 SWAP1 DIV SWAP1 SWAP2 AND LT ISZERO PUSH2 0x3012 JUMPI PUSH1 0x0 DUP1 REVERT JUMPDEST DUP5 SLOAD PUSH1 0x0 SWAP1 PUSH2 0x302C SWAP1 PUSH1 0x1 PUSH1 0x20 SHL SWAP1 DIV PUSH2 0xFFFF AND DUP10 PUSH2 0x3CA4 JUMP JUMPDEST DUP7 SLOAD SWAP1 SWAP2 POP PUSH2 0x3044 SWAP1 DUP9 SWAP1 PUSH2 0xFFFF AND PUSH1 0x0 DUP5 DUP14 PUSH2 0x4C93 JUMP JUMPDEST PUSH1 0x40 DUP1 MLOAD DUP4 DUP2 MSTORE PUSH2 0xFFFF DUP1 DUP7 AND PUSH1 0x20 DUP4 ADD MSTORE DUP2 DUP4 ADD DUP13 SWAP1 MSTORE DUP11 AND PUSH1 0x60 DUP3 ADD MSTORE SWAP1 MLOAD CALLER SWAP2 PUSH32 0x3A1FB040A51F7112D001CD86CBB247FC8B9694D0AD1C5D3583B76CD7A9C43F75 SWAP2 SWAP1 DUP2 SWAP1 SUB PUSH1 0x80 ADD SWAP1 LOG2 DUP6 SLOAD PUSH1 0x40 DUP1 MLOAD DUP12 DUP2 MSTORE PUSH2 0xFFFF SWAP3 DUP4 AND PUSH1 0x20 DUP3 ADD MSTORE SWAP2 DUP4 AND DUP3 DUP3 ADD MSTORE MLOAD CALLER SWAP2 PUSH1 0x0 DUP1 MLOAD PUSH1 0x20 PUSH2 0x5A3F DUP4 CODECOPY DUP2 MLOAD SWAP2 MSTORE SWAP2 SWAP1 DUP2 SWAP1 SUB PUSH1 0x60 ADD SWAP1 LOG2 POP POP POP POP POP POP POP POP POP POP JUMP JUMPDEST PUSH2 0x30E1 DUP4 CALLER DUP5 DUP5 PUSH2 0x3E31 JUMP JUMPDEST POP POP POP JUMP JUMPDEST PUSH1 0x1 SLOAD PUSH1 0x1 PUSH1 0x1 PUSH1 0xA0 SHL SUB AND DUP2 JUMP JUMPDEST PUSH32 0x0 DUP2 JUMP JUMPDEST CALLER PUSH1 0x0 SWAP1 DUP2 MSTORE PUSH1 0x6 PUSH1 0x20 MSTORE PUSH1 0x40 SWAP1 KECCAK256 SLOAD PUSH2 0x3132 JUMPI PUSH1 0x0 DUP1 REVERT JUMPDEST CALLER PUSH1 0x0 SWAP1 DUP2 MSTORE PUSH1 0x6 PUSH1 0x20 MSTORE PUSH1 0x40 SWAP1 KECCAK256 PUSH1 0x3 DUP2 ADD SLOAD PUSH1 0x1 PUSH1 0x1 PUSH1 0xA0 SHL SUB DUP4 DUP2 AND PUSH3 0x10000 SWAP1 SWAP3 DIV AND EQ ISZERO PUSH2 0x3196 JUMPI PUSH1 0x40 MLOAD PUSH3 0x461BCD PUSH1 0xE5 SHL DUP2 MSTORE PUSH1 0x4 ADD DUP1 DUP1 PUSH1 0x20 ADD DUP3 DUP2 SUB DUP3 MSTORE PUSH1 0x33 DUP2 MSTORE PUSH1 0x20 ADD DUP1 PUSH2 0x5B39 PUSH1 0x33 SWAP2 CODECOPY PUSH1 0x40 ADD SWAP2 POP POP PUSH1 0x40 MLOAD DUP1 SWAP2 SUB SWAP1 REVERT JUMPDEST PUSH1 0x0 PUSH2 0x31A0 PUSH2 0x112C JUMP JUMPDEST PUSH1 0x3 DUP4 ADD SLOAD SWAP1 SWAP2 POP PUSH3 0x10000 SWAP1 DIV PUSH1 0x1 PUSH1 0x1 PUSH1 0xA0 SHL SUB AND ISZERO PUSH2 0x326C JUMPI PUSH1 0x3 DUP3 ADD SLOAD PUSH2 0x31F5 SWAP1 PUSH2 0xFFFF AND PUSH32 0x0 PUSH4 0xFFFFFFFF PUSH2 0x3CA4 AND JUMP JUMPDEST PUSH2 0xFFFF AND DUP2 PUSH2 0xFFFF AND LT ISZERO PUSH2 0x323B JUMPI PUSH1 0x40 MLOAD PUSH3 0x461BCD PUSH1 0xE5 SHL DUP2 MSTORE PUSH1 0x4 ADD DUP1 DUP1 PUSH1 0x20 ADD DUP3 DUP2 SUB DUP3 MSTORE PUSH1 0x3C DUP2 MSTORE PUSH1 0x20 ADD DUP1 PUSH2 0x5A92 PUSH1 0x3C SWAP2 CODECOPY PUSH1 0x40 ADD SWAP2 POP POP PUSH1 0x40 MLOAD DUP1 SWAP2 SUB SWAP1 REVERT JUMPDEST PUSH1 0x3 DUP3 ADD SLOAD PUSH3 0x10000 SWAP1 DIV PUSH1 0x1 PUSH1 0x1 PUSH1 0xA0 SHL SUB AND PUSH1 0x0 SWAP1 DUP2 MSTORE PUSH1 0x8 PUSH1 0x20 MSTORE PUSH1 0x40 SWAP1 KECCAK256 DUP1 SLOAD PUSH1 0x1 PUSH1 0x1 PUSH1 0xA0 SHL SUB NOT AND SWAP1 SSTORE JUMPDEST PUSH1 0x1 PUSH1 0x1 PUSH1 0xA0 SHL SUB DUP4 AND ISZERO PUSH2 0x337C JUMPI PUSH1 0x1 PUSH1 0x1 PUSH1 0xA0 SHL SUB DUP4 DUP2 AND PUSH1 0x0 SWAP1 DUP2 MSTORE PUSH1 0x8 PUSH1 0x20 MSTORE PUSH1 0x40 SWAP1 KECCAK256 SLOAD AND ISZERO PUSH2 0x32D2 JUMPI PUSH1 0x40 MLOAD PUSH3 0x461BCD PUSH1 0xE5 SHL DUP2 MSTORE PUSH1 0x4 ADD DUP1 DUP1 PUSH1 0x20 ADD DUP3 DUP2 SUB DUP3 MSTORE PUSH1 0x22 DUP2 MSTORE PUSH1 0x20 ADD DUP1 PUSH2 0x5A1D PUSH1 0x22 SWAP2 CODECOPY PUSH1 0x40 ADD SWAP2 POP POP PUSH1 0x40 MLOAD DUP1 SWAP2 SUB SWAP1 REVERT JUMPDEST PUSH1 0x1 PUSH1 0x1 PUSH1 0xA0 SHL SUB DUP4 AND PUSH1 0x0 SWAP1 DUP2 MSTORE PUSH1 0x6 PUSH1 0x20 MSTORE PUSH1 0x40 SWAP1 KECCAK256 PUSH1 0xB ADD SLOAD ISZERO DUP1 PUSH2 0x3302 JUMPI POP PUSH1 0x1 PUSH1 0x1 PUSH1 0xA0 SHL SUB DUP4 AND CALLER EQ JUMPDEST PUSH2 0x3353 JUMPI PUSH1 0x40 DUP1 MLOAD PUSH3 0x461BCD PUSH1 0xE5 SHL DUP2 MSTORE PUSH1 0x20 PUSH1 0x4 DUP3 ADD MSTORE PUSH1 0x1C PUSH1 0x24 DUP3 ADD MSTORE PUSH32 0x53706563696669656420776F726B65722069732061207374616B657200000000 PUSH1 0x44 DUP3 ADD MSTORE SWAP1 MLOAD SWAP1 DUP2 SWAP1 SUB PUSH1 0x64 ADD SWAP1 REVERT JUMPDEST PUSH1 0x1 PUSH1 0x1 PUSH1 0xA0 SHL SUB DUP4 AND PUSH1 0x0 SWAP1 DUP2 MSTORE PUSH1 0x8 PUSH1 0x20 MSTORE PUSH1 0x40 SWAP1 KECCAK256 DUP1 SLOAD PUSH1 0x1 PUSH1 0x1 PUSH1 0xA0 SHL SUB NOT AND CALLER OR SWAP1 SSTORE JUMPDEST PUSH1 0x3 DUP3 ADD DUP1 SLOAD PUSH2 0xFFFF DUP4 AND PUSH2 0xFFFF NOT PUSH1 0x1 PUSH1 0x1 PUSH1 0xA0 SHL SUB DUP8 AND PUSH3 0x10000 DUP2 MUL PUSH3 0x10000 PUSH1 0x1 PUSH1 0xB0 SHL SUB NOT SWAP1 SWAP5 AND SWAP4 SWAP1 SWAP4 OR AND DUP2 OR SWAP1 SWAP3 SSTORE PUSH1 0x40 MLOAD CALLER SWAP1 PUSH32 0xF8090974DCC1DFC27F6B0617A0938ED403577A94639791DB59CDCC9B52B8EA1F SWAP1 PUSH1 0x0 SWAP1 LOG4 POP POP POP JUMP JUMPDEST PUSH1 0xA DUP2 DUP2 SLOAD DUP2 LT PUSH2 0x33F0 JUMPI INVALID JUMPDEST SWAP1 PUSH1 0x0 MSTORE PUSH1 0x20 PUSH1 0x0 KECCAK256 SWAP1 PUSH1 0x2 SWAP2 DUP3 DUP3 DIV ADD SWAP2 SWAP1 MOD PUSH1 0x10 MUL SWAP2 POP SLOAD SWAP1 PUSH2 0x100 EXP SWAP1 DIV PUSH1 0x1 PUSH1 0x1 PUSH1 0x80 SHL SUB AND DUP2 JUMP JUMPDEST PUSH1 0x2 SLOAD PUSH1 0x1 PUSH1 0xA0 SHL SWAP1 DIV PUSH1 0xFF AND DUP2 JUMP JUMPDEST PUSH1 0x2 DUP1 SLOAD PUSH1 0x1 PUSH1 0xA0 SHL SWAP1 DIV PUSH1 0xFF AND EQ PUSH2 0x3445 JUMPI PUSH1 0x0 DUP1 REVERT JUMPDEST PUSH1 0x0 DUP2 SWAP1 POP DUP1 PUSH1 0x1 PUSH1 0x1 PUSH1 0xA0 SHL SUB AND PUSH4 0xA3324BE9 PUSH1 0x40 MLOAD DUP2 PUSH4 0xFFFFFFFF AND PUSH1 0xE0 SHL DUP2 MSTORE PUSH1 0x4 ADD PUSH1 0x20 PUSH1 0x40 MLOAD DUP1 DUP4 SUB DUP2 DUP7 DUP1 EXTCODESIZE ISZERO DUP1 ISZERO PUSH2 0x3483 JUMPI PUSH1 0x0 DUP1 REVERT JUMPDEST POP GAS STATICCALL ISZERO DUP1 ISZERO PUSH2 0x3497 JUMPI RETURNDATASIZE PUSH1 0x0 DUP1 RETURNDATACOPY RETURNDATASIZE PUSH1 0x0 REVERT JUMPDEST POP POP POP POP PUSH1 0x40 MLOAD RETURNDATASIZE PUSH1 0x20 DUP2 LT ISZERO PUSH2 0x34AD JUMPI PUSH1 0x0 DUP1 REVERT JUMPDEST POP MLOAD PUSH1 0xE SSTORE PUSH1 0x40 DUP1 MLOAD CALLER DUP2 MSTORE SWAP1 MLOAD PUSH1 0x1 PUSH1 0x1 PUSH1 0xA0 SHL SUB DUP5 AND SWAP2 PUSH32 0xD55EC27C5C6316913ED8803C18CFD1BFEFEA953DB909DCBA6140744A9D8B0D1F SWAP2 SWAP1 DUP2 SWAP1 SUB PUSH1 0x20 ADD SWAP1 LOG2 POP POP JUMP JUMPDEST PUSH1 0x1 PUSH1 0x1 PUSH1 0xA0 SHL SUB DUP3 AND PUSH1 0x0 SWAP1 DUP2 MSTORE PUSH1 0x6 PUSH1 0x20 MSTORE PUSH1 0x40 DUP2 KECCAK256 PUSH2 0x3520 SWAP1 PUSH1 0xC ADD DUP4 PUSH4 0xFFFFFFFF PUSH2 0x4B2A AND JUMP JUMPDEST PUSH1 0x1 PUSH1 0x1 PUSH1 0x60 SHL SUB AND SWAP4 SWAP3 POP POP POP JUMP JUMPDEST PUSH2 0x3539 CALLER PUSH2 0x2DEA JUMP JUMPDEST ISZERO DUP1 ISZERO PUSH2 0x3554 JUMPI POP PUSH2 0x3549 PUSH2 0x112C JUMP JUMPDEST PUSH2 0xFFFF AND DUP2 PUSH2 0xFFFF AND GT JUMPDEST PUSH2 0x355D JUMPI PUSH1 0x0 DUP1 REVERT JUMPDEST CALLER PUSH1 0x0 DUP2 DUP2 MSTORE PUSH1 0x6 PUSH1 0x20 SWAP1 DUP2 MSTORE PUSH1 0x40 SWAP2 DUP3 SWAP1 KECCAK256 PUSH1 0x1 ADD DUP1 SLOAD PUSH8 0xFFFF000000000000 NOT AND PUSH1 0x1 PUSH1 0x30 SHL PUSH2 0xFFFF DUP8 AND SWAP1 DUP2 MUL SWAP2 SWAP1 SWAP2 OR SWAP1 SWAP2 SSTORE DUP3 MLOAD SWAP1 DUP2 MSTORE SWAP2 MLOAD PUSH32 0x290A5B657C05AEC4C02FB52B21644F6470BB4C6D37831F2295C247452A207489 SWAP3 DUP2 SWAP1 SUB SWAP1 SWAP2 ADD SWAP1 LOG2 POP JUMP JUMPDEST PUSH1 0x9 PUSH1 0x20 MSTORE PUSH1 0x0 SWAP1 DUP2 MSTORE PUSH1 0x40 SWAP1 KECCAK256 SLOAD DUP2 JUMP JUMPDEST PUSH1 0x5 SLOAD PUSH2 0xFFFF AND PUSH2 0x35EA JUMPI PUSH1 0x0 DUP1 REVERT JUMPDEST PUSH2 0x3625 PUSH1 0x1 PUSH1 0x1 PUSH1 0xA0 SHL SUB PUSH32 0x0 AND CALLER ADDRESS DUP5 PUSH4 0xFFFFFFFF PUSH2 0x3D9B AND JUMP JUMPDEST PUSH2 0x362E DUP2 PUSH2 0x45A2 JUMP JUMPDEST PUSH1 0x40 DUP1 MLOAD DUP3 DUP2 MSTORE SWAP1 MLOAD CALLER SWAP2 PUSH32 0x2A01595CDDF097C90216094025DB714DA3F4E5BD8877B56BA86A24ECEAD8E543 SWAP2 SWAP1 DUP2 SWAP1 SUB PUSH1 0x20 ADD SWAP1 LOG2 POP JUMP JUMPDEST PUSH2 0x366F PUSH2 0x23D6 JUMP JUMPDEST PUSH2 0x3678 JUMPI PUSH1 0x0 DUP1 REVERT JUMPDEST PUSH2 0x1107 DUP2 PUSH2 0x4E6A JUMP JUMPDEST PUSH32 0x0 DUP2 JUMP JUMPDEST PUSH32 0x0 DUP2 JUMP JUMPDEST PUSH1 0x7 DUP2 DUP2 SLOAD DUP2 LT PUSH2 0x36D6 JUMPI INVALID JUMPDEST PUSH1 0x0 SWAP2 DUP3 MSTORE PUSH1 0x20 SWAP1 SWAP2 KECCAK256 ADD SLOAD PUSH1 0x1 PUSH1 0x1 PUSH1 0xA0 SHL SUB AND SWAP1 POP DUP2 JUMP JUMPDEST PUSH2 0x36F8 PUSH2 0x23D6 JUMP JUMPDEST PUSH2 0x3701 JUMPI PUSH1 0x0 DUP1 REVERT JUMPDEST PUSH1 0x5 SLOAD PUSH2 0xFFFF AND ISZERO PUSH2 0x3712 JUMPI PUSH1 0x0 DUP1 REVERT JUMPDEST DUP1 PUSH32 0x0 GT ISZERO PUSH2 0x373F JUMPI PUSH1 0x0 DUP1 REVERT JUMPDEST PUSH2 0x3747 PUSH2 0x112C JUMP JUMPDEST PUSH1 0x5 DUP1 SLOAD PUSH2 0xFFFF NOT AND PUSH2 0xFFFF SWAP3 SWAP1 SWAP3 AND SWAP2 SWAP1 SWAP2 OR SWAP1 SSTORE PUSH1 0x4 DUP1 SLOAD PUSH1 0x1 PUSH1 0x80 SHL PUSH1 0x1 PUSH1 0x1 PUSH1 0x80 SHL SUB SWAP2 DUP3 AND PUSH32 0x0 DUP6 SWAP1 SUB DUP4 AND DUP3 MUL OR SWAP1 DUP2 DIV SWAP1 SWAP2 AND PUSH1 0x1 PUSH1 0x1 PUSH1 0x80 SHL SUB NOT SWAP1 SWAP2 AND OR SWAP1 SSTORE PUSH2 0x37E4 PUSH32 0x0 PUSH1 0x1 PUSH1 0x1 PUSH1 0xA0 SHL SUB AND CALLER ADDRESS DUP5 PUSH2 0x3D9B JUMP JUMPDEST PUSH1 0x40 DUP1 MLOAD DUP3 DUP2 MSTORE SWAP1 MLOAD PUSH32 0xBE9B076DC5B65990CCA9DD9D7366682482E7817A6F6BC7F4FAF4DC32AF497F32 SWAP2 DUP2 SWAP1 SUB PUSH1 0x20 ADD SWAP1 LOG1 POP JUMP JUMPDEST PUSH1 0xFF AND SHR PUSH1 0x1 SWAP1 DUP2 AND EQ SWAP1 JUMP JUMPDEST PUSH1 0x1 PUSH1 0xFF SWAP2 SWAP1 SWAP2 AND SHL XOR SWAP1 JUMP JUMPDEST PUSH1 0x0 PUSH2 0x383E PUSH2 0x112C JUMP JUMPDEST PUSH1 0x1 PUSH1 0x1 PUSH1 0xA0 SHL SUB DUP4 AND PUSH1 0x0 SWAP1 DUP2 MSTORE PUSH1 0x6 PUSH1 0x20 MSTORE PUSH1 0x40 SWAP1 KECCAK256 PUSH1 0x1 DUP2 ADD SLOAD SWAP2 SWAP3 POP PUSH1 0x0 NOT DUP4 ADD SWAP2 PUSH3 0x10000 SWAP1 DIV PUSH2 0xFFFF AND ISZERO DUP1 PUSH2 0x389B JUMPI POP PUSH1 0x1 DUP2 ADD SLOAD PUSH2 0xFFFF AND ISZERO DUP1 ISZERO PUSH2 0x389B JUMPI POP PUSH1 0x1 DUP2 ADD SLOAD PUSH2 0xFFFF DUP1 DUP5 AND PUSH3 0x10000 SWAP1 SWAP3 DIV AND GT JUMPDEST DUP1 PUSH2 0x38B0 JUMPI POP PUSH1 0x1 DUP2 ADD SLOAD PUSH2 0xFFFF DUP1 DUP5 AND SWAP2 AND GT JUMPDEST ISZERO PUSH2 0x38BD JUMPI POP POP POP PUSH2 0x1107 JUMP JUMPDEST PUSH1 0x0 PUSH2 0x38C9 DUP3 DUP6 PUSH2 0x3CBA JUMP JUMPDEST PUSH1 0x4 DUP4 ADD SLOAD SWAP1 SWAP2 POP PUSH1 0x0 SWAP1 DUP2 SWAP1 PUSH2 0x38E6 SWAP1 DUP3 PUSH4 0xFFFFFFFF PUSH2 0x381A AND JUMP JUMPDEST PUSH1 0x1 DUP6 ADD SLOAD SWAP1 ISZERO SWAP2 POP PUSH2 0xFFFF AND ISZERO PUSH2 0x394A JUMPI PUSH1 0x1 DUP5 ADD SLOAD PUSH2 0x3911 SWAP1 DUP9 SWAP1 DUP7 SWAP1 PUSH2 0xFFFF AND DUP10 DUP8 DUP7 PUSH2 0x4ED8 JUMP JUMPDEST PUSH1 0x1 DUP6 ADD DUP1 SLOAD PUSH2 0xFFFF NOT AND SWAP1 SSTORE SWAP2 POP DUP1 ISZERO PUSH2 0x394A JUMPI PUSH1 0x1 DUP5 ADD SLOAD PUSH3 0x10000 SWAP1 DIV PUSH2 0xFFFF AND PUSH1 0x0 SWAP1 DUP2 MSTORE PUSH1 0x9 PUSH1 0x20 MSTORE PUSH1 0x40 SWAP1 KECCAK256 DUP1 SLOAD DUP4 ADD SWAP1 SSTORE JUMPDEST PUSH1 0x1 DUP5 ADD SLOAD PUSH2 0xFFFF DUP1 DUP8 AND PUSH3 0x10000 SWAP1 SWAP3 DIV AND GT PUSH2 0x3996 JUMPI PUSH2 0x3982 DUP8 DUP6 DUP7 PUSH1 0x1 ADD PUSH1 0x2 SWAP1 SLOAD SWAP1 PUSH2 0x100 EXP SWAP1 DIV PUSH2 0xFFFF AND DUP10 DUP8 DUP7 PUSH2 0x4ED8 JUMP JUMPDEST PUSH1 0x1 DUP6 ADD DUP1 SLOAD PUSH4 0xFFFF0000 NOT AND SWAP1 SSTORE SWAP1 SWAP2 ADD SWAP1 JUMPDEST DUP4 SLOAD DUP3 ADD DUP5 SSTORE PUSH1 0x4 DUP5 ADD SLOAD PUSH2 0x39B2 SWAP1 PUSH1 0x2 PUSH4 0xFFFFFFFF PUSH2 0x381A AND JUMP JUMPDEST ISZERO PUSH2 0x39C2 JUMPI PUSH1 0x2 DUP5 ADD DUP1 SLOAD DUP4 ADD SWAP1 SSTORE JUMPDEST PUSH2 0x39CC DUP5 DUP4 PUSH2 0x3ADA JUMP JUMPDEST PUSH1 0x40 DUP1 MLOAD DUP4 DUP2 MSTORE SWAP1 MLOAD PUSH2 0xFFFF DUP8 AND SWAP2 PUSH1 0x1 PUSH1 0x1 PUSH1 0xA0 SHL SUB DUP11 AND SWAP2 PUSH32 0x262AB020CB638B76C90BA54EBB8EC0A4FF4412B8D6777F1EDC4C23D6644A88CD SWAP2 DUP2 SWAP1 SUB PUSH1 0x20 ADD SWAP1 LOG3 POP POP POP POP POP POP POP JUMP JUMPDEST PUSH1 0x0 DUP1 PUSH2 0x3A26 DUP6 DUP6 PUSH2 0x3CBA JUMP JUMPDEST SWAP1 POP PUSH1 0x0 JUMPDEST PUSH1 0xB DUP7 ADD SLOAD DUP2 LT ISZERO PUSH2 0x3AA5 JUMPI PUSH1 0x0 DUP7 PUSH1 0xB ADD DUP3 DUP2 SLOAD DUP2 LT PUSH2 0x3A48 JUMPI INVALID JUMPDEST PUSH1 0x0 SWAP2 DUP3 MSTORE PUSH1 0x20 SWAP1 SWAP2 KECCAK256 ADD DUP1 SLOAD SWAP1 SWAP2 POP PUSH2 0xFFFF DUP1 DUP8 AND SWAP2 AND GT DUP1 ISZERO SWAP1 PUSH2 0x3A7F JUMPI POP DUP5 PUSH2 0xFFFF AND PUSH2 0x3A78 DUP3 DUP6 PUSH2 0x3D04 JUMP JUMPDEST PUSH2 0xFFFF AND LT ISZERO JUMPDEST ISZERO PUSH2 0x3A9C JUMPI DUP1 SLOAD PUSH1 0x1 PUSH1 0x30 SHL SWAP1 DIV PUSH1 0x1 PUSH1 0x1 PUSH1 0x80 SHL SUB AND SWAP4 SWAP1 SWAP4 ADD SWAP3 JUMPDEST POP PUSH1 0x1 ADD PUSH2 0x3A2B JUMP JUMPDEST POP POP SWAP4 SWAP3 POP POP POP JUMP JUMPDEST PUSH1 0x0 DUP2 DUP4 LT ISZERO PUSH2 0x3ABE JUMPI DUP2 PUSH2 0x2A5A JUMP JUMPDEST POP SWAP1 SWAP2 SWAP1 POP JUMP JUMPDEST PUSH1 0x0 DUP3 DUP3 GT ISZERO PUSH2 0x3AD4 JUMPI PUSH1 0x0 DUP1 REVERT JUMPDEST POP SWAP1 SUB SWAP1 JUMP JUMPDEST PUSH1 0x4 DUP3 ADD SLOAD PUSH2 0x3AF0 SWAP1 PUSH1 0x3 PUSH4 0xFFFFFFFF PUSH2 0x381A AND JUMP JUMPDEST PUSH2 0x1205 JUMPI DUP2 SLOAD PUSH2 0x3B0A SWAP1 PUSH1 0xC DUP5 ADD SWAP1 PUSH4 0xFFFFFFFF PUSH2 0x3D7C AND JUMP JUMPDEST PUSH1 0x0 PUSH2 0x3B16 PUSH1 0xA PUSH2 0x3D87 JUMP JUMPDEST PUSH1 0x1 PUSH1 0x1 PUSH1 0x60 SHL SUB AND SWAP1 POP PUSH2 0x30E1 PUSH2 0x3B34 DUP3 DUP5 PUSH4 0xFFFFFFFF PUSH2 0x503C AND JUMP JUMPDEST PUSH1 0xA SWAP1 PUSH4 0xFFFFFFFF PUSH2 0x3D7C AND JUMP JUMPDEST DUP3 PUSH1 0x1 PUSH1 0x1 PUSH1 0xA0 SHL SUB AND PUSH4 0xA9059CBB DUP4 DUP4 PUSH1 0x40 MLOAD DUP4 PUSH4 0xFFFFFFFF AND PUSH1 0xE0 SHL DUP2 MSTORE PUSH1 0x4 ADD DUP1 DUP4 PUSH1 0x1 PUSH1 0x1 PUSH1 0xA0 SHL SUB AND PUSH1 0x1 PUSH1 0x1 PUSH1 0xA0 SHL SUB AND DUP2 MSTORE PUSH1 0x20 ADD DUP3 DUP2 MSTORE PUSH1 0x20 ADD SWAP3 POP POP POP PUSH1 0x20 PUSH1 0x40 MLOAD DUP1 DUP4 SUB DUP2 PUSH1 0x0 DUP8 DUP1 EXTCODESIZE ISZERO DUP1 ISZERO PUSH2 0x3BA2 JUMPI PUSH1 0x0 DUP1 REVERT JUMPDEST POP GAS CALL ISZERO DUP1 ISZERO PUSH2 0x3BB6 JUMPI RETURNDATASIZE PUSH1 0x0 DUP1 RETURNDATACOPY RETURNDATASIZE PUSH1 0x0 REVERT JUMPDEST POP POP POP POP PUSH1 0x40 MLOAD RETURNDATASIZE PUSH1 0x20 DUP2 LT ISZERO PUSH2 0x3BCC JUMPI PUSH1 0x0 DUP1 REVERT JUMPDEST POP MLOAD PUSH2 0x30E1 JUMPI PUSH1 0x0 DUP1 REVERT JUMPDEST PUSH1 0x4 DUP3 ADD SLOAD PUSH2 0x3BED SWAP1 PUSH1 0x1 PUSH4 0xFFFFFFFF PUSH2 0x381A AND JUMP JUMPDEST PUSH2 0x3BF6 JUMPI PUSH2 0x1205 JUMP JUMPDEST PUSH1 0x0 JUMPDEST PUSH1 0xB DUP4 ADD SLOAD DUP2 LT ISZERO PUSH2 0x30E1 JUMPI PUSH1 0x0 DUP4 PUSH1 0xB ADD DUP3 DUP2 SLOAD DUP2 LT PUSH2 0x3C16 JUMPI INVALID JUMPDEST PUSH1 0x0 SWAP2 DUP3 MSTORE PUSH1 0x20 SWAP1 SWAP2 KECCAK256 ADD DUP1 SLOAD SWAP1 SWAP2 POP PUSH3 0x10000 SWAP1 DIV PUSH2 0xFFFF AND ISZERO ISZERO DUP1 PUSH2 0x3C47 JUMPI POP DUP1 SLOAD PUSH1 0x1 PUSH1 0x20 SHL SWAP1 DIV PUSH2 0xFFFF AND ISZERO JUMPDEST ISZERO PUSH2 0x3C52 JUMPI POP PUSH2 0x3C9C JUMP JUMPDEST DUP1 SLOAD PUSH1 0x0 NOT PUSH2 0xFFFF PUSH1 0x1 PUSH1 0x20 SHL DUP1 DUP5 DIV DUP3 AND SWAP3 SWAP1 SWAP3 ADD DUP2 AND DUP3 MUL PUSH2 0xFFFF PUSH1 0x20 SHL NOT SWAP1 SWAP4 AND SWAP3 SWAP1 SWAP3 OR DUP1 DUP5 SSTORE DIV AND PUSH2 0x3C9A JUMPI DUP1 SLOAD PUSH4 0xFFFF0000 NOT AND PUSH3 0x10000 PUSH2 0xFFFF DUP6 AND MUL OR DUP2 SSTORE JUMPDEST POP JUMPDEST PUSH1 0x1 ADD PUSH2 0x3BF9 JUMP JUMPDEST PUSH1 0x0 DUP3 DUP3 ADD PUSH2 0xFFFF DUP1 DUP6 AND SWAP1 DUP3 AND LT ISZERO PUSH2 0x2A5A JUMPI INVALID JUMPDEST PUSH1 0x4 DUP3 ADD SLOAD PUSH1 0x0 SWAP1 PUSH2 0x3CD3 SWAP1 PUSH1 0x1 PUSH4 0xFFFFFFFF PUSH2 0x381A AND JUMP JUMPDEST DUP1 ISZERO PUSH2 0x3CEF JUMPI POP PUSH1 0x1 DUP4 ADD SLOAD PUSH2 0xFFFF DUP1 DUP5 AND PUSH3 0x10000 SWAP1 SWAP3 DIV AND GT JUMPDEST ISZERO PUSH2 0x3CFE JUMPI POP PUSH1 0x1 DUP2 ADD PUSH2 0x18D3 JUMP JUMPDEST POP SWAP2 SWAP1 POP JUMP JUMPDEST DUP2 SLOAD PUSH1 0x0 SWAP1 PUSH3 0x10000 SWAP1 DIV PUSH2 0xFFFF AND ISZERO PUSH2 0x3D2A JUMPI POP DUP2 SLOAD PUSH3 0x10000 SWAP1 DIV PUSH2 0xFFFF AND PUSH2 0x18D3 JUMP JUMPDEST DUP3 SLOAD PUSH1 0x1 PUSH1 0x20 SHL SWAP1 DIV PUSH2 0xFFFF SWAP1 DUP2 AND DUP4 DUP3 AND ADD SWAP1 PUSH4 0xFFFFFFFF DUP3 AND GT ISZERO PUSH2 0x2A5A JUMPI PUSH2 0xFFFF SWAP2 POP POP PUSH2 0x18D3 JUMP JUMPDEST PUSH1 0x0 DUP3 PUSH2 0xFFFF AND DUP3 PUSH2 0xFFFF AND GT ISZERO PUSH2 0x3AD4 JUMPI INVALID JUMPDEST PUSH1 0x0 DUP3 DUP3 ADD DUP4 DUP2 LT ISZERO PUSH2 0x2A5A JUMPI PUSH1 0x0 DUP1 REVERT JUMPDEST PUSH2 0x1205 DUP3 NUMBER DUP4 PUSH2 0x5070 JUMP JUMPDEST PUSH1 0x0 DUP1 PUSH2 0x3D93 DUP4 PUSH2 0x5167 JUMP JUMPDEST SWAP5 SWAP4 POP POP POP POP JUMP JUMPDEST PUSH1 0x40 DUP1 MLOAD PUSH4 0x23B872DD PUSH1 0xE0 SHL DUP2 MSTORE PUSH1 0x1 PUSH1 0x1 PUSH1 0xA0 SHL SUB DUP6 DUP2 AND PUSH1 0x4 DUP4 ADD MSTORE DUP5 DUP2 AND PUSH1 0x24 DUP4 ADD MSTORE PUSH1 0x44 DUP3 ADD DUP5 SWAP1 MSTORE SWAP2 MLOAD SWAP2 DUP7 AND SWAP2 PUSH4 0x23B872DD SWAP2 PUSH1 0x64 DUP1 DUP3 ADD SWAP3 PUSH1 0x20 SWAP3 SWAP1 SWAP2 SWAP1 DUP3 SWAP1 SUB ADD DUP2 PUSH1 0x0 DUP8 DUP1 EXTCODESIZE ISZERO DUP1 ISZERO PUSH2 0x3DF6 JUMPI PUSH1 0x0 DUP1 REVERT JUMPDEST POP GAS CALL ISZERO DUP1 ISZERO PUSH2 0x3E0A JUMPI RETURNDATASIZE PUSH1 0x0 DUP1 RETURNDATACOPY RETURNDATASIZE PUSH1 0x0 REVERT JUMPDEST POP POP POP POP PUSH1 0x40 MLOAD RETURNDATASIZE PUSH1 0x20 DUP2 LT ISZERO PUSH2 0x3E20 JUMPI PUSH1 0x0 DUP1 REVERT JUMPDEST POP MLOAD PUSH2 0x3E2B JUMPI PUSH1 0x0 DUP1 REVERT JUMPDEST POP POP POP POP JUMP JUMPDEST DUP2 PUSH2 0x3E3B JUMPI PUSH1 0x0 DUP1 REVERT JUMPDEST PUSH1 0x1 PUSH1 0x1 PUSH1 0xA0 SHL SUB DUP1 DUP6 AND PUSH1 0x0 SWAP1 DUP2 MSTORE PUSH1 0x6 PUSH1 0x20 SWAP1 DUP2 MSTORE PUSH1 0x40 DUP1 DUP4 KECCAK256 PUSH1 0x8 SWAP1 SWAP3 MSTORE SWAP1 SWAP2 KECCAK256 SLOAD SWAP1 SWAP2 AND ISZERO DUP1 PUSH2 0x3E95 JUMPI POP PUSH1 0x3 DUP2 ADD SLOAD PUSH1 0x1 PUSH1 0x1 PUSH1 0xA0 SHL SUB DUP7 DUP2 AND PUSH1 0x0 SWAP1 DUP2 MSTORE PUSH1 0x8 PUSH1 0x20 MSTORE PUSH1 0x40 SWAP1 KECCAK256 SLOAD DUP2 AND PUSH3 0x10000 SWAP1 SWAP3 DIV AND EQ JUMPDEST PUSH2 0x3ED0 JUMPI PUSH1 0x40 MLOAD PUSH3 0x461BCD PUSH1 0xE5 SHL DUP2 MSTORE PUSH1 0x4 ADD DUP1 DUP1 PUSH1 0x20 ADD DUP3 DUP2 SUB DUP3 MSTORE PUSH1 0x2D DUP2 MSTORE PUSH1 0x20 ADD DUP1 PUSH2 0x5B0C PUSH1 0x2D SWAP2 CODECOPY PUSH1 0x40 ADD SWAP2 POP POP PUSH1 0x40 MLOAD DUP1 SWAP2 SUB SWAP1 REVERT JUMPDEST PUSH1 0xB DUP2 ADD SLOAD PUSH2 0x3FB0 JUMPI PUSH1 0x7 DUP1 SLOAD PUSH1 0x1 DUP1 DUP3 ADD DUP4 SSTORE PUSH1 0x0 SWAP3 SWAP1 SWAP3 MSTORE PUSH32 0xA66CC928B5EDB82AF9BD49922954155AB7B0942694BEA4CE44661D9A8736C688 ADD DUP1 SLOAD PUSH1 0x1 PUSH1 0x1 PUSH1 0xA0 SHL SUB NOT AND PUSH1 0x1 PUSH1 0x1 PUSH1 0xA0 SHL SUB DUP9 DUP2 AND SWAP2 SWAP1 SWAP2 OR SWAP1 SWAP2 SSTORE PUSH1 0xB SLOAD AND SWAP1 PUSH4 0x72BE8D8D SWAP1 DUP8 SWAP1 PUSH2 0x3F3F PUSH2 0x112C JUMP JUMPDEST SUB PUSH1 0x40 MLOAD DUP4 PUSH4 0xFFFFFFFF AND PUSH1 0xE0 SHL DUP2 MSTORE PUSH1 0x4 ADD DUP1 DUP4 PUSH1 0x1 PUSH1 0x1 PUSH1 0xA0 SHL SUB AND PUSH1 0x1 PUSH1 0x1 PUSH1 0xA0 SHL SUB AND DUP2 MSTORE PUSH1 0x20 ADD DUP3 PUSH2 0xFFFF AND PUSH2 0xFFFF AND DUP2 MSTORE PUSH1 0x20 ADD SWAP3 POP POP POP PUSH1 0x0 PUSH1 0x40 MLOAD DUP1 DUP4 SUB DUP2 PUSH1 0x0 DUP8 DUP1 EXTCODESIZE ISZERO DUP1 ISZERO PUSH2 0x3F97 JUMPI PUSH1 0x0 DUP1 REVERT JUMPDEST POP GAS CALL ISZERO DUP1 ISZERO PUSH2 0x3FAB JUMPI RETURNDATASIZE PUSH1 0x0 DUP1 RETURNDATACOPY RETURNDATASIZE PUSH1 0x0 REVERT JUMPDEST POP POP POP POP JUMPDEST PUSH2 0x3FEB PUSH1 0x1 PUSH1 0x1 PUSH1 0xA0 SHL SUB PUSH32 0x0 AND DUP6 ADDRESS DUP7 PUSH4 0xFFFFFFFF PUSH2 0x3D9B AND JUMP JUMPDEST DUP1 SLOAD DUP4 ADD DUP2 SSTORE PUSH2 0x3FFC DUP6 DUP5 DUP5 PUSH2 0x4053 JUMP JUMPDEST PUSH2 0x4006 DUP2 DUP5 PUSH2 0x3ADA JUMP JUMPDEST PUSH1 0x40 DUP1 MLOAD DUP5 DUP2 MSTORE PUSH2 0xFFFF DUP5 AND PUSH1 0x20 DUP3 ADD MSTORE DUP2 MLOAD PUSH1 0x1 PUSH1 0x1 PUSH1 0xA0 SHL SUB DUP9 AND SWAP3 PUSH32 0xEEF72C2775E4E59D04B76FE99649C70B0101DBC951CE46A5A6262A6CBC138E90 SWAP3 DUP3 SWAP1 SUB ADD SWAP1 LOG2 POP POP POP POP POP JUMP JUMPDEST PUSH32 0x0 DUP3 LT ISZERO DUP1 ISZERO PUSH2 0x40AB JUMPI POP PUSH32 0x0 PUSH2 0xFFFF AND DUP2 PUSH2 0xFFFF AND LT ISZERO JUMPDEST PUSH2 0x40B4 JUMPI PUSH1 0x0 DUP1 REVERT JUMPDEST PUSH1 0x0 PUSH2 0x40BE PUSH2 0x112C JUMP JUMPDEST PUSH1 0x1 PUSH1 0x1 PUSH1 0xA0 SHL SUB DUP6 AND PUSH1 0x0 SWAP1 DUP2 MSTORE PUSH1 0x6 PUSH1 0x20 MSTORE PUSH1 0x40 DUP2 KECCAK256 SWAP2 SWAP3 POP PUSH1 0x1 DUP4 ADD SWAP2 SWAP1 PUSH2 0x40EA DUP3 DUP6 DUP6 PUSH2 0x3A19 JUMP JUMPDEST SWAP1 POP PUSH1 0x0 PUSH2 0x40FE DUP8 DUP4 PUSH4 0xFFFFFFFF PUSH2 0x3D6A AND JUMP JUMPDEST DUP4 SLOAD SWAP1 SWAP2 POP DUP2 GT DUP1 ISZERO SWAP1 PUSH2 0x4132 JUMPI POP PUSH32 0x0 DUP2 GT ISZERO JUMPDEST PUSH2 0x413B JUMPI PUSH1 0x0 DUP1 REVERT JUMPDEST PUSH1 0x1 DUP4 ADD SLOAD DUP7 SWAP1 PUSH2 0xFFFF DUP7 DUP2 AND PUSH3 0x10000 SWAP1 SWAP3 DIV AND EQ ISZERO PUSH2 0x41CF JUMPI PUSH1 0x4 DUP5 ADD SLOAD PUSH2 0x416C SWAP1 PUSH1 0x1 PUSH4 0xFFFFFFFF PUSH2 0x381A AND JUMP JUMPDEST ISZERO PUSH2 0x4176 JUMPI PUSH1 0x0 NOT ADD JUMPDEST PUSH2 0xFFFF DUP6 AND PUSH1 0x0 DUP2 DUP2 MSTORE PUSH1 0x9 PUSH1 0x20 SWAP1 DUP2 MSTORE PUSH1 0x40 SWAP2 DUP3 SWAP1 KECCAK256 DUP1 SLOAD DUP13 ADD SWAP1 SSTORE DUP2 MLOAD DUP12 DUP2 MSTORE SWAP2 MLOAD PUSH1 0x1 PUSH1 0x1 PUSH1 0xA0 SHL SUB DUP14 AND SWAP3 PUSH32 0x6E826CFD4B2F0D3E70085110FF45FC6023AAA1EF2CD87F58F574AEE310489EBC SWAP3 SWAP1 DUP3 SWAP1 SUB ADD SWAP1 LOG3 JUMPDEST PUSH2 0x41DD DUP5 DUP7 PUSH1 0x0 DUP5 DUP13 PUSH2 0x4C93 JUMP JUMPDEST PUSH1 0x40 DUP1 MLOAD DUP10 DUP2 MSTORE PUSH2 0xFFFF DUP1 DUP9 AND PUSH1 0x20 DUP4 ADD MSTORE DUP10 AND DUP2 DUP4 ADD MSTORE SWAP1 MLOAD PUSH1 0x1 PUSH1 0x1 PUSH1 0xA0 SHL SUB DUP12 AND SWAP2 PUSH1 0x0 DUP1 MLOAD PUSH1 0x20 PUSH2 0x5A3F DUP4 CODECOPY DUP2 MLOAD SWAP2 MSTORE SWAP2 SWAP1 DUP2 SWAP1 SUB PUSH1 0x60 ADD SWAP1 LOG2 POP POP POP POP POP POP POP POP POP JUMP JUMPDEST PUSH1 0x0 DUP1 DUP1 PUSH1 0x1E PUSH2 0xFFFF DUP1 DUP4 JUMPDEST PUSH1 0xB DUP12 ADD SLOAD DUP2 LT ISZERO PUSH2 0x43B6 JUMPI PUSH1 0x0 DUP12 PUSH1 0xB ADD DUP3 DUP2 SLOAD DUP2 LT PUSH2 0x424F JUMPI INVALID JUMPDEST SWAP1 PUSH1 0x0 MSTORE PUSH1 0x20 PUSH1 0x0 KECCAK256 ADD SWAP1 POP PUSH1 0x0 PUSH2 0x4267 DUP3 DUP12 PUSH2 0x3D04 JUMP JUMPDEST DUP3 SLOAD SWAP1 SWAP2 POP PUSH2 0xFFFF SWAP1 DUP2 AND SWAP1 DUP3 AND LT ISZERO PUSH2 0x4282 JUMPI POP POP PUSH2 0x43AE JUMP JUMPDEST DUP2 SLOAD PUSH2 0xFFFF DUP1 DUP15 AND SWAP2 AND GT DUP1 ISZERO SWAP1 PUSH2 0x42A2 JUMPI POP DUP11 PUSH2 0xFFFF AND DUP2 PUSH2 0xFFFF AND LT ISZERO JUMPDEST ISZERO PUSH2 0x42C3 JUMPI DUP2 SLOAD PUSH1 0x1 PUSH1 0x30 SHL SWAP1 DIV PUSH1 0x1 PUSH1 0x1 PUSH1 0x80 SHL SUB AND SWAP7 SWAP1 SWAP7 ADD SWAP6 PUSH2 0x4341 JUMP JUMPDEST DUP2 SLOAD PUSH2 0xFFFF DUP1 DUP15 AND SWAP2 AND GT DUP1 ISZERO SWAP1 PUSH2 0x42E3 JUMPI POP DUP12 PUSH2 0xFFFF AND DUP2 PUSH2 0xFFFF AND LT ISZERO JUMPDEST ISZERO PUSH2 0x4304 JUMPI DUP2 SLOAD PUSH1 0x1 PUSH1 0x30 SHL SWAP1 DIV PUSH1 0x1 PUSH1 0x1 PUSH1 0x80 SHL SUB AND SWAP9 SWAP1 SWAP9 ADD SWAP8 PUSH2 0x4341 JUMP JUMPDEST DUP2 SLOAD PUSH2 0xFFFF DUP1 DUP14 AND SWAP2 AND GT DUP1 ISZERO SWAP1 PUSH2 0x4324 JUMPI POP DUP11 PUSH2 0xFFFF AND DUP2 PUSH2 0xFFFF AND LT ISZERO JUMPDEST ISZERO PUSH2 0x4341 JUMPI DUP2 SLOAD PUSH1 0x1 PUSH1 0x30 SHL SWAP1 DIV PUSH1 0x1 PUSH1 0x1 PUSH1 0x80 SHL SUB AND SWAP8 SWAP1 SWAP8 ADD SWAP7 JUMPDEST DUP2 SLOAD PUSH2 0xFFFF SWAP1 DUP2 AND DUP1 DUP4 SUB SWAP2 DUP15 AND LT DUP1 ISZERO SWAP1 PUSH2 0x4365 JUMPI POP DUP13 PUSH2 0xFFFF AND DUP3 PUSH2 0xFFFF AND LT ISZERO JUMPDEST DUP1 ISZERO PUSH2 0x439B JUMPI POP DUP5 PUSH2 0xFFFF AND DUP3 PUSH2 0xFFFF AND LT DUP1 PUSH2 0x439B JUMPI POP DUP5 PUSH2 0xFFFF AND DUP3 PUSH2 0xFFFF AND EQ DUP1 ISZERO PUSH2 0x439B JUMPI POP DUP6 PUSH2 0xFFFF AND DUP2 PUSH2 0xFFFF AND LT JUMPDEST ISZERO PUSH2 0x43AA JUMPI DUP4 SWAP7 POP DUP1 SWAP6 POP DUP2 SWAP5 POP JUMPDEST POP POP POP JUMPDEST PUSH1 0x1 ADD PUSH2 0x4232 JUMP JUMPDEST POP POP POP SWAP5 POP SWAP5 POP SWAP5 POP SWAP5 SWAP1 POP JUMP JUMPDEST PUSH1 0x0 DUP6 PUSH1 0xB ADD PUSH1 0x0 DUP2 SLOAD DUP2 LT PUSH2 0x43D6 JUMPI INVALID JUMPDEST PUSH1 0x0 SWAP2 DUP3 MSTORE PUSH1 0x20 SWAP1 SWAP2 KECCAK256 ADD SWAP1 POP PUSH2 0xFFFF DUP1 JUMPDEST DUP7 ISZERO PUSH2 0x4598 JUMPI PUSH1 0x1E DUP5 LT ISZERO PUSH2 0x4432 JUMPI DUP8 PUSH1 0xB ADD DUP5 DUP2 SLOAD DUP2 LT PUSH2 0x4406 JUMPI INVALID JUMPDEST SWAP1 PUSH1 0x0 MSTORE PUSH1 0x20 PUSH1 0x0 KECCAK256 ADD SWAP3 POP PUSH2 0x441C DUP4 DUP7 PUSH2 0x3D04 JUMP JUMPDEST DUP4 SLOAD PUSH1 0x1E SWAP6 POP SWAP1 SWAP3 POP PUSH2 0xFFFF AND DUP3 SUB SWAP1 POP PUSH2 0x4446 JUMP JUMPDEST PUSH2 0x443D DUP9 DUP8 DUP8 PUSH2 0x519E JUMP JUMPDEST SWAP2 SWAP5 POP SWAP1 SWAP3 POP SWAP1 POP JUMPDEST PUSH2 0xFFFF DUP2 DUP2 AND EQ ISZERO PUSH2 0x4457 JUMPI PUSH2 0x4598 JUMP JUMPDEST DUP3 SLOAD DUP8 SWAP1 PUSH1 0x1 PUSH1 0x30 SHL SWAP1 DIV PUSH1 0x1 PUSH1 0x1 PUSH1 0x80 SHL SUB AND DUP2 LT ISZERO PUSH2 0x44BA JUMPI DUP4 SLOAD PUSH1 0x1 PUSH1 0x1 PUSH1 0x80 SHL SUB PUSH1 0x1 PUSH1 0x30 SHL DUP1 DUP4 DIV DUP3 AND DUP12 SWAP1 SUB SWAP1 SWAP2 AND MUL PUSH1 0x1 PUSH1 0x30 SHL PUSH1 0x1 PUSH1 0xB0 SHL SUB NOT SWAP1 SWAP2 AND OR DUP1 DUP6 SSTORE PUSH2 0x44B1 SWAP1 DUP11 SWAP1 PUSH2 0xFFFF AND DUP11 DUP11 PUSH2 0x5275 JUMP JUMPDEST PUSH1 0x0 SWAP8 POP PUSH2 0x44EC JUMP JUMPDEST POP DUP3 SLOAD PUSH4 0xFFFF0000 NOT AND PUSH3 0x10000 PUSH1 0x0 NOT DUP9 ADD PUSH2 0xFFFF AND MUL OR DUP1 DUP5 SSTORE PUSH1 0x1 PUSH1 0x30 SHL SWAP1 DIV PUSH1 0x1 PUSH1 0x1 PUSH1 0x80 SHL SUB AND SWAP7 DUP8 SWAP1 SUB SWAP7 JUMPDEST PUSH1 0x1 DUP10 ADD SLOAD PUSH2 0xFFFF DUP1 DUP10 AND SWAP2 AND LT DUP1 ISZERO SWAP1 PUSH2 0x4512 JUMPI POP PUSH1 0x1 DUP10 ADD SLOAD PUSH2 0xFFFF DUP1 DUP6 AND SWAP2 AND GT ISZERO JUMPDEST ISZERO PUSH2 0x4536 JUMPI PUSH1 0x1 DUP10 ADD SLOAD PUSH2 0xFFFF AND PUSH1 0x0 SWAP1 DUP2 MSTORE PUSH1 0x9 PUSH1 0x20 MSTORE PUSH1 0x40 SWAP1 KECCAK256 DUP1 SLOAD DUP3 SWAP1 SUB SWAP1 SSTORE JUMPDEST PUSH1 0x1 DUP10 ADD SLOAD PUSH2 0xFFFF DUP1 DUP10 AND PUSH3 0x10000 SWAP1 SWAP3 DIV AND LT DUP1 ISZERO SWAP1 PUSH2 0x4568 JUMPI POP PUSH1 0x1 DUP10 ADD SLOAD PUSH2 0xFFFF DUP1 DUP6 AND PUSH3 0x10000 SWAP1 SWAP3 DIV AND GT ISZERO JUMPDEST ISZERO PUSH2 0x4592 JUMPI PUSH1 0x1 DUP10 ADD SLOAD PUSH3 0x10000 SWAP1 DIV PUSH2 0xFFFF AND PUSH1 0x0 SWAP1 DUP2 MSTORE PUSH1 0x9 PUSH1 0x20 MSTORE PUSH1 0x40 SWAP1 KECCAK256 DUP1 SLOAD DUP3 SWAP1 SUB SWAP1 SSTORE JUMPDEST POP PUSH2 0x43E8 JUMP JUMPDEST POP POP POP POP POP POP POP POP JUMP JUMPDEST PUSH1 0x4 DUP1 SLOAD PUSH1 0x1 PUSH1 0x1 PUSH1 0x80 SHL SUB NOT DUP2 AND PUSH1 0x1 PUSH1 0x1 PUSH1 0x80 SHL SUB SWAP2 DUP3 AND DUP5 SWAP1 SUB DUP3 AND OR DUP1 DUP3 AND PUSH1 0x1 PUSH1 0x80 SHL SWAP2 DUP3 SWAP1 DIV DUP4 AND SWAP5 SWAP1 SWAP5 SUB SWAP1 SWAP2 AND MUL SWAP2 SWAP1 SWAP2 OR SWAP1 SSTORE JUMP JUMPDEST PUSH2 0x45E9 DUP2 PUSH2 0x5421 JUMP JUMPDEST PUSH1 0xB SLOAD PUSH1 0x1 PUSH1 0x1 PUSH1 0xA0 SHL SUB AND PUSH2 0x4606 DUP3 PUSH4 0xAB3DBF3B PUSH1 0xE0 SHL PUSH2 0x4B11 JUMP JUMPDEST PUSH1 0x1 PUSH1 0x1 PUSH1 0xA0 SHL SUB AND EQ PUSH2 0x4619 JUMPI PUSH1 0x0 DUP1 REVERT JUMPDEST PUSH1 0xC SLOAD PUSH1 0x1 PUSH1 0x1 PUSH1 0xA0 SHL SUB AND PUSH2 0x4636 DUP3 PUSH4 0x29E176C7 PUSH1 0xE1 SHL PUSH2 0x4B11 JUMP JUMPDEST PUSH1 0x1 PUSH1 0x1 PUSH1 0xA0 SHL SUB AND EQ PUSH2 0x4649 JUMPI PUSH1 0x0 DUP1 REVERT JUMPDEST PUSH1 0xD SLOAD PUSH1 0x1 PUSH1 0x1 PUSH1 0xA0 SHL SUB AND PUSH2 0x4666 DUP3 PUSH4 0xE3FEA99 PUSH1 0xE1 SHL PUSH2 0x4B11 JUMP JUMPDEST PUSH1 0x1 PUSH1 0x1 PUSH1 0xA0 SHL SUB AND EQ PUSH2 0x4679 JUMPI PUSH1 0x0 DUP1 REVERT JUMPDEST PUSH1 0x0 DUP1 DUP1 MSTORE PUSH1 0x9 PUSH1 0x20 MSTORE PUSH32 0xEC8156718A8372B1DB44BB411437D0870F3E3790D4A08526D024CE1B0B668F6B SLOAD SWAP1 PUSH2 0x46BA SWAP1 DUP4 SWAP1 PUSH4 0x77CAF05D PUSH1 0xE1 SHL SWAP1 PUSH2 0x54B7 JUMP JUMPDEST EQ PUSH2 0x46C4 JUMPI PUSH1 0x0 DUP1 REVERT JUMPDEST PUSH1 0x0 DUP1 DUP1 MSTORE PUSH1 0x8 PUSH1 0x20 MSTORE PUSH32 0x5EFF886EA0CE6CA488A3D6E336D6C0F75F46D19B42C06CE5EE98E42C96D256C7 SLOAD PUSH1 0x1 PUSH1 0x1 PUSH1 0xA0 SHL SUB AND SWAP1 PUSH2 0x470E SWAP1 DUP4 SWAP1 PUSH4 0x597759B7 PUSH1 0xE1 SHL SWAP1 PUSH2 0x54B7 JUMP JUMPDEST PUSH1 0x1 PUSH1 0x1 PUSH1 0xA0 SHL SUB AND EQ PUSH2 0x4721 JUMPI PUSH1 0x0 DUP1 REVERT JUMPDEST PUSH1 0x7 SLOAD PUSH2 0x4734 DUP3 PUSH3 0x9FABEB PUSH1 0xE8 SHL PUSH2 0x4B11 JUMP JUMPDEST EQ PUSH2 0x473E JUMPI PUSH1 0x0 DUP1 REVERT JUMPDEST PUSH1 0x7 SLOAD PUSH2 0x474A JUMPI PUSH2 0x1107 JUMP JUMPDEST PUSH1 0x0 PUSH1 0x7 PUSH1 0x0 DUP2 SLOAD DUP2 LT PUSH2 0x475A JUMPI INVALID JUMPDEST PUSH1 0x0 SWAP2 DUP3 MSTORE PUSH1 0x20 DUP3 KECCAK256 ADD SLOAD PUSH1 0x1 PUSH1 0x1 PUSH1 0xA0 SHL SUB AND SWAP2 POP DUP2 SWAP1 PUSH2 0x4786 SWAP1 DUP5 SWAP1 PUSH4 0xFD5E6DD1 PUSH1 0xE0 SHL SWAP1 PUSH2 0x54B7 JUMP JUMPDEST PUSH1 0x1 PUSH1 0x1 PUSH1 0xA0 SHL SUB AND EQ PUSH2 0x4799 JUMPI PUSH1 0x0 DUP1 REVERT JUMPDEST PUSH1 0x1 PUSH1 0x1 PUSH1 0xA0 SHL SUB DUP2 AND PUSH1 0x0 DUP2 DUP2 MSTORE PUSH1 0x6 PUSH1 0x20 MSTORE PUSH1 0x40 SWAP1 KECCAK256 SWAP1 PUSH2 0x47BA PUSH2 0x589F JUMP JUMPDEST PUSH2 0x47C4 DUP6 DUP4 PUSH2 0x54D2 JUMP JUMPDEST DUP4 SLOAD DUP2 MLOAD SWAP2 SWAP3 POP EQ DUP1 ISZERO PUSH2 0x47E7 JUMPI POP PUSH1 0x1 DUP4 ADD SLOAD PUSH1 0x20 DUP3 ADD MLOAD PUSH2 0xFFFF SWAP1 DUP2 AND SWAP2 AND EQ JUMPDEST DUP1 ISZERO PUSH2 0x4808 JUMPI POP PUSH1 0x1 DUP4 ADD SLOAD PUSH1 0x40 DUP3 ADD MLOAD PUSH2 0xFFFF SWAP1 DUP2 AND PUSH3 0x10000 SWAP1 SWAP3 DIV AND EQ JUMPDEST DUP1 ISZERO PUSH2 0x481C JUMPI POP DUP3 PUSH1 0x4 ADD SLOAD DUP2 PUSH2 0x100 ADD MLOAD EQ JUMPDEST DUP1 ISZERO PUSH2 0x483E JUMPI POP PUSH1 0x1 DUP4 ADD SLOAD PUSH1 0x80 DUP3 ADD MLOAD PUSH2 0xFFFF SWAP1 DUP2 AND PUSH1 0x1 PUSH1 0x30 SHL SWAP1 SWAP3 DIV AND EQ JUMPDEST DUP1 ISZERO PUSH2 0x4860 JUMPI POP PUSH1 0x1 DUP4 ADD SLOAD PUSH1 0x60 DUP3 ADD MLOAD PUSH2 0xFFFF SWAP1 DUP2 AND PUSH1 0x1 PUSH1 0x20 SHL SWAP1 SWAP3 DIV AND EQ JUMPDEST DUP1 ISZERO PUSH2 0x4873 JUMPI POP DUP3 PUSH1 0x2 ADD SLOAD DUP2 PUSH1 0xA0 ADD MLOAD EQ JUMPDEST DUP1 ISZERO PUSH2 0x4899 JUMPI POP PUSH1 0x3 DUP4 ADD SLOAD PUSH1 0xE0 DUP3 ADD MLOAD PUSH1 0x1 PUSH1 0x1 PUSH1 0xA0 SHL SUB SWAP1 DUP2 AND PUSH3 0x10000 SWAP1 SWAP3 DIV AND EQ JUMPDEST DUP1 ISZERO PUSH2 0x48B4 JUMPI POP PUSH1 0x3 DUP4 ADD SLOAD PUSH1 0xC0 DUP3 ADD MLOAD PUSH2 0xFFFF SWAP1 DUP2 AND SWAP2 AND EQ JUMPDEST PUSH2 0x48BD JUMPI PUSH1 0x0 DUP1 REVERT JUMPDEST PUSH1 0xA DUP4 ADD SLOAD PUSH2 0x48D4 DUP7 PUSH4 0x90DCB51F PUSH1 0xE0 SHL DUP6 PUSH2 0x54B7 JUMP JUMPDEST EQ PUSH2 0x48DE JUMPI PUSH1 0x0 DUP1 REVERT JUMPDEST PUSH1 0x0 JUMPDEST PUSH1 0xA DUP5 ADD SLOAD DUP2 LT DUP1 ISZERO PUSH2 0x48F4 JUMPI POP PUSH1 0x5 DUP2 LT JUMPDEST ISZERO PUSH2 0x496A JUMPI PUSH1 0x0 DUP5 PUSH1 0xA ADD DUP3 DUP2 SLOAD DUP2 LT PUSH2 0x490A JUMPI INVALID JUMPDEST SWAP1 PUSH1 0x0 MSTORE PUSH1 0x20 PUSH1 0x0 KECCAK256 ADD SWAP1 POP PUSH2 0x491E PUSH2 0x5940 JUMP JUMPDEST PUSH2 0x4929 DUP9 DUP7 DUP6 PUSH2 0x54F1 JUMP JUMPDEST DUP3 SLOAD DUP2 MLOAD SWAP2 SWAP3 POP PUSH2 0xFFFF SWAP2 DUP3 AND SWAP2 AND EQ DUP1 ISZERO PUSH2 0x4957 JUMPI POP DUP2 SLOAD PUSH1 0x20 DUP3 ADD MLOAD PUSH2 0xFFFF SWAP1 DUP2 AND PUSH3 0x10000 SWAP1 SWAP3 DIV AND EQ JUMPDEST PUSH2 0x4960 JUMPI PUSH1 0x0 DUP1 REVERT JUMPDEST POP POP PUSH1 0x1 ADD PUSH2 0x48E1 JUMP JUMPDEST POP PUSH1 0xB DUP4 ADD SLOAD PUSH2 0x4982 DUP7 PUSH4 0x4BCAFE5 PUSH1 0xE0 SHL DUP6 PUSH2 0x54B7 JUMP JUMPDEST EQ PUSH2 0x498C JUMPI PUSH1 0x0 DUP1 REVERT JUMPDEST PUSH1 0x0 JUMPDEST PUSH1 0xB DUP5 ADD SLOAD DUP2 LT DUP1 ISZERO PUSH2 0x49A2 JUMPI POP PUSH1 0x5 DUP2 LT JUMPDEST ISZERO PUSH2 0x4A5B JUMPI PUSH1 0x0 DUP5 PUSH1 0xB ADD DUP3 DUP2 SLOAD DUP2 LT PUSH2 0x49B8 JUMPI INVALID JUMPDEST SWAP1 PUSH1 0x0 MSTORE PUSH1 0x20 PUSH1 0x0 KECCAK256 ADD SWAP1 POP PUSH2 0x49CC PUSH2 0x5957 JUMP JUMPDEST PUSH2 0x49D7 DUP9 DUP7 DUP6 PUSH2 0x5519 JUMP JUMPDEST DUP3 SLOAD DUP2 MLOAD SWAP2 SWAP3 POP PUSH2 0xFFFF SWAP2 DUP3 AND SWAP2 AND EQ DUP1 ISZERO PUSH2 0x4A05 JUMPI POP DUP2 SLOAD PUSH1 0x20 DUP3 ADD MLOAD PUSH2 0xFFFF SWAP1 DUP2 AND PUSH3 0x10000 SWAP1 SWAP3 DIV AND EQ JUMPDEST DUP1 ISZERO PUSH2 0x4A24 JUMPI POP DUP2 SLOAD PUSH1 0x40 DUP3 ADD MLOAD PUSH2 0xFFFF SWAP1 DUP2 AND PUSH1 0x1 PUSH1 0x20 SHL SWAP1 SWAP3 DIV AND EQ JUMPDEST DUP1 ISZERO PUSH2 0x4A48 JUMPI POP DUP2 SLOAD PUSH1 0x60 DUP3 ADD MLOAD PUSH1 0x1 PUSH1 0x1 PUSH1 0x80 SHL SUB SWAP1 DUP2 AND PUSH1 0x1 PUSH1 0x30 SHL SWAP1 SWAP3 DIV AND EQ JUMPDEST PUSH2 0x4A51 JUMPI PUSH1 0x0 DUP1 REVERT JUMPDEST POP POP PUSH1 0x1 ADD PUSH2 0x498F JUMP JUMPDEST POP PUSH2 0x4A66 DUP5 NUMBER PUSH2 0x34F5 JUMP JUMPDEST PUSH2 0x4A79 DUP7 PUSH4 0xEDE38421 PUSH1 0xE0 SHL DUP6 NUMBER PUSH2 0x5538 JUMP JUMPDEST EQ PUSH2 0x4A83 JUMPI PUSH1 0x0 DUP1 REVERT JUMPDEST PUSH2 0x4A8C NUMBER PUSH2 0x2E48 JUMP JUMPDEST PUSH2 0x4A9E DUP7 PUSH4 0x64E29919 PUSH1 0xE1 SHL NUMBER PUSH2 0x54B7 JUMP JUMPDEST EQ PUSH2 0x4AA8 JUMPI PUSH1 0x0 DUP1 REVERT JUMPDEST PUSH1 0x3 DUP4 ADD SLOAD PUSH3 0x10000 SWAP1 DIV PUSH1 0x1 PUSH1 0x1 PUSH1 0xA0 SHL SUB AND ISZERO PUSH2 0x29F7 JUMPI PUSH1 0x3 DUP4 ADD SLOAD PUSH1 0x1 PUSH1 0x1 PUSH1 0xA0 SHL SUB PUSH3 0x10000 SWAP1 SWAP2 DIV DUP2 AND PUSH1 0x0 DUP2 DUP2 MSTORE PUSH1 0x8 PUSH1 0x20 MSTORE PUSH1 0x40 SWAP1 KECCAK256 SLOAD SWAP1 SWAP2 AND SWAP1 PUSH2 0x4AFE SWAP1 DUP8 SWAP1 PUSH4 0x597759B7 PUSH1 0xE1 SHL SWAP1 PUSH2 0x54B7 JUMP JUMPDEST PUSH1 0x1 PUSH1 0x1 PUSH1 0xA0 SHL SUB AND EQ PUSH2 0x29F7 JUMPI PUSH1 0x0 DUP1 REVERT JUMPDEST PUSH1 0x0 DUP1 PUSH2 0x4B21 DUP5 DUP5 DUP4 DUP1 DUP1 PUSH2 0x5554 JUMP JUMPDEST MLOAD SWAP5 SWAP4 POP POP POP POP JUMP JUMPDEST DUP2 SLOAD PUSH1 0x0 SWAP1 DUP3 SWAP1 DUP1 PUSH2 0x4B41 JUMPI PUSH1 0x0 SWAP3 POP POP POP PUSH2 0x18D3 JUMP JUMPDEST PUSH1 0x0 PUSH1 0x1 DUP3 SUB SWAP1 POP PUSH1 0x0 DUP1 PUSH2 0x4B8C DUP9 PUSH1 0x1 DUP7 SUB DUP2 SLOAD DUP2 LT PUSH2 0x4B5E JUMPI INVALID JUMPDEST SWAP1 PUSH1 0x0 MSTORE PUSH1 0x20 PUSH1 0x0 KECCAK256 SWAP1 PUSH1 0x2 SWAP2 DUP3 DUP3 DIV ADD SWAP2 SWAP1 MOD PUSH1 0x10 MUL SWAP1 SLOAD SWAP1 PUSH2 0x100 EXP SWAP1 DIV PUSH1 0x1 PUSH1 0x1 PUSH1 0x80 SHL SUB AND PUSH2 0x55A4 JUMP JUMPDEST SWAP2 POP SWAP2 POP DUP2 PUSH4 0xFFFFFFFF AND DUP6 PUSH4 0xFFFFFFFF AND LT PUSH2 0x4BAF JUMPI SWAP5 POP PUSH2 0x18D3 SWAP4 POP POP POP POP JUMP JUMPDEST PUSH2 0x4BBF DUP9 PUSH1 0x0 DUP2 SLOAD DUP2 LT PUSH2 0x4B5E JUMPI INVALID JUMPDEST SWAP1 SWAP3 POP SWAP1 POP PUSH1 0x1 DUP5 EQ DUP1 PUSH2 0x4BDE JUMPI POP DUP2 PUSH4 0xFFFFFFFF AND DUP6 PUSH4 0xFFFFFFFF AND LT JUMPDEST ISZERO PUSH2 0x4BF1 JUMPI PUSH1 0x0 SWAP6 POP POP POP POP POP POP PUSH2 0x18D3 JUMP JUMPDEST PUSH1 0x0 PUSH1 0x0 NOT DUP5 ADD DUP2 DUP1 JUMPDEST DUP4 DUP4 GT ISZERO PUSH2 0x4C73 JUMPI PUSH1 0x0 PUSH1 0x2 PUSH1 0x1 DUP6 DUP8 ADD ADD DIV SWAP1 POP PUSH2 0x4C1F DUP14 DUP3 DUP2 SLOAD DUP2 LT PUSH2 0x4B5E JUMPI INVALID JUMPDEST SWAP1 SWAP4 POP SWAP2 POP PUSH4 0xFFFFFFFF DUP1 DUP5 AND SWAP1 DUP12 AND GT ISZERO PUSH2 0x4C3D JUMPI DUP1 SWAP5 POP PUSH2 0x4C6D JUMP JUMPDEST DUP3 PUSH4 0xFFFFFFFF AND DUP11 PUSH4 0xFFFFFFFF AND LT ISZERO PUSH2 0x4C5C JUMPI PUSH1 0x1 DUP2 SUB SWAP4 POP PUSH2 0x4C6D JUMP JUMPDEST POP SWAP9 POP PUSH2 0x18D3 SWAP8 POP POP POP POP POP POP POP POP JUMP JUMPDEST POP PUSH2 0x4BFB JUMP JUMPDEST PUSH2 0x4C82 DUP13 DUP6 DUP2 SLOAD DUP2 LT PUSH2 0x4B5E JUMPI INVALID JUMPDEST SWAP14 SWAP13 POP POP POP POP POP POP POP POP POP POP POP POP POP JUMP JUMPDEST PUSH1 0x0 JUMPDEST PUSH1 0xB DUP7 ADD SLOAD DUP2 LT ISZERO PUSH2 0x4DA1 JUMPI PUSH1 0x0 DUP7 PUSH1 0xB ADD DUP3 DUP2 SLOAD DUP2 LT PUSH2 0x4CB3 JUMPI INVALID JUMPDEST PUSH1 0x0 SWAP2 DUP3 MSTORE PUSH1 0x20 SWAP1 SWAP2 KECCAK256 ADD DUP1 SLOAD SWAP1 SWAP2 POP PUSH3 0x10000 SWAP1 DIV PUSH2 0xFFFF AND ISZERO DUP1 ISZERO SWAP1 PUSH2 0x4CFF JUMPI POP PUSH1 0x1 DUP8 ADD SLOAD PUSH2 0xFFFF AND ISZERO DUP1 PUSH2 0x4CFF JUMPI POP PUSH1 0x1 DUP8 ADD SLOAD DUP2 SLOAD PUSH2 0xFFFF SWAP2 DUP3 AND PUSH3 0x10000 SWAP1 SWAP2 DIV SWAP1 SWAP2 AND LT JUMPDEST DUP1 ISZERO PUSH2 0x4D37 JUMPI POP PUSH1 0x1 DUP8 ADD SLOAD PUSH3 0x10000 SWAP1 DIV PUSH2 0xFFFF AND ISZERO DUP1 PUSH2 0x4D37 JUMPI POP PUSH1 0x1 DUP8 ADD SLOAD DUP2 SLOAD PUSH2 0xFFFF PUSH3 0x10000 SWAP3 DUP4 SWAP1 DIV DUP2 AND SWAP3 SWAP1 SWAP2 DIV AND LT JUMPDEST ISZERO PUSH2 0x4D98 JUMPI DUP1 SLOAD PUSH2 0xFFFF NOT AND PUSH2 0xFFFF DUP8 DUP2 AND SWAP2 SWAP1 SWAP2 OR PUSH4 0xFFFF0000 NOT AND PUSH3 0x10000 DUP8 DUP4 AND MUL OR PUSH2 0xFFFF PUSH1 0x20 SHL NOT AND PUSH1 0x1 PUSH1 0x20 SHL SWAP2 DUP7 AND SWAP2 SWAP1 SWAP2 MUL OR PUSH1 0x1 PUSH1 0x30 SHL PUSH1 0x1 PUSH1 0xB0 SHL SUB NOT AND PUSH1 0x1 PUSH1 0x30 SHL PUSH1 0x1 PUSH1 0x1 PUSH1 0x80 SHL SUB DUP6 AND MUL OR SWAP1 SSTORE POP PUSH2 0x29F7 JUMP JUMPDEST POP PUSH1 0x1 ADD PUSH2 0x4C96 JUMP JUMPDEST POP PUSH1 0xB DUP6 ADD SLOAD PUSH1 0x1E GT PUSH2 0x4DB3 JUMPI PUSH1 0x0 DUP1 REVERT JUMPDEST PUSH1 0x40 DUP1 MLOAD PUSH1 0x80 DUP2 ADD DUP3 MSTORE PUSH2 0xFFFF DUP1 DUP8 AND DUP3 MSTORE DUP6 DUP2 AND PUSH1 0x20 DUP1 DUP5 ADD SWAP2 DUP3 MSTORE DUP7 DUP4 AND SWAP5 DUP5 ADD SWAP5 DUP6 MSTORE PUSH1 0x1 PUSH1 0x1 PUSH1 0x80 SHL SUB DUP1 DUP8 AND PUSH1 0x60 DUP7 ADD SWAP1 DUP2 MSTORE PUSH1 0xB DUP13 ADD DUP1 SLOAD PUSH1 0x1 DUP2 ADD DUP3 SSTORE PUSH1 0x0 SWAP2 DUP3 MSTORE SWAP4 SWAP1 KECCAK256 SWAP6 MLOAD SWAP6 SWAP1 SWAP3 ADD DUP1 SLOAD SWAP4 MLOAD SWAP7 MLOAD SWAP3 MLOAD SWAP1 SWAP2 AND PUSH1 0x1 PUSH1 0x30 SHL MUL PUSH1 0x1 PUSH1 0x30 SHL PUSH1 0x1 PUSH1 0xB0 SHL SUB NOT SWAP3 DUP6 AND PUSH1 0x1 PUSH1 0x20 SHL MUL PUSH2 0xFFFF PUSH1 0x20 SHL NOT SWAP8 DUP7 AND PUSH3 0x10000 MUL PUSH4 0xFFFF0000 NOT SWAP8 SWAP1 SWAP7 AND PUSH2 0xFFFF NOT SWAP1 SWAP6 AND SWAP5 SWAP1 SWAP5 OR SWAP6 SWAP1 SWAP6 AND SWAP4 SWAP1 SWAP4 OR SWAP5 SWAP1 SWAP5 AND OR SWAP3 SWAP1 SWAP3 AND OR SWAP1 SSTORE POP POP POP POP POP JUMP JUMPDEST PUSH1 0x1 PUSH1 0x1 PUSH1 0xA0 SHL SUB DUP2 AND PUSH2 0x4E7D JUMPI PUSH1 0x0 DUP1 REVERT JUMPDEST PUSH1 0x0 DUP1 SLOAD PUSH1 0x40 MLOAD PUSH1 0x1 PUSH1 0x1 PUSH1 0xA0 SHL SUB DUP1 DUP6 AND SWAP4 SWAP3 AND SWAP2 PUSH32 0x8BE0079C531659141344CD1FD0A4F28419497F9722A3DAAFE3B4186F6B6457E0 SWAP2 LOG3 PUSH1 0x0 DUP1 SLOAD PUSH1 0x1 PUSH1 0x1 PUSH1 0xA0 SHL SUB NOT AND PUSH1 0x1 PUSH1 0x1 PUSH1 0xA0 SHL SUB SWAP3 SWAP1 SWAP3 AND SWAP2 SWAP1 SWAP2 OR SWAP1 SSTORE JUMP JUMPDEST PUSH1 0x0 DUP1 JUMPDEST PUSH1 0xB DUP8 ADD SLOAD DUP2 LT ISZERO PUSH2 0x4FC1 JUMPI PUSH1 0x0 DUP8 PUSH1 0xB ADD DUP3 DUP2 SLOAD DUP2 LT PUSH2 0x4EF9 JUMPI INVALID JUMPDEST SWAP1 PUSH1 0x0 MSTORE PUSH1 0x20 PUSH1 0x0 KECCAK256 ADD SWAP1 POP PUSH1 0x0 PUSH2 0x4F11 DUP3 DUP8 PUSH2 0x3D04 JUMP JUMPDEST DUP3 SLOAD SWAP1 SWAP2 POP PUSH2 0xFFFF DUP1 DUP11 AND SWAP2 AND GT DUP1 ISZERO SWAP1 PUSH2 0x4F34 JUMPI POP DUP8 PUSH2 0xFFFF AND DUP2 PUSH2 0xFFFF AND LT ISZERO JUMPDEST ISZERO PUSH2 0x4FB7 JUMPI DUP2 SLOAD PUSH2 0xFFFF DUP10 DUP2 AND PUSH1 0x0 SWAP1 DUP2 MSTORE PUSH1 0x9 PUSH1 0x20 MSTORE PUSH1 0x40 DUP2 KECCAK256 SLOAD SWAP1 SWAP3 PUSH2 0x4F7C SWAP3 DUP12 SWAP3 PUSH1 0x1 PUSH1 0x30 SHL SWAP1 SWAP3 DIV PUSH1 0x1 PUSH1 0x1 PUSH1 0x80 SHL SUB AND SWAP2 SWAP1 PUSH2 0x4F77 SWAP1 DUP8 AND DUP15 PUSH2 0x3D56 JUMP JUMPDEST PUSH2 0x55B2 JUMP JUMPDEST SWAP5 DUP6 ADD SWAP5 SWAP1 POP DUP6 ISZERO PUSH2 0x4FB5 JUMPI DUP3 SLOAD PUSH1 0x1 PUSH1 0x1 PUSH1 0x80 SHL SUB PUSH1 0x1 PUSH1 0x30 SHL DUP1 DUP4 DIV DUP3 AND DUP5 ADD SWAP1 SWAP2 AND MUL PUSH1 0x1 PUSH1 0x30 SHL PUSH1 0x1 PUSH1 0xB0 SHL SUB NOT SWAP1 SWAP2 AND OR DUP4 SSTORE JUMPDEST POP JUMPDEST POP POP PUSH1 0x1 ADD PUSH2 0x4EDC JUMP JUMPDEST POP PUSH1 0xB SLOAD PUSH1 0x40 DUP1 MLOAD PUSH4 0x3EA2391F PUSH1 0xE0 SHL DUP2 MSTORE PUSH1 0x1 PUSH1 0x1 PUSH1 0xA0 SHL SUB DUP11 DUP2 AND PUSH1 0x4 DUP4 ADD MSTORE PUSH2 0xFFFF DUP10 AND PUSH1 0x24 DUP4 ADD MSTORE SWAP2 MLOAD SWAP2 SWAP1 SWAP3 AND SWAP2 PUSH4 0x3EA2391F SWAP2 PUSH1 0x44 DUP1 DUP4 ADD SWAP3 PUSH1 0x0 SWAP3 SWAP2 SWAP1 DUP3 SWAP1 SUB ADD DUP2 DUP4 DUP8 DUP1 EXTCODESIZE ISZERO DUP1 ISZERO PUSH2 0x501A JUMPI PUSH1 0x0 DUP1 REVERT JUMPDEST POP GAS CALL ISZERO DUP1 ISZERO PUSH2 0x502E JUMPI RETURNDATASIZE PUSH1 0x0 DUP1 RETURNDATACOPY RETURNDATASIZE PUSH1 0x0 REVERT JUMPDEST POP POP POP POP SWAP7 SWAP6 POP POP POP POP POP POP JUMP JUMPDEST PUSH1 0x0 DUP1 DUP3 SLT PUSH2 0x505C JUMPI PUSH2 0x5055 DUP4 DUP4 PUSH4 0xFFFFFFFF PUSH2 0x3D6A AND JUMP JUMPDEST SWAP1 POP PUSH2 0x18D3 JUMP JUMPDEST PUSH2 0x5055 DUP4 PUSH1 0x0 DUP5 SWAP1 SUB PUSH4 0xFFFFFFFF PUSH2 0x3AC5 AND JUMP JUMPDEST DUP3 SLOAD DUP1 ISZERO PUSH2 0x5117 JUMPI PUSH1 0x0 PUSH2 0x508C DUP6 PUSH1 0x1 DUP5 SUB DUP2 SLOAD DUP2 LT PUSH2 0x4B5E JUMPI INVALID JUMPDEST POP SWAP1 POP DUP1 PUSH4 0xFFFFFFFF AND DUP5 PUSH4 0xFFFFFFFF AND EQ ISZERO PUSH2 0x50FC JUMPI PUSH2 0x50AD DUP5 DUP5 PUSH2 0x57F4 JUMP JUMPDEST DUP6 PUSH1 0x1 DUP5 SUB DUP2 SLOAD DUP2 LT PUSH2 0x50BC JUMPI INVALID JUMPDEST SWAP1 PUSH1 0x0 MSTORE PUSH1 0x20 PUSH1 0x0 KECCAK256 SWAP1 PUSH1 0x2 SWAP2 DUP3 DUP3 DIV ADD SWAP2 SWAP1 MOD PUSH1 0x10 MUL PUSH2 0x100 EXP DUP2 SLOAD DUP2 PUSH1 0x1 PUSH1 0x1 PUSH1 0x80 SHL SUB MUL NOT AND SWAP1 DUP4 PUSH1 0x1 PUSH1 0x1 PUSH1 0x80 SHL SUB AND MUL OR SWAP1 SSTORE POP POP POP PUSH2 0x30E1 JUMP JUMPDEST DUP1 PUSH4 0xFFFFFFFF AND DUP5 PUSH4 0xFFFFFFFF AND LT ISZERO PUSH2 0x5115 JUMPI PUSH1 0x0 DUP1 REVERT JUMPDEST POP JUMPDEST DUP4 PUSH2 0x5122 DUP5 DUP5 PUSH2 0x57F4 JUMP JUMPDEST DUP2 SLOAD PUSH1 0x1 DUP2 DUP2 ADD DUP5 SSTORE PUSH1 0x0 SWAP4 DUP5 MSTORE PUSH1 0x20 SWAP1 SWAP4 KECCAK256 PUSH1 0x2 DUP3 DIV ADD DUP1 SLOAD PUSH1 0x1 PUSH1 0x1 PUSH1 0x80 SHL SUB SWAP4 DUP5 AND PUSH1 0x10 SWAP4 SWAP1 SWAP6 AND SWAP3 SWAP1 SWAP3 MUL PUSH2 0x100 EXP SWAP4 DUP5 MUL SWAP3 SWAP1 SWAP4 MUL NOT AND OR SWAP1 SSTORE POP POP POP POP JUMP JUMPDEST DUP1 SLOAD PUSH1 0x0 SWAP1 DUP2 SWAP1 DUP1 ISZERO PUSH2 0x5190 JUMPI PUSH2 0x5186 DUP5 PUSH1 0x1 DUP4 SUB DUP2 SLOAD DUP2 LT PUSH2 0x4B5E JUMPI INVALID JUMPDEST SWAP3 POP SWAP3 POP POP PUSH2 0x5199 JUMP JUMPDEST POP PUSH1 0x0 SWAP2 POP DUP2 SWAP1 POP JUMPDEST SWAP2 POP SWAP2 JUMP JUMPDEST PUSH1 0x0 PUSH2 0xFFFF DUP1 DUP3 JUMPDEST PUSH1 0xB DUP8 ADD SLOAD DUP2 LT ISZERO PUSH2 0x526B JUMPI PUSH1 0x0 DUP8 PUSH1 0xB ADD DUP3 DUP2 SLOAD DUP2 LT PUSH2 0x51C3 JUMPI INVALID JUMPDEST SWAP1 PUSH1 0x0 MSTORE PUSH1 0x20 PUSH1 0x0 KECCAK256 ADD SWAP1 POP PUSH1 0x0 PUSH2 0x51DB DUP3 DUP9 PUSH2 0x3D04 JUMP JUMPDEST DUP3 SLOAD SWAP1 SWAP2 POP PUSH2 0xFFFF SWAP1 DUP2 AND SWAP1 DUP3 AND LT ISZERO PUSH2 0x51F6 JUMPI POP POP PUSH2 0x5263 JUMP JUMPDEST DUP2 SLOAD PUSH2 0xFFFF SWAP1 DUP2 AND DUP1 DUP4 SUB SWAP2 DUP11 AND LT DUP1 ISZERO SWAP1 PUSH2 0x521A JUMPI POP DUP9 PUSH2 0xFFFF AND DUP3 PUSH2 0xFFFF AND LT ISZERO JUMPDEST DUP1 ISZERO PUSH2 0x5250 JUMPI POP DUP5 PUSH2 0xFFFF AND DUP3 PUSH2 0xFFFF AND LT DUP1 PUSH2 0x5250 JUMPI POP DUP5 PUSH2 0xFFFF AND DUP3 PUSH2 0xFFFF AND EQ DUP1 ISZERO PUSH2 0x5250 JUMPI POP DUP6 PUSH2 0xFFFF AND DUP2 PUSH2 0xFFFF AND LT JUMPDEST ISZERO PUSH2 0x525F JUMPI DUP3 SWAP7 POP DUP1 SWAP6 POP DUP2 SWAP5 POP JUMPDEST POP POP POP JUMPDEST PUSH1 0x1 ADD PUSH2 0x51A6 JUMP JUMPDEST POP SWAP4 POP SWAP4 POP SWAP4 SWAP1 POP JUMP JUMPDEST PUSH1 0x1 DUP5 ADD SLOAD PUSH1 0x0 SWAP1 PUSH2 0xFFFF AND ISZERO DUP1 ISZERO SWAP1 PUSH2 0x5299 JUMPI POP PUSH1 0x1 DUP6 ADD SLOAD PUSH2 0xFFFF DUP1 DUP5 AND SWAP2 AND LT JUMPDEST PUSH1 0x1 DUP7 ADD SLOAD SWAP1 SWAP2 POP PUSH1 0x0 SWAP1 PUSH3 0x10000 SWAP1 DIV PUSH2 0xFFFF AND ISZERO DUP1 ISZERO SWAP1 PUSH2 0x52CC JUMPI POP PUSH1 0x1 DUP7 ADD SLOAD PUSH2 0xFFFF DUP1 DUP6 AND PUSH3 0x10000 SWAP1 SWAP3 DIV AND LT JUMPDEST SWAP1 POP PUSH1 0x0 DUP3 DUP1 ISZERO PUSH2 0x52E8 JUMPI POP PUSH1 0x1 DUP8 ADD SLOAD PUSH2 0xFFFF DUP1 DUP9 AND SWAP2 AND LT ISZERO JUMPDEST SWAP1 POP PUSH1 0x0 DUP3 DUP1 ISZERO PUSH2 0x530A JUMPI POP PUSH1 0x1 DUP9 ADD SLOAD PUSH2 0xFFFF DUP1 DUP10 AND PUSH3 0x10000 SWAP1 SWAP3 DIV AND LT ISZERO JUMPDEST SWAP1 POP DUP2 ISZERO DUP1 ISZERO PUSH2 0x5318 JUMPI POP DUP1 ISZERO JUMPDEST ISZERO PUSH2 0x5326 JUMPI POP POP POP POP PUSH2 0x3E2B JUMP JUMPDEST PUSH1 0x0 NOT DUP6 ADD PUSH1 0x0 JUMPDEST PUSH1 0xB DUP11 ADD SLOAD DUP2 LT ISZERO PUSH2 0x5407 JUMPI PUSH1 0x0 DUP11 PUSH1 0xB ADD DUP3 DUP2 SLOAD DUP2 LT PUSH2 0x534B JUMPI INVALID JUMPDEST PUSH1 0x0 SWAP2 DUP3 MSTORE PUSH1 0x20 SWAP1 SWAP2 KECCAK256 ADD DUP1 SLOAD SWAP1 SWAP2 POP PUSH2 0xFFFF DUP5 DUP2 AND PUSH3 0x10000 SWAP1 SWAP3 DIV AND EQ DUP1 ISZERO PUSH2 0x53C1 JUMPI POP DUP7 DUP1 ISZERO PUSH2 0x538B JUMPI POP DUP1 SLOAD PUSH1 0x1 DUP13 ADD SLOAD PUSH2 0xFFFF SWAP2 DUP3 AND SWAP2 AND LT ISZERO JUMPDEST ISZERO ISZERO DUP6 ISZERO ISZERO EQ DUP1 ISZERO PUSH2 0x53C1 JUMPI POP DUP6 DUP1 ISZERO PUSH2 0x53BA JUMPI POP DUP1 SLOAD PUSH1 0x1 DUP13 ADD SLOAD PUSH2 0xFFFF SWAP2 DUP3 AND PUSH3 0x10000 SWAP1 SWAP2 DIV SWAP1 SWAP2 AND LT ISZERO JUMPDEST ISZERO ISZERO DUP5 ISZERO ISZERO EQ JUMPDEST ISZERO PUSH2 0x53FE JUMPI DUP1 SLOAD PUSH1 0x1 PUSH1 0x1 PUSH1 0x80 SHL SUB PUSH1 0x1 PUSH1 0x30 SHL DUP1 DUP4 DIV DUP3 AND DUP13 ADD SWAP1 SWAP2 AND MUL PUSH1 0x1 PUSH1 0x30 SHL PUSH1 0x1 PUSH1 0xB0 SHL SUB NOT SWAP1 SWAP2 AND OR SWAP1 SSTORE POP PUSH2 0x3E2B SWAP5 POP POP POP POP POP JUMP JUMPDEST POP PUSH1 0x1 ADD PUSH2 0x532E JUMP JUMPDEST POP PUSH2 0x5416 DUP10 DUP10 DUP4 PUSH1 0x0 DUP12 PUSH2 0x4C93 JUMP JUMPDEST POP POP POP POP POP POP POP POP POP JUMP JUMPDEST PUSH2 0x542A DUP2 PUSH2 0x5810 JUMP JUMPDEST PUSH1 0x5 SLOAD PUSH2 0xFFFF AND PUSH2 0x5442 DUP3 PUSH4 0x3D92AC5 PUSH1 0xE2 SHL PUSH2 0x4B11 JUMP JUMPDEST PUSH2 0xFFFF AND EQ PUSH2 0x5450 JUMPI PUSH1 0x0 DUP1 REVERT JUMPDEST PUSH1 0x4 SLOAD PUSH1 0x1 PUSH1 0x1 PUSH1 0x80 SHL SUB AND PUSH2 0x546D DUP3 PUSH4 0x3250843D PUSH1 0xE0 SHL PUSH2 0x4B11 JUMP JUMPDEST PUSH1 0x1 PUSH1 0x1 PUSH1 0x80 SHL SUB AND EQ PUSH2 0x5480 JUMPI PUSH1 0x0 DUP1 REVERT JUMPDEST PUSH1 0x4 SLOAD PUSH1 0x1 PUSH1 0x80 SHL SWAP1 DIV PUSH1 0x1 PUSH1 0x1 PUSH1 0x80 SHL SUB AND PUSH2 0x54A4 DUP3 PUSH4 0x408C255 PUSH1 0xE3 SHL PUSH2 0x4B11 JUMP JUMPDEST PUSH1 0x1 PUSH1 0x1 PUSH1 0x80 SHL SUB AND EQ PUSH2 0x1107 JUMPI PUSH1 0x0 DUP1 REVERT JUMPDEST PUSH1 0x0 DUP1 PUSH2 0x54C8 DUP6 DUP6 PUSH1 0x1 DUP7 DUP6 PUSH2 0x5554 JUMP JUMPDEST MLOAD SWAP6 SWAP5 POP POP POP POP POP JUMP JUMPDEST PUSH2 0x54DA PUSH2 0x589F JUMP JUMPDEST PUSH1 0x0 PUSH2 0x3D93 DUP5 PUSH4 0x4E745F1F PUSH1 0xE0 SHL PUSH1 0x1 DUP7 DUP6 PUSH2 0x5554 JUMP JUMPDEST PUSH2 0x54F9 PUSH2 0x5940 JUMP JUMPDEST PUSH1 0x0 PUSH2 0x5510 DUP6 PUSH4 0x8FA95A15 PUSH1 0xE0 SHL PUSH1 0x2 DUP8 DUP8 PUSH2 0x5554 JUMP JUMPDEST SWAP6 SWAP5 POP POP POP POP POP JUMP JUMPDEST PUSH2 0x5521 PUSH2 0x5957 JUMP JUMPDEST PUSH1 0x0 PUSH2 0x5510 DUP6 PUSH4 0x290E526D PUSH1 0xE1 SHL PUSH1 0x2 DUP8 DUP8 PUSH2 0x5554 JUMP JUMPDEST PUSH1 0x0 DUP1 PUSH2 0x5549 DUP7 DUP7 PUSH1 0x2 DUP8 DUP8 PUSH2 0x5554 JUMP JUMPDEST MLOAD SWAP7 SWAP6 POP POP POP POP POP POP JUMP JUMPDEST PUSH1 0x40 MLOAD DUP5 DUP2 MSTORE DUP4 ISZERO PUSH2 0x5567 JUMPI DUP3 PUSH1 0x4 DUP3 ADD MSTORE JUMPDEST PUSH1 0x1 DUP5 GT ISZERO PUSH2 0x5577 JUMPI DUP2 PUSH1 0x24 DUP3 ADD MSTORE JUMPDEST PUSH1 0x0 DUP1 DUP6 PUSH1 0x20 MUL PUSH1 0x4 ADD DUP4 DUP10 GAS DELEGATECALL DUP1 ISZERO PUSH2 0x5595 JUMPI RETURNDATASIZE PUSH1 0x0 DUP4 RETURNDATACOPY PUSH2 0x559A JUMP JUMPDEST PUSH1 0x0 DUP3 REVERT JUMPDEST POP SWAP6 SWAP5 POP POP POP POP POP JUMP JUMPDEST PUSH4 0xFFFFFFFF PUSH1 0x60 DUP3 SWAP1 SHR AND SWAP2 JUMP JUMPDEST PUSH1 0x4 SLOAD PUSH1 0x0 SWAP1 PUSH32 0x0 PUSH1 0x1 PUSH1 0x1 PUSH1 0x80 SHL SUB SWAP1 DUP2 AND PUSH1 0x1 PUSH1 0x80 SHL SWAP1 SWAP3 DIV AND EQ ISZERO PUSH2 0x55FB JUMPI POP PUSH1 0x0 PUSH2 0x3D93 JUMP JUMPDEST PUSH1 0x5 SLOAD PUSH2 0xFFFF SWAP1 DUP2 AND SWAP1 DUP7 AND GT ISZERO PUSH2 0x5642 JUMPI PUSH1 0x4 DUP1 SLOAD PUSH1 0x1 PUSH1 0x80 SHL DUP2 DIV PUSH1 0x1 PUSH1 0x1 PUSH1 0x80 SHL SUB AND PUSH1 0x1 PUSH1 0x1 PUSH1 0x80 SHL SUB NOT SWAP1 SWAP2 AND OR SWAP1 SSTORE PUSH1 0x5 DUP1 SLOAD PUSH2 0xFFFF NOT AND PUSH2 0xFFFF DUP8 AND OR SWAP1 SSTORE JUMPDEST PUSH1 0x4 SLOAD PUSH1 0x0 SWAP1 DUP2 SWAP1 PUSH32 0x0 PUSH1 0x1 PUSH1 0x1 PUSH1 0x80 SHL SUB SWAP1 SWAP2 AND PUSH32 0x0 ADD GT PUSH2 0x56E7 JUMPI POP PUSH32 0x0 SWAP1 POP PUSH32 0x0 PUSH2 0x573C JUMP JUMPDEST POP POP PUSH1 0x4 SLOAD PUSH1 0x1 PUSH1 0x1 PUSH1 0x80 SHL SUB SWAP1 DUP2 AND PUSH32 0x0 SUB AND PUSH32 0x0 JUMPDEST PUSH1 0x0 PUSH32 0x0 PUSH2 0x5789 DUP7 PUSH32 0x0 PUSH2 0x586A JUMP JUMPDEST PUSH2 0xFFFF AND ADD SWAP1 POP DUP2 DUP7 MUL DUP2 DUP9 DUP6 MUL MUL DUP2 PUSH2 0x579F JUMPI INVALID JUMPDEST DIV SWAP4 POP PUSH1 0x0 PUSH2 0x57AC PUSH2 0x1D21 JUMP JUMPDEST SWAP1 POP DUP5 PUSH2 0x57BC JUMPI PUSH1 0x1 SWAP5 POP PUSH2 0x57C8 JUMP JUMPDEST DUP1 DUP6 GT ISZERO PUSH2 0x57C8 JUMPI DUP1 SWAP5 POP JUMPDEST POP POP PUSH1 0x4 DUP1 SLOAD PUSH1 0x1 PUSH1 0x1 PUSH1 0x80 SHL SUB PUSH1 0x1 PUSH1 0x80 SHL DUP1 DUP4 DIV DUP3 AND DUP8 ADD DUP3 AND MUL SWAP2 AND OR SWAP1 SSTORE POP POP SWAP5 SWAP4 POP POP POP POP JUMP JUMPDEST PUSH1 0x1 PUSH1 0x1 PUSH1 0x60 SHL SUB AND PUSH1 0x60 SWAP2 SWAP1 SWAP2 SHL PUSH4 0xFFFFFFFF PUSH1 0x60 SHL AND OR SWAP1 JUMP JUMPDEST PUSH1 0x2 DUP1 SLOAD PUSH1 0x1 PUSH1 0xA0 SHL SWAP1 DIV PUSH1 0xFF AND EQ PUSH2 0x5828 JUMPI PUSH1 0x0 DUP1 REVERT JUMPDEST PUSH1 0x40 DUP1 MLOAD CALLER DUP2 MSTORE SWAP1 MLOAD PUSH1 0x1 PUSH1 0x1 PUSH1 0xA0 SHL SUB DUP4 AND SWAP2 PUSH32 0x1E8D98C1B4A0D9BD2E2371026B632EB2773FCCE41742E41F02F574AB69868D4C SWAP2 SWAP1 DUP2 SWAP1 SUB PUSH1 0x20 ADD SWAP1 LOG2 POP JUMP JUMPDEST PUSH1 0x0 DUP2 PUSH2 0xFFFF AND DUP4 PUSH2 0xFFFF AND LT PUSH2 0x3ABE JUMPI DUP2 PUSH2 0x2A5A JUMP JUMPDEST PUSH1 0x40 MLOAD DUP1 PUSH1 0x40 ADD PUSH1 0x40 MSTORE DUP1 PUSH1 0x2 SWAP1 PUSH1 0x20 DUP3 MUL DUP1 CALLDATASIZE DUP4 CALLDATACOPY POP SWAP2 SWAP3 SWAP2 POP POP JUMP JUMPDEST PUSH1 0x40 MLOAD DUP1 PUSH2 0x220 ADD PUSH1 0x40 MSTORE DUP1 PUSH1 0x0 DUP2 MSTORE PUSH1 0x20 ADD PUSH1 0x0 PUSH2 0xFFFF AND DUP2 MSTORE PUSH1 0x20 ADD PUSH1 0x0 PUSH2 0xFFFF AND DUP2 MSTORE PUSH1 0x20 ADD PUSH1 0x0 PUSH2 0xFFFF AND DUP2 MSTORE PUSH1 0x20 ADD PUSH1 0x0 PUSH2 0xFFFF AND DUP2 MSTORE PUSH1 0x20 ADD PUSH1 0x0 DUP2 MSTORE PUSH1 0x20 ADD PUSH1 0x0 PUSH2 0xFFFF AND DUP2 MSTORE PUSH1 0x20 ADD PUSH1 0x0 PUSH1 0x1 PUSH1 0x1 PUSH1 0xA0 SHL SUB AND DUP2 MSTORE PUSH1 0x20 ADD PUSH1 0x0 DUP2 MSTORE PUSH1 0x20 ADD PUSH1 0x0 DUP2 MSTORE PUSH1 0x20 ADD PUSH1 0x0 DUP2 MSTORE PUSH1 0x20 ADD PUSH1 0x0 DUP2 MSTORE PUSH1 0x20 ADD PUSH1 0x0 DUP2 MSTORE PUSH1 0x20 ADD PUSH1 0x0 DUP2 MSTORE PUSH1 0x20 ADD PUSH1 0x60 DUP2 MSTORE PUSH1 0x20 ADD PUSH1 0x60 DUP2 MSTORE PUSH1 0x20 ADD PUSH1 0x60 DUP2 MSTORE POP SWAP1 JUMP JUMPDEST PUSH1 0x40 DUP1 MLOAD DUP1 DUP3 ADD SWAP1 SWAP2 MSTORE PUSH1 0x0 DUP1 DUP3 MSTORE PUSH1 0x20 DUP3 ADD MSTORE SWAP1 JUMP JUMPDEST PUSH1 0x40 DUP1 MLOAD PUSH1 0x80 DUP2 ADD DUP3 MSTORE PUSH1 0x0 DUP1 DUP3 MSTORE PUSH1 0x20 DUP3 ADD DUP2 SWAP1 MSTORE SWAP2 DUP2 ADD DUP3 SWAP1 MSTORE PUSH1 0x60 DUP2 ADD SWAP2 SWAP1 SWAP2 MSTORE SWAP1 JUMP JUMPDEST PUSH1 0x0 PUSH4 0xFFFFFFFF DUP4 AND PUSH2 0x5993 JUMPI POP PUSH1 0x0 PUSH2 0x18D3 JUMP JUMPDEST DUP3 DUP3 MUL PUSH4 0xFFFFFFFF DUP1 DUP5 AND SWAP1 DUP1 DUP7 AND SWAP1 DUP4 AND DUP2 PUSH2 0x59AC JUMPI INVALID JUMPDEST DIV PUSH4 0xFFFFFFFF AND EQ PUSH2 0x2A5A JUMPI INVALID INVALID MSTORE8 PUSH21 0x616B6572206D75737420686176652061207374616B PUSH6 0x20746F206D61 PUSH12 0x65206120636F6D6D69746D65 PUSH15 0x7454686520737562207374616B6520 PUSH14 0x7573742061637469766520617420 PUSH13 0x6561737420696E20746865206E PUSH6 0x787420706572 PUSH10 0x6F645370656369666965 PUSH5 0x20776F726B PUSH6 0x722069732061 PUSH13 0x726561647920696E207573655C DUP3 0xB2 PUSH29 0xA454D536B55DF10A5A7CBF8CEAB76CCF7D614A04668EE4990C8726384F PUSH15 0x6C7920776F726B6572207769746820 PUSH19 0x65616C20616464726573732063616E206D616B PUSH6 0x206120636F6D PUSH14 0x69746D656E744E6F7420656E6F75 PUSH8 0x682074696D652068 PUSH2 0x7320 PUSH17 0x61737365642073696E6365207468652070 PUSH19 0x6576696F757320626F6E64696E6720776F726B PUSH6 0x725468652065 PUSH25 0x74656E64656420737562207374616B65206D757374206E6F74 KECCAK256 PUSH3 0x65206C PUSH6 0x737320746861 PUSH15 0x20746865206D696E696D756D207661 PUSH13 0x756541207374616B6572206361 PUSH15 0x2774206265206120776F726B657220 PUSH7 0x6F7220616E6F74 PUSH9 0x6572207374616B6572 MSTORE8 PUSH17 0x6563696669656420776F726B6572206973 KECCAK256 PUSH2 0x6C72 PUSH6 0x61647920626F PUSH15 0x646564207769746820746869732073 PUSH21 0x616B6572A26469706673582212209343FAA7FDB018 0xD3 PUSH25 0xA7325D5E2AA575B87D77A18947481EA6BF93C01FF335646473 PUSH16 0x6C634300060700330000000000000000 ",
  "sha1": "8a28d9d2c33d3765d9b46b749d3cdafbddbe45cd",
  "source": "pragma solidity ^0.6.5;\n\n\nimport \"contracts/StakingEscrow.sol\";\nimport \"contracts/NuCypherToken.sol\";\n\n\n/**\n* @notice Upgrade to this contract must lead to fail\n*/\ncontract StakingEscrowBad is StakingEscrow {\n\n    constructor(\n        NuCypherToken _token,\n        uint32 _hoursPerPeriod,\n        uint256 _issuanceDecayCoefficient,\n        uint256 _lockDurationCoefficient1,\n        uint256 _lockDurationCoefficient2,\n        uint16 _maximumRewardedPeriods,\n        uint256 _firstPhaseTotalSupply,\n        uint256 _firstPhaseMaxIssuance,\n        uint16 _minLockedPeriods,\n        uint256 _minAllowableLockedTokens,\n        uint256 _maxAllowableLockedTokens,\n        uint16 _minWorkerPeriods,\n        bool _isTestContract\n    )\n        public\n        StakingEscrow(\n            _token,\n            _hoursPerPeriod,\n            _issuanceDecayCoefficient,\n            _lockDurationCoefficient1,\n            _lockDurationCoefficient2,\n            _maximumRewardedPeriods,\n            _firstPhaseTotalSupply,\n            _firstPhaseMaxIssuance,\n            _minLockedPeriods,\n            _minAllowableLockedTokens,\n            _maxAllowableLockedTokens,\n            _minWorkerPeriods,\n            _isTestContract\n        )\n    {\n    }\n\n    function getSubStakeInfo(address, uint256) public view override returns (uint16, uint16, uint16, uint128) {}\n\n}\n\n\n/**\n* @notice Contract for testing upgrading the StakingEscrow contract\n*/\ncontract StakingEscrowV2Mock is StakingEscrow {\n\n    uint256 public valueToCheck;\n\n    constructor(\n        NuCypherToken _token,\n        uint32 _hoursPerPeriod,\n        uint256 _issuanceDecayCoefficient,\n        uint256 _lockDurationCoefficient1,\n        uint256 _lockDurationCoefficient2,\n        uint16 _maximumRewardedPeriods,\n        uint256 _firstPhaseTotalSupply,\n        uint256 _firstPhaseMaxIssuance,\n        uint16 _minLockedPeriods,\n        uint256 _minAllowableLockedTokens,\n        uint256 _maxAllowableLockedTokens,\n        uint16 _minWorkerPeriods,\n        bool _isTestContract,\n        uint256 _valueToCheck\n    )\n        public\n        StakingEscrow(\n            _token,\n            _hoursPerPeriod,\n            _issuanceDecayCoefficient,\n            _lockDurationCoefficient1,\n            _lockDurationCoefficient2,\n            _maximumRewardedPeriods,\n            _firstPhaseTotalSupply,\n            _firstPhaseMaxIssuance,\n            _minLockedPeriods,\n            _minAllowableLockedTokens,\n            _maxAllowableLockedTokens,\n            _minWorkerPeriods,\n            _isTestContract\n        )\n    {\n        valueToCheck = _valueToCheck;\n    }\n\n    function setValueToCheck(uint256 _valueToCheck) public {\n        valueToCheck = _valueToCheck;\n    }\n\n    function verifyState(address _testTarget) public override {\n        super.verifyState(_testTarget);\n        require(delegateGet(_testTarget, this.valueToCheck.selector) == valueToCheck);\n    }\n\n    function finishUpgrade(address _target) public override onlyWhileUpgrading {\n        StakingEscrowV2Mock escrow = StakingEscrowV2Mock(_target);\n        valueToCheck = escrow.valueToCheck();\n        emit UpgradeFinished(_target, msg.sender);\n    }\n}\n\n\n/**\n* @notice Contract for testing staking escrow contract\n*/\ncontract PolicyManagerForStakingEscrowMock {\n\n    StakingEscrow public immutable escrow;\n    mapping (address => uint16[]) public nodes;\n\n    constructor(address, StakingEscrow _escrow) public {\n        escrow = _escrow;\n    }\n\n    function register(address _node, uint16 _period) external {\n        nodes[_node].push(_period);\n    }\n\n    function updateFee(address _node, uint16 _period) external {\n        nodes[_node].push(_period);\n    }\n\n    function setDefaultFeeDelta(address _node, uint16 _period) external {\n        nodes[_node].push(_period);\n    }\n\n    function getPeriodsLength(address _node) public view returns (uint256) {\n        return nodes[_node].length;\n    }\n\n    function getPeriod(address _node, uint256 _index) public view returns (uint16) {\n        return nodes[_node][_index];\n    }\n\n}\n\n\n/**\n* @notice Contract for testing staking escrow contract\n*/\ncontract AdjudicatorForStakingEscrowMock {\n\n    StakingEscrow public immutable escrow;\n\n    constructor(StakingEscrow _escrow) public {\n        escrow = _escrow;\n    }\n\n    function slashStaker(\n        address _staker,\n        uint256 _penalty,\n        address _investigator,\n        uint256 _reward\n    )\n        public\n    {\n        escrow.slashStaker(_staker, _penalty, _investigator, _reward);\n    }\n}\n\n/**\n* @notice Intermediary contract for testing worker\n*/\ncontract Intermediary {\n\n    NuCypherToken immutable token;\n    StakingEscrow immutable escrow;\n\n    constructor(NuCypherToken _token, StakingEscrow _escrow) public {\n        token = _token;\n        escrow = _escrow;\n    }\n\n    function bondWorker(address _worker) external {\n        escrow.bondWorker(_worker);\n    }\n\n    function deposit(uint256 _value, uint16 _periods) external {\n        token.approve(address(escrow), _value);\n        escrow.deposit(_value, _periods);\n    }\n\n    function commitToNextPeriod() external {\n        escrow.commitToNextPeriod();\n    }\n\n}\n\n\n/**\n* @notice Contract for testing staking escrow contract\n*/\ncontract WorkLockForStakingEscrowMock {\n\n    StakingEscrow public immutable escrow;\n\n    constructor(StakingEscrow _escrow) public {\n        escrow = _escrow;\n    }\n\n    function setWorkMeasurement(address _staker, bool _measureWork) external returns (uint256) {\n        return escrow.setWorkMeasurement(_staker, _measureWork);\n    }\n}\n",
  "sourcePath": "contracts/StakingEscrowTestSet.sol",
  "type": "contract"
}