{
  "abi": [
    {
      "inputs": [
        {
          "internalType": "uint16",
          "name": "_hoursPerPeriod",
          "type": "uint16"
        }
      ],
      "stateMutability": "nonpayable",
      "type": "constructor"
    },
    {
      "inputs": [
        {
          "internalType": "uint256",
          "name": "",
          "type": "uint256"
        }
      ],
      "name": "downtime",
      "outputs": [
        {
          "internalType": "uint16",
          "name": "startPeriod",
          "type": "uint16"
        },
        {
          "internalType": "uint16",
          "name": "endPeriod",
          "type": "uint16"
        }
      ],
      "stateMutability": "view",
      "type": "function"
    },
    {
      "inputs": [
        {
          "internalType": "address",
          "name": "",
          "type": "address"
        },
        {
          "internalType": "uint16",
          "name": "_period",
          "type": "uint16"
        }
      ],
      "name": "findIndexOfPastDowntime",
      "outputs": [
        {
          "internalType": "uint256",
          "name": "index",
          "type": "uint256"
        }
      ],
      "stateMutability": "view",
      "type": "function"
    },
    {
      "inputs": [],
      "name": "getCurrentPeriod",
      "outputs": [
        {
          "internalType": "uint16",
          "name": "",
          "type": "uint16"
        }
      ],
      "stateMutability": "view",
      "type": "function"
    },
    {
      "inputs": [
        {
          "internalType": "address",
          "name": "",
          "type": "address"
        }
      ],
      "name": "getLastCommittedPeriod",
      "outputs": [
        {
          "internalType": "uint256",
          "name": "",
          "type": "uint256"
        }
      ],
      "stateMutability": "view",
      "type": "function"
    },
    {
      "inputs": [
        {
          "internalType": "address",
          "name": "",
          "type": "address"
        },
        {
          "internalType": "uint256",
          "name": "_index",
          "type": "uint256"
        }
      ],
      "name": "getPastDowntime",
      "outputs": [
        {
          "internalType": "uint16",
          "name": "startPeriod",
          "type": "uint16"
        },
        {
          "internalType": "uint16",
          "name": "endPeriod",
          "type": "uint16"
        }
      ],
      "stateMutability": "view",
      "type": "function"
    },
    {
      "inputs": [
        {
          "internalType": "address",
          "name": "",
          "type": "address"
        }
      ],
      "name": "getPastDowntimeLength",
      "outputs": [
        {
          "internalType": "uint256",
          "name": "",
          "type": "uint256"
        }
      ],
      "stateMutability": "view",
      "type": "function"
    },
    {
      "inputs": [],
      "name": "lastCommittedPeriod",
      "outputs": [
        {
          "internalType": "uint16",
          "name": "",
          "type": "uint16"
        }
      ],
      "stateMutability": "view",
      "type": "function"
    },
    {
      "inputs": [
        {
          "internalType": "uint16",
          "name": "_startPeriod",
          "type": "uint16"
        },
        {
          "internalType": "uint16",
          "name": "_numberOfPeriods",
          "type": "uint16"
        }
      ],
      "name": "mint",
      "outputs": [],
      "stateMutability": "nonpayable",
      "type": "function"
    },
    {
      "inputs": [
        {
          "internalType": "address",
          "name": "_staker",
          "type": "address"
        },
        {
          "internalType": "uint16",
          "name": "_startPeriod",
          "type": "uint16"
        },
        {
          "internalType": "uint16",
          "name": "_numberOfPeriods",
          "type": "uint16"
        }
      ],
      "name": "mint",
      "outputs": [],
      "stateMutability": "nonpayable",
      "type": "function"
    },
    {
      "inputs": [],
      "name": "policyManager",
      "outputs": [
        {
          "internalType": "contract PolicyManager",
          "name": "",
          "type": "address"
        }
      ],
      "stateMutability": "view",
      "type": "function"
    },
    {
      "inputs": [
        {
          "internalType": "uint16",
          "name": "_startPeriod",
          "type": "uint16"
        },
        {
          "internalType": "uint16",
          "name": "_endPeriod",
          "type": "uint16"
        }
      ],
      "name": "pushDowntimePeriod",
      "outputs": [],
      "stateMutability": "nonpayable",
      "type": "function"
    },
    {
      "inputs": [
        {
          "internalType": "address",
          "name": "_node",
          "type": "address"
        }
      ],
      "name": "register",
      "outputs": [],
      "stateMutability": "nonpayable",
      "type": "function"
    },
    {
      "inputs": [
        {
          "internalType": "address",
          "name": "_node",
          "type": "address"
        },
        {
          "internalType": "uint16",
          "name": "_period",
          "type": "uint16"
        }
      ],
      "name": "register",
      "outputs": [],
      "stateMutability": "nonpayable",
      "type": "function"
    },
    {
      "inputs": [],
      "name": "secondsPerPeriod",
      "outputs": [
        {
          "internalType": "uint32",
          "name": "",
          "type": "uint32"
        }
      ],
      "stateMutability": "view",
      "type": "function"
    },
    {
      "inputs": [
        {
          "internalType": "address",
          "name": "_node",
          "type": "address"
        },
        {
          "internalType": "uint16",
          "name": "_startPeriod",
          "type": "uint16"
        },
        {
          "internalType": "uint16",
          "name": "_numberOfPeriods",
          "type": "uint16"
        }
      ],
      "name": "setDefaultFeeDelta",
      "outputs": [],
      "stateMutability": "nonpayable",
      "type": "function"
    },
    {
      "inputs": [
        {
          "internalType": "uint16",
          "name": "_lastCommittedPeriod",
          "type": "uint16"
        }
      ],
      "name": "setLastCommittedPeriod",
      "outputs": [],
      "stateMutability": "nonpayable",
      "type": "function"
    },
    {
      "inputs": [
        {
          "internalType": "contract PolicyManager",
          "name": "_policyManager",
          "type": "address"
        }
      ],
      "name": "setPolicyManager",
      "outputs": [],
      "stateMutability": "nonpayable",
      "type": "function"
    }
  ],
  "bytecode": "60a060405234801561001057600080fd5b5060405161082e38038061082e8339818101604052602081101561003357600080fd5b5051610e100260e081901b61ffff60e01b1660805261ffff166107c6610068600039806103d9528061041d52506107c66000f3fe608060405234801561001057600080fd5b506004361061010b5760003560e01c80637fdfcd99116100a2578063ab3dbf3b11610071578063ab3dbf3b14610309578063ab714b591461032d578063adde41e114610365578063c2e1dcd71461038b578063e2d28c37146103b45761010b565b80637fdfcd99146102595780638fa95a151461029157806390dcb51f146102bd578063a3ebc182146102e35761010b565b80634789d02d116100de5780634789d02d146101a1578063583f9c3f146101e35780635c9ef4b41461022157806372be8d8d146102295761010b565b8063086146d2146101105780631de77f911461012f578063407f80011461015a5780634420e4861461017b575b600080fd5b6101186103d5565b6040805161ffff9092168252519081900360200190f35b6101586004803603604081101561014557600080fd5b5061ffff8135811691602001351661040c565b005b61016261041b565b6040805163ffffffff9092168252519081900360200190f35b6101586004803603602081101561019157600080fd5b50356001600160a01b031661043f565b6101d1600480360360408110156101b757600080fd5b5080356001600160a01b0316906020013561ffff16610456565b60408051918252519081900360200190f35b610200600480360360208110156101f957600080fd5b50356104a3565b6040805161ffff938416815291909216602082015281519081900390910190f35b6101186104cf565b6101586004803603604081101561023f57600080fd5b5080356001600160a01b0316906020013561ffff166104e0565b6101586004803603606081101561026f57600080fd5b506001600160a01b038135169061ffff60208201358116916040013516610551565b610200600480360360408110156102a757600080fd5b506001600160a01b0381351690602001356105e5565b6101d1600480360360208110156102d357600080fd5b50356001600160a01b031661061b565b6101d1600480360360208110156102f957600080fd5b50356001600160a01b0316610622565b610311610634565b604080516001600160a01b039092168252519081900360200190f35b6101586004803603606081101561034357600080fd5b506001600160a01b038135169061ffff60208201358116916040013516610643565b6101586004803603602081101561037b57600080fd5b50356001600160a01b03166106d1565b610158600480360360408110156103a157600080fd5b5061ffff813581169160200135166106f3565b610158600480360360208110156103ca57600080fd5b503561ffff1661076e565b60007f000000000000000000000000000000000000000000000000000000000000000063ffffffff16428161040657fe5b04905090565b610417338383610551565b5050565b7f000000000000000000000000000000000000000000000000000000000000000081565b61045381600161044d6103d5565b036104e0565b50565b60005b60015481101561049d576001818154811061047057fe5b60009182526020909120015461ffff620100009091048116908316116104955761049d565b600101610459565b92915050565b600181815481106104b057fe5b60009182526020909120015461ffff8082169250620100009091041682565b600054600160a01b900461ffff1681565b60008054604080516372be8d8d60e01b81526001600160a01b03868116600483015261ffff86166024830152915191909216926372be8d8d926044808201939182900301818387803b15801561053557600080fd5b505af1158015610549573d6000803e3d6000fd5b505050505050565b60005b8161ffff168161ffff1610156105df576000805460408051633ea2391f60e01b81526001600160a01b03888116600483015261ffff86890116602483015291519190921692633ea2391f926044808201939182900301818387803b1580156105bb57600080fd5b505af11580156105cf573d6000803e3d6000fd5b5050600190920191506105549050565b50505050565b6000806000600184815481106105f757fe5b60009182526020909120015461ffff80821697620100009092041695509350505050565b5060015490565b50600054600160a01b900461ffff1690565b6000546001600160a01b031681565b60005b8161ffff168161ffff1610156105df57600080546040805163b438c4cd60e01b81526001600160a01b03888116600483015261ffff8689011660248301529151919092169263b438c4cd926044808201939182900301818387803b1580156106ad57600080fd5b505af11580156106c1573d6000803e3d6000fd5b5050600190920191506106469050565b600080546001600160a01b0319166001600160a01b0392909216919091179055565b6040805180820190915261ffff92831681529082166020820190815260018054808201825560009190915291517fb10e2d527612073b26eecdfd717e6a320cf44b4afac2b0732d9fcbe2b7fa0cf69092018054915161ffff199092169284169290921763ffff00001916620100009190931602919091179055565b6000805461ffff909216600160a01b0261ffff60a01b1990921691909117905556fea26469706673582212202651d5658d05057d5c4bcccd253796797a24b395e684b9861787fa660dfd47a064736f6c63430006070033",
  "bytecodeSha1": "ce8c806f89a31534d84244969dadf6f2065ddfa7",
  "compiler": {
    "evm_version": "berlin",
    "optimizer": {
      "enabled": true,
      "runs": 200
    },
    "version": "0.6.7"
  },
  "contractName": "StakingEscrowForPolicyMock",
  "language": "Solidity",
  "natspec": {
    "methods": {
      "constructor": {
        "params": {
          "_hoursPerPeriod": "Size of period in hours"
        }
      },
      "mint(address,uint16,uint16)": {
        "notice": "Emulate mint method",
        "params": {
          "_numberOfPeriods": "Number periods for minting",
          "_staker": "Staker on behalf of whom minting will be",
          "_startPeriod": "Start period for minting"
        }
      },
      "mint(uint16,uint16)": {
        "notice": "Emulate mint method",
        "params": {
          "_numberOfPeriods": "Number periods for minting",
          "_startPeriod": "Start period for minting"
        }
      },
      "pushDowntimePeriod(uint16,uint16)": {
        "notice": "Add downtime period"
      },
      "setLastCommittedPeriod(uint16)": {
        "notice": "Set last committed period"
      },
      "setPolicyManager(address)": {
        "notice": "Set policy manager address"
      }
    },
    "notice": "Contract for using in PolicyManager tests"
  },
  "opcodes": "PUSH1 0x80 PUSH1 0x40 MSTORE CALLVALUE DUP1 ISZERO PUSH2 0x10 JUMPI PUSH1 0x0 DUP1 REVERT JUMPDEST POP PUSH1 0x4 CALLDATASIZE LT PUSH2 0x10B JUMPI PUSH1 0x0 CALLDATALOAD PUSH1 0xE0 SHR DUP1 PUSH4 0x7FDFCD99 GT PUSH2 0xA2 JUMPI DUP1 PUSH4 0xAB3DBF3B GT PUSH2 0x71 JUMPI DUP1 PUSH4 0xAB3DBF3B EQ PUSH2 0x309 JUMPI DUP1 PUSH4 0xAB714B59 EQ PUSH2 0x32D JUMPI DUP1 PUSH4 0xADDE41E1 EQ PUSH2 0x365 JUMPI DUP1 PUSH4 0xC2E1DCD7 EQ PUSH2 0x38B JUMPI DUP1 PUSH4 0xE2D28C37 EQ PUSH2 0x3B4 JUMPI PUSH2 0x10B JUMP JUMPDEST DUP1 PUSH4 0x7FDFCD99 EQ PUSH2 0x259 JUMPI DUP1 PUSH4 0x8FA95A15 EQ PUSH2 0x291 JUMPI DUP1 PUSH4 0x90DCB51F EQ PUSH2 0x2BD JUMPI DUP1 PUSH4 0xA3EBC182 EQ PUSH2 0x2E3 JUMPI PUSH2 0x10B JUMP JUMPDEST DUP1 PUSH4 0x4789D02D GT PUSH2 0xDE JUMPI DUP1 PUSH4 0x4789D02D EQ PUSH2 0x1A1 JUMPI DUP1 PUSH4 0x583F9C3F EQ PUSH2 0x1E3 JUMPI DUP1 PUSH4 0x5C9EF4B4 EQ PUSH2 0x221 JUMPI DUP1 PUSH4 0x72BE8D8D EQ PUSH2 0x229 JUMPI PUSH2 0x10B JUMP JUMPDEST DUP1 PUSH4 0x86146D2 EQ PUSH2 0x110 JUMPI DUP1 PUSH4 0x1DE77F91 EQ PUSH2 0x12F JUMPI DUP1 PUSH4 0x407F8001 EQ PUSH2 0x15A JUMPI DUP1 PUSH4 0x4420E486 EQ PUSH2 0x17B JUMPI JUMPDEST PUSH1 0x0 DUP1 REVERT JUMPDEST PUSH2 0x118 PUSH2 0x3D5 JUMP JUMPDEST PUSH1 0x40 DUP1 MLOAD PUSH2 0xFFFF SWAP1 SWAP3 AND DUP3 MSTORE MLOAD SWAP1 DUP2 SWAP1 SUB PUSH1 0x20 ADD SWAP1 RETURN JUMPDEST PUSH2 0x158 PUSH1 0x4 DUP1 CALLDATASIZE SUB PUSH1 0x40 DUP2 LT ISZERO PUSH2 0x145 JUMPI PUSH1 0x0 DUP1 REVERT JUMPDEST POP PUSH2 0xFFFF DUP2 CALLDATALOAD DUP2 AND SWAP2 PUSH1 0x20 ADD CALLDATALOAD AND PUSH2 0x40C JUMP JUMPDEST STOP JUMPDEST PUSH2 0x162 PUSH2 0x41B JUMP JUMPDEST PUSH1 0x40 DUP1 MLOAD PUSH4 0xFFFFFFFF SWAP1 SWAP3 AND DUP3 MSTORE MLOAD SWAP1 DUP2 SWAP1 SUB PUSH1 0x20 ADD SWAP1 RETURN JUMPDEST PUSH2 0x158 PUSH1 0x4 DUP1 CALLDATASIZE SUB PUSH1 0x20 DUP2 LT ISZERO PUSH2 0x191 JUMPI PUSH1 0x0 DUP1 REVERT JUMPDEST POP CALLDATALOAD PUSH1 0x1 PUSH1 0x1 PUSH1 0xA0 SHL SUB AND PUSH2 0x43F JUMP JUMPDEST PUSH2 0x1D1 PUSH1 0x4 DUP1 CALLDATASIZE SUB PUSH1 0x40 DUP2 LT ISZERO PUSH2 0x1B7 JUMPI PUSH1 0x0 DUP1 REVERT JUMPDEST POP DUP1 CALLDATALOAD PUSH1 0x1 PUSH1 0x1 PUSH1 0xA0 SHL SUB AND SWAP1 PUSH1 0x20 ADD CALLDATALOAD PUSH2 0xFFFF AND PUSH2 0x456 JUMP JUMPDEST PUSH1 0x40 DUP1 MLOAD SWAP2 DUP3 MSTORE MLOAD SWAP1 DUP2 SWAP1 SUB PUSH1 0x20 ADD SWAP1 RETURN JUMPDEST PUSH2 0x200 PUSH1 0x4 DUP1 CALLDATASIZE SUB PUSH1 0x20 DUP2 LT ISZERO PUSH2 0x1F9 JUMPI PUSH1 0x0 DUP1 REVERT JUMPDEST POP CALLDATALOAD PUSH2 0x4A3 JUMP JUMPDEST PUSH1 0x40 DUP1 MLOAD PUSH2 0xFFFF SWAP4 DUP5 AND DUP2 MSTORE SWAP2 SWAP1 SWAP3 AND PUSH1 0x20 DUP3 ADD MSTORE DUP2 MLOAD SWAP1 DUP2 SWAP1 SUB SWAP1 SWAP2 ADD SWAP1 RETURN JUMPDEST PUSH2 0x118 PUSH2 0x4CF JUMP JUMPDEST PUSH2 0x158 PUSH1 0x4 DUP1 CALLDATASIZE SUB PUSH1 0x40 DUP2 LT ISZERO PUSH2 0x23F JUMPI PUSH1 0x0 DUP1 REVERT JUMPDEST POP DUP1 CALLDATALOAD PUSH1 0x1 PUSH1 0x1 PUSH1 0xA0 SHL SUB AND SWAP1 PUSH1 0x20 ADD CALLDATALOAD PUSH2 0xFFFF AND PUSH2 0x4E0 JUMP JUMPDEST PUSH2 0x158 PUSH1 0x4 DUP1 CALLDATASIZE SUB PUSH1 0x60 DUP2 LT ISZERO PUSH2 0x26F JUMPI PUSH1 0x0 DUP1 REVERT JUMPDEST POP PUSH1 0x1 PUSH1 0x1 PUSH1 0xA0 SHL SUB DUP2 CALLDATALOAD AND SWAP1 PUSH2 0xFFFF PUSH1 0x20 DUP3 ADD CALLDATALOAD DUP2 AND SWAP2 PUSH1 0x40 ADD CALLDATALOAD AND PUSH2 0x551 JUMP JUMPDEST PUSH2 0x200 PUSH1 0x4 DUP1 CALLDATASIZE SUB PUSH1 0x40 DUP2 LT ISZERO PUSH2 0x2A7 JUMPI PUSH1 0x0 DUP1 REVERT JUMPDEST POP PUSH1 0x1 PUSH1 0x1 PUSH1 0xA0 SHL SUB DUP2 CALLDATALOAD AND SWAP1 PUSH1 0x20 ADD CALLDATALOAD PUSH2 0x5E5 JUMP JUMPDEST PUSH2 0x1D1 PUSH1 0x4 DUP1 CALLDATASIZE SUB PUSH1 0x20 DUP2 LT ISZERO PUSH2 0x2D3 JUMPI PUSH1 0x0 DUP1 REVERT JUMPDEST POP CALLDATALOAD PUSH1 0x1 PUSH1 0x1 PUSH1 0xA0 SHL SUB AND PUSH2 0x61B JUMP JUMPDEST PUSH2 0x1D1 PUSH1 0x4 DUP1 CALLDATASIZE SUB PUSH1 0x20 DUP2 LT ISZERO PUSH2 0x2F9 JUMPI PUSH1 0x0 DUP1 REVERT JUMPDEST POP CALLDATALOAD PUSH1 0x1 PUSH1 0x1 PUSH1 0xA0 SHL SUB AND PUSH2 0x622 JUMP JUMPDEST PUSH2 0x311 PUSH2 0x634 JUMP JUMPDEST PUSH1 0x40 DUP1 MLOAD PUSH1 0x1 PUSH1 0x1 PUSH1 0xA0 SHL SUB SWAP1 SWAP3 AND DUP3 MSTORE MLOAD SWAP1 DUP2 SWAP1 SUB PUSH1 0x20 ADD SWAP1 RETURN JUMPDEST PUSH2 0x158 PUSH1 0x4 DUP1 CALLDATASIZE SUB PUSH1 0x60 DUP2 LT ISZERO PUSH2 0x343 JUMPI PUSH1 0x0 DUP1 REVERT JUMPDEST POP PUSH1 0x1 PUSH1 0x1 PUSH1 0xA0 SHL SUB DUP2 CALLDATALOAD AND SWAP1 PUSH2 0xFFFF PUSH1 0x20 DUP3 ADD CALLDATALOAD DUP2 AND SWAP2 PUSH1 0x40 ADD CALLDATALOAD AND PUSH2 0x643 JUMP JUMPDEST PUSH2 0x158 PUSH1 0x4 DUP1 CALLDATASIZE SUB PUSH1 0x20 DUP2 LT ISZERO PUSH2 0x37B JUMPI PUSH1 0x0 DUP1 REVERT JUMPDEST POP CALLDATALOAD PUSH1 0x1 PUSH1 0x1 PUSH1 0xA0 SHL SUB AND PUSH2 0x6D1 JUMP JUMPDEST PUSH2 0x158 PUSH1 0x4 DUP1 CALLDATASIZE SUB PUSH1 0x40 DUP2 LT ISZERO PUSH2 0x3A1 JUMPI PUSH1 0x0 DUP1 REVERT JUMPDEST POP PUSH2 0xFFFF DUP2 CALLDATALOAD DUP2 AND SWAP2 PUSH1 0x20 ADD CALLDATALOAD AND PUSH2 0x6F3 JUMP JUMPDEST PUSH2 0x158 PUSH1 0x4 DUP1 CALLDATASIZE SUB PUSH1 0x20 DUP2 LT ISZERO PUSH2 0x3CA JUMPI PUSH1 0x0 DUP1 REVERT JUMPDEST POP CALLDATALOAD PUSH2 0xFFFF AND PUSH2 0x76E JUMP JUMPDEST PUSH1 0x0 PUSH32 0x0 PUSH4 0xFFFFFFFF AND TIMESTAMP DUP2 PUSH2 0x406 JUMPI INVALID JUMPDEST DIV SWAP1 POP SWAP1 JUMP JUMPDEST PUSH2 0x417 CALLER DUP4 DUP4 PUSH2 0x551 JUMP JUMPDEST POP POP JUMP JUMPDEST PUSH32 0x0 DUP2 JUMP JUMPDEST PUSH2 0x453 DUP2 PUSH1 0x1 PUSH2 0x44D PUSH2 0x3D5 JUMP JUMPDEST SUB PUSH2 0x4E0 JUMP JUMPDEST POP JUMP JUMPDEST PUSH1 0x0 JUMPDEST PUSH1 0x1 SLOAD DUP2 LT ISZERO PUSH2 0x49D JUMPI PUSH1 0x1 DUP2 DUP2 SLOAD DUP2 LT PUSH2 0x470 JUMPI INVALID JUMPDEST PUSH1 0x0 SWAP2 DUP3 MSTORE PUSH1 0x20 SWAP1 SWAP2 KECCAK256 ADD SLOAD PUSH2 0xFFFF PUSH3 0x10000 SWAP1 SWAP2 DIV DUP2 AND SWAP1 DUP4 AND GT PUSH2 0x495 JUMPI PUSH2 0x49D JUMP JUMPDEST PUSH1 0x1 ADD PUSH2 0x459 JUMP JUMPDEST SWAP3 SWAP2 POP POP JUMP JUMPDEST PUSH1 0x1 DUP2 DUP2 SLOAD DUP2 LT PUSH2 0x4B0 JUMPI INVALID JUMPDEST PUSH1 0x0 SWAP2 DUP3 MSTORE PUSH1 0x20 SWAP1 SWAP2 KECCAK256 ADD SLOAD PUSH2 0xFFFF DUP1 DUP3 AND SWAP3 POP PUSH3 0x10000 SWAP1 SWAP2 DIV AND DUP3 JUMP JUMPDEST PUSH1 0x0 SLOAD PUSH1 0x1 PUSH1 0xA0 SHL SWAP1 DIV PUSH2 0xFFFF AND DUP2 JUMP JUMPDEST PUSH1 0x0 DUP1 SLOAD PUSH1 0x40 DUP1 MLOAD PUSH4 0x72BE8D8D PUSH1 0xE0 SHL DUP2 MSTORE PUSH1 0x1 PUSH1 0x1 PUSH1 0xA0 SHL SUB DUP7 DUP2 AND PUSH1 0x4 DUP4 ADD MSTORE PUSH2 0xFFFF DUP7 AND PUSH1 0x24 DUP4 ADD MSTORE SWAP2 MLOAD SWAP2 SWAP1 SWAP3 AND SWAP3 PUSH4 0x72BE8D8D SWAP3 PUSH1 0x44 DUP1 DUP3 ADD SWAP4 SWAP2 DUP3 SWAP1 SUB ADD DUP2 DUP4 DUP8 DUP1 EXTCODESIZE ISZERO DUP1 ISZERO PUSH2 0x535 JUMPI PUSH1 0x0 DUP1 REVERT JUMPDEST POP GAS CALL ISZERO DUP1 ISZERO PUSH2 0x549 JUMPI RETURNDATASIZE PUSH1 0x0 DUP1 RETURNDATACOPY RETURNDATASIZE PUSH1 0x0 REVERT JUMPDEST POP POP POP POP POP POP JUMP JUMPDEST PUSH1 0x0 JUMPDEST DUP2 PUSH2 0xFFFF AND DUP2 PUSH2 0xFFFF AND LT ISZERO PUSH2 0x5DF JUMPI PUSH1 0x0 DUP1 SLOAD PUSH1 0x40 DUP1 MLOAD PUSH4 0x3EA2391F PUSH1 0xE0 SHL DUP2 MSTORE PUSH1 0x1 PUSH1 0x1 PUSH1 0xA0 SHL SUB DUP9 DUP2 AND PUSH1 0x4 DUP4 ADD MSTORE PUSH2 0xFFFF DUP7 DUP10 ADD AND PUSH1 0x24 DUP4 ADD MSTORE SWAP2 MLOAD SWAP2 SWAP1 SWAP3 AND SWAP3 PUSH4 0x3EA2391F SWAP3 PUSH1 0x44 DUP1 DUP3 ADD SWAP4 SWAP2 DUP3 SWAP1 SUB ADD DUP2 DUP4 DUP8 DUP1 EXTCODESIZE ISZERO DUP1 ISZERO PUSH2 0x5BB JUMPI PUSH1 0x0 DUP1 REVERT JUMPDEST POP GAS CALL ISZERO DUP1 ISZERO PUSH2 0x5CF JUMPI RETURNDATASIZE PUSH1 0x0 DUP1 RETURNDATACOPY RETURNDATASIZE PUSH1 0x0 REVERT JUMPDEST POP POP PUSH1 0x1 SWAP1 SWAP3 ADD SWAP2 POP PUSH2 0x554 SWAP1 POP JUMP JUMPDEST POP POP POP POP JUMP JUMPDEST PUSH1 0x0 DUP1 PUSH1 0x0 PUSH1 0x1 DUP5 DUP2 SLOAD DUP2 LT PUSH2 0x5F7 JUMPI INVALID JUMPDEST PUSH1 0x0 SWAP2 DUP3 MSTORE PUSH1 0x20 SWAP1 SWAP2 KECCAK256 ADD SLOAD PUSH2 0xFFFF DUP1 DUP3 AND SWAP8 PUSH3 0x10000 SWAP1 SWAP3 DIV AND SWAP6 POP SWAP4 POP POP POP POP JUMP JUMPDEST POP PUSH1 0x1 SLOAD SWAP1 JUMP JUMPDEST POP PUSH1 0x0 SLOAD PUSH1 0x1 PUSH1 0xA0 SHL SWAP1 DIV PUSH2 0xFFFF AND SWAP1 JUMP JUMPDEST PUSH1 0x0 SLOAD PUSH1 0x1 PUSH1 0x1 PUSH1 0xA0 SHL SUB AND DUP2 JUMP JUMPDEST PUSH1 0x0 JUMPDEST DUP2 PUSH2 0xFFFF AND DUP2 PUSH2 0xFFFF AND LT ISZERO PUSH2 0x5DF JUMPI PUSH1 0x0 DUP1 SLOAD PUSH1 0x40 DUP1 MLOAD PUSH4 0xB438C4CD PUSH1 0xE0 SHL DUP2 MSTORE PUSH1 0x1 PUSH1 0x1 PUSH1 0xA0 SHL SUB DUP9 DUP2 AND PUSH1 0x4 DUP4 ADD MSTORE PUSH2 0xFFFF DUP7 DUP10 ADD AND PUSH1 0x24 DUP4 ADD MSTORE SWAP2 MLOAD SWAP2 SWAP1 SWAP3 AND SWAP3 PUSH4 0xB438C4CD SWAP3 PUSH1 0x44 DUP1 DUP3 ADD SWAP4 SWAP2 DUP3 SWAP1 SUB ADD DUP2 DUP4 DUP8 DUP1 EXTCODESIZE ISZERO DUP1 ISZERO PUSH2 0x6AD JUMPI PUSH1 0x0 DUP1 REVERT JUMPDEST POP GAS CALL ISZERO DUP1 ISZERO PUSH2 0x6C1 JUMPI RETURNDATASIZE PUSH1 0x0 DUP1 RETURNDATACOPY RETURNDATASIZE PUSH1 0x0 REVERT JUMPDEST POP POP PUSH1 0x1 SWAP1 SWAP3 ADD SWAP2 POP PUSH2 0x646 SWAP1 POP JUMP JUMPDEST PUSH1 0x0 DUP1 SLOAD PUSH1 0x1 PUSH1 0x1 PUSH1 0xA0 SHL SUB NOT AND PUSH1 0x1 PUSH1 0x1 PUSH1 0xA0 SHL SUB SWAP3 SWAP1 SWAP3 AND SWAP2 SWAP1 SWAP2 OR SWAP1 SSTORE JUMP JUMPDEST PUSH1 0x40 DUP1 MLOAD DUP1 DUP3 ADD SWAP1 SWAP2 MSTORE PUSH2 0xFFFF SWAP3 DUP4 AND DUP2 MSTORE SWAP1 DUP3 AND PUSH1 0x20 DUP3 ADD SWAP1 DUP2 MSTORE PUSH1 0x1 DUP1 SLOAD DUP1 DUP3 ADD DUP3 SSTORE PUSH1 0x0 SWAP2 SWAP1 SWAP2 MSTORE SWAP2 MLOAD PUSH32 0xB10E2D527612073B26EECDFD717E6A320CF44B4AFAC2B0732D9FCBE2B7FA0CF6 SWAP1 SWAP3 ADD DUP1 SLOAD SWAP2 MLOAD PUSH2 0xFFFF NOT SWAP1 SWAP3 AND SWAP3 DUP5 AND SWAP3 SWAP1 SWAP3 OR PUSH4 0xFFFF0000 NOT AND PUSH3 0x10000 SWAP2 SWAP1 SWAP4 AND MUL SWAP2 SWAP1 SWAP2 OR SWAP1 SSTORE JUMP JUMPDEST PUSH1 0x0 DUP1 SLOAD PUSH2 0xFFFF SWAP1 SWAP3 AND PUSH1 0x1 PUSH1 0xA0 SHL MUL PUSH2 0xFFFF PUSH1 0xA0 SHL NOT SWAP1 SWAP3 AND SWAP2 SWAP1 SWAP2 OR SWAP1 SSTORE JUMP INVALID LOG2 PUSH5 0x6970667358 0x22 SLT KECCAK256 0x26 MLOAD 0xD5 PUSH6 0x8D05057D5C4B 0xCC 0xCD 0x25 CALLDATACOPY SWAP7 PUSH26 0x7A24B395E684B9861787FA660DFD47A064736F6C634300060700 CALLER ",
  "sha1": "bd49faddac36a46d42f43d33fd6d5630b367ca80",
  "source": "pragma solidity ^0.6.5;\n\n\nimport \"contracts/PolicyManager.sol\";\nimport \"contracts/StakingEscrow.sol\";\n\n\n/**\n* @notice Upgrade to this contract must lead to fail\n*/\ncontract PolicyManagerBad is PolicyManager {\n\n    constructor(StakingEscrow _escrow) public PolicyManager(_escrow) {\n    }\n\n    function getNodeFeeDelta(address, uint16) public view override returns (int256) {}\n\n}\n\n\n/**\n* @notice Contract for testing upgrading the PolicyManager contract\n*/\ncontract PolicyManagerV2Mock is PolicyManager {\n\n    uint256 public valueToCheck;\n\n    constructor(StakingEscrow _escrow) public PolicyManager(_escrow) {\n    }\n\n    function setValueToCheck(uint256 _valueToCheck) public {\n        valueToCheck = _valueToCheck;\n    }\n\n    function verifyState(address _testTarget) public override {\n        super.verifyState(_testTarget);\n        require(delegateGet(_testTarget, this.valueToCheck.selector) == valueToCheck);\n    }\n}\n\n\n/**\n* @notice Contract for using in PolicyManager tests\n*/\ncontract StakingEscrowForPolicyMock {\n\n    struct Downtime {\n        uint16 startPeriod;\n        uint16 endPeriod;\n    }\n\n    uint32 public immutable secondsPerPeriod;\n\n    PolicyManager public policyManager;\n    uint16 public lastCommittedPeriod;\n    Downtime[] public downtime;\n\n    /**\n    * @param _hoursPerPeriod Size of period in hours\n    */\n    constructor(uint16 _hoursPerPeriod) public {\n        secondsPerPeriod = uint32(_hoursPerPeriod * 1 hours);\n    }\n\n    /**\n    * @return Number of current period\n    */\n    function getCurrentPeriod() public view returns (uint16) {\n        return uint16(block.timestamp / secondsPerPeriod);\n    }\n\n    /**\n    * @notice Set last committed period\n    */\n    function setLastCommittedPeriod(uint16 _lastCommittedPeriod) external {\n        lastCommittedPeriod = _lastCommittedPeriod;\n    }\n\n    /**\n    * @notice Add downtime period\n    */\n    function pushDowntimePeriod(uint16 _startPeriod, uint16 _endPeriod) external {\n        downtime.push(Downtime(_startPeriod, _endPeriod));\n    }\n\n    /**\n    * @notice Emulate mint method\n    * @param _staker Staker on behalf of whom minting will be\n    * @param _startPeriod Start period for minting\n    * @param _numberOfPeriods Number periods for minting\n    */\n    function mint(address _staker, uint16 _startPeriod, uint16 _numberOfPeriods) public {\n        for (uint16 i = 0; i < _numberOfPeriods; i++) {\n            policyManager.updateFee(_staker, i + _startPeriod);\n        }\n    }\n\n    /**\n    * @notice Emulate mint method\n    * @param _startPeriod Start period for minting\n    * @param _numberOfPeriods Number periods for minting\n    */\n    function mint(uint16 _startPeriod, uint16 _numberOfPeriods) external {\n        mint(msg.sender, _startPeriod, _numberOfPeriods);\n    }\n\n    /**\n    * @notice Set policy manager address\n    */\n    function setPolicyManager(PolicyManager _policyManager) external {\n        policyManager = _policyManager;\n    }\n\n    function getPastDowntimeLength(address) public view returns (uint256) {\n        return downtime.length;\n    }\n\n    function getPastDowntime(address, uint256 _index)\n        public view returns (uint16 startPeriod, uint16 endPeriod)\n    {\n        Downtime storage data = downtime[_index];\n        startPeriod = data.startPeriod;\n        endPeriod = data.endPeriod;\n    }\n\n    function getLastCommittedPeriod(address) public view returns (uint256) {\n        return lastCommittedPeriod;\n    }\n\n    function register(address _node, uint16 _period) public {\n        policyManager.register(_node, _period);\n    }\n\n    function register(address _node) external {\n        register(_node, getCurrentPeriod() - 1);\n    }\n\n    function findIndexOfPastDowntime(address, uint16 _period) external view returns (uint256 index) {\n        for (index = 0; index < downtime.length; index++) {\n            if (_period <= downtime[index].endPeriod) {\n                return index;\n            }\n        }\n    }\n\n    function setDefaultFeeDelta(address _node, uint16 _startPeriod, uint16 _numberOfPeriods) public {\n        for (uint16 i = 0; i < _numberOfPeriods; i++) {\n            policyManager.setDefaultFeeDelta(_node, i + _startPeriod);\n        }\n    }\n\n}\n\n\n/**\n* @notice Helper to prepare broken state\n*/\ncontract ExtendedPolicyManager is PolicyManager {\n\n    constructor(StakingEscrow _escrow) public PolicyManager(_escrow) {\n    }\n\n    function setNodeFeeDelta(address _node, uint16 _period, int256 _value) external {\n        NodeInfo storage node = nodes[_node];\n        node.feeDelta[_period] = _value;\n    }\n}\n",
  "sourcePath": "contracts/PolicyManagerTestSet.sol",
  "type": "contract"
}