{
  "abi": [
    {
      "inputs": [
        {
          "internalType": "address",
          "name": "_staker",
          "type": "address"
        }
      ],
      "name": "getAllTokens",
      "outputs": [
        {
          "internalType": "uint256",
          "name": "",
          "type": "uint256"
        }
      ],
      "stateMutability": "view",
      "type": "function"
    },
    {
      "inputs": [
        {
          "internalType": "address",
          "name": "",
          "type": "address"
        }
      ],
      "name": "rewardInfo",
      "outputs": [
        {
          "internalType": "uint256",
          "name": "",
          "type": "uint256"
        }
      ],
      "stateMutability": "view",
      "type": "function"
    },
    {
      "inputs": [],
      "name": "secondsPerPeriod",
      "outputs": [
        {
          "internalType": "uint32",
          "name": "",
          "type": "uint32"
        }
      ],
      "stateMutability": "view",
      "type": "function"
    },
    {
      "inputs": [
        {
          "internalType": "address",
          "name": "_staker",
          "type": "address"
        },
        {
          "internalType": "uint256",
          "name": "_amount",
          "type": "uint256"
        },
        {
          "internalType": "address",
          "name": "_worker",
          "type": "address"
        }
      ],
      "name": "setStakerInfo",
      "outputs": [],
      "stateMutability": "nonpayable",
      "type": "function"
    },
    {
      "inputs": [
        {
          "internalType": "address",
          "name": "_staker",
          "type": "address"
        },
        {
          "internalType": "uint256",
          "name": "_penalty",
          "type": "uint256"
        },
        {
          "internalType": "address",
          "name": "_investigator",
          "type": "address"
        },
        {
          "internalType": "uint256",
          "name": "_reward",
          "type": "uint256"
        }
      ],
      "name": "slashStaker",
      "outputs": [],
      "stateMutability": "nonpayable",
      "type": "function"
    },
    {
      "inputs": [
        {
          "internalType": "address",
          "name": "",
          "type": "address"
        }
      ],
      "name": "stakerFromWorker",
      "outputs": [
        {
          "internalType": "address",
          "name": "",
          "type": "address"
        }
      ],
      "stateMutability": "view",
      "type": "function"
    },
    {
      "inputs": [
        {
          "internalType": "address",
          "name": "",
          "type": "address"
        }
      ],
      "name": "stakerInfo",
      "outputs": [
        {
          "internalType": "uint256",
          "name": "",
          "type": "uint256"
        }
      ],
      "stateMutability": "view",
      "type": "function"
    }
  ],
  "bytecode": "60a0604052600160e01b60805234801561001857600080fd5b5060805160e01c61031f6100366000398061024f525061031f6000f3fe608060405234801561001057600080fd5b506004361061007d5760003560e01c80634e745f1f1161005b5780634e745f1f1461011357806399cc218c14610139578063b2eeb36e14610173578063cbecf6b5146101b55761007d565b8063178b6de6146100825780633d53efb5146100ba578063407f8001146100f2575b600080fd5b6100a86004803603602081101561009857600080fd5b50356001600160a01b03166101db565b60408051918252519081900360200190f35b6100f0600480360360608110156100d057600080fd5b506001600160a01b038135811691602081013591604090910135166101f6565b005b6100fa61024d565b6040805163ffffffff9092168252519081900360200190f35b6100a86004803603602081101561012957600080fd5b50356001600160a01b0316610271565b6100f06004803603608081101561014f57600080fd5b506001600160a01b0381358116916020810135916040820135169060600135610283565b6101996004803603602081101561018957600080fd5b50356001600160a01b03166102bc565b604080516001600160a01b039092168252519081900360200190f35b6100a8600480360360208110156101cb57600080fd5b50356001600160a01b03166102d7565b6001600160a01b031660009081526020819052604090205490565b6001600160a01b038084166000908152602081905260409020839055811661021b5750815b6001600160a01b0390811660009081526002602052604090208054919093166001600160a01b03199091161790915550565b7f000000000000000000000000000000000000000000000000000000000000000081565b60006020819052908152604090205481565b6001600160a01b039384166000908152602081815260408083208054969096039095559290941684526001909152912080549091019055565b6002602052600090815260409020546001600160a01b031681565b6001602052600090815260409020548156fea26469706673582212204dbda1fb4e68edac45af69e70a8eb304997e6b524745d177d3d7bcb0ec26fabd64736f6c63430006070033",
  "bytecodeSha1": "3902d6fe4c363172c457288da0a2db43bc62d437",
  "compiler": {
    "evm_version": "berlin",
    "optimizer": {
      "enabled": true,
      "runs": 200
    },
    "version": "0.6.7"
  },
  "contractName": "StakingEscrowForAdjudicatorMock",
  "language": "Solidity",
  "natspec": {
    "methods": {},
    "notice": "Contract for testing the Adjudicator contract"
  },
  "opcodes": "PUSH1 0x80 PUSH1 0x40 MSTORE CALLVALUE DUP1 ISZERO PUSH2 0x10 JUMPI PUSH1 0x0 DUP1 REVERT JUMPDEST POP PUSH1 0x4 CALLDATASIZE LT PUSH2 0x7D JUMPI PUSH1 0x0 CALLDATALOAD PUSH1 0xE0 SHR DUP1 PUSH4 0x4E745F1F GT PUSH2 0x5B JUMPI DUP1 PUSH4 0x4E745F1F EQ PUSH2 0x113 JUMPI DUP1 PUSH4 0x99CC218C EQ PUSH2 0x139 JUMPI DUP1 PUSH4 0xB2EEB36E EQ PUSH2 0x173 JUMPI DUP1 PUSH4 0xCBECF6B5 EQ PUSH2 0x1B5 JUMPI PUSH2 0x7D JUMP JUMPDEST DUP1 PUSH4 0x178B6DE6 EQ PUSH2 0x82 JUMPI DUP1 PUSH4 0x3D53EFB5 EQ PUSH2 0xBA JUMPI DUP1 PUSH4 0x407F8001 EQ PUSH2 0xF2 JUMPI JUMPDEST PUSH1 0x0 DUP1 REVERT JUMPDEST PUSH2 0xA8 PUSH1 0x4 DUP1 CALLDATASIZE SUB PUSH1 0x20 DUP2 LT ISZERO PUSH2 0x98 JUMPI PUSH1 0x0 DUP1 REVERT JUMPDEST POP CALLDATALOAD PUSH1 0x1 PUSH1 0x1 PUSH1 0xA0 SHL SUB AND PUSH2 0x1DB JUMP JUMPDEST PUSH1 0x40 DUP1 MLOAD SWAP2 DUP3 MSTORE MLOAD SWAP1 DUP2 SWAP1 SUB PUSH1 0x20 ADD SWAP1 RETURN JUMPDEST PUSH2 0xF0 PUSH1 0x4 DUP1 CALLDATASIZE SUB PUSH1 0x60 DUP2 LT ISZERO PUSH2 0xD0 JUMPI PUSH1 0x0 DUP1 REVERT JUMPDEST POP PUSH1 0x1 PUSH1 0x1 PUSH1 0xA0 SHL SUB DUP2 CALLDATALOAD DUP2 AND SWAP2 PUSH1 0x20 DUP2 ADD CALLDATALOAD SWAP2 PUSH1 0x40 SWAP1 SWAP2 ADD CALLDATALOAD AND PUSH2 0x1F6 JUMP JUMPDEST STOP JUMPDEST PUSH2 0xFA PUSH2 0x24D JUMP JUMPDEST PUSH1 0x40 DUP1 MLOAD PUSH4 0xFFFFFFFF SWAP1 SWAP3 AND DUP3 MSTORE MLOAD SWAP1 DUP2 SWAP1 SUB PUSH1 0x20 ADD SWAP1 RETURN JUMPDEST PUSH2 0xA8 PUSH1 0x4 DUP1 CALLDATASIZE SUB PUSH1 0x20 DUP2 LT ISZERO PUSH2 0x129 JUMPI PUSH1 0x0 DUP1 REVERT JUMPDEST POP CALLDATALOAD PUSH1 0x1 PUSH1 0x1 PUSH1 0xA0 SHL SUB AND PUSH2 0x271 JUMP JUMPDEST PUSH2 0xF0 PUSH1 0x4 DUP1 CALLDATASIZE SUB PUSH1 0x80 DUP2 LT ISZERO PUSH2 0x14F JUMPI PUSH1 0x0 DUP1 REVERT JUMPDEST POP PUSH1 0x1 PUSH1 0x1 PUSH1 0xA0 SHL SUB DUP2 CALLDATALOAD DUP2 AND SWAP2 PUSH1 0x20 DUP2 ADD CALLDATALOAD SWAP2 PUSH1 0x40 DUP3 ADD CALLDATALOAD AND SWAP1 PUSH1 0x60 ADD CALLDATALOAD PUSH2 0x283 JUMP JUMPDEST PUSH2 0x199 PUSH1 0x4 DUP1 CALLDATASIZE SUB PUSH1 0x20 DUP2 LT ISZERO PUSH2 0x189 JUMPI PUSH1 0x0 DUP1 REVERT JUMPDEST POP CALLDATALOAD PUSH1 0x1 PUSH1 0x1 PUSH1 0xA0 SHL SUB AND PUSH2 0x2BC JUMP JUMPDEST PUSH1 0x40 DUP1 MLOAD PUSH1 0x1 PUSH1 0x1 PUSH1 0xA0 SHL SUB SWAP1 SWAP3 AND DUP3 MSTORE MLOAD SWAP1 DUP2 SWAP1 SUB PUSH1 0x20 ADD SWAP1 RETURN JUMPDEST PUSH2 0xA8 PUSH1 0x4 DUP1 CALLDATASIZE SUB PUSH1 0x20 DUP2 LT ISZERO PUSH2 0x1CB JUMPI PUSH1 0x0 DUP1 REVERT JUMPDEST POP CALLDATALOAD PUSH1 0x1 PUSH1 0x1 PUSH1 0xA0 SHL SUB AND PUSH2 0x2D7 JUMP JUMPDEST PUSH1 0x1 PUSH1 0x1 PUSH1 0xA0 SHL SUB AND PUSH1 0x0 SWAP1 DUP2 MSTORE PUSH1 0x20 DUP2 SWAP1 MSTORE PUSH1 0x40 SWAP1 KECCAK256 SLOAD SWAP1 JUMP JUMPDEST PUSH1 0x1 PUSH1 0x1 PUSH1 0xA0 SHL SUB DUP1 DUP5 AND PUSH1 0x0 SWAP1 DUP2 MSTORE PUSH1 0x20 DUP2 SWAP1 MSTORE PUSH1 0x40 SWAP1 KECCAK256 DUP4 SWAP1 SSTORE DUP2 AND PUSH2 0x21B JUMPI POP DUP2 JUMPDEST PUSH1 0x1 PUSH1 0x1 PUSH1 0xA0 SHL SUB SWAP1 DUP2 AND PUSH1 0x0 SWAP1 DUP2 MSTORE PUSH1 0x2 PUSH1 0x20 MSTORE PUSH1 0x40 SWAP1 KECCAK256 DUP1 SLOAD SWAP2 SWAP1 SWAP4 AND PUSH1 0x1 PUSH1 0x1 PUSH1 0xA0 SHL SUB NOT SWAP1 SWAP2 AND OR SWAP1 SWAP2 SSTORE POP JUMP JUMPDEST PUSH32 0x0 DUP2 JUMP JUMPDEST PUSH1 0x0 PUSH1 0x20 DUP2 SWAP1 MSTORE SWAP1 DUP2 MSTORE PUSH1 0x40 SWAP1 KECCAK256 SLOAD DUP2 JUMP JUMPDEST PUSH1 0x1 PUSH1 0x1 PUSH1 0xA0 SHL SUB SWAP4 DUP5 AND PUSH1 0x0 SWAP1 DUP2 MSTORE PUSH1 0x20 DUP2 DUP2 MSTORE PUSH1 0x40 DUP1 DUP4 KECCAK256 DUP1 SLOAD SWAP7 SWAP1 SWAP7 SUB SWAP1 SWAP6 SSTORE SWAP3 SWAP1 SWAP5 AND DUP5 MSTORE PUSH1 0x1 SWAP1 SWAP2 MSTORE SWAP2 KECCAK256 DUP1 SLOAD SWAP1 SWAP2 ADD SWAP1 SSTORE JUMP JUMPDEST PUSH1 0x2 PUSH1 0x20 MSTORE PUSH1 0x0 SWAP1 DUP2 MSTORE PUSH1 0x40 SWAP1 KECCAK256 SLOAD PUSH1 0x1 PUSH1 0x1 PUSH1 0xA0 SHL SUB AND DUP2 JUMP JUMPDEST PUSH1 0x1 PUSH1 0x20 MSTORE PUSH1 0x0 SWAP1 DUP2 MSTORE PUSH1 0x40 SWAP1 KECCAK256 SLOAD DUP2 JUMP INVALID LOG2 PUSH5 0x6970667358 0x22 SLT KECCAK256 0x4D 0xBD LOG1 0xFB 0x4E PUSH9 0xEDAC45AF69E70A8EB3 DIV SWAP10 PUSH31 0x6B524745D177D3D7BCB0EC26FABD64736F6C63430006070033000000000000 ",
  "sha1": "2bb6bda66a6d492818c4d87ca09610934f8056d4",
  "source": "pragma solidity ^0.6.5;\n\n\nimport \"contracts/Adjudicator.sol\";\nimport \"contracts/StakingEscrow.sol\";\nimport \"contracts/lib/SignatureVerifier.sol\";\nimport \"contracts/proxy/Upgradeable.sol\";\n\n\n/**\n* @notice Contract for testing the Adjudicator contract\n*/\ncontract StakingEscrowForAdjudicatorMock {\n\n    uint32 public immutable secondsPerPeriod = 1;\n    mapping (address => uint256) public stakerInfo;\n    mapping (address => uint256) public rewardInfo;\n    mapping (address => address) public stakerFromWorker;\n\n    function setStakerInfo(address _staker, uint256 _amount, address _worker) public {\n        stakerInfo[_staker] = _amount;\n        if (_worker == address(0)) {\n            _worker = _staker;\n        }\n        stakerFromWorker[_worker] = _staker;\n    }\n\n    function getAllTokens(address _staker) public view returns (uint256) {\n        return stakerInfo[_staker];\n    }\n\n    function slashStaker(\n        address _staker,\n        uint256 _penalty,\n        address _investigator,\n        uint256 _reward\n    )\n        public\n    {\n        stakerInfo[_staker] -= _penalty;\n        rewardInfo[_investigator] += _reward;\n    }\n\n}\n\n\n/**\n* @notice Upgrade to this contract must lead to fail\n*/\ncontract AdjudicatorBad is Upgradeable {\n\n    mapping (bytes32 => bool) public evaluatedCFrags;\n    mapping (address => uint256) public penaltyHistory;\n\n}\n\n\n/**\n* @notice Contract for testing upgrading the Adjudicator contract\n*/\ncontract AdjudicatorV2Mock is Adjudicator {\n\n    uint256 public valueToCheck;\n\n    constructor(\n        StakingEscrow _escrow,\n        SignatureVerifier.HashAlgorithm _hashAlgorithm,\n        uint256 _basePenalty,\n        uint256 _percentagePenalty,\n        uint256 _penaltyHistoryCoefficient,\n        uint256 _rewardCoefficient\n    )\n        public\n        Adjudicator(\n            _escrow,\n            _hashAlgorithm,\n            _basePenalty,\n            _percentagePenalty,\n            _penaltyHistoryCoefficient,\n            _rewardCoefficient\n        )\n    {\n    }\n\n    function setValueToCheck(uint256 _valueToCheck) public {\n        valueToCheck = _valueToCheck;\n    }\n\n    function verifyState(address _testTarget) override public {\n        super.verifyState(_testTarget);\n        require(uint256(delegateGet(_testTarget, this.valueToCheck.selector)) == valueToCheck);\n    }\n}\n",
  "sourcePath": "contracts/AdjudicatorTestSet.sol",
  "type": "contract"
}