{
  "abi": [
    {
      "inputs": [
        {
          "internalType": "contract NuCypherToken",
          "name": "_token",
          "type": "address"
        },
        {
          "internalType": "uint32",
          "name": "_hoursPerPeriod",
          "type": "uint32"
        },
        {
          "internalType": "uint256",
          "name": "_issuanceDecayCoefficient",
          "type": "uint256"
        },
        {
          "internalType": "uint256",
          "name": "_lockDurationCoefficient1",
          "type": "uint256"
        },
        {
          "internalType": "uint256",
          "name": "_lockDurationCoefficient2",
          "type": "uint256"
        },
        {
          "internalType": "uint16",
          "name": "_maximumRewardedPeriods",
          "type": "uint16"
        },
        {
          "internalType": "uint256",
          "name": "_firstPhaseTotalSupply",
          "type": "uint256"
        },
        {
          "internalType": "uint256",
          "name": "_firstPhaseMaxIssuance",
          "type": "uint256"
        },
        {
          "internalType": "uint16",
          "name": "_minLockedPeriods",
          "type": "uint16"
        },
        {
          "internalType": "uint256",
          "name": "_minAllowableLockedTokens",
          "type": "uint256"
        },
        {
          "internalType": "uint256",
          "name": "_maxAllowableLockedTokens",
          "type": "uint256"
        },
        {
          "internalType": "uint16",
          "name": "_minWorkerPeriods",
          "type": "uint16"
        },
        {
          "internalType": "bool",
          "name": "_isTestContract",
          "type": "bool"
        }
      ],
      "stateMutability": "nonpayable",
      "type": "constructor"
    },
    {
      "anonymous": false,
      "inputs": [
        {
          "indexed": true,
          "internalType": "address",
          "name": "staker",
          "type": "address"
        },
        {
          "indexed": true,
          "internalType": "uint16",
          "name": "period",
          "type": "uint16"
        },
        {
          "indexed": false,
          "internalType": "uint256",
          "name": "value",
          "type": "uint256"
        }
      ],
      "name": "CommitmentMade",
      "type": "event"
    },
    {
      "anonymous": false,
      "inputs": [
        {
          "indexed": true,
          "internalType": "address",
          "name": "staker",
          "type": "address"
        },
        {
          "indexed": false,
          "internalType": "uint256",
          "name": "value",
          "type": "uint256"
        },
        {
          "indexed": false,
          "internalType": "uint16",
          "name": "periods",
          "type": "uint16"
        }
      ],
      "name": "Deposited",
      "type": "event"
    },
    {
      "anonymous": false,
      "inputs": [
        {
          "indexed": true,
          "internalType": "address",
          "name": "staker",
          "type": "address"
        },
        {
          "indexed": false,
          "internalType": "uint256",
          "name": "oldValue",
          "type": "uint256"
        },
        {
          "indexed": false,
          "internalType": "uint16",
          "name": "lastPeriod",
          "type": "uint16"
        },
        {
          "indexed": false,
          "internalType": "uint256",
          "name": "newValue",
          "type": "uint256"
        },
        {
          "indexed": false,
          "internalType": "uint16",
          "name": "periods",
          "type": "uint16"
        }
      ],
      "name": "Divided",
      "type": "event"
    },
    {
      "anonymous": false,
      "inputs": [
        {
          "indexed": true,
          "internalType": "address",
          "name": "sender",
          "type": "address"
        },
        {
          "indexed": false,
          "internalType": "uint256",
          "name": "value",
          "type": "uint256"
        }
      ],
      "name": "Donated",
      "type": "event"
    },
    {
      "anonymous": false,
      "inputs": [
        {
          "indexed": false,
          "internalType": "uint256",
          "name": "reservedReward",
          "type": "uint256"
        }
      ],
      "name": "Initialized",
      "type": "event"
    },
    {
      "anonymous": false,
      "inputs": [
        {
          "indexed": true,
          "internalType": "address",
          "name": "staker",
          "type": "address"
        },
        {
          "indexed": false,
          "internalType": "uint256",
          "name": "value",
          "type": "uint256"
        },
        {
          "indexed": false,
          "internalType": "uint16",
          "name": "firstPeriod",
          "type": "uint16"
        },
        {
          "indexed": false,
          "internalType": "uint16",
          "name": "periods",
          "type": "uint16"
        }
      ],
      "name": "Locked",
      "type": "event"
    },
    {
      "anonymous": false,
      "inputs": [
        {
          "indexed": true,
          "internalType": "address",
          "name": "staker",
          "type": "address"
        },
        {
          "indexed": true,
          "internalType": "uint16",
          "name": "period",
          "type": "uint16"
        },
        {
          "indexed": false,
          "internalType": "uint256",
          "name": "value",
          "type": "uint256"
        }
      ],
      "name": "Minted",
      "type": "event"
    },
    {
      "anonymous": false,
      "inputs": [
        {
          "indexed": true,
          "internalType": "address",
          "name": "previousOwner",
          "type": "address"
        },
        {
          "indexed": true,
          "internalType": "address",
          "name": "newOwner",
          "type": "address"
        }
      ],
      "name": "OwnershipTransferred",
      "type": "event"
    },
    {
      "anonymous": false,
      "inputs": [
        {
          "indexed": true,
          "internalType": "address",
          "name": "staker",
          "type": "address"
        },
        {
          "indexed": false,
          "internalType": "uint256",
          "name": "value",
          "type": "uint256"
        },
        {
          "indexed": false,
          "internalType": "uint16",
          "name": "lastPeriod",
          "type": "uint16"
        },
        {
          "indexed": false,
          "internalType": "uint16",
          "name": "periods",
          "type": "uint16"
        }
      ],
      "name": "Prolonged",
      "type": "event"
    },
    {
      "anonymous": false,
      "inputs": [
        {
          "indexed": true,
          "internalType": "address",
          "name": "staker",
          "type": "address"
        },
        {
          "indexed": false,
          "internalType": "uint16",
          "name": "lockUntilPeriod",
          "type": "uint16"
        }
      ],
      "name": "ReStakeLocked",
      "type": "event"
    },
    {
      "anonymous": false,
      "inputs": [
        {
          "indexed": true,
          "internalType": "address",
          "name": "staker",
          "type": "address"
        },
        {
          "indexed": false,
          "internalType": "bool",
          "name": "reStake",
          "type": "bool"
        }
      ],
      "name": "ReStakeSet",
      "type": "event"
    },
    {
      "anonymous": false,
      "inputs": [
        {
          "indexed": true,
          "internalType": "address",
          "name": "staker",
          "type": "address"
        },
        {
          "indexed": false,
          "internalType": "uint256",
          "name": "penalty",
          "type": "uint256"
        },
        {
          "indexed": true,
          "internalType": "address",
          "name": "investigator",
          "type": "address"
        },
        {
          "indexed": false,
          "internalType": "uint256",
          "name": "reward",
          "type": "uint256"
        }
      ],
      "name": "Slashed",
      "type": "event"
    },
    {
      "anonymous": false,
      "inputs": [
        {
          "indexed": true,
          "internalType": "address",
          "name": "staker",
          "type": "address"
        },
        {
          "indexed": false,
          "internalType": "bool",
          "name": "snapshotsEnabled",
          "type": "bool"
        }
      ],
      "name": "SnapshotSet",
      "type": "event"
    },
    {
      "anonymous": false,
      "inputs": [
        {
          "indexed": true,
          "internalType": "address",
          "name": "testTarget",
          "type": "address"
        },
        {
          "indexed": false,
          "internalType": "address",
          "name": "sender",
          "type": "address"
        }
      ],
      "name": "StateVerified",
      "type": "event"
    },
    {
      "anonymous": false,
      "inputs": [
        {
          "indexed": true,
          "internalType": "address",
          "name": "target",
          "type": "address"
        },
        {
          "indexed": false,
          "internalType": "address",
          "name": "sender",
          "type": "address"
        }
      ],
      "name": "UpgradeFinished",
      "type": "event"
    },
    {
      "anonymous": false,
      "inputs": [
        {
          "indexed": true,
          "internalType": "address",
          "name": "staker",
          "type": "address"
        },
        {
          "indexed": false,
          "internalType": "bool",
          "name": "windDown",
          "type": "bool"
        }
      ],
      "name": "WindDownSet",
      "type": "event"
    },
    {
      "anonymous": false,
      "inputs": [
        {
          "indexed": true,
          "internalType": "address",
          "name": "staker",
          "type": "address"
        },
        {
          "indexed": false,
          "internalType": "uint256",
          "name": "value",
          "type": "uint256"
        }
      ],
      "name": "Withdrawn",
      "type": "event"
    },
    {
      "anonymous": false,
      "inputs": [
        {
          "indexed": true,
          "internalType": "address",
          "name": "staker",
          "type": "address"
        },
        {
          "indexed": false,
          "internalType": "bool",
          "name": "measureWork",
          "type": "bool"
        }
      ],
      "name": "WorkMeasurementSet",
      "type": "event"
    },
    {
      "anonymous": false,
      "inputs": [
        {
          "indexed": true,
          "internalType": "address",
          "name": "staker",
          "type": "address"
        },
        {
          "indexed": true,
          "internalType": "address",
          "name": "worker",
          "type": "address"
        },
        {
          "indexed": true,
          "internalType": "uint16",
          "name": "startPeriod",
          "type": "uint16"
        }
      ],
      "name": "WorkerBonded",
      "type": "event"
    },
    {
      "inputs": [],
      "name": "MAX_SUB_STAKES",
      "outputs": [
        {
          "internalType": "uint16",
          "name": "",
          "type": "uint16"
        }
      ],
      "stateMutability": "view",
      "type": "function"
    },
    {
      "inputs": [],
      "name": "adjudicator",
      "outputs": [
        {
          "internalType": "contract AdjudicatorInterface",
          "name": "",
          "type": "address"
        }
      ],
      "stateMutability": "view",
      "type": "function"
    },
    {
      "inputs": [
        {
          "internalType": "uint256",
          "name": "",
          "type": "uint256"
        }
      ],
      "name": "balanceHistory",
      "outputs": [
        {
          "internalType": "uint128",
          "name": "",
          "type": "uint128"
        }
      ],
      "stateMutability": "view",
      "type": "function"
    },
    {
      "inputs": [
        {
          "internalType": "address[]",
          "name": "_stakers",
          "type": "address[]"
        },
        {
          "internalType": "uint256[]",
          "name": "_numberOfSubStakes",
          "type": "uint256[]"
        },
        {
          "internalType": "uint256[]",
          "name": "_values",
          "type": "uint256[]"
        },
        {
          "internalType": "uint16[]",
          "name": "_periods",
          "type": "uint16[]"
        }
      ],
      "name": "batchDeposit",
      "outputs": [],
      "stateMutability": "nonpayable",
      "type": "function"
    },
    {
      "inputs": [
        {
          "internalType": "address",
          "name": "_worker",
          "type": "address"
        }
      ],
      "name": "bondWorker",
      "outputs": [],
      "stateMutability": "nonpayable",
      "type": "function"
    },
    {
      "inputs": [],
      "name": "commitToNextPeriod",
      "outputs": [],
      "stateMutability": "nonpayable",
      "type": "function"
    },
    {
      "inputs": [],
      "name": "currentMintingPeriod",
      "outputs": [
        {
          "internalType": "uint16",
          "name": "",
          "type": "uint16"
        }
      ],
      "stateMutability": "view",
      "type": "function"
    },
    {
      "inputs": [],
      "name": "currentPeriodSupply",
      "outputs": [
        {
          "internalType": "uint128",
          "name": "",
          "type": "uint128"
        }
      ],
      "stateMutability": "view",
      "type": "function"
    },
    {
      "inputs": [
        {
          "internalType": "uint256",
          "name": "_value",
          "type": "uint256"
        },
        {
          "internalType": "uint16",
          "name": "_periods",
          "type": "uint16"
        }
      ],
      "name": "deposit",
      "outputs": [],
      "stateMutability": "nonpayable",
      "type": "function"
    },
    {
      "inputs": [
        {
          "internalType": "address",
          "name": "_staker",
          "type": "address"
        },
        {
          "internalType": "uint256",
          "name": "_value",
          "type": "uint256"
        },
        {
          "internalType": "uint16",
          "name": "_periods",
          "type": "uint16"
        }
      ],
      "name": "deposit",
      "outputs": [],
      "stateMutability": "nonpayable",
      "type": "function"
    },
    {
      "inputs": [
        {
          "internalType": "uint256",
          "name": "_index",
          "type": "uint256"
        },
        {
          "internalType": "uint256",
          "name": "_newValue",
          "type": "uint256"
        },
        {
          "internalType": "uint16",
          "name": "_periods",
          "type": "uint16"
        }
      ],
      "name": "divideStake",
      "outputs": [],
      "stateMutability": "nonpayable",
      "type": "function"
    },
    {
      "inputs": [
        {
          "internalType": "uint256",
          "name": "_value",
          "type": "uint256"
        }
      ],
      "name": "donate",
      "outputs": [],
      "stateMutability": "nonpayable",
      "type": "function"
    },
    {
      "inputs": [
        {
          "internalType": "address",
          "name": "_staker",
          "type": "address"
        },
        {
          "internalType": "uint16",
          "name": "_period",
          "type": "uint16"
        }
      ],
      "name": "findIndexOfPastDowntime",
      "outputs": [
        {
          "internalType": "uint256",
          "name": "index",
          "type": "uint256"
        }
      ],
      "stateMutability": "view",
      "type": "function"
    },
    {
      "inputs": [
        {
          "internalType": "address",
          "name": "_target",
          "type": "address"
        }
      ],
      "name": "finishUpgrade",
      "outputs": [],
      "stateMutability": "nonpayable",
      "type": "function"
    },
    {
      "inputs": [],
      "name": "firstPhaseMaxIssuance",
      "outputs": [
        {
          "internalType": "uint256",
          "name": "",
          "type": "uint256"
        }
      ],
      "stateMutability": "view",
      "type": "function"
    },
    {
      "inputs": [],
      "name": "firstPhaseTotalSupply",
      "outputs": [
        {
          "internalType": "uint256",
          "name": "",
          "type": "uint256"
        }
      ],
      "stateMutability": "view",
      "type": "function"
    },
    {
      "inputs": [
        {
          "internalType": "uint16",
          "name": "_periods",
          "type": "uint16"
        },
        {
          "internalType": "uint256",
          "name": "_startIndex",
          "type": "uint256"
        },
        {
          "internalType": "uint256",
          "name": "_maxStakers",
          "type": "uint256"
        }
      ],
      "name": "getActiveStakers",
      "outputs": [
        {
          "internalType": "uint256",
          "name": "allLockedTokens",
          "type": "uint256"
        },
        {
          "internalType": "uint256[2][]",
          "name": "activeStakers",
          "type": "uint256[2][]"
        }
      ],
      "stateMutability": "view",
      "type": "function"
    },
    {
      "inputs": [
        {
          "internalType": "address",
          "name": "_staker",
          "type": "address"
        }
      ],
      "name": "getAllTokens",
      "outputs": [
        {
          "internalType": "uint256",
          "name": "",
          "type": "uint256"
        }
      ],
      "stateMutability": "view",
      "type": "function"
    },
    {
      "inputs": [
        {
          "internalType": "address",
          "name": "_staker",
          "type": "address"
        }
      ],
      "name": "getCompletedWork",
      "outputs": [
        {
          "internalType": "uint256",
          "name": "",
          "type": "uint256"
        }
      ],
      "stateMutability": "view",
      "type": "function"
    },
    {
      "inputs": [],
      "name": "getCurrentPeriod",
      "outputs": [
        {
          "internalType": "uint16",
          "name": "",
          "type": "uint16"
        }
      ],
      "stateMutability": "view",
      "type": "function"
    },
    {
      "inputs": [
        {
          "internalType": "address",
          "name": "_staker",
          "type": "address"
        }
      ],
      "name": "getFlags",
      "outputs": [
        {
          "internalType": "bool",
          "name": "windDown",
          "type": "bool"
        },
        {
          "internalType": "bool",
          "name": "reStake",
          "type": "bool"
        },
        {
          "internalType": "bool",
          "name": "measureWork",
          "type": "bool"
        },
        {
          "internalType": "bool",
          "name": "snapshots",
          "type": "bool"
        }
      ],
      "stateMutability": "view",
      "type": "function"
    },
    {
      "inputs": [
        {
          "internalType": "address",
          "name": "_staker",
          "type": "address"
        }
      ],
      "name": "getLastCommittedPeriod",
      "outputs": [
        {
          "internalType": "uint16",
          "name": "",
          "type": "uint16"
        }
      ],
      "stateMutability": "view",
      "type": "function"
    },
    {
      "inputs": [
        {
          "internalType": "address",
          "name": "_staker",
          "type": "address"
        },
        {
          "internalType": "uint256",
          "name": "_index",
          "type": "uint256"
        }
      ],
      "name": "getLastPeriodOfSubStake",
      "outputs": [
        {
          "internalType": "uint16",
          "name": "",
          "type": "uint16"
        }
      ],
      "stateMutability": "view",
      "type": "function"
    },
    {
      "inputs": [
        {
          "internalType": "address",
          "name": "_staker",
          "type": "address"
        },
        {
          "internalType": "uint16",
          "name": "_periods",
          "type": "uint16"
        }
      ],
      "name": "getLockedTokens",
      "outputs": [
        {
          "internalType": "uint256",
          "name": "lockedValue",
          "type": "uint256"
        }
      ],
      "stateMutability": "view",
      "type": "function"
    },
    {
      "inputs": [
        {
          "internalType": "address",
          "name": "_staker",
          "type": "address"
        },
        {
          "internalType": "uint16",
          "name": "_periods",
          "type": "uint16"
        }
      ],
      "name": "getLockedTokensInPast",
      "outputs": [
        {
          "internalType": "uint256",
          "name": "lockedValue",
          "type": "uint256"
        }
      ],
      "stateMutability": "view",
      "type": "function"
    },
    {
      "inputs": [
        {
          "internalType": "address",
          "name": "_staker",
          "type": "address"
        },
        {
          "internalType": "uint256",
          "name": "_index",
          "type": "uint256"
        }
      ],
      "name": "getPastDowntime",
      "outputs": [
        {
          "internalType": "uint16",
          "name": "startPeriod",
          "type": "uint16"
        },
        {
          "internalType": "uint16",
          "name": "endPeriod",
          "type": "uint16"
        }
      ],
      "stateMutability": "view",
      "type": "function"
    },
    {
      "inputs": [
        {
          "internalType": "address",
          "name": "_staker",
          "type": "address"
        }
      ],
      "name": "getPastDowntimeLength",
      "outputs": [
        {
          "internalType": "uint256",
          "name": "",
          "type": "uint256"
        }
      ],
      "stateMutability": "view",
      "type": "function"
    },
    {
      "inputs": [],
      "name": "getReservedReward",
      "outputs": [
        {
          "internalType": "uint256",
          "name": "",
          "type": "uint256"
        }
      ],
      "stateMutability": "view",
      "type": "function"
    },
    {
      "inputs": [],
      "name": "getStakersLength",
      "outputs": [
        {
          "internalType": "uint256",
          "name": "",
          "type": "uint256"
        }
      ],
      "stateMutability": "view",
      "type": "function"
    },
    {
      "inputs": [
        {
          "internalType": "address",
          "name": "",
          "type": "address"
        },
        {
          "internalType": "uint256",
          "name": "",
          "type": "uint256"
        }
      ],
      "name": "getSubStakeInfo",
      "outputs": [
        {
          "internalType": "uint16",
          "name": "",
          "type": "uint16"
        },
        {
          "internalType": "uint16",
          "name": "",
          "type": "uint16"
        },
        {
          "internalType": "uint16",
          "name": "",
          "type": "uint16"
        },
        {
          "internalType": "uint128",
          "name": "",
          "type": "uint128"
        }
      ],
      "stateMutability": "view",
      "type": "function"
    },
    {
      "inputs": [
        {
          "internalType": "address",
          "name": "_staker",
          "type": "address"
        }
      ],
      "name": "getSubStakesLength",
      "outputs": [
        {
          "internalType": "uint256",
          "name": "",
          "type": "uint256"
        }
      ],
      "stateMutability": "view",
      "type": "function"
    },
    {
      "inputs": [
        {
          "internalType": "address",
          "name": "_staker",
          "type": "address"
        }
      ],
      "name": "getWorkerFromStaker",
      "outputs": [
        {
          "internalType": "address",
          "name": "",
          "type": "address"
        }
      ],
      "stateMutability": "view",
      "type": "function"
    },
    {
      "inputs": [
        {
          "internalType": "uint256",
          "name": "_reservedReward",
          "type": "uint256"
        }
      ],
      "name": "initialize",
      "outputs": [],
      "stateMutability": "nonpayable",
      "type": "function"
    },
    {
      "inputs": [],
      "name": "isOwner",
      "outputs": [
        {
          "internalType": "bool",
          "name": "",
          "type": "bool"
        }
      ],
      "stateMutability": "view",
      "type": "function"
    },
    {
      "inputs": [
        {
          "internalType": "address",
          "name": "_staker",
          "type": "address"
        }
      ],
      "name": "isReStakeLocked",
      "outputs": [
        {
          "internalType": "bool",
          "name": "",
          "type": "bool"
        }
      ],
      "stateMutability": "view",
      "type": "function"
    },
    {
      "inputs": [],
      "name": "isTestContract",
      "outputs": [
        {
          "internalType": "bool",
          "name": "",
          "type": "bool"
        }
      ],
      "stateMutability": "view",
      "type": "function"
    },
    {
      "inputs": [],
      "name": "isUpgrade",
      "outputs": [
        {
          "internalType": "uint8",
          "name": "",
          "type": "uint8"
        }
      ],
      "stateMutability": "view",
      "type": "function"
    },
    {
      "inputs": [
        {
          "internalType": "uint256",
          "name": "_value",
          "type": "uint256"
        },
        {
          "internalType": "uint16",
          "name": "_periods",
          "type": "uint16"
        }
      ],
      "name": "lock",
      "outputs": [],
      "stateMutability": "nonpayable",
      "type": "function"
    },
    {
      "inputs": [],
      "name": "lockDurationCoefficient1",
      "outputs": [
        {
          "internalType": "uint256",
          "name": "",
          "type": "uint256"
        }
      ],
      "stateMutability": "view",
      "type": "function"
    },
    {
      "inputs": [],
      "name": "lockDurationCoefficient2",
      "outputs": [
        {
          "internalType": "uint256",
          "name": "",
          "type": "uint256"
        }
      ],
      "stateMutability": "view",
      "type": "function"
    },
    {
      "inputs": [
        {
          "internalType": "uint16",
          "name": "_lockReStakeUntilPeriod",
          "type": "uint16"
        }
      ],
      "name": "lockReStake",
      "outputs": [],
      "stateMutability": "nonpayable",
      "type": "function"
    },
    {
      "inputs": [
        {
          "internalType": "uint16",
          "name": "",
          "type": "uint16"
        }
      ],
      "name": "lockedPerPeriod",
      "outputs": [
        {
          "internalType": "uint256",
          "name": "",
          "type": "uint256"
        }
      ],
      "stateMutability": "view",
      "type": "function"
    },
    {
      "inputs": [],
      "name": "maxAllowableLockedTokens",
      "outputs": [
        {
          "internalType": "uint256",
          "name": "",
          "type": "uint256"
        }
      ],
      "stateMutability": "view",
      "type": "function"
    },
    {
      "inputs": [],
      "name": "maximumRewardedPeriods",
      "outputs": [
        {
          "internalType": "uint16",
          "name": "",
          "type": "uint16"
        }
      ],
      "stateMutability": "view",
      "type": "function"
    },
    {
      "inputs": [],
      "name": "minAllowableLockedTokens",
      "outputs": [
        {
          "internalType": "uint256",
          "name": "",
          "type": "uint256"
        }
      ],
      "stateMutability": "view",
      "type": "function"
    },
    {
      "inputs": [],
      "name": "minLockedPeriods",
      "outputs": [
        {
          "internalType": "uint16",
          "name": "",
          "type": "uint16"
        }
      ],
      "stateMutability": "view",
      "type": "function"
    },
    {
      "inputs": [],
      "name": "minWorkerPeriods",
      "outputs": [
        {
          "internalType": "uint16",
          "name": "",
          "type": "uint16"
        }
      ],
      "stateMutability": "view",
      "type": "function"
    },
    {
      "inputs": [],
      "name": "mint",
      "outputs": [],
      "stateMutability": "nonpayable",
      "type": "function"
    },
    {
      "inputs": [],
      "name": "mintingCoefficient",
      "outputs": [
        {
          "internalType": "uint256",
          "name": "",
          "type": "uint256"
        }
      ],
      "stateMutability": "view",
      "type": "function"
    },
    {
      "inputs": [],
      "name": "owner",
      "outputs": [
        {
          "internalType": "address",
          "name": "",
          "type": "address"
        }
      ],
      "stateMutability": "view",
      "type": "function"
    },
    {
      "inputs": [],
      "name": "policyManager",
      "outputs": [
        {
          "internalType": "contract PolicyManagerInterface",
          "name": "",
          "type": "address"
        }
      ],
      "stateMutability": "view",
      "type": "function"
    },
    {
      "inputs": [],
      "name": "previousPeriodSupply",
      "outputs": [
        {
          "internalType": "uint128",
          "name": "",
          "type": "uint128"
        }
      ],
      "stateMutability": "view",
      "type": "function"
    },
    {
      "inputs": [],
      "name": "previousTarget",
      "outputs": [
        {
          "internalType": "address",
          "name": "",
          "type": "address"
        }
      ],
      "stateMutability": "view",
      "type": "function"
    },
    {
      "inputs": [
        {
          "internalType": "uint256",
          "name": "_index",
          "type": "uint256"
        },
        {
          "internalType": "uint16",
          "name": "_periods",
          "type": "uint16"
        }
      ],
      "name": "prolongStake",
      "outputs": [],
      "stateMutability": "nonpayable",
      "type": "function"
    },
    {
      "inputs": [
        {
          "internalType": "address",
          "name": "_from",
          "type": "address"
        },
        {
          "internalType": "uint256",
          "name": "_value",
          "type": "uint256"
        },
        {
          "internalType": "address",
          "name": "_tokenContract",
          "type": "address"
        },
        {
          "internalType": "bytes",
          "name": "",
          "type": "bytes"
        }
      ],
      "name": "receiveApproval",
      "outputs": [],
      "stateMutability": "nonpayable",
      "type": "function"
    },
    {
      "inputs": [],
      "name": "renounceOwnership",
      "outputs": [],
      "stateMutability": "nonpayable",
      "type": "function"
    },
    {
      "inputs": [],
      "name": "secondsPerPeriod",
      "outputs": [
        {
          "internalType": "uint32",
          "name": "",
          "type": "uint32"
        }
      ],
      "stateMutability": "view",
      "type": "function"
    },
    {
      "inputs": [
        {
          "internalType": "contract AdjudicatorInterface",
          "name": "_adjudicator",
          "type": "address"
        }
      ],
      "name": "setAdjudicator",
      "outputs": [],
      "stateMutability": "nonpayable",
      "type": "function"
    },
    {
      "inputs": [
        {
          "internalType": "contract PolicyManagerInterface",
          "name": "_policyManager",
          "type": "address"
        }
      ],
      "name": "setPolicyManager",
      "outputs": [],
      "stateMutability": "nonpayable",
      "type": "function"
    },
    {
      "inputs": [
        {
          "internalType": "bool",
          "name": "_reStake",
          "type": "bool"
        }
      ],
      "name": "setReStake",
      "outputs": [],
      "stateMutability": "nonpayable",
      "type": "function"
    },
    {
      "inputs": [
        {
          "internalType": "bool",
          "name": "_enableSnapshots",
          "type": "bool"
        }
      ],
      "name": "setSnapshots",
      "outputs": [],
      "stateMutability": "nonpayable",
      "type": "function"
    },
    {
      "inputs": [
        {
          "internalType": "bool",
          "name": "_windDown",
          "type": "bool"
        }
      ],
      "name": "setWindDown",
      "outputs": [],
      "stateMutability": "nonpayable",
      "type": "function"
    },
    {
      "inputs": [
        {
          "internalType": "contract WorkLockInterface",
          "name": "_workLock",
          "type": "address"
        }
      ],
      "name": "setWorkLock",
      "outputs": [],
      "stateMutability": "nonpayable",
      "type": "function"
    },
    {
      "inputs": [
        {
          "internalType": "address",
          "name": "_staker",
          "type": "address"
        },
        {
          "internalType": "bool",
          "name": "_measureWork",
          "type": "bool"
        }
      ],
      "name": "setWorkMeasurement",
      "outputs": [
        {
          "internalType": "uint256",
          "name": "",
          "type": "uint256"
        }
      ],
      "stateMutability": "nonpayable",
      "type": "function"
    },
    {
      "inputs": [
        {
          "internalType": "address",
          "name": "_staker",
          "type": "address"
        },
        {
          "internalType": "uint256",
          "name": "_penalty",
          "type": "uint256"
        },
        {
          "internalType": "address",
          "name": "_investigator",
          "type": "address"
        },
        {
          "internalType": "uint256",
          "name": "_reward",
          "type": "uint256"
        }
      ],
      "name": "slashStaker",
      "outputs": [],
      "stateMutability": "nonpayable",
      "type": "function"
    },
    {
      "inputs": [
        {
          "internalType": "address",
          "name": "",
          "type": "address"
        }
      ],
      "name": "stakerFromWorker",
      "outputs": [
        {
          "internalType": "address",
          "name": "",
          "type": "address"
        }
      ],
      "stateMutability": "view",
      "type": "function"
    },
    {
      "inputs": [
        {
          "internalType": "address",
          "name": "",
          "type": "address"
        }
      ],
      "name": "stakerInfo",
      "outputs": [
        {
          "internalType": "uint256",
          "name": "value",
          "type": "uint256"
        },
        {
          "internalType": "uint16",
          "name": "currentCommittedPeriod",
          "type": "uint16"
        },
        {
          "internalType": "uint16",
          "name": "nextCommittedPeriod",
          "type": "uint16"
        },
        {
          "internalType": "uint16",
          "name": "lastCommittedPeriod",
          "type": "uint16"
        },
        {
          "internalType": "uint16",
          "name": "lockReStakeUntilPeriod",
          "type": "uint16"
        },
        {
          "internalType": "uint256",
          "name": "completedWork",
          "type": "uint256"
        },
        {
          "internalType": "uint16",
          "name": "workerStartPeriod",
          "type": "uint16"
        },
        {
          "internalType": "address",
          "name": "worker",
          "type": "address"
        },
        {
          "internalType": "uint256",
          "name": "flags",
          "type": "uint256"
        },
        {
          "internalType": "uint256",
          "name": "reservedSlot1",
          "type": "uint256"
        },
        {
          "internalType": "uint256",
          "name": "reservedSlot2",
          "type": "uint256"
        },
        {
          "internalType": "uint256",
          "name": "reservedSlot3",
          "type": "uint256"
        },
        {
          "internalType": "uint256",
          "name": "reservedSlot4",
          "type": "uint256"
        },
        {
          "internalType": "uint256",
          "name": "reservedSlot5",
          "type": "uint256"
        }
      ],
      "stateMutability": "view",
      "type": "function"
    },
    {
      "inputs": [
        {
          "internalType": "uint256",
          "name": "",
          "type": "uint256"
        }
      ],
      "name": "stakers",
      "outputs": [
        {
          "internalType": "address",
          "name": "",
          "type": "address"
        }
      ],
      "stateMutability": "view",
      "type": "function"
    },
    {
      "inputs": [],
      "name": "supportsHistory",
      "outputs": [
        {
          "internalType": "bool",
          "name": "",
          "type": "bool"
        }
      ],
      "stateMutability": "pure",
      "type": "function"
    },
    {
      "inputs": [],
      "name": "target",
      "outputs": [
        {
          "internalType": "address",
          "name": "",
          "type": "address"
        }
      ],
      "stateMutability": "view",
      "type": "function"
    },
    {
      "inputs": [],
      "name": "token",
      "outputs": [
        {
          "internalType": "contract NuCypherToken",
          "name": "",
          "type": "address"
        }
      ],
      "stateMutability": "view",
      "type": "function"
    },
    {
      "inputs": [
        {
          "internalType": "uint256",
          "name": "_blockNumber",
          "type": "uint256"
        }
      ],
      "name": "totalStakedAt",
      "outputs": [
        {
          "internalType": "uint256",
          "name": "",
          "type": "uint256"
        }
      ],
      "stateMutability": "view",
      "type": "function"
    },
    {
      "inputs": [
        {
          "internalType": "address",
          "name": "_owner",
          "type": "address"
        },
        {
          "internalType": "uint256",
          "name": "_blockNumber",
          "type": "uint256"
        }
      ],
      "name": "totalStakedForAt",
      "outputs": [
        {
          "internalType": "uint256",
          "name": "",
          "type": "uint256"
        }
      ],
      "stateMutability": "view",
      "type": "function"
    },
    {
      "inputs": [],
      "name": "totalSupply",
      "outputs": [
        {
          "internalType": "uint128",
          "name": "",
          "type": "uint128"
        }
      ],
      "stateMutability": "view",
      "type": "function"
    },
    {
      "inputs": [
        {
          "internalType": "address",
          "name": "newOwner",
          "type": "address"
        }
      ],
      "name": "transferOwnership",
      "outputs": [],
      "stateMutability": "nonpayable",
      "type": "function"
    },
    {
      "inputs": [
        {
          "internalType": "address",
          "name": "_testTarget",
          "type": "address"
        }
      ],
      "name": "verifyState",
      "outputs": [],
      "stateMutability": "nonpayable",
      "type": "function"
    },
    {
      "inputs": [
        {
          "internalType": "uint256",
          "name": "_value",
          "type": "uint256"
        }
      ],
      "name": "withdraw",
      "outputs": [],
      "stateMutability": "nonpayable",
      "type": "function"
    },
    {
      "inputs": [],
      "name": "workLock",
      "outputs": [
        {
          "internalType": "contract WorkLockInterface",
          "name": "",
          "type": "address"
        }
      ],
      "stateMutability": "view",
      "type": "function"
    }
  ],
  "bytecode": "6102406040523480156200001257600080fd5b50604051620061af380380620061af83398181016040526101a08110156200003957600080fd5b50805160208201516040808401516060850151608086015160a087015160c088015160e08901516101008a01516101208b01516101408c01516101608d0151610180909d0151600080546001600160a01b03191633178082559b519d9e9c9d9a9c999b989a97999698959794969395929491928f928f928f928f928f928f928f928f928f928f928f928f928f928f928f928f928f928f928f928f928f926001600160a01b0316917f8be0079c531659141344cd1fd0a4f28419497f9722a3daafe3b4186f6b6457e0908290a36000886001600160a01b03166318160ddd6040518163ffffffff1660e01b815260040160206040518083038186803b1580156200014157600080fd5b505afa15801562000156573d6000803e3d6000fd5b505050506040513d60208110156200016d57600080fd5b5051905080158015906200018057508615155b801562000192575063ffffffff881615155b80156200019e57508515155b8015620001aa57508415155b8015620001ba575061ffff841615155b620001c457600080fd5b6001600160801b038111156200020c5760405162461bcd60e51b815260040180806020018281038252602d815260200180620060dc602d913960400191505060405180910390fd5b61ffff8416808701908887029082118015620002315750868982816200022e57fe5b04145b80156200024957508083828502816200024657fe5b04145b80156200026d57508183848486870202816200026157fe5b04816200026a57fe5b04145b620002aa5760405162461bcd60e51b8152600401808060200182810382526023815260200180620061526023913960400191505060405180910390fd5b86821115620002eb5760405162461bcd60e51b815260040180806020018281038252603a81526020018062006175603a913960400191505060405180910390fd5b828511156200032c5760405162461bcd60e51b8152600401808060200182810382526023815260200180620061096023913960400191505060405180910390fd5b848411156200036d5760405162461bcd60e51b81526004018080602001828103825260268152602001806200612c6026913960400191505060405180910390fd5b60608b901b6001600160601b0319166080526200039f63ffffffff8b16610e1062000479602090811b620058a817901c565b60e090811b6001600160e01b0319166101205297909752506101009490945260f09290921b6001600160f01b03191661014052610180526101605260801b6001600160801b03191660a05260c0525050600161ffff871611905080156200040557508215155b6200040f57600080fd5b8461ffff166101a08161ffff1660f01b81525050836101e081815250508261020081815250508161ffff166101c08161ffff1660f01b8152505080151561022081151560f81b815250505050505050505050505050505050505050505050505050505050620004c2565b600063ffffffff83166200049057506000620004bc565b82820263ffffffff8084169080861690831681620004aa57fe5b0463ffffffff1614620004b957fe5b90505b92915050565b60805160601c60a05160801c60c05160e051610100516101205160e01c6101405160f01c61016051610180516101a05160f01c6101c05160f01c6101e051610200516102205160f81c615acb62000611600039806114a9528061355652508061208f52806121635280614510525080611ec352806123005280613335528061344152806144565250806132cb528061362a52508061143d5280611eee5280612bf5528061448152508061146152806155d05250806112345280613b1652806155fc52806156245250806121e752806156e95250806110f55280611578525080613a84528061564752508061328552806156c452508061242952806156a05250806111eb5280611c935280613b74528061553e528061567d5250806112f7528061212352806123445280612389528061273152806139f85280613aa85280613bb552806143be5250615acb6000f3fe608060405234801561001057600080fd5b506004361061046a5760003560e01c80638da5cb5b1161024c578063c9c5323211610146578063e8dccd06116100c3578063f2fde38b11610087578063f2fde38b14610fbe578063f6910cb814610fe4578063fc0c546a14610fec578063fd5e6dd114610ff4578063fe4b84df146110115761046a565b8063e8dccd0614610f0d578063ede3842114610f33578063ee53c8fd14610f5f578063ef95e0ba14610f80578063f14faf6f14610fa15761046a565b8063d4b839921161010a578063d4b8399214610e9c578063d6ad945714610ea4578063dad6067614610eac578063dfee9e0d14610ed2578063e38a303b14610eef5761046a565b8063c9c5323214610dee578063cd50f60114610e0b578063d094adbf14610e13578063d122b79414610e39578063d2d0e06614610e665761046a565b80639d6f2a09116101d4578063b2eeb36e11610198578063b2eeb36e14610d4d578063b89f66ed14610d73578063b9626d2114610d9a578063c2bc0ee614610dc0578063c83d870814610de65761046a565b80639d6f2a0914610cd25780639fabeb0014610cf1578063a3ebc18214610cf9578063ab3dbf3b14610d1f578063adde41e114610d275761046a565b8063909f7c881161021b578063909f7c8814610c2557806390dcb51f14610c2d5780639541c59814610c53578063959f2bf214610c7257806399cc218c14610c985761046a565b80638da5cb5b14610b3b5780638f32d59b14610b435780638f4ffcb114610b4b5780638fa95a1514610bd85761046a565b80634789d02d116103685780636b5bbc97116102e5578063817ad5d3116102a9578063817ad5d314610a65578063845603a614610ab557806384bed44c14610adc57806386f86dde14610b0c5780638cab6c4f14610b335761046a565b80636b5bbc97146108d35780636fb653a214610a315780637033e4a614610a39578063715018a614610a555780637b3888ef14610a5d5761046a565b80634e745f1f1161032c5780634e745f1f1461075e578063521ca4da1461082f57806353c2ed8e1461089357806366013dd31461089b5780636784c917146108cb5761046a565b80634789d02d14610627578063494f994f1461065757806349e5add4146106fc5780634b2cd1181461072a5780634ce4dbba146107325761046a565b80632d621434116103f65780633ac5743d116103ba5780633ac5743d146105c85780633ae10a15146105d0578063405d220b146105d8578063407f8001146105fe57806341fe00a01461061f5761046a565b80632d6214341461056d5780632e0abde3146105755780632e1a7d4d1461057d5780633250843d1461059a578063334987ab146105a25761046a565b80631249c58b1161043d5780631249c58b146104ef578063178b6de6146104f757806318160ddd1461051d5780631c7fd53214610541578063204612a8146105655761046a565b806303a944851461046f57806304bcafe514610490578063086146d2146104c85780630f64ab14146104e7575b600080fd5b61048e6004803603602081101561048557600080fd5b5035151561102e565b005b6104b6600480360360208110156104a657600080fd5b50356001600160a01b03166110cf565b60408051918252519081900360200190f35b6104d06110f1565b6040805161ffff9092168252519081900360200190f35b6104d0611128565b61048e611132565b6104b66004803603602081101561050d57600080fd5b50356001600160a01b03166111ce565b6105256111e9565b604080516001600160801b039092168252519081900360200190f35b61054961120d565b604080516001600160a01b039092168252519081900360200190f35b61052561121c565b6104b6611232565b6104d0611256565b61048e6004803603602081101561059357600080fd5b503561125b565b610525611361565b61048e600480360360208110156105b857600080fd5b50356001600160a01b0316611370565b6104d061143b565b6104b661145f565b61048e600480360360208110156105ee57600080fd5b50356001600160a01b0316611483565b610606611576565b6040805163ffffffff9092168252519081900360200190f35b61048e61159a565b6104b66004803603604081101561063d57600080fd5b5080356001600160a01b0316906020013561ffff1661182c565b6106846004803603606081101561066d57600080fd5b5061ffff8135169060208101359060400135611899565b60405180838152602001806020018281038252838181518152602001915080516000925b818410156106ea57602080850284010151604080838360005b838110156106d95781810151838201526020016106c1565b5050505090500192600101926106a8565b92505050935050505060405180910390f35b6104b66004803603604081101561071257600080fd5b506001600160a01b0381351690602001351515611a61565b610549611b27565b6104d06004803603604081101561074857600080fd5b506001600160a01b038135169060200135611b36565b6107846004803603602081101561077457600080fd5b50356001600160a01b0316611b96565b604051808f81526020018e61ffff1661ffff1681526020018d61ffff1661ffff1681526020018c61ffff1661ffff1681526020018b61ffff1661ffff1681526020018a81526020018961ffff1661ffff168152602001886001600160a01b03166001600160a01b031681526020018781526020018681526020018581526020018481526020018381526020018281526020019e50505050505050505050505050505060405180910390f35b61085b6004803603604081101561084557600080fd5b506001600160a01b038135169060200135611c1a565b6040805161ffff9586168152938516602085015291909316828201526001600160801b03909216606082015290519081900360800190f35b610549611c27565b6104b6600480360360408110156108b157600080fd5b5080356001600160a01b0316906020013561ffff16611c36565b6104b6611c7c565b61048e600480360360808110156108e957600080fd5b810190602081018135600160201b81111561090357600080fd5b82018360208201111561091557600080fd5b803590602001918460208302840111600160201b8311171561093657600080fd5b919390929091602081019035600160201b81111561095357600080fd5b82018360208201111561096557600080fd5b803590602001918460208302840111600160201b8311171561098657600080fd5b919390929091602081019035600160201b8111156109a357600080fd5b8201836020820111156109b557600080fd5b803590602001918460208302840111600160201b831117156109d657600080fd5b919390929091602081019035600160201b8111156109f357600080fd5b820183602082011115610a0557600080fd5b803590602001918460208302840111600160201b83111715610a2657600080fd5b509092509050611cb7565b6104b6612161565b610a41612185565b604080519115158252519081900360200190f35b61048e61218a565b6104d06121e5565b610a8b60048036036020811015610a7b57600080fd5b50356001600160a01b0316612209565b60408051941515855292151560208501529015158383015215156060830152519081900360800190f35b61048e60048036036040811015610acb57600080fd5b508035906020013561ffff16612295565b6104b660048036036040811015610af257600080fd5b5080356001600160a01b0316906020013561ffff166122a1565b61048e60048036036040811015610b2257600080fd5b508035906020013561ffff166122da565b6104b66122fe565b610549612322565b610a41612331565b61048e60048036036080811015610b6157600080fd5b6001600160a01b038235811692602081013592604082013590921691810190608081016060820135600160201b811115610b9a57600080fd5b820183602082011115610bac57600080fd5b803590602001918460018302840111600160201b83111715610bcd57600080fd5b509092509050612342565b610c0460048036036040811015610bee57600080fd5b506001600160a01b0381351690602001356123d8565b6040805161ffff938416815291909216602082015281519081900390910190f35b6104b6612427565b6104b660048036036020811015610c4357600080fd5b50356001600160a01b031661244b565b61048e60048036036020811015610c6957600080fd5b50351515612469565b61054960048036036020811015610c8857600080fd5b50356001600160a01b031661256f565b61048e60048036036080811015610cae57600080fd5b506001600160a01b03813581169160208101359160408201351690606001356125b3565b61048e60048036036020811015610ce857600080fd5b5035151561277a565b6104b6612959565b6104d060048036036020811015610d0f57600080fd5b50356001600160a01b031661295f565b6105496129b6565b61048e60048036036020811015610d3d57600080fd5b50356001600160a01b03166129c5565b61054960048036036020811015610d6357600080fd5b50356001600160a01b0316612a90565b61048e60048036036040811015610d8957600080fd5b508035906020013561ffff16612aab565b61048e60048036036020811015610db057600080fd5b50356001600160a01b0316612d18565b610a4160048036036020811015610dd657600080fd5b50356001600160a01b0316613249565b6104b6613283565b6104b660048036036020811015610e0457600080fd5b50356132a7565b6104d06132c9565b6104b660048036036020811015610e2957600080fd5b50356001600160a01b03166132ed565b61048e60048036036060811015610e4f57600080fd5b508035906020810135906040013561ffff1661330b565b61048e60048036036060811015610e7c57600080fd5b5080356001600160a01b0316906020810135906040013561ffff16613534565b610549613545565b610a41613554565b61048e60048036036020811015610ec257600080fd5b50356001600160a01b0316613578565b61052560048036036020811015610ee857600080fd5b5035613842565b610ef761387c565b6040805160ff9092168252519081900360200190f35b61048e60048036036020811015610f2357600080fd5b50356001600160a01b031661388c565b6104b660048036036040811015610f4957600080fd5b506001600160a01b0381351690602001356138f6565b61048e60048036036020811015610f7557600080fd5b503561ffff16613931565b6104b660048036036020811015610f9657600080fd5b503561ffff166139c9565b61048e60048036036020811015610fb757600080fd5b50356139db565b61048e60048036036020811015610fd457600080fd5b50356001600160a01b0316613a68565b6104b6613a82565b610549613aa6565b6105496004803603602081101561100a57600080fd5b5035613aca565b61048e6004803603602081101561102757600080fd5b5035613af1565b61103733613249565b1561104157600080fd5b336000908152600660205260408120600481015490918315916110699163ffffffff613c1b16565b1515141561107757506110cc565b600481015461108d90600063ffffffff613c2816565b6004820155604080518315158152905133917fcb9d7989e6d845ab7f3f16f57405fb85976d320aa7c3ba2705eddd52ca09154e919081900360200190a2505b50565b6001600160a01b0381166000908152600660205260409020600b01545b919050565b60007f000000000000000000000000000000000000000000000000000000000000000063ffffffff16428161112257fe5b04905090565b60055461ffff1681565b3360009081526006602052604090205461114b57600080fd5b3360009081526006602052604081209060016111656110f1565b6001840154919003915061ffff8083166201000090920416118015906111985750600182015462010000900461ffff1615155b156111c157600182018054600160201b61ffff620100008304160261ffff60201b199091161790555b6111ca33613c35565b5050565b6001600160a01b031660009081526006602052604090205490565b7f000000000000000000000000000000000000000000000000000000000000000081565b600d546001600160a01b031681565b600454600160801b90046001600160801b031681565b7f000000000000000000000000000000000000000000000000000000000000000081565b601e81565b3360009081526006602052604090205461127457600080fd5b600061127e6110f1565b3360009081526006602052604081209192506001830191906112b46112a4838686613e1a565b6112af848788613e1a565b613eaf565b82549091506112c9908263ffffffff613ec616565b8511156112d557600080fd5b815485900382556112ea826000879003613edb565b6113246001600160a01b037f000000000000000000000000000000000000000000000000000000000000000016338763ffffffff613f4316565b60408051868152905133917f7084f5476618d8e60b11ef0d7d3f06914655adb8793e28ff7f018d4c76d505d5919081900360200190a25050505050565b6004546001600160801b031681565b611378612331565b61138157600080fd5b600c546001600160a01b03161561139757600080fd5b306001600160a01b0316816001600160a01b031663e2fdcc176040518163ffffffff1660e01b815260040160206040518083038186803b1580156113da57600080fd5b505afa1580156113ee573d6000803e3d6000fd5b505050506040513d602081101561140457600080fd5b50516001600160a01b03161461141957600080fd5b600c80546001600160a01b0319166001600160a01b0392909216919091179055565b7f000000000000000000000000000000000000000000000000000000000000000081565b7f000000000000000000000000000000000000000000000000000000000000000081565b61148b612331565b61149457600080fd5b600d546001600160a01b031615806114c957507f00000000000000000000000000000000000000000000000000000000000000005b6114d257600080fd5b306001600160a01b0316816001600160a01b031663e2fdcc176040518163ffffffff1660e01b815260040160206040518083038186803b15801561151557600080fd5b505afa158015611529573d6000803e3d6000fd5b505050506040513d602081101561153f57600080fd5b50516001600160a01b03161461155457600080fd5b600d80546001600160a01b0319166001600160a01b0392909216919091179055565b7f000000000000000000000000000000000000000000000000000000000000000081565b60055461ffff166115aa57600080fd5b336000908152600860209081526040808320546001600160a01b03168084526006909252909120805461160e5760405162461bcd60e51b815260040180806020018281038252602d8152602001806158e5602d913960400191505060405180910390fd5b33321461164c5760405162461bcd60e51b81526004018080602001828103825260338152602001806159896033913960400191505060405180910390fd5b60006116578361295f565b905061166283613c35565b600061166c6110f1565b60018481015491925082019061ffff8083166201000090920416141561169657505050505061182a565b60006116a3858484613e1a565b9050600081116116b257600080fd5b61ffff82811660008181526009602052604090208054840190556001870180546201000080820490941661ffff199091161763ffff00001916929091029190911790556116ff8583613fd8565b8261ffff168461ffff16101561176f576040805180820190915261ffff6001808701821683528582166020808501918252600a8a0180549384018155600090815220935193909101805491518316620100000263ffff0000199490931661ffff1990921691909117929092161790555b600b546040805163b438c4cd60e01b81526001600160a01b03898116600483015261ffff861660248301529151919092169163b438c4cd91604480830192600092919082900301818387803b1580156117c757600080fd5b505af11580156117db573d6000803e3d6000fd5b505060408051848152905161ffff861693506001600160a01b038a1692507f6e826cfd4b2f0d3e70085110ff45fc6023aaa1ef2cd87f58f574aee310489ebc9181900360200190a35050505050505b565b6001600160a01b03821660009081526006602052604081205b600a8101548210156118915780600a01828154811061186057fe5b60009182526020909120015461ffff620100009091048116908416116118865750611893565b600190910190611845565b505b92915050565b6000606060008561ffff16116118ae57600080fd5b6007548085106118bd57600080fd5b83158015906118cd575080848601105b156118d757508383015b84810367ffffffffffffffff811180156118f057600080fd5b5060405190808252806020026020018201604052801561192a57816020015b6119176157ab565b81526020019060019003908161190f5790505b50600093509150828061193b6110f1565b9050600061195361ffff83168a63ffffffff6140a516565b9050875b84811015611a515760006007828154811061196e57fe5b60009182526020808320909101546001600160a01b03168083526006909152604090912060018101549192509061ffff908116908616148015906119c35750600181015461ffff868116620100009092041614155b156119cf575050611a49565b60006119dc828787613e1a565b90508015611a4557826001600160a01b03168988815181106119fa57fe5b6020026020010151600060028110611a0e57fe5b60200201528851600188019782918b91908110611a2757fe5b6020026020010151600160028110611a3b57fe5b6020020152988901985b5050505b600101611957565b5082855250505050935093915050565b600d546000906001600160a01b03163314611a7b57600080fd5b6001600160a01b0383166000908152600660205260409020600481015483151590611aad90600263ffffffff613c1b16565b15151415611ac057600201549050611893565b6004810154611ad690600263ffffffff613c2816565b600482015560408051841515815290516001600160a01b038616917fdc3bbcef212790ff00528dc9ef9c9b7638f290efd77f50f50c067bb14d7f9c11919081900360200190a2600201549392505050565b6002546001600160a01b031681565b6001600160a01b0382166000908152600660205260408120600b8101805483919085908110611b6157fe5b9060005260206000200190506000611b8083611b7b6110f1565b6140bb565b9050611b8c8282614105565b9695505050505050565b60066020819052600091825260409091208054600182015460028301546003840154600485015460058601549686015460078701546008880154600990980154969861ffff8088169962010000808a0483169a600160201b8b0484169a600160301b900484169998938416976001600160a01b03929094049190911695929491908e565b5060009182915081908190565b600c546001600160a01b031681565b6001600160a01b038216600090815260066020526040812081611c576110f1565b90506000611c6f61ffff83168663ffffffff61415716565b9050611b8c838383613e1a565b6004546001600160801b03600160801b90910481167f0000000000000000000000000000000000000000000000000000000000000000031690565b828715801590611cc657508786145b8015611cd25750878110155b8015611cdd57508181145b611ce657600080fd5b60006001611cf26110f1565b03905060028101600080805b8c8110156120df5760008e8e83818110611d1457fe5b905060200201356001600160a01b0316905060008d8d84818110611d3457fe5b60200291909101359150508381018115801590611d515750808910155b611d5a57600080fd5b6001600160a01b0383166000908152600660205260409020600b81015415611d8157600080fd5b6001600160a01b038481166000908152600860205260409020541615611dd85760405162461bcd60e51b815260040180806020018281038252602d815260200180615a36602d913960400191505060405180910390fd5b6007805460018101825560009182527fa66cc928b5edb82af9bd49922954155ab7b0942694bea4ce44661d9a8736c6880180546001600160a01b0319166001600160a01b03878116918217909255600b54604080516372be8d8d60e01b8152600481019390935261ffff8e166024840152519216926372be8d8d9260448084019382900301818387803b158015611e6e57600080fd5b505af1158015611e82573d6000803e3d6000fd5b505050505b8186101561208b5760008e8e88818110611e9d57fe5b90506020020135905060008d8d89818110611eb457fe5b9050602002013561ffff1690507f00000000000000000000000000000000000000000000000000000000000000008210158015611f1957507f000000000000000000000000000000000000000000000000000000000000000061ffff168161ffff1610155b611f2257600080fd5b8254611f34908363ffffffff61416b16565b83556040805160808101825261ffff808d168252600060208084018281528684169585019586526001600160801b0380891660608701908152600b8b018054600181018255908652939094209551959092018054915196519351909216600160301b02600160301b600160b01b0319938516600160201b0261ffff60201b19978616620100000263ffff0000199790961661ffff19909316929092179590951693909317949094169190911716179055611ff4898363ffffffff61416b16565b6040805184815261ffff841660208201528151929b506001600160a01b038916927feef72c2775e4e59d04b76fe99649c70b0101dbc951ce46a5a6262a6cbc138e90929181900390910190a26040805183815261ffff808d16602083015283168183015290516001600160a01b03881691600080516020615969833981519152919081900360600190a25050600190950194611e87565b80547f000000000000000000000000000000000000000000000000000000000000000010156120b957600080fd5b80546120cf90600c83019063ffffffff61417d16565b505060019092019150611cfe9050565b508481146120ec57600080fd5b60006120f8600a614188565b6001600160601b03169050612116600a84830163ffffffff61417d16565b6121516001600160a01b037f00000000000000000000000000000000000000000000000000000000000000001633308663ffffffff61419c16565b5050505050505050505050505050565b7f000000000000000000000000000000000000000000000000000000000000000081565b600190565b612192612331565b61219b57600080fd5b600080546040516001600160a01b03909116907f8be0079c531659141344cd1fd0a4f28419497f9722a3daafe3b4186f6b6457e0908390a3600080546001600160a01b0319169055565b7f000000000000000000000000000000000000000000000000000000000000000081565b6001600160a01b038116600090815260066020526040812060048101548291829182919061223e90600163ffffffff613c1b16565b600482015490955061225790600063ffffffff613c1b16565b60048201549015945061227190600263ffffffff613c1b16565b600482015490935061228a90600363ffffffff613c1b16565b159150509193509193565b6111ca33338484614232565b6001600160a01b0382166000908152600660205260408120816122c26110f1565b90506000611c6f61ffff83168663ffffffff6140a516565b336000908152600660205260409020546122f357600080fd5b6111ca338383614454565b7f000000000000000000000000000000000000000000000000000000000000000081565b6000546001600160a01b031690565b6000546001600160a01b0316331490565b7f00000000000000000000000000000000000000000000000000000000000000006001600160a01b0316836001600160a01b03161480156123ab5750336001600160a01b037f000000000000000000000000000000000000000000000000000000000000000016145b6123b457600080fd5b60843560a43560086020839003021c6123cf87808884614232565b50505050505050565b6001600160a01b0382166000908152600660205260408120600a018054829182918590811061240357fe5b60009182526020909120015461ffff80821697620100009092041695509350505050565b7f000000000000000000000000000000000000000000000000000000000000000081565b6001600160a01b03166000908152600660205260409020600a015490565b336000908152600660205260409020600481015482159061249190600363ffffffff613c1b16565b1515141561249f57506110cc565b60006124ab600a614188565b6001600160601b0316905082156124ed5781546124d290600c84019063ffffffff61417d16565b81546124e890600a90830163ffffffff61417d16565b612517565b612501600c8301600063ffffffff61417d16565b815461251790600a90830363ffffffff61417d16565b600482015461252d90600363ffffffff613c2816565b6004830155604080518415158152905133917f99113baa33c79a0d2753e314c495bcb33035f538edc07d4058823f431514cdae919081900360200190a2505050565b6001600160a01b0381166000908152600660205260408120600b81015461259a5760009150506110ec565b600301546201000090046001600160a01b031692915050565b60055461ffff166125c357600080fd5b600c546001600160a01b031633146125da57600080fd5b600083116125e757600080fd5b6001600160a01b03841660009081526006602052604090208054841061260c57805493505b805484900381558382111561261f578391505b60006126296110f1565b905060018101600061263b84846140bb565b905060008060008061264f88888888614627565b8b54939750919550935091508483019081111561267957612679898a6000015483038a89866147c5565b83156126b8578854831161268e576000612693565b885483035b83850103905080896000015410156126b85788546126b8908a9083038989601e6147c5565b8a6001600160a01b03168d6001600160a01b03167f34040fa1c0549c8572589c39cb87ff7638286467446a4790971d58d931c654bb8e8d604051808381526020018281526020019250505060405180910390a3898c111561271e5761271e8a8d036149a3565b891561275e5761275e6001600160a01b037f0000000000000000000000000000000000000000000000000000000000000000168c8c63ffffffff613f4316565b61276b898d600003613edb565b50505050505050505050505050565b3360009081526006602052604090205461279357600080fd5b3360009081526006602052604090206004810154821515906127bc90600163ffffffff613c1b16565b151514156127ca57506110cc565b60048101546127e090600163ffffffff613c2816565b600482015560006127ef6110f1565b6040805185151581529051919250600183019133917f8e551784567ec4bbce5943250eaacd5afe82aef7a9b1dab3f899881f4eae93f0919081900360200190a2600183015461ffff82811662010000909204161461284f575050506110cc565b60005b600b84015481101561295257600084600b01828154811061286f57fe5b906000526020600020019050851580156128965750805461ffff8481166201000090920416145b156128b357805465ffffffff00001916600160201b17905561294a565b805462010000900461ffff161515806128d657508054600160201b900461ffff16155b156128e1575061294a565b856128fb578054600160201b900461ffff1660010161290d565b8054600160201b900461ffff16600019015b815461ffff60201b1916600160201b61ffff928316810291909117808455041661294857805463ffff000019166201000061ffff8516021781555b505b600101612852565b5050505050565b60075490565b6001600160a01b0381166000908152600660205260408120600181015462010000900461ffff1661299f576001810154600160201b900461ffff166129af565b600181015462010000900461ffff165b9392505050565b600b546001600160a01b031681565b6129cd612331565b6129d657600080fd5b600b546001600160a01b0316156129ec57600080fd5b306001600160a01b0316816001600160a01b031663e2fdcc176040518163ffffffff1660e01b815260040160206040518083038186803b158015612a2f57600080fd5b505afa158015612a43573d6000803e3d6000fd5b505050506040513d6020811015612a5957600080fd5b50516001600160a01b031614612a6e57600080fd5b600b80546001600160a01b0319166001600160a01b0392909216919091179055565b6008602052600090815260409020546001600160a01b031681565b33600090815260066020526040902054612ac457600080fd5b33600090815260066020526040902061ffff8216612b20576040805162461bcd60e51b8152602060048201526014602482015273496e636f727265637420706172616d657465727360601b604482015290519081900360640190fd5b600081600b018481548110612b3157fe5b9060005260206000200190506000612b476110f1565b90506000612b5584836140bb565b90506000612b638483614105565b90508261ffff168161ffff1611612bab5760405162461bcd60e51b81526004018080602001828103825260358152602001806159126035913960400191505060405180910390fd5b8354612bc290600160201b900461ffff16876140a5565b845461ffff60201b1916600160201b61ffff928316021785558281169082161415612bf357835463ffff0000191684555b7f000000000000000000000000000000000000000000000000000000000000000061ffff168661ffff1684830361ffff160163ffffffff161015612c685760405162461bcd60e51b815260040180806020018281038252603e8152602001806159f8603e913960400191505060405180910390fd5b8354604080516001600160801b03600160301b90930492909216825261ffff6001840181166020840152881682820152513391600080516020615969833981519152919081900360600190a28354604080516001600160801b03600160301b90930492909216825261ffff80841660208401528816828201525133917f4a8002cb7d215ff46c882055a756942e088f67744d92308f58cd701109e9273b919081900360600190a250505050505050565b612d21816149e1565b600b546001600160a01b0316612d3e8263ab3dbf3b60e01b614a77565b6001600160a01b031614612d5157600080fd5b600c546001600160a01b0316612d6e826329e176c760e11b614a77565b6001600160a01b031614612d8157600080fd5b600d546001600160a01b0316612d9e82630e3fea9960e11b614a77565b6001600160a01b031614612db157600080fd5b600080805260096020527fec8156718a8372b1db44bb411437d0870f3e3790d4a08526d024ce1b0b668f6b5490612df29083906377caf05d60e11b90614a90565b14612dfc57600080fd5b600080805260086020527f5eff886ea0ce6ca488a3d6e336d6c0f75f46d19b42c06ce5ee98e42c96d256c7546001600160a01b031690612e4690839063597759b760e11b90614a90565b6001600160a01b031614612e5957600080fd5b600754612e6c82629fabeb60e81b614a77565b14612e7657600080fd5b600754612e82576110cc565b60006007600081548110612e9257fe5b60009182526020822001546001600160a01b031691508190612ebe90849063fd5e6dd160e01b90614a90565b6001600160a01b031614612ed157600080fd5b6001600160a01b038116600081815260066020526040902090612ef26157c9565b612efc8583614aab565b83548151919250148015612f1f57506001830154602082015161ffff9081169116145b8015612f4057506001830154604082015161ffff9081166201000090920416145b8015612f5457508260040154816101000151145b8015612f7657506001830154608082015161ffff908116600160301b90920416145b8015612f9857506001830154606082015161ffff908116600160201b90920416145b8015612fab575082600201548160a00151145b8015612fd15750600383015460e08201516001600160a01b039081166201000090920416145b8015612fec5750600383015460c082015161ffff9081169116145b612ff557600080fd5b600a83015461300c866390dcb51f60e01b85614a90565b1461301657600080fd5b60005b600a8401548110801561302c5750600581105b156130a257600084600a01828154811061304257fe5b90600052602060002001905061305661586a565b613061888685614aca565b8254815191925061ffff918216911614801561308f57508154602082015161ffff9081166201000090920416145b61309857600080fd5b5050600101613019565b50600b8301546130ba866304bcafe560e01b85614a90565b146130c457600080fd5b60005b600b840154811080156130da5750600581105b1561319357600084600b0182815481106130f057fe5b906000526020600020019050613104615881565b61310f888685614af2565b8254815191925061ffff918216911614801561313d57508154602082015161ffff9081166201000090920416145b801561315c57508154604082015161ffff908116600160201b90920416145b80156131805750815460608201516001600160801b03908116600160301b90920416145b61318957600080fd5b50506001016130c7565b5061319e84436138f6565b6131b18663ede3842160e01b8543614b11565b146131bb57600080fd5b6131c4436132a7565b6131d6866364e2991960e11b43614a90565b146131e057600080fd5b60038301546201000090046001600160a01b0316156129525760038301546001600160a01b036201000090910481166000818152600860205260409020549091169061323690879063597759b760e11b90614a90565b6001600160a01b03161461295257600080fd5b6001600160a01b038116600090815260066020526040812060010154600160301b900461ffff166132786110f1565b61ffff161092915050565b7f000000000000000000000000000000000000000000000000000000000000000081565b60006132ba600a8363ffffffff614b2d16565b6001600160601b031692915050565b7f000000000000000000000000000000000000000000000000000000000000000081565b6001600160a01b031660009081526006602052604090206002015490565b3360009081526006602052604090205461332457600080fd5b3360009081526006602052604090207f00000000000000000000000000000000000000000000000000000000000000008310801590613367575060008261ffff16115b61337057600080fd5b600081600b01858154811061338157fe5b90600052602060002001905060006133976110f1565b905060006133a584836140bb565b905060006133b38483614105565b90508261ffff168161ffff16116133fb5760405162461bcd60e51b81526004018080602001828103825260358152602001806159126035913960400191505060405180910390fd5b8354600160301b90046001600160801b03166134178189613ec6565b8554600160301b600160b01b031916600160301b6001600160801b039283168102919091178088557f0000000000000000000000000000000000000000000000000000000000000000919004909116101561347157600080fd5b845460009061348b90600160201b900461ffff16896140a5565b86549091506134a390889061ffff166000848d614c96565b6040805183815261ffff80861660208301528183018c90528a166060820152905133917f3a1fb040a51f7112d001cd86cbb247fc8b9694d0ad1c5d3583b76cd7a9c43f75919081900360800190a28554604080518b815261ffff928316602082015291831682820152513391600080516020615969833981519152919081900360600190a250505050505050505050565b61354083338484614232565b505050565b6001546001600160a01b031681565b7f000000000000000000000000000000000000000000000000000000000000000081565b3360009081526006602052604090205461359157600080fd5b33600090815260066020526040902060038101546001600160a01b03838116620100009092041614156135f55760405162461bcd60e51b8152600401808060200182810382526033815260200180615a636033913960400191505060405180910390fd5b60006135ff6110f1565b60038301549091506201000090046001600160a01b0316156136cb5760038201546136549061ffff167f000000000000000000000000000000000000000000000000000000000000000063ffffffff6140a516565b61ffff168161ffff16101561369a5760405162461bcd60e51b815260040180806020018281038252603c8152602001806159bc603c913960400191505060405180910390fd5b60038201546201000090046001600160a01b0316600090815260086020526040902080546001600160a01b03191690555b6001600160a01b038316156137db576001600160a01b0383811660009081526008602052604090205416156137315760405162461bcd60e51b81526004018080602001828103825260228152602001806159476022913960400191505060405180910390fd5b6001600160a01b0383166000908152600660205260409020600b0154158061376157506001600160a01b03831633145b6137b2576040805162461bcd60e51b815260206004820152601c60248201527f53706563696669656420776f726b65722069732061207374616b657200000000604482015290519081900360640190fd5b6001600160a01b038316600090815260086020526040902080546001600160a01b031916331790555b60038201805461ffff831661ffff196001600160a01b03871662010000810262010000600160b01b03199094169390931716811790925560405133907ff8090974dcc1dfc27f6b0617a0938ed403577a94639791db59cdcc9b52b8ea1f90600090a4505050565b600a818154811061384f57fe5b9060005260206000209060029182820401919006601002915054906101000a90046001600160801b031681565b600254600160a01b900460ff1681565b61389581614e6d565b5060008052606f7fec8156718a8372b1db44bb411437d0870f3e3790d4a08526d024ce1b0b668f6b5560086020527f5eff886ea0ce6ca488a3d6e336d6c0f75f46d19b42c06ce5ee98e42c96d256c780546001600160a01b03191630179055565b6001600160a01b038216600090815260066020526040812061392190600c018363ffffffff614b2d16565b6001600160601b03169392505050565b61393a33613249565b158015613955575061394a6110f1565b61ffff168161ffff16115b61395e57600080fd5b33600081815260066020908152604091829020600101805467ffff0000000000001916600160301b61ffff871690810291909117909155825190815291517f290a5b657c05aec4c02fb52b21644f6470bb4c6d37831f2295c247452a2074899281900390910190a250565b60096020526000908152604090205481565b60055461ffff166139eb57600080fd5b613a266001600160a01b037f00000000000000000000000000000000000000000000000000000000000000001633308463ffffffff61419c16565b613a2f816149a3565b60408051828152905133917f2a01595cddf097c90216094025db714da3f4e5bd8877b56ba86a24ecead8e543919081900360200190a250565b613a70612331565b613a7957600080fd5b6110cc81614ec7565b7f000000000000000000000000000000000000000000000000000000000000000081565b7f000000000000000000000000000000000000000000000000000000000000000081565b60078181548110613ad757fe5b6000918252602090912001546001600160a01b0316905081565b613af9612331565b613b0257600080fd5b60055461ffff1615613b1357600080fd5b807f00000000000000000000000000000000000000000000000000000000000000001115613b4057600080fd5b613b486110f1565b6005805461ffff191661ffff9290921691909117905560048054600160801b6001600160801b039182167f000000000000000000000000000000000000000000000000000000000000000085900383168202179081049091166001600160801b0319909116179055613be57f00000000000000000000000000000000000000000000000000000000000000006001600160a01b031633308461419c565b6040805182815290517fbe9b076dc5b65990cca9dd9d7366682482e7817a6f6bc7f4faf4dc32af497f329181900360200190a150565b60ff161c60019081161490565b600160ff919091161b1890565b6000613c3f6110f1565b6001600160a01b0383166000908152600660205260409020600181015491925060001983019162010000900461ffff161580613c9c5750600181015461ffff16158015613c9c5750600181015461ffff8084166201000090920416115b80613cb15750600181015461ffff8084169116115b15613cbe575050506110cc565b6000613cca82856140bb565b60048301549091506000908190613ce7908263ffffffff613c1b16565b60018501549015915061ffff1615613d4b576001840154613d12908890869061ffff16898786614f35565b60018501805461ffff1916905591508015613d4b57600184015462010000900461ffff1660009081526009602052604090208054830190555b600184015461ffff808716620100009092041611613d9757613d8387858660010160029054906101000a900461ffff16898786614f35565b60018501805463ffff000019169055909101905b8354820184556004840154613db390600263ffffffff613c1b16565b15613dc357600284018054830190555b613dcd8483613edb565b60408051838152905161ffff8716916001600160a01b038a16917f262ab020cb638b76c90ba54ebb8ec0a4ff4412b8d6777f1edc4c23d6644a88cd9181900360200190a350505050505050565b600080613e2785856140bb565b905060005b600b860154811015613ea657600086600b018281548110613e4957fe5b6000918252602090912001805490915061ffff808716911611801590613e8057508461ffff16613e798285614105565b61ffff1610155b15613e9d578054600160301b90046001600160801b031693909301925b50600101613e2c565b50509392505050565b600081831015613ebf57816129af565b5090919050565b600082821115613ed557600080fd5b50900390565b6004820154613ef190600363ffffffff613c1b16565b6111ca578154613f0b90600c84019063ffffffff61417d16565b6000613f17600a614188565b6001600160601b03169050613540613f35828463ffffffff61509916565b600a9063ffffffff61417d16565b826001600160a01b031663a9059cbb83836040518363ffffffff1660e01b815260040180836001600160a01b03166001600160a01b0316815260200182815260200192505050602060405180830381600087803b158015613fa357600080fd5b505af1158015613fb7573d6000803e3d6000fd5b505050506040513d6020811015613fcd57600080fd5b505161354057600080fd5b6004820154613fee90600163ffffffff613c1b16565b613ff7576111ca565b60005b600b83015481101561354057600083600b01828154811061401757fe5b6000918252602090912001805490915062010000900461ffff1615158061404857508054600160201b900461ffff16155b15614053575061409d565b805460001961ffff600160201b8084048216929092018116820261ffff60201b1990931692909217808455041661409b57805463ffff000019166201000061ffff8516021781555b505b600101613ffa565b600082820161ffff80851690821610156129af57fe5b60048201546000906140d490600163ffffffff613c1b16565b80156140f05750600183015461ffff8084166201000090920416115b156140ff575060018101611893565b50919050565b815460009062010000900461ffff161561412b5750815462010000900461ffff16611893565b8254600160201b900461ffff908116838216019063ffffffff821611156129af5761ffff915050611893565b60008261ffff168261ffff161115613ed557fe5b6000828201838110156129af57600080fd5b6111ca8243836150cd565b600080614194836151c4565b949350505050565b604080516323b872dd60e01b81526001600160a01b0385811660048301528481166024830152604482018490529151918616916323b872dd916064808201926020929091908290030181600087803b1580156141f757600080fd5b505af115801561420b573d6000803e3d6000fd5b505050506040513d602081101561422157600080fd5b505161422c57600080fd5b50505050565b8161423c57600080fd5b6001600160a01b0380851660009081526006602090815260408083206008909252909120549091161580614296575060038101546001600160a01b0386811660009081526008602052604090205481166201000090920416145b6142d15760405162461bcd60e51b815260040180806020018281038252602d815260200180615a36602d913960400191505060405180910390fd5b600b8101546143b15760078054600180820183556000929092527fa66cc928b5edb82af9bd49922954155ab7b0942694bea4ce44661d9a8736c6880180546001600160a01b0319166001600160a01b0388811691909117909155600b5416906372be8d8d9087906143406110f1565b036040518363ffffffff1660e01b815260040180836001600160a01b03166001600160a01b031681526020018261ffff1661ffff16815260200192505050600060405180830381600087803b15801561439857600080fd5b505af11580156143ac573d6000803e3d6000fd5b505050505b6143ec6001600160a01b037f00000000000000000000000000000000000000000000000000000000000000001685308663ffffffff61419c16565b8054830181556143fd858484614454565b6144078184613edb565b6040805184815261ffff8416602082015281516001600160a01b038816927feef72c2775e4e59d04b76fe99649c70b0101dbc951ce46a5a6262a6cbc138e90928290030190a25050505050565b7f000000000000000000000000000000000000000000000000000000000000000082101580156144ac57507f000000000000000000000000000000000000000000000000000000000000000061ffff168161ffff1610155b6144b557600080fd5b60006144bf6110f1565b6001600160a01b03851660009081526006602052604081209192506001830191906144eb828585613e1a565b905060006144ff878363ffffffff61416b16565b8354909150811180159061453357507f00000000000000000000000000000000000000000000000000000000000000008111155b61453c57600080fd5b6001830154869061ffff868116620100009092041614156145d057600484015461456d90600163ffffffff613c1b16565b1561457757600019015b61ffff851660008181526009602090815260409182902080548c01905581518b815291516001600160a01b038d16927f6e826cfd4b2f0d3e70085110ff45fc6023aaa1ef2cd87f58f574aee310489ebc92908290030190a35b6145de84866000848c614c96565b6040805189815261ffff808816602083015289168183015290516001600160a01b038b1691600080516020615969833981519152919081900360600190a2505050505050505050565b60008080601e61ffff80835b600b8b01548110156147b75760008b600b01828154811061465057fe5b9060005260206000200190506000614668828b614105565b825490915061ffff90811690821610156146835750506147af565b815461ffff808e169116118015906146a357508a61ffff168161ffff1610155b156146c4578154600160301b90046001600160801b03169690960195614742565b815461ffff808e169116118015906146e457508b61ffff168161ffff1610155b15614705578154600160301b90046001600160801b03169890980197614742565b815461ffff808d1691161180159061472557508a61ffff168161ffff1610155b15614742578154600160301b90046001600160801b031697909701965b815461ffff908116808303918e161080159061476657508c61ffff168261ffff1610155b801561479c57508461ffff168261ffff16108061479c57508461ffff168261ffff1614801561479c57508561ffff168161ffff16105b156147ab578396508095508194505b5050505b600101614633565b505050945094509450949050565b600085600b016000815481106147d757fe5b6000918252602090912001905061ffff805b861561499957601e8410156148335787600b01848154811061480757fe5b90600052602060002001925061481d8386614105565b8354601e955090925061ffff1682039050614847565b61483e8887876151fb565b91945090925090505b61ffff818116141561485857614999565b82548790600160301b90046001600160801b03168110156148bb5783546001600160801b03600160301b80830482168b900390911602600160301b600160b01b0319909116178085556148b2908a9061ffff168a8a6152d2565b600097506148ed565b50825463ffff0000191662010000600019880161ffff160217808455600160301b90046001600160801b031696879003965b600189015461ffff8089169116108015906149135750600189015461ffff808516911611155b1561493757600189015461ffff166000908152600960205260409020805482900390555b600189015461ffff8089166201000090920416108015906149695750600189015461ffff808516620100009092041611155b1561499357600189015462010000900461ffff166000908152600960205260409020805482900390555b506147e9565b5050505050505050565b600480546001600160801b031981166001600160801b03918216849003821617808216600160801b9182900483169490940390911602919091179055565b6149ea8161547e565b60055461ffff16614a02826303d92ac560e21b614a77565b61ffff1614614a1057600080fd5b6004546001600160801b0316614a2d82633250843d60e01b614a77565b6001600160801b031614614a4057600080fd5b600454600160801b90046001600160801b0316614a6482630408c25560e31b614a77565b6001600160801b0316146110cc57600080fd5b600080614a8784848380806154d8565b51949350505050565b600080614aa18585600186856154d8565b5195945050505050565b614ab36157c9565b600061419484634e745f1f60e01b600186856154d8565b614ad261586a565b6000614ae985638fa95a1560e01b600287876154d8565b95945050505050565b614afa615881565b6000614ae98563290e526d60e11b600287876154d8565b600080614b228686600287876154d8565b519695505050505050565b8154600090829080614b4457600092505050611893565b6000600182039050600080614b8f886001860381548110614b6157fe5b90600052602060002090600291828204019190066010029054906101000a90046001600160801b0316615528565b915091508163ffffffff168563ffffffff1610614bb25794506118939350505050565b614bc288600081548110614b6157fe5b90925090506001841480614be157508163ffffffff168563ffffffff16105b15614bf457600095505050505050611893565b6000600019840181805b83831115614c765760006002600185870101049050614c228d8281548110614b6157fe5b909350915063ffffffff808416908b161115614c4057809450614c70565b8263ffffffff168a63ffffffff161015614c5f57600181039350614c70565b509850611893975050505050505050565b50614bfe565b614c858c8581548110614b6157fe5b9d9c50505050505050505050505050565b60005b600b860154811015614da457600086600b018281548110614cb657fe5b6000918252602090912001805490915062010000900461ffff1615801590614d025750600187015461ffff161580614d0257506001870154815461ffff91821662010000909104909116105b8015614d3a5750600187015462010000900461ffff161580614d3a57506001870154815461ffff620100009283900481169290910416105b15614d9b57805461ffff191661ffff8781169190911763ffff0000191662010000878316021761ffff60201b1916600160201b9186169190910217600160301b600160b01b031916600160301b6001600160801b0385160217905550612952565b50600101614c99565b50600b850154601e11614db657600080fd5b6040805160808101825261ffff808716825285811660208084019182528683169484019485526001600160801b0380871660608601908152600b8c01805460018101825560009182529390209551959092018054935196519251909116600160301b02600160301b600160b01b0319928516600160201b0261ffff60201b19978616620100000263ffff0000199790961661ffff199095169490941795909516939093179490941617929092161790555050505050565b60028054600160a01b900460ff1614614e8557600080fd5b6040805133815290516001600160a01b038316917fd55ec27c5c6316913ed8803c18cfd1bfefea953db909dcba6140744a9d8b0d1f919081900360200190a250565b6001600160a01b038116614eda57600080fd5b600080546040516001600160a01b03808516939216917f8be0079c531659141344cd1fd0a4f28419497f9722a3daafe3b4186f6b6457e091a3600080546001600160a01b0319166001600160a01b0392909216919091179055565b6000805b600b87015481101561501e57600087600b018281548110614f5657fe5b9060005260206000200190506000614f6e8287614105565b825490915061ffff808a16911611801590614f9157508761ffff168161ffff1610155b1561501457815461ffff8981166000908152600960205260408120549092614fd9928b92600160301b9092046001600160801b03169190614fd49087168e614157565b615536565b94850194905085156150125782546001600160801b03600160301b8083048216840190911602600160301b600160b01b03199091161783555b505b5050600101614f39565b50600b5460408051633ea2391f60e01b81526001600160a01b038a8116600483015261ffff8916602483015291519190921691633ea2391f91604480830192600092919082900301818387803b15801561507757600080fd5b505af115801561508b573d6000803e3d6000fd5b505050509695505050505050565b60008082126150b9576150b2838363ffffffff61416b16565b9050611893565b6150b283600084900363ffffffff613ec616565b825480156151745760006150e9856001840381548110614b6157fe5b5090508063ffffffff168463ffffffff1614156151595761510a8484615778565b85600184038154811061511957fe5b90600052602060002090600291828204019190066010026101000a8154816001600160801b0302191690836001600160801b031602179055505050613540565b8063ffffffff168463ffffffff16101561517257600080fd5b505b8361517f8484615778565b81546001818101845560009384526020909320600282040180546001600160801b03938416601093909516929092026101000a93840292909302191617905550505050565b8054600090819080156151ed576151e3846001830381548110614b6157fe5b92509250506151f6565b50600091508190505b915091565b600061ffff80825b600b8701548110156152c857600087600b01828154811061522057fe5b90600052602060002001905060006152388288614105565b825490915061ffff90811690821610156152535750506152c0565b815461ffff908116808303918a161080159061527757508861ffff168261ffff1610155b80156152ad57508461ffff168261ffff1610806152ad57508461ffff168261ffff161480156152ad57508561ffff168161ffff16105b156152bc578296508095508194505b5050505b600101615203565b5093509350939050565b600184015460009061ffff16158015906152f65750600185015461ffff8084169116105b600186015490915060009062010000900461ffff16158015906153295750600186015461ffff8085166201000090920416105b905060008280156153455750600187015461ffff808816911610155b905060008280156153675750600188015461ffff808916620100009092041610155b905081158015615375575080155b15615383575050505061422c565b600019850160005b600b8a01548110156154645760008a600b0182815481106153a857fe5b6000918252602090912001805490915061ffff848116620100009092041614801561541e57508680156153e85750805460018c015461ffff918216911610155b151585151514801561541e57508580156154175750805460018c015461ffff9182166201000090910490911610155b1515841515145b1561545b5780546001600160801b03600160301b80830482168c0190911602600160301b600160b01b03199091161790555061422c945050505050565b5060010161538b565b5061547389898360008b614c96565b505050505050505050565b60028054600160a01b900460ff161461549657600080fd5b6040805133815290516001600160a01b038316917f1e8d98c1b4a0d9bd2e2371026b632eb2773fcce41742e41f02f574ab69868d4c919081900360200190a250565b60405184815283156154eb578260048201525b60018411156154fb578160248201525b6000808560200260040183895af48015615519573d6000833e61551e565b600082fd5b5095945050505050565b63ffffffff606082901c1691565b6004546000907f00000000000000000000000000000000000000000000000000000000000000006001600160801b03908116600160801b90920416141561557f57506000614194565b60055461ffff90811690861611156155c65760048054600160801b81046001600160801b03166001600160801b03199091161790556005805461ffff191661ffff87161790555b60045460009081907f00000000000000000000000000000000000000000000000000000000000000006001600160801b039091167f0000000000000000000000000000000000000000000000000000000000000000011161566b57507f000000000000000000000000000000000000000000000000000000000000000090507f00000000000000000000000000000000000000000000000000000000000000006156c0565b50506004546001600160801b039081167f000000000000000000000000000000000000000000000000000000000000000003167f00000000000000000000000000000000000000000000000000000000000000005b60007f000000000000000000000000000000000000000000000000000000000000000061570d867f0000000000000000000000000000000000000000000000000000000000000000615794565b61ffff1601905081860281888502028161572357fe5b0493506000615730611c7c565b905084615740576001945061574c565b8085111561574c578094505b5050600480546001600160801b03600160801b8083048216870182160291161790555050949350505050565b6001600160601b031660609190911b63ffffffff60601b161790565b60008161ffff168361ffff1610613ebf57816129af565b60405180604001604052806002906020820280368337509192915050565b60405180610220016040528060008152602001600061ffff168152602001600061ffff168152602001600061ffff168152602001600061ffff16815260200160008152602001600061ffff16815260200160006001600160a01b031681526020016000815260200160008152602001600081526020016000815260200160008152602001600081526020016060815260200160608152602001606081525090565b604080518082019091526000808252602082015290565b60408051608081018252600080825260208201819052918101829052606081019190915290565b600063ffffffff83166158bd57506000611893565b82820263ffffffff80841690808616908316816158d657fe5b0463ffffffff16146129af57fefe5374616b6572206d75737420686176652061207374616b6520746f206d616b65206120636f6d6d69746d656e7454686520737562207374616b65206d75737420616374697665206174206c6561737420696e20746865206e65787420706572696f6453706563696669656420776f726b657220697320616c726561647920696e207573655c82b27ca454d536b55df10a5a7cbf8ceab76ccf7d614a04668ee4990c8726384f6e6c7920776f726b65722077697468207265616c20616464726573732063616e206d616b65206120636f6d6d69746d656e744e6f7420656e6f7567682074696d6520686173207061737365642073696e6365207468652070726576696f757320626f6e64696e6720776f726b657254686520657874656e64656420737562207374616b65206d757374206e6f74206265206c657373207468616e20746865206d696e696d756d2076616c756541207374616b65722063616e2774206265206120776f726b657220666f7220616e6f74686572207374616b657253706563696669656420776f726b657220697320616c726561647920626f6e64656420776974682074686973207374616b6572a2646970667358221220bd74481934a537f4309185430816fcac6e7796db9f94ce28cf0a84b7ea03bc4364736f6c63430006070033546f6b656e20636f6e74726163742068617320737570706c79206d6f7265207468616e20737570706f72746564546f6f206d616e7920746f6b656e7320666f722074686520666972737420706861736552657761726420666f722074686520666972737420706861736520697320746f6f206869676853706563696669656420706172616d6574657273206361757365206f766572666c6f77526573756c74696e67206c6f636b696e67206475726174696f6e20636f656666696369656e74206d757374206265206c657373207468616e2031",
  "bytecodeSha1": "7a3f5f9cbabf9c169e3b16932480f0aa083797e9",
  "compiler": {
    "evm_version": "berlin",
    "optimizer": {
      "enabled": true,
      "runs": 200
    },
    "version": "0.6.7"
  },
  "contractName": "StakingEscrowBad",
  "language": "Solidity",
  "natspec": {
    "methods": {
      "batchDeposit(address[],uint256[],uint256[],uint16[])": {
        "notice": "Batch deposit. Allowed only initial deposit for each staker",
        "params": {
          "_numberOfSubStakes": "Number of sub-stakes which belong to staker in _values and _periods arrays",
          "_periods": "Amount of periods during which tokens will be locked for each staker",
          "_stakers": "Stakers",
          "_values": "Amount of tokens to deposit for each staker"
        }
      },
      "bondWorker(address)": {
        "notice": "Bond worker",
        "params": {
          "_worker": "Worker address. Must be a real address, not a contract"
        }
      },
      "commitToNextPeriod()": {
        "notice": "Make a commitment to the next period and mint for the previous period"
      },
      "deposit(address,uint256,uint16)": {
        "notice": "Deposit tokens",
        "params": {
          "_periods": "Amount of periods during which tokens will be locked",
          "_staker": "Staker",
          "_value": "Amount of tokens to deposit"
        }
      },
      "deposit(uint256,uint16)": {
        "notice": "Deposit tokens",
        "params": {
          "_periods": "Amount of periods during which tokens will be locked",
          "_value": "Amount of tokens to deposit"
        }
      },
      "divideStake(uint256,uint256,uint16)": {
        "notice": "Divide sub stake into two parts",
        "params": {
          "_index": "Index of the sub stake",
          "_newValue": "New sub stake value",
          "_periods": "Amount of periods for extending sub stake"
        }
      },
      "donate(uint256)": {
        "notice": "Donate sender's tokens. Amount of tokens will be returned for future minting",
        "params": {
          "_value": "Amount to donate"
        }
      },
      "findIndexOfPastDowntime(address,uint16)": {
        "details": "If specified period is outside all downtime periods, the length of the array will be returned",
        "notice": "Find index of downtime structure that includes specified period",
        "params": {
          "_period": "Specified period number",
          "_staker": "Staker"
        }
      },
      "finishUpgrade(address)": {
        "details": "the `onlyWhileUpgrading` modifier works through a call to the parent `finishUpgrade`"
      },
      "getActiveStakers(uint16,uint256,uint256)": {
        "details": "Note that activeStakers[0] in an array of uint256, but you want addresses. Careful when used directly!",
        "notice": "Get the value of locked tokens for active stakers in (getCurrentPeriod() + _periods) period as well as stakers and their locked tokens",
        "params": {
          "_maxStakers": "Max stakers for looking, if set 0 then all will be used",
          "_periods": "Amount of periods for locked tokens calculation",
          "_startIndex": "Start index for looking in stakers array"
        },
        "returns": {
          "activeStakers": "Array of stakers and their locked tokens. Stakers addresses stored as uint256",
          "allLockedTokens": "Sum of locked tokens for active stakers"
        }
      },
      "getAllTokens(address)": {
        "notice": "Get all tokens belonging to the staker"
      },
      "getCompletedWork(address)": {
        "notice": "Get work that completed by the staker"
      },
      "getFlags(address)": {
        "notice": "Get all flags for the staker"
      },
      "getLastCommittedPeriod(address)": {
        "notice": "Get the last committed staker's period",
        "params": {
          "_staker": "Staker"
        }
      },
      "getLastPeriodOfSubStake(address,uint256)": {
        "notice": "Get the last period of the sub stake",
        "params": {
          "_index": "Stake index",
          "_staker": "Staker"
        }
      },
      "getLockedTokens(address,uint16)": {
        "details": "This function is used by PreallocationEscrow so its signature can't be updated.",
        "notice": "Get the value of locked tokens for a staker in a future period",
        "params": {
          "_periods": "Amount of periods that will be added to the current period",
          "_staker": "Staker"
        }
      },
      "getLockedTokensInPast(address,uint16)": {
        "details": "Information may be incorrect for rewarded or not committed surpassed period",
        "notice": "Get the value of locked tokens for a staker in a previous period",
        "params": {
          "_periods": "Amount of periods that will be subtracted from the current period",
          "_staker": "Staker"
        }
      },
      "getPastDowntime(address,uint256)": {
        "notice": "Return the information about past downtime"
      },
      "getPastDowntimeLength(address)": {
        "notice": "Return the length of the array of past downtime"
      },
      "getReservedReward()": {
        "notice": "Returns the number of tokens that can be minted"
      },
      "getStakersLength()": {
        "notice": "Return the length of the array of stakers"
      },
      "getSubStakesLength(address)": {
        "notice": "Return the length of the array of sub stakes"
      },
      "getWorkerFromStaker(address)": {
        "notice": "Get worker using staker's address"
      },
      "initialize(uint256)": {
        "notice": "Initialize reserved tokens for reward"
      },
      "isReStakeLocked(address)": {
        "notice": "Checks if `reStake` parameter is available for changing",
        "params": {
          "_staker": "Staker"
        }
      },
      "lock(uint256,uint16)": {
        "notice": "Lock some tokens as a stake",
        "params": {
          "_periods": "Amount of periods during which tokens will be locked",
          "_value": "Amount of tokens which will be locked"
        }
      },
      "lockReStake(uint16)": {
        "notice": "Lock `reStake` parameter. Only if this parameter is not locked",
        "params": {
          "_lockReStakeUntilPeriod": "Can't change `reStake` value until this period"
        }
      },
      "mint()": {
        "notice": "Mint tokens for previous periods if staker locked their tokens and made a commitment"
      },
      "prolongStake(uint256,uint16)": {
        "notice": "Prolong active sub stake",
        "params": {
          "_index": "Index of the sub stake",
          "_periods": "Amount of periods for extending sub stake"
        }
      },
      "receiveApproval(address,uint256,address,bytes)": {
        "notice": "Implementation of the receiveApproval(address,uint256,address,bytes) method (see NuCypherToken contract). Deposit all tokens that were approved to transfer(param _extraData) Amount of periods during which tokens will be locked",
        "params": {
          "_from": "Staker",
          "_tokenContract": "Token contract address",
          "_value": "Amount of tokens to deposit"
        }
      },
      "renounceOwnership()": {
        "details": "Allows the current owner to relinquish control of the contract.",
        "notice": "Renouncing to ownership will leave the contract without an owner. It will not be possible to call the functions with the `onlyOwner` modifier anymore."
      },
      "setAdjudicator(address)": {
        "notice": "Set adjudicator address"
      },
      "setPolicyManager(address)": {
        "notice": "Set policy manager address"
      },
      "setReStake(bool)": {
        "notice": "Set `reStake` parameter. If true then all staking rewards will be added to locked stake Only if this parameter is not locked",
        "params": {
          "_reStake": "Value for parameter"
        }
      },
      "setSnapshots(bool)": {
        "notice": "Activate/deactivate taking snapshots of balances",
        "params": {
          "_enableSnapshots": "True to activate snapshots, False to deactivate"
        }
      },
      "setWindDown(bool)": {
        "notice": "Set `windDown` parameter. If true then stake's duration will be decreasing in each period with `commitToNextPeriod()`",
        "params": {
          "_windDown": "Value for parameter"
        }
      },
      "setWorkLock(address)": {
        "notice": "Set worklock address"
      },
      "setWorkMeasurement(address,bool)": {
        "notice": "Start or stop measuring the work of a staker",
        "params": {
          "_measureWork": "Value for `measureWork` parameter",
          "_staker": "Staker"
        },
        "returns": {
          "_0": "Work that was previously done"
        }
      },
      "slashStaker(address,uint256,address,uint256)": {
        "notice": "Slash the staker's stake and reward the investigator",
        "params": {
          "_investigator": "Investigator",
          "_penalty": "Penalty",
          "_reward": "Reward for the investigator",
          "_staker": "Staker's address"
        }
      },
      "transferOwnership(address)": {
        "details": "Allows the current owner to transfer control of the contract to a newOwner.",
        "params": {
          "newOwner": "The address to transfer ownership to."
        }
      },
      "verifyState(address)": {
        "details": "the `onlyWhileUpgrading` modifier works through a call to the parent `verifyState`"
      },
      "withdraw(uint256)": {
        "notice": "Withdraw available amount of tokens to staker",
        "params": {
          "_value": "Amount of tokens to withdraw"
        }
      }
    },
    "notice": "Upgrade to this contract must lead to fail"
  },
  "opcodes": "PUSH1 0x80 PUSH1 0x40 MSTORE CALLVALUE DUP1 ISZERO PUSH2 0x10 JUMPI PUSH1 0x0 DUP1 REVERT JUMPDEST POP PUSH1 0x4 CALLDATASIZE LT PUSH2 0x46A JUMPI PUSH1 0x0 CALLDATALOAD PUSH1 0xE0 SHR DUP1 PUSH4 0x8DA5CB5B GT PUSH2 0x24C JUMPI DUP1 PUSH4 0xC9C53232 GT PUSH2 0x146 JUMPI DUP1 PUSH4 0xE8DCCD06 GT PUSH2 0xC3 JUMPI DUP1 PUSH4 0xF2FDE38B GT PUSH2 0x87 JUMPI DUP1 PUSH4 0xF2FDE38B EQ PUSH2 0xFBE JUMPI DUP1 PUSH4 0xF6910CB8 EQ PUSH2 0xFE4 JUMPI DUP1 PUSH4 0xFC0C546A EQ PUSH2 0xFEC JUMPI DUP1 PUSH4 0xFD5E6DD1 EQ PUSH2 0xFF4 JUMPI DUP1 PUSH4 0xFE4B84DF EQ PUSH2 0x1011 JUMPI PUSH2 0x46A JUMP JUMPDEST DUP1 PUSH4 0xE8DCCD06 EQ PUSH2 0xF0D JUMPI DUP1 PUSH4 0xEDE38421 EQ PUSH2 0xF33 JUMPI DUP1 PUSH4 0xEE53C8FD EQ PUSH2 0xF5F JUMPI DUP1 PUSH4 0xEF95E0BA EQ PUSH2 0xF80 JUMPI DUP1 PUSH4 0xF14FAF6F EQ PUSH2 0xFA1 JUMPI PUSH2 0x46A JUMP JUMPDEST DUP1 PUSH4 0xD4B83992 GT PUSH2 0x10A JUMPI DUP1 PUSH4 0xD4B83992 EQ PUSH2 0xE9C JUMPI DUP1 PUSH4 0xD6AD9457 EQ PUSH2 0xEA4 JUMPI DUP1 PUSH4 0xDAD60676 EQ PUSH2 0xEAC JUMPI DUP1 PUSH4 0xDFEE9E0D EQ PUSH2 0xED2 JUMPI DUP1 PUSH4 0xE38A303B EQ PUSH2 0xEEF JUMPI PUSH2 0x46A JUMP JUMPDEST DUP1 PUSH4 0xC9C53232 EQ PUSH2 0xDEE JUMPI DUP1 PUSH4 0xCD50F601 EQ PUSH2 0xE0B JUMPI DUP1 PUSH4 0xD094ADBF EQ PUSH2 0xE13 JUMPI DUP1 PUSH4 0xD122B794 EQ PUSH2 0xE39 JUMPI DUP1 PUSH4 0xD2D0E066 EQ PUSH2 0xE66 JUMPI PUSH2 0x46A JUMP JUMPDEST DUP1 PUSH4 0x9D6F2A09 GT PUSH2 0x1D4 JUMPI DUP1 PUSH4 0xB2EEB36E GT PUSH2 0x198 JUMPI DUP1 PUSH4 0xB2EEB36E EQ PUSH2 0xD4D JUMPI DUP1 PUSH4 0xB89F66ED EQ PUSH2 0xD73 JUMPI DUP1 PUSH4 0xB9626D21 EQ PUSH2 0xD9A JUMPI DUP1 PUSH4 0xC2BC0EE6 EQ PUSH2 0xDC0 JUMPI DUP1 PUSH4 0xC83D8708 EQ PUSH2 0xDE6 JUMPI PUSH2 0x46A JUMP JUMPDEST DUP1 PUSH4 0x9D6F2A09 EQ PUSH2 0xCD2 JUMPI DUP1 PUSH4 0x9FABEB00 EQ PUSH2 0xCF1 JUMPI DUP1 PUSH4 0xA3EBC182 EQ PUSH2 0xCF9 JUMPI DUP1 PUSH4 0xAB3DBF3B EQ PUSH2 0xD1F JUMPI DUP1 PUSH4 0xADDE41E1 EQ PUSH2 0xD27 JUMPI PUSH2 0x46A JUMP JUMPDEST DUP1 PUSH4 0x909F7C88 GT PUSH2 0x21B JUMPI DUP1 PUSH4 0x909F7C88 EQ PUSH2 0xC25 JUMPI DUP1 PUSH4 0x90DCB51F EQ PUSH2 0xC2D JUMPI DUP1 PUSH4 0x9541C598 EQ PUSH2 0xC53 JUMPI DUP1 PUSH4 0x959F2BF2 EQ PUSH2 0xC72 JUMPI DUP1 PUSH4 0x99CC218C EQ PUSH2 0xC98 JUMPI PUSH2 0x46A JUMP JUMPDEST DUP1 PUSH4 0x8DA5CB5B EQ PUSH2 0xB3B JUMPI DUP1 PUSH4 0x8F32D59B EQ PUSH2 0xB43 JUMPI DUP1 PUSH4 0x8F4FFCB1 EQ PUSH2 0xB4B JUMPI DUP1 PUSH4 0x8FA95A15 EQ PUSH2 0xBD8 JUMPI PUSH2 0x46A JUMP JUMPDEST DUP1 PUSH4 0x4789D02D GT PUSH2 0x368 JUMPI DUP1 PUSH4 0x6B5BBC97 GT PUSH2 0x2E5 JUMPI DUP1 PUSH4 0x817AD5D3 GT PUSH2 0x2A9 JUMPI DUP1 PUSH4 0x817AD5D3 EQ PUSH2 0xA65 JUMPI DUP1 PUSH4 0x845603A6 EQ PUSH2 0xAB5 JUMPI DUP1 PUSH4 0x84BED44C EQ PUSH2 0xADC JUMPI DUP1 PUSH4 0x86F86DDE EQ PUSH2 0xB0C JUMPI DUP1 PUSH4 0x8CAB6C4F EQ PUSH2 0xB33 JUMPI PUSH2 0x46A JUMP JUMPDEST DUP1 PUSH4 0x6B5BBC97 EQ PUSH2 0x8D3 JUMPI DUP1 PUSH4 0x6FB653A2 EQ PUSH2 0xA31 JUMPI DUP1 PUSH4 0x7033E4A6 EQ PUSH2 0xA39 JUMPI DUP1 PUSH4 0x715018A6 EQ PUSH2 0xA55 JUMPI DUP1 PUSH4 0x7B3888EF EQ PUSH2 0xA5D JUMPI PUSH2 0x46A JUMP JUMPDEST DUP1 PUSH4 0x4E745F1F GT PUSH2 0x32C JUMPI DUP1 PUSH4 0x4E745F1F EQ PUSH2 0x75E JUMPI DUP1 PUSH4 0x521CA4DA EQ PUSH2 0x82F JUMPI DUP1 PUSH4 0x53C2ED8E EQ PUSH2 0x893 JUMPI DUP1 PUSH4 0x66013DD3 EQ PUSH2 0x89B JUMPI DUP1 PUSH4 0x6784C917 EQ PUSH2 0x8CB JUMPI PUSH2 0x46A JUMP JUMPDEST DUP1 PUSH4 0x4789D02D EQ PUSH2 0x627 JUMPI DUP1 PUSH4 0x494F994F EQ PUSH2 0x657 JUMPI DUP1 PUSH4 0x49E5ADD4 EQ PUSH2 0x6FC JUMPI DUP1 PUSH4 0x4B2CD118 EQ PUSH2 0x72A JUMPI DUP1 PUSH4 0x4CE4DBBA EQ PUSH2 0x732 JUMPI PUSH2 0x46A JUMP JUMPDEST DUP1 PUSH4 0x2D621434 GT PUSH2 0x3F6 JUMPI DUP1 PUSH4 0x3AC5743D GT PUSH2 0x3BA JUMPI DUP1 PUSH4 0x3AC5743D EQ PUSH2 0x5C8 JUMPI DUP1 PUSH4 0x3AE10A15 EQ PUSH2 0x5D0 JUMPI DUP1 PUSH4 0x405D220B EQ PUSH2 0x5D8 JUMPI DUP1 PUSH4 0x407F8001 EQ PUSH2 0x5FE JUMPI DUP1 PUSH4 0x41FE00A0 EQ PUSH2 0x61F JUMPI PUSH2 0x46A JUMP JUMPDEST DUP1 PUSH4 0x2D621434 EQ PUSH2 0x56D JUMPI DUP1 PUSH4 0x2E0ABDE3 EQ PUSH2 0x575 JUMPI DUP1 PUSH4 0x2E1A7D4D EQ PUSH2 0x57D JUMPI DUP1 PUSH4 0x3250843D EQ PUSH2 0x59A JUMPI DUP1 PUSH4 0x334987AB EQ PUSH2 0x5A2 JUMPI PUSH2 0x46A JUMP JUMPDEST DUP1 PUSH4 0x1249C58B GT PUSH2 0x43D JUMPI DUP1 PUSH4 0x1249C58B EQ PUSH2 0x4EF JUMPI DUP1 PUSH4 0x178B6DE6 EQ PUSH2 0x4F7 JUMPI DUP1 PUSH4 0x18160DDD EQ PUSH2 0x51D JUMPI DUP1 PUSH4 0x1C7FD532 EQ PUSH2 0x541 JUMPI DUP1 PUSH4 0x204612A8 EQ PUSH2 0x565 JUMPI PUSH2 0x46A JUMP JUMPDEST DUP1 PUSH4 0x3A94485 EQ PUSH2 0x46F JUMPI DUP1 PUSH4 0x4BCAFE5 EQ PUSH2 0x490 JUMPI DUP1 PUSH4 0x86146D2 EQ PUSH2 0x4C8 JUMPI DUP1 PUSH4 0xF64AB14 EQ PUSH2 0x4E7 JUMPI JUMPDEST PUSH1 0x0 DUP1 REVERT JUMPDEST PUSH2 0x48E PUSH1 0x4 DUP1 CALLDATASIZE SUB PUSH1 0x20 DUP2 LT ISZERO PUSH2 0x485 JUMPI PUSH1 0x0 DUP1 REVERT JUMPDEST POP CALLDATALOAD ISZERO ISZERO PUSH2 0x102E JUMP JUMPDEST STOP JUMPDEST PUSH2 0x4B6 PUSH1 0x4 DUP1 CALLDATASIZE SUB PUSH1 0x20 DUP2 LT ISZERO PUSH2 0x4A6 JUMPI PUSH1 0x0 DUP1 REVERT JUMPDEST POP CALLDATALOAD PUSH1 0x1 PUSH1 0x1 PUSH1 0xA0 SHL SUB AND PUSH2 0x10CF JUMP JUMPDEST PUSH1 0x40 DUP1 MLOAD SWAP2 DUP3 MSTORE MLOAD SWAP1 DUP2 SWAP1 SUB PUSH1 0x20 ADD SWAP1 RETURN JUMPDEST PUSH2 0x4D0 PUSH2 0x10F1 JUMP JUMPDEST PUSH1 0x40 DUP1 MLOAD PUSH2 0xFFFF SWAP1 SWAP3 AND DUP3 MSTORE MLOAD SWAP1 DUP2 SWAP1 SUB PUSH1 0x20 ADD SWAP1 RETURN JUMPDEST PUSH2 0x4D0 PUSH2 0x1128 JUMP JUMPDEST PUSH2 0x48E PUSH2 0x1132 JUMP JUMPDEST PUSH2 0x4B6 PUSH1 0x4 DUP1 CALLDATASIZE SUB PUSH1 0x20 DUP2 LT ISZERO PUSH2 0x50D JUMPI PUSH1 0x0 DUP1 REVERT JUMPDEST POP CALLDATALOAD PUSH1 0x1 PUSH1 0x1 PUSH1 0xA0 SHL SUB AND PUSH2 0x11CE JUMP JUMPDEST PUSH2 0x525 PUSH2 0x11E9 JUMP JUMPDEST PUSH1 0x40 DUP1 MLOAD PUSH1 0x1 PUSH1 0x1 PUSH1 0x80 SHL SUB SWAP1 SWAP3 AND DUP3 MSTORE MLOAD SWAP1 DUP2 SWAP1 SUB PUSH1 0x20 ADD SWAP1 RETURN JUMPDEST PUSH2 0x549 PUSH2 0x120D JUMP JUMPDEST PUSH1 0x40 DUP1 MLOAD PUSH1 0x1 PUSH1 0x1 PUSH1 0xA0 SHL SUB SWAP1 SWAP3 AND DUP3 MSTORE MLOAD SWAP1 DUP2 SWAP1 SUB PUSH1 0x20 ADD SWAP1 RETURN JUMPDEST PUSH2 0x525 PUSH2 0x121C JUMP JUMPDEST PUSH2 0x4B6 PUSH2 0x1232 JUMP JUMPDEST PUSH2 0x4D0 PUSH2 0x1256 JUMP JUMPDEST PUSH2 0x48E PUSH1 0x4 DUP1 CALLDATASIZE SUB PUSH1 0x20 DUP2 LT ISZERO PUSH2 0x593 JUMPI PUSH1 0x0 DUP1 REVERT JUMPDEST POP CALLDATALOAD PUSH2 0x125B JUMP JUMPDEST PUSH2 0x525 PUSH2 0x1361 JUMP JUMPDEST PUSH2 0x48E PUSH1 0x4 DUP1 CALLDATASIZE SUB PUSH1 0x20 DUP2 LT ISZERO PUSH2 0x5B8 JUMPI PUSH1 0x0 DUP1 REVERT JUMPDEST POP CALLDATALOAD PUSH1 0x1 PUSH1 0x1 PUSH1 0xA0 SHL SUB AND PUSH2 0x1370 JUMP JUMPDEST PUSH2 0x4D0 PUSH2 0x143B JUMP JUMPDEST PUSH2 0x4B6 PUSH2 0x145F JUMP JUMPDEST PUSH2 0x48E PUSH1 0x4 DUP1 CALLDATASIZE SUB PUSH1 0x20 DUP2 LT ISZERO PUSH2 0x5EE JUMPI PUSH1 0x0 DUP1 REVERT JUMPDEST POP CALLDATALOAD PUSH1 0x1 PUSH1 0x1 PUSH1 0xA0 SHL SUB AND PUSH2 0x1483 JUMP JUMPDEST PUSH2 0x606 PUSH2 0x1576 JUMP JUMPDEST PUSH1 0x40 DUP1 MLOAD PUSH4 0xFFFFFFFF SWAP1 SWAP3 AND DUP3 MSTORE MLOAD SWAP1 DUP2 SWAP1 SUB PUSH1 0x20 ADD SWAP1 RETURN JUMPDEST PUSH2 0x48E PUSH2 0x159A JUMP JUMPDEST PUSH2 0x4B6 PUSH1 0x4 DUP1 CALLDATASIZE SUB PUSH1 0x40 DUP2 LT ISZERO PUSH2 0x63D JUMPI PUSH1 0x0 DUP1 REVERT JUMPDEST POP DUP1 CALLDATALOAD PUSH1 0x1 PUSH1 0x1 PUSH1 0xA0 SHL SUB AND SWAP1 PUSH1 0x20 ADD CALLDATALOAD PUSH2 0xFFFF AND PUSH2 0x182C JUMP JUMPDEST PUSH2 0x684 PUSH1 0x4 DUP1 CALLDATASIZE SUB PUSH1 0x60 DUP2 LT ISZERO PUSH2 0x66D JUMPI PUSH1 0x0 DUP1 REVERT JUMPDEST POP PUSH2 0xFFFF DUP2 CALLDATALOAD AND SWAP1 PUSH1 0x20 DUP2 ADD CALLDATALOAD SWAP1 PUSH1 0x40 ADD CALLDATALOAD PUSH2 0x1899 JUMP JUMPDEST PUSH1 0x40 MLOAD DUP1 DUP4 DUP2 MSTORE PUSH1 0x20 ADD DUP1 PUSH1 0x20 ADD DUP3 DUP2 SUB DUP3 MSTORE DUP4 DUP2 DUP2 MLOAD DUP2 MSTORE PUSH1 0x20 ADD SWAP2 POP DUP1 MLOAD PUSH1 0x0 SWAP3 JUMPDEST DUP2 DUP5 LT ISZERO PUSH2 0x6EA JUMPI PUSH1 0x20 DUP1 DUP6 MUL DUP5 ADD ADD MLOAD PUSH1 0x40 DUP1 DUP4 DUP4 PUSH1 0x0 JUMPDEST DUP4 DUP2 LT ISZERO PUSH2 0x6D9 JUMPI DUP2 DUP2 ADD MLOAD DUP4 DUP3 ADD MSTORE PUSH1 0x20 ADD PUSH2 0x6C1 JUMP JUMPDEST POP POP POP POP SWAP1 POP ADD SWAP3 PUSH1 0x1 ADD SWAP3 PUSH2 0x6A8 JUMP JUMPDEST SWAP3 POP POP POP SWAP4 POP POP POP POP PUSH1 0x40 MLOAD DUP1 SWAP2 SUB SWAP1 RETURN JUMPDEST PUSH2 0x4B6 PUSH1 0x4 DUP1 CALLDATASIZE SUB PUSH1 0x40 DUP2 LT ISZERO PUSH2 0x712 JUMPI PUSH1 0x0 DUP1 REVERT JUMPDEST POP PUSH1 0x1 PUSH1 0x1 PUSH1 0xA0 SHL SUB DUP2 CALLDATALOAD AND SWAP1 PUSH1 0x20 ADD CALLDATALOAD ISZERO ISZERO PUSH2 0x1A61 JUMP JUMPDEST PUSH2 0x549 PUSH2 0x1B27 JUMP JUMPDEST PUSH2 0x4D0 PUSH1 0x4 DUP1 CALLDATASIZE SUB PUSH1 0x40 DUP2 LT ISZERO PUSH2 0x748 JUMPI PUSH1 0x0 DUP1 REVERT JUMPDEST POP PUSH1 0x1 PUSH1 0x1 PUSH1 0xA0 SHL SUB DUP2 CALLDATALOAD AND SWAP1 PUSH1 0x20 ADD CALLDATALOAD PUSH2 0x1B36 JUMP JUMPDEST PUSH2 0x784 PUSH1 0x4 DUP1 CALLDATASIZE SUB PUSH1 0x20 DUP2 LT ISZERO PUSH2 0x774 JUMPI PUSH1 0x0 DUP1 REVERT JUMPDEST POP CALLDATALOAD PUSH1 0x1 PUSH1 0x1 PUSH1 0xA0 SHL SUB AND PUSH2 0x1B96 JUMP JUMPDEST PUSH1 0x40 MLOAD DUP1 DUP16 DUP2 MSTORE PUSH1 0x20 ADD DUP15 PUSH2 0xFFFF AND PUSH2 0xFFFF AND DUP2 MSTORE PUSH1 0x20 ADD DUP14 PUSH2 0xFFFF AND PUSH2 0xFFFF AND DUP2 MSTORE PUSH1 0x20 ADD DUP13 PUSH2 0xFFFF AND PUSH2 0xFFFF AND DUP2 MSTORE PUSH1 0x20 ADD DUP12 PUSH2 0xFFFF AND PUSH2 0xFFFF AND DUP2 MSTORE PUSH1 0x20 ADD DUP11 DUP2 MSTORE PUSH1 0x20 ADD DUP10 PUSH2 0xFFFF AND PUSH2 0xFFFF AND DUP2 MSTORE PUSH1 0x20 ADD DUP9 PUSH1 0x1 PUSH1 0x1 PUSH1 0xA0 SHL SUB AND PUSH1 0x1 PUSH1 0x1 PUSH1 0xA0 SHL SUB AND DUP2 MSTORE PUSH1 0x20 ADD DUP8 DUP2 MSTORE PUSH1 0x20 ADD DUP7 DUP2 MSTORE PUSH1 0x20 ADD DUP6 DUP2 MSTORE PUSH1 0x20 ADD DUP5 DUP2 MSTORE PUSH1 0x20 ADD DUP4 DUP2 MSTORE PUSH1 0x20 ADD DUP3 DUP2 MSTORE PUSH1 0x20 ADD SWAP15 POP POP POP POP POP POP POP POP POP POP POP POP POP POP POP PUSH1 0x40 MLOAD DUP1 SWAP2 SUB SWAP1 RETURN JUMPDEST PUSH2 0x85B PUSH1 0x4 DUP1 CALLDATASIZE SUB PUSH1 0x40 DUP2 LT ISZERO PUSH2 0x845 JUMPI PUSH1 0x0 DUP1 REVERT JUMPDEST POP PUSH1 0x1 PUSH1 0x1 PUSH1 0xA0 SHL SUB DUP2 CALLDATALOAD AND SWAP1 PUSH1 0x20 ADD CALLDATALOAD PUSH2 0x1C1A JUMP JUMPDEST PUSH1 0x40 DUP1 MLOAD PUSH2 0xFFFF SWAP6 DUP7 AND DUP2 MSTORE SWAP4 DUP6 AND PUSH1 0x20 DUP6 ADD MSTORE SWAP2 SWAP1 SWAP4 AND DUP3 DUP3 ADD MSTORE PUSH1 0x1 PUSH1 0x1 PUSH1 0x80 SHL SUB SWAP1 SWAP3 AND PUSH1 0x60 DUP3 ADD MSTORE SWAP1 MLOAD SWAP1 DUP2 SWAP1 SUB PUSH1 0x80 ADD SWAP1 RETURN JUMPDEST PUSH2 0x549 PUSH2 0x1C27 JUMP JUMPDEST PUSH2 0x4B6 PUSH1 0x4 DUP1 CALLDATASIZE SUB PUSH1 0x40 DUP2 LT ISZERO PUSH2 0x8B1 JUMPI PUSH1 0x0 DUP1 REVERT JUMPDEST POP DUP1 CALLDATALOAD PUSH1 0x1 PUSH1 0x1 PUSH1 0xA0 SHL SUB AND SWAP1 PUSH1 0x20 ADD CALLDATALOAD PUSH2 0xFFFF AND PUSH2 0x1C36 JUMP JUMPDEST PUSH2 0x4B6 PUSH2 0x1C7C JUMP JUMPDEST PUSH2 0x48E PUSH1 0x4 DUP1 CALLDATASIZE SUB PUSH1 0x80 DUP2 LT ISZERO PUSH2 0x8E9 JUMPI PUSH1 0x0 DUP1 REVERT JUMPDEST DUP2 ADD SWAP1 PUSH1 0x20 DUP2 ADD DUP2 CALLDATALOAD PUSH1 0x1 PUSH1 0x20 SHL DUP2 GT ISZERO PUSH2 0x903 JUMPI PUSH1 0x0 DUP1 REVERT JUMPDEST DUP3 ADD DUP4 PUSH1 0x20 DUP3 ADD GT ISZERO PUSH2 0x915 JUMPI PUSH1 0x0 DUP1 REVERT JUMPDEST DUP1 CALLDATALOAD SWAP1 PUSH1 0x20 ADD SWAP2 DUP5 PUSH1 0x20 DUP4 MUL DUP5 ADD GT PUSH1 0x1 PUSH1 0x20 SHL DUP4 GT OR ISZERO PUSH2 0x936 JUMPI PUSH1 0x0 DUP1 REVERT JUMPDEST SWAP2 SWAP4 SWAP1 SWAP3 SWAP1 SWAP2 PUSH1 0x20 DUP2 ADD SWAP1 CALLDATALOAD PUSH1 0x1 PUSH1 0x20 SHL DUP2 GT ISZERO PUSH2 0x953 JUMPI PUSH1 0x0 DUP1 REVERT JUMPDEST DUP3 ADD DUP4 PUSH1 0x20 DUP3 ADD GT ISZERO PUSH2 0x965 JUMPI PUSH1 0x0 DUP1 REVERT JUMPDEST DUP1 CALLDATALOAD SWAP1 PUSH1 0x20 ADD SWAP2 DUP5 PUSH1 0x20 DUP4 MUL DUP5 ADD GT PUSH1 0x1 PUSH1 0x20 SHL DUP4 GT OR ISZERO PUSH2 0x986 JUMPI PUSH1 0x0 DUP1 REVERT JUMPDEST SWAP2 SWAP4 SWAP1 SWAP3 SWAP1 SWAP2 PUSH1 0x20 DUP2 ADD SWAP1 CALLDATALOAD PUSH1 0x1 PUSH1 0x20 SHL DUP2 GT ISZERO PUSH2 0x9A3 JUMPI PUSH1 0x0 DUP1 REVERT JUMPDEST DUP3 ADD DUP4 PUSH1 0x20 DUP3 ADD GT ISZERO PUSH2 0x9B5 JUMPI PUSH1 0x0 DUP1 REVERT JUMPDEST DUP1 CALLDATALOAD SWAP1 PUSH1 0x20 ADD SWAP2 DUP5 PUSH1 0x20 DUP4 MUL DUP5 ADD GT PUSH1 0x1 PUSH1 0x20 SHL DUP4 GT OR ISZERO PUSH2 0x9D6 JUMPI PUSH1 0x0 DUP1 REVERT JUMPDEST SWAP2 SWAP4 SWAP1 SWAP3 SWAP1 SWAP2 PUSH1 0x20 DUP2 ADD SWAP1 CALLDATALOAD PUSH1 0x1 PUSH1 0x20 SHL DUP2 GT ISZERO PUSH2 0x9F3 JUMPI PUSH1 0x0 DUP1 REVERT JUMPDEST DUP3 ADD DUP4 PUSH1 0x20 DUP3 ADD GT ISZERO PUSH2 0xA05 JUMPI PUSH1 0x0 DUP1 REVERT JUMPDEST DUP1 CALLDATALOAD SWAP1 PUSH1 0x20 ADD SWAP2 DUP5 PUSH1 0x20 DUP4 MUL DUP5 ADD GT PUSH1 0x1 PUSH1 0x20 SHL DUP4 GT OR ISZERO PUSH2 0xA26 JUMPI PUSH1 0x0 DUP1 REVERT JUMPDEST POP SWAP1 SWAP3 POP SWAP1 POP PUSH2 0x1CB7 JUMP JUMPDEST PUSH2 0x4B6 PUSH2 0x2161 JUMP JUMPDEST PUSH2 0xA41 PUSH2 0x2185 JUMP JUMPDEST PUSH1 0x40 DUP1 MLOAD SWAP2 ISZERO ISZERO DUP3 MSTORE MLOAD SWAP1 DUP2 SWAP1 SUB PUSH1 0x20 ADD SWAP1 RETURN JUMPDEST PUSH2 0x48E PUSH2 0x218A JUMP JUMPDEST PUSH2 0x4D0 PUSH2 0x21E5 JUMP JUMPDEST PUSH2 0xA8B PUSH1 0x4 DUP1 CALLDATASIZE SUB PUSH1 0x20 DUP2 LT ISZERO PUSH2 0xA7B JUMPI PUSH1 0x0 DUP1 REVERT JUMPDEST POP CALLDATALOAD PUSH1 0x1 PUSH1 0x1 PUSH1 0xA0 SHL SUB AND PUSH2 0x2209 JUMP JUMPDEST PUSH1 0x40 DUP1 MLOAD SWAP5 ISZERO ISZERO DUP6 MSTORE SWAP3 ISZERO ISZERO PUSH1 0x20 DUP6 ADD MSTORE SWAP1 ISZERO ISZERO DUP4 DUP4 ADD MSTORE ISZERO ISZERO PUSH1 0x60 DUP4 ADD MSTORE MLOAD SWAP1 DUP2 SWAP1 SUB PUSH1 0x80 ADD SWAP1 RETURN JUMPDEST PUSH2 0x48E PUSH1 0x4 DUP1 CALLDATASIZE SUB PUSH1 0x40 DUP2 LT ISZERO PUSH2 0xACB JUMPI PUSH1 0x0 DUP1 REVERT JUMPDEST POP DUP1 CALLDATALOAD SWAP1 PUSH1 0x20 ADD CALLDATALOAD PUSH2 0xFFFF AND PUSH2 0x2295 JUMP JUMPDEST PUSH2 0x4B6 PUSH1 0x4 DUP1 CALLDATASIZE SUB PUSH1 0x40 DUP2 LT ISZERO PUSH2 0xAF2 JUMPI PUSH1 0x0 DUP1 REVERT JUMPDEST POP DUP1 CALLDATALOAD PUSH1 0x1 PUSH1 0x1 PUSH1 0xA0 SHL SUB AND SWAP1 PUSH1 0x20 ADD CALLDATALOAD PUSH2 0xFFFF AND PUSH2 0x22A1 JUMP JUMPDEST PUSH2 0x48E PUSH1 0x4 DUP1 CALLDATASIZE SUB PUSH1 0x40 DUP2 LT ISZERO PUSH2 0xB22 JUMPI PUSH1 0x0 DUP1 REVERT JUMPDEST POP DUP1 CALLDATALOAD SWAP1 PUSH1 0x20 ADD CALLDATALOAD PUSH2 0xFFFF AND PUSH2 0x22DA JUMP JUMPDEST PUSH2 0x4B6 PUSH2 0x22FE JUMP JUMPDEST PUSH2 0x549 PUSH2 0x2322 JUMP JUMPDEST PUSH2 0xA41 PUSH2 0x2331 JUMP JUMPDEST PUSH2 0x48E PUSH1 0x4 DUP1 CALLDATASIZE SUB PUSH1 0x80 DUP2 LT ISZERO PUSH2 0xB61 JUMPI PUSH1 0x0 DUP1 REVERT JUMPDEST PUSH1 0x1 PUSH1 0x1 PUSH1 0xA0 SHL SUB DUP3 CALLDATALOAD DUP2 AND SWAP3 PUSH1 0x20 DUP2 ADD CALLDATALOAD SWAP3 PUSH1 0x40 DUP3 ADD CALLDATALOAD SWAP1 SWAP3 AND SWAP2 DUP2 ADD SWAP1 PUSH1 0x80 DUP2 ADD PUSH1 0x60 DUP3 ADD CALLDATALOAD PUSH1 0x1 PUSH1 0x20 SHL DUP2 GT ISZERO PUSH2 0xB9A JUMPI PUSH1 0x0 DUP1 REVERT JUMPDEST DUP3 ADD DUP4 PUSH1 0x20 DUP3 ADD GT ISZERO PUSH2 0xBAC JUMPI PUSH1 0x0 DUP1 REVERT JUMPDEST DUP1 CALLDATALOAD SWAP1 PUSH1 0x20 ADD SWAP2 DUP5 PUSH1 0x1 DUP4 MUL DUP5 ADD GT PUSH1 0x1 PUSH1 0x20 SHL DUP4 GT OR ISZERO PUSH2 0xBCD JUMPI PUSH1 0x0 DUP1 REVERT JUMPDEST POP SWAP1 SWAP3 POP SWAP1 POP PUSH2 0x2342 JUMP JUMPDEST PUSH2 0xC04 PUSH1 0x4 DUP1 CALLDATASIZE SUB PUSH1 0x40 DUP2 LT ISZERO PUSH2 0xBEE JUMPI PUSH1 0x0 DUP1 REVERT JUMPDEST POP PUSH1 0x1 PUSH1 0x1 PUSH1 0xA0 SHL SUB DUP2 CALLDATALOAD AND SWAP1 PUSH1 0x20 ADD CALLDATALOAD PUSH2 0x23D8 JUMP JUMPDEST PUSH1 0x40 DUP1 MLOAD PUSH2 0xFFFF SWAP4 DUP5 AND DUP2 MSTORE SWAP2 SWAP1 SWAP3 AND PUSH1 0x20 DUP3 ADD MSTORE DUP2 MLOAD SWAP1 DUP2 SWAP1 SUB SWAP1 SWAP2 ADD SWAP1 RETURN JUMPDEST PUSH2 0x4B6 PUSH2 0x2427 JUMP JUMPDEST PUSH2 0x4B6 PUSH1 0x4 DUP1 CALLDATASIZE SUB PUSH1 0x20 DUP2 LT ISZERO PUSH2 0xC43 JUMPI PUSH1 0x0 DUP1 REVERT JUMPDEST POP CALLDATALOAD PUSH1 0x1 PUSH1 0x1 PUSH1 0xA0 SHL SUB AND PUSH2 0x244B JUMP JUMPDEST PUSH2 0x48E PUSH1 0x4 DUP1 CALLDATASIZE SUB PUSH1 0x20 DUP2 LT ISZERO PUSH2 0xC69 JUMPI PUSH1 0x0 DUP1 REVERT JUMPDEST POP CALLDATALOAD ISZERO ISZERO PUSH2 0x2469 JUMP JUMPDEST PUSH2 0x549 PUSH1 0x4 DUP1 CALLDATASIZE SUB PUSH1 0x20 DUP2 LT ISZERO PUSH2 0xC88 JUMPI PUSH1 0x0 DUP1 REVERT JUMPDEST POP CALLDATALOAD PUSH1 0x1 PUSH1 0x1 PUSH1 0xA0 SHL SUB AND PUSH2 0x256F JUMP JUMPDEST PUSH2 0x48E PUSH1 0x4 DUP1 CALLDATASIZE SUB PUSH1 0x80 DUP2 LT ISZERO PUSH2 0xCAE JUMPI PUSH1 0x0 DUP1 REVERT JUMPDEST POP PUSH1 0x1 PUSH1 0x1 PUSH1 0xA0 SHL SUB DUP2 CALLDATALOAD DUP2 AND SWAP2 PUSH1 0x20 DUP2 ADD CALLDATALOAD SWAP2 PUSH1 0x40 DUP3 ADD CALLDATALOAD AND SWAP1 PUSH1 0x60 ADD CALLDATALOAD PUSH2 0x25B3 JUMP JUMPDEST PUSH2 0x48E PUSH1 0x4 DUP1 CALLDATASIZE SUB PUSH1 0x20 DUP2 LT ISZERO PUSH2 0xCE8 JUMPI PUSH1 0x0 DUP1 REVERT JUMPDEST POP CALLDATALOAD ISZERO ISZERO PUSH2 0x277A JUMP JUMPDEST PUSH2 0x4B6 PUSH2 0x2959 JUMP JUMPDEST PUSH2 0x4D0 PUSH1 0x4 DUP1 CALLDATASIZE SUB PUSH1 0x20 DUP2 LT ISZERO PUSH2 0xD0F JUMPI PUSH1 0x0 DUP1 REVERT JUMPDEST POP CALLDATALOAD PUSH1 0x1 PUSH1 0x1 PUSH1 0xA0 SHL SUB AND PUSH2 0x295F JUMP JUMPDEST PUSH2 0x549 PUSH2 0x29B6 JUMP JUMPDEST PUSH2 0x48E PUSH1 0x4 DUP1 CALLDATASIZE SUB PUSH1 0x20 DUP2 LT ISZERO PUSH2 0xD3D JUMPI PUSH1 0x0 DUP1 REVERT JUMPDEST POP CALLDATALOAD PUSH1 0x1 PUSH1 0x1 PUSH1 0xA0 SHL SUB AND PUSH2 0x29C5 JUMP JUMPDEST PUSH2 0x549 PUSH1 0x4 DUP1 CALLDATASIZE SUB PUSH1 0x20 DUP2 LT ISZERO PUSH2 0xD63 JUMPI PUSH1 0x0 DUP1 REVERT JUMPDEST POP CALLDATALOAD PUSH1 0x1 PUSH1 0x1 PUSH1 0xA0 SHL SUB AND PUSH2 0x2A90 JUMP JUMPDEST PUSH2 0x48E PUSH1 0x4 DUP1 CALLDATASIZE SUB PUSH1 0x40 DUP2 LT ISZERO PUSH2 0xD89 JUMPI PUSH1 0x0 DUP1 REVERT JUMPDEST POP DUP1 CALLDATALOAD SWAP1 PUSH1 0x20 ADD CALLDATALOAD PUSH2 0xFFFF AND PUSH2 0x2AAB JUMP JUMPDEST PUSH2 0x48E PUSH1 0x4 DUP1 CALLDATASIZE SUB PUSH1 0x20 DUP2 LT ISZERO PUSH2 0xDB0 JUMPI PUSH1 0x0 DUP1 REVERT JUMPDEST POP CALLDATALOAD PUSH1 0x1 PUSH1 0x1 PUSH1 0xA0 SHL SUB AND PUSH2 0x2D18 JUMP JUMPDEST PUSH2 0xA41 PUSH1 0x4 DUP1 CALLDATASIZE SUB PUSH1 0x20 DUP2 LT ISZERO PUSH2 0xDD6 JUMPI PUSH1 0x0 DUP1 REVERT JUMPDEST POP CALLDATALOAD PUSH1 0x1 PUSH1 0x1 PUSH1 0xA0 SHL SUB AND PUSH2 0x3249 JUMP JUMPDEST PUSH2 0x4B6 PUSH2 0x3283 JUMP JUMPDEST PUSH2 0x4B6 PUSH1 0x4 DUP1 CALLDATASIZE SUB PUSH1 0x20 DUP2 LT ISZERO PUSH2 0xE04 JUMPI PUSH1 0x0 DUP1 REVERT JUMPDEST POP CALLDATALOAD PUSH2 0x32A7 JUMP JUMPDEST PUSH2 0x4D0 PUSH2 0x32C9 JUMP JUMPDEST PUSH2 0x4B6 PUSH1 0x4 DUP1 CALLDATASIZE SUB PUSH1 0x20 DUP2 LT ISZERO PUSH2 0xE29 JUMPI PUSH1 0x0 DUP1 REVERT JUMPDEST POP CALLDATALOAD PUSH1 0x1 PUSH1 0x1 PUSH1 0xA0 SHL SUB AND PUSH2 0x32ED JUMP JUMPDEST PUSH2 0x48E PUSH1 0x4 DUP1 CALLDATASIZE SUB PUSH1 0x60 DUP2 LT ISZERO PUSH2 0xE4F JUMPI PUSH1 0x0 DUP1 REVERT JUMPDEST POP DUP1 CALLDATALOAD SWAP1 PUSH1 0x20 DUP2 ADD CALLDATALOAD SWAP1 PUSH1 0x40 ADD CALLDATALOAD PUSH2 0xFFFF AND PUSH2 0x330B JUMP JUMPDEST PUSH2 0x48E PUSH1 0x4 DUP1 CALLDATASIZE SUB PUSH1 0x60 DUP2 LT ISZERO PUSH2 0xE7C JUMPI PUSH1 0x0 DUP1 REVERT JUMPDEST POP DUP1 CALLDATALOAD PUSH1 0x1 PUSH1 0x1 PUSH1 0xA0 SHL SUB AND SWAP1 PUSH1 0x20 DUP2 ADD CALLDATALOAD SWAP1 PUSH1 0x40 ADD CALLDATALOAD PUSH2 0xFFFF AND PUSH2 0x3534 JUMP JUMPDEST PUSH2 0x549 PUSH2 0x3545 JUMP JUMPDEST PUSH2 0xA41 PUSH2 0x3554 JUMP JUMPDEST PUSH2 0x48E PUSH1 0x4 DUP1 CALLDATASIZE SUB PUSH1 0x20 DUP2 LT ISZERO PUSH2 0xEC2 JUMPI PUSH1 0x0 DUP1 REVERT JUMPDEST POP CALLDATALOAD PUSH1 0x1 PUSH1 0x1 PUSH1 0xA0 SHL SUB AND PUSH2 0x3578 JUMP JUMPDEST PUSH2 0x525 PUSH1 0x4 DUP1 CALLDATASIZE SUB PUSH1 0x20 DUP2 LT ISZERO PUSH2 0xEE8 JUMPI PUSH1 0x0 DUP1 REVERT JUMPDEST POP CALLDATALOAD PUSH2 0x3842 JUMP JUMPDEST PUSH2 0xEF7 PUSH2 0x387C JUMP JUMPDEST PUSH1 0x40 DUP1 MLOAD PUSH1 0xFF SWAP1 SWAP3 AND DUP3 MSTORE MLOAD SWAP1 DUP2 SWAP1 SUB PUSH1 0x20 ADD SWAP1 RETURN JUMPDEST PUSH2 0x48E PUSH1 0x4 DUP1 CALLDATASIZE SUB PUSH1 0x20 DUP2 LT ISZERO PUSH2 0xF23 JUMPI PUSH1 0x0 DUP1 REVERT JUMPDEST POP CALLDATALOAD PUSH1 0x1 PUSH1 0x1 PUSH1 0xA0 SHL SUB AND PUSH2 0x388C JUMP JUMPDEST PUSH2 0x4B6 PUSH1 0x4 DUP1 CALLDATASIZE SUB PUSH1 0x40 DUP2 LT ISZERO PUSH2 0xF49 JUMPI PUSH1 0x0 DUP1 REVERT JUMPDEST POP PUSH1 0x1 PUSH1 0x1 PUSH1 0xA0 SHL SUB DUP2 CALLDATALOAD AND SWAP1 PUSH1 0x20 ADD CALLDATALOAD PUSH2 0x38F6 JUMP JUMPDEST PUSH2 0x48E PUSH1 0x4 DUP1 CALLDATASIZE SUB PUSH1 0x20 DUP2 LT ISZERO PUSH2 0xF75 JUMPI PUSH1 0x0 DUP1 REVERT JUMPDEST POP CALLDATALOAD PUSH2 0xFFFF AND PUSH2 0x3931 JUMP JUMPDEST PUSH2 0x4B6 PUSH1 0x4 DUP1 CALLDATASIZE SUB PUSH1 0x20 DUP2 LT ISZERO PUSH2 0xF96 JUMPI PUSH1 0x0 DUP1 REVERT JUMPDEST POP CALLDATALOAD PUSH2 0xFFFF AND PUSH2 0x39C9 JUMP JUMPDEST PUSH2 0x48E PUSH1 0x4 DUP1 CALLDATASIZE SUB PUSH1 0x20 DUP2 LT ISZERO PUSH2 0xFB7 JUMPI PUSH1 0x0 DUP1 REVERT JUMPDEST POP CALLDATALOAD PUSH2 0x39DB JUMP JUMPDEST PUSH2 0x48E PUSH1 0x4 DUP1 CALLDATASIZE SUB PUSH1 0x20 DUP2 LT ISZERO PUSH2 0xFD4 JUMPI PUSH1 0x0 DUP1 REVERT JUMPDEST POP CALLDATALOAD PUSH1 0x1 PUSH1 0x1 PUSH1 0xA0 SHL SUB AND PUSH2 0x3A68 JUMP JUMPDEST PUSH2 0x4B6 PUSH2 0x3A82 JUMP JUMPDEST PUSH2 0x549 PUSH2 0x3AA6 JUMP JUMPDEST PUSH2 0x549 PUSH1 0x4 DUP1 CALLDATASIZE SUB PUSH1 0x20 DUP2 LT ISZERO PUSH2 0x100A JUMPI PUSH1 0x0 DUP1 REVERT JUMPDEST POP CALLDATALOAD PUSH2 0x3ACA JUMP JUMPDEST PUSH2 0x48E PUSH1 0x4 DUP1 CALLDATASIZE SUB PUSH1 0x20 DUP2 LT ISZERO PUSH2 0x1027 JUMPI PUSH1 0x0 DUP1 REVERT JUMPDEST POP CALLDATALOAD PUSH2 0x3AF1 JUMP JUMPDEST PUSH2 0x1037 CALLER PUSH2 0x3249 JUMP JUMPDEST ISZERO PUSH2 0x1041 JUMPI PUSH1 0x0 DUP1 REVERT JUMPDEST CALLER PUSH1 0x0 SWAP1 DUP2 MSTORE PUSH1 0x6 PUSH1 0x20 MSTORE PUSH1 0x40 DUP2 KECCAK256 PUSH1 0x4 DUP2 ADD SLOAD SWAP1 SWAP2 DUP4 ISZERO SWAP2 PUSH2 0x1069 SWAP2 PUSH4 0xFFFFFFFF PUSH2 0x3C1B AND JUMP JUMPDEST ISZERO ISZERO EQ ISZERO PUSH2 0x1077 JUMPI POP PUSH2 0x10CC JUMP JUMPDEST PUSH1 0x4 DUP2 ADD SLOAD PUSH2 0x108D SWAP1 PUSH1 0x0 PUSH4 0xFFFFFFFF PUSH2 0x3C28 AND JUMP JUMPDEST PUSH1 0x4 DUP3 ADD SSTORE PUSH1 0x40 DUP1 MLOAD DUP4 ISZERO ISZERO DUP2 MSTORE SWAP1 MLOAD CALLER SWAP2 PUSH32 0xCB9D7989E6D845AB7F3F16F57405FB85976D320AA7C3BA2705EDDD52CA09154E SWAP2 SWAP1 DUP2 SWAP1 SUB PUSH1 0x20 ADD SWAP1 LOG2 POP JUMPDEST POP JUMP JUMPDEST PUSH1 0x1 PUSH1 0x1 PUSH1 0xA0 SHL SUB DUP2 AND PUSH1 0x0 SWAP1 DUP2 MSTORE PUSH1 0x6 PUSH1 0x20 MSTORE PUSH1 0x40 SWAP1 KECCAK256 PUSH1 0xB ADD SLOAD JUMPDEST SWAP2 SWAP1 POP JUMP JUMPDEST PUSH1 0x0 PUSH32 0x0 PUSH4 0xFFFFFFFF AND TIMESTAMP DUP2 PUSH2 0x1122 JUMPI INVALID JUMPDEST DIV SWAP1 POP SWAP1 JUMP JUMPDEST PUSH1 0x5 SLOAD PUSH2 0xFFFF AND DUP2 JUMP JUMPDEST CALLER PUSH1 0x0 SWAP1 DUP2 MSTORE PUSH1 0x6 PUSH1 0x20 MSTORE PUSH1 0x40 SWAP1 KECCAK256 SLOAD PUSH2 0x114B JUMPI PUSH1 0x0 DUP1 REVERT JUMPDEST CALLER PUSH1 0x0 SWAP1 DUP2 MSTORE PUSH1 0x6 PUSH1 0x20 MSTORE PUSH1 0x40 DUP2 KECCAK256 SWAP1 PUSH1 0x1 PUSH2 0x1165 PUSH2 0x10F1 JUMP JUMPDEST PUSH1 0x1 DUP5 ADD SLOAD SWAP2 SWAP1 SUB SWAP2 POP PUSH2 0xFFFF DUP1 DUP4 AND PUSH3 0x10000 SWAP1 SWAP3 DIV AND GT DUP1 ISZERO SWAP1 PUSH2 0x1198 JUMPI POP PUSH1 0x1 DUP3 ADD SLOAD PUSH3 0x10000 SWAP1 DIV PUSH2 0xFFFF AND ISZERO ISZERO JUMPDEST ISZERO PUSH2 0x11C1 JUMPI PUSH1 0x1 DUP3 ADD DUP1 SLOAD PUSH1 0x1 PUSH1 0x20 SHL PUSH2 0xFFFF PUSH3 0x10000 DUP4 DIV AND MUL PUSH2 0xFFFF PUSH1 0x20 SHL NOT SWAP1 SWAP2 AND OR SWAP1 SSTORE JUMPDEST PUSH2 0x11CA CALLER PUSH2 0x3C35 JUMP JUMPDEST POP POP JUMP JUMPDEST PUSH1 0x1 PUSH1 0x1 PUSH1 0xA0 SHL SUB AND PUSH1 0x0 SWAP1 DUP2 MSTORE PUSH1 0x6 PUSH1 0x20 MSTORE PUSH1 0x40 SWAP1 KECCAK256 SLOAD SWAP1 JUMP JUMPDEST PUSH32 0x0 DUP2 JUMP JUMPDEST PUSH1 0xD SLOAD PUSH1 0x1 PUSH1 0x1 PUSH1 0xA0 SHL SUB AND DUP2 JUMP JUMPDEST PUSH1 0x4 SLOAD PUSH1 0x1 PUSH1 0x80 SHL SWAP1 DIV PUSH1 0x1 PUSH1 0x1 PUSH1 0x80 SHL SUB AND DUP2 JUMP JUMPDEST PUSH32 0x0 DUP2 JUMP JUMPDEST PUSH1 0x1E DUP2 JUMP JUMPDEST CALLER PUSH1 0x0 SWAP1 DUP2 MSTORE PUSH1 0x6 PUSH1 0x20 MSTORE PUSH1 0x40 SWAP1 KECCAK256 SLOAD PUSH2 0x1274 JUMPI PUSH1 0x0 DUP1 REVERT JUMPDEST PUSH1 0x0 PUSH2 0x127E PUSH2 0x10F1 JUMP JUMPDEST CALLER PUSH1 0x0 SWAP1 DUP2 MSTORE PUSH1 0x6 PUSH1 0x20 MSTORE PUSH1 0x40 DUP2 KECCAK256 SWAP2 SWAP3 POP PUSH1 0x1 DUP4 ADD SWAP2 SWAP1 PUSH2 0x12B4 PUSH2 0x12A4 DUP4 DUP7 DUP7 PUSH2 0x3E1A JUMP JUMPDEST PUSH2 0x12AF DUP5 DUP8 DUP9 PUSH2 0x3E1A JUMP JUMPDEST PUSH2 0x3EAF JUMP JUMPDEST DUP3 SLOAD SWAP1 SWAP2 POP PUSH2 0x12C9 SWAP1 DUP3 PUSH4 0xFFFFFFFF PUSH2 0x3EC6 AND JUMP JUMPDEST DUP6 GT ISZERO PUSH2 0x12D5 JUMPI PUSH1 0x0 DUP1 REVERT JUMPDEST DUP2 SLOAD DUP6 SWAP1 SUB DUP3 SSTORE PUSH2 0x12EA DUP3 PUSH1 0x0 DUP8 SWAP1 SUB PUSH2 0x3EDB JUMP JUMPDEST PUSH2 0x1324 PUSH1 0x1 PUSH1 0x1 PUSH1 0xA0 SHL SUB PUSH32 0x0 AND CALLER DUP8 PUSH4 0xFFFFFFFF PUSH2 0x3F43 AND JUMP JUMPDEST PUSH1 0x40 DUP1 MLOAD DUP7 DUP2 MSTORE SWAP1 MLOAD CALLER SWAP2 PUSH32 0x7084F5476618D8E60B11EF0D7D3F06914655ADB8793E28FF7F018D4C76D505D5 SWAP2 SWAP1 DUP2 SWAP1 SUB PUSH1 0x20 ADD SWAP1 LOG2 POP POP POP POP POP JUMP JUMPDEST PUSH1 0x4 SLOAD PUSH1 0x1 PUSH1 0x1 PUSH1 0x80 SHL SUB AND DUP2 JUMP JUMPDEST PUSH2 0x1378 PUSH2 0x2331 JUMP JUMPDEST PUSH2 0x1381 JUMPI PUSH1 0x0 DUP1 REVERT JUMPDEST PUSH1 0xC SLOAD PUSH1 0x1 PUSH1 0x1 PUSH1 0xA0 SHL SUB AND ISZERO PUSH2 0x1397 JUMPI PUSH1 0x0 DUP1 REVERT JUMPDEST ADDRESS PUSH1 0x1 PUSH1 0x1 PUSH1 0xA0 SHL SUB AND DUP2 PUSH1 0x1 PUSH1 0x1 PUSH1 0xA0 SHL SUB AND PUSH4 0xE2FDCC17 PUSH1 0x40 MLOAD DUP2 PUSH4 0xFFFFFFFF AND PUSH1 0xE0 SHL DUP2 MSTORE PUSH1 0x4 ADD PUSH1 0x20 PUSH1 0x40 MLOAD DUP1 DUP4 SUB DUP2 DUP7 DUP1 EXTCODESIZE ISZERO DUP1 ISZERO PUSH2 0x13DA JUMPI PUSH1 0x0 DUP1 REVERT JUMPDEST POP GAS STATICCALL ISZERO DUP1 ISZERO PUSH2 0x13EE JUMPI RETURNDATASIZE PUSH1 0x0 DUP1 RETURNDATACOPY RETURNDATASIZE PUSH1 0x0 REVERT JUMPDEST POP POP POP POP PUSH1 0x40 MLOAD RETURNDATASIZE PUSH1 0x20 DUP2 LT ISZERO PUSH2 0x1404 JUMPI PUSH1 0x0 DUP1 REVERT JUMPDEST POP MLOAD PUSH1 0x1 PUSH1 0x1 PUSH1 0xA0 SHL SUB AND EQ PUSH2 0x1419 JUMPI PUSH1 0x0 DUP1 REVERT JUMPDEST PUSH1 0xC DUP1 SLOAD PUSH1 0x1 PUSH1 0x1 PUSH1 0xA0 SHL SUB NOT AND PUSH1 0x1 PUSH1 0x1 PUSH1 0xA0 SHL SUB SWAP3 SWAP1 SWAP3 AND SWAP2 SWAP1 SWAP2 OR SWAP1 SSTORE JUMP JUMPDEST PUSH32 0x0 DUP2 JUMP JUMPDEST PUSH32 0x0 DUP2 JUMP JUMPDEST PUSH2 0x148B PUSH2 0x2331 JUMP JUMPDEST PUSH2 0x1494 JUMPI PUSH1 0x0 DUP1 REVERT JUMPDEST PUSH1 0xD SLOAD PUSH1 0x1 PUSH1 0x1 PUSH1 0xA0 SHL SUB AND ISZERO DUP1 PUSH2 0x14C9 JUMPI POP PUSH32 0x0 JUMPDEST PUSH2 0x14D2 JUMPI PUSH1 0x0 DUP1 REVERT JUMPDEST ADDRESS PUSH1 0x1 PUSH1 0x1 PUSH1 0xA0 SHL SUB AND DUP2 PUSH1 0x1 PUSH1 0x1 PUSH1 0xA0 SHL SUB AND PUSH4 0xE2FDCC17 PUSH1 0x40 MLOAD DUP2 PUSH4 0xFFFFFFFF AND PUSH1 0xE0 SHL DUP2 MSTORE PUSH1 0x4 ADD PUSH1 0x20 PUSH1 0x40 MLOAD DUP1 DUP4 SUB DUP2 DUP7 DUP1 EXTCODESIZE ISZERO DUP1 ISZERO PUSH2 0x1515 JUMPI PUSH1 0x0 DUP1 REVERT JUMPDEST POP GAS STATICCALL ISZERO DUP1 ISZERO PUSH2 0x1529 JUMPI RETURNDATASIZE PUSH1 0x0 DUP1 RETURNDATACOPY RETURNDATASIZE PUSH1 0x0 REVERT JUMPDEST POP POP POP POP PUSH1 0x40 MLOAD RETURNDATASIZE PUSH1 0x20 DUP2 LT ISZERO PUSH2 0x153F JUMPI PUSH1 0x0 DUP1 REVERT JUMPDEST POP MLOAD PUSH1 0x1 PUSH1 0x1 PUSH1 0xA0 SHL SUB AND EQ PUSH2 0x1554 JUMPI PUSH1 0x0 DUP1 REVERT JUMPDEST PUSH1 0xD DUP1 SLOAD PUSH1 0x1 PUSH1 0x1 PUSH1 0xA0 SHL SUB NOT AND PUSH1 0x1 PUSH1 0x1 PUSH1 0xA0 SHL SUB SWAP3 SWAP1 SWAP3 AND SWAP2 SWAP1 SWAP2 OR SWAP1 SSTORE JUMP JUMPDEST PUSH32 0x0 DUP2 JUMP JUMPDEST PUSH1 0x5 SLOAD PUSH2 0xFFFF AND PUSH2 0x15AA JUMPI PUSH1 0x0 DUP1 REVERT JUMPDEST CALLER PUSH1 0x0 SWAP1 DUP2 MSTORE PUSH1 0x8 PUSH1 0x20 SWAP1 DUP2 MSTORE PUSH1 0x40 DUP1 DUP4 KECCAK256 SLOAD PUSH1 0x1 PUSH1 0x1 PUSH1 0xA0 SHL SUB AND DUP1 DUP5 MSTORE PUSH1 0x6 SWAP1 SWAP3 MSTORE SWAP1 SWAP2 KECCAK256 DUP1 SLOAD PUSH2 0x160E JUMPI PUSH1 0x40 MLOAD PUSH3 0x461BCD PUSH1 0xE5 SHL DUP2 MSTORE PUSH1 0x4 ADD DUP1 DUP1 PUSH1 0x20 ADD DUP3 DUP2 SUB DUP3 MSTORE PUSH1 0x2D DUP2 MSTORE PUSH1 0x20 ADD DUP1 PUSH2 0x58E5 PUSH1 0x2D SWAP2 CODECOPY PUSH1 0x40 ADD SWAP2 POP POP PUSH1 0x40 MLOAD DUP1 SWAP2 SUB SWAP1 REVERT JUMPDEST CALLER ORIGIN EQ PUSH2 0x164C JUMPI PUSH1 0x40 MLOAD PUSH3 0x461BCD PUSH1 0xE5 SHL DUP2 MSTORE PUSH1 0x4 ADD DUP1 DUP1 PUSH1 0x20 ADD DUP3 DUP2 SUB DUP3 MSTORE PUSH1 0x33 DUP2 MSTORE PUSH1 0x20 ADD DUP1 PUSH2 0x5989 PUSH1 0x33 SWAP2 CODECOPY PUSH1 0x40 ADD SWAP2 POP POP PUSH1 0x40 MLOAD DUP1 SWAP2 SUB SWAP1 REVERT JUMPDEST PUSH1 0x0 PUSH2 0x1657 DUP4 PUSH2 0x295F JUMP JUMPDEST SWAP1 POP PUSH2 0x1662 DUP4 PUSH2 0x3C35 JUMP JUMPDEST PUSH1 0x0 PUSH2 0x166C PUSH2 0x10F1 JUMP JUMPDEST PUSH1 0x1 DUP5 DUP2 ADD SLOAD SWAP2 SWAP3 POP DUP3 ADD SWAP1 PUSH2 0xFFFF DUP1 DUP4 AND PUSH3 0x10000 SWAP1 SWAP3 DIV AND EQ ISZERO PUSH2 0x1696 JUMPI POP POP POP POP POP PUSH2 0x182A JUMP JUMPDEST PUSH1 0x0 PUSH2 0x16A3 DUP6 DUP5 DUP5 PUSH2 0x3E1A JUMP JUMPDEST SWAP1 POP PUSH1 0x0 DUP2 GT PUSH2 0x16B2 JUMPI PUSH1 0x0 DUP1 REVERT JUMPDEST PUSH2 0xFFFF DUP3 DUP2 AND PUSH1 0x0 DUP2 DUP2 MSTORE PUSH1 0x9 PUSH1 0x20 MSTORE PUSH1 0x40 SWAP1 KECCAK256 DUP1 SLOAD DUP5 ADD SWAP1 SSTORE PUSH1 0x1 DUP8 ADD DUP1 SLOAD PUSH3 0x10000 DUP1 DUP3 DIV SWAP1 SWAP5 AND PUSH2 0xFFFF NOT SWAP1 SWAP2 AND OR PUSH4 0xFFFF0000 NOT AND SWAP3 SWAP1 SWAP2 MUL SWAP2 SWAP1 SWAP2 OR SWAP1 SSTORE PUSH2 0x16FF DUP6 DUP4 PUSH2 0x3FD8 JUMP JUMPDEST DUP3 PUSH2 0xFFFF AND DUP5 PUSH2 0xFFFF AND LT ISZERO PUSH2 0x176F JUMPI PUSH1 0x40 DUP1 MLOAD DUP1 DUP3 ADD SWAP1 SWAP2 MSTORE PUSH2 0xFFFF PUSH1 0x1 DUP1 DUP8 ADD DUP3 AND DUP4 MSTORE DUP6 DUP3 AND PUSH1 0x20 DUP1 DUP6 ADD SWAP2 DUP3 MSTORE PUSH1 0xA DUP11 ADD DUP1 SLOAD SWAP4 DUP5 ADD DUP2 SSTORE PUSH1 0x0 SWAP1 DUP2 MSTORE KECCAK256 SWAP4 MLOAD SWAP4 SWAP1 SWAP2 ADD DUP1 SLOAD SWAP2 MLOAD DUP4 AND PUSH3 0x10000 MUL PUSH4 0xFFFF0000 NOT SWAP5 SWAP1 SWAP4 AND PUSH2 0xFFFF NOT SWAP1 SWAP3 AND SWAP2 SWAP1 SWAP2 OR SWAP3 SWAP1 SWAP3 AND OR SWAP1 SSTORE JUMPDEST PUSH1 0xB SLOAD PUSH1 0x40 DUP1 MLOAD PUSH4 0xB438C4CD PUSH1 0xE0 SHL DUP2 MSTORE PUSH1 0x1 PUSH1 0x1 PUSH1 0xA0 SHL SUB DUP10 DUP2 AND PUSH1 0x4 DUP4 ADD MSTORE PUSH2 0xFFFF DUP7 AND PUSH1 0x24 DUP4 ADD MSTORE SWAP2 MLOAD SWAP2 SWAP1 SWAP3 AND SWAP2 PUSH4 0xB438C4CD SWAP2 PUSH1 0x44 DUP1 DUP4 ADD SWAP3 PUSH1 0x0 SWAP3 SWAP2 SWAP1 DUP3 SWAP1 SUB ADD DUP2 DUP4 DUP8 DUP1 EXTCODESIZE ISZERO DUP1 ISZERO PUSH2 0x17C7 JUMPI PUSH1 0x0 DUP1 REVERT JUMPDEST POP GAS CALL ISZERO DUP1 ISZERO PUSH2 0x17DB JUMPI RETURNDATASIZE PUSH1 0x0 DUP1 RETURNDATACOPY RETURNDATASIZE PUSH1 0x0 REVERT JUMPDEST POP POP PUSH1 0x40 DUP1 MLOAD DUP5 DUP2 MSTORE SWAP1 MLOAD PUSH2 0xFFFF DUP7 AND SWAP4 POP PUSH1 0x1 PUSH1 0x1 PUSH1 0xA0 SHL SUB DUP11 AND SWAP3 POP PUSH32 0x6E826CFD4B2F0D3E70085110FF45FC6023AAA1EF2CD87F58F574AEE310489EBC SWAP2 DUP2 SWAP1 SUB PUSH1 0x20 ADD SWAP1 LOG3 POP POP POP POP POP POP JUMPDEST JUMP JUMPDEST PUSH1 0x1 PUSH1 0x1 PUSH1 0xA0 SHL SUB DUP3 AND PUSH1 0x0 SWAP1 DUP2 MSTORE PUSH1 0x6 PUSH1 0x20 MSTORE PUSH1 0x40 DUP2 KECCAK256 JUMPDEST PUSH1 0xA DUP2 ADD SLOAD DUP3 LT ISZERO PUSH2 0x1891 JUMPI DUP1 PUSH1 0xA ADD DUP3 DUP2 SLOAD DUP2 LT PUSH2 0x1860 JUMPI INVALID JUMPDEST PUSH1 0x0 SWAP2 DUP3 MSTORE PUSH1 0x20 SWAP1 SWAP2 KECCAK256 ADD SLOAD PUSH2 0xFFFF PUSH3 0x10000 SWAP1 SWAP2 DIV DUP2 AND SWAP1 DUP5 AND GT PUSH2 0x1886 JUMPI POP PUSH2 0x1893 JUMP JUMPDEST PUSH1 0x1 SWAP1 SWAP2 ADD SWAP1 PUSH2 0x1845 JUMP JUMPDEST POP JUMPDEST SWAP3 SWAP2 POP POP JUMP JUMPDEST PUSH1 0x0 PUSH1 0x60 PUSH1 0x0 DUP6 PUSH2 0xFFFF AND GT PUSH2 0x18AE JUMPI PUSH1 0x0 DUP1 REVERT JUMPDEST PUSH1 0x7 SLOAD DUP1 DUP6 LT PUSH2 0x18BD JUMPI PUSH1 0x0 DUP1 REVERT JUMPDEST DUP4 ISZERO DUP1 ISZERO SWAP1 PUSH2 0x18CD JUMPI POP DUP1 DUP5 DUP7 ADD LT JUMPDEST ISZERO PUSH2 0x18D7 JUMPI POP DUP4 DUP4 ADD JUMPDEST DUP5 DUP2 SUB PUSH8 0xFFFFFFFFFFFFFFFF DUP2 GT DUP1 ISZERO PUSH2 0x18F0 JUMPI PUSH1 0x0 DUP1 REVERT JUMPDEST POP PUSH1 0x40 MLOAD SWAP1 DUP1 DUP3 MSTORE DUP1 PUSH1 0x20 MUL PUSH1 0x20 ADD DUP3 ADD PUSH1 0x40 MSTORE DUP1 ISZERO PUSH2 0x192A JUMPI DUP2 PUSH1 0x20 ADD JUMPDEST PUSH2 0x1917 PUSH2 0x57AB JUMP JUMPDEST DUP2 MSTORE PUSH1 0x20 ADD SWAP1 PUSH1 0x1 SWAP1 SUB SWAP1 DUP2 PUSH2 0x190F JUMPI SWAP1 POP JUMPDEST POP PUSH1 0x0 SWAP4 POP SWAP2 POP DUP3 DUP1 PUSH2 0x193B PUSH2 0x10F1 JUMP JUMPDEST SWAP1 POP PUSH1 0x0 PUSH2 0x1953 PUSH2 0xFFFF DUP4 AND DUP11 PUSH4 0xFFFFFFFF PUSH2 0x40A5 AND JUMP JUMPDEST SWAP1 POP DUP8 JUMPDEST DUP5 DUP2 LT ISZERO PUSH2 0x1A51 JUMPI PUSH1 0x0 PUSH1 0x7 DUP3 DUP2 SLOAD DUP2 LT PUSH2 0x196E JUMPI INVALID JUMPDEST PUSH1 0x0 SWAP2 DUP3 MSTORE PUSH1 0x20 DUP1 DUP4 KECCAK256 SWAP1 SWAP2 ADD SLOAD PUSH1 0x1 PUSH1 0x1 PUSH1 0xA0 SHL SUB AND DUP1 DUP4 MSTORE PUSH1 0x6 SWAP1 SWAP2 MSTORE PUSH1 0x40 SWAP1 SWAP2 KECCAK256 PUSH1 0x1 DUP2 ADD SLOAD SWAP2 SWAP3 POP SWAP1 PUSH2 0xFFFF SWAP1 DUP2 AND SWAP1 DUP7 AND EQ DUP1 ISZERO SWAP1 PUSH2 0x19C3 JUMPI POP PUSH1 0x1 DUP2 ADD SLOAD PUSH2 0xFFFF DUP7 DUP2 AND PUSH3 0x10000 SWAP1 SWAP3 DIV AND EQ ISZERO JUMPDEST ISZERO PUSH2 0x19CF JUMPI POP POP PUSH2 0x1A49 JUMP JUMPDEST PUSH1 0x0 PUSH2 0x19DC DUP3 DUP8 DUP8 PUSH2 0x3E1A JUMP JUMPDEST SWAP1 POP DUP1 ISZERO PUSH2 0x1A45 JUMPI DUP3 PUSH1 0x1 PUSH1 0x1 PUSH1 0xA0 SHL SUB AND DUP10 DUP9 DUP2 MLOAD DUP2 LT PUSH2 0x19FA JUMPI INVALID JUMPDEST PUSH1 0x20 MUL PUSH1 0x20 ADD ADD MLOAD PUSH1 0x0 PUSH1 0x2 DUP2 LT PUSH2 0x1A0E JUMPI INVALID JUMPDEST PUSH1 0x20 MUL ADD MSTORE DUP9 MLOAD PUSH1 0x1 DUP9 ADD SWAP8 DUP3 SWAP2 DUP12 SWAP2 SWAP1 DUP2 LT PUSH2 0x1A27 JUMPI INVALID JUMPDEST PUSH1 0x20 MUL PUSH1 0x20 ADD ADD MLOAD PUSH1 0x1 PUSH1 0x2 DUP2 LT PUSH2 0x1A3B JUMPI INVALID JUMPDEST PUSH1 0x20 MUL ADD MSTORE SWAP9 DUP10 ADD SWAP9 JUMPDEST POP POP POP JUMPDEST PUSH1 0x1 ADD PUSH2 0x1957 JUMP JUMPDEST POP DUP3 DUP6 MSTORE POP POP POP POP SWAP4 POP SWAP4 SWAP2 POP POP JUMP JUMPDEST PUSH1 0xD SLOAD PUSH1 0x0 SWAP1 PUSH1 0x1 PUSH1 0x1 PUSH1 0xA0 SHL SUB AND CALLER EQ PUSH2 0x1A7B JUMPI PUSH1 0x0 DUP1 REVERT JUMPDEST PUSH1 0x1 PUSH1 0x1 PUSH1 0xA0 SHL SUB DUP4 AND PUSH1 0x0 SWAP1 DUP2 MSTORE PUSH1 0x6 PUSH1 0x20 MSTORE PUSH1 0x40 SWAP1 KECCAK256 PUSH1 0x4 DUP2 ADD SLOAD DUP4 ISZERO ISZERO SWAP1 PUSH2 0x1AAD SWAP1 PUSH1 0x2 PUSH4 0xFFFFFFFF PUSH2 0x3C1B AND JUMP JUMPDEST ISZERO ISZERO EQ ISZERO PUSH2 0x1AC0 JUMPI PUSH1 0x2 ADD SLOAD SWAP1 POP PUSH2 0x1893 JUMP JUMPDEST PUSH1 0x4 DUP2 ADD SLOAD PUSH2 0x1AD6 SWAP1 PUSH1 0x2 PUSH4 0xFFFFFFFF PUSH2 0x3C28 AND JUMP JUMPDEST PUSH1 0x4 DUP3 ADD SSTORE PUSH1 0x40 DUP1 MLOAD DUP5 ISZERO ISZERO DUP2 MSTORE SWAP1 MLOAD PUSH1 0x1 PUSH1 0x1 PUSH1 0xA0 SHL SUB DUP7 AND SWAP2 PUSH32 0xDC3BBCEF212790FF00528DC9EF9C9B7638F290EFD77F50F50C067BB14D7F9C11 SWAP2 SWAP1 DUP2 SWAP1 SUB PUSH1 0x20 ADD SWAP1 LOG2 PUSH1 0x2 ADD SLOAD SWAP4 SWAP3 POP POP POP JUMP JUMPDEST PUSH1 0x2 SLOAD PUSH1 0x1 PUSH1 0x1 PUSH1 0xA0 SHL SUB AND DUP2 JUMP JUMPDEST PUSH1 0x1 PUSH1 0x1 PUSH1 0xA0 SHL SUB DUP3 AND PUSH1 0x0 SWAP1 DUP2 MSTORE PUSH1 0x6 PUSH1 0x20 MSTORE PUSH1 0x40 DUP2 KECCAK256 PUSH1 0xB DUP2 ADD DUP1 SLOAD DUP4 SWAP2 SWAP1 DUP6 SWAP1 DUP2 LT PUSH2 0x1B61 JUMPI INVALID JUMPDEST SWAP1 PUSH1 0x0 MSTORE PUSH1 0x20 PUSH1 0x0 KECCAK256 ADD SWAP1 POP PUSH1 0x0 PUSH2 0x1B80 DUP4 PUSH2 0x1B7B PUSH2 0x10F1 JUMP JUMPDEST PUSH2 0x40BB JUMP JUMPDEST SWAP1 POP PUSH2 0x1B8C DUP3 DUP3 PUSH2 0x4105 JUMP JUMPDEST SWAP7 SWAP6 POP POP POP POP POP POP JUMP JUMPDEST PUSH1 0x6 PUSH1 0x20 DUP2 SWAP1 MSTORE PUSH1 0x0 SWAP2 DUP3 MSTORE PUSH1 0x40 SWAP1 SWAP2 KECCAK256 DUP1 SLOAD PUSH1 0x1 DUP3 ADD SLOAD PUSH1 0x2 DUP4 ADD SLOAD PUSH1 0x3 DUP5 ADD SLOAD PUSH1 0x4 DUP6 ADD SLOAD PUSH1 0x5 DUP7 ADD SLOAD SWAP7 DUP7 ADD SLOAD PUSH1 0x7 DUP8 ADD SLOAD PUSH1 0x8 DUP9 ADD SLOAD PUSH1 0x9 SWAP1 SWAP9 ADD SLOAD SWAP7 SWAP9 PUSH2 0xFFFF DUP1 DUP9 AND SWAP10 PUSH3 0x10000 DUP1 DUP11 DIV DUP4 AND SWAP11 PUSH1 0x1 PUSH1 0x20 SHL DUP12 DIV DUP5 AND SWAP11 PUSH1 0x1 PUSH1 0x30 SHL SWAP1 DIV DUP5 AND SWAP10 SWAP9 SWAP4 DUP5 AND SWAP8 PUSH1 0x1 PUSH1 0x1 PUSH1 0xA0 SHL SUB SWAP3 SWAP1 SWAP5 DIV SWAP2 SWAP1 SWAP2 AND SWAP6 SWAP3 SWAP5 SWAP2 SWAP1 DUP15 JUMP JUMPDEST POP PUSH1 0x0 SWAP2 DUP3 SWAP2 POP DUP2 SWAP1 DUP2 SWAP1 JUMP JUMPDEST PUSH1 0xC SLOAD PUSH1 0x1 PUSH1 0x1 PUSH1 0xA0 SHL SUB AND DUP2 JUMP JUMPDEST PUSH1 0x1 PUSH1 0x1 PUSH1 0xA0 SHL SUB DUP3 AND PUSH1 0x0 SWAP1 DUP2 MSTORE PUSH1 0x6 PUSH1 0x20 MSTORE PUSH1 0x40 DUP2 KECCAK256 DUP2 PUSH2 0x1C57 PUSH2 0x10F1 JUMP JUMPDEST SWAP1 POP PUSH1 0x0 PUSH2 0x1C6F PUSH2 0xFFFF DUP4 AND DUP7 PUSH4 0xFFFFFFFF PUSH2 0x4157 AND JUMP JUMPDEST SWAP1 POP PUSH2 0x1B8C DUP4 DUP4 DUP4 PUSH2 0x3E1A JUMP JUMPDEST PUSH1 0x4 SLOAD PUSH1 0x1 PUSH1 0x1 PUSH1 0x80 SHL SUB PUSH1 0x1 PUSH1 0x80 SHL SWAP1 SWAP2 DIV DUP2 AND PUSH32 0x0 SUB AND SWAP1 JUMP JUMPDEST DUP3 DUP8 ISZERO DUP1 ISZERO SWAP1 PUSH2 0x1CC6 JUMPI POP DUP8 DUP7 EQ JUMPDEST DUP1 ISZERO PUSH2 0x1CD2 JUMPI POP DUP8 DUP2 LT ISZERO JUMPDEST DUP1 ISZERO PUSH2 0x1CDD JUMPI POP DUP2 DUP2 EQ JUMPDEST PUSH2 0x1CE6 JUMPI PUSH1 0x0 DUP1 REVERT JUMPDEST PUSH1 0x0 PUSH1 0x1 PUSH2 0x1CF2 PUSH2 0x10F1 JUMP JUMPDEST SUB SWAP1 POP PUSH1 0x2 DUP2 ADD PUSH1 0x0 DUP1 DUP1 JUMPDEST DUP13 DUP2 LT ISZERO PUSH2 0x20DF JUMPI PUSH1 0x0 DUP15 DUP15 DUP4 DUP2 DUP2 LT PUSH2 0x1D14 JUMPI INVALID JUMPDEST SWAP1 POP PUSH1 0x20 MUL ADD CALLDATALOAD PUSH1 0x1 PUSH1 0x1 PUSH1 0xA0 SHL SUB AND SWAP1 POP PUSH1 0x0 DUP14 DUP14 DUP5 DUP2 DUP2 LT PUSH2 0x1D34 JUMPI INVALID JUMPDEST PUSH1 0x20 MUL SWAP2 SWAP1 SWAP2 ADD CALLDATALOAD SWAP2 POP POP DUP4 DUP2 ADD DUP2 ISZERO DUP1 ISZERO SWAP1 PUSH2 0x1D51 JUMPI POP DUP1 DUP10 LT ISZERO JUMPDEST PUSH2 0x1D5A JUMPI PUSH1 0x0 DUP1 REVERT JUMPDEST PUSH1 0x1 PUSH1 0x1 PUSH1 0xA0 SHL SUB DUP4 AND PUSH1 0x0 SWAP1 DUP2 MSTORE PUSH1 0x6 PUSH1 0x20 MSTORE PUSH1 0x40 SWAP1 KECCAK256 PUSH1 0xB DUP2 ADD SLOAD ISZERO PUSH2 0x1D81 JUMPI PUSH1 0x0 DUP1 REVERT JUMPDEST PUSH1 0x1 PUSH1 0x1 PUSH1 0xA0 SHL SUB DUP5 DUP2 AND PUSH1 0x0 SWAP1 DUP2 MSTORE PUSH1 0x8 PUSH1 0x20 MSTORE PUSH1 0x40 SWAP1 KECCAK256 SLOAD AND ISZERO PUSH2 0x1DD8 JUMPI PUSH1 0x40 MLOAD PUSH3 0x461BCD PUSH1 0xE5 SHL DUP2 MSTORE PUSH1 0x4 ADD DUP1 DUP1 PUSH1 0x20 ADD DUP3 DUP2 SUB DUP3 MSTORE PUSH1 0x2D DUP2 MSTORE PUSH1 0x20 ADD DUP1 PUSH2 0x5A36 PUSH1 0x2D SWAP2 CODECOPY PUSH1 0x40 ADD SWAP2 POP POP PUSH1 0x40 MLOAD DUP1 SWAP2 SUB SWAP1 REVERT JUMPDEST PUSH1 0x7 DUP1 SLOAD PUSH1 0x1 DUP2 ADD DUP3 SSTORE PUSH1 0x0 SWAP2 DUP3 MSTORE PUSH32 0xA66CC928B5EDB82AF9BD49922954155AB7B0942694BEA4CE44661D9A8736C688 ADD DUP1 SLOAD PUSH1 0x1 PUSH1 0x1 PUSH1 0xA0 SHL SUB NOT AND PUSH1 0x1 PUSH1 0x1 PUSH1 0xA0 SHL SUB DUP8 DUP2 AND SWAP2 DUP3 OR SWAP1 SWAP3 SSTORE PUSH1 0xB SLOAD PUSH1 0x40 DUP1 MLOAD PUSH4 0x72BE8D8D PUSH1 0xE0 SHL DUP2 MSTORE PUSH1 0x4 DUP2 ADD SWAP4 SWAP1 SWAP4 MSTORE PUSH2 0xFFFF DUP15 AND PUSH1 0x24 DUP5 ADD MSTORE MLOAD SWAP3 AND SWAP3 PUSH4 0x72BE8D8D SWAP3 PUSH1 0x44 DUP1 DUP5 ADD SWAP4 DUP3 SWAP1 SUB ADD DUP2 DUP4 DUP8 DUP1 EXTCODESIZE ISZERO DUP1 ISZERO PUSH2 0x1E6E JUMPI PUSH1 0x0 DUP1 REVERT JUMPDEST POP GAS CALL ISZERO DUP1 ISZERO PUSH2 0x1E82 JUMPI RETURNDATASIZE PUSH1 0x0 DUP1 RETURNDATACOPY RETURNDATASIZE PUSH1 0x0 REVERT JUMPDEST POP POP POP POP JUMPDEST DUP2 DUP7 LT ISZERO PUSH2 0x208B JUMPI PUSH1 0x0 DUP15 DUP15 DUP9 DUP2 DUP2 LT PUSH2 0x1E9D JUMPI INVALID JUMPDEST SWAP1 POP PUSH1 0x20 MUL ADD CALLDATALOAD SWAP1 POP PUSH1 0x0 DUP14 DUP14 DUP10 DUP2 DUP2 LT PUSH2 0x1EB4 JUMPI INVALID JUMPDEST SWAP1 POP PUSH1 0x20 MUL ADD CALLDATALOAD PUSH2 0xFFFF AND SWAP1 POP PUSH32 0x0 DUP3 LT ISZERO DUP1 ISZERO PUSH2 0x1F19 JUMPI POP PUSH32 0x0 PUSH2 0xFFFF AND DUP2 PUSH2 0xFFFF AND LT ISZERO JUMPDEST PUSH2 0x1F22 JUMPI PUSH1 0x0 DUP1 REVERT JUMPDEST DUP3 SLOAD PUSH2 0x1F34 SWAP1 DUP4 PUSH4 0xFFFFFFFF PUSH2 0x416B AND JUMP JUMPDEST DUP4 SSTORE PUSH1 0x40 DUP1 MLOAD PUSH1 0x80 DUP2 ADD DUP3 MSTORE PUSH2 0xFFFF DUP1 DUP14 AND DUP3 MSTORE PUSH1 0x0 PUSH1 0x20 DUP1 DUP5 ADD DUP3 DUP2 MSTORE DUP7 DUP5 AND SWAP6 DUP6 ADD SWAP6 DUP7 MSTORE PUSH1 0x1 PUSH1 0x1 PUSH1 0x80 SHL SUB DUP1 DUP10 AND PUSH1 0x60 DUP8 ADD SWAP1 DUP2 MSTORE PUSH1 0xB DUP12 ADD DUP1 SLOAD PUSH1 0x1 DUP2 ADD DUP3 SSTORE SWAP1 DUP7 MSTORE SWAP4 SWAP1 SWAP5 KECCAK256 SWAP6 MLOAD SWAP6 SWAP1 SWAP3 ADD DUP1 SLOAD SWAP2 MLOAD SWAP7 MLOAD SWAP4 MLOAD SWAP1 SWAP3 AND PUSH1 0x1 PUSH1 0x30 SHL MUL PUSH1 0x1 PUSH1 0x30 SHL PUSH1 0x1 PUSH1 0xB0 SHL SUB NOT SWAP4 DUP6 AND PUSH1 0x1 PUSH1 0x20 SHL MUL PUSH2 0xFFFF PUSH1 0x20 SHL NOT SWAP8 DUP7 AND PUSH3 0x10000 MUL PUSH4 0xFFFF0000 NOT SWAP8 SWAP1 SWAP7 AND PUSH2 0xFFFF NOT SWAP1 SWAP4 AND SWAP3 SWAP1 SWAP3 OR SWAP6 SWAP1 SWAP6 AND SWAP4 SWAP1 SWAP4 OR SWAP5 SWAP1 SWAP5 AND SWAP2 SWAP1 SWAP2 OR AND OR SWAP1 SSTORE PUSH2 0x1FF4 DUP10 DUP4 PUSH4 0xFFFFFFFF PUSH2 0x416B AND JUMP JUMPDEST PUSH1 0x40 DUP1 MLOAD DUP5 DUP2 MSTORE PUSH2 0xFFFF DUP5 AND PUSH1 0x20 DUP3 ADD MSTORE DUP2 MLOAD SWAP3 SWAP12 POP PUSH1 0x1 PUSH1 0x1 PUSH1 0xA0 SHL SUB DUP10 AND SWAP3 PUSH32 0xEEF72C2775E4E59D04B76FE99649C70B0101DBC951CE46A5A6262A6CBC138E90 SWAP3 SWAP2 DUP2 SWAP1 SUB SWAP1 SWAP2 ADD SWAP1 LOG2 PUSH1 0x40 DUP1 MLOAD DUP4 DUP2 MSTORE PUSH2 0xFFFF DUP1 DUP14 AND PUSH1 0x20 DUP4 ADD MSTORE DUP4 AND DUP2 DUP4 ADD MSTORE SWAP1 MLOAD PUSH1 0x1 PUSH1 0x1 PUSH1 0xA0 SHL SUB DUP9 AND SWAP2 PUSH1 0x0 DUP1 MLOAD PUSH1 0x20 PUSH2 0x5969 DUP4 CODECOPY DUP2 MLOAD SWAP2 MSTORE SWAP2 SWAP1 DUP2 SWAP1 SUB PUSH1 0x60 ADD SWAP1 LOG2 POP POP PUSH1 0x1 SWAP1 SWAP6 ADD SWAP5 PUSH2 0x1E87 JUMP JUMPDEST DUP1 SLOAD PUSH32 0x0 LT ISZERO PUSH2 0x20B9 JUMPI PUSH1 0x0 DUP1 REVERT JUMPDEST DUP1 SLOAD PUSH2 0x20CF SWAP1 PUSH1 0xC DUP4 ADD SWAP1 PUSH4 0xFFFFFFFF PUSH2 0x417D AND JUMP JUMPDEST POP POP PUSH1 0x1 SWAP1 SWAP3 ADD SWAP2 POP PUSH2 0x1CFE SWAP1 POP JUMP JUMPDEST POP DUP5 DUP2 EQ PUSH2 0x20EC JUMPI PUSH1 0x0 DUP1 REVERT JUMPDEST PUSH1 0x0 PUSH2 0x20F8 PUSH1 0xA PUSH2 0x4188 JUMP JUMPDEST PUSH1 0x1 PUSH1 0x1 PUSH1 0x60 SHL SUB AND SWAP1 POP PUSH2 0x2116 PUSH1 0xA DUP5 DUP4 ADD PUSH4 0xFFFFFFFF PUSH2 0x417D AND JUMP JUMPDEST PUSH2 0x2151 PUSH1 0x1 PUSH1 0x1 PUSH1 0xA0 SHL SUB PUSH32 0x0 AND CALLER ADDRESS DUP7 PUSH4 0xFFFFFFFF PUSH2 0x419C AND JUMP JUMPDEST POP POP POP POP POP POP POP POP POP POP POP POP POP POP JUMP JUMPDEST PUSH32 0x0 DUP2 JUMP JUMPDEST PUSH1 0x1 SWAP1 JUMP JUMPDEST PUSH2 0x2192 PUSH2 0x2331 JUMP JUMPDEST PUSH2 0x219B JUMPI PUSH1 0x0 DUP1 REVERT JUMPDEST PUSH1 0x0 DUP1 SLOAD PUSH1 0x40 MLOAD PUSH1 0x1 PUSH1 0x1 PUSH1 0xA0 SHL SUB SWAP1 SWAP2 AND SWAP1 PUSH32 0x8BE0079C531659141344CD1FD0A4F28419497F9722A3DAAFE3B4186F6B6457E0 SWAP1 DUP4 SWAP1 LOG3 PUSH1 0x0 DUP1 SLOAD PUSH1 0x1 PUSH1 0x1 PUSH1 0xA0 SHL SUB NOT AND SWAP1 SSTORE JUMP JUMPDEST PUSH32 0x0 DUP2 JUMP JUMPDEST PUSH1 0x1 PUSH1 0x1 PUSH1 0xA0 SHL SUB DUP2 AND PUSH1 0x0 SWAP1 DUP2 MSTORE PUSH1 0x6 PUSH1 0x20 MSTORE PUSH1 0x40 DUP2 KECCAK256 PUSH1 0x4 DUP2 ADD SLOAD DUP3 SWAP2 DUP3 SWAP2 DUP3 SWAP2 SWAP1 PUSH2 0x223E SWAP1 PUSH1 0x1 PUSH4 0xFFFFFFFF PUSH2 0x3C1B AND JUMP JUMPDEST PUSH1 0x4 DUP3 ADD SLOAD SWAP1 SWAP6 POP PUSH2 0x2257 SWAP1 PUSH1 0x0 PUSH4 0xFFFFFFFF PUSH2 0x3C1B AND JUMP JUMPDEST PUSH1 0x4 DUP3 ADD SLOAD SWAP1 ISZERO SWAP5 POP PUSH2 0x2271 SWAP1 PUSH1 0x2 PUSH4 0xFFFFFFFF PUSH2 0x3C1B AND JUMP JUMPDEST PUSH1 0x4 DUP3 ADD SLOAD SWAP1 SWAP4 POP PUSH2 0x228A SWAP1 PUSH1 0x3 PUSH4 0xFFFFFFFF PUSH2 0x3C1B AND JUMP JUMPDEST ISZERO SWAP2 POP POP SWAP2 SWAP4 POP SWAP2 SWAP4 JUMP JUMPDEST PUSH2 0x11CA CALLER CALLER DUP5 DUP5 PUSH2 0x4232 JUMP JUMPDEST PUSH1 0x1 PUSH1 0x1 PUSH1 0xA0 SHL SUB DUP3 AND PUSH1 0x0 SWAP1 DUP2 MSTORE PUSH1 0x6 PUSH1 0x20 MSTORE PUSH1 0x40 DUP2 KECCAK256 DUP2 PUSH2 0x22C2 PUSH2 0x10F1 JUMP JUMPDEST SWAP1 POP PUSH1 0x0 PUSH2 0x1C6F PUSH2 0xFFFF DUP4 AND DUP7 PUSH4 0xFFFFFFFF PUSH2 0x40A5 AND JUMP JUMPDEST CALLER PUSH1 0x0 SWAP1 DUP2 MSTORE PUSH1 0x6 PUSH1 0x20 MSTORE PUSH1 0x40 SWAP1 KECCAK256 SLOAD PUSH2 0x22F3 JUMPI PUSH1 0x0 DUP1 REVERT JUMPDEST PUSH2 0x11CA CALLER DUP4 DUP4 PUSH2 0x4454 JUMP JUMPDEST PUSH32 0x0 DUP2 JUMP JUMPDEST PUSH1 0x0 SLOAD PUSH1 0x1 PUSH1 0x1 PUSH1 0xA0 SHL SUB AND SWAP1 JUMP JUMPDEST PUSH1 0x0 SLOAD PUSH1 0x1 PUSH1 0x1 PUSH1 0xA0 SHL SUB AND CALLER EQ SWAP1 JUMP JUMPDEST PUSH32 0x0 PUSH1 0x1 PUSH1 0x1 PUSH1 0xA0 SHL SUB AND DUP4 PUSH1 0x1 PUSH1 0x1 PUSH1 0xA0 SHL SUB AND EQ DUP1 ISZERO PUSH2 0x23AB JUMPI POP CALLER PUSH1 0x1 PUSH1 0x1 PUSH1 0xA0 SHL SUB PUSH32 0x0 AND EQ JUMPDEST PUSH2 0x23B4 JUMPI PUSH1 0x0 DUP1 REVERT JUMPDEST PUSH1 0x84 CALLDATALOAD PUSH1 0xA4 CALLDATALOAD PUSH1 0x8 PUSH1 0x20 DUP4 SWAP1 SUB MUL SHR PUSH2 0x23CF DUP8 DUP1 DUP9 DUP5 PUSH2 0x4232 JUMP JUMPDEST POP POP POP POP POP POP POP JUMP JUMPDEST PUSH1 0x1 PUSH1 0x1 PUSH1 0xA0 SHL SUB DUP3 AND PUSH1 0x0 SWAP1 DUP2 MSTORE PUSH1 0x6 PUSH1 0x20 MSTORE PUSH1 0x40 DUP2 KECCAK256 PUSH1 0xA ADD DUP1 SLOAD DUP3 SWAP2 DUP3 SWAP2 DUP6 SWAP1 DUP2 LT PUSH2 0x2403 JUMPI INVALID JUMPDEST PUSH1 0x0 SWAP2 DUP3 MSTORE PUSH1 0x20 SWAP1 SWAP2 KECCAK256 ADD SLOAD PUSH2 0xFFFF DUP1 DUP3 AND SWAP8 PUSH3 0x10000 SWAP1 SWAP3 DIV AND SWAP6 POP SWAP4 POP POP POP POP JUMP JUMPDEST PUSH32 0x0 DUP2 JUMP JUMPDEST PUSH1 0x1 PUSH1 0x1 PUSH1 0xA0 SHL SUB AND PUSH1 0x0 SWAP1 DUP2 MSTORE PUSH1 0x6 PUSH1 0x20 MSTORE PUSH1 0x40 SWAP1 KECCAK256 PUSH1 0xA ADD SLOAD SWAP1 JUMP JUMPDEST CALLER PUSH1 0x0 SWAP1 DUP2 MSTORE PUSH1 0x6 PUSH1 0x20 MSTORE PUSH1 0x40 SWAP1 KECCAK256 PUSH1 0x4 DUP2 ADD SLOAD DUP3 ISZERO SWAP1 PUSH2 0x2491 SWAP1 PUSH1 0x3 PUSH4 0xFFFFFFFF PUSH2 0x3C1B AND JUMP JUMPDEST ISZERO ISZERO EQ ISZERO PUSH2 0x249F JUMPI POP PUSH2 0x10CC JUMP JUMPDEST PUSH1 0x0 PUSH2 0x24AB PUSH1 0xA PUSH2 0x4188 JUMP JUMPDEST PUSH1 0x1 PUSH1 0x1 PUSH1 0x60 SHL SUB AND SWAP1 POP DUP3 ISZERO PUSH2 0x24ED JUMPI DUP2 SLOAD PUSH2 0x24D2 SWAP1 PUSH1 0xC DUP5 ADD SWAP1 PUSH4 0xFFFFFFFF PUSH2 0x417D AND JUMP JUMPDEST DUP2 SLOAD PUSH2 0x24E8 SWAP1 PUSH1 0xA SWAP1 DUP4 ADD PUSH4 0xFFFFFFFF PUSH2 0x417D AND JUMP JUMPDEST PUSH2 0x2517 JUMP JUMPDEST PUSH2 0x2501 PUSH1 0xC DUP4 ADD PUSH1 0x0 PUSH4 0xFFFFFFFF PUSH2 0x417D AND JUMP JUMPDEST DUP2 SLOAD PUSH2 0x2517 SWAP1 PUSH1 0xA SWAP1 DUP4 SUB PUSH4 0xFFFFFFFF PUSH2 0x417D AND JUMP JUMPDEST PUSH1 0x4 DUP3 ADD SLOAD PUSH2 0x252D SWAP1 PUSH1 0x3 PUSH4 0xFFFFFFFF PUSH2 0x3C28 AND JUMP JUMPDEST PUSH1 0x4 DUP4 ADD SSTORE PUSH1 0x40 DUP1 MLOAD DUP5 ISZERO ISZERO DUP2 MSTORE SWAP1 MLOAD CALLER SWAP2 PUSH32 0x99113BAA33C79A0D2753E314C495BCB33035F538EDC07D4058823F431514CDAE SWAP2 SWAP1 DUP2 SWAP1 SUB PUSH1 0x20 ADD SWAP1 LOG2 POP POP POP JUMP JUMPDEST PUSH1 0x1 PUSH1 0x1 PUSH1 0xA0 SHL SUB DUP2 AND PUSH1 0x0 SWAP1 DUP2 MSTORE PUSH1 0x6 PUSH1 0x20 MSTORE PUSH1 0x40 DUP2 KECCAK256 PUSH1 0xB DUP2 ADD SLOAD PUSH2 0x259A JUMPI PUSH1 0x0 SWAP2 POP POP PUSH2 0x10EC JUMP JUMPDEST PUSH1 0x3 ADD SLOAD PUSH3 0x10000 SWAP1 DIV PUSH1 0x1 PUSH1 0x1 PUSH1 0xA0 SHL SUB AND SWAP3 SWAP2 POP POP JUMP JUMPDEST PUSH1 0x5 SLOAD PUSH2 0xFFFF AND PUSH2 0x25C3 JUMPI PUSH1 0x0 DUP1 REVERT JUMPDEST PUSH1 0xC SLOAD PUSH1 0x1 PUSH1 0x1 PUSH1 0xA0 SHL SUB AND CALLER EQ PUSH2 0x25DA JUMPI PUSH1 0x0 DUP1 REVERT JUMPDEST PUSH1 0x0 DUP4 GT PUSH2 0x25E7 JUMPI PUSH1 0x0 DUP1 REVERT JUMPDEST PUSH1 0x1 PUSH1 0x1 PUSH1 0xA0 SHL SUB DUP5 AND PUSH1 0x0 SWAP1 DUP2 MSTORE PUSH1 0x6 PUSH1 0x20 MSTORE PUSH1 0x40 SWAP1 KECCAK256 DUP1 SLOAD DUP5 LT PUSH2 0x260C JUMPI DUP1 SLOAD SWAP4 POP JUMPDEST DUP1 SLOAD DUP5 SWAP1 SUB DUP2 SSTORE DUP4 DUP3 GT ISZERO PUSH2 0x261F JUMPI DUP4 SWAP2 POP JUMPDEST PUSH1 0x0 PUSH2 0x2629 PUSH2 0x10F1 JUMP JUMPDEST SWAP1 POP PUSH1 0x1 DUP2 ADD PUSH1 0x0 PUSH2 0x263B DUP5 DUP5 PUSH2 0x40BB JUMP JUMPDEST SWAP1 POP PUSH1 0x0 DUP1 PUSH1 0x0 DUP1 PUSH2 0x264F DUP9 DUP9 DUP9 DUP9 PUSH2 0x4627 JUMP JUMPDEST DUP12 SLOAD SWAP4 SWAP8 POP SWAP2 SWAP6 POP SWAP4 POP SWAP2 POP DUP5 DUP4 ADD SWAP1 DUP2 GT ISZERO PUSH2 0x2679 JUMPI PUSH2 0x2679 DUP10 DUP11 PUSH1 0x0 ADD SLOAD DUP4 SUB DUP11 DUP10 DUP7 PUSH2 0x47C5 JUMP JUMPDEST DUP4 ISZERO PUSH2 0x26B8 JUMPI DUP9 SLOAD DUP4 GT PUSH2 0x268E JUMPI PUSH1 0x0 PUSH2 0x2693 JUMP JUMPDEST DUP9 SLOAD DUP4 SUB JUMPDEST DUP4 DUP6 ADD SUB SWAP1 POP DUP1 DUP10 PUSH1 0x0 ADD SLOAD LT ISZERO PUSH2 0x26B8 JUMPI DUP9 SLOAD PUSH2 0x26B8 SWAP1 DUP11 SWAP1 DUP4 SUB DUP10 DUP10 PUSH1 0x1E PUSH2 0x47C5 JUMP JUMPDEST DUP11 PUSH1 0x1 PUSH1 0x1 PUSH1 0xA0 SHL SUB AND DUP14 PUSH1 0x1 PUSH1 0x1 PUSH1 0xA0 SHL SUB AND PUSH32 0x34040FA1C0549C8572589C39CB87FF7638286467446A4790971D58D931C654BB DUP15 DUP14 PUSH1 0x40 MLOAD DUP1 DUP4 DUP2 MSTORE PUSH1 0x20 ADD DUP3 DUP2 MSTORE PUSH1 0x20 ADD SWAP3 POP POP POP PUSH1 0x40 MLOAD DUP1 SWAP2 SUB SWAP1 LOG3 DUP10 DUP13 GT ISZERO PUSH2 0x271E JUMPI PUSH2 0x271E DUP11 DUP14 SUB PUSH2 0x49A3 JUMP JUMPDEST DUP10 ISZERO PUSH2 0x275E JUMPI PUSH2 0x275E PUSH1 0x1 PUSH1 0x1 PUSH1 0xA0 SHL SUB PUSH32 0x0 AND DUP13 DUP13 PUSH4 0xFFFFFFFF PUSH2 0x3F43 AND JUMP JUMPDEST PUSH2 0x276B DUP10 DUP14 PUSH1 0x0 SUB PUSH2 0x3EDB JUMP JUMPDEST POP POP POP POP POP POP POP POP POP POP POP POP POP JUMP JUMPDEST CALLER PUSH1 0x0 SWAP1 DUP2 MSTORE PUSH1 0x6 PUSH1 0x20 MSTORE PUSH1 0x40 SWAP1 KECCAK256 SLOAD PUSH2 0x2793 JUMPI PUSH1 0x0 DUP1 REVERT JUMPDEST CALLER PUSH1 0x0 SWAP1 DUP2 MSTORE PUSH1 0x6 PUSH1 0x20 MSTORE PUSH1 0x40 SWAP1 KECCAK256 PUSH1 0x4 DUP2 ADD SLOAD DUP3 ISZERO ISZERO SWAP1 PUSH2 0x27BC SWAP1 PUSH1 0x1 PUSH4 0xFFFFFFFF PUSH2 0x3C1B AND JUMP JUMPDEST ISZERO ISZERO EQ ISZERO PUSH2 0x27CA JUMPI POP PUSH2 0x10CC JUMP JUMPDEST PUSH1 0x4 DUP2 ADD SLOAD PUSH2 0x27E0 SWAP1 PUSH1 0x1 PUSH4 0xFFFFFFFF PUSH2 0x3C28 AND JUMP JUMPDEST PUSH1 0x4 DUP3 ADD SSTORE PUSH1 0x0 PUSH2 0x27EF PUSH2 0x10F1 JUMP JUMPDEST PUSH1 0x40 DUP1 MLOAD DUP6 ISZERO ISZERO DUP2 MSTORE SWAP1 MLOAD SWAP2 SWAP3 POP PUSH1 0x1 DUP4 ADD SWAP2 CALLER SWAP2 PUSH32 0x8E551784567EC4BBCE5943250EAACD5AFE82AEF7A9B1DAB3F899881F4EAE93F0 SWAP2 SWAP1 DUP2 SWAP1 SUB PUSH1 0x20 ADD SWAP1 LOG2 PUSH1 0x1 DUP4 ADD SLOAD PUSH2 0xFFFF DUP3 DUP2 AND PUSH3 0x10000 SWAP1 SWAP3 DIV AND EQ PUSH2 0x284F JUMPI POP POP POP PUSH2 0x10CC JUMP JUMPDEST PUSH1 0x0 JUMPDEST PUSH1 0xB DUP5 ADD SLOAD DUP2 LT ISZERO PUSH2 0x2952 JUMPI PUSH1 0x0 DUP5 PUSH1 0xB ADD DUP3 DUP2 SLOAD DUP2 LT PUSH2 0x286F JUMPI INVALID JUMPDEST SWAP1 PUSH1 0x0 MSTORE PUSH1 0x20 PUSH1 0x0 KECCAK256 ADD SWAP1 POP DUP6 ISZERO DUP1 ISZERO PUSH2 0x2896 JUMPI POP DUP1 SLOAD PUSH2 0xFFFF DUP5 DUP2 AND PUSH3 0x10000 SWAP1 SWAP3 DIV AND EQ JUMPDEST ISZERO PUSH2 0x28B3 JUMPI DUP1 SLOAD PUSH6 0xFFFFFFFF0000 NOT AND PUSH1 0x1 PUSH1 0x20 SHL OR SWAP1 SSTORE PUSH2 0x294A JUMP JUMPDEST DUP1 SLOAD PUSH3 0x10000 SWAP1 DIV PUSH2 0xFFFF AND ISZERO ISZERO DUP1 PUSH2 0x28D6 JUMPI POP DUP1 SLOAD PUSH1 0x1 PUSH1 0x20 SHL SWAP1 DIV PUSH2 0xFFFF AND ISZERO JUMPDEST ISZERO PUSH2 0x28E1 JUMPI POP PUSH2 0x294A JUMP JUMPDEST DUP6 PUSH2 0x28FB JUMPI DUP1 SLOAD PUSH1 0x1 PUSH1 0x20 SHL SWAP1 DIV PUSH2 0xFFFF AND PUSH1 0x1 ADD PUSH2 0x290D JUMP JUMPDEST DUP1 SLOAD PUSH1 0x1 PUSH1 0x20 SHL SWAP1 DIV PUSH2 0xFFFF AND PUSH1 0x0 NOT ADD JUMPDEST DUP2 SLOAD PUSH2 0xFFFF PUSH1 0x20 SHL NOT AND PUSH1 0x1 PUSH1 0x20 SHL PUSH2 0xFFFF SWAP3 DUP4 AND DUP2 MUL SWAP2 SWAP1 SWAP2 OR DUP1 DUP5 SSTORE DIV AND PUSH2 0x2948 JUMPI DUP1 SLOAD PUSH4 0xFFFF0000 NOT AND PUSH3 0x10000 PUSH2 0xFFFF DUP6 AND MUL OR DUP2 SSTORE JUMPDEST POP JUMPDEST PUSH1 0x1 ADD PUSH2 0x2852 JUMP JUMPDEST POP POP POP POP POP JUMP JUMPDEST PUSH1 0x7 SLOAD SWAP1 JUMP JUMPDEST PUSH1 0x1 PUSH1 0x1 PUSH1 0xA0 SHL SUB DUP2 AND PUSH1 0x0 SWAP1 DUP2 MSTORE PUSH1 0x6 PUSH1 0x20 MSTORE PUSH1 0x40 DUP2 KECCAK256 PUSH1 0x1 DUP2 ADD SLOAD PUSH3 0x10000 SWAP1 DIV PUSH2 0xFFFF AND PUSH2 0x299F JUMPI PUSH1 0x1 DUP2 ADD SLOAD PUSH1 0x1 PUSH1 0x20 SHL SWAP1 DIV PUSH2 0xFFFF AND PUSH2 0x29AF JUMP JUMPDEST PUSH1 0x1 DUP2 ADD SLOAD PUSH3 0x10000 SWAP1 DIV PUSH2 0xFFFF AND JUMPDEST SWAP4 SWAP3 POP POP POP JUMP JUMPDEST PUSH1 0xB SLOAD PUSH1 0x1 PUSH1 0x1 PUSH1 0xA0 SHL SUB AND DUP2 JUMP JUMPDEST PUSH2 0x29CD PUSH2 0x2331 JUMP JUMPDEST PUSH2 0x29D6 JUMPI PUSH1 0x0 DUP1 REVERT JUMPDEST PUSH1 0xB SLOAD PUSH1 0x1 PUSH1 0x1 PUSH1 0xA0 SHL SUB AND ISZERO PUSH2 0x29EC JUMPI PUSH1 0x0 DUP1 REVERT JUMPDEST ADDRESS PUSH1 0x1 PUSH1 0x1 PUSH1 0xA0 SHL SUB AND DUP2 PUSH1 0x1 PUSH1 0x1 PUSH1 0xA0 SHL SUB AND PUSH4 0xE2FDCC17 PUSH1 0x40 MLOAD DUP2 PUSH4 0xFFFFFFFF AND PUSH1 0xE0 SHL DUP2 MSTORE PUSH1 0x4 ADD PUSH1 0x20 PUSH1 0x40 MLOAD DUP1 DUP4 SUB DUP2 DUP7 DUP1 EXTCODESIZE ISZERO DUP1 ISZERO PUSH2 0x2A2F JUMPI PUSH1 0x0 DUP1 REVERT JUMPDEST POP GAS STATICCALL ISZERO DUP1 ISZERO PUSH2 0x2A43 JUMPI RETURNDATASIZE PUSH1 0x0 DUP1 RETURNDATACOPY RETURNDATASIZE PUSH1 0x0 REVERT JUMPDEST POP POP POP POP PUSH1 0x40 MLOAD RETURNDATASIZE PUSH1 0x20 DUP2 LT ISZERO PUSH2 0x2A59 JUMPI PUSH1 0x0 DUP1 REVERT JUMPDEST POP MLOAD PUSH1 0x1 PUSH1 0x1 PUSH1 0xA0 SHL SUB AND EQ PUSH2 0x2A6E JUMPI PUSH1 0x0 DUP1 REVERT JUMPDEST PUSH1 0xB DUP1 SLOAD PUSH1 0x1 PUSH1 0x1 PUSH1 0xA0 SHL SUB NOT AND PUSH1 0x1 PUSH1 0x1 PUSH1 0xA0 SHL SUB SWAP3 SWAP1 SWAP3 AND SWAP2 SWAP1 SWAP2 OR SWAP1 SSTORE JUMP JUMPDEST PUSH1 0x8 PUSH1 0x20 MSTORE PUSH1 0x0 SWAP1 DUP2 MSTORE PUSH1 0x40 SWAP1 KECCAK256 SLOAD PUSH1 0x1 PUSH1 0x1 PUSH1 0xA0 SHL SUB AND DUP2 JUMP JUMPDEST CALLER PUSH1 0x0 SWAP1 DUP2 MSTORE PUSH1 0x6 PUSH1 0x20 MSTORE PUSH1 0x40 SWAP1 KECCAK256 SLOAD PUSH2 0x2AC4 JUMPI PUSH1 0x0 DUP1 REVERT JUMPDEST CALLER PUSH1 0x0 SWAP1 DUP2 MSTORE PUSH1 0x6 PUSH1 0x20 MSTORE PUSH1 0x40 SWAP1 KECCAK256 PUSH2 0xFFFF DUP3 AND PUSH2 0x2B20 JUMPI PUSH1 0x40 DUP1 MLOAD PUSH3 0x461BCD PUSH1 0xE5 SHL DUP2 MSTORE PUSH1 0x20 PUSH1 0x4 DUP3 ADD MSTORE PUSH1 0x14 PUSH1 0x24 DUP3 ADD MSTORE PUSH20 0x496E636F727265637420706172616D6574657273 PUSH1 0x60 SHL PUSH1 0x44 DUP3 ADD MSTORE SWAP1 MLOAD SWAP1 DUP2 SWAP1 SUB PUSH1 0x64 ADD SWAP1 REVERT JUMPDEST PUSH1 0x0 DUP2 PUSH1 0xB ADD DUP5 DUP2 SLOAD DUP2 LT PUSH2 0x2B31 JUMPI INVALID JUMPDEST SWAP1 PUSH1 0x0 MSTORE PUSH1 0x20 PUSH1 0x0 KECCAK256 ADD SWAP1 POP PUSH1 0x0 PUSH2 0x2B47 PUSH2 0x10F1 JUMP JUMPDEST SWAP1 POP PUSH1 0x0 PUSH2 0x2B55 DUP5 DUP4 PUSH2 0x40BB JUMP JUMPDEST SWAP1 POP PUSH1 0x0 PUSH2 0x2B63 DUP5 DUP4 PUSH2 0x4105 JUMP JUMPDEST SWAP1 POP DUP3 PUSH2 0xFFFF AND DUP2 PUSH2 0xFFFF AND GT PUSH2 0x2BAB JUMPI PUSH1 0x40 MLOAD PUSH3 0x461BCD PUSH1 0xE5 SHL DUP2 MSTORE PUSH1 0x4 ADD DUP1 DUP1 PUSH1 0x20 ADD DUP3 DUP2 SUB DUP3 MSTORE PUSH1 0x35 DUP2 MSTORE PUSH1 0x20 ADD DUP1 PUSH2 0x5912 PUSH1 0x35 SWAP2 CODECOPY PUSH1 0x40 ADD SWAP2 POP POP PUSH1 0x40 MLOAD DUP1 SWAP2 SUB SWAP1 REVERT JUMPDEST DUP4 SLOAD PUSH2 0x2BC2 SWAP1 PUSH1 0x1 PUSH1 0x20 SHL SWAP1 DIV PUSH2 0xFFFF AND DUP8 PUSH2 0x40A5 JUMP JUMPDEST DUP5 SLOAD PUSH2 0xFFFF PUSH1 0x20 SHL NOT AND PUSH1 0x1 PUSH1 0x20 SHL PUSH2 0xFFFF SWAP3 DUP4 AND MUL OR DUP6 SSTORE DUP3 DUP2 AND SWAP1 DUP3 AND EQ ISZERO PUSH2 0x2BF3 JUMPI DUP4 SLOAD PUSH4 0xFFFF0000 NOT AND DUP5 SSTORE JUMPDEST PUSH32 0x0 PUSH2 0xFFFF AND DUP7 PUSH2 0xFFFF AND DUP5 DUP4 SUB PUSH2 0xFFFF AND ADD PUSH4 0xFFFFFFFF AND LT ISZERO PUSH2 0x2C68 JUMPI PUSH1 0x40 MLOAD PUSH3 0x461BCD PUSH1 0xE5 SHL DUP2 MSTORE PUSH1 0x4 ADD DUP1 DUP1 PUSH1 0x20 ADD DUP3 DUP2 SUB DUP3 MSTORE PUSH1 0x3E DUP2 MSTORE PUSH1 0x20 ADD DUP1 PUSH2 0x59F8 PUSH1 0x3E SWAP2 CODECOPY PUSH1 0x40 ADD SWAP2 POP POP PUSH1 0x40 MLOAD DUP1 SWAP2 SUB SWAP1 REVERT JUMPDEST DUP4 SLOAD PUSH1 0x40 DUP1 MLOAD PUSH1 0x1 PUSH1 0x1 PUSH1 0x80 SHL SUB PUSH1 0x1 PUSH1 0x30 SHL SWAP1 SWAP4 DIV SWAP3 SWAP1 SWAP3 AND DUP3 MSTORE PUSH2 0xFFFF PUSH1 0x1 DUP5 ADD DUP2 AND PUSH1 0x20 DUP5 ADD MSTORE DUP9 AND DUP3 DUP3 ADD MSTORE MLOAD CALLER SWAP2 PUSH1 0x0 DUP1 MLOAD PUSH1 0x20 PUSH2 0x5969 DUP4 CODECOPY DUP2 MLOAD SWAP2 MSTORE SWAP2 SWAP1 DUP2 SWAP1 SUB PUSH1 0x60 ADD SWAP1 LOG2 DUP4 SLOAD PUSH1 0x40 DUP1 MLOAD PUSH1 0x1 PUSH1 0x1 PUSH1 0x80 SHL SUB PUSH1 0x1 PUSH1 0x30 SHL SWAP1 SWAP4 DIV SWAP3 SWAP1 SWAP3 AND DUP3 MSTORE PUSH2 0xFFFF DUP1 DUP5 AND PUSH1 0x20 DUP5 ADD MSTORE DUP9 AND DUP3 DUP3 ADD MSTORE MLOAD CALLER SWAP2 PUSH32 0x4A8002CB7D215FF46C882055A756942E088F67744D92308F58CD701109E9273B SWAP2 SWAP1 DUP2 SWAP1 SUB PUSH1 0x60 ADD SWAP1 LOG2 POP POP POP POP POP POP POP JUMP JUMPDEST PUSH2 0x2D21 DUP2 PUSH2 0x49E1 JUMP JUMPDEST PUSH1 0xB SLOAD PUSH1 0x1 PUSH1 0x1 PUSH1 0xA0 SHL SUB AND PUSH2 0x2D3E DUP3 PUSH4 0xAB3DBF3B PUSH1 0xE0 SHL PUSH2 0x4A77 JUMP JUMPDEST PUSH1 0x1 PUSH1 0x1 PUSH1 0xA0 SHL SUB AND EQ PUSH2 0x2D51 JUMPI PUSH1 0x0 DUP1 REVERT JUMPDEST PUSH1 0xC SLOAD PUSH1 0x1 PUSH1 0x1 PUSH1 0xA0 SHL SUB AND PUSH2 0x2D6E DUP3 PUSH4 0x29E176C7 PUSH1 0xE1 SHL PUSH2 0x4A77 JUMP JUMPDEST PUSH1 0x1 PUSH1 0x1 PUSH1 0xA0 SHL SUB AND EQ PUSH2 0x2D81 JUMPI PUSH1 0x0 DUP1 REVERT JUMPDEST PUSH1 0xD SLOAD PUSH1 0x1 PUSH1 0x1 PUSH1 0xA0 SHL SUB AND PUSH2 0x2D9E DUP3 PUSH4 0xE3FEA99 PUSH1 0xE1 SHL PUSH2 0x4A77 JUMP JUMPDEST PUSH1 0x1 PUSH1 0x1 PUSH1 0xA0 SHL SUB AND EQ PUSH2 0x2DB1 JUMPI PUSH1 0x0 DUP1 REVERT JUMPDEST PUSH1 0x0 DUP1 DUP1 MSTORE PUSH1 0x9 PUSH1 0x20 MSTORE PUSH32 0xEC8156718A8372B1DB44BB411437D0870F3E3790D4A08526D024CE1B0B668F6B SLOAD SWAP1 PUSH2 0x2DF2 SWAP1 DUP4 SWAP1 PUSH4 0x77CAF05D PUSH1 0xE1 SHL SWAP1 PUSH2 0x4A90 JUMP JUMPDEST EQ PUSH2 0x2DFC JUMPI PUSH1 0x0 DUP1 REVERT JUMPDEST PUSH1 0x0 DUP1 DUP1 MSTORE PUSH1 0x8 PUSH1 0x20 MSTORE PUSH32 0x5EFF886EA0CE6CA488A3D6E336D6C0F75F46D19B42C06CE5EE98E42C96D256C7 SLOAD PUSH1 0x1 PUSH1 0x1 PUSH1 0xA0 SHL SUB AND SWAP1 PUSH2 0x2E46 SWAP1 DUP4 SWAP1 PUSH4 0x597759B7 PUSH1 0xE1 SHL SWAP1 PUSH2 0x4A90 JUMP JUMPDEST PUSH1 0x1 PUSH1 0x1 PUSH1 0xA0 SHL SUB AND EQ PUSH2 0x2E59 JUMPI PUSH1 0x0 DUP1 REVERT JUMPDEST PUSH1 0x7 SLOAD PUSH2 0x2E6C DUP3 PUSH3 0x9FABEB PUSH1 0xE8 SHL PUSH2 0x4A77 JUMP JUMPDEST EQ PUSH2 0x2E76 JUMPI PUSH1 0x0 DUP1 REVERT JUMPDEST PUSH1 0x7 SLOAD PUSH2 0x2E82 JUMPI PUSH2 0x10CC JUMP JUMPDEST PUSH1 0x0 PUSH1 0x7 PUSH1 0x0 DUP2 SLOAD DUP2 LT PUSH2 0x2E92 JUMPI INVALID JUMPDEST PUSH1 0x0 SWAP2 DUP3 MSTORE PUSH1 0x20 DUP3 KECCAK256 ADD SLOAD PUSH1 0x1 PUSH1 0x1 PUSH1 0xA0 SHL SUB AND SWAP2 POP DUP2 SWAP1 PUSH2 0x2EBE SWAP1 DUP5 SWAP1 PUSH4 0xFD5E6DD1 PUSH1 0xE0 SHL SWAP1 PUSH2 0x4A90 JUMP JUMPDEST PUSH1 0x1 PUSH1 0x1 PUSH1 0xA0 SHL SUB AND EQ PUSH2 0x2ED1 JUMPI PUSH1 0x0 DUP1 REVERT JUMPDEST PUSH1 0x1 PUSH1 0x1 PUSH1 0xA0 SHL SUB DUP2 AND PUSH1 0x0 DUP2 DUP2 MSTORE PUSH1 0x6 PUSH1 0x20 MSTORE PUSH1 0x40 SWAP1 KECCAK256 SWAP1 PUSH2 0x2EF2 PUSH2 0x57C9 JUMP JUMPDEST PUSH2 0x2EFC DUP6 DUP4 PUSH2 0x4AAB JUMP JUMPDEST DUP4 SLOAD DUP2 MLOAD SWAP2 SWAP3 POP EQ DUP1 ISZERO PUSH2 0x2F1F JUMPI POP PUSH1 0x1 DUP4 ADD SLOAD PUSH1 0x20 DUP3 ADD MLOAD PUSH2 0xFFFF SWAP1 DUP2 AND SWAP2 AND EQ JUMPDEST DUP1 ISZERO PUSH2 0x2F40 JUMPI POP PUSH1 0x1 DUP4 ADD SLOAD PUSH1 0x40 DUP3 ADD MLOAD PUSH2 0xFFFF SWAP1 DUP2 AND PUSH3 0x10000 SWAP1 SWAP3 DIV AND EQ JUMPDEST DUP1 ISZERO PUSH2 0x2F54 JUMPI POP DUP3 PUSH1 0x4 ADD SLOAD DUP2 PUSH2 0x100 ADD MLOAD EQ JUMPDEST DUP1 ISZERO PUSH2 0x2F76 JUMPI POP PUSH1 0x1 DUP4 ADD SLOAD PUSH1 0x80 DUP3 ADD MLOAD PUSH2 0xFFFF SWAP1 DUP2 AND PUSH1 0x1 PUSH1 0x30 SHL SWAP1 SWAP3 DIV AND EQ JUMPDEST DUP1 ISZERO PUSH2 0x2F98 JUMPI POP PUSH1 0x1 DUP4 ADD SLOAD PUSH1 0x60 DUP3 ADD MLOAD PUSH2 0xFFFF SWAP1 DUP2 AND PUSH1 0x1 PUSH1 0x20 SHL SWAP1 SWAP3 DIV AND EQ JUMPDEST DUP1 ISZERO PUSH2 0x2FAB JUMPI POP DUP3 PUSH1 0x2 ADD SLOAD DUP2 PUSH1 0xA0 ADD MLOAD EQ JUMPDEST DUP1 ISZERO PUSH2 0x2FD1 JUMPI POP PUSH1 0x3 DUP4 ADD SLOAD PUSH1 0xE0 DUP3 ADD MLOAD PUSH1 0x1 PUSH1 0x1 PUSH1 0xA0 SHL SUB SWAP1 DUP2 AND PUSH3 0x10000 SWAP1 SWAP3 DIV AND EQ JUMPDEST DUP1 ISZERO PUSH2 0x2FEC JUMPI POP PUSH1 0x3 DUP4 ADD SLOAD PUSH1 0xC0 DUP3 ADD MLOAD PUSH2 0xFFFF SWAP1 DUP2 AND SWAP2 AND EQ JUMPDEST PUSH2 0x2FF5 JUMPI PUSH1 0x0 DUP1 REVERT JUMPDEST PUSH1 0xA DUP4 ADD SLOAD PUSH2 0x300C DUP7 PUSH4 0x90DCB51F PUSH1 0xE0 SHL DUP6 PUSH2 0x4A90 JUMP JUMPDEST EQ PUSH2 0x3016 JUMPI PUSH1 0x0 DUP1 REVERT JUMPDEST PUSH1 0x0 JUMPDEST PUSH1 0xA DUP5 ADD SLOAD DUP2 LT DUP1 ISZERO PUSH2 0x302C JUMPI POP PUSH1 0x5 DUP2 LT JUMPDEST ISZERO PUSH2 0x30A2 JUMPI PUSH1 0x0 DUP5 PUSH1 0xA ADD DUP3 DUP2 SLOAD DUP2 LT PUSH2 0x3042 JUMPI INVALID JUMPDEST SWAP1 PUSH1 0x0 MSTORE PUSH1 0x20 PUSH1 0x0 KECCAK256 ADD SWAP1 POP PUSH2 0x3056 PUSH2 0x586A JUMP JUMPDEST PUSH2 0x3061 DUP9 DUP7 DUP6 PUSH2 0x4ACA JUMP JUMPDEST DUP3 SLOAD DUP2 MLOAD SWAP2 SWAP3 POP PUSH2 0xFFFF SWAP2 DUP3 AND SWAP2 AND EQ DUP1 ISZERO PUSH2 0x308F JUMPI POP DUP2 SLOAD PUSH1 0x20 DUP3 ADD MLOAD PUSH2 0xFFFF SWAP1 DUP2 AND PUSH3 0x10000 SWAP1 SWAP3 DIV AND EQ JUMPDEST PUSH2 0x3098 JUMPI PUSH1 0x0 DUP1 REVERT JUMPDEST POP POP PUSH1 0x1 ADD PUSH2 0x3019 JUMP JUMPDEST POP PUSH1 0xB DUP4 ADD SLOAD PUSH2 0x30BA DUP7 PUSH4 0x4BCAFE5 PUSH1 0xE0 SHL DUP6 PUSH2 0x4A90 JUMP JUMPDEST EQ PUSH2 0x30C4 JUMPI PUSH1 0x0 DUP1 REVERT JUMPDEST PUSH1 0x0 JUMPDEST PUSH1 0xB DUP5 ADD SLOAD DUP2 LT DUP1 ISZERO PUSH2 0x30DA JUMPI POP PUSH1 0x5 DUP2 LT JUMPDEST ISZERO PUSH2 0x3193 JUMPI PUSH1 0x0 DUP5 PUSH1 0xB ADD DUP3 DUP2 SLOAD DUP2 LT PUSH2 0x30F0 JUMPI INVALID JUMPDEST SWAP1 PUSH1 0x0 MSTORE PUSH1 0x20 PUSH1 0x0 KECCAK256 ADD SWAP1 POP PUSH2 0x3104 PUSH2 0x5881 JUMP JUMPDEST PUSH2 0x310F DUP9 DUP7 DUP6 PUSH2 0x4AF2 JUMP JUMPDEST DUP3 SLOAD DUP2 MLOAD SWAP2 SWAP3 POP PUSH2 0xFFFF SWAP2 DUP3 AND SWAP2 AND EQ DUP1 ISZERO PUSH2 0x313D JUMPI POP DUP2 SLOAD PUSH1 0x20 DUP3 ADD MLOAD PUSH2 0xFFFF SWAP1 DUP2 AND PUSH3 0x10000 SWAP1 SWAP3 DIV AND EQ JUMPDEST DUP1 ISZERO PUSH2 0x315C JUMPI POP DUP2 SLOAD PUSH1 0x40 DUP3 ADD MLOAD PUSH2 0xFFFF SWAP1 DUP2 AND PUSH1 0x1 PUSH1 0x20 SHL SWAP1 SWAP3 DIV AND EQ JUMPDEST DUP1 ISZERO PUSH2 0x3180 JUMPI POP DUP2 SLOAD PUSH1 0x60 DUP3 ADD MLOAD PUSH1 0x1 PUSH1 0x1 PUSH1 0x80 SHL SUB SWAP1 DUP2 AND PUSH1 0x1 PUSH1 0x30 SHL SWAP1 SWAP3 DIV AND EQ JUMPDEST PUSH2 0x3189 JUMPI PUSH1 0x0 DUP1 REVERT JUMPDEST POP POP PUSH1 0x1 ADD PUSH2 0x30C7 JUMP JUMPDEST POP PUSH2 0x319E DUP5 NUMBER PUSH2 0x38F6 JUMP JUMPDEST PUSH2 0x31B1 DUP7 PUSH4 0xEDE38421 PUSH1 0xE0 SHL DUP6 NUMBER PUSH2 0x4B11 JUMP JUMPDEST EQ PUSH2 0x31BB JUMPI PUSH1 0x0 DUP1 REVERT JUMPDEST PUSH2 0x31C4 NUMBER PUSH2 0x32A7 JUMP JUMPDEST PUSH2 0x31D6 DUP7 PUSH4 0x64E29919 PUSH1 0xE1 SHL NUMBER PUSH2 0x4A90 JUMP JUMPDEST EQ PUSH2 0x31E0 JUMPI PUSH1 0x0 DUP1 REVERT JUMPDEST PUSH1 0x3 DUP4 ADD SLOAD PUSH3 0x10000 SWAP1 DIV PUSH1 0x1 PUSH1 0x1 PUSH1 0xA0 SHL SUB AND ISZERO PUSH2 0x2952 JUMPI PUSH1 0x3 DUP4 ADD SLOAD PUSH1 0x1 PUSH1 0x1 PUSH1 0xA0 SHL SUB PUSH3 0x10000 SWAP1 SWAP2 DIV DUP2 AND PUSH1 0x0 DUP2 DUP2 MSTORE PUSH1 0x8 PUSH1 0x20 MSTORE PUSH1 0x40 SWAP1 KECCAK256 SLOAD SWAP1 SWAP2 AND SWAP1 PUSH2 0x3236 SWAP1 DUP8 SWAP1 PUSH4 0x597759B7 PUSH1 0xE1 SHL SWAP1 PUSH2 0x4A90 JUMP JUMPDEST PUSH1 0x1 PUSH1 0x1 PUSH1 0xA0 SHL SUB AND EQ PUSH2 0x2952 JUMPI PUSH1 0x0 DUP1 REVERT JUMPDEST PUSH1 0x1 PUSH1 0x1 PUSH1 0xA0 SHL SUB DUP2 AND PUSH1 0x0 SWAP1 DUP2 MSTORE PUSH1 0x6 PUSH1 0x20 MSTORE PUSH1 0x40 DUP2 KECCAK256 PUSH1 0x1 ADD SLOAD PUSH1 0x1 PUSH1 0x30 SHL SWAP1 DIV PUSH2 0xFFFF AND PUSH2 0x3278 PUSH2 0x10F1 JUMP JUMPDEST PUSH2 0xFFFF AND LT SWAP3 SWAP2 POP POP JUMP JUMPDEST PUSH32 0x0 DUP2 JUMP JUMPDEST PUSH1 0x0 PUSH2 0x32BA PUSH1 0xA DUP4 PUSH4 0xFFFFFFFF PUSH2 0x4B2D AND JUMP JUMPDEST PUSH1 0x1 PUSH1 0x1 PUSH1 0x60 SHL SUB AND SWAP3 SWAP2 POP POP JUMP JUMPDEST PUSH32 0x0 DUP2 JUMP JUMPDEST PUSH1 0x1 PUSH1 0x1 PUSH1 0xA0 SHL SUB AND PUSH1 0x0 SWAP1 DUP2 MSTORE PUSH1 0x6 PUSH1 0x20 MSTORE PUSH1 0x40 SWAP1 KECCAK256 PUSH1 0x2 ADD SLOAD SWAP1 JUMP JUMPDEST CALLER PUSH1 0x0 SWAP1 DUP2 MSTORE PUSH1 0x6 PUSH1 0x20 MSTORE PUSH1 0x40 SWAP1 KECCAK256 SLOAD PUSH2 0x3324 JUMPI PUSH1 0x0 DUP1 REVERT JUMPDEST CALLER PUSH1 0x0 SWAP1 DUP2 MSTORE PUSH1 0x6 PUSH1 0x20 MSTORE PUSH1 0x40 SWAP1 KECCAK256 PUSH32 0x0 DUP4 LT DUP1 ISZERO SWAP1 PUSH2 0x3367 JUMPI POP PUSH1 0x0 DUP3 PUSH2 0xFFFF AND GT JUMPDEST PUSH2 0x3370 JUMPI PUSH1 0x0 DUP1 REVERT JUMPDEST PUSH1 0x0 DUP2 PUSH1 0xB ADD DUP6 DUP2 SLOAD DUP2 LT PUSH2 0x3381 JUMPI INVALID JUMPDEST SWAP1 PUSH1 0x0 MSTORE PUSH1 0x20 PUSH1 0x0 KECCAK256 ADD SWAP1 POP PUSH1 0x0 PUSH2 0x3397 PUSH2 0x10F1 JUMP JUMPDEST SWAP1 POP PUSH1 0x0 PUSH2 0x33A5 DUP5 DUP4 PUSH2 0x40BB JUMP JUMPDEST SWAP1 POP PUSH1 0x0 PUSH2 0x33B3 DUP5 DUP4 PUSH2 0x4105 JUMP JUMPDEST SWAP1 POP DUP3 PUSH2 0xFFFF AND DUP2 PUSH2 0xFFFF AND GT PUSH2 0x33FB JUMPI PUSH1 0x40 MLOAD PUSH3 0x461BCD PUSH1 0xE5 SHL DUP2 MSTORE PUSH1 0x4 ADD DUP1 DUP1 PUSH1 0x20 ADD DUP3 DUP2 SUB DUP3 MSTORE PUSH1 0x35 DUP2 MSTORE PUSH1 0x20 ADD DUP1 PUSH2 0x5912 PUSH1 0x35 SWAP2 CODECOPY PUSH1 0x40 ADD SWAP2 POP POP PUSH1 0x40 MLOAD DUP1 SWAP2 SUB SWAP1 REVERT JUMPDEST DUP4 SLOAD PUSH1 0x1 PUSH1 0x30 SHL SWAP1 DIV PUSH1 0x1 PUSH1 0x1 PUSH1 0x80 SHL SUB AND PUSH2 0x3417 DUP2 DUP10 PUSH2 0x3EC6 JUMP JUMPDEST DUP6 SLOAD PUSH1 0x1 PUSH1 0x30 SHL PUSH1 0x1 PUSH1 0xB0 SHL SUB NOT AND PUSH1 0x1 PUSH1 0x30 SHL PUSH1 0x1 PUSH1 0x1 PUSH1 0x80 SHL SUB SWAP3 DUP4 AND DUP2 MUL SWAP2 SWAP1 SWAP2 OR DUP1 DUP9 SSTORE PUSH32 0x0 SWAP2 SWAP1 DIV SWAP1 SWAP2 AND LT ISZERO PUSH2 0x3471 JUMPI PUSH1 0x0 DUP1 REVERT JUMPDEST DUP5 SLOAD PUSH1 0x0 SWAP1 PUSH2 0x348B SWAP1 PUSH1 0x1 PUSH1 0x20 SHL SWAP1 DIV PUSH2 0xFFFF AND DUP10 PUSH2 0x40A5 JUMP JUMPDEST DUP7 SLOAD SWAP1 SWAP2 POP PUSH2 0x34A3 SWAP1 DUP9 SWAP1 PUSH2 0xFFFF AND PUSH1 0x0 DUP5 DUP14 PUSH2 0x4C96 JUMP JUMPDEST PUSH1 0x40 DUP1 MLOAD DUP4 DUP2 MSTORE PUSH2 0xFFFF DUP1 DUP7 AND PUSH1 0x20 DUP4 ADD MSTORE DUP2 DUP4 ADD DUP13 SWAP1 MSTORE DUP11 AND PUSH1 0x60 DUP3 ADD MSTORE SWAP1 MLOAD CALLER SWAP2 PUSH32 0x3A1FB040A51F7112D001CD86CBB247FC8B9694D0AD1C5D3583B76CD7A9C43F75 SWAP2 SWAP1 DUP2 SWAP1 SUB PUSH1 0x80 ADD SWAP1 LOG2 DUP6 SLOAD PUSH1 0x40 DUP1 MLOAD DUP12 DUP2 MSTORE PUSH2 0xFFFF SWAP3 DUP4 AND PUSH1 0x20 DUP3 ADD MSTORE SWAP2 DUP4 AND DUP3 DUP3 ADD MSTORE MLOAD CALLER SWAP2 PUSH1 0x0 DUP1 MLOAD PUSH1 0x20 PUSH2 0x5969 DUP4 CODECOPY DUP2 MLOAD SWAP2 MSTORE SWAP2 SWAP1 DUP2 SWAP1 SUB PUSH1 0x60 ADD SWAP1 LOG2 POP POP POP POP POP POP POP POP POP POP JUMP JUMPDEST PUSH2 0x3540 DUP4 CALLER DUP5 DUP5 PUSH2 0x4232 JUMP JUMPDEST POP POP POP JUMP JUMPDEST PUSH1 0x1 SLOAD PUSH1 0x1 PUSH1 0x1 PUSH1 0xA0 SHL SUB AND DUP2 JUMP JUMPDEST PUSH32 0x0 DUP2 JUMP JUMPDEST CALLER PUSH1 0x0 SWAP1 DUP2 MSTORE PUSH1 0x6 PUSH1 0x20 MSTORE PUSH1 0x40 SWAP1 KECCAK256 SLOAD PUSH2 0x3591 JUMPI PUSH1 0x0 DUP1 REVERT JUMPDEST CALLER PUSH1 0x0 SWAP1 DUP2 MSTORE PUSH1 0x6 PUSH1 0x20 MSTORE PUSH1 0x40 SWAP1 KECCAK256 PUSH1 0x3 DUP2 ADD SLOAD PUSH1 0x1 PUSH1 0x1 PUSH1 0xA0 SHL SUB DUP4 DUP2 AND PUSH3 0x10000 SWAP1 SWAP3 DIV AND EQ ISZERO PUSH2 0x35F5 JUMPI PUSH1 0x40 MLOAD PUSH3 0x461BCD PUSH1 0xE5 SHL DUP2 MSTORE PUSH1 0x4 ADD DUP1 DUP1 PUSH1 0x20 ADD DUP3 DUP2 SUB DUP3 MSTORE PUSH1 0x33 DUP2 MSTORE PUSH1 0x20 ADD DUP1 PUSH2 0x5A63 PUSH1 0x33 SWAP2 CODECOPY PUSH1 0x40 ADD SWAP2 POP POP PUSH1 0x40 MLOAD DUP1 SWAP2 SUB SWAP1 REVERT JUMPDEST PUSH1 0x0 PUSH2 0x35FF PUSH2 0x10F1 JUMP JUMPDEST PUSH1 0x3 DUP4 ADD SLOAD SWAP1 SWAP2 POP PUSH3 0x10000 SWAP1 DIV PUSH1 0x1 PUSH1 0x1 PUSH1 0xA0 SHL SUB AND ISZERO PUSH2 0x36CB JUMPI PUSH1 0x3 DUP3 ADD SLOAD PUSH2 0x3654 SWAP1 PUSH2 0xFFFF AND PUSH32 0x0 PUSH4 0xFFFFFFFF PUSH2 0x40A5 AND JUMP JUMPDEST PUSH2 0xFFFF AND DUP2 PUSH2 0xFFFF AND LT ISZERO PUSH2 0x369A JUMPI PUSH1 0x40 MLOAD PUSH3 0x461BCD PUSH1 0xE5 SHL DUP2 MSTORE PUSH1 0x4 ADD DUP1 DUP1 PUSH1 0x20 ADD DUP3 DUP2 SUB DUP3 MSTORE PUSH1 0x3C DUP2 MSTORE PUSH1 0x20 ADD DUP1 PUSH2 0x59BC PUSH1 0x3C SWAP2 CODECOPY PUSH1 0x40 ADD SWAP2 POP POP PUSH1 0x40 MLOAD DUP1 SWAP2 SUB SWAP1 REVERT JUMPDEST PUSH1 0x3 DUP3 ADD SLOAD PUSH3 0x10000 SWAP1 DIV PUSH1 0x1 PUSH1 0x1 PUSH1 0xA0 SHL SUB AND PUSH1 0x0 SWAP1 DUP2 MSTORE PUSH1 0x8 PUSH1 0x20 MSTORE PUSH1 0x40 SWAP1 KECCAK256 DUP1 SLOAD PUSH1 0x1 PUSH1 0x1 PUSH1 0xA0 SHL SUB NOT AND SWAP1 SSTORE JUMPDEST PUSH1 0x1 PUSH1 0x1 PUSH1 0xA0 SHL SUB DUP4 AND ISZERO PUSH2 0x37DB JUMPI PUSH1 0x1 PUSH1 0x1 PUSH1 0xA0 SHL SUB DUP4 DUP2 AND PUSH1 0x0 SWAP1 DUP2 MSTORE PUSH1 0x8 PUSH1 0x20 MSTORE PUSH1 0x40 SWAP1 KECCAK256 SLOAD AND ISZERO PUSH2 0x3731 JUMPI PUSH1 0x40 MLOAD PUSH3 0x461BCD PUSH1 0xE5 SHL DUP2 MSTORE PUSH1 0x4 ADD DUP1 DUP1 PUSH1 0x20 ADD DUP3 DUP2 SUB DUP3 MSTORE PUSH1 0x22 DUP2 MSTORE PUSH1 0x20 ADD DUP1 PUSH2 0x5947 PUSH1 0x22 SWAP2 CODECOPY PUSH1 0x40 ADD SWAP2 POP POP PUSH1 0x40 MLOAD DUP1 SWAP2 SUB SWAP1 REVERT JUMPDEST PUSH1 0x1 PUSH1 0x1 PUSH1 0xA0 SHL SUB DUP4 AND PUSH1 0x0 SWAP1 DUP2 MSTORE PUSH1 0x6 PUSH1 0x20 MSTORE PUSH1 0x40 SWAP1 KECCAK256 PUSH1 0xB ADD SLOAD ISZERO DUP1 PUSH2 0x3761 JUMPI POP PUSH1 0x1 PUSH1 0x1 PUSH1 0xA0 SHL SUB DUP4 AND CALLER EQ JUMPDEST PUSH2 0x37B2 JUMPI PUSH1 0x40 DUP1 MLOAD PUSH3 0x461BCD PUSH1 0xE5 SHL DUP2 MSTORE PUSH1 0x20 PUSH1 0x4 DUP3 ADD MSTORE PUSH1 0x1C PUSH1 0x24 DUP3 ADD MSTORE PUSH32 0x53706563696669656420776F726B65722069732061207374616B657200000000 PUSH1 0x44 DUP3 ADD MSTORE SWAP1 MLOAD SWAP1 DUP2 SWAP1 SUB PUSH1 0x64 ADD SWAP1 REVERT JUMPDEST PUSH1 0x1 PUSH1 0x1 PUSH1 0xA0 SHL SUB DUP4 AND PUSH1 0x0 SWAP1 DUP2 MSTORE PUSH1 0x8 PUSH1 0x20 MSTORE PUSH1 0x40 SWAP1 KECCAK256 DUP1 SLOAD PUSH1 0x1 PUSH1 0x1 PUSH1 0xA0 SHL SUB NOT AND CALLER OR SWAP1 SSTORE JUMPDEST PUSH1 0x3 DUP3 ADD DUP1 SLOAD PUSH2 0xFFFF DUP4 AND PUSH2 0xFFFF NOT PUSH1 0x1 PUSH1 0x1 PUSH1 0xA0 SHL SUB DUP8 AND PUSH3 0x10000 DUP2 MUL PUSH3 0x10000 PUSH1 0x1 PUSH1 0xB0 SHL SUB NOT SWAP1 SWAP5 AND SWAP4 SWAP1 SWAP4 OR AND DUP2 OR SWAP1 SWAP3 SSTORE PUSH1 0x40 MLOAD CALLER SWAP1 PUSH32 0xF8090974DCC1DFC27F6B0617A0938ED403577A94639791DB59CDCC9B52B8EA1F SWAP1 PUSH1 0x0 SWAP1 LOG4 POP POP POP JUMP JUMPDEST PUSH1 0xA DUP2 DUP2 SLOAD DUP2 LT PUSH2 0x384F JUMPI INVALID JUMPDEST SWAP1 PUSH1 0x0 MSTORE PUSH1 0x20 PUSH1 0x0 KECCAK256 SWAP1 PUSH1 0x2 SWAP2 DUP3 DUP3 DIV ADD SWAP2 SWAP1 MOD PUSH1 0x10 MUL SWAP2 POP SLOAD SWAP1 PUSH2 0x100 EXP SWAP1 DIV PUSH1 0x1 PUSH1 0x1 PUSH1 0x80 SHL SUB AND DUP2 JUMP JUMPDEST PUSH1 0x2 SLOAD PUSH1 0x1 PUSH1 0xA0 SHL SWAP1 DIV PUSH1 0xFF AND DUP2 JUMP JUMPDEST PUSH2 0x3895 DUP2 PUSH2 0x4E6D JUMP JUMPDEST POP PUSH1 0x0 DUP1 MSTORE PUSH1 0x6F PUSH32 0xEC8156718A8372B1DB44BB411437D0870F3E3790D4A08526D024CE1B0B668F6B SSTORE PUSH1 0x8 PUSH1 0x20 MSTORE PUSH32 0x5EFF886EA0CE6CA488A3D6E336D6C0F75F46D19B42C06CE5EE98E42C96D256C7 DUP1 SLOAD PUSH1 0x1 PUSH1 0x1 PUSH1 0xA0 SHL SUB NOT AND ADDRESS OR SWAP1 SSTORE JUMP JUMPDEST PUSH1 0x1 PUSH1 0x1 PUSH1 0xA0 SHL SUB DUP3 AND PUSH1 0x0 SWAP1 DUP2 MSTORE PUSH1 0x6 PUSH1 0x20 MSTORE PUSH1 0x40 DUP2 KECCAK256 PUSH2 0x3921 SWAP1 PUSH1 0xC ADD DUP4 PUSH4 0xFFFFFFFF PUSH2 0x4B2D AND JUMP JUMPDEST PUSH1 0x1 PUSH1 0x1 PUSH1 0x60 SHL SUB AND SWAP4 SWAP3 POP POP POP JUMP JUMPDEST PUSH2 0x393A CALLER PUSH2 0x3249 JUMP JUMPDEST ISZERO DUP1 ISZERO PUSH2 0x3955 JUMPI POP PUSH2 0x394A PUSH2 0x10F1 JUMP JUMPDEST PUSH2 0xFFFF AND DUP2 PUSH2 0xFFFF AND GT JUMPDEST PUSH2 0x395E JUMPI PUSH1 0x0 DUP1 REVERT JUMPDEST CALLER PUSH1 0x0 DUP2 DUP2 MSTORE PUSH1 0x6 PUSH1 0x20 SWAP1 DUP2 MSTORE PUSH1 0x40 SWAP2 DUP3 SWAP1 KECCAK256 PUSH1 0x1 ADD DUP1 SLOAD PUSH8 0xFFFF000000000000 NOT AND PUSH1 0x1 PUSH1 0x30 SHL PUSH2 0xFFFF DUP8 AND SWAP1 DUP2 MUL SWAP2 SWAP1 SWAP2 OR SWAP1 SWAP2 SSTORE DUP3 MLOAD SWAP1 DUP2 MSTORE SWAP2 MLOAD PUSH32 0x290A5B657C05AEC4C02FB52B21644F6470BB4C6D37831F2295C247452A207489 SWAP3 DUP2 SWAP1 SUB SWAP1 SWAP2 ADD SWAP1 LOG2 POP JUMP JUMPDEST PUSH1 0x9 PUSH1 0x20 MSTORE PUSH1 0x0 SWAP1 DUP2 MSTORE PUSH1 0x40 SWAP1 KECCAK256 SLOAD DUP2 JUMP JUMPDEST PUSH1 0x5 SLOAD PUSH2 0xFFFF AND PUSH2 0x39EB JUMPI PUSH1 0x0 DUP1 REVERT JUMPDEST PUSH2 0x3A26 PUSH1 0x1 PUSH1 0x1 PUSH1 0xA0 SHL SUB PUSH32 0x0 AND CALLER ADDRESS DUP5 PUSH4 0xFFFFFFFF PUSH2 0x419C AND JUMP JUMPDEST PUSH2 0x3A2F DUP2 PUSH2 0x49A3 JUMP JUMPDEST PUSH1 0x40 DUP1 MLOAD DUP3 DUP2 MSTORE SWAP1 MLOAD CALLER SWAP2 PUSH32 0x2A01595CDDF097C90216094025DB714DA3F4E5BD8877B56BA86A24ECEAD8E543 SWAP2 SWAP1 DUP2 SWAP1 SUB PUSH1 0x20 ADD SWAP1 LOG2 POP JUMP JUMPDEST PUSH2 0x3A70 PUSH2 0x2331 JUMP JUMPDEST PUSH2 0x3A79 JUMPI PUSH1 0x0 DUP1 REVERT JUMPDEST PUSH2 0x10CC DUP2 PUSH2 0x4EC7 JUMP JUMPDEST PUSH32 0x0 DUP2 JUMP JUMPDEST PUSH32 0x0 DUP2 JUMP JUMPDEST PUSH1 0x7 DUP2 DUP2 SLOAD DUP2 LT PUSH2 0x3AD7 JUMPI INVALID JUMPDEST PUSH1 0x0 SWAP2 DUP3 MSTORE PUSH1 0x20 SWAP1 SWAP2 KECCAK256 ADD SLOAD PUSH1 0x1 PUSH1 0x1 PUSH1 0xA0 SHL SUB AND SWAP1 POP DUP2 JUMP JUMPDEST PUSH2 0x3AF9 PUSH2 0x2331 JUMP JUMPDEST PUSH2 0x3B02 JUMPI PUSH1 0x0 DUP1 REVERT JUMPDEST PUSH1 0x5 SLOAD PUSH2 0xFFFF AND ISZERO PUSH2 0x3B13 JUMPI PUSH1 0x0 DUP1 REVERT JUMPDEST DUP1 PUSH32 0x0 GT ISZERO PUSH2 0x3B40 JUMPI PUSH1 0x0 DUP1 REVERT JUMPDEST PUSH2 0x3B48 PUSH2 0x10F1 JUMP JUMPDEST PUSH1 0x5 DUP1 SLOAD PUSH2 0xFFFF NOT AND PUSH2 0xFFFF SWAP3 SWAP1 SWAP3 AND SWAP2 SWAP1 SWAP2 OR SWAP1 SSTORE PUSH1 0x4 DUP1 SLOAD PUSH1 0x1 PUSH1 0x80 SHL PUSH1 0x1 PUSH1 0x1 PUSH1 0x80 SHL SUB SWAP2 DUP3 AND PUSH32 0x0 DUP6 SWAP1 SUB DUP4 AND DUP3 MUL OR SWAP1 DUP2 DIV SWAP1 SWAP2 AND PUSH1 0x1 PUSH1 0x1 PUSH1 0x80 SHL SUB NOT SWAP1 SWAP2 AND OR SWAP1 SSTORE PUSH2 0x3BE5 PUSH32 0x0 PUSH1 0x1 PUSH1 0x1 PUSH1 0xA0 SHL SUB AND CALLER ADDRESS DUP5 PUSH2 0x419C JUMP JUMPDEST PUSH1 0x40 DUP1 MLOAD DUP3 DUP2 MSTORE SWAP1 MLOAD PUSH32 0xBE9B076DC5B65990CCA9DD9D7366682482E7817A6F6BC7F4FAF4DC32AF497F32 SWAP2 DUP2 SWAP1 SUB PUSH1 0x20 ADD SWAP1 LOG1 POP JUMP JUMPDEST PUSH1 0xFF AND SHR PUSH1 0x1 SWAP1 DUP2 AND EQ SWAP1 JUMP JUMPDEST PUSH1 0x1 PUSH1 0xFF SWAP2 SWAP1 SWAP2 AND SHL XOR SWAP1 JUMP JUMPDEST PUSH1 0x0 PUSH2 0x3C3F PUSH2 0x10F1 JUMP JUMPDEST PUSH1 0x1 PUSH1 0x1 PUSH1 0xA0 SHL SUB DUP4 AND PUSH1 0x0 SWAP1 DUP2 MSTORE PUSH1 0x6 PUSH1 0x20 MSTORE PUSH1 0x40 SWAP1 KECCAK256 PUSH1 0x1 DUP2 ADD SLOAD SWAP2 SWAP3 POP PUSH1 0x0 NOT DUP4 ADD SWAP2 PUSH3 0x10000 SWAP1 DIV PUSH2 0xFFFF AND ISZERO DUP1 PUSH2 0x3C9C JUMPI POP PUSH1 0x1 DUP2 ADD SLOAD PUSH2 0xFFFF AND ISZERO DUP1 ISZERO PUSH2 0x3C9C JUMPI POP PUSH1 0x1 DUP2 ADD SLOAD PUSH2 0xFFFF DUP1 DUP5 AND PUSH3 0x10000 SWAP1 SWAP3 DIV AND GT JUMPDEST DUP1 PUSH2 0x3CB1 JUMPI POP PUSH1 0x1 DUP2 ADD SLOAD PUSH2 0xFFFF DUP1 DUP5 AND SWAP2 AND GT JUMPDEST ISZERO PUSH2 0x3CBE JUMPI POP POP POP PUSH2 0x10CC JUMP JUMPDEST PUSH1 0x0 PUSH2 0x3CCA DUP3 DUP6 PUSH2 0x40BB JUMP JUMPDEST PUSH1 0x4 DUP4 ADD SLOAD SWAP1 SWAP2 POP PUSH1 0x0 SWAP1 DUP2 SWAP1 PUSH2 0x3CE7 SWAP1 DUP3 PUSH4 0xFFFFFFFF PUSH2 0x3C1B AND JUMP JUMPDEST PUSH1 0x1 DUP6 ADD SLOAD SWAP1 ISZERO SWAP2 POP PUSH2 0xFFFF AND ISZERO PUSH2 0x3D4B JUMPI PUSH1 0x1 DUP5 ADD SLOAD PUSH2 0x3D12 SWAP1 DUP9 SWAP1 DUP7 SWAP1 PUSH2 0xFFFF AND DUP10 DUP8 DUP7 PUSH2 0x4F35 JUMP JUMPDEST PUSH1 0x1 DUP6 ADD DUP1 SLOAD PUSH2 0xFFFF NOT AND SWAP1 SSTORE SWAP2 POP DUP1 ISZERO PUSH2 0x3D4B JUMPI PUSH1 0x1 DUP5 ADD SLOAD PUSH3 0x10000 SWAP1 DIV PUSH2 0xFFFF AND PUSH1 0x0 SWAP1 DUP2 MSTORE PUSH1 0x9 PUSH1 0x20 MSTORE PUSH1 0x40 SWAP1 KECCAK256 DUP1 SLOAD DUP4 ADD SWAP1 SSTORE JUMPDEST PUSH1 0x1 DUP5 ADD SLOAD PUSH2 0xFFFF DUP1 DUP8 AND PUSH3 0x10000 SWAP1 SWAP3 DIV AND GT PUSH2 0x3D97 JUMPI PUSH2 0x3D83 DUP8 DUP6 DUP7 PUSH1 0x1 ADD PUSH1 0x2 SWAP1 SLOAD SWAP1 PUSH2 0x100 EXP SWAP1 DIV PUSH2 0xFFFF AND DUP10 DUP8 DUP7 PUSH2 0x4F35 JUMP JUMPDEST PUSH1 0x1 DUP6 ADD DUP1 SLOAD PUSH4 0xFFFF0000 NOT AND SWAP1 SSTORE SWAP1 SWAP2 ADD SWAP1 JUMPDEST DUP4 SLOAD DUP3 ADD DUP5 SSTORE PUSH1 0x4 DUP5 ADD SLOAD PUSH2 0x3DB3 SWAP1 PUSH1 0x2 PUSH4 0xFFFFFFFF PUSH2 0x3C1B AND JUMP JUMPDEST ISZERO PUSH2 0x3DC3 JUMPI PUSH1 0x2 DUP5 ADD DUP1 SLOAD DUP4 ADD SWAP1 SSTORE JUMPDEST PUSH2 0x3DCD DUP5 DUP4 PUSH2 0x3EDB JUMP JUMPDEST PUSH1 0x40 DUP1 MLOAD DUP4 DUP2 MSTORE SWAP1 MLOAD PUSH2 0xFFFF DUP8 AND SWAP2 PUSH1 0x1 PUSH1 0x1 PUSH1 0xA0 SHL SUB DUP11 AND SWAP2 PUSH32 0x262AB020CB638B76C90BA54EBB8EC0A4FF4412B8D6777F1EDC4C23D6644A88CD SWAP2 DUP2 SWAP1 SUB PUSH1 0x20 ADD SWAP1 LOG3 POP POP POP POP POP POP POP JUMP JUMPDEST PUSH1 0x0 DUP1 PUSH2 0x3E27 DUP6 DUP6 PUSH2 0x40BB JUMP JUMPDEST SWAP1 POP PUSH1 0x0 JUMPDEST PUSH1 0xB DUP7 ADD SLOAD DUP2 LT ISZERO PUSH2 0x3EA6 JUMPI PUSH1 0x0 DUP7 PUSH1 0xB ADD DUP3 DUP2 SLOAD DUP2 LT PUSH2 0x3E49 JUMPI INVALID JUMPDEST PUSH1 0x0 SWAP2 DUP3 MSTORE PUSH1 0x20 SWAP1 SWAP2 KECCAK256 ADD DUP1 SLOAD SWAP1 SWAP2 POP PUSH2 0xFFFF DUP1 DUP8 AND SWAP2 AND GT DUP1 ISZERO SWAP1 PUSH2 0x3E80 JUMPI POP DUP5 PUSH2 0xFFFF AND PUSH2 0x3E79 DUP3 DUP6 PUSH2 0x4105 JUMP JUMPDEST PUSH2 0xFFFF AND LT ISZERO JUMPDEST ISZERO PUSH2 0x3E9D JUMPI DUP1 SLOAD PUSH1 0x1 PUSH1 0x30 SHL SWAP1 DIV PUSH1 0x1 PUSH1 0x1 PUSH1 0x80 SHL SUB AND SWAP4 SWAP1 SWAP4 ADD SWAP3 JUMPDEST POP PUSH1 0x1 ADD PUSH2 0x3E2C JUMP JUMPDEST POP POP SWAP4 SWAP3 POP POP POP JUMP JUMPDEST PUSH1 0x0 DUP2 DUP4 LT ISZERO PUSH2 0x3EBF JUMPI DUP2 PUSH2 0x29AF JUMP JUMPDEST POP SWAP1 SWAP2 SWAP1 POP JUMP JUMPDEST PUSH1 0x0 DUP3 DUP3 GT ISZERO PUSH2 0x3ED5 JUMPI PUSH1 0x0 DUP1 REVERT JUMPDEST POP SWAP1 SUB SWAP1 JUMP JUMPDEST PUSH1 0x4 DUP3 ADD SLOAD PUSH2 0x3EF1 SWAP1 PUSH1 0x3 PUSH4 0xFFFFFFFF PUSH2 0x3C1B AND JUMP JUMPDEST PUSH2 0x11CA JUMPI DUP2 SLOAD PUSH2 0x3F0B SWAP1 PUSH1 0xC DUP5 ADD SWAP1 PUSH4 0xFFFFFFFF PUSH2 0x417D AND JUMP JUMPDEST PUSH1 0x0 PUSH2 0x3F17 PUSH1 0xA PUSH2 0x4188 JUMP JUMPDEST PUSH1 0x1 PUSH1 0x1 PUSH1 0x60 SHL SUB AND SWAP1 POP PUSH2 0x3540 PUSH2 0x3F35 DUP3 DUP5 PUSH4 0xFFFFFFFF PUSH2 0x5099 AND JUMP JUMPDEST PUSH1 0xA SWAP1 PUSH4 0xFFFFFFFF PUSH2 0x417D AND JUMP JUMPDEST DUP3 PUSH1 0x1 PUSH1 0x1 PUSH1 0xA0 SHL SUB AND PUSH4 0xA9059CBB DUP4 DUP4 PUSH1 0x40 MLOAD DUP4 PUSH4 0xFFFFFFFF AND PUSH1 0xE0 SHL DUP2 MSTORE PUSH1 0x4 ADD DUP1 DUP4 PUSH1 0x1 PUSH1 0x1 PUSH1 0xA0 SHL SUB AND PUSH1 0x1 PUSH1 0x1 PUSH1 0xA0 SHL SUB AND DUP2 MSTORE PUSH1 0x20 ADD DUP3 DUP2 MSTORE PUSH1 0x20 ADD SWAP3 POP POP POP PUSH1 0x20 PUSH1 0x40 MLOAD DUP1 DUP4 SUB DUP2 PUSH1 0x0 DUP8 DUP1 EXTCODESIZE ISZERO DUP1 ISZERO PUSH2 0x3FA3 JUMPI PUSH1 0x0 DUP1 REVERT JUMPDEST POP GAS CALL ISZERO DUP1 ISZERO PUSH2 0x3FB7 JUMPI RETURNDATASIZE PUSH1 0x0 DUP1 RETURNDATACOPY RETURNDATASIZE PUSH1 0x0 REVERT JUMPDEST POP POP POP POP PUSH1 0x40 MLOAD RETURNDATASIZE PUSH1 0x20 DUP2 LT ISZERO PUSH2 0x3FCD JUMPI PUSH1 0x0 DUP1 REVERT JUMPDEST POP MLOAD PUSH2 0x3540 JUMPI PUSH1 0x0 DUP1 REVERT JUMPDEST PUSH1 0x4 DUP3 ADD SLOAD PUSH2 0x3FEE SWAP1 PUSH1 0x1 PUSH4 0xFFFFFFFF PUSH2 0x3C1B AND JUMP JUMPDEST PUSH2 0x3FF7 JUMPI PUSH2 0x11CA JUMP JUMPDEST PUSH1 0x0 JUMPDEST PUSH1 0xB DUP4 ADD SLOAD DUP2 LT ISZERO PUSH2 0x3540 JUMPI PUSH1 0x0 DUP4 PUSH1 0xB ADD DUP3 DUP2 SLOAD DUP2 LT PUSH2 0x4017 JUMPI INVALID JUMPDEST PUSH1 0x0 SWAP2 DUP3 MSTORE PUSH1 0x20 SWAP1 SWAP2 KECCAK256 ADD DUP1 SLOAD SWAP1 SWAP2 POP PUSH3 0x10000 SWAP1 DIV PUSH2 0xFFFF AND ISZERO ISZERO DUP1 PUSH2 0x4048 JUMPI POP DUP1 SLOAD PUSH1 0x1 PUSH1 0x20 SHL SWAP1 DIV PUSH2 0xFFFF AND ISZERO JUMPDEST ISZERO PUSH2 0x4053 JUMPI POP PUSH2 0x409D JUMP JUMPDEST DUP1 SLOAD PUSH1 0x0 NOT PUSH2 0xFFFF PUSH1 0x1 PUSH1 0x20 SHL DUP1 DUP5 DIV DUP3 AND SWAP3 SWAP1 SWAP3 ADD DUP2 AND DUP3 MUL PUSH2 0xFFFF PUSH1 0x20 SHL NOT SWAP1 SWAP4 AND SWAP3 SWAP1 SWAP3 OR DUP1 DUP5 SSTORE DIV AND PUSH2 0x409B JUMPI DUP1 SLOAD PUSH4 0xFFFF0000 NOT AND PUSH3 0x10000 PUSH2 0xFFFF DUP6 AND MUL OR DUP2 SSTORE JUMPDEST POP JUMPDEST PUSH1 0x1 ADD PUSH2 0x3FFA JUMP JUMPDEST PUSH1 0x0 DUP3 DUP3 ADD PUSH2 0xFFFF DUP1 DUP6 AND SWAP1 DUP3 AND LT ISZERO PUSH2 0x29AF JUMPI INVALID JUMPDEST PUSH1 0x4 DUP3 ADD SLOAD PUSH1 0x0 SWAP1 PUSH2 0x40D4 SWAP1 PUSH1 0x1 PUSH4 0xFFFFFFFF PUSH2 0x3C1B AND JUMP JUMPDEST DUP1 ISZERO PUSH2 0x40F0 JUMPI POP PUSH1 0x1 DUP4 ADD SLOAD PUSH2 0xFFFF DUP1 DUP5 AND PUSH3 0x10000 SWAP1 SWAP3 DIV AND GT JUMPDEST ISZERO PUSH2 0x40FF JUMPI POP PUSH1 0x1 DUP2 ADD PUSH2 0x1893 JUMP JUMPDEST POP SWAP2 SWAP1 POP JUMP JUMPDEST DUP2 SLOAD PUSH1 0x0 SWAP1 PUSH3 0x10000 SWAP1 DIV PUSH2 0xFFFF AND ISZERO PUSH2 0x412B JUMPI POP DUP2 SLOAD PUSH3 0x10000 SWAP1 DIV PUSH2 0xFFFF AND PUSH2 0x1893 JUMP JUMPDEST DUP3 SLOAD PUSH1 0x1 PUSH1 0x20 SHL SWAP1 DIV PUSH2 0xFFFF SWAP1 DUP2 AND DUP4 DUP3 AND ADD SWAP1 PUSH4 0xFFFFFFFF DUP3 AND GT ISZERO PUSH2 0x29AF JUMPI PUSH2 0xFFFF SWAP2 POP POP PUSH2 0x1893 JUMP JUMPDEST PUSH1 0x0 DUP3 PUSH2 0xFFFF AND DUP3 PUSH2 0xFFFF AND GT ISZERO PUSH2 0x3ED5 JUMPI INVALID JUMPDEST PUSH1 0x0 DUP3 DUP3 ADD DUP4 DUP2 LT ISZERO PUSH2 0x29AF JUMPI PUSH1 0x0 DUP1 REVERT JUMPDEST PUSH2 0x11CA DUP3 NUMBER DUP4 PUSH2 0x50CD JUMP JUMPDEST PUSH1 0x0 DUP1 PUSH2 0x4194 DUP4 PUSH2 0x51C4 JUMP JUMPDEST SWAP5 SWAP4 POP POP POP POP JUMP JUMPDEST PUSH1 0x40 DUP1 MLOAD PUSH4 0x23B872DD PUSH1 0xE0 SHL DUP2 MSTORE PUSH1 0x1 PUSH1 0x1 PUSH1 0xA0 SHL SUB DUP6 DUP2 AND PUSH1 0x4 DUP4 ADD MSTORE DUP5 DUP2 AND PUSH1 0x24 DUP4 ADD MSTORE PUSH1 0x44 DUP3 ADD DUP5 SWAP1 MSTORE SWAP2 MLOAD SWAP2 DUP7 AND SWAP2 PUSH4 0x23B872DD SWAP2 PUSH1 0x64 DUP1 DUP3 ADD SWAP3 PUSH1 0x20 SWAP3 SWAP1 SWAP2 SWAP1 DUP3 SWAP1 SUB ADD DUP2 PUSH1 0x0 DUP8 DUP1 EXTCODESIZE ISZERO DUP1 ISZERO PUSH2 0x41F7 JUMPI PUSH1 0x0 DUP1 REVERT JUMPDEST POP GAS CALL ISZERO DUP1 ISZERO PUSH2 0x420B JUMPI RETURNDATASIZE PUSH1 0x0 DUP1 RETURNDATACOPY RETURNDATASIZE PUSH1 0x0 REVERT JUMPDEST POP POP POP POP PUSH1 0x40 MLOAD RETURNDATASIZE PUSH1 0x20 DUP2 LT ISZERO PUSH2 0x4221 JUMPI PUSH1 0x0 DUP1 REVERT JUMPDEST POP MLOAD PUSH2 0x422C JUMPI PUSH1 0x0 DUP1 REVERT JUMPDEST POP POP POP POP JUMP JUMPDEST DUP2 PUSH2 0x423C JUMPI PUSH1 0x0 DUP1 REVERT JUMPDEST PUSH1 0x1 PUSH1 0x1 PUSH1 0xA0 SHL SUB DUP1 DUP6 AND PUSH1 0x0 SWAP1 DUP2 MSTORE PUSH1 0x6 PUSH1 0x20 SWAP1 DUP2 MSTORE PUSH1 0x40 DUP1 DUP4 KECCAK256 PUSH1 0x8 SWAP1 SWAP3 MSTORE SWAP1 SWAP2 KECCAK256 SLOAD SWAP1 SWAP2 AND ISZERO DUP1 PUSH2 0x4296 JUMPI POP PUSH1 0x3 DUP2 ADD SLOAD PUSH1 0x1 PUSH1 0x1 PUSH1 0xA0 SHL SUB DUP7 DUP2 AND PUSH1 0x0 SWAP1 DUP2 MSTORE PUSH1 0x8 PUSH1 0x20 MSTORE PUSH1 0x40 SWAP1 KECCAK256 SLOAD DUP2 AND PUSH3 0x10000 SWAP1 SWAP3 DIV AND EQ JUMPDEST PUSH2 0x42D1 JUMPI PUSH1 0x40 MLOAD PUSH3 0x461BCD PUSH1 0xE5 SHL DUP2 MSTORE PUSH1 0x4 ADD DUP1 DUP1 PUSH1 0x20 ADD DUP3 DUP2 SUB DUP3 MSTORE PUSH1 0x2D DUP2 MSTORE PUSH1 0x20 ADD DUP1 PUSH2 0x5A36 PUSH1 0x2D SWAP2 CODECOPY PUSH1 0x40 ADD SWAP2 POP POP PUSH1 0x40 MLOAD DUP1 SWAP2 SUB SWAP1 REVERT JUMPDEST PUSH1 0xB DUP2 ADD SLOAD PUSH2 0x43B1 JUMPI PUSH1 0x7 DUP1 SLOAD PUSH1 0x1 DUP1 DUP3 ADD DUP4 SSTORE PUSH1 0x0 SWAP3 SWAP1 SWAP3 MSTORE PUSH32 0xA66CC928B5EDB82AF9BD49922954155AB7B0942694BEA4CE44661D9A8736C688 ADD DUP1 SLOAD PUSH1 0x1 PUSH1 0x1 PUSH1 0xA0 SHL SUB NOT AND PUSH1 0x1 PUSH1 0x1 PUSH1 0xA0 SHL SUB DUP9 DUP2 AND SWAP2 SWAP1 SWAP2 OR SWAP1 SWAP2 SSTORE PUSH1 0xB SLOAD AND SWAP1 PUSH4 0x72BE8D8D SWAP1 DUP8 SWAP1 PUSH2 0x4340 PUSH2 0x10F1 JUMP JUMPDEST SUB PUSH1 0x40 MLOAD DUP4 PUSH4 0xFFFFFFFF AND PUSH1 0xE0 SHL DUP2 MSTORE PUSH1 0x4 ADD DUP1 DUP4 PUSH1 0x1 PUSH1 0x1 PUSH1 0xA0 SHL SUB AND PUSH1 0x1 PUSH1 0x1 PUSH1 0xA0 SHL SUB AND DUP2 MSTORE PUSH1 0x20 ADD DUP3 PUSH2 0xFFFF AND PUSH2 0xFFFF AND DUP2 MSTORE PUSH1 0x20 ADD SWAP3 POP POP POP PUSH1 0x0 PUSH1 0x40 MLOAD DUP1 DUP4 SUB DUP2 PUSH1 0x0 DUP8 DUP1 EXTCODESIZE ISZERO DUP1 ISZERO PUSH2 0x4398 JUMPI PUSH1 0x0 DUP1 REVERT JUMPDEST POP GAS CALL ISZERO DUP1 ISZERO PUSH2 0x43AC JUMPI RETURNDATASIZE PUSH1 0x0 DUP1 RETURNDATACOPY RETURNDATASIZE PUSH1 0x0 REVERT JUMPDEST POP POP POP POP JUMPDEST PUSH2 0x43EC PUSH1 0x1 PUSH1 0x1 PUSH1 0xA0 SHL SUB PUSH32 0x0 AND DUP6 ADDRESS DUP7 PUSH4 0xFFFFFFFF PUSH2 0x419C AND JUMP JUMPDEST DUP1 SLOAD DUP4 ADD DUP2 SSTORE PUSH2 0x43FD DUP6 DUP5 DUP5 PUSH2 0x4454 JUMP JUMPDEST PUSH2 0x4407 DUP2 DUP5 PUSH2 0x3EDB JUMP JUMPDEST PUSH1 0x40 DUP1 MLOAD DUP5 DUP2 MSTORE PUSH2 0xFFFF DUP5 AND PUSH1 0x20 DUP3 ADD MSTORE DUP2 MLOAD PUSH1 0x1 PUSH1 0x1 PUSH1 0xA0 SHL SUB DUP9 AND SWAP3 PUSH32 0xEEF72C2775E4E59D04B76FE99649C70B0101DBC951CE46A5A6262A6CBC138E90 SWAP3 DUP3 SWAP1 SUB ADD SWAP1 LOG2 POP POP POP POP POP JUMP JUMPDEST PUSH32 0x0 DUP3 LT ISZERO DUP1 ISZERO PUSH2 0x44AC JUMPI POP PUSH32 0x0 PUSH2 0xFFFF AND DUP2 PUSH2 0xFFFF AND LT ISZERO JUMPDEST PUSH2 0x44B5 JUMPI PUSH1 0x0 DUP1 REVERT JUMPDEST PUSH1 0x0 PUSH2 0x44BF PUSH2 0x10F1 JUMP JUMPDEST PUSH1 0x1 PUSH1 0x1 PUSH1 0xA0 SHL SUB DUP6 AND PUSH1 0x0 SWAP1 DUP2 MSTORE PUSH1 0x6 PUSH1 0x20 MSTORE PUSH1 0x40 DUP2 KECCAK256 SWAP2 SWAP3 POP PUSH1 0x1 DUP4 ADD SWAP2 SWAP1 PUSH2 0x44EB DUP3 DUP6 DUP6 PUSH2 0x3E1A JUMP JUMPDEST SWAP1 POP PUSH1 0x0 PUSH2 0x44FF DUP8 DUP4 PUSH4 0xFFFFFFFF PUSH2 0x416B AND JUMP JUMPDEST DUP4 SLOAD SWAP1 SWAP2 POP DUP2 GT DUP1 ISZERO SWAP1 PUSH2 0x4533 JUMPI POP PUSH32 0x0 DUP2 GT ISZERO JUMPDEST PUSH2 0x453C JUMPI PUSH1 0x0 DUP1 REVERT JUMPDEST PUSH1 0x1 DUP4 ADD SLOAD DUP7 SWAP1 PUSH2 0xFFFF DUP7 DUP2 AND PUSH3 0x10000 SWAP1 SWAP3 DIV AND EQ ISZERO PUSH2 0x45D0 JUMPI PUSH1 0x4 DUP5 ADD SLOAD PUSH2 0x456D SWAP1 PUSH1 0x1 PUSH4 0xFFFFFFFF PUSH2 0x3C1B AND JUMP JUMPDEST ISZERO PUSH2 0x4577 JUMPI PUSH1 0x0 NOT ADD JUMPDEST PUSH2 0xFFFF DUP6 AND PUSH1 0x0 DUP2 DUP2 MSTORE PUSH1 0x9 PUSH1 0x20 SWAP1 DUP2 MSTORE PUSH1 0x40 SWAP2 DUP3 SWAP1 KECCAK256 DUP1 SLOAD DUP13 ADD SWAP1 SSTORE DUP2 MLOAD DUP12 DUP2 MSTORE SWAP2 MLOAD PUSH1 0x1 PUSH1 0x1 PUSH1 0xA0 SHL SUB DUP14 AND SWAP3 PUSH32 0x6E826CFD4B2F0D3E70085110FF45FC6023AAA1EF2CD87F58F574AEE310489EBC SWAP3 SWAP1 DUP3 SWAP1 SUB ADD SWAP1 LOG3 JUMPDEST PUSH2 0x45DE DUP5 DUP7 PUSH1 0x0 DUP5 DUP13 PUSH2 0x4C96 JUMP JUMPDEST PUSH1 0x40 DUP1 MLOAD DUP10 DUP2 MSTORE PUSH2 0xFFFF DUP1 DUP9 AND PUSH1 0x20 DUP4 ADD MSTORE DUP10 AND DUP2 DUP4 ADD MSTORE SWAP1 MLOAD PUSH1 0x1 PUSH1 0x1 PUSH1 0xA0 SHL SUB DUP12 AND SWAP2 PUSH1 0x0 DUP1 MLOAD PUSH1 0x20 PUSH2 0x5969 DUP4 CODECOPY DUP2 MLOAD SWAP2 MSTORE SWAP2 SWAP1 DUP2 SWAP1 SUB PUSH1 0x60 ADD SWAP1 LOG2 POP POP POP POP POP POP POP POP POP JUMP JUMPDEST PUSH1 0x0 DUP1 DUP1 PUSH1 0x1E PUSH2 0xFFFF DUP1 DUP4 JUMPDEST PUSH1 0xB DUP12 ADD SLOAD DUP2 LT ISZERO PUSH2 0x47B7 JUMPI PUSH1 0x0 DUP12 PUSH1 0xB ADD DUP3 DUP2 SLOAD DUP2 LT PUSH2 0x4650 JUMPI INVALID JUMPDEST SWAP1 PUSH1 0x0 MSTORE PUSH1 0x20 PUSH1 0x0 KECCAK256 ADD SWAP1 POP PUSH1 0x0 PUSH2 0x4668 DUP3 DUP12 PUSH2 0x4105 JUMP JUMPDEST DUP3 SLOAD SWAP1 SWAP2 POP PUSH2 0xFFFF SWAP1 DUP2 AND SWAP1 DUP3 AND LT ISZERO PUSH2 0x4683 JUMPI POP POP PUSH2 0x47AF JUMP JUMPDEST DUP2 SLOAD PUSH2 0xFFFF DUP1 DUP15 AND SWAP2 AND GT DUP1 ISZERO SWAP1 PUSH2 0x46A3 JUMPI POP DUP11 PUSH2 0xFFFF AND DUP2 PUSH2 0xFFFF AND LT ISZERO JUMPDEST ISZERO PUSH2 0x46C4 JUMPI DUP2 SLOAD PUSH1 0x1 PUSH1 0x30 SHL SWAP1 DIV PUSH1 0x1 PUSH1 0x1 PUSH1 0x80 SHL SUB AND SWAP7 SWAP1 SWAP7 ADD SWAP6 PUSH2 0x4742 JUMP JUMPDEST DUP2 SLOAD PUSH2 0xFFFF DUP1 DUP15 AND SWAP2 AND GT DUP1 ISZERO SWAP1 PUSH2 0x46E4 JUMPI POP DUP12 PUSH2 0xFFFF AND DUP2 PUSH2 0xFFFF AND LT ISZERO JUMPDEST ISZERO PUSH2 0x4705 JUMPI DUP2 SLOAD PUSH1 0x1 PUSH1 0x30 SHL SWAP1 DIV PUSH1 0x1 PUSH1 0x1 PUSH1 0x80 SHL SUB AND SWAP9 SWAP1 SWAP9 ADD SWAP8 PUSH2 0x4742 JUMP JUMPDEST DUP2 SLOAD PUSH2 0xFFFF DUP1 DUP14 AND SWAP2 AND GT DUP1 ISZERO SWAP1 PUSH2 0x4725 JUMPI POP DUP11 PUSH2 0xFFFF AND DUP2 PUSH2 0xFFFF AND LT ISZERO JUMPDEST ISZERO PUSH2 0x4742 JUMPI DUP2 SLOAD PUSH1 0x1 PUSH1 0x30 SHL SWAP1 DIV PUSH1 0x1 PUSH1 0x1 PUSH1 0x80 SHL SUB AND SWAP8 SWAP1 SWAP8 ADD SWAP7 JUMPDEST DUP2 SLOAD PUSH2 0xFFFF SWAP1 DUP2 AND DUP1 DUP4 SUB SWAP2 DUP15 AND LT DUP1 ISZERO SWAP1 PUSH2 0x4766 JUMPI POP DUP13 PUSH2 0xFFFF AND DUP3 PUSH2 0xFFFF AND LT ISZERO JUMPDEST DUP1 ISZERO PUSH2 0x479C JUMPI POP DUP5 PUSH2 0xFFFF AND DUP3 PUSH2 0xFFFF AND LT DUP1 PUSH2 0x479C JUMPI POP DUP5 PUSH2 0xFFFF AND DUP3 PUSH2 0xFFFF AND EQ DUP1 ISZERO PUSH2 0x479C JUMPI POP DUP6 PUSH2 0xFFFF AND DUP2 PUSH2 0xFFFF AND LT JUMPDEST ISZERO PUSH2 0x47AB JUMPI DUP4 SWAP7 POP DUP1 SWAP6 POP DUP2 SWAP5 POP JUMPDEST POP POP POP JUMPDEST PUSH1 0x1 ADD PUSH2 0x4633 JUMP JUMPDEST POP POP POP SWAP5 POP SWAP5 POP SWAP5 POP SWAP5 SWAP1 POP JUMP JUMPDEST PUSH1 0x0 DUP6 PUSH1 0xB ADD PUSH1 0x0 DUP2 SLOAD DUP2 LT PUSH2 0x47D7 JUMPI INVALID JUMPDEST PUSH1 0x0 SWAP2 DUP3 MSTORE PUSH1 0x20 SWAP1 SWAP2 KECCAK256 ADD SWAP1 POP PUSH2 0xFFFF DUP1 JUMPDEST DUP7 ISZERO PUSH2 0x4999 JUMPI PUSH1 0x1E DUP5 LT ISZERO PUSH2 0x4833 JUMPI DUP8 PUSH1 0xB ADD DUP5 DUP2 SLOAD DUP2 LT PUSH2 0x4807 JUMPI INVALID JUMPDEST SWAP1 PUSH1 0x0 MSTORE PUSH1 0x20 PUSH1 0x0 KECCAK256 ADD SWAP3 POP PUSH2 0x481D DUP4 DUP7 PUSH2 0x4105 JUMP JUMPDEST DUP4 SLOAD PUSH1 0x1E SWAP6 POP SWAP1 SWAP3 POP PUSH2 0xFFFF AND DUP3 SUB SWAP1 POP PUSH2 0x4847 JUMP JUMPDEST PUSH2 0x483E DUP9 DUP8 DUP8 PUSH2 0x51FB JUMP JUMPDEST SWAP2 SWAP5 POP SWAP1 SWAP3 POP SWAP1 POP JUMPDEST PUSH2 0xFFFF DUP2 DUP2 AND EQ ISZERO PUSH2 0x4858 JUMPI PUSH2 0x4999 JUMP JUMPDEST DUP3 SLOAD DUP8 SWAP1 PUSH1 0x1 PUSH1 0x30 SHL SWAP1 DIV PUSH1 0x1 PUSH1 0x1 PUSH1 0x80 SHL SUB AND DUP2 LT ISZERO PUSH2 0x48BB JUMPI DUP4 SLOAD PUSH1 0x1 PUSH1 0x1 PUSH1 0x80 SHL SUB PUSH1 0x1 PUSH1 0x30 SHL DUP1 DUP4 DIV DUP3 AND DUP12 SWAP1 SUB SWAP1 SWAP2 AND MUL PUSH1 0x1 PUSH1 0x30 SHL PUSH1 0x1 PUSH1 0xB0 SHL SUB NOT SWAP1 SWAP2 AND OR DUP1 DUP6 SSTORE PUSH2 0x48B2 SWAP1 DUP11 SWAP1 PUSH2 0xFFFF AND DUP11 DUP11 PUSH2 0x52D2 JUMP JUMPDEST PUSH1 0x0 SWAP8 POP PUSH2 0x48ED JUMP JUMPDEST POP DUP3 SLOAD PUSH4 0xFFFF0000 NOT AND PUSH3 0x10000 PUSH1 0x0 NOT DUP9 ADD PUSH2 0xFFFF AND MUL OR DUP1 DUP5 SSTORE PUSH1 0x1 PUSH1 0x30 SHL SWAP1 DIV PUSH1 0x1 PUSH1 0x1 PUSH1 0x80 SHL SUB AND SWAP7 DUP8 SWAP1 SUB SWAP7 JUMPDEST PUSH1 0x1 DUP10 ADD SLOAD PUSH2 0xFFFF DUP1 DUP10 AND SWAP2 AND LT DUP1 ISZERO SWAP1 PUSH2 0x4913 JUMPI POP PUSH1 0x1 DUP10 ADD SLOAD PUSH2 0xFFFF DUP1 DUP6 AND SWAP2 AND GT ISZERO JUMPDEST ISZERO PUSH2 0x4937 JUMPI PUSH1 0x1 DUP10 ADD SLOAD PUSH2 0xFFFF AND PUSH1 0x0 SWAP1 DUP2 MSTORE PUSH1 0x9 PUSH1 0x20 MSTORE PUSH1 0x40 SWAP1 KECCAK256 DUP1 SLOAD DUP3 SWAP1 SUB SWAP1 SSTORE JUMPDEST PUSH1 0x1 DUP10 ADD SLOAD PUSH2 0xFFFF DUP1 DUP10 AND PUSH3 0x10000 SWAP1 SWAP3 DIV AND LT DUP1 ISZERO SWAP1 PUSH2 0x4969 JUMPI POP PUSH1 0x1 DUP10 ADD SLOAD PUSH2 0xFFFF DUP1 DUP6 AND PUSH3 0x10000 SWAP1 SWAP3 DIV AND GT ISZERO JUMPDEST ISZERO PUSH2 0x4993 JUMPI PUSH1 0x1 DUP10 ADD SLOAD PUSH3 0x10000 SWAP1 DIV PUSH2 0xFFFF AND PUSH1 0x0 SWAP1 DUP2 MSTORE PUSH1 0x9 PUSH1 0x20 MSTORE PUSH1 0x40 SWAP1 KECCAK256 DUP1 SLOAD DUP3 SWAP1 SUB SWAP1 SSTORE JUMPDEST POP PUSH2 0x47E9 JUMP JUMPDEST POP POP POP POP POP POP POP POP JUMP JUMPDEST PUSH1 0x4 DUP1 SLOAD PUSH1 0x1 PUSH1 0x1 PUSH1 0x80 SHL SUB NOT DUP2 AND PUSH1 0x1 PUSH1 0x1 PUSH1 0x80 SHL SUB SWAP2 DUP3 AND DUP5 SWAP1 SUB DUP3 AND OR DUP1 DUP3 AND PUSH1 0x1 PUSH1 0x80 SHL SWAP2 DUP3 SWAP1 DIV DUP4 AND SWAP5 SWAP1 SWAP5 SUB SWAP1 SWAP2 AND MUL SWAP2 SWAP1 SWAP2 OR SWAP1 SSTORE JUMP JUMPDEST PUSH2 0x49EA DUP2 PUSH2 0x547E JUMP JUMPDEST PUSH1 0x5 SLOAD PUSH2 0xFFFF AND PUSH2 0x4A02 DUP3 PUSH4 0x3D92AC5 PUSH1 0xE2 SHL PUSH2 0x4A77 JUMP JUMPDEST PUSH2 0xFFFF AND EQ PUSH2 0x4A10 JUMPI PUSH1 0x0 DUP1 REVERT JUMPDEST PUSH1 0x4 SLOAD PUSH1 0x1 PUSH1 0x1 PUSH1 0x80 SHL SUB AND PUSH2 0x4A2D DUP3 PUSH4 0x3250843D PUSH1 0xE0 SHL PUSH2 0x4A77 JUMP JUMPDEST PUSH1 0x1 PUSH1 0x1 PUSH1 0x80 SHL SUB AND EQ PUSH2 0x4A40 JUMPI PUSH1 0x0 DUP1 REVERT JUMPDEST PUSH1 0x4 SLOAD PUSH1 0x1 PUSH1 0x80 SHL SWAP1 DIV PUSH1 0x1 PUSH1 0x1 PUSH1 0x80 SHL SUB AND PUSH2 0x4A64 DUP3 PUSH4 0x408C255 PUSH1 0xE3 SHL PUSH2 0x4A77 JUMP JUMPDEST PUSH1 0x1 PUSH1 0x1 PUSH1 0x80 SHL SUB AND EQ PUSH2 0x10CC JUMPI PUSH1 0x0 DUP1 REVERT JUMPDEST PUSH1 0x0 DUP1 PUSH2 0x4A87 DUP5 DUP5 DUP4 DUP1 DUP1 PUSH2 0x54D8 JUMP JUMPDEST MLOAD SWAP5 SWAP4 POP POP POP POP JUMP JUMPDEST PUSH1 0x0 DUP1 PUSH2 0x4AA1 DUP6 DUP6 PUSH1 0x1 DUP7 DUP6 PUSH2 0x54D8 JUMP JUMPDEST MLOAD SWAP6 SWAP5 POP POP POP POP POP JUMP JUMPDEST PUSH2 0x4AB3 PUSH2 0x57C9 JUMP JUMPDEST PUSH1 0x0 PUSH2 0x4194 DUP5 PUSH4 0x4E745F1F PUSH1 0xE0 SHL PUSH1 0x1 DUP7 DUP6 PUSH2 0x54D8 JUMP JUMPDEST PUSH2 0x4AD2 PUSH2 0x586A JUMP JUMPDEST PUSH1 0x0 PUSH2 0x4AE9 DUP6 PUSH4 0x8FA95A15 PUSH1 0xE0 SHL PUSH1 0x2 DUP8 DUP8 PUSH2 0x54D8 JUMP JUMPDEST SWAP6 SWAP5 POP POP POP POP POP JUMP JUMPDEST PUSH2 0x4AFA PUSH2 0x5881 JUMP JUMPDEST PUSH1 0x0 PUSH2 0x4AE9 DUP6 PUSH4 0x290E526D PUSH1 0xE1 SHL PUSH1 0x2 DUP8 DUP8 PUSH2 0x54D8 JUMP JUMPDEST PUSH1 0x0 DUP1 PUSH2 0x4B22 DUP7 DUP7 PUSH1 0x2 DUP8 DUP8 PUSH2 0x54D8 JUMP JUMPDEST MLOAD SWAP7 SWAP6 POP POP POP POP POP POP JUMP JUMPDEST DUP2 SLOAD PUSH1 0x0 SWAP1 DUP3 SWAP1 DUP1 PUSH2 0x4B44 JUMPI PUSH1 0x0 SWAP3 POP POP POP PUSH2 0x1893 JUMP JUMPDEST PUSH1 0x0 PUSH1 0x1 DUP3 SUB SWAP1 POP PUSH1 0x0 DUP1 PUSH2 0x4B8F DUP9 PUSH1 0x1 DUP7 SUB DUP2 SLOAD DUP2 LT PUSH2 0x4B61 JUMPI INVALID JUMPDEST SWAP1 PUSH1 0x0 MSTORE PUSH1 0x20 PUSH1 0x0 KECCAK256 SWAP1 PUSH1 0x2 SWAP2 DUP3 DUP3 DIV ADD SWAP2 SWAP1 MOD PUSH1 0x10 MUL SWAP1 SLOAD SWAP1 PUSH2 0x100 EXP SWAP1 DIV PUSH1 0x1 PUSH1 0x1 PUSH1 0x80 SHL SUB AND PUSH2 0x5528 JUMP JUMPDEST SWAP2 POP SWAP2 POP DUP2 PUSH4 0xFFFFFFFF AND DUP6 PUSH4 0xFFFFFFFF AND LT PUSH2 0x4BB2 JUMPI SWAP5 POP PUSH2 0x1893 SWAP4 POP POP POP POP JUMP JUMPDEST PUSH2 0x4BC2 DUP9 PUSH1 0x0 DUP2 SLOAD DUP2 LT PUSH2 0x4B61 JUMPI INVALID JUMPDEST SWAP1 SWAP3 POP SWAP1 POP PUSH1 0x1 DUP5 EQ DUP1 PUSH2 0x4BE1 JUMPI POP DUP2 PUSH4 0xFFFFFFFF AND DUP6 PUSH4 0xFFFFFFFF AND LT JUMPDEST ISZERO PUSH2 0x4BF4 JUMPI PUSH1 0x0 SWAP6 POP POP POP POP POP POP PUSH2 0x1893 JUMP JUMPDEST PUSH1 0x0 PUSH1 0x0 NOT DUP5 ADD DUP2 DUP1 JUMPDEST DUP4 DUP4 GT ISZERO PUSH2 0x4C76 JUMPI PUSH1 0x0 PUSH1 0x2 PUSH1 0x1 DUP6 DUP8 ADD ADD DIV SWAP1 POP PUSH2 0x4C22 DUP14 DUP3 DUP2 SLOAD DUP2 LT PUSH2 0x4B61 JUMPI INVALID JUMPDEST SWAP1 SWAP4 POP SWAP2 POP PUSH4 0xFFFFFFFF DUP1 DUP5 AND SWAP1 DUP12 AND GT ISZERO PUSH2 0x4C40 JUMPI DUP1 SWAP5 POP PUSH2 0x4C70 JUMP JUMPDEST DUP3 PUSH4 0xFFFFFFFF AND DUP11 PUSH4 0xFFFFFFFF AND LT ISZERO PUSH2 0x4C5F JUMPI PUSH1 0x1 DUP2 SUB SWAP4 POP PUSH2 0x4C70 JUMP JUMPDEST POP SWAP9 POP PUSH2 0x1893 SWAP8 POP POP POP POP POP POP POP POP JUMP JUMPDEST POP PUSH2 0x4BFE JUMP JUMPDEST PUSH2 0x4C85 DUP13 DUP6 DUP2 SLOAD DUP2 LT PUSH2 0x4B61 JUMPI INVALID JUMPDEST SWAP14 SWAP13 POP POP POP POP POP POP POP POP POP POP POP POP POP JUMP JUMPDEST PUSH1 0x0 JUMPDEST PUSH1 0xB DUP7 ADD SLOAD DUP2 LT ISZERO PUSH2 0x4DA4 JUMPI PUSH1 0x0 DUP7 PUSH1 0xB ADD DUP3 DUP2 SLOAD DUP2 LT PUSH2 0x4CB6 JUMPI INVALID JUMPDEST PUSH1 0x0 SWAP2 DUP3 MSTORE PUSH1 0x20 SWAP1 SWAP2 KECCAK256 ADD DUP1 SLOAD SWAP1 SWAP2 POP PUSH3 0x10000 SWAP1 DIV PUSH2 0xFFFF AND ISZERO DUP1 ISZERO SWAP1 PUSH2 0x4D02 JUMPI POP PUSH1 0x1 DUP8 ADD SLOAD PUSH2 0xFFFF AND ISZERO DUP1 PUSH2 0x4D02 JUMPI POP PUSH1 0x1 DUP8 ADD SLOAD DUP2 SLOAD PUSH2 0xFFFF SWAP2 DUP3 AND PUSH3 0x10000 SWAP1 SWAP2 DIV SWAP1 SWAP2 AND LT JUMPDEST DUP1 ISZERO PUSH2 0x4D3A JUMPI POP PUSH1 0x1 DUP8 ADD SLOAD PUSH3 0x10000 SWAP1 DIV PUSH2 0xFFFF AND ISZERO DUP1 PUSH2 0x4D3A JUMPI POP PUSH1 0x1 DUP8 ADD SLOAD DUP2 SLOAD PUSH2 0xFFFF PUSH3 0x10000 SWAP3 DUP4 SWAP1 DIV DUP2 AND SWAP3 SWAP1 SWAP2 DIV AND LT JUMPDEST ISZERO PUSH2 0x4D9B JUMPI DUP1 SLOAD PUSH2 0xFFFF NOT AND PUSH2 0xFFFF DUP8 DUP2 AND SWAP2 SWAP1 SWAP2 OR PUSH4 0xFFFF0000 NOT AND PUSH3 0x10000 DUP8 DUP4 AND MUL OR PUSH2 0xFFFF PUSH1 0x20 SHL NOT AND PUSH1 0x1 PUSH1 0x20 SHL SWAP2 DUP7 AND SWAP2 SWAP1 SWAP2 MUL OR PUSH1 0x1 PUSH1 0x30 SHL PUSH1 0x1 PUSH1 0xB0 SHL SUB NOT AND PUSH1 0x1 PUSH1 0x30 SHL PUSH1 0x1 PUSH1 0x1 PUSH1 0x80 SHL SUB DUP6 AND MUL OR SWAP1 SSTORE POP PUSH2 0x2952 JUMP JUMPDEST POP PUSH1 0x1 ADD PUSH2 0x4C99 JUMP JUMPDEST POP PUSH1 0xB DUP6 ADD SLOAD PUSH1 0x1E GT PUSH2 0x4DB6 JUMPI PUSH1 0x0 DUP1 REVERT JUMPDEST PUSH1 0x40 DUP1 MLOAD PUSH1 0x80 DUP2 ADD DUP3 MSTORE PUSH2 0xFFFF DUP1 DUP8 AND DUP3 MSTORE DUP6 DUP2 AND PUSH1 0x20 DUP1 DUP5 ADD SWAP2 DUP3 MSTORE DUP7 DUP4 AND SWAP5 DUP5 ADD SWAP5 DUP6 MSTORE PUSH1 0x1 PUSH1 0x1 PUSH1 0x80 SHL SUB DUP1 DUP8 AND PUSH1 0x60 DUP7 ADD SWAP1 DUP2 MSTORE PUSH1 0xB DUP13 ADD DUP1 SLOAD PUSH1 0x1 DUP2 ADD DUP3 SSTORE PUSH1 0x0 SWAP2 DUP3 MSTORE SWAP4 SWAP1 KECCAK256 SWAP6 MLOAD SWAP6 SWAP1 SWAP3 ADD DUP1 SLOAD SWAP4 MLOAD SWAP7 MLOAD SWAP3 MLOAD SWAP1 SWAP2 AND PUSH1 0x1 PUSH1 0x30 SHL MUL PUSH1 0x1 PUSH1 0x30 SHL PUSH1 0x1 PUSH1 0xB0 SHL SUB NOT SWAP3 DUP6 AND PUSH1 0x1 PUSH1 0x20 SHL MUL PUSH2 0xFFFF PUSH1 0x20 SHL NOT SWAP8 DUP7 AND PUSH3 0x10000 MUL PUSH4 0xFFFF0000 NOT SWAP8 SWAP1 SWAP7 AND PUSH2 0xFFFF NOT SWAP1 SWAP6 AND SWAP5 SWAP1 SWAP5 OR SWAP6 SWAP1 SWAP6 AND SWAP4 SWAP1 SWAP4 OR SWAP5 SWAP1 SWAP5 AND OR SWAP3 SWAP1 SWAP3 AND OR SWAP1 SSTORE POP POP POP POP POP JUMP JUMPDEST PUSH1 0x2 DUP1 SLOAD PUSH1 0x1 PUSH1 0xA0 SHL SWAP1 DIV PUSH1 0xFF AND EQ PUSH2 0x4E85 JUMPI PUSH1 0x0 DUP1 REVERT JUMPDEST PUSH1 0x40 DUP1 MLOAD CALLER DUP2 MSTORE SWAP1 MLOAD PUSH1 0x1 PUSH1 0x1 PUSH1 0xA0 SHL SUB DUP4 AND SWAP2 PUSH32 0xD55EC27C5C6316913ED8803C18CFD1BFEFEA953DB909DCBA6140744A9D8B0D1F SWAP2 SWAP1 DUP2 SWAP1 SUB PUSH1 0x20 ADD SWAP1 LOG2 POP JUMP JUMPDEST PUSH1 0x1 PUSH1 0x1 PUSH1 0xA0 SHL SUB DUP2 AND PUSH2 0x4EDA JUMPI PUSH1 0x0 DUP1 REVERT JUMPDEST PUSH1 0x0 DUP1 SLOAD PUSH1 0x40 MLOAD PUSH1 0x1 PUSH1 0x1 PUSH1 0xA0 SHL SUB DUP1 DUP6 AND SWAP4 SWAP3 AND SWAP2 PUSH32 0x8BE0079C531659141344CD1FD0A4F28419497F9722A3DAAFE3B4186F6B6457E0 SWAP2 LOG3 PUSH1 0x0 DUP1 SLOAD PUSH1 0x1 PUSH1 0x1 PUSH1 0xA0 SHL SUB NOT AND PUSH1 0x1 PUSH1 0x1 PUSH1 0xA0 SHL SUB SWAP3 SWAP1 SWAP3 AND SWAP2 SWAP1 SWAP2 OR SWAP1 SSTORE JUMP JUMPDEST PUSH1 0x0 DUP1 JUMPDEST PUSH1 0xB DUP8 ADD SLOAD DUP2 LT ISZERO PUSH2 0x501E JUMPI PUSH1 0x0 DUP8 PUSH1 0xB ADD DUP3 DUP2 SLOAD DUP2 LT PUSH2 0x4F56 JUMPI INVALID JUMPDEST SWAP1 PUSH1 0x0 MSTORE PUSH1 0x20 PUSH1 0x0 KECCAK256 ADD SWAP1 POP PUSH1 0x0 PUSH2 0x4F6E DUP3 DUP8 PUSH2 0x4105 JUMP JUMPDEST DUP3 SLOAD SWAP1 SWAP2 POP PUSH2 0xFFFF DUP1 DUP11 AND SWAP2 AND GT DUP1 ISZERO SWAP1 PUSH2 0x4F91 JUMPI POP DUP8 PUSH2 0xFFFF AND DUP2 PUSH2 0xFFFF AND LT ISZERO JUMPDEST ISZERO PUSH2 0x5014 JUMPI DUP2 SLOAD PUSH2 0xFFFF DUP10 DUP2 AND PUSH1 0x0 SWAP1 DUP2 MSTORE PUSH1 0x9 PUSH1 0x20 MSTORE PUSH1 0x40 DUP2 KECCAK256 SLOAD SWAP1 SWAP3 PUSH2 0x4FD9 SWAP3 DUP12 SWAP3 PUSH1 0x1 PUSH1 0x30 SHL SWAP1 SWAP3 DIV PUSH1 0x1 PUSH1 0x1 PUSH1 0x80 SHL SUB AND SWAP2 SWAP1 PUSH2 0x4FD4 SWAP1 DUP8 AND DUP15 PUSH2 0x4157 JUMP JUMPDEST PUSH2 0x5536 JUMP JUMPDEST SWAP5 DUP6 ADD SWAP5 SWAP1 POP DUP6 ISZERO PUSH2 0x5012 JUMPI DUP3 SLOAD PUSH1 0x1 PUSH1 0x1 PUSH1 0x80 SHL SUB PUSH1 0x1 PUSH1 0x30 SHL DUP1 DUP4 DIV DUP3 AND DUP5 ADD SWAP1 SWAP2 AND MUL PUSH1 0x1 PUSH1 0x30 SHL PUSH1 0x1 PUSH1 0xB0 SHL SUB NOT SWAP1 SWAP2 AND OR DUP4 SSTORE JUMPDEST POP JUMPDEST POP POP PUSH1 0x1 ADD PUSH2 0x4F39 JUMP JUMPDEST POP PUSH1 0xB SLOAD PUSH1 0x40 DUP1 MLOAD PUSH4 0x3EA2391F PUSH1 0xE0 SHL DUP2 MSTORE PUSH1 0x1 PUSH1 0x1 PUSH1 0xA0 SHL SUB DUP11 DUP2 AND PUSH1 0x4 DUP4 ADD MSTORE PUSH2 0xFFFF DUP10 AND PUSH1 0x24 DUP4 ADD MSTORE SWAP2 MLOAD SWAP2 SWAP1 SWAP3 AND SWAP2 PUSH4 0x3EA2391F SWAP2 PUSH1 0x44 DUP1 DUP4 ADD SWAP3 PUSH1 0x0 SWAP3 SWAP2 SWAP1 DUP3 SWAP1 SUB ADD DUP2 DUP4 DUP8 DUP1 EXTCODESIZE ISZERO DUP1 ISZERO PUSH2 0x5077 JUMPI PUSH1 0x0 DUP1 REVERT JUMPDEST POP GAS CALL ISZERO DUP1 ISZERO PUSH2 0x508B JUMPI RETURNDATASIZE PUSH1 0x0 DUP1 RETURNDATACOPY RETURNDATASIZE PUSH1 0x0 REVERT JUMPDEST POP POP POP POP SWAP7 SWAP6 POP POP POP POP POP POP JUMP JUMPDEST PUSH1 0x0 DUP1 DUP3 SLT PUSH2 0x50B9 JUMPI PUSH2 0x50B2 DUP4 DUP4 PUSH4 0xFFFFFFFF PUSH2 0x416B AND JUMP JUMPDEST SWAP1 POP PUSH2 0x1893 JUMP JUMPDEST PUSH2 0x50B2 DUP4 PUSH1 0x0 DUP5 SWAP1 SUB PUSH4 0xFFFFFFFF PUSH2 0x3EC6 AND JUMP JUMPDEST DUP3 SLOAD DUP1 ISZERO PUSH2 0x5174 JUMPI PUSH1 0x0 PUSH2 0x50E9 DUP6 PUSH1 0x1 DUP5 SUB DUP2 SLOAD DUP2 LT PUSH2 0x4B61 JUMPI INVALID JUMPDEST POP SWAP1 POP DUP1 PUSH4 0xFFFFFFFF AND DUP5 PUSH4 0xFFFFFFFF AND EQ ISZERO PUSH2 0x5159 JUMPI PUSH2 0x510A DUP5 DUP5 PUSH2 0x5778 JUMP JUMPDEST DUP6 PUSH1 0x1 DUP5 SUB DUP2 SLOAD DUP2 LT PUSH2 0x5119 JUMPI INVALID JUMPDEST SWAP1 PUSH1 0x0 MSTORE PUSH1 0x20 PUSH1 0x0 KECCAK256 SWAP1 PUSH1 0x2 SWAP2 DUP3 DUP3 DIV ADD SWAP2 SWAP1 MOD PUSH1 0x10 MUL PUSH2 0x100 EXP DUP2 SLOAD DUP2 PUSH1 0x1 PUSH1 0x1 PUSH1 0x80 SHL SUB MUL NOT AND SWAP1 DUP4 PUSH1 0x1 PUSH1 0x1 PUSH1 0x80 SHL SUB AND MUL OR SWAP1 SSTORE POP POP POP PUSH2 0x3540 JUMP JUMPDEST DUP1 PUSH4 0xFFFFFFFF AND DUP5 PUSH4 0xFFFFFFFF AND LT ISZERO PUSH2 0x5172 JUMPI PUSH1 0x0 DUP1 REVERT JUMPDEST POP JUMPDEST DUP4 PUSH2 0x517F DUP5 DUP5 PUSH2 0x5778 JUMP JUMPDEST DUP2 SLOAD PUSH1 0x1 DUP2 DUP2 ADD DUP5 SSTORE PUSH1 0x0 SWAP4 DUP5 MSTORE PUSH1 0x20 SWAP1 SWAP4 KECCAK256 PUSH1 0x2 DUP3 DIV ADD DUP1 SLOAD PUSH1 0x1 PUSH1 0x1 PUSH1 0x80 SHL SUB SWAP4 DUP5 AND PUSH1 0x10 SWAP4 SWAP1 SWAP6 AND SWAP3 SWAP1 SWAP3 MUL PUSH2 0x100 EXP SWAP4 DUP5 MUL SWAP3 SWAP1 SWAP4 MUL NOT AND OR SWAP1 SSTORE POP POP POP POP JUMP JUMPDEST DUP1 SLOAD PUSH1 0x0 SWAP1 DUP2 SWAP1 DUP1 ISZERO PUSH2 0x51ED JUMPI PUSH2 0x51E3 DUP5 PUSH1 0x1 DUP4 SUB DUP2 SLOAD DUP2 LT PUSH2 0x4B61 JUMPI INVALID JUMPDEST SWAP3 POP SWAP3 POP POP PUSH2 0x51F6 JUMP JUMPDEST POP PUSH1 0x0 SWAP2 POP DUP2 SWAP1 POP JUMPDEST SWAP2 POP SWAP2 JUMP JUMPDEST PUSH1 0x0 PUSH2 0xFFFF DUP1 DUP3 JUMPDEST PUSH1 0xB DUP8 ADD SLOAD DUP2 LT ISZERO PUSH2 0x52C8 JUMPI PUSH1 0x0 DUP8 PUSH1 0xB ADD DUP3 DUP2 SLOAD DUP2 LT PUSH2 0x5220 JUMPI INVALID JUMPDEST SWAP1 PUSH1 0x0 MSTORE PUSH1 0x20 PUSH1 0x0 KECCAK256 ADD SWAP1 POP PUSH1 0x0 PUSH2 0x5238 DUP3 DUP9 PUSH2 0x4105 JUMP JUMPDEST DUP3 SLOAD SWAP1 SWAP2 POP PUSH2 0xFFFF SWAP1 DUP2 AND SWAP1 DUP3 AND LT ISZERO PUSH2 0x5253 JUMPI POP POP PUSH2 0x52C0 JUMP JUMPDEST DUP2 SLOAD PUSH2 0xFFFF SWAP1 DUP2 AND DUP1 DUP4 SUB SWAP2 DUP11 AND LT DUP1 ISZERO SWAP1 PUSH2 0x5277 JUMPI POP DUP9 PUSH2 0xFFFF AND DUP3 PUSH2 0xFFFF AND LT ISZERO JUMPDEST DUP1 ISZERO PUSH2 0x52AD JUMPI POP DUP5 PUSH2 0xFFFF AND DUP3 PUSH2 0xFFFF AND LT DUP1 PUSH2 0x52AD JUMPI POP DUP5 PUSH2 0xFFFF AND DUP3 PUSH2 0xFFFF AND EQ DUP1 ISZERO PUSH2 0x52AD JUMPI POP DUP6 PUSH2 0xFFFF AND DUP2 PUSH2 0xFFFF AND LT JUMPDEST ISZERO PUSH2 0x52BC JUMPI DUP3 SWAP7 POP DUP1 SWAP6 POP DUP2 SWAP5 POP JUMPDEST POP POP POP JUMPDEST PUSH1 0x1 ADD PUSH2 0x5203 JUMP JUMPDEST POP SWAP4 POP SWAP4 POP SWAP4 SWAP1 POP JUMP JUMPDEST PUSH1 0x1 DUP5 ADD SLOAD PUSH1 0x0 SWAP1 PUSH2 0xFFFF AND ISZERO DUP1 ISZERO SWAP1 PUSH2 0x52F6 JUMPI POP PUSH1 0x1 DUP6 ADD SLOAD PUSH2 0xFFFF DUP1 DUP5 AND SWAP2 AND LT JUMPDEST PUSH1 0x1 DUP7 ADD SLOAD SWAP1 SWAP2 POP PUSH1 0x0 SWAP1 PUSH3 0x10000 SWAP1 DIV PUSH2 0xFFFF AND ISZERO DUP1 ISZERO SWAP1 PUSH2 0x5329 JUMPI POP PUSH1 0x1 DUP7 ADD SLOAD PUSH2 0xFFFF DUP1 DUP6 AND PUSH3 0x10000 SWAP1 SWAP3 DIV AND LT JUMPDEST SWAP1 POP PUSH1 0x0 DUP3 DUP1 ISZERO PUSH2 0x5345 JUMPI POP PUSH1 0x1 DUP8 ADD SLOAD PUSH2 0xFFFF DUP1 DUP9 AND SWAP2 AND LT ISZERO JUMPDEST SWAP1 POP PUSH1 0x0 DUP3 DUP1 ISZERO PUSH2 0x5367 JUMPI POP PUSH1 0x1 DUP9 ADD SLOAD PUSH2 0xFFFF DUP1 DUP10 AND PUSH3 0x10000 SWAP1 SWAP3 DIV AND LT ISZERO JUMPDEST SWAP1 POP DUP2 ISZERO DUP1 ISZERO PUSH2 0x5375 JUMPI POP DUP1 ISZERO JUMPDEST ISZERO PUSH2 0x5383 JUMPI POP POP POP POP PUSH2 0x422C JUMP JUMPDEST PUSH1 0x0 NOT DUP6 ADD PUSH1 0x0 JUMPDEST PUSH1 0xB DUP11 ADD SLOAD DUP2 LT ISZERO PUSH2 0x5464 JUMPI PUSH1 0x0 DUP11 PUSH1 0xB ADD DUP3 DUP2 SLOAD DUP2 LT PUSH2 0x53A8 JUMPI INVALID JUMPDEST PUSH1 0x0 SWAP2 DUP3 MSTORE PUSH1 0x20 SWAP1 SWAP2 KECCAK256 ADD DUP1 SLOAD SWAP1 SWAP2 POP PUSH2 0xFFFF DUP5 DUP2 AND PUSH3 0x10000 SWAP1 SWAP3 DIV AND EQ DUP1 ISZERO PUSH2 0x541E JUMPI POP DUP7 DUP1 ISZERO PUSH2 0x53E8 JUMPI POP DUP1 SLOAD PUSH1 0x1 DUP13 ADD SLOAD PUSH2 0xFFFF SWAP2 DUP3 AND SWAP2 AND LT ISZERO JUMPDEST ISZERO ISZERO DUP6 ISZERO ISZERO EQ DUP1 ISZERO PUSH2 0x541E JUMPI POP DUP6 DUP1 ISZERO PUSH2 0x5417 JUMPI POP DUP1 SLOAD PUSH1 0x1 DUP13 ADD SLOAD PUSH2 0xFFFF SWAP2 DUP3 AND PUSH3 0x10000 SWAP1 SWAP2 DIV SWAP1 SWAP2 AND LT ISZERO JUMPDEST ISZERO ISZERO DUP5 ISZERO ISZERO EQ JUMPDEST ISZERO PUSH2 0x545B JUMPI DUP1 SLOAD PUSH1 0x1 PUSH1 0x1 PUSH1 0x80 SHL SUB PUSH1 0x1 PUSH1 0x30 SHL DUP1 DUP4 DIV DUP3 AND DUP13 ADD SWAP1 SWAP2 AND MUL PUSH1 0x1 PUSH1 0x30 SHL PUSH1 0x1 PUSH1 0xB0 SHL SUB NOT SWAP1 SWAP2 AND OR SWAP1 SSTORE POP PUSH2 0x422C SWAP5 POP POP POP POP POP JUMP JUMPDEST POP PUSH1 0x1 ADD PUSH2 0x538B JUMP JUMPDEST POP PUSH2 0x5473 DUP10 DUP10 DUP4 PUSH1 0x0 DUP12 PUSH2 0x4C96 JUMP JUMPDEST POP POP POP POP POP POP POP POP POP JUMP JUMPDEST PUSH1 0x2 DUP1 SLOAD PUSH1 0x1 PUSH1 0xA0 SHL SWAP1 DIV PUSH1 0xFF AND EQ PUSH2 0x5496 JUMPI PUSH1 0x0 DUP1 REVERT JUMPDEST PUSH1 0x40 DUP1 MLOAD CALLER DUP2 MSTORE SWAP1 MLOAD PUSH1 0x1 PUSH1 0x1 PUSH1 0xA0 SHL SUB DUP4 AND SWAP2 PUSH32 0x1E8D98C1B4A0D9BD2E2371026B632EB2773FCCE41742E41F02F574AB69868D4C SWAP2 SWAP1 DUP2 SWAP1 SUB PUSH1 0x20 ADD SWAP1 LOG2 POP JUMP JUMPDEST PUSH1 0x40 MLOAD DUP5 DUP2 MSTORE DUP4 ISZERO PUSH2 0x54EB JUMPI DUP3 PUSH1 0x4 DUP3 ADD MSTORE JUMPDEST PUSH1 0x1 DUP5 GT ISZERO PUSH2 0x54FB JUMPI DUP2 PUSH1 0x24 DUP3 ADD MSTORE JUMPDEST PUSH1 0x0 DUP1 DUP6 PUSH1 0x20 MUL PUSH1 0x4 ADD DUP4 DUP10 GAS DELEGATECALL DUP1 ISZERO PUSH2 0x5519 JUMPI RETURNDATASIZE PUSH1 0x0 DUP4 RETURNDATACOPY PUSH2 0x551E JUMP JUMPDEST PUSH1 0x0 DUP3 REVERT JUMPDEST POP SWAP6 SWAP5 POP POP POP POP POP JUMP JUMPDEST PUSH4 0xFFFFFFFF PUSH1 0x60 DUP3 SWAP1 SHR AND SWAP2 JUMP JUMPDEST PUSH1 0x4 SLOAD PUSH1 0x0 SWAP1 PUSH32 0x0 PUSH1 0x1 PUSH1 0x1 PUSH1 0x80 SHL SUB SWAP1 DUP2 AND PUSH1 0x1 PUSH1 0x80 SHL SWAP1 SWAP3 DIV AND EQ ISZERO PUSH2 0x557F JUMPI POP PUSH1 0x0 PUSH2 0x4194 JUMP JUMPDEST PUSH1 0x5 SLOAD PUSH2 0xFFFF SWAP1 DUP2 AND SWAP1 DUP7 AND GT ISZERO PUSH2 0x55C6 JUMPI PUSH1 0x4 DUP1 SLOAD PUSH1 0x1 PUSH1 0x80 SHL DUP2 DIV PUSH1 0x1 PUSH1 0x1 PUSH1 0x80 SHL SUB AND PUSH1 0x1 PUSH1 0x1 PUSH1 0x80 SHL SUB NOT SWAP1 SWAP2 AND OR SWAP1 SSTORE PUSH1 0x5 DUP1 SLOAD PUSH2 0xFFFF NOT AND PUSH2 0xFFFF DUP8 AND OR SWAP1 SSTORE JUMPDEST PUSH1 0x4 SLOAD PUSH1 0x0 SWAP1 DUP2 SWAP1 PUSH32 0x0 PUSH1 0x1 PUSH1 0x1 PUSH1 0x80 SHL SUB SWAP1 SWAP2 AND PUSH32 0x0 ADD GT PUSH2 0x566B JUMPI POP PUSH32 0x0 SWAP1 POP PUSH32 0x0 PUSH2 0x56C0 JUMP JUMPDEST POP POP PUSH1 0x4 SLOAD PUSH1 0x1 PUSH1 0x1 PUSH1 0x80 SHL SUB SWAP1 DUP2 AND PUSH32 0x0 SUB AND PUSH32 0x0 JUMPDEST PUSH1 0x0 PUSH32 0x0 PUSH2 0x570D DUP7 PUSH32 0x0 PUSH2 0x5794 JUMP JUMPDEST PUSH2 0xFFFF AND ADD SWAP1 POP DUP2 DUP7 MUL DUP2 DUP9 DUP6 MUL MUL DUP2 PUSH2 0x5723 JUMPI INVALID JUMPDEST DIV SWAP4 POP PUSH1 0x0 PUSH2 0x5730 PUSH2 0x1C7C JUMP JUMPDEST SWAP1 POP DUP5 PUSH2 0x5740 JUMPI PUSH1 0x1 SWAP5 POP PUSH2 0x574C JUMP JUMPDEST DUP1 DUP6 GT ISZERO PUSH2 0x574C JUMPI DUP1 SWAP5 POP JUMPDEST POP POP PUSH1 0x4 DUP1 SLOAD PUSH1 0x1 PUSH1 0x1 PUSH1 0x80 SHL SUB PUSH1 0x1 PUSH1 0x80 SHL DUP1 DUP4 DIV DUP3 AND DUP8 ADD DUP3 AND MUL SWAP2 AND OR SWAP1 SSTORE POP POP SWAP5 SWAP4 POP POP POP POP JUMP JUMPDEST PUSH1 0x1 PUSH1 0x1 PUSH1 0x60 SHL SUB AND PUSH1 0x60 SWAP2 SWAP1 SWAP2 SHL PUSH4 0xFFFFFFFF PUSH1 0x60 SHL AND OR SWAP1 JUMP JUMPDEST PUSH1 0x0 DUP2 PUSH2 0xFFFF AND DUP4 PUSH2 0xFFFF AND LT PUSH2 0x3EBF JUMPI DUP2 PUSH2 0x29AF JUMP JUMPDEST PUSH1 0x40 MLOAD DUP1 PUSH1 0x40 ADD PUSH1 0x40 MSTORE DUP1 PUSH1 0x2 SWAP1 PUSH1 0x20 DUP3 MUL DUP1 CALLDATASIZE DUP4 CALLDATACOPY POP SWAP2 SWAP3 SWAP2 POP POP JUMP JUMPDEST PUSH1 0x40 MLOAD DUP1 PUSH2 0x220 ADD PUSH1 0x40 MSTORE DUP1 PUSH1 0x0 DUP2 MSTORE PUSH1 0x20 ADD PUSH1 0x0 PUSH2 0xFFFF AND DUP2 MSTORE PUSH1 0x20 ADD PUSH1 0x0 PUSH2 0xFFFF AND DUP2 MSTORE PUSH1 0x20 ADD PUSH1 0x0 PUSH2 0xFFFF AND DUP2 MSTORE PUSH1 0x20 ADD PUSH1 0x0 PUSH2 0xFFFF AND DUP2 MSTORE PUSH1 0x20 ADD PUSH1 0x0 DUP2 MSTORE PUSH1 0x20 ADD PUSH1 0x0 PUSH2 0xFFFF AND DUP2 MSTORE PUSH1 0x20 ADD PUSH1 0x0 PUSH1 0x1 PUSH1 0x1 PUSH1 0xA0 SHL SUB AND DUP2 MSTORE PUSH1 0x20 ADD PUSH1 0x0 DUP2 MSTORE PUSH1 0x20 ADD PUSH1 0x0 DUP2 MSTORE PUSH1 0x20 ADD PUSH1 0x0 DUP2 MSTORE PUSH1 0x20 ADD PUSH1 0x0 DUP2 MSTORE PUSH1 0x20 ADD PUSH1 0x0 DUP2 MSTORE PUSH1 0x20 ADD PUSH1 0x0 DUP2 MSTORE PUSH1 0x20 ADD PUSH1 0x60 DUP2 MSTORE PUSH1 0x20 ADD PUSH1 0x60 DUP2 MSTORE PUSH1 0x20 ADD PUSH1 0x60 DUP2 MSTORE POP SWAP1 JUMP JUMPDEST PUSH1 0x40 DUP1 MLOAD DUP1 DUP3 ADD SWAP1 SWAP2 MSTORE PUSH1 0x0 DUP1 DUP3 MSTORE PUSH1 0x20 DUP3 ADD MSTORE SWAP1 JUMP JUMPDEST PUSH1 0x40 DUP1 MLOAD PUSH1 0x80 DUP2 ADD DUP3 MSTORE PUSH1 0x0 DUP1 DUP3 MSTORE PUSH1 0x20 DUP3 ADD DUP2 SWAP1 MSTORE SWAP2 DUP2 ADD DUP3 SWAP1 MSTORE PUSH1 0x60 DUP2 ADD SWAP2 SWAP1 SWAP2 MSTORE SWAP1 JUMP JUMPDEST PUSH1 0x0 PUSH4 0xFFFFFFFF DUP4 AND PUSH2 0x58BD JUMPI POP PUSH1 0x0 PUSH2 0x1893 JUMP JUMPDEST DUP3 DUP3 MUL PUSH4 0xFFFFFFFF DUP1 DUP5 AND SWAP1 DUP1 DUP7 AND SWAP1 DUP4 AND DUP2 PUSH2 0x58D6 JUMPI INVALID JUMPDEST DIV PUSH4 0xFFFFFFFF AND EQ PUSH2 0x29AF JUMPI INVALID INVALID MSTORE8 PUSH21 0x616B6572206D75737420686176652061207374616B PUSH6 0x20746F206D61 PUSH12 0x65206120636F6D6D69746D65 PUSH15 0x7454686520737562207374616B6520 PUSH14 0x7573742061637469766520617420 PUSH13 0x6561737420696E20746865206E PUSH6 0x787420706572 PUSH10 0x6F645370656369666965 PUSH5 0x20776F726B PUSH6 0x722069732061 PUSH13 0x726561647920696E207573655C DUP3 0xB2 PUSH29 0xA454D536B55DF10A5A7CBF8CEAB76CCF7D614A04668EE4990C8726384F PUSH15 0x6C7920776F726B6572207769746820 PUSH19 0x65616C20616464726573732063616E206D616B PUSH6 0x206120636F6D PUSH14 0x69746D656E744E6F7420656E6F75 PUSH8 0x682074696D652068 PUSH2 0x7320 PUSH17 0x61737365642073696E6365207468652070 PUSH19 0x6576696F757320626F6E64696E6720776F726B PUSH6 0x725468652065 PUSH25 0x74656E64656420737562207374616B65206D757374206E6F74 KECCAK256 PUSH3 0x65206C PUSH6 0x737320746861 PUSH15 0x20746865206D696E696D756D207661 PUSH13 0x756541207374616B6572206361 PUSH15 0x2774206265206120776F726B657220 PUSH7 0x6F7220616E6F74 PUSH9 0x6572207374616B6572 MSTORE8 PUSH17 0x6563696669656420776F726B6572206973 KECCAK256 PUSH2 0x6C72 PUSH6 0x61647920626F PUSH15 0x646564207769746820746869732073 PUSH21 0x616B6572A2646970667358221220BD74481934A537 DELEGATECALL ADDRESS SWAP2 DUP6 NUMBER ADDMOD AND 0xFC 0xAC PUSH15 0x7796DB9F94CE28CF0A84B7EA03BC43 PUSH5 0x736F6C6343 STOP MOD SMOD STOP CALLER ",
  "sha1": "8a28d9d2c33d3765d9b46b749d3cdafbddbe45cd",
  "source": "pragma solidity ^0.6.5;\n\n\nimport \"contracts/StakingEscrow.sol\";\nimport \"contracts/NuCypherToken.sol\";\n\n\n/**\n* @notice Upgrade to this contract must lead to fail\n*/\ncontract StakingEscrowBad is StakingEscrow {\n\n    constructor(\n        NuCypherToken _token,\n        uint32 _hoursPerPeriod,\n        uint256 _issuanceDecayCoefficient,\n        uint256 _lockDurationCoefficient1,\n        uint256 _lockDurationCoefficient2,\n        uint16 _maximumRewardedPeriods,\n        uint256 _firstPhaseTotalSupply,\n        uint256 _firstPhaseMaxIssuance,\n        uint16 _minLockedPeriods,\n        uint256 _minAllowableLockedTokens,\n        uint256 _maxAllowableLockedTokens,\n        uint16 _minWorkerPeriods,\n        bool _isTestContract\n    )\n        public\n        StakingEscrow(\n            _token,\n            _hoursPerPeriod,\n            _issuanceDecayCoefficient,\n            _lockDurationCoefficient1,\n            _lockDurationCoefficient2,\n            _maximumRewardedPeriods,\n            _firstPhaseTotalSupply,\n            _firstPhaseMaxIssuance,\n            _minLockedPeriods,\n            _minAllowableLockedTokens,\n            _maxAllowableLockedTokens,\n            _minWorkerPeriods,\n            _isTestContract\n        )\n    {\n    }\n\n    function getSubStakeInfo(address, uint256) public view override returns (uint16, uint16, uint16, uint128) {}\n\n}\n\n\n/**\n* @notice Contract for testing upgrading the StakingEscrow contract\n*/\ncontract StakingEscrowV2Mock is StakingEscrow {\n\n    uint256 public valueToCheck;\n\n    constructor(\n        NuCypherToken _token,\n        uint32 _hoursPerPeriod,\n        uint256 _issuanceDecayCoefficient,\n        uint256 _lockDurationCoefficient1,\n        uint256 _lockDurationCoefficient2,\n        uint16 _maximumRewardedPeriods,\n        uint256 _firstPhaseTotalSupply,\n        uint256 _firstPhaseMaxIssuance,\n        uint16 _minLockedPeriods,\n        uint256 _minAllowableLockedTokens,\n        uint256 _maxAllowableLockedTokens,\n        uint16 _minWorkerPeriods,\n        bool _isTestContract,\n        uint256 _valueToCheck\n    )\n        public\n        StakingEscrow(\n            _token,\n            _hoursPerPeriod,\n            _issuanceDecayCoefficient,\n            _lockDurationCoefficient1,\n            _lockDurationCoefficient2,\n            _maximumRewardedPeriods,\n            _firstPhaseTotalSupply,\n            _firstPhaseMaxIssuance,\n            _minLockedPeriods,\n            _minAllowableLockedTokens,\n            _maxAllowableLockedTokens,\n            _minWorkerPeriods,\n            _isTestContract\n        )\n    {\n        valueToCheck = _valueToCheck;\n    }\n\n    function setValueToCheck(uint256 _valueToCheck) public {\n        valueToCheck = _valueToCheck;\n    }\n\n    function verifyState(address _testTarget) public override {\n        super.verifyState(_testTarget);\n        require(delegateGet(_testTarget, this.valueToCheck.selector) == valueToCheck);\n    }\n\n    function finishUpgrade(address _target) public override onlyWhileUpgrading {\n        StakingEscrowV2Mock escrow = StakingEscrowV2Mock(_target);\n        valueToCheck = escrow.valueToCheck();\n        emit UpgradeFinished(_target, msg.sender);\n    }\n}\n\n\n/**\n* @notice Contract for testing staking escrow contract\n*/\ncontract PolicyManagerForStakingEscrowMock {\n\n    StakingEscrow public immutable escrow;\n    mapping (address => uint16[]) public nodes;\n\n    constructor(address, StakingEscrow _escrow) public {\n        escrow = _escrow;\n    }\n\n    function register(address _node, uint16 _period) external {\n        nodes[_node].push(_period);\n    }\n\n    function updateFee(address _node, uint16 _period) external {\n        nodes[_node].push(_period);\n    }\n\n    function setDefaultFeeDelta(address _node, uint16 _period) external {\n        nodes[_node].push(_period);\n    }\n\n    function getPeriodsLength(address _node) public view returns (uint256) {\n        return nodes[_node].length;\n    }\n\n    function getPeriod(address _node, uint256 _index) public view returns (uint16) {\n        return nodes[_node][_index];\n    }\n\n}\n\n\n/**\n* @notice Contract for testing staking escrow contract\n*/\ncontract AdjudicatorForStakingEscrowMock {\n\n    StakingEscrow public immutable escrow;\n\n    constructor(StakingEscrow _escrow) public {\n        escrow = _escrow;\n    }\n\n    function slashStaker(\n        address _staker,\n        uint256 _penalty,\n        address _investigator,\n        uint256 _reward\n    )\n        public\n    {\n        escrow.slashStaker(_staker, _penalty, _investigator, _reward);\n    }\n}\n\n/**\n* @notice Intermediary contract for testing worker\n*/\ncontract Intermediary {\n\n    NuCypherToken immutable token;\n    StakingEscrow immutable escrow;\n\n    constructor(NuCypherToken _token, StakingEscrow _escrow) public {\n        token = _token;\n        escrow = _escrow;\n    }\n\n    function bondWorker(address _worker) external {\n        escrow.bondWorker(_worker);\n    }\n\n    function deposit(uint256 _value, uint16 _periods) external {\n        token.approve(address(escrow), _value);\n        escrow.deposit(_value, _periods);\n    }\n\n    function commitToNextPeriod() external {\n        escrow.commitToNextPeriod();\n    }\n\n}\n\n\n/**\n* @notice Contract for testing staking escrow contract\n*/\ncontract WorkLockForStakingEscrowMock {\n\n    StakingEscrow public immutable escrow;\n\n    constructor(StakingEscrow _escrow) public {\n        escrow = _escrow;\n    }\n\n    function setWorkMeasurement(address _staker, bool _measureWork) external returns (uint256) {\n        return escrow.setWorkMeasurement(_staker, _measureWork);\n    }\n}\n",
  "sourcePath": "contracts/StakingEscrowTestSet.sol",
  "type": "contract"
}