{
  "abi": [
    {
      "inputs": [
        {
          "internalType": "contract NuCypherToken",
          "name": "_token",
          "type": "address"
        },
        {
          "internalType": "uint256",
          "name": "_minAllowableLockedTokens",
          "type": "uint256"
        },
        {
          "internalType": "uint256",
          "name": "_maxAllowableLockedTokens",
          "type": "uint256"
        },
        {
          "internalType": "uint16",
          "name": "_minLockedPeriods",
          "type": "uint16"
        }
      ],
      "stateMutability": "nonpayable",
      "type": "constructor"
    },
    {
      "inputs": [
        {
          "internalType": "address",
          "name": "_staker",
          "type": "address"
        },
        {
          "internalType": "uint256",
          "name": "_value",
          "type": "uint256"
        },
        {
          "internalType": "uint16",
          "name": "_periods",
          "type": "uint16"
        }
      ],
      "name": "deposit",
      "outputs": [],
      "stateMutability": "nonpayable",
      "type": "function"
    },
    {
      "inputs": [
        {
          "internalType": "address",
          "name": "_staker",
          "type": "address"
        }
      ],
      "name": "getCompletedWork",
      "outputs": [
        {
          "internalType": "uint256",
          "name": "",
          "type": "uint256"
        }
      ],
      "stateMutability": "view",
      "type": "function"
    },
    {
      "inputs": [],
      "name": "maxAllowableLockedTokens",
      "outputs": [
        {
          "internalType": "uint256",
          "name": "",
          "type": "uint256"
        }
      ],
      "stateMutability": "view",
      "type": "function"
    },
    {
      "inputs": [],
      "name": "minAllowableLockedTokens",
      "outputs": [
        {
          "internalType": "uint256",
          "name": "",
          "type": "uint256"
        }
      ],
      "stateMutability": "view",
      "type": "function"
    },
    {
      "inputs": [],
      "name": "minLockedPeriods",
      "outputs": [
        {
          "internalType": "uint16",
          "name": "",
          "type": "uint16"
        }
      ],
      "stateMutability": "view",
      "type": "function"
    },
    {
      "inputs": [],
      "name": "secondsPerPeriod",
      "outputs": [
        {
          "internalType": "uint32",
          "name": "",
          "type": "uint32"
        }
      ],
      "stateMutability": "view",
      "type": "function"
    },
    {
      "inputs": [
        {
          "internalType": "address",
          "name": "_staker",
          "type": "address"
        },
        {
          "internalType": "uint256",
          "name": "_completedWork",
          "type": "uint256"
        }
      ],
      "name": "setCompletedWork",
      "outputs": [],
      "stateMutability": "nonpayable",
      "type": "function"
    },
    {
      "inputs": [
        {
          "internalType": "address",
          "name": "_staker",
          "type": "address"
        },
        {
          "internalType": "bool",
          "name": "_measureWork",
          "type": "bool"
        }
      ],
      "name": "setWorkMeasurement",
      "outputs": [
        {
          "internalType": "uint256",
          "name": "",
          "type": "uint256"
        }
      ],
      "stateMutability": "nonpayable",
      "type": "function"
    },
    {
      "inputs": [
        {
          "internalType": "address",
          "name": "",
          "type": "address"
        }
      ],
      "name": "stakerInfo",
      "outputs": [
        {
          "internalType": "uint256",
          "name": "value",
          "type": "uint256"
        },
        {
          "internalType": "bool",
          "name": "measureWork",
          "type": "bool"
        },
        {
          "internalType": "uint256",
          "name": "completedWork",
          "type": "uint256"
        },
        {
          "internalType": "uint16",
          "name": "periods",
          "type": "uint16"
        }
      ],
      "stateMutability": "view",
      "type": "function"
    },
    {
      "inputs": [],
      "name": "token",
      "outputs": [
        {
          "internalType": "contract NuCypherToken",
          "name": "",
          "type": "address"
        }
      ],
      "stateMutability": "view",
      "type": "function"
    }
  ],
  "bytecode": "610120604052600160e01b60a05234801561001957600080fd5b5060405161054c38038061054c8339818101604052608081101561003c57600080fd5b508051602082015160408301516060938401519383901b6001600160601b03191660805260c082905260e081815260f085901b6001600160f01b0319166101005260a0516001600160a01b039094169493901c9261ffff166104846100c8600039806102335250806102fd5250806103215250806102575250806103b3528061042c52506104846000f3fe608060405234801561001057600080fd5b506004361061009e5760003560e01c80636fb653a2116100665780636fb653a2146101a15780638cab6c4f146101a9578063d094adbf146101b1578063d2d0e066146101d7578063fc0c546a1461020d5761009e565b80633ac5743d146100a3578063407f8001146100c257806349e5add4146100e35780634e745f1f146101235780635448f3c014610173575b600080fd5b6100ab610231565b6040805161ffff9092168252519081900360200190f35b6100ca610255565b6040805163ffffffff9092168252519081900360200190f35b610111600480360360408110156100f957600080fd5b506001600160a01b0381351690602001351515610279565b60408051918252519081900360200190f35b6101496004803603602081101561013957600080fd5b50356001600160a01b03166102ad565b6040805194855292151560208501528383019190915261ffff166060830152519081900360800190f35b61019f6004803603604081101561018957600080fd5b506001600160a01b0381351690602001356102dc565b005b6101116102fb565b61011161031f565b610111600480360360208110156101c757600080fd5b50356001600160a01b0316610343565b61019f600480360360608110156101ed57600080fd5b5080356001600160a01b0316906020810135906040013561ffff16610361565b61021561042a565b604080516001600160a01b039092168252519081900360200190f35b7f000000000000000000000000000000000000000000000000000000000000000081565b7f000000000000000000000000000000000000000000000000000000000000000081565b6001600160a01b038216600090815260208190526040902060018101805483151560ff199091161790556002015492915050565b6000602081905290815260409020805460018201546002830154600390930154919260ff9091169161ffff1684565b6001600160a01b03909116600090815260208190526040902060020155565b7f000000000000000000000000000000000000000000000000000000000000000081565b7f000000000000000000000000000000000000000000000000000000000000000081565b6001600160a01b031660009081526020819052604090206002015490565b6001600160a01b03838116600090815260208181526040808320868155600301805461ffff191661ffff871617905580516323b872dd60e01b81523360048201523060248201526044810187905290517f0000000000000000000000000000000000000000000000000000000000000000909416936323b872dd93606480840194938390030190829087803b1580156103f957600080fd5b505af115801561040d573d6000803e3d6000fd5b505050506040513d602081101561042357600080fd5b5050505050565b7f00000000000000000000000000000000000000000000000000000000000000008156fea2646970667358221220fac9a21f47eefdb485ba1fa32be1f12bb8f6b9c0c3b81a987b2ab7478d2a9fd664736f6c63430006070033",
  "bytecodeSha1": "2df2229e519ba7cb02d3bc7c5b82af74a8a303c5",
  "compiler": {
    "evm_version": "berlin",
    "optimizer": {
      "enabled": true,
      "runs": 200
    },
    "version": "0.6.7"
  },
  "contractName": "StakingEscrowForWorkLockMock",
  "language": "Solidity",
  "natspec": {
    "methods": {},
    "notice": "Contract for using in WorkLock tests"
  },
  "opcodes": "PUSH1 0x80 PUSH1 0x40 MSTORE CALLVALUE DUP1 ISZERO PUSH2 0x10 JUMPI PUSH1 0x0 DUP1 REVERT JUMPDEST POP PUSH1 0x4 CALLDATASIZE LT PUSH2 0x9E JUMPI PUSH1 0x0 CALLDATALOAD PUSH1 0xE0 SHR DUP1 PUSH4 0x6FB653A2 GT PUSH2 0x66 JUMPI DUP1 PUSH4 0x6FB653A2 EQ PUSH2 0x1A1 JUMPI DUP1 PUSH4 0x8CAB6C4F EQ PUSH2 0x1A9 JUMPI DUP1 PUSH4 0xD094ADBF EQ PUSH2 0x1B1 JUMPI DUP1 PUSH4 0xD2D0E066 EQ PUSH2 0x1D7 JUMPI DUP1 PUSH4 0xFC0C546A EQ PUSH2 0x20D JUMPI PUSH2 0x9E JUMP JUMPDEST DUP1 PUSH4 0x3AC5743D EQ PUSH2 0xA3 JUMPI DUP1 PUSH4 0x407F8001 EQ PUSH2 0xC2 JUMPI DUP1 PUSH4 0x49E5ADD4 EQ PUSH2 0xE3 JUMPI DUP1 PUSH4 0x4E745F1F EQ PUSH2 0x123 JUMPI DUP1 PUSH4 0x5448F3C0 EQ PUSH2 0x173 JUMPI JUMPDEST PUSH1 0x0 DUP1 REVERT JUMPDEST PUSH2 0xAB PUSH2 0x231 JUMP JUMPDEST PUSH1 0x40 DUP1 MLOAD PUSH2 0xFFFF SWAP1 SWAP3 AND DUP3 MSTORE MLOAD SWAP1 DUP2 SWAP1 SUB PUSH1 0x20 ADD SWAP1 RETURN JUMPDEST PUSH2 0xCA PUSH2 0x255 JUMP JUMPDEST PUSH1 0x40 DUP1 MLOAD PUSH4 0xFFFFFFFF SWAP1 SWAP3 AND DUP3 MSTORE MLOAD SWAP1 DUP2 SWAP1 SUB PUSH1 0x20 ADD SWAP1 RETURN JUMPDEST PUSH2 0x111 PUSH1 0x4 DUP1 CALLDATASIZE SUB PUSH1 0x40 DUP2 LT ISZERO PUSH2 0xF9 JUMPI PUSH1 0x0 DUP1 REVERT JUMPDEST POP PUSH1 0x1 PUSH1 0x1 PUSH1 0xA0 SHL SUB DUP2 CALLDATALOAD AND SWAP1 PUSH1 0x20 ADD CALLDATALOAD ISZERO ISZERO PUSH2 0x279 JUMP JUMPDEST PUSH1 0x40 DUP1 MLOAD SWAP2 DUP3 MSTORE MLOAD SWAP1 DUP2 SWAP1 SUB PUSH1 0x20 ADD SWAP1 RETURN JUMPDEST PUSH2 0x149 PUSH1 0x4 DUP1 CALLDATASIZE SUB PUSH1 0x20 DUP2 LT ISZERO PUSH2 0x139 JUMPI PUSH1 0x0 DUP1 REVERT JUMPDEST POP CALLDATALOAD PUSH1 0x1 PUSH1 0x1 PUSH1 0xA0 SHL SUB AND PUSH2 0x2AD JUMP JUMPDEST PUSH1 0x40 DUP1 MLOAD SWAP5 DUP6 MSTORE SWAP3 ISZERO ISZERO PUSH1 0x20 DUP6 ADD MSTORE DUP4 DUP4 ADD SWAP2 SWAP1 SWAP2 MSTORE PUSH2 0xFFFF AND PUSH1 0x60 DUP4 ADD MSTORE MLOAD SWAP1 DUP2 SWAP1 SUB PUSH1 0x80 ADD SWAP1 RETURN JUMPDEST PUSH2 0x19F PUSH1 0x4 DUP1 CALLDATASIZE SUB PUSH1 0x40 DUP2 LT ISZERO PUSH2 0x189 JUMPI PUSH1 0x0 DUP1 REVERT JUMPDEST POP PUSH1 0x1 PUSH1 0x1 PUSH1 0xA0 SHL SUB DUP2 CALLDATALOAD AND SWAP1 PUSH1 0x20 ADD CALLDATALOAD PUSH2 0x2DC JUMP JUMPDEST STOP JUMPDEST PUSH2 0x111 PUSH2 0x2FB JUMP JUMPDEST PUSH2 0x111 PUSH2 0x31F JUMP JUMPDEST PUSH2 0x111 PUSH1 0x4 DUP1 CALLDATASIZE SUB PUSH1 0x20 DUP2 LT ISZERO PUSH2 0x1C7 JUMPI PUSH1 0x0 DUP1 REVERT JUMPDEST POP CALLDATALOAD PUSH1 0x1 PUSH1 0x1 PUSH1 0xA0 SHL SUB AND PUSH2 0x343 JUMP JUMPDEST PUSH2 0x19F PUSH1 0x4 DUP1 CALLDATASIZE SUB PUSH1 0x60 DUP2 LT ISZERO PUSH2 0x1ED JUMPI PUSH1 0x0 DUP1 REVERT JUMPDEST POP DUP1 CALLDATALOAD PUSH1 0x1 PUSH1 0x1 PUSH1 0xA0 SHL SUB AND SWAP1 PUSH1 0x20 DUP2 ADD CALLDATALOAD SWAP1 PUSH1 0x40 ADD CALLDATALOAD PUSH2 0xFFFF AND PUSH2 0x361 JUMP JUMPDEST PUSH2 0x215 PUSH2 0x42A JUMP JUMPDEST PUSH1 0x40 DUP1 MLOAD PUSH1 0x1 PUSH1 0x1 PUSH1 0xA0 SHL SUB SWAP1 SWAP3 AND DUP3 MSTORE MLOAD SWAP1 DUP2 SWAP1 SUB PUSH1 0x20 ADD SWAP1 RETURN JUMPDEST PUSH32 0x0 DUP2 JUMP JUMPDEST PUSH32 0x0 DUP2 JUMP JUMPDEST PUSH1 0x1 PUSH1 0x1 PUSH1 0xA0 SHL SUB DUP3 AND PUSH1 0x0 SWAP1 DUP2 MSTORE PUSH1 0x20 DUP2 SWAP1 MSTORE PUSH1 0x40 SWAP1 KECCAK256 PUSH1 0x1 DUP2 ADD DUP1 SLOAD DUP4 ISZERO ISZERO PUSH1 0xFF NOT SWAP1 SWAP2 AND OR SWAP1 SSTORE PUSH1 0x2 ADD SLOAD SWAP3 SWAP2 POP POP JUMP JUMPDEST PUSH1 0x0 PUSH1 0x20 DUP2 SWAP1 MSTORE SWAP1 DUP2 MSTORE PUSH1 0x40 SWAP1 KECCAK256 DUP1 SLOAD PUSH1 0x1 DUP3 ADD SLOAD PUSH1 0x2 DUP4 ADD SLOAD PUSH1 0x3 SWAP1 SWAP4 ADD SLOAD SWAP2 SWAP3 PUSH1 0xFF SWAP1 SWAP2 AND SWAP2 PUSH2 0xFFFF AND DUP5 JUMP JUMPDEST PUSH1 0x1 PUSH1 0x1 PUSH1 0xA0 SHL SUB SWAP1 SWAP2 AND PUSH1 0x0 SWAP1 DUP2 MSTORE PUSH1 0x20 DUP2 SWAP1 MSTORE PUSH1 0x40 SWAP1 KECCAK256 PUSH1 0x2 ADD SSTORE JUMP JUMPDEST PUSH32 0x0 DUP2 JUMP JUMPDEST PUSH32 0x0 DUP2 JUMP JUMPDEST PUSH1 0x1 PUSH1 0x1 PUSH1 0xA0 SHL SUB AND PUSH1 0x0 SWAP1 DUP2 MSTORE PUSH1 0x20 DUP2 SWAP1 MSTORE PUSH1 0x40 SWAP1 KECCAK256 PUSH1 0x2 ADD SLOAD SWAP1 JUMP JUMPDEST PUSH1 0x1 PUSH1 0x1 PUSH1 0xA0 SHL SUB DUP4 DUP2 AND PUSH1 0x0 SWAP1 DUP2 MSTORE PUSH1 0x20 DUP2 DUP2 MSTORE PUSH1 0x40 DUP1 DUP4 KECCAK256 DUP7 DUP2 SSTORE PUSH1 0x3 ADD DUP1 SLOAD PUSH2 0xFFFF NOT AND PUSH2 0xFFFF DUP8 AND OR SWAP1 SSTORE DUP1 MLOAD PUSH4 0x23B872DD PUSH1 0xE0 SHL DUP2 MSTORE CALLER PUSH1 0x4 DUP3 ADD MSTORE ADDRESS PUSH1 0x24 DUP3 ADD MSTORE PUSH1 0x44 DUP2 ADD DUP8 SWAP1 MSTORE SWAP1 MLOAD PUSH32 0x0 SWAP1 SWAP5 AND SWAP4 PUSH4 0x23B872DD SWAP4 PUSH1 0x64 DUP1 DUP5 ADD SWAP5 SWAP4 DUP4 SWAP1 SUB ADD SWAP1 DUP3 SWAP1 DUP8 DUP1 EXTCODESIZE ISZERO DUP1 ISZERO PUSH2 0x3F9 JUMPI PUSH1 0x0 DUP1 REVERT JUMPDEST POP GAS CALL ISZERO DUP1 ISZERO PUSH2 0x40D JUMPI RETURNDATASIZE PUSH1 0x0 DUP1 RETURNDATACOPY RETURNDATASIZE PUSH1 0x0 REVERT JUMPDEST POP POP POP POP PUSH1 0x40 MLOAD RETURNDATASIZE PUSH1 0x20 DUP2 LT ISZERO PUSH2 0x423 JUMPI PUSH1 0x0 DUP1 REVERT JUMPDEST POP POP POP POP POP JUMP JUMPDEST PUSH32 0x0 DUP2 JUMP INVALID LOG2 PUSH5 0x6970667358 0x22 SLT KECCAK256 STATICCALL 0xC9 LOG2 0x1F SELFBALANCE 0xEE REVERT 0xB4 DUP6 0xBA 0x1F LOG3 0x2B 0xE1 CALL 0x2B 0xB8 0xF6 0xB9 0xC0 0xC3 0xB8 BYTE SWAP9 PUSH28 0x2AB7478D2A9FD664736F6C6343000607003300000000000000000000 ",
  "sha1": "ed130cf5548fec234dc2ad0e86e3d626cf0ddbfd",
  "source": "pragma solidity ^0.6.5;\n\n\nimport \"contracts/NuCypherToken.sol\";\n\n\n/**\n* @notice Contract for using in WorkLock tests\n*/\ncontract StakingEscrowForWorkLockMock {\n\n    struct StakerInfo {\n        uint256 value;\n        bool measureWork;\n        uint256 completedWork;\n        uint16 periods;\n    }\n\n    NuCypherToken public immutable token;\n    uint32 public immutable secondsPerPeriod = 1;\n    uint256 public immutable minAllowableLockedTokens;\n    uint256 public immutable maxAllowableLockedTokens;\n    uint16 public immutable minLockedPeriods;\n\n    mapping (address => StakerInfo) public stakerInfo;\n\n    constructor(\n        NuCypherToken _token,\n        uint256 _minAllowableLockedTokens,\n        uint256 _maxAllowableLockedTokens,\n        uint16 _minLockedPeriods\n    )\n        public\n    {\n        token = _token;\n        minAllowableLockedTokens = _minAllowableLockedTokens;\n        maxAllowableLockedTokens = _maxAllowableLockedTokens;\n        minLockedPeriods = _minLockedPeriods;\n    }\n\n    function getCompletedWork(address _staker) external view returns (uint256) {\n        return stakerInfo[_staker].completedWork;\n    }\n\n    function setWorkMeasurement(address _staker, bool _measureWork) external returns (uint256) {\n        stakerInfo[_staker].measureWork = _measureWork;\n        return stakerInfo[_staker].completedWork;\n    }\n\n    function deposit(address _staker, uint256 _value, uint16 _periods) external {\n        stakerInfo[_staker].value = _value;\n        stakerInfo[_staker].periods = _periods;\n        token.transferFrom(msg.sender, address(this), _value);\n    }\n\n    function setCompletedWork(address _staker, uint256 _completedWork) external {\n        stakerInfo[_staker].completedWork = _completedWork;\n    }\n\n}\n",
  "sourcePath": "contracts/WorkLockTestSet.sol",
  "type": "contract"
}