{
  "abi": [
    {
      "inputs": [
        {
          "internalType": "bytes",
          "name": "_capsuleBytes",
          "type": "bytes"
        }
      ],
      "name": "toCapsule",
      "outputs": [
        {
          "internalType": "bytes1",
          "name": "pointESign",
          "type": "bytes1"
        },
        {
          "internalType": "bytes32",
          "name": "pointEXCoord",
          "type": "bytes32"
        },
        {
          "internalType": "bytes1",
          "name": "pointVSign",
          "type": "bytes1"
        },
        {
          "internalType": "bytes32",
          "name": "pointVXCoord",
          "type": "bytes32"
        },
        {
          "internalType": "bytes32",
          "name": "bnSig",
          "type": "bytes32"
        }
      ],
      "stateMutability": "pure",
      "type": "function"
    },
    {
      "inputs": [
        {
          "internalType": "bytes",
          "name": "_cFragBytes",
          "type": "bytes"
        }
      ],
      "name": "toCapsuleFrag",
      "outputs": [
        {
          "internalType": "bytes1",
          "name": "pointE1Sign",
          "type": "bytes1"
        },
        {
          "internalType": "bytes32",
          "name": "pointE1XCoord",
          "type": "bytes32"
        },
        {
          "internalType": "bytes1",
          "name": "pointV1Sign",
          "type": "bytes1"
        },
        {
          "internalType": "bytes32",
          "name": "pointV1XCoord",
          "type": "bytes32"
        },
        {
          "internalType": "bytes32",
          "name": "kFragId",
          "type": "bytes32"
        },
        {
          "internalType": "bytes1",
          "name": "pointPrecursorSign",
          "type": "bytes1"
        },
        {
          "internalType": "bytes32",
          "name": "pointPrecursorXCoord",
          "type": "bytes32"
        }
      ],
      "stateMutability": "pure",
      "type": "function"
    },
    {
      "inputs": [
        {
          "internalType": "bytes",
          "name": "_proofBytes",
          "type": "bytes"
        }
      ],
      "name": "toCorrectnessProof",
      "outputs": [
        {
          "internalType": "bytes1",
          "name": "pointE2Sign",
          "type": "bytes1"
        },
        {
          "internalType": "bytes32",
          "name": "pointE2XCoord",
          "type": "bytes32"
        },
        {
          "internalType": "bytes1",
          "name": "pointV2Sign",
          "type": "bytes1"
        },
        {
          "internalType": "bytes32",
          "name": "pointV2XCoord",
          "type": "bytes32"
        },
        {
          "internalType": "bytes1",
          "name": "pointKFragCommitmentSign",
          "type": "bytes1"
        },
        {
          "internalType": "bytes32",
          "name": "pointKFragCommitmentXCoord",
          "type": "bytes32"
        },
        {
          "internalType": "bytes1",
          "name": "pointKFragPokSign",
          "type": "bytes1"
        },
        {
          "internalType": "bytes32",
          "name": "pointKFragPokXCoord",
          "type": "bytes32"
        },
        {
          "internalType": "bytes32",
          "name": "bnSig",
          "type": "bytes32"
        },
        {
          "internalType": "bytes",
          "name": "kFragSignature",
          "type": "bytes"
        },
        {
          "internalType": "bytes",
          "name": "metadata",
          "type": "bytes"
        }
      ],
      "stateMutability": "pure",
      "type": "function"
    },
    {
      "inputs": [
        {
          "internalType": "bytes",
          "name": "_cFragBytes",
          "type": "bytes"
        }
      ],
      "name": "toCorrectnessProofFromCapsuleFrag",
      "outputs": [
        {
          "internalType": "bytes1",
          "name": "pointE2Sign",
          "type": "bytes1"
        },
        {
          "internalType": "bytes32",
          "name": "pointE2XCoord",
          "type": "bytes32"
        },
        {
          "internalType": "bytes1",
          "name": "pointV2Sign",
          "type": "bytes1"
        },
        {
          "internalType": "bytes32",
          "name": "pointV2XCoord",
          "type": "bytes32"
        },
        {
          "internalType": "bytes1",
          "name": "pointKFragCommitmentSign",
          "type": "bytes1"
        },
        {
          "internalType": "bytes32",
          "name": "pointKFragCommitmentXCoord",
          "type": "bytes32"
        },
        {
          "internalType": "bytes1",
          "name": "pointKFragPokSign",
          "type": "bytes1"
        },
        {
          "internalType": "bytes32",
          "name": "pointKFragPokXCoord",
          "type": "bytes32"
        },
        {
          "internalType": "bytes32",
          "name": "bnSig",
          "type": "bytes32"
        },
        {
          "internalType": "bytes",
          "name": "kFragSignature",
          "type": "bytes"
        },
        {
          "internalType": "bytes",
          "name": "metadata",
          "type": "bytes"
        }
      ],
      "stateMutability": "pure",
      "type": "function"
    }
  ],
  "bytecode": "608060405234801561001057600080fd5b50610a8e806100206000396000f3fe608060405234801561001057600080fd5b506004361061004c5760003560e01c80634b23d91a146100515780635d9cbcbe14610130578063be0b31c614610312578063dad66b0014610403575b600080fd5b6100f56004803603602081101561006757600080fd5b810190602081018135600160201b81111561008157600080fd5b82018360208201111561009357600080fd5b803590602001918460018302840111600160201b831117156100b457600080fd5b91908080601f0160208091040260200160405190810160405280939291908181526020018383808284376000920191909152509295506104a7945050505050565b604080516001600160f81b03199687168152602081019590955292909416838301526060830152608082019290925290519081900360a00190f35b6101d46004803603602081101561014657600080fd5b810190602081018135600160201b81111561016057600080fd5b82018360208201111561017257600080fd5b803590602001918460018302840111600160201b8311171561019357600080fd5b91908080601f0160208091040260200160405190810160405280939291908181526020018383808284376000920191909152509295506104f3945050505050565b604080516001600160f81b0319808e16825260208083018e90528c821693830193909352606082018b9052898116608083015260a08201899052871660c082015260e08101869052610100810185905261016061012082018181528551918301919091528451919290916101408401916101808501919087019080838360005b8381101561026c578181015183820152602001610254565b50505050905090810190601f1680156102995780820380516001836020036101000a031916815260200191505b50838103825284518152845160209182019186019080838360005b838110156102cc5781810151838201526020016102b4565b50505050905090810190601f1680156102f95780820380516001836020036101000a031916815260200191505b509d505050505050505050505050505060405180910390f35b6103b66004803603602081101561032857600080fd5b810190602081018135600160201b81111561034257600080fd5b82018360208201111561035457600080fd5b803590602001918460018302840111600160201b8311171561037557600080fd5b91908080601f0160208091040260200160405190810160405280939291908181526020018383808284376000920191909152509295506105bf945050505050565b604080516001600160f81b031998891681526020810197909752948716868601526060860193909352608085019190915290931660a083015260c082019290925290519081900360e00190f35b6101d46004803603602081101561041957600080fd5b810190602081018135600160201b81111561043357600080fd5b82018360208201111561044557600080fd5b803590602001918460018302840111600160201b8311171561046657600080fd5b91908080601f016020809104026020016040519081016040528093929190818152602001838380828437600092019190915250929550610644945050505050565b60008060008060006104b7610979565b6104c087610700565b8051805160209182015182840151805193015160409094015160f892831b9c919b509290911b9850919650945092505050565b600080600080600080600080600060608061050c6109a6565b6105158d610757565b905061051f6109ec565b8160800151905080600001516000015160f81b9c5080600001516020015160001b9b5080602001516000015160f81b9a5080602001516020015160001b995080604001516000015160f81b985080604001516020015160001b975080606001516000015160f81b965080606001516020015160001b9550806080015160001b94508060a0015193508060c001519250505091939597999b90929496989a50565b60008060008060008060006105d26109a6565b6105db89610757565b905080600001516000015160f81b975080600001516020015160001b965080602001516000015160f81b955080602001516020015160001b94508060400151935080606001516000015160f81b925080606001516020015160001b915050919395979092949650565b600080600080600080600080600060608061065d6109ec565b6106668d6107df565b905080600001516000015160f81b9b5080600001516020015160001b9a5080602001516000015160f81b995080602001516020015160001b985080604001516000015160f81b975080604001516020015160001b965080606001516000015160f81b955080606001516020015160001b9450806080015160001b93508060a0015192508060c0015191505091939597999b90929496989a50565b610708610979565b815160621461071657600080fd5b600061072183610806565b905061073181836000015161080c565b905061074181836020015161080c565b905061074c81610827565b604083015250919050565b61075f6109a6565b815161016781101561077057600080fd5b600061077b84610806565b905061078b81846000015161080c565b905061079b81846020015161080c565b90506107a681610827565b60408401526060830151602091909101906107c290829061080c565b90506107d281608219840161082b565b6080840152509092915050565b6107e76109ec565b60006107f283610806565b90506107ff81845161082b565b9392505050565b60200190565b8151600183015160009190911a825260209091015260210190565b5190565b6108336109ec565b60e482101561084157600080fd5b61084f83826000015161080c565b925061085f83826020015161080c565b925061086f83826040015161080c565b925061087f83826060015161080c565b925061088a83610827565b608082015260408051818152606081018252602094909401939060208201818036833750505060a082018190526108c49084906040610932565b925060e482111561092c5760e319820167ffffffffffffffff811180156108ea57600080fd5b506040519080825280601f01601f191660200182016040528015610915576020820181803683370190505b5060c08201819052805161092a918591610932565b505b92915050565b60006020601f830104846020850160005b8381101561095f57602081028381015190830152600101610943565b505050506000835160200184015281840190509392505050565b604051806060016040528061098c610a41565b8152602001610999610a41565b8152602001600081525090565b6040518060a001604052806109b9610a41565b81526020016109c6610a41565b8152600060208201526040016109da610a41565b81526020016109e76109ec565b905290565b6040518060e001604052806109ff610a41565b8152602001610a0c610a41565b8152602001610a19610a41565b8152602001610a26610a41565b81526020016000815260200160608152602001606081525090565b60408051808201909152600080825260208201529056fea2646970667358221220b75dbf27b1d13e97f3752cf35b5b0cb4662ddda551e861da96bb2ccd2f3842a164736f6c63430006070033",
  "bytecodeSha1": "4b865aae82614f67bbe972119347c7f2fe437657",
  "compiler": {
    "evm_version": "berlin",
    "optimizer": {
      "enabled": true,
      "runs": 200
    },
    "version": "0.6.7"
  },
  "contractName": "UmbralDeserializerMock",
  "language": "Solidity",
  "natspec": {
    "details": "Contract for testing UmbralDeserializer library",
    "methods": {}
  },
  "opcodes": "PUSH1 0x80 PUSH1 0x40 MSTORE CALLVALUE DUP1 ISZERO PUSH2 0x10 JUMPI PUSH1 0x0 DUP1 REVERT JUMPDEST POP PUSH1 0x4 CALLDATASIZE LT PUSH2 0x4C JUMPI PUSH1 0x0 CALLDATALOAD PUSH1 0xE0 SHR DUP1 PUSH4 0x4B23D91A EQ PUSH2 0x51 JUMPI DUP1 PUSH4 0x5D9CBCBE EQ PUSH2 0x130 JUMPI DUP1 PUSH4 0xBE0B31C6 EQ PUSH2 0x312 JUMPI DUP1 PUSH4 0xDAD66B00 EQ PUSH2 0x403 JUMPI JUMPDEST PUSH1 0x0 DUP1 REVERT JUMPDEST PUSH2 0xF5 PUSH1 0x4 DUP1 CALLDATASIZE SUB PUSH1 0x20 DUP2 LT ISZERO PUSH2 0x67 JUMPI PUSH1 0x0 DUP1 REVERT JUMPDEST DUP2 ADD SWAP1 PUSH1 0x20 DUP2 ADD DUP2 CALLDATALOAD PUSH1 0x1 PUSH1 0x20 SHL DUP2 GT ISZERO PUSH2 0x81 JUMPI PUSH1 0x0 DUP1 REVERT JUMPDEST DUP3 ADD DUP4 PUSH1 0x20 DUP3 ADD GT ISZERO PUSH2 0x93 JUMPI PUSH1 0x0 DUP1 REVERT JUMPDEST DUP1 CALLDATALOAD SWAP1 PUSH1 0x20 ADD SWAP2 DUP5 PUSH1 0x1 DUP4 MUL DUP5 ADD GT PUSH1 0x1 PUSH1 0x20 SHL DUP4 GT OR ISZERO PUSH2 0xB4 JUMPI PUSH1 0x0 DUP1 REVERT JUMPDEST SWAP2 SWAP1 DUP1 DUP1 PUSH1 0x1F ADD PUSH1 0x20 DUP1 SWAP2 DIV MUL PUSH1 0x20 ADD PUSH1 0x40 MLOAD SWAP1 DUP2 ADD PUSH1 0x40 MSTORE DUP1 SWAP4 SWAP3 SWAP2 SWAP1 DUP2 DUP2 MSTORE PUSH1 0x20 ADD DUP4 DUP4 DUP1 DUP3 DUP5 CALLDATACOPY PUSH1 0x0 SWAP3 ADD SWAP2 SWAP1 SWAP2 MSTORE POP SWAP3 SWAP6 POP PUSH2 0x4A7 SWAP5 POP POP POP POP POP JUMP JUMPDEST PUSH1 0x40 DUP1 MLOAD PUSH1 0x1 PUSH1 0x1 PUSH1 0xF8 SHL SUB NOT SWAP7 DUP8 AND DUP2 MSTORE PUSH1 0x20 DUP2 ADD SWAP6 SWAP1 SWAP6 MSTORE SWAP3 SWAP1 SWAP5 AND DUP4 DUP4 ADD MSTORE PUSH1 0x60 DUP4 ADD MSTORE PUSH1 0x80 DUP3 ADD SWAP3 SWAP1 SWAP3 MSTORE SWAP1 MLOAD SWAP1 DUP2 SWAP1 SUB PUSH1 0xA0 ADD SWAP1 RETURN JUMPDEST PUSH2 0x1D4 PUSH1 0x4 DUP1 CALLDATASIZE SUB PUSH1 0x20 DUP2 LT ISZERO PUSH2 0x146 JUMPI PUSH1 0x0 DUP1 REVERT JUMPDEST DUP2 ADD SWAP1 PUSH1 0x20 DUP2 ADD DUP2 CALLDATALOAD PUSH1 0x1 PUSH1 0x20 SHL DUP2 GT ISZERO PUSH2 0x160 JUMPI PUSH1 0x0 DUP1 REVERT JUMPDEST DUP3 ADD DUP4 PUSH1 0x20 DUP3 ADD GT ISZERO PUSH2 0x172 JUMPI PUSH1 0x0 DUP1 REVERT JUMPDEST DUP1 CALLDATALOAD SWAP1 PUSH1 0x20 ADD SWAP2 DUP5 PUSH1 0x1 DUP4 MUL DUP5 ADD GT PUSH1 0x1 PUSH1 0x20 SHL DUP4 GT OR ISZERO PUSH2 0x193 JUMPI PUSH1 0x0 DUP1 REVERT JUMPDEST SWAP2 SWAP1 DUP1 DUP1 PUSH1 0x1F ADD PUSH1 0x20 DUP1 SWAP2 DIV MUL PUSH1 0x20 ADD PUSH1 0x40 MLOAD SWAP1 DUP2 ADD PUSH1 0x40 MSTORE DUP1 SWAP4 SWAP3 SWAP2 SWAP1 DUP2 DUP2 MSTORE PUSH1 0x20 ADD DUP4 DUP4 DUP1 DUP3 DUP5 CALLDATACOPY PUSH1 0x0 SWAP3 ADD SWAP2 SWAP1 SWAP2 MSTORE POP SWAP3 SWAP6 POP PUSH2 0x4F3 SWAP5 POP POP POP POP POP JUMP JUMPDEST PUSH1 0x40 DUP1 MLOAD PUSH1 0x1 PUSH1 0x1 PUSH1 0xF8 SHL SUB NOT DUP1 DUP15 AND DUP3 MSTORE PUSH1 0x20 DUP1 DUP4 ADD DUP15 SWAP1 MSTORE DUP13 DUP3 AND SWAP4 DUP4 ADD SWAP4 SWAP1 SWAP4 MSTORE PUSH1 0x60 DUP3 ADD DUP12 SWAP1 MSTORE DUP10 DUP2 AND PUSH1 0x80 DUP4 ADD MSTORE PUSH1 0xA0 DUP3 ADD DUP10 SWAP1 MSTORE DUP8 AND PUSH1 0xC0 DUP3 ADD MSTORE PUSH1 0xE0 DUP2 ADD DUP7 SWAP1 MSTORE PUSH2 0x100 DUP2 ADD DUP6 SWAP1 MSTORE PUSH2 0x160 PUSH2 0x120 DUP3 ADD DUP2 DUP2 MSTORE DUP6 MLOAD SWAP2 DUP4 ADD SWAP2 SWAP1 SWAP2 MSTORE DUP5 MLOAD SWAP2 SWAP3 SWAP1 SWAP2 PUSH2 0x140 DUP5 ADD SWAP2 PUSH2 0x180 DUP6 ADD SWAP2 SWAP1 DUP8 ADD SWAP1 DUP1 DUP4 DUP4 PUSH1 0x0 JUMPDEST DUP4 DUP2 LT ISZERO PUSH2 0x26C JUMPI DUP2 DUP2 ADD MLOAD DUP4 DUP3 ADD MSTORE PUSH1 0x20 ADD PUSH2 0x254 JUMP JUMPDEST POP POP POP POP SWAP1 POP SWAP1 DUP2 ADD SWAP1 PUSH1 0x1F AND DUP1 ISZERO PUSH2 0x299 JUMPI DUP1 DUP3 SUB DUP1 MLOAD PUSH1 0x1 DUP4 PUSH1 0x20 SUB PUSH2 0x100 EXP SUB NOT AND DUP2 MSTORE PUSH1 0x20 ADD SWAP2 POP JUMPDEST POP DUP4 DUP2 SUB DUP3 MSTORE DUP5 MLOAD DUP2 MSTORE DUP5 MLOAD PUSH1 0x20 SWAP2 DUP3 ADD SWAP2 DUP7 ADD SWAP1 DUP1 DUP4 DUP4 PUSH1 0x0 JUMPDEST DUP4 DUP2 LT ISZERO PUSH2 0x2CC JUMPI DUP2 DUP2 ADD MLOAD DUP4 DUP3 ADD MSTORE PUSH1 0x20 ADD PUSH2 0x2B4 JUMP JUMPDEST POP POP POP POP SWAP1 POP SWAP1 DUP2 ADD SWAP1 PUSH1 0x1F AND DUP1 ISZERO PUSH2 0x2F9 JUMPI DUP1 DUP3 SUB DUP1 MLOAD PUSH1 0x1 DUP4 PUSH1 0x20 SUB PUSH2 0x100 EXP SUB NOT AND DUP2 MSTORE PUSH1 0x20 ADD SWAP2 POP JUMPDEST POP SWAP14 POP POP POP POP POP POP POP POP POP POP POP POP POP POP PUSH1 0x40 MLOAD DUP1 SWAP2 SUB SWAP1 RETURN JUMPDEST PUSH2 0x3B6 PUSH1 0x4 DUP1 CALLDATASIZE SUB PUSH1 0x20 DUP2 LT ISZERO PUSH2 0x328 JUMPI PUSH1 0x0 DUP1 REVERT JUMPDEST DUP2 ADD SWAP1 PUSH1 0x20 DUP2 ADD DUP2 CALLDATALOAD PUSH1 0x1 PUSH1 0x20 SHL DUP2 GT ISZERO PUSH2 0x342 JUMPI PUSH1 0x0 DUP1 REVERT JUMPDEST DUP3 ADD DUP4 PUSH1 0x20 DUP3 ADD GT ISZERO PUSH2 0x354 JUMPI PUSH1 0x0 DUP1 REVERT JUMPDEST DUP1 CALLDATALOAD SWAP1 PUSH1 0x20 ADD SWAP2 DUP5 PUSH1 0x1 DUP4 MUL DUP5 ADD GT PUSH1 0x1 PUSH1 0x20 SHL DUP4 GT OR ISZERO PUSH2 0x375 JUMPI PUSH1 0x0 DUP1 REVERT JUMPDEST SWAP2 SWAP1 DUP1 DUP1 PUSH1 0x1F ADD PUSH1 0x20 DUP1 SWAP2 DIV MUL PUSH1 0x20 ADD PUSH1 0x40 MLOAD SWAP1 DUP2 ADD PUSH1 0x40 MSTORE DUP1 SWAP4 SWAP3 SWAP2 SWAP1 DUP2 DUP2 MSTORE PUSH1 0x20 ADD DUP4 DUP4 DUP1 DUP3 DUP5 CALLDATACOPY PUSH1 0x0 SWAP3 ADD SWAP2 SWAP1 SWAP2 MSTORE POP SWAP3 SWAP6 POP PUSH2 0x5BF SWAP5 POP POP POP POP POP JUMP JUMPDEST PUSH1 0x40 DUP1 MLOAD PUSH1 0x1 PUSH1 0x1 PUSH1 0xF8 SHL SUB NOT SWAP9 DUP10 AND DUP2 MSTORE PUSH1 0x20 DUP2 ADD SWAP8 SWAP1 SWAP8 MSTORE SWAP5 DUP8 AND DUP7 DUP7 ADD MSTORE PUSH1 0x60 DUP7 ADD SWAP4 SWAP1 SWAP4 MSTORE PUSH1 0x80 DUP6 ADD SWAP2 SWAP1 SWAP2 MSTORE SWAP1 SWAP4 AND PUSH1 0xA0 DUP4 ADD MSTORE PUSH1 0xC0 DUP3 ADD SWAP3 SWAP1 SWAP3 MSTORE SWAP1 MLOAD SWAP1 DUP2 SWAP1 SUB PUSH1 0xE0 ADD SWAP1 RETURN JUMPDEST PUSH2 0x1D4 PUSH1 0x4 DUP1 CALLDATASIZE SUB PUSH1 0x20 DUP2 LT ISZERO PUSH2 0x419 JUMPI PUSH1 0x0 DUP1 REVERT JUMPDEST DUP2 ADD SWAP1 PUSH1 0x20 DUP2 ADD DUP2 CALLDATALOAD PUSH1 0x1 PUSH1 0x20 SHL DUP2 GT ISZERO PUSH2 0x433 JUMPI PUSH1 0x0 DUP1 REVERT JUMPDEST DUP3 ADD DUP4 PUSH1 0x20 DUP3 ADD GT ISZERO PUSH2 0x445 JUMPI PUSH1 0x0 DUP1 REVERT JUMPDEST DUP1 CALLDATALOAD SWAP1 PUSH1 0x20 ADD SWAP2 DUP5 PUSH1 0x1 DUP4 MUL DUP5 ADD GT PUSH1 0x1 PUSH1 0x20 SHL DUP4 GT OR ISZERO PUSH2 0x466 JUMPI PUSH1 0x0 DUP1 REVERT JUMPDEST SWAP2 SWAP1 DUP1 DUP1 PUSH1 0x1F ADD PUSH1 0x20 DUP1 SWAP2 DIV MUL PUSH1 0x20 ADD PUSH1 0x40 MLOAD SWAP1 DUP2 ADD PUSH1 0x40 MSTORE DUP1 SWAP4 SWAP3 SWAP2 SWAP1 DUP2 DUP2 MSTORE PUSH1 0x20 ADD DUP4 DUP4 DUP1 DUP3 DUP5 CALLDATACOPY PUSH1 0x0 SWAP3 ADD SWAP2 SWAP1 SWAP2 MSTORE POP SWAP3 SWAP6 POP PUSH2 0x644 SWAP5 POP POP POP POP POP JUMP JUMPDEST PUSH1 0x0 DUP1 PUSH1 0x0 DUP1 PUSH1 0x0 PUSH2 0x4B7 PUSH2 0x979 JUMP JUMPDEST PUSH2 0x4C0 DUP8 PUSH2 0x700 JUMP JUMPDEST DUP1 MLOAD DUP1 MLOAD PUSH1 0x20 SWAP2 DUP3 ADD MLOAD DUP3 DUP5 ADD MLOAD DUP1 MLOAD SWAP4 ADD MLOAD PUSH1 0x40 SWAP1 SWAP5 ADD MLOAD PUSH1 0xF8 SWAP3 DUP4 SHL SWAP13 SWAP2 SWAP12 POP SWAP3 SWAP1 SWAP2 SHL SWAP9 POP SWAP2 SWAP7 POP SWAP5 POP SWAP3 POP POP POP JUMP JUMPDEST PUSH1 0x0 DUP1 PUSH1 0x0 DUP1 PUSH1 0x0 DUP1 PUSH1 0x0 DUP1 PUSH1 0x0 PUSH1 0x60 DUP1 PUSH2 0x50C PUSH2 0x9A6 JUMP JUMPDEST PUSH2 0x515 DUP14 PUSH2 0x757 JUMP JUMPDEST SWAP1 POP PUSH2 0x51F PUSH2 0x9EC JUMP JUMPDEST DUP2 PUSH1 0x80 ADD MLOAD SWAP1 POP DUP1 PUSH1 0x0 ADD MLOAD PUSH1 0x0 ADD MLOAD PUSH1 0xF8 SHL SWAP13 POP DUP1 PUSH1 0x0 ADD MLOAD PUSH1 0x20 ADD MLOAD PUSH1 0x0 SHL SWAP12 POP DUP1 PUSH1 0x20 ADD MLOAD PUSH1 0x0 ADD MLOAD PUSH1 0xF8 SHL SWAP11 POP DUP1 PUSH1 0x20 ADD MLOAD PUSH1 0x20 ADD MLOAD PUSH1 0x0 SHL SWAP10 POP DUP1 PUSH1 0x40 ADD MLOAD PUSH1 0x0 ADD MLOAD PUSH1 0xF8 SHL SWAP9 POP DUP1 PUSH1 0x40 ADD MLOAD PUSH1 0x20 ADD MLOAD PUSH1 0x0 SHL SWAP8 POP DUP1 PUSH1 0x60 ADD MLOAD PUSH1 0x0 ADD MLOAD PUSH1 0xF8 SHL SWAP7 POP DUP1 PUSH1 0x60 ADD MLOAD PUSH1 0x20 ADD MLOAD PUSH1 0x0 SHL SWAP6 POP DUP1 PUSH1 0x80 ADD MLOAD PUSH1 0x0 SHL SWAP5 POP DUP1 PUSH1 0xA0 ADD MLOAD SWAP4 POP DUP1 PUSH1 0xC0 ADD MLOAD SWAP3 POP POP POP SWAP2 SWAP4 SWAP6 SWAP8 SWAP10 SWAP12 SWAP1 SWAP3 SWAP5 SWAP7 SWAP9 SWAP11 POP JUMP JUMPDEST PUSH1 0x0 DUP1 PUSH1 0x0 DUP1 PUSH1 0x0 DUP1 PUSH1 0x0 PUSH2 0x5D2 PUSH2 0x9A6 JUMP JUMPDEST PUSH2 0x5DB DUP10 PUSH2 0x757 JUMP JUMPDEST SWAP1 POP DUP1 PUSH1 0x0 ADD MLOAD PUSH1 0x0 ADD MLOAD PUSH1 0xF8 SHL SWAP8 POP DUP1 PUSH1 0x0 ADD MLOAD PUSH1 0x20 ADD MLOAD PUSH1 0x0 SHL SWAP7 POP DUP1 PUSH1 0x20 ADD MLOAD PUSH1 0x0 ADD MLOAD PUSH1 0xF8 SHL SWAP6 POP DUP1 PUSH1 0x20 ADD MLOAD PUSH1 0x20 ADD MLOAD PUSH1 0x0 SHL SWAP5 POP DUP1 PUSH1 0x40 ADD MLOAD SWAP4 POP DUP1 PUSH1 0x60 ADD MLOAD PUSH1 0x0 ADD MLOAD PUSH1 0xF8 SHL SWAP3 POP DUP1 PUSH1 0x60 ADD MLOAD PUSH1 0x20 ADD MLOAD PUSH1 0x0 SHL SWAP2 POP POP SWAP2 SWAP4 SWAP6 SWAP8 SWAP1 SWAP3 SWAP5 SWAP7 POP JUMP JUMPDEST PUSH1 0x0 DUP1 PUSH1 0x0 DUP1 PUSH1 0x0 DUP1 PUSH1 0x0 DUP1 PUSH1 0x0 PUSH1 0x60 DUP1 PUSH2 0x65D PUSH2 0x9EC JUMP JUMPDEST PUSH2 0x666 DUP14 PUSH2 0x7DF JUMP JUMPDEST SWAP1 POP DUP1 PUSH1 0x0 ADD MLOAD PUSH1 0x0 ADD MLOAD PUSH1 0xF8 SHL SWAP12 POP DUP1 PUSH1 0x0 ADD MLOAD PUSH1 0x20 ADD MLOAD PUSH1 0x0 SHL SWAP11 POP DUP1 PUSH1 0x20 ADD MLOAD PUSH1 0x0 ADD MLOAD PUSH1 0xF8 SHL SWAP10 POP DUP1 PUSH1 0x20 ADD MLOAD PUSH1 0x20 ADD MLOAD PUSH1 0x0 SHL SWAP9 POP DUP1 PUSH1 0x40 ADD MLOAD PUSH1 0x0 ADD MLOAD PUSH1 0xF8 SHL SWAP8 POP DUP1 PUSH1 0x40 ADD MLOAD PUSH1 0x20 ADD MLOAD PUSH1 0x0 SHL SWAP7 POP DUP1 PUSH1 0x60 ADD MLOAD PUSH1 0x0 ADD MLOAD PUSH1 0xF8 SHL SWAP6 POP DUP1 PUSH1 0x60 ADD MLOAD PUSH1 0x20 ADD MLOAD PUSH1 0x0 SHL SWAP5 POP DUP1 PUSH1 0x80 ADD MLOAD PUSH1 0x0 SHL SWAP4 POP DUP1 PUSH1 0xA0 ADD MLOAD SWAP3 POP DUP1 PUSH1 0xC0 ADD MLOAD SWAP2 POP POP SWAP2 SWAP4 SWAP6 SWAP8 SWAP10 SWAP12 SWAP1 SWAP3 SWAP5 SWAP7 SWAP9 SWAP11 POP JUMP JUMPDEST PUSH2 0x708 PUSH2 0x979 JUMP JUMPDEST DUP2 MLOAD PUSH1 0x62 EQ PUSH2 0x716 JUMPI PUSH1 0x0 DUP1 REVERT JUMPDEST PUSH1 0x0 PUSH2 0x721 DUP4 PUSH2 0x806 JUMP JUMPDEST SWAP1 POP PUSH2 0x731 DUP2 DUP4 PUSH1 0x0 ADD MLOAD PUSH2 0x80C JUMP JUMPDEST SWAP1 POP PUSH2 0x741 DUP2 DUP4 PUSH1 0x20 ADD MLOAD PUSH2 0x80C JUMP JUMPDEST SWAP1 POP PUSH2 0x74C DUP2 PUSH2 0x827 JUMP JUMPDEST PUSH1 0x40 DUP4 ADD MSTORE POP SWAP2 SWAP1 POP JUMP JUMPDEST PUSH2 0x75F PUSH2 0x9A6 JUMP JUMPDEST DUP2 MLOAD PUSH2 0x167 DUP2 LT ISZERO PUSH2 0x770 JUMPI PUSH1 0x0 DUP1 REVERT JUMPDEST PUSH1 0x0 PUSH2 0x77B DUP5 PUSH2 0x806 JUMP JUMPDEST SWAP1 POP PUSH2 0x78B DUP2 DUP5 PUSH1 0x0 ADD MLOAD PUSH2 0x80C JUMP JUMPDEST SWAP1 POP PUSH2 0x79B DUP2 DUP5 PUSH1 0x20 ADD MLOAD PUSH2 0x80C JUMP JUMPDEST SWAP1 POP PUSH2 0x7A6 DUP2 PUSH2 0x827 JUMP JUMPDEST PUSH1 0x40 DUP5 ADD MSTORE PUSH1 0x60 DUP4 ADD MLOAD PUSH1 0x20 SWAP2 SWAP1 SWAP2 ADD SWAP1 PUSH2 0x7C2 SWAP1 DUP3 SWAP1 PUSH2 0x80C JUMP JUMPDEST SWAP1 POP PUSH2 0x7D2 DUP2 PUSH1 0x82 NOT DUP5 ADD PUSH2 0x82B JUMP JUMPDEST PUSH1 0x80 DUP5 ADD MSTORE POP SWAP1 SWAP3 SWAP2 POP POP JUMP JUMPDEST PUSH2 0x7E7 PUSH2 0x9EC JUMP JUMPDEST PUSH1 0x0 PUSH2 0x7F2 DUP4 PUSH2 0x806 JUMP JUMPDEST SWAP1 POP PUSH2 0x7FF DUP2 DUP5 MLOAD PUSH2 0x82B JUMP JUMPDEST SWAP4 SWAP3 POP POP POP JUMP JUMPDEST PUSH1 0x20 ADD SWAP1 JUMP JUMPDEST DUP2 MLOAD PUSH1 0x1 DUP4 ADD MLOAD PUSH1 0x0 SWAP2 SWAP1 SWAP2 BYTE DUP3 MSTORE PUSH1 0x20 SWAP1 SWAP2 ADD MSTORE PUSH1 0x21 ADD SWAP1 JUMP JUMPDEST MLOAD SWAP1 JUMP JUMPDEST PUSH2 0x833 PUSH2 0x9EC JUMP JUMPDEST PUSH1 0xE4 DUP3 LT ISZERO PUSH2 0x841 JUMPI PUSH1 0x0 DUP1 REVERT JUMPDEST PUSH2 0x84F DUP4 DUP3 PUSH1 0x0 ADD MLOAD PUSH2 0x80C JUMP JUMPDEST SWAP3 POP PUSH2 0x85F DUP4 DUP3 PUSH1 0x20 ADD MLOAD PUSH2 0x80C JUMP JUMPDEST SWAP3 POP PUSH2 0x86F DUP4 DUP3 PUSH1 0x40 ADD MLOAD PUSH2 0x80C JUMP JUMPDEST SWAP3 POP PUSH2 0x87F DUP4 DUP3 PUSH1 0x60 ADD MLOAD PUSH2 0x80C JUMP JUMPDEST SWAP3 POP PUSH2 0x88A DUP4 PUSH2 0x827 JUMP JUMPDEST PUSH1 0x80 DUP3 ADD MSTORE PUSH1 0x40 DUP1 MLOAD DUP2 DUP2 MSTORE PUSH1 0x60 DUP2 ADD DUP3 MSTORE PUSH1 0x20 SWAP5 SWAP1 SWAP5 ADD SWAP4 SWAP1 PUSH1 0x20 DUP3 ADD DUP2 DUP1 CALLDATASIZE DUP4 CALLDATACOPY POP POP POP PUSH1 0xA0 DUP3 ADD DUP2 SWAP1 MSTORE PUSH2 0x8C4 SWAP1 DUP5 SWAP1 PUSH1 0x40 PUSH2 0x932 JUMP JUMPDEST SWAP3 POP PUSH1 0xE4 DUP3 GT ISZERO PUSH2 0x92C JUMPI PUSH1 0xE3 NOT DUP3 ADD PUSH8 0xFFFFFFFFFFFFFFFF DUP2 GT DUP1 ISZERO PUSH2 0x8EA JUMPI PUSH1 0x0 DUP1 REVERT JUMPDEST POP PUSH1 0x40 MLOAD SWAP1 DUP1 DUP3 MSTORE DUP1 PUSH1 0x1F ADD PUSH1 0x1F NOT AND PUSH1 0x20 ADD DUP3 ADD PUSH1 0x40 MSTORE DUP1 ISZERO PUSH2 0x915 JUMPI PUSH1 0x20 DUP3 ADD DUP2 DUP1 CALLDATASIZE DUP4 CALLDATACOPY ADD SWAP1 POP JUMPDEST POP PUSH1 0xC0 DUP3 ADD DUP2 SWAP1 MSTORE DUP1 MLOAD PUSH2 0x92A SWAP2 DUP6 SWAP2 PUSH2 0x932 JUMP JUMPDEST POP JUMPDEST SWAP3 SWAP2 POP POP JUMP JUMPDEST PUSH1 0x0 PUSH1 0x20 PUSH1 0x1F DUP4 ADD DIV DUP5 PUSH1 0x20 DUP6 ADD PUSH1 0x0 JUMPDEST DUP4 DUP2 LT ISZERO PUSH2 0x95F JUMPI PUSH1 0x20 DUP2 MUL DUP4 DUP2 ADD MLOAD SWAP1 DUP4 ADD MSTORE PUSH1 0x1 ADD PUSH2 0x943 JUMP JUMPDEST POP POP POP POP PUSH1 0x0 DUP4 MLOAD PUSH1 0x20 ADD DUP5 ADD MSTORE DUP2 DUP5 ADD SWAP1 POP SWAP4 SWAP3 POP POP POP JUMP JUMPDEST PUSH1 0x40 MLOAD DUP1 PUSH1 0x60 ADD PUSH1 0x40 MSTORE DUP1 PUSH2 0x98C PUSH2 0xA41 JUMP JUMPDEST DUP2 MSTORE PUSH1 0x20 ADD PUSH2 0x999 PUSH2 0xA41 JUMP JUMPDEST DUP2 MSTORE PUSH1 0x20 ADD PUSH1 0x0 DUP2 MSTORE POP SWAP1 JUMP JUMPDEST PUSH1 0x40 MLOAD DUP1 PUSH1 0xA0 ADD PUSH1 0x40 MSTORE DUP1 PUSH2 0x9B9 PUSH2 0xA41 JUMP JUMPDEST DUP2 MSTORE PUSH1 0x20 ADD PUSH2 0x9C6 PUSH2 0xA41 JUMP JUMPDEST DUP2 MSTORE PUSH1 0x0 PUSH1 0x20 DUP3 ADD MSTORE PUSH1 0x40 ADD PUSH2 0x9DA PUSH2 0xA41 JUMP JUMPDEST DUP2 MSTORE PUSH1 0x20 ADD PUSH2 0x9E7 PUSH2 0x9EC JUMP JUMPDEST SWAP1 MSTORE SWAP1 JUMP JUMPDEST PUSH1 0x40 MLOAD DUP1 PUSH1 0xE0 ADD PUSH1 0x40 MSTORE DUP1 PUSH2 0x9FF PUSH2 0xA41 JUMP JUMPDEST DUP2 MSTORE PUSH1 0x20 ADD PUSH2 0xA0C PUSH2 0xA41 JUMP JUMPDEST DUP2 MSTORE PUSH1 0x20 ADD PUSH2 0xA19 PUSH2 0xA41 JUMP JUMPDEST DUP2 MSTORE PUSH1 0x20 ADD PUSH2 0xA26 PUSH2 0xA41 JUMP JUMPDEST DUP2 MSTORE PUSH1 0x20 ADD PUSH1 0x0 DUP2 MSTORE PUSH1 0x20 ADD PUSH1 0x60 DUP2 MSTORE PUSH1 0x20 ADD PUSH1 0x60 DUP2 MSTORE POP SWAP1 JUMP JUMPDEST PUSH1 0x40 DUP1 MLOAD DUP1 DUP3 ADD SWAP1 SWAP2 MSTORE PUSH1 0x0 DUP1 DUP3 MSTORE PUSH1 0x20 DUP3 ADD MSTORE SWAP1 JUMP INVALID LOG2 PUSH5 0x6970667358 0x22 SLT KECCAK256 0xB7 0x5D 0xBF 0x27 0xB1 0xD1 RETURNDATACOPY SWAP8 RETURN PUSH22 0x2CF35B5B0CB4662DDDA551E861DA96BB2CCD2F3842A1 PUSH5 0x736F6C6343 STOP MOD SMOD STOP CALLER ",
  "sha1": "bd2ed14b64f0f8e7ed3de2611feec520efd7759c",
  "source": "pragma solidity ^0.6.1;\n\n\nimport \"contracts/lib/SignatureVerifier.sol\";\nimport \"contracts/lib/Snapshot.sol\";\nimport \"contracts/lib/UmbralDeserializer.sol\";\nimport \"contracts/lib/ReEncryptionValidator.sol\";\n\n/**\n* @notice Contract for using SignatureVerifier library\n*/\ncontract SignatureVerifierMock {\n\n    function recover(bytes32 _hash, bytes memory _signature)\n        public\n        pure\n        returns (address)\n    {\n        return SignatureVerifier.recover(_hash, _signature);\n    }\n\n    function toAddress(bytes memory _publicKey) public pure returns (address) {\n        return SignatureVerifier.toAddress(_publicKey);\n    }\n\n    function hash(bytes memory _message, SignatureVerifier.HashAlgorithm _algorithm)\n        public\n        pure\n        returns (bytes32 result)\n    {\n        return SignatureVerifier.hash(_message, _algorithm);\n    }\n\n    function verify(\n        bytes memory _message,\n        bytes memory _signature,\n        bytes memory _publicKey,\n        SignatureVerifier.HashAlgorithm _algorithm\n    )\n        public\n        pure\n        returns (bool)\n    {\n        return SignatureVerifier.verify(_message, _signature, _publicKey, _algorithm);\n    }\n\n    function verifyEIP191(\n        bytes memory _message,\n        bytes memory _signature,\n        bytes memory _publicKey,\n        byte _version\n    )\n        public\n        view\n        returns (bool)\n    {\n        return SignatureVerifier.verifyEIP191(_message, _signature, _publicKey, _version);\n    }\n\n    function hashEIP191(\n        bytes memory _message,\n        byte _version\n    )\n        public\n        view\n        returns (bytes32)\n    {\n        return SignatureVerifier.hashEIP191(_message, _version);\n    }\n\n}\n\n\n/**\n* @dev Contract for testing UmbralDeserializer library\n*/\ncontract UmbralDeserializerMock {\n    using UmbralDeserializer for bytes;\n\n    function toCapsule(bytes memory _capsuleBytes)\n        public pure returns (\n            byte pointESign,\n            bytes32 pointEXCoord,\n            byte pointVSign,\n            bytes32 pointVXCoord,\n            bytes32 bnSig\n        )\n    {\n        UmbralDeserializer.Capsule memory capsule = _capsuleBytes.toCapsule();\n        pointESign = byte(capsule.pointE.sign);\n        pointEXCoord = bytes32(capsule.pointE.xCoord);\n        pointVSign = byte(capsule.pointV.sign);\n        pointVXCoord = bytes32(capsule.pointV.xCoord);\n        bnSig = bytes32(capsule.bnSig);\n    }\n\n    function toCorrectnessProof(bytes memory _proofBytes)\n        public pure returns (\n            byte pointE2Sign,\n            bytes32 pointE2XCoord,\n            byte pointV2Sign,\n            bytes32 pointV2XCoord,\n            byte pointKFragCommitmentSign,\n            bytes32 pointKFragCommitmentXCoord,\n            byte pointKFragPokSign,\n            bytes32 pointKFragPokXCoord,\n            bytes32 bnSig,\n            bytes memory kFragSignature,\n            bytes memory metadata\n        )\n    {\n        UmbralDeserializer.CorrectnessProof memory proof = _proofBytes.toCorrectnessProof();\n        pointE2Sign = byte(proof.pointE2.sign);\n        pointE2XCoord = bytes32(proof.pointE2.xCoord);\n        pointV2Sign = byte(proof.pointV2.sign);\n        pointV2XCoord = bytes32(proof.pointV2.xCoord);\n        pointKFragCommitmentSign = byte(proof.pointKFragCommitment.sign);\n        pointKFragCommitmentXCoord = bytes32(proof.pointKFragCommitment.xCoord);\n        pointKFragPokSign = byte(proof.pointKFragPok.sign);\n        pointKFragPokXCoord = bytes32(proof.pointKFragPok.xCoord);\n        bnSig = bytes32(proof.bnSig);\n        kFragSignature = proof.kFragSignature;\n        metadata = proof.metadata;\n    }\n\n    // `toCapsuleFrag` is split into two methods because of EVM stack problems with many variables\n    function toCorrectnessProofFromCapsuleFrag(bytes memory _cFragBytes)\n        public pure returns (\n            byte pointE2Sign,\n            bytes32 pointE2XCoord,\n            byte pointV2Sign,\n            bytes32 pointV2XCoord,\n            byte pointKFragCommitmentSign,\n            bytes32 pointKFragCommitmentXCoord,\n            byte pointKFragPokSign,\n            bytes32 pointKFragPokXCoord,\n            bytes32 bnSig,\n            bytes memory kFragSignature,\n            bytes memory metadata\n        )\n    {\n        UmbralDeserializer.CapsuleFrag memory cFrag = _cFragBytes.toCapsuleFrag();\n        UmbralDeserializer.CorrectnessProof memory proof = cFrag.proof;\n        pointE2Sign = byte(proof.pointE2.sign);\n        pointE2XCoord = bytes32(proof.pointE2.xCoord);\n        pointV2Sign = byte(proof.pointV2.sign);\n        pointV2XCoord = bytes32(proof.pointV2.xCoord);\n        pointKFragCommitmentSign = byte(proof.pointKFragCommitment.sign);\n        pointKFragCommitmentXCoord = bytes32(proof.pointKFragCommitment.xCoord);\n        pointKFragPokSign = byte(proof.pointKFragPok.sign);\n        pointKFragPokXCoord = bytes32(proof.pointKFragPok.xCoord);\n        bnSig = bytes32(proof.bnSig);\n        kFragSignature = proof.kFragSignature;\n        metadata = proof.metadata;\n    }\n\n    function toCapsuleFrag(bytes memory _cFragBytes)\n        public pure returns (\n            byte pointE1Sign,\n            bytes32 pointE1XCoord,\n            byte pointV1Sign,\n            bytes32 pointV1XCoord,\n            bytes32 kFragId,\n            byte pointPrecursorSign,\n            bytes32 pointPrecursorXCoord\n        )\n    {\n        UmbralDeserializer.CapsuleFrag memory cFrag = _cFragBytes.toCapsuleFrag();\n        pointE1Sign = byte(cFrag.pointE1.sign);\n        pointE1XCoord = bytes32(cFrag.pointE1.xCoord);\n        pointV1Sign = byte(cFrag.pointV1.sign);\n        pointV1XCoord = bytes32(cFrag.pointV1.xCoord);\n        kFragId = cFrag.kFragId;\n        pointPrecursorSign = byte(cFrag.pointPrecursor.sign);\n        pointPrecursorXCoord = bytes32(cFrag.pointPrecursor.xCoord);\n    }\n}\n\n\n/**\n* @notice Contract for using ReEncryptionValidator library\n*/\ncontract ReEncryptionValidatorMock {\n\n    using UmbralDeserializer for bytes;\n\n    function UMBRAL_PARAMETER_U_SIGN() public pure returns (uint8) {\n        return ReEncryptionValidator.UMBRAL_PARAMETER_U_SIGN;\n    }\n\n    function UMBRAL_PARAMETER_U_XCOORD() public pure returns (uint256) {\n        return ReEncryptionValidator.UMBRAL_PARAMETER_U_XCOORD;\n    }\n\n    function UMBRAL_PARAMETER_U_YCOORD() public pure returns (uint256) {\n        return ReEncryptionValidator.UMBRAL_PARAMETER_U_YCOORD;\n    }\n\n    function FIELD_ORDER() public pure returns (uint256) {\n        return ReEncryptionValidator.FIELD_ORDER;\n    }\n\n    function MINUS_2() public pure returns (uint256) {\n        return ReEncryptionValidator.MINUS_2;\n    }\n\n    function MINUS_ONE_HALF() public pure returns (uint256) {\n        return ReEncryptionValidator.MINUS_ONE_HALF;\n    }\n\n    function validateCFrag(\n        bytes memory _capsuleBytes,\n        bytes memory _cFragBytes,\n        bytes memory _precomputedBytes\n    )\n        public pure returns (bool)\n    {\n        return ReEncryptionValidator.validateCFrag(_capsuleBytes, _cFragBytes, _precomputedBytes);\n    }\n\n    function computeProofChallengeScalar(\n        bytes memory _capsuleBytes,\n        bytes memory _cFragBytes\n    )\n        public pure returns (uint256)\n    {\n        UmbralDeserializer.Capsule memory _capsule = _capsuleBytes.toCapsule();\n        UmbralDeserializer.CapsuleFrag memory _cFrag = _cFragBytes.toCapsuleFrag();\n        return ReEncryptionValidator.computeProofChallengeScalar(_capsule, _cFrag);\n    }\n\n    function extendedKeccakToBN (bytes memory _data) public pure returns (uint256) {\n        return ReEncryptionValidator.extendedKeccakToBN(_data);\n    }\n\n\tfunction checkCompressedPoint(\n\t\tuint8 _pointSign,\n\t\tuint256 _pointX,\n\t\tuint256 _pointY\n\t) public pure returns(bool) {\n        return ReEncryptionValidator.checkCompressedPoint(_pointSign, _pointX, _pointY);\n\t}\n\n    function checkSerializedCoordinates(bytes memory _coords) public pure returns(bool) {\n\t\treturn ReEncryptionValidator.checkSerializedCoordinates(_coords);\n\t}\n\n    function isOnCurve(uint256 Px, uint256 Py) public pure returns (bool) {\n        return ReEncryptionValidator.isOnCurve(Px, Py);\n    }\n\n    function ecmulVerify(\n    \tuint256 x1,\n    \tuint256 y1,\n    \tuint256 scalar,\n    \tuint256 qx,\n    \tuint256 qy\n    ) public pure returns(bool) {\n        return ReEncryptionValidator.ecmulVerify(x1, y1, scalar, qx, qy);\n\t}\n\n    function eqAffineJacobian(\n    \tuint256[2] memory P,\n    \tuint256[3] memory Q\n    ) public pure returns(bool){\n        return ReEncryptionValidator.eqAffineJacobian(P, Q);\n    }\n\n    function addAffineJacobian(\n    \tuint[2] memory P,\n    \tuint[2] memory Q\n    ) public pure returns (uint[3] memory) {\n        return ReEncryptionValidator.addAffineJacobian(P, Q);\n    }\n\n    function doubleJacobian(uint[3] memory P) public pure returns (uint[3] memory) {\n        return ReEncryptionValidator.doubleJacobian(P);\n    }\n}\n\n/**\n* @notice Contract for using Snapshot library\n*/\ncontract SnapshotMock {\n\n    // Helpers\n    uint128[] public history;\n\n    function length() public view returns(uint256){\n        return history.length;\n    }\n\n    function deleteHistory() public {\n        delete history;\n    }\n\n    // Mock functions\n    function encodeSnapshot(uint32 _time, uint96 _value) public pure returns(uint128) {\n        return Snapshot.encodeSnapshot(_time, _value);\n    }\n\n    function decodeSnapshot(uint128 _snapshot) public pure returns(uint32, uint96){\n        return Snapshot.decodeSnapshot(_snapshot);\n    }\n\n    function addSnapshot(uint256 _time, uint256 _value) public {\n        Snapshot.addSnapshot(history, _time, _value);\n    }\n\n    function getValueAt(uint256 _time) public view returns (uint96) {\n        return Snapshot.getValueAt(history, _time);\n    }\n\n    function lastSnapshot() public view returns (uint32, uint96) {\n        return Snapshot.lastSnapshot(history);\n    }\n\n    function lastValue() public view returns (uint96) {\n        return Snapshot.lastValue(history);\n    }\n\n\n}\n",
  "sourcePath": "contracts/LibTestSet.sol",
  "type": "contract"
}