{
  "abi": [
    {
      "inputs": [],
      "name": "bid",
      "outputs": [],
      "stateMutability": "payable",
      "type": "function"
    },
    {
      "inputs": [],
      "name": "boostingRefund",
      "outputs": [
        {
          "internalType": "uint256",
          "name": "",
          "type": "uint256"
        }
      ],
      "stateMutability": "view",
      "type": "function"
    },
    {
      "inputs": [],
      "name": "cancelBid",
      "outputs": [],
      "stateMutability": "nonpayable",
      "type": "function"
    },
    {
      "inputs": [],
      "name": "claim",
      "outputs": [
        {
          "internalType": "uint256",
          "name": "",
          "type": "uint256"
        }
      ],
      "stateMutability": "nonpayable",
      "type": "function"
    },
    {
      "inputs": [],
      "name": "claimed",
      "outputs": [
        {
          "internalType": "uint256",
          "name": "",
          "type": "uint256"
        }
      ],
      "stateMutability": "view",
      "type": "function"
    },
    {
      "inputs": [],
      "name": "compensation",
      "outputs": [
        {
          "internalType": "uint256",
          "name": "",
          "type": "uint256"
        }
      ],
      "stateMutability": "view",
      "type": "function"
    },
    {
      "inputs": [],
      "name": "depositedETH",
      "outputs": [
        {
          "internalType": "uint256",
          "name": "",
          "type": "uint256"
        }
      ],
      "stateMutability": "view",
      "type": "function"
    },
    {
      "inputs": [],
      "name": "refund",
      "outputs": [
        {
          "internalType": "uint256",
          "name": "",
          "type": "uint256"
        }
      ],
      "stateMutability": "nonpayable",
      "type": "function"
    },
    {
      "inputs": [],
      "name": "refundETH",
      "outputs": [
        {
          "internalType": "uint256",
          "name": "",
          "type": "uint256"
        }
      ],
      "stateMutability": "view",
      "type": "function"
    },
    {
      "inputs": [],
      "name": "sendCompensation",
      "outputs": [],
      "stateMutability": "payable",
      "type": "function"
    },
    {
      "inputs": [],
      "name": "sendRefund",
      "outputs": [],
      "stateMutability": "payable",
      "type": "function"
    },
    {
      "inputs": [],
      "name": "withdrawCompensation",
      "outputs": [],
      "stateMutability": "nonpayable",
      "type": "function"
    }
  ],
  "bytecode": "60a0604052600160805234801561001557600080fd5b506080516102d7610030600039806101f952506102d76000f3fe6080604052600436106100a75760003560e01c80635bf997f5116100645780635bf997f51461013157806387a15dc9146101465780639205ab3c1461015b5780639435c887146101635780639ec6100214610178578063e834a83414610180576100a7565b806312210e8a146100ac5780631998aeef146100d357806340d5ff58146100dd5780634ae791c4146100f25780634e71d92d14610107578063590e1ae31461011c575b600080fd5b3480156100b857600080fd5b506100c1610195565b60408051918252519081900360200190f35b6100db61019b565b005b3480156100e957600080fd5b506100c16101a1565b3480156100fe57600080fd5b506100c16101a7565b34801561011357600080fd5b506100c16101ad565b34801561012857600080fd5b506100c16101bb565b34801561013d57600080fd5b506100c16101f7565b34801561015257600080fd5b506100db61021b565b6100db610257565b34801561016f57600080fd5b506100db61025d565b6100db610295565b34801561018c57600080fd5b506100c161029b565b60035481565b34600155565b60025481565b60015481565b600080546001019081905590565b60038054600091829055604051339082156108fc0290839085818181858888f193505050501580156101f1573d6000803e3d6000fd5b50905090565b7f000000000000000000000000000000000000000000000000000000000000000081565b600280546000918290556040519091339183156108fc0291849190818181858888f19350505050158015610253573d6000803e3d6000fd5b5050565b34600355565b600180546000918290556040519091339183156108fc0291849190818181858888f19350505050158015610253573d6000803e3d6000fd5b34600255565b6000548156fea264697066735822122018332e168ce0b3530ea4da8cd16805e2fa8ff10ceff34a5aa49bea85b6acee6564736f6c63430006070033",
  "bytecodeSha1": "c856bdc20c743342304205fe574cfa61da74a7b7",
  "compiler": {
    "evm_version": "berlin",
    "optimizer": {
      "enabled": true,
      "runs": 200
    },
    "version": "0.6.7"
  },
  "contractName": "WorkLockForStakingContractMock",
  "language": "Solidity",
  "natspec": {
    "methods": {},
    "notice": "Contract for staking contract tests"
  },
  "opcodes": "PUSH1 0x80 PUSH1 0x40 MSTORE PUSH1 0x4 CALLDATASIZE LT PUSH2 0xA7 JUMPI PUSH1 0x0 CALLDATALOAD PUSH1 0xE0 SHR DUP1 PUSH4 0x5BF997F5 GT PUSH2 0x64 JUMPI DUP1 PUSH4 0x5BF997F5 EQ PUSH2 0x131 JUMPI DUP1 PUSH4 0x87A15DC9 EQ PUSH2 0x146 JUMPI DUP1 PUSH4 0x9205AB3C EQ PUSH2 0x15B JUMPI DUP1 PUSH4 0x9435C887 EQ PUSH2 0x163 JUMPI DUP1 PUSH4 0x9EC61002 EQ PUSH2 0x178 JUMPI DUP1 PUSH4 0xE834A834 EQ PUSH2 0x180 JUMPI PUSH2 0xA7 JUMP JUMPDEST DUP1 PUSH4 0x12210E8A EQ PUSH2 0xAC JUMPI DUP1 PUSH4 0x1998AEEF EQ PUSH2 0xD3 JUMPI DUP1 PUSH4 0x40D5FF58 EQ PUSH2 0xDD JUMPI DUP1 PUSH4 0x4AE791C4 EQ PUSH2 0xF2 JUMPI DUP1 PUSH4 0x4E71D92D EQ PUSH2 0x107 JUMPI DUP1 PUSH4 0x590E1AE3 EQ PUSH2 0x11C JUMPI JUMPDEST PUSH1 0x0 DUP1 REVERT JUMPDEST CALLVALUE DUP1 ISZERO PUSH2 0xB8 JUMPI PUSH1 0x0 DUP1 REVERT JUMPDEST POP PUSH2 0xC1 PUSH2 0x195 JUMP JUMPDEST PUSH1 0x40 DUP1 MLOAD SWAP2 DUP3 MSTORE MLOAD SWAP1 DUP2 SWAP1 SUB PUSH1 0x20 ADD SWAP1 RETURN JUMPDEST PUSH2 0xDB PUSH2 0x19B JUMP JUMPDEST STOP JUMPDEST CALLVALUE DUP1 ISZERO PUSH2 0xE9 JUMPI PUSH1 0x0 DUP1 REVERT JUMPDEST POP PUSH2 0xC1 PUSH2 0x1A1 JUMP JUMPDEST CALLVALUE DUP1 ISZERO PUSH2 0xFE JUMPI PUSH1 0x0 DUP1 REVERT JUMPDEST POP PUSH2 0xC1 PUSH2 0x1A7 JUMP JUMPDEST CALLVALUE DUP1 ISZERO PUSH2 0x113 JUMPI PUSH1 0x0 DUP1 REVERT JUMPDEST POP PUSH2 0xC1 PUSH2 0x1AD JUMP JUMPDEST CALLVALUE DUP1 ISZERO PUSH2 0x128 JUMPI PUSH1 0x0 DUP1 REVERT JUMPDEST POP PUSH2 0xC1 PUSH2 0x1BB JUMP JUMPDEST CALLVALUE DUP1 ISZERO PUSH2 0x13D JUMPI PUSH1 0x0 DUP1 REVERT JUMPDEST POP PUSH2 0xC1 PUSH2 0x1F7 JUMP JUMPDEST CALLVALUE DUP1 ISZERO PUSH2 0x152 JUMPI PUSH1 0x0 DUP1 REVERT JUMPDEST POP PUSH2 0xDB PUSH2 0x21B JUMP JUMPDEST PUSH2 0xDB PUSH2 0x257 JUMP JUMPDEST CALLVALUE DUP1 ISZERO PUSH2 0x16F JUMPI PUSH1 0x0 DUP1 REVERT JUMPDEST POP PUSH2 0xDB PUSH2 0x25D JUMP JUMPDEST PUSH2 0xDB PUSH2 0x295 JUMP JUMPDEST CALLVALUE DUP1 ISZERO PUSH2 0x18C JUMPI PUSH1 0x0 DUP1 REVERT JUMPDEST POP PUSH2 0xC1 PUSH2 0x29B JUMP JUMPDEST PUSH1 0x3 SLOAD DUP2 JUMP JUMPDEST CALLVALUE PUSH1 0x1 SSTORE JUMP JUMPDEST PUSH1 0x2 SLOAD DUP2 JUMP JUMPDEST PUSH1 0x1 SLOAD DUP2 JUMP JUMPDEST PUSH1 0x0 DUP1 SLOAD PUSH1 0x1 ADD SWAP1 DUP2 SWAP1 SSTORE SWAP1 JUMP JUMPDEST PUSH1 0x3 DUP1 SLOAD PUSH1 0x0 SWAP2 DUP3 SWAP1 SSTORE PUSH1 0x40 MLOAD CALLER SWAP1 DUP3 ISZERO PUSH2 0x8FC MUL SWAP1 DUP4 SWAP1 DUP6 DUP2 DUP2 DUP2 DUP6 DUP9 DUP9 CALL SWAP4 POP POP POP POP ISZERO DUP1 ISZERO PUSH2 0x1F1 JUMPI RETURNDATASIZE PUSH1 0x0 DUP1 RETURNDATACOPY RETURNDATASIZE PUSH1 0x0 REVERT JUMPDEST POP SWAP1 POP SWAP1 JUMP JUMPDEST PUSH32 0x0 DUP2 JUMP JUMPDEST PUSH1 0x2 DUP1 SLOAD PUSH1 0x0 SWAP2 DUP3 SWAP1 SSTORE PUSH1 0x40 MLOAD SWAP1 SWAP2 CALLER SWAP2 DUP4 ISZERO PUSH2 0x8FC MUL SWAP2 DUP5 SWAP2 SWAP1 DUP2 DUP2 DUP2 DUP6 DUP9 DUP9 CALL SWAP4 POP POP POP POP ISZERO DUP1 ISZERO PUSH2 0x253 JUMPI RETURNDATASIZE PUSH1 0x0 DUP1 RETURNDATACOPY RETURNDATASIZE PUSH1 0x0 REVERT JUMPDEST POP POP JUMP JUMPDEST CALLVALUE PUSH1 0x3 SSTORE JUMP JUMPDEST PUSH1 0x1 DUP1 SLOAD PUSH1 0x0 SWAP2 DUP3 SWAP1 SSTORE PUSH1 0x40 MLOAD SWAP1 SWAP2 CALLER SWAP2 DUP4 ISZERO PUSH2 0x8FC MUL SWAP2 DUP5 SWAP2 SWAP1 DUP2 DUP2 DUP2 DUP6 DUP9 DUP9 CALL SWAP4 POP POP POP POP ISZERO DUP1 ISZERO PUSH2 0x253 JUMPI RETURNDATASIZE PUSH1 0x0 DUP1 RETURNDATACOPY RETURNDATASIZE PUSH1 0x0 REVERT JUMPDEST CALLVALUE PUSH1 0x2 SSTORE JUMP JUMPDEST PUSH1 0x0 SLOAD DUP2 JUMP INVALID LOG2 PUSH5 0x6970667358 0x22 SLT KECCAK256 XOR CALLER 0x2E AND DUP13 0xE0 0xB3 MSTORE8 0xE LOG4 0xDA DUP13 0xD1 PUSH9 0x5E2FA8FF10CEFF34A GAS LOG4 SWAP12 0xEA DUP6 0xB6 0xAC 0xEE PUSH6 0x64736F6C6343 STOP MOD SMOD STOP CALLER ",
  "sha1": "34ecfb28f9ef3da50fadd2e988a617b577f24235",
  "source": "pragma solidity ^0.6.5;\n\n\nimport \"contracts/NuCypherToken.sol\";\nimport \"contracts/staking_contracts/AbstractStakingContract.sol\";\n\n\n/**\n* @notice Contract for using in staking contracts tests\n*/\ncontract StakingEscrowForStakingContractMock {\n\n    NuCypherToken immutable token;\n    uint32 public secondsPerPeriod = 1;\n    address public node;\n    uint256 public value;\n    uint256 public lockedValue;\n    uint16 public periods;\n    uint256 public index;\n    bool public reStake;\n    uint16 public lockReStakeUntilPeriod;\n    address public worker;\n    bool public windDown;\n\n    constructor(NuCypherToken _token) public {\n        token = _token;\n    }\n\n    function deposit(uint256 _value, uint16 _periods) external {\n        deposit(msg.sender, _value, _periods);\n    }\n\n    function deposit(address _node, uint256 _value, uint16 _periods) public {\n        node = _node;\n        value += _value;\n        lockedValue += _value;\n        periods += _periods;\n        token.transferFrom(msg.sender, address(this), _value);\n    }\n\n    function lock(uint256 _value, uint16 _periods) external {\n        lockedValue += _value;\n        periods += _periods;\n    }\n\n    function divideStake(uint256 _index, uint256 _newValue, uint16 _periods) external {\n        index = _index;\n        lockedValue += _newValue;\n        periods += _periods;\n    }\n\n    function withdraw(uint256 _value) public {\n        value -= _value;\n        token.transfer(msg.sender, _value);\n    }\n\n    function withdrawAll() external {\n        withdraw(value);\n    }\n\n    function mint() external {\n        value += 1000;\n    }\n\n    function setReStake(bool _reStake) external {\n        reStake = _reStake;\n    }\n\n    function lockReStake(uint16 _lockReStakeUntilPeriod) external {\n        lockReStakeUntilPeriod = _lockReStakeUntilPeriod;\n    }\n\n    function bondWorker(address _worker) external {\n        worker = _worker;\n    }\n\n    function prolongStake(uint256 _index, uint16 _periods) external {\n        index = _index;\n        periods += _periods;\n    }\n\n    function getAllTokens(address) external view returns (uint256) {\n        return value;\n    }\n\n    function setWindDown(bool _windDown) external {\n        windDown = _windDown;\n    }\n}\n\n\n/**\n* @notice Contract for staking contract tests\n*/\ncontract PolicyManagerForStakingContractMock {\n\n    uint32 public immutable secondsPerPeriod = 1;\n    uint256 public minFeeRate;\n\n    function withdraw() public returns (uint256) {\n        uint256 value = address(this).balance;\n        require(value > 0);\n        msg.sender.transfer(value);\n        return value;\n    }\n\n    function setMinFeeRate(uint256 _minFeeRate) public {\n        minFeeRate = _minFeeRate;\n    }\n\n    function additionalMethod(uint256 _minFeeRate) public {\n        minFeeRate = _minFeeRate;\n    }\n\n    // TODO #1809\n//    receive() external payable {}\n    fallback() external payable {}\n}\n\n\n/**\n* @notice Contract for staking contract tests\n*/\ncontract WorkLockForStakingContractMock {\n\n    uint256 public immutable boostingRefund = 1;\n    uint256 public claimed;\n    uint256 public depositedETH;\n    uint256 public compensation;\n    uint256 public refundETH;\n\n    function bid() external payable {\n        depositedETH = msg.value;\n    }\n\n    function cancelBid() external {\n        uint256 value = depositedETH;\n        depositedETH = 0;\n        msg.sender.transfer(value);\n    }\n\n    function sendCompensation() external payable {\n        compensation = msg.value;\n    }\n\n    function withdrawCompensation() external {\n        uint256 value = compensation;\n        compensation = 0;\n        msg.sender.transfer(value);\n    }\n\n    function claim() external returns (uint256) {\n        claimed += 1;\n        return claimed;\n    }\n\n    function sendRefund() external payable {\n        refundETH = msg.value;\n    }\n\n    function refund() external returns (uint256) {\n        uint256 value = refundETH;\n        refundETH = 0;\n        msg.sender.transfer(value);\n        return value;\n    }\n\n}\n\n\n/**\n* @notice Contract for staking contract tests\n*/\ncontract StakingInterfaceMockV1 {\n\n    address public immutable token = address(1);\n    address public immutable escrow = address(1);\n\n    function firstMethod() public pure {}\n\n    function secondMethod() public pure returns (uint256) {\n        return 20;\n    }\n\n}\n\n\n/**\n* @notice Contract for staking contract tests\n*/\ncontract StakingInterfaceMockV2 {\n\n    address public immutable token = address(1);\n    address public immutable escrow = address(1);\n\n    // TODO #1809\n//    receive() external payable {}\n    fallback() external payable {\n        // can only use with ETH\n        require(msg.value > 0);\n    }\n\n    function firstMethod(uint256) public pure {}\n\n    function secondMethod() public pure returns (uint256) {\n        return 15;\n    }\n\n    function thirdMethod() public pure {}\n\n}\n\n\n/**\n* @dev Interface that could be destroyed by selfdestruct\n*/\ncontract DestroyableStakingInterface {\n\n    address public immutable token = address(1);\n    address public immutable escrow = address(1);\n\n    function method() public pure returns (uint256) {\n        return 15;\n    }\n\n    function destroy() public {\n        selfdestruct(msg.sender);\n    }\n\n}\n\n\n/**\n* @notice Simple implementation of AbstractStakingContract\n*/\ncontract SimpleStakingContract is AbstractStakingContract, Ownable {\n\n    /**\n    * @param _router Address of the StakingInterfaceRouter contract\n    */\n    constructor(StakingInterfaceRouter _router) public AbstractStakingContract(_router) {}\n\n    /**\n    * @notice Withdraw available amount of tokens to owner\n    * @param _value Amount of token to withdraw\n    */\n    function withdrawTokens(uint256 _value) public override onlyOwner {\n        token.safeTransfer(msg.sender, _value);\n    }\n\n    /**\n    * @notice Withdraw available ETH to the owner\n    */\n    function withdrawETH() public override onlyOwner {\n        uint256 balance = address(this).balance;\n        require(balance != 0);\n        msg.sender.sendValue(balance);\n    }\n\n    /**\n    * @notice Calling fallback function is allowed only for the owner\n    */\n    function isFallbackAllowed() public override returns (bool) {\n        return msg.sender == owner();\n    }\n\n}\n",
  "sourcePath": "contracts/StakingContractsTestSet.sol",
  "type": "contract"
}