{
  "abi": [
    {
      "inputs": [
        {
          "internalType": "contract StakingEscrow",
          "name": "_escrow",
          "type": "address"
        },
        {
          "internalType": "enum SignatureVerifier.HashAlgorithm",
          "name": "_hashAlgorithm",
          "type": "uint8"
        },
        {
          "internalType": "uint256",
          "name": "_basePenalty",
          "type": "uint256"
        },
        {
          "internalType": "uint256",
          "name": "_penaltyHistoryCoefficient",
          "type": "uint256"
        },
        {
          "internalType": "uint256",
          "name": "_percentagePenaltyCoefficient",
          "type": "uint256"
        },
        {
          "internalType": "uint256",
          "name": "_rewardCoefficient",
          "type": "uint256"
        }
      ],
      "stateMutability": "nonpayable",
      "type": "constructor"
    },
    {
      "anonymous": false,
      "inputs": [
        {
          "indexed": true,
          "internalType": "bytes32",
          "name": "evaluationHash",
          "type": "bytes32"
        },
        {
          "indexed": true,
          "internalType": "address",
          "name": "investigator",
          "type": "address"
        },
        {
          "indexed": false,
          "internalType": "bool",
          "name": "correctness",
          "type": "bool"
        }
      ],
      "name": "CFragEvaluated",
      "type": "event"
    },
    {
      "anonymous": false,
      "inputs": [
        {
          "indexed": true,
          "internalType": "bytes32",
          "name": "evaluationHash",
          "type": "bytes32"
        },
        {
          "indexed": true,
          "internalType": "address",
          "name": "worker",
          "type": "address"
        },
        {
          "indexed": true,
          "internalType": "address",
          "name": "staker",
          "type": "address"
        }
      ],
      "name": "IncorrectCFragVerdict",
      "type": "event"
    },
    {
      "anonymous": false,
      "inputs": [
        {
          "indexed": true,
          "internalType": "address",
          "name": "previousOwner",
          "type": "address"
        },
        {
          "indexed": true,
          "internalType": "address",
          "name": "newOwner",
          "type": "address"
        }
      ],
      "name": "OwnershipTransferred",
      "type": "event"
    },
    {
      "anonymous": false,
      "inputs": [
        {
          "indexed": true,
          "internalType": "address",
          "name": "testTarget",
          "type": "address"
        },
        {
          "indexed": false,
          "internalType": "address",
          "name": "sender",
          "type": "address"
        }
      ],
      "name": "StateVerified",
      "type": "event"
    },
    {
      "anonymous": false,
      "inputs": [
        {
          "indexed": true,
          "internalType": "address",
          "name": "target",
          "type": "address"
        },
        {
          "indexed": false,
          "internalType": "address",
          "name": "sender",
          "type": "address"
        }
      ],
      "name": "UpgradeFinished",
      "type": "event"
    },
    {
      "inputs": [],
      "name": "basePenalty",
      "outputs": [
        {
          "internalType": "uint256",
          "name": "",
          "type": "uint256"
        }
      ],
      "stateMutability": "view",
      "type": "function"
    },
    {
      "inputs": [],
      "name": "escrow",
      "outputs": [
        {
          "internalType": "contract StakingEscrow",
          "name": "",
          "type": "address"
        }
      ],
      "stateMutability": "view",
      "type": "function"
    },
    {
      "inputs": [
        {
          "internalType": "bytes",
          "name": "_capsuleBytes",
          "type": "bytes"
        },
        {
          "internalType": "bytes",
          "name": "_cFragBytes",
          "type": "bytes"
        },
        {
          "internalType": "bytes",
          "name": "_cFragSignature",
          "type": "bytes"
        },
        {
          "internalType": "bytes",
          "name": "_taskSignature",
          "type": "bytes"
        },
        {
          "internalType": "bytes",
          "name": "_requesterPublicKey",
          "type": "bytes"
        },
        {
          "internalType": "bytes",
          "name": "_workerPublicKey",
          "type": "bytes"
        },
        {
          "internalType": "bytes",
          "name": "_workerIdentityEvidence",
          "type": "bytes"
        },
        {
          "internalType": "bytes",
          "name": "_preComputedData",
          "type": "bytes"
        }
      ],
      "name": "evaluateCFrag",
      "outputs": [],
      "stateMutability": "nonpayable",
      "type": "function"
    },
    {
      "inputs": [
        {
          "internalType": "bytes32",
          "name": "",
          "type": "bytes32"
        }
      ],
      "name": "evaluatedCFrags",
      "outputs": [
        {
          "internalType": "bool",
          "name": "",
          "type": "bool"
        }
      ],
      "stateMutability": "view",
      "type": "function"
    },
    {
      "inputs": [
        {
          "internalType": "address",
          "name": "_target",
          "type": "address"
        }
      ],
      "name": "finishUpgrade",
      "outputs": [],
      "stateMutability": "nonpayable",
      "type": "function"
    },
    {
      "inputs": [],
      "name": "hashAlgorithm",
      "outputs": [
        {
          "internalType": "enum SignatureVerifier.HashAlgorithm",
          "name": "",
          "type": "uint8"
        }
      ],
      "stateMutability": "view",
      "type": "function"
    },
    {
      "inputs": [],
      "name": "isOwner",
      "outputs": [
        {
          "internalType": "bool",
          "name": "",
          "type": "bool"
        }
      ],
      "stateMutability": "view",
      "type": "function"
    },
    {
      "inputs": [],
      "name": "isUpgrade",
      "outputs": [
        {
          "internalType": "uint8",
          "name": "",
          "type": "uint8"
        }
      ],
      "stateMutability": "view",
      "type": "function"
    },
    {
      "inputs": [],
      "name": "owner",
      "outputs": [
        {
          "internalType": "address",
          "name": "",
          "type": "address"
        }
      ],
      "stateMutability": "view",
      "type": "function"
    },
    {
      "inputs": [
        {
          "internalType": "address",
          "name": "",
          "type": "address"
        }
      ],
      "name": "penaltyHistory",
      "outputs": [
        {
          "internalType": "uint256",
          "name": "",
          "type": "uint256"
        }
      ],
      "stateMutability": "view",
      "type": "function"
    },
    {
      "inputs": [],
      "name": "penaltyHistoryCoefficient",
      "outputs": [
        {
          "internalType": "uint256",
          "name": "",
          "type": "uint256"
        }
      ],
      "stateMutability": "view",
      "type": "function"
    },
    {
      "inputs": [],
      "name": "percentagePenaltyCoefficient",
      "outputs": [
        {
          "internalType": "uint256",
          "name": "",
          "type": "uint256"
        }
      ],
      "stateMutability": "view",
      "type": "function"
    },
    {
      "inputs": [],
      "name": "previousTarget",
      "outputs": [
        {
          "internalType": "address",
          "name": "",
          "type": "address"
        }
      ],
      "stateMutability": "view",
      "type": "function"
    },
    {
      "inputs": [],
      "name": "renounceOwnership",
      "outputs": [],
      "stateMutability": "nonpayable",
      "type": "function"
    },
    {
      "inputs": [],
      "name": "rewardCoefficient",
      "outputs": [
        {
          "internalType": "uint256",
          "name": "",
          "type": "uint256"
        }
      ],
      "stateMutability": "view",
      "type": "function"
    },
    {
      "inputs": [],
      "name": "target",
      "outputs": [
        {
          "internalType": "address",
          "name": "",
          "type": "address"
        }
      ],
      "stateMutability": "view",
      "type": "function"
    },
    {
      "inputs": [
        {
          "internalType": "address",
          "name": "newOwner",
          "type": "address"
        }
      ],
      "name": "transferOwnership",
      "outputs": [],
      "stateMutability": "nonpayable",
      "type": "function"
    },
    {
      "inputs": [
        {
          "internalType": "address",
          "name": "_testTarget",
          "type": "address"
        }
      ],
      "name": "verifyState",
      "outputs": [],
      "stateMutability": "nonpayable",
      "type": "function"
    }
  ],
  "bytecode": "6101406040523480156200001257600080fd5b5060405162003bd738038062003bd7833981810160405260c08110156200003857600080fd5b50805160208201516040808401516060850151608086015160a090960151600080546001600160a01b031916331780825594519697959693959294929391926001600160a01b0316917f8be0079c531659141344cd1fd0a4f28419497f9722a3daafe3b4186f6b6457e0908290a36000866001600160a01b031663407f80016040518163ffffffff1660e01b815260040160206040518083038186803b158015620000e257600080fd5b505afa158015620000f7573d6000803e3d6000fd5b505050506040513d60208110156200010e57600080fd5b505163ffffffff161180156200012357508115155b80156200012f57508015155b6200013957600080fd5b6001600160601b0319606087901b166080528460028111156200015857fe5b60a08160028111156200016757fe5b60f81b90525060c0939093526101005260e05261012052505060805160601c60a05160f81c60c05160e05161010051610120516139d062000207600039806113ca52806126f85250806112ca52806126c15250806110ea528061265d52508061111d528061268a5250806107ae52806109d45280610b035280610d8f5280611141525080610e0d5280610ef8528061103152806112fd52506139d06000f3fe608060405234801561001057600080fd5b50600436106101165760003560e01c80638f32d59b116100a2578063e2fdcc1711610071578063e2fdcc171461067c578063e38a303b14610684578063e8dccd06146106a2578063f2fde38b146106c8578063fc9daa07146106ee57610116565b80638f32d59b1461063e578063b9626d2114610646578063bd02b1401461066c578063d4b839921461067457610116565b806359a15fa5116100e957806359a15fa5146105ab5780635d5b6836146105d757806370535443146105fd578063715018a61461062e5780638da5cb5b1461063657610116565b80630bea809b1461011b5780631f96670b146105655780634b2cd1181461057f5780635712e98c146105a3575b600080fd5b610563600480360361010081101561013257600080fd5b810190602081018135600160201b81111561014c57600080fd5b82018360208201111561015e57600080fd5b803590602001918460018302840111600160201b8311171561017f57600080fd5b91908080601f0160208091040260200160405190810160405280939291908181526020018383808284376000920191909152509295949360208101935035915050600160201b8111156101d157600080fd5b8201836020820111156101e357600080fd5b803590602001918460018302840111600160201b8311171561020457600080fd5b91908080601f0160208091040260200160405190810160405280939291908181526020018383808284376000920191909152509295949360208101935035915050600160201b81111561025657600080fd5b82018360208201111561026857600080fd5b803590602001918460018302840111600160201b8311171561028957600080fd5b91908080601f0160208091040260200160405190810160405280939291908181526020018383808284376000920191909152509295949360208101935035915050600160201b8111156102db57600080fd5b8201836020820111156102ed57600080fd5b803590602001918460018302840111600160201b8311171561030e57600080fd5b91908080601f0160208091040260200160405190810160405280939291908181526020018383808284376000920191909152509295949360208101935035915050600160201b81111561036057600080fd5b82018360208201111561037257600080fd5b803590602001918460018302840111600160201b8311171561039357600080fd5b91908080601f0160208091040260200160405190810160405280939291908181526020018383808284376000920191909152509295949360208101935035915050600160201b8111156103e557600080fd5b8201836020820111156103f757600080fd5b803590602001918460018302840111600160201b8311171561041857600080fd5b91908080601f0160208091040260200160405190810160405280939291908181526020018383808284376000920191909152509295949360208101935035915050600160201b81111561046a57600080fd5b82018360208201111561047c57600080fd5b803590602001918460018302840111600160201b8311171561049d57600080fd5b91908080601f0160208091040260200160405190810160405280939291908181526020018383808284376000920191909152509295949360208101935035915050600160201b8111156104ef57600080fd5b82018360208201111561050157600080fd5b803590602001918460018302840111600160201b8311171561052257600080fd5b91908080601f0160208091040260200160405190810160405280939291908181526020018383808284376000920191909152509295506106f6945050505050565b005b61056d6110e8565b60408051918252519081900360200190f35b61058761110c565b604080516001600160a01b039092168252519081900360200190f35b61056d61111b565b6105b361113f565b604051808260028111156105c357fe5b60ff16815260200191505060405180910390f35b61056d600480360360208110156105ed57600080fd5b50356001600160a01b0316611163565b61061a6004803603602081101561061357600080fd5b5035611175565b604080519115158252519081900360200190f35b61056361118a565b6105876111e5565b61061a6111f4565b6105636004803603602081101561065c57600080fd5b50356001600160a01b0316611205565b61056d6112c8565b6105876112ec565b6105876112fb565b61068c61131f565b6040805160ff9092168252519081900360200190f35b610563600480360360208110156106b857600080fd5b50356001600160a01b031661132f565b610563600480360360208110156106de57600080fd5b50356001600160a01b03166113ab565b61056d6113c8565b60006107d289896040516020018083805190602001908083835b6020831061072f5780518252601f199092019160209182019101610710565b51815160209384036101000a600019018019909216911617905285519190930192850191508083835b602083106107775780518252601f199092019160209182019101610758565b6001836020036101000a038019825116818451168082178552505050505050905001925050506040516020818303038152906040527f00000000000000000000000000000000000000000000000000000000000000006113ec565b60008181526005602052604090205490915060ff16156108235760405162461bcd60e51b81526004018080602001828103825260268152602001806136036026913960400191505060405180910390fd5b6000818152600560205260408120805460ff191660011790556108478a8a85611544565b6040805182151581529051919250339184917f14c7c3aeaed5d9de50669529f936d80ff48af1f52beb8447437689cb298131a8919081900360200190a361088d85611f71565b6108de576040805162461bcd60e51b815260206004820152601e60248201527f5374616b65722773207075626c6963206b657920697320696e76616c69640000604482015290519081900360640190fd5b6108e786611f71565b6109225760405162461bcd60e51b81526004018080602001828103825260218152602001806138ca6021913960400191505060405180910390fd5b61092a613393565b61093384611fd1565b90506109f88a8a836102c0015160016005811061094c57fe5b1a60f81b6040516020018083805190602001908083835b602083106109825780518252601f199092019160209182019101610963565b6001836020036101000a038019825116818451168082178552505050505050905001826001600160f81b0319166001600160f81b031916815260010192505050604051602081830303815290604052887f00000000000000000000000000000000000000000000000000000000000000006121af565b610a49576040805162461bcd60e51b815260206004820152601a60248201527f4346726167207369676e617475726520697320696e76616c6964000000000000604482015290519081900360640190fd5b610a51613457565b610a5a8b6121f7565b9050610b2789826080015160c00151846102c00151600260058110610a7b57fe5b1a60f81b6040516020018083805190602001908083835b60208310610ab15780518252601f199092019160209182019101610a92565b6001836020036101000a038019825116818451168082178552505050505050905001826001600160f81b0319166001600160f81b031916815260010192505050604051602081830303815290604052897f00000000000000000000000000000000000000000000000000000000000000006121af565b610b78576040805162461bcd60e51b815260206004820152601960248201527f5461736b207369676e617475726520697320696e76616c696400000000000000604482015290519081900360640190fd5b60208701516102c083015160609060041a60f81b8260405160200180836001600160f81b0319166001600160f81b0319168152600101828152602001925050506040516020818303038152906040529050610db38e828a876102a001516000801b6040516020018086805190602001908083835b60208310610c0b5780518252601f199092019160209182019101610bec565b51815160209384036101000a600019018019909216911617905288519190930192880191508083835b60208310610c535780518252601f199092019160209182019101610c34565b51815160209384036101000a600019018019909216911617905287519190930192870191508083835b60208310610c9b5780518252601f199092019160209182019101610c7c565b6001836020036101000a038019825116818451168082178552505050505050905001836001600160a01b03166001600160a01b031660601b8152601401828152602001955050505050506040516020818303038152906040528c866102c00151600360058110610d0757fe5b1a60f81b6040516020018083805190602001908083835b60208310610d3d5780518252601f199092019160209182019101610d1e565b6001836020036101000a038019825116818451168082178552505050505050905001826001600160f81b0319166001600160f81b0319168152600101925050506040516020818303038152906040528c7f00000000000000000000000000000000000000000000000000000000000000006121af565b610dee5760405162461bcd60e51b81526004018080602001828103825260228152602001806135e16022913960400191505060405180910390fd5b6000610e07610e0183604560f81b61227f565b8a61257f565b905060007f00000000000000000000000000000000000000000000000000000000000000006001600160a01b031663b2eeb36e836040518263ffffffff1660e01b815260040180826001600160a01b03166001600160a01b0316815260200191505060206040518083038186803b158015610e8157600080fd5b505afa158015610e95573d6000803e3d6000fd5b505050506040513d6020811015610eab57600080fd5b505190506001600160a01b038116610ef45760405162461bcd60e51b81526004018080602001828103825260228152602001806137896022913960400191505060405180910390fd5b60007f00000000000000000000000000000000000000000000000000000000000000006001600160a01b031663178b6de6836040518263ffffffff1660e01b815260040180826001600160a01b03166001600160a01b0316815260200191505060206040518083038186803b158015610f6c57600080fd5b505afa158015610f80573d6000803e3d6000fd5b505050506040513d6020811015610f9657600080fd5b5051905080610fe3576040805162461bcd60e51b81526020600482015260146024820152735374616b657220686173206e6f20746f6b656e7360601b604482015290519081900360640190fd5b876110d557600080610ff58484612638565b60408051632673086360e21b81526001600160a01b038881166004830152602482018590523360448301526064820184905291519395509193507f000000000000000000000000000000000000000000000000000000000000000016916399cc218c9160848082019260009290919082900301818387803b15801561107957600080fd5b505af115801561108d573d6000803e3d6000fd5b50505050836001600160a01b0316856001600160a01b03168c7f860028d7f53afb628cae3582337c99be24159f7ee9d68a96babbc7f054a36caf60405160405180910390a450505b5050505050505050505050505050505050565b7f000000000000000000000000000000000000000000000000000000000000000081565b6002546001600160a01b031681565b7f000000000000000000000000000000000000000000000000000000000000000081565b7f000000000000000000000000000000000000000000000000000000000000000081565b60046020526000908152604090205481565b60056020526000908152604090205460ff1681565b6111926111f4565b61119b57600080fd5b600080546040516001600160a01b03909116907f8be0079c531659141344cd1fd0a4f28419497f9722a3daafe3b4186f6b6457e0908390a3600080546001600160a01b0319169055565b6000546001600160a01b031690565b6000546001600160a01b0316331490565b61120e81612771565b6040805160006020808301829052835180840390910181529183019092526112379060016113ec565b60008181526005602052604090205490915060ff1661125757600061125a565b60015b60ff1661126f83637053544360e01b846127cb565b1461127957600080fd5b600080805260046020527f17ef568e3e12ab5b9c7254a8d58478811de00f9e6eb34345acd53bf8fd09d3ec54906112ba908490632eadb41b60e11b906127cb565b146112c457600080fd5b5050565b7f000000000000000000000000000000000000000000000000000000000000000081565b6001546001600160a01b031681565b7f000000000000000000000000000000000000000000000000000000000000000081565b600254600160a01b900460ff1681565b611338816127e6565b6040805160006020808301829052835180840390910181529183019092526113619060016113ec565b60009081526005602090815260408220805460ff19166001179055908052600490525050607b7f17ef568e3e12ab5b9c7254a8d58478811de00f9e6eb34345acd53bf8fd09d3ec55565b6113b36111f4565b6113bc57600080fd5b6113c581612840565b50565b7f000000000000000000000000000000000000000000000000000000000000000081565b6000808260028111156113fb57fe5b141561140e57508151602083012061153e565b600182600281111561141c57fe5b14156114b1576002836040518082805190602001908083835b602083106114545780518252601f199092019160209182019101611435565b51815160209384036101000a60001901801990921691161790526040519190930194509192505080830381855afa158015611493573d6000803e3d6000fd5b5050506040513d60208110156114a857600080fd5b5051905061153e565b6003836040518082805190602001908083835b602083106114e35780518252601f1990920191602091820191016114c4565b51815160209384036101000a60001901801990921691161790526040519190930194509192505080830381855afa158015611522573d6000803e3d6000fd5b5050506040515160601b6bffffffffffffffffffffffff191690505b92915050565b600061154e61349d565b611557856128ae565b9050611561613457565b61156a856121f7565b9050611574613393565b61157d85611fd1565b9050600061162f826102800151846080015160a00151846102c001516000600581106115a557fe5b1a60f81b6040516020018083805190602001908083835b602083106115db5780518252601f1990920191602091820191016115bc565b6001836020036101000a038019825116818451168082178552505050505050905001826001600160f81b0319166001600160f81b03191681526001019250505060405160208183030381529060405261257f565b9050816102a001516001600160a01b0316816001600160a01b031614611692576040805162461bcd60e51b8152602060048201526013602482015272426164204b46726167207369676e617475726560681b604482015290519081900360640190fd5b600061169e8585612905565b8551805160209091015185519293506116b692612ba4565b6116f15760405162461bcd60e51b81526004018080602001828103825260468152602001806136fd6046913960600191505060405180910390fd5b61170383602001518460400151612bc1565b611754576040805162461bcd60e51b815260206004820181905260248201527f506f696e74207a45206973206e6f7420612076616c696420454320706f696e74604482015290519081900360640190fd5b61177d856000015160200151846000015186608001516080015186602001518760400151612c26565b6117b85760405162461bcd60e51b81526004018080602001828103825260228152602001806135776022913960400191505060405180910390fd5b8351805160209091015160608501516117d2929190612ba4565b61180d5760405162461bcd60e51b815260040180806020018281038252604881526020018061381a6048913960600191505060405180910390fd5b61181f83608001518460a00151612bc1565b61185a5760405162461bcd60e51b81526004018080602001828103825260228152602001806138626022913960400191505060405180910390fd5b61187b84600001516020015184606001518386608001518760a00151612c26565b6118b65760405162461bcd60e51b81526004018080602001828103825260238152602001806139786023913960400191505060405180910390fd5b608084015151805160209091015160c08501516118d4929190612ba4565b61190f5760405162461bcd60e51b81526004018080602001828103825260488152602001806139306048913960600191505060405180910390fd5b6000611980604051806040016040528086602001518152602001866040015181525061197b60405180604001604052808960800151600001516020015181526020018860c001518152506040518060400160405280896080015181526020018960a00151815250612cec565b612e14565b9050806119965760009650505050505050611f6a565b602080870151805191015160e08601516119b1929190612ba4565b6119ec5760405162461bcd60e51b81526004018080602001828103825260468152602001806137436046913960600191505060405180910390fd5b611a00846101000151856101200151612bc1565b611a51576040805162461bcd60e51b815260206004820181905260248201527f506f696e74207a56206973206e6f7420612076616c696420454320706f696e74604482015290519081900360640190fd5b611a7c8660200151602001518560e00151876080015160800151876101000151886101200151612c26565b611ab75760405162461bcd60e51b81526004018080602001828103825260228152602001806136716022913960400191505060405180910390fd5b6020808601518051910151610140860151611ad3929190612ba4565b611b0e5760405162461bcd60e51b81526004018080602001828103825260488152602001806137ab6048913960600191505060405180910390fd5b611b22846101600151856101800151612bc1565b611b5d5760405162461bcd60e51b81526004018080602001828103825260228152602001806138eb6022913960400191505060405180910390fd5b611b8185602001516020015185610140015184876101600151886101800151612c26565b611bbc5760405162461bcd60e51b815260040180806020018281038252602381526020018061390d6023913960400191505060405180910390fd5b608085015160209081015180519101516101a0860151611bdd929190612ba4565b611c185760405162461bcd60e51b81526004018080602001828103825260488152602001806136936048913960600191505060405180910390fd5b611c876040518060400160405280866101000151815260200186610120015181525061197b6040518060400160405280896080015160200151602001518152602001886101a0015181525060405180604001604052808961016001518152602001896101800151815250612cec565b905080611c9d5760009650505050505050611f6a565b611cb1846101c00151856101e00151612bc1565b611cec5760405162461bcd60e51b81526004018080602001828103825260218152602001806138a96021913960400191505060405180910390fd5b611d4b7f03c98795773ff1c241fc0b1cced85e80f8366581dda5c9452175ebd41385fa1f7f7880ed56962d7c0ae44d6f14bb53b5fe64b31ea44a41d0316f3a598778f0f936876080015160800151876101c00151886101e00151612c26565b611d865760405162461bcd60e51b81526004018080602001828103825260228152602001806136db6022913960400191505060405180910390fd5b6080850151604001518051602090910151610200860151611da8929190612ba4565b611de35760405162461bcd60e51b81526004018080602001828103825260488152602001806136296048913960600191505060405180910390fd5b611df7846102200151856102400151612bc1565b611e325760405162461bcd60e51b81526004018080602001828103825260228152602001806135556022913960400191505060405180910390fd5b611e5a8560800151604001516020015185610200015184876102200151886102400151612c26565b611e955760405162461bcd60e51b815260040180806020018281038252602381526020018061390d6023913960400191505060405180910390fd5b6080850151606001518051602090910151610260860151611eb7929190612ba4565b611ef25760405162461bcd60e51b81526004018080602001828103825260488152602001806135996048913960600191505060405180910390fd5b611f616040518060400160405280866101c001518152602001866101e0015181525061197b604051806040016040528089608001516060015160200151815260200188610260015181525060405180604001604052808961022001518152602001896102400151815250612cec565b96505050505050505b9392505050565b60008151604014611fb35760405162461bcd60e51b81526004018080602001828103825260258152602001806138846025913960400191505060405180910390fd5b60208201516040830151611fc78282612bc1565b925050505b919050565b611fd9613393565b81516102b914611fe857600080fd5b6000611ff383612e7c565b905080611fff81612e82565b835260200161200d81612e82565b6020808501919091520161202081612e82565b604084015260200161203181612e82565b606084015260200161204281612e82565b608084015260200161205381612e82565b60a084015260200161206481612e82565b60c084015260200161207581612e82565b60e084015260200161208681612e82565b61010084015260200161209881612e82565b6101208401526020016120aa81612e82565b6101408401526020016120bc81612e82565b6101608401526020016120ce81612e82565b6101808401526020016120e081612e82565b6101a08401526020016120f281612e82565b6101c084015260200161210481612e82565b6101e084015260200161211681612e82565b61020084015260200161212881612e82565b61022084015260200161213a81612e82565b61024084015260200161214c81612e82565b61026084015260200161215e81612e82565b61028084015260200161217081612e82565b60601c6102a084015260140161218581612e82565b6001600160d81b0319166102c08401526005016102b9820181146121a857600080fd5b5050919050565b600082516040146121bf57600080fd5b6121d26121cc86846113ec565b8561257f565b6001600160a01b03166121e484612e86565b6001600160a01b03161495945050505050565b6121ff613457565b815161016781101561221057600080fd5b600061221b84612e7c565b905061222b818460000151612e91565b905061223b818460200151612e91565b905061224681612e82565b6040840152606083015160209190910190612262908290612e91565b9050612272816082198401612eac565b6080840152509092915050565b60006001600160f81b0319821661233257604051601960f81b602080830182815260006021850181905230606081901b602287015288519095919386938a9390926036909101918401908083835b602083106122ec5780518252601f1990920191602091820191016122cd565b6001836020036101000a0380198251168184511680821785525050505050509050019450505050506040516020818303038152906040528051906020012091505061153e565b6001600160f81b03198216604560f81b1415612532578251806123865760405162461bcd60e51b81526004018080602001828103825260278152602001806137f36027913960400191505060405180910390fd5b60005b811561239d57600101600a82049150612389565b60608167ffffffffffffffff811180156123b657600080fd5b506040519080825280601f01601f1916602001820160405280156123e1576020820181803683370190505b5086519350905060001982015b831561243357600a840660300160f81b8282806001900393508151811061241157fe5b60200101906001600160f81b031916908160001a905350600a840493506123ee565b604051601960f81b60208083018281527f457468657265756d205369676e6564204d6573736167653a0a000000000000006021850181905286519394909387938d9392603a0191908501908083835b602083106124a15780518252601f199092019160209182019101612482565b51815160209384036101000a600019018019909216911617905285519190930192850191508083835b602083106124e95780518252601f1990920191602091820191016124ca565b6001836020036101000a0380198251168184511680821785525050505050509050019450505050506040516020818303038152906040528051906020012094505050505061153e565b6040805162461bcd60e51b815260206004820152601a60248201527f556e737570706f72746564204549503139312076657273696f6e000000000000604482015290519081900360640190fd5b6000815160411461258f57600080fd5b60208201516040830151606084015160001a601b8110156125ae57601b015b8060ff16601b14806125c357508060ff16601c145b6125cc57600080fd5b6040805160008152602080820180845289905260ff8416828401526060820186905260808201859052915160019260a0808401939192601f1981019281900390910190855afa158015612623573d6000803e3d6000fd5b5050604051601f190151979650505050505050565b6001600160a01b03821660009081526004602052604081205481906126b590612688907f00000000000000000000000000000000000000000000000000000000000000009063ffffffff612fb216565b7f00000000000000000000000000000000000000000000000000000000000000009063ffffffff612fd916565b91506126f0826126eb857f000000000000000000000000000000000000000000000000000000000000000063ffffffff612feb16565b61300d565b9150612722827f000000000000000000000000000000000000000000000000000000000000000063ffffffff612feb16565b6001600160a01b03851660009081526004602052604090205490915061274f90600163ffffffff612fd916565b6001600160a01b03909416600090815260046020526040902093909355929050565b60028054600160a01b900460ff161461278957600080fd5b6040805133815290516001600160a01b038316917f1e8d98c1b4a0d9bd2e2371026b632eb2773fcce41742e41f02f574ab69868d4c919081900360200190a250565b6000806127dc858560018685613023565b5195945050505050565b60028054600160a01b900460ff16146127fe57600080fd5b6040805133815290516001600160a01b038316917fd55ec27c5c6316913ed8803c18cfd1bfefea953db909dcba6140744a9d8b0d1f919081900360200190a250565b6001600160a01b03811661285357600080fd5b600080546040516001600160a01b03808516939216917f8be0079c531659141344cd1fd0a4f28419497f9722a3daafe3b4186f6b6457e091a3600080546001600160a01b0319166001600160a01b0392909216919091179055565b6128b661349d565b81516062146128c457600080fd5b60006128cf83612e7c565b90506128df818360000151612e91565b90506128ef818360200151612e91565b90506128fa81612e82565b604083015250919050565b81518051602091820151835180519084015160808601805151805190870151604080516001600160f81b031960f8998a1b8116828c0152602182019890985295881b871660418701526042860194909452951b909316606283015260638083019490945280518083039094018452608382019052838601518051908501518686015180519087015194518701518051908801518751600099899896979596949560a3019182918a01908083835b602083106129d15780518252601f1990920191602091820191016129b2565b51815160209384036101000a600019018019909216911617905260f89a8b1b6001600160f81b031990811692909401918252600182019990995296891b8216602188015250602286019490945250941b166042820152604380820193909352604080518083039094018452606382018152608088015190810151805190840151606083015180519086015160c0909401518751979950899850600160f91b977f03c98795773ff1c241fc0b1cced85e80f8366581dda5c9452175ebd41385fa1f97949693959294929391926083909201918291908b01908083835b60208310612acb5780518252601f199092019160209182019101612aac565b51815160209384036101000a60001901801990921691161790526001600160f81b03198c811692909401918252600182018b905260f88a811b85166021840152602283018a905288901b9093166042820152604381018690528451606390910192850191508083835b60208310612b535780518252601f199092019160209182019101612b34565b6001836020036101000a0380198251168184511680821785525050505050509050019850505050505050505060405160208183030381529060405290506000612b9b82613073565b95945050505050565b600060018216600119850160ff1614808015612b9b5750612b9b84845b60006401000003d0198084101580612bd95750808310155b15612be857600091505061153e565b60008180612bf257fe5b848509905060008280612c0157fe5b60078480612c0b57fe5b888680612c1457fe5b8a8b0909089190911495945050505050565b600070014551231950b75fc4402da1732fc9bebe1981600181601b898316018a858c8b09604080516000815260208082018084529690965260ff90941684820152606084019290925260808301525160a08083019392601f198301929081900390910190855afa158015612c9e573d6000803e3d6000fd5b505060408051601f1981015160208281018a90528284018990528351808403850181526060909301909352815191909201206001600160a01b03918216911614935050505095945050505050565b612cf46134ca565b82516020808501518451918501516401000003d0199392908184148015612d1a57508083145b15612d4f57612d4360405180606001604052808681526020018581526020016001815250613257565b9550505050505061153e565b60008580612d5957fe5b8487038308905060008680612d6a57fe5b8688038508905060008780612d7b57fe5b828309905060008880612d8a57fe5b838309905060008980612d9957fe5b838a0990508980612da657fe5b8a80612dae57fe5b838c80612db757fe5b84600209088b038b80612dc657fe5b878809088b528980612dd457fe5b8a80612ddc57fe5b838a098b038b80612de957fe5b8c80612df157fe5b8e518e03850888090860208c015250505060408801525094979650505050505050565b604081015160009080612e2b57600091505061153e565b6401000003d01960008183840985519091508280612e4557fe5b8751839009148015612e72575060208501518280612e5f57fe5b8380612e6757fe5b858409602089015109145b9695505050505050565b60200190565b5190565b805160209091012090565b8151600183015160009190911a825260209091015260210190565b612eb46134e8565b60e4821015612ec257600080fd5b612ed0838260000151612e91565b9250612ee0838260200151612e91565b9250612ef0838260400151612e91565b9250612f00838260600151612e91565b9250612f0b83612e82565b608082015260408051818152606081018252602094909401939060208201818036833750505060a08201819052612f45908490604061334c565b925060e482111561153e5760e319820167ffffffffffffffff81118015612f6b57600080fd5b506040519080825280601f01601f191660200182016040528015612f96576020820181803683370190505b5060c082018190528051612fab91859161334c565b5092915050565b600082612fc15750600061153e565b82820282848281612fce57fe5b0414611f6a57600080fd5b600082820183811015611f6a57600080fd5b6000808211612ff957600080fd5b600082848161300457fe5b04949350505050565b600081831061301c5781611f6a565b5090919050565b6040518481528315613036578260048201525b6001841115613046578160248201525b6000808560200260040183895af48015613064573d6000833e613069565b600082fd5b5095945050505050565b600080600060606e3430b9b42fba37afb1bab93b32b13760891b6000801b866040516020018084815260200183815260200182805190602001908083835b602083106130d05780518252601f1990920191602091820191016130b1565b6001836020036101000a03801982511681845116808217855250505050505090500193505050506040516020818303038152906040529050600081604051602001808360ff1660ff1660f81b815260010182805190602001908083835b6020831061314c5780518252601f19909201916020918201910161312d565b6001836020036101000a0380198251168184511680821785525050505050509050019250505060405160208183030381529060405280519060200120600182604051602001808360ff1660ff1660f81b815260010182805190602001908083835b602083106131cc5780518252601f1990920191602091820191016131ad565b51815160209384036101000a60001901801990921691161790526040805192909401828103601f19018352909352805192019190912094975093955070014551231950b75fc4402da1732fc9bec0935070014551231950b75fc4402da1732fc9bebf199250600091508290508387099050818061324557fe5b85820860010198975050505050505050565b61325f6134ca565b60408201518061326f5750611fcc565b82516401000003d01990600082602087015160020990506000838061329057fe5b82830990506000848061329f57fe5b8483099050600085806132ae57fe5b86806132b657fe5b8687096003099050600086806132c857fe5b87806132d057fe5b846401000003d2190988806132e157fe5b84850908808a52905086806132f257fe5b87806132fa57fe5b888061330257fe5b86870963800001e9600160ff1b0309888061331957fe5b898061332157fe5b848b03870885090860208a0152868061333657fe5b88860960408a0152509698975050505050505050565b60006020601f830104846020850160005b838110156133795760208102838101519083015260010161335d565b505050506000835160200184015281840190509392505050565b604051806102e0016040528060008152602001600081526020016000815260200160008152602001600081526020016000815260200160008152602001600081526020016000815260200160008152602001600081526020016000815260200160008152602001600081526020016000815260200160008152602001600081526020016000815260200160008152602001600081526020016000801916815260200160006001600160a01b0316815260200160006001600160d81b03191681525090565b6040518060a0016040528061346a61353d565b815260200161347761353d565b81526000602082015260400161348b61353d565b81526020016134986134e8565b905290565b60405180606001604052806134b061353d565b81526020016134bd61353d565b8152602001600081525090565b60405180606001604052806003906020820280368337509192915050565b6040518060e001604052806134fb61353d565b815260200161350861353d565b815260200161351561353d565b815260200161352261353d565b81526020016000815260200160608152602001606081525090565b60408051808201909152600080825260208201529056fe506f696e7420682a5531206973206e6f7420612076616c696420454320706f696e74507265636f6d7075746564207a2a452076616c756520697320696e636f7272656374507265636f6d7075746564205920636f6f7264696e617465206f6620553220646f65736e277420636f72726573706f6e6420746f20636f6d7072657373656420553220706f696e7453706563696669636174696f6e207369676e617475726520697320696e76616c6964546869732043467261672068617320616c7265616479206265656e206576616c75617465642e507265636f6d7075746564205920636f6f7264696e617465206f6620553120646f65736e277420636f72726573706f6e6420746f20636f6d7072657373656420553120706f696e74507265636f6d7075746564207a2a562076616c756520697320696e636f7272656374507265636f6d7075746564205920636f6f7264696e617465206f6620563220646f65736e277420636f72726573706f6e6420746f20636f6d7072657373656420563220706f696e74507265636f6d7075746564207a2a552076616c756520697320696e636f7272656374507265636f6d7075746564205920636f6f7264696e617465206f66204520646f65736e277420636f72726573706f6e6420746f20636f6d70726573736564204520706f696e74507265636f6d7075746564205920636f6f7264696e617465206f66205620646f65736e277420636f72726573706f6e6420746f20636f6d70726573736564205620706f696e74576f726b6572206d7573742062652072656c6174656420746f2061207374616b6572507265636f6d7075746564205920636f6f7264696e617465206f6620563120646f65736e277420636f72726573706f6e6420746f20636f6d7072657373656420563120706f696e74456d707479206d657373616765206e6f7420616c6c6f77656420666f722076657273696f6e2045507265636f6d7075746564205920636f6f7264696e617465206f6620453120646f65736e277420636f72726573706f6e6420746f20636f6d7072657373656420453120706f696e74506f696e7420682a4531206973206e6f7420612076616c696420454320706f696e7453657269616c697a656420636f6f7264696e617465732073686f756c642062652036342042506f696e74207a2a55206973206e6f7420612076616c696420454320706f696e745265717565737465722773207075626c6963206b657920697320696e76616c6964506f696e7420682a5631206973206e6f7420612076616c696420454320706f696e74507265636f6d707574656420682a56312076616c756520697320696e636f7272656374507265636f6d7075746564205920636f6f7264696e617465206f6620453220646f65736e277420636f72726573706f6e6420746f20636f6d7072657373656420453220706f696e74507265636f6d707574656420682a45312076616c756520697320696e636f7272656374a26469706673582212208b949647b5260cc217101dfb9c82a41991d5f12a0e1275bc10d07214902fa39064736f6c63430006070033",
  "bytecodeSha1": "30d37ab5a19fec1b3403f42dc82eee782666bcd2",
  "compiler": {
    "evm_version": "berlin",
    "optimizer": {
      "enabled": true,
      "runs": 200
    },
    "version": "0.6.7"
  },
  "contractName": "Adjudicator",
  "language": "Solidity",
  "natspec": {
    "details": "|v2.1.2|",
    "methods": {
      "constructor": {
        "params": {
          "_basePenalty": "Base for the penalty calculation",
          "_escrow": "Escrow contract",
          "_hashAlgorithm": "Hashing algorithm",
          "_penaltyHistoryCoefficient": "Coefficient for calculating the penalty depending on the history",
          "_percentagePenaltyCoefficient": "Coefficient for calculating the percentage penalty",
          "_rewardCoefficient": "Coefficient for calculating the reward"
        }
      },
      "evaluateCFrag(bytes,bytes,bytes,bytes,bytes,bytes,bytes,bytes)": {
        "notice": "Submit proof that a worker created wrong CFrag",
        "params": {
          "_cFragBytes": "Serialized CFrag",
          "_cFragSignature": "Signature of CFrag by worker",
          "_capsuleBytes": "Serialized capsule",
          "_preComputedData": "Additional pre-computed data for CFrag correctness verification",
          "_requesterPublicKey": "Bob's signing public key, also known as \"stamp\"",
          "_taskSignature": "Signature of task specification by Bob",
          "_workerIdentityEvidence": "Signature of worker's public key by worker's eth-key",
          "_workerPublicKey": "Worker's signing public key, also known as \"stamp\""
        }
      },
      "finishUpgrade(address)": {
        "details": "the `onlyWhileUpgrading` modifier works through a call to the parent `finishUpgrade`"
      },
      "renounceOwnership()": {
        "details": "Allows the current owner to relinquish control of the contract.",
        "notice": "Renouncing to ownership will leave the contract without an owner. It will not be possible to call the functions with the `onlyOwner` modifier anymore."
      },
      "transferOwnership(address)": {
        "details": "Allows the current owner to transfer control of the contract to a newOwner.",
        "params": {
          "newOwner": "The address to transfer ownership to."
        }
      },
      "verifyState(address)": {
        "details": "the `onlyWhileUpgrading` modifier works through a call to the parent `verifyState`"
      }
    },
    "notice": "Supervises stakers' behavior and punishes when something's wrong.",
    "title": "Adjudicator"
  },
  "opcodes": "PUSH1 0x80 PUSH1 0x40 MSTORE CALLVALUE DUP1 ISZERO PUSH2 0x10 JUMPI PUSH1 0x0 DUP1 REVERT JUMPDEST POP PUSH1 0x4 CALLDATASIZE LT PUSH2 0x116 JUMPI PUSH1 0x0 CALLDATALOAD PUSH1 0xE0 SHR DUP1 PUSH4 0x8F32D59B GT PUSH2 0xA2 JUMPI DUP1 PUSH4 0xE2FDCC17 GT PUSH2 0x71 JUMPI DUP1 PUSH4 0xE2FDCC17 EQ PUSH2 0x67C JUMPI DUP1 PUSH4 0xE38A303B EQ PUSH2 0x684 JUMPI DUP1 PUSH4 0xE8DCCD06 EQ PUSH2 0x6A2 JUMPI DUP1 PUSH4 0xF2FDE38B EQ PUSH2 0x6C8 JUMPI DUP1 PUSH4 0xFC9DAA07 EQ PUSH2 0x6EE JUMPI PUSH2 0x116 JUMP JUMPDEST DUP1 PUSH4 0x8F32D59B EQ PUSH2 0x63E JUMPI DUP1 PUSH4 0xB9626D21 EQ PUSH2 0x646 JUMPI DUP1 PUSH4 0xBD02B140 EQ PUSH2 0x66C JUMPI DUP1 PUSH4 0xD4B83992 EQ PUSH2 0x674 JUMPI PUSH2 0x116 JUMP JUMPDEST DUP1 PUSH4 0x59A15FA5 GT PUSH2 0xE9 JUMPI DUP1 PUSH4 0x59A15FA5 EQ PUSH2 0x5AB JUMPI DUP1 PUSH4 0x5D5B6836 EQ PUSH2 0x5D7 JUMPI DUP1 PUSH4 0x70535443 EQ PUSH2 0x5FD JUMPI DUP1 PUSH4 0x715018A6 EQ PUSH2 0x62E JUMPI DUP1 PUSH4 0x8DA5CB5B EQ PUSH2 0x636 JUMPI PUSH2 0x116 JUMP JUMPDEST DUP1 PUSH4 0xBEA809B EQ PUSH2 0x11B JUMPI DUP1 PUSH4 0x1F96670B EQ PUSH2 0x565 JUMPI DUP1 PUSH4 0x4B2CD118 EQ PUSH2 0x57F JUMPI DUP1 PUSH4 0x5712E98C EQ PUSH2 0x5A3 JUMPI JUMPDEST PUSH1 0x0 DUP1 REVERT JUMPDEST PUSH2 0x563 PUSH1 0x4 DUP1 CALLDATASIZE SUB PUSH2 0x100 DUP2 LT ISZERO PUSH2 0x132 JUMPI PUSH1 0x0 DUP1 REVERT JUMPDEST DUP2 ADD SWAP1 PUSH1 0x20 DUP2 ADD DUP2 CALLDATALOAD PUSH1 0x1 PUSH1 0x20 SHL DUP2 GT ISZERO PUSH2 0x14C JUMPI PUSH1 0x0 DUP1 REVERT JUMPDEST DUP3 ADD DUP4 PUSH1 0x20 DUP3 ADD GT ISZERO PUSH2 0x15E JUMPI PUSH1 0x0 DUP1 REVERT JUMPDEST DUP1 CALLDATALOAD SWAP1 PUSH1 0x20 ADD SWAP2 DUP5 PUSH1 0x1 DUP4 MUL DUP5 ADD GT PUSH1 0x1 PUSH1 0x20 SHL DUP4 GT OR ISZERO PUSH2 0x17F JUMPI PUSH1 0x0 DUP1 REVERT JUMPDEST SWAP2 SWAP1 DUP1 DUP1 PUSH1 0x1F ADD PUSH1 0x20 DUP1 SWAP2 DIV MUL PUSH1 0x20 ADD PUSH1 0x40 MLOAD SWAP1 DUP2 ADD PUSH1 0x40 MSTORE DUP1 SWAP4 SWAP3 SWAP2 SWAP1 DUP2 DUP2 MSTORE PUSH1 0x20 ADD DUP4 DUP4 DUP1 DUP3 DUP5 CALLDATACOPY PUSH1 0x0 SWAP3 ADD SWAP2 SWAP1 SWAP2 MSTORE POP SWAP3 SWAP6 SWAP5 SWAP4 PUSH1 0x20 DUP2 ADD SWAP4 POP CALLDATALOAD SWAP2 POP POP PUSH1 0x1 PUSH1 0x20 SHL DUP2 GT ISZERO PUSH2 0x1D1 JUMPI PUSH1 0x0 DUP1 REVERT JUMPDEST DUP3 ADD DUP4 PUSH1 0x20 DUP3 ADD GT ISZERO PUSH2 0x1E3 JUMPI PUSH1 0x0 DUP1 REVERT JUMPDEST DUP1 CALLDATALOAD SWAP1 PUSH1 0x20 ADD SWAP2 DUP5 PUSH1 0x1 DUP4 MUL DUP5 ADD GT PUSH1 0x1 PUSH1 0x20 SHL DUP4 GT OR ISZERO PUSH2 0x204 JUMPI PUSH1 0x0 DUP1 REVERT JUMPDEST SWAP2 SWAP1 DUP1 DUP1 PUSH1 0x1F ADD PUSH1 0x20 DUP1 SWAP2 DIV MUL PUSH1 0x20 ADD PUSH1 0x40 MLOAD SWAP1 DUP2 ADD PUSH1 0x40 MSTORE DUP1 SWAP4 SWAP3 SWAP2 SWAP1 DUP2 DUP2 MSTORE PUSH1 0x20 ADD DUP4 DUP4 DUP1 DUP3 DUP5 CALLDATACOPY PUSH1 0x0 SWAP3 ADD SWAP2 SWAP1 SWAP2 MSTORE POP SWAP3 SWAP6 SWAP5 SWAP4 PUSH1 0x20 DUP2 ADD SWAP4 POP CALLDATALOAD SWAP2 POP POP PUSH1 0x1 PUSH1 0x20 SHL DUP2 GT ISZERO PUSH2 0x256 JUMPI PUSH1 0x0 DUP1 REVERT JUMPDEST DUP3 ADD DUP4 PUSH1 0x20 DUP3 ADD GT ISZERO PUSH2 0x268 JUMPI PUSH1 0x0 DUP1 REVERT JUMPDEST DUP1 CALLDATALOAD SWAP1 PUSH1 0x20 ADD SWAP2 DUP5 PUSH1 0x1 DUP4 MUL DUP5 ADD GT PUSH1 0x1 PUSH1 0x20 SHL DUP4 GT OR ISZERO PUSH2 0x289 JUMPI PUSH1 0x0 DUP1 REVERT JUMPDEST SWAP2 SWAP1 DUP1 DUP1 PUSH1 0x1F ADD PUSH1 0x20 DUP1 SWAP2 DIV MUL PUSH1 0x20 ADD PUSH1 0x40 MLOAD SWAP1 DUP2 ADD PUSH1 0x40 MSTORE DUP1 SWAP4 SWAP3 SWAP2 SWAP1 DUP2 DUP2 MSTORE PUSH1 0x20 ADD DUP4 DUP4 DUP1 DUP3 DUP5 CALLDATACOPY PUSH1 0x0 SWAP3 ADD SWAP2 SWAP1 SWAP2 MSTORE POP SWAP3 SWAP6 SWAP5 SWAP4 PUSH1 0x20 DUP2 ADD SWAP4 POP CALLDATALOAD SWAP2 POP POP PUSH1 0x1 PUSH1 0x20 SHL DUP2 GT ISZERO PUSH2 0x2DB JUMPI PUSH1 0x0 DUP1 REVERT JUMPDEST DUP3 ADD DUP4 PUSH1 0x20 DUP3 ADD GT ISZERO PUSH2 0x2ED JUMPI PUSH1 0x0 DUP1 REVERT JUMPDEST DUP1 CALLDATALOAD SWAP1 PUSH1 0x20 ADD SWAP2 DUP5 PUSH1 0x1 DUP4 MUL DUP5 ADD GT PUSH1 0x1 PUSH1 0x20 SHL DUP4 GT OR ISZERO PUSH2 0x30E JUMPI PUSH1 0x0 DUP1 REVERT JUMPDEST SWAP2 SWAP1 DUP1 DUP1 PUSH1 0x1F ADD PUSH1 0x20 DUP1 SWAP2 DIV MUL PUSH1 0x20 ADD PUSH1 0x40 MLOAD SWAP1 DUP2 ADD PUSH1 0x40 MSTORE DUP1 SWAP4 SWAP3 SWAP2 SWAP1 DUP2 DUP2 MSTORE PUSH1 0x20 ADD DUP4 DUP4 DUP1 DUP3 DUP5 CALLDATACOPY PUSH1 0x0 SWAP3 ADD SWAP2 SWAP1 SWAP2 MSTORE POP SWAP3 SWAP6 SWAP5 SWAP4 PUSH1 0x20 DUP2 ADD SWAP4 POP CALLDATALOAD SWAP2 POP POP PUSH1 0x1 PUSH1 0x20 SHL DUP2 GT ISZERO PUSH2 0x360 JUMPI PUSH1 0x0 DUP1 REVERT JUMPDEST DUP3 ADD DUP4 PUSH1 0x20 DUP3 ADD GT ISZERO PUSH2 0x372 JUMPI PUSH1 0x0 DUP1 REVERT JUMPDEST DUP1 CALLDATALOAD SWAP1 PUSH1 0x20 ADD SWAP2 DUP5 PUSH1 0x1 DUP4 MUL DUP5 ADD GT PUSH1 0x1 PUSH1 0x20 SHL DUP4 GT OR ISZERO PUSH2 0x393 JUMPI PUSH1 0x0 DUP1 REVERT JUMPDEST SWAP2 SWAP1 DUP1 DUP1 PUSH1 0x1F ADD PUSH1 0x20 DUP1 SWAP2 DIV MUL PUSH1 0x20 ADD PUSH1 0x40 MLOAD SWAP1 DUP2 ADD PUSH1 0x40 MSTORE DUP1 SWAP4 SWAP3 SWAP2 SWAP1 DUP2 DUP2 MSTORE PUSH1 0x20 ADD DUP4 DUP4 DUP1 DUP3 DUP5 CALLDATACOPY PUSH1 0x0 SWAP3 ADD SWAP2 SWAP1 SWAP2 MSTORE POP SWAP3 SWAP6 SWAP5 SWAP4 PUSH1 0x20 DUP2 ADD SWAP4 POP CALLDATALOAD SWAP2 POP POP PUSH1 0x1 PUSH1 0x20 SHL DUP2 GT ISZERO PUSH2 0x3E5 JUMPI PUSH1 0x0 DUP1 REVERT JUMPDEST DUP3 ADD DUP4 PUSH1 0x20 DUP3 ADD GT ISZERO PUSH2 0x3F7 JUMPI PUSH1 0x0 DUP1 REVERT JUMPDEST DUP1 CALLDATALOAD SWAP1 PUSH1 0x20 ADD SWAP2 DUP5 PUSH1 0x1 DUP4 MUL DUP5 ADD GT PUSH1 0x1 PUSH1 0x20 SHL DUP4 GT OR ISZERO PUSH2 0x418 JUMPI PUSH1 0x0 DUP1 REVERT JUMPDEST SWAP2 SWAP1 DUP1 DUP1 PUSH1 0x1F ADD PUSH1 0x20 DUP1 SWAP2 DIV MUL PUSH1 0x20 ADD PUSH1 0x40 MLOAD SWAP1 DUP2 ADD PUSH1 0x40 MSTORE DUP1 SWAP4 SWAP3 SWAP2 SWAP1 DUP2 DUP2 MSTORE PUSH1 0x20 ADD DUP4 DUP4 DUP1 DUP3 DUP5 CALLDATACOPY PUSH1 0x0 SWAP3 ADD SWAP2 SWAP1 SWAP2 MSTORE POP SWAP3 SWAP6 SWAP5 SWAP4 PUSH1 0x20 DUP2 ADD SWAP4 POP CALLDATALOAD SWAP2 POP POP PUSH1 0x1 PUSH1 0x20 SHL DUP2 GT ISZERO PUSH2 0x46A JUMPI PUSH1 0x0 DUP1 REVERT JUMPDEST DUP3 ADD DUP4 PUSH1 0x20 DUP3 ADD GT ISZERO PUSH2 0x47C JUMPI PUSH1 0x0 DUP1 REVERT JUMPDEST DUP1 CALLDATALOAD SWAP1 PUSH1 0x20 ADD SWAP2 DUP5 PUSH1 0x1 DUP4 MUL DUP5 ADD GT PUSH1 0x1 PUSH1 0x20 SHL DUP4 GT OR ISZERO PUSH2 0x49D JUMPI PUSH1 0x0 DUP1 REVERT JUMPDEST SWAP2 SWAP1 DUP1 DUP1 PUSH1 0x1F ADD PUSH1 0x20 DUP1 SWAP2 DIV MUL PUSH1 0x20 ADD PUSH1 0x40 MLOAD SWAP1 DUP2 ADD PUSH1 0x40 MSTORE DUP1 SWAP4 SWAP3 SWAP2 SWAP1 DUP2 DUP2 MSTORE PUSH1 0x20 ADD DUP4 DUP4 DUP1 DUP3 DUP5 CALLDATACOPY PUSH1 0x0 SWAP3 ADD SWAP2 SWAP1 SWAP2 MSTORE POP SWAP3 SWAP6 SWAP5 SWAP4 PUSH1 0x20 DUP2 ADD SWAP4 POP CALLDATALOAD SWAP2 POP POP PUSH1 0x1 PUSH1 0x20 SHL DUP2 GT ISZERO PUSH2 0x4EF JUMPI PUSH1 0x0 DUP1 REVERT JUMPDEST DUP3 ADD DUP4 PUSH1 0x20 DUP3 ADD GT ISZERO PUSH2 0x501 JUMPI PUSH1 0x0 DUP1 REVERT JUMPDEST DUP1 CALLDATALOAD SWAP1 PUSH1 0x20 ADD SWAP2 DUP5 PUSH1 0x1 DUP4 MUL DUP5 ADD GT PUSH1 0x1 PUSH1 0x20 SHL DUP4 GT OR ISZERO PUSH2 0x522 JUMPI PUSH1 0x0 DUP1 REVERT JUMPDEST SWAP2 SWAP1 DUP1 DUP1 PUSH1 0x1F ADD PUSH1 0x20 DUP1 SWAP2 DIV MUL PUSH1 0x20 ADD PUSH1 0x40 MLOAD SWAP1 DUP2 ADD PUSH1 0x40 MSTORE DUP1 SWAP4 SWAP3 SWAP2 SWAP1 DUP2 DUP2 MSTORE PUSH1 0x20 ADD DUP4 DUP4 DUP1 DUP3 DUP5 CALLDATACOPY PUSH1 0x0 SWAP3 ADD SWAP2 SWAP1 SWAP2 MSTORE POP SWAP3 SWAP6 POP PUSH2 0x6F6 SWAP5 POP POP POP POP POP JUMP JUMPDEST STOP JUMPDEST PUSH2 0x56D PUSH2 0x10E8 JUMP JUMPDEST PUSH1 0x40 DUP1 MLOAD SWAP2 DUP3 MSTORE MLOAD SWAP1 DUP2 SWAP1 SUB PUSH1 0x20 ADD SWAP1 RETURN JUMPDEST PUSH2 0x587 PUSH2 0x110C JUMP JUMPDEST PUSH1 0x40 DUP1 MLOAD PUSH1 0x1 PUSH1 0x1 PUSH1 0xA0 SHL SUB SWAP1 SWAP3 AND DUP3 MSTORE MLOAD SWAP1 DUP2 SWAP1 SUB PUSH1 0x20 ADD SWAP1 RETURN JUMPDEST PUSH2 0x56D PUSH2 0x111B JUMP JUMPDEST PUSH2 0x5B3 PUSH2 0x113F JUMP JUMPDEST PUSH1 0x40 MLOAD DUP1 DUP3 PUSH1 0x2 DUP2 GT ISZERO PUSH2 0x5C3 JUMPI INVALID JUMPDEST PUSH1 0xFF AND DUP2 MSTORE PUSH1 0x20 ADD SWAP2 POP POP PUSH1 0x40 MLOAD DUP1 SWAP2 SUB SWAP1 RETURN JUMPDEST PUSH2 0x56D PUSH1 0x4 DUP1 CALLDATASIZE SUB PUSH1 0x20 DUP2 LT ISZERO PUSH2 0x5ED JUMPI PUSH1 0x0 DUP1 REVERT JUMPDEST POP CALLDATALOAD PUSH1 0x1 PUSH1 0x1 PUSH1 0xA0 SHL SUB AND PUSH2 0x1163 JUMP JUMPDEST PUSH2 0x61A PUSH1 0x4 DUP1 CALLDATASIZE SUB PUSH1 0x20 DUP2 LT ISZERO PUSH2 0x613 JUMPI PUSH1 0x0 DUP1 REVERT JUMPDEST POP CALLDATALOAD PUSH2 0x1175 JUMP JUMPDEST PUSH1 0x40 DUP1 MLOAD SWAP2 ISZERO ISZERO DUP3 MSTORE MLOAD SWAP1 DUP2 SWAP1 SUB PUSH1 0x20 ADD SWAP1 RETURN JUMPDEST PUSH2 0x563 PUSH2 0x118A JUMP JUMPDEST PUSH2 0x587 PUSH2 0x11E5 JUMP JUMPDEST PUSH2 0x61A PUSH2 0x11F4 JUMP JUMPDEST PUSH2 0x563 PUSH1 0x4 DUP1 CALLDATASIZE SUB PUSH1 0x20 DUP2 LT ISZERO PUSH2 0x65C JUMPI PUSH1 0x0 DUP1 REVERT JUMPDEST POP CALLDATALOAD PUSH1 0x1 PUSH1 0x1 PUSH1 0xA0 SHL SUB AND PUSH2 0x1205 JUMP JUMPDEST PUSH2 0x56D PUSH2 0x12C8 JUMP JUMPDEST PUSH2 0x587 PUSH2 0x12EC JUMP JUMPDEST PUSH2 0x587 PUSH2 0x12FB JUMP JUMPDEST PUSH2 0x68C PUSH2 0x131F JUMP JUMPDEST PUSH1 0x40 DUP1 MLOAD PUSH1 0xFF SWAP1 SWAP3 AND DUP3 MSTORE MLOAD SWAP1 DUP2 SWAP1 SUB PUSH1 0x20 ADD SWAP1 RETURN JUMPDEST PUSH2 0x563 PUSH1 0x4 DUP1 CALLDATASIZE SUB PUSH1 0x20 DUP2 LT ISZERO PUSH2 0x6B8 JUMPI PUSH1 0x0 DUP1 REVERT JUMPDEST POP CALLDATALOAD PUSH1 0x1 PUSH1 0x1 PUSH1 0xA0 SHL SUB AND PUSH2 0x132F JUMP JUMPDEST PUSH2 0x563 PUSH1 0x4 DUP1 CALLDATASIZE SUB PUSH1 0x20 DUP2 LT ISZERO PUSH2 0x6DE JUMPI PUSH1 0x0 DUP1 REVERT JUMPDEST POP CALLDATALOAD PUSH1 0x1 PUSH1 0x1 PUSH1 0xA0 SHL SUB AND PUSH2 0x13AB JUMP JUMPDEST PUSH2 0x56D PUSH2 0x13C8 JUMP JUMPDEST PUSH1 0x0 PUSH2 0x7D2 DUP10 DUP10 PUSH1 0x40 MLOAD PUSH1 0x20 ADD DUP1 DUP4 DUP1 MLOAD SWAP1 PUSH1 0x20 ADD SWAP1 DUP1 DUP4 DUP4 JUMPDEST PUSH1 0x20 DUP4 LT PUSH2 0x72F JUMPI DUP1 MLOAD DUP3 MSTORE PUSH1 0x1F NOT SWAP1 SWAP3 ADD SWAP2 PUSH1 0x20 SWAP2 DUP3 ADD SWAP2 ADD PUSH2 0x710 JUMP JUMPDEST MLOAD DUP2 MLOAD PUSH1 0x20 SWAP4 DUP5 SUB PUSH2 0x100 EXP PUSH1 0x0 NOT ADD DUP1 NOT SWAP1 SWAP3 AND SWAP2 AND OR SWAP1 MSTORE DUP6 MLOAD SWAP2 SWAP1 SWAP4 ADD SWAP3 DUP6 ADD SWAP2 POP DUP1 DUP4 DUP4 JUMPDEST PUSH1 0x20 DUP4 LT PUSH2 0x777 JUMPI DUP1 MLOAD DUP3 MSTORE PUSH1 0x1F NOT SWAP1 SWAP3 ADD SWAP2 PUSH1 0x20 SWAP2 DUP3 ADD SWAP2 ADD PUSH2 0x758 JUMP JUMPDEST PUSH1 0x1 DUP4 PUSH1 0x20 SUB PUSH2 0x100 EXP SUB DUP1 NOT DUP3 MLOAD AND DUP2 DUP5 MLOAD AND DUP1 DUP3 OR DUP6 MSTORE POP POP POP POP POP POP SWAP1 POP ADD SWAP3 POP POP POP PUSH1 0x40 MLOAD PUSH1 0x20 DUP2 DUP4 SUB SUB DUP2 MSTORE SWAP1 PUSH1 0x40 MSTORE PUSH32 0x0 PUSH2 0x13EC JUMP JUMPDEST PUSH1 0x0 DUP2 DUP2 MSTORE PUSH1 0x5 PUSH1 0x20 MSTORE PUSH1 0x40 SWAP1 KECCAK256 SLOAD SWAP1 SWAP2 POP PUSH1 0xFF AND ISZERO PUSH2 0x823 JUMPI PUSH1 0x40 MLOAD PUSH3 0x461BCD PUSH1 0xE5 SHL DUP2 MSTORE PUSH1 0x4 ADD DUP1 DUP1 PUSH1 0x20 ADD DUP3 DUP2 SUB DUP3 MSTORE PUSH1 0x26 DUP2 MSTORE PUSH1 0x20 ADD DUP1 PUSH2 0x3603 PUSH1 0x26 SWAP2 CODECOPY PUSH1 0x40 ADD SWAP2 POP POP PUSH1 0x40 MLOAD DUP1 SWAP2 SUB SWAP1 REVERT JUMPDEST PUSH1 0x0 DUP2 DUP2 MSTORE PUSH1 0x5 PUSH1 0x20 MSTORE PUSH1 0x40 DUP2 KECCAK256 DUP1 SLOAD PUSH1 0xFF NOT AND PUSH1 0x1 OR SWAP1 SSTORE PUSH2 0x847 DUP11 DUP11 DUP6 PUSH2 0x1544 JUMP JUMPDEST PUSH1 0x40 DUP1 MLOAD DUP3 ISZERO ISZERO DUP2 MSTORE SWAP1 MLOAD SWAP2 SWAP3 POP CALLER SWAP2 DUP5 SWAP2 PUSH32 0x14C7C3AEAED5D9DE50669529F936D80FF48AF1F52BEB8447437689CB298131A8 SWAP2 SWAP1 DUP2 SWAP1 SUB PUSH1 0x20 ADD SWAP1 LOG3 PUSH2 0x88D DUP6 PUSH2 0x1F71 JUMP JUMPDEST PUSH2 0x8DE JUMPI PUSH1 0x40 DUP1 MLOAD PUSH3 0x461BCD PUSH1 0xE5 SHL DUP2 MSTORE PUSH1 0x20 PUSH1 0x4 DUP3 ADD MSTORE PUSH1 0x1E PUSH1 0x24 DUP3 ADD MSTORE PUSH32 0x5374616B65722773207075626C6963206B657920697320696E76616C69640000 PUSH1 0x44 DUP3 ADD MSTORE SWAP1 MLOAD SWAP1 DUP2 SWAP1 SUB PUSH1 0x64 ADD SWAP1 REVERT JUMPDEST PUSH2 0x8E7 DUP7 PUSH2 0x1F71 JUMP JUMPDEST PUSH2 0x922 JUMPI PUSH1 0x40 MLOAD PUSH3 0x461BCD PUSH1 0xE5 SHL DUP2 MSTORE PUSH1 0x4 ADD DUP1 DUP1 PUSH1 0x20 ADD DUP3 DUP2 SUB DUP3 MSTORE PUSH1 0x21 DUP2 MSTORE PUSH1 0x20 ADD DUP1 PUSH2 0x38CA PUSH1 0x21 SWAP2 CODECOPY PUSH1 0x40 ADD SWAP2 POP POP PUSH1 0x40 MLOAD DUP1 SWAP2 SUB SWAP1 REVERT JUMPDEST PUSH2 0x92A PUSH2 0x3393 JUMP JUMPDEST PUSH2 0x933 DUP5 PUSH2 0x1FD1 JUMP JUMPDEST SWAP1 POP PUSH2 0x9F8 DUP11 DUP11 DUP4 PUSH2 0x2C0 ADD MLOAD PUSH1 0x1 PUSH1 0x5 DUP2 LT PUSH2 0x94C JUMPI INVALID JUMPDEST BYTE PUSH1 0xF8 SHL PUSH1 0x40 MLOAD PUSH1 0x20 ADD DUP1 DUP4 DUP1 MLOAD SWAP1 PUSH1 0x20 ADD SWAP1 DUP1 DUP4 DUP4 JUMPDEST PUSH1 0x20 DUP4 LT PUSH2 0x982 JUMPI DUP1 MLOAD DUP3 MSTORE PUSH1 0x1F NOT SWAP1 SWAP3 ADD SWAP2 PUSH1 0x20 SWAP2 DUP3 ADD SWAP2 ADD PUSH2 0x963 JUMP JUMPDEST PUSH1 0x1 DUP4 PUSH1 0x20 SUB PUSH2 0x100 EXP SUB DUP1 NOT DUP3 MLOAD AND DUP2 DUP5 MLOAD AND DUP1 DUP3 OR DUP6 MSTORE POP POP POP POP POP POP SWAP1 POP ADD DUP3 PUSH1 0x1 PUSH1 0x1 PUSH1 0xF8 SHL SUB NOT AND PUSH1 0x1 PUSH1 0x1 PUSH1 0xF8 SHL SUB NOT AND DUP2 MSTORE PUSH1 0x1 ADD SWAP3 POP POP POP PUSH1 0x40 MLOAD PUSH1 0x20 DUP2 DUP4 SUB SUB DUP2 MSTORE SWAP1 PUSH1 0x40 MSTORE DUP9 PUSH32 0x0 PUSH2 0x21AF JUMP JUMPDEST PUSH2 0xA49 JUMPI PUSH1 0x40 DUP1 MLOAD PUSH3 0x461BCD PUSH1 0xE5 SHL DUP2 MSTORE PUSH1 0x20 PUSH1 0x4 DUP3 ADD MSTORE PUSH1 0x1A PUSH1 0x24 DUP3 ADD MSTORE PUSH32 0x4346726167207369676E617475726520697320696E76616C6964000000000000 PUSH1 0x44 DUP3 ADD MSTORE SWAP1 MLOAD SWAP1 DUP2 SWAP1 SUB PUSH1 0x64 ADD SWAP1 REVERT JUMPDEST PUSH2 0xA51 PUSH2 0x3457 JUMP JUMPDEST PUSH2 0xA5A DUP12 PUSH2 0x21F7 JUMP JUMPDEST SWAP1 POP PUSH2 0xB27 DUP10 DUP3 PUSH1 0x80 ADD MLOAD PUSH1 0xC0 ADD MLOAD DUP5 PUSH2 0x2C0 ADD MLOAD PUSH1 0x2 PUSH1 0x5 DUP2 LT PUSH2 0xA7B JUMPI INVALID JUMPDEST BYTE PUSH1 0xF8 SHL PUSH1 0x40 MLOAD PUSH1 0x20 ADD DUP1 DUP4 DUP1 MLOAD SWAP1 PUSH1 0x20 ADD SWAP1 DUP1 DUP4 DUP4 JUMPDEST PUSH1 0x20 DUP4 LT PUSH2 0xAB1 JUMPI DUP1 MLOAD DUP3 MSTORE PUSH1 0x1F NOT SWAP1 SWAP3 ADD SWAP2 PUSH1 0x20 SWAP2 DUP3 ADD SWAP2 ADD PUSH2 0xA92 JUMP JUMPDEST PUSH1 0x1 DUP4 PUSH1 0x20 SUB PUSH2 0x100 EXP SUB DUP1 NOT DUP3 MLOAD AND DUP2 DUP5 MLOAD AND DUP1 DUP3 OR DUP6 MSTORE POP POP POP POP POP POP SWAP1 POP ADD DUP3 PUSH1 0x1 PUSH1 0x1 PUSH1 0xF8 SHL SUB NOT AND PUSH1 0x1 PUSH1 0x1 PUSH1 0xF8 SHL SUB NOT AND DUP2 MSTORE PUSH1 0x1 ADD SWAP3 POP POP POP PUSH1 0x40 MLOAD PUSH1 0x20 DUP2 DUP4 SUB SUB DUP2 MSTORE SWAP1 PUSH1 0x40 MSTORE DUP10 PUSH32 0x0 PUSH2 0x21AF JUMP JUMPDEST PUSH2 0xB78 JUMPI PUSH1 0x40 DUP1 MLOAD PUSH3 0x461BCD PUSH1 0xE5 SHL DUP2 MSTORE PUSH1 0x20 PUSH1 0x4 DUP3 ADD MSTORE PUSH1 0x19 PUSH1 0x24 DUP3 ADD MSTORE PUSH32 0x5461736B207369676E617475726520697320696E76616C696400000000000000 PUSH1 0x44 DUP3 ADD MSTORE SWAP1 MLOAD SWAP1 DUP2 SWAP1 SUB PUSH1 0x64 ADD SWAP1 REVERT JUMPDEST PUSH1 0x20 DUP8 ADD MLOAD PUSH2 0x2C0 DUP4 ADD MLOAD PUSH1 0x60 SWAP1 PUSH1 0x4 BYTE PUSH1 0xF8 SHL DUP3 PUSH1 0x40 MLOAD PUSH1 0x20 ADD DUP1 DUP4 PUSH1 0x1 PUSH1 0x1 PUSH1 0xF8 SHL SUB NOT AND PUSH1 0x1 PUSH1 0x1 PUSH1 0xF8 SHL SUB NOT AND DUP2 MSTORE PUSH1 0x1 ADD DUP3 DUP2 MSTORE PUSH1 0x20 ADD SWAP3 POP POP POP PUSH1 0x40 MLOAD PUSH1 0x20 DUP2 DUP4 SUB SUB DUP2 MSTORE SWAP1 PUSH1 0x40 MSTORE SWAP1 POP PUSH2 0xDB3 DUP15 DUP3 DUP11 DUP8 PUSH2 0x2A0 ADD MLOAD PUSH1 0x0 DUP1 SHL PUSH1 0x40 MLOAD PUSH1 0x20 ADD DUP1 DUP7 DUP1 MLOAD SWAP1 PUSH1 0x20 ADD SWAP1 DUP1 DUP4 DUP4 JUMPDEST PUSH1 0x20 DUP4 LT PUSH2 0xC0B JUMPI DUP1 MLOAD DUP3 MSTORE PUSH1 0x1F NOT SWAP1 SWAP3 ADD SWAP2 PUSH1 0x20 SWAP2 DUP3 ADD SWAP2 ADD PUSH2 0xBEC JUMP JUMPDEST MLOAD DUP2 MLOAD PUSH1 0x20 SWAP4 DUP5 SUB PUSH2 0x100 EXP PUSH1 0x0 NOT ADD DUP1 NOT SWAP1 SWAP3 AND SWAP2 AND OR SWAP1 MSTORE DUP9 MLOAD SWAP2 SWAP1 SWAP4 ADD SWAP3 DUP9 ADD SWAP2 POP DUP1 DUP4 DUP4 JUMPDEST PUSH1 0x20 DUP4 LT PUSH2 0xC53 JUMPI DUP1 MLOAD DUP3 MSTORE PUSH1 0x1F NOT SWAP1 SWAP3 ADD SWAP2 PUSH1 0x20 SWAP2 DUP3 ADD SWAP2 ADD PUSH2 0xC34 JUMP JUMPDEST MLOAD DUP2 MLOAD PUSH1 0x20 SWAP4 DUP5 SUB PUSH2 0x100 EXP PUSH1 0x0 NOT ADD DUP1 NOT SWAP1 SWAP3 AND SWAP2 AND OR SWAP1 MSTORE DUP8 MLOAD SWAP2 SWAP1 SWAP4 ADD SWAP3 DUP8 ADD SWAP2 POP DUP1 DUP4 DUP4 JUMPDEST PUSH1 0x20 DUP4 LT PUSH2 0xC9B JUMPI DUP1 MLOAD DUP3 MSTORE PUSH1 0x1F NOT SWAP1 SWAP3 ADD SWAP2 PUSH1 0x20 SWAP2 DUP3 ADD SWAP2 ADD PUSH2 0xC7C JUMP JUMPDEST PUSH1 0x1 DUP4 PUSH1 0x20 SUB PUSH2 0x100 EXP SUB DUP1 NOT DUP3 MLOAD AND DUP2 DUP5 MLOAD AND DUP1 DUP3 OR DUP6 MSTORE POP POP POP POP POP POP SWAP1 POP ADD DUP4 PUSH1 0x1 PUSH1 0x1 PUSH1 0xA0 SHL SUB AND PUSH1 0x1 PUSH1 0x1 PUSH1 0xA0 SHL SUB AND PUSH1 0x60 SHL DUP2 MSTORE PUSH1 0x14 ADD DUP3 DUP2 MSTORE PUSH1 0x20 ADD SWAP6 POP POP POP POP POP POP PUSH1 0x40 MLOAD PUSH1 0x20 DUP2 DUP4 SUB SUB DUP2 MSTORE SWAP1 PUSH1 0x40 MSTORE DUP13 DUP7 PUSH2 0x2C0 ADD MLOAD PUSH1 0x3 PUSH1 0x5 DUP2 LT PUSH2 0xD07 JUMPI INVALID JUMPDEST BYTE PUSH1 0xF8 SHL PUSH1 0x40 MLOAD PUSH1 0x20 ADD DUP1 DUP4 DUP1 MLOAD SWAP1 PUSH1 0x20 ADD SWAP1 DUP1 DUP4 DUP4 JUMPDEST PUSH1 0x20 DUP4 LT PUSH2 0xD3D JUMPI DUP1 MLOAD DUP3 MSTORE PUSH1 0x1F NOT SWAP1 SWAP3 ADD SWAP2 PUSH1 0x20 SWAP2 DUP3 ADD SWAP2 ADD PUSH2 0xD1E JUMP JUMPDEST PUSH1 0x1 DUP4 PUSH1 0x20 SUB PUSH2 0x100 EXP SUB DUP1 NOT DUP3 MLOAD AND DUP2 DUP5 MLOAD AND DUP1 DUP3 OR DUP6 MSTORE POP POP POP POP POP POP SWAP1 POP ADD DUP3 PUSH1 0x1 PUSH1 0x1 PUSH1 0xF8 SHL SUB NOT AND PUSH1 0x1 PUSH1 0x1 PUSH1 0xF8 SHL SUB NOT AND DUP2 MSTORE PUSH1 0x1 ADD SWAP3 POP POP POP PUSH1 0x40 MLOAD PUSH1 0x20 DUP2 DUP4 SUB SUB DUP2 MSTORE SWAP1 PUSH1 0x40 MSTORE DUP13 PUSH32 0x0 PUSH2 0x21AF JUMP JUMPDEST PUSH2 0xDEE JUMPI PUSH1 0x40 MLOAD PUSH3 0x461BCD PUSH1 0xE5 SHL DUP2 MSTORE PUSH1 0x4 ADD DUP1 DUP1 PUSH1 0x20 ADD DUP3 DUP2 SUB DUP3 MSTORE PUSH1 0x22 DUP2 MSTORE PUSH1 0x20 ADD DUP1 PUSH2 0x35E1 PUSH1 0x22 SWAP2 CODECOPY PUSH1 0x40 ADD SWAP2 POP POP PUSH1 0x40 MLOAD DUP1 SWAP2 SUB SWAP1 REVERT JUMPDEST PUSH1 0x0 PUSH2 0xE07 PUSH2 0xE01 DUP4 PUSH1 0x45 PUSH1 0xF8 SHL PUSH2 0x227F JUMP JUMPDEST DUP11 PUSH2 0x257F JUMP JUMPDEST SWAP1 POP PUSH1 0x0 PUSH32 0x0 PUSH1 0x1 PUSH1 0x1 PUSH1 0xA0 SHL SUB AND PUSH4 0xB2EEB36E DUP4 PUSH1 0x40 MLOAD DUP3 PUSH4 0xFFFFFFFF AND PUSH1 0xE0 SHL DUP2 MSTORE PUSH1 0x4 ADD DUP1 DUP3 PUSH1 0x1 PUSH1 0x1 PUSH1 0xA0 SHL SUB AND PUSH1 0x1 PUSH1 0x1 PUSH1 0xA0 SHL SUB AND DUP2 MSTORE PUSH1 0x20 ADD SWAP2 POP POP PUSH1 0x20 PUSH1 0x40 MLOAD DUP1 DUP4 SUB DUP2 DUP7 DUP1 EXTCODESIZE ISZERO DUP1 ISZERO PUSH2 0xE81 JUMPI PUSH1 0x0 DUP1 REVERT JUMPDEST POP GAS STATICCALL ISZERO DUP1 ISZERO PUSH2 0xE95 JUMPI RETURNDATASIZE PUSH1 0x0 DUP1 RETURNDATACOPY RETURNDATASIZE PUSH1 0x0 REVERT JUMPDEST POP POP POP POP PUSH1 0x40 MLOAD RETURNDATASIZE PUSH1 0x20 DUP2 LT ISZERO PUSH2 0xEAB JUMPI PUSH1 0x0 DUP1 REVERT JUMPDEST POP MLOAD SWAP1 POP PUSH1 0x1 PUSH1 0x1 PUSH1 0xA0 SHL SUB DUP2 AND PUSH2 0xEF4 JUMPI PUSH1 0x40 MLOAD PUSH3 0x461BCD PUSH1 0xE5 SHL DUP2 MSTORE PUSH1 0x4 ADD DUP1 DUP1 PUSH1 0x20 ADD DUP3 DUP2 SUB DUP3 MSTORE PUSH1 0x22 DUP2 MSTORE PUSH1 0x20 ADD DUP1 PUSH2 0x3789 PUSH1 0x22 SWAP2 CODECOPY PUSH1 0x40 ADD SWAP2 POP POP PUSH1 0x40 MLOAD DUP1 SWAP2 SUB SWAP1 REVERT JUMPDEST PUSH1 0x0 PUSH32 0x0 PUSH1 0x1 PUSH1 0x1 PUSH1 0xA0 SHL SUB AND PUSH4 0x178B6DE6 DUP4 PUSH1 0x40 MLOAD DUP3 PUSH4 0xFFFFFFFF AND PUSH1 0xE0 SHL DUP2 MSTORE PUSH1 0x4 ADD DUP1 DUP3 PUSH1 0x1 PUSH1 0x1 PUSH1 0xA0 SHL SUB AND PUSH1 0x1 PUSH1 0x1 PUSH1 0xA0 SHL SUB AND DUP2 MSTORE PUSH1 0x20 ADD SWAP2 POP POP PUSH1 0x20 PUSH1 0x40 MLOAD DUP1 DUP4 SUB DUP2 DUP7 DUP1 EXTCODESIZE ISZERO DUP1 ISZERO PUSH2 0xF6C JUMPI PUSH1 0x0 DUP1 REVERT JUMPDEST POP GAS STATICCALL ISZERO DUP1 ISZERO PUSH2 0xF80 JUMPI RETURNDATASIZE PUSH1 0x0 DUP1 RETURNDATACOPY RETURNDATASIZE PUSH1 0x0 REVERT JUMPDEST POP POP POP POP PUSH1 0x40 MLOAD RETURNDATASIZE PUSH1 0x20 DUP2 LT ISZERO PUSH2 0xF96 JUMPI PUSH1 0x0 DUP1 REVERT JUMPDEST POP MLOAD SWAP1 POP DUP1 PUSH2 0xFE3 JUMPI PUSH1 0x40 DUP1 MLOAD PUSH3 0x461BCD PUSH1 0xE5 SHL DUP2 MSTORE PUSH1 0x20 PUSH1 0x4 DUP3 ADD MSTORE PUSH1 0x14 PUSH1 0x24 DUP3 ADD MSTORE PUSH20 0x5374616B657220686173206E6F20746F6B656E73 PUSH1 0x60 SHL PUSH1 0x44 DUP3 ADD MSTORE SWAP1 MLOAD SWAP1 DUP2 SWAP1 SUB PUSH1 0x64 ADD SWAP1 REVERT JUMPDEST DUP8 PUSH2 0x10D5 JUMPI PUSH1 0x0 DUP1 PUSH2 0xFF5 DUP5 DUP5 PUSH2 0x2638 JUMP JUMPDEST PUSH1 0x40 DUP1 MLOAD PUSH4 0x26730863 PUSH1 0xE2 SHL DUP2 MSTORE PUSH1 0x1 PUSH1 0x1 PUSH1 0xA0 SHL SUB DUP9 DUP2 AND PUSH1 0x4 DUP4 ADD MSTORE PUSH1 0x24 DUP3 ADD DUP6 SWAP1 MSTORE CALLER PUSH1 0x44 DUP4 ADD MSTORE PUSH1 0x64 DUP3 ADD DUP5 SWAP1 MSTORE SWAP2 MLOAD SWAP4 SWAP6 POP SWAP2 SWAP4 POP PUSH32 0x0 AND SWAP2 PUSH4 0x99CC218C SWAP2 PUSH1 0x84 DUP1 DUP3 ADD SWAP3 PUSH1 0x0 SWAP3 SWAP1 SWAP2 SWAP1 DUP3 SWAP1 SUB ADD DUP2 DUP4 DUP8 DUP1 EXTCODESIZE ISZERO DUP1 ISZERO PUSH2 0x1079 JUMPI PUSH1 0x0 DUP1 REVERT JUMPDEST POP GAS CALL ISZERO DUP1 ISZERO PUSH2 0x108D JUMPI RETURNDATASIZE PUSH1 0x0 DUP1 RETURNDATACOPY RETURNDATASIZE PUSH1 0x0 REVERT JUMPDEST POP POP POP POP DUP4 PUSH1 0x1 PUSH1 0x1 PUSH1 0xA0 SHL SUB AND DUP6 PUSH1 0x1 PUSH1 0x1 PUSH1 0xA0 SHL SUB AND DUP13 PUSH32 0x860028D7F53AFB628CAE3582337C99BE24159F7EE9D68A96BABBC7F054A36CAF PUSH1 0x40 MLOAD PUSH1 0x40 MLOAD DUP1 SWAP2 SUB SWAP1 LOG4 POP POP JUMPDEST POP POP POP POP POP POP POP POP POP POP POP POP POP POP POP POP POP JUMP JUMPDEST PUSH32 0x0 DUP2 JUMP JUMPDEST PUSH1 0x2 SLOAD PUSH1 0x1 PUSH1 0x1 PUSH1 0xA0 SHL SUB AND DUP2 JUMP JUMPDEST PUSH32 0x0 DUP2 JUMP JUMPDEST PUSH32 0x0 DUP2 JUMP JUMPDEST PUSH1 0x4 PUSH1 0x20 MSTORE PUSH1 0x0 SWAP1 DUP2 MSTORE PUSH1 0x40 SWAP1 KECCAK256 SLOAD DUP2 JUMP JUMPDEST PUSH1 0x5 PUSH1 0x20 MSTORE PUSH1 0x0 SWAP1 DUP2 MSTORE PUSH1 0x40 SWAP1 KECCAK256 SLOAD PUSH1 0xFF AND DUP2 JUMP JUMPDEST PUSH2 0x1192 PUSH2 0x11F4 JUMP JUMPDEST PUSH2 0x119B JUMPI PUSH1 0x0 DUP1 REVERT JUMPDEST PUSH1 0x0 DUP1 SLOAD PUSH1 0x40 MLOAD PUSH1 0x1 PUSH1 0x1 PUSH1 0xA0 SHL SUB SWAP1 SWAP2 AND SWAP1 PUSH32 0x8BE0079C531659141344CD1FD0A4F28419497F9722A3DAAFE3B4186F6B6457E0 SWAP1 DUP4 SWAP1 LOG3 PUSH1 0x0 DUP1 SLOAD PUSH1 0x1 PUSH1 0x1 PUSH1 0xA0 SHL SUB NOT AND SWAP1 SSTORE JUMP JUMPDEST PUSH1 0x0 SLOAD PUSH1 0x1 PUSH1 0x1 PUSH1 0xA0 SHL SUB AND SWAP1 JUMP JUMPDEST PUSH1 0x0 SLOAD PUSH1 0x1 PUSH1 0x1 PUSH1 0xA0 SHL SUB AND CALLER EQ SWAP1 JUMP JUMPDEST PUSH2 0x120E DUP2 PUSH2 0x2771 JUMP JUMPDEST PUSH1 0x40 DUP1 MLOAD PUSH1 0x0 PUSH1 0x20 DUP1 DUP4 ADD DUP3 SWAP1 MSTORE DUP4 MLOAD DUP1 DUP5 SUB SWAP1 SWAP2 ADD DUP2 MSTORE SWAP2 DUP4 ADD SWAP1 SWAP3 MSTORE PUSH2 0x1237 SWAP1 PUSH1 0x1 PUSH2 0x13EC JUMP JUMPDEST PUSH1 0x0 DUP2 DUP2 MSTORE PUSH1 0x5 PUSH1 0x20 MSTORE PUSH1 0x40 SWAP1 KECCAK256 SLOAD SWAP1 SWAP2 POP PUSH1 0xFF AND PUSH2 0x1257 JUMPI PUSH1 0x0 PUSH2 0x125A JUMP JUMPDEST PUSH1 0x1 JUMPDEST PUSH1 0xFF AND PUSH2 0x126F DUP4 PUSH4 0x70535443 PUSH1 0xE0 SHL DUP5 PUSH2 0x27CB JUMP JUMPDEST EQ PUSH2 0x1279 JUMPI PUSH1 0x0 DUP1 REVERT JUMPDEST PUSH1 0x0 DUP1 DUP1 MSTORE PUSH1 0x4 PUSH1 0x20 MSTORE PUSH32 0x17EF568E3E12AB5B9C7254A8D58478811DE00F9E6EB34345ACD53BF8FD09D3EC SLOAD SWAP1 PUSH2 0x12BA SWAP1 DUP5 SWAP1 PUSH4 0x2EADB41B PUSH1 0xE1 SHL SWAP1 PUSH2 0x27CB JUMP JUMPDEST EQ PUSH2 0x12C4 JUMPI PUSH1 0x0 DUP1 REVERT JUMPDEST POP POP JUMP JUMPDEST PUSH32 0x0 DUP2 JUMP JUMPDEST PUSH1 0x1 SLOAD PUSH1 0x1 PUSH1 0x1 PUSH1 0xA0 SHL SUB AND DUP2 JUMP JUMPDEST PUSH32 0x0 DUP2 JUMP JUMPDEST PUSH1 0x2 SLOAD PUSH1 0x1 PUSH1 0xA0 SHL SWAP1 DIV PUSH1 0xFF AND DUP2 JUMP JUMPDEST PUSH2 0x1338 DUP2 PUSH2 0x27E6 JUMP JUMPDEST PUSH1 0x40 DUP1 MLOAD PUSH1 0x0 PUSH1 0x20 DUP1 DUP4 ADD DUP3 SWAP1 MSTORE DUP4 MLOAD DUP1 DUP5 SUB SWAP1 SWAP2 ADD DUP2 MSTORE SWAP2 DUP4 ADD SWAP1 SWAP3 MSTORE PUSH2 0x1361 SWAP1 PUSH1 0x1 PUSH2 0x13EC JUMP JUMPDEST PUSH1 0x0 SWAP1 DUP2 MSTORE PUSH1 0x5 PUSH1 0x20 SWAP1 DUP2 MSTORE PUSH1 0x40 DUP3 KECCAK256 DUP1 SLOAD PUSH1 0xFF NOT AND PUSH1 0x1 OR SWAP1 SSTORE SWAP1 DUP1 MSTORE PUSH1 0x4 SWAP1 MSTORE POP POP PUSH1 0x7B PUSH32 0x17EF568E3E12AB5B9C7254A8D58478811DE00F9E6EB34345ACD53BF8FD09D3EC SSTORE JUMP JUMPDEST PUSH2 0x13B3 PUSH2 0x11F4 JUMP JUMPDEST PUSH2 0x13BC JUMPI PUSH1 0x0 DUP1 REVERT JUMPDEST PUSH2 0x13C5 DUP2 PUSH2 0x2840 JUMP JUMPDEST POP JUMP JUMPDEST PUSH32 0x0 DUP2 JUMP JUMPDEST PUSH1 0x0 DUP1 DUP3 PUSH1 0x2 DUP2 GT ISZERO PUSH2 0x13FB JUMPI INVALID JUMPDEST EQ ISZERO PUSH2 0x140E JUMPI POP DUP2 MLOAD PUSH1 0x20 DUP4 ADD KECCAK256 PUSH2 0x153E JUMP JUMPDEST PUSH1 0x1 DUP3 PUSH1 0x2 DUP2 GT ISZERO PUSH2 0x141C JUMPI INVALID JUMPDEST EQ ISZERO PUSH2 0x14B1 JUMPI PUSH1 0x2 DUP4 PUSH1 0x40 MLOAD DUP1 DUP3 DUP1 MLOAD SWAP1 PUSH1 0x20 ADD SWAP1 DUP1 DUP4 DUP4 JUMPDEST PUSH1 0x20 DUP4 LT PUSH2 0x1454 JUMPI DUP1 MLOAD DUP3 MSTORE PUSH1 0x1F NOT SWAP1 SWAP3 ADD SWAP2 PUSH1 0x20 SWAP2 DUP3 ADD SWAP2 ADD PUSH2 0x1435 JUMP JUMPDEST MLOAD DUP2 MLOAD PUSH1 0x20 SWAP4 DUP5 SUB PUSH2 0x100 EXP PUSH1 0x0 NOT ADD DUP1 NOT SWAP1 SWAP3 AND SWAP2 AND OR SWAP1 MSTORE PUSH1 0x40 MLOAD SWAP2 SWAP1 SWAP4 ADD SWAP5 POP SWAP2 SWAP3 POP POP DUP1 DUP4 SUB DUP2 DUP6 GAS STATICCALL ISZERO DUP1 ISZERO PUSH2 0x1493 JUMPI RETURNDATASIZE PUSH1 0x0 DUP1 RETURNDATACOPY RETURNDATASIZE PUSH1 0x0 REVERT JUMPDEST POP POP POP PUSH1 0x40 MLOAD RETURNDATASIZE PUSH1 0x20 DUP2 LT ISZERO PUSH2 0x14A8 JUMPI PUSH1 0x0 DUP1 REVERT JUMPDEST POP MLOAD SWAP1 POP PUSH2 0x153E JUMP JUMPDEST PUSH1 0x3 DUP4 PUSH1 0x40 MLOAD DUP1 DUP3 DUP1 MLOAD SWAP1 PUSH1 0x20 ADD SWAP1 DUP1 DUP4 DUP4 JUMPDEST PUSH1 0x20 DUP4 LT PUSH2 0x14E3 JUMPI DUP1 MLOAD DUP3 MSTORE PUSH1 0x1F NOT SWAP1 SWAP3 ADD SWAP2 PUSH1 0x20 SWAP2 DUP3 ADD SWAP2 ADD PUSH2 0x14C4 JUMP JUMPDEST MLOAD DUP2 MLOAD PUSH1 0x20 SWAP4 DUP5 SUB PUSH2 0x100 EXP PUSH1 0x0 NOT ADD DUP1 NOT SWAP1 SWAP3 AND SWAP2 AND OR SWAP1 MSTORE PUSH1 0x40 MLOAD SWAP2 SWAP1 SWAP4 ADD SWAP5 POP SWAP2 SWAP3 POP POP DUP1 DUP4 SUB DUP2 DUP6 GAS STATICCALL ISZERO DUP1 ISZERO PUSH2 0x1522 JUMPI RETURNDATASIZE PUSH1 0x0 DUP1 RETURNDATACOPY RETURNDATASIZE PUSH1 0x0 REVERT JUMPDEST POP POP POP PUSH1 0x40 MLOAD MLOAD PUSH1 0x60 SHL PUSH12 0xFFFFFFFFFFFFFFFFFFFFFFFF NOT AND SWAP1 POP JUMPDEST SWAP3 SWAP2 POP POP JUMP JUMPDEST PUSH1 0x0 PUSH2 0x154E PUSH2 0x349D JUMP JUMPDEST PUSH2 0x1557 DUP6 PUSH2 0x28AE JUMP JUMPDEST SWAP1 POP PUSH2 0x1561 PUSH2 0x3457 JUMP JUMPDEST PUSH2 0x156A DUP6 PUSH2 0x21F7 JUMP JUMPDEST SWAP1 POP PUSH2 0x1574 PUSH2 0x3393 JUMP JUMPDEST PUSH2 0x157D DUP6 PUSH2 0x1FD1 JUMP JUMPDEST SWAP1 POP PUSH1 0x0 PUSH2 0x162F DUP3 PUSH2 0x280 ADD MLOAD DUP5 PUSH1 0x80 ADD MLOAD PUSH1 0xA0 ADD MLOAD DUP5 PUSH2 0x2C0 ADD MLOAD PUSH1 0x0 PUSH1 0x5 DUP2 LT PUSH2 0x15A5 JUMPI INVALID JUMPDEST BYTE PUSH1 0xF8 SHL PUSH1 0x40 MLOAD PUSH1 0x20 ADD DUP1 DUP4 DUP1 MLOAD SWAP1 PUSH1 0x20 ADD SWAP1 DUP1 DUP4 DUP4 JUMPDEST PUSH1 0x20 DUP4 LT PUSH2 0x15DB JUMPI DUP1 MLOAD DUP3 MSTORE PUSH1 0x1F NOT SWAP1 SWAP3 ADD SWAP2 PUSH1 0x20 SWAP2 DUP3 ADD SWAP2 ADD PUSH2 0x15BC JUMP JUMPDEST PUSH1 0x1 DUP4 PUSH1 0x20 SUB PUSH2 0x100 EXP SUB DUP1 NOT DUP3 MLOAD AND DUP2 DUP5 MLOAD AND DUP1 DUP3 OR DUP6 MSTORE POP POP POP POP POP POP SWAP1 POP ADD DUP3 PUSH1 0x1 PUSH1 0x1 PUSH1 0xF8 SHL SUB NOT AND PUSH1 0x1 PUSH1 0x1 PUSH1 0xF8 SHL SUB NOT AND DUP2 MSTORE PUSH1 0x1 ADD SWAP3 POP POP POP PUSH1 0x40 MLOAD PUSH1 0x20 DUP2 DUP4 SUB SUB DUP2 MSTORE SWAP1 PUSH1 0x40 MSTORE PUSH2 0x257F JUMP JUMPDEST SWAP1 POP DUP2 PUSH2 0x2A0 ADD MLOAD PUSH1 0x1 PUSH1 0x1 PUSH1 0xA0 SHL SUB AND DUP2 PUSH1 0x1 PUSH1 0x1 PUSH1 0xA0 SHL SUB AND EQ PUSH2 0x1692 JUMPI PUSH1 0x40 DUP1 MLOAD PUSH3 0x461BCD PUSH1 0xE5 SHL DUP2 MSTORE PUSH1 0x20 PUSH1 0x4 DUP3 ADD MSTORE PUSH1 0x13 PUSH1 0x24 DUP3 ADD MSTORE PUSH19 0x426164204B46726167207369676E6174757265 PUSH1 0x68 SHL PUSH1 0x44 DUP3 ADD MSTORE SWAP1 MLOAD SWAP1 DUP2 SWAP1 SUB PUSH1 0x64 ADD SWAP1 REVERT JUMPDEST PUSH1 0x0 PUSH2 0x169E DUP6 DUP6 PUSH2 0x2905 JUMP JUMPDEST DUP6 MLOAD DUP1 MLOAD PUSH1 0x20 SWAP1 SWAP2 ADD MLOAD DUP6 MLOAD SWAP3 SWAP4 POP PUSH2 0x16B6 SWAP3 PUSH2 0x2BA4 JUMP JUMPDEST PUSH2 0x16F1 JUMPI PUSH1 0x40 MLOAD PUSH3 0x461BCD PUSH1 0xE5 SHL DUP2 MSTORE PUSH1 0x4 ADD DUP1 DUP1 PUSH1 0x20 ADD DUP3 DUP2 SUB DUP3 MSTORE PUSH1 0x46 DUP2 MSTORE PUSH1 0x20 ADD DUP1 PUSH2 0x36FD PUSH1 0x46 SWAP2 CODECOPY PUSH1 0x60 ADD SWAP2 POP POP PUSH1 0x40 MLOAD DUP1 SWAP2 SUB SWAP1 REVERT JUMPDEST PUSH2 0x1703 DUP4 PUSH1 0x20 ADD MLOAD DUP5 PUSH1 0x40 ADD MLOAD PUSH2 0x2BC1 JUMP JUMPDEST PUSH2 0x1754 JUMPI PUSH1 0x40 DUP1 MLOAD PUSH3 0x461BCD PUSH1 0xE5 SHL DUP2 MSTORE PUSH1 0x20 PUSH1 0x4 DUP3 ADD DUP2 SWAP1 MSTORE PUSH1 0x24 DUP3 ADD MSTORE PUSH32 0x506F696E74207A45206973206E6F7420612076616C696420454320706F696E74 PUSH1 0x44 DUP3 ADD MSTORE SWAP1 MLOAD SWAP1 DUP2 SWAP1 SUB PUSH1 0x64 ADD SWAP1 REVERT JUMPDEST PUSH2 0x177D DUP6 PUSH1 0x0 ADD MLOAD PUSH1 0x20 ADD MLOAD DUP5 PUSH1 0x0 ADD MLOAD DUP7 PUSH1 0x80 ADD MLOAD PUSH1 0x80 ADD MLOAD DUP7 PUSH1 0x20 ADD MLOAD DUP8 PUSH1 0x40 ADD MLOAD PUSH2 0x2C26 JUMP JUMPDEST PUSH2 0x17B8 JUMPI PUSH1 0x40 MLOAD PUSH3 0x461BCD PUSH1 0xE5 SHL DUP2 MSTORE PUSH1 0x4 ADD DUP1 DUP1 PUSH1 0x20 ADD DUP3 DUP2 SUB DUP3 MSTORE PUSH1 0x22 DUP2 MSTORE PUSH1 0x20 ADD DUP1 PUSH2 0x3577 PUSH1 0x22 SWAP2 CODECOPY PUSH1 0x40 ADD SWAP2 POP POP PUSH1 0x40 MLOAD DUP1 SWAP2 SUB SWAP1 REVERT JUMPDEST DUP4 MLOAD DUP1 MLOAD PUSH1 0x20 SWAP1 SWAP2 ADD MLOAD PUSH1 0x60 DUP6 ADD MLOAD PUSH2 0x17D2 SWAP3 SWAP2 SWAP1 PUSH2 0x2BA4 JUMP JUMPDEST PUSH2 0x180D JUMPI PUSH1 0x40 MLOAD PUSH3 0x461BCD PUSH1 0xE5 SHL DUP2 MSTORE PUSH1 0x4 ADD DUP1 DUP1 PUSH1 0x20 ADD DUP3 DUP2 SUB DUP3 MSTORE PUSH1 0x48 DUP2 MSTORE PUSH1 0x20 ADD DUP1 PUSH2 0x381A PUSH1 0x48 SWAP2 CODECOPY PUSH1 0x60 ADD SWAP2 POP POP PUSH1 0x40 MLOAD DUP1 SWAP2 SUB SWAP1 REVERT JUMPDEST PUSH2 0x181F DUP4 PUSH1 0x80 ADD MLOAD DUP5 PUSH1 0xA0 ADD MLOAD PUSH2 0x2BC1 JUMP JUMPDEST PUSH2 0x185A JUMPI PUSH1 0x40 MLOAD PUSH3 0x461BCD PUSH1 0xE5 SHL DUP2 MSTORE PUSH1 0x4 ADD DUP1 DUP1 PUSH1 0x20 ADD DUP3 DUP2 SUB DUP3 MSTORE PUSH1 0x22 DUP2 MSTORE PUSH1 0x20 ADD DUP1 PUSH2 0x3862 PUSH1 0x22 SWAP2 CODECOPY PUSH1 0x40 ADD SWAP2 POP POP PUSH1 0x40 MLOAD DUP1 SWAP2 SUB SWAP1 REVERT JUMPDEST PUSH2 0x187B DUP5 PUSH1 0x0 ADD MLOAD PUSH1 0x20 ADD MLOAD DUP5 PUSH1 0x60 ADD MLOAD DUP4 DUP7 PUSH1 0x80 ADD MLOAD DUP8 PUSH1 0xA0 ADD MLOAD PUSH2 0x2C26 JUMP JUMPDEST PUSH2 0x18B6 JUMPI PUSH1 0x40 MLOAD PUSH3 0x461BCD PUSH1 0xE5 SHL DUP2 MSTORE PUSH1 0x4 ADD DUP1 DUP1 PUSH1 0x20 ADD DUP3 DUP2 SUB DUP3 MSTORE PUSH1 0x23 DUP2 MSTORE PUSH1 0x20 ADD DUP1 PUSH2 0x3978 PUSH1 0x23 SWAP2 CODECOPY PUSH1 0x40 ADD SWAP2 POP POP PUSH1 0x40 MLOAD DUP1 SWAP2 SUB SWAP1 REVERT JUMPDEST PUSH1 0x80 DUP5 ADD MLOAD MLOAD DUP1 MLOAD PUSH1 0x20 SWAP1 SWAP2 ADD MLOAD PUSH1 0xC0 DUP6 ADD MLOAD PUSH2 0x18D4 SWAP3 SWAP2 SWAP1 PUSH2 0x2BA4 JUMP JUMPDEST PUSH2 0x190F JUMPI PUSH1 0x40 MLOAD PUSH3 0x461BCD PUSH1 0xE5 SHL DUP2 MSTORE PUSH1 0x4 ADD DUP1 DUP1 PUSH1 0x20 ADD DUP3 DUP2 SUB DUP3 MSTORE PUSH1 0x48 DUP2 MSTORE PUSH1 0x20 ADD DUP1 PUSH2 0x3930 PUSH1 0x48 SWAP2 CODECOPY PUSH1 0x60 ADD SWAP2 POP POP PUSH1 0x40 MLOAD DUP1 SWAP2 SUB SWAP1 REVERT JUMPDEST PUSH1 0x0 PUSH2 0x1980 PUSH1 0x40 MLOAD DUP1 PUSH1 0x40 ADD PUSH1 0x40 MSTORE DUP1 DUP7 PUSH1 0x20 ADD MLOAD DUP2 MSTORE PUSH1 0x20 ADD DUP7 PUSH1 0x40 ADD MLOAD DUP2 MSTORE POP PUSH2 0x197B PUSH1 0x40 MLOAD DUP1 PUSH1 0x40 ADD PUSH1 0x40 MSTORE DUP1 DUP10 PUSH1 0x80 ADD MLOAD PUSH1 0x0 ADD MLOAD PUSH1 0x20 ADD MLOAD DUP2 MSTORE PUSH1 0x20 ADD DUP9 PUSH1 0xC0 ADD MLOAD DUP2 MSTORE POP PUSH1 0x40 MLOAD DUP1 PUSH1 0x40 ADD PUSH1 0x40 MSTORE DUP1 DUP10 PUSH1 0x80 ADD MLOAD DUP2 MSTORE PUSH1 0x20 ADD DUP10 PUSH1 0xA0 ADD MLOAD DUP2 MSTORE POP PUSH2 0x2CEC JUMP JUMPDEST PUSH2 0x2E14 JUMP JUMPDEST SWAP1 POP DUP1 PUSH2 0x1996 JUMPI PUSH1 0x0 SWAP7 POP POP POP POP POP POP POP PUSH2 0x1F6A JUMP JUMPDEST PUSH1 0x20 DUP1 DUP8 ADD MLOAD DUP1 MLOAD SWAP2 ADD MLOAD PUSH1 0xE0 DUP7 ADD MLOAD PUSH2 0x19B1 SWAP3 SWAP2 SWAP1 PUSH2 0x2BA4 JUMP JUMPDEST PUSH2 0x19EC JUMPI PUSH1 0x40 MLOAD PUSH3 0x461BCD PUSH1 0xE5 SHL DUP2 MSTORE PUSH1 0x4 ADD DUP1 DUP1 PUSH1 0x20 ADD DUP3 DUP2 SUB DUP3 MSTORE PUSH1 0x46 DUP2 MSTORE PUSH1 0x20 ADD DUP1 PUSH2 0x3743 PUSH1 0x46 SWAP2 CODECOPY PUSH1 0x60 ADD SWAP2 POP POP PUSH1 0x40 MLOAD DUP1 SWAP2 SUB SWAP1 REVERT JUMPDEST PUSH2 0x1A00 DUP5 PUSH2 0x100 ADD MLOAD DUP6 PUSH2 0x120 ADD MLOAD PUSH2 0x2BC1 JUMP JUMPDEST PUSH2 0x1A51 JUMPI PUSH1 0x40 DUP1 MLOAD PUSH3 0x461BCD PUSH1 0xE5 SHL DUP2 MSTORE PUSH1 0x20 PUSH1 0x4 DUP3 ADD DUP2 SWAP1 MSTORE PUSH1 0x24 DUP3 ADD MSTORE PUSH32 0x506F696E74207A56206973206E6F7420612076616C696420454320706F696E74 PUSH1 0x44 DUP3 ADD MSTORE SWAP1 MLOAD SWAP1 DUP2 SWAP1 SUB PUSH1 0x64 ADD SWAP1 REVERT JUMPDEST PUSH2 0x1A7C DUP7 PUSH1 0x20 ADD MLOAD PUSH1 0x20 ADD MLOAD DUP6 PUSH1 0xE0 ADD MLOAD DUP8 PUSH1 0x80 ADD MLOAD PUSH1 0x80 ADD MLOAD DUP8 PUSH2 0x100 ADD MLOAD DUP9 PUSH2 0x120 ADD MLOAD PUSH2 0x2C26 JUMP JUMPDEST PUSH2 0x1AB7 JUMPI PUSH1 0x40 MLOAD PUSH3 0x461BCD PUSH1 0xE5 SHL DUP2 MSTORE PUSH1 0x4 ADD DUP1 DUP1 PUSH1 0x20 ADD DUP3 DUP2 SUB DUP3 MSTORE PUSH1 0x22 DUP2 MSTORE PUSH1 0x20 ADD DUP1 PUSH2 0x3671 PUSH1 0x22 SWAP2 CODECOPY PUSH1 0x40 ADD SWAP2 POP POP PUSH1 0x40 MLOAD DUP1 SWAP2 SUB SWAP1 REVERT JUMPDEST PUSH1 0x20 DUP1 DUP7 ADD MLOAD DUP1 MLOAD SWAP2 ADD MLOAD PUSH2 0x140 DUP7 ADD MLOAD PUSH2 0x1AD3 SWAP3 SWAP2 SWAP1 PUSH2 0x2BA4 JUMP JUMPDEST PUSH2 0x1B0E JUMPI PUSH1 0x40 MLOAD PUSH3 0x461BCD PUSH1 0xE5 SHL DUP2 MSTORE PUSH1 0x4 ADD DUP1 DUP1 PUSH1 0x20 ADD DUP3 DUP2 SUB DUP3 MSTORE PUSH1 0x48 DUP2 MSTORE PUSH1 0x20 ADD DUP1 PUSH2 0x37AB PUSH1 0x48 SWAP2 CODECOPY PUSH1 0x60 ADD SWAP2 POP POP PUSH1 0x40 MLOAD DUP1 SWAP2 SUB SWAP1 REVERT JUMPDEST PUSH2 0x1B22 DUP5 PUSH2 0x160 ADD MLOAD DUP6 PUSH2 0x180 ADD MLOAD PUSH2 0x2BC1 JUMP JUMPDEST PUSH2 0x1B5D JUMPI PUSH1 0x40 MLOAD PUSH3 0x461BCD PUSH1 0xE5 SHL DUP2 MSTORE PUSH1 0x4 ADD DUP1 DUP1 PUSH1 0x20 ADD DUP3 DUP2 SUB DUP3 MSTORE PUSH1 0x22 DUP2 MSTORE PUSH1 0x20 ADD DUP1 PUSH2 0x38EB PUSH1 0x22 SWAP2 CODECOPY PUSH1 0x40 ADD SWAP2 POP POP PUSH1 0x40 MLOAD DUP1 SWAP2 SUB SWAP1 REVERT JUMPDEST PUSH2 0x1B81 DUP6 PUSH1 0x20 ADD MLOAD PUSH1 0x20 ADD MLOAD DUP6 PUSH2 0x140 ADD MLOAD DUP5 DUP8 PUSH2 0x160 ADD MLOAD DUP9 PUSH2 0x180 ADD MLOAD PUSH2 0x2C26 JUMP JUMPDEST PUSH2 0x1BBC JUMPI PUSH1 0x40 MLOAD PUSH3 0x461BCD PUSH1 0xE5 SHL DUP2 MSTORE PUSH1 0x4 ADD DUP1 DUP1 PUSH1 0x20 ADD DUP3 DUP2 SUB DUP3 MSTORE PUSH1 0x23 DUP2 MSTORE PUSH1 0x20 ADD DUP1 PUSH2 0x390D PUSH1 0x23 SWAP2 CODECOPY PUSH1 0x40 ADD SWAP2 POP POP PUSH1 0x40 MLOAD DUP1 SWAP2 SUB SWAP1 REVERT JUMPDEST PUSH1 0x80 DUP6 ADD MLOAD PUSH1 0x20 SWAP1 DUP2 ADD MLOAD DUP1 MLOAD SWAP2 ADD MLOAD PUSH2 0x1A0 DUP7 ADD MLOAD PUSH2 0x1BDD SWAP3 SWAP2 SWAP1 PUSH2 0x2BA4 JUMP JUMPDEST PUSH2 0x1C18 JUMPI PUSH1 0x40 MLOAD PUSH3 0x461BCD PUSH1 0xE5 SHL DUP2 MSTORE PUSH1 0x4 ADD DUP1 DUP1 PUSH1 0x20 ADD DUP3 DUP2 SUB DUP3 MSTORE PUSH1 0x48 DUP2 MSTORE PUSH1 0x20 ADD DUP1 PUSH2 0x3693 PUSH1 0x48 SWAP2 CODECOPY PUSH1 0x60 ADD SWAP2 POP POP PUSH1 0x40 MLOAD DUP1 SWAP2 SUB SWAP1 REVERT JUMPDEST PUSH2 0x1C87 PUSH1 0x40 MLOAD DUP1 PUSH1 0x40 ADD PUSH1 0x40 MSTORE DUP1 DUP7 PUSH2 0x100 ADD MLOAD DUP2 MSTORE PUSH1 0x20 ADD DUP7 PUSH2 0x120 ADD MLOAD DUP2 MSTORE POP PUSH2 0x197B PUSH1 0x40 MLOAD DUP1 PUSH1 0x40 ADD PUSH1 0x40 MSTORE DUP1 DUP10 PUSH1 0x80 ADD MLOAD PUSH1 0x20 ADD MLOAD PUSH1 0x20 ADD MLOAD DUP2 MSTORE PUSH1 0x20 ADD DUP9 PUSH2 0x1A0 ADD MLOAD DUP2 MSTORE POP PUSH1 0x40 MLOAD DUP1 PUSH1 0x40 ADD PUSH1 0x40 MSTORE DUP1 DUP10 PUSH2 0x160 ADD MLOAD DUP2 MSTORE PUSH1 0x20 ADD DUP10 PUSH2 0x180 ADD MLOAD DUP2 MSTORE POP PUSH2 0x2CEC JUMP JUMPDEST SWAP1 POP DUP1 PUSH2 0x1C9D JUMPI PUSH1 0x0 SWAP7 POP POP POP POP POP POP POP PUSH2 0x1F6A JUMP JUMPDEST PUSH2 0x1CB1 DUP5 PUSH2 0x1C0 ADD MLOAD DUP6 PUSH2 0x1E0 ADD MLOAD PUSH2 0x2BC1 JUMP JUMPDEST PUSH2 0x1CEC JUMPI PUSH1 0x40 MLOAD PUSH3 0x461BCD PUSH1 0xE5 SHL DUP2 MSTORE PUSH1 0x4 ADD DUP1 DUP1 PUSH1 0x20 ADD DUP3 DUP2 SUB DUP3 MSTORE PUSH1 0x21 DUP2 MSTORE PUSH1 0x20 ADD DUP1 PUSH2 0x38A9 PUSH1 0x21 SWAP2 CODECOPY PUSH1 0x40 ADD SWAP2 POP POP PUSH1 0x40 MLOAD DUP1 SWAP2 SUB SWAP1 REVERT JUMPDEST PUSH2 0x1D4B PUSH32 0x3C98795773FF1C241FC0B1CCED85E80F8366581DDA5C9452175EBD41385FA1F PUSH32 0x7880ED56962D7C0AE44D6F14BB53B5FE64B31EA44A41D0316F3A598778F0F936 DUP8 PUSH1 0x80 ADD MLOAD PUSH1 0x80 ADD MLOAD DUP8 PUSH2 0x1C0 ADD MLOAD DUP9 PUSH2 0x1E0 ADD MLOAD PUSH2 0x2C26 JUMP JUMPDEST PUSH2 0x1D86 JUMPI PUSH1 0x40 MLOAD PUSH3 0x461BCD PUSH1 0xE5 SHL DUP2 MSTORE PUSH1 0x4 ADD DUP1 DUP1 PUSH1 0x20 ADD DUP3 DUP2 SUB DUP3 MSTORE PUSH1 0x22 DUP2 MSTORE PUSH1 0x20 ADD DUP1 PUSH2 0x36DB PUSH1 0x22 SWAP2 CODECOPY PUSH1 0x40 ADD SWAP2 POP POP PUSH1 0x40 MLOAD DUP1 SWAP2 SUB SWAP1 REVERT JUMPDEST PUSH1 0x80 DUP6 ADD MLOAD PUSH1 0x40 ADD MLOAD DUP1 MLOAD PUSH1 0x20 SWAP1 SWAP2 ADD MLOAD PUSH2 0x200 DUP7 ADD MLOAD PUSH2 0x1DA8 SWAP3 SWAP2 SWAP1 PUSH2 0x2BA4 JUMP JUMPDEST PUSH2 0x1DE3 JUMPI PUSH1 0x40 MLOAD PUSH3 0x461BCD PUSH1 0xE5 SHL DUP2 MSTORE PUSH1 0x4 ADD DUP1 DUP1 PUSH1 0x20 ADD DUP3 DUP2 SUB DUP3 MSTORE PUSH1 0x48 DUP2 MSTORE PUSH1 0x20 ADD DUP1 PUSH2 0x3629 PUSH1 0x48 SWAP2 CODECOPY PUSH1 0x60 ADD SWAP2 POP POP PUSH1 0x40 MLOAD DUP1 SWAP2 SUB SWAP1 REVERT JUMPDEST PUSH2 0x1DF7 DUP5 PUSH2 0x220 ADD MLOAD DUP6 PUSH2 0x240 ADD MLOAD PUSH2 0x2BC1 JUMP JUMPDEST PUSH2 0x1E32 JUMPI PUSH1 0x40 MLOAD PUSH3 0x461BCD PUSH1 0xE5 SHL DUP2 MSTORE PUSH1 0x4 ADD DUP1 DUP1 PUSH1 0x20 ADD DUP3 DUP2 SUB DUP3 MSTORE PUSH1 0x22 DUP2 MSTORE PUSH1 0x20 ADD DUP1 PUSH2 0x3555 PUSH1 0x22 SWAP2 CODECOPY PUSH1 0x40 ADD SWAP2 POP POP PUSH1 0x40 MLOAD DUP1 SWAP2 SUB SWAP1 REVERT JUMPDEST PUSH2 0x1E5A DUP6 PUSH1 0x80 ADD MLOAD PUSH1 0x40 ADD MLOAD PUSH1 0x20 ADD MLOAD DUP6 PUSH2 0x200 ADD MLOAD DUP5 DUP8 PUSH2 0x220 ADD MLOAD DUP9 PUSH2 0x240 ADD MLOAD PUSH2 0x2C26 JUMP JUMPDEST PUSH2 0x1E95 JUMPI PUSH1 0x40 MLOAD PUSH3 0x461BCD PUSH1 0xE5 SHL DUP2 MSTORE PUSH1 0x4 ADD DUP1 DUP1 PUSH1 0x20 ADD DUP3 DUP2 SUB DUP3 MSTORE PUSH1 0x23 DUP2 MSTORE PUSH1 0x20 ADD DUP1 PUSH2 0x390D PUSH1 0x23 SWAP2 CODECOPY PUSH1 0x40 ADD SWAP2 POP POP PUSH1 0x40 MLOAD DUP1 SWAP2 SUB SWAP1 REVERT JUMPDEST PUSH1 0x80 DUP6 ADD MLOAD PUSH1 0x60 ADD MLOAD DUP1 MLOAD PUSH1 0x20 SWAP1 SWAP2 ADD MLOAD PUSH2 0x260 DUP7 ADD MLOAD PUSH2 0x1EB7 SWAP3 SWAP2 SWAP1 PUSH2 0x2BA4 JUMP JUMPDEST PUSH2 0x1EF2 JUMPI PUSH1 0x40 MLOAD PUSH3 0x461BCD PUSH1 0xE5 SHL DUP2 MSTORE PUSH1 0x4 ADD DUP1 DUP1 PUSH1 0x20 ADD DUP3 DUP2 SUB DUP3 MSTORE PUSH1 0x48 DUP2 MSTORE PUSH1 0x20 ADD DUP1 PUSH2 0x3599 PUSH1 0x48 SWAP2 CODECOPY PUSH1 0x60 ADD SWAP2 POP POP PUSH1 0x40 MLOAD DUP1 SWAP2 SUB SWAP1 REVERT JUMPDEST PUSH2 0x1F61 PUSH1 0x40 MLOAD DUP1 PUSH1 0x40 ADD PUSH1 0x40 MSTORE DUP1 DUP7 PUSH2 0x1C0 ADD MLOAD DUP2 MSTORE PUSH1 0x20 ADD DUP7 PUSH2 0x1E0 ADD MLOAD DUP2 MSTORE POP PUSH2 0x197B PUSH1 0x40 MLOAD DUP1 PUSH1 0x40 ADD PUSH1 0x40 MSTORE DUP1 DUP10 PUSH1 0x80 ADD MLOAD PUSH1 0x60 ADD MLOAD PUSH1 0x20 ADD MLOAD DUP2 MSTORE PUSH1 0x20 ADD DUP9 PUSH2 0x260 ADD MLOAD DUP2 MSTORE POP PUSH1 0x40 MLOAD DUP1 PUSH1 0x40 ADD PUSH1 0x40 MSTORE DUP1 DUP10 PUSH2 0x220 ADD MLOAD DUP2 MSTORE PUSH1 0x20 ADD DUP10 PUSH2 0x240 ADD MLOAD DUP2 MSTORE POP PUSH2 0x2CEC JUMP JUMPDEST SWAP7 POP POP POP POP POP POP POP JUMPDEST SWAP4 SWAP3 POP POP POP JUMP JUMPDEST PUSH1 0x0 DUP2 MLOAD PUSH1 0x40 EQ PUSH2 0x1FB3 JUMPI PUSH1 0x40 MLOAD PUSH3 0x461BCD PUSH1 0xE5 SHL DUP2 MSTORE PUSH1 0x4 ADD DUP1 DUP1 PUSH1 0x20 ADD DUP3 DUP2 SUB DUP3 MSTORE PUSH1 0x25 DUP2 MSTORE PUSH1 0x20 ADD DUP1 PUSH2 0x3884 PUSH1 0x25 SWAP2 CODECOPY PUSH1 0x40 ADD SWAP2 POP POP PUSH1 0x40 MLOAD DUP1 SWAP2 SUB SWAP1 REVERT JUMPDEST PUSH1 0x20 DUP3 ADD MLOAD PUSH1 0x40 DUP4 ADD MLOAD PUSH2 0x1FC7 DUP3 DUP3 PUSH2 0x2BC1 JUMP JUMPDEST SWAP3 POP POP POP JUMPDEST SWAP2 SWAP1 POP JUMP JUMPDEST PUSH2 0x1FD9 PUSH2 0x3393 JUMP JUMPDEST DUP2 MLOAD PUSH2 0x2B9 EQ PUSH2 0x1FE8 JUMPI PUSH1 0x0 DUP1 REVERT JUMPDEST PUSH1 0x0 PUSH2 0x1FF3 DUP4 PUSH2 0x2E7C JUMP JUMPDEST SWAP1 POP DUP1 PUSH2 0x1FFF DUP2 PUSH2 0x2E82 JUMP JUMPDEST DUP4 MSTORE PUSH1 0x20 ADD PUSH2 0x200D DUP2 PUSH2 0x2E82 JUMP JUMPDEST PUSH1 0x20 DUP1 DUP6 ADD SWAP2 SWAP1 SWAP2 MSTORE ADD PUSH2 0x2020 DUP2 PUSH2 0x2E82 JUMP JUMPDEST PUSH1 0x40 DUP5 ADD MSTORE PUSH1 0x20 ADD PUSH2 0x2031 DUP2 PUSH2 0x2E82 JUMP JUMPDEST PUSH1 0x60 DUP5 ADD MSTORE PUSH1 0x20 ADD PUSH2 0x2042 DUP2 PUSH2 0x2E82 JUMP JUMPDEST PUSH1 0x80 DUP5 ADD MSTORE PUSH1 0x20 ADD PUSH2 0x2053 DUP2 PUSH2 0x2E82 JUMP JUMPDEST PUSH1 0xA0 DUP5 ADD MSTORE PUSH1 0x20 ADD PUSH2 0x2064 DUP2 PUSH2 0x2E82 JUMP JUMPDEST PUSH1 0xC0 DUP5 ADD MSTORE PUSH1 0x20 ADD PUSH2 0x2075 DUP2 PUSH2 0x2E82 JUMP JUMPDEST PUSH1 0xE0 DUP5 ADD MSTORE PUSH1 0x20 ADD PUSH2 0x2086 DUP2 PUSH2 0x2E82 JUMP JUMPDEST PUSH2 0x100 DUP5 ADD MSTORE PUSH1 0x20 ADD PUSH2 0x2098 DUP2 PUSH2 0x2E82 JUMP JUMPDEST PUSH2 0x120 DUP5 ADD MSTORE PUSH1 0x20 ADD PUSH2 0x20AA DUP2 PUSH2 0x2E82 JUMP JUMPDEST PUSH2 0x140 DUP5 ADD MSTORE PUSH1 0x20 ADD PUSH2 0x20BC DUP2 PUSH2 0x2E82 JUMP JUMPDEST PUSH2 0x160 DUP5 ADD MSTORE PUSH1 0x20 ADD PUSH2 0x20CE DUP2 PUSH2 0x2E82 JUMP JUMPDEST PUSH2 0x180 DUP5 ADD MSTORE PUSH1 0x20 ADD PUSH2 0x20E0 DUP2 PUSH2 0x2E82 JUMP JUMPDEST PUSH2 0x1A0 DUP5 ADD MSTORE PUSH1 0x20 ADD PUSH2 0x20F2 DUP2 PUSH2 0x2E82 JUMP JUMPDEST PUSH2 0x1C0 DUP5 ADD MSTORE PUSH1 0x20 ADD PUSH2 0x2104 DUP2 PUSH2 0x2E82 JUMP JUMPDEST PUSH2 0x1E0 DUP5 ADD MSTORE PUSH1 0x20 ADD PUSH2 0x2116 DUP2 PUSH2 0x2E82 JUMP JUMPDEST PUSH2 0x200 DUP5 ADD MSTORE PUSH1 0x20 ADD PUSH2 0x2128 DUP2 PUSH2 0x2E82 JUMP JUMPDEST PUSH2 0x220 DUP5 ADD MSTORE PUSH1 0x20 ADD PUSH2 0x213A DUP2 PUSH2 0x2E82 JUMP JUMPDEST PUSH2 0x240 DUP5 ADD MSTORE PUSH1 0x20 ADD PUSH2 0x214C DUP2 PUSH2 0x2E82 JUMP JUMPDEST PUSH2 0x260 DUP5 ADD MSTORE PUSH1 0x20 ADD PUSH2 0x215E DUP2 PUSH2 0x2E82 JUMP JUMPDEST PUSH2 0x280 DUP5 ADD MSTORE PUSH1 0x20 ADD PUSH2 0x2170 DUP2 PUSH2 0x2E82 JUMP JUMPDEST PUSH1 0x60 SHR PUSH2 0x2A0 DUP5 ADD MSTORE PUSH1 0x14 ADD PUSH2 0x2185 DUP2 PUSH2 0x2E82 JUMP JUMPDEST PUSH1 0x1 PUSH1 0x1 PUSH1 0xD8 SHL SUB NOT AND PUSH2 0x2C0 DUP5 ADD MSTORE PUSH1 0x5 ADD PUSH2 0x2B9 DUP3 ADD DUP2 EQ PUSH2 0x21A8 JUMPI PUSH1 0x0 DUP1 REVERT JUMPDEST POP POP SWAP2 SWAP1 POP JUMP JUMPDEST PUSH1 0x0 DUP3 MLOAD PUSH1 0x40 EQ PUSH2 0x21BF JUMPI PUSH1 0x0 DUP1 REVERT JUMPDEST PUSH2 0x21D2 PUSH2 0x21CC DUP7 DUP5 PUSH2 0x13EC JUMP JUMPDEST DUP6 PUSH2 0x257F JUMP JUMPDEST PUSH1 0x1 PUSH1 0x1 PUSH1 0xA0 SHL SUB AND PUSH2 0x21E4 DUP5 PUSH2 0x2E86 JUMP JUMPDEST PUSH1 0x1 PUSH1 0x1 PUSH1 0xA0 SHL SUB AND EQ SWAP6 SWAP5 POP POP POP POP POP JUMP JUMPDEST PUSH2 0x21FF PUSH2 0x3457 JUMP JUMPDEST DUP2 MLOAD PUSH2 0x167 DUP2 LT ISZERO PUSH2 0x2210 JUMPI PUSH1 0x0 DUP1 REVERT JUMPDEST PUSH1 0x0 PUSH2 0x221B DUP5 PUSH2 0x2E7C JUMP JUMPDEST SWAP1 POP PUSH2 0x222B DUP2 DUP5 PUSH1 0x0 ADD MLOAD PUSH2 0x2E91 JUMP JUMPDEST SWAP1 POP PUSH2 0x223B DUP2 DUP5 PUSH1 0x20 ADD MLOAD PUSH2 0x2E91 JUMP JUMPDEST SWAP1 POP PUSH2 0x2246 DUP2 PUSH2 0x2E82 JUMP JUMPDEST PUSH1 0x40 DUP5 ADD MSTORE PUSH1 0x60 DUP4 ADD MLOAD PUSH1 0x20 SWAP2 SWAP1 SWAP2 ADD SWAP1 PUSH2 0x2262 SWAP1 DUP3 SWAP1 PUSH2 0x2E91 JUMP JUMPDEST SWAP1 POP PUSH2 0x2272 DUP2 PUSH1 0x82 NOT DUP5 ADD PUSH2 0x2EAC JUMP JUMPDEST PUSH1 0x80 DUP5 ADD MSTORE POP SWAP1 SWAP3 SWAP2 POP POP JUMP JUMPDEST PUSH1 0x0 PUSH1 0x1 PUSH1 0x1 PUSH1 0xF8 SHL SUB NOT DUP3 AND PUSH2 0x2332 JUMPI PUSH1 0x40 MLOAD PUSH1 0x19 PUSH1 0xF8 SHL PUSH1 0x20 DUP1 DUP4 ADD DUP3 DUP2 MSTORE PUSH1 0x0 PUSH1 0x21 DUP6 ADD DUP2 SWAP1 MSTORE ADDRESS PUSH1 0x60 DUP2 SWAP1 SHL PUSH1 0x22 DUP8 ADD MSTORE DUP9 MLOAD SWAP1 SWAP6 SWAP2 SWAP4 DUP7 SWAP4 DUP11 SWAP4 SWAP1 SWAP3 PUSH1 0x36 SWAP1 SWAP2 ADD SWAP2 DUP5 ADD SWAP1 DUP1 DUP4 DUP4 JUMPDEST PUSH1 0x20 DUP4 LT PUSH2 0x22EC JUMPI DUP1 MLOAD DUP3 MSTORE PUSH1 0x1F NOT SWAP1 SWAP3 ADD SWAP2 PUSH1 0x20 SWAP2 DUP3 ADD SWAP2 ADD PUSH2 0x22CD JUMP JUMPDEST PUSH1 0x1 DUP4 PUSH1 0x20 SUB PUSH2 0x100 EXP SUB DUP1 NOT DUP3 MLOAD AND DUP2 DUP5 MLOAD AND DUP1 DUP3 OR DUP6 MSTORE POP POP POP POP POP POP SWAP1 POP ADD SWAP5 POP POP POP POP POP PUSH1 0x40 MLOAD PUSH1 0x20 DUP2 DUP4 SUB SUB DUP2 MSTORE SWAP1 PUSH1 0x40 MSTORE DUP1 MLOAD SWAP1 PUSH1 0x20 ADD KECCAK256 SWAP2 POP POP PUSH2 0x153E JUMP JUMPDEST PUSH1 0x1 PUSH1 0x1 PUSH1 0xF8 SHL SUB NOT DUP3 AND PUSH1 0x45 PUSH1 0xF8 SHL EQ ISZERO PUSH2 0x2532 JUMPI DUP3 MLOAD DUP1 PUSH2 0x2386 JUMPI PUSH1 0x40 MLOAD PUSH3 0x461BCD PUSH1 0xE5 SHL DUP2 MSTORE PUSH1 0x4 ADD DUP1 DUP1 PUSH1 0x20 ADD DUP3 DUP2 SUB DUP3 MSTORE PUSH1 0x27 DUP2 MSTORE PUSH1 0x20 ADD DUP1 PUSH2 0x37F3 PUSH1 0x27 SWAP2 CODECOPY PUSH1 0x40 ADD SWAP2 POP POP PUSH1 0x40 MLOAD DUP1 SWAP2 SUB SWAP1 REVERT JUMPDEST PUSH1 0x0 JUMPDEST DUP2 ISZERO PUSH2 0x239D JUMPI PUSH1 0x1 ADD PUSH1 0xA DUP3 DIV SWAP2 POP PUSH2 0x2389 JUMP JUMPDEST PUSH1 0x60 DUP2 PUSH8 0xFFFFFFFFFFFFFFFF DUP2 GT DUP1 ISZERO PUSH2 0x23B6 JUMPI PUSH1 0x0 DUP1 REVERT JUMPDEST POP PUSH1 0x40 MLOAD SWAP1 DUP1 DUP3 MSTORE DUP1 PUSH1 0x1F ADD PUSH1 0x1F NOT AND PUSH1 0x20 ADD DUP3 ADD PUSH1 0x40 MSTORE DUP1 ISZERO PUSH2 0x23E1 JUMPI PUSH1 0x20 DUP3 ADD DUP2 DUP1 CALLDATASIZE DUP4 CALLDATACOPY ADD SWAP1 POP JUMPDEST POP DUP7 MLOAD SWAP4 POP SWAP1 POP PUSH1 0x0 NOT DUP3 ADD JUMPDEST DUP4 ISZERO PUSH2 0x2433 JUMPI PUSH1 0xA DUP5 MOD PUSH1 0x30 ADD PUSH1 0xF8 SHL DUP3 DUP3 DUP1 PUSH1 0x1 SWAP1 SUB SWAP4 POP DUP2 MLOAD DUP2 LT PUSH2 0x2411 JUMPI INVALID JUMPDEST PUSH1 0x20 ADD ADD SWAP1 PUSH1 0x1 PUSH1 0x1 PUSH1 0xF8 SHL SUB NOT AND SWAP1 DUP2 PUSH1 0x0 BYTE SWAP1 MSTORE8 POP PUSH1 0xA DUP5 DIV SWAP4 POP PUSH2 0x23EE JUMP JUMPDEST PUSH1 0x40 MLOAD PUSH1 0x19 PUSH1 0xF8 SHL PUSH1 0x20 DUP1 DUP4 ADD DUP3 DUP2 MSTORE PUSH32 0x457468657265756D205369676E6564204D6573736167653A0A00000000000000 PUSH1 0x21 DUP6 ADD DUP2 SWAP1 MSTORE DUP7 MLOAD SWAP4 SWAP5 SWAP1 SWAP4 DUP8 SWAP4 DUP14 SWAP4 SWAP3 PUSH1 0x3A ADD SWAP2 SWAP1 DUP6 ADD SWAP1 DUP1 DUP4 DUP4 JUMPDEST PUSH1 0x20 DUP4 LT PUSH2 0x24A1 JUMPI DUP1 MLOAD DUP3 MSTORE PUSH1 0x1F NOT SWAP1 SWAP3 ADD SWAP2 PUSH1 0x20 SWAP2 DUP3 ADD SWAP2 ADD PUSH2 0x2482 JUMP JUMPDEST MLOAD DUP2 MLOAD PUSH1 0x20 SWAP4 DUP5 SUB PUSH2 0x100 EXP PUSH1 0x0 NOT ADD DUP1 NOT SWAP1 SWAP3 AND SWAP2 AND OR SWAP1 MSTORE DUP6 MLOAD SWAP2 SWAP1 SWAP4 ADD SWAP3 DUP6 ADD SWAP2 POP DUP1 DUP4 DUP4 JUMPDEST PUSH1 0x20 DUP4 LT PUSH2 0x24E9 JUMPI DUP1 MLOAD DUP3 MSTORE PUSH1 0x1F NOT SWAP1 SWAP3 ADD SWAP2 PUSH1 0x20 SWAP2 DUP3 ADD SWAP2 ADD PUSH2 0x24CA JUMP JUMPDEST PUSH1 0x1 DUP4 PUSH1 0x20 SUB PUSH2 0x100 EXP SUB DUP1 NOT DUP3 MLOAD AND DUP2 DUP5 MLOAD AND DUP1 DUP3 OR DUP6 MSTORE POP POP POP POP POP POP SWAP1 POP ADD SWAP5 POP POP POP POP POP PUSH1 0x40 MLOAD PUSH1 0x20 DUP2 DUP4 SUB SUB DUP2 MSTORE SWAP1 PUSH1 0x40 MSTORE DUP1 MLOAD SWAP1 PUSH1 0x20 ADD KECCAK256 SWAP5 POP POP POP POP POP PUSH2 0x153E JUMP JUMPDEST PUSH1 0x40 DUP1 MLOAD PUSH3 0x461BCD PUSH1 0xE5 SHL DUP2 MSTORE PUSH1 0x20 PUSH1 0x4 DUP3 ADD MSTORE PUSH1 0x1A PUSH1 0x24 DUP3 ADD MSTORE PUSH32 0x556E737570706F72746564204549503139312076657273696F6E000000000000 PUSH1 0x44 DUP3 ADD MSTORE SWAP1 MLOAD SWAP1 DUP2 SWAP1 SUB PUSH1 0x64 ADD SWAP1 REVERT JUMPDEST PUSH1 0x0 DUP2 MLOAD PUSH1 0x41 EQ PUSH2 0x258F JUMPI PUSH1 0x0 DUP1 REVERT JUMPDEST PUSH1 0x20 DUP3 ADD MLOAD PUSH1 0x40 DUP4 ADD MLOAD PUSH1 0x60 DUP5 ADD MLOAD PUSH1 0x0 BYTE PUSH1 0x1B DUP2 LT ISZERO PUSH2 0x25AE JUMPI PUSH1 0x1B ADD JUMPDEST DUP1 PUSH1 0xFF AND PUSH1 0x1B EQ DUP1 PUSH2 0x25C3 JUMPI POP DUP1 PUSH1 0xFF AND PUSH1 0x1C EQ JUMPDEST PUSH2 0x25CC JUMPI PUSH1 0x0 DUP1 REVERT JUMPDEST PUSH1 0x40 DUP1 MLOAD PUSH1 0x0 DUP2 MSTORE PUSH1 0x20 DUP1 DUP3 ADD DUP1 DUP5 MSTORE DUP10 SWAP1 MSTORE PUSH1 0xFF DUP5 AND DUP3 DUP5 ADD MSTORE PUSH1 0x60 DUP3 ADD DUP7 SWAP1 MSTORE PUSH1 0x80 DUP3 ADD DUP6 SWAP1 MSTORE SWAP2 MLOAD PUSH1 0x1 SWAP3 PUSH1 0xA0 DUP1 DUP5 ADD SWAP4 SWAP2 SWAP3 PUSH1 0x1F NOT DUP2 ADD SWAP3 DUP2 SWAP1 SUB SWAP1 SWAP2 ADD SWAP1 DUP6 GAS STATICCALL ISZERO DUP1 ISZERO PUSH2 0x2623 JUMPI RETURNDATASIZE PUSH1 0x0 DUP1 RETURNDATACOPY RETURNDATASIZE PUSH1 0x0 REVERT JUMPDEST POP POP PUSH1 0x40 MLOAD PUSH1 0x1F NOT ADD MLOAD SWAP8 SWAP7 POP POP POP POP POP POP POP JUMP JUMPDEST PUSH1 0x1 PUSH1 0x1 PUSH1 0xA0 SHL SUB DUP3 AND PUSH1 0x0 SWAP1 DUP2 MSTORE PUSH1 0x4 PUSH1 0x20 MSTORE PUSH1 0x40 DUP2 KECCAK256 SLOAD DUP2 SWAP1 PUSH2 0x26B5 SWAP1 PUSH2 0x2688 SWAP1 PUSH32 0x0 SWAP1 PUSH4 0xFFFFFFFF PUSH2 0x2FB2 AND JUMP JUMPDEST PUSH32 0x0 SWAP1 PUSH4 0xFFFFFFFF PUSH2 0x2FD9 AND JUMP JUMPDEST SWAP2 POP PUSH2 0x26F0 DUP3 PUSH2 0x26EB DUP6 PUSH32 0x0 PUSH4 0xFFFFFFFF PUSH2 0x2FEB AND JUMP JUMPDEST PUSH2 0x300D JUMP JUMPDEST SWAP2 POP PUSH2 0x2722 DUP3 PUSH32 0x0 PUSH4 0xFFFFFFFF PUSH2 0x2FEB AND JUMP JUMPDEST PUSH1 0x1 PUSH1 0x1 PUSH1 0xA0 SHL SUB DUP6 AND PUSH1 0x0 SWAP1 DUP2 MSTORE PUSH1 0x4 PUSH1 0x20 MSTORE PUSH1 0x40 SWAP1 KECCAK256 SLOAD SWAP1 SWAP2 POP PUSH2 0x274F SWAP1 PUSH1 0x1 PUSH4 0xFFFFFFFF PUSH2 0x2FD9 AND JUMP JUMPDEST PUSH1 0x1 PUSH1 0x1 PUSH1 0xA0 SHL SUB SWAP1 SWAP5 AND PUSH1 0x0 SWAP1 DUP2 MSTORE PUSH1 0x4 PUSH1 0x20 MSTORE PUSH1 0x40 SWAP1 KECCAK256 SWAP4 SWAP1 SWAP4 SSTORE SWAP3 SWAP1 POP JUMP JUMPDEST PUSH1 0x2 DUP1 SLOAD PUSH1 0x1 PUSH1 0xA0 SHL SWAP1 DIV PUSH1 0xFF AND EQ PUSH2 0x2789 JUMPI PUSH1 0x0 DUP1 REVERT JUMPDEST PUSH1 0x40 DUP1 MLOAD CALLER DUP2 MSTORE SWAP1 MLOAD PUSH1 0x1 PUSH1 0x1 PUSH1 0xA0 SHL SUB DUP4 AND SWAP2 PUSH32 0x1E8D98C1B4A0D9BD2E2371026B632EB2773FCCE41742E41F02F574AB69868D4C SWAP2 SWAP1 DUP2 SWAP1 SUB PUSH1 0x20 ADD SWAP1 LOG2 POP JUMP JUMPDEST PUSH1 0x0 DUP1 PUSH2 0x27DC DUP6 DUP6 PUSH1 0x1 DUP7 DUP6 PUSH2 0x3023 JUMP JUMPDEST MLOAD SWAP6 SWAP5 POP POP POP POP POP JUMP JUMPDEST PUSH1 0x2 DUP1 SLOAD PUSH1 0x1 PUSH1 0xA0 SHL SWAP1 DIV PUSH1 0xFF AND EQ PUSH2 0x27FE JUMPI PUSH1 0x0 DUP1 REVERT JUMPDEST PUSH1 0x40 DUP1 MLOAD CALLER DUP2 MSTORE SWAP1 MLOAD PUSH1 0x1 PUSH1 0x1 PUSH1 0xA0 SHL SUB DUP4 AND SWAP2 PUSH32 0xD55EC27C5C6316913ED8803C18CFD1BFEFEA953DB909DCBA6140744A9D8B0D1F SWAP2 SWAP1 DUP2 SWAP1 SUB PUSH1 0x20 ADD SWAP1 LOG2 POP JUMP JUMPDEST PUSH1 0x1 PUSH1 0x1 PUSH1 0xA0 SHL SUB DUP2 AND PUSH2 0x2853 JUMPI PUSH1 0x0 DUP1 REVERT JUMPDEST PUSH1 0x0 DUP1 SLOAD PUSH1 0x40 MLOAD PUSH1 0x1 PUSH1 0x1 PUSH1 0xA0 SHL SUB DUP1 DUP6 AND SWAP4 SWAP3 AND SWAP2 PUSH32 0x8BE0079C531659141344CD1FD0A4F28419497F9722A3DAAFE3B4186F6B6457E0 SWAP2 LOG3 PUSH1 0x0 DUP1 SLOAD PUSH1 0x1 PUSH1 0x1 PUSH1 0xA0 SHL SUB NOT AND PUSH1 0x1 PUSH1 0x1 PUSH1 0xA0 SHL SUB SWAP3 SWAP1 SWAP3 AND SWAP2 SWAP1 SWAP2 OR SWAP1 SSTORE JUMP JUMPDEST PUSH2 0x28B6 PUSH2 0x349D JUMP JUMPDEST DUP2 MLOAD PUSH1 0x62 EQ PUSH2 0x28C4 JUMPI PUSH1 0x0 DUP1 REVERT JUMPDEST PUSH1 0x0 PUSH2 0x28CF DUP4 PUSH2 0x2E7C JUMP JUMPDEST SWAP1 POP PUSH2 0x28DF DUP2 DUP4 PUSH1 0x0 ADD MLOAD PUSH2 0x2E91 JUMP JUMPDEST SWAP1 POP PUSH2 0x28EF DUP2 DUP4 PUSH1 0x20 ADD MLOAD PUSH2 0x2E91 JUMP JUMPDEST SWAP1 POP PUSH2 0x28FA DUP2 PUSH2 0x2E82 JUMP JUMPDEST PUSH1 0x40 DUP4 ADD MSTORE POP SWAP2 SWAP1 POP JUMP JUMPDEST DUP2 MLOAD DUP1 MLOAD PUSH1 0x20 SWAP2 DUP3 ADD MLOAD DUP4 MLOAD DUP1 MLOAD SWAP1 DUP5 ADD MLOAD PUSH1 0x80 DUP7 ADD DUP1 MLOAD MLOAD DUP1 MLOAD SWAP1 DUP8 ADD MLOAD PUSH1 0x40 DUP1 MLOAD PUSH1 0x1 PUSH1 0x1 PUSH1 0xF8 SHL SUB NOT PUSH1 0xF8 SWAP10 DUP11 SHL DUP2 AND DUP3 DUP13 ADD MSTORE PUSH1 0x21 DUP3 ADD SWAP9 SWAP1 SWAP9 MSTORE SWAP6 DUP9 SHL DUP8 AND PUSH1 0x41 DUP8 ADD MSTORE PUSH1 0x42 DUP7 ADD SWAP5 SWAP1 SWAP5 MSTORE SWAP6 SHL SWAP1 SWAP4 AND PUSH1 0x62 DUP4 ADD MSTORE PUSH1 0x63 DUP1 DUP4 ADD SWAP5 SWAP1 SWAP5 MSTORE DUP1 MLOAD DUP1 DUP4 SUB SWAP1 SWAP5 ADD DUP5 MSTORE PUSH1 0x83 DUP3 ADD SWAP1 MSTORE DUP4 DUP7 ADD MLOAD DUP1 MLOAD SWAP1 DUP6 ADD MLOAD DUP7 DUP7 ADD MLOAD DUP1 MLOAD SWAP1 DUP8 ADD MLOAD SWAP5 MLOAD DUP8 ADD MLOAD DUP1 MLOAD SWAP1 DUP9 ADD MLOAD DUP8 MLOAD PUSH1 0x0 SWAP10 DUP10 SWAP9 SWAP7 SWAP8 SWAP6 SWAP7 SWAP5 SWAP6 PUSH1 0xA3 ADD SWAP2 DUP3 SWAP2 DUP11 ADD SWAP1 DUP1 DUP4 DUP4 JUMPDEST PUSH1 0x20 DUP4 LT PUSH2 0x29D1 JUMPI DUP1 MLOAD DUP3 MSTORE PUSH1 0x1F NOT SWAP1 SWAP3 ADD SWAP2 PUSH1 0x20 SWAP2 DUP3 ADD SWAP2 ADD PUSH2 0x29B2 JUMP JUMPDEST MLOAD DUP2 MLOAD PUSH1 0x20 SWAP4 DUP5 SUB PUSH2 0x100 EXP PUSH1 0x0 NOT ADD DUP1 NOT SWAP1 SWAP3 AND SWAP2 AND OR SWAP1 MSTORE PUSH1 0xF8 SWAP11 DUP12 SHL PUSH1 0x1 PUSH1 0x1 PUSH1 0xF8 SHL SUB NOT SWAP1 DUP2 AND SWAP3 SWAP1 SWAP5 ADD SWAP2 DUP3 MSTORE PUSH1 0x1 DUP3 ADD SWAP10 SWAP1 SWAP10 MSTORE SWAP7 DUP10 SHL DUP3 AND PUSH1 0x21 DUP9 ADD MSTORE POP PUSH1 0x22 DUP7 ADD SWAP5 SWAP1 SWAP5 MSTORE POP SWAP5 SHL AND PUSH1 0x42 DUP3 ADD MSTORE PUSH1 0x43 DUP1 DUP3 ADD SWAP4 SWAP1 SWAP4 MSTORE PUSH1 0x40 DUP1 MLOAD DUP1 DUP4 SUB SWAP1 SWAP5 ADD DUP5 MSTORE PUSH1 0x63 DUP3 ADD DUP2 MSTORE PUSH1 0x80 DUP9 ADD MLOAD SWAP1 DUP2 ADD MLOAD DUP1 MLOAD SWAP1 DUP5 ADD MLOAD PUSH1 0x60 DUP4 ADD MLOAD DUP1 MLOAD SWAP1 DUP7 ADD MLOAD PUSH1 0xC0 SWAP1 SWAP5 ADD MLOAD DUP8 MLOAD SWAP8 SWAP10 POP DUP10 SWAP9 POP PUSH1 0x1 PUSH1 0xF9 SHL SWAP8 PUSH32 0x3C98795773FF1C241FC0B1CCED85E80F8366581DDA5C9452175EBD41385FA1F SWAP8 SWAP5 SWAP7 SWAP4 SWAP6 SWAP3 SWAP5 SWAP3 SWAP4 SWAP2 SWAP3 PUSH1 0x83 SWAP1 SWAP3 ADD SWAP2 DUP3 SWAP2 SWAP1 DUP12 ADD SWAP1 DUP1 DUP4 DUP4 JUMPDEST PUSH1 0x20 DUP4 LT PUSH2 0x2ACB JUMPI DUP1 MLOAD DUP3 MSTORE PUSH1 0x1F NOT SWAP1 SWAP3 ADD SWAP2 PUSH1 0x20 SWAP2 DUP3 ADD SWAP2 ADD PUSH2 0x2AAC JUMP JUMPDEST MLOAD DUP2 MLOAD PUSH1 0x20 SWAP4 DUP5 SUB PUSH2 0x100 EXP PUSH1 0x0 NOT ADD DUP1 NOT SWAP1 SWAP3 AND SWAP2 AND OR SWAP1 MSTORE PUSH1 0x1 PUSH1 0x1 PUSH1 0xF8 SHL SUB NOT DUP13 DUP2 AND SWAP3 SWAP1 SWAP5 ADD SWAP2 DUP3 MSTORE PUSH1 0x1 DUP3 ADD DUP12 SWAP1 MSTORE PUSH1 0xF8 DUP11 DUP2 SHL DUP6 AND PUSH1 0x21 DUP5 ADD MSTORE PUSH1 0x22 DUP4 ADD DUP11 SWAP1 MSTORE DUP9 SWAP1 SHL SWAP1 SWAP4 AND PUSH1 0x42 DUP3 ADD MSTORE PUSH1 0x43 DUP2 ADD DUP7 SWAP1 MSTORE DUP5 MLOAD PUSH1 0x63 SWAP1 SWAP2 ADD SWAP3 DUP6 ADD SWAP2 POP DUP1 DUP4 DUP4 JUMPDEST PUSH1 0x20 DUP4 LT PUSH2 0x2B53 JUMPI DUP1 MLOAD DUP3 MSTORE PUSH1 0x1F NOT SWAP1 SWAP3 ADD SWAP2 PUSH1 0x20 SWAP2 DUP3 ADD SWAP2 ADD PUSH2 0x2B34 JUMP JUMPDEST PUSH1 0x1 DUP4 PUSH1 0x20 SUB PUSH2 0x100 EXP SUB DUP1 NOT DUP3 MLOAD AND DUP2 DUP5 MLOAD AND DUP1 DUP3 OR DUP6 MSTORE POP POP POP POP POP POP SWAP1 POP ADD SWAP9 POP POP POP POP POP POP POP POP POP PUSH1 0x40 MLOAD PUSH1 0x20 DUP2 DUP4 SUB SUB DUP2 MSTORE SWAP1 PUSH1 0x40 MSTORE SWAP1 POP PUSH1 0x0 PUSH2 0x2B9B DUP3 PUSH2 0x3073 JUMP JUMPDEST SWAP6 SWAP5 POP POP POP POP POP JUMP JUMPDEST PUSH1 0x0 PUSH1 0x1 DUP3 AND PUSH1 0x1 NOT DUP6 ADD PUSH1 0xFF AND EQ DUP1 DUP1 ISZERO PUSH2 0x2B9B JUMPI POP PUSH2 0x2B9B DUP5 DUP5 JUMPDEST PUSH1 0x0 PUSH5 0x1000003D0 NOT DUP1 DUP5 LT ISZERO DUP1 PUSH2 0x2BD9 JUMPI POP DUP1 DUP4 LT ISZERO JUMPDEST ISZERO PUSH2 0x2BE8 JUMPI PUSH1 0x0 SWAP2 POP POP PUSH2 0x153E JUMP JUMPDEST PUSH1 0x0 DUP2 DUP1 PUSH2 0x2BF2 JUMPI INVALID JUMPDEST DUP5 DUP6 MULMOD SWAP1 POP PUSH1 0x0 DUP3 DUP1 PUSH2 0x2C01 JUMPI INVALID JUMPDEST PUSH1 0x7 DUP5 DUP1 PUSH2 0x2C0B JUMPI INVALID JUMPDEST DUP9 DUP7 DUP1 PUSH2 0x2C14 JUMPI INVALID JUMPDEST DUP11 DUP12 MULMOD MULMOD ADDMOD SWAP2 SWAP1 SWAP2 EQ SWAP6 SWAP5 POP POP POP POP POP JUMP JUMPDEST PUSH1 0x0 PUSH17 0x14551231950B75FC4402DA1732FC9BEBE NOT DUP2 PUSH1 0x1 DUP2 PUSH1 0x1B DUP10 DUP4 AND ADD DUP11 DUP6 DUP13 DUP12 MULMOD PUSH1 0x40 DUP1 MLOAD PUSH1 0x0 DUP2 MSTORE PUSH1 0x20 DUP1 DUP3 ADD DUP1 DUP5 MSTORE SWAP7 SWAP1 SWAP7 MSTORE PUSH1 0xFF SWAP1 SWAP5 AND DUP5 DUP3 ADD MSTORE PUSH1 0x60 DUP5 ADD SWAP3 SWAP1 SWAP3 MSTORE PUSH1 0x80 DUP4 ADD MSTORE MLOAD PUSH1 0xA0 DUP1 DUP4 ADD SWAP4 SWAP3 PUSH1 0x1F NOT DUP4 ADD SWAP3 SWAP1 DUP2 SWAP1 SUB SWAP1 SWAP2 ADD SWAP1 DUP6 GAS STATICCALL ISZERO DUP1 ISZERO PUSH2 0x2C9E JUMPI RETURNDATASIZE PUSH1 0x0 DUP1 RETURNDATACOPY RETURNDATASIZE PUSH1 0x0 REVERT JUMPDEST POP POP PUSH1 0x40 DUP1 MLOAD PUSH1 0x1F NOT DUP2 ADD MLOAD PUSH1 0x20 DUP3 DUP2 ADD DUP11 SWAP1 MSTORE DUP3 DUP5 ADD DUP10 SWAP1 MSTORE DUP4 MLOAD DUP1 DUP5 SUB DUP6 ADD DUP2 MSTORE PUSH1 0x60 SWAP1 SWAP4 ADD SWAP1 SWAP4 MSTORE DUP2 MLOAD SWAP2 SWAP1 SWAP3 ADD KECCAK256 PUSH1 0x1 PUSH1 0x1 PUSH1 0xA0 SHL SUB SWAP2 DUP3 AND SWAP2 AND EQ SWAP4 POP POP POP POP SWAP6 SWAP5 POP POP POP POP POP JUMP JUMPDEST PUSH2 0x2CF4 PUSH2 0x34CA JUMP JUMPDEST DUP3 MLOAD PUSH1 0x20 DUP1 DUP6 ADD MLOAD DUP5 MLOAD SWAP2 DUP6 ADD MLOAD PUSH5 0x1000003D0 NOT SWAP4 SWAP3 SWAP1 DUP2 DUP5 EQ DUP1 ISZERO PUSH2 0x2D1A JUMPI POP DUP1 DUP4 EQ JUMPDEST ISZERO PUSH2 0x2D4F JUMPI PUSH2 0x2D43 PUSH1 0x40 MLOAD DUP1 PUSH1 0x60 ADD PUSH1 0x40 MSTORE DUP1 DUP7 DUP2 MSTORE PUSH1 0x20 ADD DUP6 DUP2 MSTORE PUSH1 0x20 ADD PUSH1 0x1 DUP2 MSTORE POP PUSH2 0x3257 JUMP JUMPDEST SWAP6 POP POP POP POP POP POP PUSH2 0x153E JUMP JUMPDEST PUSH1 0x0 DUP6 DUP1 PUSH2 0x2D59 JUMPI INVALID JUMPDEST DUP5 DUP8 SUB DUP4 ADDMOD SWAP1 POP PUSH1 0x0 DUP7 DUP1 PUSH2 0x2D6A JUMPI INVALID JUMPDEST DUP7 DUP9 SUB DUP6 ADDMOD SWAP1 POP PUSH1 0x0 DUP8 DUP1 PUSH2 0x2D7B JUMPI INVALID JUMPDEST DUP3 DUP4 MULMOD SWAP1 POP PUSH1 0x0 DUP9 DUP1 PUSH2 0x2D8A JUMPI INVALID JUMPDEST DUP4 DUP4 MULMOD SWAP1 POP PUSH1 0x0 DUP10 DUP1 PUSH2 0x2D99 JUMPI INVALID JUMPDEST DUP4 DUP11 MULMOD SWAP1 POP DUP10 DUP1 PUSH2 0x2DA6 JUMPI INVALID JUMPDEST DUP11 DUP1 PUSH2 0x2DAE JUMPI INVALID JUMPDEST DUP4 DUP13 DUP1 PUSH2 0x2DB7 JUMPI INVALID JUMPDEST DUP5 PUSH1 0x2 MULMOD ADDMOD DUP12 SUB DUP12 DUP1 PUSH2 0x2DC6 JUMPI INVALID JUMPDEST DUP8 DUP9 MULMOD ADDMOD DUP12 MSTORE DUP10 DUP1 PUSH2 0x2DD4 JUMPI INVALID JUMPDEST DUP11 DUP1 PUSH2 0x2DDC JUMPI INVALID JUMPDEST DUP4 DUP11 MULMOD DUP12 SUB DUP12 DUP1 PUSH2 0x2DE9 JUMPI INVALID JUMPDEST DUP13 DUP1 PUSH2 0x2DF1 JUMPI INVALID JUMPDEST DUP15 MLOAD DUP15 SUB DUP6 ADDMOD DUP9 MULMOD ADDMOD PUSH1 0x20 DUP13 ADD MSTORE POP POP POP PUSH1 0x40 DUP9 ADD MSTORE POP SWAP5 SWAP8 SWAP7 POP POP POP POP POP POP POP JUMP JUMPDEST PUSH1 0x40 DUP2 ADD MLOAD PUSH1 0x0 SWAP1 DUP1 PUSH2 0x2E2B JUMPI PUSH1 0x0 SWAP2 POP POP PUSH2 0x153E JUMP JUMPDEST PUSH5 0x1000003D0 NOT PUSH1 0x0 DUP2 DUP4 DUP5 MULMOD DUP6 MLOAD SWAP1 SWAP2 POP DUP3 DUP1 PUSH2 0x2E45 JUMPI INVALID JUMPDEST DUP8 MLOAD DUP4 SWAP1 MULMOD EQ DUP1 ISZERO PUSH2 0x2E72 JUMPI POP PUSH1 0x20 DUP6 ADD MLOAD DUP3 DUP1 PUSH2 0x2E5F JUMPI INVALID JUMPDEST DUP4 DUP1 PUSH2 0x2E67 JUMPI INVALID JUMPDEST DUP6 DUP5 MULMOD PUSH1 0x20 DUP10 ADD MLOAD MULMOD EQ JUMPDEST SWAP7 SWAP6 POP POP POP POP POP POP JUMP JUMPDEST PUSH1 0x20 ADD SWAP1 JUMP JUMPDEST MLOAD SWAP1 JUMP JUMPDEST DUP1 MLOAD PUSH1 0x20 SWAP1 SWAP2 ADD KECCAK256 SWAP1 JUMP JUMPDEST DUP2 MLOAD PUSH1 0x1 DUP4 ADD MLOAD PUSH1 0x0 SWAP2 SWAP1 SWAP2 BYTE DUP3 MSTORE PUSH1 0x20 SWAP1 SWAP2 ADD MSTORE PUSH1 0x21 ADD SWAP1 JUMP JUMPDEST PUSH2 0x2EB4 PUSH2 0x34E8 JUMP JUMPDEST PUSH1 0xE4 DUP3 LT ISZERO PUSH2 0x2EC2 JUMPI PUSH1 0x0 DUP1 REVERT JUMPDEST PUSH2 0x2ED0 DUP4 DUP3 PUSH1 0x0 ADD MLOAD PUSH2 0x2E91 JUMP JUMPDEST SWAP3 POP PUSH2 0x2EE0 DUP4 DUP3 PUSH1 0x20 ADD MLOAD PUSH2 0x2E91 JUMP JUMPDEST SWAP3 POP PUSH2 0x2EF0 DUP4 DUP3 PUSH1 0x40 ADD MLOAD PUSH2 0x2E91 JUMP JUMPDEST SWAP3 POP PUSH2 0x2F00 DUP4 DUP3 PUSH1 0x60 ADD MLOAD PUSH2 0x2E91 JUMP JUMPDEST SWAP3 POP PUSH2 0x2F0B DUP4 PUSH2 0x2E82 JUMP JUMPDEST PUSH1 0x80 DUP3 ADD MSTORE PUSH1 0x40 DUP1 MLOAD DUP2 DUP2 MSTORE PUSH1 0x60 DUP2 ADD DUP3 MSTORE PUSH1 0x20 SWAP5 SWAP1 SWAP5 ADD SWAP4 SWAP1 PUSH1 0x20 DUP3 ADD DUP2 DUP1 CALLDATASIZE DUP4 CALLDATACOPY POP POP POP PUSH1 0xA0 DUP3 ADD DUP2 SWAP1 MSTORE PUSH2 0x2F45 SWAP1 DUP5 SWAP1 PUSH1 0x40 PUSH2 0x334C JUMP JUMPDEST SWAP3 POP PUSH1 0xE4 DUP3 GT ISZERO PUSH2 0x153E JUMPI PUSH1 0xE3 NOT DUP3 ADD PUSH8 0xFFFFFFFFFFFFFFFF DUP2 GT DUP1 ISZERO PUSH2 0x2F6B JUMPI PUSH1 0x0 DUP1 REVERT JUMPDEST POP PUSH1 0x40 MLOAD SWAP1 DUP1 DUP3 MSTORE DUP1 PUSH1 0x1F ADD PUSH1 0x1F NOT AND PUSH1 0x20 ADD DUP3 ADD PUSH1 0x40 MSTORE DUP1 ISZERO PUSH2 0x2F96 JUMPI PUSH1 0x20 DUP3 ADD DUP2 DUP1 CALLDATASIZE DUP4 CALLDATACOPY ADD SWAP1 POP JUMPDEST POP PUSH1 0xC0 DUP3 ADD DUP2 SWAP1 MSTORE DUP1 MLOAD PUSH2 0x2FAB SWAP2 DUP6 SWAP2 PUSH2 0x334C JUMP JUMPDEST POP SWAP3 SWAP2 POP POP JUMP JUMPDEST PUSH1 0x0 DUP3 PUSH2 0x2FC1 JUMPI POP PUSH1 0x0 PUSH2 0x153E JUMP JUMPDEST DUP3 DUP3 MUL DUP3 DUP5 DUP3 DUP2 PUSH2 0x2FCE JUMPI INVALID JUMPDEST DIV EQ PUSH2 0x1F6A JUMPI PUSH1 0x0 DUP1 REVERT JUMPDEST PUSH1 0x0 DUP3 DUP3 ADD DUP4 DUP2 LT ISZERO PUSH2 0x1F6A JUMPI PUSH1 0x0 DUP1 REVERT JUMPDEST PUSH1 0x0 DUP1 DUP3 GT PUSH2 0x2FF9 JUMPI PUSH1 0x0 DUP1 REVERT JUMPDEST PUSH1 0x0 DUP3 DUP5 DUP2 PUSH2 0x3004 JUMPI INVALID JUMPDEST DIV SWAP5 SWAP4 POP POP POP POP JUMP JUMPDEST PUSH1 0x0 DUP2 DUP4 LT PUSH2 0x301C JUMPI DUP2 PUSH2 0x1F6A JUMP JUMPDEST POP SWAP1 SWAP2 SWAP1 POP JUMP JUMPDEST PUSH1 0x40 MLOAD DUP5 DUP2 MSTORE DUP4 ISZERO PUSH2 0x3036 JUMPI DUP3 PUSH1 0x4 DUP3 ADD MSTORE JUMPDEST PUSH1 0x1 DUP5 GT ISZERO PUSH2 0x3046 JUMPI DUP2 PUSH1 0x24 DUP3 ADD MSTORE JUMPDEST PUSH1 0x0 DUP1 DUP6 PUSH1 0x20 MUL PUSH1 0x4 ADD DUP4 DUP10 GAS DELEGATECALL DUP1 ISZERO PUSH2 0x3064 JUMPI RETURNDATASIZE PUSH1 0x0 DUP4 RETURNDATACOPY PUSH2 0x3069 JUMP JUMPDEST PUSH1 0x0 DUP3 REVERT JUMPDEST POP SWAP6 SWAP5 POP POP POP POP POP JUMP JUMPDEST PUSH1 0x0 DUP1 PUSH1 0x0 PUSH1 0x60 PUSH15 0x3430B9B42FBA37AFB1BAB93B32B137 PUSH1 0x89 SHL PUSH1 0x0 DUP1 SHL DUP7 PUSH1 0x40 MLOAD PUSH1 0x20 ADD DUP1 DUP5 DUP2 MSTORE PUSH1 0x20 ADD DUP4 DUP2 MSTORE PUSH1 0x20 ADD DUP3 DUP1 MLOAD SWAP1 PUSH1 0x20 ADD SWAP1 DUP1 DUP4 DUP4 JUMPDEST PUSH1 0x20 DUP4 LT PUSH2 0x30D0 JUMPI DUP1 MLOAD DUP3 MSTORE PUSH1 0x1F NOT SWAP1 SWAP3 ADD SWAP2 PUSH1 0x20 SWAP2 DUP3 ADD SWAP2 ADD PUSH2 0x30B1 JUMP JUMPDEST PUSH1 0x1 DUP4 PUSH1 0x20 SUB PUSH2 0x100 EXP SUB DUP1 NOT DUP3 MLOAD AND DUP2 DUP5 MLOAD AND DUP1 DUP3 OR DUP6 MSTORE POP POP POP POP POP POP SWAP1 POP ADD SWAP4 POP POP POP POP PUSH1 0x40 MLOAD PUSH1 0x20 DUP2 DUP4 SUB SUB DUP2 MSTORE SWAP1 PUSH1 0x40 MSTORE SWAP1 POP PUSH1 0x0 DUP2 PUSH1 0x40 MLOAD PUSH1 0x20 ADD DUP1 DUP4 PUSH1 0xFF AND PUSH1 0xFF AND PUSH1 0xF8 SHL DUP2 MSTORE PUSH1 0x1 ADD DUP3 DUP1 MLOAD SWAP1 PUSH1 0x20 ADD SWAP1 DUP1 DUP4 DUP4 JUMPDEST PUSH1 0x20 DUP4 LT PUSH2 0x314C JUMPI DUP1 MLOAD DUP3 MSTORE PUSH1 0x1F NOT SWAP1 SWAP3 ADD SWAP2 PUSH1 0x20 SWAP2 DUP3 ADD SWAP2 ADD PUSH2 0x312D JUMP JUMPDEST PUSH1 0x1 DUP4 PUSH1 0x20 SUB PUSH2 0x100 EXP SUB DUP1 NOT DUP3 MLOAD AND DUP2 DUP5 MLOAD AND DUP1 DUP3 OR DUP6 MSTORE POP POP POP POP POP POP SWAP1 POP ADD SWAP3 POP POP POP PUSH1 0x40 MLOAD PUSH1 0x20 DUP2 DUP4 SUB SUB DUP2 MSTORE SWAP1 PUSH1 0x40 MSTORE DUP1 MLOAD SWAP1 PUSH1 0x20 ADD KECCAK256 PUSH1 0x1 DUP3 PUSH1 0x40 MLOAD PUSH1 0x20 ADD DUP1 DUP4 PUSH1 0xFF AND PUSH1 0xFF AND PUSH1 0xF8 SHL DUP2 MSTORE PUSH1 0x1 ADD DUP3 DUP1 MLOAD SWAP1 PUSH1 0x20 ADD SWAP1 DUP1 DUP4 DUP4 JUMPDEST PUSH1 0x20 DUP4 LT PUSH2 0x31CC JUMPI DUP1 MLOAD DUP3 MSTORE PUSH1 0x1F NOT SWAP1 SWAP3 ADD SWAP2 PUSH1 0x20 SWAP2 DUP3 ADD SWAP2 ADD PUSH2 0x31AD JUMP JUMPDEST MLOAD DUP2 MLOAD PUSH1 0x20 SWAP4 DUP5 SUB PUSH2 0x100 EXP PUSH1 0x0 NOT ADD DUP1 NOT SWAP1 SWAP3 AND SWAP2 AND OR SWAP1 MSTORE PUSH1 0x40 DUP1 MLOAD SWAP3 SWAP1 SWAP5 ADD DUP3 DUP2 SUB PUSH1 0x1F NOT ADD DUP4 MSTORE SWAP1 SWAP4 MSTORE DUP1 MLOAD SWAP3 ADD SWAP2 SWAP1 SWAP2 KECCAK256 SWAP5 SWAP8 POP SWAP4 SWAP6 POP PUSH17 0x14551231950B75FC4402DA1732FC9BEC0 SWAP4 POP PUSH17 0x14551231950B75FC4402DA1732FC9BEBF NOT SWAP3 POP PUSH1 0x0 SWAP2 POP DUP3 SWAP1 POP DUP4 DUP8 MULMOD SWAP1 POP DUP2 DUP1 PUSH2 0x3245 JUMPI INVALID JUMPDEST DUP6 DUP3 ADDMOD PUSH1 0x1 ADD SWAP9 SWAP8 POP POP POP POP POP POP POP POP JUMP JUMPDEST PUSH2 0x325F PUSH2 0x34CA JUMP JUMPDEST PUSH1 0x40 DUP3 ADD MLOAD DUP1 PUSH2 0x326F JUMPI POP PUSH2 0x1FCC JUMP JUMPDEST DUP3 MLOAD PUSH5 0x1000003D0 NOT SWAP1 PUSH1 0x0 DUP3 PUSH1 0x20 DUP8 ADD MLOAD PUSH1 0x2 MULMOD SWAP1 POP PUSH1 0x0 DUP4 DUP1 PUSH2 0x3290 JUMPI INVALID JUMPDEST DUP3 DUP4 MULMOD SWAP1 POP PUSH1 0x0 DUP5 DUP1 PUSH2 0x329F JUMPI INVALID JUMPDEST DUP5 DUP4 MULMOD SWAP1 POP PUSH1 0x0 DUP6 DUP1 PUSH2 0x32AE JUMPI INVALID JUMPDEST DUP7 DUP1 PUSH2 0x32B6 JUMPI INVALID JUMPDEST DUP7 DUP8 MULMOD PUSH1 0x3 MULMOD SWAP1 POP PUSH1 0x0 DUP7 DUP1 PUSH2 0x32C8 JUMPI INVALID JUMPDEST DUP8 DUP1 PUSH2 0x32D0 JUMPI INVALID JUMPDEST DUP5 PUSH5 0x1000003D2 NOT MULMOD DUP9 DUP1 PUSH2 0x32E1 JUMPI INVALID JUMPDEST DUP5 DUP6 MULMOD ADDMOD DUP1 DUP11 MSTORE SWAP1 POP DUP7 DUP1 PUSH2 0x32F2 JUMPI INVALID JUMPDEST DUP8 DUP1 PUSH2 0x32FA JUMPI INVALID JUMPDEST DUP9 DUP1 PUSH2 0x3302 JUMPI INVALID JUMPDEST DUP7 DUP8 MULMOD PUSH4 0x800001E9 PUSH1 0x1 PUSH1 0xFF SHL SUB MULMOD DUP9 DUP1 PUSH2 0x3319 JUMPI INVALID JUMPDEST DUP10 DUP1 PUSH2 0x3321 JUMPI INVALID JUMPDEST DUP5 DUP12 SUB DUP8 ADDMOD DUP6 MULMOD ADDMOD PUSH1 0x20 DUP11 ADD MSTORE DUP7 DUP1 PUSH2 0x3336 JUMPI INVALID JUMPDEST DUP9 DUP7 MULMOD PUSH1 0x40 DUP11 ADD MSTORE POP SWAP7 SWAP9 SWAP8 POP POP POP POP POP POP POP POP JUMP JUMPDEST PUSH1 0x0 PUSH1 0x20 PUSH1 0x1F DUP4 ADD DIV DUP5 PUSH1 0x20 DUP6 ADD PUSH1 0x0 JUMPDEST DUP4 DUP2 LT ISZERO PUSH2 0x3379 JUMPI PUSH1 0x20 DUP2 MUL DUP4 DUP2 ADD MLOAD SWAP1 DUP4 ADD MSTORE PUSH1 0x1 ADD PUSH2 0x335D JUMP JUMPDEST POP POP POP POP PUSH1 0x0 DUP4 MLOAD PUSH1 0x20 ADD DUP5 ADD MSTORE DUP2 DUP5 ADD SWAP1 POP SWAP4 SWAP3 POP POP POP JUMP JUMPDEST PUSH1 0x40 MLOAD DUP1 PUSH2 0x2E0 ADD PUSH1 0x40 MSTORE DUP1 PUSH1 0x0 DUP2 MSTORE PUSH1 0x20 ADD PUSH1 0x0 DUP2 MSTORE PUSH1 0x20 ADD PUSH1 0x0 DUP2 MSTORE PUSH1 0x20 ADD PUSH1 0x0 DUP2 MSTORE PUSH1 0x20 ADD PUSH1 0x0 DUP2 MSTORE PUSH1 0x20 ADD PUSH1 0x0 DUP2 MSTORE PUSH1 0x20 ADD PUSH1 0x0 DUP2 MSTORE PUSH1 0x20 ADD PUSH1 0x0 DUP2 MSTORE PUSH1 0x20 ADD PUSH1 0x0 DUP2 MSTORE PUSH1 0x20 ADD PUSH1 0x0 DUP2 MSTORE PUSH1 0x20 ADD PUSH1 0x0 DUP2 MSTORE PUSH1 0x20 ADD PUSH1 0x0 DUP2 MSTORE PUSH1 0x20 ADD PUSH1 0x0 DUP2 MSTORE PUSH1 0x20 ADD PUSH1 0x0 DUP2 MSTORE PUSH1 0x20 ADD PUSH1 0x0 DUP2 MSTORE PUSH1 0x20 ADD PUSH1 0x0 DUP2 MSTORE PUSH1 0x20 ADD PUSH1 0x0 DUP2 MSTORE PUSH1 0x20 ADD PUSH1 0x0 DUP2 MSTORE PUSH1 0x20 ADD PUSH1 0x0 DUP2 MSTORE PUSH1 0x20 ADD PUSH1 0x0 DUP2 MSTORE PUSH1 0x20 ADD PUSH1 0x0 DUP1 NOT AND DUP2 MSTORE PUSH1 0x20 ADD PUSH1 0x0 PUSH1 0x1 PUSH1 0x1 PUSH1 0xA0 SHL SUB AND DUP2 MSTORE PUSH1 0x20 ADD PUSH1 0x0 PUSH1 0x1 PUSH1 0x1 PUSH1 0xD8 SHL SUB NOT AND DUP2 MSTORE POP SWAP1 JUMP JUMPDEST PUSH1 0x40 MLOAD DUP1 PUSH1 0xA0 ADD PUSH1 0x40 MSTORE DUP1 PUSH2 0x346A PUSH2 0x353D JUMP JUMPDEST DUP2 MSTORE PUSH1 0x20 ADD PUSH2 0x3477 PUSH2 0x353D JUMP JUMPDEST DUP2 MSTORE PUSH1 0x0 PUSH1 0x20 DUP3 ADD MSTORE PUSH1 0x40 ADD PUSH2 0x348B PUSH2 0x353D JUMP JUMPDEST DUP2 MSTORE PUSH1 0x20 ADD PUSH2 0x3498 PUSH2 0x34E8 JUMP JUMPDEST SWAP1 MSTORE SWAP1 JUMP JUMPDEST PUSH1 0x40 MLOAD DUP1 PUSH1 0x60 ADD PUSH1 0x40 MSTORE DUP1 PUSH2 0x34B0 PUSH2 0x353D JUMP JUMPDEST DUP2 MSTORE PUSH1 0x20 ADD PUSH2 0x34BD PUSH2 0x353D JUMP JUMPDEST DUP2 MSTORE PUSH1 0x20 ADD PUSH1 0x0 DUP2 MSTORE POP SWAP1 JUMP JUMPDEST PUSH1 0x40 MLOAD DUP1 PUSH1 0x60 ADD PUSH1 0x40 MSTORE DUP1 PUSH1 0x3 SWAP1 PUSH1 0x20 DUP3 MUL DUP1 CALLDATASIZE DUP4 CALLDATACOPY POP SWAP2 SWAP3 SWAP2 POP POP JUMP JUMPDEST PUSH1 0x40 MLOAD DUP1 PUSH1 0xE0 ADD PUSH1 0x40 MSTORE DUP1 PUSH2 0x34FB PUSH2 0x353D JUMP JUMPDEST DUP2 MSTORE PUSH1 0x20 ADD PUSH2 0x3508 PUSH2 0x353D JUMP JUMPDEST DUP2 MSTORE PUSH1 0x20 ADD PUSH2 0x3515 PUSH2 0x353D JUMP JUMPDEST DUP2 MSTORE PUSH1 0x20 ADD PUSH2 0x3522 PUSH2 0x353D JUMP JUMPDEST DUP2 MSTORE PUSH1 0x20 ADD PUSH1 0x0 DUP2 MSTORE PUSH1 0x20 ADD PUSH1 0x60 DUP2 MSTORE PUSH1 0x20 ADD PUSH1 0x60 DUP2 MSTORE POP SWAP1 JUMP JUMPDEST PUSH1 0x40 DUP1 MLOAD DUP1 DUP3 ADD SWAP1 SWAP2 MSTORE PUSH1 0x0 DUP1 DUP3 MSTORE PUSH1 0x20 DUP3 ADD MSTORE SWAP1 JUMP INVALID POP PUSH16 0x696E7420682A5531206973206E6F7420 PUSH2 0x2076 PUSH2 0x6C69 PUSH5 0x2045432070 PUSH16 0x696E74507265636F6D7075746564207A 0x2A GASLIMIT KECCAK256 PUSH23 0x616C756520697320696E636F7272656374507265636F6D PUSH17 0x75746564205920636F6F7264696E617465 KECCAK256 PUSH16 0x6620553220646F65736E277420636F72 PUSH19 0x6573706F6E6420746F20636F6D707265737365 PUSH5 0x2055322070 PUSH16 0x696E7453706563696669636174696F6E KECCAK256 PUSH20 0x69676E617475726520697320696E76616C696454 PUSH9 0x697320434672616720 PUSH9 0x617320616C72656164 PUSH26 0x206265656E206576616C75617465642E507265636F6D70757465 PUSH5 0x205920636F PUSH16 0x7264696E617465206F6620553120646F PUSH6 0x736E27742063 PUSH16 0x72726573706F6E6420746F20636F6D70 PUSH19 0x657373656420553120706F696E74507265636F PUSH14 0x7075746564207A2A562076616C75 PUSH6 0x20697320696E PUSH4 0x6F727265 PUSH4 0x74507265 PUSH4 0x6F6D7075 PUSH21 0x6564205920636F6F7264696E617465206F66205632 KECCAK256 PUSH5 0x6F65736E27 PUSH21 0x20636F72726573706F6E6420746F20636F6D707265 PUSH20 0x73656420563220706F696E74507265636F6D7075 PUSH21 0x6564207A2A552076616C756520697320696E636F72 PUSH19 0x656374507265636F6D7075746564205920636F PUSH16 0x7264696E617465206F66204520646F65 PUSH20 0x6E277420636F72726573706F6E6420746F20636F PUSH14 0x70726573736564204520706F696E PUSH21 0x507265636F6D7075746564205920636F6F7264696E PUSH2 0x7465 KECCAK256 PUSH16 0x66205620646F65736E277420636F7272 PUSH6 0x73706F6E6420 PUSH21 0x6F20636F6D70726573736564205620706F696E7457 PUSH16 0x726B6572206D7573742062652072656C PUSH2 0x7465 PUSH5 0x20746F2061 KECCAK256 PUSH20 0x74616B6572507265636F6D707574656420592063 PUSH16 0x6F7264696E617465206F662056312064 PUSH16 0x65736E277420636F72726573706F6E64 KECCAK256 PUSH21 0x6F20636F6D7072657373656420563120706F696E74 GASLIMIT PUSH14 0x707479206D657373616765206E6F PUSH21 0x20616C6C6F77656420666F722076657273696F6E20 GASLIMIT POP PUSH19 0x65636F6D7075746564205920636F6F7264696E PUSH2 0x7465 KECCAK256 PUSH16 0x6620453120646F65736E277420636F72 PUSH19 0x6573706F6E6420746F20636F6D707265737365 PUSH5 0x2045312070 PUSH16 0x696E74506F696E7420682A4531206973 KECCAK256 PUSH15 0x6F7420612076616C69642045432070 PUSH16 0x696E7453657269616C697A656420636F PUSH16 0x7264696E617465732073686F756C6420 PUSH3 0x652036 CALLVALUE KECCAK256 TIMESTAMP POP PUSH16 0x696E74207A2A55206973206E6F742061 KECCAK256 PUSH23 0x616C696420454320706F696E7452657175657374657227 PUSH20 0x207075626C6963206B657920697320696E76616C PUSH10 0x64506F696E7420682A56 BALANCE KECCAK256 PUSH10 0x73206E6F742061207661 PUSH13 0x696420454320706F696E745072 PUSH6 0x636F6D707574 PUSH6 0x6420682A5631 KECCAK256 PUSH23 0x616C756520697320696E636F7272656374507265636F6D PUSH17 0x75746564205920636F6F7264696E617465 KECCAK256 PUSH16 0x6620453220646F65736E277420636F72 PUSH19 0x6573706F6E6420746F20636F6D707265737365 PUSH5 0x2045322070 PUSH16 0x696E74507265636F6D70757465642068 0x2A GASLIMIT BALANCE KECCAK256 PUSH23 0x616C756520697320696E636F7272656374A26469706673 PC 0x22 SLT KECCAK256 DUP12 SWAP5 SWAP7 SELFBALANCE 0xB5 0x26 0xC 0xC2 OR LT SAR 0xFB SWAP13 DUP3 LOG4 NOT SWAP2 0xD5 CALL 0x2A 0xE SLT PUSH22 0xBC10D07214902FA39064736F6C634300060700330000 ",
  "sha1": "4574bcf2bfc352123703c56b7886a8f5715c848b",
  "source": "pragma solidity ^0.6.5;\n\nimport \"nucypher/lib/ReEncryptionValidator.sol\";\nimport \"nucypher/lib/SignatureVerifier.sol\";\nimport \"nucypher/StakingEscrow.sol\";\nimport \"nucypher/proxy/Upgradeable.sol\";\nimport \"zeppelin/math/SafeMath.sol\";\nimport \"zeppelin/math/Math.sol\";\n\n\n/**\n* @title Adjudicator\n* @notice Supervises stakers' behavior and punishes when something's wrong.\n* @dev |v2.1.2|\n*/\ncontract Adjudicator is Upgradeable {\n\n    using SafeMath for uint256;\n    using UmbralDeserializer for bytes;\n\n    event CFragEvaluated(\n        bytes32 indexed evaluationHash,\n        address indexed investigator,\n        bool correctness\n    );\n    event IncorrectCFragVerdict(\n        bytes32 indexed evaluationHash,\n        address indexed worker,\n        address indexed staker\n    );\n\n    // used only for upgrading\n    bytes32 constant RESERVED_CAPSULE_AND_CFRAG_BYTES = bytes32(0);\n    address constant RESERVED_ADDRESS = address(0);\n\n    StakingEscrow public immutable escrow;\n    SignatureVerifier.HashAlgorithm public immutable hashAlgorithm;\n    uint256 public immutable basePenalty;\n    uint256 public immutable penaltyHistoryCoefficient;\n    uint256 public immutable percentagePenaltyCoefficient;\n    uint256 public immutable rewardCoefficient;\n\n    mapping (address => uint256) public penaltyHistory;\n    mapping (bytes32 => bool) public evaluatedCFrags;\n\n    /**\n    * @param _escrow Escrow contract\n    * @param _hashAlgorithm Hashing algorithm\n    * @param _basePenalty Base for the penalty calculation\n    * @param _penaltyHistoryCoefficient Coefficient for calculating the penalty depending on the history\n    * @param _percentagePenaltyCoefficient Coefficient for calculating the percentage penalty\n    * @param _rewardCoefficient Coefficient for calculating the reward\n    */\n    constructor(\n        StakingEscrow _escrow,\n        SignatureVerifier.HashAlgorithm _hashAlgorithm,\n        uint256 _basePenalty,\n        uint256 _penaltyHistoryCoefficient,\n        uint256 _percentagePenaltyCoefficient,\n        uint256 _rewardCoefficient\n    )\n        public\n    {\n        // Sanity checks.\n        require(_escrow.secondsPerPeriod() > 0 &&  // This contract has an escrow, and it's not the null address.\n            // The reward and penalty coefficients are set.\n            _percentagePenaltyCoefficient != 0 &&\n            _rewardCoefficient != 0);\n        escrow = _escrow;\n        hashAlgorithm = _hashAlgorithm;\n        basePenalty = _basePenalty;\n        percentagePenaltyCoefficient = _percentagePenaltyCoefficient;\n        penaltyHistoryCoefficient = _penaltyHistoryCoefficient;\n        rewardCoefficient = _rewardCoefficient;\n    }\n\n    /**\n    * @notice Submit proof that a worker created wrong CFrag\n    * @param _capsuleBytes Serialized capsule\n    * @param _cFragBytes Serialized CFrag\n    * @param _cFragSignature Signature of CFrag by worker\n    * @param _taskSignature Signature of task specification by Bob\n    * @param _requesterPublicKey Bob's signing public key, also known as \"stamp\"\n    * @param _workerPublicKey Worker's signing public key, also known as \"stamp\"\n    * @param _workerIdentityEvidence Signature of worker's public key by worker's eth-key\n    * @param _preComputedData Additional pre-computed data for CFrag correctness verification\n    */\n    function evaluateCFrag(\n        bytes memory _capsuleBytes,\n        bytes memory _cFragBytes,\n        bytes memory _cFragSignature,\n        bytes memory _taskSignature,\n        bytes memory _requesterPublicKey,\n        bytes memory _workerPublicKey,\n        bytes memory _workerIdentityEvidence,\n        bytes memory _preComputedData\n    )\n        public\n    {\n        // 1. Check that CFrag is not evaluated yet\n        bytes32 evaluationHash = SignatureVerifier.hash(\n            abi.encodePacked(_capsuleBytes, _cFragBytes), hashAlgorithm);\n        require(!evaluatedCFrags[evaluationHash], \"This CFrag has already been evaluated.\");\n        evaluatedCFrags[evaluationHash] = true;\n\n        // 2. Verify correctness of re-encryption\n        bool cFragIsCorrect = ReEncryptionValidator.validateCFrag(_capsuleBytes, _cFragBytes, _preComputedData);\n        emit CFragEvaluated(evaluationHash, msg.sender, cFragIsCorrect);\n\n        // 3. Verify associated public keys and signatures\n        require(ReEncryptionValidator.checkSerializedCoordinates(_workerPublicKey),\n                \"Staker's public key is invalid\");\n        require(ReEncryptionValidator.checkSerializedCoordinates(_requesterPublicKey),\n                \"Requester's public key is invalid\");\n\n        UmbralDeserializer.PreComputedData memory precomp = _preComputedData.toPreComputedData();\n\n        // Verify worker's signature of CFrag\n        require(SignatureVerifier.verify(\n                _cFragBytes,\n                abi.encodePacked(_cFragSignature, precomp.lostBytes[1]),\n                _workerPublicKey,\n                hashAlgorithm),\n                \"CFrag signature is invalid\"\n        );\n\n        // Verify worker's signature of taskSignature and that it corresponds to cfrag.proof.metadata\n        UmbralDeserializer.CapsuleFrag memory cFrag = _cFragBytes.toCapsuleFrag();\n        require(SignatureVerifier.verify(\n                _taskSignature,\n                abi.encodePacked(cFrag.proof.metadata, precomp.lostBytes[2]),\n                _workerPublicKey,\n                hashAlgorithm),\n                \"Task signature is invalid\"\n        );\n\n        // Verify that _taskSignature is bob's signature of the task specification.\n        // A task specification is: capsule + ursula pubkey + alice address + blockhash\n        bytes32 stampXCoord;\n        assembly {\n            stampXCoord := mload(add(_workerPublicKey, 32))\n        }\n        bytes memory stamp = abi.encodePacked(precomp.lostBytes[4], stampXCoord);\n\n        require(SignatureVerifier.verify(\n                abi.encodePacked(_capsuleBytes,\n                                 stamp,\n                                 _workerIdentityEvidence,\n                                 precomp.alicesKeyAsAddress,\n                                 bytes32(0)),\n                abi.encodePacked(_taskSignature, precomp.lostBytes[3]),\n                _requesterPublicKey,\n                hashAlgorithm),\n                \"Specification signature is invalid\"\n        );\n\n        // 4. Extract worker address from stamp signature.\n        address worker = SignatureVerifier.recover(\n            SignatureVerifier.hashEIP191(stamp, byte(0x45)), // Currently, we use version E (0x45) of EIP191 signatures\n            _workerIdentityEvidence);\n        address staker = escrow.stakerFromWorker(worker);\n        require(staker != address(0), \"Worker must be related to a staker\");\n\n        // 5. Check that staker can be slashed\n        uint256 stakerValue = escrow.getAllTokens(staker);\n        require(stakerValue > 0, \"Staker has no tokens\");\n\n        // 6. If CFrag was incorrect, slash staker\n        if (!cFragIsCorrect) {\n            (uint256 penalty, uint256 reward) = calculatePenaltyAndReward(staker, stakerValue);\n            escrow.slashStaker(staker, penalty, msg.sender, reward);\n            emit IncorrectCFragVerdict(evaluationHash, worker, staker);\n        }\n    }\n\n    /**\n    * @notice Calculate penalty to the staker and reward to the investigator\n    * @param _staker Staker's address\n    * @param _stakerValue Amount of tokens that belong to the staker\n    */\n    function calculatePenaltyAndReward(address _staker, uint256 _stakerValue)\n        internal returns (uint256 penalty, uint256 reward)\n    {\n        penalty = basePenalty.add(penaltyHistoryCoefficient.mul(penaltyHistory[_staker]));\n        penalty = Math.min(penalty, _stakerValue.div(percentagePenaltyCoefficient));\n        reward = penalty.div(rewardCoefficient);\n        // TODO add maximum condition or other overflow protection or other penalty condition (#305?)\n        penaltyHistory[_staker] = penaltyHistory[_staker].add(1);\n    }\n\n    /// @dev the `onlyWhileUpgrading` modifier works through a call to the parent `verifyState`\n    function verifyState(address _testTarget) public override virtual {\n        super.verifyState(_testTarget);\n        bytes32 evaluationCFragHash = SignatureVerifier.hash(\n            abi.encodePacked(RESERVED_CAPSULE_AND_CFRAG_BYTES), SignatureVerifier.HashAlgorithm.SHA256);\n        require(delegateGet(_testTarget, this.evaluatedCFrags.selector, evaluationCFragHash) ==\n            (evaluatedCFrags[evaluationCFragHash] ? 1 : 0));\n        require(delegateGet(_testTarget, this.penaltyHistory.selector, bytes32(bytes20(RESERVED_ADDRESS))) ==\n            penaltyHistory[RESERVED_ADDRESS]);\n    }\n\n    /// @dev the `onlyWhileUpgrading` modifier works through a call to the parent `finishUpgrade`\n    function finishUpgrade(address _target) public override virtual {\n        super.finishUpgrade(_target);\n        // preparation for the verifyState method\n        bytes32 evaluationCFragHash = SignatureVerifier.hash(\n            abi.encodePacked(RESERVED_CAPSULE_AND_CFRAG_BYTES), SignatureVerifier.HashAlgorithm.SHA256);\n        evaluatedCFrags[evaluationCFragHash] = true;\n        penaltyHistory[RESERVED_ADDRESS] = 123;\n    }\n}\n",
  "sourcePath": "../../nucypher/blockchain/eth/sol/source/contracts/Adjudicator.sol",
  "type": "contract"
}