{
  "abi": [
    {
      "inputs": [
        {
          "internalType": "contract NuCypherToken",
          "name": "_token",
          "type": "address"
        },
        {
          "internalType": "contract StakingEscrow",
          "name": "_escrow",
          "type": "address"
        },
        {
          "internalType": "contract PolicyManager",
          "name": "_policyManager",
          "type": "address"
        },
        {
          "internalType": "contract WorkLock",
          "name": "_workLock",
          "type": "address"
        }
      ],
      "stateMutability": "nonpayable",
      "type": "constructor"
    },
    {
      "inputs": [],
      "name": "escrow",
      "outputs": [
        {
          "internalType": "contract StakingEscrow",
          "name": "",
          "type": "address"
        }
      ],
      "stateMutability": "view",
      "type": "function"
    },
    {
      "inputs": [],
      "name": "policyManager",
      "outputs": [
        {
          "internalType": "contract PolicyManager",
          "name": "",
          "type": "address"
        }
      ],
      "stateMutability": "view",
      "type": "function"
    },
    {
      "inputs": [],
      "name": "stakingInterfaceAddress",
      "outputs": [
        {
          "internalType": "address",
          "name": "",
          "type": "address"
        }
      ],
      "stateMutability": "view",
      "type": "function"
    },
    {
      "inputs": [],
      "name": "token",
      "outputs": [
        {
          "internalType": "contract NuCypherToken",
          "name": "",
          "type": "address"
        }
      ],
      "stateMutability": "view",
      "type": "function"
    },
    {
      "inputs": [],
      "name": "workLock",
      "outputs": [
        {
          "internalType": "contract WorkLock",
          "name": "",
          "type": "address"
        }
      ],
      "stateMutability": "view",
      "type": "function"
    }
  ],
  "bytecode": "61012060405234801561001157600080fd5b5060405161042e38038061042e8339818101604052608081101561003457600080fd5b50805160208083015160408085015160609095015181516318160ddd60e01b8152915194959294929390926000926001600160a01b038816926318160ddd92600480840193829003018186803b15801561008d57600080fd5b505afa1580156100a1573d6000803e3d6000fd5b505050506040513d60208110156100b757600080fd5b505111801561013057506000836001600160a01b031663407f80016040518163ffffffff1660e01b815260040160206040518083038186803b1580156100fc57600080fd5b505afa158015610110573d6000803e3d6000fd5b505050506040513d602081101561012657600080fd5b505163ffffffff16115b80156101a657506000826001600160a01b031663407f80016040518163ffffffff1660e01b815260040160206040518083038186803b15801561017257600080fd5b505afa158015610186573d6000803e3d6000fd5b505050506040513d602081101561019c57600080fd5b505163ffffffff16115b801561022757506001600160a01b038116158061022757506000816001600160a01b0316635bf997f56040518163ffffffff1660e01b815260040160206040518083038186803b1580156101f957600080fd5b505afa15801561020d573d6000803e3d6000fd5b505050506040513d602081101561022357600080fd5b5051115b61023057600080fd5b606084811b6001600160601b031990811660a05284821b811660c05283821b811660e05282821b1661010052309081901b608052936001600160a01b03908116938116928116911661018a6102a46000398060a252508060ea52508061010e52508061013252508060c6525061018a6000f3fe608060405234801561001057600080fd5b50600436106100575760003560e01c80631c7fd5321461005c5780639d83a8dc14610080578063ab3dbf3b14610088578063e2fdcc1714610090578063fc0c546a14610098575b600080fd5b6100646100a0565b604080516001600160a01b039092168252519081900360200190f35b6100646100c4565b6100646100e8565b61006461010c565b610064610130565b7f000000000000000000000000000000000000000000000000000000000000000081565b7f000000000000000000000000000000000000000000000000000000000000000081565b7f000000000000000000000000000000000000000000000000000000000000000081565b7f000000000000000000000000000000000000000000000000000000000000000081565b7f00000000000000000000000000000000000000000000000000000000000000008156fea2646970667358221220817f547a0cb4148559cf0b7821515531d3a7b51abd206b570a9728de13e4e60a64736f6c63430006070033",
  "bytecodeSha1": "bfa05b8f96aaad7eb354eeab527bce44fe43f0dd",
  "compiler": {
    "evm_version": "berlin",
    "optimizer": {
      "enabled": true,
      "runs": 200
    },
    "version": "0.6.7"
  },
  "contractName": "BaseStakingInterface",
  "language": "Solidity",
  "natspec": {
    "methods": {
      "constructor": {
        "params": {
          "_escrow": "Escrow contract",
          "_policyManager": "PolicyManager contract",
          "_token": "Token contract",
          "_workLock": "WorkLock contract"
        }
      }
    },
    "notice": "Base StakingInterface"
  },
  "opcodes": "PUSH1 0x80 PUSH1 0x40 MSTORE CALLVALUE DUP1 ISZERO PUSH2 0x10 JUMPI PUSH1 0x0 DUP1 REVERT JUMPDEST POP PUSH1 0x4 CALLDATASIZE LT PUSH2 0x57 JUMPI PUSH1 0x0 CALLDATALOAD PUSH1 0xE0 SHR DUP1 PUSH4 0x1C7FD532 EQ PUSH2 0x5C JUMPI DUP1 PUSH4 0x9D83A8DC EQ PUSH2 0x80 JUMPI DUP1 PUSH4 0xAB3DBF3B EQ PUSH2 0x88 JUMPI DUP1 PUSH4 0xE2FDCC17 EQ PUSH2 0x90 JUMPI DUP1 PUSH4 0xFC0C546A EQ PUSH2 0x98 JUMPI JUMPDEST PUSH1 0x0 DUP1 REVERT JUMPDEST PUSH2 0x64 PUSH2 0xA0 JUMP JUMPDEST PUSH1 0x40 DUP1 MLOAD PUSH1 0x1 PUSH1 0x1 PUSH1 0xA0 SHL SUB SWAP1 SWAP3 AND DUP3 MSTORE MLOAD SWAP1 DUP2 SWAP1 SUB PUSH1 0x20 ADD SWAP1 RETURN JUMPDEST PUSH2 0x64 PUSH2 0xC4 JUMP JUMPDEST PUSH2 0x64 PUSH2 0xE8 JUMP JUMPDEST PUSH2 0x64 PUSH2 0x10C JUMP JUMPDEST PUSH2 0x64 PUSH2 0x130 JUMP JUMPDEST PUSH32 0x0 DUP2 JUMP JUMPDEST PUSH32 0x0 DUP2 JUMP JUMPDEST PUSH32 0x0 DUP2 JUMP JUMPDEST PUSH32 0x0 DUP2 JUMP JUMPDEST PUSH32 0x0 DUP2 JUMP INVALID LOG2 PUSH5 0x6970667358 0x22 SLT KECCAK256 DUP2 PUSH32 0x547A0CB4148559CF0B7821515531D3A7B51ABD206B570A9728DE13E4E60A6473 PUSH16 0x6C634300060700330000000000000000 ",
  "sha1": "1bb88e311f8d39e2f3c36968ba3390761f2e82f2",
  "source": "pragma solidity ^0.6.5;\n\n\nimport \"nucypher/staking_contracts/AbstractStakingContract.sol\";\nimport \"nucypher/NuCypherToken.sol\";\nimport \"nucypher/StakingEscrow.sol\";\nimport \"nucypher/PolicyManager.sol\";\nimport \"nucypher/WorkLock.sol\";\n\n\n/**\n* @notice Base StakingInterface\n*/\ncontract BaseStakingInterface {\n\n    address public immutable stakingInterfaceAddress;\n    NuCypherToken public immutable token;\n    StakingEscrow public immutable escrow;\n    PolicyManager public immutable policyManager;\n    WorkLock public immutable workLock;\n\n    /**\n    * @notice Constructor sets addresses of the contracts\n    * @param _token Token contract\n    * @param _escrow Escrow contract\n    * @param _policyManager PolicyManager contract\n    * @param _workLock WorkLock contract\n    */\n    constructor(\n        NuCypherToken _token,\n        StakingEscrow _escrow,\n        PolicyManager _policyManager,\n        WorkLock _workLock\n    )\n        public\n    {\n        require(_token.totalSupply() > 0 &&\n            _escrow.secondsPerPeriod() > 0 &&\n            _policyManager.secondsPerPeriod() > 0 &&\n            // in case there is no worklock contract\n            (address(_workLock) == address(0) || _workLock.boostingRefund() > 0));\n        token = _token;\n        escrow = _escrow;\n        policyManager = _policyManager;\n        workLock = _workLock;\n        stakingInterfaceAddress = address(this);\n    }\n\n    /**\n    * @dev Checks executing through delegate call\n    */\n    modifier onlyDelegateCall()\n    {\n        require(stakingInterfaceAddress != address(this));\n        _;\n    }\n\n    /**\n    * @dev Checks the existence of the worklock contract\n    */\n    modifier workLockSet()\n    {\n        require(address(workLock) != address(0));\n        _;\n    }\n\n}\n\n\n/**\n* @notice Interface for accessing main contracts from a staking contract\n* @dev All methods must be stateless because this code will be executed by delegatecall call, use immutable fields.\n* @dev |v1.4.2|\n*/\ncontract StakingInterface is BaseStakingInterface {\n\n    event DepositedAsStaker(address indexed sender, uint256 value, uint16 periods);\n    event WithdrawnAsStaker(address indexed sender, uint256 value);\n    event Locked(address indexed sender, uint256 value, uint16 periods);\n    event Divided(address indexed sender, uint256 index, uint256 newValue, uint16 periods);\n    event Minted(address indexed sender);\n    event PolicyFeeWithdrawn(address indexed sender, uint256 value);\n    event MinFeeRateSet(address indexed sender, uint256 value);\n    event ReStakeSet(address indexed sender, bool reStake);\n    event ReStakeLocked(address indexed sender, uint16 lockUntilPeriod);\n    event WorkerBonded(address indexed sender, address worker);\n    event Prolonged(address indexed sender, uint256 index, uint16 periods);\n    event WindDownSet(address indexed sender, bool windDown);\n    event Bid(address indexed sender, uint256 depositedETH);\n    event Claimed(address indexed sender, uint256 claimedTokens);\n    event Refund(address indexed sender, uint256 refundETH);\n    event BidCanceled(address indexed sender);\n    event CompensationWithdrawn(address indexed sender);\n\n    /**\n    * @notice Constructor sets addresses of the contracts\n    * @param _token Token contract\n    * @param _escrow Escrow contract\n    * @param _policyManager PolicyManager contract\n    * @param _workLock WorkLock contract\n    */\n    constructor(\n        NuCypherToken _token,\n        StakingEscrow _escrow,\n        PolicyManager _policyManager,\n        WorkLock _workLock\n    )\n        public BaseStakingInterface(_token, _escrow, _policyManager, _workLock)\n    {\n    }\n\n    /**\n    * @notice Bond worker in the staking escrow\n    * @param _worker Worker address\n    */\n    function bondWorker(address _worker) public onlyDelegateCall {\n        escrow.bondWorker(_worker);\n        emit WorkerBonded(msg.sender, _worker);\n    }\n\n    /**\n    * @notice Set `reStake` parameter in the staking escrow\n    * @param _reStake Value for parameter\n    */\n    function setReStake(bool _reStake) public onlyDelegateCall {\n        escrow.setReStake(_reStake);\n        emit ReStakeSet(msg.sender, _reStake);\n    }\n\n    /**\n    * @notice Lock `reStake` parameter in the staking escrow\n    * @param _lockReStakeUntilPeriod Can't change `reStake` value until this period\n    */\n    function lockReStake(uint16 _lockReStakeUntilPeriod) public onlyDelegateCall {\n        escrow.lockReStake(_lockReStakeUntilPeriod);\n        emit ReStakeLocked(msg.sender, _lockReStakeUntilPeriod);\n    }\n\n    /**\n    * @notice Deposit tokens to the staking escrow\n    * @param _value Amount of token to deposit\n    * @param _periods Amount of periods during which tokens will be locked\n    */\n    function depositAsStaker(uint256 _value, uint16 _periods) public onlyDelegateCall {\n        require(token.balanceOf(address(this)) >= _value);\n        token.approve(address(escrow), _value);\n        escrow.deposit(_value, _periods);\n        emit DepositedAsStaker(msg.sender, _value, _periods);\n    }\n\n    /**\n    * @notice Withdraw available amount of tokens from the staking escrow to the staking contract\n    * @param _value Amount of token to withdraw\n    */\n    function withdrawAsStaker(uint256 _value) public onlyDelegateCall {\n        escrow.withdraw(_value);\n        emit WithdrawnAsStaker(msg.sender, _value);\n    }\n\n    /**\n    * @notice Lock some tokens or increase lock in the staking escrow\n    * @param _value Amount of tokens which should lock\n    * @param _periods Amount of periods during which tokens will be locked\n    */\n    function lock(uint256 _value, uint16 _periods) public onlyDelegateCall {\n        escrow.lock(_value, _periods);\n        emit Locked(msg.sender, _value, _periods);\n    }\n\n    /**\n    * @notice Divide stake into two parts\n    * @param _index Index of stake\n    * @param _newValue New stake value\n    * @param _periods Amount of periods for extending stake\n    */\n    function divideStake(\n        uint256 _index,\n        uint256 _newValue,\n        uint16 _periods\n    )\n        public onlyDelegateCall\n    {\n        escrow.divideStake(_index, _newValue, _periods);\n        emit Divided(msg.sender, _index, _newValue, _periods);\n    }\n\n    /**\n    * @notice Mint tokens in the staking escrow\n    */\n    function mint() public onlyDelegateCall {\n        escrow.mint();\n        emit Minted(msg.sender);\n    }\n\n    /**\n    * @notice Withdraw available policy fees from the policy manager to the staking contract\n    */\n    function withdrawPolicyFee() public onlyDelegateCall {\n        uint256 value = policyManager.withdraw();\n        emit PolicyFeeWithdrawn(msg.sender, value);\n    }\n\n    /**\n    * @notice Set the minimum fee that the staker will accept in the policy manager contract\n    */\n    function setMinFeeRate(uint256 _minFeeRate) public onlyDelegateCall {\n        policyManager.setMinFeeRate(_minFeeRate);\n        emit MinFeeRateSet(msg.sender, _minFeeRate);\n    }\n\n\n    /**\n    * @notice Prolong active sub stake\n    * @param _index Index of the sub stake\n    * @param _periods Amount of periods for extending sub stake\n    */\n    function prolongStake(uint256 _index, uint16 _periods) public onlyDelegateCall {\n        escrow.prolongStake(_index, _periods);\n        emit Prolonged(msg.sender, _index, _periods);\n    }\n\n    /**\n    * @notice Set `windDown` parameter in the staking escrow\n    * @param _windDown Value for parameter\n    */\n    function setWindDown(bool _windDown) public onlyDelegateCall {\n        escrow.setWindDown(_windDown);\n        emit WindDownSet(msg.sender, _windDown);\n    }\n\n    /**\n    * @notice Bid for tokens by transferring ETH\n    */\n    function bid(uint256 _value) public payable onlyDelegateCall workLockSet {\n        workLock.bid{value: _value}();\n        emit Bid(msg.sender, _value);\n    }\n\n    /**\n    * @notice Cancel bid and refund deposited ETH\n    */\n    function cancelBid() public onlyDelegateCall workLockSet {\n        workLock.cancelBid();\n        emit BidCanceled(msg.sender);\n    }\n\n    /**\n    * @notice Withdraw compensation after force refund\n    */\n    function withdrawCompensation() public onlyDelegateCall workLockSet {\n        workLock.withdrawCompensation();\n        emit CompensationWithdrawn(msg.sender);\n    }\n\n    /**\n    * @notice Claimed tokens will be deposited and locked as stake in the StakingEscrow contract\n    */\n    function claim() public onlyDelegateCall workLockSet {\n        uint256 claimedTokens = workLock.claim();\n        emit Claimed(msg.sender, claimedTokens);\n    }\n\n    /**\n    * @notice Refund ETH for the completed work\n    */\n    function refund() public onlyDelegateCall workLockSet {\n        uint256 refundETH = workLock.refund();\n        emit Refund(msg.sender, refundETH);\n    }\n\n}\n",
  "sourcePath": "../../nucypher/blockchain/eth/sol/source/contracts/staking_contracts/StakingInterface.sol",
  "type": "contract"
}