{
  "abi": [
    {
      "inputs": [
        {
          "internalType": "address",
          "name": "_target",
          "type": "address"
        }
      ],
      "stateMutability": "nonpayable",
      "type": "constructor"
    },
    {
      "anonymous": false,
      "inputs": [
        {
          "indexed": true,
          "internalType": "address",
          "name": "previousOwner",
          "type": "address"
        },
        {
          "indexed": true,
          "internalType": "address",
          "name": "newOwner",
          "type": "address"
        }
      ],
      "name": "OwnershipTransferred",
      "type": "event"
    },
    {
      "anonymous": false,
      "inputs": [
        {
          "indexed": true,
          "internalType": "address",
          "name": "from",
          "type": "address"
        },
        {
          "indexed": true,
          "internalType": "address",
          "name": "to",
          "type": "address"
        },
        {
          "indexed": false,
          "internalType": "address",
          "name": "owner",
          "type": "address"
        }
      ],
      "name": "RolledBack",
      "type": "event"
    },
    {
      "anonymous": false,
      "inputs": [
        {
          "indexed": true,
          "internalType": "address",
          "name": "testTarget",
          "type": "address"
        },
        {
          "indexed": false,
          "internalType": "address",
          "name": "sender",
          "type": "address"
        }
      ],
      "name": "StateVerified",
      "type": "event"
    },
    {
      "anonymous": false,
      "inputs": [
        {
          "indexed": true,
          "internalType": "address",
          "name": "target",
          "type": "address"
        },
        {
          "indexed": false,
          "internalType": "address",
          "name": "sender",
          "type": "address"
        }
      ],
      "name": "UpgradeFinished",
      "type": "event"
    },
    {
      "anonymous": false,
      "inputs": [
        {
          "indexed": true,
          "internalType": "address",
          "name": "from",
          "type": "address"
        },
        {
          "indexed": true,
          "internalType": "address",
          "name": "to",
          "type": "address"
        },
        {
          "indexed": false,
          "internalType": "address",
          "name": "owner",
          "type": "address"
        }
      ],
      "name": "Upgraded",
      "type": "event"
    },
    {
      "stateMutability": "payable",
      "type": "fallback"
    },
    {
      "inputs": [
        {
          "internalType": "address",
          "name": "",
          "type": "address"
        }
      ],
      "name": "finishUpgrade",
      "outputs": [],
      "stateMutability": "nonpayable",
      "type": "function"
    },
    {
      "inputs": [],
      "name": "implementation",
      "outputs": [
        {
          "internalType": "address",
          "name": "",
          "type": "address"
        }
      ],
      "stateMutability": "view",
      "type": "function"
    },
    {
      "inputs": [],
      "name": "isOwner",
      "outputs": [
        {
          "internalType": "bool",
          "name": "",
          "type": "bool"
        }
      ],
      "stateMutability": "view",
      "type": "function"
    },
    {
      "inputs": [],
      "name": "isUpgrade",
      "outputs": [
        {
          "internalType": "uint8",
          "name": "",
          "type": "uint8"
        }
      ],
      "stateMutability": "view",
      "type": "function"
    },
    {
      "inputs": [],
      "name": "owner",
      "outputs": [
        {
          "internalType": "address",
          "name": "",
          "type": "address"
        }
      ],
      "stateMutability": "view",
      "type": "function"
    },
    {
      "inputs": [],
      "name": "previousTarget",
      "outputs": [
        {
          "internalType": "address",
          "name": "",
          "type": "address"
        }
      ],
      "stateMutability": "view",
      "type": "function"
    },
    {
      "inputs": [],
      "name": "proxyType",
      "outputs": [
        {
          "internalType": "uint256",
          "name": "",
          "type": "uint256"
        }
      ],
      "stateMutability": "pure",
      "type": "function"
    },
    {
      "inputs": [],
      "name": "renounceOwnership",
      "outputs": [],
      "stateMutability": "nonpayable",
      "type": "function"
    },
    {
      "inputs": [],
      "name": "rollback",
      "outputs": [],
      "stateMutability": "nonpayable",
      "type": "function"
    },
    {
      "inputs": [],
      "name": "target",
      "outputs": [
        {
          "internalType": "address",
          "name": "",
          "type": "address"
        }
      ],
      "stateMutability": "view",
      "type": "function"
    },
    {
      "inputs": [
        {
          "internalType": "address",
          "name": "newOwner",
          "type": "address"
        }
      ],
      "name": "transferOwnership",
      "outputs": [],
      "stateMutability": "nonpayable",
      "type": "function"
    },
    {
      "inputs": [
        {
          "internalType": "address",
          "name": "_target",
          "type": "address"
        }
      ],
      "name": "upgrade",
      "outputs": [],
      "stateMutability": "nonpayable",
      "type": "function"
    },
    {
      "inputs": [
        {
          "internalType": "address",
          "name": "_testTarget",
          "type": "address"
        }
      ],
      "name": "verifyState",
      "outputs": [],
      "stateMutability": "nonpayable",
      "type": "function"
    }
  ],
  "bytecode": "60806040523480156200001157600080fd5b5060405162000f5d38038062000f5d833981810160405260208110156200003757600080fd5b5051600080546001600160a01b03191633178082556040516001600160a01b039190911691907f8be0079c531659141344cd1fd0a4f28419497f9722a3daafe3b4186f6b6457e0908290a36002805460ff60a01b1916600160a11b179055620000b56001600160a01b03821662000168602090811b6200034117901c565b620000bf57600080fd5b620000d3816001600160e01b03620001a516565b620000e881806001600160e01b03620002b316565b600180546001600160a01b0319166001600160a01b0383161790556200010d620003a4565b6040805133815290516001600160a01b038316916000917f354bd4b6eb65d64e6c79c53fa4f983a5e6bec4824ce4627c71be0b2722f4917e9181900360200190a3506002805460ff60a01b1916600160a01b17905562000516565b6000813f7fc5d2460186f7233c927e7db2dcc703c0e500b653ca82273b7bfad8045d85a4708181148015906200019d57508115155b949350505050565b60028054600160a01b900460ff1614620001be57600080fd5b620001d16001600160e01b036200048f16565b6001600160a01b0316620001f682638da5cb5b60e01b6001600160e01b036200049e16565b6001600160a01b0316146200020a57600080fd5b6001546001600160a01b03166200023282636a5c1cc960e11b6001600160e01b036200049e16565b6001600160a01b0316146200024657600080fd5b6002546001600160a01b03166200026e826309659a2360e31b6001600160e01b036200049e16565b6001600160a01b0316146200028257600080fd5b600254600160a01b900460ff16620002a28263e38a303b60e01b6200049e565b60ff1614620002b057600080fd5b50565b604080516001600160a01b0383811660248084019190915283518084039091018152604490920183526020820180516001600160e01b031663b9626d2160e01b17815292518251600094928716939282918083835b60208310620003295780518252601f19909201916020918201910162000308565b6001836020036101000a038019825116818451168082178552505050505050905001915050600060405180830381855af49150503d80600081146200038b576040519150601f19603f3d011682016040523d82523d6000602084013e62000390565b606091505b50509050806200039f57600080fd5b505050565b600154604080516001600160a01b03909216602480840182905282518085039091018152604490930182526020830180516001600160e01b031663746e668360e11b17815291518351600094929382918083835b60208310620004195780518252601f199092019160209182019101620003f8565b6001836020036101000a038019825116818451168082178552505050505050905001915050600060405180830381855af49150503d80600081146200047b576040519150601f19603f3d011682016040523d82523d6000602084013e62000480565b606091505b5050905080620002b057600080fd5b6000546001600160a01b031690565b600080620004b984848380806001600160e01b03620004c216565b51949350505050565b6040518481528315620004d6578260048201525b6001841115620004e7578160248201525b6000808560200260040183895af4801562000507573d6000833e6200050c565b600082fd5b5095945050505050565b610a3780620005266000396000f3fe6080604052600436106100c25760003560e01c80638f32d59b1161007f578063d4b8399211610059578063d4b839921461029b578063e38a303b146102b0578063e8dccd06146102db578063f2fde38b1461030e576100c2565b80638f32d59b1461022a5780639afd9d7814610253578063b9626d2114610268576100c2565b80630900f0101461015e5780634555d5c9146101935780634b2cd118146101ba5780635c60da1b146101eb578063715018a6146102005780638da5cb5b14610215575b6001546100d7906001600160a01b0316610341565b6100dd57fe5b6001546040516000916001600160a01b031690829036908083838082843760405192019450600093509091505080830381855af49150503d8060008114610140576040519150601f19603f3d011682016040523d82523d6000602084013e610145565b606091505b505090508015610159573d6000803e3d6000f35b600080fd5b34801561016a57600080fd5b506101916004803603602081101561018157600080fd5b50356001600160a01b031661037d565b005b34801561019f57600080fd5b506101a861048e565b60408051918252519081900360200190f35b3480156101c657600080fd5b506101cf610493565b604080516001600160a01b039092168252519081900360200190f35b3480156101f757600080fd5b506101cf6104a2565b34801561020c57600080fd5b506101916104b1565b34801561022157600080fd5b506101cf61050c565b34801561023657600080fd5b5061023f61051b565b604080519115158252519081900360200190f35b34801561025f57600080fd5b5061019161052c565b34801561027457600080fd5b506101916004803603602081101561028b57600080fd5b50356001600160a01b0316610644565b3480156102a757600080fd5b506101cf61071f565b3480156102bc57600080fd5b506102c561072e565b6040805160ff9092168252519081900360200190f35b3480156102e757600080fd5b50610191600480360360208110156102fe57600080fd5b50356001600160a01b031661071c565b34801561031a57600080fd5b506101916004803603602081101561033157600080fd5b50356001600160a01b031661073e565b6000813f7fc5d2460186f7233c927e7db2dcc703c0e500b653ca82273b7bfad8045d85a47081811480159061037557508115155b949350505050565b61038561051b565b61038e57600080fd5b6002805460ff60a01b1916600160a11b1790556103b36001600160a01b038216610341565b6103bc57600080fd5b6103c581610644565b6103cf8182610758565b6001546103e4906001600160a01b0316610341565b156103ff576001546103ff906001600160a01b031682610758565b60018054600280546001600160a01b038084166001600160a01b031992831617909255909116908316179055610433610844565b6002546040805133815290516001600160a01b038085169316917f354bd4b6eb65d64e6c79c53fa4f983a5e6bec4824ce4627c71be0b2722f4917e919081900360200190a3506002805460ff60a01b1916600160a01b179055565b600290565b6002546001600160a01b031681565b6001546001600160a01b031690565b6104b961051b565b6104c257600080fd5b600080546040516001600160a01b03909116907f8be0079c531659141344cd1fd0a4f28419497f9722a3daafe3b4186f6b6457e0908390a3600080546001600160a01b0319169055565b6000546001600160a01b031690565b6000546001600160a01b0316331490565b61053461051b565b61053d57600080fd5b6002805460ff60a01b1916600160a11b1790819055610564906001600160a01b0316610341565b61056d57600080fd5b6002546001546040805133815290516001600160a01b039384169392909216917f86e04d1de380d22833cb4409f3ee7c6ad818a8d8387a83b6371f5ce018ddc1549181900360200190a36002546105cc906001600160a01b0316610644565b6001546105e1906001600160a01b0316610341565b1561060257600254600154610602916001600160a01b039081169116610758565b60028054600180546001600160a01b03199081166001600160a01b0384161790915516905561062f610844565b6002805460ff60a01b1916600160a01b179055565b60028054600160a01b900460ff161461065c57600080fd5b61066461050c565b6001600160a01b031661067e82638da5cb5b60e01b61092a565b6001600160a01b03161461069157600080fd5b6001546001600160a01b03166106ae82636a5c1cc960e11b61092a565b6001600160a01b0316146106c157600080fd5b6002546001600160a01b03166106de826309659a2360e31b61092a565b6001600160a01b0316146106f157600080fd5b600254600160a01b900460ff1661070f8263e38a303b60e01b61092a565b60ff161461071c57600080fd5b50565b6001546001600160a01b031681565b600254600160a01b900460ff1681565b61074661051b565b61074f57600080fd5b61071c81610943565b604080516001600160a01b0383811660248084019190915283518084039091018152604490920183526020820180516001600160e01b031663b9626d2160e01b17815292518251600094928716939282918083835b602083106107cc5780518252601f1990920191602091820191016107ad565b6001836020036101000a038019825116818451168082178552505050505050905001915050600060405180830381855af49150503d806000811461082c576040519150601f19603f3d011682016040523d82523d6000602084013e610831565b606091505b505090508061083f57600080fd5b505050565b600154604080516001600160a01b03909216602480840182905282518085039091018152604490930182526020830180516001600160e01b031663746e668360e11b17815291518351600094929382918083835b602083106108b75780518252601f199092019160209182019101610898565b6001836020036101000a038019825116818451168082178552505050505050905001915050600060405180830381855af49150503d8060008114610917576040519150601f19603f3d011682016040523d82523d6000602084013e61091c565b606091505b505090508061071c57600080fd5b60008061093a84848380806109b1565b51949350505050565b6001600160a01b03811661095657600080fd5b600080546040516001600160a01b03808516939216917f8be0079c531659141344cd1fd0a4f28419497f9722a3daafe3b4186f6b6457e091a3600080546001600160a01b0319166001600160a01b0392909216919091179055565b60405184815283156109c4578260048201525b60018411156109d4578160248201525b6000808560200260040183895af480156109f2573d6000833e6109f7565b600082fd5b509594505050505056fea26469706673582212209b6426bad3b688ddaedb05ee2c43d22ecc9dca1a77937a2fab1682b6091c7e6364736f6c63430006070033",
  "bytecodeSha1": "1ad0faf87d6ee939f97857caf15f578c6bed3469",
  "compiler": {
    "evm_version": "berlin",
    "optimizer": {
      "enabled": true,
      "runs": 200
    },
    "version": "0.6.7"
  },
  "contractName": "Dispatcher",
  "language": "Solidity",
  "natspec": {
    "methods": {
      "constructor": {
        "params": {
          "_target": "Target contract address"
        }
      },
      "finishUpgrade(address)": {
        "details": "Override function using empty code because no reason to call this function in Dispatcher"
      },
      "implementation()": {
        "notice": "ERC897, gets the address of the implementation where every call will be delegated"
      },
      "proxyType()": {
        "notice": "ERC897, whether it is a forwarding (1) or an upgradeable (2) proxy"
      },
      "renounceOwnership()": {
        "details": "Allows the current owner to relinquish control of the contract.",
        "notice": "Renouncing to ownership will leave the contract without an owner. It will not be possible to call the functions with the `onlyOwner` modifier anymore."
      },
      "rollback()": {
        "details": "Test storage carefully before upgrade again after rollback",
        "notice": "Rollback to previous target"
      },
      "transferOwnership(address)": {
        "details": "Allows the current owner to transfer control of the contract to a newOwner.",
        "params": {
          "newOwner": "The address to transfer ownership to."
        }
      },
      "upgrade(address)": {
        "notice": "Verify new contract storage and upgrade target",
        "params": {
          "_target": "New target contract address"
        }
      }
    },
    "notice": "Proxying requests to other contracts. Client should use ABI of real contract and address of this contract"
  },
  "opcodes": "PUSH1 0x80 PUSH1 0x40 MSTORE PUSH1 0x4 CALLDATASIZE LT PUSH2 0xC2 JUMPI PUSH1 0x0 CALLDATALOAD PUSH1 0xE0 SHR DUP1 PUSH4 0x8F32D59B GT PUSH2 0x7F JUMPI DUP1 PUSH4 0xD4B83992 GT PUSH2 0x59 JUMPI DUP1 PUSH4 0xD4B83992 EQ PUSH2 0x29B JUMPI DUP1 PUSH4 0xE38A303B EQ PUSH2 0x2B0 JUMPI DUP1 PUSH4 0xE8DCCD06 EQ PUSH2 0x2DB JUMPI DUP1 PUSH4 0xF2FDE38B EQ PUSH2 0x30E JUMPI PUSH2 0xC2 JUMP JUMPDEST DUP1 PUSH4 0x8F32D59B EQ PUSH2 0x22A JUMPI DUP1 PUSH4 0x9AFD9D78 EQ PUSH2 0x253 JUMPI DUP1 PUSH4 0xB9626D21 EQ PUSH2 0x268 JUMPI PUSH2 0xC2 JUMP JUMPDEST DUP1 PUSH4 0x900F010 EQ PUSH2 0x15E JUMPI DUP1 PUSH4 0x4555D5C9 EQ PUSH2 0x193 JUMPI DUP1 PUSH4 0x4B2CD118 EQ PUSH2 0x1BA JUMPI DUP1 PUSH4 0x5C60DA1B EQ PUSH2 0x1EB JUMPI DUP1 PUSH4 0x715018A6 EQ PUSH2 0x200 JUMPI DUP1 PUSH4 0x8DA5CB5B EQ PUSH2 0x215 JUMPI JUMPDEST PUSH1 0x1 SLOAD PUSH2 0xD7 SWAP1 PUSH1 0x1 PUSH1 0x1 PUSH1 0xA0 SHL SUB AND PUSH2 0x341 JUMP JUMPDEST PUSH2 0xDD JUMPI INVALID JUMPDEST PUSH1 0x1 SLOAD PUSH1 0x40 MLOAD PUSH1 0x0 SWAP2 PUSH1 0x1 PUSH1 0x1 PUSH1 0xA0 SHL SUB AND SWAP1 DUP3 SWAP1 CALLDATASIZE SWAP1 DUP1 DUP4 DUP4 DUP1 DUP3 DUP5 CALLDATACOPY PUSH1 0x40 MLOAD SWAP3 ADD SWAP5 POP PUSH1 0x0 SWAP4 POP SWAP1 SWAP2 POP POP DUP1 DUP4 SUB DUP2 DUP6 GAS DELEGATECALL SWAP2 POP POP RETURNDATASIZE DUP1 PUSH1 0x0 DUP2 EQ PUSH2 0x140 JUMPI PUSH1 0x40 MLOAD SWAP2 POP PUSH1 0x1F NOT PUSH1 0x3F RETURNDATASIZE ADD AND DUP3 ADD PUSH1 0x40 MSTORE RETURNDATASIZE DUP3 MSTORE RETURNDATASIZE PUSH1 0x0 PUSH1 0x20 DUP5 ADD RETURNDATACOPY PUSH2 0x145 JUMP JUMPDEST PUSH1 0x60 SWAP2 POP JUMPDEST POP POP SWAP1 POP DUP1 ISZERO PUSH2 0x159 JUMPI RETURNDATASIZE PUSH1 0x0 DUP1 RETURNDATACOPY RETURNDATASIZE PUSH1 0x0 RETURN JUMPDEST PUSH1 0x0 DUP1 REVERT JUMPDEST CALLVALUE DUP1 ISZERO PUSH2 0x16A JUMPI PUSH1 0x0 DUP1 REVERT JUMPDEST POP PUSH2 0x191 PUSH1 0x4 DUP1 CALLDATASIZE SUB PUSH1 0x20 DUP2 LT ISZERO PUSH2 0x181 JUMPI PUSH1 0x0 DUP1 REVERT JUMPDEST POP CALLDATALOAD PUSH1 0x1 PUSH1 0x1 PUSH1 0xA0 SHL SUB AND PUSH2 0x37D JUMP JUMPDEST STOP JUMPDEST CALLVALUE DUP1 ISZERO PUSH2 0x19F JUMPI PUSH1 0x0 DUP1 REVERT JUMPDEST POP PUSH2 0x1A8 PUSH2 0x48E JUMP JUMPDEST PUSH1 0x40 DUP1 MLOAD SWAP2 DUP3 MSTORE MLOAD SWAP1 DUP2 SWAP1 SUB PUSH1 0x20 ADD SWAP1 RETURN JUMPDEST CALLVALUE DUP1 ISZERO PUSH2 0x1C6 JUMPI PUSH1 0x0 DUP1 REVERT JUMPDEST POP PUSH2 0x1CF PUSH2 0x493 JUMP JUMPDEST PUSH1 0x40 DUP1 MLOAD PUSH1 0x1 PUSH1 0x1 PUSH1 0xA0 SHL SUB SWAP1 SWAP3 AND DUP3 MSTORE MLOAD SWAP1 DUP2 SWAP1 SUB PUSH1 0x20 ADD SWAP1 RETURN JUMPDEST CALLVALUE DUP1 ISZERO PUSH2 0x1F7 JUMPI PUSH1 0x0 DUP1 REVERT JUMPDEST POP PUSH2 0x1CF PUSH2 0x4A2 JUMP JUMPDEST CALLVALUE DUP1 ISZERO PUSH2 0x20C JUMPI PUSH1 0x0 DUP1 REVERT JUMPDEST POP PUSH2 0x191 PUSH2 0x4B1 JUMP JUMPDEST CALLVALUE DUP1 ISZERO PUSH2 0x221 JUMPI PUSH1 0x0 DUP1 REVERT JUMPDEST POP PUSH2 0x1CF PUSH2 0x50C JUMP JUMPDEST CALLVALUE DUP1 ISZERO PUSH2 0x236 JUMPI PUSH1 0x0 DUP1 REVERT JUMPDEST POP PUSH2 0x23F PUSH2 0x51B JUMP JUMPDEST PUSH1 0x40 DUP1 MLOAD SWAP2 ISZERO ISZERO DUP3 MSTORE MLOAD SWAP1 DUP2 SWAP1 SUB PUSH1 0x20 ADD SWAP1 RETURN JUMPDEST CALLVALUE DUP1 ISZERO PUSH2 0x25F JUMPI PUSH1 0x0 DUP1 REVERT JUMPDEST POP PUSH2 0x191 PUSH2 0x52C JUMP JUMPDEST CALLVALUE DUP1 ISZERO PUSH2 0x274 JUMPI PUSH1 0x0 DUP1 REVERT JUMPDEST POP PUSH2 0x191 PUSH1 0x4 DUP1 CALLDATASIZE SUB PUSH1 0x20 DUP2 LT ISZERO PUSH2 0x28B JUMPI PUSH1 0x0 DUP1 REVERT JUMPDEST POP CALLDATALOAD PUSH1 0x1 PUSH1 0x1 PUSH1 0xA0 SHL SUB AND PUSH2 0x644 JUMP JUMPDEST CALLVALUE DUP1 ISZERO PUSH2 0x2A7 JUMPI PUSH1 0x0 DUP1 REVERT JUMPDEST POP PUSH2 0x1CF PUSH2 0x71F JUMP JUMPDEST CALLVALUE DUP1 ISZERO PUSH2 0x2BC JUMPI PUSH1 0x0 DUP1 REVERT JUMPDEST POP PUSH2 0x2C5 PUSH2 0x72E JUMP JUMPDEST PUSH1 0x40 DUP1 MLOAD PUSH1 0xFF SWAP1 SWAP3 AND DUP3 MSTORE MLOAD SWAP1 DUP2 SWAP1 SUB PUSH1 0x20 ADD SWAP1 RETURN JUMPDEST CALLVALUE DUP1 ISZERO PUSH2 0x2E7 JUMPI PUSH1 0x0 DUP1 REVERT JUMPDEST POP PUSH2 0x191 PUSH1 0x4 DUP1 CALLDATASIZE SUB PUSH1 0x20 DUP2 LT ISZERO PUSH2 0x2FE JUMPI PUSH1 0x0 DUP1 REVERT JUMPDEST POP CALLDATALOAD PUSH1 0x1 PUSH1 0x1 PUSH1 0xA0 SHL SUB AND PUSH2 0x71C JUMP JUMPDEST CALLVALUE DUP1 ISZERO PUSH2 0x31A JUMPI PUSH1 0x0 DUP1 REVERT JUMPDEST POP PUSH2 0x191 PUSH1 0x4 DUP1 CALLDATASIZE SUB PUSH1 0x20 DUP2 LT ISZERO PUSH2 0x331 JUMPI PUSH1 0x0 DUP1 REVERT JUMPDEST POP CALLDATALOAD PUSH1 0x1 PUSH1 0x1 PUSH1 0xA0 SHL SUB AND PUSH2 0x73E JUMP JUMPDEST PUSH1 0x0 DUP2 EXTCODEHASH PUSH32 0xC5D2460186F7233C927E7DB2DCC703C0E500B653CA82273B7BFAD8045D85A470 DUP2 DUP2 EQ DUP1 ISZERO SWAP1 PUSH2 0x375 JUMPI POP DUP2 ISZERO ISZERO JUMPDEST SWAP5 SWAP4 POP POP POP POP JUMP JUMPDEST PUSH2 0x385 PUSH2 0x51B JUMP JUMPDEST PUSH2 0x38E JUMPI PUSH1 0x0 DUP1 REVERT JUMPDEST PUSH1 0x2 DUP1 SLOAD PUSH1 0xFF PUSH1 0xA0 SHL NOT AND PUSH1 0x1 PUSH1 0xA1 SHL OR SWAP1 SSTORE PUSH2 0x3B3 PUSH1 0x1 PUSH1 0x1 PUSH1 0xA0 SHL SUB DUP3 AND PUSH2 0x341 JUMP JUMPDEST PUSH2 0x3BC JUMPI PUSH1 0x0 DUP1 REVERT JUMPDEST PUSH2 0x3C5 DUP2 PUSH2 0x644 JUMP JUMPDEST PUSH2 0x3CF DUP2 DUP3 PUSH2 0x758 JUMP JUMPDEST PUSH1 0x1 SLOAD PUSH2 0x3E4 SWAP1 PUSH1 0x1 PUSH1 0x1 PUSH1 0xA0 SHL SUB AND PUSH2 0x341 JUMP JUMPDEST ISZERO PUSH2 0x3FF JUMPI PUSH1 0x1 SLOAD PUSH2 0x3FF SWAP1 PUSH1 0x1 PUSH1 0x1 PUSH1 0xA0 SHL SUB AND DUP3 PUSH2 0x758 JUMP JUMPDEST PUSH1 0x1 DUP1 SLOAD PUSH1 0x2 DUP1 SLOAD PUSH1 0x1 PUSH1 0x1 PUSH1 0xA0 SHL SUB DUP1 DUP5 AND PUSH1 0x1 PUSH1 0x1 PUSH1 0xA0 SHL SUB NOT SWAP3 DUP4 AND OR SWAP1 SWAP3 SSTORE SWAP1 SWAP2 AND SWAP1 DUP4 AND OR SWAP1 SSTORE PUSH2 0x433 PUSH2 0x844 JUMP JUMPDEST PUSH1 0x2 SLOAD PUSH1 0x40 DUP1 MLOAD CALLER DUP2 MSTORE SWAP1 MLOAD PUSH1 0x1 PUSH1 0x1 PUSH1 0xA0 SHL SUB DUP1 DUP6 AND SWAP4 AND SWAP2 PUSH32 0x354BD4B6EB65D64E6C79C53FA4F983A5E6BEC4824CE4627C71BE0B2722F4917E SWAP2 SWAP1 DUP2 SWAP1 SUB PUSH1 0x20 ADD SWAP1 LOG3 POP PUSH1 0x2 DUP1 SLOAD PUSH1 0xFF PUSH1 0xA0 SHL NOT AND PUSH1 0x1 PUSH1 0xA0 SHL OR SWAP1 SSTORE JUMP JUMPDEST PUSH1 0x2 SWAP1 JUMP JUMPDEST PUSH1 0x2 SLOAD PUSH1 0x1 PUSH1 0x1 PUSH1 0xA0 SHL SUB AND DUP2 JUMP JUMPDEST PUSH1 0x1 SLOAD PUSH1 0x1 PUSH1 0x1 PUSH1 0xA0 SHL SUB AND SWAP1 JUMP JUMPDEST PUSH2 0x4B9 PUSH2 0x51B JUMP JUMPDEST PUSH2 0x4C2 JUMPI PUSH1 0x0 DUP1 REVERT JUMPDEST PUSH1 0x0 DUP1 SLOAD PUSH1 0x40 MLOAD PUSH1 0x1 PUSH1 0x1 PUSH1 0xA0 SHL SUB SWAP1 SWAP2 AND SWAP1 PUSH32 0x8BE0079C531659141344CD1FD0A4F28419497F9722A3DAAFE3B4186F6B6457E0 SWAP1 DUP4 SWAP1 LOG3 PUSH1 0x0 DUP1 SLOAD PUSH1 0x1 PUSH1 0x1 PUSH1 0xA0 SHL SUB NOT AND SWAP1 SSTORE JUMP JUMPDEST PUSH1 0x0 SLOAD PUSH1 0x1 PUSH1 0x1 PUSH1 0xA0 SHL SUB AND SWAP1 JUMP JUMPDEST PUSH1 0x0 SLOAD PUSH1 0x1 PUSH1 0x1 PUSH1 0xA0 SHL SUB AND CALLER EQ SWAP1 JUMP JUMPDEST PUSH2 0x534 PUSH2 0x51B JUMP JUMPDEST PUSH2 0x53D JUMPI PUSH1 0x0 DUP1 REVERT JUMPDEST PUSH1 0x2 DUP1 SLOAD PUSH1 0xFF PUSH1 0xA0 SHL NOT AND PUSH1 0x1 PUSH1 0xA1 SHL OR SWAP1 DUP2 SWAP1 SSTORE PUSH2 0x564 SWAP1 PUSH1 0x1 PUSH1 0x1 PUSH1 0xA0 SHL SUB AND PUSH2 0x341 JUMP JUMPDEST PUSH2 0x56D JUMPI PUSH1 0x0 DUP1 REVERT JUMPDEST PUSH1 0x2 SLOAD PUSH1 0x1 SLOAD PUSH1 0x40 DUP1 MLOAD CALLER DUP2 MSTORE SWAP1 MLOAD PUSH1 0x1 PUSH1 0x1 PUSH1 0xA0 SHL SUB SWAP4 DUP5 AND SWAP4 SWAP3 SWAP1 SWAP3 AND SWAP2 PUSH32 0x86E04D1DE380D22833CB4409F3EE7C6AD818A8D8387A83B6371F5CE018DDC154 SWAP2 DUP2 SWAP1 SUB PUSH1 0x20 ADD SWAP1 LOG3 PUSH1 0x2 SLOAD PUSH2 0x5CC SWAP1 PUSH1 0x1 PUSH1 0x1 PUSH1 0xA0 SHL SUB AND PUSH2 0x644 JUMP JUMPDEST PUSH1 0x1 SLOAD PUSH2 0x5E1 SWAP1 PUSH1 0x1 PUSH1 0x1 PUSH1 0xA0 SHL SUB AND PUSH2 0x341 JUMP JUMPDEST ISZERO PUSH2 0x602 JUMPI PUSH1 0x2 SLOAD PUSH1 0x1 SLOAD PUSH2 0x602 SWAP2 PUSH1 0x1 PUSH1 0x1 PUSH1 0xA0 SHL SUB SWAP1 DUP2 AND SWAP2 AND PUSH2 0x758 JUMP JUMPDEST PUSH1 0x2 DUP1 SLOAD PUSH1 0x1 DUP1 SLOAD PUSH1 0x1 PUSH1 0x1 PUSH1 0xA0 SHL SUB NOT SWAP1 DUP2 AND PUSH1 0x1 PUSH1 0x1 PUSH1 0xA0 SHL SUB DUP5 AND OR SWAP1 SWAP2 SSTORE AND SWAP1 SSTORE PUSH2 0x62F PUSH2 0x844 JUMP JUMPDEST PUSH1 0x2 DUP1 SLOAD PUSH1 0xFF PUSH1 0xA0 SHL NOT AND PUSH1 0x1 PUSH1 0xA0 SHL OR SWAP1 SSTORE JUMP JUMPDEST PUSH1 0x2 DUP1 SLOAD PUSH1 0x1 PUSH1 0xA0 SHL SWAP1 DIV PUSH1 0xFF AND EQ PUSH2 0x65C JUMPI PUSH1 0x0 DUP1 REVERT JUMPDEST PUSH2 0x664 PUSH2 0x50C JUMP JUMPDEST PUSH1 0x1 PUSH1 0x1 PUSH1 0xA0 SHL SUB AND PUSH2 0x67E DUP3 PUSH4 0x8DA5CB5B PUSH1 0xE0 SHL PUSH2 0x92A JUMP JUMPDEST PUSH1 0x1 PUSH1 0x1 PUSH1 0xA0 SHL SUB AND EQ PUSH2 0x691 JUMPI PUSH1 0x0 DUP1 REVERT JUMPDEST PUSH1 0x1 SLOAD PUSH1 0x1 PUSH1 0x1 PUSH1 0xA0 SHL SUB AND PUSH2 0x6AE DUP3 PUSH4 0x6A5C1CC9 PUSH1 0xE1 SHL PUSH2 0x92A JUMP JUMPDEST PUSH1 0x1 PUSH1 0x1 PUSH1 0xA0 SHL SUB AND EQ PUSH2 0x6C1 JUMPI PUSH1 0x0 DUP1 REVERT JUMPDEST PUSH1 0x2 SLOAD PUSH1 0x1 PUSH1 0x1 PUSH1 0xA0 SHL SUB AND PUSH2 0x6DE DUP3 PUSH4 0x9659A23 PUSH1 0xE3 SHL PUSH2 0x92A JUMP JUMPDEST PUSH1 0x1 PUSH1 0x1 PUSH1 0xA0 SHL SUB AND EQ PUSH2 0x6F1 JUMPI PUSH1 0x0 DUP1 REVERT JUMPDEST PUSH1 0x2 SLOAD PUSH1 0x1 PUSH1 0xA0 SHL SWAP1 DIV PUSH1 0xFF AND PUSH2 0x70F DUP3 PUSH4 0xE38A303B PUSH1 0xE0 SHL PUSH2 0x92A JUMP JUMPDEST PUSH1 0xFF AND EQ PUSH2 0x71C JUMPI PUSH1 0x0 DUP1 REVERT JUMPDEST POP JUMP JUMPDEST PUSH1 0x1 SLOAD PUSH1 0x1 PUSH1 0x1 PUSH1 0xA0 SHL SUB AND DUP2 JUMP JUMPDEST PUSH1 0x2 SLOAD PUSH1 0x1 PUSH1 0xA0 SHL SWAP1 DIV PUSH1 0xFF AND DUP2 JUMP JUMPDEST PUSH2 0x746 PUSH2 0x51B JUMP JUMPDEST PUSH2 0x74F JUMPI PUSH1 0x0 DUP1 REVERT JUMPDEST PUSH2 0x71C DUP2 PUSH2 0x943 JUMP JUMPDEST PUSH1 0x40 DUP1 MLOAD PUSH1 0x1 PUSH1 0x1 PUSH1 0xA0 SHL SUB DUP4 DUP2 AND PUSH1 0x24 DUP1 DUP5 ADD SWAP2 SWAP1 SWAP2 MSTORE DUP4 MLOAD DUP1 DUP5 SUB SWAP1 SWAP2 ADD DUP2 MSTORE PUSH1 0x44 SWAP1 SWAP3 ADD DUP4 MSTORE PUSH1 0x20 DUP3 ADD DUP1 MLOAD PUSH1 0x1 PUSH1 0x1 PUSH1 0xE0 SHL SUB AND PUSH4 0xB9626D21 PUSH1 0xE0 SHL OR DUP2 MSTORE SWAP3 MLOAD DUP3 MLOAD PUSH1 0x0 SWAP5 SWAP3 DUP8 AND SWAP4 SWAP3 DUP3 SWAP2 DUP1 DUP4 DUP4 JUMPDEST PUSH1 0x20 DUP4 LT PUSH2 0x7CC JUMPI DUP1 MLOAD DUP3 MSTORE PUSH1 0x1F NOT SWAP1 SWAP3 ADD SWAP2 PUSH1 0x20 SWAP2 DUP3 ADD SWAP2 ADD PUSH2 0x7AD JUMP JUMPDEST PUSH1 0x1 DUP4 PUSH1 0x20 SUB PUSH2 0x100 EXP SUB DUP1 NOT DUP3 MLOAD AND DUP2 DUP5 MLOAD AND DUP1 DUP3 OR DUP6 MSTORE POP POP POP POP POP POP SWAP1 POP ADD SWAP2 POP POP PUSH1 0x0 PUSH1 0x40 MLOAD DUP1 DUP4 SUB DUP2 DUP6 GAS DELEGATECALL SWAP2 POP POP RETURNDATASIZE DUP1 PUSH1 0x0 DUP2 EQ PUSH2 0x82C JUMPI PUSH1 0x40 MLOAD SWAP2 POP PUSH1 0x1F NOT PUSH1 0x3F RETURNDATASIZE ADD AND DUP3 ADD PUSH1 0x40 MSTORE RETURNDATASIZE DUP3 MSTORE RETURNDATASIZE PUSH1 0x0 PUSH1 0x20 DUP5 ADD RETURNDATACOPY PUSH2 0x831 JUMP JUMPDEST PUSH1 0x60 SWAP2 POP JUMPDEST POP POP SWAP1 POP DUP1 PUSH2 0x83F JUMPI PUSH1 0x0 DUP1 REVERT JUMPDEST POP POP POP JUMP JUMPDEST PUSH1 0x1 SLOAD PUSH1 0x40 DUP1 MLOAD PUSH1 0x1 PUSH1 0x1 PUSH1 0xA0 SHL SUB SWAP1 SWAP3 AND PUSH1 0x24 DUP1 DUP5 ADD DUP3 SWAP1 MSTORE DUP3 MLOAD DUP1 DUP6 SUB SWAP1 SWAP2 ADD DUP2 MSTORE PUSH1 0x44 SWAP1 SWAP4 ADD DUP3 MSTORE PUSH1 0x20 DUP4 ADD DUP1 MLOAD PUSH1 0x1 PUSH1 0x1 PUSH1 0xE0 SHL SUB AND PUSH4 0x746E6683 PUSH1 0xE1 SHL OR DUP2 MSTORE SWAP2 MLOAD DUP4 MLOAD PUSH1 0x0 SWAP5 SWAP3 SWAP4 DUP3 SWAP2 DUP1 DUP4 DUP4 JUMPDEST PUSH1 0x20 DUP4 LT PUSH2 0x8B7 JUMPI DUP1 MLOAD DUP3 MSTORE PUSH1 0x1F NOT SWAP1 SWAP3 ADD SWAP2 PUSH1 0x20 SWAP2 DUP3 ADD SWAP2 ADD PUSH2 0x898 JUMP JUMPDEST PUSH1 0x1 DUP4 PUSH1 0x20 SUB PUSH2 0x100 EXP SUB DUP1 NOT DUP3 MLOAD AND DUP2 DUP5 MLOAD AND DUP1 DUP3 OR DUP6 MSTORE POP POP POP POP POP POP SWAP1 POP ADD SWAP2 POP POP PUSH1 0x0 PUSH1 0x40 MLOAD DUP1 DUP4 SUB DUP2 DUP6 GAS DELEGATECALL SWAP2 POP POP RETURNDATASIZE DUP1 PUSH1 0x0 DUP2 EQ PUSH2 0x917 JUMPI PUSH1 0x40 MLOAD SWAP2 POP PUSH1 0x1F NOT PUSH1 0x3F RETURNDATASIZE ADD AND DUP3 ADD PUSH1 0x40 MSTORE RETURNDATASIZE DUP3 MSTORE RETURNDATASIZE PUSH1 0x0 PUSH1 0x20 DUP5 ADD RETURNDATACOPY PUSH2 0x91C JUMP JUMPDEST PUSH1 0x60 SWAP2 POP JUMPDEST POP POP SWAP1 POP DUP1 PUSH2 0x71C JUMPI PUSH1 0x0 DUP1 REVERT JUMPDEST PUSH1 0x0 DUP1 PUSH2 0x93A DUP5 DUP5 DUP4 DUP1 DUP1 PUSH2 0x9B1 JUMP JUMPDEST MLOAD SWAP5 SWAP4 POP POP POP POP JUMP JUMPDEST PUSH1 0x1 PUSH1 0x1 PUSH1 0xA0 SHL SUB DUP2 AND PUSH2 0x956 JUMPI PUSH1 0x0 DUP1 REVERT JUMPDEST PUSH1 0x0 DUP1 SLOAD PUSH1 0x40 MLOAD PUSH1 0x1 PUSH1 0x1 PUSH1 0xA0 SHL SUB DUP1 DUP6 AND SWAP4 SWAP3 AND SWAP2 PUSH32 0x8BE0079C531659141344CD1FD0A4F28419497F9722A3DAAFE3B4186F6B6457E0 SWAP2 LOG3 PUSH1 0x0 DUP1 SLOAD PUSH1 0x1 PUSH1 0x1 PUSH1 0xA0 SHL SUB NOT AND PUSH1 0x1 PUSH1 0x1 PUSH1 0xA0 SHL SUB SWAP3 SWAP1 SWAP3 AND SWAP2 SWAP1 SWAP2 OR SWAP1 SSTORE JUMP JUMPDEST PUSH1 0x40 MLOAD DUP5 DUP2 MSTORE DUP4 ISZERO PUSH2 0x9C4 JUMPI DUP3 PUSH1 0x4 DUP3 ADD MSTORE JUMPDEST PUSH1 0x1 DUP5 GT ISZERO PUSH2 0x9D4 JUMPI DUP2 PUSH1 0x24 DUP3 ADD MSTORE JUMPDEST PUSH1 0x0 DUP1 DUP6 PUSH1 0x20 MUL PUSH1 0x4 ADD DUP4 DUP10 GAS DELEGATECALL DUP1 ISZERO PUSH2 0x9F2 JUMPI RETURNDATASIZE PUSH1 0x0 DUP4 RETURNDATACOPY PUSH2 0x9F7 JUMP JUMPDEST PUSH1 0x0 DUP3 REVERT JUMPDEST POP SWAP6 SWAP5 POP POP POP POP POP JUMP INVALID LOG2 PUSH5 0x6970667358 0x22 SLT KECCAK256 SWAP12 PUSH5 0x26BAD3B688 0xDD 0xAE 0xDB SDIV 0xEE 0x2C NUMBER 0xD2 0x2E 0xCC SWAP14 0xCA BYTE PUSH24 0x937A2FAB1682B6091C7E6364736F6C634300060700330000 ",
  "sha1": "19aa38da034655ff1692f2af6c852fbd45d72889",
  "source": "pragma solidity ^0.6.1;\n\n\nimport \"./Upgradeable.sol\";\nimport \"zeppelin/utils/Address.sol\";\n\n\n/**\n* @notice ERC897 - ERC DelegateProxy\n*/\ninterface ERCProxy {\n    function proxyType() external pure returns (uint256);\n    function implementation() external view returns (address);\n}\n\n\n/**\n* @notice Proxying requests to other contracts.\n* Client should use ABI of real contract and address of this contract\n*/\ncontract Dispatcher is Upgradeable, ERCProxy {\n    using Address for address;\n\n    event Upgraded(address indexed from, address indexed to, address owner);\n    event RolledBack(address indexed from, address indexed to, address owner);\n\n    /**\n    * @dev Set upgrading status before and after operations\n    */\n    modifier upgrading()\n    {\n        isUpgrade = UPGRADE_TRUE;\n        _;\n        isUpgrade = UPGRADE_FALSE;\n    }\n\n    /**\n    * @param _target Target contract address\n    */\n    constructor(address _target) public upgrading {\n        require(_target.isContract());\n        // Checks that target contract inherits Dispatcher state\n        verifyState(_target);\n        // `verifyState` must work with its contract\n        verifyUpgradeableState(_target, _target);\n        target = _target;\n        finishUpgrade();\n        emit Upgraded(address(0), _target, msg.sender);\n    }\n\n    //------------------------ERC897------------------------\n    /**\n     * @notice ERC897, whether it is a forwarding (1) or an upgradeable (2) proxy\n     */\n    function proxyType() external pure override returns (uint256) {\n        return 2;\n    }\n\n    /**\n     * @notice ERC897, gets the address of the implementation where every call will be delegated\n     */\n    function implementation() external view override returns (address) {\n        return target;\n    }\n    //------------------------------------------------------------\n\n    /**\n    * @notice Verify new contract storage and upgrade target\n    * @param _target New target contract address\n    */\n    function upgrade(address _target) public onlyOwner upgrading {\n        require(_target.isContract());\n        // Checks that target contract has \"correct\" (as much as possible) state layout\n        verifyState(_target);\n        //`verifyState` must work with its contract\n        verifyUpgradeableState(_target, _target);\n        if (target.isContract()) {\n            verifyUpgradeableState(target, _target);\n        }\n        previousTarget = target;\n        target = _target;\n        finishUpgrade();\n        emit Upgraded(previousTarget, _target, msg.sender);\n    }\n\n    /**\n    * @notice Rollback to previous target\n    * @dev Test storage carefully before upgrade again after rollback\n    */\n    function rollback() public onlyOwner upgrading {\n        require(previousTarget.isContract());\n        emit RolledBack(target, previousTarget, msg.sender);\n        // should be always true because layout previousTarget -> target was already checked\n        // but `verifyState` is not 100% accurate so check again\n        verifyState(previousTarget);\n        if (target.isContract()) {\n            verifyUpgradeableState(previousTarget, target);\n        }\n        target = previousTarget;\n        previousTarget = address(0);\n        finishUpgrade();\n    }\n\n    /**\n    * @dev Call verifyState method for Upgradeable contract\n    */\n    function verifyUpgradeableState(address _from, address _to) private {\n        (bool callSuccess,) = _from.delegatecall(abi.encodeWithSelector(this.verifyState.selector, _to));\n        require(callSuccess);\n    }\n\n    /**\n    * @dev Call finishUpgrade method from the Upgradeable contract\n    */\n    function finishUpgrade() private {\n        (bool callSuccess,) = target.delegatecall(abi.encodeWithSelector(this.finishUpgrade.selector, target));\n        require(callSuccess);\n    }\n\n    function verifyState(address _testTarget) public override onlyWhileUpgrading {\n        //checks equivalence accessing state through new contract and current storage\n        require(address(uint160(delegateGet(_testTarget, this.owner.selector))) == owner());\n        require(address(uint160(delegateGet(_testTarget, this.target.selector))) == target);\n        require(address(uint160(delegateGet(_testTarget, this.previousTarget.selector))) == previousTarget);\n        require(uint8(delegateGet(_testTarget, this.isUpgrade.selector)) == isUpgrade);\n    }\n\n    /**\n    * @dev Override function using empty code because no reason to call this function in Dispatcher\n    */\n    function finishUpgrade(address) public override {}\n\n    /**\n    * @dev Fallback function send all requests to the target contract\n    */\n    fallback() external payable {\n        assert(target.isContract());\n        // execute requested function from target contract using storage of the dispatcher\n        (bool callSuccess,) = target.delegatecall(msg.data);\n        if (callSuccess) {\n            // copy result of the request to the return data\n            // we can use the second return value from `delegatecall` (bytes memory)\n            // but it will consume a little more gas\n            assembly {\n                returndatacopy(0x0, 0x0, returndatasize())\n                return(0x0, returndatasize())\n            }\n        } else {\n            revert();\n        }\n    }\n\n}\n",
  "sourcePath": "../../nucypher/blockchain/eth/sol/source/contracts/proxy/Dispatcher.sol",
  "type": "contract"
}