{
  "abi": [
    {
      "inputs": [
        {
          "internalType": "uint8",
          "name": "_required",
          "type": "uint8"
        },
        {
          "internalType": "address[]",
          "name": "_owners",
          "type": "address[]"
        }
      ],
      "stateMutability": "nonpayable",
      "type": "constructor"
    },
    {
      "anonymous": false,
      "inputs": [
        {
          "indexed": true,
          "internalType": "address",
          "name": "sender",
          "type": "address"
        },
        {
          "indexed": true,
          "internalType": "uint256",
          "name": "nonce",
          "type": "uint256"
        },
        {
          "indexed": true,
          "internalType": "address",
          "name": "destination",
          "type": "address"
        },
        {
          "indexed": false,
          "internalType": "uint256",
          "name": "value",
          "type": "uint256"
        }
      ],
      "name": "Executed",
      "type": "event"
    },
    {
      "anonymous": false,
      "inputs": [
        {
          "indexed": true,
          "internalType": "address",
          "name": "owner",
          "type": "address"
        }
      ],
      "name": "OwnerAdded",
      "type": "event"
    },
    {
      "anonymous": false,
      "inputs": [
        {
          "indexed": true,
          "internalType": "address",
          "name": "owner",
          "type": "address"
        }
      ],
      "name": "OwnerRemoved",
      "type": "event"
    },
    {
      "anonymous": false,
      "inputs": [
        {
          "indexed": false,
          "internalType": "uint16",
          "name": "required",
          "type": "uint16"
        }
      ],
      "name": "RequirementChanged",
      "type": "event"
    },
    {
      "stateMutability": "payable",
      "type": "fallback"
    },
    {
      "inputs": [],
      "name": "MAX_OWNER_COUNT",
      "outputs": [
        {
          "internalType": "uint256",
          "name": "",
          "type": "uint256"
        }
      ],
      "stateMutability": "view",
      "type": "function"
    },
    {
      "inputs": [
        {
          "internalType": "address",
          "name": "_owner",
          "type": "address"
        }
      ],
      "name": "addOwner",
      "outputs": [],
      "stateMutability": "nonpayable",
      "type": "function"
    },
    {
      "inputs": [
        {
          "internalType": "uint8",
          "name": "_required",
          "type": "uint8"
        }
      ],
      "name": "changeRequirement",
      "outputs": [],
      "stateMutability": "nonpayable",
      "type": "function"
    },
    {
      "inputs": [
        {
          "internalType": "uint8[]",
          "name": "_sigV",
          "type": "uint8[]"
        },
        {
          "internalType": "bytes32[]",
          "name": "_sigR",
          "type": "bytes32[]"
        },
        {
          "internalType": "bytes32[]",
          "name": "_sigS",
          "type": "bytes32[]"
        },
        {
          "internalType": "address",
          "name": "_destination",
          "type": "address"
        },
        {
          "internalType": "uint256",
          "name": "_value",
          "type": "uint256"
        },
        {
          "internalType": "bytes",
          "name": "_data",
          "type": "bytes"
        }
      ],
      "name": "execute",
      "outputs": [],
      "stateMutability": "nonpayable",
      "type": "function"
    },
    {
      "inputs": [],
      "name": "getNumberOfOwners",
      "outputs": [
        {
          "internalType": "uint256",
          "name": "",
          "type": "uint256"
        }
      ],
      "stateMutability": "view",
      "type": "function"
    },
    {
      "inputs": [
        {
          "internalType": "address",
          "name": "_sender",
          "type": "address"
        },
        {
          "internalType": "address",
          "name": "_destination",
          "type": "address"
        },
        {
          "internalType": "uint256",
          "name": "_value",
          "type": "uint256"
        },
        {
          "internalType": "bytes",
          "name": "_data",
          "type": "bytes"
        },
        {
          "internalType": "uint256",
          "name": "_nonce",
          "type": "uint256"
        }
      ],
      "name": "getUnsignedTransactionHash",
      "outputs": [
        {
          "internalType": "bytes32",
          "name": "",
          "type": "bytes32"
        }
      ],
      "stateMutability": "view",
      "type": "function"
    },
    {
      "inputs": [
        {
          "internalType": "address",
          "name": "",
          "type": "address"
        }
      ],
      "name": "isOwner",
      "outputs": [
        {
          "internalType": "bool",
          "name": "",
          "type": "bool"
        }
      ],
      "stateMutability": "view",
      "type": "function"
    },
    {
      "inputs": [],
      "name": "nonce",
      "outputs": [
        {
          "internalType": "uint256",
          "name": "",
          "type": "uint256"
        }
      ],
      "stateMutability": "view",
      "type": "function"
    },
    {
      "inputs": [
        {
          "internalType": "uint256",
          "name": "",
          "type": "uint256"
        }
      ],
      "name": "owners",
      "outputs": [
        {
          "internalType": "address",
          "name": "",
          "type": "address"
        }
      ],
      "stateMutability": "view",
      "type": "function"
    },
    {
      "inputs": [
        {
          "internalType": "address",
          "name": "_owner",
          "type": "address"
        }
      ],
      "name": "removeOwner",
      "outputs": [],
      "stateMutability": "nonpayable",
      "type": "function"
    },
    {
      "inputs": [],
      "name": "required",
      "outputs": [
        {
          "internalType": "uint8",
          "name": "",
          "type": "uint8"
        }
      ],
      "stateMutability": "view",
      "type": "function"
    }
  ],
  "bytecode": "60806040523480156200001157600080fd5b5060405162000d9038038062000d90833981810160405260408110156200003757600080fd5b8151602083018051604051929492938301929190846401000000008211156200005f57600080fd5b9083019060208201858111156200007557600080fd5b82518660208202830111640100000000821117156200009357600080fd5b82525081516020918201928201910280838360005b83811015620000c2578181015183820152602001620000a8565b505050509050016040525050506032815111158015620000e6575080518260ff1611155b8015620000f6575060008260ff16115b6200010057600080fd5b60005b8151811015620001945760008282815181106200011c57fe5b6020908102919091018101516001600160a01b0381166000908152600290925260409091205490915060ff161580156200015e57506001600160a01b03811615155b6200016857600080fd5b6001600160a01b03166000908152600260205260409020805460ff191660019081179091550162000103565b508051620001aa906003906020840190620001c6565b50506001805460ff191660ff929092169190911790556200025a565b8280548282559060005260206000209081019282156200021e579160200282015b828111156200021e57825182546001600160a01b0319166001600160a01b03909116178255602090920191600190910190620001e7565b506200022c92915062000230565b5090565b6200025791905b808211156200022c5780546001600160a01b031916815560010162000237565b90565b610b26806200026a6000396000f3fe60806040526004361061009c5760003560e01c8063affed0e011610064578063affed0e014610276578063b85e5b741461028b578063d74f8edd146102a0578063dc8452cd146102b5578063f12d394f146102e0578063fe9abc7c146104605761009c565b8063025e7c271461009e578063173825d9146100e457806325747dc3146101175780632f54bf6e146101fc5780637065cb4814610243575b005b3480156100aa57600080fd5b506100c8600480360360208110156100c157600080fd5b503561048d565b604080516001600160a01b039092168252519081900360200190f35b3480156100f057600080fd5b5061009c6004803603602081101561010757600080fd5b50356001600160a01b03166104b4565b34801561012357600080fd5b506101ea600480360360a081101561013a57600080fd5b6001600160a01b03823581169260208101359091169160408201359190810190608081016060820135600160201b81111561017457600080fd5b82018360208201111561018657600080fd5b803590602001918460018302840111600160201b831117156101a757600080fd5b91908080601f0160208091040260200160405190810160405280939291908181526020018383808284376000920191909152509295505091359250610632915050565b60408051918252519081900360200190f35b34801561020857600080fd5b5061022f6004803603602081101561021f57600080fd5b50356001600160a01b0316610707565b604080519115158252519081900360200190f35b34801561024f57600080fd5b5061009c6004803603602081101561026657600080fd5b50356001600160a01b031661071c565b34801561028257600080fd5b506101ea6107fc565b34801561029757600080fd5b506101ea610802565b3480156102ac57600080fd5b506101ea610808565b3480156102c157600080fd5b506102ca61080d565b6040805160ff9092168252519081900360200190f35b3480156102ec57600080fd5b5061009c600480360360c081101561030357600080fd5b810190602081018135600160201b81111561031d57600080fd5b82018360208201111561032f57600080fd5b803590602001918460208302840111600160201b8311171561035057600080fd5b919390929091602081019035600160201b81111561036d57600080fd5b82018360208201111561037f57600080fd5b803590602001918460208302840111600160201b831117156103a057600080fd5b919390929091602081019035600160201b8111156103bd57600080fd5b8201836020820111156103cf57600080fd5b803590602001918460208302840111600160201b831117156103f057600080fd5b919390926001600160a01b03833516926020810135929190606081019060400135600160201b81111561042257600080fd5b82018360208201111561043457600080fd5b803590602001918460018302840111600160201b8311171561045557600080fd5b509092509050610816565b34801561046c57600080fd5b5061009c6004803603602081101561048357600080fd5b503560ff16610a62565b6003818154811061049a57fe5b6000918252602090912001546001600160a01b0316905081565b3330146104c057600080fd5b60015460035460ff9091161080156104f057506001600160a01b03811660009081526002602052604090205460ff165b6104f957600080fd5b6001600160a01b0381166000908152600260205260408120805460ff191690555b600354600019018110156105cd57816001600160a01b03166003828154811061053f57fe5b6000918252602090912001546001600160a01b031614156105c55760038054600019810190811061056c57fe5b600091825260209091200154600380546001600160a01b03909216918390811061059257fe5b9060005260206000200160006101000a8154816001600160a01b0302191690836001600160a01b031602179055506105cd565b60010161051a565b5060038054806105d957fe5b600082815260208120820160001990810180546001600160a01b03191690559091019091556040516001600160a01b038316917f58619076adf5bb0943d100ef88d52d7c3fd691b19d3a9071b555b651fbf418da91a250565b604051601960f81b602080830182815260006021850181905230606081811b60228801526bffffffffffffffffffffffff198c821b81166036890152908b901b16604a870152605e860189905287519195869491938c938c938c938c938c939092607e909201918501908083835b602083106106bf5780518252601f1990920191602091820191016106a0565b51815160209384036101000a6000190180199092169116179052920193845250604080518085038152938201905282519201919091209e9d5050505050505050505050505050565b60026020526000908152604090205460ff1681565b33301461072857600080fd5b600354603211801561074257506001600160a01b03811615155b801561076757506001600160a01b03811660009081526002602052604090205460ff16155b61077057600080fd5b6001600160a01b038116600081815260026020526040808220805460ff1916600190811790915560038054918201815583527fc2575a0e9e593c00f959f8c92f12db2869c3395a3b0502d05e2516446f71f85b0180546001600160a01b03191684179055517f994a936646fe87ffe4f1e469d3d6aa417d6b855598397f323de5b449f765f0c39190a250565b60005481565b60035490565b603281565b60015460ff1681565b60015460ff16871080159061082a57508685145b801561083557508689145b61083e57600080fd5b600061088333868686868080601f0160208091040260200160405190810160405280939291908181526020018383808284376000920182905250549250610632915050565b90506000805b898110156109815760006001848f8f858181106108a257fe5b9050602002013560ff168e8e868181106108b857fe5b905060200201358d8d878181106108cb57fe5b9050602002013560405160008152602001604052604051808581526020018460ff1660ff1681526020018381526020018281526020019450505050506020604051602081039080840390855afa158015610929573d6000803e3d6000fd5b505050602060405103519050826001600160a01b0316816001600160a01b031611801561096e57506001600160a01b03811660009081526002602052604090205460ff165b61097757600080fd5b9150600101610889565b506000546040805187815290516001600160a01b038916929133917ff5bd825d17fe288739d8d08ef45cea22d549b66160dfca441227cc1e23a458e49181900360200190a46000546109da90600163ffffffff610ad716565b6000819055506000866001600160a01b0316868686604051808383808284376040519201945060009350909150508083038185875af1925050503d8060008114610a40576040519150601f19603f3d011682016040523d82523d6000602084013e610a45565b606091505b5050905080610a5357600080fd5b50505050505050505050505050565b333014610a6e57600080fd5b60035460ff821611801590610a86575060008160ff16115b610a8f57600080fd5b6001805460ff831660ff19909116811790915560408051918252517f168dafe5f579d94207d1614819d41482de1e0a1cce54ab8face74bd3fcd8a38b9181900360200190a150565b600082820183811015610ae957600080fd5b939250505056fea26469706673582212208c4ea12f086ac2bbb4e8862a94b9dbd36d50a5c0642345bfc6d338b3bd6867c164736f6c63430006070033",
  "bytecodeSha1": "3814e0d108289bc8c0941ec34cadfe412afcce24",
  "compiler": {
    "evm_version": "berlin",
    "optimizer": {
      "enabled": true,
      "runs": 200
    },
    "version": "0.6.7"
  },
  "contractName": "MultiSig",
  "language": "Solidity",
  "natspec": {
    "methods": {
      "addOwner(address)": {
        "details": "Transaction has to be sent by `execute` method.",
        "notice": "Allows to add a new owner",
        "params": {
          "_owner": "Address of new owner"
        }
      },
      "changeRequirement(uint8)": {
        "details": "Transaction has to be sent by `execute` method",
        "notice": "Allows to change the number of required signatures",
        "params": {
          "_required": "Number of required signatures"
        }
      },
      "constructor": {
        "params": {
          "_owners": "List of initial owners.",
          "_required": "Number of required signings"
        }
      },
      "execute(uint8[],bytes32[],bytes32[],address,uint256,bytes)": {
        "details": "Note that address recovered from signatures must be strictly increasing",
        "params": {
          "_data": "Call data",
          "_destination": "Destination address",
          "_sigR": "Array of signatures values R",
          "_sigS": "Array of signatures values S",
          "_sigV": "Array of signatures values V",
          "_value": "Amount of ETH to transfer"
        }
      },
      "getNumberOfOwners()": {
        "notice": "Returns the number of owners of this MultiSig"
      },
      "getUnsignedTransactionHash(address,address,uint256,bytes,uint256)": {
        "details": "Follows ERC191 signature scheme: https://github.com/ethereum/EIPs/issues/191",
        "notice": "Get unsigned hash for transaction parameters",
        "params": {
          "_data": "Call data",
          "_destination": "Destination address",
          "_nonce": "Nonce",
          "_sender": "Trustee who will execute the transaction",
          "_value": "Amount of ETH to transfer"
        }
      },
      "removeOwner(address)": {
        "details": "Transaction has to be sent by `execute` method.",
        "notice": "Allows to remove an owner",
        "params": {
          "_owner": "Address of owner"
        }
      }
    },
    "notice": "Multi-signature contract with off-chain signing",
    "title": "MultiSig"
  },
  "opcodes": "PUSH1 0x80 PUSH1 0x40 MSTORE PUSH1 0x4 CALLDATASIZE LT PUSH2 0x9C JUMPI PUSH1 0x0 CALLDATALOAD PUSH1 0xE0 SHR DUP1 PUSH4 0xAFFED0E0 GT PUSH2 0x64 JUMPI DUP1 PUSH4 0xAFFED0E0 EQ PUSH2 0x276 JUMPI DUP1 PUSH4 0xB85E5B74 EQ PUSH2 0x28B JUMPI DUP1 PUSH4 0xD74F8EDD EQ PUSH2 0x2A0 JUMPI DUP1 PUSH4 0xDC8452CD EQ PUSH2 0x2B5 JUMPI DUP1 PUSH4 0xF12D394F EQ PUSH2 0x2E0 JUMPI DUP1 PUSH4 0xFE9ABC7C EQ PUSH2 0x460 JUMPI PUSH2 0x9C JUMP JUMPDEST DUP1 PUSH4 0x25E7C27 EQ PUSH2 0x9E JUMPI DUP1 PUSH4 0x173825D9 EQ PUSH2 0xE4 JUMPI DUP1 PUSH4 0x25747DC3 EQ PUSH2 0x117 JUMPI DUP1 PUSH4 0x2F54BF6E EQ PUSH2 0x1FC JUMPI DUP1 PUSH4 0x7065CB48 EQ PUSH2 0x243 JUMPI JUMPDEST STOP JUMPDEST CALLVALUE DUP1 ISZERO PUSH2 0xAA JUMPI PUSH1 0x0 DUP1 REVERT JUMPDEST POP PUSH2 0xC8 PUSH1 0x4 DUP1 CALLDATASIZE SUB PUSH1 0x20 DUP2 LT ISZERO PUSH2 0xC1 JUMPI PUSH1 0x0 DUP1 REVERT JUMPDEST POP CALLDATALOAD PUSH2 0x48D JUMP JUMPDEST PUSH1 0x40 DUP1 MLOAD PUSH1 0x1 PUSH1 0x1 PUSH1 0xA0 SHL SUB SWAP1 SWAP3 AND DUP3 MSTORE MLOAD SWAP1 DUP2 SWAP1 SUB PUSH1 0x20 ADD SWAP1 RETURN JUMPDEST CALLVALUE DUP1 ISZERO PUSH2 0xF0 JUMPI PUSH1 0x0 DUP1 REVERT JUMPDEST POP PUSH2 0x9C PUSH1 0x4 DUP1 CALLDATASIZE SUB PUSH1 0x20 DUP2 LT ISZERO PUSH2 0x107 JUMPI PUSH1 0x0 DUP1 REVERT JUMPDEST POP CALLDATALOAD PUSH1 0x1 PUSH1 0x1 PUSH1 0xA0 SHL SUB AND PUSH2 0x4B4 JUMP JUMPDEST CALLVALUE DUP1 ISZERO PUSH2 0x123 JUMPI PUSH1 0x0 DUP1 REVERT JUMPDEST POP PUSH2 0x1EA PUSH1 0x4 DUP1 CALLDATASIZE SUB PUSH1 0xA0 DUP2 LT ISZERO PUSH2 0x13A JUMPI PUSH1 0x0 DUP1 REVERT JUMPDEST PUSH1 0x1 PUSH1 0x1 PUSH1 0xA0 SHL SUB DUP3 CALLDATALOAD DUP2 AND SWAP3 PUSH1 0x20 DUP2 ADD CALLDATALOAD SWAP1 SWAP2 AND SWAP2 PUSH1 0x40 DUP3 ADD CALLDATALOAD SWAP2 SWAP1 DUP2 ADD SWAP1 PUSH1 0x80 DUP2 ADD PUSH1 0x60 DUP3 ADD CALLDATALOAD PUSH1 0x1 PUSH1 0x20 SHL DUP2 GT ISZERO PUSH2 0x174 JUMPI PUSH1 0x0 DUP1 REVERT JUMPDEST DUP3 ADD DUP4 PUSH1 0x20 DUP3 ADD GT ISZERO PUSH2 0x186 JUMPI PUSH1 0x0 DUP1 REVERT JUMPDEST DUP1 CALLDATALOAD SWAP1 PUSH1 0x20 ADD SWAP2 DUP5 PUSH1 0x1 DUP4 MUL DUP5 ADD GT PUSH1 0x1 PUSH1 0x20 SHL DUP4 GT OR ISZERO PUSH2 0x1A7 JUMPI PUSH1 0x0 DUP1 REVERT JUMPDEST SWAP2 SWAP1 DUP1 DUP1 PUSH1 0x1F ADD PUSH1 0x20 DUP1 SWAP2 DIV MUL PUSH1 0x20 ADD PUSH1 0x40 MLOAD SWAP1 DUP2 ADD PUSH1 0x40 MSTORE DUP1 SWAP4 SWAP3 SWAP2 SWAP1 DUP2 DUP2 MSTORE PUSH1 0x20 ADD DUP4 DUP4 DUP1 DUP3 DUP5 CALLDATACOPY PUSH1 0x0 SWAP3 ADD SWAP2 SWAP1 SWAP2 MSTORE POP SWAP3 SWAP6 POP POP SWAP2 CALLDATALOAD SWAP3 POP PUSH2 0x632 SWAP2 POP POP JUMP JUMPDEST PUSH1 0x40 DUP1 MLOAD SWAP2 DUP3 MSTORE MLOAD SWAP1 DUP2 SWAP1 SUB PUSH1 0x20 ADD SWAP1 RETURN JUMPDEST CALLVALUE DUP1 ISZERO PUSH2 0x208 JUMPI PUSH1 0x0 DUP1 REVERT JUMPDEST POP PUSH2 0x22F PUSH1 0x4 DUP1 CALLDATASIZE SUB PUSH1 0x20 DUP2 LT ISZERO PUSH2 0x21F JUMPI PUSH1 0x0 DUP1 REVERT JUMPDEST POP CALLDATALOAD PUSH1 0x1 PUSH1 0x1 PUSH1 0xA0 SHL SUB AND PUSH2 0x707 JUMP JUMPDEST PUSH1 0x40 DUP1 MLOAD SWAP2 ISZERO ISZERO DUP3 MSTORE MLOAD SWAP1 DUP2 SWAP1 SUB PUSH1 0x20 ADD SWAP1 RETURN JUMPDEST CALLVALUE DUP1 ISZERO PUSH2 0x24F JUMPI PUSH1 0x0 DUP1 REVERT JUMPDEST POP PUSH2 0x9C PUSH1 0x4 DUP1 CALLDATASIZE SUB PUSH1 0x20 DUP2 LT ISZERO PUSH2 0x266 JUMPI PUSH1 0x0 DUP1 REVERT JUMPDEST POP CALLDATALOAD PUSH1 0x1 PUSH1 0x1 PUSH1 0xA0 SHL SUB AND PUSH2 0x71C JUMP JUMPDEST CALLVALUE DUP1 ISZERO PUSH2 0x282 JUMPI PUSH1 0x0 DUP1 REVERT JUMPDEST POP PUSH2 0x1EA PUSH2 0x7FC JUMP JUMPDEST CALLVALUE DUP1 ISZERO PUSH2 0x297 JUMPI PUSH1 0x0 DUP1 REVERT JUMPDEST POP PUSH2 0x1EA PUSH2 0x802 JUMP JUMPDEST CALLVALUE DUP1 ISZERO PUSH2 0x2AC JUMPI PUSH1 0x0 DUP1 REVERT JUMPDEST POP PUSH2 0x1EA PUSH2 0x808 JUMP JUMPDEST CALLVALUE DUP1 ISZERO PUSH2 0x2C1 JUMPI PUSH1 0x0 DUP1 REVERT JUMPDEST POP PUSH2 0x2CA PUSH2 0x80D JUMP JUMPDEST PUSH1 0x40 DUP1 MLOAD PUSH1 0xFF SWAP1 SWAP3 AND DUP3 MSTORE MLOAD SWAP1 DUP2 SWAP1 SUB PUSH1 0x20 ADD SWAP1 RETURN JUMPDEST CALLVALUE DUP1 ISZERO PUSH2 0x2EC JUMPI PUSH1 0x0 DUP1 REVERT JUMPDEST POP PUSH2 0x9C PUSH1 0x4 DUP1 CALLDATASIZE SUB PUSH1 0xC0 DUP2 LT ISZERO PUSH2 0x303 JUMPI PUSH1 0x0 DUP1 REVERT JUMPDEST DUP2 ADD SWAP1 PUSH1 0x20 DUP2 ADD DUP2 CALLDATALOAD PUSH1 0x1 PUSH1 0x20 SHL DUP2 GT ISZERO PUSH2 0x31D JUMPI PUSH1 0x0 DUP1 REVERT JUMPDEST DUP3 ADD DUP4 PUSH1 0x20 DUP3 ADD GT ISZERO PUSH2 0x32F JUMPI PUSH1 0x0 DUP1 REVERT JUMPDEST DUP1 CALLDATALOAD SWAP1 PUSH1 0x20 ADD SWAP2 DUP5 PUSH1 0x20 DUP4 MUL DUP5 ADD GT PUSH1 0x1 PUSH1 0x20 SHL DUP4 GT OR ISZERO PUSH2 0x350 JUMPI PUSH1 0x0 DUP1 REVERT JUMPDEST SWAP2 SWAP4 SWAP1 SWAP3 SWAP1 SWAP2 PUSH1 0x20 DUP2 ADD SWAP1 CALLDATALOAD PUSH1 0x1 PUSH1 0x20 SHL DUP2 GT ISZERO PUSH2 0x36D JUMPI PUSH1 0x0 DUP1 REVERT JUMPDEST DUP3 ADD DUP4 PUSH1 0x20 DUP3 ADD GT ISZERO PUSH2 0x37F JUMPI PUSH1 0x0 DUP1 REVERT JUMPDEST DUP1 CALLDATALOAD SWAP1 PUSH1 0x20 ADD SWAP2 DUP5 PUSH1 0x20 DUP4 MUL DUP5 ADD GT PUSH1 0x1 PUSH1 0x20 SHL DUP4 GT OR ISZERO PUSH2 0x3A0 JUMPI PUSH1 0x0 DUP1 REVERT JUMPDEST SWAP2 SWAP4 SWAP1 SWAP3 SWAP1 SWAP2 PUSH1 0x20 DUP2 ADD SWAP1 CALLDATALOAD PUSH1 0x1 PUSH1 0x20 SHL DUP2 GT ISZERO PUSH2 0x3BD JUMPI PUSH1 0x0 DUP1 REVERT JUMPDEST DUP3 ADD DUP4 PUSH1 0x20 DUP3 ADD GT ISZERO PUSH2 0x3CF JUMPI PUSH1 0x0 DUP1 REVERT JUMPDEST DUP1 CALLDATALOAD SWAP1 PUSH1 0x20 ADD SWAP2 DUP5 PUSH1 0x20 DUP4 MUL DUP5 ADD GT PUSH1 0x1 PUSH1 0x20 SHL DUP4 GT OR ISZERO PUSH2 0x3F0 JUMPI PUSH1 0x0 DUP1 REVERT JUMPDEST SWAP2 SWAP4 SWAP1 SWAP3 PUSH1 0x1 PUSH1 0x1 PUSH1 0xA0 SHL SUB DUP4 CALLDATALOAD AND SWAP3 PUSH1 0x20 DUP2 ADD CALLDATALOAD SWAP3 SWAP2 SWAP1 PUSH1 0x60 DUP2 ADD SWAP1 PUSH1 0x40 ADD CALLDATALOAD PUSH1 0x1 PUSH1 0x20 SHL DUP2 GT ISZERO PUSH2 0x422 JUMPI PUSH1 0x0 DUP1 REVERT JUMPDEST DUP3 ADD DUP4 PUSH1 0x20 DUP3 ADD GT ISZERO PUSH2 0x434 JUMPI PUSH1 0x0 DUP1 REVERT JUMPDEST DUP1 CALLDATALOAD SWAP1 PUSH1 0x20 ADD SWAP2 DUP5 PUSH1 0x1 DUP4 MUL DUP5 ADD GT PUSH1 0x1 PUSH1 0x20 SHL DUP4 GT OR ISZERO PUSH2 0x455 JUMPI PUSH1 0x0 DUP1 REVERT JUMPDEST POP SWAP1 SWAP3 POP SWAP1 POP PUSH2 0x816 JUMP JUMPDEST CALLVALUE DUP1 ISZERO PUSH2 0x46C JUMPI PUSH1 0x0 DUP1 REVERT JUMPDEST POP PUSH2 0x9C PUSH1 0x4 DUP1 CALLDATASIZE SUB PUSH1 0x20 DUP2 LT ISZERO PUSH2 0x483 JUMPI PUSH1 0x0 DUP1 REVERT JUMPDEST POP CALLDATALOAD PUSH1 0xFF AND PUSH2 0xA62 JUMP JUMPDEST PUSH1 0x3 DUP2 DUP2 SLOAD DUP2 LT PUSH2 0x49A JUMPI INVALID JUMPDEST PUSH1 0x0 SWAP2 DUP3 MSTORE PUSH1 0x20 SWAP1 SWAP2 KECCAK256 ADD SLOAD PUSH1 0x1 PUSH1 0x1 PUSH1 0xA0 SHL SUB AND SWAP1 POP DUP2 JUMP JUMPDEST CALLER ADDRESS EQ PUSH2 0x4C0 JUMPI PUSH1 0x0 DUP1 REVERT JUMPDEST PUSH1 0x1 SLOAD PUSH1 0x3 SLOAD PUSH1 0xFF SWAP1 SWAP2 AND LT DUP1 ISZERO PUSH2 0x4F0 JUMPI POP PUSH1 0x1 PUSH1 0x1 PUSH1 0xA0 SHL SUB DUP2 AND PUSH1 0x0 SWAP1 DUP2 MSTORE PUSH1 0x2 PUSH1 0x20 MSTORE PUSH1 0x40 SWAP1 KECCAK256 SLOAD PUSH1 0xFF AND JUMPDEST PUSH2 0x4F9 JUMPI PUSH1 0x0 DUP1 REVERT JUMPDEST PUSH1 0x1 PUSH1 0x1 PUSH1 0xA0 SHL SUB DUP2 AND PUSH1 0x0 SWAP1 DUP2 MSTORE PUSH1 0x2 PUSH1 0x20 MSTORE PUSH1 0x40 DUP2 KECCAK256 DUP1 SLOAD PUSH1 0xFF NOT AND SWAP1 SSTORE JUMPDEST PUSH1 0x3 SLOAD PUSH1 0x0 NOT ADD DUP2 LT ISZERO PUSH2 0x5CD JUMPI DUP2 PUSH1 0x1 PUSH1 0x1 PUSH1 0xA0 SHL SUB AND PUSH1 0x3 DUP3 DUP2 SLOAD DUP2 LT PUSH2 0x53F JUMPI INVALID JUMPDEST PUSH1 0x0 SWAP2 DUP3 MSTORE PUSH1 0x20 SWAP1 SWAP2 KECCAK256 ADD SLOAD PUSH1 0x1 PUSH1 0x1 PUSH1 0xA0 SHL SUB AND EQ ISZERO PUSH2 0x5C5 JUMPI PUSH1 0x3 DUP1 SLOAD PUSH1 0x0 NOT DUP2 ADD SWAP1 DUP2 LT PUSH2 0x56C JUMPI INVALID JUMPDEST PUSH1 0x0 SWAP2 DUP3 MSTORE PUSH1 0x20 SWAP1 SWAP2 KECCAK256 ADD SLOAD PUSH1 0x3 DUP1 SLOAD PUSH1 0x1 PUSH1 0x1 PUSH1 0xA0 SHL SUB SWAP1 SWAP3 AND SWAP2 DUP4 SWAP1 DUP2 LT PUSH2 0x592 JUMPI INVALID JUMPDEST SWAP1 PUSH1 0x0 MSTORE PUSH1 0x20 PUSH1 0x0 KECCAK256 ADD PUSH1 0x0 PUSH2 0x100 EXP DUP2 SLOAD DUP2 PUSH1 0x1 PUSH1 0x1 PUSH1 0xA0 SHL SUB MUL NOT AND SWAP1 DUP4 PUSH1 0x1 PUSH1 0x1 PUSH1 0xA0 SHL SUB AND MUL OR SWAP1 SSTORE POP PUSH2 0x5CD JUMP JUMPDEST PUSH1 0x1 ADD PUSH2 0x51A JUMP JUMPDEST POP PUSH1 0x3 DUP1 SLOAD DUP1 PUSH2 0x5D9 JUMPI INVALID JUMPDEST PUSH1 0x0 DUP3 DUP2 MSTORE PUSH1 0x20 DUP2 KECCAK256 DUP3 ADD PUSH1 0x0 NOT SWAP1 DUP2 ADD DUP1 SLOAD PUSH1 0x1 PUSH1 0x1 PUSH1 0xA0 SHL SUB NOT AND SWAP1 SSTORE SWAP1 SWAP2 ADD SWAP1 SWAP2 SSTORE PUSH1 0x40 MLOAD PUSH1 0x1 PUSH1 0x1 PUSH1 0xA0 SHL SUB DUP4 AND SWAP2 PUSH32 0x58619076ADF5BB0943D100EF88D52D7C3FD691B19D3A9071B555B651FBF418DA SWAP2 LOG2 POP JUMP JUMPDEST PUSH1 0x40 MLOAD PUSH1 0x19 PUSH1 0xF8 SHL PUSH1 0x20 DUP1 DUP4 ADD DUP3 DUP2 MSTORE PUSH1 0x0 PUSH1 0x21 DUP6 ADD DUP2 SWAP1 MSTORE ADDRESS PUSH1 0x60 DUP2 DUP2 SHL PUSH1 0x22 DUP9 ADD MSTORE PUSH12 0xFFFFFFFFFFFFFFFFFFFFFFFF NOT DUP13 DUP3 SHL DUP2 AND PUSH1 0x36 DUP10 ADD MSTORE SWAP1 DUP12 SWAP1 SHL AND PUSH1 0x4A DUP8 ADD MSTORE PUSH1 0x5E DUP7 ADD DUP10 SWAP1 MSTORE DUP8 MLOAD SWAP2 SWAP6 DUP7 SWAP5 SWAP2 SWAP4 DUP13 SWAP4 DUP13 SWAP4 DUP13 SWAP4 DUP13 SWAP4 DUP13 SWAP4 SWAP1 SWAP3 PUSH1 0x7E SWAP1 SWAP3 ADD SWAP2 DUP6 ADD SWAP1 DUP1 DUP4 DUP4 JUMPDEST PUSH1 0x20 DUP4 LT PUSH2 0x6BF JUMPI DUP1 MLOAD DUP3 MSTORE PUSH1 0x1F NOT SWAP1 SWAP3 ADD SWAP2 PUSH1 0x20 SWAP2 DUP3 ADD SWAP2 ADD PUSH2 0x6A0 JUMP JUMPDEST MLOAD DUP2 MLOAD PUSH1 0x20 SWAP4 DUP5 SUB PUSH2 0x100 EXP PUSH1 0x0 NOT ADD DUP1 NOT SWAP1 SWAP3 AND SWAP2 AND OR SWAP1 MSTORE SWAP3 ADD SWAP4 DUP5 MSTORE POP PUSH1 0x40 DUP1 MLOAD DUP1 DUP6 SUB DUP2 MSTORE SWAP4 DUP3 ADD SWAP1 MSTORE DUP3 MLOAD SWAP3 ADD SWAP2 SWAP1 SWAP2 KECCAK256 SWAP15 SWAP14 POP POP POP POP POP POP POP POP POP POP POP POP POP POP JUMP JUMPDEST PUSH1 0x2 PUSH1 0x20 MSTORE PUSH1 0x0 SWAP1 DUP2 MSTORE PUSH1 0x40 SWAP1 KECCAK256 SLOAD PUSH1 0xFF AND DUP2 JUMP JUMPDEST CALLER ADDRESS EQ PUSH2 0x728 JUMPI PUSH1 0x0 DUP1 REVERT JUMPDEST PUSH1 0x3 SLOAD PUSH1 0x32 GT DUP1 ISZERO PUSH2 0x742 JUMPI POP PUSH1 0x1 PUSH1 0x1 PUSH1 0xA0 SHL SUB DUP2 AND ISZERO ISZERO JUMPDEST DUP1 ISZERO PUSH2 0x767 JUMPI POP PUSH1 0x1 PUSH1 0x1 PUSH1 0xA0 SHL SUB DUP2 AND PUSH1 0x0 SWAP1 DUP2 MSTORE PUSH1 0x2 PUSH1 0x20 MSTORE PUSH1 0x40 SWAP1 KECCAK256 SLOAD PUSH1 0xFF AND ISZERO JUMPDEST PUSH2 0x770 JUMPI PUSH1 0x0 DUP1 REVERT JUMPDEST PUSH1 0x1 PUSH1 0x1 PUSH1 0xA0 SHL SUB DUP2 AND PUSH1 0x0 DUP2 DUP2 MSTORE PUSH1 0x2 PUSH1 0x20 MSTORE PUSH1 0x40 DUP1 DUP3 KECCAK256 DUP1 SLOAD PUSH1 0xFF NOT AND PUSH1 0x1 SWAP1 DUP2 OR SWAP1 SWAP2 SSTORE PUSH1 0x3 DUP1 SLOAD SWAP2 DUP3 ADD DUP2 SSTORE DUP4 MSTORE PUSH32 0xC2575A0E9E593C00F959F8C92F12DB2869C3395A3B0502D05E2516446F71F85B ADD DUP1 SLOAD PUSH1 0x1 PUSH1 0x1 PUSH1 0xA0 SHL SUB NOT AND DUP5 OR SWAP1 SSTORE MLOAD PUSH32 0x994A936646FE87FFE4F1E469D3D6AA417D6B855598397F323DE5B449F765F0C3 SWAP2 SWAP1 LOG2 POP JUMP JUMPDEST PUSH1 0x0 SLOAD DUP2 JUMP JUMPDEST PUSH1 0x3 SLOAD SWAP1 JUMP JUMPDEST PUSH1 0x32 DUP2 JUMP JUMPDEST PUSH1 0x1 SLOAD PUSH1 0xFF AND DUP2 JUMP JUMPDEST PUSH1 0x1 SLOAD PUSH1 0xFF AND DUP8 LT DUP1 ISZERO SWAP1 PUSH2 0x82A JUMPI POP DUP7 DUP6 EQ JUMPDEST DUP1 ISZERO PUSH2 0x835 JUMPI POP DUP7 DUP10 EQ JUMPDEST PUSH2 0x83E JUMPI PUSH1 0x0 DUP1 REVERT JUMPDEST PUSH1 0x0 PUSH2 0x883 CALLER DUP7 DUP7 DUP7 DUP7 DUP1 DUP1 PUSH1 0x1F ADD PUSH1 0x20 DUP1 SWAP2 DIV MUL PUSH1 0x20 ADD PUSH1 0x40 MLOAD SWAP1 DUP2 ADD PUSH1 0x40 MSTORE DUP1 SWAP4 SWAP3 SWAP2 SWAP1 DUP2 DUP2 MSTORE PUSH1 0x20 ADD DUP4 DUP4 DUP1 DUP3 DUP5 CALLDATACOPY PUSH1 0x0 SWAP3 ADD DUP3 SWAP1 MSTORE POP SLOAD SWAP3 POP PUSH2 0x632 SWAP2 POP POP JUMP JUMPDEST SWAP1 POP PUSH1 0x0 DUP1 JUMPDEST DUP10 DUP2 LT ISZERO PUSH2 0x981 JUMPI PUSH1 0x0 PUSH1 0x1 DUP5 DUP16 DUP16 DUP6 DUP2 DUP2 LT PUSH2 0x8A2 JUMPI INVALID JUMPDEST SWAP1 POP PUSH1 0x20 MUL ADD CALLDATALOAD PUSH1 0xFF AND DUP15 DUP15 DUP7 DUP2 DUP2 LT PUSH2 0x8B8 JUMPI INVALID JUMPDEST SWAP1 POP PUSH1 0x20 MUL ADD CALLDATALOAD DUP14 DUP14 DUP8 DUP2 DUP2 LT PUSH2 0x8CB JUMPI INVALID JUMPDEST SWAP1 POP PUSH1 0x20 MUL ADD CALLDATALOAD PUSH1 0x40 MLOAD PUSH1 0x0 DUP2 MSTORE PUSH1 0x20 ADD PUSH1 0x40 MSTORE PUSH1 0x40 MLOAD DUP1 DUP6 DUP2 MSTORE PUSH1 0x20 ADD DUP5 PUSH1 0xFF AND PUSH1 0xFF AND DUP2 MSTORE PUSH1 0x20 ADD DUP4 DUP2 MSTORE PUSH1 0x20 ADD DUP3 DUP2 MSTORE PUSH1 0x20 ADD SWAP5 POP POP POP POP POP PUSH1 0x20 PUSH1 0x40 MLOAD PUSH1 0x20 DUP2 SUB SWAP1 DUP1 DUP5 SUB SWAP1 DUP6 GAS STATICCALL ISZERO DUP1 ISZERO PUSH2 0x929 JUMPI RETURNDATASIZE PUSH1 0x0 DUP1 RETURNDATACOPY RETURNDATASIZE PUSH1 0x0 REVERT JUMPDEST POP POP POP PUSH1 0x20 PUSH1 0x40 MLOAD SUB MLOAD SWAP1 POP DUP3 PUSH1 0x1 PUSH1 0x1 PUSH1 0xA0 SHL SUB AND DUP2 PUSH1 0x1 PUSH1 0x1 PUSH1 0xA0 SHL SUB AND GT DUP1 ISZERO PUSH2 0x96E JUMPI POP PUSH1 0x1 PUSH1 0x1 PUSH1 0xA0 SHL SUB DUP2 AND PUSH1 0x0 SWAP1 DUP2 MSTORE PUSH1 0x2 PUSH1 0x20 MSTORE PUSH1 0x40 SWAP1 KECCAK256 SLOAD PUSH1 0xFF AND JUMPDEST PUSH2 0x977 JUMPI PUSH1 0x0 DUP1 REVERT JUMPDEST SWAP2 POP PUSH1 0x1 ADD PUSH2 0x889 JUMP JUMPDEST POP PUSH1 0x0 SLOAD PUSH1 0x40 DUP1 MLOAD DUP8 DUP2 MSTORE SWAP1 MLOAD PUSH1 0x1 PUSH1 0x1 PUSH1 0xA0 SHL SUB DUP10 AND SWAP3 SWAP2 CALLER SWAP2 PUSH32 0xF5BD825D17FE288739D8D08EF45CEA22D549B66160DFCA441227CC1E23A458E4 SWAP2 DUP2 SWAP1 SUB PUSH1 0x20 ADD SWAP1 LOG4 PUSH1 0x0 SLOAD PUSH2 0x9DA SWAP1 PUSH1 0x1 PUSH4 0xFFFFFFFF PUSH2 0xAD7 AND JUMP JUMPDEST PUSH1 0x0 DUP2 SWAP1 SSTORE POP PUSH1 0x0 DUP7 PUSH1 0x1 PUSH1 0x1 PUSH1 0xA0 SHL SUB AND DUP7 DUP7 DUP7 PUSH1 0x40 MLOAD DUP1 DUP4 DUP4 DUP1 DUP3 DUP5 CALLDATACOPY PUSH1 0x40 MLOAD SWAP3 ADD SWAP5 POP PUSH1 0x0 SWAP4 POP SWAP1 SWAP2 POP POP DUP1 DUP4 SUB DUP2 DUP6 DUP8 GAS CALL SWAP3 POP POP POP RETURNDATASIZE DUP1 PUSH1 0x0 DUP2 EQ PUSH2 0xA40 JUMPI PUSH1 0x40 MLOAD SWAP2 POP PUSH1 0x1F NOT PUSH1 0x3F RETURNDATASIZE ADD AND DUP3 ADD PUSH1 0x40 MSTORE RETURNDATASIZE DUP3 MSTORE RETURNDATASIZE PUSH1 0x0 PUSH1 0x20 DUP5 ADD RETURNDATACOPY PUSH2 0xA45 JUMP JUMPDEST PUSH1 0x60 SWAP2 POP JUMPDEST POP POP SWAP1 POP DUP1 PUSH2 0xA53 JUMPI PUSH1 0x0 DUP1 REVERT JUMPDEST POP POP POP POP POP POP POP POP POP POP POP POP POP JUMP JUMPDEST CALLER ADDRESS EQ PUSH2 0xA6E JUMPI PUSH1 0x0 DUP1 REVERT JUMPDEST PUSH1 0x3 SLOAD PUSH1 0xFF DUP3 AND GT DUP1 ISZERO SWAP1 PUSH2 0xA86 JUMPI POP PUSH1 0x0 DUP2 PUSH1 0xFF AND GT JUMPDEST PUSH2 0xA8F JUMPI PUSH1 0x0 DUP1 REVERT JUMPDEST PUSH1 0x1 DUP1 SLOAD PUSH1 0xFF DUP4 AND PUSH1 0xFF NOT SWAP1 SWAP2 AND DUP2 OR SWAP1 SWAP2 SSTORE PUSH1 0x40 DUP1 MLOAD SWAP2 DUP3 MSTORE MLOAD PUSH32 0x168DAFE5F579D94207D1614819D41482DE1E0A1CCE54AB8FACE74BD3FCD8A38B SWAP2 DUP2 SWAP1 SUB PUSH1 0x20 ADD SWAP1 LOG1 POP JUMP JUMPDEST PUSH1 0x0 DUP3 DUP3 ADD DUP4 DUP2 LT ISZERO PUSH2 0xAE9 JUMPI PUSH1 0x0 DUP1 REVERT JUMPDEST SWAP4 SWAP3 POP POP POP JUMP INVALID LOG2 PUSH5 0x6970667358 0x22 SLT KECCAK256 DUP13 0x4E LOG1 0x2F ADDMOD PUSH11 0xC2BBB4E8862A94B9DBD36D POP 0xA5 0xC0 PUSH5 0x2345BFC6D3 CODESIZE 0xB3 0xBD PUSH9 0x67C164736F6C634300 MOD SMOD STOP CALLER ",
  "sha1": "1f460aaea1ae3c68adde599b2988250e24079d3b",
  "source": "pragma solidity ^0.6.1;\n\n\nimport \"zeppelin/math/SafeMath.sol\";\n\n\n/**\n* @title MultiSig\n* @notice Multi-signature contract with off-chain signing\n*/\ncontract MultiSig {\n    using SafeMath for uint256;\n\n    event Executed(address indexed sender, uint256 indexed nonce, address indexed destination, uint256 value);\n    event OwnerAdded(address indexed owner);\n    event OwnerRemoved(address indexed owner);\n    event RequirementChanged(uint16 required);\n\n    uint256 constant public MAX_OWNER_COUNT = 50;\n\n    uint256 public nonce;\n    uint8 public required;\n    mapping (address => bool) public isOwner;\n    address[] public owners;\n\n    /**\n    * @notice Only this contract can call method\n    */\n    modifier onlyThisContract() {\n        require(msg.sender == address(this));\n        _;\n    }\n\n    // TODO #1809\n//    receive() external payable {}\n    fallback() external payable {}\n\n    /**\n    * @param _required Number of required signings\n    * @param _owners List of initial owners.\n    */\n    constructor (uint8 _required, address[] memory _owners) public {\n        require(_owners.length <= MAX_OWNER_COUNT &&\n            _required <= _owners.length &&\n            _required > 0);\n\n        for (uint256 i = 0; i < _owners.length; i++) {\n            address owner = _owners[i];\n            require(!isOwner[owner] && owner != address(0));\n            isOwner[owner] = true;\n        }\n        owners = _owners;\n        required = _required;\n    }\n\n    /**\n    * @notice Get unsigned hash for transaction parameters\n    * @dev Follows ERC191 signature scheme: https://github.com/ethereum/EIPs/issues/191\n    * @param _sender Trustee who will execute the transaction\n    * @param _destination Destination address\n    * @param _value Amount of ETH to transfer\n    * @param _data Call data\n    * @param _nonce Nonce\n    */\n    function getUnsignedTransactionHash(\n        address _sender,\n        address _destination,\n        uint256 _value,\n        bytes memory _data,\n        uint256 _nonce\n    )\n        public view returns (bytes32)\n    {\n        return keccak256(\n            abi.encodePacked(byte(0x19), byte(0), address(this), _sender, _destination, _value, _data, _nonce));\n    }\n\n    /**\n    * @dev Note that address recovered from signatures must be strictly increasing\n    * @param _sigV Array of signatures values V\n    * @param _sigR Array of signatures values R\n    * @param _sigS Array of signatures values S\n    * @param _destination Destination address\n    * @param _value Amount of ETH to transfer\n    * @param _data Call data\n    */\n    function execute(\n        uint8[] calldata _sigV,\n        bytes32[] calldata _sigR,\n        bytes32[] calldata _sigS,\n        address _destination,\n        uint256 _value,\n        bytes calldata _data\n    )\n        external\n    {\n        require(_sigR.length >= required &&\n            _sigR.length == _sigS.length &&\n            _sigR.length == _sigV.length);\n\n        bytes32 txHash = getUnsignedTransactionHash(msg.sender, _destination, _value, _data, nonce);\n        address lastAdd = address(0);\n        for (uint256 i = 0; i < _sigR.length; i++) {\n            address recovered = ecrecover(txHash, _sigV[i], _sigR[i], _sigS[i]);\n            require(recovered > lastAdd && isOwner[recovered]);\n            lastAdd = recovered;\n        }\n\n        emit Executed(msg.sender, nonce, _destination, _value);\n        nonce = nonce.add(1);\n        (bool callSuccess,) = _destination.call{value: _value}(_data);\n        require(callSuccess);\n    }\n\n    /**\n    * @notice Allows to add a new owner\n    * @dev Transaction has to be sent by `execute` method.\n    * @param _owner Address of new owner\n    */\n    function addOwner(address _owner)\n        external\n        onlyThisContract\n    {\n        require(owners.length < MAX_OWNER_COUNT &&\n            _owner != address(0) &&\n            !isOwner[_owner]);\n        isOwner[_owner] = true;\n        owners.push(_owner);\n        emit OwnerAdded(_owner);\n    }\n\n    /**\n    * @notice Allows to remove an owner\n    * @dev Transaction has to be sent by `execute` method.\n    * @param _owner Address of owner\n    */\n    function removeOwner(address _owner)\n        external\n        onlyThisContract\n    {\n        require(owners.length > required && isOwner[_owner]);\n        isOwner[_owner] = false;\n        for (uint256 i = 0; i < owners.length - 1; i++) {\n            if (owners[i] == _owner) {\n                owners[i] = owners[owners.length - 1];\n                break;\n            }\n        }\n        owners.pop();\n        emit OwnerRemoved(_owner);\n    }\n\n    /**\n    * @notice Returns the number of owners of this MultiSig\n    */\n    function getNumberOfOwners() external view returns (uint256) {\n        return owners.length;\n    }\n\n    /**\n    * @notice Allows to change the number of required signatures\n    * @dev Transaction has to be sent by `execute` method\n    * @param _required Number of required signatures\n    */\n    function changeRequirement(uint8 _required)\n        external\n        onlyThisContract\n    {\n        require(_required <= owners.length && _required > 0);\n        required = _required;\n        emit RequirementChanged(_required);\n    }\n\n}\n",
  "sourcePath": "../../nucypher/blockchain/eth/sol/source/contracts/MultiSig.sol",
  "type": "contract"
}