{
  "abi": [
    {
      "inputs": [
        {
          "internalType": "contract StakingEscrow",
          "name": "_escrow",
          "type": "address"
        }
      ],
      "stateMutability": "nonpayable",
      "type": "constructor"
    },
    {
      "anonymous": false,
      "inputs": [
        {
          "indexed": true,
          "internalType": "bytes16",
          "name": "policyId",
          "type": "bytes16"
        },
        {
          "indexed": true,
          "internalType": "address",
          "name": "sender",
          "type": "address"
        },
        {
          "indexed": true,
          "internalType": "address",
          "name": "node",
          "type": "address"
        },
        {
          "indexed": false,
          "internalType": "uint256",
          "name": "value",
          "type": "uint256"
        }
      ],
      "name": "ArrangementRevoked",
      "type": "event"
    },
    {
      "anonymous": false,
      "inputs": [
        {
          "indexed": true,
          "internalType": "address",
          "name": "sender",
          "type": "address"
        },
        {
          "indexed": false,
          "internalType": "uint256",
          "name": "min",
          "type": "uint256"
        },
        {
          "indexed": false,
          "internalType": "uint256",
          "name": "defaultValue",
          "type": "uint256"
        },
        {
          "indexed": false,
          "internalType": "uint256",
          "name": "max",
          "type": "uint256"
        }
      ],
      "name": "FeeRateRangeSet",
      "type": "event"
    },
    {
      "anonymous": false,
      "inputs": [
        {
          "indexed": true,
          "internalType": "address",
          "name": "node",
          "type": "address"
        },
        {
          "indexed": false,
          "internalType": "uint256",
          "name": "value",
          "type": "uint256"
        }
      ],
      "name": "MinFeeRateSet",
      "type": "event"
    },
    {
      "anonymous": false,
      "inputs": [
        {
          "indexed": true,
          "internalType": "address",
          "name": "node",
          "type": "address"
        },
        {
          "indexed": false,
          "internalType": "uint16",
          "name": "period",
          "type": "uint16"
        }
      ],
      "name": "NodeBrokenState",
      "type": "event"
    },
    {
      "anonymous": false,
      "inputs": [
        {
          "indexed": true,
          "internalType": "address",
          "name": "previousOwner",
          "type": "address"
        },
        {
          "indexed": true,
          "internalType": "address",
          "name": "newOwner",
          "type": "address"
        }
      ],
      "name": "OwnershipTransferred",
      "type": "event"
    },
    {
      "anonymous": false,
      "inputs": [
        {
          "indexed": true,
          "internalType": "bytes16",
          "name": "policyId",
          "type": "bytes16"
        },
        {
          "indexed": true,
          "internalType": "address",
          "name": "sponsor",
          "type": "address"
        },
        {
          "indexed": true,
          "internalType": "address",
          "name": "owner",
          "type": "address"
        },
        {
          "indexed": false,
          "internalType": "uint256",
          "name": "feeRate",
          "type": "uint256"
        },
        {
          "indexed": false,
          "internalType": "uint64",
          "name": "startTimestamp",
          "type": "uint64"
        },
        {
          "indexed": false,
          "internalType": "uint64",
          "name": "endTimestamp",
          "type": "uint64"
        },
        {
          "indexed": false,
          "internalType": "uint256",
          "name": "numberOfNodes",
          "type": "uint256"
        }
      ],
      "name": "PolicyCreated",
      "type": "event"
    },
    {
      "anonymous": false,
      "inputs": [
        {
          "indexed": true,
          "internalType": "bytes16",
          "name": "policyId",
          "type": "bytes16"
        },
        {
          "indexed": true,
          "internalType": "address",
          "name": "sender",
          "type": "address"
        },
        {
          "indexed": false,
          "internalType": "uint256",
          "name": "value",
          "type": "uint256"
        }
      ],
      "name": "PolicyRevoked",
      "type": "event"
    },
    {
      "anonymous": false,
      "inputs": [
        {
          "indexed": true,
          "internalType": "bytes16",
          "name": "policyId",
          "type": "bytes16"
        },
        {
          "indexed": true,
          "internalType": "address",
          "name": "sender",
          "type": "address"
        },
        {
          "indexed": true,
          "internalType": "address",
          "name": "node",
          "type": "address"
        },
        {
          "indexed": false,
          "internalType": "uint256",
          "name": "value",
          "type": "uint256"
        }
      ],
      "name": "RefundForArrangement",
      "type": "event"
    },
    {
      "anonymous": false,
      "inputs": [
        {
          "indexed": true,
          "internalType": "bytes16",
          "name": "policyId",
          "type": "bytes16"
        },
        {
          "indexed": true,
          "internalType": "address",
          "name": "sender",
          "type": "address"
        },
        {
          "indexed": false,
          "internalType": "uint256",
          "name": "value",
          "type": "uint256"
        }
      ],
      "name": "RefundForPolicy",
      "type": "event"
    },
    {
      "anonymous": false,
      "inputs": [
        {
          "indexed": true,
          "internalType": "address",
          "name": "testTarget",
          "type": "address"
        },
        {
          "indexed": false,
          "internalType": "address",
          "name": "sender",
          "type": "address"
        }
      ],
      "name": "StateVerified",
      "type": "event"
    },
    {
      "anonymous": false,
      "inputs": [
        {
          "indexed": true,
          "internalType": "address",
          "name": "target",
          "type": "address"
        },
        {
          "indexed": false,
          "internalType": "address",
          "name": "sender",
          "type": "address"
        }
      ],
      "name": "UpgradeFinished",
      "type": "event"
    },
    {
      "anonymous": false,
      "inputs": [
        {
          "indexed": true,
          "internalType": "address",
          "name": "node",
          "type": "address"
        },
        {
          "indexed": true,
          "internalType": "address",
          "name": "recipient",
          "type": "address"
        },
        {
          "indexed": false,
          "internalType": "uint256",
          "name": "value",
          "type": "uint256"
        }
      ],
      "name": "Withdrawn",
      "type": "event"
    },
    {
      "inputs": [],
      "name": "DEFAULT_FEE_DELTA",
      "outputs": [
        {
          "internalType": "int256",
          "name": "",
          "type": "int256"
        }
      ],
      "stateMutability": "view",
      "type": "function"
    },
    {
      "inputs": [
        {
          "internalType": "bytes16",
          "name": "_policyId",
          "type": "bytes16"
        },
        {
          "internalType": "address",
          "name": "_node",
          "type": "address"
        }
      ],
      "name": "calculateRefundValue",
      "outputs": [
        {
          "internalType": "uint256",
          "name": "refundValue",
          "type": "uint256"
        }
      ],
      "stateMutability": "view",
      "type": "function"
    },
    {
      "inputs": [
        {
          "internalType": "bytes16",
          "name": "_policyId",
          "type": "bytes16"
        }
      ],
      "name": "calculateRefundValue",
      "outputs": [
        {
          "internalType": "uint256",
          "name": "refundValue",
          "type": "uint256"
        }
      ],
      "stateMutability": "view",
      "type": "function"
    },
    {
      "inputs": [
        {
          "internalType": "bytes16",
          "name": "_policyId",
          "type": "bytes16"
        },
        {
          "internalType": "address",
          "name": "_policyOwner",
          "type": "address"
        },
        {
          "internalType": "uint64",
          "name": "_endTimestamp",
          "type": "uint64"
        },
        {
          "internalType": "address[]",
          "name": "_nodes",
          "type": "address[]"
        }
      ],
      "name": "createPolicy",
      "outputs": [],
      "stateMutability": "payable",
      "type": "function"
    },
    {
      "inputs": [],
      "name": "escrow",
      "outputs": [
        {
          "internalType": "contract StakingEscrow",
          "name": "",
          "type": "address"
        }
      ],
      "stateMutability": "view",
      "type": "function"
    },
    {
      "inputs": [],
      "name": "feeRateRange",
      "outputs": [
        {
          "internalType": "uint128",
          "name": "min",
          "type": "uint128"
        },
        {
          "internalType": "uint128",
          "name": "defaultValue",
          "type": "uint128"
        },
        {
          "internalType": "uint128",
          "name": "max",
          "type": "uint128"
        }
      ],
      "stateMutability": "view",
      "type": "function"
    },
    {
      "inputs": [
        {
          "internalType": "address",
          "name": "_target",
          "type": "address"
        }
      ],
      "name": "finishUpgrade",
      "outputs": [],
      "stateMutability": "nonpayable",
      "type": "function"
    },
    {
      "inputs": [
        {
          "internalType": "bytes16",
          "name": "_policyId",
          "type": "bytes16"
        },
        {
          "internalType": "uint256",
          "name": "_index",
          "type": "uint256"
        }
      ],
      "name": "getArrangementInfo",
      "outputs": [
        {
          "internalType": "address",
          "name": "node",
          "type": "address"
        },
        {
          "internalType": "uint256",
          "name": "indexOfDowntimePeriods",
          "type": "uint256"
        },
        {
          "internalType": "uint16",
          "name": "lastRefundedPeriod",
          "type": "uint16"
        }
      ],
      "stateMutability": "view",
      "type": "function"
    },
    {
      "inputs": [
        {
          "internalType": "bytes16",
          "name": "_policyId",
          "type": "bytes16"
        }
      ],
      "name": "getArrangementsLength",
      "outputs": [
        {
          "internalType": "uint256",
          "name": "",
          "type": "uint256"
        }
      ],
      "stateMutability": "view",
      "type": "function"
    },
    {
      "inputs": [],
      "name": "getCurrentPeriod",
      "outputs": [
        {
          "internalType": "uint16",
          "name": "",
          "type": "uint16"
        }
      ],
      "stateMutability": "view",
      "type": "function"
    },
    {
      "inputs": [
        {
          "internalType": "address",
          "name": "_node",
          "type": "address"
        }
      ],
      "name": "getMinFeeRate",
      "outputs": [
        {
          "internalType": "uint256",
          "name": "",
          "type": "uint256"
        }
      ],
      "stateMutability": "view",
      "type": "function"
    },
    {
      "inputs": [
        {
          "internalType": "address",
          "name": "_node",
          "type": "address"
        },
        {
          "internalType": "uint16",
          "name": "_period",
          "type": "uint16"
        }
      ],
      "name": "getNodeFeeDelta",
      "outputs": [
        {
          "internalType": "int256",
          "name": "",
          "type": "int256"
        }
      ],
      "stateMutability": "view",
      "type": "function"
    },
    {
      "inputs": [
        {
          "internalType": "bytes16",
          "name": "_policyId",
          "type": "bytes16"
        }
      ],
      "name": "getPolicyOwner",
      "outputs": [
        {
          "internalType": "address",
          "name": "",
          "type": "address"
        }
      ],
      "stateMutability": "view",
      "type": "function"
    },
    {
      "inputs": [
        {
          "internalType": "bytes16",
          "name": "_policyId",
          "type": "bytes16"
        },
        {
          "internalType": "address",
          "name": "_node",
          "type": "address"
        }
      ],
      "name": "getRevocationHash",
      "outputs": [
        {
          "internalType": "bytes32",
          "name": "",
          "type": "bytes32"
        }
      ],
      "stateMutability": "view",
      "type": "function"
    },
    {
      "inputs": [],
      "name": "isOwner",
      "outputs": [
        {
          "internalType": "bool",
          "name": "",
          "type": "bool"
        }
      ],
      "stateMutability": "view",
      "type": "function"
    },
    {
      "inputs": [],
      "name": "isUpgrade",
      "outputs": [
        {
          "internalType": "uint8",
          "name": "",
          "type": "uint8"
        }
      ],
      "stateMutability": "view",
      "type": "function"
    },
    {
      "inputs": [
        {
          "internalType": "address",
          "name": "",
          "type": "address"
        }
      ],
      "name": "nodes",
      "outputs": [
        {
          "internalType": "uint128",
          "name": "fee",
          "type": "uint128"
        },
        {
          "internalType": "uint16",
          "name": "previousFeePeriod",
          "type": "uint16"
        },
        {
          "internalType": "uint256",
          "name": "feeRate",
          "type": "uint256"
        },
        {
          "internalType": "uint256",
          "name": "minFeeRate",
          "type": "uint256"
        }
      ],
      "stateMutability": "view",
      "type": "function"
    },
    {
      "inputs": [],
      "name": "owner",
      "outputs": [
        {
          "internalType": "address",
          "name": "",
          "type": "address"
        }
      ],
      "stateMutability": "view",
      "type": "function"
    },
    {
      "inputs": [
        {
          "internalType": "bytes16",
          "name": "",
          "type": "bytes16"
        }
      ],
      "name": "policies",
      "outputs": [
        {
          "internalType": "bool",
          "name": "disabled",
          "type": "bool"
        },
        {
          "internalType": "address payable",
          "name": "sponsor",
          "type": "address"
        },
        {
          "internalType": "address",
          "name": "owner",
          "type": "address"
        },
        {
          "internalType": "uint128",
          "name": "feeRate",
          "type": "uint128"
        },
        {
          "internalType": "uint64",
          "name": "startTimestamp",
          "type": "uint64"
        },
        {
          "internalType": "uint64",
          "name": "endTimestamp",
          "type": "uint64"
        },
        {
          "internalType": "uint256",
          "name": "reservedSlot1",
          "type": "uint256"
        },
        {
          "internalType": "uint256",
          "name": "reservedSlot2",
          "type": "uint256"
        },
        {
          "internalType": "uint256",
          "name": "reservedSlot3",
          "type": "uint256"
        },
        {
          "internalType": "uint256",
          "name": "reservedSlot4",
          "type": "uint256"
        },
        {
          "internalType": "uint256",
          "name": "reservedSlot5",
          "type": "uint256"
        }
      ],
      "stateMutability": "view",
      "type": "function"
    },
    {
      "inputs": [],
      "name": "previousTarget",
      "outputs": [
        {
          "internalType": "address",
          "name": "",
          "type": "address"
        }
      ],
      "stateMutability": "view",
      "type": "function"
    },
    {
      "inputs": [
        {
          "internalType": "bytes16",
          "name": "_policyId",
          "type": "bytes16"
        },
        {
          "internalType": "address",
          "name": "_node",
          "type": "address"
        }
      ],
      "name": "refund",
      "outputs": [
        {
          "internalType": "uint256",
          "name": "refundValue",
          "type": "uint256"
        }
      ],
      "stateMutability": "nonpayable",
      "type": "function"
    },
    {
      "inputs": [
        {
          "internalType": "bytes16",
          "name": "_policyId",
          "type": "bytes16"
        }
      ],
      "name": "refund",
      "outputs": [],
      "stateMutability": "nonpayable",
      "type": "function"
    },
    {
      "inputs": [
        {
          "internalType": "address",
          "name": "_node",
          "type": "address"
        },
        {
          "internalType": "uint16",
          "name": "_period",
          "type": "uint16"
        }
      ],
      "name": "register",
      "outputs": [],
      "stateMutability": "nonpayable",
      "type": "function"
    },
    {
      "inputs": [],
      "name": "renounceOwnership",
      "outputs": [],
      "stateMutability": "nonpayable",
      "type": "function"
    },
    {
      "inputs": [
        {
          "internalType": "bytes16",
          "name": "_policyId",
          "type": "bytes16"
        },
        {
          "internalType": "address",
          "name": "_node",
          "type": "address"
        },
        {
          "internalType": "bytes",
          "name": "_signature",
          "type": "bytes"
        }
      ],
      "name": "revoke",
      "outputs": [
        {
          "internalType": "uint256",
          "name": "refundValue",
          "type": "uint256"
        }
      ],
      "stateMutability": "nonpayable",
      "type": "function"
    },
    {
      "inputs": [
        {
          "internalType": "bytes16",
          "name": "_policyId",
          "type": "bytes16"
        },
        {
          "internalType": "address",
          "name": "_node",
          "type": "address"
        }
      ],
      "name": "revokeArrangement",
      "outputs": [
        {
          "internalType": "uint256",
          "name": "refundValue",
          "type": "uint256"
        }
      ],
      "stateMutability": "nonpayable",
      "type": "function"
    },
    {
      "inputs": [
        {
          "internalType": "bytes16",
          "name": "_policyId",
          "type": "bytes16"
        }
      ],
      "name": "revokePolicy",
      "outputs": [
        {
          "internalType": "uint256",
          "name": "refundValue",
          "type": "uint256"
        }
      ],
      "stateMutability": "nonpayable",
      "type": "function"
    },
    {
      "inputs": [],
      "name": "secondsPerPeriod",
      "outputs": [
        {
          "internalType": "uint32",
          "name": "",
          "type": "uint32"
        }
      ],
      "stateMutability": "view",
      "type": "function"
    },
    {
      "inputs": [
        {
          "internalType": "address",
          "name": "_node",
          "type": "address"
        },
        {
          "internalType": "uint16",
          "name": "_period",
          "type": "uint16"
        }
      ],
      "name": "setDefaultFeeDelta",
      "outputs": [],
      "stateMutability": "nonpayable",
      "type": "function"
    },
    {
      "inputs": [
        {
          "internalType": "uint128",
          "name": "_min",
          "type": "uint128"
        },
        {
          "internalType": "uint128",
          "name": "_default",
          "type": "uint128"
        },
        {
          "internalType": "uint128",
          "name": "_max",
          "type": "uint128"
        }
      ],
      "name": "setFeeRateRange",
      "outputs": [],
      "stateMutability": "nonpayable",
      "type": "function"
    },
    {
      "inputs": [
        {
          "internalType": "uint256",
          "name": "_minFeeRate",
          "type": "uint256"
        }
      ],
      "name": "setMinFeeRate",
      "outputs": [],
      "stateMutability": "nonpayable",
      "type": "function"
    },
    {
      "inputs": [],
      "name": "target",
      "outputs": [
        {
          "internalType": "address",
          "name": "",
          "type": "address"
        }
      ],
      "stateMutability": "view",
      "type": "function"
    },
    {
      "inputs": [
        {
          "internalType": "address",
          "name": "newOwner",
          "type": "address"
        }
      ],
      "name": "transferOwnership",
      "outputs": [],
      "stateMutability": "nonpayable",
      "type": "function"
    },
    {
      "inputs": [
        {
          "internalType": "address",
          "name": "_node",
          "type": "address"
        },
        {
          "internalType": "uint16",
          "name": "_period",
          "type": "uint16"
        }
      ],
      "name": "updateFee",
      "outputs": [],
      "stateMutability": "nonpayable",
      "type": "function"
    },
    {
      "inputs": [
        {
          "internalType": "address",
          "name": "_testTarget",
          "type": "address"
        }
      ],
      "name": "verifyState",
      "outputs": [],
      "stateMutability": "nonpayable",
      "type": "function"
    },
    {
      "inputs": [],
      "name": "withdraw",
      "outputs": [
        {
          "internalType": "uint256",
          "name": "",
          "type": "uint256"
        }
      ],
      "stateMutability": "nonpayable",
      "type": "function"
    },
    {
      "inputs": [
        {
          "internalType": "address payable",
          "name": "_recipient",
          "type": "address"
        }
      ],
      "name": "withdraw",
      "outputs": [
        {
          "internalType": "uint256",
          "name": "",
          "type": "uint256"
        }
      ],
      "stateMutability": "nonpayable",
      "type": "function"
    }
  ],
  "bytecode": "60c06040523480156200001157600080fd5b50604051620036ab380380620036ab833981810160405260208110156200003757600080fd5b5051600080546001600160a01b03191633178082556040516001600160a01b039190911691907f8be0079c531659141344cd1fd0a4f28419497f9722a3daafe3b4186f6b6457e0908290a36000816001600160a01b031663407f80016040518163ffffffff1660e01b815260040160206040518083038186803b158015620000be57600080fd5b505afa158015620000d3573d6000803e3d6000fd5b505050506040513d6020811015620000ea57600080fd5b5051905063ffffffff8116620000ff57600080fd5b60e081901b6001600160e01b03191660a052606082901b6001600160601b0319166080526001600160a01b039091169063ffffffff1661351c6200018f60003980610b515280610db2528061127e52806120fa5280612e4d5280612eb1525080610bd6528061115c52806118dc5280611d8b5280612f3a5280612fed52806130ac52806131ce525061351c6000f3fe60806040526004361061021a5760003560e01c8063889ddd1a11610123578063b9626d21116100ab578063e2fdcc171161006f578063e2fdcc1714610a1b578063e38a303b14610a30578063e665830d14610a5b578063e8dccd0614610a8f578063f2fde38b14610ac25761021a565b8063b9626d21146108f6578063cbf12f2a14610929578063d4b839921461096c578063d845f4fb14610981578063dfdecfaf146109e75761021a565b80638e81ca5a116100f25780638e81ca5a146107dc5780638f32d59b14610819578063a2d1d5e214610842578063a87d40d914610876578063b438c4cd146108b95761021a565b8063889ddd1a146107275780638c316b901461075a5780638d7fd2fa146107845780638da5cb5b146107c75761021a565b806358cf15fb116101a65780636bd2af57116101755780636bd2af5714610556578063713c0e571461058a578063715018a61461063657806372be8d8d1461064b57806381e742a1146106885761021a565b806358cf15fb1461045a578063631722f21461048e57806363c509d5146104d357806365af62c3146105165761021a565b80633ea2391f116101ed5780633ea2391f14610374578063407f8001146103b35780634b2cd118146103e15780634b8fed4f1461041257806351cff8d9146104275761021a565b8063076421e81461021f578063086146d2146102cd578063189a5a17146102f95780633ccfd60b1461035f575b600080fd5b34801561022b57600080fd5b506102bb6004803603606081101561024257600080fd5b6001600160801b0319823516916001600160a01b036020820135169181019060608101604082013564010000000081111561027c57600080fd5b82018360208201111561028e57600080fd5b803590602001918460018302840111640100000000831117156102b057600080fd5b509092509050610af5565b60408051918252519081900360200190f35b3480156102d957600080fd5b506102e2610b4d565b6040805161ffff9092168252519081900360200190f35b34801561030557600080fd5b5061032c6004803603602081101561031c57600080fd5b50356001600160a01b0316610b84565b604080516001600160801b03909516855261ffff9093166020850152838301919091526060830152519081900360800190f35b34801561036b57600080fd5b506102bb610bbb565b34801561038057600080fd5b506103b16004803603604081101561039757600080fd5b5080356001600160a01b0316906020013561ffff16610bcb565b005b3480156103bf57600080fd5b506103c8610db0565b6040805163ffffffff9092168252519081900360200190f35b3480156103ed57600080fd5b506103f6610dd4565b604080516001600160a01b039092168252519081900360200190f35b34801561041e57600080fd5b506102bb610de3565b34801561043357600080fd5b506102bb6004803603602081101561044a57600080fd5b50356001600160a01b0316610dee565b34801561046657600080fd5b506103f66004803603602081101561047d57600080fd5b50356001600160801b031916610e82565b34801561049a57600080fd5b506103b1600480360360608110156104b157600080fd5b506001600160801b038135811691602081013582169160409091013516610ed9565b3480156104df57600080fd5b506102bb600480360360408110156104f657600080fd5b5080356001600160801b03191690602001356001600160a01b0316610fc3565b34801561052257600080fd5b5061052b611039565b604080516001600160801b039485168152928416602084015292168183015290519081900360600190f35b34801561056257600080fd5b506102bb6004803603602081101561057957600080fd5b50356001600160801b031916611059565b34801561059657600080fd5b506105be600480360360208110156105ad57600080fd5b50356001600160801b031916611078565b604080519b15158c526001600160a01b039a8b1660208d0152989099168a8901526001600160801b0390961660608a01526001600160401b0394851660808a01529290931660a088015260c087015260e086019190915261010085015261012084015261014083019190915251908190036101600190f35b34801561064257600080fd5b506103b16110f6565b34801561065757600080fd5b506103b16004803603604081101561066e57600080fd5b5080356001600160a01b0316906020013561ffff16611151565b6103b16004803603608081101561069e57600080fd5b6001600160801b0319823516916001600160a01b03602082013516916001600160401b0360408301351691908101906080810160608201356401000000008111156106e857600080fd5b8201836020820111156106fa57600080fd5b8035906020019184602083028401116401000000008311171561071c57600080fd5b5090925090506111f0565b34801561073357600080fd5b506102bb6004803603602081101561074a57600080fd5b50356001600160a01b0316611712565b34801561076657600080fd5b506103b16004803603602081101561077d57600080fd5b5035611733565b34801561079057600080fd5b506102bb600480360360408110156107a757600080fd5b5080356001600160801b03191690602001356001600160a01b03166117f7565b3480156107d357600080fd5b506103f6611835565b3480156107e857600080fd5b506102bb600480360360408110156107ff57600080fd5b5080356001600160a01b0316906020013561ffff16611844565b34801561082557600080fd5b5061082e611875565b604080519115158252519081900360200190f35b34801561084e57600080fd5b506102bb6004803603602081101561086557600080fd5b50356001600160801b031916611886565b34801561088257600080fd5b506102bb6004803603604081101561089957600080fd5b5080356001600160801b03191690602001356001600160a01b03166118b2565b3480156108c557600080fd5b506103b1600480360360408110156108dc57600080fd5b5080356001600160a01b0316906020013561ffff166118d1565b34801561090257600080fd5b506103b16004803603602081101561091957600080fd5b50356001600160a01b031661195c565b34801561093557600080fd5b506102bb6004803603604081101561094c57600080fd5b5080356001600160801b03191690602001356001600160a01b0316611c6b565b34801561097857600080fd5b506103f6611cbb565b34801561098d57600080fd5b506109bb600480360360408110156109a457600080fd5b506001600160801b03198135169060200135611cca565b604080516001600160a01b039094168452602084019290925261ffff1682820152519081900360600190f35b3480156109f357600080fd5b506103b160048036036020811015610a0a57600080fd5b50356001600160801b031916611d32565b348015610a2757600080fd5b506103f6611d89565b348015610a3c57600080fd5b50610a45611dad565b6040805160ff9092168252519081900360200190f35b348015610a6757600080fd5b506102bb60048036036020811015610a7e57600080fd5b50356001600160801b031916611dbd565b348015610a9b57600080fd5b506103b160048036036020811015610ab257600080fd5b50356001600160a01b0316611dca565b348015610ace57600080fd5b506103b160048036036020811015610ae557600080fd5b50356001600160a01b0316612065565b6000610b38858585858080601f01602080910402602001604051908101604052809392919081815260200183838082843760009201919091525061207f92505050565b610b44858560016120c8565b95945050505050565b60007f000000000000000000000000000000000000000000000000000000000000000063ffffffff164281610b7e57fe5b04905090565b6005602052600090815260409020805460018201546002909201546001600160801b03821692600160801b90920461ffff16919084565b6000610bc633610dee565b905090565b336001600160a01b037f00000000000000000000000000000000000000000000000000000000000000001614610c0057600080fd5b6001600160a01b03821660009081526005602052604090208054600160801b900461ffff161580610c415750805461ffff600160801b909104811690831611155b15610c4c5750610dac565b8054600160801b900461ffff166001015b8261ffff168161ffff1611610d6d5761ffff811660009081526003830160205260409020546001600160ff1b03811415610cad575061ffff81166000908152600383016020526040812055610d65565b600081128015610cc35750826001015481600003115b15610d325760018301805461ffff80851660009081526003870160209081526040808320805490950190945593558151908716815290516001600160a01b038816927fd56b4810f75e2913af1cd9e5f0d99d273958c5a67cff5ef0e7f298507b688bb8928290030190a2610d63565b6001830154610d47908263ffffffff6125c616565b600184015561ffff821660009081526003840160205260408120555b505b600101610c5d565b50805460018201546001600160801b031961ffff60801b19909216600160801b61ffff861602179182166001600160801b039283169091019091161790555b5050565b7f000000000000000000000000000000000000000000000000000000000000000081565b6002546001600160a01b031681565b6001600160ff1b0381565b33600090815260056020526040812080546001600160801b031680610e1257600080fd5b81546001600160801b0319168255610e396001600160a01b0385168263ffffffff6125fa16565b6040805182815290516001600160a01b0386169133917fd1c19fbcd4551a5edfb66d43d2e337c04837afda3482b42bdf569a8fccdae5fb9181900360200190a39150505b919050565b6001600160801b03198116600090815260046020526040812060018101546001600160a01b031615610ec15760018101546001600160a01b0316610ed2565b805461010090046001600160a01b03165b9392505050565b610ee1611875565b610eea57600080fd5b816001600160801b0316836001600160801b031611158015610f1e5750806001600160801b0316826001600160801b031611155b610f2757600080fd5b60408051606080820183526001600160801b038681168084528682166020808601829052878416958701869052600680546001600160801b03199081168517909516600160801b840217905560078054909416861790935585519182529181019190915280840192909252915133927f3a93fb7c2385d29e9693a6edcd81c4cee090101cb783dc2f17a7814b79a2ecdc928290030190a2505050565b60006001600160a01b038216610fd857600080fd5b6001600160801b03198316600090815260046020526040902060018101546001600160a01b031633148061101a5750805461010090046001600160a01b031633145b61102357600080fd5b61102f848460006120c8565b9150505b92915050565b6006546007546001600160801b0380831692600160801b90048116911683565b6001600160801b03191660009081526004602052604090206008015490565b60046020819052600091825260409091208054600182015460028301546003840154948401546005850154600686015460079096015460ff8616976001600160a01b0361010090970487169795909616956001600160801b038516956001600160401b03600160801b8704811696600160c01b90041694919391928b565b6110fe611875565b61110757600080fd5b600080546040516001600160a01b03909116907f8be0079c531659141344cd1fd0a4f28419497f9722a3daafe3b4186f6b6457e0908390a3600080546001600160a01b0319169055565b336001600160a01b037f0000000000000000000000000000000000000000000000000000000000000000161461118657600080fd5b6001600160a01b03821660009081526005602052604090208054600160801b900461ffff161580156111c657506111bb610b4d565b61ffff168261ffff16105b6111cf57600080fd5b805461ffff909216600160801b0261ffff60801b1990921691909117905550565b6001600160801b0319851660008181526004602052604090209015801590611223575060028101546001600160801b0316155b80156112315750805460ff16155b8015611245575042846001600160401b0316115b80156112515750600034115b61125a57600080fd5b6001600160801b0347111561126e57600080fd5b6000611278610b4d565b905060007f000000000000000000000000000000000000000000000000000000000000000063ffffffff16866001600160401b0316816112b457fe5b84546101003302610100600160a81b03199091161785556002850180546001600160401b038a8116600160c01b026001600160c01b034292909216600160801b0267ffffffffffffffff60801b199093169290921716179055046001818101925061ffff9184900301168061132934876126df565b8161133057fe5b6002860180546001600160801b031916929091046001600160801b0390811692909217908190551615801590611376575060028401546001600160801b03168102850234145b61137f57600080fd5b6001600160a01b03881633148015906113a057506001600160a01b03881615155b156113c3576001840180546001600160a01b0319166001600160a01b038a161790555b60005b858110156116685760008787838181106113dc57fe5b905060200201356001600160a01b0316905060006001600160a01b0316816001600160a01b0316141561140e57600080fd5b6001600160a01b03811660009081526005602052604090208054600160801b900461ffff161580159061144f5750805461ffff808816600160801b90920416105b8015611470575061145f81612701565b60028801546001600160801b031610155b61147957600080fd5b61ffff861660009081526003820160205260409020546001600160ff1b0314156114c957600287015461ffff8716600090815260038301602052604090206001600160801b0390911690556114f6565b600287015461ffff87166000908152600383016020526040902080546001600160801b0390921690910190555b61ffff851660009081526003820160205260409020546001600160ff1b03141561154857600287015461ffff8616600090815260038301602052604081206001600160801b0390921690039055611575565b600287015461ffff86166000908152600383016020526040902080546001600160801b0390921690910390555b61ffff861660009081526003820160205260409020546115af5761ffff8616600090815260038201602052604090206001600160ff1b0390555b61ffff851660009081526003820160205260409020546115e95761ffff8516600090815260038201602052604090206001600160ff1b0390555b50604080516060810182526001600160a01b0392831681526000602080830182815293830182815260088b01805460018082018355918552929093209351600390920290930180546001600160a01b03191691909516178455915183830155516002909201805461ffff191661ffff90931692909217909155016113c6565b506001600160a01b0388161561167e5787611680565b335b6002850154604080516001600160801b03831681526001600160401b03600160801b840481166020830152600160c01b9093049092168282015260608201889052516001600160a01b03929092169133916001600160801b03198d16917f8e609dac02bd39ff24c8ad6bb9a735e739b56708b22159948ec9828ad765b4d19181900360800190a4505050505050505050565b6001600160a01b0381166000908152600560205260408120610ed281612701565b6006546001600160801b0316811080159061175957506007546001600160801b03168111155b6117945760405162461bcd60e51b815260040180806020018281038252603f815260200180613447603f913960400191505060405180910390fd5b33600090815260056020526040902060028101548214156117b557506117f4565b6002810182905560408051838152905133917f6b9024cc1bf5710f290be788dca9886db7a3d9be0df0855bfa991dbf26a256bc919081900360200190a2505b50565b60006001600160a01b03821661180c57600080fd5b3361181684610e82565b6001600160a01b03161461182957600080fd5b610ed2838360016120c8565b6000546001600160a01b031690565b6001600160a01b038216600090815260056020908152604080832061ffff8516845260030190915290205492915050565b6000546001600160a01b0316331490565b60003361189283610e82565b6001600160a01b0316146118a557600080fd5b61103382600060016120c8565b60006001600160a01b0382166118c757600080fd5b610ed2838361276a565b336001600160a01b037f0000000000000000000000000000000000000000000000000000000000000000161461190657600080fd5b6001600160a01b038216600090815260056020908152604080832061ffff8516845260038101909252909120546119575761ffff8216600090815260038201602052604090206001600160ff1b0390555b505050565b61196581612894565b61196d613361565b611976826128ee565b80516006549192506001600160801b0391821691161480156119b157506020810151600654600160801b90046001600160801b039081169116145b80156119cf575060408101516007546001600160801b039081169116145b6119d857600080fd5b6000805260046020527f17ef568e3e12ab5b9c7254a8d58478811de00f9e6eb34345acd53bf8fd09d3ec611a0a613381565b611a1584600061290c565b8254602082015191925061010090046001600160a01b039081169116148015611a525750600182015460408201516001600160a01b039081169116145b8015611a725750600282015460608201516001600160801b039081169116145b8015611a995750600282015460808201516001600160401b03908116600160801b90920416145b8015611ac05750600282015460a08201516001600160401b03908116600160c01b90920416145b8015611ad6575081548151151560ff9091161515145b611adf57600080fd5b6008820154611af785636bd2af5760e01b600061293d565b14611b0157600080fd5b600882015415611b9057600082600801600081548110611b1d57fe5b90600052602060002090600302019050611b35613361565b611b4186600080612958565b825481519192506001600160a01b039182169116148015611b69575081600101548160200151145b8015611b8457506002820154604082015161ffff9081169116145b611b8d57600080fd5b50505b6000805260056020527f05b8ccbb9d4d8fb16ea74ce3c29a41f1b461fbdaff4714a0d9a8eb05499746bc611bc2613411565b611bcd866000612981565b825481519192506001600160801b039182169116148015611bf5575081600101548160400151145b8015611c1457508154602082015161ffff908116600160801b90920416145b8015611c27575081600201548160600151145b611c3057600080fd5b600b600081815260038401602052604081205491611c59918991634740e52d60e11b91906129a9565b14611c6357600080fd5b505050505050565b604080516001600160801b0319841660208201526bffffffffffffffffffffffff19606084901b166030820152815160248183030181526044909101909152600090610ed290604560f81b6129c5565b6001546001600160a01b031681565b6001600160801b03198216600090815260046020526040812060080180548291829182919086908110611cf957fe5b60009182526020909120600390910201805460018201546002909201546001600160a01b039091169891975061ffff1695509350505050565b6001600160801b03198116600090815260046020526040902060018101546001600160a01b0316331480611d745750805461010090046001600160a01b031633145b611d7d57600080fd5b611957826000806120c8565b7f000000000000000000000000000000000000000000000000000000000000000081565b600254600160a01b900460ff1681565b600061103382600061276a565b611dd381612cc4565b50600460209081527f17ef568e3e12ab5b9c7254a8d58478811de00f9e6eb34345acd53bf8fd09d3ec80547f17ef568e3e12ab5b9c7254a8d58478811de00f9e6eb34345acd53bf8fd09d3ed8054306001600160a01b0319918216179091557f17ef568e3e12ab5b9c7254a8d58478811de00f9e6eb34345acd53bf8fd09d3ee805460036001600160801b0319600160801b67ffffffffffffffff60801b19909316929092176001600160c01b0316600160c11b1782168117909255610100600160a81b031990931633610100021760ff19166001908117909455604080516060810182526000808252600b82890181815260169484019485527f17ef568e3e12ab5b9c7254a8d58478811de00f9e6eb34345acd53bf8fd09d3f48054998a018155835292517fdaf6a3df2e7fe032faba7f1c41811297bb73983780e1888a846f8aa1a8324d279890950297880180549096166001600160a01b0390951694909417909455517fdaf6a3df2e7fe032faba7f1c41811297bb73983780e1888a846f8aa1a8324d28860155517fdaf6a3df2e7fe032faba7f1c41811297bb73983780e1888a846f8aa1a8324d29909401805461ffff191661ffff909516949094179093557f05b8ccbb9d4d8fb16ea74ce3c29a41f1b461fbdaff4714a0d9a8eb05499746bc805460217f05b8ccbb9d4d8fb16ea74ce3c29a41f1b461fbdaff4714a0d9a8eb05499746bd55606493169290921761ffff60801b1916600b60821b17909155527f05b8ccbb9d4d8fb16ea74ce3c29a41f1b461fbdaff4714a0d9a8eb05499746bf905260377fe98516eef36ab8324c691eaae918b396562bbff0916fab980ba5f148c2da4dc8556103097f05b8ccbb9d4d8fb16ea74ce3c29a41f1b461fbdaff4714a0d9a8eb05499746be55565b61206d611875565b61207657600080fd5b6117f481612d1e565b600061208b8484611c6b565b905060006120998284612d8c565b9050806001600160a01b03166120ae86610e82565b6001600160a01b0316146120c157600080fd5b5050505050565b6001600160801b031983166000908152600460205260408120805460ff16156120f057600080fd5b60028101546000907f000000000000000000000000000000000000000000000000000000000000000063ffffffff1690600160c01b90046001600160401b03168161213757fe5b6008840154919004600101915060005b60088401548110156124af57600084600801828154811061216457fe5b6000918252602090912060039091020180549091506001600160a01b03168015806121b457506001600160a01b038916158015906121b45750806001600160a01b0316896001600160a01b031614155b156121c7575050600019909101906124a7565b60006121d38784612e45565b60028601805461ffff191661ffff929092169190911790556001850155905088156123a2576001600160a01b0382166000908152600560209081526040808320600287015461ffff16808552600382019093529220546001600160ff1b03141561226557600289015461ffff8216600090815260038401602052604081206001600160801b0390921690039055612292565b600289015461ffff82166000908152600384016020526040902080546001600160801b0390921690910390555b61ffff881660009081526003830160205260409020546001600160ff1b0314156122e457600289015461ffff8916600090815260038401602052604081206001600160801b0390921690039055612311565b600289015461ffff89166000908152600384016020526040902080546001600160801b0390921690910190555b61ffff8116600090815260038301602052604090205461234b5761ffff8116600090815260038301602052604090206001600160ff1b0390555b61ffff881660009081526003830160205260409020546123855761ffff8816600090815260038301602052604090206001600160ff1b0390555b60028901546001600160801b031690880361ffff16029190910190505b88806123b95750600283015461ffff808816911610155b1561243a5782546001600160a01b03191683556000600184015560028301805461ffff1916905560408051828152905160001996909601956001600160a01b0384169133916001600160801b03198f16917ff3b13df5bdd5efcb090f73617909a6295ee75815920224c512d784b2726812f1919081900360200190a4612488565b6040805182815290516001600160a01b0384169133916001600160801b03198f16917fab654b569128c88ffcd210806a5e48ee14c541e2c76923f143281f20807090c1919081900360200190a45b968701966001600160a01b038a16156124a3575050506124af565b5050505b600101612147565b83546001600160a01b03610100909104811690881661258b5782612544578454600160ff199091168117610100600160a81b0319168655850180546001600160a01b03191690556000600286015560408051878152905133916001600160801b03198c16917fd5ea25ba3600c386669c484639012a0ae266ed537f0c4ab71b651024736efff4916020908290030190a3612586565b60408051878152905133916001600160801b03198c16917f51377f313f8c3404e86d38ae907b443ada38578fd6b9589d03f79d03ff9303c79181900360200190a35b61259b565b6008850154821061259b57600080fd5b85156125ba576125ba6001600160a01b0382168763ffffffff6125fa16565b50505050509392505050565b60008082126125e6576125df838363ffffffff6132a016565b9050611033565b6125df83600084900363ffffffff6132b216565b8047101561264f576040805162461bcd60e51b815260206004820152601d60248201527f416464726573733a20696e73756666696369656e742062616c616e6365000000604482015290519081900360640190fd5b6040516000906001600160a01b0384169083908381818185875af1925050503d806000811461269a576040519150601f19603f3d011682016040523d82523d6000602084013e61269f565b606091505b50509050806119575760405162461bcd60e51b815260040180806020018281038252603a815260200180613486603a913960400191505060405180910390fd5b60008082116126ed57600080fd5b60008284816126f857fe5b04949350505050565b6000816002015460001480612726575060065460028301546001600160801b03909116115b80612741575060075460028301546001600160801b03909116105b1561275f5750600654600160801b90046001600160801b0316610e7d565b506002810154610e7d565b6001600160801b03198216600090815260046020526040812060018101546001600160a01b03163314806127ac5750805461010090046001600160a01b031633145b80156127ba5750805460ff16155b6127c357600080fd5b60005b600882015481101561286d5760008260080182815481106127e357fe5b6000918252602090912060039091020180549091506001600160a01b0316158061282d57506001600160a01b0385161580159061282d575080546001600160a01b03868116911614155b156128385750612865565b60006128448483612e45565b50509485019490506001600160a01b0386161561286257505061286d565b50505b6001016127c6565b6001600160a01b0384161561288c576008820154811061288c57600080fd5b505092915050565b60028054600160a01b900460ff16146128ac57600080fd5b6040805133815290516001600160a01b038316917f1e8d98c1b4a0d9bd2e2371026b632eb2773fcce41742e41f02f574ab69868d4c919081900360200190a250565b6128f6613361565b6000610ed2836365af62c360e01b8380806132c7565b612914613381565b60006129358463713c0e5760e01b60016001600160801b03198716856132c7565b949350505050565b60008061294e8585600186856132c7565b5195945050505050565b612960613361565b6000610b448563d845f4fb60e01b60026001600160801b03198816876132c7565b612989613411565b60006129358463189a5a1760e01b60016001600160a01b038716856132c7565b6000806129ba8686600287876132c7565b519695505050505050565b60006001600160f81b03198216612a7857604051601960f81b602080830182815260006021850181905230606081901b602287015288519095919386938a9390926036909101918401908083835b60208310612a325780518252601f199092019160209182019101612a13565b6001836020036101000a03801982511681845116808217855250505050505090500194505050505060405160208183030381529060405280519060200120915050611033565b6001600160f81b03198216604560f81b1415612c7757825180612acc5760405162461bcd60e51b81526004018080602001828103825260278152602001806134c06027913960400191505060405180910390fd5b60005b8115612ae357600101600a82049150612acf565b6060816001600160401b0381118015612afb57600080fd5b506040519080825280601f01601f191660200182016040528015612b26576020820181803683370190505b5086519350905060001982015b8315612b7857600a840660300160f81b82828060019003935081518110612b5657fe5b60200101906001600160f81b031916908160001a905350600a84049350612b33565b604051601960f81b60208083018281527f457468657265756d205369676e6564204d6573736167653a0a000000000000006021850181905286519394909387938d9392603a0191908501908083835b60208310612be65780518252601f199092019160209182019101612bc7565b51815160209384036101000a600019018019909216911617905285519190930192850191508083835b60208310612c2e5780518252601f199092019160209182019101612c0f565b6001836020036101000a03801982511681845116808217855250505050505090500194505050505060405160208183030381529060405280519060200120945050505050611033565b6040805162461bcd60e51b815260206004820152601a60248201527f556e737570706f72746564204549503139312076657273696f6e000000000000604482015290519081900360640190fd5b60028054600160a01b900460ff1614612cdc57600080fd5b6040805133815290516001600160a01b038316917fd55ec27c5c6316913ed8803c18cfd1bfefea953db909dcba6140744a9d8b0d1f919081900360200190a250565b6001600160a01b038116612d3157600080fd5b600080546040516001600160a01b03808516939216917f8be0079c531659141344cd1fd0a4f28419497f9722a3daafe3b4186f6b6457e091a3600080546001600160a01b0319166001600160a01b0392909216919091179055565b60008151604114612d9c57600080fd5b60208201516040830151606084015160001a601b811015612dbb57601b015b8060ff16601b1480612dd057508060ff16601c145b612dd957600080fd5b6040805160008152602080820180845289905260ff8416828401526060820186905260808201859052915160019260a0808401939192601f1981019281900390910190855afa158015612e30573d6000803e3d6000fd5b5050604051601f190151979650505050505050565b6000806000807f000000000000000000000000000000000000000000000000000000000000000063ffffffff168660020160109054906101000a90046001600160401b03166001600160401b031681612e9a57fe5b0490506000612ef4612eaa610b4d565b60028901547f000000000000000000000000000000000000000000000000000000000000000063ffffffff1690600160c01b90046001600160401b031681612eee57fe5b04613317565b6002870154909150600090612f0e90849061ffff16613335565b8754604080516390dcb51f60e01b81526001600160a01b039283166004820152905192935060009283927f000000000000000000000000000000000000000000000000000000000000000016916390dcb51f916024808301926020929190829003018186803b158015612f8057600080fd5b505afa158015612f94573d6000803e3d6000fd5b505050506040513d6020811015612faa57600080fd5b505160028a015490915060009061ffff1661306957895460408051634789d02d60e01b81526001600160a01b03928316600482015261ffff8916602482015290517f000000000000000000000000000000000000000000000000000000000000000090921691634789d02d91604480820192602092909190829003018186803b15801561303657600080fd5b505afa15801561304a573d6000803e3d6000fd5b505050506040513d602081101561306057600080fd5b50519050613070565b5060018901545b8097505b818810156131a757895460408051638fa95a1560e01b81526001600160a01b039283166004820152602481018b9052815160009384937f000000000000000000000000000000000000000000000000000000000000000090911692638fa95a159260448083019392829003018186803b1580156130f057600080fd5b505afa158015613104573d6000803e3d6000fd5b505050506040513d604081101561311a57600080fd5b508051602090910151909250905061ffff808816908316111561313e5750506131a7565b8561ffff168161ffff16101561315557505061319c565b61317c6131628784613335565b61316c8984613317565b61ffff169063ffffffff61334d16565b600101850194508061ffff168761ffff16116131995750506131a7565b50505b600190970196613074565b8954604080516351f5e0c160e11b81526001600160a01b03928316600482015290516000927f0000000000000000000000000000000000000000000000000000000000000000169163a3ebc182916024808301926020929190829003018186803b15801561321457600080fd5b505afa158015613228573d6000803e3d6000fd5b505050506040513d602081101561323e57600080fd5b50519050888314801561325857508561ffff168161ffff16105b156132715761326a6001860382613335565b8603840193505b5050506002989098015461ffff9098166001600160801b03988916029097169793965060010194509192505050565b600082820183811015610ed257600080fd5b6000828211156132c157600080fd5b50900390565b60405184815283156132da578260048201525b60018411156132ea578160248201525b6000808560200260040183895af48015613308573d6000833e61330d565b600082fd5b5095945050505050565b60008161ffff168361ffff161061332e5781610ed2565b5090919050565b60008161ffff168361ffff16101561332e5781610ed2565b60008261ffff168261ffff1611156132c157fe5b604080516060810182526000808252602082018190529181019190915290565b60405180610180016040528060001515815260200160006001600160a01b0316815260200160006001600160a01b0316815260200160006001600160801b0316815260200160006001600160401b0316815260200160006001600160401b031681526020016000815260200160008152602001600081526020016000815260200160008152602001606081525090565b604051806080016040528060006001600160801b03168152602001600061ffff1681526020016000815260200160008152509056fe546865207374616b65722773206d696e206665652072617465206d7573742066616c6c2077697468696e2074686520676c6f62616c206665652072616e6765416464726573733a20756e61626c6520746f2073656e642076616c75652c20726563697069656e74206d61792068617665207265766572746564456d707479206d657373616765206e6f7420616c6c6f77656420666f722076657273696f6e2045a2646970667358221220e04bdbf56f67a4f64aa85a9578302cf9921e7026c20e3030e661dc8ab5261fc664736f6c63430006070033",
  "bytecodeSha1": "8795c55f939057bcb0d5fac3ddee6e808c8492ee",
  "compiler": {
    "evm_version": "berlin",
    "optimizer": {
      "enabled": true,
      "runs": 200
    },
    "version": "0.6.7"
  },
  "contractName": "PolicyManager",
  "language": "Solidity",
  "natspec": {
    "details": "|v6.1.1|",
    "methods": {
      "calculateRefundValue(bytes16)": {
        "notice": "Calculate amount of refund",
        "params": {
          "_policyId": "Policy id"
        }
      },
      "calculateRefundValue(bytes16,address)": {
        "notice": "Calculate amount of refund",
        "params": {
          "_node": "Node",
          "_policyId": "Policy id"
        }
      },
      "constructor": {
        "params": {
          "_escrow": "Escrow contract"
        }
      },
      "createPolicy(bytes16,address,uint64,address[])": {
        "details": "Generate policy id before creation",
        "notice": "Create policy",
        "params": {
          "_endTimestamp": "End timestamp of the policy in seconds",
          "_nodes": "Nodes that will handle policy",
          "_policyId": "Policy id",
          "_policyOwner": "Policy owner. Zero address means sender is owner"
        }
      },
      "finishUpgrade(address)": {
        "details": "the `onlyWhileUpgrading` modifier works through a call to the parent `finishUpgrade`"
      },
      "getArrangementInfo(bytes16,uint256)": {
        "notice": "Return the information about arrangement"
      },
      "getArrangementsLength(bytes16)": {
        "notice": "Get number of arrangements in the policy",
        "params": {
          "_policyId": "Policy id"
        }
      },
      "getMinFeeRate(address)": {
        "notice": "Get the minimum acceptable fee rate (set by staker for their associated worker)"
      },
      "getNodeFeeDelta(address,uint16)": {
        "notice": "Get information about staker's fee rate",
        "params": {
          "_node": "Address of staker",
          "_period": "Period to get fee delta"
        }
      },
      "getPolicyOwner(bytes16)": {
        "notice": "Get policy owner"
      },
      "getRevocationHash(bytes16,address)": {
        "notice": "Get unsigned hash for revocation",
        "params": {
          "_node": "Node that will be excluded",
          "_policyId": "Policy id"
        },
        "returns": {
          "_0": "Revocation hash, EIP191 version 0x45 ('E')"
        }
      },
      "refund(bytes16)": {
        "notice": "Refund part of fee by the sponsor",
        "params": {
          "_policyId": "Policy id"
        }
      },
      "refund(bytes16,address)": {
        "notice": "Refund part of one node's fee by the sponsor",
        "params": {
          "_node": "Node address",
          "_policyId": "Policy id"
        }
      },
      "register(address,uint16)": {
        "notice": "Register a node",
        "params": {
          "_node": "Node address",
          "_period": "Initial period"
        }
      },
      "renounceOwnership()": {
        "details": "Allows the current owner to relinquish control of the contract.",
        "notice": "Renouncing to ownership will leave the contract without an owner. It will not be possible to call the functions with the `onlyOwner` modifier anymore."
      },
      "revoke(bytes16,address,bytes)": {
        "notice": "Revoke policy or arrangement using owner's signature",
        "params": {
          "_node": "Node that will be excluded, zero address if whole policy will be revoked",
          "_policyId": "Policy id",
          "_signature": "Signature of owner, EIP191 version 0x45 ('E')"
        }
      },
      "revokeArrangement(bytes16,address)": {
        "notice": "Revoke arrangement by the sponsor",
        "params": {
          "_node": "Node that will be excluded",
          "_policyId": "Policy id"
        }
      },
      "revokePolicy(bytes16)": {
        "notice": "Revoke policy by the sponsor",
        "params": {
          "_policyId": "Policy id"
        }
      },
      "setDefaultFeeDelta(address,uint16)": {
        "details": "This method increases gas cost for node in trade of decreasing cost for policy sponsor",
        "notice": "Set default `feeDelta` value for specified period",
        "params": {
          "_node": "Node address",
          "_period": "Period to set"
        }
      },
      "setFeeRateRange(uint128,uint128,uint128)": {
        "notice": "Set minimum, default & maximum fee rate for all stakers and all policies ('global fee range')"
      },
      "setMinFeeRate(uint256)": {
        "details": "Input value must fall within `feeRateRange` (global fee range)",
        "notice": "Set the minimum acceptable fee rate (set by staker for their associated worker)"
      },
      "transferOwnership(address)": {
        "details": "Allows the current owner to transfer control of the contract to a newOwner.",
        "params": {
          "newOwner": "The address to transfer ownership to."
        }
      },
      "updateFee(address,uint16)": {
        "notice": "Update node fee",
        "params": {
          "_node": "Node address",
          "_period": "Processed period"
        }
      },
      "verifyState(address)": {
        "details": "the `onlyWhileUpgrading` modifier works through a call to the parent `verifyState`"
      },
      "withdraw()": {
        "notice": "Withdraw fee by node"
      },
      "withdraw(address)": {
        "notice": "Withdraw fee by node",
        "params": {
          "_recipient": "Recipient of the fee"
        }
      }
    },
    "notice": "Contract holds policy data and locks accrued policy fees",
    "title": "PolicyManager"
  },
  "opcodes": "PUSH1 0x80 PUSH1 0x40 MSTORE PUSH1 0x4 CALLDATASIZE LT PUSH2 0x21A JUMPI PUSH1 0x0 CALLDATALOAD PUSH1 0xE0 SHR DUP1 PUSH4 0x889DDD1A GT PUSH2 0x123 JUMPI DUP1 PUSH4 0xB9626D21 GT PUSH2 0xAB JUMPI DUP1 PUSH4 0xE2FDCC17 GT PUSH2 0x6F JUMPI DUP1 PUSH4 0xE2FDCC17 EQ PUSH2 0xA1B JUMPI DUP1 PUSH4 0xE38A303B EQ PUSH2 0xA30 JUMPI DUP1 PUSH4 0xE665830D EQ PUSH2 0xA5B JUMPI DUP1 PUSH4 0xE8DCCD06 EQ PUSH2 0xA8F JUMPI DUP1 PUSH4 0xF2FDE38B EQ PUSH2 0xAC2 JUMPI PUSH2 0x21A JUMP JUMPDEST DUP1 PUSH4 0xB9626D21 EQ PUSH2 0x8F6 JUMPI DUP1 PUSH4 0xCBF12F2A EQ PUSH2 0x929 JUMPI DUP1 PUSH4 0xD4B83992 EQ PUSH2 0x96C JUMPI DUP1 PUSH4 0xD845F4FB EQ PUSH2 0x981 JUMPI DUP1 PUSH4 0xDFDECFAF EQ PUSH2 0x9E7 JUMPI PUSH2 0x21A JUMP JUMPDEST DUP1 PUSH4 0x8E81CA5A GT PUSH2 0xF2 JUMPI DUP1 PUSH4 0x8E81CA5A EQ PUSH2 0x7DC JUMPI DUP1 PUSH4 0x8F32D59B EQ PUSH2 0x819 JUMPI DUP1 PUSH4 0xA2D1D5E2 EQ PUSH2 0x842 JUMPI DUP1 PUSH4 0xA87D40D9 EQ PUSH2 0x876 JUMPI DUP1 PUSH4 0xB438C4CD EQ PUSH2 0x8B9 JUMPI PUSH2 0x21A JUMP JUMPDEST DUP1 PUSH4 0x889DDD1A EQ PUSH2 0x727 JUMPI DUP1 PUSH4 0x8C316B90 EQ PUSH2 0x75A JUMPI DUP1 PUSH4 0x8D7FD2FA EQ PUSH2 0x784 JUMPI DUP1 PUSH4 0x8DA5CB5B EQ PUSH2 0x7C7 JUMPI PUSH2 0x21A JUMP JUMPDEST DUP1 PUSH4 0x58CF15FB GT PUSH2 0x1A6 JUMPI DUP1 PUSH4 0x6BD2AF57 GT PUSH2 0x175 JUMPI DUP1 PUSH4 0x6BD2AF57 EQ PUSH2 0x556 JUMPI DUP1 PUSH4 0x713C0E57 EQ PUSH2 0x58A JUMPI DUP1 PUSH4 0x715018A6 EQ PUSH2 0x636 JUMPI DUP1 PUSH4 0x72BE8D8D EQ PUSH2 0x64B JUMPI DUP1 PUSH4 0x81E742A1 EQ PUSH2 0x688 JUMPI PUSH2 0x21A JUMP JUMPDEST DUP1 PUSH4 0x58CF15FB EQ PUSH2 0x45A JUMPI DUP1 PUSH4 0x631722F2 EQ PUSH2 0x48E JUMPI DUP1 PUSH4 0x63C509D5 EQ PUSH2 0x4D3 JUMPI DUP1 PUSH4 0x65AF62C3 EQ PUSH2 0x516 JUMPI PUSH2 0x21A JUMP JUMPDEST DUP1 PUSH4 0x3EA2391F GT PUSH2 0x1ED JUMPI DUP1 PUSH4 0x3EA2391F EQ PUSH2 0x374 JUMPI DUP1 PUSH4 0x407F8001 EQ PUSH2 0x3B3 JUMPI DUP1 PUSH4 0x4B2CD118 EQ PUSH2 0x3E1 JUMPI DUP1 PUSH4 0x4B8FED4F EQ PUSH2 0x412 JUMPI DUP1 PUSH4 0x51CFF8D9 EQ PUSH2 0x427 JUMPI PUSH2 0x21A JUMP JUMPDEST DUP1 PUSH4 0x76421E8 EQ PUSH2 0x21F JUMPI DUP1 PUSH4 0x86146D2 EQ PUSH2 0x2CD JUMPI DUP1 PUSH4 0x189A5A17 EQ PUSH2 0x2F9 JUMPI DUP1 PUSH4 0x3CCFD60B EQ PUSH2 0x35F JUMPI JUMPDEST PUSH1 0x0 DUP1 REVERT JUMPDEST CALLVALUE DUP1 ISZERO PUSH2 0x22B JUMPI PUSH1 0x0 DUP1 REVERT JUMPDEST POP PUSH2 0x2BB PUSH1 0x4 DUP1 CALLDATASIZE SUB PUSH1 0x60 DUP2 LT ISZERO PUSH2 0x242 JUMPI PUSH1 0x0 DUP1 REVERT JUMPDEST PUSH1 0x1 PUSH1 0x1 PUSH1 0x80 SHL SUB NOT DUP3 CALLDATALOAD AND SWAP2 PUSH1 0x1 PUSH1 0x1 PUSH1 0xA0 SHL SUB PUSH1 0x20 DUP3 ADD CALLDATALOAD AND SWAP2 DUP2 ADD SWAP1 PUSH1 0x60 DUP2 ADD PUSH1 0x40 DUP3 ADD CALLDATALOAD PUSH5 0x100000000 DUP2 GT ISZERO PUSH2 0x27C JUMPI PUSH1 0x0 DUP1 REVERT JUMPDEST DUP3 ADD DUP4 PUSH1 0x20 DUP3 ADD GT ISZERO PUSH2 0x28E JUMPI PUSH1 0x0 DUP1 REVERT JUMPDEST DUP1 CALLDATALOAD SWAP1 PUSH1 0x20 ADD SWAP2 DUP5 PUSH1 0x1 DUP4 MUL DUP5 ADD GT PUSH5 0x100000000 DUP4 GT OR ISZERO PUSH2 0x2B0 JUMPI PUSH1 0x0 DUP1 REVERT JUMPDEST POP SWAP1 SWAP3 POP SWAP1 POP PUSH2 0xAF5 JUMP JUMPDEST PUSH1 0x40 DUP1 MLOAD SWAP2 DUP3 MSTORE MLOAD SWAP1 DUP2 SWAP1 SUB PUSH1 0x20 ADD SWAP1 RETURN JUMPDEST CALLVALUE DUP1 ISZERO PUSH2 0x2D9 JUMPI PUSH1 0x0 DUP1 REVERT JUMPDEST POP PUSH2 0x2E2 PUSH2 0xB4D JUMP JUMPDEST PUSH1 0x40 DUP1 MLOAD PUSH2 0xFFFF SWAP1 SWAP3 AND DUP3 MSTORE MLOAD SWAP1 DUP2 SWAP1 SUB PUSH1 0x20 ADD SWAP1 RETURN JUMPDEST CALLVALUE DUP1 ISZERO PUSH2 0x305 JUMPI PUSH1 0x0 DUP1 REVERT JUMPDEST POP PUSH2 0x32C PUSH1 0x4 DUP1 CALLDATASIZE SUB PUSH1 0x20 DUP2 LT ISZERO PUSH2 0x31C JUMPI PUSH1 0x0 DUP1 REVERT JUMPDEST POP CALLDATALOAD PUSH1 0x1 PUSH1 0x1 PUSH1 0xA0 SHL SUB AND PUSH2 0xB84 JUMP JUMPDEST PUSH1 0x40 DUP1 MLOAD PUSH1 0x1 PUSH1 0x1 PUSH1 0x80 SHL SUB SWAP1 SWAP6 AND DUP6 MSTORE PUSH2 0xFFFF SWAP1 SWAP4 AND PUSH1 0x20 DUP6 ADD MSTORE DUP4 DUP4 ADD SWAP2 SWAP1 SWAP2 MSTORE PUSH1 0x60 DUP4 ADD MSTORE MLOAD SWAP1 DUP2 SWAP1 SUB PUSH1 0x80 ADD SWAP1 RETURN JUMPDEST CALLVALUE DUP1 ISZERO PUSH2 0x36B JUMPI PUSH1 0x0 DUP1 REVERT JUMPDEST POP PUSH2 0x2BB PUSH2 0xBBB JUMP JUMPDEST CALLVALUE DUP1 ISZERO PUSH2 0x380 JUMPI PUSH1 0x0 DUP1 REVERT JUMPDEST POP PUSH2 0x3B1 PUSH1 0x4 DUP1 CALLDATASIZE SUB PUSH1 0x40 DUP2 LT ISZERO PUSH2 0x397 JUMPI PUSH1 0x0 DUP1 REVERT JUMPDEST POP DUP1 CALLDATALOAD PUSH1 0x1 PUSH1 0x1 PUSH1 0xA0 SHL SUB AND SWAP1 PUSH1 0x20 ADD CALLDATALOAD PUSH2 0xFFFF AND PUSH2 0xBCB JUMP JUMPDEST STOP JUMPDEST CALLVALUE DUP1 ISZERO PUSH2 0x3BF JUMPI PUSH1 0x0 DUP1 REVERT JUMPDEST POP PUSH2 0x3C8 PUSH2 0xDB0 JUMP JUMPDEST PUSH1 0x40 DUP1 MLOAD PUSH4 0xFFFFFFFF SWAP1 SWAP3 AND DUP3 MSTORE MLOAD SWAP1 DUP2 SWAP1 SUB PUSH1 0x20 ADD SWAP1 RETURN JUMPDEST CALLVALUE DUP1 ISZERO PUSH2 0x3ED JUMPI PUSH1 0x0 DUP1 REVERT JUMPDEST POP PUSH2 0x3F6 PUSH2 0xDD4 JUMP JUMPDEST PUSH1 0x40 DUP1 MLOAD PUSH1 0x1 PUSH1 0x1 PUSH1 0xA0 SHL SUB SWAP1 SWAP3 AND DUP3 MSTORE MLOAD SWAP1 DUP2 SWAP1 SUB PUSH1 0x20 ADD SWAP1 RETURN JUMPDEST CALLVALUE DUP1 ISZERO PUSH2 0x41E JUMPI PUSH1 0x0 DUP1 REVERT JUMPDEST POP PUSH2 0x2BB PUSH2 0xDE3 JUMP JUMPDEST CALLVALUE DUP1 ISZERO PUSH2 0x433 JUMPI PUSH1 0x0 DUP1 REVERT JUMPDEST POP PUSH2 0x2BB PUSH1 0x4 DUP1 CALLDATASIZE SUB PUSH1 0x20 DUP2 LT ISZERO PUSH2 0x44A JUMPI PUSH1 0x0 DUP1 REVERT JUMPDEST POP CALLDATALOAD PUSH1 0x1 PUSH1 0x1 PUSH1 0xA0 SHL SUB AND PUSH2 0xDEE JUMP JUMPDEST CALLVALUE DUP1 ISZERO PUSH2 0x466 JUMPI PUSH1 0x0 DUP1 REVERT JUMPDEST POP PUSH2 0x3F6 PUSH1 0x4 DUP1 CALLDATASIZE SUB PUSH1 0x20 DUP2 LT ISZERO PUSH2 0x47D JUMPI PUSH1 0x0 DUP1 REVERT JUMPDEST POP CALLDATALOAD PUSH1 0x1 PUSH1 0x1 PUSH1 0x80 SHL SUB NOT AND PUSH2 0xE82 JUMP JUMPDEST CALLVALUE DUP1 ISZERO PUSH2 0x49A JUMPI PUSH1 0x0 DUP1 REVERT JUMPDEST POP PUSH2 0x3B1 PUSH1 0x4 DUP1 CALLDATASIZE SUB PUSH1 0x60 DUP2 LT ISZERO PUSH2 0x4B1 JUMPI PUSH1 0x0 DUP1 REVERT JUMPDEST POP PUSH1 0x1 PUSH1 0x1 PUSH1 0x80 SHL SUB DUP2 CALLDATALOAD DUP2 AND SWAP2 PUSH1 0x20 DUP2 ADD CALLDATALOAD DUP3 AND SWAP2 PUSH1 0x40 SWAP1 SWAP2 ADD CALLDATALOAD AND PUSH2 0xED9 JUMP JUMPDEST CALLVALUE DUP1 ISZERO PUSH2 0x4DF JUMPI PUSH1 0x0 DUP1 REVERT JUMPDEST POP PUSH2 0x2BB PUSH1 0x4 DUP1 CALLDATASIZE SUB PUSH1 0x40 DUP2 LT ISZERO PUSH2 0x4F6 JUMPI PUSH1 0x0 DUP1 REVERT JUMPDEST POP DUP1 CALLDATALOAD PUSH1 0x1 PUSH1 0x1 PUSH1 0x80 SHL SUB NOT AND SWAP1 PUSH1 0x20 ADD CALLDATALOAD PUSH1 0x1 PUSH1 0x1 PUSH1 0xA0 SHL SUB AND PUSH2 0xFC3 JUMP JUMPDEST CALLVALUE DUP1 ISZERO PUSH2 0x522 JUMPI PUSH1 0x0 DUP1 REVERT JUMPDEST POP PUSH2 0x52B PUSH2 0x1039 JUMP JUMPDEST PUSH1 0x40 DUP1 MLOAD PUSH1 0x1 PUSH1 0x1 PUSH1 0x80 SHL SUB SWAP5 DUP6 AND DUP2 MSTORE SWAP3 DUP5 AND PUSH1 0x20 DUP5 ADD MSTORE SWAP3 AND DUP2 DUP4 ADD MSTORE SWAP1 MLOAD SWAP1 DUP2 SWAP1 SUB PUSH1 0x60 ADD SWAP1 RETURN JUMPDEST CALLVALUE DUP1 ISZERO PUSH2 0x562 JUMPI PUSH1 0x0 DUP1 REVERT JUMPDEST POP PUSH2 0x2BB PUSH1 0x4 DUP1 CALLDATASIZE SUB PUSH1 0x20 DUP2 LT ISZERO PUSH2 0x579 JUMPI PUSH1 0x0 DUP1 REVERT JUMPDEST POP CALLDATALOAD PUSH1 0x1 PUSH1 0x1 PUSH1 0x80 SHL SUB NOT AND PUSH2 0x1059 JUMP JUMPDEST CALLVALUE DUP1 ISZERO PUSH2 0x596 JUMPI PUSH1 0x0 DUP1 REVERT JUMPDEST POP PUSH2 0x5BE PUSH1 0x4 DUP1 CALLDATASIZE SUB PUSH1 0x20 DUP2 LT ISZERO PUSH2 0x5AD JUMPI PUSH1 0x0 DUP1 REVERT JUMPDEST POP CALLDATALOAD PUSH1 0x1 PUSH1 0x1 PUSH1 0x80 SHL SUB NOT AND PUSH2 0x1078 JUMP JUMPDEST PUSH1 0x40 DUP1 MLOAD SWAP12 ISZERO ISZERO DUP13 MSTORE PUSH1 0x1 PUSH1 0x1 PUSH1 0xA0 SHL SUB SWAP11 DUP12 AND PUSH1 0x20 DUP14 ADD MSTORE SWAP9 SWAP1 SWAP10 AND DUP11 DUP10 ADD MSTORE PUSH1 0x1 PUSH1 0x1 PUSH1 0x80 SHL SUB SWAP1 SWAP7 AND PUSH1 0x60 DUP11 ADD MSTORE PUSH1 0x1 PUSH1 0x1 PUSH1 0x40 SHL SUB SWAP5 DUP6 AND PUSH1 0x80 DUP11 ADD MSTORE SWAP3 SWAP1 SWAP4 AND PUSH1 0xA0 DUP9 ADD MSTORE PUSH1 0xC0 DUP8 ADD MSTORE PUSH1 0xE0 DUP7 ADD SWAP2 SWAP1 SWAP2 MSTORE PUSH2 0x100 DUP6 ADD MSTORE PUSH2 0x120 DUP5 ADD MSTORE PUSH2 0x140 DUP4 ADD SWAP2 SWAP1 SWAP2 MSTORE MLOAD SWAP1 DUP2 SWAP1 SUB PUSH2 0x160 ADD SWAP1 RETURN JUMPDEST CALLVALUE DUP1 ISZERO PUSH2 0x642 JUMPI PUSH1 0x0 DUP1 REVERT JUMPDEST POP PUSH2 0x3B1 PUSH2 0x10F6 JUMP JUMPDEST CALLVALUE DUP1 ISZERO PUSH2 0x657 JUMPI PUSH1 0x0 DUP1 REVERT JUMPDEST POP PUSH2 0x3B1 PUSH1 0x4 DUP1 CALLDATASIZE SUB PUSH1 0x40 DUP2 LT ISZERO PUSH2 0x66E JUMPI PUSH1 0x0 DUP1 REVERT JUMPDEST POP DUP1 CALLDATALOAD PUSH1 0x1 PUSH1 0x1 PUSH1 0xA0 SHL SUB AND SWAP1 PUSH1 0x20 ADD CALLDATALOAD PUSH2 0xFFFF AND PUSH2 0x1151 JUMP JUMPDEST PUSH2 0x3B1 PUSH1 0x4 DUP1 CALLDATASIZE SUB PUSH1 0x80 DUP2 LT ISZERO PUSH2 0x69E JUMPI PUSH1 0x0 DUP1 REVERT JUMPDEST PUSH1 0x1 PUSH1 0x1 PUSH1 0x80 SHL SUB NOT DUP3 CALLDATALOAD AND SWAP2 PUSH1 0x1 PUSH1 0x1 PUSH1 0xA0 SHL SUB PUSH1 0x20 DUP3 ADD CALLDATALOAD AND SWAP2 PUSH1 0x1 PUSH1 0x1 PUSH1 0x40 SHL SUB PUSH1 0x40 DUP4 ADD CALLDATALOAD AND SWAP2 SWAP1 DUP2 ADD SWAP1 PUSH1 0x80 DUP2 ADD PUSH1 0x60 DUP3 ADD CALLDATALOAD PUSH5 0x100000000 DUP2 GT ISZERO PUSH2 0x6E8 JUMPI PUSH1 0x0 DUP1 REVERT JUMPDEST DUP3 ADD DUP4 PUSH1 0x20 DUP3 ADD GT ISZERO PUSH2 0x6FA JUMPI PUSH1 0x0 DUP1 REVERT JUMPDEST DUP1 CALLDATALOAD SWAP1 PUSH1 0x20 ADD SWAP2 DUP5 PUSH1 0x20 DUP4 MUL DUP5 ADD GT PUSH5 0x100000000 DUP4 GT OR ISZERO PUSH2 0x71C JUMPI PUSH1 0x0 DUP1 REVERT JUMPDEST POP SWAP1 SWAP3 POP SWAP1 POP PUSH2 0x11F0 JUMP JUMPDEST CALLVALUE DUP1 ISZERO PUSH2 0x733 JUMPI PUSH1 0x0 DUP1 REVERT JUMPDEST POP PUSH2 0x2BB PUSH1 0x4 DUP1 CALLDATASIZE SUB PUSH1 0x20 DUP2 LT ISZERO PUSH2 0x74A JUMPI PUSH1 0x0 DUP1 REVERT JUMPDEST POP CALLDATALOAD PUSH1 0x1 PUSH1 0x1 PUSH1 0xA0 SHL SUB AND PUSH2 0x1712 JUMP JUMPDEST CALLVALUE DUP1 ISZERO PUSH2 0x766 JUMPI PUSH1 0x0 DUP1 REVERT JUMPDEST POP PUSH2 0x3B1 PUSH1 0x4 DUP1 CALLDATASIZE SUB PUSH1 0x20 DUP2 LT ISZERO PUSH2 0x77D JUMPI PUSH1 0x0 DUP1 REVERT JUMPDEST POP CALLDATALOAD PUSH2 0x1733 JUMP JUMPDEST CALLVALUE DUP1 ISZERO PUSH2 0x790 JUMPI PUSH1 0x0 DUP1 REVERT JUMPDEST POP PUSH2 0x2BB PUSH1 0x4 DUP1 CALLDATASIZE SUB PUSH1 0x40 DUP2 LT ISZERO PUSH2 0x7A7 JUMPI PUSH1 0x0 DUP1 REVERT JUMPDEST POP DUP1 CALLDATALOAD PUSH1 0x1 PUSH1 0x1 PUSH1 0x80 SHL SUB NOT AND SWAP1 PUSH1 0x20 ADD CALLDATALOAD PUSH1 0x1 PUSH1 0x1 PUSH1 0xA0 SHL SUB AND PUSH2 0x17F7 JUMP JUMPDEST CALLVALUE DUP1 ISZERO PUSH2 0x7D3 JUMPI PUSH1 0x0 DUP1 REVERT JUMPDEST POP PUSH2 0x3F6 PUSH2 0x1835 JUMP JUMPDEST CALLVALUE DUP1 ISZERO PUSH2 0x7E8 JUMPI PUSH1 0x0 DUP1 REVERT JUMPDEST POP PUSH2 0x2BB PUSH1 0x4 DUP1 CALLDATASIZE SUB PUSH1 0x40 DUP2 LT ISZERO PUSH2 0x7FF JUMPI PUSH1 0x0 DUP1 REVERT JUMPDEST POP DUP1 CALLDATALOAD PUSH1 0x1 PUSH1 0x1 PUSH1 0xA0 SHL SUB AND SWAP1 PUSH1 0x20 ADD CALLDATALOAD PUSH2 0xFFFF AND PUSH2 0x1844 JUMP JUMPDEST CALLVALUE DUP1 ISZERO PUSH2 0x825 JUMPI PUSH1 0x0 DUP1 REVERT JUMPDEST POP PUSH2 0x82E PUSH2 0x1875 JUMP JUMPDEST PUSH1 0x40 DUP1 MLOAD SWAP2 ISZERO ISZERO DUP3 MSTORE MLOAD SWAP1 DUP2 SWAP1 SUB PUSH1 0x20 ADD SWAP1 RETURN JUMPDEST CALLVALUE DUP1 ISZERO PUSH2 0x84E JUMPI PUSH1 0x0 DUP1 REVERT JUMPDEST POP PUSH2 0x2BB PUSH1 0x4 DUP1 CALLDATASIZE SUB PUSH1 0x20 DUP2 LT ISZERO PUSH2 0x865 JUMPI PUSH1 0x0 DUP1 REVERT JUMPDEST POP CALLDATALOAD PUSH1 0x1 PUSH1 0x1 PUSH1 0x80 SHL SUB NOT AND PUSH2 0x1886 JUMP JUMPDEST CALLVALUE DUP1 ISZERO PUSH2 0x882 JUMPI PUSH1 0x0 DUP1 REVERT JUMPDEST POP PUSH2 0x2BB PUSH1 0x4 DUP1 CALLDATASIZE SUB PUSH1 0x40 DUP2 LT ISZERO PUSH2 0x899 JUMPI PUSH1 0x0 DUP1 REVERT JUMPDEST POP DUP1 CALLDATALOAD PUSH1 0x1 PUSH1 0x1 PUSH1 0x80 SHL SUB NOT AND SWAP1 PUSH1 0x20 ADD CALLDATALOAD PUSH1 0x1 PUSH1 0x1 PUSH1 0xA0 SHL SUB AND PUSH2 0x18B2 JUMP JUMPDEST CALLVALUE DUP1 ISZERO PUSH2 0x8C5 JUMPI PUSH1 0x0 DUP1 REVERT JUMPDEST POP PUSH2 0x3B1 PUSH1 0x4 DUP1 CALLDATASIZE SUB PUSH1 0x40 DUP2 LT ISZERO PUSH2 0x8DC JUMPI PUSH1 0x0 DUP1 REVERT JUMPDEST POP DUP1 CALLDATALOAD PUSH1 0x1 PUSH1 0x1 PUSH1 0xA0 SHL SUB AND SWAP1 PUSH1 0x20 ADD CALLDATALOAD PUSH2 0xFFFF AND PUSH2 0x18D1 JUMP JUMPDEST CALLVALUE DUP1 ISZERO PUSH2 0x902 JUMPI PUSH1 0x0 DUP1 REVERT JUMPDEST POP PUSH2 0x3B1 PUSH1 0x4 DUP1 CALLDATASIZE SUB PUSH1 0x20 DUP2 LT ISZERO PUSH2 0x919 JUMPI PUSH1 0x0 DUP1 REVERT JUMPDEST POP CALLDATALOAD PUSH1 0x1 PUSH1 0x1 PUSH1 0xA0 SHL SUB AND PUSH2 0x195C JUMP JUMPDEST CALLVALUE DUP1 ISZERO PUSH2 0x935 JUMPI PUSH1 0x0 DUP1 REVERT JUMPDEST POP PUSH2 0x2BB PUSH1 0x4 DUP1 CALLDATASIZE SUB PUSH1 0x40 DUP2 LT ISZERO PUSH2 0x94C JUMPI PUSH1 0x0 DUP1 REVERT JUMPDEST POP DUP1 CALLDATALOAD PUSH1 0x1 PUSH1 0x1 PUSH1 0x80 SHL SUB NOT AND SWAP1 PUSH1 0x20 ADD CALLDATALOAD PUSH1 0x1 PUSH1 0x1 PUSH1 0xA0 SHL SUB AND PUSH2 0x1C6B JUMP JUMPDEST CALLVALUE DUP1 ISZERO PUSH2 0x978 JUMPI PUSH1 0x0 DUP1 REVERT JUMPDEST POP PUSH2 0x3F6 PUSH2 0x1CBB JUMP JUMPDEST CALLVALUE DUP1 ISZERO PUSH2 0x98D JUMPI PUSH1 0x0 DUP1 REVERT JUMPDEST POP PUSH2 0x9BB PUSH1 0x4 DUP1 CALLDATASIZE SUB PUSH1 0x40 DUP2 LT ISZERO PUSH2 0x9A4 JUMPI PUSH1 0x0 DUP1 REVERT JUMPDEST POP PUSH1 0x1 PUSH1 0x1 PUSH1 0x80 SHL SUB NOT DUP2 CALLDATALOAD AND SWAP1 PUSH1 0x20 ADD CALLDATALOAD PUSH2 0x1CCA JUMP JUMPDEST PUSH1 0x40 DUP1 MLOAD PUSH1 0x1 PUSH1 0x1 PUSH1 0xA0 SHL SUB SWAP1 SWAP5 AND DUP5 MSTORE PUSH1 0x20 DUP5 ADD SWAP3 SWAP1 SWAP3 MSTORE PUSH2 0xFFFF AND DUP3 DUP3 ADD MSTORE MLOAD SWAP1 DUP2 SWAP1 SUB PUSH1 0x60 ADD SWAP1 RETURN JUMPDEST CALLVALUE DUP1 ISZERO PUSH2 0x9F3 JUMPI PUSH1 0x0 DUP1 REVERT JUMPDEST POP PUSH2 0x3B1 PUSH1 0x4 DUP1 CALLDATASIZE SUB PUSH1 0x20 DUP2 LT ISZERO PUSH2 0xA0A JUMPI PUSH1 0x0 DUP1 REVERT JUMPDEST POP CALLDATALOAD PUSH1 0x1 PUSH1 0x1 PUSH1 0x80 SHL SUB NOT AND PUSH2 0x1D32 JUMP JUMPDEST CALLVALUE DUP1 ISZERO PUSH2 0xA27 JUMPI PUSH1 0x0 DUP1 REVERT JUMPDEST POP PUSH2 0x3F6 PUSH2 0x1D89 JUMP JUMPDEST CALLVALUE DUP1 ISZERO PUSH2 0xA3C JUMPI PUSH1 0x0 DUP1 REVERT JUMPDEST POP PUSH2 0xA45 PUSH2 0x1DAD JUMP JUMPDEST PUSH1 0x40 DUP1 MLOAD PUSH1 0xFF SWAP1 SWAP3 AND DUP3 MSTORE MLOAD SWAP1 DUP2 SWAP1 SUB PUSH1 0x20 ADD SWAP1 RETURN JUMPDEST CALLVALUE DUP1 ISZERO PUSH2 0xA67 JUMPI PUSH1 0x0 DUP1 REVERT JUMPDEST POP PUSH2 0x2BB PUSH1 0x4 DUP1 CALLDATASIZE SUB PUSH1 0x20 DUP2 LT ISZERO PUSH2 0xA7E JUMPI PUSH1 0x0 DUP1 REVERT JUMPDEST POP CALLDATALOAD PUSH1 0x1 PUSH1 0x1 PUSH1 0x80 SHL SUB NOT AND PUSH2 0x1DBD JUMP JUMPDEST CALLVALUE DUP1 ISZERO PUSH2 0xA9B JUMPI PUSH1 0x0 DUP1 REVERT JUMPDEST POP PUSH2 0x3B1 PUSH1 0x4 DUP1 CALLDATASIZE SUB PUSH1 0x20 DUP2 LT ISZERO PUSH2 0xAB2 JUMPI PUSH1 0x0 DUP1 REVERT JUMPDEST POP CALLDATALOAD PUSH1 0x1 PUSH1 0x1 PUSH1 0xA0 SHL SUB AND PUSH2 0x1DCA JUMP JUMPDEST CALLVALUE DUP1 ISZERO PUSH2 0xACE JUMPI PUSH1 0x0 DUP1 REVERT JUMPDEST POP PUSH2 0x3B1 PUSH1 0x4 DUP1 CALLDATASIZE SUB PUSH1 0x20 DUP2 LT ISZERO PUSH2 0xAE5 JUMPI PUSH1 0x0 DUP1 REVERT JUMPDEST POP CALLDATALOAD PUSH1 0x1 PUSH1 0x1 PUSH1 0xA0 SHL SUB AND PUSH2 0x2065 JUMP JUMPDEST PUSH1 0x0 PUSH2 0xB38 DUP6 DUP6 DUP6 DUP6 DUP1 DUP1 PUSH1 0x1F ADD PUSH1 0x20 DUP1 SWAP2 DIV MUL PUSH1 0x20 ADD PUSH1 0x40 MLOAD SWAP1 DUP2 ADD PUSH1 0x40 MSTORE DUP1 SWAP4 SWAP3 SWAP2 SWAP1 DUP2 DUP2 MSTORE PUSH1 0x20 ADD DUP4 DUP4 DUP1 DUP3 DUP5 CALLDATACOPY PUSH1 0x0 SWAP3 ADD SWAP2 SWAP1 SWAP2 MSTORE POP PUSH2 0x207F SWAP3 POP POP POP JUMP JUMPDEST PUSH2 0xB44 DUP6 DUP6 PUSH1 0x1 PUSH2 0x20C8 JUMP JUMPDEST SWAP6 SWAP5 POP POP POP POP POP JUMP JUMPDEST PUSH1 0x0 PUSH32 0x0 PUSH4 0xFFFFFFFF AND TIMESTAMP DUP2 PUSH2 0xB7E JUMPI INVALID JUMPDEST DIV SWAP1 POP SWAP1 JUMP JUMPDEST PUSH1 0x5 PUSH1 0x20 MSTORE PUSH1 0x0 SWAP1 DUP2 MSTORE PUSH1 0x40 SWAP1 KECCAK256 DUP1 SLOAD PUSH1 0x1 DUP3 ADD SLOAD PUSH1 0x2 SWAP1 SWAP3 ADD SLOAD PUSH1 0x1 PUSH1 0x1 PUSH1 0x80 SHL SUB DUP3 AND SWAP3 PUSH1 0x1 PUSH1 0x80 SHL SWAP1 SWAP3 DIV PUSH2 0xFFFF AND SWAP2 SWAP1 DUP5 JUMP JUMPDEST PUSH1 0x0 PUSH2 0xBC6 CALLER PUSH2 0xDEE JUMP JUMPDEST SWAP1 POP SWAP1 JUMP JUMPDEST CALLER PUSH1 0x1 PUSH1 0x1 PUSH1 0xA0 SHL SUB PUSH32 0x0 AND EQ PUSH2 0xC00 JUMPI PUSH1 0x0 DUP1 REVERT JUMPDEST PUSH1 0x1 PUSH1 0x1 PUSH1 0xA0 SHL SUB DUP3 AND PUSH1 0x0 SWAP1 DUP2 MSTORE PUSH1 0x5 PUSH1 0x20 MSTORE PUSH1 0x40 SWAP1 KECCAK256 DUP1 SLOAD PUSH1 0x1 PUSH1 0x80 SHL SWAP1 DIV PUSH2 0xFFFF AND ISZERO DUP1 PUSH2 0xC41 JUMPI POP DUP1 SLOAD PUSH2 0xFFFF PUSH1 0x1 PUSH1 0x80 SHL SWAP1 SWAP2 DIV DUP2 AND SWAP1 DUP4 AND GT ISZERO JUMPDEST ISZERO PUSH2 0xC4C JUMPI POP PUSH2 0xDAC JUMP JUMPDEST DUP1 SLOAD PUSH1 0x1 PUSH1 0x80 SHL SWAP1 DIV PUSH2 0xFFFF AND PUSH1 0x1 ADD JUMPDEST DUP3 PUSH2 0xFFFF AND DUP2 PUSH2 0xFFFF AND GT PUSH2 0xD6D JUMPI PUSH2 0xFFFF DUP2 AND PUSH1 0x0 SWAP1 DUP2 MSTORE PUSH1 0x3 DUP4 ADD PUSH1 0x20 MSTORE PUSH1 0x40 SWAP1 KECCAK256 SLOAD PUSH1 0x1 PUSH1 0x1 PUSH1 0xFF SHL SUB DUP2 EQ ISZERO PUSH2 0xCAD JUMPI POP PUSH2 0xFFFF DUP2 AND PUSH1 0x0 SWAP1 DUP2 MSTORE PUSH1 0x3 DUP4 ADD PUSH1 0x20 MSTORE PUSH1 0x40 DUP2 KECCAK256 SSTORE PUSH2 0xD65 JUMP JUMPDEST PUSH1 0x0 DUP2 SLT DUP1 ISZERO PUSH2 0xCC3 JUMPI POP DUP3 PUSH1 0x1 ADD SLOAD DUP2 PUSH1 0x0 SUB GT JUMPDEST ISZERO PUSH2 0xD32 JUMPI PUSH1 0x1 DUP4 ADD DUP1 SLOAD PUSH2 0xFFFF DUP1 DUP6 AND PUSH1 0x0 SWAP1 DUP2 MSTORE PUSH1 0x3 DUP8 ADD PUSH1 0x20 SWAP1 DUP2 MSTORE PUSH1 0x40 DUP1 DUP4 KECCAK256 DUP1 SLOAD SWAP1 SWAP6 ADD SWAP1 SWAP5 SSTORE SWAP4 SSTORE DUP2 MLOAD SWAP1 DUP8 AND DUP2 MSTORE SWAP1 MLOAD PUSH1 0x1 PUSH1 0x1 PUSH1 0xA0 SHL SUB DUP9 AND SWAP3 PUSH32 0xD56B4810F75E2913AF1CD9E5F0D99D273958C5A67CFF5EF0E7F298507B688BB8 SWAP3 DUP3 SWAP1 SUB ADD SWAP1 LOG2 PUSH2 0xD63 JUMP JUMPDEST PUSH1 0x1 DUP4 ADD SLOAD PUSH2 0xD47 SWAP1 DUP3 PUSH4 0xFFFFFFFF PUSH2 0x25C6 AND JUMP JUMPDEST PUSH1 0x1 DUP5 ADD SSTORE PUSH2 0xFFFF DUP3 AND PUSH1 0x0 SWAP1 DUP2 MSTORE PUSH1 0x3 DUP5 ADD PUSH1 0x20 MSTORE PUSH1 0x40 DUP2 KECCAK256 SSTORE JUMPDEST POP JUMPDEST PUSH1 0x1 ADD PUSH2 0xC5D JUMP JUMPDEST POP DUP1 SLOAD PUSH1 0x1 DUP3 ADD SLOAD PUSH1 0x1 PUSH1 0x1 PUSH1 0x80 SHL SUB NOT PUSH2 0xFFFF PUSH1 0x80 SHL NOT SWAP1 SWAP3 AND PUSH1 0x1 PUSH1 0x80 SHL PUSH2 0xFFFF DUP7 AND MUL OR SWAP2 DUP3 AND PUSH1 0x1 PUSH1 0x1 PUSH1 0x80 SHL SUB SWAP3 DUP4 AND SWAP1 SWAP2 ADD SWAP1 SWAP2 AND OR SWAP1 SSTORE JUMPDEST POP POP JUMP JUMPDEST PUSH32 0x0 DUP2 JUMP JUMPDEST PUSH1 0x2 SLOAD PUSH1 0x1 PUSH1 0x1 PUSH1 0xA0 SHL SUB AND DUP2 JUMP JUMPDEST PUSH1 0x1 PUSH1 0x1 PUSH1 0xFF SHL SUB DUP2 JUMP JUMPDEST CALLER PUSH1 0x0 SWAP1 DUP2 MSTORE PUSH1 0x5 PUSH1 0x20 MSTORE PUSH1 0x40 DUP2 KECCAK256 DUP1 SLOAD PUSH1 0x1 PUSH1 0x1 PUSH1 0x80 SHL SUB AND DUP1 PUSH2 0xE12 JUMPI PUSH1 0x0 DUP1 REVERT JUMPDEST DUP2 SLOAD PUSH1 0x1 PUSH1 0x1 PUSH1 0x80 SHL SUB NOT AND DUP3 SSTORE PUSH2 0xE39 PUSH1 0x1 PUSH1 0x1 PUSH1 0xA0 SHL SUB DUP6 AND DUP3 PUSH4 0xFFFFFFFF PUSH2 0x25FA AND JUMP JUMPDEST PUSH1 0x40 DUP1 MLOAD DUP3 DUP2 MSTORE SWAP1 MLOAD PUSH1 0x1 PUSH1 0x1 PUSH1 0xA0 SHL SUB DUP7 AND SWAP2 CALLER SWAP2 PUSH32 0xD1C19FBCD4551A5EDFB66D43D2E337C04837AFDA3482B42BDF569A8FCCDAE5FB SWAP2 DUP2 SWAP1 SUB PUSH1 0x20 ADD SWAP1 LOG3 SWAP2 POP POP JUMPDEST SWAP2 SWAP1 POP JUMP JUMPDEST PUSH1 0x1 PUSH1 0x1 PUSH1 0x80 SHL SUB NOT DUP2 AND PUSH1 0x0 SWAP1 DUP2 MSTORE PUSH1 0x4 PUSH1 0x20 MSTORE PUSH1 0x40 DUP2 KECCAK256 PUSH1 0x1 DUP2 ADD SLOAD PUSH1 0x1 PUSH1 0x1 PUSH1 0xA0 SHL SUB AND ISZERO PUSH2 0xEC1 JUMPI PUSH1 0x1 DUP2 ADD SLOAD PUSH1 0x1 PUSH1 0x1 PUSH1 0xA0 SHL SUB AND PUSH2 0xED2 JUMP JUMPDEST DUP1 SLOAD PUSH2 0x100 SWAP1 DIV PUSH1 0x1 PUSH1 0x1 PUSH1 0xA0 SHL SUB AND JUMPDEST SWAP4 SWAP3 POP POP POP JUMP JUMPDEST PUSH2 0xEE1 PUSH2 0x1875 JUMP JUMPDEST PUSH2 0xEEA JUMPI PUSH1 0x0 DUP1 REVERT JUMPDEST DUP2 PUSH1 0x1 PUSH1 0x1 PUSH1 0x80 SHL SUB AND DUP4 PUSH1 0x1 PUSH1 0x1 PUSH1 0x80 SHL SUB AND GT ISZERO DUP1 ISZERO PUSH2 0xF1E JUMPI POP DUP1 PUSH1 0x1 PUSH1 0x1 PUSH1 0x80 SHL SUB AND DUP3 PUSH1 0x1 PUSH1 0x1 PUSH1 0x80 SHL SUB AND GT ISZERO JUMPDEST PUSH2 0xF27 JUMPI PUSH1 0x0 DUP1 REVERT JUMPDEST PUSH1 0x40 DUP1 MLOAD PUSH1 0x60 DUP1 DUP3 ADD DUP4 MSTORE PUSH1 0x1 PUSH1 0x1 PUSH1 0x80 SHL SUB DUP7 DUP2 AND DUP1 DUP5 MSTORE DUP7 DUP3 AND PUSH1 0x20 DUP1 DUP7 ADD DUP3 SWAP1 MSTORE DUP8 DUP5 AND SWAP6 DUP8 ADD DUP7 SWAP1 MSTORE PUSH1 0x6 DUP1 SLOAD PUSH1 0x1 PUSH1 0x1 PUSH1 0x80 SHL SUB NOT SWAP1 DUP2 AND DUP6 OR SWAP1 SWAP6 AND PUSH1 0x1 PUSH1 0x80 SHL DUP5 MUL OR SWAP1 SSTORE PUSH1 0x7 DUP1 SLOAD SWAP1 SWAP5 AND DUP7 OR SWAP1 SWAP4 SSTORE DUP6 MLOAD SWAP2 DUP3 MSTORE SWAP2 DUP2 ADD SWAP2 SWAP1 SWAP2 MSTORE DUP1 DUP5 ADD SWAP3 SWAP1 SWAP3 MSTORE SWAP2 MLOAD CALLER SWAP3 PUSH32 0x3A93FB7C2385D29E9693A6EDCD81C4CEE090101CB783DC2F17A7814B79A2ECDC SWAP3 DUP3 SWAP1 SUB ADD SWAP1 LOG2 POP POP POP JUMP JUMPDEST PUSH1 0x0 PUSH1 0x1 PUSH1 0x1 PUSH1 0xA0 SHL SUB DUP3 AND PUSH2 0xFD8 JUMPI PUSH1 0x0 DUP1 REVERT JUMPDEST PUSH1 0x1 PUSH1 0x1 PUSH1 0x80 SHL SUB NOT DUP4 AND PUSH1 0x0 SWAP1 DUP2 MSTORE PUSH1 0x4 PUSH1 0x20 MSTORE PUSH1 0x40 SWAP1 KECCAK256 PUSH1 0x1 DUP2 ADD SLOAD PUSH1 0x1 PUSH1 0x1 PUSH1 0xA0 SHL SUB AND CALLER EQ DUP1 PUSH2 0x101A JUMPI POP DUP1 SLOAD PUSH2 0x100 SWAP1 DIV PUSH1 0x1 PUSH1 0x1 PUSH1 0xA0 SHL SUB AND CALLER EQ JUMPDEST PUSH2 0x1023 JUMPI PUSH1 0x0 DUP1 REVERT JUMPDEST PUSH2 0x102F DUP5 DUP5 PUSH1 0x0 PUSH2 0x20C8 JUMP JUMPDEST SWAP2 POP POP JUMPDEST SWAP3 SWAP2 POP POP JUMP JUMPDEST PUSH1 0x6 SLOAD PUSH1 0x7 SLOAD PUSH1 0x1 PUSH1 0x1 PUSH1 0x80 SHL SUB DUP1 DUP4 AND SWAP3 PUSH1 0x1 PUSH1 0x80 SHL SWAP1 DIV DUP2 AND SWAP2 AND DUP4 JUMP JUMPDEST PUSH1 0x1 PUSH1 0x1 PUSH1 0x80 SHL SUB NOT AND PUSH1 0x0 SWAP1 DUP2 MSTORE PUSH1 0x4 PUSH1 0x20 MSTORE PUSH1 0x40 SWAP1 KECCAK256 PUSH1 0x8 ADD SLOAD SWAP1 JUMP JUMPDEST PUSH1 0x4 PUSH1 0x20 DUP2 SWAP1 MSTORE PUSH1 0x0 SWAP2 DUP3 MSTORE PUSH1 0x40 SWAP1 SWAP2 KECCAK256 DUP1 SLOAD PUSH1 0x1 DUP3 ADD SLOAD PUSH1 0x2 DUP4 ADD SLOAD PUSH1 0x3 DUP5 ADD SLOAD SWAP5 DUP5 ADD SLOAD PUSH1 0x5 DUP6 ADD SLOAD PUSH1 0x6 DUP7 ADD SLOAD PUSH1 0x7 SWAP1 SWAP7 ADD SLOAD PUSH1 0xFF DUP7 AND SWAP8 PUSH1 0x1 PUSH1 0x1 PUSH1 0xA0 SHL SUB PUSH2 0x100 SWAP1 SWAP8 DIV DUP8 AND SWAP8 SWAP6 SWAP1 SWAP7 AND SWAP6 PUSH1 0x1 PUSH1 0x1 PUSH1 0x80 SHL SUB DUP6 AND SWAP6 PUSH1 0x1 PUSH1 0x1 PUSH1 0x40 SHL SUB PUSH1 0x1 PUSH1 0x80 SHL DUP8 DIV DUP2 AND SWAP7 PUSH1 0x1 PUSH1 0xC0 SHL SWAP1 DIV AND SWAP5 SWAP2 SWAP4 SWAP2 SWAP3 DUP12 JUMP JUMPDEST PUSH2 0x10FE PUSH2 0x1875 JUMP JUMPDEST PUSH2 0x1107 JUMPI PUSH1 0x0 DUP1 REVERT JUMPDEST PUSH1 0x0 DUP1 SLOAD PUSH1 0x40 MLOAD PUSH1 0x1 PUSH1 0x1 PUSH1 0xA0 SHL SUB SWAP1 SWAP2 AND SWAP1 PUSH32 0x8BE0079C531659141344CD1FD0A4F28419497F9722A3DAAFE3B4186F6B6457E0 SWAP1 DUP4 SWAP1 LOG3 PUSH1 0x0 DUP1 SLOAD PUSH1 0x1 PUSH1 0x1 PUSH1 0xA0 SHL SUB NOT AND SWAP1 SSTORE JUMP JUMPDEST CALLER PUSH1 0x1 PUSH1 0x1 PUSH1 0xA0 SHL SUB PUSH32 0x0 AND EQ PUSH2 0x1186 JUMPI PUSH1 0x0 DUP1 REVERT JUMPDEST PUSH1 0x1 PUSH1 0x1 PUSH1 0xA0 SHL SUB DUP3 AND PUSH1 0x0 SWAP1 DUP2 MSTORE PUSH1 0x5 PUSH1 0x20 MSTORE PUSH1 0x40 SWAP1 KECCAK256 DUP1 SLOAD PUSH1 0x1 PUSH1 0x80 SHL SWAP1 DIV PUSH2 0xFFFF AND ISZERO DUP1 ISZERO PUSH2 0x11C6 JUMPI POP PUSH2 0x11BB PUSH2 0xB4D JUMP JUMPDEST PUSH2 0xFFFF AND DUP3 PUSH2 0xFFFF AND LT JUMPDEST PUSH2 0x11CF JUMPI PUSH1 0x0 DUP1 REVERT JUMPDEST DUP1 SLOAD PUSH2 0xFFFF SWAP1 SWAP3 AND PUSH1 0x1 PUSH1 0x80 SHL MUL PUSH2 0xFFFF PUSH1 0x80 SHL NOT SWAP1 SWAP3 AND SWAP2 SWAP1 SWAP2 OR SWAP1 SSTORE POP JUMP JUMPDEST PUSH1 0x1 PUSH1 0x1 PUSH1 0x80 SHL SUB NOT DUP6 AND PUSH1 0x0 DUP2 DUP2 MSTORE PUSH1 0x4 PUSH1 0x20 MSTORE PUSH1 0x40 SWAP1 KECCAK256 SWAP1 ISZERO DUP1 ISZERO SWAP1 PUSH2 0x1223 JUMPI POP PUSH1 0x2 DUP2 ADD SLOAD PUSH1 0x1 PUSH1 0x1 PUSH1 0x80 SHL SUB AND ISZERO JUMPDEST DUP1 ISZERO PUSH2 0x1231 JUMPI POP DUP1 SLOAD PUSH1 0xFF AND ISZERO JUMPDEST DUP1 ISZERO PUSH2 0x1245 JUMPI POP TIMESTAMP DUP5 PUSH1 0x1 PUSH1 0x1 PUSH1 0x40 SHL SUB AND GT JUMPDEST DUP1 ISZERO PUSH2 0x1251 JUMPI POP PUSH1 0x0 CALLVALUE GT JUMPDEST PUSH2 0x125A JUMPI PUSH1 0x0 DUP1 REVERT JUMPDEST PUSH1 0x1 PUSH1 0x1 PUSH1 0x80 SHL SUB SELFBALANCE GT ISZERO PUSH2 0x126E JUMPI PUSH1 0x0 DUP1 REVERT JUMPDEST PUSH1 0x0 PUSH2 0x1278 PUSH2 0xB4D JUMP JUMPDEST SWAP1 POP PUSH1 0x0 PUSH32 0x0 PUSH4 0xFFFFFFFF AND DUP7 PUSH1 0x1 PUSH1 0x1 PUSH1 0x40 SHL SUB AND DUP2 PUSH2 0x12B4 JUMPI INVALID JUMPDEST DUP5 SLOAD PUSH2 0x100 CALLER MUL PUSH2 0x100 PUSH1 0x1 PUSH1 0xA8 SHL SUB NOT SWAP1 SWAP2 AND OR DUP6 SSTORE PUSH1 0x2 DUP6 ADD DUP1 SLOAD PUSH1 0x1 PUSH1 0x1 PUSH1 0x40 SHL SUB DUP11 DUP2 AND PUSH1 0x1 PUSH1 0xC0 SHL MUL PUSH1 0x1 PUSH1 0x1 PUSH1 0xC0 SHL SUB TIMESTAMP SWAP3 SWAP1 SWAP3 AND PUSH1 0x1 PUSH1 0x80 SHL MUL PUSH8 0xFFFFFFFFFFFFFFFF PUSH1 0x80 SHL NOT SWAP1 SWAP4 AND SWAP3 SWAP1 SWAP3 OR AND OR SWAP1 SSTORE DIV PUSH1 0x1 DUP2 DUP2 ADD SWAP3 POP PUSH2 0xFFFF SWAP2 DUP5 SWAP1 SUB ADD AND DUP1 PUSH2 0x1329 CALLVALUE DUP8 PUSH2 0x26DF JUMP JUMPDEST DUP2 PUSH2 0x1330 JUMPI INVALID JUMPDEST PUSH1 0x2 DUP7 ADD DUP1 SLOAD PUSH1 0x1 PUSH1 0x1 PUSH1 0x80 SHL SUB NOT AND SWAP3 SWAP1 SWAP2 DIV PUSH1 0x1 PUSH1 0x1 PUSH1 0x80 SHL SUB SWAP1 DUP2 AND SWAP3 SWAP1 SWAP3 OR SWAP1 DUP2 SWAP1 SSTORE AND ISZERO DUP1 ISZERO SWAP1 PUSH2 0x1376 JUMPI POP PUSH1 0x2 DUP5 ADD SLOAD PUSH1 0x1 PUSH1 0x1 PUSH1 0x80 SHL SUB AND DUP2 MUL DUP6 MUL CALLVALUE EQ JUMPDEST PUSH2 0x137F JUMPI PUSH1 0x0 DUP1 REVERT JUMPDEST PUSH1 0x1 PUSH1 0x1 PUSH1 0xA0 SHL SUB DUP9 AND CALLER EQ DUP1 ISZERO SWAP1 PUSH2 0x13A0 JUMPI POP PUSH1 0x1 PUSH1 0x1 PUSH1 0xA0 SHL SUB DUP9 AND ISZERO ISZERO JUMPDEST ISZERO PUSH2 0x13C3 JUMPI PUSH1 0x1 DUP5 ADD DUP1 SLOAD PUSH1 0x1 PUSH1 0x1 PUSH1 0xA0 SHL SUB NOT AND PUSH1 0x1 PUSH1 0x1 PUSH1 0xA0 SHL SUB DUP11 AND OR SWAP1 SSTORE JUMPDEST PUSH1 0x0 JUMPDEST DUP6 DUP2 LT ISZERO PUSH2 0x1668 JUMPI PUSH1 0x0 DUP8 DUP8 DUP4 DUP2 DUP2 LT PUSH2 0x13DC JUMPI INVALID JUMPDEST SWAP1 POP PUSH1 0x20 MUL ADD CALLDATALOAD PUSH1 0x1 PUSH1 0x1 PUSH1 0xA0 SHL SUB AND SWAP1 POP PUSH1 0x0 PUSH1 0x1 PUSH1 0x1 PUSH1 0xA0 SHL SUB AND DUP2 PUSH1 0x1 PUSH1 0x1 PUSH1 0xA0 SHL SUB AND EQ ISZERO PUSH2 0x140E JUMPI PUSH1 0x0 DUP1 REVERT JUMPDEST PUSH1 0x1 PUSH1 0x1 PUSH1 0xA0 SHL SUB DUP2 AND PUSH1 0x0 SWAP1 DUP2 MSTORE PUSH1 0x5 PUSH1 0x20 MSTORE PUSH1 0x40 SWAP1 KECCAK256 DUP1 SLOAD PUSH1 0x1 PUSH1 0x80 SHL SWAP1 DIV PUSH2 0xFFFF AND ISZERO DUP1 ISZERO SWAP1 PUSH2 0x144F JUMPI POP DUP1 SLOAD PUSH2 0xFFFF DUP1 DUP9 AND PUSH1 0x1 PUSH1 0x80 SHL SWAP1 SWAP3 DIV AND LT JUMPDEST DUP1 ISZERO PUSH2 0x1470 JUMPI POP PUSH2 0x145F DUP2 PUSH2 0x2701 JUMP JUMPDEST PUSH1 0x2 DUP9 ADD SLOAD PUSH1 0x1 PUSH1 0x1 PUSH1 0x80 SHL SUB AND LT ISZERO JUMPDEST PUSH2 0x1479 JUMPI PUSH1 0x0 DUP1 REVERT JUMPDEST PUSH2 0xFFFF DUP7 AND PUSH1 0x0 SWAP1 DUP2 MSTORE PUSH1 0x3 DUP3 ADD PUSH1 0x20 MSTORE PUSH1 0x40 SWAP1 KECCAK256 SLOAD PUSH1 0x1 PUSH1 0x1 PUSH1 0xFF SHL SUB EQ ISZERO PUSH2 0x14C9 JUMPI PUSH1 0x2 DUP8 ADD SLOAD PUSH2 0xFFFF DUP8 AND PUSH1 0x0 SWAP1 DUP2 MSTORE PUSH1 0x3 DUP4 ADD PUSH1 0x20 MSTORE PUSH1 0x40 SWAP1 KECCAK256 PUSH1 0x1 PUSH1 0x1 PUSH1 0x80 SHL SUB SWAP1 SWAP2 AND SWAP1 SSTORE PUSH2 0x14F6 JUMP JUMPDEST PUSH1 0x2 DUP8 ADD SLOAD PUSH2 0xFFFF DUP8 AND PUSH1 0x0 SWAP1 DUP2 MSTORE PUSH1 0x3 DUP4 ADD PUSH1 0x20 MSTORE PUSH1 0x40 SWAP1 KECCAK256 DUP1 SLOAD PUSH1 0x1 PUSH1 0x1 PUSH1 0x80 SHL SUB SWAP1 SWAP3 AND SWAP1 SWAP2 ADD SWAP1 SSTORE JUMPDEST PUSH2 0xFFFF DUP6 AND PUSH1 0x0 SWAP1 DUP2 MSTORE PUSH1 0x3 DUP3 ADD PUSH1 0x20 MSTORE PUSH1 0x40 SWAP1 KECCAK256 SLOAD PUSH1 0x1 PUSH1 0x1 PUSH1 0xFF SHL SUB EQ ISZERO PUSH2 0x1548 JUMPI PUSH1 0x2 DUP8 ADD SLOAD PUSH2 0xFFFF DUP7 AND PUSH1 0x0 SWAP1 DUP2 MSTORE PUSH1 0x3 DUP4 ADD PUSH1 0x20 MSTORE PUSH1 0x40 DUP2 KECCAK256 PUSH1 0x1 PUSH1 0x1 PUSH1 0x80 SHL SUB SWAP1 SWAP3 AND SWAP1 SUB SWAP1 SSTORE PUSH2 0x1575 JUMP JUMPDEST PUSH1 0x2 DUP8 ADD SLOAD PUSH2 0xFFFF DUP7 AND PUSH1 0x0 SWAP1 DUP2 MSTORE PUSH1 0x3 DUP4 ADD PUSH1 0x20 MSTORE PUSH1 0x40 SWAP1 KECCAK256 DUP1 SLOAD PUSH1 0x1 PUSH1 0x1 PUSH1 0x80 SHL SUB SWAP1 SWAP3 AND SWAP1 SWAP2 SUB SWAP1 SSTORE JUMPDEST PUSH2 0xFFFF DUP7 AND PUSH1 0x0 SWAP1 DUP2 MSTORE PUSH1 0x3 DUP3 ADD PUSH1 0x20 MSTORE PUSH1 0x40 SWAP1 KECCAK256 SLOAD PUSH2 0x15AF JUMPI PUSH2 0xFFFF DUP7 AND PUSH1 0x0 SWAP1 DUP2 MSTORE PUSH1 0x3 DUP3 ADD PUSH1 0x20 MSTORE PUSH1 0x40 SWAP1 KECCAK256 PUSH1 0x1 PUSH1 0x1 PUSH1 0xFF SHL SUB SWAP1 SSTORE JUMPDEST PUSH2 0xFFFF DUP6 AND PUSH1 0x0 SWAP1 DUP2 MSTORE PUSH1 0x3 DUP3 ADD PUSH1 0x20 MSTORE PUSH1 0x40 SWAP1 KECCAK256 SLOAD PUSH2 0x15E9 JUMPI PUSH2 0xFFFF DUP6 AND PUSH1 0x0 SWAP1 DUP2 MSTORE PUSH1 0x3 DUP3 ADD PUSH1 0x20 MSTORE PUSH1 0x40 SWAP1 KECCAK256 PUSH1 0x1 PUSH1 0x1 PUSH1 0xFF SHL SUB SWAP1 SSTORE JUMPDEST POP PUSH1 0x40 DUP1 MLOAD PUSH1 0x60 DUP2 ADD DUP3 MSTORE PUSH1 0x1 PUSH1 0x1 PUSH1 0xA0 SHL SUB SWAP3 DUP4 AND DUP2 MSTORE PUSH1 0x0 PUSH1 0x20 DUP1 DUP4 ADD DUP3 DUP2 MSTORE SWAP4 DUP4 ADD DUP3 DUP2 MSTORE PUSH1 0x8 DUP12 ADD DUP1 SLOAD PUSH1 0x1 DUP1 DUP3 ADD DUP4 SSTORE SWAP2 DUP6 MSTORE SWAP3 SWAP1 SWAP4 KECCAK256 SWAP4 MLOAD PUSH1 0x3 SWAP1 SWAP3 MUL SWAP1 SWAP4 ADD DUP1 SLOAD PUSH1 0x1 PUSH1 0x1 PUSH1 0xA0 SHL SUB NOT AND SWAP2 SWAP1 SWAP6 AND OR DUP5 SSTORE SWAP2 MLOAD DUP4 DUP4 ADD SSTORE MLOAD PUSH1 0x2 SWAP1 SWAP3 ADD DUP1 SLOAD PUSH2 0xFFFF NOT AND PUSH2 0xFFFF SWAP1 SWAP4 AND SWAP3 SWAP1 SWAP3 OR SWAP1 SWAP2 SSTORE ADD PUSH2 0x13C6 JUMP JUMPDEST POP PUSH1 0x1 PUSH1 0x1 PUSH1 0xA0 SHL SUB DUP9 AND ISZERO PUSH2 0x167E JUMPI DUP8 PUSH2 0x1680 JUMP JUMPDEST CALLER JUMPDEST PUSH1 0x2 DUP6 ADD SLOAD PUSH1 0x40 DUP1 MLOAD PUSH1 0x1 PUSH1 0x1 PUSH1 0x80 SHL SUB DUP4 AND DUP2 MSTORE PUSH1 0x1 PUSH1 0x1 PUSH1 0x40 SHL SUB PUSH1 0x1 PUSH1 0x80 SHL DUP5 DIV DUP2 AND PUSH1 0x20 DUP4 ADD MSTORE PUSH1 0x1 PUSH1 0xC0 SHL SWAP1 SWAP4 DIV SWAP1 SWAP3 AND DUP3 DUP3 ADD MSTORE PUSH1 0x60 DUP3 ADD DUP9 SWAP1 MSTORE MLOAD PUSH1 0x1 PUSH1 0x1 PUSH1 0xA0 SHL SUB SWAP3 SWAP1 SWAP3 AND SWAP2 CALLER SWAP2 PUSH1 0x1 PUSH1 0x1 PUSH1 0x80 SHL SUB NOT DUP14 AND SWAP2 PUSH32 0x8E609DAC02BD39FF24C8AD6BB9A735E739B56708B22159948EC9828AD765B4D1 SWAP2 DUP2 SWAP1 SUB PUSH1 0x80 ADD SWAP1 LOG4 POP POP POP POP POP POP POP POP POP JUMP JUMPDEST PUSH1 0x1 PUSH1 0x1 PUSH1 0xA0 SHL SUB DUP2 AND PUSH1 0x0 SWAP1 DUP2 MSTORE PUSH1 0x5 PUSH1 0x20 MSTORE PUSH1 0x40 DUP2 KECCAK256 PUSH2 0xED2 DUP2 PUSH2 0x2701 JUMP JUMPDEST PUSH1 0x6 SLOAD PUSH1 0x1 PUSH1 0x1 PUSH1 0x80 SHL SUB AND DUP2 LT DUP1 ISZERO SWAP1 PUSH2 0x1759 JUMPI POP PUSH1 0x7 SLOAD PUSH1 0x1 PUSH1 0x1 PUSH1 0x80 SHL SUB AND DUP2 GT ISZERO JUMPDEST PUSH2 0x1794 JUMPI PUSH1 0x40 MLOAD PUSH3 0x461BCD PUSH1 0xE5 SHL DUP2 MSTORE PUSH1 0x4 ADD DUP1 DUP1 PUSH1 0x20 ADD DUP3 DUP2 SUB DUP3 MSTORE PUSH1 0x3F DUP2 MSTORE PUSH1 0x20 ADD DUP1 PUSH2 0x3447 PUSH1 0x3F SWAP2 CODECOPY PUSH1 0x40 ADD SWAP2 POP POP PUSH1 0x40 MLOAD DUP1 SWAP2 SUB SWAP1 REVERT JUMPDEST CALLER PUSH1 0x0 SWAP1 DUP2 MSTORE PUSH1 0x5 PUSH1 0x20 MSTORE PUSH1 0x40 SWAP1 KECCAK256 PUSH1 0x2 DUP2 ADD SLOAD DUP3 EQ ISZERO PUSH2 0x17B5 JUMPI POP PUSH2 0x17F4 JUMP JUMPDEST PUSH1 0x2 DUP2 ADD DUP3 SWAP1 SSTORE PUSH1 0x40 DUP1 MLOAD DUP4 DUP2 MSTORE SWAP1 MLOAD CALLER SWAP2 PUSH32 0x6B9024CC1BF5710F290BE788DCA9886DB7A3D9BE0DF0855BFA991DBF26A256BC SWAP2 SWAP1 DUP2 SWAP1 SUB PUSH1 0x20 ADD SWAP1 LOG2 POP JUMPDEST POP JUMP JUMPDEST PUSH1 0x0 PUSH1 0x1 PUSH1 0x1 PUSH1 0xA0 SHL SUB DUP3 AND PUSH2 0x180C JUMPI PUSH1 0x0 DUP1 REVERT JUMPDEST CALLER PUSH2 0x1816 DUP5 PUSH2 0xE82 JUMP JUMPDEST PUSH1 0x1 PUSH1 0x1 PUSH1 0xA0 SHL SUB AND EQ PUSH2 0x1829 JUMPI PUSH1 0x0 DUP1 REVERT JUMPDEST PUSH2 0xED2 DUP4 DUP4 PUSH1 0x1 PUSH2 0x20C8 JUMP JUMPDEST PUSH1 0x0 SLOAD PUSH1 0x1 PUSH1 0x1 PUSH1 0xA0 SHL SUB AND SWAP1 JUMP JUMPDEST PUSH1 0x1 PUSH1 0x1 PUSH1 0xA0 SHL SUB DUP3 AND PUSH1 0x0 SWAP1 DUP2 MSTORE PUSH1 0x5 PUSH1 0x20 SWAP1 DUP2 MSTORE PUSH1 0x40 DUP1 DUP4 KECCAK256 PUSH2 0xFFFF DUP6 AND DUP5 MSTORE PUSH1 0x3 ADD SWAP1 SWAP2 MSTORE SWAP1 KECCAK256 SLOAD SWAP3 SWAP2 POP POP JUMP JUMPDEST PUSH1 0x0 SLOAD PUSH1 0x1 PUSH1 0x1 PUSH1 0xA0 SHL SUB AND CALLER EQ SWAP1 JUMP JUMPDEST PUSH1 0x0 CALLER PUSH2 0x1892 DUP4 PUSH2 0xE82 JUMP JUMPDEST PUSH1 0x1 PUSH1 0x1 PUSH1 0xA0 SHL SUB AND EQ PUSH2 0x18A5 JUMPI PUSH1 0x0 DUP1 REVERT JUMPDEST PUSH2 0x1033 DUP3 PUSH1 0x0 PUSH1 0x1 PUSH2 0x20C8 JUMP JUMPDEST PUSH1 0x0 PUSH1 0x1 PUSH1 0x1 PUSH1 0xA0 SHL SUB DUP3 AND PUSH2 0x18C7 JUMPI PUSH1 0x0 DUP1 REVERT JUMPDEST PUSH2 0xED2 DUP4 DUP4 PUSH2 0x276A JUMP JUMPDEST CALLER PUSH1 0x1 PUSH1 0x1 PUSH1 0xA0 SHL SUB PUSH32 0x0 AND EQ PUSH2 0x1906 JUMPI PUSH1 0x0 DUP1 REVERT JUMPDEST PUSH1 0x1 PUSH1 0x1 PUSH1 0xA0 SHL SUB DUP3 AND PUSH1 0x0 SWAP1 DUP2 MSTORE PUSH1 0x5 PUSH1 0x20 SWAP1 DUP2 MSTORE PUSH1 0x40 DUP1 DUP4 KECCAK256 PUSH2 0xFFFF DUP6 AND DUP5 MSTORE PUSH1 0x3 DUP2 ADD SWAP1 SWAP3 MSTORE SWAP1 SWAP2 KECCAK256 SLOAD PUSH2 0x1957 JUMPI PUSH2 0xFFFF DUP3 AND PUSH1 0x0 SWAP1 DUP2 MSTORE PUSH1 0x3 DUP3 ADD PUSH1 0x20 MSTORE PUSH1 0x40 SWAP1 KECCAK256 PUSH1 0x1 PUSH1 0x1 PUSH1 0xFF SHL SUB SWAP1 SSTORE JUMPDEST POP POP POP JUMP JUMPDEST PUSH2 0x1965 DUP2 PUSH2 0x2894 JUMP JUMPDEST PUSH2 0x196D PUSH2 0x3361 JUMP JUMPDEST PUSH2 0x1976 DUP3 PUSH2 0x28EE JUMP JUMPDEST DUP1 MLOAD PUSH1 0x6 SLOAD SWAP2 SWAP3 POP PUSH1 0x1 PUSH1 0x1 PUSH1 0x80 SHL SUB SWAP2 DUP3 AND SWAP2 AND EQ DUP1 ISZERO PUSH2 0x19B1 JUMPI POP PUSH1 0x20 DUP2 ADD MLOAD PUSH1 0x6 SLOAD PUSH1 0x1 PUSH1 0x80 SHL SWAP1 DIV PUSH1 0x1 PUSH1 0x1 PUSH1 0x80 SHL SUB SWAP1 DUP2 AND SWAP2 AND EQ JUMPDEST DUP1 ISZERO PUSH2 0x19CF JUMPI POP PUSH1 0x40 DUP2 ADD MLOAD PUSH1 0x7 SLOAD PUSH1 0x1 PUSH1 0x1 PUSH1 0x80 SHL SUB SWAP1 DUP2 AND SWAP2 AND EQ JUMPDEST PUSH2 0x19D8 JUMPI PUSH1 0x0 DUP1 REVERT JUMPDEST PUSH1 0x0 DUP1 MSTORE PUSH1 0x4 PUSH1 0x20 MSTORE PUSH32 0x17EF568E3E12AB5B9C7254A8D58478811DE00F9E6EB34345ACD53BF8FD09D3EC PUSH2 0x1A0A PUSH2 0x3381 JUMP JUMPDEST PUSH2 0x1A15 DUP5 PUSH1 0x0 PUSH2 0x290C JUMP JUMPDEST DUP3 SLOAD PUSH1 0x20 DUP3 ADD MLOAD SWAP2 SWAP3 POP PUSH2 0x100 SWAP1 DIV PUSH1 0x1 PUSH1 0x1 PUSH1 0xA0 SHL SUB SWAP1 DUP2 AND SWAP2 AND EQ DUP1 ISZERO PUSH2 0x1A52 JUMPI POP PUSH1 0x1 DUP3 ADD SLOAD PUSH1 0x40 DUP3 ADD MLOAD PUSH1 0x1 PUSH1 0x1 PUSH1 0xA0 SHL SUB SWAP1 DUP2 AND SWAP2 AND EQ JUMPDEST DUP1 ISZERO PUSH2 0x1A72 JUMPI POP PUSH1 0x2 DUP3 ADD SLOAD PUSH1 0x60 DUP3 ADD MLOAD PUSH1 0x1 PUSH1 0x1 PUSH1 0x80 SHL SUB SWAP1 DUP2 AND SWAP2 AND EQ JUMPDEST DUP1 ISZERO PUSH2 0x1A99 JUMPI POP PUSH1 0x2 DUP3 ADD SLOAD PUSH1 0x80 DUP3 ADD MLOAD PUSH1 0x1 PUSH1 0x1 PUSH1 0x40 SHL SUB SWAP1 DUP2 AND PUSH1 0x1 PUSH1 0x80 SHL SWAP1 SWAP3 DIV AND EQ JUMPDEST DUP1 ISZERO PUSH2 0x1AC0 JUMPI POP PUSH1 0x2 DUP3 ADD SLOAD PUSH1 0xA0 DUP3 ADD MLOAD PUSH1 0x1 PUSH1 0x1 PUSH1 0x40 SHL SUB SWAP1 DUP2 AND PUSH1 0x1 PUSH1 0xC0 SHL SWAP1 SWAP3 DIV AND EQ JUMPDEST DUP1 ISZERO PUSH2 0x1AD6 JUMPI POP DUP2 SLOAD DUP2 MLOAD ISZERO ISZERO PUSH1 0xFF SWAP1 SWAP2 AND ISZERO ISZERO EQ JUMPDEST PUSH2 0x1ADF JUMPI PUSH1 0x0 DUP1 REVERT JUMPDEST PUSH1 0x8 DUP3 ADD SLOAD PUSH2 0x1AF7 DUP6 PUSH4 0x6BD2AF57 PUSH1 0xE0 SHL PUSH1 0x0 PUSH2 0x293D JUMP JUMPDEST EQ PUSH2 0x1B01 JUMPI PUSH1 0x0 DUP1 REVERT JUMPDEST PUSH1 0x8 DUP3 ADD SLOAD ISZERO PUSH2 0x1B90 JUMPI PUSH1 0x0 DUP3 PUSH1 0x8 ADD PUSH1 0x0 DUP2 SLOAD DUP2 LT PUSH2 0x1B1D JUMPI INVALID JUMPDEST SWAP1 PUSH1 0x0 MSTORE PUSH1 0x20 PUSH1 0x0 KECCAK256 SWAP1 PUSH1 0x3 MUL ADD SWAP1 POP PUSH2 0x1B35 PUSH2 0x3361 JUMP JUMPDEST PUSH2 0x1B41 DUP7 PUSH1 0x0 DUP1 PUSH2 0x2958 JUMP JUMPDEST DUP3 SLOAD DUP2 MLOAD SWAP2 SWAP3 POP PUSH1 0x1 PUSH1 0x1 PUSH1 0xA0 SHL SUB SWAP2 DUP3 AND SWAP2 AND EQ DUP1 ISZERO PUSH2 0x1B69 JUMPI POP DUP2 PUSH1 0x1 ADD SLOAD DUP2 PUSH1 0x20 ADD MLOAD EQ JUMPDEST DUP1 ISZERO PUSH2 0x1B84 JUMPI POP PUSH1 0x2 DUP3 ADD SLOAD PUSH1 0x40 DUP3 ADD MLOAD PUSH2 0xFFFF SWAP1 DUP2 AND SWAP2 AND EQ JUMPDEST PUSH2 0x1B8D JUMPI PUSH1 0x0 DUP1 REVERT JUMPDEST POP POP JUMPDEST PUSH1 0x0 DUP1 MSTORE PUSH1 0x5 PUSH1 0x20 MSTORE PUSH32 0x5B8CCBB9D4D8FB16EA74CE3C29A41F1B461FBDAFF4714A0D9A8EB05499746BC PUSH2 0x1BC2 PUSH2 0x3411 JUMP JUMPDEST PUSH2 0x1BCD DUP7 PUSH1 0x0 PUSH2 0x2981 JUMP JUMPDEST DUP3 SLOAD DUP2 MLOAD SWAP2 SWAP3 POP PUSH1 0x1 PUSH1 0x1 PUSH1 0x80 SHL SUB SWAP2 DUP3 AND SWAP2 AND EQ DUP1 ISZERO PUSH2 0x1BF5 JUMPI POP DUP2 PUSH1 0x1 ADD SLOAD DUP2 PUSH1 0x40 ADD MLOAD EQ JUMPDEST DUP1 ISZERO PUSH2 0x1C14 JUMPI POP DUP2 SLOAD PUSH1 0x20 DUP3 ADD MLOAD PUSH2 0xFFFF SWAP1 DUP2 AND PUSH1 0x1 PUSH1 0x80 SHL SWAP1 SWAP3 DIV AND EQ JUMPDEST DUP1 ISZERO PUSH2 0x1C27 JUMPI POP DUP2 PUSH1 0x2 ADD SLOAD DUP2 PUSH1 0x60 ADD MLOAD EQ JUMPDEST PUSH2 0x1C30 JUMPI PUSH1 0x0 DUP1 REVERT JUMPDEST PUSH1 0xB PUSH1 0x0 DUP2 DUP2 MSTORE PUSH1 0x3 DUP5 ADD PUSH1 0x20 MSTORE PUSH1 0x40 DUP2 KECCAK256 SLOAD SWAP2 PUSH2 0x1C59 SWAP2 DUP10 SWAP2 PUSH4 0x4740E52D PUSH1 0xE1 SHL SWAP2 SWAP1 PUSH2 0x29A9 JUMP JUMPDEST EQ PUSH2 0x1C63 JUMPI PUSH1 0x0 DUP1 REVERT JUMPDEST POP POP POP POP POP POP JUMP JUMPDEST PUSH1 0x40 DUP1 MLOAD PUSH1 0x1 PUSH1 0x1 PUSH1 0x80 SHL SUB NOT DUP5 AND PUSH1 0x20 DUP3 ADD MSTORE PUSH12 0xFFFFFFFFFFFFFFFFFFFFFFFF NOT PUSH1 0x60 DUP5 SWAP1 SHL AND PUSH1 0x30 DUP3 ADD MSTORE DUP2 MLOAD PUSH1 0x24 DUP2 DUP4 SUB ADD DUP2 MSTORE PUSH1 0x44 SWAP1 SWAP2 ADD SWAP1 SWAP2 MSTORE PUSH1 0x0 SWAP1 PUSH2 0xED2 SWAP1 PUSH1 0x45 PUSH1 0xF8 SHL PUSH2 0x29C5 JUMP JUMPDEST PUSH1 0x1 SLOAD PUSH1 0x1 PUSH1 0x1 PUSH1 0xA0 SHL SUB AND DUP2 JUMP JUMPDEST PUSH1 0x1 PUSH1 0x1 PUSH1 0x80 SHL SUB NOT DUP3 AND PUSH1 0x0 SWAP1 DUP2 MSTORE PUSH1 0x4 PUSH1 0x20 MSTORE PUSH1 0x40 DUP2 KECCAK256 PUSH1 0x8 ADD DUP1 SLOAD DUP3 SWAP2 DUP3 SWAP2 DUP3 SWAP2 SWAP1 DUP7 SWAP1 DUP2 LT PUSH2 0x1CF9 JUMPI INVALID JUMPDEST PUSH1 0x0 SWAP2 DUP3 MSTORE PUSH1 0x20 SWAP1 SWAP2 KECCAK256 PUSH1 0x3 SWAP1 SWAP2 MUL ADD DUP1 SLOAD PUSH1 0x1 DUP3 ADD SLOAD PUSH1 0x2 SWAP1 SWAP3 ADD SLOAD PUSH1 0x1 PUSH1 0x1 PUSH1 0xA0 SHL SUB SWAP1 SWAP2 AND SWAP9 SWAP2 SWAP8 POP PUSH2 0xFFFF AND SWAP6 POP SWAP4 POP POP POP POP JUMP JUMPDEST PUSH1 0x1 PUSH1 0x1 PUSH1 0x80 SHL SUB NOT DUP2 AND PUSH1 0x0 SWAP1 DUP2 MSTORE PUSH1 0x4 PUSH1 0x20 MSTORE PUSH1 0x40 SWAP1 KECCAK256 PUSH1 0x1 DUP2 ADD SLOAD PUSH1 0x1 PUSH1 0x1 PUSH1 0xA0 SHL SUB AND CALLER EQ DUP1 PUSH2 0x1D74 JUMPI POP DUP1 SLOAD PUSH2 0x100 SWAP1 DIV PUSH1 0x1 PUSH1 0x1 PUSH1 0xA0 SHL SUB AND CALLER EQ JUMPDEST PUSH2 0x1D7D JUMPI PUSH1 0x0 DUP1 REVERT JUMPDEST PUSH2 0x1957 DUP3 PUSH1 0x0 DUP1 PUSH2 0x20C8 JUMP JUMPDEST PUSH32 0x0 DUP2 JUMP JUMPDEST PUSH1 0x2 SLOAD PUSH1 0x1 PUSH1 0xA0 SHL SWAP1 DIV PUSH1 0xFF AND DUP2 JUMP JUMPDEST PUSH1 0x0 PUSH2 0x1033 DUP3 PUSH1 0x0 PUSH2 0x276A JUMP JUMPDEST PUSH2 0x1DD3 DUP2 PUSH2 0x2CC4 JUMP JUMPDEST POP PUSH1 0x4 PUSH1 0x20 SWAP1 DUP2 MSTORE PUSH32 0x17EF568E3E12AB5B9C7254A8D58478811DE00F9E6EB34345ACD53BF8FD09D3EC DUP1 SLOAD PUSH32 0x17EF568E3E12AB5B9C7254A8D58478811DE00F9E6EB34345ACD53BF8FD09D3ED DUP1 SLOAD ADDRESS PUSH1 0x1 PUSH1 0x1 PUSH1 0xA0 SHL SUB NOT SWAP2 DUP3 AND OR SWAP1 SWAP2 SSTORE PUSH32 0x17EF568E3E12AB5B9C7254A8D58478811DE00F9E6EB34345ACD53BF8FD09D3EE DUP1 SLOAD PUSH1 0x3 PUSH1 0x1 PUSH1 0x1 PUSH1 0x80 SHL SUB NOT PUSH1 0x1 PUSH1 0x80 SHL PUSH8 0xFFFFFFFFFFFFFFFF PUSH1 0x80 SHL NOT SWAP1 SWAP4 AND SWAP3 SWAP1 SWAP3 OR PUSH1 0x1 PUSH1 0x1 PUSH1 0xC0 SHL SUB AND PUSH1 0x1 PUSH1 0xC1 SHL OR DUP3 AND DUP2 OR SWAP1 SWAP3 SSTORE PUSH2 0x100 PUSH1 0x1 PUSH1 0xA8 SHL SUB NOT SWAP1 SWAP4 AND CALLER PUSH2 0x100 MUL OR PUSH1 0xFF NOT AND PUSH1 0x1 SWAP1 DUP2 OR SWAP1 SWAP5 SSTORE PUSH1 0x40 DUP1 MLOAD PUSH1 0x60 DUP2 ADD DUP3 MSTORE PUSH1 0x0 DUP1 DUP3 MSTORE PUSH1 0xB DUP3 DUP10 ADD DUP2 DUP2 MSTORE PUSH1 0x16 SWAP5 DUP5 ADD SWAP5 DUP6 MSTORE PUSH32 0x17EF568E3E12AB5B9C7254A8D58478811DE00F9E6EB34345ACD53BF8FD09D3F4 DUP1 SLOAD SWAP10 DUP11 ADD DUP2 SSTORE DUP4 MSTORE SWAP3 MLOAD PUSH32 0xDAF6A3DF2E7FE032FABA7F1C41811297BB73983780E1888A846F8AA1A8324D27 SWAP9 SWAP1 SWAP6 MUL SWAP8 DUP9 ADD DUP1 SLOAD SWAP1 SWAP7 AND PUSH1 0x1 PUSH1 0x1 PUSH1 0xA0 SHL SUB SWAP1 SWAP6 AND SWAP5 SWAP1 SWAP5 OR SWAP1 SWAP5 SSTORE MLOAD PUSH32 0xDAF6A3DF2E7FE032FABA7F1C41811297BB73983780E1888A846F8AA1A8324D28 DUP7 ADD SSTORE MLOAD PUSH32 0xDAF6A3DF2E7FE032FABA7F1C41811297BB73983780E1888A846F8AA1A8324D29 SWAP1 SWAP5 ADD DUP1 SLOAD PUSH2 0xFFFF NOT AND PUSH2 0xFFFF SWAP1 SWAP6 AND SWAP5 SWAP1 SWAP5 OR SWAP1 SWAP4 SSTORE PUSH32 0x5B8CCBB9D4D8FB16EA74CE3C29A41F1B461FBDAFF4714A0D9A8EB05499746BC DUP1 SLOAD PUSH1 0x21 PUSH32 0x5B8CCBB9D4D8FB16EA74CE3C29A41F1B461FBDAFF4714A0D9A8EB05499746BD SSTORE PUSH1 0x64 SWAP4 AND SWAP3 SWAP1 SWAP3 OR PUSH2 0xFFFF PUSH1 0x80 SHL NOT AND PUSH1 0xB PUSH1 0x82 SHL OR SWAP1 SWAP2 SSTORE MSTORE PUSH32 0x5B8CCBB9D4D8FB16EA74CE3C29A41F1B461FBDAFF4714A0D9A8EB05499746BF SWAP1 MSTORE PUSH1 0x37 PUSH32 0xE98516EEF36AB8324C691EAAE918B396562BBFF0916FAB980BA5F148C2DA4DC8 SSTORE PUSH2 0x309 PUSH32 0x5B8CCBB9D4D8FB16EA74CE3C29A41F1B461FBDAFF4714A0D9A8EB05499746BE SSTORE JUMP JUMPDEST PUSH2 0x206D PUSH2 0x1875 JUMP JUMPDEST PUSH2 0x2076 JUMPI PUSH1 0x0 DUP1 REVERT JUMPDEST PUSH2 0x17F4 DUP2 PUSH2 0x2D1E JUMP JUMPDEST PUSH1 0x0 PUSH2 0x208B DUP5 DUP5 PUSH2 0x1C6B JUMP JUMPDEST SWAP1 POP PUSH1 0x0 PUSH2 0x2099 DUP3 DUP5 PUSH2 0x2D8C JUMP JUMPDEST SWAP1 POP DUP1 PUSH1 0x1 PUSH1 0x1 PUSH1 0xA0 SHL SUB AND PUSH2 0x20AE DUP7 PUSH2 0xE82 JUMP JUMPDEST PUSH1 0x1 PUSH1 0x1 PUSH1 0xA0 SHL SUB AND EQ PUSH2 0x20C1 JUMPI PUSH1 0x0 DUP1 REVERT JUMPDEST POP POP POP POP POP JUMP JUMPDEST PUSH1 0x1 PUSH1 0x1 PUSH1 0x80 SHL SUB NOT DUP4 AND PUSH1 0x0 SWAP1 DUP2 MSTORE PUSH1 0x4 PUSH1 0x20 MSTORE PUSH1 0x40 DUP2 KECCAK256 DUP1 SLOAD PUSH1 0xFF AND ISZERO PUSH2 0x20F0 JUMPI PUSH1 0x0 DUP1 REVERT JUMPDEST PUSH1 0x2 DUP2 ADD SLOAD PUSH1 0x0 SWAP1 PUSH32 0x0 PUSH4 0xFFFFFFFF AND SWAP1 PUSH1 0x1 PUSH1 0xC0 SHL SWAP1 DIV PUSH1 0x1 PUSH1 0x1 PUSH1 0x40 SHL SUB AND DUP2 PUSH2 0x2137 JUMPI INVALID JUMPDEST PUSH1 0x8 DUP5 ADD SLOAD SWAP2 SWAP1 DIV PUSH1 0x1 ADD SWAP2 POP PUSH1 0x0 JUMPDEST PUSH1 0x8 DUP5 ADD SLOAD DUP2 LT ISZERO PUSH2 0x24AF JUMPI PUSH1 0x0 DUP5 PUSH1 0x8 ADD DUP3 DUP2 SLOAD DUP2 LT PUSH2 0x2164 JUMPI INVALID JUMPDEST PUSH1 0x0 SWAP2 DUP3 MSTORE PUSH1 0x20 SWAP1 SWAP2 KECCAK256 PUSH1 0x3 SWAP1 SWAP2 MUL ADD DUP1 SLOAD SWAP1 SWAP2 POP PUSH1 0x1 PUSH1 0x1 PUSH1 0xA0 SHL SUB AND DUP1 ISZERO DUP1 PUSH2 0x21B4 JUMPI POP PUSH1 0x1 PUSH1 0x1 PUSH1 0xA0 SHL SUB DUP10 AND ISZERO DUP1 ISZERO SWAP1 PUSH2 0x21B4 JUMPI POP DUP1 PUSH1 0x1 PUSH1 0x1 PUSH1 0xA0 SHL SUB AND DUP10 PUSH1 0x1 PUSH1 0x1 PUSH1 0xA0 SHL SUB AND EQ ISZERO JUMPDEST ISZERO PUSH2 0x21C7 JUMPI POP POP PUSH1 0x0 NOT SWAP1 SWAP2 ADD SWAP1 PUSH2 0x24A7 JUMP JUMPDEST PUSH1 0x0 PUSH2 0x21D3 DUP8 DUP5 PUSH2 0x2E45 JUMP JUMPDEST PUSH1 0x2 DUP7 ADD DUP1 SLOAD PUSH2 0xFFFF NOT AND PUSH2 0xFFFF SWAP3 SWAP1 SWAP3 AND SWAP2 SWAP1 SWAP2 OR SWAP1 SSTORE PUSH1 0x1 DUP6 ADD SSTORE SWAP1 POP DUP9 ISZERO PUSH2 0x23A2 JUMPI PUSH1 0x1 PUSH1 0x1 PUSH1 0xA0 SHL SUB DUP3 AND PUSH1 0x0 SWAP1 DUP2 MSTORE PUSH1 0x5 PUSH1 0x20 SWAP1 DUP2 MSTORE PUSH1 0x40 DUP1 DUP4 KECCAK256 PUSH1 0x2 DUP8 ADD SLOAD PUSH2 0xFFFF AND DUP1 DUP6 MSTORE PUSH1 0x3 DUP3 ADD SWAP1 SWAP4 MSTORE SWAP3 KECCAK256 SLOAD PUSH1 0x1 PUSH1 0x1 PUSH1 0xFF SHL SUB EQ ISZERO PUSH2 0x2265 JUMPI PUSH1 0x2 DUP10 ADD SLOAD PUSH2 0xFFFF DUP3 AND PUSH1 0x0 SWAP1 DUP2 MSTORE PUSH1 0x3 DUP5 ADD PUSH1 0x20 MSTORE PUSH1 0x40 DUP2 KECCAK256 PUSH1 0x1 PUSH1 0x1 PUSH1 0x80 SHL SUB SWAP1 SWAP3 AND SWAP1 SUB SWAP1 SSTORE PUSH2 0x2292 JUMP JUMPDEST PUSH1 0x2 DUP10 ADD SLOAD PUSH2 0xFFFF DUP3 AND PUSH1 0x0 SWAP1 DUP2 MSTORE PUSH1 0x3 DUP5 ADD PUSH1 0x20 MSTORE PUSH1 0x40 SWAP1 KECCAK256 DUP1 SLOAD PUSH1 0x1 PUSH1 0x1 PUSH1 0x80 SHL SUB SWAP1 SWAP3 AND SWAP1 SWAP2 SUB SWAP1 SSTORE JUMPDEST PUSH2 0xFFFF DUP9 AND PUSH1 0x0 SWAP1 DUP2 MSTORE PUSH1 0x3 DUP4 ADD PUSH1 0x20 MSTORE PUSH1 0x40 SWAP1 KECCAK256 SLOAD PUSH1 0x1 PUSH1 0x1 PUSH1 0xFF SHL SUB EQ ISZERO PUSH2 0x22E4 JUMPI PUSH1 0x2 DUP10 ADD SLOAD PUSH2 0xFFFF DUP10 AND PUSH1 0x0 SWAP1 DUP2 MSTORE PUSH1 0x3 DUP5 ADD PUSH1 0x20 MSTORE PUSH1 0x40 DUP2 KECCAK256 PUSH1 0x1 PUSH1 0x1 PUSH1 0x80 SHL SUB SWAP1 SWAP3 AND SWAP1 SUB SWAP1 SSTORE PUSH2 0x2311 JUMP JUMPDEST PUSH1 0x2 DUP10 ADD SLOAD PUSH2 0xFFFF DUP10 AND PUSH1 0x0 SWAP1 DUP2 MSTORE PUSH1 0x3 DUP5 ADD PUSH1 0x20 MSTORE PUSH1 0x40 SWAP1 KECCAK256 DUP1 SLOAD PUSH1 0x1 PUSH1 0x1 PUSH1 0x80 SHL SUB SWAP1 SWAP3 AND SWAP1 SWAP2 ADD SWAP1 SSTORE JUMPDEST PUSH2 0xFFFF DUP2 AND PUSH1 0x0 SWAP1 DUP2 MSTORE PUSH1 0x3 DUP4 ADD PUSH1 0x20 MSTORE PUSH1 0x40 SWAP1 KECCAK256 SLOAD PUSH2 0x234B JUMPI PUSH2 0xFFFF DUP2 AND PUSH1 0x0 SWAP1 DUP2 MSTORE PUSH1 0x3 DUP4 ADD PUSH1 0x20 MSTORE PUSH1 0x40 SWAP1 KECCAK256 PUSH1 0x1 PUSH1 0x1 PUSH1 0xFF SHL SUB SWAP1 SSTORE JUMPDEST PUSH2 0xFFFF DUP9 AND PUSH1 0x0 SWAP1 DUP2 MSTORE PUSH1 0x3 DUP4 ADD PUSH1 0x20 MSTORE PUSH1 0x40 SWAP1 KECCAK256 SLOAD PUSH2 0x2385 JUMPI PUSH2 0xFFFF DUP9 AND PUSH1 0x0 SWAP1 DUP2 MSTORE PUSH1 0x3 DUP4 ADD PUSH1 0x20 MSTORE PUSH1 0x40 SWAP1 KECCAK256 PUSH1 0x1 PUSH1 0x1 PUSH1 0xFF SHL SUB SWAP1 SSTORE JUMPDEST PUSH1 0x2 DUP10 ADD SLOAD PUSH1 0x1 PUSH1 0x1 PUSH1 0x80 SHL SUB AND SWAP1 DUP9 SUB PUSH2 0xFFFF AND MUL SWAP2 SWAP1 SWAP2 ADD SWAP1 POP JUMPDEST DUP9 DUP1 PUSH2 0x23B9 JUMPI POP PUSH1 0x2 DUP4 ADD SLOAD PUSH2 0xFFFF DUP1 DUP9 AND SWAP2 AND LT ISZERO JUMPDEST ISZERO PUSH2 0x243A JUMPI DUP3 SLOAD PUSH1 0x1 PUSH1 0x1 PUSH1 0xA0 SHL SUB NOT AND DUP4 SSTORE PUSH1 0x0 PUSH1 0x1 DUP5 ADD SSTORE PUSH1 0x2 DUP4 ADD DUP1 SLOAD PUSH2 0xFFFF NOT AND SWAP1 SSTORE PUSH1 0x40 DUP1 MLOAD DUP3 DUP2 MSTORE SWAP1 MLOAD PUSH1 0x0 NOT SWAP7 SWAP1 SWAP7 ADD SWAP6 PUSH1 0x1 PUSH1 0x1 PUSH1 0xA0 SHL SUB DUP5 AND SWAP2 CALLER SWAP2 PUSH1 0x1 PUSH1 0x1 PUSH1 0x80 SHL SUB NOT DUP16 AND SWAP2 PUSH32 0xF3B13DF5BDD5EFCB090F73617909A6295EE75815920224C512D784B2726812F1 SWAP2 SWAP1 DUP2 SWAP1 SUB PUSH1 0x20 ADD SWAP1 LOG4 PUSH2 0x2488 JUMP JUMPDEST PUSH1 0x40 DUP1 MLOAD DUP3 DUP2 MSTORE SWAP1 MLOAD PUSH1 0x1 PUSH1 0x1 PUSH1 0xA0 SHL SUB DUP5 AND SWAP2 CALLER SWAP2 PUSH1 0x1 PUSH1 0x1 PUSH1 0x80 SHL SUB NOT DUP16 AND SWAP2 PUSH32 0xAB654B569128C88FFCD210806A5E48EE14C541E2C76923F143281F20807090C1 SWAP2 SWAP1 DUP2 SWAP1 SUB PUSH1 0x20 ADD SWAP1 LOG4 JUMPDEST SWAP7 DUP8 ADD SWAP7 PUSH1 0x1 PUSH1 0x1 PUSH1 0xA0 SHL SUB DUP11 AND ISZERO PUSH2 0x24A3 JUMPI POP POP POP PUSH2 0x24AF JUMP JUMPDEST POP POP POP JUMPDEST PUSH1 0x1 ADD PUSH2 0x2147 JUMP JUMPDEST DUP4 SLOAD PUSH1 0x1 PUSH1 0x1 PUSH1 0xA0 SHL SUB PUSH2 0x100 SWAP1 SWAP2 DIV DUP2 AND SWAP1 DUP9 AND PUSH2 0x258B JUMPI DUP3 PUSH2 0x2544 JUMPI DUP5 SLOAD PUSH1 0x1 PUSH1 0xFF NOT SWAP1 SWAP2 AND DUP2 OR PUSH2 0x100 PUSH1 0x1 PUSH1 0xA8 SHL SUB NOT AND DUP7 SSTORE DUP6 ADD DUP1 SLOAD PUSH1 0x1 PUSH1 0x1 PUSH1 0xA0 SHL SUB NOT AND SWAP1 SSTORE PUSH1 0x0 PUSH1 0x2 DUP7 ADD SSTORE PUSH1 0x40 DUP1 MLOAD DUP8 DUP2 MSTORE SWAP1 MLOAD CALLER SWAP2 PUSH1 0x1 PUSH1 0x1 PUSH1 0x80 SHL SUB NOT DUP13 AND SWAP2 PUSH32 0xD5EA25BA3600C386669C484639012A0AE266ED537F0C4AB71B651024736EFFF4 SWAP2 PUSH1 0x20 SWAP1 DUP3 SWAP1 SUB ADD SWAP1 LOG3 PUSH2 0x2586 JUMP JUMPDEST PUSH1 0x40 DUP1 MLOAD DUP8 DUP2 MSTORE SWAP1 MLOAD CALLER SWAP2 PUSH1 0x1 PUSH1 0x1 PUSH1 0x80 SHL SUB NOT DUP13 AND SWAP2 PUSH32 0x51377F313F8C3404E86D38AE907B443ADA38578FD6B9589D03F79D03FF9303C7 SWAP2 DUP2 SWAP1 SUB PUSH1 0x20 ADD SWAP1 LOG3 JUMPDEST PUSH2 0x259B JUMP JUMPDEST PUSH1 0x8 DUP6 ADD SLOAD DUP3 LT PUSH2 0x259B JUMPI PUSH1 0x0 DUP1 REVERT JUMPDEST DUP6 ISZERO PUSH2 0x25BA JUMPI PUSH2 0x25BA PUSH1 0x1 PUSH1 0x1 PUSH1 0xA0 SHL SUB DUP3 AND DUP8 PUSH4 0xFFFFFFFF PUSH2 0x25FA AND JUMP JUMPDEST POP POP POP POP POP SWAP4 SWAP3 POP POP POP JUMP JUMPDEST PUSH1 0x0 DUP1 DUP3 SLT PUSH2 0x25E6 JUMPI PUSH2 0x25DF DUP4 DUP4 PUSH4 0xFFFFFFFF PUSH2 0x32A0 AND JUMP JUMPDEST SWAP1 POP PUSH2 0x1033 JUMP JUMPDEST PUSH2 0x25DF DUP4 PUSH1 0x0 DUP5 SWAP1 SUB PUSH4 0xFFFFFFFF PUSH2 0x32B2 AND JUMP JUMPDEST DUP1 SELFBALANCE LT ISZERO PUSH2 0x264F JUMPI PUSH1 0x40 DUP1 MLOAD PUSH3 0x461BCD PUSH1 0xE5 SHL DUP2 MSTORE PUSH1 0x20 PUSH1 0x4 DUP3 ADD MSTORE PUSH1 0x1D PUSH1 0x24 DUP3 ADD MSTORE PUSH32 0x416464726573733A20696E73756666696369656E742062616C616E6365000000 PUSH1 0x44 DUP3 ADD MSTORE SWAP1 MLOAD SWAP1 DUP2 SWAP1 SUB PUSH1 0x64 ADD SWAP1 REVERT JUMPDEST PUSH1 0x40 MLOAD PUSH1 0x0 SWAP1 PUSH1 0x1 PUSH1 0x1 PUSH1 0xA0 SHL SUB DUP5 AND SWAP1 DUP4 SWAP1 DUP4 DUP2 DUP2 DUP2 DUP6 DUP8 GAS CALL SWAP3 POP POP POP RETURNDATASIZE DUP1 PUSH1 0x0 DUP2 EQ PUSH2 0x269A JUMPI PUSH1 0x40 MLOAD SWAP2 POP PUSH1 0x1F NOT PUSH1 0x3F RETURNDATASIZE ADD AND DUP3 ADD PUSH1 0x40 MSTORE RETURNDATASIZE DUP3 MSTORE RETURNDATASIZE PUSH1 0x0 PUSH1 0x20 DUP5 ADD RETURNDATACOPY PUSH2 0x269F JUMP JUMPDEST PUSH1 0x60 SWAP2 POP JUMPDEST POP POP SWAP1 POP DUP1 PUSH2 0x1957 JUMPI PUSH1 0x40 MLOAD PUSH3 0x461BCD PUSH1 0xE5 SHL DUP2 MSTORE PUSH1 0x4 ADD DUP1 DUP1 PUSH1 0x20 ADD DUP3 DUP2 SUB DUP3 MSTORE PUSH1 0x3A DUP2 MSTORE PUSH1 0x20 ADD DUP1 PUSH2 0x3486 PUSH1 0x3A SWAP2 CODECOPY PUSH1 0x40 ADD SWAP2 POP POP PUSH1 0x40 MLOAD DUP1 SWAP2 SUB SWAP1 REVERT JUMPDEST PUSH1 0x0 DUP1 DUP3 GT PUSH2 0x26ED JUMPI PUSH1 0x0 DUP1 REVERT JUMPDEST PUSH1 0x0 DUP3 DUP5 DUP2 PUSH2 0x26F8 JUMPI INVALID JUMPDEST DIV SWAP5 SWAP4 POP POP POP POP JUMP JUMPDEST PUSH1 0x0 DUP2 PUSH1 0x2 ADD SLOAD PUSH1 0x0 EQ DUP1 PUSH2 0x2726 JUMPI POP PUSH1 0x6 SLOAD PUSH1 0x2 DUP4 ADD SLOAD PUSH1 0x1 PUSH1 0x1 PUSH1 0x80 SHL SUB SWAP1 SWAP2 AND GT JUMPDEST DUP1 PUSH2 0x2741 JUMPI POP PUSH1 0x7 SLOAD PUSH1 0x2 DUP4 ADD SLOAD PUSH1 0x1 PUSH1 0x1 PUSH1 0x80 SHL SUB SWAP1 SWAP2 AND LT JUMPDEST ISZERO PUSH2 0x275F JUMPI POP PUSH1 0x6 SLOAD PUSH1 0x1 PUSH1 0x80 SHL SWAP1 DIV PUSH1 0x1 PUSH1 0x1 PUSH1 0x80 SHL SUB AND PUSH2 0xE7D JUMP JUMPDEST POP PUSH1 0x2 DUP2 ADD SLOAD PUSH2 0xE7D JUMP JUMPDEST PUSH1 0x1 PUSH1 0x1 PUSH1 0x80 SHL SUB NOT DUP3 AND PUSH1 0x0 SWAP1 DUP2 MSTORE PUSH1 0x4 PUSH1 0x20 MSTORE PUSH1 0x40 DUP2 KECCAK256 PUSH1 0x1 DUP2 ADD SLOAD PUSH1 0x1 PUSH1 0x1 PUSH1 0xA0 SHL SUB AND CALLER EQ DUP1 PUSH2 0x27AC JUMPI POP DUP1 SLOAD PUSH2 0x100 SWAP1 DIV PUSH1 0x1 PUSH1 0x1 PUSH1 0xA0 SHL SUB AND CALLER EQ JUMPDEST DUP1 ISZERO PUSH2 0x27BA JUMPI POP DUP1 SLOAD PUSH1 0xFF AND ISZERO JUMPDEST PUSH2 0x27C3 JUMPI PUSH1 0x0 DUP1 REVERT JUMPDEST PUSH1 0x0 JUMPDEST PUSH1 0x8 DUP3 ADD SLOAD DUP2 LT ISZERO PUSH2 0x286D JUMPI PUSH1 0x0 DUP3 PUSH1 0x8 ADD DUP3 DUP2 SLOAD DUP2 LT PUSH2 0x27E3 JUMPI INVALID JUMPDEST PUSH1 0x0 SWAP2 DUP3 MSTORE PUSH1 0x20 SWAP1 SWAP2 KECCAK256 PUSH1 0x3 SWAP1 SWAP2 MUL ADD DUP1 SLOAD SWAP1 SWAP2 POP PUSH1 0x1 PUSH1 0x1 PUSH1 0xA0 SHL SUB AND ISZERO DUP1 PUSH2 0x282D JUMPI POP PUSH1 0x1 PUSH1 0x1 PUSH1 0xA0 SHL SUB DUP6 AND ISZERO DUP1 ISZERO SWAP1 PUSH2 0x282D JUMPI POP DUP1 SLOAD PUSH1 0x1 PUSH1 0x1 PUSH1 0xA0 SHL SUB DUP7 DUP2 AND SWAP2 AND EQ ISZERO JUMPDEST ISZERO PUSH2 0x2838 JUMPI POP PUSH2 0x2865 JUMP JUMPDEST PUSH1 0x0 PUSH2 0x2844 DUP5 DUP4 PUSH2 0x2E45 JUMP JUMPDEST POP POP SWAP5 DUP6 ADD SWAP5 SWAP1 POP PUSH1 0x1 PUSH1 0x1 PUSH1 0xA0 SHL SUB DUP7 AND ISZERO PUSH2 0x2862 JUMPI POP POP PUSH2 0x286D JUMP JUMPDEST POP POP JUMPDEST PUSH1 0x1 ADD PUSH2 0x27C6 JUMP JUMPDEST PUSH1 0x1 PUSH1 0x1 PUSH1 0xA0 SHL SUB DUP5 AND ISZERO PUSH2 0x288C JUMPI PUSH1 0x8 DUP3 ADD SLOAD DUP2 LT PUSH2 0x288C JUMPI PUSH1 0x0 DUP1 REVERT JUMPDEST POP POP SWAP3 SWAP2 POP POP JUMP JUMPDEST PUSH1 0x2 DUP1 SLOAD PUSH1 0x1 PUSH1 0xA0 SHL SWAP1 DIV PUSH1 0xFF AND EQ PUSH2 0x28AC JUMPI PUSH1 0x0 DUP1 REVERT JUMPDEST PUSH1 0x40 DUP1 MLOAD CALLER DUP2 MSTORE SWAP1 MLOAD PUSH1 0x1 PUSH1 0x1 PUSH1 0xA0 SHL SUB DUP4 AND SWAP2 PUSH32 0x1E8D98C1B4A0D9BD2E2371026B632EB2773FCCE41742E41F02F574AB69868D4C SWAP2 SWAP1 DUP2 SWAP1 SUB PUSH1 0x20 ADD SWAP1 LOG2 POP JUMP JUMPDEST PUSH2 0x28F6 PUSH2 0x3361 JUMP JUMPDEST PUSH1 0x0 PUSH2 0xED2 DUP4 PUSH4 0x65AF62C3 PUSH1 0xE0 SHL DUP4 DUP1 DUP1 PUSH2 0x32C7 JUMP JUMPDEST PUSH2 0x2914 PUSH2 0x3381 JUMP JUMPDEST PUSH1 0x0 PUSH2 0x2935 DUP5 PUSH4 0x713C0E57 PUSH1 0xE0 SHL PUSH1 0x1 PUSH1 0x1 PUSH1 0x1 PUSH1 0x80 SHL SUB NOT DUP8 AND DUP6 PUSH2 0x32C7 JUMP JUMPDEST SWAP5 SWAP4 POP POP POP POP JUMP JUMPDEST PUSH1 0x0 DUP1 PUSH2 0x294E DUP6 DUP6 PUSH1 0x1 DUP7 DUP6 PUSH2 0x32C7 JUMP JUMPDEST MLOAD SWAP6 SWAP5 POP POP POP POP POP JUMP JUMPDEST PUSH2 0x2960 PUSH2 0x3361 JUMP JUMPDEST PUSH1 0x0 PUSH2 0xB44 DUP6 PUSH4 0xD845F4FB PUSH1 0xE0 SHL PUSH1 0x2 PUSH1 0x1 PUSH1 0x1 PUSH1 0x80 SHL SUB NOT DUP9 AND DUP8 PUSH2 0x32C7 JUMP JUMPDEST PUSH2 0x2989 PUSH2 0x3411 JUMP JUMPDEST PUSH1 0x0 PUSH2 0x2935 DUP5 PUSH4 0x189A5A17 PUSH1 0xE0 SHL PUSH1 0x1 PUSH1 0x1 PUSH1 0x1 PUSH1 0xA0 SHL SUB DUP8 AND DUP6 PUSH2 0x32C7 JUMP JUMPDEST PUSH1 0x0 DUP1 PUSH2 0x29BA DUP7 DUP7 PUSH1 0x2 DUP8 DUP8 PUSH2 0x32C7 JUMP JUMPDEST MLOAD SWAP7 SWAP6 POP POP POP POP POP POP JUMP JUMPDEST PUSH1 0x0 PUSH1 0x1 PUSH1 0x1 PUSH1 0xF8 SHL SUB NOT DUP3 AND PUSH2 0x2A78 JUMPI PUSH1 0x40 MLOAD PUSH1 0x19 PUSH1 0xF8 SHL PUSH1 0x20 DUP1 DUP4 ADD DUP3 DUP2 MSTORE PUSH1 0x0 PUSH1 0x21 DUP6 ADD DUP2 SWAP1 MSTORE ADDRESS PUSH1 0x60 DUP2 SWAP1 SHL PUSH1 0x22 DUP8 ADD MSTORE DUP9 MLOAD SWAP1 SWAP6 SWAP2 SWAP4 DUP7 SWAP4 DUP11 SWAP4 SWAP1 SWAP3 PUSH1 0x36 SWAP1 SWAP2 ADD SWAP2 DUP5 ADD SWAP1 DUP1 DUP4 DUP4 JUMPDEST PUSH1 0x20 DUP4 LT PUSH2 0x2A32 JUMPI DUP1 MLOAD DUP3 MSTORE PUSH1 0x1F NOT SWAP1 SWAP3 ADD SWAP2 PUSH1 0x20 SWAP2 DUP3 ADD SWAP2 ADD PUSH2 0x2A13 JUMP JUMPDEST PUSH1 0x1 DUP4 PUSH1 0x20 SUB PUSH2 0x100 EXP SUB DUP1 NOT DUP3 MLOAD AND DUP2 DUP5 MLOAD AND DUP1 DUP3 OR DUP6 MSTORE POP POP POP POP POP POP SWAP1 POP ADD SWAP5 POP POP POP POP POP PUSH1 0x40 MLOAD PUSH1 0x20 DUP2 DUP4 SUB SUB DUP2 MSTORE SWAP1 PUSH1 0x40 MSTORE DUP1 MLOAD SWAP1 PUSH1 0x20 ADD KECCAK256 SWAP2 POP POP PUSH2 0x1033 JUMP JUMPDEST PUSH1 0x1 PUSH1 0x1 PUSH1 0xF8 SHL SUB NOT DUP3 AND PUSH1 0x45 PUSH1 0xF8 SHL EQ ISZERO PUSH2 0x2C77 JUMPI DUP3 MLOAD DUP1 PUSH2 0x2ACC JUMPI PUSH1 0x40 MLOAD PUSH3 0x461BCD PUSH1 0xE5 SHL DUP2 MSTORE PUSH1 0x4 ADD DUP1 DUP1 PUSH1 0x20 ADD DUP3 DUP2 SUB DUP3 MSTORE PUSH1 0x27 DUP2 MSTORE PUSH1 0x20 ADD DUP1 PUSH2 0x34C0 PUSH1 0x27 SWAP2 CODECOPY PUSH1 0x40 ADD SWAP2 POP POP PUSH1 0x40 MLOAD DUP1 SWAP2 SUB SWAP1 REVERT JUMPDEST PUSH1 0x0 JUMPDEST DUP2 ISZERO PUSH2 0x2AE3 JUMPI PUSH1 0x1 ADD PUSH1 0xA DUP3 DIV SWAP2 POP PUSH2 0x2ACF JUMP JUMPDEST PUSH1 0x60 DUP2 PUSH1 0x1 PUSH1 0x1 PUSH1 0x40 SHL SUB DUP2 GT DUP1 ISZERO PUSH2 0x2AFB JUMPI PUSH1 0x0 DUP1 REVERT JUMPDEST POP PUSH1 0x40 MLOAD SWAP1 DUP1 DUP3 MSTORE DUP1 PUSH1 0x1F ADD PUSH1 0x1F NOT AND PUSH1 0x20 ADD DUP3 ADD PUSH1 0x40 MSTORE DUP1 ISZERO PUSH2 0x2B26 JUMPI PUSH1 0x20 DUP3 ADD DUP2 DUP1 CALLDATASIZE DUP4 CALLDATACOPY ADD SWAP1 POP JUMPDEST POP DUP7 MLOAD SWAP4 POP SWAP1 POP PUSH1 0x0 NOT DUP3 ADD JUMPDEST DUP4 ISZERO PUSH2 0x2B78 JUMPI PUSH1 0xA DUP5 MOD PUSH1 0x30 ADD PUSH1 0xF8 SHL DUP3 DUP3 DUP1 PUSH1 0x1 SWAP1 SUB SWAP4 POP DUP2 MLOAD DUP2 LT PUSH2 0x2B56 JUMPI INVALID JUMPDEST PUSH1 0x20 ADD ADD SWAP1 PUSH1 0x1 PUSH1 0x1 PUSH1 0xF8 SHL SUB NOT AND SWAP1 DUP2 PUSH1 0x0 BYTE SWAP1 MSTORE8 POP PUSH1 0xA DUP5 DIV SWAP4 POP PUSH2 0x2B33 JUMP JUMPDEST PUSH1 0x40 MLOAD PUSH1 0x19 PUSH1 0xF8 SHL PUSH1 0x20 DUP1 DUP4 ADD DUP3 DUP2 MSTORE PUSH32 0x457468657265756D205369676E6564204D6573736167653A0A00000000000000 PUSH1 0x21 DUP6 ADD DUP2 SWAP1 MSTORE DUP7 MLOAD SWAP4 SWAP5 SWAP1 SWAP4 DUP8 SWAP4 DUP14 SWAP4 SWAP3 PUSH1 0x3A ADD SWAP2 SWAP1 DUP6 ADD SWAP1 DUP1 DUP4 DUP4 JUMPDEST PUSH1 0x20 DUP4 LT PUSH2 0x2BE6 JUMPI DUP1 MLOAD DUP3 MSTORE PUSH1 0x1F NOT SWAP1 SWAP3 ADD SWAP2 PUSH1 0x20 SWAP2 DUP3 ADD SWAP2 ADD PUSH2 0x2BC7 JUMP JUMPDEST MLOAD DUP2 MLOAD PUSH1 0x20 SWAP4 DUP5 SUB PUSH2 0x100 EXP PUSH1 0x0 NOT ADD DUP1 NOT SWAP1 SWAP3 AND SWAP2 AND OR SWAP1 MSTORE DUP6 MLOAD SWAP2 SWAP1 SWAP4 ADD SWAP3 DUP6 ADD SWAP2 POP DUP1 DUP4 DUP4 JUMPDEST PUSH1 0x20 DUP4 LT PUSH2 0x2C2E JUMPI DUP1 MLOAD DUP3 MSTORE PUSH1 0x1F NOT SWAP1 SWAP3 ADD SWAP2 PUSH1 0x20 SWAP2 DUP3 ADD SWAP2 ADD PUSH2 0x2C0F JUMP JUMPDEST PUSH1 0x1 DUP4 PUSH1 0x20 SUB PUSH2 0x100 EXP SUB DUP1 NOT DUP3 MLOAD AND DUP2 DUP5 MLOAD AND DUP1 DUP3 OR DUP6 MSTORE POP POP POP POP POP POP SWAP1 POP ADD SWAP5 POP POP POP POP POP PUSH1 0x40 MLOAD PUSH1 0x20 DUP2 DUP4 SUB SUB DUP2 MSTORE SWAP1 PUSH1 0x40 MSTORE DUP1 MLOAD SWAP1 PUSH1 0x20 ADD KECCAK256 SWAP5 POP POP POP POP POP PUSH2 0x1033 JUMP JUMPDEST PUSH1 0x40 DUP1 MLOAD PUSH3 0x461BCD PUSH1 0xE5 SHL DUP2 MSTORE PUSH1 0x20 PUSH1 0x4 DUP3 ADD MSTORE PUSH1 0x1A PUSH1 0x24 DUP3 ADD MSTORE PUSH32 0x556E737570706F72746564204549503139312076657273696F6E000000000000 PUSH1 0x44 DUP3 ADD MSTORE SWAP1 MLOAD SWAP1 DUP2 SWAP1 SUB PUSH1 0x64 ADD SWAP1 REVERT JUMPDEST PUSH1 0x2 DUP1 SLOAD PUSH1 0x1 PUSH1 0xA0 SHL SWAP1 DIV PUSH1 0xFF AND EQ PUSH2 0x2CDC JUMPI PUSH1 0x0 DUP1 REVERT JUMPDEST PUSH1 0x40 DUP1 MLOAD CALLER DUP2 MSTORE SWAP1 MLOAD PUSH1 0x1 PUSH1 0x1 PUSH1 0xA0 SHL SUB DUP4 AND SWAP2 PUSH32 0xD55EC27C5C6316913ED8803C18CFD1BFEFEA953DB909DCBA6140744A9D8B0D1F SWAP2 SWAP1 DUP2 SWAP1 SUB PUSH1 0x20 ADD SWAP1 LOG2 POP JUMP JUMPDEST PUSH1 0x1 PUSH1 0x1 PUSH1 0xA0 SHL SUB DUP2 AND PUSH2 0x2D31 JUMPI PUSH1 0x0 DUP1 REVERT JUMPDEST PUSH1 0x0 DUP1 SLOAD PUSH1 0x40 MLOAD PUSH1 0x1 PUSH1 0x1 PUSH1 0xA0 SHL SUB DUP1 DUP6 AND SWAP4 SWAP3 AND SWAP2 PUSH32 0x8BE0079C531659141344CD1FD0A4F28419497F9722A3DAAFE3B4186F6B6457E0 SWAP2 LOG3 PUSH1 0x0 DUP1 SLOAD PUSH1 0x1 PUSH1 0x1 PUSH1 0xA0 SHL SUB NOT AND PUSH1 0x1 PUSH1 0x1 PUSH1 0xA0 SHL SUB SWAP3 SWAP1 SWAP3 AND SWAP2 SWAP1 SWAP2 OR SWAP1 SSTORE JUMP JUMPDEST PUSH1 0x0 DUP2 MLOAD PUSH1 0x41 EQ PUSH2 0x2D9C JUMPI PUSH1 0x0 DUP1 REVERT JUMPDEST PUSH1 0x20 DUP3 ADD MLOAD PUSH1 0x40 DUP4 ADD MLOAD PUSH1 0x60 DUP5 ADD MLOAD PUSH1 0x0 BYTE PUSH1 0x1B DUP2 LT ISZERO PUSH2 0x2DBB JUMPI PUSH1 0x1B ADD JUMPDEST DUP1 PUSH1 0xFF AND PUSH1 0x1B EQ DUP1 PUSH2 0x2DD0 JUMPI POP DUP1 PUSH1 0xFF AND PUSH1 0x1C EQ JUMPDEST PUSH2 0x2DD9 JUMPI PUSH1 0x0 DUP1 REVERT JUMPDEST PUSH1 0x40 DUP1 MLOAD PUSH1 0x0 DUP2 MSTORE PUSH1 0x20 DUP1 DUP3 ADD DUP1 DUP5 MSTORE DUP10 SWAP1 MSTORE PUSH1 0xFF DUP5 AND DUP3 DUP5 ADD MSTORE PUSH1 0x60 DUP3 ADD DUP7 SWAP1 MSTORE PUSH1 0x80 DUP3 ADD DUP6 SWAP1 MSTORE SWAP2 MLOAD PUSH1 0x1 SWAP3 PUSH1 0xA0 DUP1 DUP5 ADD SWAP4 SWAP2 SWAP3 PUSH1 0x1F NOT DUP2 ADD SWAP3 DUP2 SWAP1 SUB SWAP1 SWAP2 ADD SWAP1 DUP6 GAS STATICCALL ISZERO DUP1 ISZERO PUSH2 0x2E30 JUMPI RETURNDATASIZE PUSH1 0x0 DUP1 RETURNDATACOPY RETURNDATASIZE PUSH1 0x0 REVERT JUMPDEST POP POP PUSH1 0x40 MLOAD PUSH1 0x1F NOT ADD MLOAD SWAP8 SWAP7 POP POP POP POP POP POP POP JUMP JUMPDEST PUSH1 0x0 DUP1 PUSH1 0x0 DUP1 PUSH32 0x0 PUSH4 0xFFFFFFFF AND DUP7 PUSH1 0x2 ADD PUSH1 0x10 SWAP1 SLOAD SWAP1 PUSH2 0x100 EXP SWAP1 DIV PUSH1 0x1 PUSH1 0x1 PUSH1 0x40 SHL SUB AND PUSH1 0x1 PUSH1 0x1 PUSH1 0x40 SHL SUB AND DUP2 PUSH2 0x2E9A JUMPI INVALID JUMPDEST DIV SWAP1 POP PUSH1 0x0 PUSH2 0x2EF4 PUSH2 0x2EAA PUSH2 0xB4D JUMP JUMPDEST PUSH1 0x2 DUP10 ADD SLOAD PUSH32 0x0 PUSH4 0xFFFFFFFF AND SWAP1 PUSH1 0x1 PUSH1 0xC0 SHL SWAP1 DIV PUSH1 0x1 PUSH1 0x1 PUSH1 0x40 SHL SUB AND DUP2 PUSH2 0x2EEE JUMPI INVALID JUMPDEST DIV PUSH2 0x3317 JUMP JUMPDEST PUSH1 0x2 DUP8 ADD SLOAD SWAP1 SWAP2 POP PUSH1 0x0 SWAP1 PUSH2 0x2F0E SWAP1 DUP5 SWAP1 PUSH2 0xFFFF AND PUSH2 0x3335 JUMP JUMPDEST DUP8 SLOAD PUSH1 0x40 DUP1 MLOAD PUSH4 0x90DCB51F PUSH1 0xE0 SHL DUP2 MSTORE PUSH1 0x1 PUSH1 0x1 PUSH1 0xA0 SHL SUB SWAP3 DUP4 AND PUSH1 0x4 DUP3 ADD MSTORE SWAP1 MLOAD SWAP3 SWAP4 POP PUSH1 0x0 SWAP3 DUP4 SWAP3 PUSH32 0x0 AND SWAP2 PUSH4 0x90DCB51F SWAP2 PUSH1 0x24 DUP1 DUP4 ADD SWAP3 PUSH1 0x20 SWAP3 SWAP2 SWAP1 DUP3 SWAP1 SUB ADD DUP2 DUP7 DUP1 EXTCODESIZE ISZERO DUP1 ISZERO PUSH2 0x2F80 JUMPI PUSH1 0x0 DUP1 REVERT JUMPDEST POP GAS STATICCALL ISZERO DUP1 ISZERO PUSH2 0x2F94 JUMPI RETURNDATASIZE PUSH1 0x0 DUP1 RETURNDATACOPY RETURNDATASIZE PUSH1 0x0 REVERT JUMPDEST POP POP POP POP PUSH1 0x40 MLOAD RETURNDATASIZE PUSH1 0x20 DUP2 LT ISZERO PUSH2 0x2FAA JUMPI PUSH1 0x0 DUP1 REVERT JUMPDEST POP MLOAD PUSH1 0x2 DUP11 ADD SLOAD SWAP1 SWAP2 POP PUSH1 0x0 SWAP1 PUSH2 0xFFFF AND PUSH2 0x3069 JUMPI DUP10 SLOAD PUSH1 0x40 DUP1 MLOAD PUSH4 0x4789D02D PUSH1 0xE0 SHL DUP2 MSTORE PUSH1 0x1 PUSH1 0x1 PUSH1 0xA0 SHL SUB SWAP3 DUP4 AND PUSH1 0x4 DUP3 ADD MSTORE PUSH2 0xFFFF DUP10 AND PUSH1 0x24 DUP3 ADD MSTORE SWAP1 MLOAD PUSH32 0x0 SWAP1 SWAP3 AND SWAP2 PUSH4 0x4789D02D SWAP2 PUSH1 0x44 DUP1 DUP3 ADD SWAP3 PUSH1 0x20 SWAP3 SWAP1 SWAP2 SWAP1 DUP3 SWAP1 SUB ADD DUP2 DUP7 DUP1 EXTCODESIZE ISZERO DUP1 ISZERO PUSH2 0x3036 JUMPI PUSH1 0x0 DUP1 REVERT JUMPDEST POP GAS STATICCALL ISZERO DUP1 ISZERO PUSH2 0x304A JUMPI RETURNDATASIZE PUSH1 0x0 DUP1 RETURNDATACOPY RETURNDATASIZE PUSH1 0x0 REVERT JUMPDEST POP POP POP POP PUSH1 0x40 MLOAD RETURNDATASIZE PUSH1 0x20 DUP2 LT ISZERO PUSH2 0x3060 JUMPI PUSH1 0x0 DUP1 REVERT JUMPDEST POP MLOAD SWAP1 POP PUSH2 0x3070 JUMP JUMPDEST POP PUSH1 0x1 DUP10 ADD SLOAD JUMPDEST DUP1 SWAP8 POP JUMPDEST DUP2 DUP9 LT ISZERO PUSH2 0x31A7 JUMPI DUP10 SLOAD PUSH1 0x40 DUP1 MLOAD PUSH4 0x8FA95A15 PUSH1 0xE0 SHL DUP2 MSTORE PUSH1 0x1 PUSH1 0x1 PUSH1 0xA0 SHL SUB SWAP3 DUP4 AND PUSH1 0x4 DUP3 ADD MSTORE PUSH1 0x24 DUP2 ADD DUP12 SWAP1 MSTORE DUP2 MLOAD PUSH1 0x0 SWAP4 DUP5 SWAP4 PUSH32 0x0 SWAP1 SWAP2 AND SWAP3 PUSH4 0x8FA95A15 SWAP3 PUSH1 0x44 DUP1 DUP4 ADD SWAP4 SWAP3 DUP3 SWAP1 SUB ADD DUP2 DUP7 DUP1 EXTCODESIZE ISZERO DUP1 ISZERO PUSH2 0x30F0 JUMPI PUSH1 0x0 DUP1 REVERT JUMPDEST POP GAS STATICCALL ISZERO DUP1 ISZERO PUSH2 0x3104 JUMPI RETURNDATASIZE PUSH1 0x0 DUP1 RETURNDATACOPY RETURNDATASIZE PUSH1 0x0 REVERT JUMPDEST POP POP POP POP PUSH1 0x40 MLOAD RETURNDATASIZE PUSH1 0x40 DUP2 LT ISZERO PUSH2 0x311A JUMPI PUSH1 0x0 DUP1 REVERT JUMPDEST POP DUP1 MLOAD PUSH1 0x20 SWAP1 SWAP2 ADD MLOAD SWAP1 SWAP3 POP SWAP1 POP PUSH2 0xFFFF DUP1 DUP9 AND SWAP1 DUP4 AND GT ISZERO PUSH2 0x313E JUMPI POP POP PUSH2 0x31A7 JUMP JUMPDEST DUP6 PUSH2 0xFFFF AND DUP2 PUSH2 0xFFFF AND LT ISZERO PUSH2 0x3155 JUMPI POP POP PUSH2 0x319C JUMP JUMPDEST PUSH2 0x317C PUSH2 0x3162 DUP8 DUP5 PUSH2 0x3335 JUMP JUMPDEST PUSH2 0x316C DUP10 DUP5 PUSH2 0x3317 JUMP JUMPDEST PUSH2 0xFFFF AND SWAP1 PUSH4 0xFFFFFFFF PUSH2 0x334D AND JUMP JUMPDEST PUSH1 0x1 ADD DUP6 ADD SWAP5 POP DUP1 PUSH2 0xFFFF AND DUP8 PUSH2 0xFFFF AND GT PUSH2 0x3199 JUMPI POP POP PUSH2 0x31A7 JUMP JUMPDEST POP POP JUMPDEST PUSH1 0x1 SWAP1 SWAP8 ADD SWAP7 PUSH2 0x3074 JUMP JUMPDEST DUP10 SLOAD PUSH1 0x40 DUP1 MLOAD PUSH4 0x51F5E0C1 PUSH1 0xE1 SHL DUP2 MSTORE PUSH1 0x1 PUSH1 0x1 PUSH1 0xA0 SHL SUB SWAP3 DUP4 AND PUSH1 0x4 DUP3 ADD MSTORE SWAP1 MLOAD PUSH1 0x0 SWAP3 PUSH32 0x0 AND SWAP2 PUSH4 0xA3EBC182 SWAP2 PUSH1 0x24 DUP1 DUP4 ADD SWAP3 PUSH1 0x20 SWAP3 SWAP2 SWAP1 DUP3 SWAP1 SUB ADD DUP2 DUP7 DUP1 EXTCODESIZE ISZERO DUP1 ISZERO PUSH2 0x3214 JUMPI PUSH1 0x0 DUP1 REVERT JUMPDEST POP GAS STATICCALL ISZERO DUP1 ISZERO PUSH2 0x3228 JUMPI RETURNDATASIZE PUSH1 0x0 DUP1 RETURNDATACOPY RETURNDATASIZE PUSH1 0x0 REVERT JUMPDEST POP POP POP POP PUSH1 0x40 MLOAD RETURNDATASIZE PUSH1 0x20 DUP2 LT ISZERO PUSH2 0x323E JUMPI PUSH1 0x0 DUP1 REVERT JUMPDEST POP MLOAD SWAP1 POP DUP9 DUP4 EQ DUP1 ISZERO PUSH2 0x3258 JUMPI POP DUP6 PUSH2 0xFFFF AND DUP2 PUSH2 0xFFFF AND LT JUMPDEST ISZERO PUSH2 0x3271 JUMPI PUSH2 0x326A PUSH1 0x1 DUP7 SUB DUP3 PUSH2 0x3335 JUMP JUMPDEST DUP7 SUB DUP5 ADD SWAP4 POP JUMPDEST POP POP POP PUSH1 0x2 SWAP9 SWAP1 SWAP9 ADD SLOAD PUSH2 0xFFFF SWAP1 SWAP9 AND PUSH1 0x1 PUSH1 0x1 PUSH1 0x80 SHL SUB SWAP9 DUP10 AND MUL SWAP1 SWAP8 AND SWAP8 SWAP4 SWAP7 POP PUSH1 0x1 ADD SWAP5 POP SWAP2 SWAP3 POP POP POP JUMP JUMPDEST PUSH1 0x0 DUP3 DUP3 ADD DUP4 DUP2 LT ISZERO PUSH2 0xED2 JUMPI PUSH1 0x0 DUP1 REVERT JUMPDEST PUSH1 0x0 DUP3 DUP3 GT ISZERO PUSH2 0x32C1 JUMPI PUSH1 0x0 DUP1 REVERT JUMPDEST POP SWAP1 SUB SWAP1 JUMP JUMPDEST PUSH1 0x40 MLOAD DUP5 DUP2 MSTORE DUP4 ISZERO PUSH2 0x32DA JUMPI DUP3 PUSH1 0x4 DUP3 ADD MSTORE JUMPDEST PUSH1 0x1 DUP5 GT ISZERO PUSH2 0x32EA JUMPI DUP2 PUSH1 0x24 DUP3 ADD MSTORE JUMPDEST PUSH1 0x0 DUP1 DUP6 PUSH1 0x20 MUL PUSH1 0x4 ADD DUP4 DUP10 GAS DELEGATECALL DUP1 ISZERO PUSH2 0x3308 JUMPI RETURNDATASIZE PUSH1 0x0 DUP4 RETURNDATACOPY PUSH2 0x330D JUMP JUMPDEST PUSH1 0x0 DUP3 REVERT JUMPDEST POP SWAP6 SWAP5 POP POP POP POP POP JUMP JUMPDEST PUSH1 0x0 DUP2 PUSH2 0xFFFF AND DUP4 PUSH2 0xFFFF AND LT PUSH2 0x332E JUMPI DUP2 PUSH2 0xED2 JUMP JUMPDEST POP SWAP1 SWAP2 SWAP1 POP JUMP JUMPDEST PUSH1 0x0 DUP2 PUSH2 0xFFFF AND DUP4 PUSH2 0xFFFF AND LT ISZERO PUSH2 0x332E JUMPI DUP2 PUSH2 0xED2 JUMP JUMPDEST PUSH1 0x0 DUP3 PUSH2 0xFFFF AND DUP3 PUSH2 0xFFFF AND GT ISZERO PUSH2 0x32C1 JUMPI INVALID JUMPDEST PUSH1 0x40 DUP1 MLOAD PUSH1 0x60 DUP2 ADD DUP3 MSTORE PUSH1 0x0 DUP1 DUP3 MSTORE PUSH1 0x20 DUP3 ADD DUP2 SWAP1 MSTORE SWAP2 DUP2 ADD SWAP2 SWAP1 SWAP2 MSTORE SWAP1 JUMP JUMPDEST PUSH1 0x40 MLOAD DUP1 PUSH2 0x180 ADD PUSH1 0x40 MSTORE DUP1 PUSH1 0x0 ISZERO ISZERO DUP2 MSTORE PUSH1 0x20 ADD PUSH1 0x0 PUSH1 0x1 PUSH1 0x1 PUSH1 0xA0 SHL SUB AND DUP2 MSTORE PUSH1 0x20 ADD PUSH1 0x0 PUSH1 0x1 PUSH1 0x1 PUSH1 0xA0 SHL SUB AND DUP2 MSTORE PUSH1 0x20 ADD PUSH1 0x0 PUSH1 0x1 PUSH1 0x1 PUSH1 0x80 SHL SUB AND DUP2 MSTORE PUSH1 0x20 ADD PUSH1 0x0 PUSH1 0x1 PUSH1 0x1 PUSH1 0x40 SHL SUB AND DUP2 MSTORE PUSH1 0x20 ADD PUSH1 0x0 PUSH1 0x1 PUSH1 0x1 PUSH1 0x40 SHL SUB AND DUP2 MSTORE PUSH1 0x20 ADD PUSH1 0x0 DUP2 MSTORE PUSH1 0x20 ADD PUSH1 0x0 DUP2 MSTORE PUSH1 0x20 ADD PUSH1 0x0 DUP2 MSTORE PUSH1 0x20 ADD PUSH1 0x0 DUP2 MSTORE PUSH1 0x20 ADD PUSH1 0x0 DUP2 MSTORE PUSH1 0x20 ADD PUSH1 0x60 DUP2 MSTORE POP SWAP1 JUMP JUMPDEST PUSH1 0x40 MLOAD DUP1 PUSH1 0x80 ADD PUSH1 0x40 MSTORE DUP1 PUSH1 0x0 PUSH1 0x1 PUSH1 0x1 PUSH1 0x80 SHL SUB AND DUP2 MSTORE PUSH1 0x20 ADD PUSH1 0x0 PUSH2 0xFFFF AND DUP2 MSTORE PUSH1 0x20 ADD PUSH1 0x0 DUP2 MSTORE PUSH1 0x20 ADD PUSH1 0x0 DUP2 MSTORE POP SWAP1 JUMP INVALID SLOAD PUSH9 0x65207374616B657227 PUSH20 0x206D696E206665652072617465206D7573742066 PUSH2 0x6C6C KECCAK256 PUSH24 0x697468696E2074686520676C6F62616C206665652072616E PUSH8 0x6541646472657373 GASPRICE KECCAK256 PUSH22 0x6E61626C6520746F2073656E642076616C75652C2072 PUSH6 0x63697069656E PUSH21 0x206D61792068617665207265766572746564456D70 PUSH21 0x79206D657373616765206E6F7420616C6C6F776564 KECCAK256 PUSH7 0x6F722076657273 PUSH10 0x6F6E2045A26469706673 PC 0x22 SLT KECCAK256 0xE0 0x4B 0xDB CREATE2 PUSH16 0x67A4F64AA85A9578302CF9921E7026C2 0xE ADDRESS ADDRESS 0xE6 PUSH2 0xDC8A 0xB5 0x26 0x1F 0xC6 PUSH5 0x736F6C6343 STOP MOD SMOD STOP CALLER ",
  "sha1": "84b5e5a679e62e142a0ef99d76b2b6d7f27c07e3",
  "source": "pragma solidity ^0.6.5;\n\n\nimport \"zeppelin/token/ERC20/SafeERC20.sol\";\nimport \"zeppelin/math/SafeMath.sol\";\nimport \"zeppelin/math/Math.sol\";\nimport \"zeppelin/utils/Address.sol\";\nimport \"nucypher/lib/AdditionalMath.sol\";\nimport \"nucypher/lib/SignatureVerifier.sol\";\nimport \"nucypher/StakingEscrow.sol\";\nimport \"nucypher/NuCypherToken.sol\";\nimport \"nucypher/proxy/Upgradeable.sol\";\n\n\n/**\n* @title PolicyManager\n* @notice Contract holds policy data and locks accrued policy fees\n* @dev |v6.1.1|\n*/\ncontract PolicyManager is Upgradeable {\n    using SafeERC20 for NuCypherToken;\n    using SafeMath for uint256;\n    using AdditionalMath for uint256;\n    using AdditionalMath for int256;\n    using AdditionalMath for uint16;\n    using Address for address payable;\n\n    event PolicyCreated(\n        bytes16 indexed policyId,\n        address indexed sponsor,\n        address indexed owner,\n        uint256 feeRate,\n        uint64 startTimestamp,\n        uint64 endTimestamp,\n        uint256 numberOfNodes\n    );\n    event ArrangementRevoked(\n        bytes16 indexed policyId,\n        address indexed sender,\n        address indexed node,\n        uint256 value\n    );\n    event RefundForArrangement(\n        bytes16 indexed policyId,\n        address indexed sender,\n        address indexed node,\n        uint256 value\n    );\n    event PolicyRevoked(bytes16 indexed policyId, address indexed sender, uint256 value);\n    event RefundForPolicy(bytes16 indexed policyId, address indexed sender, uint256 value);\n    event NodeBrokenState(address indexed node, uint16 period);\n    event MinFeeRateSet(address indexed node, uint256 value);\n    // TODO #1501\n    // Range range\n    event FeeRateRangeSet(address indexed sender, uint256 min, uint256 defaultValue, uint256 max);\n    event Withdrawn(address indexed node, address indexed recipient, uint256 value);\n\n    struct ArrangementInfo {\n        address node;\n        uint256 indexOfDowntimePeriods;\n        uint16 lastRefundedPeriod;\n    }\n\n    struct Policy {\n        bool disabled;\n        address payable sponsor;\n        address owner;\n\n        uint128 feeRate;\n        uint64 startTimestamp;\n        uint64 endTimestamp;\n\n        uint256 reservedSlot1;\n        uint256 reservedSlot2;\n        uint256 reservedSlot3;\n        uint256 reservedSlot4;\n        uint256 reservedSlot5;\n\n        ArrangementInfo[] arrangements;\n    }\n\n    struct NodeInfo {\n        uint128 fee;\n        uint16 previousFeePeriod;\n        uint256 feeRate;\n        uint256 minFeeRate;\n        mapping (uint16 => int256) feeDelta;\n    }\n\n    struct Range {\n        uint128 min;\n        uint128 defaultValue;\n        uint128 max;\n    }\n\n    bytes16 internal constant RESERVED_POLICY_ID = bytes16(0);\n    address internal constant RESERVED_NODE = address(0);\n    uint256 internal constant MAX_BALANCE = uint256(uint128(0) - 1);\n    // controlled overflow to get max int256\n    int256 public constant DEFAULT_FEE_DELTA = int256((uint256(0) - 1) >> 1);\n\n    StakingEscrow public immutable escrow;\n    uint32 public immutable secondsPerPeriod;\n\n    mapping (bytes16 => Policy) public policies;\n    mapping (address => NodeInfo) public nodes;\n    Range public feeRateRange;\n\n    /**\n    * @notice Constructor sets address of the escrow contract\n    * @param _escrow Escrow contract\n    */\n    constructor(StakingEscrow _escrow) public {\n        // if the input address is not the StakingEscrow then calling `secondsPerPeriod` will throw error\n        uint32 localSecondsPerPeriod = _escrow.secondsPerPeriod();\n        require(localSecondsPerPeriod > 0);\n        secondsPerPeriod = localSecondsPerPeriod;\n        escrow = _escrow;\n    }\n\n    /**\n    * @dev Checks that sender is the StakingEscrow contract\n    */\n    modifier onlyEscrowContract()\n    {\n        require(msg.sender == address(escrow));\n        _;\n    }\n\n    /**\n    * @return Number of current period\n    */\n    function getCurrentPeriod() public view returns (uint16) {\n        return uint16(block.timestamp / secondsPerPeriod);\n    }\n\n    /**\n    * @notice Register a node\n    * @param _node Node address\n    * @param _period Initial period\n    */\n    function register(address _node, uint16 _period) external onlyEscrowContract {\n        NodeInfo storage nodeInfo = nodes[_node];\n        require(nodeInfo.previousFeePeriod == 0 && _period < getCurrentPeriod());\n        nodeInfo.previousFeePeriod = _period;\n    }\n\n    /**\n    * @notice Set minimum, default & maximum fee rate for all stakers and all policies ('global fee range')\n    */\n    // TODO # 1501\n    // function setFeeRateRange(Range calldata _range) external onlyOwner {\n    function setFeeRateRange(uint128 _min, uint128 _default, uint128 _max) external onlyOwner {\n        require(_min <= _default && _default <= _max);\n        feeRateRange = Range(_min, _default, _max);\n        emit FeeRateRangeSet(msg.sender, _min, _default, _max);\n    }\n\n    /**\n    * @notice Set the minimum acceptable fee rate (set by staker for their associated worker)\n    * @dev Input value must fall within `feeRateRange` (global fee range)\n    */\n    function setMinFeeRate(uint256 _minFeeRate) external {\n        require(_minFeeRate >= feeRateRange.min &&\n            _minFeeRate <= feeRateRange.max,\n            \"The staker's min fee rate must fall within the global fee range\");\n        NodeInfo storage nodeInfo = nodes[msg.sender];\n        if (nodeInfo.minFeeRate == _minFeeRate) {\n            return;\n        }\n        nodeInfo.minFeeRate = _minFeeRate;\n        emit MinFeeRateSet(msg.sender, _minFeeRate);\n    }\n\n    /**\n    * @notice Get the minimum acceptable fee rate (set by staker for their associated worker)\n    */\n    function getMinFeeRate(NodeInfo storage _nodeInfo) internal view returns (uint256) {\n        // if minFeeRate has not been set or chosen value falls outside the global fee range\n        // a default value is returned instead\n        if (_nodeInfo.minFeeRate == 0 ||\n            _nodeInfo.minFeeRate < feeRateRange.min ||\n            _nodeInfo.minFeeRate > feeRateRange.max) {\n            return feeRateRange.defaultValue;\n        } else {\n            return _nodeInfo.minFeeRate;\n        }\n    }\n\n    /**\n    * @notice Get the minimum acceptable fee rate (set by staker for their associated worker)\n    */\n    function getMinFeeRate(address _node) public view returns (uint256) {\n        NodeInfo storage nodeInfo = nodes[_node];\n        return getMinFeeRate(nodeInfo);\n    }\n\n    /**\n    * @notice Create policy\n    * @dev Generate policy id before creation\n    * @param _policyId Policy id\n    * @param _policyOwner Policy owner. Zero address means sender is owner\n    * @param _endTimestamp End timestamp of the policy in seconds\n    * @param _nodes Nodes that will handle policy\n    */\n    function createPolicy(\n        bytes16 _policyId,\n        address _policyOwner,\n        uint64 _endTimestamp,\n        address[] calldata _nodes\n    )\n        external payable\n    {\n        Policy storage policy = policies[_policyId];\n        require(\n            _policyId != RESERVED_POLICY_ID &&\n            policy.feeRate == 0 &&\n            !policy.disabled &&\n            _endTimestamp > block.timestamp &&\n            msg.value > 0\n        );\n        require(address(this).balance <= MAX_BALANCE);\n        uint16 currentPeriod = getCurrentPeriod();\n        uint16 endPeriod = uint16(_endTimestamp / secondsPerPeriod) + 1;\n        uint256 numberOfPeriods = endPeriod - currentPeriod;\n\n        policy.sponsor = msg.sender;\n        policy.startTimestamp = uint64(block.timestamp);\n        policy.endTimestamp = _endTimestamp;\n        policy.feeRate = uint128(msg.value.div(_nodes.length) / numberOfPeriods);\n        require(policy.feeRate > 0 && policy.feeRate * numberOfPeriods * _nodes.length  == msg.value);\n        if (_policyOwner != msg.sender && _policyOwner != address(0)) {\n            policy.owner = _policyOwner;\n        }\n\n        for (uint256 i = 0; i < _nodes.length; i++) {\n            address node = _nodes[i];\n            require(node != RESERVED_NODE);\n            NodeInfo storage nodeInfo = nodes[node];\n            require(nodeInfo.previousFeePeriod != 0 &&\n                nodeInfo.previousFeePeriod < currentPeriod &&\n                policy.feeRate >= getMinFeeRate(nodeInfo));\n            // Check default value for feeDelta\n            if (nodeInfo.feeDelta[currentPeriod] == DEFAULT_FEE_DELTA) {\n                nodeInfo.feeDelta[currentPeriod] = int256(policy.feeRate);\n            } else {\n                // Overflow protection removed, because ETH total supply less than uint255/int256\n                nodeInfo.feeDelta[currentPeriod] += int256(policy.feeRate);\n            }\n            if (nodeInfo.feeDelta[endPeriod] == DEFAULT_FEE_DELTA) {\n                nodeInfo.feeDelta[endPeriod] = -int256(policy.feeRate);\n            } else {\n                nodeInfo.feeDelta[endPeriod] -= int256(policy.feeRate);\n            }\n            // Reset to default value if needed\n            if (nodeInfo.feeDelta[currentPeriod] == 0) {\n                nodeInfo.feeDelta[currentPeriod] = DEFAULT_FEE_DELTA;\n            }\n            if (nodeInfo.feeDelta[endPeriod] == 0) {\n                nodeInfo.feeDelta[endPeriod] = DEFAULT_FEE_DELTA;\n            }\n            policy.arrangements.push(ArrangementInfo(node, 0, 0));\n        }\n\n        emit PolicyCreated(\n            _policyId,\n            msg.sender,\n            _policyOwner == address(0) ? msg.sender : _policyOwner,\n            policy.feeRate,\n            policy.startTimestamp,\n            policy.endTimestamp,\n            _nodes.length\n        );\n    }\n\n    /**\n    * @notice Get policy owner\n    */\n    function getPolicyOwner(bytes16 _policyId) public view returns (address) {\n        Policy storage policy = policies[_policyId];\n        return policy.owner == address(0) ? policy.sponsor : policy.owner;\n    }\n\n    /**\n    * @notice Set default `feeDelta` value for specified period\n    * @dev This method increases gas cost for node in trade of decreasing cost for policy sponsor\n    * @param _node Node address\n    * @param _period Period to set\n    */\n    function setDefaultFeeDelta(address _node, uint16 _period) external onlyEscrowContract {\n        NodeInfo storage node = nodes[_node];\n        if (node.feeDelta[_period] == 0) {\n            node.feeDelta[_period] = DEFAULT_FEE_DELTA;\n        }\n    }\n\n    /**\n    * @notice Update node fee\n    * @param _node Node address\n    * @param _period Processed period\n    */\n    function updateFee(address _node, uint16 _period) external onlyEscrowContract {\n        NodeInfo storage node = nodes[_node];\n        if (node.previousFeePeriod == 0 || _period <= node.previousFeePeriod) {\n            return;\n        }\n        for (uint16 i = node.previousFeePeriod + 1; i <= _period; i++) {\n            int256 delta = node.feeDelta[i];\n            if (delta == DEFAULT_FEE_DELTA) {\n                // gas refund\n                node.feeDelta[i] = 0;\n                continue;\n            }\n\n            // broken state\n            if (delta < 0 && uint256(-delta) > node.feeRate) {\n                node.feeDelta[i] += int256(node.feeRate);\n                node.feeRate = 0;\n                emit NodeBrokenState(_node, _period);\n            // good state\n            } else {\n                node.feeRate = node.feeRate.addSigned(delta);\n                // gas refund\n                node.feeDelta[i] = 0;\n            }\n        }\n        node.previousFeePeriod = _period;\n        node.fee += uint128(node.feeRate);\n    }\n\n    /**\n    * @notice Withdraw fee by node\n    */\n    function withdraw() external returns (uint256) {\n        return withdraw(msg.sender);\n    }\n\n    /**\n    * @notice Withdraw fee by node\n    * @param _recipient Recipient of the fee\n    */\n    function withdraw(address payable _recipient) public returns (uint256) {\n        NodeInfo storage node = nodes[msg.sender];\n        uint256 fee = node.fee;\n        require(fee != 0);\n        node.fee = 0;\n        _recipient.sendValue(fee);\n        emit Withdrawn(msg.sender, _recipient, fee);\n        return fee;\n    }\n\n    /**\n    * @notice Calculate amount of refund\n    * @param _policy Policy\n    * @param _arrangement Arrangement\n    */\n    function calculateRefundValue(Policy storage _policy, ArrangementInfo storage _arrangement)\n        internal view returns (uint256 refundValue, uint256 indexOfDowntimePeriods, uint16 lastRefundedPeriod)\n    {\n        uint16 policyStartPeriod = uint16(_policy.startTimestamp / secondsPerPeriod);\n        uint16 maxPeriod = AdditionalMath.min16(getCurrentPeriod(), uint16(_policy.endTimestamp / secondsPerPeriod));\n        uint16 minPeriod = AdditionalMath.max16(policyStartPeriod, _arrangement.lastRefundedPeriod);\n        uint16 downtimePeriods = 0;\n        uint256 length = escrow.getPastDowntimeLength(_arrangement.node);\n        uint256 initialIndexOfDowntimePeriods;\n        if (_arrangement.lastRefundedPeriod == 0) {\n            initialIndexOfDowntimePeriods = escrow.findIndexOfPastDowntime(_arrangement.node, policyStartPeriod);\n        } else {\n            initialIndexOfDowntimePeriods = _arrangement.indexOfDowntimePeriods;\n        }\n\n        for (indexOfDowntimePeriods = initialIndexOfDowntimePeriods;\n             indexOfDowntimePeriods < length;\n             indexOfDowntimePeriods++)\n        {\n            (uint16 startPeriod, uint16 endPeriod) =\n                escrow.getPastDowntime(_arrangement.node, indexOfDowntimePeriods);\n            if (startPeriod > maxPeriod) {\n                break;\n            } else if (endPeriod < minPeriod) {\n                continue;\n            }\n            downtimePeriods += AdditionalMath.min16(maxPeriod, endPeriod)\n                .sub16(AdditionalMath.max16(minPeriod, startPeriod)) + 1;\n            if (maxPeriod <= endPeriod) {\n                break;\n            }\n        }\n\n        uint16 lastCommittedPeriod = escrow.getLastCommittedPeriod(_arrangement.node);\n        if (indexOfDowntimePeriods == length && lastCommittedPeriod < maxPeriod) {\n            // Overflow protection removed:\n            // lastCommittedPeriod < maxPeriod and minPeriod <= maxPeriod + 1\n            downtimePeriods += maxPeriod - AdditionalMath.max16(minPeriod - 1, lastCommittedPeriod);\n        }\n\n        refundValue = _policy.feeRate * downtimePeriods;\n        lastRefundedPeriod = maxPeriod + 1;\n    }\n\n    /**\n    * @notice Revoke/refund arrangement/policy by the sponsor\n    * @param _policyId Policy id\n    * @param _node Node that will be excluded or RESERVED_NODE if full policy should be used\n    ( @param _forceRevoke Force revoke arrangement/policy\n    */\n    function refundInternal(bytes16 _policyId, address _node, bool _forceRevoke)\n        internal returns (uint256 refundValue)\n    {\n        refundValue = 0;\n        Policy storage policy = policies[_policyId];\n        require(!policy.disabled);\n        uint16 endPeriod = uint16(policy.endTimestamp / secondsPerPeriod) + 1;\n        uint256 numberOfActive = policy.arrangements.length;\n        uint256 i = 0;\n        for (; i < policy.arrangements.length; i++) {\n            ArrangementInfo storage arrangement = policy.arrangements[i];\n            address node = arrangement.node;\n            if (node == RESERVED_NODE || _node != RESERVED_NODE && _node != node) {\n                numberOfActive--;\n                continue;\n            }\n            uint256 nodeRefundValue;\n            (nodeRefundValue, arrangement.indexOfDowntimePeriods, arrangement.lastRefundedPeriod) =\n                calculateRefundValue(policy, arrangement);\n            if (_forceRevoke) {\n                NodeInfo storage nodeInfo = nodes[node];\n\n                // Check default value for feeDelta\n                uint16 lastRefundedPeriod = arrangement.lastRefundedPeriod;\n                if (nodeInfo.feeDelta[lastRefundedPeriod] == DEFAULT_FEE_DELTA) {\n                    nodeInfo.feeDelta[lastRefundedPeriod] = -int256(policy.feeRate);\n                } else {\n                    nodeInfo.feeDelta[lastRefundedPeriod] -= int256(policy.feeRate);\n                }\n                if (nodeInfo.feeDelta[endPeriod] == DEFAULT_FEE_DELTA) {\n                    nodeInfo.feeDelta[endPeriod] = -int256(policy.feeRate);\n                } else {\n                    nodeInfo.feeDelta[endPeriod] += int256(policy.feeRate);\n                }\n\n                // Reset to default value if needed\n                if (nodeInfo.feeDelta[lastRefundedPeriod] == 0) {\n                    nodeInfo.feeDelta[lastRefundedPeriod] = DEFAULT_FEE_DELTA;\n                }\n                if (nodeInfo.feeDelta[endPeriod] == 0) {\n                    nodeInfo.feeDelta[endPeriod] = DEFAULT_FEE_DELTA;\n                }\n                nodeRefundValue += uint256(endPeriod - lastRefundedPeriod) * policy.feeRate;\n            }\n            if (_forceRevoke || arrangement.lastRefundedPeriod >= endPeriod) {\n                arrangement.node = RESERVED_NODE;\n                arrangement.indexOfDowntimePeriods = 0;\n                arrangement.lastRefundedPeriod = 0;\n                numberOfActive--;\n                emit ArrangementRevoked(_policyId, msg.sender, node, nodeRefundValue);\n            } else {\n                emit RefundForArrangement(_policyId, msg.sender, node, nodeRefundValue);\n            }\n\n            refundValue += nodeRefundValue;\n            if (_node != RESERVED_NODE) {\n               break;\n            }\n        }\n        address payable policySponsor = policy.sponsor;\n        if (_node == RESERVED_NODE) {\n            if (numberOfActive == 0) {\n                policy.disabled = true;\n                // gas refund\n                policy.sponsor = address(0);\n                policy.owner = address(0);\n                policy.feeRate = 0;\n                policy.startTimestamp = 0;\n                policy.endTimestamp = 0;\n                emit PolicyRevoked(_policyId, msg.sender, refundValue);\n            } else {\n                emit RefundForPolicy(_policyId, msg.sender, refundValue);\n            }\n        } else {\n            // arrangement not found\n            require(i < policy.arrangements.length);\n        }\n        if (refundValue > 0) {\n            policySponsor.sendValue(refundValue);\n        }\n    }\n\n    /**\n    * @notice Calculate amount of refund\n    * @param _policyId Policy id\n    * @param _node Node or RESERVED_NODE if all nodes should be used\n    */\n    function calculateRefundValueInternal(bytes16 _policyId, address _node)\n        internal view returns (uint256 refundValue)\n    {\n        refundValue = 0;\n        Policy storage policy = policies[_policyId];\n        require((policy.owner == msg.sender || policy.sponsor == msg.sender) && !policy.disabled);\n        uint256 i = 0;\n        for (; i < policy.arrangements.length; i++) {\n            ArrangementInfo storage arrangement = policy.arrangements[i];\n            if (arrangement.node == RESERVED_NODE || _node != RESERVED_NODE && _node != arrangement.node) {\n                continue;\n            }\n            (uint256 nodeRefundValue,,) = calculateRefundValue(policy, arrangement);\n            refundValue += nodeRefundValue;\n            if (_node != RESERVED_NODE) {\n               break;\n            }\n        }\n        if (_node != RESERVED_NODE) {\n            // arrangement not found\n            require(i < policy.arrangements.length);\n        }\n    }\n\n    /**\n    * @notice Revoke policy by the sponsor\n    * @param _policyId Policy id\n    */\n    function revokePolicy(bytes16 _policyId) external returns (uint256 refundValue) {\n        require(getPolicyOwner(_policyId) == msg.sender);\n        return refundInternal(_policyId, RESERVED_NODE, true);\n    }\n\n    /**\n    * @notice Revoke arrangement by the sponsor\n    * @param _policyId Policy id\n    * @param _node Node that will be excluded\n    */\n    function revokeArrangement(bytes16 _policyId, address _node)\n        external returns (uint256 refundValue)\n    {\n        require(_node != RESERVED_NODE);\n        require(getPolicyOwner(_policyId) == msg.sender);\n        return refundInternal(_policyId, _node, true);\n    }\n\n    /**\n    * @notice Get unsigned hash for revocation\n    * @param _policyId Policy id\n    * @param _node Node that will be excluded\n    * @return Revocation hash, EIP191 version 0x45 ('E')\n    */\n    function getRevocationHash(bytes16 _policyId, address _node) public view returns (bytes32) {\n        return SignatureVerifier.hashEIP191(abi.encodePacked(_policyId, _node), byte(0x45));\n    }\n\n    /**\n    * @notice Check correctness of signature\n    * @param _policyId Policy id\n    * @param _node Node that will be excluded, zero address if whole policy will be revoked\n    * @param _signature Signature of owner\n    */\n    function checkOwnerSignature(bytes16 _policyId, address _node, bytes memory _signature) internal view {\n        bytes32 hash = getRevocationHash(_policyId, _node);\n        address recovered = SignatureVerifier.recover(hash, _signature);\n        require(getPolicyOwner(_policyId) == recovered);\n    }\n\n    /**\n    * @notice Revoke policy or arrangement using owner's signature\n    * @param _policyId Policy id\n    * @param _node Node that will be excluded, zero address if whole policy will be revoked\n    * @param _signature Signature of owner, EIP191 version 0x45 ('E')\n    */\n    function revoke(bytes16 _policyId, address _node, bytes calldata _signature)\n        external returns (uint256 refundValue)\n    {\n        checkOwnerSignature(_policyId, _node, _signature);\n        return refundInternal(_policyId, _node, true);\n    }\n\n    /**\n    * @notice Refund part of fee by the sponsor\n    * @param _policyId Policy id\n    */\n    function refund(bytes16 _policyId) external {\n        Policy storage policy = policies[_policyId];\n        require(policy.owner == msg.sender || policy.sponsor == msg.sender);\n        refundInternal(_policyId, RESERVED_NODE, false);\n    }\n\n    /**\n    * @notice Refund part of one node's fee by the sponsor\n    * @param _policyId Policy id\n    * @param _node Node address\n    */\n    function refund(bytes16 _policyId, address _node)\n        external returns (uint256 refundValue)\n    {\n        require(_node != RESERVED_NODE);\n        Policy storage policy = policies[_policyId];\n        require(policy.owner == msg.sender || policy.sponsor == msg.sender);\n        return refundInternal(_policyId, _node, false);\n    }\n\n    /**\n    * @notice Calculate amount of refund\n    * @param _policyId Policy id\n    */\n    function calculateRefundValue(bytes16 _policyId)\n        external view returns (uint256 refundValue)\n    {\n        return calculateRefundValueInternal(_policyId, RESERVED_NODE);\n    }\n\n    /**\n    * @notice Calculate amount of refund\n    * @param _policyId Policy id\n    * @param _node Node\n    */\n    function calculateRefundValue(bytes16 _policyId, address _node)\n        external view returns (uint256 refundValue)\n    {\n        require(_node != RESERVED_NODE);\n        return calculateRefundValueInternal(_policyId, _node);\n    }\n\n    /**\n    * @notice Get number of arrangements in the policy\n    * @param _policyId Policy id\n    */\n    function getArrangementsLength(bytes16 _policyId) external view returns (uint256) {\n        return policies[_policyId].arrangements.length;\n    }\n\n    /**\n    * @notice Get information about staker's fee rate\n    * @param _node Address of staker\n    * @param _period Period to get fee delta\n    */\n    function getNodeFeeDelta(address _node, uint16 _period)\n        // TODO \"virtual\" only for tests, probably will be removed after #1512\n        external view virtual returns (int256)\n    {\n        return nodes[_node].feeDelta[_period];\n    }\n\n    /**\n    * @notice Return the information about arrangement\n    */\n    function getArrangementInfo(bytes16 _policyId, uint256 _index)\n    // TODO change to structure when ABIEncoderV2 is released (#1501)\n//        public view returns (ArrangementInfo)\n        external view returns (address node, uint256 indexOfDowntimePeriods, uint16 lastRefundedPeriod)\n    {\n        ArrangementInfo storage info = policies[_policyId].arrangements[_index];\n        node = info.node;\n        indexOfDowntimePeriods = info.indexOfDowntimePeriods;\n        lastRefundedPeriod = info.lastRefundedPeriod;\n    }\n\n\n    /**\n    * @dev Get Policy structure by delegatecall\n    */\n    function delegateGetPolicy(address _target, bytes16 _policyId)\n        internal returns (Policy memory result)\n    {\n        bytes32 memoryAddress = delegateGetData(_target, this.policies.selector, 1, bytes32(_policyId), 0);\n        assembly {\n            result := memoryAddress\n        }\n    }\n\n    /**\n    * @dev Get ArrangementInfo structure by delegatecall\n    */\n    function delegateGetArrangementInfo(address _target, bytes16 _policyId, uint256 _index)\n        internal returns (ArrangementInfo memory result)\n    {\n        bytes32 memoryAddress = delegateGetData(\n            _target, this.getArrangementInfo.selector, 2, bytes32(_policyId), bytes32(_index));\n        assembly {\n            result := memoryAddress\n        }\n    }\n\n    /**\n    * @dev Get NodeInfo structure by delegatecall\n    */\n    function delegateGetNodeInfo(address _target, address _node)\n        internal returns (NodeInfo memory result)\n    {\n        bytes32 memoryAddress = delegateGetData(_target, this.nodes.selector, 1, bytes32(uint256(_node)), 0);\n        assembly {\n            result := memoryAddress\n        }\n    }\n\n    /**\n    * @dev Get feeRateRange structure by delegatecall\n    */\n    function delegateGetFeeRateRange(address _target) internal returns (Range memory result) {\n        bytes32 memoryAddress = delegateGetData(_target, this.feeRateRange.selector, 0, 0, 0);\n        assembly {\n            result := memoryAddress\n        }\n    }\n\n    /// @dev the `onlyWhileUpgrading` modifier works through a call to the parent `verifyState`\n    function verifyState(address _testTarget) public override virtual {\n        super.verifyState(_testTarget);\n        Range memory rangeToCheck = delegateGetFeeRateRange(_testTarget);\n        require(feeRateRange.min == rangeToCheck.min &&\n            feeRateRange.defaultValue == rangeToCheck.defaultValue &&\n            feeRateRange.max == rangeToCheck.max);\n        Policy storage policy = policies[RESERVED_POLICY_ID];\n        Policy memory policyToCheck = delegateGetPolicy(_testTarget, RESERVED_POLICY_ID);\n        require(policyToCheck.sponsor == policy.sponsor &&\n            policyToCheck.owner == policy.owner &&\n            policyToCheck.feeRate == policy.feeRate &&\n            policyToCheck.startTimestamp == policy.startTimestamp &&\n            policyToCheck.endTimestamp == policy.endTimestamp &&\n            policyToCheck.disabled == policy.disabled);\n\n        require(delegateGet(_testTarget, this.getArrangementsLength.selector, RESERVED_POLICY_ID) ==\n            policy.arrangements.length);\n        if (policy.arrangements.length > 0) {\n            ArrangementInfo storage arrangement = policy.arrangements[0];\n            ArrangementInfo memory arrangementToCheck = delegateGetArrangementInfo(\n                _testTarget, RESERVED_POLICY_ID, 0);\n            require(arrangementToCheck.node == arrangement.node &&\n                arrangementToCheck.indexOfDowntimePeriods == arrangement.indexOfDowntimePeriods &&\n                arrangementToCheck.lastRefundedPeriod == arrangement.lastRefundedPeriod);\n        }\n\n        NodeInfo storage nodeInfo = nodes[RESERVED_NODE];\n        NodeInfo memory nodeInfoToCheck = delegateGetNodeInfo(_testTarget, RESERVED_NODE);\n        require(nodeInfoToCheck.fee == nodeInfo.fee &&\n            nodeInfoToCheck.feeRate == nodeInfo.feeRate &&\n            nodeInfoToCheck.previousFeePeriod == nodeInfo.previousFeePeriod &&\n            nodeInfoToCheck.minFeeRate == nodeInfo.minFeeRate);\n\n        require(int256(delegateGet(_testTarget, this.getNodeFeeDelta.selector,\n            bytes32(bytes20(RESERVED_NODE)), bytes32(uint256(11)))) == nodeInfo.feeDelta[11]);\n    }\n\n    /// @dev the `onlyWhileUpgrading` modifier works through a call to the parent `finishUpgrade`\n    function finishUpgrade(address _target) public override virtual {\n        super.finishUpgrade(_target);\n        // Create fake Policy and NodeInfo to use them in verifyState(address)\n        Policy storage policy = policies[RESERVED_POLICY_ID];\n        policy.sponsor = msg.sender;\n        policy.owner = address(this);\n        policy.startTimestamp = 1;\n        policy.endTimestamp = 2;\n        policy.feeRate = 3;\n        policy.disabled = true;\n        policy.arrangements.push(ArrangementInfo(RESERVED_NODE, 11, 22));\n        NodeInfo storage nodeInfo = nodes[RESERVED_NODE];\n        nodeInfo.fee = 100;\n        nodeInfo.feeRate = 33;\n        nodeInfo.previousFeePeriod = 44;\n        nodeInfo.feeDelta[11] = 55;\n        nodeInfo.minFeeRate = 777;\n    }\n}\n",
  "sourcePath": "../../nucypher/blockchain/eth/sol/source/contracts/PolicyManager.sol",
  "type": "contract"
}