{
  "abi": [
    {
      "inputs": [
        {
          "internalType": "contract StakingInterfaceRouter",
          "name": "_router",
          "type": "address"
        }
      ],
      "stateMutability": "nonpayable",
      "type": "constructor"
    },
    {
      "anonymous": false,
      "inputs": [
        {
          "indexed": true,
          "internalType": "address",
          "name": "owner",
          "type": "address"
        },
        {
          "indexed": false,
          "internalType": "uint256",
          "name": "value",
          "type": "uint256"
        }
      ],
      "name": "ETHWithdrawn",
      "type": "event"
    },
    {
      "anonymous": false,
      "inputs": [
        {
          "indexed": true,
          "internalType": "address",
          "name": "previousOwner",
          "type": "address"
        },
        {
          "indexed": true,
          "internalType": "address",
          "name": "newOwner",
          "type": "address"
        }
      ],
      "name": "OwnershipTransferred",
      "type": "event"
    },
    {
      "anonymous": false,
      "inputs": [
        {
          "indexed": true,
          "internalType": "address",
          "name": "sender",
          "type": "address"
        },
        {
          "indexed": false,
          "internalType": "uint256",
          "name": "value",
          "type": "uint256"
        },
        {
          "indexed": false,
          "internalType": "uint256",
          "name": "duration",
          "type": "uint256"
        }
      ],
      "name": "TokensDeposited",
      "type": "event"
    },
    {
      "anonymous": false,
      "inputs": [
        {
          "indexed": true,
          "internalType": "address",
          "name": "owner",
          "type": "address"
        },
        {
          "indexed": false,
          "internalType": "uint256",
          "name": "value",
          "type": "uint256"
        }
      ],
      "name": "TokensWithdrawn",
      "type": "event"
    },
    {
      "stateMutability": "payable",
      "type": "fallback"
    },
    {
      "inputs": [],
      "name": "endLockTimestamp",
      "outputs": [
        {
          "internalType": "uint256",
          "name": "",
          "type": "uint256"
        }
      ],
      "stateMutability": "view",
      "type": "function"
    },
    {
      "inputs": [],
      "name": "getLockedTokens",
      "outputs": [
        {
          "internalType": "uint256",
          "name": "",
          "type": "uint256"
        }
      ],
      "stateMutability": "view",
      "type": "function"
    },
    {
      "inputs": [
        {
          "internalType": "uint256",
          "name": "_value",
          "type": "uint256"
        },
        {
          "internalType": "uint256",
          "name": "_duration",
          "type": "uint256"
        }
      ],
      "name": "initialDeposit",
      "outputs": [],
      "stateMutability": "nonpayable",
      "type": "function"
    },
    {
      "inputs": [],
      "name": "isFallbackAllowed",
      "outputs": [
        {
          "internalType": "bool",
          "name": "",
          "type": "bool"
        }
      ],
      "stateMutability": "nonpayable",
      "type": "function"
    },
    {
      "inputs": [],
      "name": "isOwner",
      "outputs": [
        {
          "internalType": "bool",
          "name": "",
          "type": "bool"
        }
      ],
      "stateMutability": "view",
      "type": "function"
    },
    {
      "inputs": [],
      "name": "lockedValue",
      "outputs": [
        {
          "internalType": "uint256",
          "name": "",
          "type": "uint256"
        }
      ],
      "stateMutability": "view",
      "type": "function"
    },
    {
      "inputs": [],
      "name": "owner",
      "outputs": [
        {
          "internalType": "address",
          "name": "",
          "type": "address"
        }
      ],
      "stateMutability": "view",
      "type": "function"
    },
    {
      "inputs": [
        {
          "internalType": "address",
          "name": "_from",
          "type": "address"
        },
        {
          "internalType": "uint256",
          "name": "_value",
          "type": "uint256"
        },
        {
          "internalType": "address",
          "name": "_tokenContract",
          "type": "address"
        },
        {
          "internalType": "bytes",
          "name": "",
          "type": "bytes"
        }
      ],
      "name": "receiveApproval",
      "outputs": [],
      "stateMutability": "nonpayable",
      "type": "function"
    },
    {
      "inputs": [],
      "name": "renounceOwnership",
      "outputs": [],
      "stateMutability": "nonpayable",
      "type": "function"
    },
    {
      "inputs": [],
      "name": "router",
      "outputs": [
        {
          "internalType": "contract StakingInterfaceRouter",
          "name": "",
          "type": "address"
        }
      ],
      "stateMutability": "view",
      "type": "function"
    },
    {
      "inputs": [],
      "name": "stakingEscrow",
      "outputs": [
        {
          "internalType": "contract StakingEscrow",
          "name": "",
          "type": "address"
        }
      ],
      "stateMutability": "view",
      "type": "function"
    },
    {
      "inputs": [],
      "name": "token",
      "outputs": [
        {
          "internalType": "contract NuCypherToken",
          "name": "",
          "type": "address"
        }
      ],
      "stateMutability": "view",
      "type": "function"
    },
    {
      "inputs": [
        {
          "internalType": "address",
          "name": "newOwner",
          "type": "address"
        }
      ],
      "name": "transferOwnership",
      "outputs": [],
      "stateMutability": "nonpayable",
      "type": "function"
    },
    {
      "inputs": [],
      "name": "withdrawETH",
      "outputs": [],
      "stateMutability": "nonpayable",
      "type": "function"
    },
    {
      "inputs": [
        {
          "internalType": "uint256",
          "name": "_value",
          "type": "uint256"
        }
      ],
      "name": "withdrawTokens",
      "outputs": [],
      "stateMutability": "nonpayable",
      "type": "function"
    }
  ],
  "bytecode": "60e060405234801561001057600080fd5b50604051610f72380380610f728339818101604052602081101561003357600080fd5b50516001600160601b0319606082901b1660805260408051636a5c1cc960e11b8152905182916000916001600160a01b0384169163d4b83992916004808301926020929190829003018186803b15801561008c57600080fd5b505afa1580156100a0573d6000803e3d6000fd5b505050506040513d60208110156100b657600080fd5b505160408051637e062a3560e11b815290516001600160a01b039092169163fc0c546a91600480820192602092909190829003018186803b1580156100fa57600080fd5b505afa15801561010e573d6000803e3d6000fd5b505050506040513d602081101561012457600080fd5b505190506001600160a01b03811661013b57600080fd5b60601b6001600160601b03191660a0525060008054336001600160a01b0319909116178082556040516001600160a01b0390911691907f8be0079c531659141344cd1fd0a4f28419497f9722a3daafe3b4186f6b6457e0908290a3806001600160a01b031663d4b839926040518163ffffffff1660e01b815260040160206040518083038186803b1580156101cf57600080fd5b505afa1580156101e3573d6000803e3d6000fd5b505050506040513d60208110156101f957600080fd5b50516040805163e2fdcc1760e01b815290516001600160a01b039092169163e2fdcc1791600480820192602092909190829003018186803b15801561023d57600080fd5b505afa158015610251573d6000803e3d6000fd5b505050506040513d602081101561026757600080fd5b50516001600160601b031960609190911b1660c0525060805160601c60a05160601c60c05160601c610c9d6102d5600039806105b552806106c652508061050b5280610643528061077452806107b952806108bb52806109b552508061010752806108975250610c9d6000f3fe6080604052600436106100e85760003560e01c80638f4ffcb11161008a578063e086e5ec11610059578063e086e5ec14610405578063f2fde38b1461041a578063f887ea401461044d578063fc0c546a14610462576100e8565b80638f4ffcb11461032a578063a030785a146103c6578063bd4bd9ce146103db578063d2c46932146103f0576100e8565b80633a6ce248116100c65780633a6ce248146102a7578063715018a6146102d75780638da5cb5b146102ec5780638f32d59b14610301576100e8565b8063315a095d146102255780633317bbcc1461024f57806336233c5f14610276575b366100f257610223565b6100fa610477565b61010357600080fd5b60007f00000000000000000000000000000000000000000000000000000000000000006001600160a01b031663d4b839926040518163ffffffff1660e01b815260040160206040518083038186803b15801561015e57600080fd5b505afa158015610172573d6000803e3d6000fd5b505050506040513d602081101561018857600080fd5b5051905061019e6001600160a01b03821661049b565b6101a757600080fd5b6000816001600160a01b03166000366040518083838082843760405192019450600093509091505080830381855af49150503d8060008114610205576040519150601f19603f3d011682016040523d82523d6000602084013e61020a565b606091505b50509050801561021e573d6000803e3d6000f35b600080fd5b005b34801561023157600080fd5b506102236004803603602081101561024857600080fd5b50356104d7565b34801561025b57600080fd5b506102646106aa565b60408051918252519081900360200190f35b34801561028257600080fd5b5061028b6106c4565b604080516001600160a01b039092168252519081900360200190f35b3480156102b357600080fd5b50610223600480360360408110156102ca57600080fd5b50803590602001356106e8565b3480156102e357600080fd5b506102236106f7565b3480156102f857600080fd5b5061028b610752565b34801561030d57600080fd5b50610316610761565b604080519115158252519081900360200190f35b34801561033657600080fd5b506102236004803603608081101561034d57600080fd5b6001600160a01b03823581169260208101359260408201359092169181019060808101606082013564010000000081111561038757600080fd5b82018360208201111561039957600080fd5b803590602001918460018302840111640100000000831117156103bb57600080fd5b509092509050610772565b3480156103d257600080fd5b50610264610807565b3480156103e757600080fd5b50610316610477565b3480156103fc57600080fd5b5061026461080d565b34801561041157600080fd5b50610223610813565b34801561042657600080fd5b506102236004803603602081101561043d57600080fd5b50356001600160a01b0316610878565b34801561045957600080fd5b5061028b610895565b34801561046e57600080fd5b5061028b6108b9565b6000610481610752565b6001600160a01b0316336001600160a01b03161490505b90565b6000813f7fc5d2460186f7233c927e7db2dcc703c0e500b653ca82273b7bfad8045d85a4708181148015906104cf57508115155b949350505050565b6104df610761565b6104e857600080fd5b604080516370a0823160e01b815230600482015290516000916001600160a01b037f000000000000000000000000000000000000000000000000000000000000000016916370a0823191602480820192602092909190829003018186803b15801561055257600080fd5b505afa158015610566573d6000803e3d6000fd5b505050506040513d602081101561057c57600080fd5b505190508181101561058d57600080fd5b6105956106aa565b60408051630bc5b6f360e11b815230600482015290516001600160a01b037f0000000000000000000000000000000000000000000000000000000000000000169163178b6de6916024808301926020929190829003018186803b1580156105fb57600080fd5b505afa15801561060f573d6000803e3d6000fd5b505050506040513d602081101561062557600080fd5b505183830301101561063657600080fd5b6106706001600160a01b037f000000000000000000000000000000000000000000000000000000000000000016338463ffffffff6108dd16565b60408051838152905133917f6352c5382c4a4578e712449ca65e83cdb392d045dfcf1cad9615189db2da244b919081900360200190a25050565b600042600254116106bd57506000610498565b5060015490565b7f000000000000000000000000000000000000000000000000000000000000000081565b6106f3338383610977565b5050565b6106ff610761565b61070857600080fd5b600080546040516001600160a01b03909116907f8be0079c531659141344cd1fd0a4f28419497f9722a3daafe3b4186f6b6457e0908390a3600080546001600160a01b0319169055565b6000546001600160a01b031690565b6000546001600160a01b0316331490565b7f00000000000000000000000000000000000000000000000000000000000000006001600160a01b0316836001600160a01b03161480156107db5750336001600160a01b037f000000000000000000000000000000000000000000000000000000000000000016145b6107e457600080fd5b60843560a43560086020839003021c6107fe878783610977565b50505050505050565b60025481565b60015481565b61081b610761565b61082457600080fd5b478061082f57600080fd5b61083f338263ffffffff610a2b16565b60408051828152905133917f94b2de810873337ed265c5f8cf98c9cffefa06b8607f9a2f1fbaebdfbcfbef1c919081900360200190a250565b610880610761565b61088957600080fd5b61089281610b10565b50565b7f000000000000000000000000000000000000000000000000000000000000000081565b7f000000000000000000000000000000000000000000000000000000000000000081565b826001600160a01b031663a9059cbb83836040518363ffffffff1660e01b815260040180836001600160a01b03166001600160a01b0316815260200182815260200192505050602060405180830381600087803b15801561093d57600080fd5b505af1158015610951573d6000803e3d6000fd5b505050506040513d602081101561096757600080fd5b505161097257600080fd5b505050565b6001541580156109875750600082115b61099057600080fd5b6109a0428263ffffffff610b7e16565b60025560018290556109e36001600160a01b037f00000000000000000000000000000000000000000000000000000000000000001684308563ffffffff610b9716565b604080518381526020810183905281516001600160a01b038616927ffdfdcf596161b0e81e3161597d46888dcc88bd83b22dcfb341c76377ca3bbc9e928290030190a2505050565b80471015610a80576040805162461bcd60e51b815260206004820152601d60248201527f416464726573733a20696e73756666696369656e742062616c616e6365000000604482015290519081900360640190fd5b6040516000906001600160a01b0384169083908381818185875af1925050503d8060008114610acb576040519150601f19603f3d011682016040523d82523d6000602084013e610ad0565b606091505b50509050806109725760405162461bcd60e51b815260040180806020018281038252603a815260200180610c2e603a913960400191505060405180910390fd5b6001600160a01b038116610b2357600080fd5b600080546040516001600160a01b03808516939216917f8be0079c531659141344cd1fd0a4f28419497f9722a3daafe3b4186f6b6457e091a3600080546001600160a01b0319166001600160a01b0392909216919091179055565b600082820183811015610b9057600080fd5b9392505050565b604080516323b872dd60e01b81526001600160a01b0385811660048301528481166024830152604482018490529151918616916323b872dd916064808201926020929091908290030181600087803b158015610bf257600080fd5b505af1158015610c06573d6000803e3d6000fd5b505050506040513d6020811015610c1c57600080fd5b5051610c2757600080fd5b5050505056fe416464726573733a20756e61626c6520746f2073656e642076616c75652c20726563697069656e74206d61792068617665207265766572746564a2646970667358221220e710211ed28d0f81f72a9391226544e4d1605d91a9fdf6174bd9159fb5c17dca64736f6c63430006070033",
  "bytecodeSha1": "edefa4470bb47341a26a4e61fb390418246388d5",
  "compiler": {
    "evm_version": "berlin",
    "optimizer": {
      "enabled": true,
      "runs": 200
    },
    "version": "0.6.7"
  },
  "contractName": "PreallocationEscrow",
  "language": "Solidity",
  "natspec": {
    "methods": {
      "constructor": {
        "params": {
          "_router": "Address of the StakingInterfaceRouter contract"
        }
      },
      "getLockedTokens()": {
        "notice": "Get locked tokens value"
      },
      "initialDeposit(uint256,uint256)": {
        "notice": "Initial tokens deposit",
        "params": {
          "_duration": "Duration of tokens locking",
          "_value": "Amount of token to deposit"
        }
      },
      "isFallbackAllowed()": {
        "notice": "Calling fallback function is allowed only for the owner"
      },
      "receiveApproval(address,uint256,address,bytes)": {
        "notice": "Implementation of the receiveApproval(address,uint256,address,bytes) method (see NuCypherToken contract). Initial tokens deposit(param _extraData) Amount of seconds during which tokens will be locked",
        "params": {
          "_from": "Sender",
          "_tokenContract": "Token contract address",
          "_value": "Amount of tokens to deposit"
        }
      },
      "renounceOwnership()": {
        "details": "Allows the current owner to relinquish control of the contract.",
        "notice": "Renouncing to ownership will leave the contract without an owner. It will not be possible to call the functions with the `onlyOwner` modifier anymore."
      },
      "transferOwnership(address)": {
        "details": "Allows the current owner to transfer control of the contract to a newOwner.",
        "params": {
          "newOwner": "The address to transfer ownership to."
        }
      },
      "withdrawETH()": {
        "notice": "Withdraw available ETH to the owner"
      },
      "withdrawTokens(uint256)": {
        "notice": "Withdraw available amount of tokens to owner",
        "params": {
          "_value": "Amount of token to withdraw"
        }
      }
    },
    "notice": "Contract holds tokens for vesting. Also tokens can be used as a stake in the staking escrow contract"
  },
  "opcodes": "PUSH1 0x80 PUSH1 0x40 MSTORE PUSH1 0x4 CALLDATASIZE LT PUSH2 0xE8 JUMPI PUSH1 0x0 CALLDATALOAD PUSH1 0xE0 SHR DUP1 PUSH4 0x8F4FFCB1 GT PUSH2 0x8A JUMPI DUP1 PUSH4 0xE086E5EC GT PUSH2 0x59 JUMPI DUP1 PUSH4 0xE086E5EC EQ PUSH2 0x405 JUMPI DUP1 PUSH4 0xF2FDE38B EQ PUSH2 0x41A JUMPI DUP1 PUSH4 0xF887EA40 EQ PUSH2 0x44D JUMPI DUP1 PUSH4 0xFC0C546A EQ PUSH2 0x462 JUMPI PUSH2 0xE8 JUMP JUMPDEST DUP1 PUSH4 0x8F4FFCB1 EQ PUSH2 0x32A JUMPI DUP1 PUSH4 0xA030785A EQ PUSH2 0x3C6 JUMPI DUP1 PUSH4 0xBD4BD9CE EQ PUSH2 0x3DB JUMPI DUP1 PUSH4 0xD2C46932 EQ PUSH2 0x3F0 JUMPI PUSH2 0xE8 JUMP JUMPDEST DUP1 PUSH4 0x3A6CE248 GT PUSH2 0xC6 JUMPI DUP1 PUSH4 0x3A6CE248 EQ PUSH2 0x2A7 JUMPI DUP1 PUSH4 0x715018A6 EQ PUSH2 0x2D7 JUMPI DUP1 PUSH4 0x8DA5CB5B EQ PUSH2 0x2EC JUMPI DUP1 PUSH4 0x8F32D59B EQ PUSH2 0x301 JUMPI PUSH2 0xE8 JUMP JUMPDEST DUP1 PUSH4 0x315A095D EQ PUSH2 0x225 JUMPI DUP1 PUSH4 0x3317BBCC EQ PUSH2 0x24F JUMPI DUP1 PUSH4 0x36233C5F EQ PUSH2 0x276 JUMPI JUMPDEST CALLDATASIZE PUSH2 0xF2 JUMPI PUSH2 0x223 JUMP JUMPDEST PUSH2 0xFA PUSH2 0x477 JUMP JUMPDEST PUSH2 0x103 JUMPI PUSH1 0x0 DUP1 REVERT JUMPDEST PUSH1 0x0 PUSH32 0x0 PUSH1 0x1 PUSH1 0x1 PUSH1 0xA0 SHL SUB AND PUSH4 0xD4B83992 PUSH1 0x40 MLOAD DUP2 PUSH4 0xFFFFFFFF AND PUSH1 0xE0 SHL DUP2 MSTORE PUSH1 0x4 ADD PUSH1 0x20 PUSH1 0x40 MLOAD DUP1 DUP4 SUB DUP2 DUP7 DUP1 EXTCODESIZE ISZERO DUP1 ISZERO PUSH2 0x15E JUMPI PUSH1 0x0 DUP1 REVERT JUMPDEST POP GAS STATICCALL ISZERO DUP1 ISZERO PUSH2 0x172 JUMPI RETURNDATASIZE PUSH1 0x0 DUP1 RETURNDATACOPY RETURNDATASIZE PUSH1 0x0 REVERT JUMPDEST POP POP POP POP PUSH1 0x40 MLOAD RETURNDATASIZE PUSH1 0x20 DUP2 LT ISZERO PUSH2 0x188 JUMPI PUSH1 0x0 DUP1 REVERT JUMPDEST POP MLOAD SWAP1 POP PUSH2 0x19E PUSH1 0x1 PUSH1 0x1 PUSH1 0xA0 SHL SUB DUP3 AND PUSH2 0x49B JUMP JUMPDEST PUSH2 0x1A7 JUMPI PUSH1 0x0 DUP1 REVERT JUMPDEST PUSH1 0x0 DUP2 PUSH1 0x1 PUSH1 0x1 PUSH1 0xA0 SHL SUB AND PUSH1 0x0 CALLDATASIZE PUSH1 0x40 MLOAD DUP1 DUP4 DUP4 DUP1 DUP3 DUP5 CALLDATACOPY PUSH1 0x40 MLOAD SWAP3 ADD SWAP5 POP PUSH1 0x0 SWAP4 POP SWAP1 SWAP2 POP POP DUP1 DUP4 SUB DUP2 DUP6 GAS DELEGATECALL SWAP2 POP POP RETURNDATASIZE DUP1 PUSH1 0x0 DUP2 EQ PUSH2 0x205 JUMPI PUSH1 0x40 MLOAD SWAP2 POP PUSH1 0x1F NOT PUSH1 0x3F RETURNDATASIZE ADD AND DUP3 ADD PUSH1 0x40 MSTORE RETURNDATASIZE DUP3 MSTORE RETURNDATASIZE PUSH1 0x0 PUSH1 0x20 DUP5 ADD RETURNDATACOPY PUSH2 0x20A JUMP JUMPDEST PUSH1 0x60 SWAP2 POP JUMPDEST POP POP SWAP1 POP DUP1 ISZERO PUSH2 0x21E JUMPI RETURNDATASIZE PUSH1 0x0 DUP1 RETURNDATACOPY RETURNDATASIZE PUSH1 0x0 RETURN JUMPDEST PUSH1 0x0 DUP1 REVERT JUMPDEST STOP JUMPDEST CALLVALUE DUP1 ISZERO PUSH2 0x231 JUMPI PUSH1 0x0 DUP1 REVERT JUMPDEST POP PUSH2 0x223 PUSH1 0x4 DUP1 CALLDATASIZE SUB PUSH1 0x20 DUP2 LT ISZERO PUSH2 0x248 JUMPI PUSH1 0x0 DUP1 REVERT JUMPDEST POP CALLDATALOAD PUSH2 0x4D7 JUMP JUMPDEST CALLVALUE DUP1 ISZERO PUSH2 0x25B JUMPI PUSH1 0x0 DUP1 REVERT JUMPDEST POP PUSH2 0x264 PUSH2 0x6AA JUMP JUMPDEST PUSH1 0x40 DUP1 MLOAD SWAP2 DUP3 MSTORE MLOAD SWAP1 DUP2 SWAP1 SUB PUSH1 0x20 ADD SWAP1 RETURN JUMPDEST CALLVALUE DUP1 ISZERO PUSH2 0x282 JUMPI PUSH1 0x0 DUP1 REVERT JUMPDEST POP PUSH2 0x28B PUSH2 0x6C4 JUMP JUMPDEST PUSH1 0x40 DUP1 MLOAD PUSH1 0x1 PUSH1 0x1 PUSH1 0xA0 SHL SUB SWAP1 SWAP3 AND DUP3 MSTORE MLOAD SWAP1 DUP2 SWAP1 SUB PUSH1 0x20 ADD SWAP1 RETURN JUMPDEST CALLVALUE DUP1 ISZERO PUSH2 0x2B3 JUMPI PUSH1 0x0 DUP1 REVERT JUMPDEST POP PUSH2 0x223 PUSH1 0x4 DUP1 CALLDATASIZE SUB PUSH1 0x40 DUP2 LT ISZERO PUSH2 0x2CA JUMPI PUSH1 0x0 DUP1 REVERT JUMPDEST POP DUP1 CALLDATALOAD SWAP1 PUSH1 0x20 ADD CALLDATALOAD PUSH2 0x6E8 JUMP JUMPDEST CALLVALUE DUP1 ISZERO PUSH2 0x2E3 JUMPI PUSH1 0x0 DUP1 REVERT JUMPDEST POP PUSH2 0x223 PUSH2 0x6F7 JUMP JUMPDEST CALLVALUE DUP1 ISZERO PUSH2 0x2F8 JUMPI PUSH1 0x0 DUP1 REVERT JUMPDEST POP PUSH2 0x28B PUSH2 0x752 JUMP JUMPDEST CALLVALUE DUP1 ISZERO PUSH2 0x30D JUMPI PUSH1 0x0 DUP1 REVERT JUMPDEST POP PUSH2 0x316 PUSH2 0x761 JUMP JUMPDEST PUSH1 0x40 DUP1 MLOAD SWAP2 ISZERO ISZERO DUP3 MSTORE MLOAD SWAP1 DUP2 SWAP1 SUB PUSH1 0x20 ADD SWAP1 RETURN JUMPDEST CALLVALUE DUP1 ISZERO PUSH2 0x336 JUMPI PUSH1 0x0 DUP1 REVERT JUMPDEST POP PUSH2 0x223 PUSH1 0x4 DUP1 CALLDATASIZE SUB PUSH1 0x80 DUP2 LT ISZERO PUSH2 0x34D JUMPI PUSH1 0x0 DUP1 REVERT JUMPDEST PUSH1 0x1 PUSH1 0x1 PUSH1 0xA0 SHL SUB DUP3 CALLDATALOAD DUP2 AND SWAP3 PUSH1 0x20 DUP2 ADD CALLDATALOAD SWAP3 PUSH1 0x40 DUP3 ADD CALLDATALOAD SWAP1 SWAP3 AND SWAP2 DUP2 ADD SWAP1 PUSH1 0x80 DUP2 ADD PUSH1 0x60 DUP3 ADD CALLDATALOAD PUSH5 0x100000000 DUP2 GT ISZERO PUSH2 0x387 JUMPI PUSH1 0x0 DUP1 REVERT JUMPDEST DUP3 ADD DUP4 PUSH1 0x20 DUP3 ADD GT ISZERO PUSH2 0x399 JUMPI PUSH1 0x0 DUP1 REVERT JUMPDEST DUP1 CALLDATALOAD SWAP1 PUSH1 0x20 ADD SWAP2 DUP5 PUSH1 0x1 DUP4 MUL DUP5 ADD GT PUSH5 0x100000000 DUP4 GT OR ISZERO PUSH2 0x3BB JUMPI PUSH1 0x0 DUP1 REVERT JUMPDEST POP SWAP1 SWAP3 POP SWAP1 POP PUSH2 0x772 JUMP JUMPDEST CALLVALUE DUP1 ISZERO PUSH2 0x3D2 JUMPI PUSH1 0x0 DUP1 REVERT JUMPDEST POP PUSH2 0x264 PUSH2 0x807 JUMP JUMPDEST CALLVALUE DUP1 ISZERO PUSH2 0x3E7 JUMPI PUSH1 0x0 DUP1 REVERT JUMPDEST POP PUSH2 0x316 PUSH2 0x477 JUMP JUMPDEST CALLVALUE DUP1 ISZERO PUSH2 0x3FC JUMPI PUSH1 0x0 DUP1 REVERT JUMPDEST POP PUSH2 0x264 PUSH2 0x80D JUMP JUMPDEST CALLVALUE DUP1 ISZERO PUSH2 0x411 JUMPI PUSH1 0x0 DUP1 REVERT JUMPDEST POP PUSH2 0x223 PUSH2 0x813 JUMP JUMPDEST CALLVALUE DUP1 ISZERO PUSH2 0x426 JUMPI PUSH1 0x0 DUP1 REVERT JUMPDEST POP PUSH2 0x223 PUSH1 0x4 DUP1 CALLDATASIZE SUB PUSH1 0x20 DUP2 LT ISZERO PUSH2 0x43D JUMPI PUSH1 0x0 DUP1 REVERT JUMPDEST POP CALLDATALOAD PUSH1 0x1 PUSH1 0x1 PUSH1 0xA0 SHL SUB AND PUSH2 0x878 JUMP JUMPDEST CALLVALUE DUP1 ISZERO PUSH2 0x459 JUMPI PUSH1 0x0 DUP1 REVERT JUMPDEST POP PUSH2 0x28B PUSH2 0x895 JUMP JUMPDEST CALLVALUE DUP1 ISZERO PUSH2 0x46E JUMPI PUSH1 0x0 DUP1 REVERT JUMPDEST POP PUSH2 0x28B PUSH2 0x8B9 JUMP JUMPDEST PUSH1 0x0 PUSH2 0x481 PUSH2 0x752 JUMP JUMPDEST PUSH1 0x1 PUSH1 0x1 PUSH1 0xA0 SHL SUB AND CALLER PUSH1 0x1 PUSH1 0x1 PUSH1 0xA0 SHL SUB AND EQ SWAP1 POP JUMPDEST SWAP1 JUMP JUMPDEST PUSH1 0x0 DUP2 EXTCODEHASH PUSH32 0xC5D2460186F7233C927E7DB2DCC703C0E500B653CA82273B7BFAD8045D85A470 DUP2 DUP2 EQ DUP1 ISZERO SWAP1 PUSH2 0x4CF JUMPI POP DUP2 ISZERO ISZERO JUMPDEST SWAP5 SWAP4 POP POP POP POP JUMP JUMPDEST PUSH2 0x4DF PUSH2 0x761 JUMP JUMPDEST PUSH2 0x4E8 JUMPI PUSH1 0x0 DUP1 REVERT JUMPDEST PUSH1 0x40 DUP1 MLOAD PUSH4 0x70A08231 PUSH1 0xE0 SHL DUP2 MSTORE ADDRESS PUSH1 0x4 DUP3 ADD MSTORE SWAP1 MLOAD PUSH1 0x0 SWAP2 PUSH1 0x1 PUSH1 0x1 PUSH1 0xA0 SHL SUB PUSH32 0x0 AND SWAP2 PUSH4 0x70A08231 SWAP2 PUSH1 0x24 DUP1 DUP3 ADD SWAP3 PUSH1 0x20 SWAP3 SWAP1 SWAP2 SWAP1 DUP3 SWAP1 SUB ADD DUP2 DUP7 DUP1 EXTCODESIZE ISZERO DUP1 ISZERO PUSH2 0x552 JUMPI PUSH1 0x0 DUP1 REVERT JUMPDEST POP GAS STATICCALL ISZERO DUP1 ISZERO PUSH2 0x566 JUMPI RETURNDATASIZE PUSH1 0x0 DUP1 RETURNDATACOPY RETURNDATASIZE PUSH1 0x0 REVERT JUMPDEST POP POP POP POP PUSH1 0x40 MLOAD RETURNDATASIZE PUSH1 0x20 DUP2 LT ISZERO PUSH2 0x57C JUMPI PUSH1 0x0 DUP1 REVERT JUMPDEST POP MLOAD SWAP1 POP DUP2 DUP2 LT ISZERO PUSH2 0x58D JUMPI PUSH1 0x0 DUP1 REVERT JUMPDEST PUSH2 0x595 PUSH2 0x6AA JUMP JUMPDEST PUSH1 0x40 DUP1 MLOAD PUSH4 0xBC5B6F3 PUSH1 0xE1 SHL DUP2 MSTORE ADDRESS PUSH1 0x4 DUP3 ADD MSTORE SWAP1 MLOAD PUSH1 0x1 PUSH1 0x1 PUSH1 0xA0 SHL SUB PUSH32 0x0 AND SWAP2 PUSH4 0x178B6DE6 SWAP2 PUSH1 0x24 DUP1 DUP4 ADD SWAP3 PUSH1 0x20 SWAP3 SWAP2 SWAP1 DUP3 SWAP1 SUB ADD DUP2 DUP7 DUP1 EXTCODESIZE ISZERO DUP1 ISZERO PUSH2 0x5FB JUMPI PUSH1 0x0 DUP1 REVERT JUMPDEST POP GAS STATICCALL ISZERO DUP1 ISZERO PUSH2 0x60F JUMPI RETURNDATASIZE PUSH1 0x0 DUP1 RETURNDATACOPY RETURNDATASIZE PUSH1 0x0 REVERT JUMPDEST POP POP POP POP PUSH1 0x40 MLOAD RETURNDATASIZE PUSH1 0x20 DUP2 LT ISZERO PUSH2 0x625 JUMPI PUSH1 0x0 DUP1 REVERT JUMPDEST POP MLOAD DUP4 DUP4 SUB ADD LT ISZERO PUSH2 0x636 JUMPI PUSH1 0x0 DUP1 REVERT JUMPDEST PUSH2 0x670 PUSH1 0x1 PUSH1 0x1 PUSH1 0xA0 SHL SUB PUSH32 0x0 AND CALLER DUP5 PUSH4 0xFFFFFFFF PUSH2 0x8DD AND JUMP JUMPDEST PUSH1 0x40 DUP1 MLOAD DUP4 DUP2 MSTORE SWAP1 MLOAD CALLER SWAP2 PUSH32 0x6352C5382C4A4578E712449CA65E83CDB392D045DFCF1CAD9615189DB2DA244B SWAP2 SWAP1 DUP2 SWAP1 SUB PUSH1 0x20 ADD SWAP1 LOG2 POP POP JUMP JUMPDEST PUSH1 0x0 TIMESTAMP PUSH1 0x2 SLOAD GT PUSH2 0x6BD JUMPI POP PUSH1 0x0 PUSH2 0x498 JUMP JUMPDEST POP PUSH1 0x1 SLOAD SWAP1 JUMP JUMPDEST PUSH32 0x0 DUP2 JUMP JUMPDEST PUSH2 0x6F3 CALLER DUP4 DUP4 PUSH2 0x977 JUMP JUMPDEST POP POP JUMP JUMPDEST PUSH2 0x6FF PUSH2 0x761 JUMP JUMPDEST PUSH2 0x708 JUMPI PUSH1 0x0 DUP1 REVERT JUMPDEST PUSH1 0x0 DUP1 SLOAD PUSH1 0x40 MLOAD PUSH1 0x1 PUSH1 0x1 PUSH1 0xA0 SHL SUB SWAP1 SWAP2 AND SWAP1 PUSH32 0x8BE0079C531659141344CD1FD0A4F28419497F9722A3DAAFE3B4186F6B6457E0 SWAP1 DUP4 SWAP1 LOG3 PUSH1 0x0 DUP1 SLOAD PUSH1 0x1 PUSH1 0x1 PUSH1 0xA0 SHL SUB NOT AND SWAP1 SSTORE JUMP JUMPDEST PUSH1 0x0 SLOAD PUSH1 0x1 PUSH1 0x1 PUSH1 0xA0 SHL SUB AND SWAP1 JUMP JUMPDEST PUSH1 0x0 SLOAD PUSH1 0x1 PUSH1 0x1 PUSH1 0xA0 SHL SUB AND CALLER EQ SWAP1 JUMP JUMPDEST PUSH32 0x0 PUSH1 0x1 PUSH1 0x1 PUSH1 0xA0 SHL SUB AND DUP4 PUSH1 0x1 PUSH1 0x1 PUSH1 0xA0 SHL SUB AND EQ DUP1 ISZERO PUSH2 0x7DB JUMPI POP CALLER PUSH1 0x1 PUSH1 0x1 PUSH1 0xA0 SHL SUB PUSH32 0x0 AND EQ JUMPDEST PUSH2 0x7E4 JUMPI PUSH1 0x0 DUP1 REVERT JUMPDEST PUSH1 0x84 CALLDATALOAD PUSH1 0xA4 CALLDATALOAD PUSH1 0x8 PUSH1 0x20 DUP4 SWAP1 SUB MUL SHR PUSH2 0x7FE DUP8 DUP8 DUP4 PUSH2 0x977 JUMP JUMPDEST POP POP POP POP POP POP POP JUMP JUMPDEST PUSH1 0x2 SLOAD DUP2 JUMP JUMPDEST PUSH1 0x1 SLOAD DUP2 JUMP JUMPDEST PUSH2 0x81B PUSH2 0x761 JUMP JUMPDEST PUSH2 0x824 JUMPI PUSH1 0x0 DUP1 REVERT JUMPDEST SELFBALANCE DUP1 PUSH2 0x82F JUMPI PUSH1 0x0 DUP1 REVERT JUMPDEST PUSH2 0x83F CALLER DUP3 PUSH4 0xFFFFFFFF PUSH2 0xA2B AND JUMP JUMPDEST PUSH1 0x40 DUP1 MLOAD DUP3 DUP2 MSTORE SWAP1 MLOAD CALLER SWAP2 PUSH32 0x94B2DE810873337ED265C5F8CF98C9CFFEFA06B8607F9A2F1FBAEBDFBCFBEF1C SWAP2 SWAP1 DUP2 SWAP1 SUB PUSH1 0x20 ADD SWAP1 LOG2 POP JUMP JUMPDEST PUSH2 0x880 PUSH2 0x761 JUMP JUMPDEST PUSH2 0x889 JUMPI PUSH1 0x0 DUP1 REVERT JUMPDEST PUSH2 0x892 DUP2 PUSH2 0xB10 JUMP JUMPDEST POP JUMP JUMPDEST PUSH32 0x0 DUP2 JUMP JUMPDEST PUSH32 0x0 DUP2 JUMP JUMPDEST DUP3 PUSH1 0x1 PUSH1 0x1 PUSH1 0xA0 SHL SUB AND PUSH4 0xA9059CBB DUP4 DUP4 PUSH1 0x40 MLOAD DUP4 PUSH4 0xFFFFFFFF AND PUSH1 0xE0 SHL DUP2 MSTORE PUSH1 0x4 ADD DUP1 DUP4 PUSH1 0x1 PUSH1 0x1 PUSH1 0xA0 SHL SUB AND PUSH1 0x1 PUSH1 0x1 PUSH1 0xA0 SHL SUB AND DUP2 MSTORE PUSH1 0x20 ADD DUP3 DUP2 MSTORE PUSH1 0x20 ADD SWAP3 POP POP POP PUSH1 0x20 PUSH1 0x40 MLOAD DUP1 DUP4 SUB DUP2 PUSH1 0x0 DUP8 DUP1 EXTCODESIZE ISZERO DUP1 ISZERO PUSH2 0x93D JUMPI PUSH1 0x0 DUP1 REVERT JUMPDEST POP GAS CALL ISZERO DUP1 ISZERO PUSH2 0x951 JUMPI RETURNDATASIZE PUSH1 0x0 DUP1 RETURNDATACOPY RETURNDATASIZE PUSH1 0x0 REVERT JUMPDEST POP POP POP POP PUSH1 0x40 MLOAD RETURNDATASIZE PUSH1 0x20 DUP2 LT ISZERO PUSH2 0x967 JUMPI PUSH1 0x0 DUP1 REVERT JUMPDEST POP MLOAD PUSH2 0x972 JUMPI PUSH1 0x0 DUP1 REVERT JUMPDEST POP POP POP JUMP JUMPDEST PUSH1 0x1 SLOAD ISZERO DUP1 ISZERO PUSH2 0x987 JUMPI POP PUSH1 0x0 DUP3 GT JUMPDEST PUSH2 0x990 JUMPI PUSH1 0x0 DUP1 REVERT JUMPDEST PUSH2 0x9A0 TIMESTAMP DUP3 PUSH4 0xFFFFFFFF PUSH2 0xB7E AND JUMP JUMPDEST PUSH1 0x2 SSTORE PUSH1 0x1 DUP3 SWAP1 SSTORE PUSH2 0x9E3 PUSH1 0x1 PUSH1 0x1 PUSH1 0xA0 SHL SUB PUSH32 0x0 AND DUP5 ADDRESS DUP6 PUSH4 0xFFFFFFFF PUSH2 0xB97 AND JUMP JUMPDEST PUSH1 0x40 DUP1 MLOAD DUP4 DUP2 MSTORE PUSH1 0x20 DUP2 ADD DUP4 SWAP1 MSTORE DUP2 MLOAD PUSH1 0x1 PUSH1 0x1 PUSH1 0xA0 SHL SUB DUP7 AND SWAP3 PUSH32 0xFDFDCF596161B0E81E3161597D46888DCC88BD83B22DCFB341C76377CA3BBC9E SWAP3 DUP3 SWAP1 SUB ADD SWAP1 LOG2 POP POP POP JUMP JUMPDEST DUP1 SELFBALANCE LT ISZERO PUSH2 0xA80 JUMPI PUSH1 0x40 DUP1 MLOAD PUSH3 0x461BCD PUSH1 0xE5 SHL DUP2 MSTORE PUSH1 0x20 PUSH1 0x4 DUP3 ADD MSTORE PUSH1 0x1D PUSH1 0x24 DUP3 ADD MSTORE PUSH32 0x416464726573733A20696E73756666696369656E742062616C616E6365000000 PUSH1 0x44 DUP3 ADD MSTORE SWAP1 MLOAD SWAP1 DUP2 SWAP1 SUB PUSH1 0x64 ADD SWAP1 REVERT JUMPDEST PUSH1 0x40 MLOAD PUSH1 0x0 SWAP1 PUSH1 0x1 PUSH1 0x1 PUSH1 0xA0 SHL SUB DUP5 AND SWAP1 DUP4 SWAP1 DUP4 DUP2 DUP2 DUP2 DUP6 DUP8 GAS CALL SWAP3 POP POP POP RETURNDATASIZE DUP1 PUSH1 0x0 DUP2 EQ PUSH2 0xACB JUMPI PUSH1 0x40 MLOAD SWAP2 POP PUSH1 0x1F NOT PUSH1 0x3F RETURNDATASIZE ADD AND DUP3 ADD PUSH1 0x40 MSTORE RETURNDATASIZE DUP3 MSTORE RETURNDATASIZE PUSH1 0x0 PUSH1 0x20 DUP5 ADD RETURNDATACOPY PUSH2 0xAD0 JUMP JUMPDEST PUSH1 0x60 SWAP2 POP JUMPDEST POP POP SWAP1 POP DUP1 PUSH2 0x972 JUMPI PUSH1 0x40 MLOAD PUSH3 0x461BCD PUSH1 0xE5 SHL DUP2 MSTORE PUSH1 0x4 ADD DUP1 DUP1 PUSH1 0x20 ADD DUP3 DUP2 SUB DUP3 MSTORE PUSH1 0x3A DUP2 MSTORE PUSH1 0x20 ADD DUP1 PUSH2 0xC2E PUSH1 0x3A SWAP2 CODECOPY PUSH1 0x40 ADD SWAP2 POP POP PUSH1 0x40 MLOAD DUP1 SWAP2 SUB SWAP1 REVERT JUMPDEST PUSH1 0x1 PUSH1 0x1 PUSH1 0xA0 SHL SUB DUP2 AND PUSH2 0xB23 JUMPI PUSH1 0x0 DUP1 REVERT JUMPDEST PUSH1 0x0 DUP1 SLOAD PUSH1 0x40 MLOAD PUSH1 0x1 PUSH1 0x1 PUSH1 0xA0 SHL SUB DUP1 DUP6 AND SWAP4 SWAP3 AND SWAP2 PUSH32 0x8BE0079C531659141344CD1FD0A4F28419497F9722A3DAAFE3B4186F6B6457E0 SWAP2 LOG3 PUSH1 0x0 DUP1 SLOAD PUSH1 0x1 PUSH1 0x1 PUSH1 0xA0 SHL SUB NOT AND PUSH1 0x1 PUSH1 0x1 PUSH1 0xA0 SHL SUB SWAP3 SWAP1 SWAP3 AND SWAP2 SWAP1 SWAP2 OR SWAP1 SSTORE JUMP JUMPDEST PUSH1 0x0 DUP3 DUP3 ADD DUP4 DUP2 LT ISZERO PUSH2 0xB90 JUMPI PUSH1 0x0 DUP1 REVERT JUMPDEST SWAP4 SWAP3 POP POP POP JUMP JUMPDEST PUSH1 0x40 DUP1 MLOAD PUSH4 0x23B872DD PUSH1 0xE0 SHL DUP2 MSTORE PUSH1 0x1 PUSH1 0x1 PUSH1 0xA0 SHL SUB DUP6 DUP2 AND PUSH1 0x4 DUP4 ADD MSTORE DUP5 DUP2 AND PUSH1 0x24 DUP4 ADD MSTORE PUSH1 0x44 DUP3 ADD DUP5 SWAP1 MSTORE SWAP2 MLOAD SWAP2 DUP7 AND SWAP2 PUSH4 0x23B872DD SWAP2 PUSH1 0x64 DUP1 DUP3 ADD SWAP3 PUSH1 0x20 SWAP3 SWAP1 SWAP2 SWAP1 DUP3 SWAP1 SUB ADD DUP2 PUSH1 0x0 DUP8 DUP1 EXTCODESIZE ISZERO DUP1 ISZERO PUSH2 0xBF2 JUMPI PUSH1 0x0 DUP1 REVERT JUMPDEST POP GAS CALL ISZERO DUP1 ISZERO PUSH2 0xC06 JUMPI RETURNDATASIZE PUSH1 0x0 DUP1 RETURNDATACOPY RETURNDATASIZE PUSH1 0x0 REVERT JUMPDEST POP POP POP POP PUSH1 0x40 MLOAD RETURNDATASIZE PUSH1 0x20 DUP2 LT ISZERO PUSH2 0xC1C JUMPI PUSH1 0x0 DUP1 REVERT JUMPDEST POP MLOAD PUSH2 0xC27 JUMPI PUSH1 0x0 DUP1 REVERT JUMPDEST POP POP POP POP JUMP INVALID COINBASE PUSH5 0x6472657373 GASPRICE KECCAK256 PUSH22 0x6E61626C6520746F2073656E642076616C75652C2072 PUSH6 0x63697069656E PUSH21 0x206D61792068617665207265766572746564A26469 PUSH17 0x667358221220E710211ED28D0F81F72A93 SWAP2 0x22 PUSH6 0x44E4D1605D91 0xA9 REVERT 0xF6 OR 0x4B 0xD9 ISZERO SWAP16 0xB5 0xC1 PUSH30 0xCA64736F6C63430006070033000000000000000000000000000000000000 ",
  "sha1": "364bbf551f4c458100621fcdd8cbcaa0f932d2ee",
  "source": "pragma solidity ^0.6.5;\n\n\nimport \"zeppelin/ownership/Ownable.sol\";\nimport \"zeppelin/math/SafeMath.sol\";\nimport \"nucypher/staking_contracts/AbstractStakingContract.sol\";\n\n\n/**\n* @notice Contract holds tokens for vesting.\n* Also tokens can be used as a stake in the staking escrow contract\n*/\ncontract PreallocationEscrow is AbstractStakingContract, Ownable {\n    using SafeMath for uint256;\n\n    event TokensDeposited(address indexed sender, uint256 value, uint256 duration);\n    event TokensWithdrawn(address indexed owner, uint256 value);\n    event ETHWithdrawn(address indexed owner, uint256 value);\n\n    StakingEscrow public immutable stakingEscrow;\n\n    uint256 public lockedValue;\n    uint256 public endLockTimestamp;\n\n    /**\n    * @param _router Address of the StakingInterfaceRouter contract\n    */\n    constructor(StakingInterfaceRouter _router) public AbstractStakingContract(_router) {\n        stakingEscrow = _router.target().escrow();\n    }\n\n    /**\n    * @notice Initial tokens deposit\n    * @param _sender Token sender\n    * @param _value Amount of token to deposit\n    * @param _duration Duration of tokens locking\n    */\n    function initialDeposit(address _sender, uint256 _value, uint256 _duration) internal {\n        require(lockedValue == 0 && _value > 0);\n        endLockTimestamp = block.timestamp.add(_duration);\n        lockedValue = _value;\n        token.safeTransferFrom(_sender, address(this), _value);\n        emit TokensDeposited(_sender, _value, _duration);\n    }\n\n    /**\n    * @notice Initial tokens deposit\n    * @param _value Amount of token to deposit\n    * @param _duration Duration of tokens locking\n    */\n    function initialDeposit(uint256 _value, uint256 _duration) external {\n        initialDeposit(msg.sender, _value, _duration);\n    }\n\n    /**\n    * @notice Implementation of the receiveApproval(address,uint256,address,bytes) method\n    * (see NuCypherToken contract). Initial tokens deposit\n    * @param _from Sender\n    * @param _value Amount of tokens to deposit\n    * @param _tokenContract Token contract address\n    * @notice (param _extraData) Amount of seconds during which tokens will be locked\n    */\n    function receiveApproval(\n        address _from,\n        uint256 _value,\n        address _tokenContract,\n        bytes calldata /* _extraData */\n    )\n        external\n    {\n        require(_tokenContract == address(token) && msg.sender == address(token));\n\n        // Copy first 32 bytes from _extraData, according to calldata memory layout:\n        //\n        // 0x00: method signature      4 bytes\n        // 0x04: _from                 32 bytes after encoding\n        // 0x24: _value                32 bytes after encoding\n        // 0x44: _tokenContract        32 bytes after encoding\n        // 0x64: _extraData pointer    32 bytes. Value must be 0x80 (offset of _extraData wrt to 1st parameter)\n        // 0x84: _extraData length     32 bytes\n        // 0xA4: _extraData data       Length determined by previous variable\n        //\n        // See https://solidity.readthedocs.io/en/latest/abi-spec.html#examples\n\n        uint256 payloadSize;\n        uint256 payload;\n        assembly {\n            payloadSize := calldataload(0x84)\n            payload := calldataload(0xA4)\n        }\n        payload = payload >> 8*(32 - payloadSize);\n        initialDeposit(_from, _value, payload);\n    }\n\n    /**\n    * @notice Get locked tokens value\n    */\n    function getLockedTokens() public view returns (uint256) {\n        if (endLockTimestamp <= block.timestamp) {\n            return 0;\n        }\n        return lockedValue;\n    }\n\n    /**\n    * @notice Withdraw available amount of tokens to owner\n    * @param _value Amount of token to withdraw\n    */\n    function withdrawTokens(uint256 _value) public override onlyOwner {\n        uint256 balance = token.balanceOf(address(this));\n        require(balance >= _value);\n        // Withdrawal invariant for PreallocationEscrow:\n        // After withdrawing, the sum of all escrowed tokens (either here or in StakingEscrow) must exceed the locked amount\n        require(balance - _value + stakingEscrow.getAllTokens(address(this)) >= getLockedTokens());\n        token.safeTransfer(msg.sender, _value);\n        emit TokensWithdrawn(msg.sender, _value);\n    }\n\n    /**\n    * @notice Withdraw available ETH to the owner\n    */\n    function withdrawETH() public override onlyOwner {\n        uint256 balance = address(this).balance;\n        require(balance != 0);\n        msg.sender.sendValue(balance);\n        emit ETHWithdrawn(msg.sender, balance);\n    }\n\n    /**\n    * @notice Calling fallback function is allowed only for the owner\n    */\n    function isFallbackAllowed() public override returns (bool) {\n        return msg.sender == owner();\n    }\n\n}\n",
  "sourcePath": "../../nucypher/blockchain/eth/sol/source/contracts/staking_contracts/PreallocationEscrow.sol",
  "type": "contract"
}