{
  "abi": [
    {
      "inputs": [
        {
          "internalType": "contract NuCypherToken",
          "name": "_token",
          "type": "address"
        },
        {
          "internalType": "contract StakingEscrow",
          "name": "_escrow",
          "type": "address"
        },
        {
          "internalType": "contract PolicyManager",
          "name": "_policyManager",
          "type": "address"
        },
        {
          "internalType": "contract WorkLock",
          "name": "_workLock",
          "type": "address"
        }
      ],
      "stateMutability": "nonpayable",
      "type": "constructor"
    },
    {
      "anonymous": false,
      "inputs": [
        {
          "indexed": true,
          "internalType": "address",
          "name": "sender",
          "type": "address"
        },
        {
          "indexed": false,
          "internalType": "uint256",
          "name": "depositedETH",
          "type": "uint256"
        }
      ],
      "name": "Bid",
      "type": "event"
    },
    {
      "anonymous": false,
      "inputs": [
        {
          "indexed": true,
          "internalType": "address",
          "name": "sender",
          "type": "address"
        }
      ],
      "name": "BidCanceled",
      "type": "event"
    },
    {
      "anonymous": false,
      "inputs": [
        {
          "indexed": true,
          "internalType": "address",
          "name": "sender",
          "type": "address"
        },
        {
          "indexed": false,
          "internalType": "uint256",
          "name": "claimedTokens",
          "type": "uint256"
        }
      ],
      "name": "Claimed",
      "type": "event"
    },
    {
      "anonymous": false,
      "inputs": [
        {
          "indexed": true,
          "internalType": "address",
          "name": "sender",
          "type": "address"
        }
      ],
      "name": "CompensationWithdrawn",
      "type": "event"
    },
    {
      "anonymous": false,
      "inputs": [
        {
          "indexed": true,
          "internalType": "address",
          "name": "sender",
          "type": "address"
        },
        {
          "indexed": false,
          "internalType": "uint256",
          "name": "value",
          "type": "uint256"
        },
        {
          "indexed": false,
          "internalType": "uint16",
          "name": "periods",
          "type": "uint16"
        }
      ],
      "name": "DepositedAsStaker",
      "type": "event"
    },
    {
      "anonymous": false,
      "inputs": [
        {
          "indexed": true,
          "internalType": "address",
          "name": "sender",
          "type": "address"
        },
        {
          "indexed": false,
          "internalType": "uint256",
          "name": "index",
          "type": "uint256"
        },
        {
          "indexed": false,
          "internalType": "uint256",
          "name": "newValue",
          "type": "uint256"
        },
        {
          "indexed": false,
          "internalType": "uint16",
          "name": "periods",
          "type": "uint16"
        }
      ],
      "name": "Divided",
      "type": "event"
    },
    {
      "anonymous": false,
      "inputs": [
        {
          "indexed": true,
          "internalType": "address",
          "name": "sender",
          "type": "address"
        },
        {
          "indexed": false,
          "internalType": "uint256",
          "name": "value",
          "type": "uint256"
        },
        {
          "indexed": false,
          "internalType": "uint16",
          "name": "periods",
          "type": "uint16"
        }
      ],
      "name": "Locked",
      "type": "event"
    },
    {
      "anonymous": false,
      "inputs": [
        {
          "indexed": true,
          "internalType": "address",
          "name": "sender",
          "type": "address"
        },
        {
          "indexed": false,
          "internalType": "uint256",
          "name": "value",
          "type": "uint256"
        }
      ],
      "name": "MinFeeRateSet",
      "type": "event"
    },
    {
      "anonymous": false,
      "inputs": [
        {
          "indexed": true,
          "internalType": "address",
          "name": "sender",
          "type": "address"
        }
      ],
      "name": "Minted",
      "type": "event"
    },
    {
      "anonymous": false,
      "inputs": [
        {
          "indexed": true,
          "internalType": "address",
          "name": "sender",
          "type": "address"
        },
        {
          "indexed": false,
          "internalType": "uint256",
          "name": "value",
          "type": "uint256"
        }
      ],
      "name": "PolicyFeeWithdrawn",
      "type": "event"
    },
    {
      "anonymous": false,
      "inputs": [
        {
          "indexed": true,
          "internalType": "address",
          "name": "sender",
          "type": "address"
        },
        {
          "indexed": false,
          "internalType": "uint256",
          "name": "index",
          "type": "uint256"
        },
        {
          "indexed": false,
          "internalType": "uint16",
          "name": "periods",
          "type": "uint16"
        }
      ],
      "name": "Prolonged",
      "type": "event"
    },
    {
      "anonymous": false,
      "inputs": [
        {
          "indexed": true,
          "internalType": "address",
          "name": "sender",
          "type": "address"
        },
        {
          "indexed": false,
          "internalType": "uint16",
          "name": "lockUntilPeriod",
          "type": "uint16"
        }
      ],
      "name": "ReStakeLocked",
      "type": "event"
    },
    {
      "anonymous": false,
      "inputs": [
        {
          "indexed": true,
          "internalType": "address",
          "name": "sender",
          "type": "address"
        },
        {
          "indexed": false,
          "internalType": "bool",
          "name": "reStake",
          "type": "bool"
        }
      ],
      "name": "ReStakeSet",
      "type": "event"
    },
    {
      "anonymous": false,
      "inputs": [
        {
          "indexed": true,
          "internalType": "address",
          "name": "sender",
          "type": "address"
        },
        {
          "indexed": false,
          "internalType": "uint256",
          "name": "refundETH",
          "type": "uint256"
        }
      ],
      "name": "Refund",
      "type": "event"
    },
    {
      "anonymous": false,
      "inputs": [
        {
          "indexed": true,
          "internalType": "address",
          "name": "sender",
          "type": "address"
        },
        {
          "indexed": false,
          "internalType": "bool",
          "name": "windDown",
          "type": "bool"
        }
      ],
      "name": "WindDownSet",
      "type": "event"
    },
    {
      "anonymous": false,
      "inputs": [
        {
          "indexed": true,
          "internalType": "address",
          "name": "sender",
          "type": "address"
        },
        {
          "indexed": false,
          "internalType": "uint256",
          "name": "value",
          "type": "uint256"
        }
      ],
      "name": "WithdrawnAsStaker",
      "type": "event"
    },
    {
      "anonymous": false,
      "inputs": [
        {
          "indexed": true,
          "internalType": "address",
          "name": "sender",
          "type": "address"
        },
        {
          "indexed": false,
          "internalType": "address",
          "name": "worker",
          "type": "address"
        }
      ],
      "name": "WorkerBonded",
      "type": "event"
    },
    {
      "inputs": [
        {
          "internalType": "uint256",
          "name": "_value",
          "type": "uint256"
        }
      ],
      "name": "bid",
      "outputs": [],
      "stateMutability": "payable",
      "type": "function"
    },
    {
      "inputs": [
        {
          "internalType": "address",
          "name": "_worker",
          "type": "address"
        }
      ],
      "name": "bondWorker",
      "outputs": [],
      "stateMutability": "nonpayable",
      "type": "function"
    },
    {
      "inputs": [],
      "name": "cancelBid",
      "outputs": [],
      "stateMutability": "nonpayable",
      "type": "function"
    },
    {
      "inputs": [],
      "name": "claim",
      "outputs": [],
      "stateMutability": "nonpayable",
      "type": "function"
    },
    {
      "inputs": [
        {
          "internalType": "uint256",
          "name": "_value",
          "type": "uint256"
        },
        {
          "internalType": "uint16",
          "name": "_periods",
          "type": "uint16"
        }
      ],
      "name": "depositAsStaker",
      "outputs": [],
      "stateMutability": "nonpayable",
      "type": "function"
    },
    {
      "inputs": [
        {
          "internalType": "uint256",
          "name": "_index",
          "type": "uint256"
        },
        {
          "internalType": "uint256",
          "name": "_newValue",
          "type": "uint256"
        },
        {
          "internalType": "uint16",
          "name": "_periods",
          "type": "uint16"
        }
      ],
      "name": "divideStake",
      "outputs": [],
      "stateMutability": "nonpayable",
      "type": "function"
    },
    {
      "inputs": [],
      "name": "escrow",
      "outputs": [
        {
          "internalType": "contract StakingEscrow",
          "name": "",
          "type": "address"
        }
      ],
      "stateMutability": "view",
      "type": "function"
    },
    {
      "inputs": [
        {
          "internalType": "uint256",
          "name": "_value",
          "type": "uint256"
        },
        {
          "internalType": "uint16",
          "name": "_periods",
          "type": "uint16"
        }
      ],
      "name": "lock",
      "outputs": [],
      "stateMutability": "nonpayable",
      "type": "function"
    },
    {
      "inputs": [
        {
          "internalType": "uint16",
          "name": "_lockReStakeUntilPeriod",
          "type": "uint16"
        }
      ],
      "name": "lockReStake",
      "outputs": [],
      "stateMutability": "nonpayable",
      "type": "function"
    },
    {
      "inputs": [],
      "name": "mint",
      "outputs": [],
      "stateMutability": "nonpayable",
      "type": "function"
    },
    {
      "inputs": [],
      "name": "policyManager",
      "outputs": [
        {
          "internalType": "contract PolicyManager",
          "name": "",
          "type": "address"
        }
      ],
      "stateMutability": "view",
      "type": "function"
    },
    {
      "inputs": [
        {
          "internalType": "uint256",
          "name": "_index",
          "type": "uint256"
        },
        {
          "internalType": "uint16",
          "name": "_periods",
          "type": "uint16"
        }
      ],
      "name": "prolongStake",
      "outputs": [],
      "stateMutability": "nonpayable",
      "type": "function"
    },
    {
      "inputs": [],
      "name": "refund",
      "outputs": [],
      "stateMutability": "nonpayable",
      "type": "function"
    },
    {
      "inputs": [
        {
          "internalType": "uint256",
          "name": "_minFeeRate",
          "type": "uint256"
        }
      ],
      "name": "setMinFeeRate",
      "outputs": [],
      "stateMutability": "nonpayable",
      "type": "function"
    },
    {
      "inputs": [
        {
          "internalType": "bool",
          "name": "_reStake",
          "type": "bool"
        }
      ],
      "name": "setReStake",
      "outputs": [],
      "stateMutability": "nonpayable",
      "type": "function"
    },
    {
      "inputs": [
        {
          "internalType": "bool",
          "name": "_windDown",
          "type": "bool"
        }
      ],
      "name": "setWindDown",
      "outputs": [],
      "stateMutability": "nonpayable",
      "type": "function"
    },
    {
      "inputs": [],
      "name": "stakingInterfaceAddress",
      "outputs": [
        {
          "internalType": "address",
          "name": "",
          "type": "address"
        }
      ],
      "stateMutability": "view",
      "type": "function"
    },
    {
      "inputs": [],
      "name": "token",
      "outputs": [
        {
          "internalType": "contract NuCypherToken",
          "name": "",
          "type": "address"
        }
      ],
      "stateMutability": "view",
      "type": "function"
    },
    {
      "inputs": [
        {
          "internalType": "uint256",
          "name": "_value",
          "type": "uint256"
        }
      ],
      "name": "withdrawAsStaker",
      "outputs": [],
      "stateMutability": "nonpayable",
      "type": "function"
    },
    {
      "inputs": [],
      "name": "withdrawCompensation",
      "outputs": [],
      "stateMutability": "nonpayable",
      "type": "function"
    },
    {
      "inputs": [],
      "name": "withdrawPolicyFee",
      "outputs": [],
      "stateMutability": "nonpayable",
      "type": "function"
    },
    {
      "inputs": [],
      "name": "workLock",
      "outputs": [
        {
          "internalType": "contract WorkLock",
          "name": "",
          "type": "address"
        }
      ],
      "stateMutability": "view",
      "type": "function"
    }
  ],
  "bytecode": "6101206040523480156200001257600080fd5b5060405162001b5f38038062001b5f833981810160405260808110156200003857600080fd5b50805160208083015160408085015160609095015181516318160ddd60e01b81529151949592949293909286928692869286926000926001600160a01b038816926318160ddd926004808201939291829003018186803b1580156200009c57600080fd5b505afa158015620000b1573d6000803e3d6000fd5b505050506040513d6020811015620000c857600080fd5b50511180156200014557506000836001600160a01b031663407f80016040518163ffffffff1660e01b815260040160206040518083038186803b1580156200010f57600080fd5b505afa15801562000124573d6000803e3d6000fd5b505050506040513d60208110156200013b57600080fd5b505163ffffffff16115b8015620001bf57506000826001600160a01b031663407f80016040518163ffffffff1660e01b815260040160206040518083038186803b1580156200018957600080fd5b505afa1580156200019e573d6000803e3d6000fd5b505050506040513d6020811015620001b557600080fd5b505163ffffffff16115b80156200024557506001600160a01b03811615806200024557506000816001600160a01b0316635bf997f56040518163ffffffff1660e01b815260040160206040518083038186803b1580156200021557600080fd5b505afa1580156200022a573d6000803e3d6000fd5b505050506040513d60208110156200024157600080fd5b5051115b6200024f57600080fd5b606084811b6001600160601b031990811660a05284821b811660c05283821b811660e05282821b1661010052309081901b60805297506001600160a01b039384169650918316945082169250166117c16200039e6000398061060952806106635280610696528061087352806108a852806109a052806109d55280610e415280610e745280611037528061106a52508061077b5280610f4a528061130d52508061049752806105695280610b9c5280610c625280610d665280611140528061124d5280611390528061149b528061157d528061164f52806116cb525080610aed5280610b6d52806117695250806104415280610533528061062d5280610743528061083d528061096a5280610a975280610d075280610e0b5280610f145280611001528061110a52806111f752806112e9528061133152806114355280611547528061167352506117c16000f3fe6080604052600436106101355760003560e01c80639435c887116100ab578063b89f66ed1161006f578063b89f66ed14610346578063d122b7941461037a578063dad60676146103b4578063e2fdcc17146103e7578063ee53c8fd146103fc578063fc0c546a1461042a57610135565b80639435c887146102b15780639d223d15146102c65780639d6f2a09146102f05780639d83a8dc1461031c578063ab3dbf3b1461033157610135565b80634e71d92d116100fd5780634e71d92d146101e0578063590e1ae3146101f55780636294163e1461020a57806386f86dde1461023e57806387a15dc9146102725780638c316b901461028757610135565b806303a944851461013a5780631249c58b146101685780631c7fd5321461017d578063454a2ab3146101ae5780634e62ef1e146101cb575b600080fd5b34801561014657600080fd5b506101666004803603602081101561015d57600080fd5b5035151561043f565b005b34801561017457600080fd5b50610166610531565b34801561018957600080fd5b50610192610607565b604080516001600160a01b039092168252519081900360200190f35b610166600480360360208110156101c457600080fd5b503561062b565b3480156101d757600080fd5b50610166610741565b3480156101ec57600080fd5b5061016661083b565b34801561020157600080fd5b50610166610968565b34801561021657600080fd5b506101666004803603604081101561022d57600080fd5b508035906020013561ffff16610a95565b34801561024a57600080fd5b506101666004803603604081101561026157600080fd5b508035906020013561ffff16610d05565b34801561027e57600080fd5b50610166610e09565b34801561029357600080fd5b50610166600480360360208110156102aa57600080fd5b5035610f12565b3480156102bd57600080fd5b50610166610fff565b3480156102d257600080fd5b50610166600480360360208110156102e957600080fd5b5035611108565b3480156102fc57600080fd5b506101666004803603602081101561031357600080fd5b503515156111f5565b34801561032857600080fd5b506101926112e7565b34801561033d57600080fd5b5061019261130b565b34801561035257600080fd5b506101666004803603604081101561036957600080fd5b508035906020013561ffff1661132f565b34801561038657600080fd5b506101666004803603606081101561039d57600080fd5b508035906020810135906040013561ffff16611433565b3480156103c057600080fd5b50610166600480360360208110156103d757600080fd5b50356001600160a01b0316611545565b3480156103f357600080fd5b5061019261164d565b34801561040857600080fd5b506101666004803603602081101561041f57600080fd5b503561ffff16611671565b34801561043657600080fd5b50610192611767565b7f00000000000000000000000000000000000000000000000000000000000000006001600160a01b031630141561047557600080fd5b604080516303a9448560e01b8152821515600482015290516001600160a01b037f000000000000000000000000000000000000000000000000000000000000000016916303a9448591602480830192600092919082900301818387803b1580156104de57600080fd5b505af11580156104f2573d6000803e3d6000fd5b505060408051841515815290513393507fcb9d7989e6d845ab7f3f16f57405fb85976d320aa7c3ba2705eddd52ca09154e92509081900360200190a250565b7f00000000000000000000000000000000000000000000000000000000000000006001600160a01b031630141561056757600080fd5b7f00000000000000000000000000000000000000000000000000000000000000006001600160a01b0316631249c58b6040518163ffffffff1660e01b8152600401600060405180830381600087803b1580156105c257600080fd5b505af11580156105d6573d6000803e3d6000fd5b50506040513392507f90ddedd5a25821bba11fbb98de02ec1f75c1be90ae147d6450ce873e7b78b5d89150600090a2565b7f000000000000000000000000000000000000000000000000000000000000000081565b7f00000000000000000000000000000000000000000000000000000000000000006001600160a01b031630141561066157600080fd5b7f00000000000000000000000000000000000000000000000000000000000000006001600160a01b031661069457600080fd5b7f00000000000000000000000000000000000000000000000000000000000000006001600160a01b0316631998aeef826040518263ffffffff1660e01b81526004016000604051808303818588803b1580156106ef57600080fd5b505af1158015610703573d6000803e3d6000fd5b50506040805185815290513394507fe684a55f31b79eca403df938249029212a5925ec6be8012e099b45bc1019e5d29350908190036020019150a250565b7f00000000000000000000000000000000000000000000000000000000000000006001600160a01b031630141561077757600080fd5b60007f00000000000000000000000000000000000000000000000000000000000000006001600160a01b0316633ccfd60b6040518163ffffffff1660e01b8152600401602060405180830381600087803b1580156107d457600080fd5b505af11580156107e8573d6000803e3d6000fd5b505050506040513d60208110156107fe57600080fd5b505160408051828152905191925033917f3e0af9db9c08380520dc2592809e7281d3aedc8e7441b84c84bdbe00d093dcf19181900360200190a250565b7f00000000000000000000000000000000000000000000000000000000000000006001600160a01b031630141561087157600080fd5b7f00000000000000000000000000000000000000000000000000000000000000006001600160a01b03166108a457600080fd5b60007f00000000000000000000000000000000000000000000000000000000000000006001600160a01b0316634e71d92d6040518163ffffffff1660e01b8152600401602060405180830381600087803b15801561090157600080fd5b505af1158015610915573d6000803e3d6000fd5b505050506040513d602081101561092b57600080fd5b505160408051828152905191925033917fd8138f8a3f377c5259ca548e70e4c2de94f129f5a11036a15b69513cba2b426a9181900360200190a250565b7f00000000000000000000000000000000000000000000000000000000000000006001600160a01b031630141561099e57600080fd5b7f00000000000000000000000000000000000000000000000000000000000000006001600160a01b03166109d157600080fd5b60007f00000000000000000000000000000000000000000000000000000000000000006001600160a01b031663590e1ae36040518163ffffffff1660e01b8152600401602060405180830381600087803b158015610a2e57600080fd5b505af1158015610a42573d6000803e3d6000fd5b505050506040513d6020811015610a5857600080fd5b505160408051828152905191925033917fbb28353e4598c3b9199101a66e0989549b659a59a54d2c27fbb183f1932c8e6d9181900360200190a250565b7f00000000000000000000000000000000000000000000000000000000000000006001600160a01b0316301415610acb57600080fd5b604080516370a0823160e01b8152306004820152905183916001600160a01b037f000000000000000000000000000000000000000000000000000000000000000016916370a0823191602480820192602092909190829003018186803b158015610b3457600080fd5b505afa158015610b48573d6000803e3d6000fd5b505050506040513d6020811015610b5e57600080fd5b50511015610b6b57600080fd5b7f00000000000000000000000000000000000000000000000000000000000000006001600160a01b031663095ea7b37f0000000000000000000000000000000000000000000000000000000000000000846040518363ffffffff1660e01b815260040180836001600160a01b03166001600160a01b0316815260200182815260200192505050602060405180830381600087803b158015610c0b57600080fd5b505af1158015610c1f573d6000803e3d6000fd5b505050506040513d6020811015610c3557600080fd5b50506040805163422b01d360e11b81526004810184905261ffff8316602482015290516001600160a01b037f0000000000000000000000000000000000000000000000000000000000000000169163845603a691604480830192600092919082900301818387803b158015610ca957600080fd5b505af1158015610cbd573d6000803e3d6000fd5b50506040805185815261ffff8516602082015281513394507f2d910f75638edaf008109cddd638334ee8d6a0020e6209243439c8a7a7d493e093509081900390910190a25050565b7f00000000000000000000000000000000000000000000000000000000000000006001600160a01b0316301415610d3b57600080fd5b6040805163437c36ef60e11b81526004810184905261ffff8316602482015290516001600160a01b037f000000000000000000000000000000000000000000000000000000000000000016916386f86dde91604480830192600092919082900301818387803b158015610dad57600080fd5b505af1158015610dc1573d6000803e3d6000fd5b50506040805185815261ffff8516602082015281513394507fb36863dcb8392eea9c1856b7c12e6cdedd4be7ac64a067e71a2e62cb20d69cf293509081900390910190a25050565b7f00000000000000000000000000000000000000000000000000000000000000006001600160a01b0316301415610e3f57600080fd5b7f00000000000000000000000000000000000000000000000000000000000000006001600160a01b0316610e7257600080fd5b7f00000000000000000000000000000000000000000000000000000000000000006001600160a01b03166387a15dc96040518163ffffffff1660e01b8152600401600060405180830381600087803b158015610ecd57600080fd5b505af1158015610ee1573d6000803e3d6000fd5b50506040513392507f1f3c545731eadf66e84bfa3f22265530ac6cde1c211e7a25da70139a06bc39a69150600090a2565b7f00000000000000000000000000000000000000000000000000000000000000006001600160a01b0316301415610f4857600080fd5b7f00000000000000000000000000000000000000000000000000000000000000006001600160a01b0316638c316b90826040518263ffffffff1660e01b815260040180828152602001915050600060405180830381600087803b158015610fae57600080fd5b505af1158015610fc2573d6000803e3d6000fd5b50506040805184815290513393507f6b9024cc1bf5710f290be788dca9886db7a3d9be0df0855bfa991dbf26a256bc92509081900360200190a250565b7f00000000000000000000000000000000000000000000000000000000000000006001600160a01b031630141561103557600080fd5b7f00000000000000000000000000000000000000000000000000000000000000006001600160a01b031661106857600080fd5b7f00000000000000000000000000000000000000000000000000000000000000006001600160a01b0316639435c8876040518163ffffffff1660e01b8152600401600060405180830381600087803b1580156110c357600080fd5b505af11580156110d7573d6000803e3d6000fd5b50506040513392507f7791542f9106a010f289aa1d108168b87d4e2d3d37ed4ecb762391da5e18a45d9150600090a2565b7f00000000000000000000000000000000000000000000000000000000000000006001600160a01b031630141561113e57600080fd5b7f00000000000000000000000000000000000000000000000000000000000000006001600160a01b0316632e1a7d4d826040518263ffffffff1660e01b815260040180828152602001915050600060405180830381600087803b1580156111a457600080fd5b505af11580156111b8573d6000803e3d6000fd5b50506040805184815290513393507fe260c3ea1a7da044fdb8e612a54b70847532f00018c3f751beccd55032f6206492509081900360200190a250565b7f00000000000000000000000000000000000000000000000000000000000000006001600160a01b031630141561122b57600080fd5b60408051639d6f2a0960e01b8152821515600482015290516001600160a01b037f00000000000000000000000000000000000000000000000000000000000000001691639d6f2a0991602480830192600092919082900301818387803b15801561129457600080fd5b505af11580156112a8573d6000803e3d6000fd5b505060408051841515815290513393507f8e551784567ec4bbce5943250eaacd5afe82aef7a9b1dab3f899881f4eae93f092509081900360200190a250565b7f000000000000000000000000000000000000000000000000000000000000000081565b7f000000000000000000000000000000000000000000000000000000000000000081565b7f00000000000000000000000000000000000000000000000000000000000000006001600160a01b031630141561136557600080fd5b6040805163b89f66ed60e01b81526004810184905261ffff8316602482015290516001600160a01b037f0000000000000000000000000000000000000000000000000000000000000000169163b89f66ed91604480830192600092919082900301818387803b1580156113d757600080fd5b505af11580156113eb573d6000803e3d6000fd5b50506040805185815261ffff8516602082015281513394507f62ebcca315263ef68e5cb3f45df2ea126cbc4cf1ed95c878aef0505930e9a10893509081900390910190a25050565b7f00000000000000000000000000000000000000000000000000000000000000006001600160a01b031630141561146957600080fd5b60408051633448ade560e21b8152600481018590526024810184905261ffff8316604482015290516001600160a01b037f0000000000000000000000000000000000000000000000000000000000000000169163d122b79491606480830192600092919082900301818387803b1580156114e257600080fd5b505af11580156114f6573d6000803e3d6000fd5b5050604080518681526020810186905261ffff85168183015290513393507f16f152833a208a80f3b8d50ef0e41c0631c4361ef7d1c4c2404e2672b626342f92509081900360600190a2505050565b7f00000000000000000000000000000000000000000000000000000000000000006001600160a01b031630141561157b57600080fd5b7f00000000000000000000000000000000000000000000000000000000000000006001600160a01b031663dad60676826040518263ffffffff1660e01b815260040180826001600160a01b03166001600160a01b03168152602001915050600060405180830381600087803b1580156115f357600080fd5b505af1158015611607573d6000803e3d6000fd5b5050604080516001600160a01b038516815290513393507f722575ebffe226471b2f7e52a5dccd7afeb6d3403005cf1e42ec2fc473dd613792509081900360200190a250565b7f000000000000000000000000000000000000000000000000000000000000000081565b7f00000000000000000000000000000000000000000000000000000000000000006001600160a01b03163014156116a757600080fd5b6040805163ee53c8fd60e01b815261ffff8316600482015290516001600160a01b037f0000000000000000000000000000000000000000000000000000000000000000169163ee53c8fd91602480830192600092919082900301818387803b15801561171257600080fd5b505af1158015611726573d6000803e3d6000fd5b50506040805161ffff8516815290513393507f290a5b657c05aec4c02fb52b21644f6470bb4c6d37831f2295c247452a20748992509081900360200190a250565b7f00000000000000000000000000000000000000000000000000000000000000008156fea26469706673582212206215903a0aa0cc5f60ae65c4b0eba26df3ad01871d1f4d9af8096622b125fd6764736f6c63430006070033",
  "bytecodeSha1": "beee03093e7230ddda6c5465dbbc94b96ee080c9",
  "compiler": {
    "evm_version": "berlin",
    "optimizer": {
      "enabled": true,
      "runs": 200
    },
    "version": "0.6.7"
  },
  "contractName": "StakingInterface",
  "language": "Solidity",
  "natspec": {
    "details": "All methods must be stateless because this code will be executed by delegatecall call, use immutable fields.|v1.4.2|",
    "methods": {
      "bid(uint256)": {
        "notice": "Bid for tokens by transferring ETH"
      },
      "bondWorker(address)": {
        "notice": "Bond worker in the staking escrow",
        "params": {
          "_worker": "Worker address"
        }
      },
      "cancelBid()": {
        "notice": "Cancel bid and refund deposited ETH"
      },
      "claim()": {
        "notice": "Claimed tokens will be deposited and locked as stake in the StakingEscrow contract"
      },
      "constructor": {
        "params": {
          "_escrow": "Escrow contract",
          "_policyManager": "PolicyManager contract",
          "_token": "Token contract",
          "_workLock": "WorkLock contract"
        }
      },
      "depositAsStaker(uint256,uint16)": {
        "notice": "Deposit tokens to the staking escrow",
        "params": {
          "_periods": "Amount of periods during which tokens will be locked",
          "_value": "Amount of token to deposit"
        }
      },
      "divideStake(uint256,uint256,uint16)": {
        "notice": "Divide stake into two parts",
        "params": {
          "_index": "Index of stake",
          "_newValue": "New stake value",
          "_periods": "Amount of periods for extending stake"
        }
      },
      "lock(uint256,uint16)": {
        "notice": "Lock some tokens or increase lock in the staking escrow",
        "params": {
          "_periods": "Amount of periods during which tokens will be locked",
          "_value": "Amount of tokens which should lock"
        }
      },
      "lockReStake(uint16)": {
        "notice": "Lock `reStake` parameter in the staking escrow",
        "params": {
          "_lockReStakeUntilPeriod": "Can't change `reStake` value until this period"
        }
      },
      "mint()": {
        "notice": "Mint tokens in the staking escrow"
      },
      "prolongStake(uint256,uint16)": {
        "notice": "Prolong active sub stake",
        "params": {
          "_index": "Index of the sub stake",
          "_periods": "Amount of periods for extending sub stake"
        }
      },
      "refund()": {
        "notice": "Refund ETH for the completed work"
      },
      "setMinFeeRate(uint256)": {
        "notice": "Set the minimum fee that the staker will accept in the policy manager contract"
      },
      "setReStake(bool)": {
        "notice": "Set `reStake` parameter in the staking escrow",
        "params": {
          "_reStake": "Value for parameter"
        }
      },
      "setWindDown(bool)": {
        "notice": "Set `windDown` parameter in the staking escrow",
        "params": {
          "_windDown": "Value for parameter"
        }
      },
      "withdrawAsStaker(uint256)": {
        "notice": "Withdraw available amount of tokens from the staking escrow to the staking contract",
        "params": {
          "_value": "Amount of token to withdraw"
        }
      },
      "withdrawCompensation()": {
        "notice": "Withdraw compensation after force refund"
      },
      "withdrawPolicyFee()": {
        "notice": "Withdraw available policy fees from the policy manager to the staking contract"
      }
    },
    "notice": "Interface for accessing main contracts from a staking contract"
  },
  "opcodes": "PUSH1 0x80 PUSH1 0x40 MSTORE PUSH1 0x4 CALLDATASIZE LT PUSH2 0x135 JUMPI PUSH1 0x0 CALLDATALOAD PUSH1 0xE0 SHR DUP1 PUSH4 0x9435C887 GT PUSH2 0xAB JUMPI DUP1 PUSH4 0xB89F66ED GT PUSH2 0x6F JUMPI DUP1 PUSH4 0xB89F66ED EQ PUSH2 0x346 JUMPI DUP1 PUSH4 0xD122B794 EQ PUSH2 0x37A JUMPI DUP1 PUSH4 0xDAD60676 EQ PUSH2 0x3B4 JUMPI DUP1 PUSH4 0xE2FDCC17 EQ PUSH2 0x3E7 JUMPI DUP1 PUSH4 0xEE53C8FD EQ PUSH2 0x3FC JUMPI DUP1 PUSH4 0xFC0C546A EQ PUSH2 0x42A JUMPI PUSH2 0x135 JUMP JUMPDEST DUP1 PUSH4 0x9435C887 EQ PUSH2 0x2B1 JUMPI DUP1 PUSH4 0x9D223D15 EQ PUSH2 0x2C6 JUMPI DUP1 PUSH4 0x9D6F2A09 EQ PUSH2 0x2F0 JUMPI DUP1 PUSH4 0x9D83A8DC EQ PUSH2 0x31C JUMPI DUP1 PUSH4 0xAB3DBF3B EQ PUSH2 0x331 JUMPI PUSH2 0x135 JUMP JUMPDEST DUP1 PUSH4 0x4E71D92D GT PUSH2 0xFD JUMPI DUP1 PUSH4 0x4E71D92D EQ PUSH2 0x1E0 JUMPI DUP1 PUSH4 0x590E1AE3 EQ PUSH2 0x1F5 JUMPI DUP1 PUSH4 0x6294163E EQ PUSH2 0x20A JUMPI DUP1 PUSH4 0x86F86DDE EQ PUSH2 0x23E JUMPI DUP1 PUSH4 0x87A15DC9 EQ PUSH2 0x272 JUMPI DUP1 PUSH4 0x8C316B90 EQ PUSH2 0x287 JUMPI PUSH2 0x135 JUMP JUMPDEST DUP1 PUSH4 0x3A94485 EQ PUSH2 0x13A JUMPI DUP1 PUSH4 0x1249C58B EQ PUSH2 0x168 JUMPI DUP1 PUSH4 0x1C7FD532 EQ PUSH2 0x17D JUMPI DUP1 PUSH4 0x454A2AB3 EQ PUSH2 0x1AE JUMPI DUP1 PUSH4 0x4E62EF1E EQ PUSH2 0x1CB JUMPI JUMPDEST PUSH1 0x0 DUP1 REVERT JUMPDEST CALLVALUE DUP1 ISZERO PUSH2 0x146 JUMPI PUSH1 0x0 DUP1 REVERT JUMPDEST POP PUSH2 0x166 PUSH1 0x4 DUP1 CALLDATASIZE SUB PUSH1 0x20 DUP2 LT ISZERO PUSH2 0x15D JUMPI PUSH1 0x0 DUP1 REVERT JUMPDEST POP CALLDATALOAD ISZERO ISZERO PUSH2 0x43F JUMP JUMPDEST STOP JUMPDEST CALLVALUE DUP1 ISZERO PUSH2 0x174 JUMPI PUSH1 0x0 DUP1 REVERT JUMPDEST POP PUSH2 0x166 PUSH2 0x531 JUMP JUMPDEST CALLVALUE DUP1 ISZERO PUSH2 0x189 JUMPI PUSH1 0x0 DUP1 REVERT JUMPDEST POP PUSH2 0x192 PUSH2 0x607 JUMP JUMPDEST PUSH1 0x40 DUP1 MLOAD PUSH1 0x1 PUSH1 0x1 PUSH1 0xA0 SHL SUB SWAP1 SWAP3 AND DUP3 MSTORE MLOAD SWAP1 DUP2 SWAP1 SUB PUSH1 0x20 ADD SWAP1 RETURN JUMPDEST PUSH2 0x166 PUSH1 0x4 DUP1 CALLDATASIZE SUB PUSH1 0x20 DUP2 LT ISZERO PUSH2 0x1C4 JUMPI PUSH1 0x0 DUP1 REVERT JUMPDEST POP CALLDATALOAD PUSH2 0x62B JUMP JUMPDEST CALLVALUE DUP1 ISZERO PUSH2 0x1D7 JUMPI PUSH1 0x0 DUP1 REVERT JUMPDEST POP PUSH2 0x166 PUSH2 0x741 JUMP JUMPDEST CALLVALUE DUP1 ISZERO PUSH2 0x1EC JUMPI PUSH1 0x0 DUP1 REVERT JUMPDEST POP PUSH2 0x166 PUSH2 0x83B JUMP JUMPDEST CALLVALUE DUP1 ISZERO PUSH2 0x201 JUMPI PUSH1 0x0 DUP1 REVERT JUMPDEST POP PUSH2 0x166 PUSH2 0x968 JUMP JUMPDEST CALLVALUE DUP1 ISZERO PUSH2 0x216 JUMPI PUSH1 0x0 DUP1 REVERT JUMPDEST POP PUSH2 0x166 PUSH1 0x4 DUP1 CALLDATASIZE SUB PUSH1 0x40 DUP2 LT ISZERO PUSH2 0x22D JUMPI PUSH1 0x0 DUP1 REVERT JUMPDEST POP DUP1 CALLDATALOAD SWAP1 PUSH1 0x20 ADD CALLDATALOAD PUSH2 0xFFFF AND PUSH2 0xA95 JUMP JUMPDEST CALLVALUE DUP1 ISZERO PUSH2 0x24A JUMPI PUSH1 0x0 DUP1 REVERT JUMPDEST POP PUSH2 0x166 PUSH1 0x4 DUP1 CALLDATASIZE SUB PUSH1 0x40 DUP2 LT ISZERO PUSH2 0x261 JUMPI PUSH1 0x0 DUP1 REVERT JUMPDEST POP DUP1 CALLDATALOAD SWAP1 PUSH1 0x20 ADD CALLDATALOAD PUSH2 0xFFFF AND PUSH2 0xD05 JUMP JUMPDEST CALLVALUE DUP1 ISZERO PUSH2 0x27E JUMPI PUSH1 0x0 DUP1 REVERT JUMPDEST POP PUSH2 0x166 PUSH2 0xE09 JUMP JUMPDEST CALLVALUE DUP1 ISZERO PUSH2 0x293 JUMPI PUSH1 0x0 DUP1 REVERT JUMPDEST POP PUSH2 0x166 PUSH1 0x4 DUP1 CALLDATASIZE SUB PUSH1 0x20 DUP2 LT ISZERO PUSH2 0x2AA JUMPI PUSH1 0x0 DUP1 REVERT JUMPDEST POP CALLDATALOAD PUSH2 0xF12 JUMP JUMPDEST CALLVALUE DUP1 ISZERO PUSH2 0x2BD JUMPI PUSH1 0x0 DUP1 REVERT JUMPDEST POP PUSH2 0x166 PUSH2 0xFFF JUMP JUMPDEST CALLVALUE DUP1 ISZERO PUSH2 0x2D2 JUMPI PUSH1 0x0 DUP1 REVERT JUMPDEST POP PUSH2 0x166 PUSH1 0x4 DUP1 CALLDATASIZE SUB PUSH1 0x20 DUP2 LT ISZERO PUSH2 0x2E9 JUMPI PUSH1 0x0 DUP1 REVERT JUMPDEST POP CALLDATALOAD PUSH2 0x1108 JUMP JUMPDEST CALLVALUE DUP1 ISZERO PUSH2 0x2FC JUMPI PUSH1 0x0 DUP1 REVERT JUMPDEST POP PUSH2 0x166 PUSH1 0x4 DUP1 CALLDATASIZE SUB PUSH1 0x20 DUP2 LT ISZERO PUSH2 0x313 JUMPI PUSH1 0x0 DUP1 REVERT JUMPDEST POP CALLDATALOAD ISZERO ISZERO PUSH2 0x11F5 JUMP JUMPDEST CALLVALUE DUP1 ISZERO PUSH2 0x328 JUMPI PUSH1 0x0 DUP1 REVERT JUMPDEST POP PUSH2 0x192 PUSH2 0x12E7 JUMP JUMPDEST CALLVALUE DUP1 ISZERO PUSH2 0x33D JUMPI PUSH1 0x0 DUP1 REVERT JUMPDEST POP PUSH2 0x192 PUSH2 0x130B JUMP JUMPDEST CALLVALUE DUP1 ISZERO PUSH2 0x352 JUMPI PUSH1 0x0 DUP1 REVERT JUMPDEST POP PUSH2 0x166 PUSH1 0x4 DUP1 CALLDATASIZE SUB PUSH1 0x40 DUP2 LT ISZERO PUSH2 0x369 JUMPI PUSH1 0x0 DUP1 REVERT JUMPDEST POP DUP1 CALLDATALOAD SWAP1 PUSH1 0x20 ADD CALLDATALOAD PUSH2 0xFFFF AND PUSH2 0x132F JUMP JUMPDEST CALLVALUE DUP1 ISZERO PUSH2 0x386 JUMPI PUSH1 0x0 DUP1 REVERT JUMPDEST POP PUSH2 0x166 PUSH1 0x4 DUP1 CALLDATASIZE SUB PUSH1 0x60 DUP2 LT ISZERO PUSH2 0x39D JUMPI PUSH1 0x0 DUP1 REVERT JUMPDEST POP DUP1 CALLDATALOAD SWAP1 PUSH1 0x20 DUP2 ADD CALLDATALOAD SWAP1 PUSH1 0x40 ADD CALLDATALOAD PUSH2 0xFFFF AND PUSH2 0x1433 JUMP JUMPDEST CALLVALUE DUP1 ISZERO PUSH2 0x3C0 JUMPI PUSH1 0x0 DUP1 REVERT JUMPDEST POP PUSH2 0x166 PUSH1 0x4 DUP1 CALLDATASIZE SUB PUSH1 0x20 DUP2 LT ISZERO PUSH2 0x3D7 JUMPI PUSH1 0x0 DUP1 REVERT JUMPDEST POP CALLDATALOAD PUSH1 0x1 PUSH1 0x1 PUSH1 0xA0 SHL SUB AND PUSH2 0x1545 JUMP JUMPDEST CALLVALUE DUP1 ISZERO PUSH2 0x3F3 JUMPI PUSH1 0x0 DUP1 REVERT JUMPDEST POP PUSH2 0x192 PUSH2 0x164D JUMP JUMPDEST CALLVALUE DUP1 ISZERO PUSH2 0x408 JUMPI PUSH1 0x0 DUP1 REVERT JUMPDEST POP PUSH2 0x166 PUSH1 0x4 DUP1 CALLDATASIZE SUB PUSH1 0x20 DUP2 LT ISZERO PUSH2 0x41F JUMPI PUSH1 0x0 DUP1 REVERT JUMPDEST POP CALLDATALOAD PUSH2 0xFFFF AND PUSH2 0x1671 JUMP JUMPDEST CALLVALUE DUP1 ISZERO PUSH2 0x436 JUMPI PUSH1 0x0 DUP1 REVERT JUMPDEST POP PUSH2 0x192 PUSH2 0x1767 JUMP JUMPDEST PUSH32 0x0 PUSH1 0x1 PUSH1 0x1 PUSH1 0xA0 SHL SUB AND ADDRESS EQ ISZERO PUSH2 0x475 JUMPI PUSH1 0x0 DUP1 REVERT JUMPDEST PUSH1 0x40 DUP1 MLOAD PUSH4 0x3A94485 PUSH1 0xE0 SHL DUP2 MSTORE DUP3 ISZERO ISZERO PUSH1 0x4 DUP3 ADD MSTORE SWAP1 MLOAD PUSH1 0x1 PUSH1 0x1 PUSH1 0xA0 SHL SUB PUSH32 0x0 AND SWAP2 PUSH4 0x3A94485 SWAP2 PUSH1 0x24 DUP1 DUP4 ADD SWAP3 PUSH1 0x0 SWAP3 SWAP2 SWAP1 DUP3 SWAP1 SUB ADD DUP2 DUP4 DUP8 DUP1 EXTCODESIZE ISZERO DUP1 ISZERO PUSH2 0x4DE JUMPI PUSH1 0x0 DUP1 REVERT JUMPDEST POP GAS CALL ISZERO DUP1 ISZERO PUSH2 0x4F2 JUMPI RETURNDATASIZE PUSH1 0x0 DUP1 RETURNDATACOPY RETURNDATASIZE PUSH1 0x0 REVERT JUMPDEST POP POP PUSH1 0x40 DUP1 MLOAD DUP5 ISZERO ISZERO DUP2 MSTORE SWAP1 MLOAD CALLER SWAP4 POP PUSH32 0xCB9D7989E6D845AB7F3F16F57405FB85976D320AA7C3BA2705EDDD52CA09154E SWAP3 POP SWAP1 DUP2 SWAP1 SUB PUSH1 0x20 ADD SWAP1 LOG2 POP JUMP JUMPDEST PUSH32 0x0 PUSH1 0x1 PUSH1 0x1 PUSH1 0xA0 SHL SUB AND ADDRESS EQ ISZERO PUSH2 0x567 JUMPI PUSH1 0x0 DUP1 REVERT JUMPDEST PUSH32 0x0 PUSH1 0x1 PUSH1 0x1 PUSH1 0xA0 SHL SUB AND PUSH4 0x1249C58B PUSH1 0x40 MLOAD DUP2 PUSH4 0xFFFFFFFF AND PUSH1 0xE0 SHL DUP2 MSTORE PUSH1 0x4 ADD PUSH1 0x0 PUSH1 0x40 MLOAD DUP1 DUP4 SUB DUP2 PUSH1 0x0 DUP8 DUP1 EXTCODESIZE ISZERO DUP1 ISZERO PUSH2 0x5C2 JUMPI PUSH1 0x0 DUP1 REVERT JUMPDEST POP GAS CALL ISZERO DUP1 ISZERO PUSH2 0x5D6 JUMPI RETURNDATASIZE PUSH1 0x0 DUP1 RETURNDATACOPY RETURNDATASIZE PUSH1 0x0 REVERT JUMPDEST POP POP PUSH1 0x40 MLOAD CALLER SWAP3 POP PUSH32 0x90DDEDD5A25821BBA11FBB98DE02EC1F75C1BE90AE147D6450CE873E7B78B5D8 SWAP2 POP PUSH1 0x0 SWAP1 LOG2 JUMP JUMPDEST PUSH32 0x0 DUP2 JUMP JUMPDEST PUSH32 0x0 PUSH1 0x1 PUSH1 0x1 PUSH1 0xA0 SHL SUB AND ADDRESS EQ ISZERO PUSH2 0x661 JUMPI PUSH1 0x0 DUP1 REVERT JUMPDEST PUSH32 0x0 PUSH1 0x1 PUSH1 0x1 PUSH1 0xA0 SHL SUB AND PUSH2 0x694 JUMPI PUSH1 0x0 DUP1 REVERT JUMPDEST PUSH32 0x0 PUSH1 0x1 PUSH1 0x1 PUSH1 0xA0 SHL SUB AND PUSH4 0x1998AEEF DUP3 PUSH1 0x40 MLOAD DUP3 PUSH4 0xFFFFFFFF AND PUSH1 0xE0 SHL DUP2 MSTORE PUSH1 0x4 ADD PUSH1 0x0 PUSH1 0x40 MLOAD DUP1 DUP4 SUB DUP2 DUP6 DUP9 DUP1 EXTCODESIZE ISZERO DUP1 ISZERO PUSH2 0x6EF JUMPI PUSH1 0x0 DUP1 REVERT JUMPDEST POP GAS CALL ISZERO DUP1 ISZERO PUSH2 0x703 JUMPI RETURNDATASIZE PUSH1 0x0 DUP1 RETURNDATACOPY RETURNDATASIZE PUSH1 0x0 REVERT JUMPDEST POP POP PUSH1 0x40 DUP1 MLOAD DUP6 DUP2 MSTORE SWAP1 MLOAD CALLER SWAP5 POP PUSH32 0xE684A55F31B79ECA403DF938249029212A5925EC6BE8012E099B45BC1019E5D2 SWAP4 POP SWAP1 DUP2 SWAP1 SUB PUSH1 0x20 ADD SWAP2 POP LOG2 POP JUMP JUMPDEST PUSH32 0x0 PUSH1 0x1 PUSH1 0x1 PUSH1 0xA0 SHL SUB AND ADDRESS EQ ISZERO PUSH2 0x777 JUMPI PUSH1 0x0 DUP1 REVERT JUMPDEST PUSH1 0x0 PUSH32 0x0 PUSH1 0x1 PUSH1 0x1 PUSH1 0xA0 SHL SUB AND PUSH4 0x3CCFD60B PUSH1 0x40 MLOAD DUP2 PUSH4 0xFFFFFFFF AND PUSH1 0xE0 SHL DUP2 MSTORE PUSH1 0x4 ADD PUSH1 0x20 PUSH1 0x40 MLOAD DUP1 DUP4 SUB DUP2 PUSH1 0x0 DUP8 DUP1 EXTCODESIZE ISZERO DUP1 ISZERO PUSH2 0x7D4 JUMPI PUSH1 0x0 DUP1 REVERT JUMPDEST POP GAS CALL ISZERO DUP1 ISZERO PUSH2 0x7E8 JUMPI RETURNDATASIZE PUSH1 0x0 DUP1 RETURNDATACOPY RETURNDATASIZE PUSH1 0x0 REVERT JUMPDEST POP POP POP POP PUSH1 0x40 MLOAD RETURNDATASIZE PUSH1 0x20 DUP2 LT ISZERO PUSH2 0x7FE JUMPI PUSH1 0x0 DUP1 REVERT JUMPDEST POP MLOAD PUSH1 0x40 DUP1 MLOAD DUP3 DUP2 MSTORE SWAP1 MLOAD SWAP2 SWAP3 POP CALLER SWAP2 PUSH32 0x3E0AF9DB9C08380520DC2592809E7281D3AEDC8E7441B84C84BDBE00D093DCF1 SWAP2 DUP2 SWAP1 SUB PUSH1 0x20 ADD SWAP1 LOG2 POP JUMP JUMPDEST PUSH32 0x0 PUSH1 0x1 PUSH1 0x1 PUSH1 0xA0 SHL SUB AND ADDRESS EQ ISZERO PUSH2 0x871 JUMPI PUSH1 0x0 DUP1 REVERT JUMPDEST PUSH32 0x0 PUSH1 0x1 PUSH1 0x1 PUSH1 0xA0 SHL SUB AND PUSH2 0x8A4 JUMPI PUSH1 0x0 DUP1 REVERT JUMPDEST PUSH1 0x0 PUSH32 0x0 PUSH1 0x1 PUSH1 0x1 PUSH1 0xA0 SHL SUB AND PUSH4 0x4E71D92D PUSH1 0x40 MLOAD DUP2 PUSH4 0xFFFFFFFF AND PUSH1 0xE0 SHL DUP2 MSTORE PUSH1 0x4 ADD PUSH1 0x20 PUSH1 0x40 MLOAD DUP1 DUP4 SUB DUP2 PUSH1 0x0 DUP8 DUP1 EXTCODESIZE ISZERO DUP1 ISZERO PUSH2 0x901 JUMPI PUSH1 0x0 DUP1 REVERT JUMPDEST POP GAS CALL ISZERO DUP1 ISZERO PUSH2 0x915 JUMPI RETURNDATASIZE PUSH1 0x0 DUP1 RETURNDATACOPY RETURNDATASIZE PUSH1 0x0 REVERT JUMPDEST POP POP POP POP PUSH1 0x40 MLOAD RETURNDATASIZE PUSH1 0x20 DUP2 LT ISZERO PUSH2 0x92B JUMPI PUSH1 0x0 DUP1 REVERT JUMPDEST POP MLOAD PUSH1 0x40 DUP1 MLOAD DUP3 DUP2 MSTORE SWAP1 MLOAD SWAP2 SWAP3 POP CALLER SWAP2 PUSH32 0xD8138F8A3F377C5259CA548E70E4C2DE94F129F5A11036A15B69513CBA2B426A SWAP2 DUP2 SWAP1 SUB PUSH1 0x20 ADD SWAP1 LOG2 POP JUMP JUMPDEST PUSH32 0x0 PUSH1 0x1 PUSH1 0x1 PUSH1 0xA0 SHL SUB AND ADDRESS EQ ISZERO PUSH2 0x99E JUMPI PUSH1 0x0 DUP1 REVERT JUMPDEST PUSH32 0x0 PUSH1 0x1 PUSH1 0x1 PUSH1 0xA0 SHL SUB AND PUSH2 0x9D1 JUMPI PUSH1 0x0 DUP1 REVERT JUMPDEST PUSH1 0x0 PUSH32 0x0 PUSH1 0x1 PUSH1 0x1 PUSH1 0xA0 SHL SUB AND PUSH4 0x590E1AE3 PUSH1 0x40 MLOAD DUP2 PUSH4 0xFFFFFFFF AND PUSH1 0xE0 SHL DUP2 MSTORE PUSH1 0x4 ADD PUSH1 0x20 PUSH1 0x40 MLOAD DUP1 DUP4 SUB DUP2 PUSH1 0x0 DUP8 DUP1 EXTCODESIZE ISZERO DUP1 ISZERO PUSH2 0xA2E JUMPI PUSH1 0x0 DUP1 REVERT JUMPDEST POP GAS CALL ISZERO DUP1 ISZERO PUSH2 0xA42 JUMPI RETURNDATASIZE PUSH1 0x0 DUP1 RETURNDATACOPY RETURNDATASIZE PUSH1 0x0 REVERT JUMPDEST POP POP POP POP PUSH1 0x40 MLOAD RETURNDATASIZE PUSH1 0x20 DUP2 LT ISZERO PUSH2 0xA58 JUMPI PUSH1 0x0 DUP1 REVERT JUMPDEST POP MLOAD PUSH1 0x40 DUP1 MLOAD DUP3 DUP2 MSTORE SWAP1 MLOAD SWAP2 SWAP3 POP CALLER SWAP2 PUSH32 0xBB28353E4598C3B9199101A66E0989549B659A59A54D2C27FBB183F1932C8E6D SWAP2 DUP2 SWAP1 SUB PUSH1 0x20 ADD SWAP1 LOG2 POP JUMP JUMPDEST PUSH32 0x0 PUSH1 0x1 PUSH1 0x1 PUSH1 0xA0 SHL SUB AND ADDRESS EQ ISZERO PUSH2 0xACB JUMPI PUSH1 0x0 DUP1 REVERT JUMPDEST PUSH1 0x40 DUP1 MLOAD PUSH4 0x70A08231 PUSH1 0xE0 SHL DUP2 MSTORE ADDRESS PUSH1 0x4 DUP3 ADD MSTORE SWAP1 MLOAD DUP4 SWAP2 PUSH1 0x1 PUSH1 0x1 PUSH1 0xA0 SHL SUB PUSH32 0x0 AND SWAP2 PUSH4 0x70A08231 SWAP2 PUSH1 0x24 DUP1 DUP3 ADD SWAP3 PUSH1 0x20 SWAP3 SWAP1 SWAP2 SWAP1 DUP3 SWAP1 SUB ADD DUP2 DUP7 DUP1 EXTCODESIZE ISZERO DUP1 ISZERO PUSH2 0xB34 JUMPI PUSH1 0x0 DUP1 REVERT JUMPDEST POP GAS STATICCALL ISZERO DUP1 ISZERO PUSH2 0xB48 JUMPI RETURNDATASIZE PUSH1 0x0 DUP1 RETURNDATACOPY RETURNDATASIZE PUSH1 0x0 REVERT JUMPDEST POP POP POP POP PUSH1 0x40 MLOAD RETURNDATASIZE PUSH1 0x20 DUP2 LT ISZERO PUSH2 0xB5E JUMPI PUSH1 0x0 DUP1 REVERT JUMPDEST POP MLOAD LT ISZERO PUSH2 0xB6B JUMPI PUSH1 0x0 DUP1 REVERT JUMPDEST PUSH32 0x0 PUSH1 0x1 PUSH1 0x1 PUSH1 0xA0 SHL SUB AND PUSH4 0x95EA7B3 PUSH32 0x0 DUP5 PUSH1 0x40 MLOAD DUP4 PUSH4 0xFFFFFFFF AND PUSH1 0xE0 SHL DUP2 MSTORE PUSH1 0x4 ADD DUP1 DUP4 PUSH1 0x1 PUSH1 0x1 PUSH1 0xA0 SHL SUB AND PUSH1 0x1 PUSH1 0x1 PUSH1 0xA0 SHL SUB AND DUP2 MSTORE PUSH1 0x20 ADD DUP3 DUP2 MSTORE PUSH1 0x20 ADD SWAP3 POP POP POP PUSH1 0x20 PUSH1 0x40 MLOAD DUP1 DUP4 SUB DUP2 PUSH1 0x0 DUP8 DUP1 EXTCODESIZE ISZERO DUP1 ISZERO PUSH2 0xC0B JUMPI PUSH1 0x0 DUP1 REVERT JUMPDEST POP GAS CALL ISZERO DUP1 ISZERO PUSH2 0xC1F JUMPI RETURNDATASIZE PUSH1 0x0 DUP1 RETURNDATACOPY RETURNDATASIZE PUSH1 0x0 REVERT JUMPDEST POP POP POP POP PUSH1 0x40 MLOAD RETURNDATASIZE PUSH1 0x20 DUP2 LT ISZERO PUSH2 0xC35 JUMPI PUSH1 0x0 DUP1 REVERT JUMPDEST POP POP PUSH1 0x40 DUP1 MLOAD PUSH4 0x422B01D3 PUSH1 0xE1 SHL DUP2 MSTORE PUSH1 0x4 DUP2 ADD DUP5 SWAP1 MSTORE PUSH2 0xFFFF DUP4 AND PUSH1 0x24 DUP3 ADD MSTORE SWAP1 MLOAD PUSH1 0x1 PUSH1 0x1 PUSH1 0xA0 SHL SUB PUSH32 0x0 AND SWAP2 PUSH4 0x845603A6 SWAP2 PUSH1 0x44 DUP1 DUP4 ADD SWAP3 PUSH1 0x0 SWAP3 SWAP2 SWAP1 DUP3 SWAP1 SUB ADD DUP2 DUP4 DUP8 DUP1 EXTCODESIZE ISZERO DUP1 ISZERO PUSH2 0xCA9 JUMPI PUSH1 0x0 DUP1 REVERT JUMPDEST POP GAS CALL ISZERO DUP1 ISZERO PUSH2 0xCBD JUMPI RETURNDATASIZE PUSH1 0x0 DUP1 RETURNDATACOPY RETURNDATASIZE PUSH1 0x0 REVERT JUMPDEST POP POP PUSH1 0x40 DUP1 MLOAD DUP6 DUP2 MSTORE PUSH2 0xFFFF DUP6 AND PUSH1 0x20 DUP3 ADD MSTORE DUP2 MLOAD CALLER SWAP5 POP PUSH32 0x2D910F75638EDAF008109CDDD638334EE8D6A0020E6209243439C8A7A7D493E0 SWAP4 POP SWAP1 DUP2 SWAP1 SUB SWAP1 SWAP2 ADD SWAP1 LOG2 POP POP JUMP JUMPDEST PUSH32 0x0 PUSH1 0x1 PUSH1 0x1 PUSH1 0xA0 SHL SUB AND ADDRESS EQ ISZERO PUSH2 0xD3B JUMPI PUSH1 0x0 DUP1 REVERT JUMPDEST PUSH1 0x40 DUP1 MLOAD PUSH4 0x437C36EF PUSH1 0xE1 SHL DUP2 MSTORE PUSH1 0x4 DUP2 ADD DUP5 SWAP1 MSTORE PUSH2 0xFFFF DUP4 AND PUSH1 0x24 DUP3 ADD MSTORE SWAP1 MLOAD PUSH1 0x1 PUSH1 0x1 PUSH1 0xA0 SHL SUB PUSH32 0x0 AND SWAP2 PUSH4 0x86F86DDE SWAP2 PUSH1 0x44 DUP1 DUP4 ADD SWAP3 PUSH1 0x0 SWAP3 SWAP2 SWAP1 DUP3 SWAP1 SUB ADD DUP2 DUP4 DUP8 DUP1 EXTCODESIZE ISZERO DUP1 ISZERO PUSH2 0xDAD JUMPI PUSH1 0x0 DUP1 REVERT JUMPDEST POP GAS CALL ISZERO DUP1 ISZERO PUSH2 0xDC1 JUMPI RETURNDATASIZE PUSH1 0x0 DUP1 RETURNDATACOPY RETURNDATASIZE PUSH1 0x0 REVERT JUMPDEST POP POP PUSH1 0x40 DUP1 MLOAD DUP6 DUP2 MSTORE PUSH2 0xFFFF DUP6 AND PUSH1 0x20 DUP3 ADD MSTORE DUP2 MLOAD CALLER SWAP5 POP PUSH32 0xB36863DCB8392EEA9C1856B7C12E6CDEDD4BE7AC64A067E71A2E62CB20D69CF2 SWAP4 POP SWAP1 DUP2 SWAP1 SUB SWAP1 SWAP2 ADD SWAP1 LOG2 POP POP JUMP JUMPDEST PUSH32 0x0 PUSH1 0x1 PUSH1 0x1 PUSH1 0xA0 SHL SUB AND ADDRESS EQ ISZERO PUSH2 0xE3F JUMPI PUSH1 0x0 DUP1 REVERT JUMPDEST PUSH32 0x0 PUSH1 0x1 PUSH1 0x1 PUSH1 0xA0 SHL SUB AND PUSH2 0xE72 JUMPI PUSH1 0x0 DUP1 REVERT JUMPDEST PUSH32 0x0 PUSH1 0x1 PUSH1 0x1 PUSH1 0xA0 SHL SUB AND PUSH4 0x87A15DC9 PUSH1 0x40 MLOAD DUP2 PUSH4 0xFFFFFFFF AND PUSH1 0xE0 SHL DUP2 MSTORE PUSH1 0x4 ADD PUSH1 0x0 PUSH1 0x40 MLOAD DUP1 DUP4 SUB DUP2 PUSH1 0x0 DUP8 DUP1 EXTCODESIZE ISZERO DUP1 ISZERO PUSH2 0xECD JUMPI PUSH1 0x0 DUP1 REVERT JUMPDEST POP GAS CALL ISZERO DUP1 ISZERO PUSH2 0xEE1 JUMPI RETURNDATASIZE PUSH1 0x0 DUP1 RETURNDATACOPY RETURNDATASIZE PUSH1 0x0 REVERT JUMPDEST POP POP PUSH1 0x40 MLOAD CALLER SWAP3 POP PUSH32 0x1F3C545731EADF66E84BFA3F22265530AC6CDE1C211E7A25DA70139A06BC39A6 SWAP2 POP PUSH1 0x0 SWAP1 LOG2 JUMP JUMPDEST PUSH32 0x0 PUSH1 0x1 PUSH1 0x1 PUSH1 0xA0 SHL SUB AND ADDRESS EQ ISZERO PUSH2 0xF48 JUMPI PUSH1 0x0 DUP1 REVERT JUMPDEST PUSH32 0x0 PUSH1 0x1 PUSH1 0x1 PUSH1 0xA0 SHL SUB AND PUSH4 0x8C316B90 DUP3 PUSH1 0x40 MLOAD DUP3 PUSH4 0xFFFFFFFF AND PUSH1 0xE0 SHL DUP2 MSTORE PUSH1 0x4 ADD DUP1 DUP3 DUP2 MSTORE PUSH1 0x20 ADD SWAP2 POP POP PUSH1 0x0 PUSH1 0x40 MLOAD DUP1 DUP4 SUB DUP2 PUSH1 0x0 DUP8 DUP1 EXTCODESIZE ISZERO DUP1 ISZERO PUSH2 0xFAE JUMPI PUSH1 0x0 DUP1 REVERT JUMPDEST POP GAS CALL ISZERO DUP1 ISZERO PUSH2 0xFC2 JUMPI RETURNDATASIZE PUSH1 0x0 DUP1 RETURNDATACOPY RETURNDATASIZE PUSH1 0x0 REVERT JUMPDEST POP POP PUSH1 0x40 DUP1 MLOAD DUP5 DUP2 MSTORE SWAP1 MLOAD CALLER SWAP4 POP PUSH32 0x6B9024CC1BF5710F290BE788DCA9886DB7A3D9BE0DF0855BFA991DBF26A256BC SWAP3 POP SWAP1 DUP2 SWAP1 SUB PUSH1 0x20 ADD SWAP1 LOG2 POP JUMP JUMPDEST PUSH32 0x0 PUSH1 0x1 PUSH1 0x1 PUSH1 0xA0 SHL SUB AND ADDRESS EQ ISZERO PUSH2 0x1035 JUMPI PUSH1 0x0 DUP1 REVERT JUMPDEST PUSH32 0x0 PUSH1 0x1 PUSH1 0x1 PUSH1 0xA0 SHL SUB AND PUSH2 0x1068 JUMPI PUSH1 0x0 DUP1 REVERT JUMPDEST PUSH32 0x0 PUSH1 0x1 PUSH1 0x1 PUSH1 0xA0 SHL SUB AND PUSH4 0x9435C887 PUSH1 0x40 MLOAD DUP2 PUSH4 0xFFFFFFFF AND PUSH1 0xE0 SHL DUP2 MSTORE PUSH1 0x4 ADD PUSH1 0x0 PUSH1 0x40 MLOAD DUP1 DUP4 SUB DUP2 PUSH1 0x0 DUP8 DUP1 EXTCODESIZE ISZERO DUP1 ISZERO PUSH2 0x10C3 JUMPI PUSH1 0x0 DUP1 REVERT JUMPDEST POP GAS CALL ISZERO DUP1 ISZERO PUSH2 0x10D7 JUMPI RETURNDATASIZE PUSH1 0x0 DUP1 RETURNDATACOPY RETURNDATASIZE PUSH1 0x0 REVERT JUMPDEST POP POP PUSH1 0x40 MLOAD CALLER SWAP3 POP PUSH32 0x7791542F9106A010F289AA1D108168B87D4E2D3D37ED4ECB762391DA5E18A45D SWAP2 POP PUSH1 0x0 SWAP1 LOG2 JUMP JUMPDEST PUSH32 0x0 PUSH1 0x1 PUSH1 0x1 PUSH1 0xA0 SHL SUB AND ADDRESS EQ ISZERO PUSH2 0x113E JUMPI PUSH1 0x0 DUP1 REVERT JUMPDEST PUSH32 0x0 PUSH1 0x1 PUSH1 0x1 PUSH1 0xA0 SHL SUB AND PUSH4 0x2E1A7D4D DUP3 PUSH1 0x40 MLOAD DUP3 PUSH4 0xFFFFFFFF AND PUSH1 0xE0 SHL DUP2 MSTORE PUSH1 0x4 ADD DUP1 DUP3 DUP2 MSTORE PUSH1 0x20 ADD SWAP2 POP POP PUSH1 0x0 PUSH1 0x40 MLOAD DUP1 DUP4 SUB DUP2 PUSH1 0x0 DUP8 DUP1 EXTCODESIZE ISZERO DUP1 ISZERO PUSH2 0x11A4 JUMPI PUSH1 0x0 DUP1 REVERT JUMPDEST POP GAS CALL ISZERO DUP1 ISZERO PUSH2 0x11B8 JUMPI RETURNDATASIZE PUSH1 0x0 DUP1 RETURNDATACOPY RETURNDATASIZE PUSH1 0x0 REVERT JUMPDEST POP POP PUSH1 0x40 DUP1 MLOAD DUP5 DUP2 MSTORE SWAP1 MLOAD CALLER SWAP4 POP PUSH32 0xE260C3EA1A7DA044FDB8E612A54B70847532F00018C3F751BECCD55032F62064 SWAP3 POP SWAP1 DUP2 SWAP1 SUB PUSH1 0x20 ADD SWAP1 LOG2 POP JUMP JUMPDEST PUSH32 0x0 PUSH1 0x1 PUSH1 0x1 PUSH1 0xA0 SHL SUB AND ADDRESS EQ ISZERO PUSH2 0x122B JUMPI PUSH1 0x0 DUP1 REVERT JUMPDEST PUSH1 0x40 DUP1 MLOAD PUSH4 0x9D6F2A09 PUSH1 0xE0 SHL DUP2 MSTORE DUP3 ISZERO ISZERO PUSH1 0x4 DUP3 ADD MSTORE SWAP1 MLOAD PUSH1 0x1 PUSH1 0x1 PUSH1 0xA0 SHL SUB PUSH32 0x0 AND SWAP2 PUSH4 0x9D6F2A09 SWAP2 PUSH1 0x24 DUP1 DUP4 ADD SWAP3 PUSH1 0x0 SWAP3 SWAP2 SWAP1 DUP3 SWAP1 SUB ADD DUP2 DUP4 DUP8 DUP1 EXTCODESIZE ISZERO DUP1 ISZERO PUSH2 0x1294 JUMPI PUSH1 0x0 DUP1 REVERT JUMPDEST POP GAS CALL ISZERO DUP1 ISZERO PUSH2 0x12A8 JUMPI RETURNDATASIZE PUSH1 0x0 DUP1 RETURNDATACOPY RETURNDATASIZE PUSH1 0x0 REVERT JUMPDEST POP POP PUSH1 0x40 DUP1 MLOAD DUP5 ISZERO ISZERO DUP2 MSTORE SWAP1 MLOAD CALLER SWAP4 POP PUSH32 0x8E551784567EC4BBCE5943250EAACD5AFE82AEF7A9B1DAB3F899881F4EAE93F0 SWAP3 POP SWAP1 DUP2 SWAP1 SUB PUSH1 0x20 ADD SWAP1 LOG2 POP JUMP JUMPDEST PUSH32 0x0 DUP2 JUMP JUMPDEST PUSH32 0x0 DUP2 JUMP JUMPDEST PUSH32 0x0 PUSH1 0x1 PUSH1 0x1 PUSH1 0xA0 SHL SUB AND ADDRESS EQ ISZERO PUSH2 0x1365 JUMPI PUSH1 0x0 DUP1 REVERT JUMPDEST PUSH1 0x40 DUP1 MLOAD PUSH4 0xB89F66ED PUSH1 0xE0 SHL DUP2 MSTORE PUSH1 0x4 DUP2 ADD DUP5 SWAP1 MSTORE PUSH2 0xFFFF DUP4 AND PUSH1 0x24 DUP3 ADD MSTORE SWAP1 MLOAD PUSH1 0x1 PUSH1 0x1 PUSH1 0xA0 SHL SUB PUSH32 0x0 AND SWAP2 PUSH4 0xB89F66ED SWAP2 PUSH1 0x44 DUP1 DUP4 ADD SWAP3 PUSH1 0x0 SWAP3 SWAP2 SWAP1 DUP3 SWAP1 SUB ADD DUP2 DUP4 DUP8 DUP1 EXTCODESIZE ISZERO DUP1 ISZERO PUSH2 0x13D7 JUMPI PUSH1 0x0 DUP1 REVERT JUMPDEST POP GAS CALL ISZERO DUP1 ISZERO PUSH2 0x13EB JUMPI RETURNDATASIZE PUSH1 0x0 DUP1 RETURNDATACOPY RETURNDATASIZE PUSH1 0x0 REVERT JUMPDEST POP POP PUSH1 0x40 DUP1 MLOAD DUP6 DUP2 MSTORE PUSH2 0xFFFF DUP6 AND PUSH1 0x20 DUP3 ADD MSTORE DUP2 MLOAD CALLER SWAP5 POP PUSH32 0x62EBCCA315263EF68E5CB3F45DF2EA126CBC4CF1ED95C878AEF0505930E9A108 SWAP4 POP SWAP1 DUP2 SWAP1 SUB SWAP1 SWAP2 ADD SWAP1 LOG2 POP POP JUMP JUMPDEST PUSH32 0x0 PUSH1 0x1 PUSH1 0x1 PUSH1 0xA0 SHL SUB AND ADDRESS EQ ISZERO PUSH2 0x1469 JUMPI PUSH1 0x0 DUP1 REVERT JUMPDEST PUSH1 0x40 DUP1 MLOAD PUSH4 0x3448ADE5 PUSH1 0xE2 SHL DUP2 MSTORE PUSH1 0x4 DUP2 ADD DUP6 SWAP1 MSTORE PUSH1 0x24 DUP2 ADD DUP5 SWAP1 MSTORE PUSH2 0xFFFF DUP4 AND PUSH1 0x44 DUP3 ADD MSTORE SWAP1 MLOAD PUSH1 0x1 PUSH1 0x1 PUSH1 0xA0 SHL SUB PUSH32 0x0 AND SWAP2 PUSH4 0xD122B794 SWAP2 PUSH1 0x64 DUP1 DUP4 ADD SWAP3 PUSH1 0x0 SWAP3 SWAP2 SWAP1 DUP3 SWAP1 SUB ADD DUP2 DUP4 DUP8 DUP1 EXTCODESIZE ISZERO DUP1 ISZERO PUSH2 0x14E2 JUMPI PUSH1 0x0 DUP1 REVERT JUMPDEST POP GAS CALL ISZERO DUP1 ISZERO PUSH2 0x14F6 JUMPI RETURNDATASIZE PUSH1 0x0 DUP1 RETURNDATACOPY RETURNDATASIZE PUSH1 0x0 REVERT JUMPDEST POP POP PUSH1 0x40 DUP1 MLOAD DUP7 DUP2 MSTORE PUSH1 0x20 DUP2 ADD DUP7 SWAP1 MSTORE PUSH2 0xFFFF DUP6 AND DUP2 DUP4 ADD MSTORE SWAP1 MLOAD CALLER SWAP4 POP PUSH32 0x16F152833A208A80F3B8D50EF0E41C0631C4361EF7D1C4C2404E2672B626342F SWAP3 POP SWAP1 DUP2 SWAP1 SUB PUSH1 0x60 ADD SWAP1 LOG2 POP POP POP JUMP JUMPDEST PUSH32 0x0 PUSH1 0x1 PUSH1 0x1 PUSH1 0xA0 SHL SUB AND ADDRESS EQ ISZERO PUSH2 0x157B JUMPI PUSH1 0x0 DUP1 REVERT JUMPDEST PUSH32 0x0 PUSH1 0x1 PUSH1 0x1 PUSH1 0xA0 SHL SUB AND PUSH4 0xDAD60676 DUP3 PUSH1 0x40 MLOAD DUP3 PUSH4 0xFFFFFFFF AND PUSH1 0xE0 SHL DUP2 MSTORE PUSH1 0x4 ADD DUP1 DUP3 PUSH1 0x1 PUSH1 0x1 PUSH1 0xA0 SHL SUB AND PUSH1 0x1 PUSH1 0x1 PUSH1 0xA0 SHL SUB AND DUP2 MSTORE PUSH1 0x20 ADD SWAP2 POP POP PUSH1 0x0 PUSH1 0x40 MLOAD DUP1 DUP4 SUB DUP2 PUSH1 0x0 DUP8 DUP1 EXTCODESIZE ISZERO DUP1 ISZERO PUSH2 0x15F3 JUMPI PUSH1 0x0 DUP1 REVERT JUMPDEST POP GAS CALL ISZERO DUP1 ISZERO PUSH2 0x1607 JUMPI RETURNDATASIZE PUSH1 0x0 DUP1 RETURNDATACOPY RETURNDATASIZE PUSH1 0x0 REVERT JUMPDEST POP POP PUSH1 0x40 DUP1 MLOAD PUSH1 0x1 PUSH1 0x1 PUSH1 0xA0 SHL SUB DUP6 AND DUP2 MSTORE SWAP1 MLOAD CALLER SWAP4 POP PUSH32 0x722575EBFFE226471B2F7E52A5DCCD7AFEB6D3403005CF1E42EC2FC473DD6137 SWAP3 POP SWAP1 DUP2 SWAP1 SUB PUSH1 0x20 ADD SWAP1 LOG2 POP JUMP JUMPDEST PUSH32 0x0 DUP2 JUMP JUMPDEST PUSH32 0x0 PUSH1 0x1 PUSH1 0x1 PUSH1 0xA0 SHL SUB AND ADDRESS EQ ISZERO PUSH2 0x16A7 JUMPI PUSH1 0x0 DUP1 REVERT JUMPDEST PUSH1 0x40 DUP1 MLOAD PUSH4 0xEE53C8FD PUSH1 0xE0 SHL DUP2 MSTORE PUSH2 0xFFFF DUP4 AND PUSH1 0x4 DUP3 ADD MSTORE SWAP1 MLOAD PUSH1 0x1 PUSH1 0x1 PUSH1 0xA0 SHL SUB PUSH32 0x0 AND SWAP2 PUSH4 0xEE53C8FD SWAP2 PUSH1 0x24 DUP1 DUP4 ADD SWAP3 PUSH1 0x0 SWAP3 SWAP2 SWAP1 DUP3 SWAP1 SUB ADD DUP2 DUP4 DUP8 DUP1 EXTCODESIZE ISZERO DUP1 ISZERO PUSH2 0x1712 JUMPI PUSH1 0x0 DUP1 REVERT JUMPDEST POP GAS CALL ISZERO DUP1 ISZERO PUSH2 0x1726 JUMPI RETURNDATASIZE PUSH1 0x0 DUP1 RETURNDATACOPY RETURNDATASIZE PUSH1 0x0 REVERT JUMPDEST POP POP PUSH1 0x40 DUP1 MLOAD PUSH2 0xFFFF DUP6 AND DUP2 MSTORE SWAP1 MLOAD CALLER SWAP4 POP PUSH32 0x290A5B657C05AEC4C02FB52B21644F6470BB4C6D37831F2295C247452A207489 SWAP3 POP SWAP1 DUP2 SWAP1 SUB PUSH1 0x20 ADD SWAP1 LOG2 POP JUMP JUMPDEST PUSH32 0x0 DUP2 JUMP INVALID LOG2 PUSH5 0x6970667358 0x22 SLT KECCAK256 PUSH3 0x15903A EXP LOG0 0xCC 0x5F PUSH1 0xAE PUSH6 0xC4B0EBA26DF3 0xAD ADD DUP8 SAR 0x1F 0x4D SWAP11 0xF8 MULMOD PUSH7 0x22B125FD676473 PUSH16 0x6C634300060700330000000000000000 ",
  "sha1": "1bb88e311f8d39e2f3c36968ba3390761f2e82f2",
  "source": "pragma solidity ^0.6.5;\n\n\nimport \"nucypher/staking_contracts/AbstractStakingContract.sol\";\nimport \"nucypher/NuCypherToken.sol\";\nimport \"nucypher/StakingEscrow.sol\";\nimport \"nucypher/PolicyManager.sol\";\nimport \"nucypher/WorkLock.sol\";\n\n\n/**\n* @notice Base StakingInterface\n*/\ncontract BaseStakingInterface {\n\n    address public immutable stakingInterfaceAddress;\n    NuCypherToken public immutable token;\n    StakingEscrow public immutable escrow;\n    PolicyManager public immutable policyManager;\n    WorkLock public immutable workLock;\n\n    /**\n    * @notice Constructor sets addresses of the contracts\n    * @param _token Token contract\n    * @param _escrow Escrow contract\n    * @param _policyManager PolicyManager contract\n    * @param _workLock WorkLock contract\n    */\n    constructor(\n        NuCypherToken _token,\n        StakingEscrow _escrow,\n        PolicyManager _policyManager,\n        WorkLock _workLock\n    )\n        public\n    {\n        require(_token.totalSupply() > 0 &&\n            _escrow.secondsPerPeriod() > 0 &&\n            _policyManager.secondsPerPeriod() > 0 &&\n            // in case there is no worklock contract\n            (address(_workLock) == address(0) || _workLock.boostingRefund() > 0));\n        token = _token;\n        escrow = _escrow;\n        policyManager = _policyManager;\n        workLock = _workLock;\n        stakingInterfaceAddress = address(this);\n    }\n\n    /**\n    * @dev Checks executing through delegate call\n    */\n    modifier onlyDelegateCall()\n    {\n        require(stakingInterfaceAddress != address(this));\n        _;\n    }\n\n    /**\n    * @dev Checks the existence of the worklock contract\n    */\n    modifier workLockSet()\n    {\n        require(address(workLock) != address(0));\n        _;\n    }\n\n}\n\n\n/**\n* @notice Interface for accessing main contracts from a staking contract\n* @dev All methods must be stateless because this code will be executed by delegatecall call, use immutable fields.\n* @dev |v1.4.2|\n*/\ncontract StakingInterface is BaseStakingInterface {\n\n    event DepositedAsStaker(address indexed sender, uint256 value, uint16 periods);\n    event WithdrawnAsStaker(address indexed sender, uint256 value);\n    event Locked(address indexed sender, uint256 value, uint16 periods);\n    event Divided(address indexed sender, uint256 index, uint256 newValue, uint16 periods);\n    event Minted(address indexed sender);\n    event PolicyFeeWithdrawn(address indexed sender, uint256 value);\n    event MinFeeRateSet(address indexed sender, uint256 value);\n    event ReStakeSet(address indexed sender, bool reStake);\n    event ReStakeLocked(address indexed sender, uint16 lockUntilPeriod);\n    event WorkerBonded(address indexed sender, address worker);\n    event Prolonged(address indexed sender, uint256 index, uint16 periods);\n    event WindDownSet(address indexed sender, bool windDown);\n    event Bid(address indexed sender, uint256 depositedETH);\n    event Claimed(address indexed sender, uint256 claimedTokens);\n    event Refund(address indexed sender, uint256 refundETH);\n    event BidCanceled(address indexed sender);\n    event CompensationWithdrawn(address indexed sender);\n\n    /**\n    * @notice Constructor sets addresses of the contracts\n    * @param _token Token contract\n    * @param _escrow Escrow contract\n    * @param _policyManager PolicyManager contract\n    * @param _workLock WorkLock contract\n    */\n    constructor(\n        NuCypherToken _token,\n        StakingEscrow _escrow,\n        PolicyManager _policyManager,\n        WorkLock _workLock\n    )\n        public BaseStakingInterface(_token, _escrow, _policyManager, _workLock)\n    {\n    }\n\n    /**\n    * @notice Bond worker in the staking escrow\n    * @param _worker Worker address\n    */\n    function bondWorker(address _worker) public onlyDelegateCall {\n        escrow.bondWorker(_worker);\n        emit WorkerBonded(msg.sender, _worker);\n    }\n\n    /**\n    * @notice Set `reStake` parameter in the staking escrow\n    * @param _reStake Value for parameter\n    */\n    function setReStake(bool _reStake) public onlyDelegateCall {\n        escrow.setReStake(_reStake);\n        emit ReStakeSet(msg.sender, _reStake);\n    }\n\n    /**\n    * @notice Lock `reStake` parameter in the staking escrow\n    * @param _lockReStakeUntilPeriod Can't change `reStake` value until this period\n    */\n    function lockReStake(uint16 _lockReStakeUntilPeriod) public onlyDelegateCall {\n        escrow.lockReStake(_lockReStakeUntilPeriod);\n        emit ReStakeLocked(msg.sender, _lockReStakeUntilPeriod);\n    }\n\n    /**\n    * @notice Deposit tokens to the staking escrow\n    * @param _value Amount of token to deposit\n    * @param _periods Amount of periods during which tokens will be locked\n    */\n    function depositAsStaker(uint256 _value, uint16 _periods) public onlyDelegateCall {\n        require(token.balanceOf(address(this)) >= _value);\n        token.approve(address(escrow), _value);\n        escrow.deposit(_value, _periods);\n        emit DepositedAsStaker(msg.sender, _value, _periods);\n    }\n\n    /**\n    * @notice Withdraw available amount of tokens from the staking escrow to the staking contract\n    * @param _value Amount of token to withdraw\n    */\n    function withdrawAsStaker(uint256 _value) public onlyDelegateCall {\n        escrow.withdraw(_value);\n        emit WithdrawnAsStaker(msg.sender, _value);\n    }\n\n    /**\n    * @notice Lock some tokens or increase lock in the staking escrow\n    * @param _value Amount of tokens which should lock\n    * @param _periods Amount of periods during which tokens will be locked\n    */\n    function lock(uint256 _value, uint16 _periods) public onlyDelegateCall {\n        escrow.lock(_value, _periods);\n        emit Locked(msg.sender, _value, _periods);\n    }\n\n    /**\n    * @notice Divide stake into two parts\n    * @param _index Index of stake\n    * @param _newValue New stake value\n    * @param _periods Amount of periods for extending stake\n    */\n    function divideStake(\n        uint256 _index,\n        uint256 _newValue,\n        uint16 _periods\n    )\n        public onlyDelegateCall\n    {\n        escrow.divideStake(_index, _newValue, _periods);\n        emit Divided(msg.sender, _index, _newValue, _periods);\n    }\n\n    /**\n    * @notice Mint tokens in the staking escrow\n    */\n    function mint() public onlyDelegateCall {\n        escrow.mint();\n        emit Minted(msg.sender);\n    }\n\n    /**\n    * @notice Withdraw available policy fees from the policy manager to the staking contract\n    */\n    function withdrawPolicyFee() public onlyDelegateCall {\n        uint256 value = policyManager.withdraw();\n        emit PolicyFeeWithdrawn(msg.sender, value);\n    }\n\n    /**\n    * @notice Set the minimum fee that the staker will accept in the policy manager contract\n    */\n    function setMinFeeRate(uint256 _minFeeRate) public onlyDelegateCall {\n        policyManager.setMinFeeRate(_minFeeRate);\n        emit MinFeeRateSet(msg.sender, _minFeeRate);\n    }\n\n\n    /**\n    * @notice Prolong active sub stake\n    * @param _index Index of the sub stake\n    * @param _periods Amount of periods for extending sub stake\n    */\n    function prolongStake(uint256 _index, uint16 _periods) public onlyDelegateCall {\n        escrow.prolongStake(_index, _periods);\n        emit Prolonged(msg.sender, _index, _periods);\n    }\n\n    /**\n    * @notice Set `windDown` parameter in the staking escrow\n    * @param _windDown Value for parameter\n    */\n    function setWindDown(bool _windDown) public onlyDelegateCall {\n        escrow.setWindDown(_windDown);\n        emit WindDownSet(msg.sender, _windDown);\n    }\n\n    /**\n    * @notice Bid for tokens by transferring ETH\n    */\n    function bid(uint256 _value) public payable onlyDelegateCall workLockSet {\n        workLock.bid{value: _value}();\n        emit Bid(msg.sender, _value);\n    }\n\n    /**\n    * @notice Cancel bid and refund deposited ETH\n    */\n    function cancelBid() public onlyDelegateCall workLockSet {\n        workLock.cancelBid();\n        emit BidCanceled(msg.sender);\n    }\n\n    /**\n    * @notice Withdraw compensation after force refund\n    */\n    function withdrawCompensation() public onlyDelegateCall workLockSet {\n        workLock.withdrawCompensation();\n        emit CompensationWithdrawn(msg.sender);\n    }\n\n    /**\n    * @notice Claimed tokens will be deposited and locked as stake in the StakingEscrow contract\n    */\n    function claim() public onlyDelegateCall workLockSet {\n        uint256 claimedTokens = workLock.claim();\n        emit Claimed(msg.sender, claimedTokens);\n    }\n\n    /**\n    * @notice Refund ETH for the completed work\n    */\n    function refund() public onlyDelegateCall workLockSet {\n        uint256 refundETH = workLock.refund();\n        emit Refund(msg.sender, refundETH);\n    }\n\n}\n",
  "sourcePath": "../../nucypher/blockchain/eth/sol/source/contracts/staking_contracts/StakingInterface.sol",
  "type": "contract"
}