{
  "abi": [
    {
      "inputs": [
        {
          "internalType": "contract BaseStakingInterface",
          "name": "_target",
          "type": "address"
        }
      ],
      "stateMutability": "nonpayable",
      "type": "constructor"
    },
    {
      "anonymous": false,
      "inputs": [
        {
          "indexed": true,
          "internalType": "address",
          "name": "previousOwner",
          "type": "address"
        },
        {
          "indexed": true,
          "internalType": "address",
          "name": "newOwner",
          "type": "address"
        }
      ],
      "name": "OwnershipTransferred",
      "type": "event"
    },
    {
      "inputs": [],
      "name": "isOwner",
      "outputs": [
        {
          "internalType": "bool",
          "name": "",
          "type": "bool"
        }
      ],
      "stateMutability": "view",
      "type": "function"
    },
    {
      "inputs": [],
      "name": "owner",
      "outputs": [
        {
          "internalType": "address",
          "name": "",
          "type": "address"
        }
      ],
      "stateMutability": "view",
      "type": "function"
    },
    {
      "inputs": [],
      "name": "renounceOwnership",
      "outputs": [],
      "stateMutability": "nonpayable",
      "type": "function"
    },
    {
      "inputs": [],
      "name": "target",
      "outputs": [
        {
          "internalType": "contract BaseStakingInterface",
          "name": "",
          "type": "address"
        }
      ],
      "stateMutability": "view",
      "type": "function"
    },
    {
      "inputs": [
        {
          "internalType": "address",
          "name": "newOwner",
          "type": "address"
        }
      ],
      "name": "transferOwnership",
      "outputs": [],
      "stateMutability": "nonpayable",
      "type": "function"
    },
    {
      "inputs": [
        {
          "internalType": "contract BaseStakingInterface",
          "name": "_target",
          "type": "address"
        }
      ],
      "name": "upgrade",
      "outputs": [],
      "stateMutability": "nonpayable",
      "type": "function"
    }
  ],
  "bytecode": "608060405234801561001057600080fd5b506040516104383803806104388339818101604052602081101561003357600080fd5b5051600080546001600160a01b03191633178082556040516001600160a01b039190911691907f8be0079c531659141344cd1fd0a4f28419497f9722a3daafe3b4186f6b6457e0908290a360006001600160a01b0316816001600160a01b031663fc0c546a6040518163ffffffff1660e01b815260040160206040518083038186803b1580156100c257600080fd5b505afa1580156100d6573d6000803e3d6000fd5b505050506040513d60208110156100ec57600080fd5b50516001600160a01b0316141561010257600080fd5b600180546001600160a01b0319166001600160a01b0392909216919091179055610307806101316000396000f3fe608060405234801561001057600080fd5b50600436106100625760003560e01c80630900f01014610067578063715018a61461008f5780638da5cb5b146100975780638f32d59b146100bb578063d4b83992146100d7578063f2fde38b146100df575b600080fd5b61008d6004803603602081101561007d57600080fd5b50356001600160a01b0316610105565b005b61008d6101bc565b61009f610217565b604080516001600160a01b039092168252519081900360200190f35b6100c3610226565b604080519115158252519081900360200190f35b61009f610237565b61008d600480360360208110156100f557600080fd5b50356001600160a01b0316610246565b61010d610226565b61011657600080fd5b60006001600160a01b0316816001600160a01b031663fc0c546a6040518163ffffffff1660e01b815260040160206040518083038186803b15801561015a57600080fd5b505afa15801561016e573d6000803e3d6000fd5b505050506040513d602081101561018457600080fd5b50516001600160a01b0316141561019a57600080fd5b600180546001600160a01b0319166001600160a01b0392909216919091179055565b6101c4610226565b6101cd57600080fd5b600080546040516001600160a01b03909116907f8be0079c531659141344cd1fd0a4f28419497f9722a3daafe3b4186f6b6457e0908390a3600080546001600160a01b0319169055565b6000546001600160a01b031690565b6000546001600160a01b0316331490565b6001546001600160a01b031681565b61024e610226565b61025757600080fd5b61026081610263565b50565b6001600160a01b03811661027657600080fd5b600080546040516001600160a01b03808516939216917f8be0079c531659141344cd1fd0a4f28419497f9722a3daafe3b4186f6b6457e091a3600080546001600160a01b0319166001600160a01b039290921691909117905556fea2646970667358221220bc4ba9693112a8c851a6e583609661b4c0a6225af47cf450234596e0f58c58b764736f6c63430006070033",
  "bytecodeSha1": "cd7365df8e3e38f0c60210a78c490081b4098dba",
  "compiler": {
    "evm_version": "berlin",
    "optimizer": {
      "enabled": true,
      "runs": 200
    },
    "version": "0.6.7"
  },
  "contractName": "StakingInterfaceRouter",
  "language": "Solidity",
  "natspec": {
    "methods": {
      "constructor": {
        "params": {
          "_target": "Address of the interface contract"
        }
      },
      "renounceOwnership()": {
        "details": "Allows the current owner to relinquish control of the contract.",
        "notice": "Renouncing to ownership will leave the contract without an owner. It will not be possible to call the functions with the `onlyOwner` modifier anymore."
      },
      "transferOwnership(address)": {
        "details": "Allows the current owner to transfer control of the contract to a newOwner.",
        "params": {
          "newOwner": "The address to transfer ownership to."
        }
      },
      "upgrade(address)": {
        "notice": "Upgrade interface",
        "params": {
          "_target": "New contract address"
        }
      }
    },
    "notice": "Router for accessing interface contract"
  },
  "opcodes": "PUSH1 0x80 PUSH1 0x40 MSTORE CALLVALUE DUP1 ISZERO PUSH2 0x10 JUMPI PUSH1 0x0 DUP1 REVERT JUMPDEST POP PUSH1 0x4 CALLDATASIZE LT PUSH2 0x62 JUMPI PUSH1 0x0 CALLDATALOAD PUSH1 0xE0 SHR DUP1 PUSH4 0x900F010 EQ PUSH2 0x67 JUMPI DUP1 PUSH4 0x715018A6 EQ PUSH2 0x8F JUMPI DUP1 PUSH4 0x8DA5CB5B EQ PUSH2 0x97 JUMPI DUP1 PUSH4 0x8F32D59B EQ PUSH2 0xBB JUMPI DUP1 PUSH4 0xD4B83992 EQ PUSH2 0xD7 JUMPI DUP1 PUSH4 0xF2FDE38B EQ PUSH2 0xDF JUMPI JUMPDEST PUSH1 0x0 DUP1 REVERT JUMPDEST PUSH2 0x8D PUSH1 0x4 DUP1 CALLDATASIZE SUB PUSH1 0x20 DUP2 LT ISZERO PUSH2 0x7D JUMPI PUSH1 0x0 DUP1 REVERT JUMPDEST POP CALLDATALOAD PUSH1 0x1 PUSH1 0x1 PUSH1 0xA0 SHL SUB AND PUSH2 0x105 JUMP JUMPDEST STOP JUMPDEST PUSH2 0x8D PUSH2 0x1BC JUMP JUMPDEST PUSH2 0x9F PUSH2 0x217 JUMP JUMPDEST PUSH1 0x40 DUP1 MLOAD PUSH1 0x1 PUSH1 0x1 PUSH1 0xA0 SHL SUB SWAP1 SWAP3 AND DUP3 MSTORE MLOAD SWAP1 DUP2 SWAP1 SUB PUSH1 0x20 ADD SWAP1 RETURN JUMPDEST PUSH2 0xC3 PUSH2 0x226 JUMP JUMPDEST PUSH1 0x40 DUP1 MLOAD SWAP2 ISZERO ISZERO DUP3 MSTORE MLOAD SWAP1 DUP2 SWAP1 SUB PUSH1 0x20 ADD SWAP1 RETURN JUMPDEST PUSH2 0x9F PUSH2 0x237 JUMP JUMPDEST PUSH2 0x8D PUSH1 0x4 DUP1 CALLDATASIZE SUB PUSH1 0x20 DUP2 LT ISZERO PUSH2 0xF5 JUMPI PUSH1 0x0 DUP1 REVERT JUMPDEST POP CALLDATALOAD PUSH1 0x1 PUSH1 0x1 PUSH1 0xA0 SHL SUB AND PUSH2 0x246 JUMP JUMPDEST PUSH2 0x10D PUSH2 0x226 JUMP JUMPDEST PUSH2 0x116 JUMPI PUSH1 0x0 DUP1 REVERT JUMPDEST PUSH1 0x0 PUSH1 0x1 PUSH1 0x1 PUSH1 0xA0 SHL SUB AND DUP2 PUSH1 0x1 PUSH1 0x1 PUSH1 0xA0 SHL SUB AND PUSH4 0xFC0C546A PUSH1 0x40 MLOAD DUP2 PUSH4 0xFFFFFFFF AND PUSH1 0xE0 SHL DUP2 MSTORE PUSH1 0x4 ADD PUSH1 0x20 PUSH1 0x40 MLOAD DUP1 DUP4 SUB DUP2 DUP7 DUP1 EXTCODESIZE ISZERO DUP1 ISZERO PUSH2 0x15A JUMPI PUSH1 0x0 DUP1 REVERT JUMPDEST POP GAS STATICCALL ISZERO DUP1 ISZERO PUSH2 0x16E JUMPI RETURNDATASIZE PUSH1 0x0 DUP1 RETURNDATACOPY RETURNDATASIZE PUSH1 0x0 REVERT JUMPDEST POP POP POP POP PUSH1 0x40 MLOAD RETURNDATASIZE PUSH1 0x20 DUP2 LT ISZERO PUSH2 0x184 JUMPI PUSH1 0x0 DUP1 REVERT JUMPDEST POP MLOAD PUSH1 0x1 PUSH1 0x1 PUSH1 0xA0 SHL SUB AND EQ ISZERO PUSH2 0x19A JUMPI PUSH1 0x0 DUP1 REVERT JUMPDEST PUSH1 0x1 DUP1 SLOAD PUSH1 0x1 PUSH1 0x1 PUSH1 0xA0 SHL SUB NOT AND PUSH1 0x1 PUSH1 0x1 PUSH1 0xA0 SHL SUB SWAP3 SWAP1 SWAP3 AND SWAP2 SWAP1 SWAP2 OR SWAP1 SSTORE JUMP JUMPDEST PUSH2 0x1C4 PUSH2 0x226 JUMP JUMPDEST PUSH2 0x1CD JUMPI PUSH1 0x0 DUP1 REVERT JUMPDEST PUSH1 0x0 DUP1 SLOAD PUSH1 0x40 MLOAD PUSH1 0x1 PUSH1 0x1 PUSH1 0xA0 SHL SUB SWAP1 SWAP2 AND SWAP1 PUSH32 0x8BE0079C531659141344CD1FD0A4F28419497F9722A3DAAFE3B4186F6B6457E0 SWAP1 DUP4 SWAP1 LOG3 PUSH1 0x0 DUP1 SLOAD PUSH1 0x1 PUSH1 0x1 PUSH1 0xA0 SHL SUB NOT AND SWAP1 SSTORE JUMP JUMPDEST PUSH1 0x0 SLOAD PUSH1 0x1 PUSH1 0x1 PUSH1 0xA0 SHL SUB AND SWAP1 JUMP JUMPDEST PUSH1 0x0 SLOAD PUSH1 0x1 PUSH1 0x1 PUSH1 0xA0 SHL SUB AND CALLER EQ SWAP1 JUMP JUMPDEST PUSH1 0x1 SLOAD PUSH1 0x1 PUSH1 0x1 PUSH1 0xA0 SHL SUB AND DUP2 JUMP JUMPDEST PUSH2 0x24E PUSH2 0x226 JUMP JUMPDEST PUSH2 0x257 JUMPI PUSH1 0x0 DUP1 REVERT JUMPDEST PUSH2 0x260 DUP2 PUSH2 0x263 JUMP JUMPDEST POP JUMP JUMPDEST PUSH1 0x1 PUSH1 0x1 PUSH1 0xA0 SHL SUB DUP2 AND PUSH2 0x276 JUMPI PUSH1 0x0 DUP1 REVERT JUMPDEST PUSH1 0x0 DUP1 SLOAD PUSH1 0x40 MLOAD PUSH1 0x1 PUSH1 0x1 PUSH1 0xA0 SHL SUB DUP1 DUP6 AND SWAP4 SWAP3 AND SWAP2 PUSH32 0x8BE0079C531659141344CD1FD0A4F28419497F9722A3DAAFE3B4186F6B6457E0 SWAP2 LOG3 PUSH1 0x0 DUP1 SLOAD PUSH1 0x1 PUSH1 0x1 PUSH1 0xA0 SHL SUB NOT AND PUSH1 0x1 PUSH1 0x1 PUSH1 0xA0 SHL SUB SWAP3 SWAP1 SWAP3 AND SWAP2 SWAP1 SWAP2 OR SWAP1 SSTORE JUMP INVALID LOG2 PUSH5 0x6970667358 0x22 SLT KECCAK256 0xBC 0x4B 0xA9 PUSH10 0x3112A8C851A6E5836096 PUSH2 0xB4C0 0xA6 0x22 GAS DELEGATECALL PUSH29 0xF450234596E0F58C58B764736F6C634300060700330000000000000000 ",
  "sha1": "ee62a5549f5f7a5c1d3d860bf42841011717cb3a",
  "source": "pragma solidity ^0.6.5;\n\n\nimport \"zeppelin/ownership/Ownable.sol\";\nimport \"zeppelin/utils/Address.sol\";\nimport \"zeppelin/token/ERC20/SafeERC20.sol\";\nimport \"nucypher/staking_contracts/StakingInterface.sol\";\n\n\n/**\n* @notice Router for accessing interface contract\n*/\ncontract StakingInterfaceRouter is Ownable {\n    BaseStakingInterface public target;\n\n    /**\n    * @param _target Address of the interface contract\n    */\n    constructor(BaseStakingInterface _target) public {\n        require(address(_target.token()) != address(0));\n        target = _target;\n    }\n\n    /**\n    * @notice Upgrade interface\n    * @param _target New contract address\n    */\n    function upgrade(BaseStakingInterface _target) external onlyOwner {\n        require(address(_target.token()) != address(0));\n        target = _target;\n    }\n\n}\n\n\n/**\n* @notice Base class for any staking contract\n* @dev Implement `isFallbackAllowed()` or override fallback function\n* Implement `withdrawTokens(uint256)` and `withdrawETH()` functions\n*/\nabstract contract AbstractStakingContract {\n    using Address for address;\n    using Address for address payable;\n    using SafeERC20 for NuCypherToken;\n\n    StakingInterfaceRouter public immutable router;\n    NuCypherToken public immutable token;\n\n    /**\n    * @param _router Interface router contract address\n    */\n    constructor(StakingInterfaceRouter _router) public {\n        router = _router;\n        NuCypherToken localToken = _router.target().token();\n        require(address(localToken) != address(0));\n        token = localToken;\n    }\n\n    /**\n    * @dev Checks permission for calling fallback function\n    */\n    function isFallbackAllowed() public virtual returns (bool);\n\n    /**\n    * @dev Withdraw tokens from staking contract\n    */\n    function withdrawTokens(uint256 _value) public virtual;\n\n    /**\n    * @dev Withdraw ETH from staking contract\n    */\n    function withdrawETH() public virtual;\n\n    /**\n    * @dev Function sends all requests to the target contract\n    */\n    // TODO #1809\n    fallback() external payable {\n        if (msg.data.length == 0) {\n            return;\n        }\n\n        require(isFallbackAllowed());\n        address target = address(router.target());\n        require(target.isContract());\n        // execute requested function from target contract\n        (bool callSuccess,) = target.delegatecall(msg.data);\n        if (callSuccess) {\n            // copy result of the request to the return data\n            // we can use the second return value from `delegatecall` (bytes memory)\n            // but it will consume a little more gas\n            assembly {\n                returndatacopy(0x0, 0x0, returndatasize())\n                return(0x0, returndatasize())\n            }\n        } else {\n            revert();\n        }\n    }\n\n}\n",
  "sourcePath": "../../nucypher/blockchain/eth/sol/source/contracts/staking_contracts/AbstractStakingContract.sol",
  "type": "contract"
}