{
  "abi": [
    {
      "inputs": [
        {
          "internalType": "contract NuCypherToken",
          "name": "_token",
          "type": "address"
        },
        {
          "internalType": "contract StakingEscrow",
          "name": "_escrow",
          "type": "address"
        },
        {
          "internalType": "uint256",
          "name": "_startBidDate",
          "type": "uint256"
        },
        {
          "internalType": "uint256",
          "name": "_endBidDate",
          "type": "uint256"
        },
        {
          "internalType": "uint256",
          "name": "_endCancellationDate",
          "type": "uint256"
        },
        {
          "internalType": "uint256",
          "name": "_boostingRefund",
          "type": "uint256"
        },
        {
          "internalType": "uint16",
          "name": "_stakingPeriods",
          "type": "uint16"
        },
        {
          "internalType": "uint256",
          "name": "_minAllowedBid",
          "type": "uint256"
        }
      ],
      "stateMutability": "nonpayable",
      "type": "constructor"
    },
    {
      "anonymous": false,
      "inputs": [
        {
          "indexed": true,
          "internalType": "address",
          "name": "sender",
          "type": "address"
        },
        {
          "indexed": false,
          "internalType": "uint256",
          "name": "depositedETH",
          "type": "uint256"
        }
      ],
      "name": "Bid",
      "type": "event"
    },
    {
      "anonymous": false,
      "inputs": [
        {
          "indexed": true,
          "internalType": "address",
          "name": "sender",
          "type": "address"
        },
        {
          "indexed": false,
          "internalType": "uint256",
          "name": "startIndex",
          "type": "uint256"
        },
        {
          "indexed": false,
          "internalType": "uint256",
          "name": "endIndex",
          "type": "uint256"
        }
      ],
      "name": "BiddersChecked",
      "type": "event"
    },
    {
      "anonymous": false,
      "inputs": [
        {
          "indexed": true,
          "internalType": "address",
          "name": "sender",
          "type": "address"
        },
        {
          "indexed": false,
          "internalType": "uint256",
          "name": "value",
          "type": "uint256"
        }
      ],
      "name": "Canceled",
      "type": "event"
    },
    {
      "anonymous": false,
      "inputs": [
        {
          "indexed": true,
          "internalType": "address",
          "name": "sender",
          "type": "address"
        },
        {
          "indexed": false,
          "internalType": "uint256",
          "name": "claimedTokens",
          "type": "uint256"
        }
      ],
      "name": "Claimed",
      "type": "event"
    },
    {
      "anonymous": false,
      "inputs": [
        {
          "indexed": true,
          "internalType": "address",
          "name": "sender",
          "type": "address"
        },
        {
          "indexed": false,
          "internalType": "uint256",
          "name": "value",
          "type": "uint256"
        }
      ],
      "name": "CompensationWithdrawn",
      "type": "event"
    },
    {
      "anonymous": false,
      "inputs": [
        {
          "indexed": true,
          "internalType": "address",
          "name": "sender",
          "type": "address"
        },
        {
          "indexed": false,
          "internalType": "uint256",
          "name": "value",
          "type": "uint256"
        }
      ],
      "name": "Deposited",
      "type": "event"
    },
    {
      "anonymous": false,
      "inputs": [
        {
          "indexed": true,
          "internalType": "address",
          "name": "sender",
          "type": "address"
        },
        {
          "indexed": true,
          "internalType": "address",
          "name": "bidder",
          "type": "address"
        },
        {
          "indexed": false,
          "internalType": "uint256",
          "name": "refundETH",
          "type": "uint256"
        }
      ],
      "name": "ForceRefund",
      "type": "event"
    },
    {
      "anonymous": false,
      "inputs": [
        {
          "indexed": true,
          "internalType": "address",
          "name": "previousOwner",
          "type": "address"
        },
        {
          "indexed": true,
          "internalType": "address",
          "name": "newOwner",
          "type": "address"
        }
      ],
      "name": "OwnershipTransferred",
      "type": "event"
    },
    {
      "anonymous": false,
      "inputs": [
        {
          "indexed": true,
          "internalType": "address",
          "name": "sender",
          "type": "address"
        },
        {
          "indexed": false,
          "internalType": "uint256",
          "name": "refundETH",
          "type": "uint256"
        },
        {
          "indexed": false,
          "internalType": "uint256",
          "name": "completedWork",
          "type": "uint256"
        }
      ],
      "name": "Refund",
      "type": "event"
    },
    {
      "anonymous": false,
      "inputs": [
        {
          "indexed": true,
          "internalType": "address",
          "name": "sender",
          "type": "address"
        }
      ],
      "name": "Shutdown",
      "type": "event"
    },
    {
      "inputs": [],
      "name": "SLOWING_REFUND",
      "outputs": [
        {
          "internalType": "uint16",
          "name": "",
          "type": "uint16"
        }
      ],
      "stateMutability": "view",
      "type": "function"
    },
    {
      "inputs": [],
      "name": "bid",
      "outputs": [],
      "stateMutability": "payable",
      "type": "function"
    },
    {
      "inputs": [
        {
          "internalType": "uint256",
          "name": "",
          "type": "uint256"
        }
      ],
      "name": "bidders",
      "outputs": [
        {
          "internalType": "address",
          "name": "",
          "type": "address"
        }
      ],
      "stateMutability": "view",
      "type": "function"
    },
    {
      "inputs": [],
      "name": "bonusETHSupply",
      "outputs": [
        {
          "internalType": "uint256",
          "name": "",
          "type": "uint256"
        }
      ],
      "stateMutability": "view",
      "type": "function"
    },
    {
      "inputs": [],
      "name": "boostingRefund",
      "outputs": [
        {
          "internalType": "uint256",
          "name": "",
          "type": "uint256"
        }
      ],
      "stateMutability": "view",
      "type": "function"
    },
    {
      "inputs": [],
      "name": "cancelBid",
      "outputs": [],
      "stateMutability": "nonpayable",
      "type": "function"
    },
    {
      "inputs": [],
      "name": "claim",
      "outputs": [
        {
          "internalType": "uint256",
          "name": "claimedTokens",
          "type": "uint256"
        }
      ],
      "stateMutability": "nonpayable",
      "type": "function"
    },
    {
      "inputs": [
        {
          "internalType": "address",
          "name": "",
          "type": "address"
        }
      ],
      "name": "compensation",
      "outputs": [
        {
          "internalType": "uint256",
          "name": "",
          "type": "uint256"
        }
      ],
      "stateMutability": "view",
      "type": "function"
    },
    {
      "inputs": [],
      "name": "endBidDate",
      "outputs": [
        {
          "internalType": "uint256",
          "name": "",
          "type": "uint256"
        }
      ],
      "stateMutability": "view",
      "type": "function"
    },
    {
      "inputs": [],
      "name": "endCancellationDate",
      "outputs": [
        {
          "internalType": "uint256",
          "name": "",
          "type": "uint256"
        }
      ],
      "stateMutability": "view",
      "type": "function"
    },
    {
      "inputs": [],
      "name": "escrow",
      "outputs": [
        {
          "internalType": "contract StakingEscrow",
          "name": "",
          "type": "address"
        }
      ],
      "stateMutability": "view",
      "type": "function"
    },
    {
      "inputs": [
        {
          "internalType": "uint256",
          "name": "_ethAmount",
          "type": "uint256"
        }
      ],
      "name": "ethToTokens",
      "outputs": [
        {
          "internalType": "uint256",
          "name": "",
          "type": "uint256"
        }
      ],
      "stateMutability": "view",
      "type": "function"
    },
    {
      "inputs": [
        {
          "internalType": "uint256",
          "name": "_ethAmount",
          "type": "uint256"
        }
      ],
      "name": "ethToWork",
      "outputs": [
        {
          "internalType": "uint256",
          "name": "",
          "type": "uint256"
        }
      ],
      "stateMutability": "view",
      "type": "function"
    },
    {
      "inputs": [
        {
          "internalType": "address payable[]",
          "name": "_biddersForRefund",
          "type": "address[]"
        }
      ],
      "name": "forceRefund",
      "outputs": [],
      "stateMutability": "nonpayable",
      "type": "function"
    },
    {
      "inputs": [
        {
          "internalType": "address",
          "name": "_bidder",
          "type": "address"
        }
      ],
      "name": "getAvailableRefund",
      "outputs": [
        {
          "internalType": "uint256",
          "name": "",
          "type": "uint256"
        }
      ],
      "stateMutability": "view",
      "type": "function"
    },
    {
      "inputs": [],
      "name": "getBiddersLength",
      "outputs": [
        {
          "internalType": "uint256",
          "name": "",
          "type": "uint256"
        }
      ],
      "stateMutability": "view",
      "type": "function"
    },
    {
      "inputs": [
        {
          "internalType": "address",
          "name": "_bidder",
          "type": "address"
        }
      ],
      "name": "getRemainingWork",
      "outputs": [
        {
          "internalType": "uint256",
          "name": "",
          "type": "uint256"
        }
      ],
      "stateMutability": "view",
      "type": "function"
    },
    {
      "inputs": [],
      "name": "isClaimingAvailable",
      "outputs": [
        {
          "internalType": "bool",
          "name": "",
          "type": "bool"
        }
      ],
      "stateMutability": "view",
      "type": "function"
    },
    {
      "inputs": [],
      "name": "isOwner",
      "outputs": [
        {
          "internalType": "bool",
          "name": "",
          "type": "bool"
        }
      ],
      "stateMutability": "view",
      "type": "function"
    },
    {
      "inputs": [],
      "name": "maxAllowableLockedTokens",
      "outputs": [
        {
          "internalType": "uint256",
          "name": "",
          "type": "uint256"
        }
      ],
      "stateMutability": "view",
      "type": "function"
    },
    {
      "inputs": [],
      "name": "minAllowableLockedTokens",
      "outputs": [
        {
          "internalType": "uint256",
          "name": "",
          "type": "uint256"
        }
      ],
      "stateMutability": "view",
      "type": "function"
    },
    {
      "inputs": [],
      "name": "minAllowedBid",
      "outputs": [
        {
          "internalType": "uint256",
          "name": "",
          "type": "uint256"
        }
      ],
      "stateMutability": "view",
      "type": "function"
    },
    {
      "inputs": [],
      "name": "nextBidderToCheck",
      "outputs": [
        {
          "internalType": "uint256",
          "name": "",
          "type": "uint256"
        }
      ],
      "stateMutability": "view",
      "type": "function"
    },
    {
      "inputs": [],
      "name": "owner",
      "outputs": [
        {
          "internalType": "address",
          "name": "",
          "type": "address"
        }
      ],
      "stateMutability": "view",
      "type": "function"
    },
    {
      "inputs": [],
      "name": "refund",
      "outputs": [
        {
          "internalType": "uint256",
          "name": "refundETH",
          "type": "uint256"
        }
      ],
      "stateMutability": "nonpayable",
      "type": "function"
    },
    {
      "inputs": [],
      "name": "renounceOwnership",
      "outputs": [],
      "stateMutability": "nonpayable",
      "type": "function"
    },
    {
      "inputs": [],
      "name": "shutdown",
      "outputs": [],
      "stateMutability": "nonpayable",
      "type": "function"
    },
    {
      "inputs": [],
      "name": "stakingPeriods",
      "outputs": [
        {
          "internalType": "uint16",
          "name": "",
          "type": "uint16"
        }
      ],
      "stateMutability": "view",
      "type": "function"
    },
    {
      "inputs": [],
      "name": "startBidDate",
      "outputs": [
        {
          "internalType": "uint256",
          "name": "",
          "type": "uint256"
        }
      ],
      "stateMutability": "view",
      "type": "function"
    },
    {
      "inputs": [],
      "name": "token",
      "outputs": [
        {
          "internalType": "contract NuCypherToken",
          "name": "",
          "type": "address"
        }
      ],
      "stateMutability": "view",
      "type": "function"
    },
    {
      "inputs": [
        {
          "internalType": "uint256",
          "name": "_value",
          "type": "uint256"
        }
      ],
      "name": "tokenDeposit",
      "outputs": [],
      "stateMutability": "nonpayable",
      "type": "function"
    },
    {
      "inputs": [],
      "name": "tokenSupply",
      "outputs": [
        {
          "internalType": "uint256",
          "name": "",
          "type": "uint256"
        }
      ],
      "stateMutability": "view",
      "type": "function"
    },
    {
      "inputs": [
        {
          "internalType": "address",
          "name": "newOwner",
          "type": "address"
        }
      ],
      "name": "transferOwnership",
      "outputs": [],
      "stateMutability": "nonpayable",
      "type": "function"
    },
    {
      "inputs": [
        {
          "internalType": "uint256",
          "name": "_gasToSaveState",
          "type": "uint256"
        }
      ],
      "name": "verifyBiddingCorrectness",
      "outputs": [
        {
          "internalType": "uint256",
          "name": "",
          "type": "uint256"
        }
      ],
      "stateMutability": "nonpayable",
      "type": "function"
    },
    {
      "inputs": [],
      "name": "withdrawCompensation",
      "outputs": [],
      "stateMutability": "nonpayable",
      "type": "function"
    },
    {
      "inputs": [
        {
          "internalType": "address",
          "name": "",
          "type": "address"
        }
      ],
      "name": "workInfo",
      "outputs": [
        {
          "internalType": "uint256",
          "name": "depositedETH",
          "type": "uint256"
        },
        {
          "internalType": "uint256",
          "name": "completedWork",
          "type": "uint256"
        },
        {
          "internalType": "bool",
          "name": "claimed",
          "type": "bool"
        },
        {
          "internalType": "uint128",
          "name": "index",
          "type": "uint128"
        }
      ],
      "stateMutability": "view",
      "type": "function"
    },
    {
      "inputs": [
        {
          "internalType": "uint256",
          "name": "_completedWork",
          "type": "uint256"
        },
        {
          "internalType": "uint256",
          "name": "_depositedETH",
          "type": "uint256"
        }
      ],
      "name": "workToETH",
      "outputs": [
        {
          "internalType": "uint256",
          "name": "",
          "type": "uint256"
        }
      ],
      "stateMutability": "view",
      "type": "function"
    }
  ],
  "bytecode": "6101606040523480156200001257600080fd5b5060405162002fce38038062002fce83398181016040526101008110156200003957600080fd5b50805160208201516040808401516060850151608086015160a087015160c088015160e090980151600080546001600160a01b031916331780825596519899979895979496939592949391926001600160a01b0392909216917f8be0079c531659141344cd1fd0a4f28419497f9722a3daafe3b4186f6b6457e0908290a36000886001600160a01b03166318160ddd6040518163ffffffff1660e01b815260040160206040518083038186803b158015620000f357600080fd5b505afa15801562000108573d6000803e3d6000fd5b505050506040513d60208110156200011f57600080fd5b505190508015801590620001a057506000886001600160a01b031663407f80016040518163ffffffff1660e01b815260040160206040518083038186803b1580156200016a57600080fd5b505afa1580156200017f573d6000803e3d6000fd5b505050506040513d60208110156200019657600080fd5b505163ffffffff16115b8015620002255750886001600160a01b0316886001600160a01b031663fc0c546a6040518163ffffffff1660e01b815260040160206040518083038186803b158015620001ec57600080fd5b505afa15801562000201573d6000803e3d6000fd5b505050506040513d60208110156200021857600080fd5b50516001600160a01b0316145b80156200023157508686115b80156200023d57504286115b80156200024a5750858510155b8015620002575750600082115b8015620002645750600084115b8015620002e05750876001600160a01b0316633ac5743d6040518163ffffffff1660e01b815260040160206040518083038186803b158015620002a657600080fd5b505afa158015620002bb573d6000803e3d6000fd5b505050506040513d6020811015620002d257600080fd5b505161ffff90811690841610155b620002ea57600080fd5b6064816b409f9cbc7c4a04c2200000006c193e5939a08ce9dbd480000000820204816200031357fe5b041480156200033d575083816b409f9cbc7c4a04c220000000818302810204816200033a57fe5b04145b6200034757600080fd5b6001600160601b031960608a811b821660805289901b1660a05260028790556003869055600485815560c08590526001600160f01b031960f085901b166101005260e0839052604080516337db29d160e11b815290516001600160a01b038b1692636fb653a292808201926020929091829003018186803b158015620003cc57600080fd5b505afa158015620003e1573d6000803e3d6000fd5b505050506040513d6020811015620003f857600080fd5b50516101205260408051638cab6c4f60e01b815290516001600160a01b038a1691638cab6c4f916004808301926020929190829003018186803b1580156200043f57600080fd5b505afa15801562000454573d6000803e3d6000fd5b505050506040513d60208110156200046b57600080fd5b50516101405250505050505050505060805160601c60a05160601c60c05160e0516101005160f01c6101205161014051612a346200059a6000398061096252806110f6528061144d52806117b352806117f952806119405280611e4b528061230b5250806111bc52806118bf52806119615280611ba95280611ddf5280611e6c525080610d095280611aba5250806108ed5280610a435280610e7552806110b252806111185280611140528061168652806116b5528061173a528061178f52806119a55280611e915280612246528061227d52806122ae52806122de52508061107f528061248c52806124da52508061076a5280610c375280610d3a5280610dbe5280610f7752806112655280612164525080610c7152806120f352806121a552806125af5250612a346000f3fe60806040526004361061021a5760003560e01c806387a15dc911610123578063b15cf964116100ab578063e1fe7d231161006f578063e1fe7d231461068b578063e2fdcc17146106b5578063f2fde38b146106ca578063fc0c546a146106fd578063fc0e74d1146107125761021a565b8063b15cf96414610590578063bc859f44146105a5578063be7ff580146105cf578063cbce49ed146105e4578063cff29dfd146106615761021a565b80638da5cb5b116100f25780638da5cb5b146104f65780638f32d59b146105275780639435c8871461053c5780639b51ac8514610551578063a4c89322146105665761021a565b806387a15dc91461048e57806388657c7a146104a3578063897db45c146104cc5780638cab6c4f146104e15761021a565b80635bf997f5116101a6578063715018a611610175578063715018a6146103f057806372f96040146104055780637824407f146104385780637f4fad691461044d57806387865033146104625761021a565b80635bf997f514610381578063617e677e1461039657806366ade78e146103ab5780636fb653a2146103db5761021a565b80631f45002c116101ed5780631f45002c146102ad5780634e71d92d1461030f5780634f1910a1146103245780635707bee514610339578063590e1ae31461036c5761021a565b80630594851c1461021f578063124a1f4f146102645780631998aeef1461028e5780631bb8976214610298575b600080fd5b34801561022b57600080fd5b506102526004803603602081101561024257600080fd5b50356001600160a01b0316610727565b60408051918252519081900360200190f35b34801561027057600080fd5b506102526004803603602081101561028757600080fd5b5035610816565b610296610829565b005b3480156102a457600080fd5b50610252610adb565b3480156102b957600080fd5b506102e0600480360360208110156102d057600080fd5b50356001600160a01b0316610ae1565b604080519485526020850193909352901515838301526001600160801b03166060830152519081900360800190f35b34801561031b57600080fd5b50610252610b15565b34801561033057600080fd5b50610252610e73565b34801561034557600080fd5b506102526004803603602081101561035c57600080fd5b50356001600160a01b0316610e97565b34801561037857600080fd5b50610252610ea9565b34801561038d57600080fd5b5061025261107d565b3480156103a257600080fd5b506102526110a1565b3480156103b757600080fd5b50610252600480360360408110156103ce57600080fd5b50803590602001356110a7565b3480156103e757600080fd5b506102526111ba565b3480156103fc57600080fd5b506102966111de565b34801561041157600080fd5b506102526004803603602081101561042857600080fd5b50356001600160a01b0316611239565b34801561044457600080fd5b5061025261135d565b34801561045957600080fd5b50610252611363565b34801561046e57600080fd5b50610477611369565b6040805161ffff9092168252519081900360200190f35b34801561049a57600080fd5b5061029661136e565b3480156104af57600080fd5b506104b8611429565b604080519115158252519081900360200190f35b3480156104d857600080fd5b50610252611445565b3480156104ed57600080fd5b5061025261144b565b34801561050257600080fd5b5061050b61146f565b604080516001600160a01b039092168252519081900360200190f35b34801561053357600080fd5b506104b861147e565b34801561054857600080fd5b5061029661148f565b34801561055d57600080fd5b50610252611730565b34801561057257600080fd5b506102526004803603602081101561058957600080fd5b5035611736565b34801561059c57600080fd5b50610252611821565b3480156105b157600080fd5b50610252600480360360208110156105c857600080fd5b5035611827565b3480156105db57600080fd5b50610477611ab8565b3480156105f057600080fd5b506102966004803603602081101561060757600080fd5b81019060208101813564010000000081111561062257600080fd5b82018360208201111561063457600080fd5b8035906020019184602083028401116401000000008311171561065657600080fd5b509092509050611adc565b34801561066d57600080fd5b5061050b6004803603602081101561068457600080fd5b503561207f565b34801561069757600080fd5b50610296600480360360208110156106ae57600080fd5b50356120a6565b3480156106c157600080fd5b5061050b612162565b3480156106d657600080fd5b50610296600480360360208110156106ed57600080fd5b50356001600160a01b0316612186565b34801561070957600080fd5b5061050b6121a3565b34801561071e57600080fd5b506102966121c7565b6001600160a01b0380821660008181526006602090815260408083206001810154825163d094adbf60e01b8152600481019690965291519395909486946107e6947f00000000000000000000000000000000000000000000000000000000000000009093169263d094adbf9260248082019391829003018186803b1580156107ae57600080fd5b505afa1580156107c2573d6000803e3d6000fd5b505050506040513d60208110156107d857600080fd5b50519063ffffffff61222616565b905060006107f78360000154610816565b905081811161080c5760009350505050610811565b039150505b919050565b600061082382600061223b565b92915050565b600254421015610880576040805162461bcd60e51b815260206004820152601760248201527f42696464696e67206973206e6f74206f70656e20796574000000000000000000604482015290519081900360640190fd5b60035442106108d6576040805162461bcd60e51b815260206004820152601b60248201527f42696464696e6720697320616c72656164792066696e69736865640000000000604482015290519081900360640190fd5b3360009081526006602052604090208054610a77577f0000000000000000000000000000000000000000000000000000000000000000341015610960576040805162461bcd60e51b815260206004820152601c60248201527f426964206d757374206265206174206c65617374206d696e696d756d00000000604482015290519081900360640190fd5b7f00000000000000000000000000000000000000000000000000000000000000006001548161098b57fe5b04600880549050106109ce5760405162461bcd60e51b815260040180806020018281038252602281526020018061295f6022913960400191505060405180910390fd5b600880546002830180546001600160801b0390921661010002610100600160881b031990921691909117905580546001810182556000919091527ff3f7a9fe364faab93b216da50a3214154f22a0a2b415b23a84c8169e8b636ee30180546001600160a01b03191633179055600554610a6f907f0000000000000000000000000000000000000000000000000000000000000000340363ffffffff61236e16565b600555610a8e565b600554610a8a903463ffffffff61236e16565b6005555b8054610aa0903463ffffffff61236e16565b815560408051348152905133917fe684a55f31b79eca403df938249029212a5925ec6be8012e099b45bc1019e5d2919081900360200190a250565b60085490565b60066020526000908152604090208054600182015460029092015490919060ff81169061010090046001600160801b031684565b6000610b1f611429565b610b5a5760405162461bcd60e51b81526004018080602001828103825260218152602001806128c96021913960400191505060405180910390fd5b336000908152600660205260409020600281015460ff1615610bc3576040805162461bcd60e51b815260206004820152601a60248201527f546f6b656e732061726520616c726561647920636c61696d6564000000000000604482015290519081900360640190fd5b8054610bce90611736565b915060008211610c18576040805162461bcd60e51b815260206004820152601060248201526f4e6f7468696e6720746f20636c61696d60801b604482015290519081900360640190fd5b60028101805460ff191660011790556040805163095ea7b360e01b81527f00000000000000000000000000000000000000000000000000000000000000006001600160a01b0390811660048301526024820185905291517f0000000000000000000000000000000000000000000000000000000000000000929092169163095ea7b3916044808201926020929091908290030181600087803b158015610cbd57600080fd5b505af1158015610cd1573d6000803e3d6000fd5b505050506040513d6020811015610ce757600080fd5b505060408051636968703360e11b81523360048201526024810184905261ffff7f000000000000000000000000000000000000000000000000000000000000000016604482015290516001600160a01b037f0000000000000000000000000000000000000000000000000000000000000000169163d2d0e06691606480830192600092919082900301818387803b158015610d8157600080fd5b505af1158015610d95573d6000803e3d6000fd5b5050604080516312796b7560e21b81523360048201526001602482015290516001600160a01b037f00000000000000000000000000000000000000000000000000000000000000001693506349e5add4925060448083019260209291908290030181600087803b158015610e0857600080fd5b505af1158015610e1c573d6000803e3d6000fd5b505050506040513d6020811015610e3257600080fd5b5051600182015560408051838152905133917fd8138f8a3f377c5259ca548e70e4c2de94f129f5a11036a15b69513cba2b426a919081900360200190a25090565b7f000000000000000000000000000000000000000000000000000000000000000081565b60076020526000908152604090205481565b336000908152600660205260408120600281015460ff16610efb5760405162461bcd60e51b81526004018080602001828103825260248152602001806128466024913960400191505060405180910390fd5b610f0433611239565b915060008211610f455760405162461bcd60e51b81526004018080602001828103825260418152602001806128ea6041913960600191505060405180910390fd5b8054821415610fee57604080516312796b7560e21b815233600482015260006024820181905291516001600160a01b037f000000000000000000000000000000000000000000000000000000000000000016926349e5add492604480820193602093909283900390910190829087803b158015610fc157600080fd5b505af1158015610fd5573d6000803e3d6000fd5b505050506040513d6020811015610feb57600080fd5b50505b8054611000908363ffffffff61222616565b80825560009061101190849061223b565b6001830154909150611029908263ffffffff61236e16565b60018301556040805184815260208101839052815133927f73f04af9dcc582a923ec15d3eea990fe34adabfff2879e28d44572e01a54abb6928290030190a2611078338463ffffffff61238716565b505090565b7f000000000000000000000000000000000000000000000000000000000000000081565b60045481565b6008546005546000917f000000000000000000000000000000000000000000000000000000000000000002906110ec576110e48482600154612471565b915050610823565b60085460009081907f0000000000000000000000000000000000000000000000000000000000000000027f000000000000000000000000000000000000000000000000000000000000000086111561119d577f00000000000000000000000000000000000000000000000000000000000000008603915060008160015403905061117983826005546124cf565b935083881161119b5761118f8860055483612471565b95505050505050610823565b505b82870396506111ad878583612471565b9091019695505050505050565b7f000000000000000000000000000000000000000000000000000000000000000081565b6111e661147e565b6111ef57600080fd5b600080546040516001600160a01b03909116907f8be0079c531659141344cd1fd0a4f28419497f9722a3daafe3b4186f6b6457e0908390a3600080546001600160a01b0319169055565b6001600160a01b03811660009081526006602052604081208054611261576000915050610811565b60007f00000000000000000000000000000000000000000000000000000000000000006001600160a01b031663d094adbf856040518263ffffffff1660e01b815260040180826001600160a01b03166001600160a01b0316815260200191505060206040518083038186803b1580156112d957600080fd5b505afa1580156112ed573d6000803e3d6000fd5b505050506040513d602081101561130357600080fd5b5051600183015490915060009061132190839063ffffffff61222616565b9050806113345760009350505050610811565b60006113448285600001546110a7565b8454909150811115611354575082545b95945050505050565b60015481565b60025481565b606481565b33600090815260076020526040902054806113d0576040805162461bcd60e51b815260206004820152601860248201527f5468657265206973206e6f20636f6d70656e736174696f6e0000000000000000604482015290519081900360640190fd5b336000818152600760205260408120556113f0908263ffffffff61238716565b60408051828152905133917f1480b15e3eab83a9b923578ffe330e3dce94536007ec9c0b48a5dfbde8c49181919081900360200190a250565b600060045442101580156114405750600854600954145b905090565b60035481565b7f000000000000000000000000000000000000000000000000000000000000000081565b6000546001600160a01b031690565b6000546001600160a01b0316331490565b60045442106114cf5760405162461bcd60e51b815260040180806020018281038252603481526020018061292b6034913960400191505060405180910390fd5b3360009081526006602052604090208054611524576040805162461bcd60e51b815260206004820152601060248201526f139bc8189a59081d1bc818d85b98d95b60821b604482015290519081900360640190fd5b600281015460ff161561157e576040805162461bcd60e51b815260206004820152601a60248201527f546f6b656e732061726520616c726561647920636c61696d6564000000000000604482015290519081900360640190fd5b80546000825560085460028301546000199091019061010090046001600160801b03168114611657576000600882815481106115b657fe5b6000918252602090912001546002850154600880546001600160a01b0390931693508392909161010090046001600160801b03169081106115f357fe5b600091825260208083209190910180546001600160a01b0319166001600160a01b039485161790556002878101549490931682526006905260409020018054610100600160881b031916610100928390046001600160801b03169092029190911790555b600880548061166257fe5b600082815260209020810160001990810180546001600160a01b03191690550190557f00000000000000000000000000000000000000000000000000000000000000008211156116e5576005546116e1907f0000000000000000000000000000000000000000000000000000000000000000840363ffffffff61222616565b6005555b6116f5338363ffffffff61238716565b60408051838152905133917ff3a6ef5718c05d9183af076f5753197b68b04552a763c34796637d6134bdd0f2919081900360200190a2505050565b60055481565b60007f000000000000000000000000000000000000000000000000000000000000000082101561176857506000610811565b600554611784576008546001548161177c57fe5b049050610811565b6008546001546005547f00000000000000000000000000000000000000000000000000000000000000008503927f000000000000000000000000000000000000000000000000000000000000000002909103906117f7906117eb848463ffffffff61251916565b9063ffffffff61254016565b7f000000000000000000000000000000000000000000000000000000000000000001949350505050565b60095481565b600060045442101561186a5760405162461bcd60e51b81526004018080602001828103825260348152602001806129aa6034913960400191505060405180910390fd5b60085460095414156118ad5760405162461bcd60e51b81526004018080602001828103825260218152602001806127d16021913960400191505060405180910390fd5b600954600554611935576008546001547f00000000000000000000000000000000000000000000000000000000000000009190816118e757fe5b041115611930576040805162461bcd60e51b81526020600482015260126024820152714e6f7420656e6f756768206269646465727360701b604482015290519081900360640190fd5b506008545b6008546001546005547f00000000000000000000000000000000000000000000000000000000000000007f00000000000000000000000000000000000000000000000000000000000000008190039302909103906000906119a39083906117eb90869063ffffffff61251916565b7f00000000000000000000000000000000000000000000000000000000000000000190505b600854841080156119d85750855a115b15611a5e576000600885815481106119ec57fe5b60009182526020808320909101546001600160a01b03168083526006909152604090912054909150821015611a525760405162461bcd60e51b815260040180806020018281038252602581526020018061286a6025913960400191505060405180910390fd5b506001909301926119c8565b6009548414611aab576009546040805191825260208201869052805133927f97d5ad02b58968c48057bb16e90b9468ec753e30169bf00692b7ba02b47b090e92908290030190a260098490555b5050600954949350505050565b7f000000000000000000000000000000000000000000000000000000000000000081565b600454421015611b1d5760405162461bcd60e51b81526004018080602001828103825260348152602001806129aa6034913960400191505060405180910390fd5b6008546009541415611b605760405162461bcd60e51b81526004018080602001828103825260218152602001806127d16021913960400191505060405180910390fd5b8080611b9d5760405162461bcd60e51b815260040180806020018281038252602881526020018061281e6028913960400191505060405180910390fd5b600154600090611bd3907f000000000000000000000000000000000000000000000000000000000000000063ffffffff61256216565b600854909150811115611bef57611be8612587565b505061207b565b600084846000818110611bfe57fe5b602090810292909201356001600160a01b03166000818152600690935260409092205491925081905060015b85811015611cdc576000888883818110611c4057fe5b6001600160a01b0360209182029390930135831660008181526006909252604090912054909350918716831190508015611c7a5750600081115b611cb55760405162461bcd60e51b815260040180806020018281038252602c8152602001806127f2602c913960400191505060405180910390fd5b80851115611cc557809450611cd1565b80841015611cd1578093505b509350600101611c2a565b5060608567ffffffffffffffff81118015611cf657600080fd5b50604051908082528060200260200182016040528015611d20578160200160208202803683370190505b509050818314611ddd5760005b86811015611ddb576000898983818110611d4357fe5b905060200201356001600160a01b03169050600060066000836001600160a01b03166001600160a01b0316815260200190815260200160002090508581600001541115611dd15785816000015403848481518110611d9d57fe5b60209081029190910101528581558351849084908110611db957fe5b60200260200101516005600082825403925050819055505b5050600101611d2d565b505b7f0000000000000000000000000000000000000000000000000000000000000000611e0784611736565b11611e435760405162461bcd60e51b81526004018080602001828103825260298152602001806129816029913960400191505060405180910390fd5b6008546001547f00000000000000000000000000000000000000000000000000000000000000007f0000000000000000000000000000000000000000000000000000000000000000819003927f0000000000000000000000000000000000000000000000000000000000000000870392910290036000611f0e611ecc858c63ffffffff61251916565b8303611f02611ee66005548861251990919063ffffffff16565b611ef6878763ffffffff61251916565b9063ffffffff61222616565b9063ffffffff61256216565b90506000611f22888363ffffffff61222616565b600580548d850290039055905060005b8b811015611fad5760008e8e83818110611f4857fe5b905060200201356001600160a01b03169050600060066000836001600160a01b03166001600160a01b03168152602001908152602001600020905084898481518110611f9057fe5b602090810291909101018051909101905283905550600101611f32565b50600060098190555b8b81101561206e5760008e8e83818110611fcc57fe5b905060200201356001600160a01b03169050878281518110611fea57fe5b6020908102919091018101516001600160a01b03831660008181526007909352604090922080549091019055885133907f2887b6da4c721c91735aada87ddc427d4ef240ef9b54e759ef10c0792b409373908b908690811061204857fe5b60200260200101516040518082815260200191505060405180910390a350600101611fb6565b5050505050505050505050505b5050565b6008818154811061208c57fe5b6000918252602090912001546001600160a01b0316905081565b60035442106120e65760405162461bcd60e51b815260040180806020018281038252602e8152602001806127a3602e913960400191505060405180910390fd5b6121216001600160a01b037f00000000000000000000000000000000000000000000000000000000000000001633308463ffffffff61260916565b600180548201905560408051828152905133917f2da466a7b24304f47e87fa2e1e5a81b9831ce54fec19055ce277ca2f39ba42c4919081900360200190a250565b7f000000000000000000000000000000000000000000000000000000000000000081565b61218e61147e565b61219757600080fd5b6121a08161269f565b50565b7f000000000000000000000000000000000000000000000000000000000000000081565b6121cf61147e565b6121d857600080fd5b6121e0611429565b1561221c5760405162461bcd60e51b81526004018080602001828103825260218152602001806129de6021913960400191505060405180910390fd5b612224612587565b565b60008282111561223557600080fd5b50900390565b6008546005546000917f00000000000000000000000000000000000000000000000000000000000000000290612278576110e484600154836124cf565b6000807f0000000000000000000000000000000000000000000000000000000000000000868601116122ac57859150612306565b7f000000000000000000000000000000000000000000000000000000000000000085106122da575084612306565b50507f000000000000000000000000000000000000000000000000000000000000000084840103808503905b6008547f000000000000000000000000000000000000000000000000000000000000000002600083156123415761233e8483876124cf565b90505b82156123635760008260015403905061235d84826005546124cf565b82019150505b979650505050505050565b60008282018381101561238057600080fd5b9392505050565b804710156123dc576040805162461bcd60e51b815260206004820152601d60248201527f416464726573733a20696e73756666696369656e742062616c616e6365000000604482015290519081900360640190fd5b6040516000906001600160a01b0384169083908381818185875af1925050503d8060008114612427576040519150601f19603f3d011682016040523d82523d6000602084013e61242c565b606091505b505090508061246c5760405162461bcd60e51b815260040180806020018281038252603a81526020018061288f603a913960400191505060405180910390fd5b505050565b60006124c761248783606463ffffffff61251916565b6117eb7f00000000000000000000000000000000000000000000000000000000000000006124bb888863ffffffff61251916565b9063ffffffff61251916565b949350505050565b60006124c7612504837f000000000000000000000000000000000000000000000000000000000000000063ffffffff61251916565b611f0260646124bb888863ffffffff61251916565b60008261252857506000610823565b8282028284828161253557fe5b041461238057600080fd5b600080821161254e57600080fd5b600082848161255957fe5b04949350505050565b6000816001612577858363ffffffff61236e16565b038161257f57fe5b049392505050565b600060028190556003556000196004556125dc6125a261146f565b6001546001600160a01b037f000000000000000000000000000000000000000000000000000000000000000016919063ffffffff61270d16565b60405133907f28b4c24cb1012c094cd2f59f98e89d791973295f8fda6eaa118022d6d318960a90600090a2565b604080516323b872dd60e01b81526001600160a01b0385811660048301528481166024830152604482018490529151918616916323b872dd916064808201926020929091908290030181600087803b15801561266457600080fd5b505af1158015612678573d6000803e3d6000fd5b505050506040513d602081101561268e57600080fd5b505161269957600080fd5b50505050565b6001600160a01b0381166126b257600080fd5b600080546040516001600160a01b03808516939216917f8be0079c531659141344cd1fd0a4f28419497f9722a3daafe3b4186f6b6457e091a3600080546001600160a01b0319166001600160a01b0392909216919091179055565b826001600160a01b031663a9059cbb83836040518363ffffffff1660e01b815260040180836001600160a01b03166001600160a01b0316815260200182815260200192505050602060405180830381600087803b15801561276d57600080fd5b505af1158015612781573d6000803e3d6000fd5b505050506040513d602081101561279757600080fd5b505161246c57600080fdfe43616e2774206465706f736974206d6f726520746f6b656e7320616674657220656e64206f662062696464696e6742696464657273206861766520616c7265616479206265656e20636865636b6564416464726573736573206d75737420626520616e206172726179206f6620756e6971756520626964646572734d757374206265206174206c65617374206f6e652062696464657220666f72206120726566756e64546f6b656e73206d75737420626520636c61696d6564206265666f726520726566756e644269642069732067726561746572207468616e206d617820616c6c6f7761626c6520626964416464726573733a20756e61626c6520746f2073656e642076616c75652c20726563697069656e74206d61792068617665207265766572746564436c61696d696e6720686173206e6f74206265656e20656e61626c6564207965744e6f7468696e6720746f20726566756e643a207468657265206973206e6f2045544820746f20726566756e64206f72206e6f20636f6d706c6574656420776f726b43616e63656c6c6174696f6e20616c6c6f776564206f6e6c7920647572696e672063616e63656c6c6174696f6e2077696e646f774e6f7420656e6f75676820746f6b656e7320666f72206d6f726520626964646572734174206c65617374206f6e65206f6620626964646572732068617320616c6c6f7761626c65206269644f7065726174696f6e20697320616c6c6f776564207768656e2063616e63656c6c6174696f6e207068617365206973206f766572436c61696d696e672068617320616c7265616479206265656e20656e61626c6564a264697066735822122090d9767a6d2af37a6fc99a3ab7f29b502807405a10609eb221ac0d8e5c85f6f264736f6c63430006070033",
  "bytecodeSha1": "0927ffd54d909f48de9dace68da8411230404a37",
  "compiler": {
    "evm_version": "berlin",
    "optimizer": {
      "enabled": true,
      "runs": 200
    },
    "version": "0.6.7"
  },
  "contractName": "WorkLock",
  "language": "Solidity",
  "natspec": {
    "methods": {
      "bid()": {
        "notice": "Bid for tokens by transferring ETH"
      },
      "cancelBid()": {
        "notice": "Cancel bid and refund deposited ETH"
      },
      "claim()": {
        "notice": "Claimed tokens will be deposited and locked as stake in the StakingEscrow contract."
      },
      "constructor": {
        "params": {
          "_boostingRefund": "Coefficient to boost refund ETH",
          "_endBidDate": "Timestamp when bidding will end",
          "_endCancellationDate": "Timestamp when cancellation will ends",
          "_escrow": "Escrow contract",
          "_minAllowedBid": "Minimum allowed ETH amount for bidding",
          "_stakingPeriods": "Amount of periods during which tokens will be locked after claiming",
          "_startBidDate": "Timestamp when bidding starts",
          "_token": "Token contract"
        }
      },
      "ethToTokens(uint256)": {
        "details": "This value will be fixed only after end of bidding",
        "notice": "Calculate amount of tokens that will be get for specified amount of ETH"
      },
      "ethToWork(uint256)": {
        "details": "This value will be fixed only after end of bidding",
        "notice": "Calculate amount of work that need to be done to refund specified amount of ETH"
      },
      "forceRefund(address[])": {
        "notice": "Make force refund to bidders who can get tokens more than maximum allowed",
        "params": {
          "_biddersForRefund": "Sorted list of unique bidders. Only bidders who must receive a refund"
        }
      },
      "getAvailableRefund(address)": {
        "notice": "Get available refund for bidder"
      },
      "getBiddersLength()": {
        "notice": "Get length of bidders array"
      },
      "getRemainingWork(address)": {
        "notice": "Get remaining work to full refund"
      },
      "isClaimingAvailable()": {
        "notice": "Checks if claiming available"
      },
      "refund()": {
        "notice": "Refund ETH for the completed work"
      },
      "renounceOwnership()": {
        "details": "Allows the current owner to relinquish control of the contract.",
        "notice": "Renouncing to ownership will leave the contract without an owner. It will not be possible to call the functions with the `onlyOwner` modifier anymore."
      },
      "shutdown()": {
        "notice": "Cancels distribution, makes possible to retrieve all bids and owner gets all tokens"
      },
      "tokenDeposit(uint256)": {
        "notice": "Deposit tokens to contract",
        "params": {
          "_value": "Amount of tokens to transfer"
        }
      },
      "transferOwnership(address)": {
        "details": "Allows the current owner to transfer control of the contract to a newOwner.",
        "params": {
          "newOwner": "The address to transfer ownership to."
        }
      },
      "verifyBiddingCorrectness(uint256)": {
        "details": "Method stops working when the remaining gas is less than `_gasToSaveState` and saves the state in `nextBidderToCheck`. If all bidders have been checked then `nextBidderToCheck` will be equal to the length of the bidders array",
        "notice": "Check that the claimed tokens are within `maxAllowableLockedTokens` for all participants, starting from the last point `nextBidderToCheck`"
      },
      "withdrawCompensation()": {
        "notice": "Withdraw compensation after force refund"
      },
      "workToETH(uint256,uint256)": {
        "details": "This value will be fixed only after end of bidding",
        "notice": "Calculate amount of ETH that will be refund for completing specified amount of work"
      }
    },
    "notice": "The WorkLock distribution contract"
  },
  "opcodes": "PUSH1 0x80 PUSH1 0x40 MSTORE PUSH1 0x4 CALLDATASIZE LT PUSH2 0x21A JUMPI PUSH1 0x0 CALLDATALOAD PUSH1 0xE0 SHR DUP1 PUSH4 0x87A15DC9 GT PUSH2 0x123 JUMPI DUP1 PUSH4 0xB15CF964 GT PUSH2 0xAB JUMPI DUP1 PUSH4 0xE1FE7D23 GT PUSH2 0x6F JUMPI DUP1 PUSH4 0xE1FE7D23 EQ PUSH2 0x68B JUMPI DUP1 PUSH4 0xE2FDCC17 EQ PUSH2 0x6B5 JUMPI DUP1 PUSH4 0xF2FDE38B EQ PUSH2 0x6CA JUMPI DUP1 PUSH4 0xFC0C546A EQ PUSH2 0x6FD JUMPI DUP1 PUSH4 0xFC0E74D1 EQ PUSH2 0x712 JUMPI PUSH2 0x21A JUMP JUMPDEST DUP1 PUSH4 0xB15CF964 EQ PUSH2 0x590 JUMPI DUP1 PUSH4 0xBC859F44 EQ PUSH2 0x5A5 JUMPI DUP1 PUSH4 0xBE7FF580 EQ PUSH2 0x5CF JUMPI DUP1 PUSH4 0xCBCE49ED EQ PUSH2 0x5E4 JUMPI DUP1 PUSH4 0xCFF29DFD EQ PUSH2 0x661 JUMPI PUSH2 0x21A JUMP JUMPDEST DUP1 PUSH4 0x8DA5CB5B GT PUSH2 0xF2 JUMPI DUP1 PUSH4 0x8DA5CB5B EQ PUSH2 0x4F6 JUMPI DUP1 PUSH4 0x8F32D59B EQ PUSH2 0x527 JUMPI DUP1 PUSH4 0x9435C887 EQ PUSH2 0x53C JUMPI DUP1 PUSH4 0x9B51AC85 EQ PUSH2 0x551 JUMPI DUP1 PUSH4 0xA4C89322 EQ PUSH2 0x566 JUMPI PUSH2 0x21A JUMP JUMPDEST DUP1 PUSH4 0x87A15DC9 EQ PUSH2 0x48E JUMPI DUP1 PUSH4 0x88657C7A EQ PUSH2 0x4A3 JUMPI DUP1 PUSH4 0x897DB45C EQ PUSH2 0x4CC JUMPI DUP1 PUSH4 0x8CAB6C4F EQ PUSH2 0x4E1 JUMPI PUSH2 0x21A JUMP JUMPDEST DUP1 PUSH4 0x5BF997F5 GT PUSH2 0x1A6 JUMPI DUP1 PUSH4 0x715018A6 GT PUSH2 0x175 JUMPI DUP1 PUSH4 0x715018A6 EQ PUSH2 0x3F0 JUMPI DUP1 PUSH4 0x72F96040 EQ PUSH2 0x405 JUMPI DUP1 PUSH4 0x7824407F EQ PUSH2 0x438 JUMPI DUP1 PUSH4 0x7F4FAD69 EQ PUSH2 0x44D JUMPI DUP1 PUSH4 0x87865033 EQ PUSH2 0x462 JUMPI PUSH2 0x21A JUMP JUMPDEST DUP1 PUSH4 0x5BF997F5 EQ PUSH2 0x381 JUMPI DUP1 PUSH4 0x617E677E EQ PUSH2 0x396 JUMPI DUP1 PUSH4 0x66ADE78E EQ PUSH2 0x3AB JUMPI DUP1 PUSH4 0x6FB653A2 EQ PUSH2 0x3DB JUMPI PUSH2 0x21A JUMP JUMPDEST DUP1 PUSH4 0x1F45002C GT PUSH2 0x1ED JUMPI DUP1 PUSH4 0x1F45002C EQ PUSH2 0x2AD JUMPI DUP1 PUSH4 0x4E71D92D EQ PUSH2 0x30F JUMPI DUP1 PUSH4 0x4F1910A1 EQ PUSH2 0x324 JUMPI DUP1 PUSH4 0x5707BEE5 EQ PUSH2 0x339 JUMPI DUP1 PUSH4 0x590E1AE3 EQ PUSH2 0x36C JUMPI PUSH2 0x21A JUMP JUMPDEST DUP1 PUSH4 0x594851C EQ PUSH2 0x21F JUMPI DUP1 PUSH4 0x124A1F4F EQ PUSH2 0x264 JUMPI DUP1 PUSH4 0x1998AEEF EQ PUSH2 0x28E JUMPI DUP1 PUSH4 0x1BB89762 EQ PUSH2 0x298 JUMPI JUMPDEST PUSH1 0x0 DUP1 REVERT JUMPDEST CALLVALUE DUP1 ISZERO PUSH2 0x22B JUMPI PUSH1 0x0 DUP1 REVERT JUMPDEST POP PUSH2 0x252 PUSH1 0x4 DUP1 CALLDATASIZE SUB PUSH1 0x20 DUP2 LT ISZERO PUSH2 0x242 JUMPI PUSH1 0x0 DUP1 REVERT JUMPDEST POP CALLDATALOAD PUSH1 0x1 PUSH1 0x1 PUSH1 0xA0 SHL SUB AND PUSH2 0x727 JUMP JUMPDEST PUSH1 0x40 DUP1 MLOAD SWAP2 DUP3 MSTORE MLOAD SWAP1 DUP2 SWAP1 SUB PUSH1 0x20 ADD SWAP1 RETURN JUMPDEST CALLVALUE DUP1 ISZERO PUSH2 0x270 JUMPI PUSH1 0x0 DUP1 REVERT JUMPDEST POP PUSH2 0x252 PUSH1 0x4 DUP1 CALLDATASIZE SUB PUSH1 0x20 DUP2 LT ISZERO PUSH2 0x287 JUMPI PUSH1 0x0 DUP1 REVERT JUMPDEST POP CALLDATALOAD PUSH2 0x816 JUMP JUMPDEST PUSH2 0x296 PUSH2 0x829 JUMP JUMPDEST STOP JUMPDEST CALLVALUE DUP1 ISZERO PUSH2 0x2A4 JUMPI PUSH1 0x0 DUP1 REVERT JUMPDEST POP PUSH2 0x252 PUSH2 0xADB JUMP JUMPDEST CALLVALUE DUP1 ISZERO PUSH2 0x2B9 JUMPI PUSH1 0x0 DUP1 REVERT JUMPDEST POP PUSH2 0x2E0 PUSH1 0x4 DUP1 CALLDATASIZE SUB PUSH1 0x20 DUP2 LT ISZERO PUSH2 0x2D0 JUMPI PUSH1 0x0 DUP1 REVERT JUMPDEST POP CALLDATALOAD PUSH1 0x1 PUSH1 0x1 PUSH1 0xA0 SHL SUB AND PUSH2 0xAE1 JUMP JUMPDEST PUSH1 0x40 DUP1 MLOAD SWAP5 DUP6 MSTORE PUSH1 0x20 DUP6 ADD SWAP4 SWAP1 SWAP4 MSTORE SWAP1 ISZERO ISZERO DUP4 DUP4 ADD MSTORE PUSH1 0x1 PUSH1 0x1 PUSH1 0x80 SHL SUB AND PUSH1 0x60 DUP4 ADD MSTORE MLOAD SWAP1 DUP2 SWAP1 SUB PUSH1 0x80 ADD SWAP1 RETURN JUMPDEST CALLVALUE DUP1 ISZERO PUSH2 0x31B JUMPI PUSH1 0x0 DUP1 REVERT JUMPDEST POP PUSH2 0x252 PUSH2 0xB15 JUMP JUMPDEST CALLVALUE DUP1 ISZERO PUSH2 0x330 JUMPI PUSH1 0x0 DUP1 REVERT JUMPDEST POP PUSH2 0x252 PUSH2 0xE73 JUMP JUMPDEST CALLVALUE DUP1 ISZERO PUSH2 0x345 JUMPI PUSH1 0x0 DUP1 REVERT JUMPDEST POP PUSH2 0x252 PUSH1 0x4 DUP1 CALLDATASIZE SUB PUSH1 0x20 DUP2 LT ISZERO PUSH2 0x35C JUMPI PUSH1 0x0 DUP1 REVERT JUMPDEST POP CALLDATALOAD PUSH1 0x1 PUSH1 0x1 PUSH1 0xA0 SHL SUB AND PUSH2 0xE97 JUMP JUMPDEST CALLVALUE DUP1 ISZERO PUSH2 0x378 JUMPI PUSH1 0x0 DUP1 REVERT JUMPDEST POP PUSH2 0x252 PUSH2 0xEA9 JUMP JUMPDEST CALLVALUE DUP1 ISZERO PUSH2 0x38D JUMPI PUSH1 0x0 DUP1 REVERT JUMPDEST POP PUSH2 0x252 PUSH2 0x107D JUMP JUMPDEST CALLVALUE DUP1 ISZERO PUSH2 0x3A2 JUMPI PUSH1 0x0 DUP1 REVERT JUMPDEST POP PUSH2 0x252 PUSH2 0x10A1 JUMP JUMPDEST CALLVALUE DUP1 ISZERO PUSH2 0x3B7 JUMPI PUSH1 0x0 DUP1 REVERT JUMPDEST POP PUSH2 0x252 PUSH1 0x4 DUP1 CALLDATASIZE SUB PUSH1 0x40 DUP2 LT ISZERO PUSH2 0x3CE JUMPI PUSH1 0x0 DUP1 REVERT JUMPDEST POP DUP1 CALLDATALOAD SWAP1 PUSH1 0x20 ADD CALLDATALOAD PUSH2 0x10A7 JUMP JUMPDEST CALLVALUE DUP1 ISZERO PUSH2 0x3E7 JUMPI PUSH1 0x0 DUP1 REVERT JUMPDEST POP PUSH2 0x252 PUSH2 0x11BA JUMP JUMPDEST CALLVALUE DUP1 ISZERO PUSH2 0x3FC JUMPI PUSH1 0x0 DUP1 REVERT JUMPDEST POP PUSH2 0x296 PUSH2 0x11DE JUMP JUMPDEST CALLVALUE DUP1 ISZERO PUSH2 0x411 JUMPI PUSH1 0x0 DUP1 REVERT JUMPDEST POP PUSH2 0x252 PUSH1 0x4 DUP1 CALLDATASIZE SUB PUSH1 0x20 DUP2 LT ISZERO PUSH2 0x428 JUMPI PUSH1 0x0 DUP1 REVERT JUMPDEST POP CALLDATALOAD PUSH1 0x1 PUSH1 0x1 PUSH1 0xA0 SHL SUB AND PUSH2 0x1239 JUMP JUMPDEST CALLVALUE DUP1 ISZERO PUSH2 0x444 JUMPI PUSH1 0x0 DUP1 REVERT JUMPDEST POP PUSH2 0x252 PUSH2 0x135D JUMP JUMPDEST CALLVALUE DUP1 ISZERO PUSH2 0x459 JUMPI PUSH1 0x0 DUP1 REVERT JUMPDEST POP PUSH2 0x252 PUSH2 0x1363 JUMP JUMPDEST CALLVALUE DUP1 ISZERO PUSH2 0x46E JUMPI PUSH1 0x0 DUP1 REVERT JUMPDEST POP PUSH2 0x477 PUSH2 0x1369 JUMP JUMPDEST PUSH1 0x40 DUP1 MLOAD PUSH2 0xFFFF SWAP1 SWAP3 AND DUP3 MSTORE MLOAD SWAP1 DUP2 SWAP1 SUB PUSH1 0x20 ADD SWAP1 RETURN JUMPDEST CALLVALUE DUP1 ISZERO PUSH2 0x49A JUMPI PUSH1 0x0 DUP1 REVERT JUMPDEST POP PUSH2 0x296 PUSH2 0x136E JUMP JUMPDEST CALLVALUE DUP1 ISZERO PUSH2 0x4AF JUMPI PUSH1 0x0 DUP1 REVERT JUMPDEST POP PUSH2 0x4B8 PUSH2 0x1429 JUMP JUMPDEST PUSH1 0x40 DUP1 MLOAD SWAP2 ISZERO ISZERO DUP3 MSTORE MLOAD SWAP1 DUP2 SWAP1 SUB PUSH1 0x20 ADD SWAP1 RETURN JUMPDEST CALLVALUE DUP1 ISZERO PUSH2 0x4D8 JUMPI PUSH1 0x0 DUP1 REVERT JUMPDEST POP PUSH2 0x252 PUSH2 0x1445 JUMP JUMPDEST CALLVALUE DUP1 ISZERO PUSH2 0x4ED JUMPI PUSH1 0x0 DUP1 REVERT JUMPDEST POP PUSH2 0x252 PUSH2 0x144B JUMP JUMPDEST CALLVALUE DUP1 ISZERO PUSH2 0x502 JUMPI PUSH1 0x0 DUP1 REVERT JUMPDEST POP PUSH2 0x50B PUSH2 0x146F JUMP JUMPDEST PUSH1 0x40 DUP1 MLOAD PUSH1 0x1 PUSH1 0x1 PUSH1 0xA0 SHL SUB SWAP1 SWAP3 AND DUP3 MSTORE MLOAD SWAP1 DUP2 SWAP1 SUB PUSH1 0x20 ADD SWAP1 RETURN JUMPDEST CALLVALUE DUP1 ISZERO PUSH2 0x533 JUMPI PUSH1 0x0 DUP1 REVERT JUMPDEST POP PUSH2 0x4B8 PUSH2 0x147E JUMP JUMPDEST CALLVALUE DUP1 ISZERO PUSH2 0x548 JUMPI PUSH1 0x0 DUP1 REVERT JUMPDEST POP PUSH2 0x296 PUSH2 0x148F JUMP JUMPDEST CALLVALUE DUP1 ISZERO PUSH2 0x55D JUMPI PUSH1 0x0 DUP1 REVERT JUMPDEST POP PUSH2 0x252 PUSH2 0x1730 JUMP JUMPDEST CALLVALUE DUP1 ISZERO PUSH2 0x572 JUMPI PUSH1 0x0 DUP1 REVERT JUMPDEST POP PUSH2 0x252 PUSH1 0x4 DUP1 CALLDATASIZE SUB PUSH1 0x20 DUP2 LT ISZERO PUSH2 0x589 JUMPI PUSH1 0x0 DUP1 REVERT JUMPDEST POP CALLDATALOAD PUSH2 0x1736 JUMP JUMPDEST CALLVALUE DUP1 ISZERO PUSH2 0x59C JUMPI PUSH1 0x0 DUP1 REVERT JUMPDEST POP PUSH2 0x252 PUSH2 0x1821 JUMP JUMPDEST CALLVALUE DUP1 ISZERO PUSH2 0x5B1 JUMPI PUSH1 0x0 DUP1 REVERT JUMPDEST POP PUSH2 0x252 PUSH1 0x4 DUP1 CALLDATASIZE SUB PUSH1 0x20 DUP2 LT ISZERO PUSH2 0x5C8 JUMPI PUSH1 0x0 DUP1 REVERT JUMPDEST POP CALLDATALOAD PUSH2 0x1827 JUMP JUMPDEST CALLVALUE DUP1 ISZERO PUSH2 0x5DB JUMPI PUSH1 0x0 DUP1 REVERT JUMPDEST POP PUSH2 0x477 PUSH2 0x1AB8 JUMP JUMPDEST CALLVALUE DUP1 ISZERO PUSH2 0x5F0 JUMPI PUSH1 0x0 DUP1 REVERT JUMPDEST POP PUSH2 0x296 PUSH1 0x4 DUP1 CALLDATASIZE SUB PUSH1 0x20 DUP2 LT ISZERO PUSH2 0x607 JUMPI PUSH1 0x0 DUP1 REVERT JUMPDEST DUP2 ADD SWAP1 PUSH1 0x20 DUP2 ADD DUP2 CALLDATALOAD PUSH5 0x100000000 DUP2 GT ISZERO PUSH2 0x622 JUMPI PUSH1 0x0 DUP1 REVERT JUMPDEST DUP3 ADD DUP4 PUSH1 0x20 DUP3 ADD GT ISZERO PUSH2 0x634 JUMPI PUSH1 0x0 DUP1 REVERT JUMPDEST DUP1 CALLDATALOAD SWAP1 PUSH1 0x20 ADD SWAP2 DUP5 PUSH1 0x20 DUP4 MUL DUP5 ADD GT PUSH5 0x100000000 DUP4 GT OR ISZERO PUSH2 0x656 JUMPI PUSH1 0x0 DUP1 REVERT JUMPDEST POP SWAP1 SWAP3 POP SWAP1 POP PUSH2 0x1ADC JUMP JUMPDEST CALLVALUE DUP1 ISZERO PUSH2 0x66D JUMPI PUSH1 0x0 DUP1 REVERT JUMPDEST POP PUSH2 0x50B PUSH1 0x4 DUP1 CALLDATASIZE SUB PUSH1 0x20 DUP2 LT ISZERO PUSH2 0x684 JUMPI PUSH1 0x0 DUP1 REVERT JUMPDEST POP CALLDATALOAD PUSH2 0x207F JUMP JUMPDEST CALLVALUE DUP1 ISZERO PUSH2 0x697 JUMPI PUSH1 0x0 DUP1 REVERT JUMPDEST POP PUSH2 0x296 PUSH1 0x4 DUP1 CALLDATASIZE SUB PUSH1 0x20 DUP2 LT ISZERO PUSH2 0x6AE JUMPI PUSH1 0x0 DUP1 REVERT JUMPDEST POP CALLDATALOAD PUSH2 0x20A6 JUMP JUMPDEST CALLVALUE DUP1 ISZERO PUSH2 0x6C1 JUMPI PUSH1 0x0 DUP1 REVERT JUMPDEST POP PUSH2 0x50B PUSH2 0x2162 JUMP JUMPDEST CALLVALUE DUP1 ISZERO PUSH2 0x6D6 JUMPI PUSH1 0x0 DUP1 REVERT JUMPDEST POP PUSH2 0x296 PUSH1 0x4 DUP1 CALLDATASIZE SUB PUSH1 0x20 DUP2 LT ISZERO PUSH2 0x6ED JUMPI PUSH1 0x0 DUP1 REVERT JUMPDEST POP CALLDATALOAD PUSH1 0x1 PUSH1 0x1 PUSH1 0xA0 SHL SUB AND PUSH2 0x2186 JUMP JUMPDEST CALLVALUE DUP1 ISZERO PUSH2 0x709 JUMPI PUSH1 0x0 DUP1 REVERT JUMPDEST POP PUSH2 0x50B PUSH2 0x21A3 JUMP JUMPDEST CALLVALUE DUP1 ISZERO PUSH2 0x71E JUMPI PUSH1 0x0 DUP1 REVERT JUMPDEST POP PUSH2 0x296 PUSH2 0x21C7 JUMP JUMPDEST PUSH1 0x1 PUSH1 0x1 PUSH1 0xA0 SHL SUB DUP1 DUP3 AND PUSH1 0x0 DUP2 DUP2 MSTORE PUSH1 0x6 PUSH1 0x20 SWAP1 DUP2 MSTORE PUSH1 0x40 DUP1 DUP4 KECCAK256 PUSH1 0x1 DUP2 ADD SLOAD DUP3 MLOAD PUSH4 0xD094ADBF PUSH1 0xE0 SHL DUP2 MSTORE PUSH1 0x4 DUP2 ADD SWAP7 SWAP1 SWAP7 MSTORE SWAP2 MLOAD SWAP4 SWAP6 SWAP1 SWAP5 DUP7 SWAP5 PUSH2 0x7E6 SWAP5 PUSH32 0x0 SWAP1 SWAP4 AND SWAP3 PUSH4 0xD094ADBF SWAP3 PUSH1 0x24 DUP1 DUP3 ADD SWAP4 SWAP2 DUP3 SWAP1 SUB ADD DUP2 DUP7 DUP1 EXTCODESIZE ISZERO DUP1 ISZERO PUSH2 0x7AE JUMPI PUSH1 0x0 DUP1 REVERT JUMPDEST POP GAS STATICCALL ISZERO DUP1 ISZERO PUSH2 0x7C2 JUMPI RETURNDATASIZE PUSH1 0x0 DUP1 RETURNDATACOPY RETURNDATASIZE PUSH1 0x0 REVERT JUMPDEST POP POP POP POP PUSH1 0x40 MLOAD RETURNDATASIZE PUSH1 0x20 DUP2 LT ISZERO PUSH2 0x7D8 JUMPI PUSH1 0x0 DUP1 REVERT JUMPDEST POP MLOAD SWAP1 PUSH4 0xFFFFFFFF PUSH2 0x2226 AND JUMP JUMPDEST SWAP1 POP PUSH1 0x0 PUSH2 0x7F7 DUP4 PUSH1 0x0 ADD SLOAD PUSH2 0x816 JUMP JUMPDEST SWAP1 POP DUP2 DUP2 GT PUSH2 0x80C JUMPI PUSH1 0x0 SWAP4 POP POP POP POP PUSH2 0x811 JUMP JUMPDEST SUB SWAP2 POP POP JUMPDEST SWAP2 SWAP1 POP JUMP JUMPDEST PUSH1 0x0 PUSH2 0x823 DUP3 PUSH1 0x0 PUSH2 0x223B JUMP JUMPDEST SWAP3 SWAP2 POP POP JUMP JUMPDEST PUSH1 0x2 SLOAD TIMESTAMP LT ISZERO PUSH2 0x880 JUMPI PUSH1 0x40 DUP1 MLOAD PUSH3 0x461BCD PUSH1 0xE5 SHL DUP2 MSTORE PUSH1 0x20 PUSH1 0x4 DUP3 ADD MSTORE PUSH1 0x17 PUSH1 0x24 DUP3 ADD MSTORE PUSH32 0x42696464696E67206973206E6F74206F70656E20796574000000000000000000 PUSH1 0x44 DUP3 ADD MSTORE SWAP1 MLOAD SWAP1 DUP2 SWAP1 SUB PUSH1 0x64 ADD SWAP1 REVERT JUMPDEST PUSH1 0x3 SLOAD TIMESTAMP LT PUSH2 0x8D6 JUMPI PUSH1 0x40 DUP1 MLOAD PUSH3 0x461BCD PUSH1 0xE5 SHL DUP2 MSTORE PUSH1 0x20 PUSH1 0x4 DUP3 ADD MSTORE PUSH1 0x1B PUSH1 0x24 DUP3 ADD MSTORE PUSH32 0x42696464696E6720697320616C72656164792066696E69736865640000000000 PUSH1 0x44 DUP3 ADD MSTORE SWAP1 MLOAD SWAP1 DUP2 SWAP1 SUB PUSH1 0x64 ADD SWAP1 REVERT JUMPDEST CALLER PUSH1 0x0 SWAP1 DUP2 MSTORE PUSH1 0x6 PUSH1 0x20 MSTORE PUSH1 0x40 SWAP1 KECCAK256 DUP1 SLOAD PUSH2 0xA77 JUMPI PUSH32 0x0 CALLVALUE LT ISZERO PUSH2 0x960 JUMPI PUSH1 0x40 DUP1 MLOAD PUSH3 0x461BCD PUSH1 0xE5 SHL DUP2 MSTORE PUSH1 0x20 PUSH1 0x4 DUP3 ADD MSTORE PUSH1 0x1C PUSH1 0x24 DUP3 ADD MSTORE PUSH32 0x426964206D757374206265206174206C65617374206D696E696D756D00000000 PUSH1 0x44 DUP3 ADD MSTORE SWAP1 MLOAD SWAP1 DUP2 SWAP1 SUB PUSH1 0x64 ADD SWAP1 REVERT JUMPDEST PUSH32 0x0 PUSH1 0x1 SLOAD DUP2 PUSH2 0x98B JUMPI INVALID JUMPDEST DIV PUSH1 0x8 DUP1 SLOAD SWAP1 POP LT PUSH2 0x9CE JUMPI PUSH1 0x40 MLOAD PUSH3 0x461BCD PUSH1 0xE5 SHL DUP2 MSTORE PUSH1 0x4 ADD DUP1 DUP1 PUSH1 0x20 ADD DUP3 DUP2 SUB DUP3 MSTORE PUSH1 0x22 DUP2 MSTORE PUSH1 0x20 ADD DUP1 PUSH2 0x295F PUSH1 0x22 SWAP2 CODECOPY PUSH1 0x40 ADD SWAP2 POP POP PUSH1 0x40 MLOAD DUP1 SWAP2 SUB SWAP1 REVERT JUMPDEST PUSH1 0x8 DUP1 SLOAD PUSH1 0x2 DUP4 ADD DUP1 SLOAD PUSH1 0x1 PUSH1 0x1 PUSH1 0x80 SHL SUB SWAP1 SWAP3 AND PUSH2 0x100 MUL PUSH2 0x100 PUSH1 0x1 PUSH1 0x88 SHL SUB NOT SWAP1 SWAP3 AND SWAP2 SWAP1 SWAP2 OR SWAP1 SSTORE DUP1 SLOAD PUSH1 0x1 DUP2 ADD DUP3 SSTORE PUSH1 0x0 SWAP2 SWAP1 SWAP2 MSTORE PUSH32 0xF3F7A9FE364FAAB93B216DA50A3214154F22A0A2B415B23A84C8169E8B636EE3 ADD DUP1 SLOAD PUSH1 0x1 PUSH1 0x1 PUSH1 0xA0 SHL SUB NOT AND CALLER OR SWAP1 SSTORE PUSH1 0x5 SLOAD PUSH2 0xA6F SWAP1 PUSH32 0x0 CALLVALUE SUB PUSH4 0xFFFFFFFF PUSH2 0x236E AND JUMP JUMPDEST PUSH1 0x5 SSTORE PUSH2 0xA8E JUMP JUMPDEST PUSH1 0x5 SLOAD PUSH2 0xA8A SWAP1 CALLVALUE PUSH4 0xFFFFFFFF PUSH2 0x236E AND JUMP JUMPDEST PUSH1 0x5 SSTORE JUMPDEST DUP1 SLOAD PUSH2 0xAA0 SWAP1 CALLVALUE PUSH4 0xFFFFFFFF PUSH2 0x236E AND JUMP JUMPDEST DUP2 SSTORE PUSH1 0x40 DUP1 MLOAD CALLVALUE DUP2 MSTORE SWAP1 MLOAD CALLER SWAP2 PUSH32 0xE684A55F31B79ECA403DF938249029212A5925EC6BE8012E099B45BC1019E5D2 SWAP2 SWAP1 DUP2 SWAP1 SUB PUSH1 0x20 ADD SWAP1 LOG2 POP JUMP JUMPDEST PUSH1 0x8 SLOAD SWAP1 JUMP JUMPDEST PUSH1 0x6 PUSH1 0x20 MSTORE PUSH1 0x0 SWAP1 DUP2 MSTORE PUSH1 0x40 SWAP1 KECCAK256 DUP1 SLOAD PUSH1 0x1 DUP3 ADD SLOAD PUSH1 0x2 SWAP1 SWAP3 ADD SLOAD SWAP1 SWAP2 SWAP1 PUSH1 0xFF DUP2 AND SWAP1 PUSH2 0x100 SWAP1 DIV PUSH1 0x1 PUSH1 0x1 PUSH1 0x80 SHL SUB AND DUP5 JUMP JUMPDEST PUSH1 0x0 PUSH2 0xB1F PUSH2 0x1429 JUMP JUMPDEST PUSH2 0xB5A JUMPI PUSH1 0x40 MLOAD PUSH3 0x461BCD PUSH1 0xE5 SHL DUP2 MSTORE PUSH1 0x4 ADD DUP1 DUP1 PUSH1 0x20 ADD DUP3 DUP2 SUB DUP3 MSTORE PUSH1 0x21 DUP2 MSTORE PUSH1 0x20 ADD DUP1 PUSH2 0x28C9 PUSH1 0x21 SWAP2 CODECOPY PUSH1 0x40 ADD SWAP2 POP POP PUSH1 0x40 MLOAD DUP1 SWAP2 SUB SWAP1 REVERT JUMPDEST CALLER PUSH1 0x0 SWAP1 DUP2 MSTORE PUSH1 0x6 PUSH1 0x20 MSTORE PUSH1 0x40 SWAP1 KECCAK256 PUSH1 0x2 DUP2 ADD SLOAD PUSH1 0xFF AND ISZERO PUSH2 0xBC3 JUMPI PUSH1 0x40 DUP1 MLOAD PUSH3 0x461BCD PUSH1 0xE5 SHL DUP2 MSTORE PUSH1 0x20 PUSH1 0x4 DUP3 ADD MSTORE PUSH1 0x1A PUSH1 0x24 DUP3 ADD MSTORE PUSH32 0x546F6B656E732061726520616C726561647920636C61696D6564000000000000 PUSH1 0x44 DUP3 ADD MSTORE SWAP1 MLOAD SWAP1 DUP2 SWAP1 SUB PUSH1 0x64 ADD SWAP1 REVERT JUMPDEST DUP1 SLOAD PUSH2 0xBCE SWAP1 PUSH2 0x1736 JUMP JUMPDEST SWAP2 POP PUSH1 0x0 DUP3 GT PUSH2 0xC18 JUMPI PUSH1 0x40 DUP1 MLOAD PUSH3 0x461BCD PUSH1 0xE5 SHL DUP2 MSTORE PUSH1 0x20 PUSH1 0x4 DUP3 ADD MSTORE PUSH1 0x10 PUSH1 0x24 DUP3 ADD MSTORE PUSH16 0x4E6F7468696E6720746F20636C61696D PUSH1 0x80 SHL PUSH1 0x44 DUP3 ADD MSTORE SWAP1 MLOAD SWAP1 DUP2 SWAP1 SUB PUSH1 0x64 ADD SWAP1 REVERT JUMPDEST PUSH1 0x2 DUP2 ADD DUP1 SLOAD PUSH1 0xFF NOT AND PUSH1 0x1 OR SWAP1 SSTORE PUSH1 0x40 DUP1 MLOAD PUSH4 0x95EA7B3 PUSH1 0xE0 SHL DUP2 MSTORE PUSH32 0x0 PUSH1 0x1 PUSH1 0x1 PUSH1 0xA0 SHL SUB SWAP1 DUP2 AND PUSH1 0x4 DUP4 ADD MSTORE PUSH1 0x24 DUP3 ADD DUP6 SWAP1 MSTORE SWAP2 MLOAD PUSH32 0x0 SWAP3 SWAP1 SWAP3 AND SWAP2 PUSH4 0x95EA7B3 SWAP2 PUSH1 0x44 DUP1 DUP3 ADD SWAP3 PUSH1 0x20 SWAP3 SWAP1 SWAP2 SWAP1 DUP3 SWAP1 SUB ADD DUP2 PUSH1 0x0 DUP8 DUP1 EXTCODESIZE ISZERO DUP1 ISZERO PUSH2 0xCBD JUMPI PUSH1 0x0 DUP1 REVERT JUMPDEST POP GAS CALL ISZERO DUP1 ISZERO PUSH2 0xCD1 JUMPI RETURNDATASIZE PUSH1 0x0 DUP1 RETURNDATACOPY RETURNDATASIZE PUSH1 0x0 REVERT JUMPDEST POP POP POP POP PUSH1 0x40 MLOAD RETURNDATASIZE PUSH1 0x20 DUP2 LT ISZERO PUSH2 0xCE7 JUMPI PUSH1 0x0 DUP1 REVERT JUMPDEST POP POP PUSH1 0x40 DUP1 MLOAD PUSH4 0x69687033 PUSH1 0xE1 SHL DUP2 MSTORE CALLER PUSH1 0x4 DUP3 ADD MSTORE PUSH1 0x24 DUP2 ADD DUP5 SWAP1 MSTORE PUSH2 0xFFFF PUSH32 0x0 AND PUSH1 0x44 DUP3 ADD MSTORE SWAP1 MLOAD PUSH1 0x1 PUSH1 0x1 PUSH1 0xA0 SHL SUB PUSH32 0x0 AND SWAP2 PUSH4 0xD2D0E066 SWAP2 PUSH1 0x64 DUP1 DUP4 ADD SWAP3 PUSH1 0x0 SWAP3 SWAP2 SWAP1 DUP3 SWAP1 SUB ADD DUP2 DUP4 DUP8 DUP1 EXTCODESIZE ISZERO DUP1 ISZERO PUSH2 0xD81 JUMPI PUSH1 0x0 DUP1 REVERT JUMPDEST POP GAS CALL ISZERO DUP1 ISZERO PUSH2 0xD95 JUMPI RETURNDATASIZE PUSH1 0x0 DUP1 RETURNDATACOPY RETURNDATASIZE PUSH1 0x0 REVERT JUMPDEST POP POP PUSH1 0x40 DUP1 MLOAD PUSH4 0x12796B75 PUSH1 0xE2 SHL DUP2 MSTORE CALLER PUSH1 0x4 DUP3 ADD MSTORE PUSH1 0x1 PUSH1 0x24 DUP3 ADD MSTORE SWAP1 MLOAD PUSH1 0x1 PUSH1 0x1 PUSH1 0xA0 SHL SUB PUSH32 0x0 AND SWAP4 POP PUSH4 0x49E5ADD4 SWAP3 POP PUSH1 0x44 DUP1 DUP4 ADD SWAP3 PUSH1 0x20 SWAP3 SWAP2 SWAP1 DUP3 SWAP1 SUB ADD DUP2 PUSH1 0x0 DUP8 DUP1 EXTCODESIZE ISZERO DUP1 ISZERO PUSH2 0xE08 JUMPI PUSH1 0x0 DUP1 REVERT JUMPDEST POP GAS CALL ISZERO DUP1 ISZERO PUSH2 0xE1C JUMPI RETURNDATASIZE PUSH1 0x0 DUP1 RETURNDATACOPY RETURNDATASIZE PUSH1 0x0 REVERT JUMPDEST POP POP POP POP PUSH1 0x40 MLOAD RETURNDATASIZE PUSH1 0x20 DUP2 LT ISZERO PUSH2 0xE32 JUMPI PUSH1 0x0 DUP1 REVERT JUMPDEST POP MLOAD PUSH1 0x1 DUP3 ADD SSTORE PUSH1 0x40 DUP1 MLOAD DUP4 DUP2 MSTORE SWAP1 MLOAD CALLER SWAP2 PUSH32 0xD8138F8A3F377C5259CA548E70E4C2DE94F129F5A11036A15B69513CBA2B426A SWAP2 SWAP1 DUP2 SWAP1 SUB PUSH1 0x20 ADD SWAP1 LOG2 POP SWAP1 JUMP JUMPDEST PUSH32 0x0 DUP2 JUMP JUMPDEST PUSH1 0x7 PUSH1 0x20 MSTORE PUSH1 0x0 SWAP1 DUP2 MSTORE PUSH1 0x40 SWAP1 KECCAK256 SLOAD DUP2 JUMP JUMPDEST CALLER PUSH1 0x0 SWAP1 DUP2 MSTORE PUSH1 0x6 PUSH1 0x20 MSTORE PUSH1 0x40 DUP2 KECCAK256 PUSH1 0x2 DUP2 ADD SLOAD PUSH1 0xFF AND PUSH2 0xEFB JUMPI PUSH1 0x40 MLOAD PUSH3 0x461BCD PUSH1 0xE5 SHL DUP2 MSTORE PUSH1 0x4 ADD DUP1 DUP1 PUSH1 0x20 ADD DUP3 DUP2 SUB DUP3 MSTORE PUSH1 0x24 DUP2 MSTORE PUSH1 0x20 ADD DUP1 PUSH2 0x2846 PUSH1 0x24 SWAP2 CODECOPY PUSH1 0x40 ADD SWAP2 POP POP PUSH1 0x40 MLOAD DUP1 SWAP2 SUB SWAP1 REVERT JUMPDEST PUSH2 0xF04 CALLER PUSH2 0x1239 JUMP JUMPDEST SWAP2 POP PUSH1 0x0 DUP3 GT PUSH2 0xF45 JUMPI PUSH1 0x40 MLOAD PUSH3 0x461BCD PUSH1 0xE5 SHL DUP2 MSTORE PUSH1 0x4 ADD DUP1 DUP1 PUSH1 0x20 ADD DUP3 DUP2 SUB DUP3 MSTORE PUSH1 0x41 DUP2 MSTORE PUSH1 0x20 ADD DUP1 PUSH2 0x28EA PUSH1 0x41 SWAP2 CODECOPY PUSH1 0x60 ADD SWAP2 POP POP PUSH1 0x40 MLOAD DUP1 SWAP2 SUB SWAP1 REVERT JUMPDEST DUP1 SLOAD DUP3 EQ ISZERO PUSH2 0xFEE JUMPI PUSH1 0x40 DUP1 MLOAD PUSH4 0x12796B75 PUSH1 0xE2 SHL DUP2 MSTORE CALLER PUSH1 0x4 DUP3 ADD MSTORE PUSH1 0x0 PUSH1 0x24 DUP3 ADD DUP2 SWAP1 MSTORE SWAP2 MLOAD PUSH1 0x1 PUSH1 0x1 PUSH1 0xA0 SHL SUB PUSH32 0x0 AND SWAP3 PUSH4 0x49E5ADD4 SWAP3 PUSH1 0x44 DUP1 DUP3 ADD SWAP4 PUSH1 0x20 SWAP4 SWAP1 SWAP3 DUP4 SWAP1 SUB SWAP1 SWAP2 ADD SWAP1 DUP3 SWAP1 DUP8 DUP1 EXTCODESIZE ISZERO DUP1 ISZERO PUSH2 0xFC1 JUMPI PUSH1 0x0 DUP1 REVERT JUMPDEST POP GAS CALL ISZERO DUP1 ISZERO PUSH2 0xFD5 JUMPI RETURNDATASIZE PUSH1 0x0 DUP1 RETURNDATACOPY RETURNDATASIZE PUSH1 0x0 REVERT JUMPDEST POP POP POP POP PUSH1 0x40 MLOAD RETURNDATASIZE PUSH1 0x20 DUP2 LT ISZERO PUSH2 0xFEB JUMPI PUSH1 0x0 DUP1 REVERT JUMPDEST POP POP JUMPDEST DUP1 SLOAD PUSH2 0x1000 SWAP1 DUP4 PUSH4 0xFFFFFFFF PUSH2 0x2226 AND JUMP JUMPDEST DUP1 DUP3 SSTORE PUSH1 0x0 SWAP1 PUSH2 0x1011 SWAP1 DUP5 SWAP1 PUSH2 0x223B JUMP JUMPDEST PUSH1 0x1 DUP4 ADD SLOAD SWAP1 SWAP2 POP PUSH2 0x1029 SWAP1 DUP3 PUSH4 0xFFFFFFFF PUSH2 0x236E AND JUMP JUMPDEST PUSH1 0x1 DUP4 ADD SSTORE PUSH1 0x40 DUP1 MLOAD DUP5 DUP2 MSTORE PUSH1 0x20 DUP2 ADD DUP4 SWAP1 MSTORE DUP2 MLOAD CALLER SWAP3 PUSH32 0x73F04AF9DCC582A923EC15D3EEA990FE34ADABFFF2879E28D44572E01A54ABB6 SWAP3 DUP3 SWAP1 SUB ADD SWAP1 LOG2 PUSH2 0x1078 CALLER DUP5 PUSH4 0xFFFFFFFF PUSH2 0x2387 AND JUMP JUMPDEST POP POP SWAP1 JUMP JUMPDEST PUSH32 0x0 DUP2 JUMP JUMPDEST PUSH1 0x4 SLOAD DUP2 JUMP JUMPDEST PUSH1 0x8 SLOAD PUSH1 0x5 SLOAD PUSH1 0x0 SWAP2 PUSH32 0x0 MUL SWAP1 PUSH2 0x10EC JUMPI PUSH2 0x10E4 DUP5 DUP3 PUSH1 0x1 SLOAD PUSH2 0x2471 JUMP JUMPDEST SWAP2 POP POP PUSH2 0x823 JUMP JUMPDEST PUSH1 0x8 SLOAD PUSH1 0x0 SWAP1 DUP2 SWAP1 PUSH32 0x0 MUL PUSH32 0x0 DUP7 GT ISZERO PUSH2 0x119D JUMPI PUSH32 0x0 DUP7 SUB SWAP2 POP PUSH1 0x0 DUP2 PUSH1 0x1 SLOAD SUB SWAP1 POP PUSH2 0x1179 DUP4 DUP3 PUSH1 0x5 SLOAD PUSH2 0x24CF JUMP JUMPDEST SWAP4 POP DUP4 DUP9 GT PUSH2 0x119B JUMPI PUSH2 0x118F DUP9 PUSH1 0x5 SLOAD DUP4 PUSH2 0x2471 JUMP JUMPDEST SWAP6 POP POP POP POP POP POP PUSH2 0x823 JUMP JUMPDEST POP JUMPDEST DUP3 DUP8 SUB SWAP7 POP PUSH2 0x11AD DUP8 DUP6 DUP4 PUSH2 0x2471 JUMP JUMPDEST SWAP1 SWAP2 ADD SWAP7 SWAP6 POP POP POP POP POP POP JUMP JUMPDEST PUSH32 0x0 DUP2 JUMP JUMPDEST PUSH2 0x11E6 PUSH2 0x147E JUMP JUMPDEST PUSH2 0x11EF JUMPI PUSH1 0x0 DUP1 REVERT JUMPDEST PUSH1 0x0 DUP1 SLOAD PUSH1 0x40 MLOAD PUSH1 0x1 PUSH1 0x1 PUSH1 0xA0 SHL SUB SWAP1 SWAP2 AND SWAP1 PUSH32 0x8BE0079C531659141344CD1FD0A4F28419497F9722A3DAAFE3B4186F6B6457E0 SWAP1 DUP4 SWAP1 LOG3 PUSH1 0x0 DUP1 SLOAD PUSH1 0x1 PUSH1 0x1 PUSH1 0xA0 SHL SUB NOT AND SWAP1 SSTORE JUMP JUMPDEST PUSH1 0x1 PUSH1 0x1 PUSH1 0xA0 SHL SUB DUP2 AND PUSH1 0x0 SWAP1 DUP2 MSTORE PUSH1 0x6 PUSH1 0x20 MSTORE PUSH1 0x40 DUP2 KECCAK256 DUP1 SLOAD PUSH2 0x1261 JUMPI PUSH1 0x0 SWAP2 POP POP PUSH2 0x811 JUMP JUMPDEST PUSH1 0x0 PUSH32 0x0 PUSH1 0x1 PUSH1 0x1 PUSH1 0xA0 SHL SUB AND PUSH4 0xD094ADBF DUP6 PUSH1 0x40 MLOAD DUP3 PUSH4 0xFFFFFFFF AND PUSH1 0xE0 SHL DUP2 MSTORE PUSH1 0x4 ADD DUP1 DUP3 PUSH1 0x1 PUSH1 0x1 PUSH1 0xA0 SHL SUB AND PUSH1 0x1 PUSH1 0x1 PUSH1 0xA0 SHL SUB AND DUP2 MSTORE PUSH1 0x20 ADD SWAP2 POP POP PUSH1 0x20 PUSH1 0x40 MLOAD DUP1 DUP4 SUB DUP2 DUP7 DUP1 EXTCODESIZE ISZERO DUP1 ISZERO PUSH2 0x12D9 JUMPI PUSH1 0x0 DUP1 REVERT JUMPDEST POP GAS STATICCALL ISZERO DUP1 ISZERO PUSH2 0x12ED JUMPI RETURNDATASIZE PUSH1 0x0 DUP1 RETURNDATACOPY RETURNDATASIZE PUSH1 0x0 REVERT JUMPDEST POP POP POP POP PUSH1 0x40 MLOAD RETURNDATASIZE PUSH1 0x20 DUP2 LT ISZERO PUSH2 0x1303 JUMPI PUSH1 0x0 DUP1 REVERT JUMPDEST POP MLOAD PUSH1 0x1 DUP4 ADD SLOAD SWAP1 SWAP2 POP PUSH1 0x0 SWAP1 PUSH2 0x1321 SWAP1 DUP4 SWAP1 PUSH4 0xFFFFFFFF PUSH2 0x2226 AND JUMP JUMPDEST SWAP1 POP DUP1 PUSH2 0x1334 JUMPI PUSH1 0x0 SWAP4 POP POP POP POP PUSH2 0x811 JUMP JUMPDEST PUSH1 0x0 PUSH2 0x1344 DUP3 DUP6 PUSH1 0x0 ADD SLOAD PUSH2 0x10A7 JUMP JUMPDEST DUP5 SLOAD SWAP1 SWAP2 POP DUP2 GT ISZERO PUSH2 0x1354 JUMPI POP DUP3 SLOAD JUMPDEST SWAP6 SWAP5 POP POP POP POP POP JUMP JUMPDEST PUSH1 0x1 SLOAD DUP2 JUMP JUMPDEST PUSH1 0x2 SLOAD DUP2 JUMP JUMPDEST PUSH1 0x64 DUP2 JUMP JUMPDEST CALLER PUSH1 0x0 SWAP1 DUP2 MSTORE PUSH1 0x7 PUSH1 0x20 MSTORE PUSH1 0x40 SWAP1 KECCAK256 SLOAD DUP1 PUSH2 0x13D0 JUMPI PUSH1 0x40 DUP1 MLOAD PUSH3 0x461BCD PUSH1 0xE5 SHL DUP2 MSTORE PUSH1 0x20 PUSH1 0x4 DUP3 ADD MSTORE PUSH1 0x18 PUSH1 0x24 DUP3 ADD MSTORE PUSH32 0x5468657265206973206E6F20636F6D70656E736174696F6E0000000000000000 PUSH1 0x44 DUP3 ADD MSTORE SWAP1 MLOAD SWAP1 DUP2 SWAP1 SUB PUSH1 0x64 ADD SWAP1 REVERT JUMPDEST CALLER PUSH1 0x0 DUP2 DUP2 MSTORE PUSH1 0x7 PUSH1 0x20 MSTORE PUSH1 0x40 DUP2 KECCAK256 SSTORE PUSH2 0x13F0 SWAP1 DUP3 PUSH4 0xFFFFFFFF PUSH2 0x2387 AND JUMP JUMPDEST PUSH1 0x40 DUP1 MLOAD DUP3 DUP2 MSTORE SWAP1 MLOAD CALLER SWAP2 PUSH32 0x1480B15E3EAB83A9B923578FFE330E3DCE94536007EC9C0B48A5DFBDE8C49181 SWAP2 SWAP1 DUP2 SWAP1 SUB PUSH1 0x20 ADD SWAP1 LOG2 POP JUMP JUMPDEST PUSH1 0x0 PUSH1 0x4 SLOAD TIMESTAMP LT ISZERO DUP1 ISZERO PUSH2 0x1440 JUMPI POP PUSH1 0x8 SLOAD PUSH1 0x9 SLOAD EQ JUMPDEST SWAP1 POP SWAP1 JUMP JUMPDEST PUSH1 0x3 SLOAD DUP2 JUMP JUMPDEST PUSH32 0x0 DUP2 JUMP JUMPDEST PUSH1 0x0 SLOAD PUSH1 0x1 PUSH1 0x1 PUSH1 0xA0 SHL SUB AND SWAP1 JUMP JUMPDEST PUSH1 0x0 SLOAD PUSH1 0x1 PUSH1 0x1 PUSH1 0xA0 SHL SUB AND CALLER EQ SWAP1 JUMP JUMPDEST PUSH1 0x4 SLOAD TIMESTAMP LT PUSH2 0x14CF JUMPI PUSH1 0x40 MLOAD PUSH3 0x461BCD PUSH1 0xE5 SHL DUP2 MSTORE PUSH1 0x4 ADD DUP1 DUP1 PUSH1 0x20 ADD DUP3 DUP2 SUB DUP3 MSTORE PUSH1 0x34 DUP2 MSTORE PUSH1 0x20 ADD DUP1 PUSH2 0x292B PUSH1 0x34 SWAP2 CODECOPY PUSH1 0x40 ADD SWAP2 POP POP PUSH1 0x40 MLOAD DUP1 SWAP2 SUB SWAP1 REVERT JUMPDEST CALLER PUSH1 0x0 SWAP1 DUP2 MSTORE PUSH1 0x6 PUSH1 0x20 MSTORE PUSH1 0x40 SWAP1 KECCAK256 DUP1 SLOAD PUSH2 0x1524 JUMPI PUSH1 0x40 DUP1 MLOAD PUSH3 0x461BCD PUSH1 0xE5 SHL DUP2 MSTORE PUSH1 0x20 PUSH1 0x4 DUP3 ADD MSTORE PUSH1 0x10 PUSH1 0x24 DUP3 ADD MSTORE PUSH16 0x139BC8189A59081D1BC818D85B98D95B PUSH1 0x82 SHL PUSH1 0x44 DUP3 ADD MSTORE SWAP1 MLOAD SWAP1 DUP2 SWAP1 SUB PUSH1 0x64 ADD SWAP1 REVERT JUMPDEST PUSH1 0x2 DUP2 ADD SLOAD PUSH1 0xFF AND ISZERO PUSH2 0x157E JUMPI PUSH1 0x40 DUP1 MLOAD PUSH3 0x461BCD PUSH1 0xE5 SHL DUP2 MSTORE PUSH1 0x20 PUSH1 0x4 DUP3 ADD MSTORE PUSH1 0x1A PUSH1 0x24 DUP3 ADD MSTORE PUSH32 0x546F6B656E732061726520616C726561647920636C61696D6564000000000000 PUSH1 0x44 DUP3 ADD MSTORE SWAP1 MLOAD SWAP1 DUP2 SWAP1 SUB PUSH1 0x64 ADD SWAP1 REVERT JUMPDEST DUP1 SLOAD PUSH1 0x0 DUP3 SSTORE PUSH1 0x8 SLOAD PUSH1 0x2 DUP4 ADD SLOAD PUSH1 0x0 NOT SWAP1 SWAP2 ADD SWAP1 PUSH2 0x100 SWAP1 DIV PUSH1 0x1 PUSH1 0x1 PUSH1 0x80 SHL SUB AND DUP2 EQ PUSH2 0x1657 JUMPI PUSH1 0x0 PUSH1 0x8 DUP3 DUP2 SLOAD DUP2 LT PUSH2 0x15B6 JUMPI INVALID JUMPDEST PUSH1 0x0 SWAP2 DUP3 MSTORE PUSH1 0x20 SWAP1 SWAP2 KECCAK256 ADD SLOAD PUSH1 0x2 DUP6 ADD SLOAD PUSH1 0x8 DUP1 SLOAD PUSH1 0x1 PUSH1 0x1 PUSH1 0xA0 SHL SUB SWAP1 SWAP4 AND SWAP4 POP DUP4 SWAP3 SWAP1 SWAP2 PUSH2 0x100 SWAP1 DIV PUSH1 0x1 PUSH1 0x1 PUSH1 0x80 SHL SUB AND SWAP1 DUP2 LT PUSH2 0x15F3 JUMPI INVALID JUMPDEST PUSH1 0x0 SWAP2 DUP3 MSTORE PUSH1 0x20 DUP1 DUP4 KECCAK256 SWAP2 SWAP1 SWAP2 ADD DUP1 SLOAD PUSH1 0x1 PUSH1 0x1 PUSH1 0xA0 SHL SUB NOT AND PUSH1 0x1 PUSH1 0x1 PUSH1 0xA0 SHL SUB SWAP5 DUP6 AND OR SWAP1 SSTORE PUSH1 0x2 DUP8 DUP2 ADD SLOAD SWAP5 SWAP1 SWAP4 AND DUP3 MSTORE PUSH1 0x6 SWAP1 MSTORE PUSH1 0x40 SWAP1 KECCAK256 ADD DUP1 SLOAD PUSH2 0x100 PUSH1 0x1 PUSH1 0x88 SHL SUB NOT AND PUSH2 0x100 SWAP3 DUP4 SWAP1 DIV PUSH1 0x1 PUSH1 0x1 PUSH1 0x80 SHL SUB AND SWAP1 SWAP3 MUL SWAP2 SWAP1 SWAP2 OR SWAP1 SSTORE JUMPDEST PUSH1 0x8 DUP1 SLOAD DUP1 PUSH2 0x1662 JUMPI INVALID JUMPDEST PUSH1 0x0 DUP3 DUP2 MSTORE PUSH1 0x20 SWAP1 KECCAK256 DUP2 ADD PUSH1 0x0 NOT SWAP1 DUP2 ADD DUP1 SLOAD PUSH1 0x1 PUSH1 0x1 PUSH1 0xA0 SHL SUB NOT AND SWAP1 SSTORE ADD SWAP1 SSTORE PUSH32 0x0 DUP3 GT ISZERO PUSH2 0x16E5 JUMPI PUSH1 0x5 SLOAD PUSH2 0x16E1 SWAP1 PUSH32 0x0 DUP5 SUB PUSH4 0xFFFFFFFF PUSH2 0x2226 AND JUMP JUMPDEST PUSH1 0x5 SSTORE JUMPDEST PUSH2 0x16F5 CALLER DUP4 PUSH4 0xFFFFFFFF PUSH2 0x2387 AND JUMP JUMPDEST PUSH1 0x40 DUP1 MLOAD DUP4 DUP2 MSTORE SWAP1 MLOAD CALLER SWAP2 PUSH32 0xF3A6EF5718C05D9183AF076F5753197B68B04552A763C34796637D6134BDD0F2 SWAP2 SWAP1 DUP2 SWAP1 SUB PUSH1 0x20 ADD SWAP1 LOG2 POP POP POP JUMP JUMPDEST PUSH1 0x5 SLOAD DUP2 JUMP JUMPDEST PUSH1 0x0 PUSH32 0x0 DUP3 LT ISZERO PUSH2 0x1768 JUMPI POP PUSH1 0x0 PUSH2 0x811 JUMP JUMPDEST PUSH1 0x5 SLOAD PUSH2 0x1784 JUMPI PUSH1 0x8 SLOAD PUSH1 0x1 SLOAD DUP2 PUSH2 0x177C JUMPI INVALID JUMPDEST DIV SWAP1 POP PUSH2 0x811 JUMP JUMPDEST PUSH1 0x8 SLOAD PUSH1 0x1 SLOAD PUSH1 0x5 SLOAD PUSH32 0x0 DUP6 SUB SWAP3 PUSH32 0x0 MUL SWAP1 SWAP2 SUB SWAP1 PUSH2 0x17F7 SWAP1 PUSH2 0x17EB DUP5 DUP5 PUSH4 0xFFFFFFFF PUSH2 0x2519 AND JUMP JUMPDEST SWAP1 PUSH4 0xFFFFFFFF PUSH2 0x2540 AND JUMP JUMPDEST PUSH32 0x0 ADD SWAP5 SWAP4 POP POP POP POP JUMP JUMPDEST PUSH1 0x9 SLOAD DUP2 JUMP JUMPDEST PUSH1 0x0 PUSH1 0x4 SLOAD TIMESTAMP LT ISZERO PUSH2 0x186A JUMPI PUSH1 0x40 MLOAD PUSH3 0x461BCD PUSH1 0xE5 SHL DUP2 MSTORE PUSH1 0x4 ADD DUP1 DUP1 PUSH1 0x20 ADD DUP3 DUP2 SUB DUP3 MSTORE PUSH1 0x34 DUP2 MSTORE PUSH1 0x20 ADD DUP1 PUSH2 0x29AA PUSH1 0x34 SWAP2 CODECOPY PUSH1 0x40 ADD SWAP2 POP POP PUSH1 0x40 MLOAD DUP1 SWAP2 SUB SWAP1 REVERT JUMPDEST PUSH1 0x8 SLOAD PUSH1 0x9 SLOAD EQ ISZERO PUSH2 0x18AD JUMPI PUSH1 0x40 MLOAD PUSH3 0x461BCD PUSH1 0xE5 SHL DUP2 MSTORE PUSH1 0x4 ADD DUP1 DUP1 PUSH1 0x20 ADD DUP3 DUP2 SUB DUP3 MSTORE PUSH1 0x21 DUP2 MSTORE PUSH1 0x20 ADD DUP1 PUSH2 0x27D1 PUSH1 0x21 SWAP2 CODECOPY PUSH1 0x40 ADD SWAP2 POP POP PUSH1 0x40 MLOAD DUP1 SWAP2 SUB SWAP1 REVERT JUMPDEST PUSH1 0x9 SLOAD PUSH1 0x5 SLOAD PUSH2 0x1935 JUMPI PUSH1 0x8 SLOAD PUSH1 0x1 SLOAD PUSH32 0x0 SWAP2 SWAP1 DUP2 PUSH2 0x18E7 JUMPI INVALID JUMPDEST DIV GT ISZERO PUSH2 0x1930 JUMPI PUSH1 0x40 DUP1 MLOAD PUSH3 0x461BCD PUSH1 0xE5 SHL DUP2 MSTORE PUSH1 0x20 PUSH1 0x4 DUP3 ADD MSTORE PUSH1 0x12 PUSH1 0x24 DUP3 ADD MSTORE PUSH18 0x4E6F7420656E6F7567682062696464657273 PUSH1 0x70 SHL PUSH1 0x44 DUP3 ADD MSTORE SWAP1 MLOAD SWAP1 DUP2 SWAP1 SUB PUSH1 0x64 ADD SWAP1 REVERT JUMPDEST POP PUSH1 0x8 SLOAD JUMPDEST PUSH1 0x8 SLOAD PUSH1 0x1 SLOAD PUSH1 0x5 SLOAD PUSH32 0x0 PUSH32 0x0 DUP2 SWAP1 SUB SWAP4 MUL SWAP1 SWAP2 SUB SWAP1 PUSH1 0x0 SWAP1 PUSH2 0x19A3 SWAP1 DUP4 SWAP1 PUSH2 0x17EB SWAP1 DUP7 SWAP1 PUSH4 0xFFFFFFFF PUSH2 0x2519 AND JUMP JUMPDEST PUSH32 0x0 ADD SWAP1 POP JUMPDEST PUSH1 0x8 SLOAD DUP5 LT DUP1 ISZERO PUSH2 0x19D8 JUMPI POP DUP6 GAS GT JUMPDEST ISZERO PUSH2 0x1A5E JUMPI PUSH1 0x0 PUSH1 0x8 DUP6 DUP2 SLOAD DUP2 LT PUSH2 0x19EC JUMPI INVALID JUMPDEST PUSH1 0x0 SWAP2 DUP3 MSTORE PUSH1 0x20 DUP1 DUP4 KECCAK256 SWAP1 SWAP2 ADD SLOAD PUSH1 0x1 PUSH1 0x1 PUSH1 0xA0 SHL SUB AND DUP1 DUP4 MSTORE PUSH1 0x6 SWAP1 SWAP2 MSTORE PUSH1 0x40 SWAP1 SWAP2 KECCAK256 SLOAD SWAP1 SWAP2 POP DUP3 LT ISZERO PUSH2 0x1A52 JUMPI PUSH1 0x40 MLOAD PUSH3 0x461BCD PUSH1 0xE5 SHL DUP2 MSTORE PUSH1 0x4 ADD DUP1 DUP1 PUSH1 0x20 ADD DUP3 DUP2 SUB DUP3 MSTORE PUSH1 0x25 DUP2 MSTORE PUSH1 0x20 ADD DUP1 PUSH2 0x286A PUSH1 0x25 SWAP2 CODECOPY PUSH1 0x40 ADD SWAP2 POP POP PUSH1 0x40 MLOAD DUP1 SWAP2 SUB SWAP1 REVERT JUMPDEST POP PUSH1 0x1 SWAP1 SWAP4 ADD SWAP3 PUSH2 0x19C8 JUMP JUMPDEST PUSH1 0x9 SLOAD DUP5 EQ PUSH2 0x1AAB JUMPI PUSH1 0x9 SLOAD PUSH1 0x40 DUP1 MLOAD SWAP2 DUP3 MSTORE PUSH1 0x20 DUP3 ADD DUP7 SWAP1 MSTORE DUP1 MLOAD CALLER SWAP3 PUSH32 0x97D5AD02B58968C48057BB16E90B9468EC753E30169BF00692B7BA02B47B090E SWAP3 SWAP1 DUP3 SWAP1 SUB ADD SWAP1 LOG2 PUSH1 0x9 DUP5 SWAP1 SSTORE JUMPDEST POP POP PUSH1 0x9 SLOAD SWAP5 SWAP4 POP POP POP POP JUMP JUMPDEST PUSH32 0x0 DUP2 JUMP JUMPDEST PUSH1 0x4 SLOAD TIMESTAMP LT ISZERO PUSH2 0x1B1D JUMPI PUSH1 0x40 MLOAD PUSH3 0x461BCD PUSH1 0xE5 SHL DUP2 MSTORE PUSH1 0x4 ADD DUP1 DUP1 PUSH1 0x20 ADD DUP3 DUP2 SUB DUP3 MSTORE PUSH1 0x34 DUP2 MSTORE PUSH1 0x20 ADD DUP1 PUSH2 0x29AA PUSH1 0x34 SWAP2 CODECOPY PUSH1 0x40 ADD SWAP2 POP POP PUSH1 0x40 MLOAD DUP1 SWAP2 SUB SWAP1 REVERT JUMPDEST PUSH1 0x8 SLOAD PUSH1 0x9 SLOAD EQ ISZERO PUSH2 0x1B60 JUMPI PUSH1 0x40 MLOAD PUSH3 0x461BCD PUSH1 0xE5 SHL DUP2 MSTORE PUSH1 0x4 ADD DUP1 DUP1 PUSH1 0x20 ADD DUP3 DUP2 SUB DUP3 MSTORE PUSH1 0x21 DUP2 MSTORE PUSH1 0x20 ADD DUP1 PUSH2 0x27D1 PUSH1 0x21 SWAP2 CODECOPY PUSH1 0x40 ADD SWAP2 POP POP PUSH1 0x40 MLOAD DUP1 SWAP2 SUB SWAP1 REVERT JUMPDEST DUP1 DUP1 PUSH2 0x1B9D JUMPI PUSH1 0x40 MLOAD PUSH3 0x461BCD PUSH1 0xE5 SHL DUP2 MSTORE PUSH1 0x4 ADD DUP1 DUP1 PUSH1 0x20 ADD DUP3 DUP2 SUB DUP3 MSTORE PUSH1 0x28 DUP2 MSTORE PUSH1 0x20 ADD DUP1 PUSH2 0x281E PUSH1 0x28 SWAP2 CODECOPY PUSH1 0x40 ADD SWAP2 POP POP PUSH1 0x40 MLOAD DUP1 SWAP2 SUB SWAP1 REVERT JUMPDEST PUSH1 0x1 SLOAD PUSH1 0x0 SWAP1 PUSH2 0x1BD3 SWAP1 PUSH32 0x0 PUSH4 0xFFFFFFFF PUSH2 0x2562 AND JUMP JUMPDEST PUSH1 0x8 SLOAD SWAP1 SWAP2 POP DUP2 GT ISZERO PUSH2 0x1BEF JUMPI PUSH2 0x1BE8 PUSH2 0x2587 JUMP JUMPDEST POP POP PUSH2 0x207B JUMP JUMPDEST PUSH1 0x0 DUP5 DUP5 PUSH1 0x0 DUP2 DUP2 LT PUSH2 0x1BFE JUMPI INVALID JUMPDEST PUSH1 0x20 SWAP1 DUP2 MUL SWAP3 SWAP1 SWAP3 ADD CALLDATALOAD PUSH1 0x1 PUSH1 0x1 PUSH1 0xA0 SHL SUB AND PUSH1 0x0 DUP2 DUP2 MSTORE PUSH1 0x6 SWAP1 SWAP4 MSTORE PUSH1 0x40 SWAP1 SWAP3 KECCAK256 SLOAD SWAP2 SWAP3 POP DUP2 SWAP1 POP PUSH1 0x1 JUMPDEST DUP6 DUP2 LT ISZERO PUSH2 0x1CDC JUMPI PUSH1 0x0 DUP9 DUP9 DUP4 DUP2 DUP2 LT PUSH2 0x1C40 JUMPI INVALID JUMPDEST PUSH1 0x1 PUSH1 0x1 PUSH1 0xA0 SHL SUB PUSH1 0x20 SWAP2 DUP3 MUL SWAP4 SWAP1 SWAP4 ADD CALLDATALOAD DUP4 AND PUSH1 0x0 DUP2 DUP2 MSTORE PUSH1 0x6 SWAP1 SWAP3 MSTORE PUSH1 0x40 SWAP1 SWAP2 KECCAK256 SLOAD SWAP1 SWAP4 POP SWAP2 DUP8 AND DUP4 GT SWAP1 POP DUP1 ISZERO PUSH2 0x1C7A JUMPI POP PUSH1 0x0 DUP2 GT JUMPDEST PUSH2 0x1CB5 JUMPI PUSH1 0x40 MLOAD PUSH3 0x461BCD PUSH1 0xE5 SHL DUP2 MSTORE PUSH1 0x4 ADD DUP1 DUP1 PUSH1 0x20 ADD DUP3 DUP2 SUB DUP3 MSTORE PUSH1 0x2C DUP2 MSTORE PUSH1 0x20 ADD DUP1 PUSH2 0x27F2 PUSH1 0x2C SWAP2 CODECOPY PUSH1 0x40 ADD SWAP2 POP POP PUSH1 0x40 MLOAD DUP1 SWAP2 SUB SWAP1 REVERT JUMPDEST DUP1 DUP6 GT ISZERO PUSH2 0x1CC5 JUMPI DUP1 SWAP5 POP PUSH2 0x1CD1 JUMP JUMPDEST DUP1 DUP5 LT ISZERO PUSH2 0x1CD1 JUMPI DUP1 SWAP4 POP JUMPDEST POP SWAP4 POP PUSH1 0x1 ADD PUSH2 0x1C2A JUMP JUMPDEST POP PUSH1 0x60 DUP6 PUSH8 0xFFFFFFFFFFFFFFFF DUP2 GT DUP1 ISZERO PUSH2 0x1CF6 JUMPI PUSH1 0x0 DUP1 REVERT JUMPDEST POP PUSH1 0x40 MLOAD SWAP1 DUP1 DUP3 MSTORE DUP1 PUSH1 0x20 MUL PUSH1 0x20 ADD DUP3 ADD PUSH1 0x40 MSTORE DUP1 ISZERO PUSH2 0x1D20 JUMPI DUP2 PUSH1 0x20 ADD PUSH1 0x20 DUP3 MUL DUP1 CALLDATASIZE DUP4 CALLDATACOPY ADD SWAP1 POP JUMPDEST POP SWAP1 POP DUP2 DUP4 EQ PUSH2 0x1DDD JUMPI PUSH1 0x0 JUMPDEST DUP7 DUP2 LT ISZERO PUSH2 0x1DDB JUMPI PUSH1 0x0 DUP10 DUP10 DUP4 DUP2 DUP2 LT PUSH2 0x1D43 JUMPI INVALID JUMPDEST SWAP1 POP PUSH1 0x20 MUL ADD CALLDATALOAD PUSH1 0x1 PUSH1 0x1 PUSH1 0xA0 SHL SUB AND SWAP1 POP PUSH1 0x0 PUSH1 0x6 PUSH1 0x0 DUP4 PUSH1 0x1 PUSH1 0x1 PUSH1 0xA0 SHL SUB AND PUSH1 0x1 PUSH1 0x1 PUSH1 0xA0 SHL SUB AND DUP2 MSTORE PUSH1 0x20 ADD SWAP1 DUP2 MSTORE PUSH1 0x20 ADD PUSH1 0x0 KECCAK256 SWAP1 POP DUP6 DUP2 PUSH1 0x0 ADD SLOAD GT ISZERO PUSH2 0x1DD1 JUMPI DUP6 DUP2 PUSH1 0x0 ADD SLOAD SUB DUP5 DUP5 DUP2 MLOAD DUP2 LT PUSH2 0x1D9D JUMPI INVALID JUMPDEST PUSH1 0x20 SWAP1 DUP2 MUL SWAP2 SWAP1 SWAP2 ADD ADD MSTORE DUP6 DUP2 SSTORE DUP4 MLOAD DUP5 SWAP1 DUP5 SWAP1 DUP2 LT PUSH2 0x1DB9 JUMPI INVALID JUMPDEST PUSH1 0x20 MUL PUSH1 0x20 ADD ADD MLOAD PUSH1 0x5 PUSH1 0x0 DUP3 DUP3 SLOAD SUB SWAP3 POP POP DUP2 SWAP1 SSTORE POP JUMPDEST POP POP PUSH1 0x1 ADD PUSH2 0x1D2D JUMP JUMPDEST POP JUMPDEST PUSH32 0x0 PUSH2 0x1E07 DUP5 PUSH2 0x1736 JUMP JUMPDEST GT PUSH2 0x1E43 JUMPI PUSH1 0x40 MLOAD PUSH3 0x461BCD PUSH1 0xE5 SHL DUP2 MSTORE PUSH1 0x4 ADD DUP1 DUP1 PUSH1 0x20 ADD DUP3 DUP2 SUB DUP3 MSTORE PUSH1 0x29 DUP2 MSTORE PUSH1 0x20 ADD DUP1 PUSH2 0x2981 PUSH1 0x29 SWAP2 CODECOPY PUSH1 0x40 ADD SWAP2 POP POP PUSH1 0x40 MLOAD DUP1 SWAP2 SUB SWAP1 REVERT JUMPDEST PUSH1 0x8 SLOAD PUSH1 0x1 SLOAD PUSH32 0x0 PUSH32 0x0 DUP2 SWAP1 SUB SWAP3 PUSH32 0x0 DUP8 SUB SWAP3 SWAP2 MUL SWAP1 SUB PUSH1 0x0 PUSH2 0x1F0E PUSH2 0x1ECC DUP6 DUP13 PUSH4 0xFFFFFFFF PUSH2 0x2519 AND JUMP JUMPDEST DUP4 SUB PUSH2 0x1F02 PUSH2 0x1EE6 PUSH1 0x5 SLOAD DUP9 PUSH2 0x2519 SWAP1 SWAP2 SWAP1 PUSH4 0xFFFFFFFF AND JUMP JUMPDEST PUSH2 0x1EF6 DUP8 DUP8 PUSH4 0xFFFFFFFF PUSH2 0x2519 AND JUMP JUMPDEST SWAP1 PUSH4 0xFFFFFFFF PUSH2 0x2226 AND JUMP JUMPDEST SWAP1 PUSH4 0xFFFFFFFF PUSH2 0x2562 AND JUMP JUMPDEST SWAP1 POP PUSH1 0x0 PUSH2 0x1F22 DUP9 DUP4 PUSH4 0xFFFFFFFF PUSH2 0x2226 AND JUMP JUMPDEST PUSH1 0x5 DUP1 SLOAD DUP14 DUP6 MUL SWAP1 SUB SWAP1 SSTORE SWAP1 POP PUSH1 0x0 JUMPDEST DUP12 DUP2 LT ISZERO PUSH2 0x1FAD JUMPI PUSH1 0x0 DUP15 DUP15 DUP4 DUP2 DUP2 LT PUSH2 0x1F48 JUMPI INVALID JUMPDEST SWAP1 POP PUSH1 0x20 MUL ADD CALLDATALOAD PUSH1 0x1 PUSH1 0x1 PUSH1 0xA0 SHL SUB AND SWAP1 POP PUSH1 0x0 PUSH1 0x6 PUSH1 0x0 DUP4 PUSH1 0x1 PUSH1 0x1 PUSH1 0xA0 SHL SUB AND PUSH1 0x1 PUSH1 0x1 PUSH1 0xA0 SHL SUB AND DUP2 MSTORE PUSH1 0x20 ADD SWAP1 DUP2 MSTORE PUSH1 0x20 ADD PUSH1 0x0 KECCAK256 SWAP1 POP DUP5 DUP10 DUP5 DUP2 MLOAD DUP2 LT PUSH2 0x1F90 JUMPI INVALID JUMPDEST PUSH1 0x20 SWAP1 DUP2 MUL SWAP2 SWAP1 SWAP2 ADD ADD DUP1 MLOAD SWAP1 SWAP2 ADD SWAP1 MSTORE DUP4 SWAP1 SSTORE POP PUSH1 0x1 ADD PUSH2 0x1F32 JUMP JUMPDEST POP PUSH1 0x0 PUSH1 0x9 DUP2 SWAP1 SSTORE JUMPDEST DUP12 DUP2 LT ISZERO PUSH2 0x206E JUMPI PUSH1 0x0 DUP15 DUP15 DUP4 DUP2 DUP2 LT PUSH2 0x1FCC JUMPI INVALID JUMPDEST SWAP1 POP PUSH1 0x20 MUL ADD CALLDATALOAD PUSH1 0x1 PUSH1 0x1 PUSH1 0xA0 SHL SUB AND SWAP1 POP DUP8 DUP3 DUP2 MLOAD DUP2 LT PUSH2 0x1FEA JUMPI INVALID JUMPDEST PUSH1 0x20 SWAP1 DUP2 MUL SWAP2 SWAP1 SWAP2 ADD DUP2 ADD MLOAD PUSH1 0x1 PUSH1 0x1 PUSH1 0xA0 SHL SUB DUP4 AND PUSH1 0x0 DUP2 DUP2 MSTORE PUSH1 0x7 SWAP1 SWAP4 MSTORE PUSH1 0x40 SWAP1 SWAP3 KECCAK256 DUP1 SLOAD SWAP1 SWAP2 ADD SWAP1 SSTORE DUP9 MLOAD CALLER SWAP1 PUSH32 0x2887B6DA4C721C91735AADA87DDC427D4EF240EF9B54E759EF10C0792B409373 SWAP1 DUP12 SWAP1 DUP7 SWAP1 DUP2 LT PUSH2 0x2048 JUMPI INVALID JUMPDEST PUSH1 0x20 MUL PUSH1 0x20 ADD ADD MLOAD PUSH1 0x40 MLOAD DUP1 DUP3 DUP2 MSTORE PUSH1 0x20 ADD SWAP2 POP POP PUSH1 0x40 MLOAD DUP1 SWAP2 SUB SWAP1 LOG3 POP PUSH1 0x1 ADD PUSH2 0x1FB6 JUMP JUMPDEST POP POP POP POP POP POP POP POP POP POP POP POP JUMPDEST POP POP JUMP JUMPDEST PUSH1 0x8 DUP2 DUP2 SLOAD DUP2 LT PUSH2 0x208C JUMPI INVALID JUMPDEST PUSH1 0x0 SWAP2 DUP3 MSTORE PUSH1 0x20 SWAP1 SWAP2 KECCAK256 ADD SLOAD PUSH1 0x1 PUSH1 0x1 PUSH1 0xA0 SHL SUB AND SWAP1 POP DUP2 JUMP JUMPDEST PUSH1 0x3 SLOAD TIMESTAMP LT PUSH2 0x20E6 JUMPI PUSH1 0x40 MLOAD PUSH3 0x461BCD PUSH1 0xE5 SHL DUP2 MSTORE PUSH1 0x4 ADD DUP1 DUP1 PUSH1 0x20 ADD DUP3 DUP2 SUB DUP3 MSTORE PUSH1 0x2E DUP2 MSTORE PUSH1 0x20 ADD DUP1 PUSH2 0x27A3 PUSH1 0x2E SWAP2 CODECOPY PUSH1 0x40 ADD SWAP2 POP POP PUSH1 0x40 MLOAD DUP1 SWAP2 SUB SWAP1 REVERT JUMPDEST PUSH2 0x2121 PUSH1 0x1 PUSH1 0x1 PUSH1 0xA0 SHL SUB PUSH32 0x0 AND CALLER ADDRESS DUP5 PUSH4 0xFFFFFFFF PUSH2 0x2609 AND JUMP JUMPDEST PUSH1 0x1 DUP1 SLOAD DUP3 ADD SWAP1 SSTORE PUSH1 0x40 DUP1 MLOAD DUP3 DUP2 MSTORE SWAP1 MLOAD CALLER SWAP2 PUSH32 0x2DA466A7B24304F47E87FA2E1E5A81B9831CE54FEC19055CE277CA2F39BA42C4 SWAP2 SWAP1 DUP2 SWAP1 SUB PUSH1 0x20 ADD SWAP1 LOG2 POP JUMP JUMPDEST PUSH32 0x0 DUP2 JUMP JUMPDEST PUSH2 0x218E PUSH2 0x147E JUMP JUMPDEST PUSH2 0x2197 JUMPI PUSH1 0x0 DUP1 REVERT JUMPDEST PUSH2 0x21A0 DUP2 PUSH2 0x269F JUMP JUMPDEST POP JUMP JUMPDEST PUSH32 0x0 DUP2 JUMP JUMPDEST PUSH2 0x21CF PUSH2 0x147E JUMP JUMPDEST PUSH2 0x21D8 JUMPI PUSH1 0x0 DUP1 REVERT JUMPDEST PUSH2 0x21E0 PUSH2 0x1429 JUMP JUMPDEST ISZERO PUSH2 0x221C JUMPI PUSH1 0x40 MLOAD PUSH3 0x461BCD PUSH1 0xE5 SHL DUP2 MSTORE PUSH1 0x4 ADD DUP1 DUP1 PUSH1 0x20 ADD DUP3 DUP2 SUB DUP3 MSTORE PUSH1 0x21 DUP2 MSTORE PUSH1 0x20 ADD DUP1 PUSH2 0x29DE PUSH1 0x21 SWAP2 CODECOPY PUSH1 0x40 ADD SWAP2 POP POP PUSH1 0x40 MLOAD DUP1 SWAP2 SUB SWAP1 REVERT JUMPDEST PUSH2 0x2224 PUSH2 0x2587 JUMP JUMPDEST JUMP JUMPDEST PUSH1 0x0 DUP3 DUP3 GT ISZERO PUSH2 0x2235 JUMPI PUSH1 0x0 DUP1 REVERT JUMPDEST POP SWAP1 SUB SWAP1 JUMP JUMPDEST PUSH1 0x8 SLOAD PUSH1 0x5 SLOAD PUSH1 0x0 SWAP2 PUSH32 0x0 MUL SWAP1 PUSH2 0x2278 JUMPI PUSH2 0x10E4 DUP5 PUSH1 0x1 SLOAD DUP4 PUSH2 0x24CF JUMP JUMPDEST PUSH1 0x0 DUP1 PUSH32 0x0 DUP7 DUP7 ADD GT PUSH2 0x22AC JUMPI DUP6 SWAP2 POP PUSH2 0x2306 JUMP JUMPDEST PUSH32 0x0 DUP6 LT PUSH2 0x22DA JUMPI POP DUP5 PUSH2 0x2306 JUMP JUMPDEST POP POP PUSH32 0x0 DUP5 DUP5 ADD SUB DUP1 DUP6 SUB SWAP1 JUMPDEST PUSH1 0x8 SLOAD PUSH32 0x0 MUL PUSH1 0x0 DUP4 ISZERO PUSH2 0x2341 JUMPI PUSH2 0x233E DUP5 DUP4 DUP8 PUSH2 0x24CF JUMP JUMPDEST SWAP1 POP JUMPDEST DUP3 ISZERO PUSH2 0x2363 JUMPI PUSH1 0x0 DUP3 PUSH1 0x1 SLOAD SUB SWAP1 POP PUSH2 0x235D DUP5 DUP3 PUSH1 0x5 SLOAD PUSH2 0x24CF JUMP JUMPDEST DUP3 ADD SWAP2 POP POP JUMPDEST SWAP8 SWAP7 POP POP POP POP POP POP POP JUMP JUMPDEST PUSH1 0x0 DUP3 DUP3 ADD DUP4 DUP2 LT ISZERO PUSH2 0x2380 JUMPI PUSH1 0x0 DUP1 REVERT JUMPDEST SWAP4 SWAP3 POP POP POP JUMP JUMPDEST DUP1 SELFBALANCE LT ISZERO PUSH2 0x23DC JUMPI PUSH1 0x40 DUP1 MLOAD PUSH3 0x461BCD PUSH1 0xE5 SHL DUP2 MSTORE PUSH1 0x20 PUSH1 0x4 DUP3 ADD MSTORE PUSH1 0x1D PUSH1 0x24 DUP3 ADD MSTORE PUSH32 0x416464726573733A20696E73756666696369656E742062616C616E6365000000 PUSH1 0x44 DUP3 ADD MSTORE SWAP1 MLOAD SWAP1 DUP2 SWAP1 SUB PUSH1 0x64 ADD SWAP1 REVERT JUMPDEST PUSH1 0x40 MLOAD PUSH1 0x0 SWAP1 PUSH1 0x1 PUSH1 0x1 PUSH1 0xA0 SHL SUB DUP5 AND SWAP1 DUP4 SWAP1 DUP4 DUP2 DUP2 DUP2 DUP6 DUP8 GAS CALL SWAP3 POP POP POP RETURNDATASIZE DUP1 PUSH1 0x0 DUP2 EQ PUSH2 0x2427 JUMPI PUSH1 0x40 MLOAD SWAP2 POP PUSH1 0x1F NOT PUSH1 0x3F RETURNDATASIZE ADD AND DUP3 ADD PUSH1 0x40 MSTORE RETURNDATASIZE DUP3 MSTORE RETURNDATASIZE PUSH1 0x0 PUSH1 0x20 DUP5 ADD RETURNDATACOPY PUSH2 0x242C JUMP JUMPDEST PUSH1 0x60 SWAP2 POP JUMPDEST POP POP SWAP1 POP DUP1 PUSH2 0x246C JUMPI PUSH1 0x40 MLOAD PUSH3 0x461BCD PUSH1 0xE5 SHL DUP2 MSTORE PUSH1 0x4 ADD DUP1 DUP1 PUSH1 0x20 ADD DUP3 DUP2 SUB DUP3 MSTORE PUSH1 0x3A DUP2 MSTORE PUSH1 0x20 ADD DUP1 PUSH2 0x288F PUSH1 0x3A SWAP2 CODECOPY PUSH1 0x40 ADD SWAP2 POP POP PUSH1 0x40 MLOAD DUP1 SWAP2 SUB SWAP1 REVERT JUMPDEST POP POP POP JUMP JUMPDEST PUSH1 0x0 PUSH2 0x24C7 PUSH2 0x2487 DUP4 PUSH1 0x64 PUSH4 0xFFFFFFFF PUSH2 0x2519 AND JUMP JUMPDEST PUSH2 0x17EB PUSH32 0x0 PUSH2 0x24BB DUP9 DUP9 PUSH4 0xFFFFFFFF PUSH2 0x2519 AND JUMP JUMPDEST SWAP1 PUSH4 0xFFFFFFFF PUSH2 0x2519 AND JUMP JUMPDEST SWAP5 SWAP4 POP POP POP POP JUMP JUMPDEST PUSH1 0x0 PUSH2 0x24C7 PUSH2 0x2504 DUP4 PUSH32 0x0 PUSH4 0xFFFFFFFF PUSH2 0x2519 AND JUMP JUMPDEST PUSH2 0x1F02 PUSH1 0x64 PUSH2 0x24BB DUP9 DUP9 PUSH4 0xFFFFFFFF PUSH2 0x2519 AND JUMP JUMPDEST PUSH1 0x0 DUP3 PUSH2 0x2528 JUMPI POP PUSH1 0x0 PUSH2 0x823 JUMP JUMPDEST DUP3 DUP3 MUL DUP3 DUP5 DUP3 DUP2 PUSH2 0x2535 JUMPI INVALID JUMPDEST DIV EQ PUSH2 0x2380 JUMPI PUSH1 0x0 DUP1 REVERT JUMPDEST PUSH1 0x0 DUP1 DUP3 GT PUSH2 0x254E JUMPI PUSH1 0x0 DUP1 REVERT JUMPDEST PUSH1 0x0 DUP3 DUP5 DUP2 PUSH2 0x2559 JUMPI INVALID JUMPDEST DIV SWAP5 SWAP4 POP POP POP POP JUMP JUMPDEST PUSH1 0x0 DUP2 PUSH1 0x1 PUSH2 0x2577 DUP6 DUP4 PUSH4 0xFFFFFFFF PUSH2 0x236E AND JUMP JUMPDEST SUB DUP2 PUSH2 0x257F JUMPI INVALID JUMPDEST DIV SWAP4 SWAP3 POP POP POP JUMP JUMPDEST PUSH1 0x0 PUSH1 0x2 DUP2 SWAP1 SSTORE PUSH1 0x3 SSTORE PUSH1 0x0 NOT PUSH1 0x4 SSTORE PUSH2 0x25DC PUSH2 0x25A2 PUSH2 0x146F JUMP JUMPDEST PUSH1 0x1 SLOAD PUSH1 0x1 PUSH1 0x1 PUSH1 0xA0 SHL SUB PUSH32 0x0 AND SWAP2 SWAP1 PUSH4 0xFFFFFFFF PUSH2 0x270D AND JUMP JUMPDEST PUSH1 0x40 MLOAD CALLER SWAP1 PUSH32 0x28B4C24CB1012C094CD2F59F98E89D791973295F8FDA6EAA118022D6D318960A SWAP1 PUSH1 0x0 SWAP1 LOG2 JUMP JUMPDEST PUSH1 0x40 DUP1 MLOAD PUSH4 0x23B872DD PUSH1 0xE0 SHL DUP2 MSTORE PUSH1 0x1 PUSH1 0x1 PUSH1 0xA0 SHL SUB DUP6 DUP2 AND PUSH1 0x4 DUP4 ADD MSTORE DUP5 DUP2 AND PUSH1 0x24 DUP4 ADD MSTORE PUSH1 0x44 DUP3 ADD DUP5 SWAP1 MSTORE SWAP2 MLOAD SWAP2 DUP7 AND SWAP2 PUSH4 0x23B872DD SWAP2 PUSH1 0x64 DUP1 DUP3 ADD SWAP3 PUSH1 0x20 SWAP3 SWAP1 SWAP2 SWAP1 DUP3 SWAP1 SUB ADD DUP2 PUSH1 0x0 DUP8 DUP1 EXTCODESIZE ISZERO DUP1 ISZERO PUSH2 0x2664 JUMPI PUSH1 0x0 DUP1 REVERT JUMPDEST POP GAS CALL ISZERO DUP1 ISZERO PUSH2 0x2678 JUMPI RETURNDATASIZE PUSH1 0x0 DUP1 RETURNDATACOPY RETURNDATASIZE PUSH1 0x0 REVERT JUMPDEST POP POP POP POP PUSH1 0x40 MLOAD RETURNDATASIZE PUSH1 0x20 DUP2 LT ISZERO PUSH2 0x268E JUMPI PUSH1 0x0 DUP1 REVERT JUMPDEST POP MLOAD PUSH2 0x2699 JUMPI PUSH1 0x0 DUP1 REVERT JUMPDEST POP POP POP POP JUMP JUMPDEST PUSH1 0x1 PUSH1 0x1 PUSH1 0xA0 SHL SUB DUP2 AND PUSH2 0x26B2 JUMPI PUSH1 0x0 DUP1 REVERT JUMPDEST PUSH1 0x0 DUP1 SLOAD PUSH1 0x40 MLOAD PUSH1 0x1 PUSH1 0x1 PUSH1 0xA0 SHL SUB DUP1 DUP6 AND SWAP4 SWAP3 AND SWAP2 PUSH32 0x8BE0079C531659141344CD1FD0A4F28419497F9722A3DAAFE3B4186F6B6457E0 SWAP2 LOG3 PUSH1 0x0 DUP1 SLOAD PUSH1 0x1 PUSH1 0x1 PUSH1 0xA0 SHL SUB NOT AND PUSH1 0x1 PUSH1 0x1 PUSH1 0xA0 SHL SUB SWAP3 SWAP1 SWAP3 AND SWAP2 SWAP1 SWAP2 OR SWAP1 SSTORE JUMP JUMPDEST DUP3 PUSH1 0x1 PUSH1 0x1 PUSH1 0xA0 SHL SUB AND PUSH4 0xA9059CBB DUP4 DUP4 PUSH1 0x40 MLOAD DUP4 PUSH4 0xFFFFFFFF AND PUSH1 0xE0 SHL DUP2 MSTORE PUSH1 0x4 ADD DUP1 DUP4 PUSH1 0x1 PUSH1 0x1 PUSH1 0xA0 SHL SUB AND PUSH1 0x1 PUSH1 0x1 PUSH1 0xA0 SHL SUB AND DUP2 MSTORE PUSH1 0x20 ADD DUP3 DUP2 MSTORE PUSH1 0x20 ADD SWAP3 POP POP POP PUSH1 0x20 PUSH1 0x40 MLOAD DUP1 DUP4 SUB DUP2 PUSH1 0x0 DUP8 DUP1 EXTCODESIZE ISZERO DUP1 ISZERO PUSH2 0x276D JUMPI PUSH1 0x0 DUP1 REVERT JUMPDEST POP GAS CALL ISZERO DUP1 ISZERO PUSH2 0x2781 JUMPI RETURNDATASIZE PUSH1 0x0 DUP1 RETURNDATACOPY RETURNDATASIZE PUSH1 0x0 REVERT JUMPDEST POP POP POP POP PUSH1 0x40 MLOAD RETURNDATASIZE PUSH1 0x20 DUP2 LT ISZERO PUSH2 0x2797 JUMPI PUSH1 0x0 DUP1 REVERT JUMPDEST POP MLOAD PUSH2 0x246C JUMPI PUSH1 0x0 DUP1 REVERT INVALID NUMBER PUSH2 0x6E27 PUSH21 0x206465706F736974206D6F726520746F6B656E7320 PUSH2 0x6674 PUSH6 0x7220656E6420 PUSH16 0x662062696464696E6742696464657273 KECCAK256 PUSH9 0x61766520616C726561 PUSH5 0x7920626565 PUSH15 0x20636865636B656441646472657373 PUSH6 0x73206D757374 KECCAK256 PUSH3 0x652061 PUSH15 0x206172726179206F6620756E697175 PUSH6 0x206269646465 PUSH19 0x734D757374206265206174206C65617374206F PUSH15 0x652062696464657220666F72206120 PUSH19 0x6566756E64546F6B656E73206D757374206265 KECCAK256 PUSH4 0x6C61696D PUSH6 0x64206265666F PUSH19 0x6520726566756E644269642069732067726561 PUSH21 0x6572207468616E206D617820616C6C6F7761626C65 KECCAK256 PUSH3 0x696441 PUSH5 0x6472657373 GASPRICE KECCAK256 PUSH22 0x6E61626C6520746F2073656E642076616C75652C2072 PUSH6 0x63697069656E PUSH21 0x206D61792068617665207265766572746564436C61 PUSH10 0x6D696E6720686173206E PUSH16 0x74206265656E20656E61626C65642079 PUSH6 0x744E6F746869 PUSH15 0x6720746F20726566756E643A207468 PUSH6 0x726520697320 PUSH15 0x6F2045544820746F20726566756E64 KECCAK256 PUSH16 0x72206E6F20636F6D706C657465642077 PUSH16 0x726B43616E63656C6C6174696F6E2061 PUSH13 0x6C6F776564206F6E6C79206475 PUSH19 0x696E672063616E63656C6C6174696F6E207769 PUSH15 0x646F774E6F7420656E6F7567682074 PUSH16 0x6B656E7320666F72206D6F7265206269 PUSH5 0x6465727341 PUSH21 0x206C65617374206F6E65206F662062696464657273 KECCAK256 PUSH9 0x617320616C6C6F7761 PUSH3 0x6C6520 PUSH3 0x69644F PUSH17 0x65726174696F6E20697320616C6C6F7765 PUSH5 0x207768656E KECCAK256 PUSH4 0x616E6365 PUSH13 0x6C6174696F6E20706861736520 PUSH10 0x73206F766572436C6169 PUSH14 0x696E672068617320616C72656164 PUSH26 0x206265656E20656E61626C6564A264697066735822122090D976 PUSH27 0x6D2AF37A6FC99A3AB7F29B502807405A10609EB221AC0D8E5C85F6 CALLCODE PUSH5 0x736F6C6343 STOP MOD SMOD STOP CALLER ",
  "sha1": "a507456c01d8a60a75561d5c9d0b326630d42a31",
  "source": "pragma solidity ^0.6.5;\n\n\nimport \"zeppelin/math/SafeMath.sol\";\nimport \"zeppelin/token/ERC20/SafeERC20.sol\";\nimport \"zeppelin/utils/Address.sol\";\nimport \"zeppelin/ownership/Ownable.sol\";\nimport \"nucypher/NuCypherToken.sol\";\nimport \"nucypher/StakingEscrow.sol\";\nimport \"nucypher/lib/AdditionalMath.sol\";\n\n\n/**\n* @notice The WorkLock distribution contract\n*/\ncontract WorkLock is Ownable {\n    using SafeERC20 for NuCypherToken;\n    using SafeMath for uint256;\n    using AdditionalMath for uint256;\n    using Address for address payable;\n    using Address for address;\n\n    event Deposited(address indexed sender, uint256 value);\n    event Bid(address indexed sender, uint256 depositedETH);\n    event Claimed(address indexed sender, uint256 claimedTokens);\n    event Refund(address indexed sender, uint256 refundETH, uint256 completedWork);\n    event Canceled(address indexed sender, uint256 value);\n    event BiddersChecked(address indexed sender, uint256 startIndex, uint256 endIndex);\n    event ForceRefund(address indexed sender, address indexed bidder, uint256 refundETH);\n    event CompensationWithdrawn(address indexed sender, uint256 value);\n    event Shutdown(address indexed sender);\n\n    struct WorkInfo {\n        uint256 depositedETH;\n        uint256 completedWork;\n        bool claimed;\n        uint128 index;\n    }\n\n    uint16 public constant SLOWING_REFUND = 100;\n    uint256 private constant MAX_ETH_SUPPLY = 2e10 ether;\n\n    NuCypherToken public immutable token;\n    StakingEscrow public immutable escrow;\n\n    /*\n    * @dev WorkLock calculations:\n    * bid = minBid + bonusETHPart\n    * bonusTokenSupply = tokenSupply - bidders.length * minAllowableLockedTokens\n    * bonusDepositRate = bonusTokenSupply / bonusETHSupply\n    * claimedTokens = minAllowableLockedTokens + bonusETHPart * bonusDepositRate\n    * bonusRefundRate = bonusDepositRate * SLOWING_REFUND / boostingRefund\n    * refundETH = completedWork / refundRate\n    */\n    uint256 public immutable boostingRefund;\n    uint256 public immutable minAllowedBid;\n    uint16 public immutable stakingPeriods;\n    // copy from the escrow contract\n    uint256 public immutable maxAllowableLockedTokens;\n    uint256 public immutable minAllowableLockedTokens;\n\n    uint256 public tokenSupply;\n    uint256 public startBidDate;\n    uint256 public endBidDate;\n    uint256 public endCancellationDate;\n\n    uint256 public bonusETHSupply;\n    mapping(address => WorkInfo) public workInfo;\n    mapping(address => uint256) public compensation;\n\n    address[] public bidders;\n    // if value == bidders.length then WorkLock is fully checked\n    uint256 public nextBidderToCheck;\n\n    /**\n    * @dev Checks timestamp regarding cancellation window\n    */\n    modifier afterCancellationWindow()\n    {\n        require(block.timestamp >= endCancellationDate,\n            \"Operation is allowed when cancellation phase is over\");\n        _;\n    }\n\n    /**\n    * @param _token Token contract\n    * @param _escrow Escrow contract\n    * @param _startBidDate Timestamp when bidding starts\n    * @param _endBidDate Timestamp when bidding will end\n    * @param _endCancellationDate Timestamp when cancellation will ends\n    * @param _boostingRefund Coefficient to boost refund ETH\n    * @param _stakingPeriods Amount of periods during which tokens will be locked after claiming\n    * @param _minAllowedBid Minimum allowed ETH amount for bidding\n    */\n    constructor(\n        NuCypherToken _token,\n        StakingEscrow _escrow,\n        uint256 _startBidDate,\n        uint256 _endBidDate,\n        uint256 _endCancellationDate,\n        uint256 _boostingRefund,\n        uint16 _stakingPeriods,\n        uint256 _minAllowedBid\n    )\n        public\n    {\n        uint256 totalSupply = _token.totalSupply();\n        require(totalSupply > 0 &&                              // token contract is deployed and accessible\n            _escrow.secondsPerPeriod() > 0 &&                   // escrow contract is deployed and accessible\n            _escrow.token() == _token &&                        // same token address for worklock and escrow\n            _endBidDate > _startBidDate &&                      // bidding period lasts some time\n            _endBidDate > block.timestamp &&                    // there is time to make a bid\n            _endCancellationDate >= _endBidDate &&              // cancellation window includes bidding\n            _minAllowedBid > 0 &&                               // min allowed bid was set\n            _boostingRefund > 0 &&                              // boosting coefficient was set\n            _stakingPeriods >= _escrow.minLockedPeriods());     // staking duration is consistent with escrow contract\n        // worst case for `ethToWork()` and `workToETH()`,\n        // when ethSupply == MAX_ETH_SUPPLY and tokenSupply == totalSupply\n        require(MAX_ETH_SUPPLY * totalSupply * SLOWING_REFUND / MAX_ETH_SUPPLY / totalSupply == SLOWING_REFUND &&\n            MAX_ETH_SUPPLY * totalSupply * _boostingRefund / MAX_ETH_SUPPLY / totalSupply == _boostingRefund);\n\n        token = _token;\n        escrow = _escrow;\n        startBidDate = _startBidDate;\n        endBidDate = _endBidDate;\n        endCancellationDate = _endCancellationDate;\n        boostingRefund = _boostingRefund;\n        stakingPeriods = _stakingPeriods;\n        minAllowedBid = _minAllowedBid;\n        maxAllowableLockedTokens = _escrow.maxAllowableLockedTokens();\n        minAllowableLockedTokens = _escrow.minAllowableLockedTokens();\n    }\n\n    /**\n    * @notice Deposit tokens to contract\n    * @param _value Amount of tokens to transfer\n    */\n    function tokenDeposit(uint256 _value) external {\n        require(block.timestamp < endBidDate, \"Can't deposit more tokens after end of bidding\");\n        token.safeTransferFrom(msg.sender, address(this), _value);\n        tokenSupply += _value;\n        emit Deposited(msg.sender, _value);\n    }\n\n    /**\n    * @notice Calculate amount of tokens that will be get for specified amount of ETH\n    * @dev This value will be fixed only after end of bidding\n    */\n    function ethToTokens(uint256 _ethAmount) public view returns (uint256) {\n        if (_ethAmount < minAllowedBid) {\n            return 0;\n        }\n\n        // when all participants bid with the same minimum amount of eth\n        if (bonusETHSupply == 0) {\n            return tokenSupply / bidders.length;\n        }\n\n        uint256 bonusETH = _ethAmount - minAllowedBid;\n        uint256 bonusTokenSupply = tokenSupply - bidders.length * minAllowableLockedTokens;\n        return minAllowableLockedTokens + bonusETH.mul(bonusTokenSupply).div(bonusETHSupply);\n    }\n\n    /**\n    * @notice Calculate amount of work that need to be done to refund specified amount of ETH\n    */\n    function ethToWork(uint256 _ethAmount, uint256 _tokenSupply, uint256 _ethSupply)\n        internal view returns (uint256)\n    {\n        return _ethAmount.mul(_tokenSupply).mul(SLOWING_REFUND).divCeil(_ethSupply.mul(boostingRefund));\n    }\n\n    /**\n    * @notice Calculate amount of work that need to be done to refund specified amount of ETH\n    * @dev This value will be fixed only after end of bidding\n    * @param _ethToReclaim Specified sum of ETH staker wishes to reclaim following completion of work\n    * @param _restOfDepositedETH Remaining ETH in staker's deposit once ethToReclaim sum has been subtracted\n    * @dev _ethToReclaim + _restOfDepositedETH = depositedETH\n    */\n    function ethToWork(uint256 _ethToReclaim, uint256 _restOfDepositedETH) internal view returns (uint256) {\n\n        uint256 baseETHSupply = bidders.length * minAllowedBid;\n        // when all participants bid with the same minimum amount of eth\n        if (bonusETHSupply == 0) {\n            return ethToWork(_ethToReclaim, tokenSupply, baseETHSupply);\n        }\n\n        uint256 baseETH = 0;\n        uint256 bonusETH = 0;\n\n        // If the staker's total remaining deposit (including the specified sum of ETH to reclaim)\n        // is lower than the minimum bid size,\n        // then only the base part is used to calculate the work required to reclaim ETH\n        if (_ethToReclaim + _restOfDepositedETH <= minAllowedBid) {\n            baseETH = _ethToReclaim;\n\n        // If the staker's remaining deposit (not including the specified sum of ETH to reclaim)\n        // is still greater than the minimum bid size,\n        // then only the bonus part is used to calculate the work required to reclaim ETH\n        } else if (_restOfDepositedETH >= minAllowedBid) {\n            bonusETH = _ethToReclaim;\n\n        // If the staker's remaining deposit (not including the specified sum of ETH to reclaim)\n        // is lower than the minimum bid size,\n        // then both the base and bonus parts must be used to calculate the work required to reclaim ETH\n        } else {\n            bonusETH = _ethToReclaim + _restOfDepositedETH - minAllowedBid;\n            baseETH = _ethToReclaim - bonusETH;\n        }\n\n        uint256 baseTokenSupply = bidders.length * minAllowableLockedTokens;\n        uint256 work = 0;\n        if (baseETH > 0) {\n            work = ethToWork(baseETH, baseTokenSupply, baseETHSupply);\n        }\n\n        if (bonusETH > 0) {\n            uint256 bonusTokenSupply = tokenSupply - baseTokenSupply;\n            work += ethToWork(bonusETH, bonusTokenSupply, bonusETHSupply);\n        }\n\n        return work;\n    }\n\n    /**\n    * @notice Calculate amount of work that need to be done to refund specified amount of ETH\n    * @dev This value will be fixed only after end of bidding\n    */\n    function ethToWork(uint256 _ethAmount) public view returns (uint256) {\n        return ethToWork(_ethAmount, 0);\n    }\n\n    /**\n    * @notice Calculate amount of ETH that will be refund for completing specified amount of work\n    */\n    function workToETH(uint256 _completedWork, uint256 _ethSupply, uint256 _tokenSupply)\n        internal view returns (uint256)\n    {\n        return _completedWork.mul(_ethSupply).mul(boostingRefund).div(_tokenSupply.mul(SLOWING_REFUND));\n    }\n\n    /**\n    * @notice Calculate amount of ETH that will be refund for completing specified amount of work\n    * @dev This value will be fixed only after end of bidding\n    */\n    function workToETH(uint256 _completedWork, uint256 _depositedETH) public view returns (uint256) {\n        uint256 baseETHSupply = bidders.length * minAllowedBid;\n        // when all participants bid with the same minimum amount of eth\n        if (bonusETHSupply == 0) {\n            return workToETH(_completedWork, baseETHSupply, tokenSupply);\n        }\n\n        uint256 bonusWork = 0;\n        uint256 bonusETH = 0;\n        uint256 baseTokenSupply = bidders.length * minAllowableLockedTokens;\n\n        if (_depositedETH > minAllowedBid) {\n            bonusETH = _depositedETH - minAllowedBid;\n            uint256 bonusTokenSupply = tokenSupply - baseTokenSupply;\n            bonusWork = ethToWork(bonusETH, bonusTokenSupply, bonusETHSupply);\n\n            if (_completedWork <= bonusWork) {\n                return workToETH(_completedWork, bonusETHSupply, bonusTokenSupply);\n            }\n        }\n\n        _completedWork -= bonusWork;\n        return bonusETH + workToETH(_completedWork, baseETHSupply, baseTokenSupply);\n    }\n\n    /**\n    * @notice Get remaining work to full refund\n    */\n    function getRemainingWork(address _bidder) external view returns (uint256) {\n        WorkInfo storage info = workInfo[_bidder];\n        uint256 completedWork = escrow.getCompletedWork(_bidder).sub(info.completedWork);\n        uint256 remainingWork = ethToWork(info.depositedETH);\n        if (remainingWork <= completedWork) {\n            return 0;\n        }\n        return remainingWork - completedWork;\n    }\n\n    /**\n    * @notice Get length of bidders array\n    */\n    function getBiddersLength() external view returns (uint256) {\n        return bidders.length;\n    }\n\n    /**\n    * @notice Bid for tokens by transferring ETH\n    */\n    function bid() external payable {\n        require(block.timestamp >= startBidDate, \"Bidding is not open yet\");\n        require(block.timestamp < endBidDate, \"Bidding is already finished\");\n        WorkInfo storage info = workInfo[msg.sender];\n\n        // first bid\n        if (info.depositedETH == 0) {\n            require(msg.value >= minAllowedBid, \"Bid must be at least minimum\");\n            require(bidders.length < tokenSupply / minAllowableLockedTokens, \"Not enough tokens for more bidders\");\n            info.index = uint128(bidders.length);\n            bidders.push(msg.sender);\n            bonusETHSupply = bonusETHSupply.add(msg.value - minAllowedBid);\n        } else {\n            bonusETHSupply = bonusETHSupply.add(msg.value);\n        }\n\n        info.depositedETH = info.depositedETH.add(msg.value);\n        emit Bid(msg.sender, msg.value);\n    }\n\n    /**\n    * @notice Cancel bid and refund deposited ETH\n    */\n    function cancelBid() external {\n        require(block.timestamp < endCancellationDate,\n            \"Cancellation allowed only during cancellation window\");\n        WorkInfo storage info = workInfo[msg.sender];\n        require(info.depositedETH > 0, \"No bid to cancel\");\n        require(!info.claimed, \"Tokens are already claimed\");\n        uint256 refundETH = info.depositedETH;\n        info.depositedETH = 0;\n\n        // remove from bidders array, move last bidder to the empty place\n        uint256 lastIndex = bidders.length - 1;\n        if (info.index != lastIndex) {\n            address lastBidder = bidders[lastIndex];\n            bidders[info.index] = lastBidder;\n            workInfo[lastBidder].index = info.index;\n        }\n        bidders.pop();\n\n        if (refundETH > minAllowedBid) {\n            bonusETHSupply = bonusETHSupply.sub(refundETH - minAllowedBid);\n        }\n        msg.sender.sendValue(refundETH);\n        emit Canceled(msg.sender, refundETH);\n    }\n\n    /**\n    * @notice Cancels distribution, makes possible to retrieve all bids and owner gets all tokens\n    */\n    function shutdown() external onlyOwner {\n        require(!isClaimingAvailable(), \"Claiming has already been enabled\");\n        internalShutdown();\n    }\n\n    /**\n    * @notice Cancels distribution, makes possible to retrieve all bids and owner gets all tokens\n    */\n    function internalShutdown() internal {\n        startBidDate = 0;\n        endBidDate = 0;\n        endCancellationDate = uint256(0) - 1; // \"infinite\" cancellation window\n        token.safeTransfer(owner(), tokenSupply);\n        emit Shutdown(msg.sender);\n    }\n\n    /**\n    * @notice Make force refund to bidders who can get tokens more than maximum allowed\n    * @param _biddersForRefund Sorted list of unique bidders. Only bidders who must receive a refund\n    */\n    function forceRefund(address payable[] calldata _biddersForRefund) external afterCancellationWindow {\n        require(nextBidderToCheck != bidders.length, \"Bidders have already been checked\");\n\n        uint256 length = _biddersForRefund.length;\n        require(length > 0, \"Must be at least one bidder for a refund\");\n\n        uint256 minNumberOfBidders = tokenSupply.divCeil(maxAllowableLockedTokens);\n        if (bidders.length < minNumberOfBidders) {\n            internalShutdown();\n            return;\n        }\n\n        address previousBidder = _biddersForRefund[0];\n        uint256 minBid = workInfo[previousBidder].depositedETH;\n        uint256 maxBid = minBid;\n\n        // get minimum and maximum bids\n        for (uint256 i = 1; i < length; i++) {\n            address bidder = _biddersForRefund[i];\n            uint256 depositedETH = workInfo[bidder].depositedETH;\n            require(bidder > previousBidder && depositedETH > 0, \"Addresses must be an array of unique bidders\");\n            if (minBid > depositedETH) {\n                minBid = depositedETH;\n            } else if (maxBid < depositedETH) {\n                maxBid = depositedETH;\n            }\n            previousBidder = bidder;\n        }\n\n        uint256[] memory refunds = new uint256[](length);\n        // first step - align at a minimum bid\n        if (minBid != maxBid) {\n            for (uint256 i = 0; i < length; i++) {\n                address bidder = _biddersForRefund[i];\n                WorkInfo storage info = workInfo[bidder];\n                if (info.depositedETH > minBid) {\n                    refunds[i] = info.depositedETH - minBid;\n                    info.depositedETH = minBid;\n                    bonusETHSupply -= refunds[i];\n                }\n            }\n        }\n\n        require(ethToTokens(minBid) > maxAllowableLockedTokens,\n            \"At least one of bidders has allowable bid\");\n\n        // final bids adjustment (only for bonus part)\n        // (min_whale_bid * token_supply - max_stake * eth_supply) / (token_supply - max_stake * n_whales)\n        uint256 maxBonusTokens = maxAllowableLockedTokens - minAllowableLockedTokens;\n        uint256 minBonusETH = minBid - minAllowedBid;\n        uint256 bonusTokenSupply = tokenSupply - bidders.length * minAllowableLockedTokens;\n        uint256 refundETH = minBonusETH.mul(bonusTokenSupply)\n                                .sub(maxBonusTokens.mul(bonusETHSupply))\n                                .divCeil(bonusTokenSupply - maxBonusTokens.mul(length));\n        uint256 resultBid = minBid.sub(refundETH);\n        bonusETHSupply -= length * refundETH;\n        for (uint256 i = 0; i < length; i++) {\n            address bidder = _biddersForRefund[i];\n            WorkInfo storage info = workInfo[bidder];\n            refunds[i] += refundETH;\n            info.depositedETH = resultBid;\n        }\n\n        // reset verification\n        nextBidderToCheck = 0;\n\n        // save a refund\n        for (uint256 i = 0; i < length; i++) {\n            address bidder = _biddersForRefund[i];\n            compensation[bidder] += refunds[i];\n            emit ForceRefund(msg.sender, bidder, refunds[i]);\n        }\n\n    }\n\n    /**\n    * @notice Withdraw compensation after force refund\n    */\n    function withdrawCompensation() external {\n        uint256 refund = compensation[msg.sender];\n        require(refund > 0, \"There is no compensation\");\n        compensation[msg.sender] = 0;\n        msg.sender.sendValue(refund);\n        emit CompensationWithdrawn(msg.sender, refund);\n    }\n\n    /**\n    * @notice Check that the claimed tokens are within `maxAllowableLockedTokens` for all participants,\n    * starting from the last point `nextBidderToCheck`\n    * @dev Method stops working when the remaining gas is less than `_gasToSaveState`\n    * and saves the state in `nextBidderToCheck`.\n    * If all bidders have been checked then `nextBidderToCheck` will be equal to the length of the bidders array\n    */\n    function verifyBiddingCorrectness(uint256 _gasToSaveState) external afterCancellationWindow returns (uint256) {\n        require(nextBidderToCheck != bidders.length, \"Bidders have already been checked\");\n\n        // all participants bid with the same minimum amount of eth\n        uint256 index = nextBidderToCheck;\n        if (bonusETHSupply == 0) {\n            require(tokenSupply / bidders.length <= maxAllowableLockedTokens, \"Not enough bidders\");\n            index = bidders.length;\n        }\n\n        uint256 maxBonusTokens = maxAllowableLockedTokens - minAllowableLockedTokens;\n        uint256 bonusTokenSupply = tokenSupply - bidders.length * minAllowableLockedTokens;\n        uint256 maxBidFromMaxStake = minAllowedBid + maxBonusTokens.mul(bonusETHSupply).div(bonusTokenSupply);\n\n\n        while (index < bidders.length && gasleft() > _gasToSaveState) {\n            address bidder = bidders[index];\n            require(workInfo[bidder].depositedETH <= maxBidFromMaxStake, \"Bid is greater than max allowable bid\");\n            index++;\n        }\n\n        if (index != nextBidderToCheck) {\n            emit BiddersChecked(msg.sender, nextBidderToCheck, index);\n            nextBidderToCheck = index;\n        }\n        return nextBidderToCheck;\n    }\n\n    /**\n    * @notice Checks if claiming available\n    */\n    function isClaimingAvailable() public view returns (bool) {\n        return block.timestamp >= endCancellationDate &&\n            nextBidderToCheck == bidders.length;\n    }\n\n    /**\n    * @notice Claimed tokens will be deposited and locked as stake in the StakingEscrow contract.\n    */\n    function claim() external returns (uint256 claimedTokens) {\n        require(isClaimingAvailable(), \"Claiming has not been enabled yet\");\n        WorkInfo storage info = workInfo[msg.sender];\n        require(!info.claimed, \"Tokens are already claimed\");\n        claimedTokens = ethToTokens(info.depositedETH);\n        require(claimedTokens > 0, \"Nothing to claim\");\n\n        info.claimed = true;\n        token.approve(address(escrow), claimedTokens);\n        escrow.deposit(msg.sender, claimedTokens, stakingPeriods);\n        info.completedWork = escrow.setWorkMeasurement(msg.sender, true);\n        emit Claimed(msg.sender, claimedTokens);\n    }\n\n    /**\n    * @notice Get available refund for bidder\n    */\n    function getAvailableRefund(address _bidder) public view returns (uint256) {\n        WorkInfo storage info = workInfo[_bidder];\n        // nothing to refund\n        if (info.depositedETH == 0) {\n            return 0;\n        }\n\n        uint256 currentWork = escrow.getCompletedWork(_bidder);\n        uint256 completedWork = currentWork.sub(info.completedWork);\n        // no work that has been completed since last refund\n        if (completedWork == 0) {\n            return 0;\n        }\n\n        uint256 refundETH = workToETH(completedWork, info.depositedETH);\n        if (refundETH > info.depositedETH) {\n            refundETH = info.depositedETH;\n        }\n        return refundETH;\n    }\n\n    /**\n    * @notice Refund ETH for the completed work\n    */\n    function refund() external returns (uint256 refundETH) {\n        WorkInfo storage info = workInfo[msg.sender];\n        require(info.claimed, \"Tokens must be claimed before refund\");\n        refundETH = getAvailableRefund(msg.sender);\n        require(refundETH > 0, \"Nothing to refund: there is no ETH to refund or no completed work\");\n\n        if (refundETH == info.depositedETH) {\n            escrow.setWorkMeasurement(msg.sender, false);\n        }\n        info.depositedETH = info.depositedETH.sub(refundETH);\n        // convert refund back to work to eliminate potential rounding errors\n        uint256 completedWork = ethToWork(refundETH, info.depositedETH);\n\n        info.completedWork = info.completedWork.add(completedWork);\n        emit Refund(msg.sender, refundETH, completedWork);\n        msg.sender.sendValue(refundETH);\n    }\n}\n",
  "sourcePath": "../../nucypher/blockchain/eth/sol/source/contracts/WorkLock.sol",
  "type": "contract"
}